{
	"contracts/LuckyRedEnvelopeV2.sol": {
		"LuckyRedEnvelopeV2": {
			"abi": [
				{
					"inputs": [
						{
							"internalType": "address",
							"name": "_operatorAddress",
							"type": "address"
						},
						{
							"internalType": "address",
							"name": "_defaultTicketToken",
							"type": "address"
						},
						{
							"internalType": "uint256",
							"name": "_defaultTicketPirce",
							"type": "uint256"
						}
					],
					"stateMutability": "nonpayable",
					"type": "constructor"
				},
				{
					"inputs": [
						{
							"internalType": "address",
							"name": "target",
							"type": "address"
						}
					],
					"name": "AddressEmptyCode",
					"type": "error"
				},
				{
					"inputs": [
						{
							"internalType": "address",
							"name": "account",
							"type": "address"
						}
					],
					"name": "AddressInsufficientBalance",
					"type": "error"
				},
				{
					"inputs": [],
					"name": "FailedInnerCall",
					"type": "error"
				},
				{
					"inputs": [
						{
							"internalType": "address",
							"name": "owner",
							"type": "address"
						}
					],
					"name": "OwnableInvalidOwner",
					"type": "error"
				},
				{
					"inputs": [
						{
							"internalType": "address",
							"name": "account",
							"type": "address"
						}
					],
					"name": "OwnableUnauthorizedAccount",
					"type": "error"
				},
				{
					"inputs": [],
					"name": "ReentrancyGuardReentrantCall",
					"type": "error"
				},
				{
					"inputs": [
						{
							"internalType": "address",
							"name": "token",
							"type": "address"
						}
					],
					"name": "SafeERC20FailedOperation",
					"type": "error"
				},
				{
					"anonymous": false,
					"inputs": [
						{
							"indexed": true,
							"internalType": "uint256",
							"name": "id",
							"type": "uint256"
						},
						{
							"indexed": true,
							"internalType": "address",
							"name": "winner",
							"type": "address"
						},
						{
							"indexed": false,
							"internalType": "uint256",
							"name": "totalAmount",
							"type": "uint256"
						},
						{
							"indexed": false,
							"internalType": "bool",
							"name": "autoClaim",
							"type": "bool"
						}
					],
					"name": "ClaimPrize",
					"type": "event"
				},
				{
					"anonymous": false,
					"inputs": [
						{
							"indexed": false,
							"internalType": "bool",
							"name": "defaultAutoClaim",
							"type": "bool"
						}
					],
					"name": "DefaultAutoClaimChange",
					"type": "event"
				},
				{
					"anonymous": false,
					"inputs": [
						{
							"indexed": false,
							"internalType": "address",
							"name": "defaultTicketToken",
							"type": "address"
						},
						{
							"indexed": false,
							"internalType": "uint256",
							"name": "defaultTicketPirce",
							"type": "uint256"
						}
					],
					"name": "DefaultTokenChange",
					"type": "event"
				},
				{
					"anonymous": false,
					"inputs": [
						{
							"indexed": false,
							"internalType": "address",
							"name": "operatorAddress",
							"type": "address"
						},
						{
							"indexed": false,
							"internalType": "bool",
							"name": "opt",
							"type": "bool"
						}
					],
					"name": "OperatorAddress",
					"type": "event"
				},
				{
					"anonymous": false,
					"inputs": [
						{
							"indexed": true,
							"internalType": "address",
							"name": "previousOwner",
							"type": "address"
						},
						{
							"indexed": true,
							"internalType": "address",
							"name": "newOwner",
							"type": "address"
						}
					],
					"name": "OwnershipTransferred",
					"type": "event"
				},
				{
					"anonymous": false,
					"inputs": [
						{
							"indexed": true,
							"internalType": "uint256",
							"name": "id",
							"type": "uint256"
						},
						{
							"indexed": true,
							"internalType": "address",
							"name": "winner",
							"type": "address"
						},
						{
							"indexed": true,
							"internalType": "uint256",
							"name": "index",
							"type": "uint256"
						},
						{
							"indexed": false,
							"internalType": "uint256",
							"name": "amount",
							"type": "uint256"
						},
						{
							"indexed": false,
							"internalType": "bool",
							"name": "autoClaim",
							"type": "bool"
						}
					],
					"name": "PrizeDrawn",
					"type": "event"
				},
				{
					"anonymous": false,
					"inputs": [
						{
							"indexed": true,
							"internalType": "uint256",
							"name": "id",
							"type": "uint256"
						},
						{
							"indexed": false,
							"internalType": "uint256",
							"name": "endTime",
							"type": "uint256"
						}
					],
					"name": "RedEnvelopeClaimable",
					"type": "event"
				},
				{
					"anonymous": false,
					"inputs": [
						{
							"indexed": true,
							"internalType": "uint256",
							"name": "id",
							"type": "uint256"
						},
						{
							"indexed": false,
							"internalType": "uint256",
							"name": "endTime",
							"type": "uint256"
						},
						{
							"indexed": false,
							"internalType": "uint256",
							"name": "buyTickets",
							"type": "uint256"
						},
						{
							"indexed": false,
							"internalType": "uint256",
							"name": "injectTickets",
							"type": "uint256"
						}
					],
					"name": "RedEnvelopeClosed",
					"type": "event"
				},
				{
					"anonymous": false,
					"inputs": [
						{
							"indexed": true,
							"internalType": "uint256",
							"name": "id",
							"type": "uint256"
						},
						{
							"indexed": false,
							"internalType": "uint256",
							"name": "startTime",
							"type": "uint256"
						},
						{
							"indexed": false,
							"internalType": "uint256",
							"name": "endTime",
							"type": "uint256"
						},
						{
							"indexed": false,
							"internalType": "uint256",
							"name": "maxTickets",
							"type": "uint256"
						},
						{
							"indexed": false,
							"internalType": "uint256",
							"name": "ticketPirce",
							"type": "uint256"
						},
						{
							"indexed": false,
							"internalType": "address",
							"name": "getTicketAddr",
							"type": "address"
						},
						{
							"indexed": false,
							"internalType": "bool",
							"name": "autoClaim",
							"type": "bool"
						}
					],
					"name": "RedEnvelopeCreated",
					"type": "event"
				},
				{
					"anonymous": false,
					"inputs": [
						{
							"indexed": true,
							"internalType": "uint256",
							"name": "id",
							"type": "uint256"
						},
						{
							"indexed": true,
							"internalType": "address",
							"name": "sender",
							"type": "address"
						},
						{
							"indexed": true,
							"internalType": "address",
							"name": "receiveAddress",
							"type": "address"
						},
						{
							"indexed": false,
							"internalType": "uint256",
							"name": "ticketNumbers",
							"type": "uint256"
						}
					],
					"name": "TicketsGet",
					"type": "event"
				},
				{
					"anonymous": false,
					"inputs": [
						{
							"indexed": true,
							"internalType": "uint256",
							"name": "id",
							"type": "uint256"
						},
						{
							"indexed": true,
							"internalType": "address",
							"name": "sender",
							"type": "address"
						},
						{
							"indexed": false,
							"internalType": "uint256",
							"name": "ticketNumbers",
							"type": "uint256"
						}
					],
					"name": "TicketsInject",
					"type": "event"
				},
				{
					"anonymous": false,
					"inputs": [
						{
							"indexed": true,
							"internalType": "uint256",
							"name": "id",
							"type": "uint256"
						},
						{
							"indexed": true,
							"internalType": "address",
							"name": "sender",
							"type": "address"
						},
						{
							"indexed": true,
							"internalType": "address",
							"name": "receiveAddress",
							"type": "address"
						},
						{
							"indexed": false,
							"internalType": "uint256",
							"name": "ticketNumbers",
							"type": "uint256"
						}
					],
					"name": "TicketsPurchase",
					"type": "event"
				},
				{
					"inputs": [
						{
							"internalType": "uint256",
							"name": "_id",
							"type": "uint256"
						},
						{
							"internalType": "address",
							"name": "_receiveAddress",
							"type": "address"
						},
						{
							"internalType": "uint256",
							"name": "_ticketNumbers",
							"type": "uint256"
						}
					],
					"name": "buyTickets",
					"outputs": [],
					"stateMutability": "nonpayable",
					"type": "function"
				},
				{
					"inputs": [
						{
							"internalType": "uint256",
							"name": "_id",
							"type": "uint256"
						}
					],
					"name": "claimPrize",
					"outputs": [],
					"stateMutability": "nonpayable",
					"type": "function"
				},
				{
					"inputs": [
						{
							"internalType": "uint256",
							"name": "_endTime",
							"type": "uint256"
						},
						{
							"internalType": "uint256",
							"name": "_maxTickets",
							"type": "uint256"
						},
						{
							"internalType": "uint256",
							"name": "_maxPrizeNum",
							"type": "uint256"
						},
						{
							"internalType": "uint256",
							"name": "_secret",
							"type": "uint256"
						}
					],
					"name": "createRedEnvelope",
					"outputs": [],
					"stateMutability": "nonpayable",
					"type": "function"
				},
				{
					"inputs": [
						{
							"internalType": "address",
							"name": "_tokenAddress",
							"type": "address"
						},
						{
							"internalType": "uint256",
							"name": "_ticketPirce",
							"type": "uint256"
						},
						{
							"internalType": "uint256",
							"name": "_endTime",
							"type": "uint256"
						},
						{
							"internalType": "uint256",
							"name": "_maxTickets",
							"type": "uint256"
						},
						{
							"internalType": "uint256",
							"name": "_maxPrizeNum",
							"type": "uint256"
						},
						{
							"internalType": "address",
							"name": "_injectAddress",
							"type": "address"
						},
						{
							"internalType": "uint256",
							"name": "_injectTicketNum",
							"type": "uint256"
						},
						{
							"internalType": "address",
							"name": "_getTicketAddr",
							"type": "address"
						},
						{
							"internalType": "uint256",
							"name": "_secret",
							"type": "uint256"
						}
					],
					"name": "createRedEnvelopeDetail",
					"outputs": [],
					"stateMutability": "nonpayable",
					"type": "function"
				},
				{
					"inputs": [],
					"name": "currentId",
					"outputs": [
						{
							"internalType": "uint256",
							"name": "",
							"type": "uint256"
						}
					],
					"stateMutability": "view",
					"type": "function"
				},
				{
					"inputs": [],
					"name": "defaultAutoClaim",
					"outputs": [
						{
							"internalType": "bool",
							"name": "",
							"type": "bool"
						}
					],
					"stateMutability": "view",
					"type": "function"
				},
				{
					"inputs": [],
					"name": "defaultTicketPirce",
					"outputs": [
						{
							"internalType": "uint256",
							"name": "",
							"type": "uint256"
						}
					],
					"stateMutability": "view",
					"type": "function"
				},
				{
					"inputs": [],
					"name": "defaultTicketToken",
					"outputs": [
						{
							"internalType": "address",
							"name": "",
							"type": "address"
						}
					],
					"stateMutability": "view",
					"type": "function"
				},
				{
					"inputs": [
						{
							"internalType": "uint256",
							"name": "_id",
							"type": "uint256"
						},
						{
							"internalType": "uint256",
							"name": "_nonce",
							"type": "uint256"
						}
					],
					"name": "drawPrize",
					"outputs": [],
					"stateMutability": "nonpayable",
					"type": "function"
				},
				{
					"inputs": [
						{
							"internalType": "uint256",
							"name": "_id",
							"type": "uint256"
						}
					],
					"name": "endRedEnvelope",
					"outputs": [],
					"stateMutability": "nonpayable",
					"type": "function"
				},
				{
					"inputs": [
						{
							"internalType": "uint256",
							"name": "_id",
							"type": "uint256"
						},
						{
							"internalType": "address",
							"name": "_receiveAddress",
							"type": "address"
						},
						{
							"internalType": "uint256",
							"name": "_ticketNumbers",
							"type": "uint256"
						}
					],
					"name": "getTickets",
					"outputs": [],
					"stateMutability": "nonpayable",
					"type": "function"
				},
				{
					"inputs": [
						{
							"internalType": "uint256",
							"name": "_id",
							"type": "uint256"
						},
						{
							"internalType": "uint256",
							"name": "_ticketNumbers",
							"type": "uint256"
						}
					],
					"name": "injectTickets",
					"outputs": [],
					"stateMutability": "nonpayable",
					"type": "function"
				},
				{
					"inputs": [
						{
							"internalType": "address",
							"name": "",
							"type": "address"
						}
					],
					"name": "operatorAddressList",
					"outputs": [
						{
							"internalType": "bool",
							"name": "",
							"type": "bool"
						}
					],
					"stateMutability": "view",
					"type": "function"
				},
				{
					"inputs": [],
					"name": "owner",
					"outputs": [
						{
							"internalType": "address",
							"name": "",
							"type": "address"
						}
					],
					"stateMutability": "view",
					"type": "function"
				},
				{
					"inputs": [],
					"name": "renounceOwnership",
					"outputs": [],
					"stateMutability": "nonpayable",
					"type": "function"
				},
				{
					"inputs": [
						{
							"internalType": "bool",
							"name": "_defaultAutoClaim",
							"type": "bool"
						}
					],
					"name": "setDefaultAutoClaim",
					"outputs": [],
					"stateMutability": "nonpayable",
					"type": "function"
				},
				{
					"inputs": [
						{
							"internalType": "address",
							"name": "_operatorAddress",
							"type": "address"
						},
						{
							"internalType": "bool",
							"name": "_opt",
							"type": "bool"
						}
					],
					"name": "setOperatorAddress",
					"outputs": [],
					"stateMutability": "nonpayable",
					"type": "function"
				},
				{
					"inputs": [
						{
							"internalType": "address",
							"name": "_defaultTicketToken",
							"type": "address"
						},
						{
							"internalType": "uint256",
							"name": "_defaultTicketPirce",
							"type": "uint256"
						}
					],
					"name": "setTicketToken",
					"outputs": [],
					"stateMutability": "nonpayable",
					"type": "function"
				},
				{
					"inputs": [
						{
							"internalType": "address",
							"name": "newOwner",
							"type": "address"
						}
					],
					"name": "transferOwnership",
					"outputs": [],
					"stateMutability": "nonpayable",
					"type": "function"
				},
				{
					"inputs": [],
					"name": "viewCurrentRedEnvelopeId",
					"outputs": [
						{
							"internalType": "uint256",
							"name": "",
							"type": "uint256"
						}
					],
					"stateMutability": "view",
					"type": "function"
				},
				{
					"inputs": [
						{
							"internalType": "uint256",
							"name": "_id",
							"type": "uint256"
						}
					],
					"name": "viewRedEnvelopeStatus",
					"outputs": [
						{
							"internalType": "uint256",
							"name": "",
							"type": "uint256"
						}
					],
					"stateMutability": "view",
					"type": "function"
				}
			],
			"devdoc": {
				"errors": {
					"AddressEmptyCode(address)": [
						{
							"details": "There's no code at `target` (it is not a contract)."
						}
					],
					"AddressInsufficientBalance(address)": [
						{
							"details": "The ETH balance of the account is not enough to perform the operation."
						}
					],
					"FailedInnerCall()": [
						{
							"details": "A call to an address target failed. The target may have reverted."
						}
					],
					"OwnableInvalidOwner(address)": [
						{
							"details": "The owner is not a valid owner account. (eg. `address(0)`)"
						}
					],
					"OwnableUnauthorizedAccount(address)": [
						{
							"details": "The caller account is not authorized to perform an operation."
						}
					],
					"ReentrancyGuardReentrantCall()": [
						{
							"details": "Unauthorized reentrant call."
						}
					],
					"SafeERC20FailedOperation(address)": [
						{
							"details": "An operation with an ERC20 token failed."
						}
					]
				},
				"kind": "dev",
				"methods": {
					"createRedEnvelope(uint256,uint256,uint256,uint256)": {
						"details": "Callable by operator",
						"params": {
							"_endTime": ": endTime of the RedEnvelope",
							"_maxTickets": ": max ticket of the RedEnvelope",
							"_secret": ": "
						}
					},
					"createRedEnvelopeDetail(address,uint256,uint256,uint256,uint256,address,uint256,address,uint256)": {
						"details": "Callable by operator",
						"params": {
							"_endTime": ": endTime of the RedEnvelope",
							"_maxTickets": ": max ticket of the RedEnvelope",
							"_secret": ": "
						}
					},
					"owner()": {
						"details": "Returns the address of the current owner."
					},
					"renounceOwnership()": {
						"details": "Leaves the contract without owner. It will not be possible to call `onlyOwner` functions. Can only be called by the current owner. NOTE: Renouncing ownership will leave the contract without an owner, thereby disabling any functionality that is only available to the owner."
					},
					"transferOwnership(address)": {
						"details": "Transfers ownership of the contract to a new account (`newOwner`). Can only be called by the current owner."
					}
				},
				"version": 1
			},
			"evm": {
				"assembly": "    /* \"contracts/LuckyRedEnvelopeV2.sol\":382:20665  contract LuckyRedEnvelopeV2 is IRedEnvelope,ReentrancyGuard, Ownable{... */\n  mstore(0x40, 0x80)\n    /* \"contracts/LuckyRedEnvelopeV2.sol\":4046:4549  constructor(address _operatorAddress,address _defaultTicketToken,uint256 _defaultTicketPirce)Ownable(address(msg.sender)){... */\n  callvalue\n  dup1\n  iszero\n  tag_1\n  jumpi\n  0x00\n  dup1\n  revert\ntag_1:\n  pop\n  mload(0x40)\n  sub(codesize, bytecodeSize)\n  dup1\n  bytecodeSize\n  dup4\n  codecopy\n  dup2\n  dup2\n  add\n  0x40\n  mstore\n  dup2\n  add\n  swap1\n  tag_2\n  swap2\n  swap1\n  tag_3\n  jump\t// in\ntag_2:\n    /* \"contracts/LuckyRedEnvelopeV2.sol\":4155:4165  msg.sender */\n  caller\n    /* \"@openzeppelin/contracts/utils/ReentrancyGuard.sol\":1713:1714  1 */\n  0x01\n    /* \"@openzeppelin/contracts/utils/ReentrancyGuard.sol\":1917:1924  _status */\n  0x00\n    /* \"@openzeppelin/contracts/utils/ReentrancyGuard.sol\":1917:1938  _status = NOT_ENTERED */\n  dup2\n  swap1\n  sstore\n  pop\n    /* \"@openzeppelin/contracts/access/Ownable.sol\":1297:1298  0 */\n  0x00\n    /* \"@openzeppelin/contracts/access/Ownable.sol\":1273:1299  initialOwner == address(0) */\n  0xffffffffffffffffffffffffffffffffffffffff\n  and\n    /* \"@openzeppelin/contracts/access/Ownable.sol\":1273:1285  initialOwner */\n  dup2\n    /* \"@openzeppelin/contracts/access/Ownable.sol\":1273:1299  initialOwner == address(0) */\n  0xffffffffffffffffffffffffffffffffffffffff\n  and\n  sub\n    /* \"@openzeppelin/contracts/access/Ownable.sol\":1269:1364  if (initialOwner == address(0)) {... */\n  tag_9\n  jumpi\n    /* \"@openzeppelin/contracts/access/Ownable.sol\":1350:1351  0 */\n  0x00\n    /* \"@openzeppelin/contracts/access/Ownable.sol\":1322:1353  OwnableInvalidOwner(address(0)) */\n  mload(0x40)\n  0x1e4fbdf700000000000000000000000000000000000000000000000000000000\n  dup2\n  mstore\n  0x04\n  add\n  tag_10\n  swap2\n  swap1\n  tag_11\n  jump\t// in\ntag_10:\n  mload(0x40)\n  dup1\n  swap2\n  sub\n  swap1\n  revert\n    /* \"@openzeppelin/contracts/access/Ownable.sol\":1269:1364  if (initialOwner == address(0)) {... */\ntag_9:\n    /* \"@openzeppelin/contracts/access/Ownable.sol\":1373:1405  _transferOwnership(initialOwner) */\n  tag_12\n    /* \"@openzeppelin/contracts/access/Ownable.sol\":1392:1404  initialOwner */\n  dup2\n    /* \"@openzeppelin/contracts/access/Ownable.sol\":1373:1391  _transferOwnership */\n  shl(0x20, tag_13)\n    /* \"@openzeppelin/contracts/access/Ownable.sol\":1373:1405  _transferOwnership(initialOwner) */\n  0x20\n  shr\n  jump\t// in\ntag_12:\n    /* \"@openzeppelin/contracts/access/Ownable.sol\":1225:1412  constructor(address initialOwner) {... */\n  pop\n    /* \"contracts/LuckyRedEnvelopeV2.sol\":4218:4222  true */\n  0x01\n    /* \"contracts/LuckyRedEnvelopeV2.sol\":4178:4197  operatorAddressList */\n  0x06\n    /* \"contracts/LuckyRedEnvelopeV2.sol\":4178:4215  operatorAddressList[_operatorAddress] */\n  0x00\n    /* \"contracts/LuckyRedEnvelopeV2.sol\":4198:4214  _operatorAddress */\n  dup6\n    /* \"contracts/LuckyRedEnvelopeV2.sol\":4178:4215  operatorAddressList[_operatorAddress] */\n  0xffffffffffffffffffffffffffffffffffffffff\n  and\n  0xffffffffffffffffffffffffffffffffffffffff\n  and\n  dup2\n  mstore\n  0x20\n  add\n  swap1\n  dup2\n  mstore\n  0x20\n  add\n  0x00\n  keccak256\n  0x00\n    /* \"contracts/LuckyRedEnvelopeV2.sol\":4178:4222  operatorAddressList[_operatorAddress] = true */\n  0x0100\n  exp\n  dup2\n  sload\n  dup2\n  0xff\n  mul\n  not\n  and\n  swap1\n  dup4\n  iszero\n  iszero\n  mul\n  or\n  swap1\n  sstore\n  pop\n    /* \"contracts/LuckyRedEnvelopeV2.sol\":4252:4256  true */\n  0x01\n    /* \"contracts/LuckyRedEnvelopeV2.sol\":4233:4249  defaultAutoClaim */\n  0x05\n  0x00\n    /* \"contracts/LuckyRedEnvelopeV2.sol\":4233:4256  defaultAutoClaim = true */\n  0x0100\n  exp\n  dup2\n  sload\n  dup2\n  0xff\n  mul\n  not\n  and\n  swap1\n  dup4\n  iszero\n  iszero\n  mul\n  or\n  swap1\n  sstore\n  pop\n    /* \"contracts/LuckyRedEnvelopeV2.sol\":4288:4307  _defaultTicketToken */\n  dup2\n    /* \"contracts/LuckyRedEnvelopeV2.sol\":4267:4285  defaultTicketToken */\n  0x02\n  0x00\n    /* \"contracts/LuckyRedEnvelopeV2.sol\":4267:4307  defaultTicketToken = _defaultTicketToken */\n  0x0100\n  exp\n  dup2\n  sload\n  dup2\n  0xffffffffffffffffffffffffffffffffffffffff\n  mul\n  not\n  and\n  swap1\n  dup4\n  0xffffffffffffffffffffffffffffffffffffffff\n  and\n  mul\n  or\n  swap1\n  sstore\n  pop\n    /* \"contracts/LuckyRedEnvelopeV2.sol\":4339:4358  _defaultTicketPirce */\n  dup1\n    /* \"contracts/LuckyRedEnvelopeV2.sol\":4318:4336  defaultTicketPirce */\n  0x04\n    /* \"contracts/LuckyRedEnvelopeV2.sol\":4318:4358  defaultTicketPirce = _defaultTicketPirce */\n  dup2\n  swap1\n  sstore\n  pop\n    /* \"contracts/LuckyRedEnvelopeV2.sol\":4374:4412  OperatorAddress(_operatorAddress,true) */\n  0xedae46487653623e513ea3b3341c9e6b457a2ef687d0342d2507ccb63458b19f\n    /* \"contracts/LuckyRedEnvelopeV2.sol\":4390:4406  _operatorAddress */\n  dup4\n    /* \"contracts/LuckyRedEnvelopeV2.sol\":4407:4411  true */\n  0x01\n    /* \"contracts/LuckyRedEnvelopeV2.sol\":4374:4412  OperatorAddress(_operatorAddress,true) */\n  mload(0x40)\n  tag_15\n  swap3\n  swap2\n  swap1\n  tag_16\n  jump\t// in\ntag_15:\n  mload(0x40)\n  dup1\n  swap2\n  sub\n  swap1\n  log1\n    /* \"contracts/LuckyRedEnvelopeV2.sol\":4428:4468  DefaultAutoClaimChange(defaultAutoClaim) */\n  0x6fe9a4ab2e95e24b2be44989dc36a685149dfde9354d486a8da5cb4bbd01b010\n    /* \"contracts/LuckyRedEnvelopeV2.sol\":4451:4467  defaultAutoClaim */\n  0x05\n  0x00\n  swap1\n  sload\n  swap1\n  0x0100\n  exp\n  swap1\n  div\n  0xff\n  and\n    /* \"contracts/LuckyRedEnvelopeV2.sol\":4428:4468  DefaultAutoClaimChange(defaultAutoClaim) */\n  mload(0x40)\n  tag_17\n  swap2\n  swap1\n  tag_18\n  jump\t// in\ntag_17:\n  mload(0x40)\n  dup1\n  swap2\n  sub\n  swap1\n  log1\n    /* \"contracts/LuckyRedEnvelopeV2.sol\":4484:4541  DefaultTokenChange(defaultTicketToken,defaultTicketPirce) */\n  0xdc907cb17a7da8e1dffad2b7205a6ca1111cbb38a0f1f4b2b60a31eb673ca4a2\n    /* \"contracts/LuckyRedEnvelopeV2.sol\":4503:4521  defaultTicketToken */\n  0x02\n  0x00\n  swap1\n  sload\n  swap1\n  0x0100\n  exp\n  swap1\n  div\n  0xffffffffffffffffffffffffffffffffffffffff\n  and\n    /* \"contracts/LuckyRedEnvelopeV2.sol\":4522:4540  defaultTicketPirce */\n  sload(0x04)\n    /* \"contracts/LuckyRedEnvelopeV2.sol\":4484:4541  DefaultTokenChange(defaultTicketToken,defaultTicketPirce) */\n  mload(0x40)\n  tag_19\n  swap3\n  swap2\n  swap1\n  tag_20\n  jump\t// in\ntag_19:\n  mload(0x40)\n  dup1\n  swap2\n  sub\n  swap1\n  log1\n    /* \"contracts/LuckyRedEnvelopeV2.sol\":4046:4549  constructor(address _operatorAddress,address _defaultTicketToken,uint256 _defaultTicketPirce)Ownable(address(msg.sender)){... */\n  pop\n  pop\n  pop\n    /* \"contracts/LuckyRedEnvelopeV2.sol\":382:20665  contract LuckyRedEnvelopeV2 is IRedEnvelope,ReentrancyGuard, Ownable{... */\n  jump(tag_21)\n    /* \"@openzeppelin/contracts/access/Ownable.sol\":2912:3099  function _transferOwnership(address newOwner) internal virtual {... */\ntag_13:\n    /* \"@openzeppelin/contracts/access/Ownable.sol\":2985:3001  address oldOwner */\n  0x00\n    /* \"@openzeppelin/contracts/access/Ownable.sol\":3004:3010  _owner */\n  0x01\n  0x00\n  swap1\n  sload\n  swap1\n  0x0100\n  exp\n  swap1\n  div\n  0xffffffffffffffffffffffffffffffffffffffff\n  and\n    /* \"@openzeppelin/contracts/access/Ownable.sol\":2985:3010  address oldOwner = _owner */\n  swap1\n  pop\n    /* \"@openzeppelin/contracts/access/Ownable.sol\":3029:3037  newOwner */\n  dup2\n    /* \"@openzeppelin/contracts/access/Ownable.sol\":3020:3026  _owner */\n  0x01\n  0x00\n    /* \"@openzeppelin/contracts/access/Ownable.sol\":3020:3037  _owner = newOwner */\n  0x0100\n  exp\n  dup2\n  sload\n  dup2\n  0xffffffffffffffffffffffffffffffffffffffff\n  mul\n  not\n  and\n  swap1\n  dup4\n  0xffffffffffffffffffffffffffffffffffffffff\n  and\n  mul\n  or\n  swap1\n  sstore\n  pop\n    /* \"@openzeppelin/contracts/access/Ownable.sol\":3083:3091  newOwner */\n  dup2\n    /* \"@openzeppelin/contracts/access/Ownable.sol\":3052:3092  OwnershipTransferred(oldOwner, newOwner) */\n  0xffffffffffffffffffffffffffffffffffffffff\n  and\n    /* \"@openzeppelin/contracts/access/Ownable.sol\":3073:3081  oldOwner */\n  dup2\n    /* \"@openzeppelin/contracts/access/Ownable.sol\":3052:3092  OwnershipTransferred(oldOwner, newOwner) */\n  0xffffffffffffffffffffffffffffffffffffffff\n  and\n  0x8be0079c531659141344cd1fd0a4f28419497f9722a3daafe3b4186f6b6457e0\n  mload(0x40)\n  mload(0x40)\n  dup1\n  swap2\n  sub\n  swap1\n  log3\n    /* \"@openzeppelin/contracts/access/Ownable.sol\":2975:3099  {... */\n  pop\n    /* \"@openzeppelin/contracts/access/Ownable.sol\":2912:3099  function _transferOwnership(address newOwner) internal virtual {... */\n  pop\n  jump\t// out\n    /* \"#utility.yul\":88:205   */\ntag_24:\n    /* \"#utility.yul\":197:198   */\n  0x00\n    /* \"#utility.yul\":194:195   */\n  dup1\n    /* \"#utility.yul\":187:199   */\n  revert\n    /* \"#utility.yul\":334:460   */\ntag_26:\n    /* \"#utility.yul\":371:378   */\n  0x00\n    /* \"#utility.yul\":411:453   */\n  0xffffffffffffffffffffffffffffffffffffffff\n    /* \"#utility.yul\":404:409   */\n  dup3\n    /* \"#utility.yul\":400:454   */\n  and\n    /* \"#utility.yul\":389:454   */\n  swap1\n  pop\n    /* \"#utility.yul\":334:460   */\n  swap2\n  swap1\n  pop\n  jump\t// out\n    /* \"#utility.yul\":466:562   */\ntag_27:\n    /* \"#utility.yul\":503:510   */\n  0x00\n    /* \"#utility.yul\":532:556   */\n  tag_43\n    /* \"#utility.yul\":550:555   */\n  dup3\n    /* \"#utility.yul\":532:556   */\n  tag_26\n  jump\t// in\ntag_43:\n    /* \"#utility.yul\":521:556   */\n  swap1\n  pop\n    /* \"#utility.yul\":466:562   */\n  swap2\n  swap1\n  pop\n  jump\t// out\n    /* \"#utility.yul\":568:690   */\ntag_28:\n    /* \"#utility.yul\":641:665   */\n  tag_45\n    /* \"#utility.yul\":659:664   */\n  dup2\n    /* \"#utility.yul\":641:665   */\n  tag_27\n  jump\t// in\ntag_45:\n    /* \"#utility.yul\":634:639   */\n  dup2\n    /* \"#utility.yul\":631:666   */\n  eq\n    /* \"#utility.yul\":621:684   */\n  tag_46\n  jumpi\n    /* \"#utility.yul\":680:681   */\n  0x00\n    /* \"#utility.yul\":677:678   */\n  dup1\n    /* \"#utility.yul\":670:682   */\n  revert\n    /* \"#utility.yul\":621:684   */\ntag_46:\n    /* \"#utility.yul\":568:690   */\n  pop\n  jump\t// out\n    /* \"#utility.yul\":696:839   */\ntag_29:\n    /* \"#utility.yul\":753:758   */\n  0x00\n    /* \"#utility.yul\":784:790   */\n  dup2\n    /* \"#utility.yul\":778:791   */\n  mload\n    /* \"#utility.yul\":769:791   */\n  swap1\n  pop\n    /* \"#utility.yul\":800:833   */\n  tag_48\n    /* \"#utility.yul\":827:832   */\n  dup2\n    /* \"#utility.yul\":800:833   */\n  tag_28\n  jump\t// in\ntag_48:\n    /* \"#utility.yul\":696:839   */\n  swap3\n  swap2\n  pop\n  pop\n  jump\t// out\n    /* \"#utility.yul\":845:922   */\ntag_30:\n    /* \"#utility.yul\":882:889   */\n  0x00\n    /* \"#utility.yul\":911:916   */\n  dup2\n    /* \"#utility.yul\":900:916   */\n  swap1\n  pop\n    /* \"#utility.yul\":845:922   */\n  swap2\n  swap1\n  pop\n  jump\t// out\n    /* \"#utility.yul\":928:1050   */\ntag_31:\n    /* \"#utility.yul\":1001:1025   */\n  tag_51\n    /* \"#utility.yul\":1019:1024   */\n  dup2\n    /* \"#utility.yul\":1001:1025   */\n  tag_30\n  jump\t// in\ntag_51:\n    /* \"#utility.yul\":994:999   */\n  dup2\n    /* \"#utility.yul\":991:1026   */\n  eq\n    /* \"#utility.yul\":981:1044   */\n  tag_52\n  jumpi\n    /* \"#utility.yul\":1040:1041   */\n  0x00\n    /* \"#utility.yul\":1037:1038   */\n  dup1\n    /* \"#utility.yul\":1030:1042   */\n  revert\n    /* \"#utility.yul\":981:1044   */\ntag_52:\n    /* \"#utility.yul\":928:1050   */\n  pop\n  jump\t// out\n    /* \"#utility.yul\":1056:1199   */\ntag_32:\n    /* \"#utility.yul\":1113:1118   */\n  0x00\n    /* \"#utility.yul\":1144:1150   */\n  dup2\n    /* \"#utility.yul\":1138:1151   */\n  mload\n    /* \"#utility.yul\":1129:1151   */\n  swap1\n  pop\n    /* \"#utility.yul\":1160:1193   */\n  tag_54\n    /* \"#utility.yul\":1187:1192   */\n  dup2\n    /* \"#utility.yul\":1160:1193   */\n  tag_31\n  jump\t// in\ntag_54:\n    /* \"#utility.yul\":1056:1199   */\n  swap3\n  swap2\n  pop\n  pop\n  jump\t// out\n    /* \"#utility.yul\":1205:1868   */\ntag_3:\n    /* \"#utility.yul\":1293:1299   */\n  0x00\n    /* \"#utility.yul\":1301:1307   */\n  dup1\n    /* \"#utility.yul\":1309:1315   */\n  0x00\n    /* \"#utility.yul\":1358:1360   */\n  0x60\n    /* \"#utility.yul\":1346:1355   */\n  dup5\n    /* \"#utility.yul\":1337:1344   */\n  dup7\n    /* \"#utility.yul\":1333:1356   */\n  sub\n    /* \"#utility.yul\":1329:1361   */\n  slt\n    /* \"#utility.yul\":1326:1445   */\n  iszero\n  tag_56\n  jumpi\n    /* \"#utility.yul\":1364:1443   */\n  tag_57\n  tag_24\n  jump\t// in\ntag_57:\n    /* \"#utility.yul\":1326:1445   */\ntag_56:\n    /* \"#utility.yul\":1484:1485   */\n  0x00\n    /* \"#utility.yul\":1509:1573   */\n  tag_58\n    /* \"#utility.yul\":1565:1572   */\n  dup7\n    /* \"#utility.yul\":1556:1562   */\n  dup3\n    /* \"#utility.yul\":1545:1554   */\n  dup8\n    /* \"#utility.yul\":1541:1563   */\n  add\n    /* \"#utility.yul\":1509:1573   */\n  tag_29\n  jump\t// in\ntag_58:\n    /* \"#utility.yul\":1499:1573   */\n  swap4\n  pop\n    /* \"#utility.yul\":1455:1583   */\n  pop\n    /* \"#utility.yul\":1622:1624   */\n  0x20\n    /* \"#utility.yul\":1648:1712   */\n  tag_59\n    /* \"#utility.yul\":1704:1711   */\n  dup7\n    /* \"#utility.yul\":1695:1701   */\n  dup3\n    /* \"#utility.yul\":1684:1693   */\n  dup8\n    /* \"#utility.yul\":1680:1702   */\n  add\n    /* \"#utility.yul\":1648:1712   */\n  tag_29\n  jump\t// in\ntag_59:\n    /* \"#utility.yul\":1638:1712   */\n  swap3\n  pop\n    /* \"#utility.yul\":1593:1722   */\n  pop\n    /* \"#utility.yul\":1761:1763   */\n  0x40\n    /* \"#utility.yul\":1787:1851   */\n  tag_60\n    /* \"#utility.yul\":1843:1850   */\n  dup7\n    /* \"#utility.yul\":1834:1840   */\n  dup3\n    /* \"#utility.yul\":1823:1832   */\n  dup8\n    /* \"#utility.yul\":1819:1841   */\n  add\n    /* \"#utility.yul\":1787:1851   */\n  tag_32\n  jump\t// in\ntag_60:\n    /* \"#utility.yul\":1777:1851   */\n  swap2\n  pop\n    /* \"#utility.yul\":1732:1861   */\n  pop\n    /* \"#utility.yul\":1205:1868   */\n  swap3\n  pop\n  swap3\n  pop\n  swap3\n  jump\t// out\n    /* \"#utility.yul\":1874:1992   */\ntag_33:\n    /* \"#utility.yul\":1961:1985   */\n  tag_62\n    /* \"#utility.yul\":1979:1984   */\n  dup2\n    /* \"#utility.yul\":1961:1985   */\n  tag_27\n  jump\t// in\ntag_62:\n    /* \"#utility.yul\":1956:1959   */\n  dup3\n    /* \"#utility.yul\":1949:1986   */\n  mstore\n    /* \"#utility.yul\":1874:1992   */\n  pop\n  pop\n  jump\t// out\n    /* \"#utility.yul\":1998:2220   */\ntag_11:\n    /* \"#utility.yul\":2091:2095   */\n  0x00\n    /* \"#utility.yul\":2129:2131   */\n  0x20\n    /* \"#utility.yul\":2118:2127   */\n  dup3\n    /* \"#utility.yul\":2114:2132   */\n  add\n    /* \"#utility.yul\":2106:2132   */\n  swap1\n  pop\n    /* \"#utility.yul\":2142:2213   */\n  tag_64\n    /* \"#utility.yul\":2210:2211   */\n  0x00\n    /* \"#utility.yul\":2199:2208   */\n  dup4\n    /* \"#utility.yul\":2195:2212   */\n  add\n    /* \"#utility.yul\":2186:2192   */\n  dup5\n    /* \"#utility.yul\":2142:2213   */\n  tag_33\n  jump\t// in\ntag_64:\n    /* \"#utility.yul\":1998:2220   */\n  swap3\n  swap2\n  pop\n  pop\n  jump\t// out\n    /* \"#utility.yul\":2226:2316   */\ntag_34:\n    /* \"#utility.yul\":2260:2267   */\n  0x00\n    /* \"#utility.yul\":2303:2308   */\n  dup2\n    /* \"#utility.yul\":2296:2309   */\n  iszero\n    /* \"#utility.yul\":2289:2310   */\n  iszero\n    /* \"#utility.yul\":2278:2310   */\n  swap1\n  pop\n    /* \"#utility.yul\":2226:2316   */\n  swap2\n  swap1\n  pop\n  jump\t// out\n    /* \"#utility.yul\":2322:2431   */\ntag_35:\n    /* \"#utility.yul\":2403:2424   */\n  tag_67\n    /* \"#utility.yul\":2418:2423   */\n  dup2\n    /* \"#utility.yul\":2403:2424   */\n  tag_34\n  jump\t// in\ntag_67:\n    /* \"#utility.yul\":2398:2401   */\n  dup3\n    /* \"#utility.yul\":2391:2425   */\n  mstore\n    /* \"#utility.yul\":2322:2431   */\n  pop\n  pop\n  jump\t// out\n    /* \"#utility.yul\":2437:2757   */\ntag_16:\n    /* \"#utility.yul\":2552:2556   */\n  0x00\n    /* \"#utility.yul\":2590:2592   */\n  0x40\n    /* \"#utility.yul\":2579:2588   */\n  dup3\n    /* \"#utility.yul\":2575:2593   */\n  add\n    /* \"#utility.yul\":2567:2593   */\n  swap1\n  pop\n    /* \"#utility.yul\":2603:2674   */\n  tag_69\n    /* \"#utility.yul\":2671:2672   */\n  0x00\n    /* \"#utility.yul\":2660:2669   */\n  dup4\n    /* \"#utility.yul\":2656:2673   */\n  add\n    /* \"#utility.yul\":2647:2653   */\n  dup6\n    /* \"#utility.yul\":2603:2674   */\n  tag_33\n  jump\t// in\ntag_69:\n    /* \"#utility.yul\":2684:2750   */\n  tag_70\n    /* \"#utility.yul\":2746:2748   */\n  0x20\n    /* \"#utility.yul\":2735:2744   */\n  dup4\n    /* \"#utility.yul\":2731:2749   */\n  add\n    /* \"#utility.yul\":2722:2728   */\n  dup5\n    /* \"#utility.yul\":2684:2750   */\n  tag_35\n  jump\t// in\ntag_70:\n    /* \"#utility.yul\":2437:2757   */\n  swap4\n  swap3\n  pop\n  pop\n  pop\n  jump\t// out\n    /* \"#utility.yul\":2763:2973   */\ntag_18:\n    /* \"#utility.yul\":2850:2854   */\n  0x00\n    /* \"#utility.yul\":2888:2890   */\n  0x20\n    /* \"#utility.yul\":2877:2886   */\n  dup3\n    /* \"#utility.yul\":2873:2891   */\n  add\n    /* \"#utility.yul\":2865:2891   */\n  swap1\n  pop\n    /* \"#utility.yul\":2901:2966   */\n  tag_72\n    /* \"#utility.yul\":2963:2964   */\n  0x00\n    /* \"#utility.yul\":2952:2961   */\n  dup4\n    /* \"#utility.yul\":2948:2965   */\n  add\n    /* \"#utility.yul\":2939:2945   */\n  dup5\n    /* \"#utility.yul\":2901:2966   */\n  tag_35\n  jump\t// in\ntag_72:\n    /* \"#utility.yul\":2763:2973   */\n  swap3\n  swap2\n  pop\n  pop\n  jump\t// out\n    /* \"#utility.yul\":2979:3097   */\ntag_36:\n    /* \"#utility.yul\":3066:3090   */\n  tag_74\n    /* \"#utility.yul\":3084:3089   */\n  dup2\n    /* \"#utility.yul\":3066:3090   */\n  tag_30\n  jump\t// in\ntag_74:\n    /* \"#utility.yul\":3061:3064   */\n  dup3\n    /* \"#utility.yul\":3054:3091   */\n  mstore\n    /* \"#utility.yul\":2979:3097   */\n  pop\n  pop\n  jump\t// out\n    /* \"#utility.yul\":3103:3435   */\ntag_20:\n    /* \"#utility.yul\":3224:3228   */\n  0x00\n    /* \"#utility.yul\":3262:3264   */\n  0x40\n    /* \"#utility.yul\":3251:3260   */\n  dup3\n    /* \"#utility.yul\":3247:3265   */\n  add\n    /* \"#utility.yul\":3239:3265   */\n  swap1\n  pop\n    /* \"#utility.yul\":3275:3346   */\n  tag_76\n    /* \"#utility.yul\":3343:3344   */\n  0x00\n    /* \"#utility.yul\":3332:3341   */\n  dup4\n    /* \"#utility.yul\":3328:3345   */\n  add\n    /* \"#utility.yul\":3319:3325   */\n  dup6\n    /* \"#utility.yul\":3275:3346   */\n  tag_33\n  jump\t// in\ntag_76:\n    /* \"#utility.yul\":3356:3428   */\n  tag_77\n    /* \"#utility.yul\":3424:3426   */\n  0x20\n    /* \"#utility.yul\":3413:3422   */\n  dup4\n    /* \"#utility.yul\":3409:3427   */\n  add\n    /* \"#utility.yul\":3400:3406   */\n  dup5\n    /* \"#utility.yul\":3356:3428   */\n  tag_36\n  jump\t// in\ntag_77:\n    /* \"#utility.yul\":3103:3435   */\n  swap4\n  swap3\n  pop\n  pop\n  pop\n  jump\t// out\n    /* \"contracts/LuckyRedEnvelopeV2.sol\":382:20665  contract LuckyRedEnvelopeV2 is IRedEnvelope,ReentrancyGuard, Ownable{... */\ntag_21:\n  dataSize(sub_0)\n  dup1\n  dataOffset(sub_0)\n  0x00\n  codecopy\n  0x00\n  return\nstop\n\nsub_0: assembly {\n        /* \"contracts/LuckyRedEnvelopeV2.sol\":382:20665  contract LuckyRedEnvelopeV2 is IRedEnvelope,ReentrancyGuard, Ownable{... */\n      mstore(0x40, 0x80)\n      callvalue\n      dup1\n      iszero\n      tag_1\n      jumpi\n      0x00\n      dup1\n      revert\n    tag_1:\n      pop\n      jumpi(tag_2, lt(calldatasize, 0x04))\n      shr(0xe0, calldataload(0x00))\n      dup1\n      0xa210d5e0\n      gt\n      tag_24\n      jumpi\n      dup1\n      0xd7098154\n      gt\n      tag_25\n      jumpi\n      dup1\n      0xd7098154\n      eq\n      tag_18\n      jumpi\n      dup1\n      0xd9828174\n      eq\n      tag_19\n      jumpi\n      dup1\n      0xe00dd161\n      eq\n      tag_20\n      jumpi\n      dup1\n      0xf2fde38b\n      eq\n      tag_21\n      jumpi\n      dup1\n      0xf41188ed\n      eq\n      tag_22\n      jumpi\n      dup1\n      0xfe5c5976\n      eq\n      tag_23\n      jumpi\n      jump(tag_2)\n    tag_25:\n      dup1\n      0xa210d5e0\n      eq\n      tag_13\n      jumpi\n      dup1\n      0xb4d97419\n      eq\n      tag_14\n      jumpi\n      dup1\n      0xbc6bce91\n      eq\n      tag_15\n      jumpi\n      dup1\n      0xbce3468d\n      eq\n      tag_16\n      jumpi\n      dup1\n      0xc5e7bb33\n      eq\n      tag_17\n      jumpi\n      jump(tag_2)\n    tag_24:\n      dup1\n      0x715018a6\n      gt\n      tag_26\n      jumpi\n      dup1\n      0x715018a6\n      eq\n      tag_8\n      jumpi\n      dup1\n      0x8da5cb5b\n      eq\n      tag_9\n      jumpi\n      dup1\n      0x903606c5\n      eq\n      tag_10\n      jumpi\n      dup1\n      0x94456fa4\n      eq\n      tag_11\n      jumpi\n      dup1\n      0x959acdaf\n      eq\n      tag_12\n      jumpi\n      jump(tag_2)\n    tag_26:\n      dup1\n      0x0e9e1262\n      eq\n      tag_3\n      jumpi\n      dup1\n      0x3834efe1\n      eq\n      tag_4\n      jumpi\n      dup1\n      0x3ddb7f19\n      eq\n      tag_5\n      jumpi\n      dup1\n      0x4bfec3aa\n      eq\n      tag_6\n      jumpi\n      dup1\n      0x559f24bc\n      eq\n      tag_7\n      jumpi\n    tag_2:\n      0x00\n      dup1\n      revert\n        /* \"contracts/LuckyRedEnvelopeV2.sol\":6570:6906  function createRedEnvelope(... */\n    tag_3:\n      tag_27\n      0x04\n      dup1\n      calldatasize\n      sub\n      dup2\n      add\n      swap1\n      tag_28\n      swap2\n      swap1\n      tag_29\n      jump\t// in\n    tag_28:\n      tag_30\n      jump\t// in\n    tag_27:\n      stop\n        /* \"contracts/LuckyRedEnvelopeV2.sol\":12844:13350  function endRedEnvelope(... */\n    tag_4:\n      tag_31\n      0x04\n      dup1\n      calldatasize\n      sub\n      dup2\n      add\n      swap1\n      tag_32\n      swap2\n      swap1\n      tag_33\n      jump\t// in\n    tag_32:\n      tag_34\n      jump\t// in\n    tag_31:\n      stop\n        /* \"contracts/LuckyRedEnvelopeV2.sol\":10629:11616  function getTickets(... */\n    tag_5:\n      tag_35\n      0x04\n      dup1\n      calldatasize\n      sub\n      dup2\n      add\n      swap1\n      tag_36\n      swap2\n      swap1\n      tag_37\n      jump\t// in\n    tag_36:\n      tag_38\n      jump\t// in\n    tag_35:\n      stop\n        /* \"contracts/LuckyRedEnvelopeV2.sol\":569:602  uint256 public defaultTicketPirce */\n    tag_6:\n      tag_39\n      tag_40\n      jump\t// in\n    tag_39:\n      mload(0x40)\n      tag_41\n      swap2\n      swap1\n      tag_42\n      jump\t// in\n    tag_41:\n      mload(0x40)\n      dup1\n      swap2\n      sub\n      swap1\n      return\n        /* \"contracts/LuckyRedEnvelopeV2.sol\":7667:8116  function injectTickets(uint256 _id,uint256 _ticketNumbers)external nonReentrant{... */\n    tag_7:\n      tag_43\n      0x04\n      dup1\n      calldatasize\n      sub\n      dup2\n      add\n      swap1\n      tag_44\n      swap2\n      swap1\n      tag_45\n      jump\t// in\n    tag_44:\n      tag_46\n      jump\t// in\n    tag_43:\n      stop\n        /* \"@openzeppelin/contracts/access/Ownable.sol\":2293:2394  function renounceOwnership() public virtual onlyOwner {... */\n    tag_8:\n      tag_47\n      tag_48\n      jump\t// in\n    tag_47:\n      stop\n        /* \"@openzeppelin/contracts/access/Ownable.sol\":1638:1723  function owner() public view virtual returns (address) {... */\n    tag_9:\n      tag_49\n      tag_50\n      jump\t// in\n    tag_49:\n      mload(0x40)\n      tag_51\n      swap2\n      swap1\n      tag_52\n      jump\t// in\n    tag_51:\n      mload(0x40)\n      dup1\n      swap2\n      sub\n      swap1\n      return\n        /* \"contracts/LuckyRedEnvelopeV2.sol\":5061:5346  function setTicketToken(address _defaultTicketToken,uint256 _defaultTicketPirce) external onlyOperator{... */\n    tag_10:\n      tag_53\n      0x04\n      dup1\n      calldatasize\n      sub\n      dup2\n      add\n      swap1\n      tag_54\n      swap2\n      swap1\n      tag_55\n      jump\t// in\n    tag_54:\n      tag_56\n      jump\t// in\n    tag_53:\n      stop\n        /* \"contracts/LuckyRedEnvelopeV2.sol\":20560:20662  function  viewCurrentRedEnvelopeId() external view returns(uint256){... */\n    tag_11:\n      tag_57\n      tag_58\n      jump\t// in\n    tag_57:\n      mload(0x40)\n      tag_59\n      swap2\n      swap1\n      tag_42\n      jump\t// in\n    tag_59:\n      mload(0x40)\n      dup1\n      swap2\n      sub\n      swap1\n      return\n        /* \"contracts/LuckyRedEnvelopeV2.sol\":492:525  address public defaultTicketToken */\n    tag_12:\n      tag_60\n      tag_61\n      jump\t// in\n    tag_60:\n      mload(0x40)\n      tag_62\n      swap2\n      swap1\n      tag_52\n      jump\t// in\n    tag_62:\n      mload(0x40)\n      dup1\n      swap2\n      sub\n      swap1\n      return\n        /* \"contracts/LuckyRedEnvelopeV2.sol\":615:643  bool public defaultAutoClaim */\n    tag_13:\n      tag_63\n      tag_64\n      jump\t// in\n    tag_63:\n      mload(0x40)\n      tag_65\n      swap2\n      swap1\n      tag_66\n      jump\t// in\n    tag_65:\n      mload(0x40)\n      dup1\n      swap2\n      sub\n      swap1\n      return\n        /* \"contracts/LuckyRedEnvelopeV2.sol\":7140:7659  function createRedEnvelopeDetail(... */\n    tag_14:\n      tag_67\n      0x04\n      dup1\n      calldatasize\n      sub\n      dup2\n      add\n      swap1\n      tag_68\n      swap2\n      swap1\n      tag_69\n      jump\t// in\n    tag_68:\n      tag_70\n      jump\t// in\n    tag_67:\n      stop\n        /* \"contracts/LuckyRedEnvelopeV2.sol\":652:703  mapping(address => bool) public operatorAddressList */\n    tag_15:\n      tag_71\n      0x04\n      dup1\n      calldatasize\n      sub\n      dup2\n      add\n      swap1\n      tag_72\n      swap2\n      swap1\n      tag_73\n      jump\t// in\n    tag_72:\n      tag_74\n      jump\t// in\n    tag_71:\n      mload(0x40)\n      tag_75\n      swap2\n      swap1\n      tag_66\n      jump\t// in\n    tag_75:\n      mload(0x40)\n      dup1\n      swap2\n      sub\n      swap1\n      return\n        /* \"contracts/LuckyRedEnvelopeV2.sol\":14980:16734  function drawPrize(... */\n    tag_16:\n      tag_76\n      0x04\n      dup1\n      calldatasize\n      sub\n      dup2\n      add\n      swap1\n      tag_77\n      swap2\n      swap1\n      tag_45\n      jump\t// in\n    tag_77:\n      tag_78\n      jump\t// in\n    tag_76:\n      stop\n        /* \"contracts/LuckyRedEnvelopeV2.sol\":11624:12834  function buyTickets(... */\n    tag_17:\n      tag_79\n      0x04\n      dup1\n      calldatasize\n      sub\n      dup2\n      add\n      swap1\n      tag_80\n      swap2\n      swap1\n      tag_37\n      jump\t// in\n    tag_80:\n      tag_81\n      jump\t// in\n    tag_79:\n      stop\n        /* \"contracts/LuckyRedEnvelopeV2.sol\":19204:19489  function claimPrize(uint256 _id)external nonReentrant{... */\n    tag_18:\n      tag_82\n      0x04\n      dup1\n      calldatasize\n      sub\n      dup2\n      add\n      swap1\n      tag_83\n      swap2\n      swap1\n      tag_33\n      jump\t// in\n    tag_83:\n      tag_84\n      jump\t// in\n    tag_82:\n      stop\n        /* \"contracts/LuckyRedEnvelopeV2.sol\":4557:4859  function setOperatorAddress(... */\n    tag_19:\n      tag_85\n      0x04\n      dup1\n      calldatasize\n      sub\n      dup2\n      add\n      swap1\n      tag_86\n      swap2\n      swap1\n      tag_87\n      jump\t// in\n    tag_86:\n      tag_88\n      jump\t// in\n    tag_85:\n      stop\n        /* \"contracts/LuckyRedEnvelopeV2.sol\":538:562  uint256 public currentId */\n    tag_20:\n      tag_89\n      tag_90\n      jump\t// in\n    tag_89:\n      mload(0x40)\n      tag_91\n      swap2\n      swap1\n      tag_42\n      jump\t// in\n    tag_91:\n      mload(0x40)\n      dup1\n      swap2\n      sub\n      swap1\n      return\n        /* \"@openzeppelin/contracts/access/Ownable.sol\":2543:2758  function transferOwnership(address newOwner) public virtual onlyOwner {... */\n    tag_21:\n      tag_92\n      0x04\n      dup1\n      calldatasize\n      sub\n      dup2\n      add\n      swap1\n      tag_93\n      swap2\n      swap1\n      tag_73\n      jump\t// in\n    tag_93:\n      tag_94\n      jump\t// in\n    tag_92:\n      stop\n        /* \"contracts/LuckyRedEnvelopeV2.sol\":4867:5052  function setDefaultAutoClaim(bool _defaultAutoClaim) external onlyOperator{... */\n    tag_22:\n      tag_95\n      0x04\n      dup1\n      calldatasize\n      sub\n      dup2\n      add\n      swap1\n      tag_96\n      swap2\n      swap1\n      tag_97\n      jump\t// in\n    tag_96:\n      tag_98\n      jump\t// in\n    tag_95:\n      stop\n        /* \"contracts/LuckyRedEnvelopeV2.sol\":20424:20552  function viewRedEnvelopeStatus(uint256 _id) public view  returns (uint){... */\n    tag_23:\n      tag_99\n      0x04\n      dup1\n      calldatasize\n      sub\n      dup2\n      add\n      swap1\n      tag_100\n      swap2\n      swap1\n      tag_33\n      jump\t// in\n    tag_100:\n      tag_101\n      jump\t// in\n    tag_99:\n      mload(0x40)\n      tag_102\n      swap2\n      swap1\n      tag_42\n      jump\t// in\n    tag_102:\n      mload(0x40)\n      dup1\n      swap2\n      sub\n      swap1\n      return\n        /* \"contracts/LuckyRedEnvelopeV2.sol\":6570:6906  function createRedEnvelope(... */\n    tag_30:\n        /* \"contracts/LuckyRedEnvelopeV2.sol\":2501:2505  true */\n      0x01\n        /* \"contracts/LuckyRedEnvelopeV2.sol\":2466:2505  operatorAddressList[msg.sender] == true */\n      iszero\n      iszero\n        /* \"contracts/LuckyRedEnvelopeV2.sol\":2466:2485  operatorAddressList */\n      0x06\n        /* \"contracts/LuckyRedEnvelopeV2.sol\":2466:2497  operatorAddressList[msg.sender] */\n      0x00\n        /* \"contracts/LuckyRedEnvelopeV2.sol\":2486:2496  msg.sender */\n      caller\n        /* \"contracts/LuckyRedEnvelopeV2.sol\":2466:2497  operatorAddressList[msg.sender] */\n      0xffffffffffffffffffffffffffffffffffffffff\n      and\n      0xffffffffffffffffffffffffffffffffffffffff\n      and\n      dup2\n      mstore\n      0x20\n      add\n      swap1\n      dup2\n      mstore\n      0x20\n      add\n      0x00\n      keccak256\n      0x00\n      swap1\n      sload\n      swap1\n      0x0100\n      exp\n      swap1\n      div\n      0xff\n      and\n        /* \"contracts/LuckyRedEnvelopeV2.sol\":2466:2505  operatorAddressList[msg.sender] == true */\n      iszero\n      iszero\n      eq\n        /* \"contracts/LuckyRedEnvelopeV2.sol\":2458:2522  require(operatorAddressList[msg.sender] == true, \"Not operator\") */\n      tag_104\n      jumpi\n      mload(0x40)\n      0x08c379a000000000000000000000000000000000000000000000000000000000\n      dup2\n      mstore\n      0x04\n      add\n      tag_105\n      swap1\n      tag_106\n      jump\t// in\n    tag_105:\n      mload(0x40)\n      dup1\n      swap2\n      sub\n      swap1\n      revert\n    tag_104:\n        /* \"@openzeppelin/contracts/utils/ReentrancyGuard.sol\":2356:2377  _nonReentrantBefore() */\n      tag_108\n        /* \"@openzeppelin/contracts/utils/ReentrancyGuard.sol\":2356:2375  _nonReentrantBefore */\n      tag_109\n        /* \"@openzeppelin/contracts/utils/ReentrancyGuard.sol\":2356:2377  _nonReentrantBefore() */\n      jump\t// in\n    tag_108:\n        /* \"contracts/LuckyRedEnvelopeV2.sol\":6761:6898  _createRedEnvelope(defaultTicketToken,defaultTicketPirce,_endTime,_maxTickets,... */\n      tag_111\n        /* \"contracts/LuckyRedEnvelopeV2.sol\":6780:6798  defaultTicketToken */\n      0x02\n      0x00\n      swap1\n      sload\n      swap1\n      0x0100\n      exp\n      swap1\n      div\n      0xffffffffffffffffffffffffffffffffffffffff\n      and\n        /* \"contracts/LuckyRedEnvelopeV2.sol\":6799:6817  defaultTicketPirce */\n      sload(0x04)\n        /* \"contracts/LuckyRedEnvelopeV2.sol\":6818:6826  _endTime */\n      dup7\n        /* \"contracts/LuckyRedEnvelopeV2.sol\":6827:6838  _maxTickets */\n      dup7\n        /* \"contracts/LuckyRedEnvelopeV2.sol\":6853:6865  _maxPrizeNum */\n      dup7\n        /* \"contracts/LuckyRedEnvelopeV2.sol\":6874:6875  0 */\n      0x00\n        /* \"contracts/LuckyRedEnvelopeV2.sol\":6877:6878  0 */\n      dup1\n        /* \"contracts/LuckyRedEnvelopeV2.sol\":6887:6888  0 */\n      0x00\n        /* \"contracts/LuckyRedEnvelopeV2.sol\":6890:6897  _secret */\n      dup10\n        /* \"contracts/LuckyRedEnvelopeV2.sol\":6761:6779  _createRedEnvelope */\n      tag_112\n        /* \"contracts/LuckyRedEnvelopeV2.sol\":6761:6898  _createRedEnvelope(defaultTicketToken,defaultTicketPirce,_endTime,_maxTickets,... */\n      jump\t// in\n    tag_111:\n        /* \"@openzeppelin/contracts/utils/ReentrancyGuard.sol\":2398:2418  _nonReentrantAfter() */\n      tag_113\n        /* \"@openzeppelin/contracts/utils/ReentrancyGuard.sol\":2398:2416  _nonReentrantAfter */\n      tag_114\n        /* \"@openzeppelin/contracts/utils/ReentrancyGuard.sol\":2398:2418  _nonReentrantAfter() */\n      jump\t// in\n    tag_113:\n        /* \"contracts/LuckyRedEnvelopeV2.sol\":6570:6906  function createRedEnvelope(... */\n      pop\n      pop\n      pop\n      pop\n      jump\t// out\n        /* \"contracts/LuckyRedEnvelopeV2.sol\":12844:13350  function endRedEnvelope(... */\n    tag_34:\n        /* \"contracts/LuckyRedEnvelopeV2.sol\":2501:2505  true */\n      0x01\n        /* \"contracts/LuckyRedEnvelopeV2.sol\":2466:2505  operatorAddressList[msg.sender] == true */\n      iszero\n      iszero\n        /* \"contracts/LuckyRedEnvelopeV2.sol\":2466:2485  operatorAddressList */\n      0x06\n        /* \"contracts/LuckyRedEnvelopeV2.sol\":2466:2497  operatorAddressList[msg.sender] */\n      0x00\n        /* \"contracts/LuckyRedEnvelopeV2.sol\":2486:2496  msg.sender */\n      caller\n        /* \"contracts/LuckyRedEnvelopeV2.sol\":2466:2497  operatorAddressList[msg.sender] */\n      0xffffffffffffffffffffffffffffffffffffffff\n      and\n      0xffffffffffffffffffffffffffffffffffffffff\n      and\n      dup2\n      mstore\n      0x20\n      add\n      swap1\n      dup2\n      mstore\n      0x20\n      add\n      0x00\n      keccak256\n      0x00\n      swap1\n      sload\n      swap1\n      0x0100\n      exp\n      swap1\n      div\n      0xff\n      and\n        /* \"contracts/LuckyRedEnvelopeV2.sol\":2466:2505  operatorAddressList[msg.sender] == true */\n      iszero\n      iszero\n      eq\n        /* \"contracts/LuckyRedEnvelopeV2.sol\":2458:2522  require(operatorAddressList[msg.sender] == true, \"Not operator\") */\n      tag_116\n      jumpi\n      mload(0x40)\n      0x08c379a000000000000000000000000000000000000000000000000000000000\n      dup2\n      mstore\n      0x04\n      add\n      tag_117\n      swap1\n      tag_106\n      jump\t// in\n    tag_117:\n      mload(0x40)\n      dup1\n      swap2\n      sub\n      swap1\n      revert\n    tag_116:\n        /* \"@openzeppelin/contracts/utils/ReentrancyGuard.sol\":2356:2377  _nonReentrantBefore() */\n      tag_119\n        /* \"@openzeppelin/contracts/utils/ReentrancyGuard.sol\":2356:2375  _nonReentrantBefore */\n      tag_109\n        /* \"@openzeppelin/contracts/utils/ReentrancyGuard.sol\":2356:2377  _nonReentrantBefore() */\n      jump\t// in\n    tag_119:\n        /* \"contracts/LuckyRedEnvelopeV2.sol\":12978:12989  Status.Open */\n      0x01\n        /* \"contracts/LuckyRedEnvelopeV2.sol\":12949:12989  _redEnvelopes[_id].status == Status.Open */\n      0x03\n      dup2\n      gt\n      iszero\n      tag_121\n      jumpi\n      tag_122\n      tag_123\n      jump\t// in\n    tag_122:\n    tag_121:\n        /* \"contracts/LuckyRedEnvelopeV2.sol\":12949:12962  _redEnvelopes */\n      0x07\n        /* \"contracts/LuckyRedEnvelopeV2.sol\":12949:12967  _redEnvelopes[_id] */\n      0x00\n        /* \"contracts/LuckyRedEnvelopeV2.sol\":12963:12966  _id */\n      dup4\n        /* \"contracts/LuckyRedEnvelopeV2.sol\":12949:12967  _redEnvelopes[_id] */\n      dup2\n      mstore\n      0x20\n      add\n      swap1\n      dup2\n      mstore\n      0x20\n      add\n      0x00\n      keccak256\n        /* \"contracts/LuckyRedEnvelopeV2.sol\":12949:12974  _redEnvelopes[_id].status */\n      0x00\n      add\n      0x14\n      swap1\n      sload\n      swap1\n      0x0100\n      exp\n      swap1\n      div\n      0xff\n      and\n        /* \"contracts/LuckyRedEnvelopeV2.sol\":12949:12989  _redEnvelopes[_id].status == Status.Open */\n      0x03\n      dup2\n      gt\n      iszero\n      tag_124\n      jumpi\n      tag_125\n      tag_123\n      jump\t// in\n    tag_125:\n    tag_124:\n      eq\n        /* \"contracts/LuckyRedEnvelopeV2.sol\":12941:13017  require(_redEnvelopes[_id].status == Status.Open, \"RedEnvelope is not open\") */\n      tag_126\n      jumpi\n      mload(0x40)\n      0x08c379a000000000000000000000000000000000000000000000000000000000\n      dup2\n      mstore\n      0x04\n      add\n      tag_127\n      swap1\n      tag_128\n      jump\t// in\n    tag_127:\n      mload(0x40)\n      dup1\n      swap2\n      sub\n      swap1\n      revert\n    tag_126:\n        /* \"contracts/LuckyRedEnvelopeV2.sol\":13211:13223  Status.Close */\n      0x02\n        /* \"contracts/LuckyRedEnvelopeV2.sol\":13183:13196  _redEnvelopes */\n      0x07\n        /* \"contracts/LuckyRedEnvelopeV2.sol\":13183:13201  _redEnvelopes[_id] */\n      0x00\n        /* \"contracts/LuckyRedEnvelopeV2.sol\":13197:13200  _id */\n      dup4\n        /* \"contracts/LuckyRedEnvelopeV2.sol\":13183:13201  _redEnvelopes[_id] */\n      dup2\n      mstore\n      0x20\n      add\n      swap1\n      dup2\n      mstore\n      0x20\n      add\n      0x00\n      keccak256\n        /* \"contracts/LuckyRedEnvelopeV2.sol\":13183:13208  _redEnvelopes[_id].status */\n      0x00\n      add\n      0x14\n        /* \"contracts/LuckyRedEnvelopeV2.sol\":13183:13223  _redEnvelopes[_id].status = Status.Close */\n      0x0100\n      exp\n      dup2\n      sload\n      dup2\n      0xff\n      mul\n      not\n      and\n      swap1\n      dup4\n      0x03\n      dup2\n      gt\n      iszero\n      tag_129\n      jumpi\n      tag_130\n      tag_123\n      jump\t// in\n    tag_130:\n    tag_129:\n      mul\n      or\n      swap1\n      sstore\n      pop\n        /* \"contracts/LuckyRedEnvelopeV2.sol\":13259:13262  _id */\n      dup1\n        /* \"contracts/LuckyRedEnvelopeV2.sol\":13241:13342  RedEnvelopeClosed(_id,block.timestamp,_redEnvelopes[_id].buyTickets,_redEnvelopes[_id].injectTickets) */\n      0x4e7abaf6039e145cbdc465859479a7f979153a7c1a4e5662c425afe2a794c785\n        /* \"contracts/LuckyRedEnvelopeV2.sol\":13263:13278  block.timestamp */\n      timestamp\n        /* \"contracts/LuckyRedEnvelopeV2.sol\":13279:13292  _redEnvelopes */\n      0x07\n        /* \"contracts/LuckyRedEnvelopeV2.sol\":13279:13297  _redEnvelopes[_id] */\n      0x00\n        /* \"contracts/LuckyRedEnvelopeV2.sol\":13293:13296  _id */\n      dup6\n        /* \"contracts/LuckyRedEnvelopeV2.sol\":13279:13297  _redEnvelopes[_id] */\n      dup2\n      mstore\n      0x20\n      add\n      swap1\n      dup2\n      mstore\n      0x20\n      add\n      0x00\n      keccak256\n        /* \"contracts/LuckyRedEnvelopeV2.sol\":13279:13308  _redEnvelopes[_id].buyTickets */\n      0x05\n      add\n      sload\n        /* \"contracts/LuckyRedEnvelopeV2.sol\":13309:13322  _redEnvelopes */\n      0x07\n        /* \"contracts/LuckyRedEnvelopeV2.sol\":13309:13327  _redEnvelopes[_id] */\n      0x00\n        /* \"contracts/LuckyRedEnvelopeV2.sol\":13323:13326  _id */\n      dup7\n        /* \"contracts/LuckyRedEnvelopeV2.sol\":13309:13327  _redEnvelopes[_id] */\n      dup2\n      mstore\n      0x20\n      add\n      swap1\n      dup2\n      mstore\n      0x20\n      add\n      0x00\n      keccak256\n        /* \"contracts/LuckyRedEnvelopeV2.sol\":13309:13341  _redEnvelopes[_id].injectTickets */\n      0x07\n      add\n      sload\n        /* \"contracts/LuckyRedEnvelopeV2.sol\":13241:13342  RedEnvelopeClosed(_id,block.timestamp,_redEnvelopes[_id].buyTickets,_redEnvelopes[_id].injectTickets) */\n      mload(0x40)\n      tag_131\n      swap4\n      swap3\n      swap2\n      swap1\n      tag_132\n      jump\t// in\n    tag_131:\n      mload(0x40)\n      dup1\n      swap2\n      sub\n      swap1\n      log2\n        /* \"@openzeppelin/contracts/utils/ReentrancyGuard.sol\":2398:2418  _nonReentrantAfter() */\n      tag_133\n        /* \"@openzeppelin/contracts/utils/ReentrancyGuard.sol\":2398:2416  _nonReentrantAfter */\n      tag_114\n        /* \"@openzeppelin/contracts/utils/ReentrancyGuard.sol\":2398:2418  _nonReentrantAfter() */\n      jump\t// in\n    tag_133:\n        /* \"contracts/LuckyRedEnvelopeV2.sol\":12844:13350  function endRedEnvelope(... */\n      pop\n      jump\t// out\n        /* \"contracts/LuckyRedEnvelopeV2.sol\":10629:11616  function getTickets(... */\n    tag_38:\n        /* \"@openzeppelin/contracts/utils/ReentrancyGuard.sol\":2356:2377  _nonReentrantBefore() */\n      tag_135\n        /* \"@openzeppelin/contracts/utils/ReentrancyGuard.sol\":2356:2375  _nonReentrantBefore */\n      tag_109\n        /* \"@openzeppelin/contracts/utils/ReentrancyGuard.sol\":2356:2377  _nonReentrantBefore() */\n      jump\t// in\n    tag_135:\n        /* \"contracts/LuckyRedEnvelopeV2.sol\":10813:10824  Status.Open */\n      0x01\n        /* \"contracts/LuckyRedEnvelopeV2.sol\":10784:10824  _redEnvelopes[_id].status == Status.Open */\n      0x03\n      dup2\n      gt\n      iszero\n      tag_137\n      jumpi\n      tag_138\n      tag_123\n      jump\t// in\n    tag_138:\n    tag_137:\n        /* \"contracts/LuckyRedEnvelopeV2.sol\":10784:10797  _redEnvelopes */\n      0x07\n        /* \"contracts/LuckyRedEnvelopeV2.sol\":10784:10802  _redEnvelopes[_id] */\n      0x00\n        /* \"contracts/LuckyRedEnvelopeV2.sol\":10798:10801  _id */\n      dup6\n        /* \"contracts/LuckyRedEnvelopeV2.sol\":10784:10802  _redEnvelopes[_id] */\n      dup2\n      mstore\n      0x20\n      add\n      swap1\n      dup2\n      mstore\n      0x20\n      add\n      0x00\n      keccak256\n        /* \"contracts/LuckyRedEnvelopeV2.sol\":10784:10809  _redEnvelopes[_id].status */\n      0x00\n      add\n      0x14\n      swap1\n      sload\n      swap1\n      0x0100\n      exp\n      swap1\n      div\n      0xff\n      and\n        /* \"contracts/LuckyRedEnvelopeV2.sol\":10784:10824  _redEnvelopes[_id].status == Status.Open */\n      0x03\n      dup2\n      gt\n      iszero\n      tag_139\n      jumpi\n      tag_140\n      tag_123\n      jump\t// in\n    tag_140:\n    tag_139:\n      eq\n        /* \"contracts/LuckyRedEnvelopeV2.sol\":10776:10852  require(_redEnvelopes[_id].status == Status.Open, \"RedEnvelope is not open\") */\n      tag_141\n      jumpi\n      mload(0x40)\n      0x08c379a000000000000000000000000000000000000000000000000000000000\n      dup2\n      mstore\n      0x04\n      add\n      tag_142\n      swap1\n      tag_128\n      jump\t// in\n    tag_142:\n      mload(0x40)\n      dup1\n      swap2\n      sub\n      swap1\n      revert\n    tag_141:\n        /* \"contracts/LuckyRedEnvelopeV2.sol\":10915:10916  0 */\n      0x00\n        /* \"contracts/LuckyRedEnvelopeV2.sol\":10871:10917  _redEnvelopes[_id].getTicketAddr != address(0) */\n      0xffffffffffffffffffffffffffffffffffffffff\n      and\n        /* \"contracts/LuckyRedEnvelopeV2.sol\":10871:10884  _redEnvelopes */\n      0x07\n        /* \"contracts/LuckyRedEnvelopeV2.sol\":10871:10889  _redEnvelopes[_id] */\n      0x00\n        /* \"contracts/LuckyRedEnvelopeV2.sol\":10885:10888  _id */\n      dup6\n        /* \"contracts/LuckyRedEnvelopeV2.sol\":10871:10889  _redEnvelopes[_id] */\n      dup2\n      mstore\n      0x20\n      add\n      swap1\n      dup2\n      mstore\n      0x20\n      add\n      0x00\n      keccak256\n        /* \"contracts/LuckyRedEnvelopeV2.sol\":10871:10903  _redEnvelopes[_id].getTicketAddr */\n      0x0c\n      add\n      0x00\n      swap1\n      sload\n      swap1\n      0x0100\n      exp\n      swap1\n      div\n      0xffffffffffffffffffffffffffffffffffffffff\n      and\n        /* \"contracts/LuckyRedEnvelopeV2.sol\":10871:10917  _redEnvelopes[_id].getTicketAddr != address(0) */\n      0xffffffffffffffffffffffffffffffffffffffff\n      and\n      sub\n        /* \"contracts/LuckyRedEnvelopeV2.sol\":10863:10941  require(_redEnvelopes[_id].getTicketAddr != address(0), \"no get ticket model\") */\n      tag_143\n      jumpi\n      mload(0x40)\n      0x08c379a000000000000000000000000000000000000000000000000000000000\n      dup2\n      mstore\n      0x04\n      add\n      tag_144\n      swap1\n      tag_145\n      jump\t// in\n    tag_144:\n      mload(0x40)\n      dup1\n      swap2\n      sub\n      swap1\n      revert\n    tag_143:\n        /* \"contracts/LuckyRedEnvelopeV2.sol\":11004:11014  msg.sender */\n      caller\n        /* \"contracts/LuckyRedEnvelopeV2.sol\":10960:11015  _redEnvelopes[_id].getTicketAddr == address(msg.sender) */\n      0xffffffffffffffffffffffffffffffffffffffff\n      and\n        /* \"contracts/LuckyRedEnvelopeV2.sol\":10960:10973  _redEnvelopes */\n      0x07\n        /* \"contracts/LuckyRedEnvelopeV2.sol\":10960:10978  _redEnvelopes[_id] */\n      0x00\n        /* \"contracts/LuckyRedEnvelopeV2.sol\":10974:10977  _id */\n      dup6\n        /* \"contracts/LuckyRedEnvelopeV2.sol\":10960:10978  _redEnvelopes[_id] */\n      dup2\n      mstore\n      0x20\n      add\n      swap1\n      dup2\n      mstore\n      0x20\n      add\n      0x00\n      keccak256\n        /* \"contracts/LuckyRedEnvelopeV2.sol\":10960:10992  _redEnvelopes[_id].getTicketAddr */\n      0x0c\n      add\n      0x00\n      swap1\n      sload\n      swap1\n      0x0100\n      exp\n      swap1\n      div\n      0xffffffffffffffffffffffffffffffffffffffff\n      and\n        /* \"contracts/LuckyRedEnvelopeV2.sol\":10960:11015  _redEnvelopes[_id].getTicketAddr == address(msg.sender) */\n      0xffffffffffffffffffffffffffffffffffffffff\n      and\n      eq\n        /* \"contracts/LuckyRedEnvelopeV2.sol\":10952:11040  require(_redEnvelopes[_id].getTicketAddr == address(msg.sender), \"not allow get ticket\") */\n      tag_146\n      jumpi\n      mload(0x40)\n      0x08c379a000000000000000000000000000000000000000000000000000000000\n      dup2\n      mstore\n      0x04\n      add\n      tag_147\n      swap1\n      tag_148\n      jump\t// in\n    tag_147:\n      mload(0x40)\n      dup1\n      swap2\n      sub\n      swap1\n      revert\n    tag_146:\n        /* \"contracts/LuckyRedEnvelopeV2.sol\":11077:11078  0 */\n      0x00\n        /* \"contracts/LuckyRedEnvelopeV2.sol\":11059:11073  _ticketNumbers */\n      dup2\n        /* \"contracts/LuckyRedEnvelopeV2.sol\":11059:11078  _ticketNumbers != 0 */\n      sub\n        /* \"contracts/LuckyRedEnvelopeV2.sol\":11051:11104  require(_ticketNumbers != 0 ,\"ticketNumbers no zero\") */\n      tag_149\n      jumpi\n      mload(0x40)\n      0x08c379a000000000000000000000000000000000000000000000000000000000\n      dup2\n      mstore\n      0x04\n      add\n      tag_150\n      swap1\n      tag_151\n      jump\t// in\n    tag_150:\n      mload(0x40)\n      dup1\n      swap2\n      sub\n      swap1\n      revert\n    tag_149:\n        /* \"contracts/LuckyRedEnvelopeV2.sol\":11149:11150  0 */\n      0x00\n        /* \"contracts/LuckyRedEnvelopeV2.sol\":11119:11132  _redEnvelopes */\n      0x07\n        /* \"contracts/LuckyRedEnvelopeV2.sol\":11119:11137  _redEnvelopes[_id] */\n      0x00\n        /* \"contracts/LuckyRedEnvelopeV2.sol\":11133:11136  _id */\n      dup6\n        /* \"contracts/LuckyRedEnvelopeV2.sol\":11119:11137  _redEnvelopes[_id] */\n      dup2\n      mstore\n      0x20\n      add\n      swap1\n      dup2\n      mstore\n      0x20\n      add\n      0x00\n      keccak256\n        /* \"contracts/LuckyRedEnvelopeV2.sol\":11119:11145  _redEnvelopes[_id].endTime */\n      0x02\n      add\n      sload\n        /* \"contracts/LuckyRedEnvelopeV2.sol\":11119:11150  _redEnvelopes[_id].endTime != 0 */\n      eq\n        /* \"contracts/LuckyRedEnvelopeV2.sol\":11115:11259  if (_redEnvelopes[_id].endTime != 0){... */\n      tag_152\n      jumpi\n        /* \"contracts/LuckyRedEnvelopeV2.sol\":11192:11205  _redEnvelopes */\n      0x07\n        /* \"contracts/LuckyRedEnvelopeV2.sol\":11192:11210  _redEnvelopes[_id] */\n      0x00\n        /* \"contracts/LuckyRedEnvelopeV2.sol\":11206:11209  _id */\n      dup5\n        /* \"contracts/LuckyRedEnvelopeV2.sol\":11192:11210  _redEnvelopes[_id] */\n      dup2\n      mstore\n      0x20\n      add\n      swap1\n      dup2\n      mstore\n      0x20\n      add\n      0x00\n      keccak256\n        /* \"contracts/LuckyRedEnvelopeV2.sol\":11192:11218  _redEnvelopes[_id].endTime */\n      0x02\n      add\n      sload\n        /* \"contracts/LuckyRedEnvelopeV2.sol\":11174:11189  block.timestamp */\n      timestamp\n        /* \"contracts/LuckyRedEnvelopeV2.sol\":11174:11218  block.timestamp < _redEnvelopes[_id].endTime */\n      lt\n        /* \"contracts/LuckyRedEnvelopeV2.sol\":11166:11247  require(block.timestamp < _redEnvelopes[_id].endTime, \"RedEnvelope is over time\") */\n      tag_153\n      jumpi\n      mload(0x40)\n      0x08c379a000000000000000000000000000000000000000000000000000000000\n      dup2\n      mstore\n      0x04\n      add\n      tag_154\n      swap1\n      tag_155\n      jump\t// in\n    tag_154:\n      mload(0x40)\n      dup1\n      swap2\n      sub\n      swap1\n      revert\n    tag_153:\n        /* \"contracts/LuckyRedEnvelopeV2.sol\":11115:11259  if (_redEnvelopes[_id].endTime != 0){... */\n    tag_152:\n        /* \"contracts/LuckyRedEnvelopeV2.sol\":11306:11307  0 */\n      0x00\n        /* \"contracts/LuckyRedEnvelopeV2.sol\":11273:11286  _redEnvelopes */\n      0x07\n        /* \"contracts/LuckyRedEnvelopeV2.sol\":11273:11291  _redEnvelopes[_id] */\n      0x00\n        /* \"contracts/LuckyRedEnvelopeV2.sol\":11287:11290  _id */\n      dup6\n        /* \"contracts/LuckyRedEnvelopeV2.sol\":11273:11291  _redEnvelopes[_id] */\n      dup2\n      mstore\n      0x20\n      add\n      swap1\n      dup2\n      mstore\n      0x20\n      add\n      0x00\n      keccak256\n        /* \"contracts/LuckyRedEnvelopeV2.sol\":11273:11302  _redEnvelopes[_id].maxTickets */\n      0x03\n      add\n      sload\n        /* \"contracts/LuckyRedEnvelopeV2.sol\":11273:11307  _redEnvelopes[_id].maxTickets != 0 */\n      eq\n        /* \"contracts/LuckyRedEnvelopeV2.sol\":11269:11453  if (_redEnvelopes[_id].maxTickets != 0){... */\n      tag_156\n      jumpi\n        /* \"contracts/LuckyRedEnvelopeV2.sol\":11381:11394  _redEnvelopes */\n      0x07\n        /* \"contracts/LuckyRedEnvelopeV2.sol\":11381:11399  _redEnvelopes[_id] */\n      0x00\n        /* \"contracts/LuckyRedEnvelopeV2.sol\":11395:11398  _id */\n      dup5\n        /* \"contracts/LuckyRedEnvelopeV2.sol\":11381:11399  _redEnvelopes[_id] */\n      dup2\n      mstore\n      0x20\n      add\n      swap1\n      dup2\n      mstore\n      0x20\n      add\n      0x00\n      keccak256\n        /* \"contracts/LuckyRedEnvelopeV2.sol\":11381:11410  _redEnvelopes[_id].maxTickets */\n      0x03\n      add\n      sload\n        /* \"contracts/LuckyRedEnvelopeV2.sol\":11363:11377  _ticketNumbers */\n      dup2\n        /* \"contracts/LuckyRedEnvelopeV2.sol\":11331:11344  _redEnvelopes */\n      0x07\n        /* \"contracts/LuckyRedEnvelopeV2.sol\":11331:11349  _redEnvelopes[_id] */\n      0x00\n        /* \"contracts/LuckyRedEnvelopeV2.sol\":11345:11348  _id */\n      dup7\n        /* \"contracts/LuckyRedEnvelopeV2.sol\":11331:11349  _redEnvelopes[_id] */\n      dup2\n      mstore\n      0x20\n      add\n      swap1\n      dup2\n      mstore\n      0x20\n      add\n      0x00\n      keccak256\n        /* \"contracts/LuckyRedEnvelopeV2.sol\":11331:11360  _redEnvelopes[_id].buyTickets */\n      0x05\n      add\n      sload\n        /* \"contracts/LuckyRedEnvelopeV2.sol\":11331:11377  _redEnvelopes[_id].buyTickets + _ticketNumbers */\n      tag_157\n      swap2\n      swap1\n      tag_158\n      jump\t// in\n    tag_157:\n        /* \"contracts/LuckyRedEnvelopeV2.sol\":11331:11410  _redEnvelopes[_id].buyTickets + _ticketNumbers <= _redEnvelopes[_id].maxTickets */\n      gt\n      iszero\n        /* \"contracts/LuckyRedEnvelopeV2.sol\":11323:11441  require(_redEnvelopes[_id].buyTickets + _ticketNumbers <= _redEnvelopes[_id].maxTickets, \"RedEnvelope is over ticket\") */\n      tag_159\n      jumpi\n      mload(0x40)\n      0x08c379a000000000000000000000000000000000000000000000000000000000\n      dup2\n      mstore\n      0x04\n      add\n      tag_160\n      swap1\n      tag_161\n      jump\t// in\n    tag_160:\n      mload(0x40)\n      dup1\n      swap2\n      sub\n      swap1\n      revert\n    tag_159:\n        /* \"contracts/LuckyRedEnvelopeV2.sol\":11269:11453  if (_redEnvelopes[_id].maxTickets != 0){... */\n    tag_156:\n        /* \"contracts/LuckyRedEnvelopeV2.sol\":11463:11516  _fillTicket(_id,_receiveAddress,_ticketNumbers,false) */\n      tag_162\n        /* \"contracts/LuckyRedEnvelopeV2.sol\":11475:11478  _id */\n      dup4\n        /* \"contracts/LuckyRedEnvelopeV2.sol\":11479:11494  _receiveAddress */\n      dup4\n        /* \"contracts/LuckyRedEnvelopeV2.sol\":11495:11509  _ticketNumbers */\n      dup4\n        /* \"contracts/LuckyRedEnvelopeV2.sol\":11510:11515  false */\n      0x00\n        /* \"contracts/LuckyRedEnvelopeV2.sol\":11463:11474  _fillTicket */\n      tag_163\n        /* \"contracts/LuckyRedEnvelopeV2.sol\":11463:11516  _fillTicket(_id,_receiveAddress,_ticketNumbers,false) */\n      jump\t// in\n    tag_162:\n        /* \"contracts/LuckyRedEnvelopeV2.sol\":11577:11592  _receiveAddress */\n      dup2\n        /* \"contracts/LuckyRedEnvelopeV2.sol\":11542:11608  TicketsGet(_id,address(msg.sender),_receiveAddress,_ticketNumbers) */\n      0xffffffffffffffffffffffffffffffffffffffff\n      and\n        /* \"contracts/LuckyRedEnvelopeV2.sol\":11565:11575  msg.sender */\n      caller\n        /* \"contracts/LuckyRedEnvelopeV2.sol\":11542:11608  TicketsGet(_id,address(msg.sender),_receiveAddress,_ticketNumbers) */\n      0xffffffffffffffffffffffffffffffffffffffff\n      and\n        /* \"contracts/LuckyRedEnvelopeV2.sol\":11553:11556  _id */\n      dup5\n        /* \"contracts/LuckyRedEnvelopeV2.sol\":11542:11608  TicketsGet(_id,address(msg.sender),_receiveAddress,_ticketNumbers) */\n      0x0cdb228e331696a3755ff9db076df661228408ca1178178951e48ae952567c1f\n        /* \"contracts/LuckyRedEnvelopeV2.sol\":11593:11607  _ticketNumbers */\n      dup5\n        /* \"contracts/LuckyRedEnvelopeV2.sol\":11542:11608  TicketsGet(_id,address(msg.sender),_receiveAddress,_ticketNumbers) */\n      mload(0x40)\n      tag_164\n      swap2\n      swap1\n      tag_42\n      jump\t// in\n    tag_164:\n      mload(0x40)\n      dup1\n      swap2\n      sub\n      swap1\n      log4\n        /* \"@openzeppelin/contracts/utils/ReentrancyGuard.sol\":2398:2418  _nonReentrantAfter() */\n      tag_165\n        /* \"@openzeppelin/contracts/utils/ReentrancyGuard.sol\":2398:2416  _nonReentrantAfter */\n      tag_114\n        /* \"@openzeppelin/contracts/utils/ReentrancyGuard.sol\":2398:2418  _nonReentrantAfter() */\n      jump\t// in\n    tag_165:\n        /* \"contracts/LuckyRedEnvelopeV2.sol\":10629:11616  function getTickets(... */\n      pop\n      pop\n      pop\n      jump\t// out\n        /* \"contracts/LuckyRedEnvelopeV2.sol\":569:602  uint256 public defaultTicketPirce */\n    tag_40:\n      sload(0x04)\n      dup2\n      jump\t// out\n        /* \"contracts/LuckyRedEnvelopeV2.sol\":7667:8116  function injectTickets(uint256 _id,uint256 _ticketNumbers)external nonReentrant{... */\n    tag_46:\n        /* \"@openzeppelin/contracts/utils/ReentrancyGuard.sol\":2356:2377  _nonReentrantBefore() */\n      tag_167\n        /* \"@openzeppelin/contracts/utils/ReentrancyGuard.sol\":2356:2375  _nonReentrantBefore */\n      tag_109\n        /* \"@openzeppelin/contracts/utils/ReentrancyGuard.sol\":2356:2377  _nonReentrantBefore() */\n      jump\t// in\n    tag_167:\n        /* \"contracts/LuckyRedEnvelopeV2.sol\":7783:7784  0 */\n      0x00\n        /* \"contracts/LuckyRedEnvelopeV2.sol\":7765:7779  _ticketNumbers */\n      dup2\n        /* \"contracts/LuckyRedEnvelopeV2.sol\":7765:7784  _ticketNumbers != 0 */\n      sub\n        /* \"contracts/LuckyRedEnvelopeV2.sol\":7757:7802  require(_ticketNumbers != 0,\"inject no zero\") */\n      tag_169\n      jumpi\n      mload(0x40)\n      0x08c379a000000000000000000000000000000000000000000000000000000000\n      dup2\n      mstore\n      0x04\n      add\n      tag_170\n      swap1\n      tag_171\n      jump\t// in\n    tag_170:\n      mload(0x40)\n      dup1\n      swap2\n      sub\n      swap1\n      revert\n    tag_169:\n        /* \"contracts/LuckyRedEnvelopeV2.sol\":7850:7861  Status.Open */\n      0x01\n        /* \"contracts/LuckyRedEnvelopeV2.sol\":7821:7861  _redEnvelopes[_id].status == Status.Open */\n      0x03\n      dup2\n      gt\n      iszero\n      tag_172\n      jumpi\n      tag_173\n      tag_123\n      jump\t// in\n    tag_173:\n    tag_172:\n        /* \"contracts/LuckyRedEnvelopeV2.sol\":7821:7834  _redEnvelopes */\n      0x07\n        /* \"contracts/LuckyRedEnvelopeV2.sol\":7821:7839  _redEnvelopes[_id] */\n      0x00\n        /* \"contracts/LuckyRedEnvelopeV2.sol\":7835:7838  _id */\n      dup5\n        /* \"contracts/LuckyRedEnvelopeV2.sol\":7821:7839  _redEnvelopes[_id] */\n      dup2\n      mstore\n      0x20\n      add\n      swap1\n      dup2\n      mstore\n      0x20\n      add\n      0x00\n      keccak256\n        /* \"contracts/LuckyRedEnvelopeV2.sol\":7821:7846  _redEnvelopes[_id].status */\n      0x00\n      add\n      0x14\n      swap1\n      sload\n      swap1\n      0x0100\n      exp\n      swap1\n      div\n      0xff\n      and\n        /* \"contracts/LuckyRedEnvelopeV2.sol\":7821:7861  _redEnvelopes[_id].status == Status.Open */\n      0x03\n      dup2\n      gt\n      iszero\n      tag_174\n      jumpi\n      tag_175\n      tag_123\n      jump\t// in\n    tag_175:\n    tag_174:\n      eq\n        /* \"contracts/LuckyRedEnvelopeV2.sol\":7813:7889  require(_redEnvelopes[_id].status == Status.Open, \"RedEnvelope is not open\") */\n      tag_176\n      jumpi\n      mload(0x40)\n      0x08c379a000000000000000000000000000000000000000000000000000000000\n      dup2\n      mstore\n      0x04\n      add\n      tag_177\n      swap1\n      tag_128\n      jump\t// in\n    tag_177:\n      mload(0x40)\n      dup1\n      swap2\n      sub\n      swap1\n      revert\n    tag_176:\n        /* \"contracts/LuckyRedEnvelopeV2.sol\":7934:7935  0 */\n      0x00\n        /* \"contracts/LuckyRedEnvelopeV2.sol\":7904:7917  _redEnvelopes */\n      0x07\n        /* \"contracts/LuckyRedEnvelopeV2.sol\":7904:7922  _redEnvelopes[_id] */\n      0x00\n        /* \"contracts/LuckyRedEnvelopeV2.sol\":7918:7921  _id */\n      dup5\n        /* \"contracts/LuckyRedEnvelopeV2.sol\":7904:7922  _redEnvelopes[_id] */\n      dup2\n      mstore\n      0x20\n      add\n      swap1\n      dup2\n      mstore\n      0x20\n      add\n      0x00\n      keccak256\n        /* \"contracts/LuckyRedEnvelopeV2.sol\":7904:7930  _redEnvelopes[_id].endTime */\n      0x02\n      add\n      sload\n        /* \"contracts/LuckyRedEnvelopeV2.sol\":7904:7935  _redEnvelopes[_id].endTime != 0 */\n      eq\n        /* \"contracts/LuckyRedEnvelopeV2.sol\":7900:8044  if (_redEnvelopes[_id].endTime != 0){... */\n      tag_178\n      jumpi\n        /* \"contracts/LuckyRedEnvelopeV2.sol\":7977:7990  _redEnvelopes */\n      0x07\n        /* \"contracts/LuckyRedEnvelopeV2.sol\":7977:7995  _redEnvelopes[_id] */\n      0x00\n        /* \"contracts/LuckyRedEnvelopeV2.sol\":7991:7994  _id */\n      dup4\n        /* \"contracts/LuckyRedEnvelopeV2.sol\":7977:7995  _redEnvelopes[_id] */\n      dup2\n      mstore\n      0x20\n      add\n      swap1\n      dup2\n      mstore\n      0x20\n      add\n      0x00\n      keccak256\n        /* \"contracts/LuckyRedEnvelopeV2.sol\":7977:8003  _redEnvelopes[_id].endTime */\n      0x02\n      add\n      sload\n        /* \"contracts/LuckyRedEnvelopeV2.sol\":7959:7974  block.timestamp */\n      timestamp\n        /* \"contracts/LuckyRedEnvelopeV2.sol\":7959:8003  block.timestamp < _redEnvelopes[_id].endTime */\n      lt\n        /* \"contracts/LuckyRedEnvelopeV2.sol\":7951:8032  require(block.timestamp < _redEnvelopes[_id].endTime, \"RedEnvelope is over time\") */\n      tag_179\n      jumpi\n      mload(0x40)\n      0x08c379a000000000000000000000000000000000000000000000000000000000\n      dup2\n      mstore\n      0x04\n      add\n      tag_180\n      swap1\n      tag_155\n      jump\t// in\n    tag_180:\n      mload(0x40)\n      dup1\n      swap2\n      sub\n      swap1\n      revert\n    tag_179:\n        /* \"contracts/LuckyRedEnvelopeV2.sol\":7900:8044  if (_redEnvelopes[_id].endTime != 0){... */\n    tag_178:\n        /* \"contracts/LuckyRedEnvelopeV2.sol\":8054:8108  _injectTickets(_id,address(msg.sender),_ticketNumbers) */\n      tag_181\n        /* \"contracts/LuckyRedEnvelopeV2.sol\":8069:8072  _id */\n      dup3\n        /* \"contracts/LuckyRedEnvelopeV2.sol\":8081:8091  msg.sender */\n      caller\n        /* \"contracts/LuckyRedEnvelopeV2.sol\":8093:8107  _ticketNumbers */\n      dup4\n        /* \"contracts/LuckyRedEnvelopeV2.sol\":8054:8068  _injectTickets */\n      tag_182\n        /* \"contracts/LuckyRedEnvelopeV2.sol\":8054:8108  _injectTickets(_id,address(msg.sender),_ticketNumbers) */\n      jump\t// in\n    tag_181:\n        /* \"@openzeppelin/contracts/utils/ReentrancyGuard.sol\":2398:2418  _nonReentrantAfter() */\n      tag_183\n        /* \"@openzeppelin/contracts/utils/ReentrancyGuard.sol\":2398:2416  _nonReentrantAfter */\n      tag_114\n        /* \"@openzeppelin/contracts/utils/ReentrancyGuard.sol\":2398:2418  _nonReentrantAfter() */\n      jump\t// in\n    tag_183:\n        /* \"contracts/LuckyRedEnvelopeV2.sol\":7667:8116  function injectTickets(uint256 _id,uint256 _ticketNumbers)external nonReentrant{... */\n      pop\n      pop\n      jump\t// out\n        /* \"@openzeppelin/contracts/access/Ownable.sol\":2293:2394  function renounceOwnership() public virtual onlyOwner {... */\n    tag_48:\n        /* \"@openzeppelin/contracts/access/Ownable.sol\":1531:1544  _checkOwner() */\n      tag_185\n        /* \"@openzeppelin/contracts/access/Ownable.sol\":1531:1542  _checkOwner */\n      tag_186\n        /* \"@openzeppelin/contracts/access/Ownable.sol\":1531:1544  _checkOwner() */\n      jump\t// in\n    tag_185:\n        /* \"@openzeppelin/contracts/access/Ownable.sol\":2357:2387  _transferOwnership(address(0)) */\n      tag_188\n        /* \"@openzeppelin/contracts/access/Ownable.sol\":2384:2385  0 */\n      0x00\n        /* \"@openzeppelin/contracts/access/Ownable.sol\":2357:2375  _transferOwnership */\n      tag_189\n        /* \"@openzeppelin/contracts/access/Ownable.sol\":2357:2387  _transferOwnership(address(0)) */\n      jump\t// in\n    tag_188:\n        /* \"@openzeppelin/contracts/access/Ownable.sol\":2293:2394  function renounceOwnership() public virtual onlyOwner {... */\n      jump\t// out\n        /* \"@openzeppelin/contracts/access/Ownable.sol\":1638:1723  function owner() public view virtual returns (address) {... */\n    tag_50:\n        /* \"@openzeppelin/contracts/access/Ownable.sol\":1684:1691  address */\n      0x00\n        /* \"@openzeppelin/contracts/access/Ownable.sol\":1710:1716  _owner */\n      0x01\n      0x00\n      swap1\n      sload\n      swap1\n      0x0100\n      exp\n      swap1\n      div\n      0xffffffffffffffffffffffffffffffffffffffff\n      and\n        /* \"@openzeppelin/contracts/access/Ownable.sol\":1703:1716  return _owner */\n      swap1\n      pop\n        /* \"@openzeppelin/contracts/access/Ownable.sol\":1638:1723  function owner() public view virtual returns (address) {... */\n      swap1\n      jump\t// out\n        /* \"contracts/LuckyRedEnvelopeV2.sol\":5061:5346  function setTicketToken(address _defaultTicketToken,uint256 _defaultTicketPirce) external onlyOperator{... */\n    tag_56:\n        /* \"contracts/LuckyRedEnvelopeV2.sol\":2501:2505  true */\n      0x01\n        /* \"contracts/LuckyRedEnvelopeV2.sol\":2466:2505  operatorAddressList[msg.sender] == true */\n      iszero\n      iszero\n        /* \"contracts/LuckyRedEnvelopeV2.sol\":2466:2485  operatorAddressList */\n      0x06\n        /* \"contracts/LuckyRedEnvelopeV2.sol\":2466:2497  operatorAddressList[msg.sender] */\n      0x00\n        /* \"contracts/LuckyRedEnvelopeV2.sol\":2486:2496  msg.sender */\n      caller\n        /* \"contracts/LuckyRedEnvelopeV2.sol\":2466:2497  operatorAddressList[msg.sender] */\n      0xffffffffffffffffffffffffffffffffffffffff\n      and\n      0xffffffffffffffffffffffffffffffffffffffff\n      and\n      dup2\n      mstore\n      0x20\n      add\n      swap1\n      dup2\n      mstore\n      0x20\n      add\n      0x00\n      keccak256\n      0x00\n      swap1\n      sload\n      swap1\n      0x0100\n      exp\n      swap1\n      div\n      0xff\n      and\n        /* \"contracts/LuckyRedEnvelopeV2.sol\":2466:2505  operatorAddressList[msg.sender] == true */\n      iszero\n      iszero\n      eq\n        /* \"contracts/LuckyRedEnvelopeV2.sol\":2458:2522  require(operatorAddressList[msg.sender] == true, \"Not operator\") */\n      tag_192\n      jumpi\n      mload(0x40)\n      0x08c379a000000000000000000000000000000000000000000000000000000000\n      dup2\n      mstore\n      0x04\n      add\n      tag_193\n      swap1\n      tag_106\n      jump\t// in\n    tag_193:\n      mload(0x40)\n      dup1\n      swap2\n      sub\n      swap1\n      revert\n    tag_192:\n        /* \"contracts/LuckyRedEnvelopeV2.sol\":5195:5214  _defaultTicketToken */\n      dup2\n        /* \"contracts/LuckyRedEnvelopeV2.sol\":5174:5192  defaultTicketToken */\n      0x02\n      0x00\n        /* \"contracts/LuckyRedEnvelopeV2.sol\":5174:5214  defaultTicketToken = _defaultTicketToken */\n      0x0100\n      exp\n      dup2\n      sload\n      dup2\n      0xffffffffffffffffffffffffffffffffffffffff\n      mul\n      not\n      and\n      swap1\n      dup4\n      0xffffffffffffffffffffffffffffffffffffffff\n      and\n      mul\n      or\n      swap1\n      sstore\n      pop\n        /* \"contracts/LuckyRedEnvelopeV2.sol\":5246:5265  _defaultTicketPirce */\n      dup1\n        /* \"contracts/LuckyRedEnvelopeV2.sol\":5225:5243  defaultTicketPirce */\n      0x04\n        /* \"contracts/LuckyRedEnvelopeV2.sol\":5225:5265  defaultTicketPirce = _defaultTicketPirce */\n      dup2\n      swap1\n      sstore\n      pop\n        /* \"contracts/LuckyRedEnvelopeV2.sol\":5281:5338  DefaultTokenChange(defaultTicketToken,defaultTicketPirce) */\n      0xdc907cb17a7da8e1dffad2b7205a6ca1111cbb38a0f1f4b2b60a31eb673ca4a2\n        /* \"contracts/LuckyRedEnvelopeV2.sol\":5300:5318  defaultTicketToken */\n      0x02\n      0x00\n      swap1\n      sload\n      swap1\n      0x0100\n      exp\n      swap1\n      div\n      0xffffffffffffffffffffffffffffffffffffffff\n      and\n        /* \"contracts/LuckyRedEnvelopeV2.sol\":5319:5337  defaultTicketPirce */\n      sload(0x04)\n        /* \"contracts/LuckyRedEnvelopeV2.sol\":5281:5338  DefaultTokenChange(defaultTicketToken,defaultTicketPirce) */\n      mload(0x40)\n      tag_195\n      swap3\n      swap2\n      swap1\n      tag_196\n      jump\t// in\n    tag_195:\n      mload(0x40)\n      dup1\n      swap2\n      sub\n      swap1\n      log1\n        /* \"contracts/LuckyRedEnvelopeV2.sol\":5061:5346  function setTicketToken(address _defaultTicketToken,uint256 _defaultTicketPirce) external onlyOperator{... */\n      pop\n      pop\n      jump\t// out\n        /* \"contracts/LuckyRedEnvelopeV2.sol\":20560:20662  function  viewCurrentRedEnvelopeId() external view returns(uint256){... */\n    tag_58:\n        /* \"contracts/LuckyRedEnvelopeV2.sol\":20619:20626  uint256 */\n      0x00\n        /* \"contracts/LuckyRedEnvelopeV2.sol\":20645:20654  currentId */\n      sload(0x03)\n        /* \"contracts/LuckyRedEnvelopeV2.sol\":20638:20654  return currentId */\n      swap1\n      pop\n        /* \"contracts/LuckyRedEnvelopeV2.sol\":20560:20662  function  viewCurrentRedEnvelopeId() external view returns(uint256){... */\n      swap1\n      jump\t// out\n        /* \"contracts/LuckyRedEnvelopeV2.sol\":492:525  address public defaultTicketToken */\n    tag_61:\n      0x02\n      0x00\n      swap1\n      sload\n      swap1\n      0x0100\n      exp\n      swap1\n      div\n      0xffffffffffffffffffffffffffffffffffffffff\n      and\n      dup2\n      jump\t// out\n        /* \"contracts/LuckyRedEnvelopeV2.sol\":615:643  bool public defaultAutoClaim */\n    tag_64:\n      0x05\n      0x00\n      swap1\n      sload\n      swap1\n      0x0100\n      exp\n      swap1\n      div\n      0xff\n      and\n      dup2\n      jump\t// out\n        /* \"contracts/LuckyRedEnvelopeV2.sol\":7140:7659  function createRedEnvelopeDetail(... */\n    tag_70:\n        /* \"contracts/LuckyRedEnvelopeV2.sol\":2501:2505  true */\n      0x01\n        /* \"contracts/LuckyRedEnvelopeV2.sol\":2466:2505  operatorAddressList[msg.sender] == true */\n      iszero\n      iszero\n        /* \"contracts/LuckyRedEnvelopeV2.sol\":2466:2485  operatorAddressList */\n      0x06\n        /* \"contracts/LuckyRedEnvelopeV2.sol\":2466:2497  operatorAddressList[msg.sender] */\n      0x00\n        /* \"contracts/LuckyRedEnvelopeV2.sol\":2486:2496  msg.sender */\n      caller\n        /* \"contracts/LuckyRedEnvelopeV2.sol\":2466:2497  operatorAddressList[msg.sender] */\n      0xffffffffffffffffffffffffffffffffffffffff\n      and\n      0xffffffffffffffffffffffffffffffffffffffff\n      and\n      dup2\n      mstore\n      0x20\n      add\n      swap1\n      dup2\n      mstore\n      0x20\n      add\n      0x00\n      keccak256\n      0x00\n      swap1\n      sload\n      swap1\n      0x0100\n      exp\n      swap1\n      div\n      0xff\n      and\n        /* \"contracts/LuckyRedEnvelopeV2.sol\":2466:2505  operatorAddressList[msg.sender] == true */\n      iszero\n      iszero\n      eq\n        /* \"contracts/LuckyRedEnvelopeV2.sol\":2458:2522  require(operatorAddressList[msg.sender] == true, \"Not operator\") */\n      tag_199\n      jumpi\n      mload(0x40)\n      0x08c379a000000000000000000000000000000000000000000000000000000000\n      dup2\n      mstore\n      0x04\n      add\n      tag_200\n      swap1\n      tag_106\n      jump\t// in\n    tag_200:\n      mload(0x40)\n      dup1\n      swap2\n      sub\n      swap1\n      revert\n    tag_199:\n        /* \"@openzeppelin/contracts/utils/ReentrancyGuard.sol\":2356:2377  _nonReentrantBefore() */\n      tag_202\n        /* \"@openzeppelin/contracts/utils/ReentrancyGuard.sol\":2356:2375  _nonReentrantBefore */\n      tag_109\n        /* \"@openzeppelin/contracts/utils/ReentrancyGuard.sol\":2356:2377  _nonReentrantBefore() */\n      jump\t// in\n    tag_202:\n        /* \"contracts/LuckyRedEnvelopeV2.sol\":7502:7651  _createRedEnvelope(_tokenAddress,_ticketPirce,_endTime,_maxTickets,... */\n      tag_204\n        /* \"contracts/LuckyRedEnvelopeV2.sol\":7521:7534  _tokenAddress */\n      dup10\n        /* \"contracts/LuckyRedEnvelopeV2.sol\":7535:7547  _ticketPirce */\n      dup10\n        /* \"contracts/LuckyRedEnvelopeV2.sol\":7548:7556  _endTime */\n      dup10\n        /* \"contracts/LuckyRedEnvelopeV2.sol\":7557:7568  _maxTickets */\n      dup10\n        /* \"contracts/LuckyRedEnvelopeV2.sol\":7583:7595  _maxPrizeNum */\n      dup10\n        /* \"contracts/LuckyRedEnvelopeV2.sol\":7596:7610  _injectAddress */\n      dup10\n        /* \"contracts/LuckyRedEnvelopeV2.sol\":7611:7627  _injectTicketNum */\n      dup10\n        /* \"contracts/LuckyRedEnvelopeV2.sol\":7628:7642  _getTicketAddr */\n      dup10\n        /* \"contracts/LuckyRedEnvelopeV2.sol\":7643:7650  _secret */\n      dup10\n        /* \"contracts/LuckyRedEnvelopeV2.sol\":7502:7520  _createRedEnvelope */\n      tag_112\n        /* \"contracts/LuckyRedEnvelopeV2.sol\":7502:7651  _createRedEnvelope(_tokenAddress,_ticketPirce,_endTime,_maxTickets,... */\n      jump\t// in\n    tag_204:\n        /* \"@openzeppelin/contracts/utils/ReentrancyGuard.sol\":2398:2418  _nonReentrantAfter() */\n      tag_205\n        /* \"@openzeppelin/contracts/utils/ReentrancyGuard.sol\":2398:2416  _nonReentrantAfter */\n      tag_114\n        /* \"@openzeppelin/contracts/utils/ReentrancyGuard.sol\":2398:2418  _nonReentrantAfter() */\n      jump\t// in\n    tag_205:\n        /* \"contracts/LuckyRedEnvelopeV2.sol\":7140:7659  function createRedEnvelopeDetail(... */\n      pop\n      pop\n      pop\n      pop\n      pop\n      pop\n      pop\n      pop\n      pop\n      jump\t// out\n        /* \"contracts/LuckyRedEnvelopeV2.sol\":652:703  mapping(address => bool) public operatorAddressList */\n    tag_74:\n      mstore(0x20, 0x06)\n      dup1\n      0x00\n      mstore\n      keccak256(0x00, 0x40)\n      0x00\n      swap2\n      pop\n      sload\n      swap1\n      0x0100\n      exp\n      swap1\n      div\n      0xff\n      and\n      dup2\n      jump\t// out\n        /* \"contracts/LuckyRedEnvelopeV2.sol\":14980:16734  function drawPrize(... */\n    tag_78:\n        /* \"contracts/LuckyRedEnvelopeV2.sol\":2501:2505  true */\n      0x01\n        /* \"contracts/LuckyRedEnvelopeV2.sol\":2466:2505  operatorAddressList[msg.sender] == true */\n      iszero\n      iszero\n        /* \"contracts/LuckyRedEnvelopeV2.sol\":2466:2485  operatorAddressList */\n      0x06\n        /* \"contracts/LuckyRedEnvelopeV2.sol\":2466:2497  operatorAddressList[msg.sender] */\n      0x00\n        /* \"contracts/LuckyRedEnvelopeV2.sol\":2486:2496  msg.sender */\n      caller\n        /* \"contracts/LuckyRedEnvelopeV2.sol\":2466:2497  operatorAddressList[msg.sender] */\n      0xffffffffffffffffffffffffffffffffffffffff\n      and\n      0xffffffffffffffffffffffffffffffffffffffff\n      and\n      dup2\n      mstore\n      0x20\n      add\n      swap1\n      dup2\n      mstore\n      0x20\n      add\n      0x00\n      keccak256\n      0x00\n      swap1\n      sload\n      swap1\n      0x0100\n      exp\n      swap1\n      div\n      0xff\n      and\n        /* \"contracts/LuckyRedEnvelopeV2.sol\":2466:2505  operatorAddressList[msg.sender] == true */\n      iszero\n      iszero\n      eq\n        /* \"contracts/LuckyRedEnvelopeV2.sol\":2458:2522  require(operatorAddressList[msg.sender] == true, \"Not operator\") */\n      tag_207\n      jumpi\n      mload(0x40)\n      0x08c379a000000000000000000000000000000000000000000000000000000000\n      dup2\n      mstore\n      0x04\n      add\n      tag_208\n      swap1\n      tag_106\n      jump\t// in\n    tag_208:\n      mload(0x40)\n      dup1\n      swap2\n      sub\n      swap1\n      revert\n    tag_207:\n        /* \"@openzeppelin/contracts/utils/ReentrancyGuard.sol\":2356:2377  _nonReentrantBefore() */\n      tag_210\n        /* \"@openzeppelin/contracts/utils/ReentrancyGuard.sol\":2356:2375  _nonReentrantBefore */\n      tag_109\n        /* \"@openzeppelin/contracts/utils/ReentrancyGuard.sol\":2356:2377  _nonReentrantBefore() */\n      jump\t// in\n    tag_210:\n        /* \"contracts/LuckyRedEnvelopeV2.sol\":15134:15146  Status.Close */\n      0x02\n        /* \"contracts/LuckyRedEnvelopeV2.sol\":15105:15146  _redEnvelopes[_id].status == Status.Close */\n      0x03\n      dup2\n      gt\n      iszero\n      tag_212\n      jumpi\n      tag_213\n      tag_123\n      jump\t// in\n    tag_213:\n    tag_212:\n        /* \"contracts/LuckyRedEnvelopeV2.sol\":15105:15118  _redEnvelopes */\n      0x07\n        /* \"contracts/LuckyRedEnvelopeV2.sol\":15105:15123  _redEnvelopes[_id] */\n      0x00\n        /* \"contracts/LuckyRedEnvelopeV2.sol\":15119:15122  _id */\n      dup5\n        /* \"contracts/LuckyRedEnvelopeV2.sol\":15105:15123  _redEnvelopes[_id] */\n      dup2\n      mstore\n      0x20\n      add\n      swap1\n      dup2\n      mstore\n      0x20\n      add\n      0x00\n      keccak256\n        /* \"contracts/LuckyRedEnvelopeV2.sol\":15105:15130  _redEnvelopes[_id].status */\n      0x00\n      add\n      0x14\n      swap1\n      sload\n      swap1\n      0x0100\n      exp\n      swap1\n      div\n      0xff\n      and\n        /* \"contracts/LuckyRedEnvelopeV2.sol\":15105:15146  _redEnvelopes[_id].status == Status.Close */\n      0x03\n      dup2\n      gt\n      iszero\n      tag_214\n      jumpi\n      tag_215\n      tag_123\n      jump\t// in\n    tag_215:\n    tag_214:\n      eq\n        /* \"contracts/LuckyRedEnvelopeV2.sol\":15097:15172  require(_redEnvelopes[_id].status == Status.Close, \"RedEnvelope not close\") */\n      tag_216\n      jumpi\n      mload(0x40)\n      0x08c379a000000000000000000000000000000000000000000000000000000000\n      dup2\n      mstore\n      0x04\n      add\n      tag_217\n      swap1\n      tag_218\n      jump\t// in\n    tag_217:\n      mload(0x40)\n      dup1\n      swap2\n      sub\n      swap1\n      revert\n    tag_216:\n        /* \"contracts/LuckyRedEnvelopeV2.sol\":15211:15227  Status.Claimable */\n      0x03\n        /* \"contracts/LuckyRedEnvelopeV2.sol\":15183:15196  _redEnvelopes */\n      0x07\n        /* \"contracts/LuckyRedEnvelopeV2.sol\":15183:15201  _redEnvelopes[_id] */\n      0x00\n        /* \"contracts/LuckyRedEnvelopeV2.sol\":15197:15200  _id */\n      dup5\n        /* \"contracts/LuckyRedEnvelopeV2.sol\":15183:15201  _redEnvelopes[_id] */\n      dup2\n      mstore\n      0x20\n      add\n      swap1\n      dup2\n      mstore\n      0x20\n      add\n      0x00\n      keccak256\n        /* \"contracts/LuckyRedEnvelopeV2.sol\":15183:15208  _redEnvelopes[_id].status */\n      0x00\n      add\n      0x14\n        /* \"contracts/LuckyRedEnvelopeV2.sol\":15183:15227  _redEnvelopes[_id].status = Status.Claimable */\n      0x0100\n      exp\n      dup2\n      sload\n      dup2\n      0xff\n      mul\n      not\n      and\n      swap1\n      dup4\n      0x03\n      dup2\n      gt\n      iszero\n      tag_219\n      jumpi\n      tag_220\n      tag_123\n      jump\t// in\n    tag_220:\n    tag_219:\n      mul\n      or\n      swap1\n      sstore\n      pop\n        /* \"contracts/LuckyRedEnvelopeV2.sol\":15264:15267  _id */\n      dup2\n        /* \"contracts/LuckyRedEnvelopeV2.sol\":15243:15284  RedEnvelopeClaimable(_id,block.timestamp) */\n      0x66f6b4cd34444af165fb78bce3996496528b37af161c26f737b7341cc37063bb\n        /* \"contracts/LuckyRedEnvelopeV2.sol\":15268:15283  block.timestamp */\n      timestamp\n        /* \"contracts/LuckyRedEnvelopeV2.sol\":15243:15284  RedEnvelopeClaimable(_id,block.timestamp) */\n      mload(0x40)\n      tag_221\n      swap2\n      swap1\n      tag_42\n      jump\t// in\n    tag_221:\n      mload(0x40)\n      dup1\n      swap2\n      sub\n      swap1\n      log2\n        /* \"contracts/LuckyRedEnvelopeV2.sol\":15295:15314  uint256 userTickets */\n      0x00\n        /* \"contracts/LuckyRedEnvelopeV2.sol\":15349:15362  _redEnvelopes */\n      0x07\n        /* \"contracts/LuckyRedEnvelopeV2.sol\":15349:15367  _redEnvelopes[_id] */\n      0x00\n        /* \"contracts/LuckyRedEnvelopeV2.sol\":15363:15366  _id */\n      dup5\n        /* \"contracts/LuckyRedEnvelopeV2.sol\":15349:15367  _redEnvelopes[_id] */\n      dup2\n      mstore\n      0x20\n      add\n      swap1\n      dup2\n      mstore\n      0x20\n      add\n      0x00\n      keccak256\n        /* \"contracts/LuckyRedEnvelopeV2.sol\":15349:15378  _redEnvelopes[_id].getTickets */\n      0x06\n      add\n      sload\n        /* \"contracts/LuckyRedEnvelopeV2.sol\":15317:15330  _redEnvelopes */\n      0x07\n        /* \"contracts/LuckyRedEnvelopeV2.sol\":15317:15335  _redEnvelopes[_id] */\n      0x00\n        /* \"contracts/LuckyRedEnvelopeV2.sol\":15331:15334  _id */\n      dup6\n        /* \"contracts/LuckyRedEnvelopeV2.sol\":15317:15335  _redEnvelopes[_id] */\n      dup2\n      mstore\n      0x20\n      add\n      swap1\n      dup2\n      mstore\n      0x20\n      add\n      0x00\n      keccak256\n        /* \"contracts/LuckyRedEnvelopeV2.sol\":15317:15346  _redEnvelopes[_id].buyTickets */\n      0x05\n      add\n      sload\n        /* \"contracts/LuckyRedEnvelopeV2.sol\":15317:15378  _redEnvelopes[_id].buyTickets + _redEnvelopes[_id].getTickets */\n      tag_222\n      swap2\n      swap1\n      tag_158\n      jump\t// in\n    tag_222:\n        /* \"contracts/LuckyRedEnvelopeV2.sol\":15295:15378  uint256 userTickets = _redEnvelopes[_id].buyTickets + _redEnvelopes[_id].getTickets */\n      swap1\n      pop\n        /* \"contracts/LuckyRedEnvelopeV2.sol\":15409:15410  0 */\n      0x00\n        /* \"contracts/LuckyRedEnvelopeV2.sol\":15394:15405  userTickets */\n      dup2\n        /* \"contracts/LuckyRedEnvelopeV2.sol\":15394:15410  userTickets == 0 */\n      sub\n        /* \"contracts/LuckyRedEnvelopeV2.sol\":15389:15549  if ( userTickets == 0){... */\n      tag_223\n      jumpi\n        /* \"contracts/LuckyRedEnvelopeV2.sol\":15460:15478  _returnInject(_id) */\n      tag_224\n        /* \"contracts/LuckyRedEnvelopeV2.sol\":15474:15477  _id */\n      dup4\n        /* \"contracts/LuckyRedEnvelopeV2.sol\":15460:15473  _returnInject */\n      tag_225\n        /* \"contracts/LuckyRedEnvelopeV2.sol\":15460:15478  _returnInject(_id) */\n      jump\t// in\n    tag_224:\n        /* \"contracts/LuckyRedEnvelopeV2.sol\":15530:15538  return ; */\n      pop\n      jump(tag_211)\n        /* \"contracts/LuckyRedEnvelopeV2.sol\":15389:15549  if ( userTickets == 0){... */\n    tag_223:\n        /* \"contracts/LuckyRedEnvelopeV2.sol\":15593:15611  uint256 randomWord */\n      0x00\n        /* \"contracts/LuckyRedEnvelopeV2.sol\":15614:15620  _nonce */\n      dup3\n        /* \"contracts/LuckyRedEnvelopeV2.sol\":15593:15620  uint256 randomWord = _nonce */\n      swap1\n      pop\n        /* \"contracts/LuckyRedEnvelopeV2.sol\":15641:15656  uint256 drawNum */\n      0x00\n        /* \"contracts/LuckyRedEnvelopeV2.sol\":15659:15670  userTickets */\n      dup3\n        /* \"contracts/LuckyRedEnvelopeV2.sol\":15641:15670  uint256 drawNum = userTickets */\n      swap1\n      pop\n        /* \"contracts/LuckyRedEnvelopeV2.sol\":15695:15708  _redEnvelopes */\n      0x07\n        /* \"contracts/LuckyRedEnvelopeV2.sol\":15695:15713  _redEnvelopes[_id] */\n      0x00\n        /* \"contracts/LuckyRedEnvelopeV2.sol\":15709:15712  _id */\n      dup7\n        /* \"contracts/LuckyRedEnvelopeV2.sol\":15695:15713  _redEnvelopes[_id] */\n      dup2\n      mstore\n      0x20\n      add\n      swap1\n      dup2\n      mstore\n      0x20\n      add\n      0x00\n      keccak256\n        /* \"contracts/LuckyRedEnvelopeV2.sol\":15695:15725  _redEnvelopes[_id].maxPrizeNum */\n      0x04\n      add\n      sload\n        /* \"contracts/LuckyRedEnvelopeV2.sol\":15685:15692  drawNum */\n      dup2\n        /* \"contracts/LuckyRedEnvelopeV2.sol\":15685:15725  drawNum > _redEnvelopes[_id].maxPrizeNum */\n      gt\n        /* \"contracts/LuckyRedEnvelopeV2.sol\":15685:15764  drawNum > _redEnvelopes[_id].maxPrizeNum && _redEnvelopes[_id].maxPrizeNum != 0 */\n      dup1\n      iszero\n      tag_226\n      jumpi\n      pop\n        /* \"contracts/LuckyRedEnvelopeV2.sol\":15763:15764  0 */\n      0x00\n        /* \"contracts/LuckyRedEnvelopeV2.sol\":15729:15742  _redEnvelopes */\n      0x07\n        /* \"contracts/LuckyRedEnvelopeV2.sol\":15729:15747  _redEnvelopes[_id] */\n      0x00\n        /* \"contracts/LuckyRedEnvelopeV2.sol\":15743:15746  _id */\n      dup8\n        /* \"contracts/LuckyRedEnvelopeV2.sol\":15729:15747  _redEnvelopes[_id] */\n      dup2\n      mstore\n      0x20\n      add\n      swap1\n      dup2\n      mstore\n      0x20\n      add\n      0x00\n      keccak256\n        /* \"contracts/LuckyRedEnvelopeV2.sol\":15729:15759  _redEnvelopes[_id].maxPrizeNum */\n      0x04\n      add\n      sload\n        /* \"contracts/LuckyRedEnvelopeV2.sol\":15729:15764  _redEnvelopes[_id].maxPrizeNum != 0 */\n      eq\n      iszero\n        /* \"contracts/LuckyRedEnvelopeV2.sol\":15685:15764  drawNum > _redEnvelopes[_id].maxPrizeNum && _redEnvelopes[_id].maxPrizeNum != 0 */\n    tag_226:\n        /* \"contracts/LuckyRedEnvelopeV2.sol\":15681:15832  if (drawNum > _redEnvelopes[_id].maxPrizeNum && _redEnvelopes[_id].maxPrizeNum != 0){... */\n      iszero\n      tag_227\n      jumpi\n        /* \"contracts/LuckyRedEnvelopeV2.sol\":15790:15803  _redEnvelopes */\n      0x07\n        /* \"contracts/LuckyRedEnvelopeV2.sol\":15790:15808  _redEnvelopes[_id] */\n      0x00\n        /* \"contracts/LuckyRedEnvelopeV2.sol\":15804:15807  _id */\n      dup7\n        /* \"contracts/LuckyRedEnvelopeV2.sol\":15790:15808  _redEnvelopes[_id] */\n      dup2\n      mstore\n      0x20\n      add\n      swap1\n      dup2\n      mstore\n      0x20\n      add\n      0x00\n      keccak256\n        /* \"contracts/LuckyRedEnvelopeV2.sol\":15790:15820  _redEnvelopes[_id].maxPrizeNum */\n      0x04\n      add\n      sload\n        /* \"contracts/LuckyRedEnvelopeV2.sol\":15780:15820  drawNum = _redEnvelopes[_id].maxPrizeNum */\n      swap1\n      pop\n        /* \"contracts/LuckyRedEnvelopeV2.sol\":15681:15832  if (drawNum > _redEnvelopes[_id].maxPrizeNum && _redEnvelopes[_id].maxPrizeNum != 0){... */\n    tag_227:\n        /* \"contracts/LuckyRedEnvelopeV2.sol\":15871:15891  uint256 totalTickets */\n      0x00\n        /* \"contracts/LuckyRedEnvelopeV2.sol\":15929:15942  _redEnvelopes */\n      0x07\n        /* \"contracts/LuckyRedEnvelopeV2.sol\":15929:15947  _redEnvelopes[_id] */\n      0x00\n        /* \"contracts/LuckyRedEnvelopeV2.sol\":15943:15946  _id */\n      dup8\n        /* \"contracts/LuckyRedEnvelopeV2.sol\":15929:15947  _redEnvelopes[_id] */\n      dup2\n      mstore\n      0x20\n      add\n      swap1\n      dup2\n      mstore\n      0x20\n      add\n      0x00\n      keccak256\n        /* \"contracts/LuckyRedEnvelopeV2.sol\":15929:15958  _redEnvelopes[_id].buyTickets */\n      0x05\n      add\n      sload\n        /* \"contracts/LuckyRedEnvelopeV2.sol\":15894:15907  _redEnvelopes */\n      0x07\n        /* \"contracts/LuckyRedEnvelopeV2.sol\":15894:15912  _redEnvelopes[_id] */\n      0x00\n        /* \"contracts/LuckyRedEnvelopeV2.sol\":15908:15911  _id */\n      dup9\n        /* \"contracts/LuckyRedEnvelopeV2.sol\":15894:15912  _redEnvelopes[_id] */\n      dup2\n      mstore\n      0x20\n      add\n      swap1\n      dup2\n      mstore\n      0x20\n      add\n      0x00\n      keccak256\n        /* \"contracts/LuckyRedEnvelopeV2.sol\":15894:15926  _redEnvelopes[_id].injectTickets */\n      0x07\n      add\n      sload\n        /* \"contracts/LuckyRedEnvelopeV2.sol\":15894:15958  _redEnvelopes[_id].injectTickets + _redEnvelopes[_id].buyTickets */\n      tag_228\n      swap2\n      swap1\n      tag_158\n      jump\t// in\n    tag_228:\n        /* \"contracts/LuckyRedEnvelopeV2.sol\":15871:15958  uint256 totalTickets = _redEnvelopes[_id].injectTickets + _redEnvelopes[_id].buyTickets */\n      swap1\n      pop\n        /* \"contracts/LuckyRedEnvelopeV2.sol\":15969:15988  uint256 amountToken */\n      0x00\n        /* \"contracts/LuckyRedEnvelopeV2.sol\":16025:16037  totalTickets */\n      dup2\n        /* \"contracts/LuckyRedEnvelopeV2.sol\":15992:16005  _redEnvelopes */\n      0x07\n        /* \"contracts/LuckyRedEnvelopeV2.sol\":15992:16010  _redEnvelopes[_id] */\n      0x00\n        /* \"contracts/LuckyRedEnvelopeV2.sol\":16006:16009  _id */\n      dup10\n        /* \"contracts/LuckyRedEnvelopeV2.sol\":15992:16010  _redEnvelopes[_id] */\n      dup2\n      mstore\n      0x20\n      add\n      swap1\n      dup2\n      mstore\n      0x20\n      add\n      0x00\n      keccak256\n        /* \"contracts/LuckyRedEnvelopeV2.sol\":15992:16022  _redEnvelopes[_id].ticketPirce */\n      0x0b\n      add\n      sload\n        /* \"contracts/LuckyRedEnvelopeV2.sol\":15992:16037  _redEnvelopes[_id].ticketPirce * totalTickets */\n      tag_229\n      swap2\n      swap1\n      tag_230\n      jump\t// in\n    tag_229:\n        /* \"contracts/LuckyRedEnvelopeV2.sol\":15969:16037  uint256 amountToken =  _redEnvelopes[_id].ticketPirce * totalTickets */\n      swap1\n      pop\n        /* \"contracts/LuckyRedEnvelopeV2.sol\":16049:16079  uint256[] memory randomsAmount */\n      0x00\n        /* \"contracts/LuckyRedEnvelopeV2.sol\":16082:16129  _getSortRandoms(randomWord,drawNum,amountToken) */\n      tag_231\n        /* \"contracts/LuckyRedEnvelopeV2.sol\":16098:16108  randomWord */\n      dup6\n        /* \"contracts/LuckyRedEnvelopeV2.sol\":16109:16116  drawNum */\n      dup6\n        /* \"contracts/LuckyRedEnvelopeV2.sol\":16117:16128  amountToken */\n      dup5\n        /* \"contracts/LuckyRedEnvelopeV2.sol\":16082:16097  _getSortRandoms */\n      tag_232\n        /* \"contracts/LuckyRedEnvelopeV2.sol\":16082:16129  _getSortRandoms(randomWord,drawNum,amountToken) */\n      jump\t// in\n    tag_231:\n        /* \"contracts/LuckyRedEnvelopeV2.sol\":16049:16129  uint256[] memory randomsAmount = _getSortRandoms(randomWord,drawNum,amountToken) */\n      swap1\n      pop\n        /* \"contracts/LuckyRedEnvelopeV2.sol\":16142:16184  _calculatePrize(_id,drawNum,randomsAmount) */\n      tag_233\n        /* \"contracts/LuckyRedEnvelopeV2.sol\":16158:16161  _id */\n      dup9\n        /* \"contracts/LuckyRedEnvelopeV2.sol\":16162:16169  drawNum */\n      dup6\n        /* \"contracts/LuckyRedEnvelopeV2.sol\":16170:16183  randomsAmount */\n      dup4\n        /* \"contracts/LuckyRedEnvelopeV2.sol\":16142:16157  _calculatePrize */\n      tag_234\n        /* \"contracts/LuckyRedEnvelopeV2.sol\":16142:16184  _calculatePrize(_id,drawNum,randomsAmount) */\n      jump\t// in\n    tag_233:\n        /* \"contracts/LuckyRedEnvelopeV2.sol\":16247:16260  _redEnvelopes */\n      0x07\n        /* \"contracts/LuckyRedEnvelopeV2.sol\":16247:16265  _redEnvelopes[_id] */\n      0x00\n        /* \"contracts/LuckyRedEnvelopeV2.sol\":16261:16264  _id */\n      dup10\n        /* \"contracts/LuckyRedEnvelopeV2.sol\":16247:16265  _redEnvelopes[_id] */\n      dup2\n      mstore\n      0x20\n      add\n      swap1\n      dup2\n      mstore\n      0x20\n      add\n      0x00\n      keccak256\n        /* \"contracts/LuckyRedEnvelopeV2.sol\":16247:16275  _redEnvelopes[_id].autoClaim */\n      0x0e\n      add\n      0x00\n      swap1\n      sload\n      swap1\n      0x0100\n      exp\n      swap1\n      div\n      0xff\n      and\n        /* \"contracts/LuckyRedEnvelopeV2.sol\":16244:16694  if(_redEnvelopes[_id].autoClaim){... */\n      iszero\n      tag_235\n      jumpi\n        /* \"contracts/LuckyRedEnvelopeV2.sol\":16295:16304  uint256 i */\n      0x00\n        /* \"contracts/LuckyRedEnvelopeV2.sol\":16291:16683  for(uint256 i = 0;i < _redEnvelopes[_id].userAddrNum;i++){... */\n    tag_236:\n        /* \"contracts/LuckyRedEnvelopeV2.sol\":16313:16326  _redEnvelopes */\n      0x07\n        /* \"contracts/LuckyRedEnvelopeV2.sol\":16313:16331  _redEnvelopes[_id] */\n      0x00\n        /* \"contracts/LuckyRedEnvelopeV2.sol\":16327:16330  _id */\n      dup11\n        /* \"contracts/LuckyRedEnvelopeV2.sol\":16313:16331  _redEnvelopes[_id] */\n      dup2\n      mstore\n      0x20\n      add\n      swap1\n      dup2\n      mstore\n      0x20\n      add\n      0x00\n      keccak256\n        /* \"contracts/LuckyRedEnvelopeV2.sol\":16313:16343  _redEnvelopes[_id].userAddrNum */\n      0x08\n      add\n      sload\n        /* \"contracts/LuckyRedEnvelopeV2.sol\":16309:16310  i */\n      dup2\n        /* \"contracts/LuckyRedEnvelopeV2.sol\":16309:16343  i < _redEnvelopes[_id].userAddrNum */\n      lt\n        /* \"contracts/LuckyRedEnvelopeV2.sol\":16291:16683  for(uint256 i = 0;i < _redEnvelopes[_id].userAddrNum;i++){... */\n      iszero\n      tag_237\n      jumpi\n        /* \"contracts/LuckyRedEnvelopeV2.sol\":16418:16419  0 */\n      0x00\n        /* \"contracts/LuckyRedEnvelopeV2.sol\":16370:16385  _amount2claimed */\n      0x0c\n        /* \"contracts/LuckyRedEnvelopeV2.sol\":16370:16390  _amount2claimed[_id] */\n      0x00\n        /* \"contracts/LuckyRedEnvelopeV2.sol\":16386:16389  _id */\n      dup12\n        /* \"contracts/LuckyRedEnvelopeV2.sol\":16370:16390  _amount2claimed[_id] */\n      dup2\n      mstore\n      0x20\n      add\n      swap1\n      dup2\n      mstore\n      0x20\n      add\n      0x00\n      keccak256\n        /* \"contracts/LuckyRedEnvelopeV2.sol\":16370:16414  _amount2claimed[_id][_userAddrIndex[_id][i]] */\n      0x00\n        /* \"contracts/LuckyRedEnvelopeV2.sol\":16391:16405  _userAddrIndex */\n      0x0b\n        /* \"contracts/LuckyRedEnvelopeV2.sol\":16391:16410  _userAddrIndex[_id] */\n      0x00\n        /* \"contracts/LuckyRedEnvelopeV2.sol\":16406:16409  _id */\n      dup14\n        /* \"contracts/LuckyRedEnvelopeV2.sol\":16391:16410  _userAddrIndex[_id] */\n      dup2\n      mstore\n      0x20\n      add\n      swap1\n      dup2\n      mstore\n      0x20\n      add\n      0x00\n      keccak256\n        /* \"contracts/LuckyRedEnvelopeV2.sol\":16391:16413  _userAddrIndex[_id][i] */\n      0x00\n        /* \"contracts/LuckyRedEnvelopeV2.sol\":16411:16412  i */\n      dup6\n        /* \"contracts/LuckyRedEnvelopeV2.sol\":16391:16413  _userAddrIndex[_id][i] */\n      dup2\n      mstore\n      0x20\n      add\n      swap1\n      dup2\n      mstore\n      0x20\n      add\n      0x00\n      keccak256\n      0x00\n      swap1\n      sload\n      swap1\n      0x0100\n      exp\n      swap1\n      div\n      0xffffffffffffffffffffffffffffffffffffffff\n      and\n        /* \"contracts/LuckyRedEnvelopeV2.sol\":16370:16414  _amount2claimed[_id][_userAddrIndex[_id][i]] */\n      0xffffffffffffffffffffffffffffffffffffffff\n      and\n      0xffffffffffffffffffffffffffffffffffffffff\n      and\n      dup2\n      mstore\n      0x20\n      add\n      swap1\n      dup2\n      mstore\n      0x20\n      add\n      0x00\n      keccak256\n      sload\n        /* \"contracts/LuckyRedEnvelopeV2.sol\":16370:16419  _amount2claimed[_id][_userAddrIndex[_id][i]] != 0 */\n      eq\n        /* \"contracts/LuckyRedEnvelopeV2.sol\":16367:16502  if(_amount2claimed[_id][_userAddrIndex[_id][i]] != 0){... */\n      tag_239\n      jumpi\n        /* \"contracts/LuckyRedEnvelopeV2.sol\":16443:16482  _claimPrize(_id,_userAddrIndex[_id][i]) */\n      tag_240\n        /* \"contracts/LuckyRedEnvelopeV2.sol\":16455:16458  _id */\n      dup10\n        /* \"contracts/LuckyRedEnvelopeV2.sol\":16459:16473  _userAddrIndex */\n      0x0b\n        /* \"contracts/LuckyRedEnvelopeV2.sol\":16459:16478  _userAddrIndex[_id] */\n      0x00\n        /* \"contracts/LuckyRedEnvelopeV2.sol\":16474:16477  _id */\n      dup13\n        /* \"contracts/LuckyRedEnvelopeV2.sol\":16459:16478  _userAddrIndex[_id] */\n      dup2\n      mstore\n      0x20\n      add\n      swap1\n      dup2\n      mstore\n      0x20\n      add\n      0x00\n      keccak256\n        /* \"contracts/LuckyRedEnvelopeV2.sol\":16459:16481  _userAddrIndex[_id][i] */\n      0x00\n        /* \"contracts/LuckyRedEnvelopeV2.sol\":16479:16480  i */\n      dup5\n        /* \"contracts/LuckyRedEnvelopeV2.sol\":16459:16481  _userAddrIndex[_id][i] */\n      dup2\n      mstore\n      0x20\n      add\n      swap1\n      dup2\n      mstore\n      0x20\n      add\n      0x00\n      keccak256\n      0x00\n      swap1\n      sload\n      swap1\n      0x0100\n      exp\n      swap1\n      div\n      0xffffffffffffffffffffffffffffffffffffffff\n      and\n        /* \"contracts/LuckyRedEnvelopeV2.sol\":16443:16454  _claimPrize */\n      tag_241\n        /* \"contracts/LuckyRedEnvelopeV2.sol\":16443:16482  _claimPrize(_id,_userAddrIndex[_id][i]) */\n      jump\t// in\n    tag_240:\n        /* \"contracts/LuckyRedEnvelopeV2.sol\":16367:16502  if(_amount2claimed[_id][_userAddrIndex[_id][i]] != 0){... */\n    tag_239:\n        /* \"contracts/LuckyRedEnvelopeV2.sol\":16344:16347  i++ */\n      dup1\n      dup1\n      0x01\n      add\n      swap2\n      pop\n      pop\n        /* \"contracts/LuckyRedEnvelopeV2.sol\":16291:16683  for(uint256 i = 0;i < _redEnvelopes[_id].userAddrNum;i++){... */\n      jump(tag_236)\n    tag_237:\n      pop\n        /* \"contracts/LuckyRedEnvelopeV2.sol\":16244:16694  if(_redEnvelopes[_id].autoClaim){... */\n    tag_235:\n        /* \"contracts/LuckyRedEnvelopeV2.sol\":15086:16734  {... */\n      pop\n      pop\n      pop\n      pop\n      pop\n      pop\n        /* \"@openzeppelin/contracts/utils/ReentrancyGuard.sol\":2387:2388  _ */\n    tag_211:\n        /* \"@openzeppelin/contracts/utils/ReentrancyGuard.sol\":2398:2418  _nonReentrantAfter() */\n      tag_242\n        /* \"@openzeppelin/contracts/utils/ReentrancyGuard.sol\":2398:2416  _nonReentrantAfter */\n      tag_114\n        /* \"@openzeppelin/contracts/utils/ReentrancyGuard.sol\":2398:2418  _nonReentrantAfter() */\n      jump\t// in\n    tag_242:\n        /* \"contracts/LuckyRedEnvelopeV2.sol\":14980:16734  function drawPrize(... */\n      pop\n      pop\n      jump\t// out\n        /* \"contracts/LuckyRedEnvelopeV2.sol\":11624:12834  function buyTickets(... */\n    tag_81:\n        /* \"@openzeppelin/contracts/utils/ReentrancyGuard.sol\":2356:2377  _nonReentrantBefore() */\n      tag_244\n        /* \"@openzeppelin/contracts/utils/ReentrancyGuard.sol\":2356:2375  _nonReentrantBefore */\n      tag_109\n        /* \"@openzeppelin/contracts/utils/ReentrancyGuard.sol\":2356:2377  _nonReentrantBefore() */\n      jump\t// in\n    tag_244:\n        /* \"contracts/LuckyRedEnvelopeV2.sol\":11808:11819  Status.Open */\n      0x01\n        /* \"contracts/LuckyRedEnvelopeV2.sol\":11779:11819  _redEnvelopes[_id].status == Status.Open */\n      0x03\n      dup2\n      gt\n      iszero\n      tag_246\n      jumpi\n      tag_247\n      tag_123\n      jump\t// in\n    tag_247:\n    tag_246:\n        /* \"contracts/LuckyRedEnvelopeV2.sol\":11779:11792  _redEnvelopes */\n      0x07\n        /* \"contracts/LuckyRedEnvelopeV2.sol\":11779:11797  _redEnvelopes[_id] */\n      0x00\n        /* \"contracts/LuckyRedEnvelopeV2.sol\":11793:11796  _id */\n      dup6\n        /* \"contracts/LuckyRedEnvelopeV2.sol\":11779:11797  _redEnvelopes[_id] */\n      dup2\n      mstore\n      0x20\n      add\n      swap1\n      dup2\n      mstore\n      0x20\n      add\n      0x00\n      keccak256\n        /* \"contracts/LuckyRedEnvelopeV2.sol\":11779:11804  _redEnvelopes[_id].status */\n      0x00\n      add\n      0x14\n      swap1\n      sload\n      swap1\n      0x0100\n      exp\n      swap1\n      div\n      0xff\n      and\n        /* \"contracts/LuckyRedEnvelopeV2.sol\":11779:11819  _redEnvelopes[_id].status == Status.Open */\n      0x03\n      dup2\n      gt\n      iszero\n      tag_248\n      jumpi\n      tag_249\n      tag_123\n      jump\t// in\n    tag_249:\n    tag_248:\n      eq\n        /* \"contracts/LuckyRedEnvelopeV2.sol\":11771:11847  require(_redEnvelopes[_id].status == Status.Open, \"RedEnvelope is not open\") */\n      tag_250\n      jumpi\n      mload(0x40)\n      0x08c379a000000000000000000000000000000000000000000000000000000000\n      dup2\n      mstore\n      0x04\n      add\n      tag_251\n      swap1\n      tag_128\n      jump\t// in\n    tag_251:\n      mload(0x40)\n      dup1\n      swap2\n      sub\n      swap1\n      revert\n    tag_250:\n        /* \"contracts/LuckyRedEnvelopeV2.sol\":11910:11911  0 */\n      0x00\n        /* \"contracts/LuckyRedEnvelopeV2.sol\":11866:11912  _redEnvelopes[_id].getTicketAddr == address(0) */\n      0xffffffffffffffffffffffffffffffffffffffff\n      and\n        /* \"contracts/LuckyRedEnvelopeV2.sol\":11866:11879  _redEnvelopes */\n      0x07\n        /* \"contracts/LuckyRedEnvelopeV2.sol\":11866:11884  _redEnvelopes[_id] */\n      0x00\n        /* \"contracts/LuckyRedEnvelopeV2.sol\":11880:11883  _id */\n      dup6\n        /* \"contracts/LuckyRedEnvelopeV2.sol\":11866:11884  _redEnvelopes[_id] */\n      dup2\n      mstore\n      0x20\n      add\n      swap1\n      dup2\n      mstore\n      0x20\n      add\n      0x00\n      keccak256\n        /* \"contracts/LuckyRedEnvelopeV2.sol\":11866:11898  _redEnvelopes[_id].getTicketAddr */\n      0x0c\n      add\n      0x00\n      swap1\n      sload\n      swap1\n      0x0100\n      exp\n      swap1\n      div\n      0xffffffffffffffffffffffffffffffffffffffff\n      and\n        /* \"contracts/LuckyRedEnvelopeV2.sol\":11866:11912  _redEnvelopes[_id].getTicketAddr == address(0) */\n      0xffffffffffffffffffffffffffffffffffffffff\n      and\n      eq\n        /* \"contracts/LuckyRedEnvelopeV2.sol\":11858:11936  require(_redEnvelopes[_id].getTicketAddr == address(0), \"no buy ticket model\") */\n      tag_252\n      jumpi\n      mload(0x40)\n      0x08c379a000000000000000000000000000000000000000000000000000000000\n      dup2\n      mstore\n      0x04\n      add\n      tag_253\n      swap1\n      tag_254\n      jump\t// in\n    tag_253:\n      mload(0x40)\n      dup1\n      swap2\n      sub\n      swap1\n      revert\n    tag_252:\n        /* \"contracts/LuckyRedEnvelopeV2.sol\":11973:11974  0 */\n      0x00\n        /* \"contracts/LuckyRedEnvelopeV2.sol\":11955:11969  _ticketNumbers */\n      dup2\n        /* \"contracts/LuckyRedEnvelopeV2.sol\":11955:11974  _ticketNumbers != 0 */\n      sub\n        /* \"contracts/LuckyRedEnvelopeV2.sol\":11947:12000  require(_ticketNumbers != 0 ,\"ticketNumbers no zero\") */\n      tag_255\n      jumpi\n      mload(0x40)\n      0x08c379a000000000000000000000000000000000000000000000000000000000\n      dup2\n      mstore\n      0x04\n      add\n      tag_256\n      swap1\n      tag_151\n      jump\t// in\n    tag_256:\n      mload(0x40)\n      dup1\n      swap2\n      sub\n      swap1\n      revert\n    tag_255:\n        /* \"contracts/LuckyRedEnvelopeV2.sol\":12045:12046  0 */\n      0x00\n        /* \"contracts/LuckyRedEnvelopeV2.sol\":12015:12028  _redEnvelopes */\n      0x07\n        /* \"contracts/LuckyRedEnvelopeV2.sol\":12015:12033  _redEnvelopes[_id] */\n      0x00\n        /* \"contracts/LuckyRedEnvelopeV2.sol\":12029:12032  _id */\n      dup6\n        /* \"contracts/LuckyRedEnvelopeV2.sol\":12015:12033  _redEnvelopes[_id] */\n      dup2\n      mstore\n      0x20\n      add\n      swap1\n      dup2\n      mstore\n      0x20\n      add\n      0x00\n      keccak256\n        /* \"contracts/LuckyRedEnvelopeV2.sol\":12015:12041  _redEnvelopes[_id].endTime */\n      0x02\n      add\n      sload\n        /* \"contracts/LuckyRedEnvelopeV2.sol\":12015:12046  _redEnvelopes[_id].endTime != 0 */\n      eq\n        /* \"contracts/LuckyRedEnvelopeV2.sol\":12011:12155  if (_redEnvelopes[_id].endTime != 0){... */\n      tag_257\n      jumpi\n        /* \"contracts/LuckyRedEnvelopeV2.sol\":12088:12101  _redEnvelopes */\n      0x07\n        /* \"contracts/LuckyRedEnvelopeV2.sol\":12088:12106  _redEnvelopes[_id] */\n      0x00\n        /* \"contracts/LuckyRedEnvelopeV2.sol\":12102:12105  _id */\n      dup5\n        /* \"contracts/LuckyRedEnvelopeV2.sol\":12088:12106  _redEnvelopes[_id] */\n      dup2\n      mstore\n      0x20\n      add\n      swap1\n      dup2\n      mstore\n      0x20\n      add\n      0x00\n      keccak256\n        /* \"contracts/LuckyRedEnvelopeV2.sol\":12088:12114  _redEnvelopes[_id].endTime */\n      0x02\n      add\n      sload\n        /* \"contracts/LuckyRedEnvelopeV2.sol\":12070:12085  block.timestamp */\n      timestamp\n        /* \"contracts/LuckyRedEnvelopeV2.sol\":12070:12114  block.timestamp < _redEnvelopes[_id].endTime */\n      lt\n        /* \"contracts/LuckyRedEnvelopeV2.sol\":12062:12143  require(block.timestamp < _redEnvelopes[_id].endTime, \"RedEnvelope is over time\") */\n      tag_258\n      jumpi\n      mload(0x40)\n      0x08c379a000000000000000000000000000000000000000000000000000000000\n      dup2\n      mstore\n      0x04\n      add\n      tag_259\n      swap1\n      tag_155\n      jump\t// in\n    tag_259:\n      mload(0x40)\n      dup1\n      swap2\n      sub\n      swap1\n      revert\n    tag_258:\n        /* \"contracts/LuckyRedEnvelopeV2.sol\":12011:12155  if (_redEnvelopes[_id].endTime != 0){... */\n    tag_257:\n        /* \"contracts/LuckyRedEnvelopeV2.sol\":12202:12203  0 */\n      0x00\n        /* \"contracts/LuckyRedEnvelopeV2.sol\":12169:12182  _redEnvelopes */\n      0x07\n        /* \"contracts/LuckyRedEnvelopeV2.sol\":12169:12187  _redEnvelopes[_id] */\n      0x00\n        /* \"contracts/LuckyRedEnvelopeV2.sol\":12183:12186  _id */\n      dup6\n        /* \"contracts/LuckyRedEnvelopeV2.sol\":12169:12187  _redEnvelopes[_id] */\n      dup2\n      mstore\n      0x20\n      add\n      swap1\n      dup2\n      mstore\n      0x20\n      add\n      0x00\n      keccak256\n        /* \"contracts/LuckyRedEnvelopeV2.sol\":12169:12198  _redEnvelopes[_id].maxTickets */\n      0x03\n      add\n      sload\n        /* \"contracts/LuckyRedEnvelopeV2.sol\":12169:12203  _redEnvelopes[_id].maxTickets != 0 */\n      eq\n        /* \"contracts/LuckyRedEnvelopeV2.sol\":12165:12349  if (_redEnvelopes[_id].maxTickets != 0){... */\n      tag_260\n      jumpi\n        /* \"contracts/LuckyRedEnvelopeV2.sol\":12277:12290  _redEnvelopes */\n      0x07\n        /* \"contracts/LuckyRedEnvelopeV2.sol\":12277:12295  _redEnvelopes[_id] */\n      0x00\n        /* \"contracts/LuckyRedEnvelopeV2.sol\":12291:12294  _id */\n      dup5\n        /* \"contracts/LuckyRedEnvelopeV2.sol\":12277:12295  _redEnvelopes[_id] */\n      dup2\n      mstore\n      0x20\n      add\n      swap1\n      dup2\n      mstore\n      0x20\n      add\n      0x00\n      keccak256\n        /* \"contracts/LuckyRedEnvelopeV2.sol\":12277:12306  _redEnvelopes[_id].maxTickets */\n      0x03\n      add\n      sload\n        /* \"contracts/LuckyRedEnvelopeV2.sol\":12259:12273  _ticketNumbers */\n      dup2\n        /* \"contracts/LuckyRedEnvelopeV2.sol\":12227:12240  _redEnvelopes */\n      0x07\n        /* \"contracts/LuckyRedEnvelopeV2.sol\":12227:12245  _redEnvelopes[_id] */\n      0x00\n        /* \"contracts/LuckyRedEnvelopeV2.sol\":12241:12244  _id */\n      dup7\n        /* \"contracts/LuckyRedEnvelopeV2.sol\":12227:12245  _redEnvelopes[_id] */\n      dup2\n      mstore\n      0x20\n      add\n      swap1\n      dup2\n      mstore\n      0x20\n      add\n      0x00\n      keccak256\n        /* \"contracts/LuckyRedEnvelopeV2.sol\":12227:12256  _redEnvelopes[_id].buyTickets */\n      0x05\n      add\n      sload\n        /* \"contracts/LuckyRedEnvelopeV2.sol\":12227:12273  _redEnvelopes[_id].buyTickets + _ticketNumbers */\n      tag_261\n      swap2\n      swap1\n      tag_158\n      jump\t// in\n    tag_261:\n        /* \"contracts/LuckyRedEnvelopeV2.sol\":12227:12306  _redEnvelopes[_id].buyTickets + _ticketNumbers <= _redEnvelopes[_id].maxTickets */\n      gt\n      iszero\n        /* \"contracts/LuckyRedEnvelopeV2.sol\":12219:12337  require(_redEnvelopes[_id].buyTickets + _ticketNumbers <= _redEnvelopes[_id].maxTickets, \"RedEnvelope is over ticket\") */\n      tag_262\n      jumpi\n      mload(0x40)\n      0x08c379a000000000000000000000000000000000000000000000000000000000\n      dup2\n      mstore\n      0x04\n      add\n      tag_263\n      swap1\n      tag_161\n      jump\t// in\n    tag_263:\n      mload(0x40)\n      dup1\n      swap2\n      sub\n      swap1\n      revert\n    tag_262:\n        /* \"contracts/LuckyRedEnvelopeV2.sol\":12165:12349  if (_redEnvelopes[_id].maxTickets != 0){... */\n    tag_260:\n        /* \"contracts/LuckyRedEnvelopeV2.sol\":12416:12445  uint256 amountTokenToTransfer */\n      0x00\n        /* \"contracts/LuckyRedEnvelopeV2.sol\":12481:12495  _ticketNumbers */\n      dup2\n        /* \"contracts/LuckyRedEnvelopeV2.sol\":12448:12461  _redEnvelopes */\n      0x07\n        /* \"contracts/LuckyRedEnvelopeV2.sol\":12448:12466  _redEnvelopes[_id] */\n      0x00\n        /* \"contracts/LuckyRedEnvelopeV2.sol\":12462:12465  _id */\n      dup7\n        /* \"contracts/LuckyRedEnvelopeV2.sol\":12448:12466  _redEnvelopes[_id] */\n      dup2\n      mstore\n      0x20\n      add\n      swap1\n      dup2\n      mstore\n      0x20\n      add\n      0x00\n      keccak256\n        /* \"contracts/LuckyRedEnvelopeV2.sol\":12448:12478  _redEnvelopes[_id].ticketPirce */\n      0x0b\n      add\n      sload\n        /* \"contracts/LuckyRedEnvelopeV2.sol\":12448:12495  _redEnvelopes[_id].ticketPirce * _ticketNumbers */\n      tag_264\n      swap2\n      swap1\n      tag_230\n      jump\t// in\n    tag_264:\n        /* \"contracts/LuckyRedEnvelopeV2.sol\":12416:12495  uint256 amountTokenToTransfer = _redEnvelopes[_id].ticketPirce * _ticketNumbers */\n      swap1\n      pop\n        /* \"contracts/LuckyRedEnvelopeV2.sol\":12558:12672  IERC20(_redEnvelopes[_id].ticketToken).safeTransferFrom(address(msg.sender), address(this), amountTokenToTransfer) */\n      tag_265\n        /* \"contracts/LuckyRedEnvelopeV2.sol\":12622:12632  msg.sender */\n      caller\n        /* \"contracts/LuckyRedEnvelopeV2.sol\":12643:12647  this */\n      address\n        /* \"contracts/LuckyRedEnvelopeV2.sol\":12650:12671  amountTokenToTransfer */\n      dup4\n        /* \"contracts/LuckyRedEnvelopeV2.sol\":12565:12578  _redEnvelopes */\n      0x07\n        /* \"contracts/LuckyRedEnvelopeV2.sol\":12565:12583  _redEnvelopes[_id] */\n      0x00\n        /* \"contracts/LuckyRedEnvelopeV2.sol\":12579:12582  _id */\n      dup10\n        /* \"contracts/LuckyRedEnvelopeV2.sol\":12565:12583  _redEnvelopes[_id] */\n      dup2\n      mstore\n      0x20\n      add\n      swap1\n      dup2\n      mstore\n      0x20\n      add\n      0x00\n      keccak256\n        /* \"contracts/LuckyRedEnvelopeV2.sol\":12565:12595  _redEnvelopes[_id].ticketToken */\n      0x00\n      add\n      0x00\n      swap1\n      sload\n      swap1\n      0x0100\n      exp\n      swap1\n      div\n      0xffffffffffffffffffffffffffffffffffffffff\n      and\n        /* \"contracts/LuckyRedEnvelopeV2.sol\":12558:12613  IERC20(_redEnvelopes[_id].ticketToken).safeTransferFrom */\n      0xffffffffffffffffffffffffffffffffffffffff\n      and\n      tag_266\n      swap1\n        /* \"contracts/LuckyRedEnvelopeV2.sol\":12558:12672  IERC20(_redEnvelopes[_id].ticketToken).safeTransferFrom(address(msg.sender), address(this), amountTokenToTransfer) */\n      swap4\n      swap3\n      swap2\n      swap1\n      0xffffffff\n      and\n      jump\t// in\n    tag_265:\n        /* \"contracts/LuckyRedEnvelopeV2.sol\":12685:12737  _fillTicket(_id,_receiveAddress,_ticketNumbers,true) */\n      tag_267\n        /* \"contracts/LuckyRedEnvelopeV2.sol\":12697:12700  _id */\n      dup5\n        /* \"contracts/LuckyRedEnvelopeV2.sol\":12701:12716  _receiveAddress */\n      dup5\n        /* \"contracts/LuckyRedEnvelopeV2.sol\":12717:12731  _ticketNumbers */\n      dup5\n        /* \"contracts/LuckyRedEnvelopeV2.sol\":12732:12736  true */\n      0x01\n        /* \"contracts/LuckyRedEnvelopeV2.sol\":12685:12696  _fillTicket */\n      tag_163\n        /* \"contracts/LuckyRedEnvelopeV2.sol\":12685:12737  _fillTicket(_id,_receiveAddress,_ticketNumbers,true) */\n      jump\t// in\n    tag_267:\n        /* \"contracts/LuckyRedEnvelopeV2.sol\":12795:12810  _receiveAddress */\n      dup3\n        /* \"contracts/LuckyRedEnvelopeV2.sol\":12755:12826  TicketsPurchase(_id,address(msg.sender),_receiveAddress,_ticketNumbers) */\n      0xffffffffffffffffffffffffffffffffffffffff\n      and\n        /* \"contracts/LuckyRedEnvelopeV2.sol\":12783:12793  msg.sender */\n      caller\n        /* \"contracts/LuckyRedEnvelopeV2.sol\":12755:12826  TicketsPurchase(_id,address(msg.sender),_receiveAddress,_ticketNumbers) */\n      0xffffffffffffffffffffffffffffffffffffffff\n      and\n        /* \"contracts/LuckyRedEnvelopeV2.sol\":12771:12774  _id */\n      dup6\n        /* \"contracts/LuckyRedEnvelopeV2.sol\":12755:12826  TicketsPurchase(_id,address(msg.sender),_receiveAddress,_ticketNumbers) */\n      0xc711bfbe9284c7d96adbb9ebad39767e13c00b6b5cd4ca300fec0d969309a407\n        /* \"contracts/LuckyRedEnvelopeV2.sol\":12811:12825  _ticketNumbers */\n      dup6\n        /* \"contracts/LuckyRedEnvelopeV2.sol\":12755:12826  TicketsPurchase(_id,address(msg.sender),_receiveAddress,_ticketNumbers) */\n      mload(0x40)\n      tag_268\n      swap2\n      swap1\n      tag_42\n      jump\t// in\n    tag_268:\n      mload(0x40)\n      dup1\n      swap2\n      sub\n      swap1\n      log4\n        /* \"contracts/LuckyRedEnvelopeV2.sol\":11760:12834  {... */\n      pop\n        /* \"@openzeppelin/contracts/utils/ReentrancyGuard.sol\":2398:2418  _nonReentrantAfter() */\n      tag_269\n        /* \"@openzeppelin/contracts/utils/ReentrancyGuard.sol\":2398:2416  _nonReentrantAfter */\n      tag_114\n        /* \"@openzeppelin/contracts/utils/ReentrancyGuard.sol\":2398:2418  _nonReentrantAfter() */\n      jump\t// in\n    tag_269:\n        /* \"contracts/LuckyRedEnvelopeV2.sol\":11624:12834  function buyTickets(... */\n      pop\n      pop\n      pop\n      jump\t// out\n        /* \"contracts/LuckyRedEnvelopeV2.sol\":19204:19489  function claimPrize(uint256 _id)external nonReentrant{... */\n    tag_84:\n        /* \"@openzeppelin/contracts/utils/ReentrancyGuard.sol\":2356:2377  _nonReentrantBefore() */\n      tag_271\n        /* \"@openzeppelin/contracts/utils/ReentrancyGuard.sol\":2356:2375  _nonReentrantBefore */\n      tag_109\n        /* \"@openzeppelin/contracts/utils/ReentrancyGuard.sol\":2356:2377  _nonReentrantBefore() */\n      jump\t// in\n    tag_271:\n        /* \"contracts/LuckyRedEnvelopeV2.sol\":19305:19321  Status.Claimable */\n      0x03\n        /* \"contracts/LuckyRedEnvelopeV2.sol\":19276:19321  _redEnvelopes[_id].status == Status.Claimable */\n      dup1\n      dup2\n      gt\n      iszero\n      tag_273\n      jumpi\n      tag_274\n      tag_123\n      jump\t// in\n    tag_274:\n    tag_273:\n        /* \"contracts/LuckyRedEnvelopeV2.sol\":19276:19289  _redEnvelopes */\n      0x07\n        /* \"contracts/LuckyRedEnvelopeV2.sol\":19276:19294  _redEnvelopes[_id] */\n      0x00\n        /* \"contracts/LuckyRedEnvelopeV2.sol\":19290:19293  _id */\n      dup4\n        /* \"contracts/LuckyRedEnvelopeV2.sol\":19276:19294  _redEnvelopes[_id] */\n      dup2\n      mstore\n      0x20\n      add\n      swap1\n      dup2\n      mstore\n      0x20\n      add\n      0x00\n      keccak256\n        /* \"contracts/LuckyRedEnvelopeV2.sol\":19276:19301  _redEnvelopes[_id].status */\n      0x00\n      add\n      0x14\n      swap1\n      sload\n      swap1\n      0x0100\n      exp\n      swap1\n      div\n      0xff\n      and\n        /* \"contracts/LuckyRedEnvelopeV2.sol\":19276:19321  _redEnvelopes[_id].status == Status.Claimable */\n      0x03\n      dup2\n      gt\n      iszero\n      tag_275\n      jumpi\n      tag_276\n      tag_123\n      jump\t// in\n    tag_276:\n    tag_275:\n      eq\n        /* \"contracts/LuckyRedEnvelopeV2.sol\":19268:19351  require(_redEnvelopes[_id].status == Status.Claimable, \"RedEnvelope not claimable\") */\n      tag_277\n      jumpi\n      mload(0x40)\n      0x08c379a000000000000000000000000000000000000000000000000000000000\n      dup2\n      mstore\n      0x04\n      add\n      tag_278\n      swap1\n      tag_279\n      jump\t// in\n    tag_278:\n      mload(0x40)\n      dup1\n      swap2\n      sub\n      swap1\n      revert\n    tag_277:\n        /* \"contracts/LuckyRedEnvelopeV2.sol\":19402:19407  false */\n      0x00\n        /* \"contracts/LuckyRedEnvelopeV2.sol\":19370:19407  _redEnvelopes[_id].autoClaim == false */\n      iszero\n      iszero\n        /* \"contracts/LuckyRedEnvelopeV2.sol\":19370:19383  _redEnvelopes */\n      0x07\n        /* \"contracts/LuckyRedEnvelopeV2.sol\":19370:19388  _redEnvelopes[_id] */\n      0x00\n        /* \"contracts/LuckyRedEnvelopeV2.sol\":19384:19387  _id */\n      dup4\n        /* \"contracts/LuckyRedEnvelopeV2.sol\":19370:19388  _redEnvelopes[_id] */\n      dup2\n      mstore\n      0x20\n      add\n      swap1\n      dup2\n      mstore\n      0x20\n      add\n      0x00\n      keccak256\n        /* \"contracts/LuckyRedEnvelopeV2.sol\":19370:19398  _redEnvelopes[_id].autoClaim */\n      0x0e\n      add\n      0x00\n      swap1\n      sload\n      swap1\n      0x0100\n      exp\n      swap1\n      div\n      0xff\n      and\n        /* \"contracts/LuckyRedEnvelopeV2.sol\":19370:19407  _redEnvelopes[_id].autoClaim == false */\n      iszero\n      iszero\n      eq\n        /* \"contracts/LuckyRedEnvelopeV2.sol\":19362:19434  require(_redEnvelopes[_id].autoClaim == false, \"RedEnvelope auto claim\") */\n      tag_280\n      jumpi\n      mload(0x40)\n      0x08c379a000000000000000000000000000000000000000000000000000000000\n      dup2\n      mstore\n      0x04\n      add\n      tag_281\n      swap1\n      tag_282\n      jump\t// in\n    tag_281:\n      mload(0x40)\n      dup1\n      swap2\n      sub\n      swap1\n      revert\n    tag_280:\n        /* \"contracts/LuckyRedEnvelopeV2.sol\":19445:19481  _claimPrize(_id,address(msg.sender)) */\n      tag_283\n        /* \"contracts/LuckyRedEnvelopeV2.sol\":19457:19460  _id */\n      dup2\n        /* \"contracts/LuckyRedEnvelopeV2.sol\":19469:19479  msg.sender */\n      caller\n        /* \"contracts/LuckyRedEnvelopeV2.sol\":19445:19456  _claimPrize */\n      tag_241\n        /* \"contracts/LuckyRedEnvelopeV2.sol\":19445:19481  _claimPrize(_id,address(msg.sender)) */\n      jump\t// in\n    tag_283:\n        /* \"@openzeppelin/contracts/utils/ReentrancyGuard.sol\":2398:2418  _nonReentrantAfter() */\n      tag_284\n        /* \"@openzeppelin/contracts/utils/ReentrancyGuard.sol\":2398:2416  _nonReentrantAfter */\n      tag_114\n        /* \"@openzeppelin/contracts/utils/ReentrancyGuard.sol\":2398:2418  _nonReentrantAfter() */\n      jump\t// in\n    tag_284:\n        /* \"contracts/LuckyRedEnvelopeV2.sol\":19204:19489  function claimPrize(uint256 _id)external nonReentrant{... */\n      pop\n      jump\t// out\n        /* \"contracts/LuckyRedEnvelopeV2.sol\":4557:4859  function setOperatorAddress(... */\n    tag_88:\n        /* \"@openzeppelin/contracts/access/Ownable.sol\":1531:1544  _checkOwner() */\n      tag_286\n        /* \"@openzeppelin/contracts/access/Ownable.sol\":1531:1542  _checkOwner */\n      tag_186\n        /* \"@openzeppelin/contracts/access/Ownable.sol\":1531:1544  _checkOwner() */\n      jump\t// in\n    tag_286:\n        /* \"contracts/LuckyRedEnvelopeV2.sol\":4711:4712  0 */\n      0x00\n        /* \"contracts/LuckyRedEnvelopeV2.sol\":4683:4713  _operatorAddress != address(0) */\n      0xffffffffffffffffffffffffffffffffffffffff\n      and\n        /* \"contracts/LuckyRedEnvelopeV2.sol\":4683:4699  _operatorAddress */\n      dup3\n        /* \"contracts/LuckyRedEnvelopeV2.sol\":4683:4713  _operatorAddress != address(0) */\n      0xffffffffffffffffffffffffffffffffffffffff\n      and\n      sub\n        /* \"contracts/LuckyRedEnvelopeV2.sol\":4675:4740  require(_operatorAddress != address(0), \"Cannot be zero address\") */\n      tag_288\n      jumpi\n      mload(0x40)\n      0x08c379a000000000000000000000000000000000000000000000000000000000\n      dup2\n      mstore\n      0x04\n      add\n      tag_289\n      swap1\n      tag_290\n      jump\t// in\n    tag_289:\n      mload(0x40)\n      dup1\n      swap2\n      sub\n      swap1\n      revert\n    tag_288:\n        /* \"contracts/LuckyRedEnvelopeV2.sol\":4791:4795  _opt */\n      dup1\n        /* \"contracts/LuckyRedEnvelopeV2.sol\":4751:4770  operatorAddressList */\n      0x06\n        /* \"contracts/LuckyRedEnvelopeV2.sol\":4751:4788  operatorAddressList[_operatorAddress] */\n      0x00\n        /* \"contracts/LuckyRedEnvelopeV2.sol\":4771:4787  _operatorAddress */\n      dup5\n        /* \"contracts/LuckyRedEnvelopeV2.sol\":4751:4788  operatorAddressList[_operatorAddress] */\n      0xffffffffffffffffffffffffffffffffffffffff\n      and\n      0xffffffffffffffffffffffffffffffffffffffff\n      and\n      dup2\n      mstore\n      0x20\n      add\n      swap1\n      dup2\n      mstore\n      0x20\n      add\n      0x00\n      keccak256\n      0x00\n        /* \"contracts/LuckyRedEnvelopeV2.sol\":4751:4795  operatorAddressList[_operatorAddress] = _opt */\n      0x0100\n      exp\n      dup2\n      sload\n      dup2\n      0xff\n      mul\n      not\n      and\n      swap1\n      dup4\n      iszero\n      iszero\n      mul\n      or\n      swap1\n      sstore\n      pop\n        /* \"contracts/LuckyRedEnvelopeV2.sol\":4813:4851  OperatorAddress(_operatorAddress,_opt) */\n      0xedae46487653623e513ea3b3341c9e6b457a2ef687d0342d2507ccb63458b19f\n        /* \"contracts/LuckyRedEnvelopeV2.sol\":4829:4845  _operatorAddress */\n      dup3\n        /* \"contracts/LuckyRedEnvelopeV2.sol\":4846:4850  _opt */\n      dup3\n        /* \"contracts/LuckyRedEnvelopeV2.sol\":4813:4851  OperatorAddress(_operatorAddress,_opt) */\n      mload(0x40)\n      tag_291\n      swap3\n      swap2\n      swap1\n      tag_292\n      jump\t// in\n    tag_291:\n      mload(0x40)\n      dup1\n      swap2\n      sub\n      swap1\n      log1\n        /* \"contracts/LuckyRedEnvelopeV2.sol\":4557:4859  function setOperatorAddress(... */\n      pop\n      pop\n      jump\t// out\n        /* \"contracts/LuckyRedEnvelopeV2.sol\":538:562  uint256 public currentId */\n    tag_90:\n      sload(0x03)\n      dup2\n      jump\t// out\n        /* \"@openzeppelin/contracts/access/Ownable.sol\":2543:2758  function transferOwnership(address newOwner) public virtual onlyOwner {... */\n    tag_94:\n        /* \"@openzeppelin/contracts/access/Ownable.sol\":1531:1544  _checkOwner() */\n      tag_294\n        /* \"@openzeppelin/contracts/access/Ownable.sol\":1531:1542  _checkOwner */\n      tag_186\n        /* \"@openzeppelin/contracts/access/Ownable.sol\":1531:1544  _checkOwner() */\n      jump\t// in\n    tag_294:\n        /* \"@openzeppelin/contracts/access/Ownable.sol\":2647:2648  0 */\n      0x00\n        /* \"@openzeppelin/contracts/access/Ownable.sol\":2627:2649  newOwner == address(0) */\n      0xffffffffffffffffffffffffffffffffffffffff\n      and\n        /* \"@openzeppelin/contracts/access/Ownable.sol\":2627:2635  newOwner */\n      dup2\n        /* \"@openzeppelin/contracts/access/Ownable.sol\":2627:2649  newOwner == address(0) */\n      0xffffffffffffffffffffffffffffffffffffffff\n      and\n      sub\n        /* \"@openzeppelin/contracts/access/Ownable.sol\":2623:2714  if (newOwner == address(0)) {... */\n      tag_296\n      jumpi\n        /* \"@openzeppelin/contracts/access/Ownable.sol\":2700:2701  0 */\n      0x00\n        /* \"@openzeppelin/contracts/access/Ownable.sol\":2672:2703  OwnableInvalidOwner(address(0)) */\n      mload(0x40)\n      0x1e4fbdf700000000000000000000000000000000000000000000000000000000\n      dup2\n      mstore\n      0x04\n      add\n      tag_297\n      swap2\n      swap1\n      tag_52\n      jump\t// in\n    tag_297:\n      mload(0x40)\n      dup1\n      swap2\n      sub\n      swap1\n      revert\n        /* \"@openzeppelin/contracts/access/Ownable.sol\":2623:2714  if (newOwner == address(0)) {... */\n    tag_296:\n        /* \"@openzeppelin/contracts/access/Ownable.sol\":2723:2751  _transferOwnership(newOwner) */\n      tag_298\n        /* \"@openzeppelin/contracts/access/Ownable.sol\":2742:2750  newOwner */\n      dup2\n        /* \"@openzeppelin/contracts/access/Ownable.sol\":2723:2741  _transferOwnership */\n      tag_189\n        /* \"@openzeppelin/contracts/access/Ownable.sol\":2723:2751  _transferOwnership(newOwner) */\n      jump\t// in\n    tag_298:\n        /* \"@openzeppelin/contracts/access/Ownable.sol\":2543:2758  function transferOwnership(address newOwner) public virtual onlyOwner {... */\n      pop\n      jump\t// out\n        /* \"contracts/LuckyRedEnvelopeV2.sol\":4867:5052  function setDefaultAutoClaim(bool _defaultAutoClaim) external onlyOperator{... */\n    tag_98:\n        /* \"contracts/LuckyRedEnvelopeV2.sol\":2501:2505  true */\n      0x01\n        /* \"contracts/LuckyRedEnvelopeV2.sol\":2466:2505  operatorAddressList[msg.sender] == true */\n      iszero\n      iszero\n        /* \"contracts/LuckyRedEnvelopeV2.sol\":2466:2485  operatorAddressList */\n      0x06\n        /* \"contracts/LuckyRedEnvelopeV2.sol\":2466:2497  operatorAddressList[msg.sender] */\n      0x00\n        /* \"contracts/LuckyRedEnvelopeV2.sol\":2486:2496  msg.sender */\n      caller\n        /* \"contracts/LuckyRedEnvelopeV2.sol\":2466:2497  operatorAddressList[msg.sender] */\n      0xffffffffffffffffffffffffffffffffffffffff\n      and\n      0xffffffffffffffffffffffffffffffffffffffff\n      and\n      dup2\n      mstore\n      0x20\n      add\n      swap1\n      dup2\n      mstore\n      0x20\n      add\n      0x00\n      keccak256\n      0x00\n      swap1\n      sload\n      swap1\n      0x0100\n      exp\n      swap1\n      div\n      0xff\n      and\n        /* \"contracts/LuckyRedEnvelopeV2.sol\":2466:2505  operatorAddressList[msg.sender] == true */\n      iszero\n      iszero\n      eq\n        /* \"contracts/LuckyRedEnvelopeV2.sol\":2458:2522  require(operatorAddressList[msg.sender] == true, \"Not operator\") */\n      tag_300\n      jumpi\n      mload(0x40)\n      0x08c379a000000000000000000000000000000000000000000000000000000000\n      dup2\n      mstore\n      0x04\n      add\n      tag_301\n      swap1\n      tag_106\n      jump\t// in\n    tag_301:\n      mload(0x40)\n      dup1\n      swap2\n      sub\n      swap1\n      revert\n    tag_300:\n        /* \"contracts/LuckyRedEnvelopeV2.sol\":4971:4988  _defaultAutoClaim */\n      dup1\n        /* \"contracts/LuckyRedEnvelopeV2.sol\":4952:4968  defaultAutoClaim */\n      0x05\n      0x00\n        /* \"contracts/LuckyRedEnvelopeV2.sol\":4952:4988  defaultAutoClaim = _defaultAutoClaim */\n      0x0100\n      exp\n      dup2\n      sload\n      dup2\n      0xff\n      mul\n      not\n      and\n      swap1\n      dup4\n      iszero\n      iszero\n      mul\n      or\n      swap1\n      sstore\n      pop\n        /* \"contracts/LuckyRedEnvelopeV2.sol\":5004:5044  DefaultAutoClaimChange(defaultAutoClaim) */\n      0x6fe9a4ab2e95e24b2be44989dc36a685149dfde9354d486a8da5cb4bbd01b010\n        /* \"contracts/LuckyRedEnvelopeV2.sol\":5027:5043  defaultAutoClaim */\n      0x05\n      0x00\n      swap1\n      sload\n      swap1\n      0x0100\n      exp\n      swap1\n      div\n      0xff\n      and\n        /* \"contracts/LuckyRedEnvelopeV2.sol\":5004:5044  DefaultAutoClaimChange(defaultAutoClaim) */\n      mload(0x40)\n      tag_303\n      swap2\n      swap1\n      tag_66\n      jump\t// in\n    tag_303:\n      mload(0x40)\n      dup1\n      swap2\n      sub\n      swap1\n      log1\n        /* \"contracts/LuckyRedEnvelopeV2.sol\":4867:5052  function setDefaultAutoClaim(bool _defaultAutoClaim) external onlyOperator{... */\n      pop\n      jump\t// out\n        /* \"contracts/LuckyRedEnvelopeV2.sol\":20424:20552  function viewRedEnvelopeStatus(uint256 _id) public view  returns (uint){... */\n    tag_101:\n        /* \"contracts/LuckyRedEnvelopeV2.sol\":20490:20494  uint */\n      0x00\n        /* \"contracts/LuckyRedEnvelopeV2.sol\":20518:20531  _redEnvelopes */\n      0x07\n        /* \"contracts/LuckyRedEnvelopeV2.sol\":20518:20536  _redEnvelopes[_id] */\n      0x00\n        /* \"contracts/LuckyRedEnvelopeV2.sol\":20532:20535  _id */\n      dup4\n        /* \"contracts/LuckyRedEnvelopeV2.sol\":20518:20536  _redEnvelopes[_id] */\n      dup2\n      mstore\n      0x20\n      add\n      swap1\n      dup2\n      mstore\n      0x20\n      add\n      0x00\n      keccak256\n        /* \"contracts/LuckyRedEnvelopeV2.sol\":20518:20543  _redEnvelopes[_id].status */\n      0x00\n      add\n      0x14\n      swap1\n      sload\n      swap1\n      0x0100\n      exp\n      swap1\n      div\n      0xff\n      and\n        /* \"contracts/LuckyRedEnvelopeV2.sol\":20513:20544  uint(_redEnvelopes[_id].status) */\n      0x03\n      dup2\n      gt\n      iszero\n      tag_305\n      jumpi\n      tag_306\n      tag_123\n      jump\t// in\n    tag_306:\n    tag_305:\n        /* \"contracts/LuckyRedEnvelopeV2.sol\":20506:20544  return uint(_redEnvelopes[_id].status) */\n      swap1\n      pop\n        /* \"contracts/LuckyRedEnvelopeV2.sol\":20424:20552  function viewRedEnvelopeStatus(uint256 _id) public view  returns (uint){... */\n      swap2\n      swap1\n      pop\n      jump\t// out\n        /* \"@openzeppelin/contracts/utils/ReentrancyGuard.sol\":2431:2738  function _nonReentrantBefore() private {... */\n    tag_109:\n        /* \"@openzeppelin/contracts/utils/ReentrancyGuard.sol\":1755:1756  2 */\n      0x02\n        /* \"@openzeppelin/contracts/utils/ReentrancyGuard.sol\":2558:2565  _status */\n      sload(0x00)\n        /* \"@openzeppelin/contracts/utils/ReentrancyGuard.sol\":2558:2576  _status == ENTERED */\n      sub\n        /* \"@openzeppelin/contracts/utils/ReentrancyGuard.sol\":2554:2640  if (_status == ENTERED) {... */\n      tag_308\n      jumpi\n        /* \"@openzeppelin/contracts/utils/ReentrancyGuard.sol\":2599:2629  ReentrancyGuardReentrantCall() */\n      mload(0x40)\n      0x3ee5aeb500000000000000000000000000000000000000000000000000000000\n      dup2\n      mstore\n      0x04\n      add\n      mload(0x40)\n      dup1\n      swap2\n      sub\n      swap1\n      revert\n        /* \"@openzeppelin/contracts/utils/ReentrancyGuard.sol\":2554:2640  if (_status == ENTERED) {... */\n    tag_308:\n        /* \"@openzeppelin/contracts/utils/ReentrancyGuard.sol\":1755:1756  2 */\n      0x02\n        /* \"@openzeppelin/contracts/utils/ReentrancyGuard.sol\":2714:2721  _status */\n      0x00\n        /* \"@openzeppelin/contracts/utils/ReentrancyGuard.sol\":2714:2731  _status = ENTERED */\n      dup2\n      swap1\n      sstore\n      pop\n        /* \"@openzeppelin/contracts/utils/ReentrancyGuard.sol\":2431:2738  function _nonReentrantBefore() private {... */\n      jump\t// out\n        /* \"contracts/LuckyRedEnvelopeV2.sol\":5360:6562  function _createRedEnvelope(address _tokenAddress,... */\n    tag_112:\n        /* \"contracts/LuckyRedEnvelopeV2.sol\":5685:5694  currentId */\n      0x03\n      0x00\n        /* \"contracts/LuckyRedEnvelopeV2.sol\":5685:5696  currentId++ */\n      dup2\n      sload\n      dup1\n      swap3\n      swap2\n      swap1\n      tag_310\n      swap1\n      tag_311\n      jump\t// in\n    tag_310:\n      swap2\n      swap1\n      pop\n      sstore\n      pop\n        /* \"contracts/LuckyRedEnvelopeV2.sol\":5707:5738  RedEnvelope storage redEnvelope */\n      0x00\n        /* \"contracts/LuckyRedEnvelopeV2.sol\":5741:5754  _redEnvelopes */\n      0x07\n        /* \"contracts/LuckyRedEnvelopeV2.sol\":5741:5765  _redEnvelopes[currentId] */\n      0x00\n        /* \"contracts/LuckyRedEnvelopeV2.sol\":5755:5764  currentId */\n      sload(0x03)\n        /* \"contracts/LuckyRedEnvelopeV2.sol\":5741:5765  _redEnvelopes[currentId] */\n      dup2\n      mstore\n      0x20\n      add\n      swap1\n      dup2\n      mstore\n      0x20\n      add\n      0x00\n      keccak256\n        /* \"contracts/LuckyRedEnvelopeV2.sol\":5707:5765  RedEnvelope storage redEnvelope = _redEnvelopes[currentId] */\n      swap1\n      pop\n        /* \"contracts/LuckyRedEnvelopeV2.sol\":5802:5815  _tokenAddress */\n      dup10\n        /* \"contracts/LuckyRedEnvelopeV2.sol\":5776:5787  redEnvelope */\n      dup2\n        /* \"contracts/LuckyRedEnvelopeV2.sol\":5776:5799  redEnvelope.ticketToken */\n      0x00\n      add\n      0x00\n        /* \"contracts/LuckyRedEnvelopeV2.sol\":5776:5815  redEnvelope.ticketToken = _tokenAddress */\n      0x0100\n      exp\n      dup2\n      sload\n      dup2\n      0xffffffffffffffffffffffffffffffffffffffff\n      mul\n      not\n      and\n      swap1\n      dup4\n      0xffffffffffffffffffffffffffffffffffffffff\n      and\n      mul\n      or\n      swap1\n      sstore\n      pop\n        /* \"contracts/LuckyRedEnvelopeV2.sol\":5847:5858  Status.Open */\n      0x01\n        /* \"contracts/LuckyRedEnvelopeV2.sol\":5826:5837  redEnvelope */\n      dup2\n        /* \"contracts/LuckyRedEnvelopeV2.sol\":5826:5844  redEnvelope.status */\n      0x00\n      add\n      0x14\n        /* \"contracts/LuckyRedEnvelopeV2.sol\":5826:5858  redEnvelope.status = Status.Open */\n      0x0100\n      exp\n      dup2\n      sload\n      dup2\n      0xff\n      mul\n      not\n      and\n      swap1\n      dup4\n      0x03\n      dup2\n      gt\n      iszero\n      tag_312\n      jumpi\n      tag_313\n      tag_123\n      jump\t// in\n    tag_313:\n    tag_312:\n      mul\n      or\n      swap1\n      sstore\n      pop\n        /* \"contracts/LuckyRedEnvelopeV2.sol\":5893:5908  block.timestamp */\n      timestamp\n        /* \"contracts/LuckyRedEnvelopeV2.sol\":5869:5880  redEnvelope */\n      dup2\n        /* \"contracts/LuckyRedEnvelopeV2.sol\":5869:5890  redEnvelope.startTime */\n      0x01\n      add\n        /* \"contracts/LuckyRedEnvelopeV2.sol\":5869:5908  redEnvelope.startTime = block.timestamp */\n      dup2\n      swap1\n      sstore\n      pop\n        /* \"contracts/LuckyRedEnvelopeV2.sol\":5941:5949  _endTime */\n      dup8\n        /* \"contracts/LuckyRedEnvelopeV2.sol\":5919:5930  redEnvelope */\n      dup2\n        /* \"contracts/LuckyRedEnvelopeV2.sol\":5919:5938  redEnvelope.endTime */\n      0x02\n      add\n        /* \"contracts/LuckyRedEnvelopeV2.sol\":5919:5949  redEnvelope.endTime = _endTime */\n      dup2\n      swap1\n      sstore\n      pop\n        /* \"contracts/LuckyRedEnvelopeV2.sol\":5985:5996  _maxTickets */\n      dup7\n        /* \"contracts/LuckyRedEnvelopeV2.sol\":5960:5971  redEnvelope */\n      dup2\n        /* \"contracts/LuckyRedEnvelopeV2.sol\":5960:5982  redEnvelope.maxTickets */\n      0x03\n      add\n        /* \"contracts/LuckyRedEnvelopeV2.sol\":5960:5996  redEnvelope.maxTickets = _maxTickets */\n      dup2\n      swap1\n      sstore\n      pop\n        /* \"contracts/LuckyRedEnvelopeV2.sol\":6033:6045  _maxPrizeNum */\n      dup6\n        /* \"contracts/LuckyRedEnvelopeV2.sol\":6007:6018  redEnvelope */\n      dup2\n        /* \"contracts/LuckyRedEnvelopeV2.sol\":6007:6030  redEnvelope.maxPrizeNum */\n      0x04\n      add\n        /* \"contracts/LuckyRedEnvelopeV2.sol\":6007:6045  redEnvelope.maxPrizeNum = _maxPrizeNum */\n      dup2\n      swap1\n      sstore\n      pop\n        /* \"contracts/LuckyRedEnvelopeV2.sol\":6082:6094  _ticketPirce */\n      dup9\n        /* \"contracts/LuckyRedEnvelopeV2.sol\":6056:6067  redEnvelope */\n      dup2\n        /* \"contracts/LuckyRedEnvelopeV2.sol\":6056:6079  redEnvelope.ticketPirce */\n      0x0b\n      add\n        /* \"contracts/LuckyRedEnvelopeV2.sol\":6056:6094  redEnvelope.ticketPirce = _ticketPirce */\n      dup2\n      swap1\n      sstore\n      pop\n        /* \"contracts/LuckyRedEnvelopeV2.sol\":6126:6133  _secret */\n      dup2\n        /* \"contracts/LuckyRedEnvelopeV2.sol\":6105:6116  redEnvelope */\n      dup2\n        /* \"contracts/LuckyRedEnvelopeV2.sol\":6105:6123  redEnvelope.secret */\n      0x0d\n      add\n        /* \"contracts/LuckyRedEnvelopeV2.sol\":6105:6133  redEnvelope.secret = _secret */\n      dup2\n      swap1\n      sstore\n      pop\n        /* \"contracts/LuckyRedEnvelopeV2.sol\":6168:6184  defaultAutoClaim */\n      0x05\n      0x00\n      swap1\n      sload\n      swap1\n      0x0100\n      exp\n      swap1\n      div\n      0xff\n      and\n        /* \"contracts/LuckyRedEnvelopeV2.sol\":6144:6155  redEnvelope */\n      dup2\n        /* \"contracts/LuckyRedEnvelopeV2.sol\":6144:6165  redEnvelope.autoClaim */\n      0x0e\n      add\n      0x00\n        /* \"contracts/LuckyRedEnvelopeV2.sol\":6144:6184  redEnvelope.autoClaim = defaultAutoClaim */\n      0x0100\n      exp\n      dup2\n      sload\n      dup2\n      0xff\n      mul\n      not\n      and\n      swap1\n      dup4\n      iszero\n      iszero\n      mul\n      or\n      swap1\n      sstore\n      pop\n        /* \"contracts/LuckyRedEnvelopeV2.sol\":6223:6237  _getTicketAddr */\n      dup3\n        /* \"contracts/LuckyRedEnvelopeV2.sol\":6195:6206  redEnvelope */\n      dup2\n        /* \"contracts/LuckyRedEnvelopeV2.sol\":6195:6220  redEnvelope.getTicketAddr */\n      0x0c\n      add\n      0x00\n        /* \"contracts/LuckyRedEnvelopeV2.sol\":6195:6237  redEnvelope.getTicketAddr = _getTicketAddr */\n      0x0100\n      exp\n      dup2\n      sload\n      dup2\n      0xffffffffffffffffffffffffffffffffffffffff\n      mul\n      not\n      and\n      swap1\n      dup4\n      0xffffffffffffffffffffffffffffffffffffffff\n      and\n      mul\n      or\n      swap1\n      sstore\n      pop\n        /* \"contracts/LuckyRedEnvelopeV2.sol\":6282:6291  currentId */\n      sload(0x03)\n        /* \"contracts/LuckyRedEnvelopeV2.sol\":6263:6374  RedEnvelopeCreated(currentId,block.timestamp,_endTime,_maxTickets,_ticketPirce,_getTicketAddr,defaultAutoClaim) */\n      0x4c987e6c9f6aad2cfe1d70875b12f8b9af9a28ca87e789bfef279084bf0354cd\n        /* \"contracts/LuckyRedEnvelopeV2.sol\":6292:6307  block.timestamp */\n      timestamp\n        /* \"contracts/LuckyRedEnvelopeV2.sol\":6308:6316  _endTime */\n      dup11\n        /* \"contracts/LuckyRedEnvelopeV2.sol\":6317:6328  _maxTickets */\n      dup11\n        /* \"contracts/LuckyRedEnvelopeV2.sol\":6329:6341  _ticketPirce */\n      dup14\n        /* \"contracts/LuckyRedEnvelopeV2.sol\":6342:6356  _getTicketAddr */\n      dup9\n        /* \"contracts/LuckyRedEnvelopeV2.sol\":6357:6373  defaultAutoClaim */\n      0x05\n      0x00\n      swap1\n      sload\n      swap1\n      0x0100\n      exp\n      swap1\n      div\n      0xff\n      and\n        /* \"contracts/LuckyRedEnvelopeV2.sol\":6263:6374  RedEnvelopeCreated(currentId,block.timestamp,_endTime,_maxTickets,_ticketPirce,_getTicketAddr,defaultAutoClaim) */\n      mload(0x40)\n      tag_314\n      swap7\n      swap6\n      swap5\n      swap4\n      swap3\n      swap2\n      swap1\n      tag_315\n      jump\t// in\n    tag_314:\n      mload(0x40)\n      dup1\n      swap2\n      sub\n      swap1\n      log2\n        /* \"contracts/LuckyRedEnvelopeV2.sol\":6410:6411  0 */\n      0x00\n        /* \"contracts/LuckyRedEnvelopeV2.sol\":6391:6407  _injectTicketNum */\n      dup5\n        /* \"contracts/LuckyRedEnvelopeV2.sol\":6391:6411  _injectTicketNum > 0 */\n      gt\n        /* \"contracts/LuckyRedEnvelopeV2.sol\":6387:6555  if (_injectTicketNum > 0){... */\n      iszero\n      tag_316\n      jumpi\n        /* \"contracts/LuckyRedEnvelopeV2.sol\":6486:6543  _injectTickets(currentId,_injectAddress,_injectTicketNum) */\n      tag_317\n        /* \"contracts/LuckyRedEnvelopeV2.sol\":6501:6510  currentId */\n      sload(0x03)\n        /* \"contracts/LuckyRedEnvelopeV2.sol\":6511:6525  _injectAddress */\n      dup7\n        /* \"contracts/LuckyRedEnvelopeV2.sol\":6526:6542  _injectTicketNum */\n      dup7\n        /* \"contracts/LuckyRedEnvelopeV2.sol\":6486:6500  _injectTickets */\n      tag_182\n        /* \"contracts/LuckyRedEnvelopeV2.sol\":6486:6543  _injectTickets(currentId,_injectAddress,_injectTicketNum) */\n      jump\t// in\n    tag_317:\n        /* \"contracts/LuckyRedEnvelopeV2.sol\":6387:6555  if (_injectTicketNum > 0){... */\n    tag_316:\n        /* \"contracts/LuckyRedEnvelopeV2.sol\":5674:6562  {... */\n      pop\n        /* \"contracts/LuckyRedEnvelopeV2.sol\":5360:6562  function _createRedEnvelope(address _tokenAddress,... */\n      pop\n      pop\n      pop\n      pop\n      pop\n      pop\n      pop\n      pop\n      pop\n      jump\t// out\n        /* \"@openzeppelin/contracts/utils/ReentrancyGuard.sol\":2744:2952  function _nonReentrantAfter() private {... */\n    tag_114:\n        /* \"@openzeppelin/contracts/utils/ReentrancyGuard.sol\":1713:1714  1 */\n      0x01\n        /* \"@openzeppelin/contracts/utils/ReentrancyGuard.sol\":2924:2931  _status */\n      0x00\n        /* \"@openzeppelin/contracts/utils/ReentrancyGuard.sol\":2924:2945  _status = NOT_ENTERED */\n      dup2\n      swap1\n      sstore\n      pop\n        /* \"@openzeppelin/contracts/utils/ReentrancyGuard.sol\":2744:2952  function _nonReentrantAfter() private {... */\n      jump\t// out\n        /* \"contracts/LuckyRedEnvelopeV2.sol\":8956:10621  function _fillTicket(uint256 _id,address _receiveAddress,uint256 _ticketNumbers,bool _buy)internal{... */\n    tag_163:\n        /* \"contracts/LuckyRedEnvelopeV2.sol\":9480:9500  uint256 totalNumbers */\n      0x00\n        /* \"contracts/LuckyRedEnvelopeV2.sol\":9555:9556  0 */\n      dup1\n        /* \"contracts/LuckyRedEnvelopeV2.sol\":9523:9536  _redEnvelopes */\n      0x07\n        /* \"contracts/LuckyRedEnvelopeV2.sol\":9523:9541  _redEnvelopes[_id] */\n      0x00\n        /* \"contracts/LuckyRedEnvelopeV2.sol\":9537:9540  _id */\n      dup8\n        /* \"contracts/LuckyRedEnvelopeV2.sol\":9523:9541  _redEnvelopes[_id] */\n      dup2\n      mstore\n      0x20\n      add\n      swap1\n      dup2\n      mstore\n      0x20\n      add\n      0x00\n      keccak256\n        /* \"contracts/LuckyRedEnvelopeV2.sol\":9523:9551  _redEnvelopes[_id].userTxNum */\n      0x09\n      add\n      sload\n        /* \"contracts/LuckyRedEnvelopeV2.sol\":9523:9556  _redEnvelopes[_id].userTxNum != 0 */\n      eq\n        /* \"contracts/LuckyRedEnvelopeV2.sol\":9519:9667  if (_redEnvelopes[_id].userTxNum != 0){... */\n      tag_320\n      jumpi\n        /* \"contracts/LuckyRedEnvelopeV2.sol\":9591:9599  _tickets */\n      0x08\n        /* \"contracts/LuckyRedEnvelopeV2.sol\":9591:9604  _tickets[_id] */\n      0x00\n        /* \"contracts/LuckyRedEnvelopeV2.sol\":9600:9603  _id */\n      dup7\n        /* \"contracts/LuckyRedEnvelopeV2.sol\":9591:9604  _tickets[_id] */\n      dup2\n      mstore\n      0x20\n      add\n      swap1\n      dup2\n      mstore\n      0x20\n      add\n      0x00\n      keccak256\n        /* \"contracts/LuckyRedEnvelopeV2.sol\":9591:9638  _tickets[_id][_redEnvelopes[_id].userTxNum - 1] */\n      0x00\n        /* \"contracts/LuckyRedEnvelopeV2.sol\":9636:9637  1 */\n      0x01\n        /* \"contracts/LuckyRedEnvelopeV2.sol\":9605:9618  _redEnvelopes */\n      0x07\n        /* \"contracts/LuckyRedEnvelopeV2.sol\":9605:9623  _redEnvelopes[_id] */\n      0x00\n        /* \"contracts/LuckyRedEnvelopeV2.sol\":9619:9622  _id */\n      dup10\n        /* \"contracts/LuckyRedEnvelopeV2.sol\":9605:9623  _redEnvelopes[_id] */\n      dup2\n      mstore\n      0x20\n      add\n      swap1\n      dup2\n      mstore\n      0x20\n      add\n      0x00\n      keccak256\n        /* \"contracts/LuckyRedEnvelopeV2.sol\":9605:9633  _redEnvelopes[_id].userTxNum */\n      0x09\n      add\n      sload\n        /* \"contracts/LuckyRedEnvelopeV2.sol\":9605:9637  _redEnvelopes[_id].userTxNum - 1 */\n      tag_321\n      swap2\n      swap1\n      tag_322\n      jump\t// in\n    tag_321:\n        /* \"contracts/LuckyRedEnvelopeV2.sol\":9591:9638  _tickets[_id][_redEnvelopes[_id].userTxNum - 1] */\n      dup2\n      mstore\n      0x20\n      add\n      swap1\n      dup2\n      mstore\n      0x20\n      add\n      0x00\n      keccak256\n        /* \"contracts/LuckyRedEnvelopeV2.sol\":9591:9651  _tickets[_id][_redEnvelopes[_id].userTxNum - 1].totalNumbers */\n      0x00\n      add\n      sload\n        /* \"contracts/LuckyRedEnvelopeV2.sol\":9576:9651  totalNumbers = _tickets[_id][_redEnvelopes[_id].userTxNum - 1].totalNumbers */\n      swap1\n      pop\n        /* \"contracts/LuckyRedEnvelopeV2.sol\":9519:9667  if (_redEnvelopes[_id].userTxNum != 0){... */\n    tag_320:\n        /* \"contracts/LuckyRedEnvelopeV2.sol\":9727:9959  Ticket({... */\n      mload(0x40)\n      dup1\n      0x60\n      add\n      0x40\n      mstore\n      dup1\n        /* \"contracts/LuckyRedEnvelopeV2.sol\":9894:9908  _ticketNumbers */\n      dup5\n        /* \"contracts/LuckyRedEnvelopeV2.sol\":9879:9891  totalNumbers */\n      dup4\n        /* \"contracts/LuckyRedEnvelopeV2.sol\":9879:9908  totalNumbers + _ticketNumbers */\n      tag_323\n      swap2\n      swap1\n      tag_158\n      jump\t// in\n    tag_323:\n        /* \"contracts/LuckyRedEnvelopeV2.sol\":9727:9959  Ticket({... */\n      dup2\n      mstore\n      0x20\n      add\n        /* \"contracts/LuckyRedEnvelopeV2.sol\":9827:9842  _receiveAddress */\n      dup6\n        /* \"contracts/LuckyRedEnvelopeV2.sol\":9727:9959  Ticket({... */\n      0xffffffffffffffffffffffffffffffffffffffff\n      and\n      dup2\n      mstore\n      0x20\n      add\n        /* \"contracts/LuckyRedEnvelopeV2.sol\":9935:9939  _buy */\n      dup4\n        /* \"contracts/LuckyRedEnvelopeV2.sol\":9727:9959  Ticket({... */\n      iszero\n      iszero\n      dup2\n      mstore\n      pop\n        /* \"contracts/LuckyRedEnvelopeV2.sol\":9681:9689  _tickets */\n      0x08\n        /* \"contracts/LuckyRedEnvelopeV2.sol\":9681:9694  _tickets[_id] */\n      0x00\n        /* \"contracts/LuckyRedEnvelopeV2.sol\":9690:9693  _id */\n      dup8\n        /* \"contracts/LuckyRedEnvelopeV2.sol\":9681:9694  _tickets[_id] */\n      dup2\n      mstore\n      0x20\n      add\n      swap1\n      dup2\n      mstore\n      0x20\n      add\n      0x00\n      keccak256\n        /* \"contracts/LuckyRedEnvelopeV2.sol\":9681:9724  _tickets[_id][_redEnvelopes[_id].userTxNum] */\n      0x00\n        /* \"contracts/LuckyRedEnvelopeV2.sol\":9695:9708  _redEnvelopes */\n      0x07\n        /* \"contracts/LuckyRedEnvelopeV2.sol\":9695:9713  _redEnvelopes[_id] */\n      0x00\n        /* \"contracts/LuckyRedEnvelopeV2.sol\":9709:9712  _id */\n      dup10\n        /* \"contracts/LuckyRedEnvelopeV2.sol\":9695:9713  _redEnvelopes[_id] */\n      dup2\n      mstore\n      0x20\n      add\n      swap1\n      dup2\n      mstore\n      0x20\n      add\n      0x00\n      keccak256\n        /* \"contracts/LuckyRedEnvelopeV2.sol\":9695:9723  _redEnvelopes[_id].userTxNum */\n      0x09\n      add\n      sload\n        /* \"contracts/LuckyRedEnvelopeV2.sol\":9681:9724  _tickets[_id][_redEnvelopes[_id].userTxNum] */\n      dup2\n      mstore\n      0x20\n      add\n      swap1\n      dup2\n      mstore\n      0x20\n      add\n      0x00\n      keccak256\n        /* \"contracts/LuckyRedEnvelopeV2.sol\":9681:9959  _tickets[_id][_redEnvelopes[_id].userTxNum] = Ticket({... */\n      0x00\n      dup3\n      add\n      mload\n      dup2\n      0x00\n      add\n      sstore\n      0x20\n      dup3\n      add\n      mload\n      dup2\n      0x01\n      add\n      exp(0x0100, 0x00)\n      dup2\n      sload\n      dup2\n      0xffffffffffffffffffffffffffffffffffffffff\n      mul\n      not\n      and\n      swap1\n      dup4\n      0xffffffffffffffffffffffffffffffffffffffff\n      and\n      mul\n      or\n      swap1\n      sstore\n      pop\n      0x40\n      dup3\n      add\n      mload\n      dup2\n      0x01\n      add\n      exp(0x0100, 0x14)\n      dup2\n      sload\n      dup2\n      0xff\n      mul\n      not\n      and\n      swap1\n      dup4\n      iszero\n      iszero\n      mul\n      or\n      swap1\n      sstore\n      pop\n      swap1\n      pop\n      pop\n        /* \"contracts/LuckyRedEnvelopeV2.sol\":9980:9984  _buy */\n      dup2\n        /* \"contracts/LuckyRedEnvelopeV2.sol\":9976:10215  if (_buy){... */\n      iszero\n      tag_324\n      jumpi\n        /* \"contracts/LuckyRedEnvelopeV2.sol\":10068:10082  _ticketNumbers */\n      dup3\n        /* \"contracts/LuckyRedEnvelopeV2.sol\":10036:10049  _redEnvelopes */\n      0x07\n        /* \"contracts/LuckyRedEnvelopeV2.sol\":10036:10054  _redEnvelopes[_id] */\n      0x00\n        /* \"contracts/LuckyRedEnvelopeV2.sol\":10050:10053  _id */\n      dup8\n        /* \"contracts/LuckyRedEnvelopeV2.sol\":10036:10054  _redEnvelopes[_id] */\n      dup2\n      mstore\n      0x20\n      add\n      swap1\n      dup2\n      mstore\n      0x20\n      add\n      0x00\n      keccak256\n        /* \"contracts/LuckyRedEnvelopeV2.sol\":10036:10065  _redEnvelopes[_id].buyTickets */\n      0x05\n      add\n      sload\n        /* \"contracts/LuckyRedEnvelopeV2.sol\":10036:10082  _redEnvelopes[_id].buyTickets + _ticketNumbers */\n      tag_325\n      swap2\n      swap1\n      tag_158\n      jump\t// in\n    tag_325:\n        /* \"contracts/LuckyRedEnvelopeV2.sol\":10004:10017  _redEnvelopes */\n      0x07\n        /* \"contracts/LuckyRedEnvelopeV2.sol\":10004:10022  _redEnvelopes[_id] */\n      0x00\n        /* \"contracts/LuckyRedEnvelopeV2.sol\":10018:10021  _id */\n      dup8\n        /* \"contracts/LuckyRedEnvelopeV2.sol\":10004:10022  _redEnvelopes[_id] */\n      dup2\n      mstore\n      0x20\n      add\n      swap1\n      dup2\n      mstore\n      0x20\n      add\n      0x00\n      keccak256\n        /* \"contracts/LuckyRedEnvelopeV2.sol\":10004:10033  _redEnvelopes[_id].buyTickets */\n      0x05\n      add\n        /* \"contracts/LuckyRedEnvelopeV2.sol\":10004:10082  _redEnvelopes[_id].buyTickets = _redEnvelopes[_id].buyTickets + _ticketNumbers */\n      dup2\n      swap1\n      sstore\n      pop\n        /* \"contracts/LuckyRedEnvelopeV2.sol\":9976:10215  if (_buy){... */\n      jump(tag_326)\n    tag_324:\n        /* \"contracts/LuckyRedEnvelopeV2.sol\":10185:10199  _ticketNumbers */\n      dup3\n        /* \"contracts/LuckyRedEnvelopeV2.sol\":10153:10166  _redEnvelopes */\n      0x07\n        /* \"contracts/LuckyRedEnvelopeV2.sol\":10153:10171  _redEnvelopes[_id] */\n      0x00\n        /* \"contracts/LuckyRedEnvelopeV2.sol\":10167:10170  _id */\n      dup8\n        /* \"contracts/LuckyRedEnvelopeV2.sol\":10153:10171  _redEnvelopes[_id] */\n      dup2\n      mstore\n      0x20\n      add\n      swap1\n      dup2\n      mstore\n      0x20\n      add\n      0x00\n      keccak256\n        /* \"contracts/LuckyRedEnvelopeV2.sol\":10153:10182  _redEnvelopes[_id].getTickets */\n      0x06\n      add\n      sload\n        /* \"contracts/LuckyRedEnvelopeV2.sol\":10153:10199  _redEnvelopes[_id].getTickets + _ticketNumbers */\n      tag_327\n      swap2\n      swap1\n      tag_158\n      jump\t// in\n    tag_327:\n        /* \"contracts/LuckyRedEnvelopeV2.sol\":10121:10134  _redEnvelopes */\n      0x07\n        /* \"contracts/LuckyRedEnvelopeV2.sol\":10121:10139  _redEnvelopes[_id] */\n      0x00\n        /* \"contracts/LuckyRedEnvelopeV2.sol\":10135:10138  _id */\n      dup8\n        /* \"contracts/LuckyRedEnvelopeV2.sol\":10121:10139  _redEnvelopes[_id] */\n      dup2\n      mstore\n      0x20\n      add\n      swap1\n      dup2\n      mstore\n      0x20\n      add\n      0x00\n      keccak256\n        /* \"contracts/LuckyRedEnvelopeV2.sol\":10121:10150  _redEnvelopes[_id].getTickets */\n      0x06\n      add\n        /* \"contracts/LuckyRedEnvelopeV2.sol\":10121:10199  _redEnvelopes[_id].getTickets = _redEnvelopes[_id].getTickets + _ticketNumbers */\n      dup2\n      swap1\n      sstore\n      pop\n        /* \"contracts/LuckyRedEnvelopeV2.sol\":9976:10215  if (_buy){... */\n    tag_326:\n        /* \"contracts/LuckyRedEnvelopeV2.sol\":10291:10292  0 */\n      0x00\n        /* \"contracts/LuckyRedEnvelopeV2.sol\":10247:10265  _userAddrTicketNum */\n      0x0a\n        /* \"contracts/LuckyRedEnvelopeV2.sol\":10247:10270  _userAddrTicketNum[_id] */\n      0x00\n        /* \"contracts/LuckyRedEnvelopeV2.sol\":10266:10269  _id */\n      dup8\n        /* \"contracts/LuckyRedEnvelopeV2.sol\":10247:10270  _userAddrTicketNum[_id] */\n      dup2\n      mstore\n      0x20\n      add\n      swap1\n      dup2\n      mstore\n      0x20\n      add\n      0x00\n      keccak256\n        /* \"contracts/LuckyRedEnvelopeV2.sol\":10247:10287  _userAddrTicketNum[_id][_receiveAddress] */\n      0x00\n        /* \"contracts/LuckyRedEnvelopeV2.sol\":10271:10286  _receiveAddress */\n      dup7\n        /* \"contracts/LuckyRedEnvelopeV2.sol\":10247:10287  _userAddrTicketNum[_id][_receiveAddress] */\n      0xffffffffffffffffffffffffffffffffffffffff\n      and\n      0xffffffffffffffffffffffffffffffffffffffff\n      and\n      dup2\n      mstore\n      0x20\n      add\n      swap1\n      dup2\n      mstore\n      0x20\n      add\n      0x00\n      keccak256\n      sload\n        /* \"contracts/LuckyRedEnvelopeV2.sol\":10247:10292  _userAddrTicketNum[_id][_receiveAddress] == 0 */\n      sub\n        /* \"contracts/LuckyRedEnvelopeV2.sol\":10243:10451  if (_userAddrTicketNum[_id][_receiveAddress] == 0){... */\n      tag_328\n      jumpi\n        /* \"contracts/LuckyRedEnvelopeV2.sol\":10366:10381  _receiveAddress */\n      dup4\n        /* \"contracts/LuckyRedEnvelopeV2.sol\":10312:10326  _userAddrIndex */\n      0x0b\n        /* \"contracts/LuckyRedEnvelopeV2.sol\":10312:10331  _userAddrIndex[_id] */\n      0x00\n        /* \"contracts/LuckyRedEnvelopeV2.sol\":10327:10330  _id */\n      dup8\n        /* \"contracts/LuckyRedEnvelopeV2.sol\":10312:10331  _userAddrIndex[_id] */\n      dup2\n      mstore\n      0x20\n      add\n      swap1\n      dup2\n      mstore\n      0x20\n      add\n      0x00\n      keccak256\n        /* \"contracts/LuckyRedEnvelopeV2.sol\":10312:10363  _userAddrIndex[_id][_redEnvelopes[_id].userAddrNum] */\n      0x00\n        /* \"contracts/LuckyRedEnvelopeV2.sol\":10332:10345  _redEnvelopes */\n      0x07\n        /* \"contracts/LuckyRedEnvelopeV2.sol\":10332:10350  _redEnvelopes[_id] */\n      0x00\n        /* \"contracts/LuckyRedEnvelopeV2.sol\":10346:10349  _id */\n      dup10\n        /* \"contracts/LuckyRedEnvelopeV2.sol\":10332:10350  _redEnvelopes[_id] */\n      dup2\n      mstore\n      0x20\n      add\n      swap1\n      dup2\n      mstore\n      0x20\n      add\n      0x00\n      keccak256\n        /* \"contracts/LuckyRedEnvelopeV2.sol\":10332:10362  _redEnvelopes[_id].userAddrNum */\n      0x08\n      add\n      sload\n        /* \"contracts/LuckyRedEnvelopeV2.sol\":10312:10363  _userAddrIndex[_id][_redEnvelopes[_id].userAddrNum] */\n      dup2\n      mstore\n      0x20\n      add\n      swap1\n      dup2\n      mstore\n      0x20\n      add\n      0x00\n      keccak256\n      0x00\n        /* \"contracts/LuckyRedEnvelopeV2.sol\":10312:10381  _userAddrIndex[_id][_redEnvelopes[_id].userAddrNum] = _receiveAddress */\n      0x0100\n      exp\n      dup2\n      sload\n      dup2\n      0xffffffffffffffffffffffffffffffffffffffff\n      mul\n      not\n      and\n      swap1\n      dup4\n      0xffffffffffffffffffffffffffffffffffffffff\n      and\n      mul\n      or\n      swap1\n      sstore\n      pop\n        /* \"contracts/LuckyRedEnvelopeV2.sol\":10434:10435  1 */\n      0x01\n        /* \"contracts/LuckyRedEnvelopeV2.sol\":10400:10413  _redEnvelopes */\n      0x07\n        /* \"contracts/LuckyRedEnvelopeV2.sol\":10400:10418  _redEnvelopes[_id] */\n      0x00\n        /* \"contracts/LuckyRedEnvelopeV2.sol\":10414:10417  _id */\n      dup8\n        /* \"contracts/LuckyRedEnvelopeV2.sol\":10400:10418  _redEnvelopes[_id] */\n      dup2\n      mstore\n      0x20\n      add\n      swap1\n      dup2\n      mstore\n      0x20\n      add\n      0x00\n      keccak256\n        /* \"contracts/LuckyRedEnvelopeV2.sol\":10400:10430  _redEnvelopes[_id].userAddrNum */\n      0x08\n      add\n      0x00\n        /* \"contracts/LuckyRedEnvelopeV2.sol\":10400:10435  _redEnvelopes[_id].userAddrNum += 1 */\n      dup3\n      dup3\n      sload\n      tag_329\n      swap2\n      swap1\n      tag_158\n      jump\t// in\n    tag_329:\n      swap3\n      pop\n      pop\n      dup2\n      swap1\n      sstore\n      pop\n        /* \"contracts/LuckyRedEnvelopeV2.sol\":10243:10451  if (_userAddrTicketNum[_id][_receiveAddress] == 0){... */\n    tag_328:\n        /* \"contracts/LuckyRedEnvelopeV2.sol\":10497:10498  1 */\n      0x01\n        /* \"contracts/LuckyRedEnvelopeV2.sol\":10465:10478  _redEnvelopes */\n      0x07\n        /* \"contracts/LuckyRedEnvelopeV2.sol\":10465:10483  _redEnvelopes[_id] */\n      0x00\n        /* \"contracts/LuckyRedEnvelopeV2.sol\":10479:10482  _id */\n      dup8\n        /* \"contracts/LuckyRedEnvelopeV2.sol\":10465:10483  _redEnvelopes[_id] */\n      dup2\n      mstore\n      0x20\n      add\n      swap1\n      dup2\n      mstore\n      0x20\n      add\n      0x00\n      keccak256\n        /* \"contracts/LuckyRedEnvelopeV2.sol\":10465:10493  _redEnvelopes[_id].userTxNum */\n      0x09\n      add\n      0x00\n        /* \"contracts/LuckyRedEnvelopeV2.sol\":10465:10498  _redEnvelopes[_id].userTxNum += 1 */\n      dup3\n      dup3\n      sload\n      tag_330\n      swap2\n      swap1\n      tag_158\n      jump\t// in\n    tag_330:\n      swap3\n      pop\n      pop\n      dup2\n      swap1\n      sstore\n      pop\n        /* \"contracts/LuckyRedEnvelopeV2.sol\":10599:10613  _ticketNumbers */\n      dup3\n        /* \"contracts/LuckyRedEnvelopeV2.sol\":10556:10574  _userAddrTicketNum */\n      0x0a\n        /* \"contracts/LuckyRedEnvelopeV2.sol\":10556:10579  _userAddrTicketNum[_id] */\n      0x00\n        /* \"contracts/LuckyRedEnvelopeV2.sol\":10575:10578  _id */\n      dup8\n        /* \"contracts/LuckyRedEnvelopeV2.sol\":10556:10579  _userAddrTicketNum[_id] */\n      dup2\n      mstore\n      0x20\n      add\n      swap1\n      dup2\n      mstore\n      0x20\n      add\n      0x00\n      keccak256\n        /* \"contracts/LuckyRedEnvelopeV2.sol\":10556:10596  _userAddrTicketNum[_id][_receiveAddress] */\n      0x00\n        /* \"contracts/LuckyRedEnvelopeV2.sol\":10580:10595  _receiveAddress */\n      dup7\n        /* \"contracts/LuckyRedEnvelopeV2.sol\":10556:10596  _userAddrTicketNum[_id][_receiveAddress] */\n      0xffffffffffffffffffffffffffffffffffffffff\n      and\n      0xffffffffffffffffffffffffffffffffffffffff\n      and\n      dup2\n      mstore\n      0x20\n      add\n      swap1\n      dup2\n      mstore\n      0x20\n      add\n      0x00\n      keccak256\n      sload\n        /* \"contracts/LuckyRedEnvelopeV2.sol\":10556:10613  _userAddrTicketNum[_id][_receiveAddress] + _ticketNumbers */\n      tag_331\n      swap2\n      swap1\n      tag_158\n      jump\t// in\n    tag_331:\n        /* \"contracts/LuckyRedEnvelopeV2.sol\":10513:10531  _userAddrTicketNum */\n      0x0a\n        /* \"contracts/LuckyRedEnvelopeV2.sol\":10513:10536  _userAddrTicketNum[_id] */\n      0x00\n        /* \"contracts/LuckyRedEnvelopeV2.sol\":10532:10535  _id */\n      dup8\n        /* \"contracts/LuckyRedEnvelopeV2.sol\":10513:10536  _userAddrTicketNum[_id] */\n      dup2\n      mstore\n      0x20\n      add\n      swap1\n      dup2\n      mstore\n      0x20\n      add\n      0x00\n      keccak256\n        /* \"contracts/LuckyRedEnvelopeV2.sol\":10513:10553  _userAddrTicketNum[_id][_receiveAddress] */\n      0x00\n        /* \"contracts/LuckyRedEnvelopeV2.sol\":10537:10552  _receiveAddress */\n      dup7\n        /* \"contracts/LuckyRedEnvelopeV2.sol\":10513:10553  _userAddrTicketNum[_id][_receiveAddress] */\n      0xffffffffffffffffffffffffffffffffffffffff\n      and\n      0xffffffffffffffffffffffffffffffffffffffff\n      and\n      dup2\n      mstore\n      0x20\n      add\n      swap1\n      dup2\n      mstore\n      0x20\n      add\n      0x00\n      keccak256\n        /* \"contracts/LuckyRedEnvelopeV2.sol\":10513:10613  _userAddrTicketNum[_id][_receiveAddress] = _userAddrTicketNum[_id][_receiveAddress] + _ticketNumbers */\n      dup2\n      swap1\n      sstore\n      pop\n        /* \"contracts/LuckyRedEnvelopeV2.sol\":9054:10621  {... */\n      pop\n        /* \"contracts/LuckyRedEnvelopeV2.sol\":8956:10621  function _fillTicket(uint256 _id,address _receiveAddress,uint256 _ticketNumbers,bool _buy)internal{... */\n      pop\n      pop\n      pop\n      pop\n      jump\t// out\n        /* \"contracts/LuckyRedEnvelopeV2.sol\":8124:8948  function _injectTickets(uint256 _id,address _injectAddress,uint256 _ticketNumbers)internal{... */\n    tag_182:\n        /* \"contracts/LuckyRedEnvelopeV2.sol\":8225:8254  uint256 amountTokenToTransfer */\n      0x00\n        /* \"contracts/LuckyRedEnvelopeV2.sol\":8290:8304  _ticketNumbers */\n      dup2\n        /* \"contracts/LuckyRedEnvelopeV2.sol\":8257:8270  _redEnvelopes */\n      0x07\n        /* \"contracts/LuckyRedEnvelopeV2.sol\":8257:8275  _redEnvelopes[_id] */\n      0x00\n        /* \"contracts/LuckyRedEnvelopeV2.sol\":8271:8274  _id */\n      dup7\n        /* \"contracts/LuckyRedEnvelopeV2.sol\":8257:8275  _redEnvelopes[_id] */\n      dup2\n      mstore\n      0x20\n      add\n      swap1\n      dup2\n      mstore\n      0x20\n      add\n      0x00\n      keccak256\n        /* \"contracts/LuckyRedEnvelopeV2.sol\":8257:8287  _redEnvelopes[_id].ticketPirce */\n      0x0b\n      add\n      sload\n        /* \"contracts/LuckyRedEnvelopeV2.sol\":8257:8304  _redEnvelopes[_id].ticketPirce * _ticketNumbers */\n      tag_333\n      swap2\n      swap1\n      tag_230\n      jump\t// in\n    tag_333:\n        /* \"contracts/LuckyRedEnvelopeV2.sol\":8225:8304  uint256 amountTokenToTransfer = _redEnvelopes[_id].ticketPirce * _ticketNumbers */\n      swap1\n      pop\n        /* \"contracts/LuckyRedEnvelopeV2.sol\":8367:8485  IERC20(_redEnvelopes[_id].ticketToken).safeTransferFrom(address(_injectAddress), address(this), amountTokenToTransfer) */\n      tag_334\n        /* \"contracts/LuckyRedEnvelopeV2.sol\":8431:8445  _injectAddress */\n      dup4\n        /* \"contracts/LuckyRedEnvelopeV2.sol\":8456:8460  this */\n      address\n        /* \"contracts/LuckyRedEnvelopeV2.sol\":8463:8484  amountTokenToTransfer */\n      dup4\n        /* \"contracts/LuckyRedEnvelopeV2.sol\":8374:8387  _redEnvelopes */\n      0x07\n        /* \"contracts/LuckyRedEnvelopeV2.sol\":8374:8392  _redEnvelopes[_id] */\n      0x00\n        /* \"contracts/LuckyRedEnvelopeV2.sol\":8388:8391  _id */\n      dup10\n        /* \"contracts/LuckyRedEnvelopeV2.sol\":8374:8392  _redEnvelopes[_id] */\n      dup2\n      mstore\n      0x20\n      add\n      swap1\n      dup2\n      mstore\n      0x20\n      add\n      0x00\n      keccak256\n        /* \"contracts/LuckyRedEnvelopeV2.sol\":8374:8404  _redEnvelopes[_id].ticketToken */\n      0x00\n      add\n      0x00\n      swap1\n      sload\n      swap1\n      0x0100\n      exp\n      swap1\n      div\n      0xffffffffffffffffffffffffffffffffffffffff\n      and\n        /* \"contracts/LuckyRedEnvelopeV2.sol\":8367:8422  IERC20(_redEnvelopes[_id].ticketToken).safeTransferFrom */\n      0xffffffffffffffffffffffffffffffffffffffff\n      and\n      tag_266\n      swap1\n        /* \"contracts/LuckyRedEnvelopeV2.sol\":8367:8485  IERC20(_redEnvelopes[_id].ticketToken).safeTransferFrom(address(_injectAddress), address(this), amountTokenToTransfer) */\n      swap4\n      swap3\n      swap2\n      swap1\n      0xffffffff\n      and\n      jump\t// in\n    tag_334:\n        /* \"contracts/LuckyRedEnvelopeV2.sol\":8538:8552  _ticketNumbers */\n      dup2\n        /* \"contracts/LuckyRedEnvelopeV2.sol\":8496:8509  _redEnvelopes */\n      0x07\n        /* \"contracts/LuckyRedEnvelopeV2.sol\":8496:8520  _redEnvelopes[currentId] */\n      0x00\n        /* \"contracts/LuckyRedEnvelopeV2.sol\":8510:8519  currentId */\n      sload(0x03)\n        /* \"contracts/LuckyRedEnvelopeV2.sol\":8496:8520  _redEnvelopes[currentId] */\n      dup2\n      mstore\n      0x20\n      add\n      swap1\n      dup2\n      mstore\n      0x20\n      add\n      0x00\n      keccak256\n        /* \"contracts/LuckyRedEnvelopeV2.sol\":8496:8534  _redEnvelopes[currentId].injectTickets */\n      0x07\n      add\n      0x00\n        /* \"contracts/LuckyRedEnvelopeV2.sol\":8496:8552  _redEnvelopes[currentId].injectTickets += _ticketNumbers */\n      dup3\n      dup3\n      sload\n      tag_335\n      swap2\n      swap1\n      tag_158\n      jump\t// in\n    tag_335:\n      swap3\n      pop\n      pop\n      dup2\n      swap1\n      sstore\n      pop\n        /* \"contracts/LuckyRedEnvelopeV2.sol\":8617:8618  0 */\n      0x00\n        /* \"contracts/LuckyRedEnvelopeV2.sol\":8570:8586  _injectTicketMap */\n      0x0e\n        /* \"contracts/LuckyRedEnvelopeV2.sol\":8570:8597  _injectTicketMap[currentId] */\n      0x00\n        /* \"contracts/LuckyRedEnvelopeV2.sol\":8587:8596  currentId */\n      sload(0x03)\n        /* \"contracts/LuckyRedEnvelopeV2.sol\":8570:8597  _injectTicketMap[currentId] */\n      dup2\n      mstore\n      0x20\n      add\n      swap1\n      dup2\n      mstore\n      0x20\n      add\n      0x00\n      keccak256\n        /* \"contracts/LuckyRedEnvelopeV2.sol\":8570:8613  _injectTicketMap[currentId][_injectAddress] */\n      0x00\n        /* \"contracts/LuckyRedEnvelopeV2.sol\":8598:8612  _injectAddress */\n      dup6\n        /* \"contracts/LuckyRedEnvelopeV2.sol\":8570:8613  _injectTicketMap[currentId][_injectAddress] */\n      0xffffffffffffffffffffffffffffffffffffffff\n      and\n      0xffffffffffffffffffffffffffffffffffffffff\n      and\n      dup2\n      mstore\n      0x20\n      add\n      swap1\n      dup2\n      mstore\n      0x20\n      add\n      0x00\n      keccak256\n      sload\n        /* \"contracts/LuckyRedEnvelopeV2.sol\":8570:8618  _injectTicketMap[currentId][_injectAddress] == 0 */\n      sub\n        /* \"contracts/LuckyRedEnvelopeV2.sol\":8565:8788  if ( _injectTicketMap[currentId][_injectAddress] == 0){... */\n      tag_336\n      jumpi\n        /* \"contracts/LuckyRedEnvelopeV2.sol\":8704:8718  _injectAddress */\n      dup3\n        /* \"contracts/LuckyRedEnvelopeV2.sol\":8634:8650  _injectAddrIndex */\n      0x0d\n        /* \"contracts/LuckyRedEnvelopeV2.sol\":8634:8661  _injectAddrIndex[currentId] */\n      0x00\n        /* \"contracts/LuckyRedEnvelopeV2.sol\":8651:8660  currentId */\n      sload(0x03)\n        /* \"contracts/LuckyRedEnvelopeV2.sol\":8634:8661  _injectAddrIndex[currentId] */\n      dup2\n      mstore\n      0x20\n      add\n      swap1\n      dup2\n      mstore\n      0x20\n      add\n      0x00\n      keccak256\n        /* \"contracts/LuckyRedEnvelopeV2.sol\":8634:8701  _injectAddrIndex[currentId][_redEnvelopes[currentId].injectAddrNum] */\n      0x00\n        /* \"contracts/LuckyRedEnvelopeV2.sol\":8662:8675  _redEnvelopes */\n      0x07\n        /* \"contracts/LuckyRedEnvelopeV2.sol\":8662:8686  _redEnvelopes[currentId] */\n      0x00\n        /* \"contracts/LuckyRedEnvelopeV2.sol\":8676:8685  currentId */\n      sload(0x03)\n        /* \"contracts/LuckyRedEnvelopeV2.sol\":8662:8686  _redEnvelopes[currentId] */\n      dup2\n      mstore\n      0x20\n      add\n      swap1\n      dup2\n      mstore\n      0x20\n      add\n      0x00\n      keccak256\n        /* \"contracts/LuckyRedEnvelopeV2.sol\":8662:8700  _redEnvelopes[currentId].injectAddrNum */\n      0x0a\n      add\n      sload\n        /* \"contracts/LuckyRedEnvelopeV2.sol\":8634:8701  _injectAddrIndex[currentId][_redEnvelopes[currentId].injectAddrNum] */\n      dup2\n      mstore\n      0x20\n      add\n      swap1\n      dup2\n      mstore\n      0x20\n      add\n      0x00\n      keccak256\n      0x00\n        /* \"contracts/LuckyRedEnvelopeV2.sol\":8634:8718  _injectAddrIndex[currentId][_redEnvelopes[currentId].injectAddrNum] = _injectAddress */\n      0x0100\n      exp\n      dup2\n      sload\n      dup2\n      0xffffffffffffffffffffffffffffffffffffffff\n      mul\n      not\n      and\n      swap1\n      dup4\n      0xffffffffffffffffffffffffffffffffffffffff\n      and\n      mul\n      or\n      swap1\n      sstore\n      pop\n        /* \"contracts/LuckyRedEnvelopeV2.sol\":8775:8776  1 */\n      0x01\n        /* \"contracts/LuckyRedEnvelopeV2.sol\":8733:8746  _redEnvelopes */\n      0x07\n        /* \"contracts/LuckyRedEnvelopeV2.sol\":8733:8757  _redEnvelopes[currentId] */\n      0x00\n        /* \"contracts/LuckyRedEnvelopeV2.sol\":8747:8756  currentId */\n      sload(0x03)\n        /* \"contracts/LuckyRedEnvelopeV2.sol\":8733:8757  _redEnvelopes[currentId] */\n      dup2\n      mstore\n      0x20\n      add\n      swap1\n      dup2\n      mstore\n      0x20\n      add\n      0x00\n      keccak256\n        /* \"contracts/LuckyRedEnvelopeV2.sol\":8733:8771  _redEnvelopes[currentId].injectAddrNum */\n      0x0a\n      add\n      0x00\n        /* \"contracts/LuckyRedEnvelopeV2.sol\":8733:8776  _redEnvelopes[currentId].injectAddrNum += 1 */\n      dup3\n      dup3\n      sload\n      tag_337\n      swap2\n      swap1\n      tag_158\n      jump\t// in\n    tag_337:\n      swap3\n      pop\n      pop\n      dup2\n      swap1\n      sstore\n      pop\n        /* \"contracts/LuckyRedEnvelopeV2.sol\":8565:8788  if ( _injectTicketMap[currentId][_injectAddress] == 0){... */\n    tag_336:\n        /* \"contracts/LuckyRedEnvelopeV2.sol\":8845:8859  _ticketNumbers */\n      dup2\n        /* \"contracts/LuckyRedEnvelopeV2.sol\":8798:8814  _injectTicketMap */\n      0x0e\n        /* \"contracts/LuckyRedEnvelopeV2.sol\":8798:8825  _injectTicketMap[currentId] */\n      0x00\n        /* \"contracts/LuckyRedEnvelopeV2.sol\":8815:8824  currentId */\n      sload(0x03)\n        /* \"contracts/LuckyRedEnvelopeV2.sol\":8798:8825  _injectTicketMap[currentId] */\n      dup2\n      mstore\n      0x20\n      add\n      swap1\n      dup2\n      mstore\n      0x20\n      add\n      0x00\n      keccak256\n        /* \"contracts/LuckyRedEnvelopeV2.sol\":8798:8841  _injectTicketMap[currentId][_injectAddress] */\n      0x00\n        /* \"contracts/LuckyRedEnvelopeV2.sol\":8826:8840  _injectAddress */\n      dup6\n        /* \"contracts/LuckyRedEnvelopeV2.sol\":8798:8841  _injectTicketMap[currentId][_injectAddress] */\n      0xffffffffffffffffffffffffffffffffffffffff\n      and\n      0xffffffffffffffffffffffffffffffffffffffff\n      and\n      dup2\n      mstore\n      0x20\n      add\n      swap1\n      dup2\n      mstore\n      0x20\n      add\n      0x00\n      keccak256\n      0x00\n        /* \"contracts/LuckyRedEnvelopeV2.sol\":8798:8859  _injectTicketMap[currentId][_injectAddress] += _ticketNumbers */\n      dup3\n      dup3\n      sload\n      tag_338\n      swap2\n      swap1\n      tag_158\n      jump\t// in\n    tag_338:\n      swap3\n      pop\n      pop\n      dup2\n      swap1\n      sstore\n      pop\n        /* \"contracts/LuckyRedEnvelopeV2.sol\":8909:8923  _injectAddress */\n      dup3\n        /* \"contracts/LuckyRedEnvelopeV2.sol\":8877:8940  TicketsInject(currentId,address(_injectAddress),_ticketNumbers) */\n      0xffffffffffffffffffffffffffffffffffffffff\n      and\n        /* \"contracts/LuckyRedEnvelopeV2.sol\":8891:8900  currentId */\n      sload(0x03)\n        /* \"contracts/LuckyRedEnvelopeV2.sol\":8877:8940  TicketsInject(currentId,address(_injectAddress),_ticketNumbers) */\n      0xa95519638524dcea0d5d0102c719d77dc3d8b1ae68d2d1e37c79be21bc7b113b\n        /* \"contracts/LuckyRedEnvelopeV2.sol\":8925:8939  _ticketNumbers */\n      dup5\n        /* \"contracts/LuckyRedEnvelopeV2.sol\":8877:8940  TicketsInject(currentId,address(_injectAddress),_ticketNumbers) */\n      mload(0x40)\n      tag_339\n      swap2\n      swap1\n      tag_42\n      jump\t// in\n    tag_339:\n      mload(0x40)\n      dup1\n      swap2\n      sub\n      swap1\n      log3\n        /* \"contracts/LuckyRedEnvelopeV2.sol\":8214:8948  {... */\n      pop\n        /* \"contracts/LuckyRedEnvelopeV2.sol\":8124:8948  function _injectTickets(uint256 _id,address _injectAddress,uint256 _ticketNumbers)internal{... */\n      pop\n      pop\n      pop\n      jump\t// out\n        /* \"@openzeppelin/contracts/access/Ownable.sol\":1796:1958  function _checkOwner() internal view virtual {... */\n    tag_186:\n        /* \"@openzeppelin/contracts/access/Ownable.sol\":1866:1878  _msgSender() */\n      tag_341\n        /* \"@openzeppelin/contracts/access/Ownable.sol\":1866:1876  _msgSender */\n      tag_342\n        /* \"@openzeppelin/contracts/access/Ownable.sol\":1866:1878  _msgSender() */\n      jump\t// in\n    tag_341:\n        /* \"@openzeppelin/contracts/access/Ownable.sol\":1855:1878  owner() != _msgSender() */\n      0xffffffffffffffffffffffffffffffffffffffff\n      and\n        /* \"@openzeppelin/contracts/access/Ownable.sol\":1855:1862  owner() */\n      tag_343\n        /* \"@openzeppelin/contracts/access/Ownable.sol\":1855:1860  owner */\n      tag_50\n        /* \"@openzeppelin/contracts/access/Ownable.sol\":1855:1862  owner() */\n      jump\t// in\n    tag_343:\n        /* \"@openzeppelin/contracts/access/Ownable.sol\":1855:1878  owner() != _msgSender() */\n      0xffffffffffffffffffffffffffffffffffffffff\n      and\n      eq\n        /* \"@openzeppelin/contracts/access/Ownable.sol\":1851:1952  if (owner() != _msgSender()) {... */\n      tag_344\n      jumpi\n        /* \"@openzeppelin/contracts/access/Ownable.sol\":1928:1940  _msgSender() */\n      tag_345\n        /* \"@openzeppelin/contracts/access/Ownable.sol\":1928:1938  _msgSender */\n      tag_342\n        /* \"@openzeppelin/contracts/access/Ownable.sol\":1928:1940  _msgSender() */\n      jump\t// in\n    tag_345:\n        /* \"@openzeppelin/contracts/access/Ownable.sol\":1901:1941  OwnableUnauthorizedAccount(_msgSender()) */\n      mload(0x40)\n      0x118cdaa700000000000000000000000000000000000000000000000000000000\n      dup2\n      mstore\n      0x04\n      add\n      tag_346\n      swap2\n      swap1\n      tag_52\n      jump\t// in\n    tag_346:\n      mload(0x40)\n      dup1\n      swap2\n      sub\n      swap1\n      revert\n        /* \"@openzeppelin/contracts/access/Ownable.sol\":1851:1952  if (owner() != _msgSender()) {... */\n    tag_344:\n        /* \"@openzeppelin/contracts/access/Ownable.sol\":1796:1958  function _checkOwner() internal view virtual {... */\n      jump\t// out\n        /* \"@openzeppelin/contracts/access/Ownable.sol\":2912:3099  function _transferOwnership(address newOwner) internal virtual {... */\n    tag_189:\n        /* \"@openzeppelin/contracts/access/Ownable.sol\":2985:3001  address oldOwner */\n      0x00\n        /* \"@openzeppelin/contracts/access/Ownable.sol\":3004:3010  _owner */\n      0x01\n      0x00\n      swap1\n      sload\n      swap1\n      0x0100\n      exp\n      swap1\n      div\n      0xffffffffffffffffffffffffffffffffffffffff\n      and\n        /* \"@openzeppelin/contracts/access/Ownable.sol\":2985:3010  address oldOwner = _owner */\n      swap1\n      pop\n        /* \"@openzeppelin/contracts/access/Ownable.sol\":3029:3037  newOwner */\n      dup2\n        /* \"@openzeppelin/contracts/access/Ownable.sol\":3020:3026  _owner */\n      0x01\n      0x00\n        /* \"@openzeppelin/contracts/access/Ownable.sol\":3020:3037  _owner = newOwner */\n      0x0100\n      exp\n      dup2\n      sload\n      dup2\n      0xffffffffffffffffffffffffffffffffffffffff\n      mul\n      not\n      and\n      swap1\n      dup4\n      0xffffffffffffffffffffffffffffffffffffffff\n      and\n      mul\n      or\n      swap1\n      sstore\n      pop\n        /* \"@openzeppelin/contracts/access/Ownable.sol\":3083:3091  newOwner */\n      dup2\n        /* \"@openzeppelin/contracts/access/Ownable.sol\":3052:3092  OwnershipTransferred(oldOwner, newOwner) */\n      0xffffffffffffffffffffffffffffffffffffffff\n      and\n        /* \"@openzeppelin/contracts/access/Ownable.sol\":3073:3081  oldOwner */\n      dup2\n        /* \"@openzeppelin/contracts/access/Ownable.sol\":3052:3092  OwnershipTransferred(oldOwner, newOwner) */\n      0xffffffffffffffffffffffffffffffffffffffff\n      and\n      0x8be0079c531659141344cd1fd0a4f28419497f9722a3daafe3b4186f6b6457e0\n      mload(0x40)\n      mload(0x40)\n      dup1\n      swap2\n      sub\n      swap1\n      log3\n        /* \"@openzeppelin/contracts/access/Ownable.sol\":2975:3099  {... */\n      pop\n        /* \"@openzeppelin/contracts/access/Ownable.sol\":2912:3099  function _transferOwnership(address newOwner) internal virtual {... */\n      pop\n      jump\t// out\n        /* \"contracts/LuckyRedEnvelopeV2.sol\":13358:13735  function _returnInject(uint256 _id)internal{... */\n    tag_225:\n        /* \"contracts/LuckyRedEnvelopeV2.sol\":13417:13426  uint256 i */\n      0x00\n        /* \"contracts/LuckyRedEnvelopeV2.sol\":13412:13728  for (uint256 i = 0;i <  _redEnvelopes[_id].injectAddrNum;i ++){... */\n    tag_349:\n        /* \"contracts/LuckyRedEnvelopeV2.sol\":13436:13449  _redEnvelopes */\n      0x07\n        /* \"contracts/LuckyRedEnvelopeV2.sol\":13436:13454  _redEnvelopes[_id] */\n      0x00\n        /* \"contracts/LuckyRedEnvelopeV2.sol\":13450:13453  _id */\n      dup4\n        /* \"contracts/LuckyRedEnvelopeV2.sol\":13436:13454  _redEnvelopes[_id] */\n      dup2\n      mstore\n      0x20\n      add\n      swap1\n      dup2\n      mstore\n      0x20\n      add\n      0x00\n      keccak256\n        /* \"contracts/LuckyRedEnvelopeV2.sol\":13436:13468  _redEnvelopes[_id].injectAddrNum */\n      0x0a\n      add\n      sload\n        /* \"contracts/LuckyRedEnvelopeV2.sol\":13431:13432  i */\n      dup2\n        /* \"contracts/LuckyRedEnvelopeV2.sol\":13431:13468  i <  _redEnvelopes[_id].injectAddrNum */\n      lt\n        /* \"contracts/LuckyRedEnvelopeV2.sol\":13412:13728  for (uint256 i = 0;i <  _redEnvelopes[_id].injectAddrNum;i ++){... */\n      iszero\n      tag_350\n      jumpi\n        /* \"contracts/LuckyRedEnvelopeV2.sol\":13489:13518  uint256 amountTokenToTransfer */\n      0x00\n        /* \"contracts/LuckyRedEnvelopeV2.sol\":13554:13570  _injectTicketMap */\n      0x0e\n        /* \"contracts/LuckyRedEnvelopeV2.sol\":13554:13575  _injectTicketMap[_id] */\n      0x00\n        /* \"contracts/LuckyRedEnvelopeV2.sol\":13571:13574  _id */\n      dup5\n        /* \"contracts/LuckyRedEnvelopeV2.sol\":13554:13575  _injectTicketMap[_id] */\n      dup2\n      mstore\n      0x20\n      add\n      swap1\n      dup2\n      mstore\n      0x20\n      add\n      0x00\n      keccak256\n        /* \"contracts/LuckyRedEnvelopeV2.sol\":13554:13601  _injectTicketMap[_id][_injectAddrIndex[_id][i]] */\n      0x00\n        /* \"contracts/LuckyRedEnvelopeV2.sol\":13576:13592  _injectAddrIndex */\n      0x0d\n        /* \"contracts/LuckyRedEnvelopeV2.sol\":13576:13597  _injectAddrIndex[_id] */\n      0x00\n        /* \"contracts/LuckyRedEnvelopeV2.sol\":13593:13596  _id */\n      dup7\n        /* \"contracts/LuckyRedEnvelopeV2.sol\":13576:13597  _injectAddrIndex[_id] */\n      dup2\n      mstore\n      0x20\n      add\n      swap1\n      dup2\n      mstore\n      0x20\n      add\n      0x00\n      keccak256\n        /* \"contracts/LuckyRedEnvelopeV2.sol\":13576:13600  _injectAddrIndex[_id][i] */\n      0x00\n        /* \"contracts/LuckyRedEnvelopeV2.sol\":13598:13599  i */\n      dup6\n        /* \"contracts/LuckyRedEnvelopeV2.sol\":13576:13600  _injectAddrIndex[_id][i] */\n      dup2\n      mstore\n      0x20\n      add\n      swap1\n      dup2\n      mstore\n      0x20\n      add\n      0x00\n      keccak256\n      0x00\n      swap1\n      sload\n      swap1\n      0x0100\n      exp\n      swap1\n      div\n      0xffffffffffffffffffffffffffffffffffffffff\n      and\n        /* \"contracts/LuckyRedEnvelopeV2.sol\":13554:13601  _injectTicketMap[_id][_injectAddrIndex[_id][i]] */\n      0xffffffffffffffffffffffffffffffffffffffff\n      and\n      0xffffffffffffffffffffffffffffffffffffffff\n      and\n      dup2\n      mstore\n      0x20\n      add\n      swap1\n      dup2\n      mstore\n      0x20\n      add\n      0x00\n      keccak256\n      sload\n        /* \"contracts/LuckyRedEnvelopeV2.sol\":13521:13534  _redEnvelopes */\n      0x07\n        /* \"contracts/LuckyRedEnvelopeV2.sol\":13521:13539  _redEnvelopes[_id] */\n      0x00\n        /* \"contracts/LuckyRedEnvelopeV2.sol\":13535:13538  _id */\n      dup6\n        /* \"contracts/LuckyRedEnvelopeV2.sol\":13521:13539  _redEnvelopes[_id] */\n      dup2\n      mstore\n      0x20\n      add\n      swap1\n      dup2\n      mstore\n      0x20\n      add\n      0x00\n      keccak256\n        /* \"contracts/LuckyRedEnvelopeV2.sol\":13521:13551  _redEnvelopes[_id].ticketPirce */\n      0x0b\n      add\n      sload\n        /* \"contracts/LuckyRedEnvelopeV2.sol\":13521:13601  _redEnvelopes[_id].ticketPirce * _injectTicketMap[_id][_injectAddrIndex[_id][i]] */\n      tag_352\n      swap2\n      swap1\n      tag_230\n      jump\t// in\n    tag_352:\n        /* \"contracts/LuckyRedEnvelopeV2.sol\":13489:13601  uint256 amountTokenToTransfer = _redEnvelopes[_id].ticketPirce * _injectTicketMap[_id][_injectAddrIndex[_id][i]] */\n      swap1\n      pop\n        /* \"contracts/LuckyRedEnvelopeV2.sol\":13616:13716  IERC20(_redEnvelopes[_id].ticketToken).safeTransfer(_injectAddrIndex[_id][i], amountTokenToTransfer) */\n      tag_353\n        /* \"contracts/LuckyRedEnvelopeV2.sol\":13668:13684  _injectAddrIndex */\n      0x0d\n        /* \"contracts/LuckyRedEnvelopeV2.sol\":13668:13689  _injectAddrIndex[_id] */\n      0x00\n        /* \"contracts/LuckyRedEnvelopeV2.sol\":13685:13688  _id */\n      dup6\n        /* \"contracts/LuckyRedEnvelopeV2.sol\":13668:13689  _injectAddrIndex[_id] */\n      dup2\n      mstore\n      0x20\n      add\n      swap1\n      dup2\n      mstore\n      0x20\n      add\n      0x00\n      keccak256\n        /* \"contracts/LuckyRedEnvelopeV2.sol\":13668:13692  _injectAddrIndex[_id][i] */\n      0x00\n        /* \"contracts/LuckyRedEnvelopeV2.sol\":13690:13691  i */\n      dup5\n        /* \"contracts/LuckyRedEnvelopeV2.sol\":13668:13692  _injectAddrIndex[_id][i] */\n      dup2\n      mstore\n      0x20\n      add\n      swap1\n      dup2\n      mstore\n      0x20\n      add\n      0x00\n      keccak256\n      0x00\n      swap1\n      sload\n      swap1\n      0x0100\n      exp\n      swap1\n      div\n      0xffffffffffffffffffffffffffffffffffffffff\n      and\n        /* \"contracts/LuckyRedEnvelopeV2.sol\":13694:13715  amountTokenToTransfer */\n      dup3\n        /* \"contracts/LuckyRedEnvelopeV2.sol\":13623:13636  _redEnvelopes */\n      0x07\n        /* \"contracts/LuckyRedEnvelopeV2.sol\":13623:13641  _redEnvelopes[_id] */\n      0x00\n        /* \"contracts/LuckyRedEnvelopeV2.sol\":13637:13640  _id */\n      dup8\n        /* \"contracts/LuckyRedEnvelopeV2.sol\":13623:13641  _redEnvelopes[_id] */\n      dup2\n      mstore\n      0x20\n      add\n      swap1\n      dup2\n      mstore\n      0x20\n      add\n      0x00\n      keccak256\n        /* \"contracts/LuckyRedEnvelopeV2.sol\":13623:13653  _redEnvelopes[_id].ticketToken */\n      0x00\n      add\n      0x00\n      swap1\n      sload\n      swap1\n      0x0100\n      exp\n      swap1\n      div\n      0xffffffffffffffffffffffffffffffffffffffff\n      and\n        /* \"contracts/LuckyRedEnvelopeV2.sol\":13616:13667  IERC20(_redEnvelopes[_id].ticketToken).safeTransfer */\n      0xffffffffffffffffffffffffffffffffffffffff\n      and\n      tag_354\n      swap1\n        /* \"contracts/LuckyRedEnvelopeV2.sol\":13616:13716  IERC20(_redEnvelopes[_id].ticketToken).safeTransfer(_injectAddrIndex[_id][i], amountTokenToTransfer) */\n      swap3\n      swap2\n      swap1\n      0xffffffff\n      and\n      jump\t// in\n    tag_353:\n        /* \"contracts/LuckyRedEnvelopeV2.sol\":13474:13728  {... */\n      pop\n        /* \"contracts/LuckyRedEnvelopeV2.sol\":13469:13473  i ++ */\n      dup1\n      dup1\n      0x01\n      add\n      swap2\n      pop\n      pop\n        /* \"contracts/LuckyRedEnvelopeV2.sol\":13412:13728  for (uint256 i = 0;i <  _redEnvelopes[_id].injectAddrNum;i ++){... */\n      jump(tag_349)\n    tag_350:\n      pop\n        /* \"contracts/LuckyRedEnvelopeV2.sol\":13358:13735  function _returnInject(uint256 _id)internal{... */\n      pop\n      jump\t// out\n        /* \"contracts/LuckyRedEnvelopeV2.sol\":18586:19194  function _getSortRandoms(uint256 _seed,uint256 _num,uint256 _range) internal pure returns(uint256[] memory){... */\n    tag_232:\n        /* \"contracts/LuckyRedEnvelopeV2.sol\":18676:18692  uint256[] memory */\n      0x60\n        /* \"contracts/LuckyRedEnvelopeV2.sol\":18704:18728  uint256[] memory randons */\n      0x00\n        /* \"contracts/LuckyRedEnvelopeV2.sol\":18745:18749  _num */\n      dup4\n        /* \"contracts/LuckyRedEnvelopeV2.sol\":18731:18750  new uint256[](_num) */\n      0xffffffffffffffff\n      dup2\n      gt\n      iszero\n      tag_356\n      jumpi\n      tag_357\n      tag_358\n      jump\t// in\n    tag_357:\n    tag_356:\n      mload(0x40)\n      swap1\n      dup1\n      dup3\n      mstore\n      dup1\n      0x20\n      mul\n      0x20\n      add\n      dup3\n      add\n      0x40\n      mstore\n      dup1\n      iszero\n      tag_359\n      jumpi\n      dup2\n      0x20\n      add\n      0x20\n      dup3\n      mul\n      dup1\n      calldatasize\n      dup4\n      calldatacopy\n      dup1\n      dup3\n      add\n      swap2\n      pop\n      pop\n      swap1\n      pop\n    tag_359:\n      pop\n        /* \"contracts/LuckyRedEnvelopeV2.sol\":18704:18750  uint256[] memory randons = new uint256[](_num) */\n      swap1\n      pop\n        /* \"contracts/LuckyRedEnvelopeV2.sol\":18761:18773  uint256 seed */\n      0x00\n        /* \"contracts/LuckyRedEnvelopeV2.sol\":18776:18781  _seed */\n      dup6\n        /* \"contracts/LuckyRedEnvelopeV2.sol\":18761:18781  uint256 seed = _seed */\n      swap1\n      pop\n        /* \"contracts/LuckyRedEnvelopeV2.sol\":18797:18806  uint256 i */\n      0x00\n        /* \"contracts/LuckyRedEnvelopeV2.sol\":18792:19127  for (uint256 i = 0; i < _num - 1; i++){... */\n    tag_360:\n        /* \"contracts/LuckyRedEnvelopeV2.sol\":18823:18824  1 */\n      0x01\n        /* \"contracts/LuckyRedEnvelopeV2.sol\":18816:18820  _num */\n      dup7\n        /* \"contracts/LuckyRedEnvelopeV2.sol\":18816:18824  _num - 1 */\n      tag_363\n      swap2\n      swap1\n      tag_322\n      jump\t// in\n    tag_363:\n        /* \"contracts/LuckyRedEnvelopeV2.sol\":18812:18813  i */\n      dup2\n        /* \"contracts/LuckyRedEnvelopeV2.sol\":18812:18824  i < _num - 1 */\n      lt\n        /* \"contracts/LuckyRedEnvelopeV2.sol\":18792:19127  for (uint256 i = 0; i < _num - 1; i++){... */\n      iszero\n      tag_361\n      jumpi\n        /* \"contracts/LuckyRedEnvelopeV2.sol\":18852:18873  _deriveRandom(seed,i) */\n      tag_364\n        /* \"contracts/LuckyRedEnvelopeV2.sol\":18866:18870  seed */\n      dup3\n        /* \"contracts/LuckyRedEnvelopeV2.sol\":18871:18872  i */\n      dup3\n        /* \"contracts/LuckyRedEnvelopeV2.sol\":18852:18865  _deriveRandom */\n      tag_365\n        /* \"contracts/LuckyRedEnvelopeV2.sol\":18852:18873  _deriveRandom(seed,i) */\n      jump\t// in\n    tag_364:\n        /* \"contracts/LuckyRedEnvelopeV2.sol\":18845:18873  seed = _deriveRandom(seed,i) */\n      swap2\n      pop\n        /* \"contracts/LuckyRedEnvelopeV2.sol\":18888:18901  uint256 value */\n      0x00\n        /* \"contracts/LuckyRedEnvelopeV2.sol\":18911:18917  _range */\n      dup6\n        /* \"contracts/LuckyRedEnvelopeV2.sol\":18904:18908  seed */\n      dup4\n        /* \"contracts/LuckyRedEnvelopeV2.sol\":18904:18917  seed % _range */\n      tag_366\n      swap2\n      swap1\n      tag_367\n      jump\t// in\n    tag_366:\n        /* \"contracts/LuckyRedEnvelopeV2.sol\":18888:18917  uint256 value = seed % _range */\n      swap1\n      pop\n        /* \"contracts/LuckyRedEnvelopeV2.sol\":18932:18941  uint256 j */\n      0x00\n        /* \"contracts/LuckyRedEnvelopeV2.sol\":18944:18945  i */\n      dup3\n        /* \"contracts/LuckyRedEnvelopeV2.sol\":18932:18945  uint256 j = i */\n      swap1\n      pop\n        /* \"contracts/LuckyRedEnvelopeV2.sol\":18960:19083  while((j >= 1) && value < randons[j - 1]){... */\n    tag_368:\n        /* \"contracts/LuckyRedEnvelopeV2.sol\":18972:18973  1 */\n      0x01\n        /* \"contracts/LuckyRedEnvelopeV2.sol\":18967:18968  j */\n      dup2\n        /* \"contracts/LuckyRedEnvelopeV2.sol\":18967:18973  j >= 1 */\n      lt\n      iszero\n        /* \"contracts/LuckyRedEnvelopeV2.sol\":18966:19000  (j >= 1) && value < randons[j - 1] */\n      dup1\n      iszero\n      tag_370\n      jumpi\n      pop\n        /* \"contracts/LuckyRedEnvelopeV2.sol\":18986:18993  randons */\n      dup5\n        /* \"contracts/LuckyRedEnvelopeV2.sol\":18998:18999  1 */\n      0x01\n        /* \"contracts/LuckyRedEnvelopeV2.sol\":18994:18995  j */\n      dup3\n        /* \"contracts/LuckyRedEnvelopeV2.sol\":18994:18999  j - 1 */\n      tag_371\n      swap2\n      swap1\n      tag_322\n      jump\t// in\n    tag_371:\n        /* \"contracts/LuckyRedEnvelopeV2.sol\":18986:19000  randons[j - 1] */\n      dup2\n      mload\n      dup2\n      lt\n      tag_372\n      jumpi\n      tag_373\n      tag_374\n      jump\t// in\n    tag_373:\n    tag_372:\n      0x20\n      mul\n      0x20\n      add\n      add\n      mload\n        /* \"contracts/LuckyRedEnvelopeV2.sol\":18978:18983  value */\n      dup3\n        /* \"contracts/LuckyRedEnvelopeV2.sol\":18978:19000  value < randons[j - 1] */\n      lt\n        /* \"contracts/LuckyRedEnvelopeV2.sol\":18966:19000  (j >= 1) && value < randons[j - 1] */\n    tag_370:\n        /* \"contracts/LuckyRedEnvelopeV2.sol\":18960:19083  while((j >= 1) && value < randons[j - 1]){... */\n      iszero\n      tag_369\n      jumpi\n        /* \"contracts/LuckyRedEnvelopeV2.sol\":19033:19040  randons */\n      dup5\n        /* \"contracts/LuckyRedEnvelopeV2.sol\":19043:19044  1 */\n      0x01\n        /* \"contracts/LuckyRedEnvelopeV2.sol\":19041:19042  j */\n      dup3\n        /* \"contracts/LuckyRedEnvelopeV2.sol\":19041:19044  j-1 */\n      tag_375\n      swap2\n      swap1\n      tag_322\n      jump\t// in\n    tag_375:\n        /* \"contracts/LuckyRedEnvelopeV2.sol\":19033:19045  randons[j-1] */\n      dup2\n      mload\n      dup2\n      lt\n      tag_376\n      jumpi\n      tag_377\n      tag_374\n      jump\t// in\n    tag_377:\n    tag_376:\n      0x20\n      mul\n      0x20\n      add\n      add\n      mload\n        /* \"contracts/LuckyRedEnvelopeV2.sol\":19020:19027  randons */\n      dup6\n        /* \"contracts/LuckyRedEnvelopeV2.sol\":19028:19029  j */\n      dup3\n        /* \"contracts/LuckyRedEnvelopeV2.sol\":19020:19030  randons[j] */\n      dup2\n      mload\n      dup2\n      lt\n      tag_378\n      jumpi\n      tag_379\n      tag_374\n      jump\t// in\n    tag_379:\n    tag_378:\n      0x20\n      mul\n      0x20\n      add\n      add\n        /* \"contracts/LuckyRedEnvelopeV2.sol\":19020:19045  randons[j] = randons[j-1] */\n      dup2\n      dup2\n      mstore\n      pop\n      pop\n        /* \"contracts/LuckyRedEnvelopeV2.sol\":19064:19067  j-- */\n      dup1\n      dup1\n      tag_380\n      swap1\n      tag_381\n      jump\t// in\n    tag_380:\n      swap2\n      pop\n      pop\n        /* \"contracts/LuckyRedEnvelopeV2.sol\":18960:19083  while((j >= 1) && value < randons[j - 1]){... */\n      jump(tag_368)\n    tag_369:\n        /* \"contracts/LuckyRedEnvelopeV2.sol\":19110:19115  value */\n      dup2\n        /* \"contracts/LuckyRedEnvelopeV2.sol\":19097:19104  randons */\n      dup6\n        /* \"contracts/LuckyRedEnvelopeV2.sol\":19105:19106  j */\n      dup3\n        /* \"contracts/LuckyRedEnvelopeV2.sol\":19097:19107  randons[j] */\n      dup2\n      mload\n      dup2\n      lt\n      tag_382\n      jumpi\n      tag_383\n      tag_374\n      jump\t// in\n    tag_383:\n    tag_382:\n      0x20\n      mul\n      0x20\n      add\n      add\n        /* \"contracts/LuckyRedEnvelopeV2.sol\":19097:19115  randons[j] = value */\n      dup2\n      dup2\n      mstore\n      pop\n      pop\n        /* \"contracts/LuckyRedEnvelopeV2.sol\":18830:19127  {... */\n      pop\n      pop\n        /* \"contracts/LuckyRedEnvelopeV2.sol\":18826:18829  i++ */\n      dup1\n      dup1\n      0x01\n      add\n      swap2\n      pop\n      pop\n        /* \"contracts/LuckyRedEnvelopeV2.sol\":18792:19127  for (uint256 i = 0; i < _num - 1; i++){... */\n      jump(tag_360)\n    tag_361:\n      pop\n        /* \"contracts/LuckyRedEnvelopeV2.sol\":19155:19161  _range */\n      dup4\n        /* \"contracts/LuckyRedEnvelopeV2.sol\":19137:19144  randons */\n      dup3\n        /* \"contracts/LuckyRedEnvelopeV2.sol\":19150:19151  1 */\n      0x01\n        /* \"contracts/LuckyRedEnvelopeV2.sol\":19145:19149  _num */\n      dup8\n        /* \"contracts/LuckyRedEnvelopeV2.sol\":19145:19151  _num-1 */\n      tag_384\n      swap2\n      swap1\n      tag_322\n      jump\t// in\n    tag_384:\n        /* \"contracts/LuckyRedEnvelopeV2.sol\":19137:19152  randons[_num-1] */\n      dup2\n      mload\n      dup2\n      lt\n      tag_385\n      jumpi\n      tag_386\n      tag_374\n      jump\t// in\n    tag_386:\n    tag_385:\n      0x20\n      mul\n      0x20\n      add\n      add\n        /* \"contracts/LuckyRedEnvelopeV2.sol\":19137:19161  randons[_num-1] = _range */\n      dup2\n      dup2\n      mstore\n      pop\n      pop\n        /* \"contracts/LuckyRedEnvelopeV2.sol\":19179:19186  randons */\n      dup2\n        /* \"contracts/LuckyRedEnvelopeV2.sol\":19172:19186  return randons */\n      swap3\n      pop\n      pop\n      pop\n        /* \"contracts/LuckyRedEnvelopeV2.sol\":18586:19194  function _getSortRandoms(uint256 _seed,uint256 _num,uint256 _range) internal pure returns(uint256[] memory){... */\n      swap4\n      swap3\n      pop\n      pop\n      pop\n      jump\t// out\n        /* \"contracts/LuckyRedEnvelopeV2.sol\":16742:17952  function _calculatePrize(uint256 _id,uint256 _drawNum,uint256[] memory _randomsAmount)internal{... */\n    tag_234:\n        /* \"contracts/LuckyRedEnvelopeV2.sol\":16847:16870  uint256 totalSendAmount */\n      0x00\n        /* \"contracts/LuckyRedEnvelopeV2.sol\":16885:16904  uint256 userTickets */\n      dup1\n        /* \"contracts/LuckyRedEnvelopeV2.sol\":16939:16952  _redEnvelopes */\n      0x07\n        /* \"contracts/LuckyRedEnvelopeV2.sol\":16939:16957  _redEnvelopes[_id] */\n      0x00\n        /* \"contracts/LuckyRedEnvelopeV2.sol\":16953:16956  _id */\n      dup7\n        /* \"contracts/LuckyRedEnvelopeV2.sol\":16939:16957  _redEnvelopes[_id] */\n      dup2\n      mstore\n      0x20\n      add\n      swap1\n      dup2\n      mstore\n      0x20\n      add\n      0x00\n      keccak256\n        /* \"contracts/LuckyRedEnvelopeV2.sol\":16939:16968  _redEnvelopes[_id].getTickets */\n      0x06\n      add\n      sload\n        /* \"contracts/LuckyRedEnvelopeV2.sol\":16907:16920  _redEnvelopes */\n      0x07\n        /* \"contracts/LuckyRedEnvelopeV2.sol\":16907:16925  _redEnvelopes[_id] */\n      0x00\n        /* \"contracts/LuckyRedEnvelopeV2.sol\":16921:16924  _id */\n      dup8\n        /* \"contracts/LuckyRedEnvelopeV2.sol\":16907:16925  _redEnvelopes[_id] */\n      dup2\n      mstore\n      0x20\n      add\n      swap1\n      dup2\n      mstore\n      0x20\n      add\n      0x00\n      keccak256\n        /* \"contracts/LuckyRedEnvelopeV2.sol\":16907:16936  _redEnvelopes[_id].buyTickets */\n      0x05\n      add\n      sload\n        /* \"contracts/LuckyRedEnvelopeV2.sol\":16907:16968  _redEnvelopes[_id].buyTickets + _redEnvelopes[_id].getTickets */\n      tag_388\n      swap2\n      swap1\n      tag_158\n      jump\t// in\n    tag_388:\n        /* \"contracts/LuckyRedEnvelopeV2.sol\":16885:16968  uint256 userTickets = _redEnvelopes[_id].buyTickets + _redEnvelopes[_id].getTickets */\n      swap1\n      pop\n        /* \"contracts/LuckyRedEnvelopeV2.sol\":17050:17059  uint256 i */\n      0x00\n        /* \"contracts/LuckyRedEnvelopeV2.sol\":17045:17937  for (uint256 i = 0; i < _drawNum; i++){... */\n    tag_389:\n        /* \"contracts/LuckyRedEnvelopeV2.sol\":17069:17077  _drawNum */\n      dup5\n        /* \"contracts/LuckyRedEnvelopeV2.sol\":17065:17066  i */\n      dup2\n        /* \"contracts/LuckyRedEnvelopeV2.sol\":17065:17077  i < _drawNum */\n      lt\n        /* \"contracts/LuckyRedEnvelopeV2.sol\":17045:17937  for (uint256 i = 0; i < _drawNum; i++){... */\n      iszero\n      tag_390\n      jumpi\n        /* \"contracts/LuckyRedEnvelopeV2.sol\":17098:17115  uint256 sendValue */\n      0x00\n        /* \"contracts/LuckyRedEnvelopeV2.sol\":17138:17153  totalSendAmount */\n      dup4\n        /* \"contracts/LuckyRedEnvelopeV2.sol\":17118:17132  _randomsAmount */\n      dup6\n        /* \"contracts/LuckyRedEnvelopeV2.sol\":17133:17134  i */\n      dup4\n        /* \"contracts/LuckyRedEnvelopeV2.sol\":17118:17135  _randomsAmount[i] */\n      dup2\n      mload\n      dup2\n      lt\n      tag_392\n      jumpi\n      tag_393\n      tag_374\n      jump\t// in\n    tag_393:\n    tag_392:\n      0x20\n      mul\n      0x20\n      add\n      add\n      mload\n        /* \"contracts/LuckyRedEnvelopeV2.sol\":17118:17153  _randomsAmount[i] - totalSendAmount */\n      tag_394\n      swap2\n      swap1\n      tag_322\n      jump\t// in\n    tag_394:\n        /* \"contracts/LuckyRedEnvelopeV2.sol\":17098:17153  uint256 sendValue = _randomsAmount[i] - totalSendAmount */\n      swap1\n      pop\n        /* \"contracts/LuckyRedEnvelopeV2.sol\":17168:17181  uint256 index */\n      0x00\n        /* \"contracts/LuckyRedEnvelopeV2.sol\":17184:17185  i */\n      dup3\n        /* \"contracts/LuckyRedEnvelopeV2.sol\":17168:17185  uint256 index = i */\n      swap1\n      pop\n        /* \"contracts/LuckyRedEnvelopeV2.sol\":17216:17227  userTickets */\n      dup4\n        /* \"contracts/LuckyRedEnvelopeV2.sol\":17204:17212  _drawNum */\n      dup8\n        /* \"contracts/LuckyRedEnvelopeV2.sol\":17204:17227  _drawNum != userTickets */\n      eq\n        /* \"contracts/LuckyRedEnvelopeV2.sol\":17200:17591  if (_drawNum != userTickets){... */\n      tag_395\n      jumpi\n        /* \"contracts/LuckyRedEnvelopeV2.sol\":17342:17353  userTickets */\n      dup4\n        /* \"contracts/LuckyRedEnvelopeV2.sol\":17305:17339  _deriveRandom(_randomsAmount[i],i) */\n      tag_396\n        /* \"contracts/LuckyRedEnvelopeV2.sol\":17319:17333  _randomsAmount */\n      dup8\n        /* \"contracts/LuckyRedEnvelopeV2.sol\":17334:17335  i */\n      dup6\n        /* \"contracts/LuckyRedEnvelopeV2.sol\":17319:17336  _randomsAmount[i] */\n      dup2\n      mload\n      dup2\n      lt\n      tag_397\n      jumpi\n      tag_398\n      tag_374\n      jump\t// in\n    tag_398:\n    tag_397:\n      0x20\n      mul\n      0x20\n      add\n      add\n      mload\n        /* \"contracts/LuckyRedEnvelopeV2.sol\":17337:17338  i */\n      dup6\n        /* \"contracts/LuckyRedEnvelopeV2.sol\":17305:17318  _deriveRandom */\n      tag_365\n        /* \"contracts/LuckyRedEnvelopeV2.sol\":17305:17339  _deriveRandom(_randomsAmount[i],i) */\n      jump\t// in\n    tag_396:\n        /* \"contracts/LuckyRedEnvelopeV2.sol\":17305:17353  _deriveRandom(_randomsAmount[i],i) % userTickets */\n      tag_399\n      swap2\n      swap1\n      tag_367\n      jump\t// in\n    tag_399:\n        /* \"contracts/LuckyRedEnvelopeV2.sol\":17297:17353  index = _deriveRandom(_randomsAmount[i],i) % userTickets */\n      swap1\n      pop\n        /* \"contracts/LuckyRedEnvelopeV2.sol\":17372:17576  for (;_prizedticketIndex[_id][index] != false;){... */\n    tag_400:\n        /* \"contracts/LuckyRedEnvelopeV2.sol\":17412:17417  false */\n      0x00\n        /* \"contracts/LuckyRedEnvelopeV2.sol\":17378:17417  _prizedticketIndex[_id][index] != false */\n      iszero\n      iszero\n        /* \"contracts/LuckyRedEnvelopeV2.sol\":17378:17396  _prizedticketIndex */\n      0x09\n        /* \"contracts/LuckyRedEnvelopeV2.sol\":17378:17401  _prizedticketIndex[_id] */\n      0x00\n        /* \"contracts/LuckyRedEnvelopeV2.sol\":17397:17400  _id */\n      dup11\n        /* \"contracts/LuckyRedEnvelopeV2.sol\":17378:17401  _prizedticketIndex[_id] */\n      dup2\n      mstore\n      0x20\n      add\n      swap1\n      dup2\n      mstore\n      0x20\n      add\n      0x00\n      keccak256\n        /* \"contracts/LuckyRedEnvelopeV2.sol\":17378:17408  _prizedticketIndex[_id][index] */\n      0x00\n        /* \"contracts/LuckyRedEnvelopeV2.sol\":17402:17407  index */\n      dup4\n        /* \"contracts/LuckyRedEnvelopeV2.sol\":17378:17408  _prizedticketIndex[_id][index] */\n      dup2\n      mstore\n      0x20\n      add\n      swap1\n      dup2\n      mstore\n      0x20\n      add\n      0x00\n      keccak256\n      0x00\n      swap1\n      sload\n      swap1\n      0x0100\n      exp\n      swap1\n      div\n      0xff\n      and\n        /* \"contracts/LuckyRedEnvelopeV2.sol\":17378:17417  _prizedticketIndex[_id][index] != false */\n      iszero\n      iszero\n      eq\n        /* \"contracts/LuckyRedEnvelopeV2.sol\":17372:17576  for (;_prizedticketIndex[_id][index] != false;){... */\n      tag_401\n      jumpi\n        /* \"contracts/LuckyRedEnvelopeV2.sol\":17442:17449  index++ */\n      dup1\n      dup1\n      tag_403\n      swap1\n      tag_311\n      jump\t// in\n    tag_403:\n      swap2\n      pop\n      pop\n        /* \"contracts/LuckyRedEnvelopeV2.sol\":17485:17496  userTickets */\n      dup4\n        /* \"contracts/LuckyRedEnvelopeV2.sol\":17476:17481  index */\n      dup2\n        /* \"contracts/LuckyRedEnvelopeV2.sol\":17476:17496  index == userTickets */\n      sub\n        /* \"contracts/LuckyRedEnvelopeV2.sol\":17472:17557  if (index == userTickets){... */\n      tag_404\n      jumpi\n        /* \"contracts/LuckyRedEnvelopeV2.sol\":17532:17533  0 */\n      0x00\n        /* \"contracts/LuckyRedEnvelopeV2.sol\":17524:17533  index = 0 */\n      swap1\n      pop\n        /* \"contracts/LuckyRedEnvelopeV2.sol\":17472:17557  if (index == userTickets){... */\n    tag_404:\n        /* \"contracts/LuckyRedEnvelopeV2.sol\":17372:17576  for (;_prizedticketIndex[_id][index] != false;){... */\n      jump(tag_400)\n    tag_401:\n        /* \"contracts/LuckyRedEnvelopeV2.sol\":17200:17591  if (_drawNum != userTickets){... */\n    tag_395:\n        /* \"contracts/LuckyRedEnvelopeV2.sol\":17638:17642  true */\n      0x01\n        /* \"contracts/LuckyRedEnvelopeV2.sol\":17605:17623  _prizedticketIndex */\n      0x09\n        /* \"contracts/LuckyRedEnvelopeV2.sol\":17605:17628  _prizedticketIndex[_id] */\n      0x00\n        /* \"contracts/LuckyRedEnvelopeV2.sol\":17624:17627  _id */\n      dup11\n        /* \"contracts/LuckyRedEnvelopeV2.sol\":17605:17628  _prizedticketIndex[_id] */\n      dup2\n      mstore\n      0x20\n      add\n      swap1\n      dup2\n      mstore\n      0x20\n      add\n      0x00\n      keccak256\n        /* \"contracts/LuckyRedEnvelopeV2.sol\":17605:17635  _prizedticketIndex[_id][index] */\n      0x00\n        /* \"contracts/LuckyRedEnvelopeV2.sol\":17629:17634  index */\n      dup4\n        /* \"contracts/LuckyRedEnvelopeV2.sol\":17605:17635  _prizedticketIndex[_id][index] */\n      dup2\n      mstore\n      0x20\n      add\n      swap1\n      dup2\n      mstore\n      0x20\n      add\n      0x00\n      keccak256\n      0x00\n        /* \"contracts/LuckyRedEnvelopeV2.sol\":17605:17642  _prizedticketIndex[_id][index] = true */\n      0x0100\n      exp\n      dup2\n      sload\n      dup2\n      0xff\n      mul\n      not\n      and\n      swap1\n      dup4\n      iszero\n      iszero\n      mul\n      or\n      swap1\n      sstore\n      pop\n        /* \"contracts/LuckyRedEnvelopeV2.sol\":17657:17678  Ticket storage ticket */\n      0x00\n        /* \"contracts/LuckyRedEnvelopeV2.sol\":17681:17709  _getTicketbyIndex(_id,index) */\n      tag_405\n        /* \"contracts/LuckyRedEnvelopeV2.sol\":17699:17702  _id */\n      dup10\n        /* \"contracts/LuckyRedEnvelopeV2.sol\":17703:17708  index */\n      dup4\n        /* \"contracts/LuckyRedEnvelopeV2.sol\":17681:17698  _getTicketbyIndex */\n      tag_406\n        /* \"contracts/LuckyRedEnvelopeV2.sol\":17681:17709  _getTicketbyIndex(_id,index) */\n      jump\t// in\n    tag_405:\n        /* \"contracts/LuckyRedEnvelopeV2.sol\":17657:17709  Ticket storage ticket = _getTicketbyIndex(_id,index) */\n      swap1\n      pop\n        /* \"contracts/LuckyRedEnvelopeV2.sol\":17766:17771  index */\n      dup2\n        /* \"contracts/LuckyRedEnvelopeV2.sol\":17744:17750  ticket */\n      dup2\n        /* \"contracts/LuckyRedEnvelopeV2.sol\":17744:17765  ticket.receiveAddress */\n      0x01\n      add\n      0x00\n      swap1\n      sload\n      swap1\n      0x0100\n      exp\n      swap1\n      div\n      0xffffffffffffffffffffffffffffffffffffffff\n      and\n        /* \"contracts/LuckyRedEnvelopeV2.sol\":17729:17811  PrizeDrawn(_id,ticket.receiveAddress,index,sendValue,_redEnvelopes[_id].autoClaim) */\n      0xffffffffffffffffffffffffffffffffffffffff\n      and\n        /* \"contracts/LuckyRedEnvelopeV2.sol\":17740:17743  _id */\n      dup11\n        /* \"contracts/LuckyRedEnvelopeV2.sol\":17729:17811  PrizeDrawn(_id,ticket.receiveAddress,index,sendValue,_redEnvelopes[_id].autoClaim) */\n      0x927546e38b674f5e5dff7edce9c7afdcf21a35ac03ba70fe8e341f61f2c73ded\n        /* \"contracts/LuckyRedEnvelopeV2.sol\":17772:17781  sendValue */\n      dup7\n        /* \"contracts/LuckyRedEnvelopeV2.sol\":17782:17795  _redEnvelopes */\n      0x07\n        /* \"contracts/LuckyRedEnvelopeV2.sol\":17782:17800  _redEnvelopes[_id] */\n      0x00\n        /* \"contracts/LuckyRedEnvelopeV2.sol\":17796:17799  _id */\n      dup16\n        /* \"contracts/LuckyRedEnvelopeV2.sol\":17782:17800  _redEnvelopes[_id] */\n      dup2\n      mstore\n      0x20\n      add\n      swap1\n      dup2\n      mstore\n      0x20\n      add\n      0x00\n      keccak256\n        /* \"contracts/LuckyRedEnvelopeV2.sol\":17782:17810  _redEnvelopes[_id].autoClaim */\n      0x0e\n      add\n      0x00\n      swap1\n      sload\n      swap1\n      0x0100\n      exp\n      swap1\n      div\n      0xff\n      and\n        /* \"contracts/LuckyRedEnvelopeV2.sol\":17729:17811  PrizeDrawn(_id,ticket.receiveAddress,index,sendValue,_redEnvelopes[_id].autoClaim) */\n      mload(0x40)\n      tag_407\n      swap3\n      swap2\n      swap1\n      tag_408\n      jump\t// in\n    tag_407:\n      mload(0x40)\n      dup1\n      swap2\n      sub\n      swap1\n      log4\n        /* \"contracts/LuckyRedEnvelopeV2.sol\":17873:17882  sendValue */\n      dup3\n        /* \"contracts/LuckyRedEnvelopeV2.sol\":17826:17841  _amount2claimed */\n      0x0c\n        /* \"contracts/LuckyRedEnvelopeV2.sol\":17826:17846  _amount2claimed[_id] */\n      0x00\n        /* \"contracts/LuckyRedEnvelopeV2.sol\":17842:17845  _id */\n      dup12\n        /* \"contracts/LuckyRedEnvelopeV2.sol\":17826:17846  _amount2claimed[_id] */\n      dup2\n      mstore\n      0x20\n      add\n      swap1\n      dup2\n      mstore\n      0x20\n      add\n      0x00\n      keccak256\n        /* \"contracts/LuckyRedEnvelopeV2.sol\":17826:17869  _amount2claimed[_id][ticket.receiveAddress] */\n      0x00\n        /* \"contracts/LuckyRedEnvelopeV2.sol\":17847:17853  ticket */\n      dup4\n        /* \"contracts/LuckyRedEnvelopeV2.sol\":17847:17868  ticket.receiveAddress */\n      0x01\n      add\n      0x00\n      swap1\n      sload\n      swap1\n      0x0100\n      exp\n      swap1\n      div\n      0xffffffffffffffffffffffffffffffffffffffff\n      and\n        /* \"contracts/LuckyRedEnvelopeV2.sol\":17826:17869  _amount2claimed[_id][ticket.receiveAddress] */\n      0xffffffffffffffffffffffffffffffffffffffff\n      and\n      0xffffffffffffffffffffffffffffffffffffffff\n      and\n      dup2\n      mstore\n      0x20\n      add\n      swap1\n      dup2\n      mstore\n      0x20\n      add\n      0x00\n      keccak256\n      0x00\n        /* \"contracts/LuckyRedEnvelopeV2.sol\":17826:17882  _amount2claimed[_id][ticket.receiveAddress] += sendValue */\n      dup3\n      dup3\n      sload\n      tag_409\n      swap2\n      swap1\n      tag_158\n      jump\t// in\n    tag_409:\n      swap3\n      pop\n      pop\n      dup2\n      swap1\n      sstore\n      pop\n        /* \"contracts/LuckyRedEnvelopeV2.sol\":17916:17925  sendValue */\n      dup3\n        /* \"contracts/LuckyRedEnvelopeV2.sol\":17897:17925  totalSendAmount += sendValue */\n      dup7\n      tag_410\n      swap2\n      swap1\n      tag_158\n      jump\t// in\n    tag_410:\n      swap6\n      pop\n        /* \"contracts/LuckyRedEnvelopeV2.sol\":17083:17937  {... */\n      pop\n      pop\n      pop\n        /* \"contracts/LuckyRedEnvelopeV2.sol\":17079:17082  i++ */\n      dup1\n      dup1\n      0x01\n      add\n      swap2\n      pop\n      pop\n        /* \"contracts/LuckyRedEnvelopeV2.sol\":17045:17937  for (uint256 i = 0; i < _drawNum; i++){... */\n      jump(tag_389)\n    tag_390:\n      pop\n        /* \"contracts/LuckyRedEnvelopeV2.sol\":16836:17952  {... */\n      pop\n      pop\n        /* \"contracts/LuckyRedEnvelopeV2.sol\":16742:17952  function _calculatePrize(uint256 _id,uint256 _drawNum,uint256[] memory _randomsAmount)internal{... */\n      pop\n      pop\n      pop\n      jump\t// out\n        /* \"contracts/LuckyRedEnvelopeV2.sol\":19497:19991  function _claimPrize(uint256 _id,address _winner)internal {... */\n    tag_241:\n        /* \"contracts/LuckyRedEnvelopeV2.sol\":19607:19608  0 */\n      0x00\n        /* \"contracts/LuckyRedEnvelopeV2.sol\":19574:19589  _amount2claimed */\n      0x0c\n        /* \"contracts/LuckyRedEnvelopeV2.sol\":19574:19594  _amount2claimed[_id] */\n      0x00\n        /* \"contracts/LuckyRedEnvelopeV2.sol\":19590:19593  _id */\n      dup5\n        /* \"contracts/LuckyRedEnvelopeV2.sol\":19574:19594  _amount2claimed[_id] */\n      dup2\n      mstore\n      0x20\n      add\n      swap1\n      dup2\n      mstore\n      0x20\n      add\n      0x00\n      keccak256\n        /* \"contracts/LuckyRedEnvelopeV2.sol\":19574:19603  _amount2claimed[_id][_winner] */\n      0x00\n        /* \"contracts/LuckyRedEnvelopeV2.sol\":19595:19602  _winner */\n      dup4\n        /* \"contracts/LuckyRedEnvelopeV2.sol\":19574:19603  _amount2claimed[_id][_winner] */\n      0xffffffffffffffffffffffffffffffffffffffff\n      and\n      0xffffffffffffffffffffffffffffffffffffffff\n      and\n      dup2\n      mstore\n      0x20\n      add\n      swap1\n      dup2\n      mstore\n      0x20\n      add\n      0x00\n      keccak256\n      sload\n        /* \"contracts/LuckyRedEnvelopeV2.sol\":19574:19608  _amount2claimed[_id][_winner] != 0 */\n      sub\n        /* \"contracts/LuckyRedEnvelopeV2.sol\":19566:19621  require(_amount2claimed[_id][_winner] != 0, \"no prize\") */\n      tag_412\n      jumpi\n      mload(0x40)\n      0x08c379a000000000000000000000000000000000000000000000000000000000\n      dup2\n      mstore\n      0x04\n      add\n      tag_413\n      swap1\n      tag_414\n      jump\t// in\n    tag_413:\n      mload(0x40)\n      dup1\n      swap2\n      sub\n      swap1\n      revert\n    tag_412:\n        /* \"contracts/LuckyRedEnvelopeV2.sol\":19689:19718  uint256 amountTokenToTransfer */\n      0x00\n        /* \"contracts/LuckyRedEnvelopeV2.sol\":19721:19736  _amount2claimed */\n      0x0c\n        /* \"contracts/LuckyRedEnvelopeV2.sol\":19721:19741  _amount2claimed[_id] */\n      0x00\n        /* \"contracts/LuckyRedEnvelopeV2.sol\":19737:19740  _id */\n      dup5\n        /* \"contracts/LuckyRedEnvelopeV2.sol\":19721:19741  _amount2claimed[_id] */\n      dup2\n      mstore\n      0x20\n      add\n      swap1\n      dup2\n      mstore\n      0x20\n      add\n      0x00\n      keccak256\n        /* \"contracts/LuckyRedEnvelopeV2.sol\":19721:19750  _amount2claimed[_id][_winner] */\n      0x00\n        /* \"contracts/LuckyRedEnvelopeV2.sol\":19742:19749  _winner */\n      dup4\n        /* \"contracts/LuckyRedEnvelopeV2.sol\":19721:19750  _amount2claimed[_id][_winner] */\n      0xffffffffffffffffffffffffffffffffffffffff\n      and\n      0xffffffffffffffffffffffffffffffffffffffff\n      and\n      dup2\n      mstore\n      0x20\n      add\n      swap1\n      dup2\n      mstore\n      0x20\n      add\n      0x00\n      keccak256\n      sload\n        /* \"contracts/LuckyRedEnvelopeV2.sol\":19689:19750  uint256 amountTokenToTransfer = _amount2claimed[_id][_winner] */\n      swap1\n      pop\n        /* \"contracts/LuckyRedEnvelopeV2.sol\":19763:19846  IERC20(_redEnvelopes[_id].ticketToken).safeTransfer(_winner, amountTokenToTransfer) */\n      tag_415\n        /* \"contracts/LuckyRedEnvelopeV2.sol\":19815:19822  _winner */\n      dup3\n        /* \"contracts/LuckyRedEnvelopeV2.sol\":19824:19845  amountTokenToTransfer */\n      dup3\n        /* \"contracts/LuckyRedEnvelopeV2.sol\":19770:19783  _redEnvelopes */\n      0x07\n        /* \"contracts/LuckyRedEnvelopeV2.sol\":19770:19788  _redEnvelopes[_id] */\n      0x00\n        /* \"contracts/LuckyRedEnvelopeV2.sol\":19784:19787  _id */\n      dup8\n        /* \"contracts/LuckyRedEnvelopeV2.sol\":19770:19788  _redEnvelopes[_id] */\n      dup2\n      mstore\n      0x20\n      add\n      swap1\n      dup2\n      mstore\n      0x20\n      add\n      0x00\n      keccak256\n        /* \"contracts/LuckyRedEnvelopeV2.sol\":19770:19800  _redEnvelopes[_id].ticketToken */\n      0x00\n      add\n      0x00\n      swap1\n      sload\n      swap1\n      0x0100\n      exp\n      swap1\n      div\n      0xffffffffffffffffffffffffffffffffffffffff\n      and\n        /* \"contracts/LuckyRedEnvelopeV2.sol\":19763:19814  IERC20(_redEnvelopes[_id].ticketToken).safeTransfer */\n      0xffffffffffffffffffffffffffffffffffffffff\n      and\n      tag_354\n      swap1\n        /* \"contracts/LuckyRedEnvelopeV2.sol\":19763:19846  IERC20(_redEnvelopes[_id].ticketToken).safeTransfer(_winner, amountTokenToTransfer) */\n      swap3\n      swap2\n      swap1\n      0xffffffff\n      and\n      jump\t// in\n    tag_415:\n        /* \"contracts/LuckyRedEnvelopeV2.sol\":19864:19879  _amount2claimed */\n      0x0c\n        /* \"contracts/LuckyRedEnvelopeV2.sol\":19864:19884  _amount2claimed[_id] */\n      0x00\n        /* \"contracts/LuckyRedEnvelopeV2.sol\":19880:19883  _id */\n      dup5\n        /* \"contracts/LuckyRedEnvelopeV2.sol\":19864:19884  _amount2claimed[_id] */\n      dup2\n      mstore\n      0x20\n      add\n      swap1\n      dup2\n      mstore\n      0x20\n      add\n      0x00\n      keccak256\n        /* \"contracts/LuckyRedEnvelopeV2.sol\":19864:19893  _amount2claimed[_id][_winner] */\n      0x00\n        /* \"contracts/LuckyRedEnvelopeV2.sol\":19885:19892  _winner */\n      dup4\n        /* \"contracts/LuckyRedEnvelopeV2.sol\":19864:19893  _amount2claimed[_id][_winner] */\n      0xffffffffffffffffffffffffffffffffffffffff\n      and\n      0xffffffffffffffffffffffffffffffffffffffff\n      and\n      dup2\n      mstore\n      0x20\n      add\n      swap1\n      dup2\n      mstore\n      0x20\n      add\n      0x00\n      keccak256\n        /* \"contracts/LuckyRedEnvelopeV2.sol\":19857:19893  delete _amount2claimed[_id][_winner] */\n      0x00\n      swap1\n      sstore\n        /* \"contracts/LuckyRedEnvelopeV2.sol\":19924:19931  _winner */\n      dup2\n        /* \"contracts/LuckyRedEnvelopeV2.sol\":19909:19983  ClaimPrize(_id,_winner,amountTokenToTransfer,_redEnvelopes[_id].autoClaim) */\n      0xffffffffffffffffffffffffffffffffffffffff\n      and\n        /* \"contracts/LuckyRedEnvelopeV2.sol\":19920:19923  _id */\n      dup4\n        /* \"contracts/LuckyRedEnvelopeV2.sol\":19909:19983  ClaimPrize(_id,_winner,amountTokenToTransfer,_redEnvelopes[_id].autoClaim) */\n      0x268ef67ed0490cc273925a4865e6fbdb4dcf7e0802aad957aa682a78c7618bef\n        /* \"contracts/LuckyRedEnvelopeV2.sol\":19932:19953  amountTokenToTransfer */\n      dup4\n        /* \"contracts/LuckyRedEnvelopeV2.sol\":19954:19967  _redEnvelopes */\n      0x07\n        /* \"contracts/LuckyRedEnvelopeV2.sol\":19954:19972  _redEnvelopes[_id] */\n      0x00\n        /* \"contracts/LuckyRedEnvelopeV2.sol\":19968:19971  _id */\n      dup9\n        /* \"contracts/LuckyRedEnvelopeV2.sol\":19954:19972  _redEnvelopes[_id] */\n      dup2\n      mstore\n      0x20\n      add\n      swap1\n      dup2\n      mstore\n      0x20\n      add\n      0x00\n      keccak256\n        /* \"contracts/LuckyRedEnvelopeV2.sol\":19954:19982  _redEnvelopes[_id].autoClaim */\n      0x0e\n      add\n      0x00\n      swap1\n      sload\n      swap1\n      0x0100\n      exp\n      swap1\n      div\n      0xff\n      and\n        /* \"contracts/LuckyRedEnvelopeV2.sol\":19909:19983  ClaimPrize(_id,_winner,amountTokenToTransfer,_redEnvelopes[_id].autoClaim) */\n      mload(0x40)\n      tag_416\n      swap3\n      swap2\n      swap1\n      tag_408\n      jump\t// in\n    tag_416:\n      mload(0x40)\n      dup1\n      swap2\n      sub\n      swap1\n      log3\n        /* \"contracts/LuckyRedEnvelopeV2.sol\":19555:19991  {... */\n      pop\n        /* \"contracts/LuckyRedEnvelopeV2.sol\":19497:19991  function _claimPrize(uint256 _id,address _winner)internal {... */\n      pop\n      pop\n      jump\t// out\n        /* \"@openzeppelin/contracts/token/ERC20/utils/SafeERC20.sol\":1702:1890  function safeTransferFrom(IERC20 token, address from, address to, uint256 value) internal {... */\n    tag_266:\n        /* \"@openzeppelin/contracts/token/ERC20/utils/SafeERC20.sol\":1802:1883  _callOptionalReturn(token, abi.encodeCall(token.transferFrom, (from, to, value))) */\n      tag_418\n        /* \"@openzeppelin/contracts/token/ERC20/utils/SafeERC20.sol\":1822:1827  token */\n      dup5\n        /* \"@openzeppelin/contracts/token/ERC20/utils/SafeERC20.sol\":1844:1849  token */\n      dup6\n        /* \"@openzeppelin/contracts/token/ERC20/utils/SafeERC20.sol\":1844:1862  token.transferFrom */\n      0xffffffffffffffffffffffffffffffffffffffff\n      and\n      0x23b872dd\n        /* \"@openzeppelin/contracts/token/ERC20/utils/SafeERC20.sol\":1865:1869  from */\n      dup7\n        /* \"@openzeppelin/contracts/token/ERC20/utils/SafeERC20.sol\":1871:1873  to */\n      dup7\n        /* \"@openzeppelin/contracts/token/ERC20/utils/SafeERC20.sol\":1875:1880  value */\n      dup7\n        /* \"@openzeppelin/contracts/token/ERC20/utils/SafeERC20.sol\":1829:1882  abi.encodeCall(token.transferFrom, (from, to, value)) */\n      add(0x24, mload(0x40))\n      tag_419\n      swap4\n      swap3\n      swap2\n      swap1\n      tag_420\n      jump\t// in\n    tag_419:\n      mload(0x40)\n      0x20\n      dup2\n      dup4\n      sub\n      sub\n      dup2\n      mstore\n      swap1\n      0x40\n      mstore\n      swap2\n      pop\n      0xe0\n      shl\n      0x20\n      dup3\n      add\n      dup1\n      mload\n      0xffffffffffffffffffffffffffffffffffffffffffffffffffffffff\n      dup4\n      dup2\n      dup4\n      and\n      or\n      dup4\n      mstore\n      pop\n      pop\n      pop\n      pop\n        /* \"@openzeppelin/contracts/token/ERC20/utils/SafeERC20.sol\":1802:1821  _callOptionalReturn */\n      tag_421\n        /* \"@openzeppelin/contracts/token/ERC20/utils/SafeERC20.sol\":1802:1883  _callOptionalReturn(token, abi.encodeCall(token.transferFrom, (from, to, value))) */\n      jump\t// in\n    tag_418:\n        /* \"@openzeppelin/contracts/token/ERC20/utils/SafeERC20.sol\":1702:1890  function safeTransferFrom(IERC20 token, address from, address to, uint256 value) internal {... */\n      pop\n      pop\n      pop\n      pop\n      jump\t// out\n        /* \"@openzeppelin/contracts/utils/Context.sol\":656:752  function _msgSender() internal view virtual returns (address) {... */\n    tag_342:\n        /* \"@openzeppelin/contracts/utils/Context.sol\":709:716  address */\n      0x00\n        /* \"@openzeppelin/contracts/utils/Context.sol\":735:745  msg.sender */\n      caller\n        /* \"@openzeppelin/contracts/utils/Context.sol\":728:745  return msg.sender */\n      swap1\n      pop\n        /* \"@openzeppelin/contracts/utils/Context.sol\":656:752  function _msgSender() internal view virtual returns (address) {... */\n      swap1\n      jump\t// out\n        /* \"@openzeppelin/contracts/token/ERC20/utils/SafeERC20.sol\":1303:1463  function safeTransfer(IERC20 token, address to, uint256 value) internal {... */\n    tag_354:\n        /* \"@openzeppelin/contracts/token/ERC20/utils/SafeERC20.sol\":1385:1456  _callOptionalReturn(token, abi.encodeCall(token.transfer, (to, value))) */\n      tag_424\n        /* \"@openzeppelin/contracts/token/ERC20/utils/SafeERC20.sol\":1405:1410  token */\n      dup4\n        /* \"@openzeppelin/contracts/token/ERC20/utils/SafeERC20.sol\":1427:1432  token */\n      dup5\n        /* \"@openzeppelin/contracts/token/ERC20/utils/SafeERC20.sol\":1427:1441  token.transfer */\n      0xffffffffffffffffffffffffffffffffffffffff\n      and\n      0xa9059cbb\n        /* \"@openzeppelin/contracts/token/ERC20/utils/SafeERC20.sol\":1444:1446  to */\n      dup6\n        /* \"@openzeppelin/contracts/token/ERC20/utils/SafeERC20.sol\":1448:1453  value */\n      dup6\n        /* \"@openzeppelin/contracts/token/ERC20/utils/SafeERC20.sol\":1412:1455  abi.encodeCall(token.transfer, (to, value)) */\n      add(0x24, mload(0x40))\n      tag_425\n      swap3\n      swap2\n      swap1\n      tag_196\n      jump\t// in\n    tag_425:\n      mload(0x40)\n      0x20\n      dup2\n      dup4\n      sub\n      sub\n      dup2\n      mstore\n      swap1\n      0x40\n      mstore\n      swap2\n      pop\n      0xe0\n      shl\n      0x20\n      dup3\n      add\n      dup1\n      mload\n      0xffffffffffffffffffffffffffffffffffffffffffffffffffffffff\n      dup4\n      dup2\n      dup4\n      and\n      or\n      dup4\n      mstore\n      pop\n      pop\n      pop\n      pop\n        /* \"@openzeppelin/contracts/token/ERC20/utils/SafeERC20.sol\":1385:1404  _callOptionalReturn */\n      tag_421\n        /* \"@openzeppelin/contracts/token/ERC20/utils/SafeERC20.sol\":1385:1456  _callOptionalReturn(token, abi.encodeCall(token.transfer, (to, value))) */\n      jump\t// in\n    tag_424:\n        /* \"@openzeppelin/contracts/token/ERC20/utils/SafeERC20.sol\":1303:1463  function safeTransfer(IERC20 token, address to, uint256 value) internal {... */\n      pop\n      pop\n      pop\n      jump\t// out\n        /* \"contracts/LuckyRedEnvelopeV2.sol\":18123:18352  function _deriveRandom(uint256 _seed,uint256 i)internal pure returns(uint256){... */\n    tag_365:\n        /* \"contracts/LuckyRedEnvelopeV2.sol\":18192:18199  uint256 */\n      0x00\n        /* \"contracts/LuckyRedEnvelopeV2.sol\":18228:18240  uint32 shift */\n      dup1\n        /* \"contracts/LuckyRedEnvelopeV2.sol\":18254:18257  256 */\n      0x0100\n        /* \"contracts/LuckyRedEnvelopeV2.sol\":18250:18251  i */\n      dup4\n        /* \"contracts/LuckyRedEnvelopeV2.sol\":18250:18257  i % 256 */\n      tag_427\n      swap2\n      swap1\n      tag_367\n      jump\t// in\n    tag_427:\n        /* \"contracts/LuckyRedEnvelopeV2.sol\":18228:18258  uint32 shift = uint32(i % 256) */\n      swap1\n      pop\n        /* \"contracts/LuckyRedEnvelopeV2.sol\":18311:18316  _seed */\n      dup4\n        /* \"contracts/LuckyRedEnvelopeV2.sol\":18317:18341  _leftRotate(_seed,shift) */\n      tag_428\n        /* \"contracts/LuckyRedEnvelopeV2.sol\":18329:18334  _seed */\n      dup6\n        /* \"contracts/LuckyRedEnvelopeV2.sol\":18335:18340  shift */\n      dup4\n        /* \"contracts/LuckyRedEnvelopeV2.sol\":18317:18328  _leftRotate */\n      tag_429\n        /* \"contracts/LuckyRedEnvelopeV2.sol\":18317:18341  _leftRotate(_seed,shift) */\n      jump\t// in\n    tag_428:\n        /* \"contracts/LuckyRedEnvelopeV2.sol\":18294:18342  abi.encodePacked(_seed,_leftRotate(_seed,shift)) */\n      add(0x20, mload(0x40))\n      tag_430\n      swap3\n      swap2\n      swap1\n      tag_431\n      jump\t// in\n    tag_430:\n      mload(0x40)\n      0x20\n      dup2\n      dup4\n      sub\n      sub\n      dup2\n      mstore\n      swap1\n      0x40\n      mstore\n        /* \"contracts/LuckyRedEnvelopeV2.sol\":18284:18343  keccak256(abi.encodePacked(_seed,_leftRotate(_seed,shift))) */\n      dup1\n      mload\n      swap1\n      0x20\n      add\n      keccak256\n        /* \"contracts/LuckyRedEnvelopeV2.sol\":18276:18344  uint256(keccak256(abi.encodePacked(_seed,_leftRotate(_seed,shift)))) */\n      0x00\n      shr\n        /* \"contracts/LuckyRedEnvelopeV2.sol\":18269:18344  return uint256(keccak256(abi.encodePacked(_seed,_leftRotate(_seed,shift)))) */\n      swap2\n      pop\n      pop\n        /* \"contracts/LuckyRedEnvelopeV2.sol\":18123:18352  function _deriveRandom(uint256 _seed,uint256 i)internal pure returns(uint256){... */\n      swap3\n      swap2\n      pop\n      pop\n      jump\t// out\n        /* \"contracts/LuckyRedEnvelopeV2.sol\":14213:14972  function _getTicketbyIndex(uint256 _id,uint256 _index) internal view returns (Ticket storage){... */\n    tag_406:\n        /* \"contracts/LuckyRedEnvelopeV2.sol\":14291:14305  Ticket storage */\n      0x00\n        /* \"contracts/LuckyRedEnvelopeV2.sol\":14388:14394  _index */\n      dup2\n        /* \"contracts/LuckyRedEnvelopeV2.sol\":14325:14333  _tickets */\n      0x08\n        /* \"contracts/LuckyRedEnvelopeV2.sol\":14325:14338  _tickets[_id] */\n      0x00\n        /* \"contracts/LuckyRedEnvelopeV2.sol\":14334:14337  _id */\n      dup6\n        /* \"contracts/LuckyRedEnvelopeV2.sol\":14325:14338  _tickets[_id] */\n      dup2\n      mstore\n      0x20\n      add\n      swap1\n      dup2\n      mstore\n      0x20\n      add\n      0x00\n      keccak256\n        /* \"contracts/LuckyRedEnvelopeV2.sol\":14325:14372  _tickets[_id][_redEnvelopes[_id].userTxNum - 1] */\n      0x00\n        /* \"contracts/LuckyRedEnvelopeV2.sol\":14370:14371  1 */\n      0x01\n        /* \"contracts/LuckyRedEnvelopeV2.sol\":14339:14352  _redEnvelopes */\n      0x07\n        /* \"contracts/LuckyRedEnvelopeV2.sol\":14339:14357  _redEnvelopes[_id] */\n      0x00\n        /* \"contracts/LuckyRedEnvelopeV2.sol\":14353:14356  _id */\n      dup9\n        /* \"contracts/LuckyRedEnvelopeV2.sol\":14339:14357  _redEnvelopes[_id] */\n      dup2\n      mstore\n      0x20\n      add\n      swap1\n      dup2\n      mstore\n      0x20\n      add\n      0x00\n      keccak256\n        /* \"contracts/LuckyRedEnvelopeV2.sol\":14339:14367  _redEnvelopes[_id].userTxNum */\n      0x09\n      add\n      sload\n        /* \"contracts/LuckyRedEnvelopeV2.sol\":14339:14371  _redEnvelopes[_id].userTxNum - 1 */\n      tag_433\n      swap2\n      swap1\n      tag_322\n      jump\t// in\n    tag_433:\n        /* \"contracts/LuckyRedEnvelopeV2.sol\":14325:14372  _tickets[_id][_redEnvelopes[_id].userTxNum - 1] */\n      dup2\n      mstore\n      0x20\n      add\n      swap1\n      dup2\n      mstore\n      0x20\n      add\n      0x00\n      keccak256\n        /* \"contracts/LuckyRedEnvelopeV2.sol\":14325:14385  _tickets[_id][_redEnvelopes[_id].userTxNum - 1].totalNumbers */\n      0x00\n      add\n      sload\n        /* \"contracts/LuckyRedEnvelopeV2.sol\":14325:14394  _tickets[_id][_redEnvelopes[_id].userTxNum - 1].totalNumbers > _index */\n      gt\n        /* \"contracts/LuckyRedEnvelopeV2.sol\":14317:14413  require(_tickets[_id][_redEnvelopes[_id].userTxNum - 1].totalNumbers > _index,\"index out range\") */\n      tag_434\n      jumpi\n      mload(0x40)\n      0x08c379a000000000000000000000000000000000000000000000000000000000\n      dup2\n      mstore\n      0x04\n      add\n      tag_435\n      swap1\n      tag_436\n      jump\t// in\n    tag_435:\n      mload(0x40)\n      dup1\n      swap2\n      sub\n      swap1\n      revert\n    tag_434:\n        /* \"contracts/LuckyRedEnvelopeV2.sol\":14424:14436  uint256 left */\n      0x00\n        /* \"contracts/LuckyRedEnvelopeV2.sol\":14451:14464  uint256 right */\n      dup1\n        /* \"contracts/LuckyRedEnvelopeV2.sol\":14498:14499  1 */\n      0x01\n        /* \"contracts/LuckyRedEnvelopeV2.sol\":14467:14480  _redEnvelopes */\n      0x07\n        /* \"contracts/LuckyRedEnvelopeV2.sol\":14467:14485  _redEnvelopes[_id] */\n      0x00\n        /* \"contracts/LuckyRedEnvelopeV2.sol\":14481:14484  _id */\n      dup8\n        /* \"contracts/LuckyRedEnvelopeV2.sol\":14467:14485  _redEnvelopes[_id] */\n      dup2\n      mstore\n      0x20\n      add\n      swap1\n      dup2\n      mstore\n      0x20\n      add\n      0x00\n      keccak256\n        /* \"contracts/LuckyRedEnvelopeV2.sol\":14467:14495  _redEnvelopes[_id].userTxNum */\n      0x09\n      add\n      sload\n        /* \"contracts/LuckyRedEnvelopeV2.sol\":14467:14499  _redEnvelopes[_id].userTxNum - 1 */\n      tag_437\n      swap2\n      swap1\n      tag_322\n      jump\t// in\n    tag_437:\n        /* \"contracts/LuckyRedEnvelopeV2.sol\":14451:14499  uint256 right = _redEnvelopes[_id].userTxNum - 1 */\n      swap1\n      pop\n        /* \"contracts/LuckyRedEnvelopeV2.sol\":14559:14931  do{... */\n    tag_438:\n        /* \"contracts/LuckyRedEnvelopeV2.sol\":14576:14587  uint256 mid */\n      0x00\n        /* \"contracts/LuckyRedEnvelopeV2.sol\":14607:14608  2 */\n      0x02\n        /* \"contracts/LuckyRedEnvelopeV2.sol\":14598:14603  right */\n      dup3\n        /* \"contracts/LuckyRedEnvelopeV2.sol\":14591:14595  left */\n      dup5\n        /* \"contracts/LuckyRedEnvelopeV2.sol\":14591:14603  left + right */\n      tag_441\n      swap2\n      swap1\n      tag_158\n      jump\t// in\n    tag_441:\n        /* \"contracts/LuckyRedEnvelopeV2.sol\":14590:14608  (left + right) / 2 */\n      tag_442\n      swap2\n      swap1\n      tag_443\n      jump\t// in\n    tag_442:\n        /* \"contracts/LuckyRedEnvelopeV2.sol\":14576:14608  uint256 mid = (left + right) / 2 */\n      swap1\n      pop\n        /* \"contracts/LuckyRedEnvelopeV2.sol\":14661:14667  _index */\n      dup5\n        /* \"contracts/LuckyRedEnvelopeV2.sol\":14627:14635  _tickets */\n      0x08\n        /* \"contracts/LuckyRedEnvelopeV2.sol\":14627:14640  _tickets[_id] */\n      0x00\n        /* \"contracts/LuckyRedEnvelopeV2.sol\":14636:14639  _id */\n      dup9\n        /* \"contracts/LuckyRedEnvelopeV2.sol\":14627:14640  _tickets[_id] */\n      dup2\n      mstore\n      0x20\n      add\n      swap1\n      dup2\n      mstore\n      0x20\n      add\n      0x00\n      keccak256\n        /* \"contracts/LuckyRedEnvelopeV2.sol\":14627:14645  _tickets[_id][mid] */\n      0x00\n        /* \"contracts/LuckyRedEnvelopeV2.sol\":14641:14644  mid */\n      dup4\n        /* \"contracts/LuckyRedEnvelopeV2.sol\":14627:14645  _tickets[_id][mid] */\n      dup2\n      mstore\n      0x20\n      add\n      swap1\n      dup2\n      mstore\n      0x20\n      add\n      0x00\n      keccak256\n        /* \"contracts/LuckyRedEnvelopeV2.sol\":14627:14658  _tickets[_id][mid].totalNumbers */\n      0x00\n      add\n      sload\n        /* \"contracts/LuckyRedEnvelopeV2.sol\":14627:14667  _tickets[_id][mid].totalNumbers > _index */\n      gt\n        /* \"contracts/LuckyRedEnvelopeV2.sol\":14623:14814  if (_tickets[_id][mid].totalNumbers > _index){... */\n      iszero\n      tag_444\n      jumpi\n        /* \"contracts/LuckyRedEnvelopeV2.sol\":14695:14698  mid */\n      dup1\n        /* \"contracts/LuckyRedEnvelopeV2.sol\":14687:14698  right = mid */\n      swap2\n      pop\n        /* \"contracts/LuckyRedEnvelopeV2.sol\":14623:14814  if (_tickets[_id][mid].totalNumbers > _index){... */\n      jump(tag_445)\n    tag_444:\n        /* \"contracts/LuckyRedEnvelopeV2.sol\":14758:14764  _index */\n      dup5\n        /* \"contracts/LuckyRedEnvelopeV2.sol\":14723:14731  _tickets */\n      0x08\n        /* \"contracts/LuckyRedEnvelopeV2.sol\":14723:14736  _tickets[_id] */\n      0x00\n        /* \"contracts/LuckyRedEnvelopeV2.sol\":14732:14735  _id */\n      dup9\n        /* \"contracts/LuckyRedEnvelopeV2.sol\":14723:14736  _tickets[_id] */\n      dup2\n      mstore\n      0x20\n      add\n      swap1\n      dup2\n      mstore\n      0x20\n      add\n      0x00\n      keccak256\n        /* \"contracts/LuckyRedEnvelopeV2.sol\":14723:14741  _tickets[_id][mid] */\n      0x00\n        /* \"contracts/LuckyRedEnvelopeV2.sol\":14737:14740  mid */\n      dup4\n        /* \"contracts/LuckyRedEnvelopeV2.sol\":14723:14741  _tickets[_id][mid] */\n      dup2\n      mstore\n      0x20\n      add\n      swap1\n      dup2\n      mstore\n      0x20\n      add\n      0x00\n      keccak256\n        /* \"contracts/LuckyRedEnvelopeV2.sol\":14723:14754  _tickets[_id][mid].totalNumbers */\n      0x00\n      add\n      sload\n        /* \"contracts/LuckyRedEnvelopeV2.sol\":14723:14764  _tickets[_id][mid].totalNumbers <= _index */\n      gt\n        /* \"contracts/LuckyRedEnvelopeV2.sol\":14720:14814  if(_tickets[_id][mid].totalNumbers <= _index){... */\n      tag_446\n      jumpi\n        /* \"contracts/LuckyRedEnvelopeV2.sol\":14797:14798  1 */\n      0x01\n        /* \"contracts/LuckyRedEnvelopeV2.sol\":14791:14794  mid */\n      dup2\n        /* \"contracts/LuckyRedEnvelopeV2.sol\":14791:14798  mid + 1 */\n      tag_447\n      swap2\n      swap1\n      tag_158\n      jump\t// in\n    tag_447:\n        /* \"contracts/LuckyRedEnvelopeV2.sol\":14784:14798  left = mid + 1 */\n      swap3\n      pop\n        /* \"contracts/LuckyRedEnvelopeV2.sol\":14720:14814  if(_tickets[_id][mid].totalNumbers <= _index){... */\n    tag_446:\n        /* \"contracts/LuckyRedEnvelopeV2.sol\":14623:14814  if (_tickets[_id][mid].totalNumbers > _index){... */\n    tag_445:\n        /* \"contracts/LuckyRedEnvelopeV2.sol\":14840:14845  right */\n      dup2\n        /* \"contracts/LuckyRedEnvelopeV2.sol\":14832:14836  left */\n      dup4\n        /* \"contracts/LuckyRedEnvelopeV2.sol\":14832:14845  left >= right */\n      lt\n        /* \"contracts/LuckyRedEnvelopeV2.sol\":14828:14908  if (left >= right){... */\n      tag_448\n      jumpi\n        /* \"contracts/LuckyRedEnvelopeV2.sol\":14872:14880  _tickets */\n      0x08\n        /* \"contracts/LuckyRedEnvelopeV2.sol\":14872:14885  _tickets[_id] */\n      0x00\n        /* \"contracts/LuckyRedEnvelopeV2.sol\":14881:14884  _id */\n      dup8\n        /* \"contracts/LuckyRedEnvelopeV2.sol\":14872:14885  _tickets[_id] */\n      dup2\n      mstore\n      0x20\n      add\n      swap1\n      dup2\n      mstore\n      0x20\n      add\n      0x00\n      keccak256\n        /* \"contracts/LuckyRedEnvelopeV2.sol\":14872:14892  _tickets[_id][right] */\n      0x00\n        /* \"contracts/LuckyRedEnvelopeV2.sol\":14886:14891  right */\n      dup4\n        /* \"contracts/LuckyRedEnvelopeV2.sol\":14872:14892  _tickets[_id][right] */\n      dup2\n      mstore\n      0x20\n      add\n      swap1\n      dup2\n      mstore\n      0x20\n      add\n      0x00\n      keccak256\n        /* \"contracts/LuckyRedEnvelopeV2.sol\":14865:14892  return _tickets[_id][right] */\n      swap4\n      pop\n      pop\n      pop\n      pop\n      jump(tag_432)\n        /* \"contracts/LuckyRedEnvelopeV2.sol\":14828:14908  if (left >= right){... */\n    tag_448:\n        /* \"contracts/LuckyRedEnvelopeV2.sol\":14561:14919  {... */\n      pop\n        /* \"contracts/LuckyRedEnvelopeV2.sol\":14925:14929  true */\n      0x01\n        /* \"contracts/LuckyRedEnvelopeV2.sol\":14559:14931  do{... */\n      tag_438\n      jumpi\n        /* \"contracts/LuckyRedEnvelopeV2.sol\":14948:14956  _tickets */\n      0x08\n        /* \"contracts/LuckyRedEnvelopeV2.sol\":14948:14961  _tickets[_id] */\n      0x00\n        /* \"contracts/LuckyRedEnvelopeV2.sol\":14957:14960  _id */\n      dup7\n        /* \"contracts/LuckyRedEnvelopeV2.sol\":14948:14961  _tickets[_id] */\n      dup2\n      mstore\n      0x20\n      add\n      swap1\n      dup2\n      mstore\n      0x20\n      add\n      0x00\n      keccak256\n        /* \"contracts/LuckyRedEnvelopeV2.sol\":14948:14964  _tickets[_id][0] */\n      0x00\n        /* \"contracts/LuckyRedEnvelopeV2.sol\":14962:14963  0 */\n      dup1\n        /* \"contracts/LuckyRedEnvelopeV2.sol\":14948:14964  _tickets[_id][0] */\n      dup2\n      mstore\n      0x20\n      add\n      swap1\n      dup2\n      mstore\n      0x20\n      add\n      0x00\n      keccak256\n        /* \"contracts/LuckyRedEnvelopeV2.sol\":14941:14964  return _tickets[_id][0] */\n      swap3\n      pop\n      pop\n      pop\n        /* \"contracts/LuckyRedEnvelopeV2.sol\":14213:14972  function _getTicketbyIndex(uint256 _id,uint256 _index) internal view returns (Ticket storage){... */\n    tag_432:\n      swap3\n      swap2\n      pop\n      pop\n      jump\t// out\n        /* \"@openzeppelin/contracts/token/ERC20/utils/SafeERC20.sol\":4059:4688  function _callOptionalReturn(IERC20 token, bytes memory data) private {... */\n    tag_421:\n        /* \"@openzeppelin/contracts/token/ERC20/utils/SafeERC20.sol\":4478:4501  bytes memory returndata */\n      0x00\n        /* \"@openzeppelin/contracts/token/ERC20/utils/SafeERC20.sol\":4504:4537  address(token).functionCall(data) */\n      tag_450\n        /* \"@openzeppelin/contracts/token/ERC20/utils/SafeERC20.sol\":4532:4536  data */\n      dup3\n        /* \"@openzeppelin/contracts/token/ERC20/utils/SafeERC20.sol\":4512:4517  token */\n      dup5\n        /* \"@openzeppelin/contracts/token/ERC20/utils/SafeERC20.sol\":4504:4531  address(token).functionCall */\n      0xffffffffffffffffffffffffffffffffffffffff\n      and\n      tag_451\n      swap1\n        /* \"@openzeppelin/contracts/token/ERC20/utils/SafeERC20.sol\":4504:4537  address(token).functionCall(data) */\n      swap2\n      swap1\n      0xffffffff\n      and\n      jump\t// in\n    tag_450:\n        /* \"@openzeppelin/contracts/token/ERC20/utils/SafeERC20.sol\":4478:4537  bytes memory returndata = address(token).functionCall(data) */\n      swap1\n      pop\n        /* \"@openzeppelin/contracts/token/ERC20/utils/SafeERC20.sol\":4572:4573  0 */\n      0x00\n        /* \"@openzeppelin/contracts/token/ERC20/utils/SafeERC20.sol\":4551:4561  returndata */\n      dup2\n        /* \"@openzeppelin/contracts/token/ERC20/utils/SafeERC20.sol\":4551:4568  returndata.length */\n      mload\n        /* \"@openzeppelin/contracts/token/ERC20/utils/SafeERC20.sol\":4551:4573  returndata.length != 0 */\n      eq\n      iszero\n        /* \"@openzeppelin/contracts/token/ERC20/utils/SafeERC20.sol\":4551:4608  returndata.length != 0 && !abi.decode(returndata, (bool)) */\n      dup1\n      iszero\n      tag_452\n      jumpi\n      pop\n        /* \"@openzeppelin/contracts/token/ERC20/utils/SafeERC20.sol\":4589:4599  returndata */\n      dup1\n        /* \"@openzeppelin/contracts/token/ERC20/utils/SafeERC20.sol\":4578:4608  abi.decode(returndata, (bool)) */\n      dup1\n      0x20\n      add\n      swap1\n      mload\n      dup2\n      add\n      swap1\n      tag_453\n      swap2\n      swap1\n      tag_454\n      jump\t// in\n    tag_453:\n        /* \"@openzeppelin/contracts/token/ERC20/utils/SafeERC20.sol\":4577:4608  !abi.decode(returndata, (bool)) */\n      iszero\n        /* \"@openzeppelin/contracts/token/ERC20/utils/SafeERC20.sol\":4551:4608  returndata.length != 0 && !abi.decode(returndata, (bool)) */\n    tag_452:\n        /* \"@openzeppelin/contracts/token/ERC20/utils/SafeERC20.sol\":4547:4682  if (returndata.length != 0 && !abi.decode(returndata, (bool))) {... */\n      iszero\n      tag_455\n      jumpi\n        /* \"@openzeppelin/contracts/token/ERC20/utils/SafeERC20.sol\":4664:4669  token */\n      dup3\n        /* \"@openzeppelin/contracts/token/ERC20/utils/SafeERC20.sol\":4631:4671  SafeERC20FailedOperation(address(token)) */\n      mload(0x40)\n      0x5274afe700000000000000000000000000000000000000000000000000000000\n      dup2\n      mstore\n      0x04\n      add\n      tag_456\n      swap2\n      swap1\n      tag_52\n      jump\t// in\n    tag_456:\n      mload(0x40)\n      dup1\n      swap2\n      sub\n      swap1\n      revert\n        /* \"@openzeppelin/contracts/token/ERC20/utils/SafeERC20.sol\":4547:4682  if (returndata.length != 0 && !abi.decode(returndata, (bool))) {... */\n    tag_455:\n        /* \"@openzeppelin/contracts/token/ERC20/utils/SafeERC20.sol\":4129:4688  {... */\n      pop\n        /* \"@openzeppelin/contracts/token/ERC20/utils/SafeERC20.sol\":4059:4688  function _callOptionalReturn(IERC20 token, bytes memory data) private {... */\n      pop\n      pop\n      jump\t// out\n        /* \"contracts/LuckyRedEnvelopeV2.sol\":17962:18115  function _leftRotate(uint256 _value,uint32 _shift)internal pure returns(uint256){... */\n    tag_429:\n        /* \"contracts/LuckyRedEnvelopeV2.sol\":18034:18041  uint256 */\n      0x00\n        /* \"contracts/LuckyRedEnvelopeV2.sol\":18099:18105  _shift */\n      dup2\n        /* \"contracts/LuckyRedEnvelopeV2.sol\":18093:18096  256 */\n      0x0100\n        /* \"contracts/LuckyRedEnvelopeV2.sol\":18093:18105  256 - _shift */\n      tag_458\n      swap2\n      swap1\n      tag_459\n      jump\t// in\n    tag_458:\n        /* \"contracts/LuckyRedEnvelopeV2.sol\":18082:18106  _value >> (256 - _shift) */\n      0xffffffff\n      and\n        /* \"contracts/LuckyRedEnvelopeV2.sol\":18082:18088  _value */\n      dup4\n        /* \"contracts/LuckyRedEnvelopeV2.sol\":18082:18106  _value >> (256 - _shift) */\n      swap1\n      shr\n        /* \"contracts/LuckyRedEnvelopeV2.sol\":18071:18077  _shift */\n      dup3\n        /* \"contracts/LuckyRedEnvelopeV2.sol\":18061:18077  _value << _shift */\n      0xffffffff\n      and\n        /* \"contracts/LuckyRedEnvelopeV2.sol\":18061:18067  _value */\n      dup5\n        /* \"contracts/LuckyRedEnvelopeV2.sol\":18061:18077  _value << _shift */\n      swap1\n      shl\n        /* \"contracts/LuckyRedEnvelopeV2.sol\":18060:18107  (_value << _shift) | (_value >> (256 - _shift)) */\n      or\n        /* \"contracts/LuckyRedEnvelopeV2.sol\":18053:18107  return (_value << _shift) | (_value >> (256 - _shift)) */\n      swap1\n      pop\n        /* \"contracts/LuckyRedEnvelopeV2.sol\":17962:18115  function _leftRotate(uint256 _value,uint32 _shift)internal pure returns(uint256){... */\n      swap3\n      swap2\n      pop\n      pop\n      jump\t// out\n        /* \"@openzeppelin/contracts/utils/Address.sol\":2705:2856  function functionCall(address target, bytes memory data) internal returns (bytes memory) {... */\n    tag_451:\n        /* \"@openzeppelin/contracts/utils/Address.sol\":2780:2792  bytes memory */\n      0x60\n        /* \"@openzeppelin/contracts/utils/Address.sol\":2811:2849  functionCallWithValue(target, data, 0) */\n      tag_461\n        /* \"@openzeppelin/contracts/utils/Address.sol\":2833:2839  target */\n      dup4\n        /* \"@openzeppelin/contracts/utils/Address.sol\":2841:2845  data */\n      dup4\n        /* \"@openzeppelin/contracts/utils/Address.sol\":2847:2848  0 */\n      0x00\n        /* \"@openzeppelin/contracts/utils/Address.sol\":2811:2832  functionCallWithValue */\n      tag_462\n        /* \"@openzeppelin/contracts/utils/Address.sol\":2811:2849  functionCallWithValue(target, data, 0) */\n      jump\t// in\n    tag_461:\n        /* \"@openzeppelin/contracts/utils/Address.sol\":2804:2849  return functionCallWithValue(target, data, 0) */\n      swap1\n      pop\n        /* \"@openzeppelin/contracts/utils/Address.sol\":2705:2856  function functionCall(address target, bytes memory data) internal returns (bytes memory) {... */\n      swap3\n      swap2\n      pop\n      pop\n      jump\t// out\n        /* \"@openzeppelin/contracts/utils/Address.sol\":3180:3572  function functionCallWithValue(address target, bytes memory data, uint256 value) internal returns (bytes memory) {... */\n    tag_462:\n        /* \"@openzeppelin/contracts/utils/Address.sol\":3279:3291  bytes memory */\n      0x60\n        /* \"@openzeppelin/contracts/utils/Address.sol\":3331:3336  value */\n      dup2\n        /* \"@openzeppelin/contracts/utils/Address.sol\":3307:3328  address(this).balance */\n      selfbalance\n        /* \"@openzeppelin/contracts/utils/Address.sol\":3307:3336  address(this).balance < value */\n      lt\n        /* \"@openzeppelin/contracts/utils/Address.sol\":3303:3411  if (address(this).balance < value) {... */\n      iszero\n      tag_464\n      jumpi\n        /* \"@openzeppelin/contracts/utils/Address.sol\":3394:3398  this */\n      address\n        /* \"@openzeppelin/contracts/utils/Address.sol\":3359:3400  AddressInsufficientBalance(address(this)) */\n      mload(0x40)\n      0xcd78605900000000000000000000000000000000000000000000000000000000\n      dup2\n      mstore\n      0x04\n      add\n      tag_465\n      swap2\n      swap1\n      tag_52\n      jump\t// in\n    tag_465:\n      mload(0x40)\n      dup1\n      swap2\n      sub\n      swap1\n      revert\n        /* \"@openzeppelin/contracts/utils/Address.sol\":3303:3411  if (address(this).balance < value) {... */\n    tag_464:\n        /* \"@openzeppelin/contracts/utils/Address.sol\":3421:3433  bool success */\n      0x00\n        /* \"@openzeppelin/contracts/utils/Address.sol\":3435:3458  bytes memory returndata */\n      dup1\n        /* \"@openzeppelin/contracts/utils/Address.sol\":3462:3468  target */\n      dup6\n        /* \"@openzeppelin/contracts/utils/Address.sol\":3462:3473  target.call */\n      0xffffffffffffffffffffffffffffffffffffffff\n      and\n        /* \"@openzeppelin/contracts/utils/Address.sol\":3481:3486  value */\n      dup5\n        /* \"@openzeppelin/contracts/utils/Address.sol\":3488:3492  data */\n      dup7\n        /* \"@openzeppelin/contracts/utils/Address.sol\":3462:3493  target.call{value: value}(data) */\n      mload(0x40)\n      tag_466\n      swap2\n      swap1\n      tag_467\n      jump\t// in\n    tag_466:\n      0x00\n      mload(0x40)\n      dup1\n      dup4\n      sub\n      dup2\n      dup6\n      dup8\n      gas\n      call\n      swap3\n      pop\n      pop\n      pop\n      returndatasize\n      dup1\n      0x00\n      dup2\n      eq\n      tag_470\n      jumpi\n      mload(0x40)\n      swap2\n      pop\n      and(add(returndatasize, 0x3f), not(0x1f))\n      dup3\n      add\n      0x40\n      mstore\n      returndatasize\n      dup3\n      mstore\n      returndatasize\n      0x00\n      0x20\n      dup5\n      add\n      returndatacopy\n      jump(tag_469)\n    tag_470:\n      0x60\n      swap2\n      pop\n    tag_469:\n      pop\n        /* \"@openzeppelin/contracts/utils/Address.sol\":3420:3493  (bool success, bytes memory returndata) = target.call{value: value}(data) */\n      swap2\n      pop\n      swap2\n      pop\n        /* \"@openzeppelin/contracts/utils/Address.sol\":3510:3565  verifyCallResultFromTarget(target, success, returndata) */\n      tag_471\n        /* \"@openzeppelin/contracts/utils/Address.sol\":3537:3543  target */\n      dup7\n        /* \"@openzeppelin/contracts/utils/Address.sol\":3545:3552  success */\n      dup4\n        /* \"@openzeppelin/contracts/utils/Address.sol\":3554:3564  returndata */\n      dup4\n        /* \"@openzeppelin/contracts/utils/Address.sol\":3510:3536  verifyCallResultFromTarget */\n      tag_472\n        /* \"@openzeppelin/contracts/utils/Address.sol\":3510:3565  verifyCallResultFromTarget(target, success, returndata) */\n      jump\t// in\n    tag_471:\n        /* \"@openzeppelin/contracts/utils/Address.sol\":3503:3565  return verifyCallResultFromTarget(target, success, returndata) */\n      swap3\n      pop\n      pop\n      pop\n        /* \"@openzeppelin/contracts/utils/Address.sol\":3180:3572  function functionCallWithValue(address target, bytes memory data, uint256 value) internal returns (bytes memory) {... */\n      swap4\n      swap3\n      pop\n      pop\n      pop\n      jump\t// out\n        /* \"@openzeppelin/contracts/utils/Address.sol\":4625:5207  function verifyCallResultFromTarget(... */\n    tag_472:\n        /* \"@openzeppelin/contracts/utils/Address.sol\":4769:4781  bytes memory */\n      0x60\n        /* \"@openzeppelin/contracts/utils/Address.sol\":4798:4805  success */\n      dup3\n        /* \"@openzeppelin/contracts/utils/Address.sol\":4793:5201  if (!success) {... */\n      tag_474\n      jumpi\n        /* \"@openzeppelin/contracts/utils/Address.sol\":4821:4840  _revert(returndata) */\n      tag_475\n        /* \"@openzeppelin/contracts/utils/Address.sol\":4829:4839  returndata */\n      dup3\n        /* \"@openzeppelin/contracts/utils/Address.sol\":4821:4828  _revert */\n      tag_476\n        /* \"@openzeppelin/contracts/utils/Address.sol\":4821:4840  _revert(returndata) */\n      jump\t// in\n    tag_475:\n        /* \"@openzeppelin/contracts/utils/Address.sol\":4793:5201  if (!success) {... */\n      jump(tag_477)\n    tag_474:\n        /* \"@openzeppelin/contracts/utils/Address.sol\":5066:5067  0 */\n      0x00\n        /* \"@openzeppelin/contracts/utils/Address.sol\":5045:5055  returndata */\n      dup3\n        /* \"@openzeppelin/contracts/utils/Address.sol\":5045:5062  returndata.length */\n      mload\n        /* \"@openzeppelin/contracts/utils/Address.sol\":5045:5067  returndata.length == 0 */\n      eq\n        /* \"@openzeppelin/contracts/utils/Address.sol\":5045:5094  returndata.length == 0 && target.code.length == 0 */\n      dup1\n      iszero\n      tag_478\n      jumpi\n      pop\n        /* \"@openzeppelin/contracts/utils/Address.sol\":5093:5094  0 */\n      0x00\n        /* \"@openzeppelin/contracts/utils/Address.sol\":5071:5077  target */\n      dup5\n        /* \"@openzeppelin/contracts/utils/Address.sol\":5071:5089  target.code.length */\n      0xffffffffffffffffffffffffffffffffffffffff\n      and\n      extcodesize\n        /* \"@openzeppelin/contracts/utils/Address.sol\":5071:5094  target.code.length == 0 */\n      eq\n        /* \"@openzeppelin/contracts/utils/Address.sol\":5045:5094  returndata.length == 0 && target.code.length == 0 */\n    tag_478:\n        /* \"@openzeppelin/contracts/utils/Address.sol\":5041:5160  if (returndata.length == 0 && target.code.length == 0) {... */\n      iszero\n      tag_479\n      jumpi\n        /* \"@openzeppelin/contracts/utils/Address.sol\":5138:5144  target */\n      dup4\n        /* \"@openzeppelin/contracts/utils/Address.sol\":5121:5145  AddressEmptyCode(target) */\n      mload(0x40)\n      0x9996b31500000000000000000000000000000000000000000000000000000000\n      dup2\n      mstore\n      0x04\n      add\n      tag_480\n      swap2\n      swap1\n      tag_52\n      jump\t// in\n    tag_480:\n      mload(0x40)\n      dup1\n      swap2\n      sub\n      swap1\n      revert\n        /* \"@openzeppelin/contracts/utils/Address.sol\":5041:5160  if (returndata.length == 0 && target.code.length == 0) {... */\n    tag_479:\n        /* \"@openzeppelin/contracts/utils/Address.sol\":5180:5190  returndata */\n      dup2\n        /* \"@openzeppelin/contracts/utils/Address.sol\":5173:5190  return returndata */\n      swap1\n      pop\n      jump(tag_473)\n        /* \"@openzeppelin/contracts/utils/Address.sol\":4793:5201  if (!success) {... */\n    tag_477:\n        /* \"@openzeppelin/contracts/utils/Address.sol\":4625:5207  function verifyCallResultFromTarget(... */\n    tag_473:\n      swap4\n      swap3\n      pop\n      pop\n      pop\n      jump\t// out\n        /* \"@openzeppelin/contracts/utils/Address.sol\":5743:6259  function _revert(bytes memory returndata) private pure {... */\n    tag_476:\n        /* \"@openzeppelin/contracts/utils/Address.sol\":5894:5895  0 */\n      0x00\n        /* \"@openzeppelin/contracts/utils/Address.sol\":5874:5884  returndata */\n      dup2\n        /* \"@openzeppelin/contracts/utils/Address.sol\":5874:5891  returndata.length */\n      mload\n        /* \"@openzeppelin/contracts/utils/Address.sol\":5874:5895  returndata.length > 0 */\n      gt\n        /* \"@openzeppelin/contracts/utils/Address.sol\":5870:6253  if (returndata.length > 0) {... */\n      iszero\n      tag_482\n      jumpi\n        /* \"@openzeppelin/contracts/utils/Address.sol\":6102:6112  returndata */\n      dup1\n        /* \"@openzeppelin/contracts/utils/Address.sol\":6096:6113  mload(returndata) */\n      mload\n        /* \"@openzeppelin/contracts/utils/Address.sol\":6158:6173  returndata_size */\n      dup1\n        /* \"@openzeppelin/contracts/utils/Address.sol\":6145:6155  returndata */\n      dup3\n        /* \"@openzeppelin/contracts/utils/Address.sol\":6141:6143  32 */\n      0x20\n        /* \"@openzeppelin/contracts/utils/Address.sol\":6137:6156  add(32, returndata) */\n      add\n        /* \"@openzeppelin/contracts/utils/Address.sol\":6130:6174  revert(add(32, returndata), returndata_size) */\n      revert\n        /* \"@openzeppelin/contracts/utils/Address.sol\":5870:6253  if (returndata.length > 0) {... */\n    tag_482:\n        /* \"@openzeppelin/contracts/utils/Address.sol\":6225:6242  FailedInnerCall() */\n      mload(0x40)\n      0x1425ea4200000000000000000000000000000000000000000000000000000000\n      dup2\n      mstore\n      0x04\n      add\n      mload(0x40)\n      dup1\n      swap2\n      sub\n      swap1\n      revert\n        /* \"#utility.yul\":88:205   */\n    tag_485:\n        /* \"#utility.yul\":197:198   */\n      0x00\n        /* \"#utility.yul\":194:195   */\n      dup1\n        /* \"#utility.yul\":187:199   */\n      revert\n        /* \"#utility.yul\":334:411   */\n    tag_487:\n        /* \"#utility.yul\":371:378   */\n      0x00\n        /* \"#utility.yul\":400:405   */\n      dup2\n        /* \"#utility.yul\":389:405   */\n      swap1\n      pop\n        /* \"#utility.yul\":334:411   */\n      swap2\n      swap1\n      pop\n      jump\t// out\n        /* \"#utility.yul\":417:539   */\n    tag_488:\n        /* \"#utility.yul\":490:514   */\n      tag_547\n        /* \"#utility.yul\":508:513   */\n      dup2\n        /* \"#utility.yul\":490:514   */\n      tag_487\n      jump\t// in\n    tag_547:\n        /* \"#utility.yul\":483:488   */\n      dup2\n        /* \"#utility.yul\":480:515   */\n      eq\n        /* \"#utility.yul\":470:533   */\n      tag_548\n      jumpi\n        /* \"#utility.yul\":529:530   */\n      0x00\n        /* \"#utility.yul\":526:527   */\n      dup1\n        /* \"#utility.yul\":519:531   */\n      revert\n        /* \"#utility.yul\":470:533   */\n    tag_548:\n        /* \"#utility.yul\":417:539   */\n      pop\n      jump\t// out\n        /* \"#utility.yul\":545:684   */\n    tag_489:\n        /* \"#utility.yul\":591:596   */\n      0x00\n        /* \"#utility.yul\":629:635   */\n      dup2\n        /* \"#utility.yul\":616:636   */\n      calldataload\n        /* \"#utility.yul\":607:636   */\n      swap1\n      pop\n        /* \"#utility.yul\":645:678   */\n      tag_550\n        /* \"#utility.yul\":672:677   */\n      dup2\n        /* \"#utility.yul\":645:678   */\n      tag_488\n      jump\t// in\n    tag_550:\n        /* \"#utility.yul\":545:684   */\n      swap3\n      swap2\n      pop\n      pop\n      jump\t// out\n        /* \"#utility.yul\":690:1455   */\n    tag_29:\n        /* \"#utility.yul\":776:782   */\n      0x00\n        /* \"#utility.yul\":784:790   */\n      dup1\n        /* \"#utility.yul\":792:798   */\n      0x00\n        /* \"#utility.yul\":800:806   */\n      dup1\n        /* \"#utility.yul\":849:852   */\n      0x80\n        /* \"#utility.yul\":837:846   */\n      dup6\n        /* \"#utility.yul\":828:835   */\n      dup8\n        /* \"#utility.yul\":824:847   */\n      sub\n        /* \"#utility.yul\":820:853   */\n      slt\n        /* \"#utility.yul\":817:937   */\n      iszero\n      tag_552\n      jumpi\n        /* \"#utility.yul\":856:935   */\n      tag_553\n      tag_485\n      jump\t// in\n    tag_553:\n        /* \"#utility.yul\":817:937   */\n    tag_552:\n        /* \"#utility.yul\":976:977   */\n      0x00\n        /* \"#utility.yul\":1001:1054   */\n      tag_554\n        /* \"#utility.yul\":1046:1053   */\n      dup8\n        /* \"#utility.yul\":1037:1043   */\n      dup3\n        /* \"#utility.yul\":1026:1035   */\n      dup9\n        /* \"#utility.yul\":1022:1044   */\n      add\n        /* \"#utility.yul\":1001:1054   */\n      tag_489\n      jump\t// in\n    tag_554:\n        /* \"#utility.yul\":991:1054   */\n      swap5\n      pop\n        /* \"#utility.yul\":947:1064   */\n      pop\n        /* \"#utility.yul\":1103:1105   */\n      0x20\n        /* \"#utility.yul\":1129:1182   */\n      tag_555\n        /* \"#utility.yul\":1174:1181   */\n      dup8\n        /* \"#utility.yul\":1165:1171   */\n      dup3\n        /* \"#utility.yul\":1154:1163   */\n      dup9\n        /* \"#utility.yul\":1150:1172   */\n      add\n        /* \"#utility.yul\":1129:1182   */\n      tag_489\n      jump\t// in\n    tag_555:\n        /* \"#utility.yul\":1119:1182   */\n      swap4\n      pop\n        /* \"#utility.yul\":1074:1192   */\n      pop\n        /* \"#utility.yul\":1231:1233   */\n      0x40\n        /* \"#utility.yul\":1257:1310   */\n      tag_556\n        /* \"#utility.yul\":1302:1309   */\n      dup8\n        /* \"#utility.yul\":1293:1299   */\n      dup3\n        /* \"#utility.yul\":1282:1291   */\n      dup9\n        /* \"#utility.yul\":1278:1300   */\n      add\n        /* \"#utility.yul\":1257:1310   */\n      tag_489\n      jump\t// in\n    tag_556:\n        /* \"#utility.yul\":1247:1310   */\n      swap3\n      pop\n        /* \"#utility.yul\":1202:1320   */\n      pop\n        /* \"#utility.yul\":1359:1361   */\n      0x60\n        /* \"#utility.yul\":1385:1438   */\n      tag_557\n        /* \"#utility.yul\":1430:1437   */\n      dup8\n        /* \"#utility.yul\":1421:1427   */\n      dup3\n        /* \"#utility.yul\":1410:1419   */\n      dup9\n        /* \"#utility.yul\":1406:1428   */\n      add\n        /* \"#utility.yul\":1385:1438   */\n      tag_489\n      jump\t// in\n    tag_557:\n        /* \"#utility.yul\":1375:1438   */\n      swap2\n      pop\n        /* \"#utility.yul\":1330:1448   */\n      pop\n        /* \"#utility.yul\":690:1455   */\n      swap3\n      swap6\n      swap2\n      swap5\n      pop\n      swap3\n      pop\n      jump\t// out\n        /* \"#utility.yul\":1461:1790   */\n    tag_33:\n        /* \"#utility.yul\":1520:1526   */\n      0x00\n        /* \"#utility.yul\":1569:1571   */\n      0x20\n        /* \"#utility.yul\":1557:1566   */\n      dup3\n        /* \"#utility.yul\":1548:1555   */\n      dup5\n        /* \"#utility.yul\":1544:1567   */\n      sub\n        /* \"#utility.yul\":1540:1572   */\n      slt\n        /* \"#utility.yul\":1537:1656   */\n      iszero\n      tag_559\n      jumpi\n        /* \"#utility.yul\":1575:1654   */\n      tag_560\n      tag_485\n      jump\t// in\n    tag_560:\n        /* \"#utility.yul\":1537:1656   */\n    tag_559:\n        /* \"#utility.yul\":1695:1696   */\n      0x00\n        /* \"#utility.yul\":1720:1773   */\n      tag_561\n        /* \"#utility.yul\":1765:1772   */\n      dup5\n        /* \"#utility.yul\":1756:1762   */\n      dup3\n        /* \"#utility.yul\":1745:1754   */\n      dup6\n        /* \"#utility.yul\":1741:1763   */\n      add\n        /* \"#utility.yul\":1720:1773   */\n      tag_489\n      jump\t// in\n    tag_561:\n        /* \"#utility.yul\":1710:1773   */\n      swap2\n      pop\n        /* \"#utility.yul\":1666:1783   */\n      pop\n        /* \"#utility.yul\":1461:1790   */\n      swap3\n      swap2\n      pop\n      pop\n      jump\t// out\n        /* \"#utility.yul\":1796:1922   */\n    tag_490:\n        /* \"#utility.yul\":1833:1840   */\n      0x00\n        /* \"#utility.yul\":1873:1915   */\n      0xffffffffffffffffffffffffffffffffffffffff\n        /* \"#utility.yul\":1866:1871   */\n      dup3\n        /* \"#utility.yul\":1862:1916   */\n      and\n        /* \"#utility.yul\":1851:1916   */\n      swap1\n      pop\n        /* \"#utility.yul\":1796:1922   */\n      swap2\n      swap1\n      pop\n      jump\t// out\n        /* \"#utility.yul\":1928:2024   */\n    tag_491:\n        /* \"#utility.yul\":1965:1972   */\n      0x00\n        /* \"#utility.yul\":1994:2018   */\n      tag_564\n        /* \"#utility.yul\":2012:2017   */\n      dup3\n        /* \"#utility.yul\":1994:2018   */\n      tag_490\n      jump\t// in\n    tag_564:\n        /* \"#utility.yul\":1983:2018   */\n      swap1\n      pop\n        /* \"#utility.yul\":1928:2024   */\n      swap2\n      swap1\n      pop\n      jump\t// out\n        /* \"#utility.yul\":2030:2152   */\n    tag_492:\n        /* \"#utility.yul\":2103:2127   */\n      tag_566\n        /* \"#utility.yul\":2121:2126   */\n      dup2\n        /* \"#utility.yul\":2103:2127   */\n      tag_491\n      jump\t// in\n    tag_566:\n        /* \"#utility.yul\":2096:2101   */\n      dup2\n        /* \"#utility.yul\":2093:2128   */\n      eq\n        /* \"#utility.yul\":2083:2146   */\n      tag_567\n      jumpi\n        /* \"#utility.yul\":2142:2143   */\n      0x00\n        /* \"#utility.yul\":2139:2140   */\n      dup1\n        /* \"#utility.yul\":2132:2144   */\n      revert\n        /* \"#utility.yul\":2083:2146   */\n    tag_567:\n        /* \"#utility.yul\":2030:2152   */\n      pop\n      jump\t// out\n        /* \"#utility.yul\":2158:2297   */\n    tag_493:\n        /* \"#utility.yul\":2204:2209   */\n      0x00\n        /* \"#utility.yul\":2242:2248   */\n      dup2\n        /* \"#utility.yul\":2229:2249   */\n      calldataload\n        /* \"#utility.yul\":2220:2249   */\n      swap1\n      pop\n        /* \"#utility.yul\":2258:2291   */\n      tag_569\n        /* \"#utility.yul\":2285:2290   */\n      dup2\n        /* \"#utility.yul\":2258:2291   */\n      tag_492\n      jump\t// in\n    tag_569:\n        /* \"#utility.yul\":2158:2297   */\n      swap3\n      swap2\n      pop\n      pop\n      jump\t// out\n        /* \"#utility.yul\":2303:2922   */\n    tag_37:\n        /* \"#utility.yul\":2380:2386   */\n      0x00\n        /* \"#utility.yul\":2388:2394   */\n      dup1\n        /* \"#utility.yul\":2396:2402   */\n      0x00\n        /* \"#utility.yul\":2445:2447   */\n      0x60\n        /* \"#utility.yul\":2433:2442   */\n      dup5\n        /* \"#utility.yul\":2424:2431   */\n      dup7\n        /* \"#utility.yul\":2420:2443   */\n      sub\n        /* \"#utility.yul\":2416:2448   */\n      slt\n        /* \"#utility.yul\":2413:2532   */\n      iszero\n      tag_571\n      jumpi\n        /* \"#utility.yul\":2451:2530   */\n      tag_572\n      tag_485\n      jump\t// in\n    tag_572:\n        /* \"#utility.yul\":2413:2532   */\n    tag_571:\n        /* \"#utility.yul\":2571:2572   */\n      0x00\n        /* \"#utility.yul\":2596:2649   */\n      tag_573\n        /* \"#utility.yul\":2641:2648   */\n      dup7\n        /* \"#utility.yul\":2632:2638   */\n      dup3\n        /* \"#utility.yul\":2621:2630   */\n      dup8\n        /* \"#utility.yul\":2617:2639   */\n      add\n        /* \"#utility.yul\":2596:2649   */\n      tag_489\n      jump\t// in\n    tag_573:\n        /* \"#utility.yul\":2586:2649   */\n      swap4\n      pop\n        /* \"#utility.yul\":2542:2659   */\n      pop\n        /* \"#utility.yul\":2698:2700   */\n      0x20\n        /* \"#utility.yul\":2724:2777   */\n      tag_574\n        /* \"#utility.yul\":2769:2776   */\n      dup7\n        /* \"#utility.yul\":2760:2766   */\n      dup3\n        /* \"#utility.yul\":2749:2758   */\n      dup8\n        /* \"#utility.yul\":2745:2767   */\n      add\n        /* \"#utility.yul\":2724:2777   */\n      tag_493\n      jump\t// in\n    tag_574:\n        /* \"#utility.yul\":2714:2777   */\n      swap3\n      pop\n        /* \"#utility.yul\":2669:2787   */\n      pop\n        /* \"#utility.yul\":2826:2828   */\n      0x40\n        /* \"#utility.yul\":2852:2905   */\n      tag_575\n        /* \"#utility.yul\":2897:2904   */\n      dup7\n        /* \"#utility.yul\":2888:2894   */\n      dup3\n        /* \"#utility.yul\":2877:2886   */\n      dup8\n        /* \"#utility.yul\":2873:2895   */\n      add\n        /* \"#utility.yul\":2852:2905   */\n      tag_489\n      jump\t// in\n    tag_575:\n        /* \"#utility.yul\":2842:2905   */\n      swap2\n      pop\n        /* \"#utility.yul\":2797:2915   */\n      pop\n        /* \"#utility.yul\":2303:2922   */\n      swap3\n      pop\n      swap3\n      pop\n      swap3\n      jump\t// out\n        /* \"#utility.yul\":2928:3046   */\n    tag_494:\n        /* \"#utility.yul\":3015:3039   */\n      tag_577\n        /* \"#utility.yul\":3033:3038   */\n      dup2\n        /* \"#utility.yul\":3015:3039   */\n      tag_487\n      jump\t// in\n    tag_577:\n        /* \"#utility.yul\":3010:3013   */\n      dup3\n        /* \"#utility.yul\":3003:3040   */\n      mstore\n        /* \"#utility.yul\":2928:3046   */\n      pop\n      pop\n      jump\t// out\n        /* \"#utility.yul\":3052:3274   */\n    tag_42:\n        /* \"#utility.yul\":3145:3149   */\n      0x00\n        /* \"#utility.yul\":3183:3185   */\n      0x20\n        /* \"#utility.yul\":3172:3181   */\n      dup3\n        /* \"#utility.yul\":3168:3186   */\n      add\n        /* \"#utility.yul\":3160:3186   */\n      swap1\n      pop\n        /* \"#utility.yul\":3196:3267   */\n      tag_579\n        /* \"#utility.yul\":3264:3265   */\n      0x00\n        /* \"#utility.yul\":3253:3262   */\n      dup4\n        /* \"#utility.yul\":3249:3266   */\n      add\n        /* \"#utility.yul\":3240:3246   */\n      dup5\n        /* \"#utility.yul\":3196:3267   */\n      tag_494\n      jump\t// in\n    tag_579:\n        /* \"#utility.yul\":3052:3274   */\n      swap3\n      swap2\n      pop\n      pop\n      jump\t// out\n        /* \"#utility.yul\":3280:3754   */\n    tag_45:\n        /* \"#utility.yul\":3348:3354   */\n      0x00\n        /* \"#utility.yul\":3356:3362   */\n      dup1\n        /* \"#utility.yul\":3405:3407   */\n      0x40\n        /* \"#utility.yul\":3393:3402   */\n      dup4\n        /* \"#utility.yul\":3384:3391   */\n      dup6\n        /* \"#utility.yul\":3380:3403   */\n      sub\n        /* \"#utility.yul\":3376:3408   */\n      slt\n        /* \"#utility.yul\":3373:3492   */\n      iszero\n      tag_581\n      jumpi\n        /* \"#utility.yul\":3411:3490   */\n      tag_582\n      tag_485\n      jump\t// in\n    tag_582:\n        /* \"#utility.yul\":3373:3492   */\n    tag_581:\n        /* \"#utility.yul\":3531:3532   */\n      0x00\n        /* \"#utility.yul\":3556:3609   */\n      tag_583\n        /* \"#utility.yul\":3601:3608   */\n      dup6\n        /* \"#utility.yul\":3592:3598   */\n      dup3\n        /* \"#utility.yul\":3581:3590   */\n      dup7\n        /* \"#utility.yul\":3577:3599   */\n      add\n        /* \"#utility.yul\":3556:3609   */\n      tag_489\n      jump\t// in\n    tag_583:\n        /* \"#utility.yul\":3546:3609   */\n      swap3\n      pop\n        /* \"#utility.yul\":3502:3619   */\n      pop\n        /* \"#utility.yul\":3658:3660   */\n      0x20\n        /* \"#utility.yul\":3684:3737   */\n      tag_584\n        /* \"#utility.yul\":3729:3736   */\n      dup6\n        /* \"#utility.yul\":3720:3726   */\n      dup3\n        /* \"#utility.yul\":3709:3718   */\n      dup7\n        /* \"#utility.yul\":3705:3727   */\n      add\n        /* \"#utility.yul\":3684:3737   */\n      tag_489\n      jump\t// in\n    tag_584:\n        /* \"#utility.yul\":3674:3737   */\n      swap2\n      pop\n        /* \"#utility.yul\":3629:3747   */\n      pop\n        /* \"#utility.yul\":3280:3754   */\n      swap3\n      pop\n      swap3\n      swap1\n      pop\n      jump\t// out\n        /* \"#utility.yul\":3760:3878   */\n    tag_495:\n        /* \"#utility.yul\":3847:3871   */\n      tag_586\n        /* \"#utility.yul\":3865:3870   */\n      dup2\n        /* \"#utility.yul\":3847:3871   */\n      tag_491\n      jump\t// in\n    tag_586:\n        /* \"#utility.yul\":3842:3845   */\n      dup3\n        /* \"#utility.yul\":3835:3872   */\n      mstore\n        /* \"#utility.yul\":3760:3878   */\n      pop\n      pop\n      jump\t// out\n        /* \"#utility.yul\":3884:4106   */\n    tag_52:\n        /* \"#utility.yul\":3977:3981   */\n      0x00\n        /* \"#utility.yul\":4015:4017   */\n      0x20\n        /* \"#utility.yul\":4004:4013   */\n      dup3\n        /* \"#utility.yul\":4000:4018   */\n      add\n        /* \"#utility.yul\":3992:4018   */\n      swap1\n      pop\n        /* \"#utility.yul\":4028:4099   */\n      tag_588\n        /* \"#utility.yul\":4096:4097   */\n      0x00\n        /* \"#utility.yul\":4085:4094   */\n      dup4\n        /* \"#utility.yul\":4081:4098   */\n      add\n        /* \"#utility.yul\":4072:4078   */\n      dup5\n        /* \"#utility.yul\":4028:4099   */\n      tag_495\n      jump\t// in\n    tag_588:\n        /* \"#utility.yul\":3884:4106   */\n      swap3\n      swap2\n      pop\n      pop\n      jump\t// out\n        /* \"#utility.yul\":4112:4586   */\n    tag_55:\n        /* \"#utility.yul\":4180:4186   */\n      0x00\n        /* \"#utility.yul\":4188:4194   */\n      dup1\n        /* \"#utility.yul\":4237:4239   */\n      0x40\n        /* \"#utility.yul\":4225:4234   */\n      dup4\n        /* \"#utility.yul\":4216:4223   */\n      dup6\n        /* \"#utility.yul\":4212:4235   */\n      sub\n        /* \"#utility.yul\":4208:4240   */\n      slt\n        /* \"#utility.yul\":4205:4324   */\n      iszero\n      tag_590\n      jumpi\n        /* \"#utility.yul\":4243:4322   */\n      tag_591\n      tag_485\n      jump\t// in\n    tag_591:\n        /* \"#utility.yul\":4205:4324   */\n    tag_590:\n        /* \"#utility.yul\":4363:4364   */\n      0x00\n        /* \"#utility.yul\":4388:4441   */\n      tag_592\n        /* \"#utility.yul\":4433:4440   */\n      dup6\n        /* \"#utility.yul\":4424:4430   */\n      dup3\n        /* \"#utility.yul\":4413:4422   */\n      dup7\n        /* \"#utility.yul\":4409:4431   */\n      add\n        /* \"#utility.yul\":4388:4441   */\n      tag_493\n      jump\t// in\n    tag_592:\n        /* \"#utility.yul\":4378:4441   */\n      swap3\n      pop\n        /* \"#utility.yul\":4334:4451   */\n      pop\n        /* \"#utility.yul\":4490:4492   */\n      0x20\n        /* \"#utility.yul\":4516:4569   */\n      tag_593\n        /* \"#utility.yul\":4561:4568   */\n      dup6\n        /* \"#utility.yul\":4552:4558   */\n      dup3\n        /* \"#utility.yul\":4541:4550   */\n      dup7\n        /* \"#utility.yul\":4537:4559   */\n      add\n        /* \"#utility.yul\":4516:4569   */\n      tag_489\n      jump\t// in\n    tag_593:\n        /* \"#utility.yul\":4506:4569   */\n      swap2\n      pop\n        /* \"#utility.yul\":4461:4579   */\n      pop\n        /* \"#utility.yul\":4112:4586   */\n      swap3\n      pop\n      swap3\n      swap1\n      pop\n      jump\t// out\n        /* \"#utility.yul\":4592:4682   */\n    tag_496:\n        /* \"#utility.yul\":4626:4633   */\n      0x00\n        /* \"#utility.yul\":4669:4674   */\n      dup2\n        /* \"#utility.yul\":4662:4675   */\n      iszero\n        /* \"#utility.yul\":4655:4676   */\n      iszero\n        /* \"#utility.yul\":4644:4676   */\n      swap1\n      pop\n        /* \"#utility.yul\":4592:4682   */\n      swap2\n      swap1\n      pop\n      jump\t// out\n        /* \"#utility.yul\":4688:4797   */\n    tag_497:\n        /* \"#utility.yul\":4769:4790   */\n      tag_596\n        /* \"#utility.yul\":4784:4789   */\n      dup2\n        /* \"#utility.yul\":4769:4790   */\n      tag_496\n      jump\t// in\n    tag_596:\n        /* \"#utility.yul\":4764:4767   */\n      dup3\n        /* \"#utility.yul\":4757:4791   */\n      mstore\n        /* \"#utility.yul\":4688:4797   */\n      pop\n      pop\n      jump\t// out\n        /* \"#utility.yul\":4803:5013   */\n    tag_66:\n        /* \"#utility.yul\":4890:4894   */\n      0x00\n        /* \"#utility.yul\":4928:4930   */\n      0x20\n        /* \"#utility.yul\":4917:4926   */\n      dup3\n        /* \"#utility.yul\":4913:4931   */\n      add\n        /* \"#utility.yul\":4905:4931   */\n      swap1\n      pop\n        /* \"#utility.yul\":4941:5006   */\n      tag_598\n        /* \"#utility.yul\":5003:5004   */\n      0x00\n        /* \"#utility.yul\":4992:5001   */\n      dup4\n        /* \"#utility.yul\":4988:5005   */\n      add\n        /* \"#utility.yul\":4979:4985   */\n      dup5\n        /* \"#utility.yul\":4941:5006   */\n      tag_497\n      jump\t// in\n    tag_598:\n        /* \"#utility.yul\":4803:5013   */\n      swap3\n      swap2\n      pop\n      pop\n      jump\t// out\n        /* \"#utility.yul\":5019:6514   */\n    tag_69:\n        /* \"#utility.yul\":5150:5156   */\n      0x00\n        /* \"#utility.yul\":5158:5164   */\n      dup1\n        /* \"#utility.yul\":5166:5172   */\n      0x00\n        /* \"#utility.yul\":5174:5180   */\n      dup1\n        /* \"#utility.yul\":5182:5188   */\n      0x00\n        /* \"#utility.yul\":5190:5196   */\n      dup1\n        /* \"#utility.yul\":5198:5204   */\n      0x00\n        /* \"#utility.yul\":5206:5212   */\n      dup1\n        /* \"#utility.yul\":5214:5220   */\n      0x00\n        /* \"#utility.yul\":5263:5266   */\n      0x0120\n        /* \"#utility.yul\":5251:5260   */\n      dup11\n        /* \"#utility.yul\":5242:5249   */\n      dup13\n        /* \"#utility.yul\":5238:5261   */\n      sub\n        /* \"#utility.yul\":5234:5267   */\n      slt\n        /* \"#utility.yul\":5231:5351   */\n      iszero\n      tag_600\n      jumpi\n        /* \"#utility.yul\":5270:5349   */\n      tag_601\n      tag_485\n      jump\t// in\n    tag_601:\n        /* \"#utility.yul\":5231:5351   */\n    tag_600:\n        /* \"#utility.yul\":5390:5391   */\n      0x00\n        /* \"#utility.yul\":5415:5468   */\n      tag_602\n        /* \"#utility.yul\":5460:5467   */\n      dup13\n        /* \"#utility.yul\":5451:5457   */\n      dup3\n        /* \"#utility.yul\":5440:5449   */\n      dup14\n        /* \"#utility.yul\":5436:5458   */\n      add\n        /* \"#utility.yul\":5415:5468   */\n      tag_493\n      jump\t// in\n    tag_602:\n        /* \"#utility.yul\":5405:5468   */\n      swap10\n      pop\n        /* \"#utility.yul\":5361:5478   */\n      pop\n        /* \"#utility.yul\":5517:5519   */\n      0x20\n        /* \"#utility.yul\":5543:5596   */\n      tag_603\n        /* \"#utility.yul\":5588:5595   */\n      dup13\n        /* \"#utility.yul\":5579:5585   */\n      dup3\n        /* \"#utility.yul\":5568:5577   */\n      dup14\n        /* \"#utility.yul\":5564:5586   */\n      add\n        /* \"#utility.yul\":5543:5596   */\n      tag_489\n      jump\t// in\n    tag_603:\n        /* \"#utility.yul\":5533:5596   */\n      swap9\n      pop\n        /* \"#utility.yul\":5488:5606   */\n      pop\n        /* \"#utility.yul\":5645:5647   */\n      0x40\n        /* \"#utility.yul\":5671:5724   */\n      tag_604\n        /* \"#utility.yul\":5716:5723   */\n      dup13\n        /* \"#utility.yul\":5707:5713   */\n      dup3\n        /* \"#utility.yul\":5696:5705   */\n      dup14\n        /* \"#utility.yul\":5692:5714   */\n      add\n        /* \"#utility.yul\":5671:5724   */\n      tag_489\n      jump\t// in\n    tag_604:\n        /* \"#utility.yul\":5661:5724   */\n      swap8\n      pop\n        /* \"#utility.yul\":5616:5734   */\n      pop\n        /* \"#utility.yul\":5773:5775   */\n      0x60\n        /* \"#utility.yul\":5799:5852   */\n      tag_605\n        /* \"#utility.yul\":5844:5851   */\n      dup13\n        /* \"#utility.yul\":5835:5841   */\n      dup3\n        /* \"#utility.yul\":5824:5833   */\n      dup14\n        /* \"#utility.yul\":5820:5842   */\n      add\n        /* \"#utility.yul\":5799:5852   */\n      tag_489\n      jump\t// in\n    tag_605:\n        /* \"#utility.yul\":5789:5852   */\n      swap7\n      pop\n        /* \"#utility.yul\":5744:5862   */\n      pop\n        /* \"#utility.yul\":5901:5904   */\n      0x80\n        /* \"#utility.yul\":5928:5981   */\n      tag_606\n        /* \"#utility.yul\":5973:5980   */\n      dup13\n        /* \"#utility.yul\":5964:5970   */\n      dup3\n        /* \"#utility.yul\":5953:5962   */\n      dup14\n        /* \"#utility.yul\":5949:5971   */\n      add\n        /* \"#utility.yul\":5928:5981   */\n      tag_489\n      jump\t// in\n    tag_606:\n        /* \"#utility.yul\":5918:5981   */\n      swap6\n      pop\n        /* \"#utility.yul\":5872:5991   */\n      pop\n        /* \"#utility.yul\":6030:6033   */\n      0xa0\n        /* \"#utility.yul\":6057:6110   */\n      tag_607\n        /* \"#utility.yul\":6102:6109   */\n      dup13\n        /* \"#utility.yul\":6093:6099   */\n      dup3\n        /* \"#utility.yul\":6082:6091   */\n      dup14\n        /* \"#utility.yul\":6078:6100   */\n      add\n        /* \"#utility.yul\":6057:6110   */\n      tag_493\n      jump\t// in\n    tag_607:\n        /* \"#utility.yul\":6047:6110   */\n      swap5\n      pop\n        /* \"#utility.yul\":6001:6120   */\n      pop\n        /* \"#utility.yul\":6159:6162   */\n      0xc0\n        /* \"#utility.yul\":6186:6239   */\n      tag_608\n        /* \"#utility.yul\":6231:6238   */\n      dup13\n        /* \"#utility.yul\":6222:6228   */\n      dup3\n        /* \"#utility.yul\":6211:6220   */\n      dup14\n        /* \"#utility.yul\":6207:6229   */\n      add\n        /* \"#utility.yul\":6186:6239   */\n      tag_489\n      jump\t// in\n    tag_608:\n        /* \"#utility.yul\":6176:6239   */\n      swap4\n      pop\n        /* \"#utility.yul\":6130:6249   */\n      pop\n        /* \"#utility.yul\":6288:6291   */\n      0xe0\n        /* \"#utility.yul\":6315:6368   */\n      tag_609\n        /* \"#utility.yul\":6360:6367   */\n      dup13\n        /* \"#utility.yul\":6351:6357   */\n      dup3\n        /* \"#utility.yul\":6340:6349   */\n      dup14\n        /* \"#utility.yul\":6336:6358   */\n      add\n        /* \"#utility.yul\":6315:6368   */\n      tag_493\n      jump\t// in\n    tag_609:\n        /* \"#utility.yul\":6305:6368   */\n      swap3\n      pop\n        /* \"#utility.yul\":6259:6378   */\n      pop\n        /* \"#utility.yul\":6417:6420   */\n      0x0100\n        /* \"#utility.yul\":6444:6497   */\n      tag_610\n        /* \"#utility.yul\":6489:6496   */\n      dup13\n        /* \"#utility.yul\":6480:6486   */\n      dup3\n        /* \"#utility.yul\":6469:6478   */\n      dup14\n        /* \"#utility.yul\":6465:6487   */\n      add\n        /* \"#utility.yul\":6444:6497   */\n      tag_489\n      jump\t// in\n    tag_610:\n        /* \"#utility.yul\":6434:6497   */\n      swap2\n      pop\n        /* \"#utility.yul\":6388:6507   */\n      pop\n        /* \"#utility.yul\":5019:6514   */\n      swap3\n      swap6\n      swap9\n      pop\n      swap3\n      swap6\n      swap9\n      pop\n      swap3\n      swap6\n      swap9\n      jump\t// out\n        /* \"#utility.yul\":6520:6849   */\n    tag_73:\n        /* \"#utility.yul\":6579:6585   */\n      0x00\n        /* \"#utility.yul\":6628:6630   */\n      0x20\n        /* \"#utility.yul\":6616:6625   */\n      dup3\n        /* \"#utility.yul\":6607:6614   */\n      dup5\n        /* \"#utility.yul\":6603:6626   */\n      sub\n        /* \"#utility.yul\":6599:6631   */\n      slt\n        /* \"#utility.yul\":6596:6715   */\n      iszero\n      tag_612\n      jumpi\n        /* \"#utility.yul\":6634:6713   */\n      tag_613\n      tag_485\n      jump\t// in\n    tag_613:\n        /* \"#utility.yul\":6596:6715   */\n    tag_612:\n        /* \"#utility.yul\":6754:6755   */\n      0x00\n        /* \"#utility.yul\":6779:6832   */\n      tag_614\n        /* \"#utility.yul\":6824:6831   */\n      dup5\n        /* \"#utility.yul\":6815:6821   */\n      dup3\n        /* \"#utility.yul\":6804:6813   */\n      dup6\n        /* \"#utility.yul\":6800:6822   */\n      add\n        /* \"#utility.yul\":6779:6832   */\n      tag_493\n      jump\t// in\n    tag_614:\n        /* \"#utility.yul\":6769:6832   */\n      swap2\n      pop\n        /* \"#utility.yul\":6725:6842   */\n      pop\n        /* \"#utility.yul\":6520:6849   */\n      swap3\n      swap2\n      pop\n      pop\n      jump\t// out\n        /* \"#utility.yul\":6855:6971   */\n    tag_498:\n        /* \"#utility.yul\":6925:6946   */\n      tag_616\n        /* \"#utility.yul\":6940:6945   */\n      dup2\n        /* \"#utility.yul\":6925:6946   */\n      tag_496\n      jump\t// in\n    tag_616:\n        /* \"#utility.yul\":6918:6923   */\n      dup2\n        /* \"#utility.yul\":6915:6947   */\n      eq\n        /* \"#utility.yul\":6905:6965   */\n      tag_617\n      jumpi\n        /* \"#utility.yul\":6961:6962   */\n      0x00\n        /* \"#utility.yul\":6958:6959   */\n      dup1\n        /* \"#utility.yul\":6951:6963   */\n      revert\n        /* \"#utility.yul\":6905:6965   */\n    tag_617:\n        /* \"#utility.yul\":6855:6971   */\n      pop\n      jump\t// out\n        /* \"#utility.yul\":6977:7110   */\n    tag_499:\n        /* \"#utility.yul\":7020:7025   */\n      0x00\n        /* \"#utility.yul\":7058:7064   */\n      dup2\n        /* \"#utility.yul\":7045:7065   */\n      calldataload\n        /* \"#utility.yul\":7036:7065   */\n      swap1\n      pop\n        /* \"#utility.yul\":7074:7104   */\n      tag_619\n        /* \"#utility.yul\":7098:7103   */\n      dup2\n        /* \"#utility.yul\":7074:7104   */\n      tag_498\n      jump\t// in\n    tag_619:\n        /* \"#utility.yul\":6977:7110   */\n      swap3\n      swap2\n      pop\n      pop\n      jump\t// out\n        /* \"#utility.yul\":7116:7584   */\n    tag_87:\n        /* \"#utility.yul\":7181:7187   */\n      0x00\n        /* \"#utility.yul\":7189:7195   */\n      dup1\n        /* \"#utility.yul\":7238:7240   */\n      0x40\n        /* \"#utility.yul\":7226:7235   */\n      dup4\n        /* \"#utility.yul\":7217:7224   */\n      dup6\n        /* \"#utility.yul\":7213:7236   */\n      sub\n        /* \"#utility.yul\":7209:7241   */\n      slt\n        /* \"#utility.yul\":7206:7325   */\n      iszero\n      tag_621\n      jumpi\n        /* \"#utility.yul\":7244:7323   */\n      tag_622\n      tag_485\n      jump\t// in\n    tag_622:\n        /* \"#utility.yul\":7206:7325   */\n    tag_621:\n        /* \"#utility.yul\":7364:7365   */\n      0x00\n        /* \"#utility.yul\":7389:7442   */\n      tag_623\n        /* \"#utility.yul\":7434:7441   */\n      dup6\n        /* \"#utility.yul\":7425:7431   */\n      dup3\n        /* \"#utility.yul\":7414:7423   */\n      dup7\n        /* \"#utility.yul\":7410:7432   */\n      add\n        /* \"#utility.yul\":7389:7442   */\n      tag_493\n      jump\t// in\n    tag_623:\n        /* \"#utility.yul\":7379:7442   */\n      swap3\n      pop\n        /* \"#utility.yul\":7335:7452   */\n      pop\n        /* \"#utility.yul\":7491:7493   */\n      0x20\n        /* \"#utility.yul\":7517:7567   */\n      tag_624\n        /* \"#utility.yul\":7559:7566   */\n      dup6\n        /* \"#utility.yul\":7550:7556   */\n      dup3\n        /* \"#utility.yul\":7539:7548   */\n      dup7\n        /* \"#utility.yul\":7535:7557   */\n      add\n        /* \"#utility.yul\":7517:7567   */\n      tag_499\n      jump\t// in\n    tag_624:\n        /* \"#utility.yul\":7507:7567   */\n      swap2\n      pop\n        /* \"#utility.yul\":7462:7577   */\n      pop\n        /* \"#utility.yul\":7116:7584   */\n      swap3\n      pop\n      swap3\n      swap1\n      pop\n      jump\t// out\n        /* \"#utility.yul\":7590:7913   */\n    tag_97:\n        /* \"#utility.yul\":7646:7652   */\n      0x00\n        /* \"#utility.yul\":7695:7697   */\n      0x20\n        /* \"#utility.yul\":7683:7692   */\n      dup3\n        /* \"#utility.yul\":7674:7681   */\n      dup5\n        /* \"#utility.yul\":7670:7693   */\n      sub\n        /* \"#utility.yul\":7666:7698   */\n      slt\n        /* \"#utility.yul\":7663:7782   */\n      iszero\n      tag_626\n      jumpi\n        /* \"#utility.yul\":7701:7780   */\n      tag_627\n      tag_485\n      jump\t// in\n    tag_627:\n        /* \"#utility.yul\":7663:7782   */\n    tag_626:\n        /* \"#utility.yul\":7821:7822   */\n      0x00\n        /* \"#utility.yul\":7846:7896   */\n      tag_628\n        /* \"#utility.yul\":7888:7895   */\n      dup5\n        /* \"#utility.yul\":7879:7885   */\n      dup3\n        /* \"#utility.yul\":7868:7877   */\n      dup6\n        /* \"#utility.yul\":7864:7886   */\n      add\n        /* \"#utility.yul\":7846:7896   */\n      tag_499\n      jump\t// in\n    tag_628:\n        /* \"#utility.yul\":7836:7896   */\n      swap2\n      pop\n        /* \"#utility.yul\":7792:7906   */\n      pop\n        /* \"#utility.yul\":7590:7913   */\n      swap3\n      swap2\n      pop\n      pop\n      jump\t// out\n        /* \"#utility.yul\":7919:8088   */\n    tag_500:\n        /* \"#utility.yul\":8003:8014   */\n      0x00\n        /* \"#utility.yul\":8037:8043   */\n      dup3\n        /* \"#utility.yul\":8032:8035   */\n      dup3\n        /* \"#utility.yul\":8025:8044   */\n      mstore\n        /* \"#utility.yul\":8077:8081   */\n      0x20\n        /* \"#utility.yul\":8072:8075   */\n      dup3\n        /* \"#utility.yul\":8068:8082   */\n      add\n        /* \"#utility.yul\":8053:8082   */\n      swap1\n      pop\n        /* \"#utility.yul\":7919:8088   */\n      swap3\n      swap2\n      pop\n      pop\n      jump\t// out\n        /* \"#utility.yul\":8094:8256   */\n    tag_501:\n        /* \"#utility.yul\":8234:8248   */\n      0x4e6f74206f70657261746f720000000000000000000000000000000000000000\n        /* \"#utility.yul\":8230:8231   */\n      0x00\n        /* \"#utility.yul\":8222:8228   */\n      dup3\n        /* \"#utility.yul\":8218:8232   */\n      add\n        /* \"#utility.yul\":8211:8249   */\n      mstore\n        /* \"#utility.yul\":8094:8256   */\n      pop\n      jump\t// out\n        /* \"#utility.yul\":8262:8628   */\n    tag_502:\n        /* \"#utility.yul\":8404:8407   */\n      0x00\n        /* \"#utility.yul\":8425:8492   */\n      tag_632\n        /* \"#utility.yul\":8489:8491   */\n      0x0c\n        /* \"#utility.yul\":8484:8487   */\n      dup4\n        /* \"#utility.yul\":8425:8492   */\n      tag_500\n      jump\t// in\n    tag_632:\n        /* \"#utility.yul\":8418:8492   */\n      swap2\n      pop\n        /* \"#utility.yul\":8501:8594   */\n      tag_633\n        /* \"#utility.yul\":8590:8593   */\n      dup3\n        /* \"#utility.yul\":8501:8594   */\n      tag_501\n      jump\t// in\n    tag_633:\n        /* \"#utility.yul\":8619:8621   */\n      0x20\n        /* \"#utility.yul\":8614:8617   */\n      dup3\n        /* \"#utility.yul\":8610:8622   */\n      add\n        /* \"#utility.yul\":8603:8622   */\n      swap1\n      pop\n        /* \"#utility.yul\":8262:8628   */\n      swap2\n      swap1\n      pop\n      jump\t// out\n        /* \"#utility.yul\":8634:9053   */\n    tag_106:\n        /* \"#utility.yul\":8800:8804   */\n      0x00\n        /* \"#utility.yul\":8838:8840   */\n      0x20\n        /* \"#utility.yul\":8827:8836   */\n      dup3\n        /* \"#utility.yul\":8823:8841   */\n      add\n        /* \"#utility.yul\":8815:8841   */\n      swap1\n      pop\n        /* \"#utility.yul\":8887:8896   */\n      dup2\n        /* \"#utility.yul\":8881:8885   */\n      dup2\n        /* \"#utility.yul\":8877:8897   */\n      sub\n        /* \"#utility.yul\":8873:8874   */\n      0x00\n        /* \"#utility.yul\":8862:8871   */\n      dup4\n        /* \"#utility.yul\":8858:8875   */\n      add\n        /* \"#utility.yul\":8851:8898   */\n      mstore\n        /* \"#utility.yul\":8915:9046   */\n      tag_635\n        /* \"#utility.yul\":9041:9045   */\n      dup2\n        /* \"#utility.yul\":8915:9046   */\n      tag_502\n      jump\t// in\n    tag_635:\n        /* \"#utility.yul\":8907:9046   */\n      swap1\n      pop\n        /* \"#utility.yul\":8634:9053   */\n      swap2\n      swap1\n      pop\n      jump\t// out\n        /* \"#utility.yul\":9059:9239   */\n    tag_123:\n        /* \"#utility.yul\":9107:9184   */\n      0x4e487b7100000000000000000000000000000000000000000000000000000000\n        /* \"#utility.yul\":9104:9105   */\n      0x00\n        /* \"#utility.yul\":9097:9185   */\n      mstore\n        /* \"#utility.yul\":9204:9208   */\n      0x21\n        /* \"#utility.yul\":9201:9202   */\n      0x04\n        /* \"#utility.yul\":9194:9209   */\n      mstore\n        /* \"#utility.yul\":9228:9232   */\n      0x24\n        /* \"#utility.yul\":9225:9226   */\n      0x00\n        /* \"#utility.yul\":9218:9233   */\n      revert\n        /* \"#utility.yul\":9245:9418   */\n    tag_503:\n        /* \"#utility.yul\":9385:9410   */\n      0x526564456e76656c6f7065206973206e6f74206f70656e000000000000000000\n        /* \"#utility.yul\":9381:9382   */\n      0x00\n        /* \"#utility.yul\":9373:9379   */\n      dup3\n        /* \"#utility.yul\":9369:9383   */\n      add\n        /* \"#utility.yul\":9362:9411   */\n      mstore\n        /* \"#utility.yul\":9245:9418   */\n      pop\n      jump\t// out\n        /* \"#utility.yul\":9424:9790   */\n    tag_504:\n        /* \"#utility.yul\":9566:9569   */\n      0x00\n        /* \"#utility.yul\":9587:9654   */\n      tag_639\n        /* \"#utility.yul\":9651:9653   */\n      0x17\n        /* \"#utility.yul\":9646:9649   */\n      dup4\n        /* \"#utility.yul\":9587:9654   */\n      tag_500\n      jump\t// in\n    tag_639:\n        /* \"#utility.yul\":9580:9654   */\n      swap2\n      pop\n        /* \"#utility.yul\":9663:9756   */\n      tag_640\n        /* \"#utility.yul\":9752:9755   */\n      dup3\n        /* \"#utility.yul\":9663:9756   */\n      tag_503\n      jump\t// in\n    tag_640:\n        /* \"#utility.yul\":9781:9783   */\n      0x20\n        /* \"#utility.yul\":9776:9779   */\n      dup3\n        /* \"#utility.yul\":9772:9784   */\n      add\n        /* \"#utility.yul\":9765:9784   */\n      swap1\n      pop\n        /* \"#utility.yul\":9424:9790   */\n      swap2\n      swap1\n      pop\n      jump\t// out\n        /* \"#utility.yul\":9796:10215   */\n    tag_128:\n        /* \"#utility.yul\":9962:9966   */\n      0x00\n        /* \"#utility.yul\":10000:10002   */\n      0x20\n        /* \"#utility.yul\":9989:9998   */\n      dup3\n        /* \"#utility.yul\":9985:10003   */\n      add\n        /* \"#utility.yul\":9977:10003   */\n      swap1\n      pop\n        /* \"#utility.yul\":10049:10058   */\n      dup2\n        /* \"#utility.yul\":10043:10047   */\n      dup2\n        /* \"#utility.yul\":10039:10059   */\n      sub\n        /* \"#utility.yul\":10035:10036   */\n      0x00\n        /* \"#utility.yul\":10024:10033   */\n      dup4\n        /* \"#utility.yul\":10020:10037   */\n      add\n        /* \"#utility.yul\":10013:10060   */\n      mstore\n        /* \"#utility.yul\":10077:10208   */\n      tag_642\n        /* \"#utility.yul\":10203:10207   */\n      dup2\n        /* \"#utility.yul\":10077:10208   */\n      tag_504\n      jump\t// in\n    tag_642:\n        /* \"#utility.yul\":10069:10208   */\n      swap1\n      pop\n        /* \"#utility.yul\":9796:10215   */\n      swap2\n      swap1\n      pop\n      jump\t// out\n        /* \"#utility.yul\":10221:10663   */\n    tag_132:\n        /* \"#utility.yul\":10370:10374   */\n      0x00\n        /* \"#utility.yul\":10408:10410   */\n      0x60\n        /* \"#utility.yul\":10397:10406   */\n      dup3\n        /* \"#utility.yul\":10393:10411   */\n      add\n        /* \"#utility.yul\":10385:10411   */\n      swap1\n      pop\n        /* \"#utility.yul\":10421:10492   */\n      tag_644\n        /* \"#utility.yul\":10489:10490   */\n      0x00\n        /* \"#utility.yul\":10478:10487   */\n      dup4\n        /* \"#utility.yul\":10474:10491   */\n      add\n        /* \"#utility.yul\":10465:10471   */\n      dup7\n        /* \"#utility.yul\":10421:10492   */\n      tag_494\n      jump\t// in\n    tag_644:\n        /* \"#utility.yul\":10502:10574   */\n      tag_645\n        /* \"#utility.yul\":10570:10572   */\n      0x20\n        /* \"#utility.yul\":10559:10568   */\n      dup4\n        /* \"#utility.yul\":10555:10573   */\n      add\n        /* \"#utility.yul\":10546:10552   */\n      dup6\n        /* \"#utility.yul\":10502:10574   */\n      tag_494\n      jump\t// in\n    tag_645:\n        /* \"#utility.yul\":10584:10656   */\n      tag_646\n        /* \"#utility.yul\":10652:10654   */\n      0x40\n        /* \"#utility.yul\":10641:10650   */\n      dup4\n        /* \"#utility.yul\":10637:10655   */\n      add\n        /* \"#utility.yul\":10628:10634   */\n      dup5\n        /* \"#utility.yul\":10584:10656   */\n      tag_494\n      jump\t// in\n    tag_646:\n        /* \"#utility.yul\":10221:10663   */\n      swap5\n      swap4\n      pop\n      pop\n      pop\n      pop\n      jump\t// out\n        /* \"#utility.yul\":10669:10838   */\n    tag_505:\n        /* \"#utility.yul\":10809:10830   */\n      0x6e6f20676574207469636b6574206d6f64656c00000000000000000000000000\n        /* \"#utility.yul\":10805:10806   */\n      0x00\n        /* \"#utility.yul\":10797:10803   */\n      dup3\n        /* \"#utility.yul\":10793:10807   */\n      add\n        /* \"#utility.yul\":10786:10831   */\n      mstore\n        /* \"#utility.yul\":10669:10838   */\n      pop\n      jump\t// out\n        /* \"#utility.yul\":10844:11210   */\n    tag_506:\n        /* \"#utility.yul\":10986:10989   */\n      0x00\n        /* \"#utility.yul\":11007:11074   */\n      tag_649\n        /* \"#utility.yul\":11071:11073   */\n      0x13\n        /* \"#utility.yul\":11066:11069   */\n      dup4\n        /* \"#utility.yul\":11007:11074   */\n      tag_500\n      jump\t// in\n    tag_649:\n        /* \"#utility.yul\":11000:11074   */\n      swap2\n      pop\n        /* \"#utility.yul\":11083:11176   */\n      tag_650\n        /* \"#utility.yul\":11172:11175   */\n      dup3\n        /* \"#utility.yul\":11083:11176   */\n      tag_505\n      jump\t// in\n    tag_650:\n        /* \"#utility.yul\":11201:11203   */\n      0x20\n        /* \"#utility.yul\":11196:11199   */\n      dup3\n        /* \"#utility.yul\":11192:11204   */\n      add\n        /* \"#utility.yul\":11185:11204   */\n      swap1\n      pop\n        /* \"#utility.yul\":10844:11210   */\n      swap2\n      swap1\n      pop\n      jump\t// out\n        /* \"#utility.yul\":11216:11635   */\n    tag_145:\n        /* \"#utility.yul\":11382:11386   */\n      0x00\n        /* \"#utility.yul\":11420:11422   */\n      0x20\n        /* \"#utility.yul\":11409:11418   */\n      dup3\n        /* \"#utility.yul\":11405:11423   */\n      add\n        /* \"#utility.yul\":11397:11423   */\n      swap1\n      pop\n        /* \"#utility.yul\":11469:11478   */\n      dup2\n        /* \"#utility.yul\":11463:11467   */\n      dup2\n        /* \"#utility.yul\":11459:11479   */\n      sub\n        /* \"#utility.yul\":11455:11456   */\n      0x00\n        /* \"#utility.yul\":11444:11453   */\n      dup4\n        /* \"#utility.yul\":11440:11457   */\n      add\n        /* \"#utility.yul\":11433:11480   */\n      mstore\n        /* \"#utility.yul\":11497:11628   */\n      tag_652\n        /* \"#utility.yul\":11623:11627   */\n      dup2\n        /* \"#utility.yul\":11497:11628   */\n      tag_506\n      jump\t// in\n    tag_652:\n        /* \"#utility.yul\":11489:11628   */\n      swap1\n      pop\n        /* \"#utility.yul\":11216:11635   */\n      swap2\n      swap1\n      pop\n      jump\t// out\n        /* \"#utility.yul\":11641:11811   */\n    tag_507:\n        /* \"#utility.yul\":11781:11803   */\n      0x6e6f7420616c6c6f7720676574207469636b6574000000000000000000000000\n        /* \"#utility.yul\":11777:11778   */\n      0x00\n        /* \"#utility.yul\":11769:11775   */\n      dup3\n        /* \"#utility.yul\":11765:11779   */\n      add\n        /* \"#utility.yul\":11758:11804   */\n      mstore\n        /* \"#utility.yul\":11641:11811   */\n      pop\n      jump\t// out\n        /* \"#utility.yul\":11817:12183   */\n    tag_508:\n        /* \"#utility.yul\":11959:11962   */\n      0x00\n        /* \"#utility.yul\":11980:12047   */\n      tag_655\n        /* \"#utility.yul\":12044:12046   */\n      0x14\n        /* \"#utility.yul\":12039:12042   */\n      dup4\n        /* \"#utility.yul\":11980:12047   */\n      tag_500\n      jump\t// in\n    tag_655:\n        /* \"#utility.yul\":11973:12047   */\n      swap2\n      pop\n        /* \"#utility.yul\":12056:12149   */\n      tag_656\n        /* \"#utility.yul\":12145:12148   */\n      dup3\n        /* \"#utility.yul\":12056:12149   */\n      tag_507\n      jump\t// in\n    tag_656:\n        /* \"#utility.yul\":12174:12176   */\n      0x20\n        /* \"#utility.yul\":12169:12172   */\n      dup3\n        /* \"#utility.yul\":12165:12177   */\n      add\n        /* \"#utility.yul\":12158:12177   */\n      swap1\n      pop\n        /* \"#utility.yul\":11817:12183   */\n      swap2\n      swap1\n      pop\n      jump\t// out\n        /* \"#utility.yul\":12189:12608   */\n    tag_148:\n        /* \"#utility.yul\":12355:12359   */\n      0x00\n        /* \"#utility.yul\":12393:12395   */\n      0x20\n        /* \"#utility.yul\":12382:12391   */\n      dup3\n        /* \"#utility.yul\":12378:12396   */\n      add\n        /* \"#utility.yul\":12370:12396   */\n      swap1\n      pop\n        /* \"#utility.yul\":12442:12451   */\n      dup2\n        /* \"#utility.yul\":12436:12440   */\n      dup2\n        /* \"#utility.yul\":12432:12452   */\n      sub\n        /* \"#utility.yul\":12428:12429   */\n      0x00\n        /* \"#utility.yul\":12417:12426   */\n      dup4\n        /* \"#utility.yul\":12413:12430   */\n      add\n        /* \"#utility.yul\":12406:12453   */\n      mstore\n        /* \"#utility.yul\":12470:12601   */\n      tag_658\n        /* \"#utility.yul\":12596:12600   */\n      dup2\n        /* \"#utility.yul\":12470:12601   */\n      tag_508\n      jump\t// in\n    tag_658:\n        /* \"#utility.yul\":12462:12601   */\n      swap1\n      pop\n        /* \"#utility.yul\":12189:12608   */\n      swap2\n      swap1\n      pop\n      jump\t// out\n        /* \"#utility.yul\":12614:12785   */\n    tag_509:\n        /* \"#utility.yul\":12754:12777   */\n      0x7469636b65744e756d62657273206e6f207a65726f0000000000000000000000\n        /* \"#utility.yul\":12750:12751   */\n      0x00\n        /* \"#utility.yul\":12742:12748   */\n      dup3\n        /* \"#utility.yul\":12738:12752   */\n      add\n        /* \"#utility.yul\":12731:12778   */\n      mstore\n        /* \"#utility.yul\":12614:12785   */\n      pop\n      jump\t// out\n        /* \"#utility.yul\":12791:13157   */\n    tag_510:\n        /* \"#utility.yul\":12933:12936   */\n      0x00\n        /* \"#utility.yul\":12954:13021   */\n      tag_661\n        /* \"#utility.yul\":13018:13020   */\n      0x15\n        /* \"#utility.yul\":13013:13016   */\n      dup4\n        /* \"#utility.yul\":12954:13021   */\n      tag_500\n      jump\t// in\n    tag_661:\n        /* \"#utility.yul\":12947:13021   */\n      swap2\n      pop\n        /* \"#utility.yul\":13030:13123   */\n      tag_662\n        /* \"#utility.yul\":13119:13122   */\n      dup3\n        /* \"#utility.yul\":13030:13123   */\n      tag_509\n      jump\t// in\n    tag_662:\n        /* \"#utility.yul\":13148:13150   */\n      0x20\n        /* \"#utility.yul\":13143:13146   */\n      dup3\n        /* \"#utility.yul\":13139:13151   */\n      add\n        /* \"#utility.yul\":13132:13151   */\n      swap1\n      pop\n        /* \"#utility.yul\":12791:13157   */\n      swap2\n      swap1\n      pop\n      jump\t// out\n        /* \"#utility.yul\":13163:13582   */\n    tag_151:\n        /* \"#utility.yul\":13329:13333   */\n      0x00\n        /* \"#utility.yul\":13367:13369   */\n      0x20\n        /* \"#utility.yul\":13356:13365   */\n      dup3\n        /* \"#utility.yul\":13352:13370   */\n      add\n        /* \"#utility.yul\":13344:13370   */\n      swap1\n      pop\n        /* \"#utility.yul\":13416:13425   */\n      dup2\n        /* \"#utility.yul\":13410:13414   */\n      dup2\n        /* \"#utility.yul\":13406:13426   */\n      sub\n        /* \"#utility.yul\":13402:13403   */\n      0x00\n        /* \"#utility.yul\":13391:13400   */\n      dup4\n        /* \"#utility.yul\":13387:13404   */\n      add\n        /* \"#utility.yul\":13380:13427   */\n      mstore\n        /* \"#utility.yul\":13444:13575   */\n      tag_664\n        /* \"#utility.yul\":13570:13574   */\n      dup2\n        /* \"#utility.yul\":13444:13575   */\n      tag_510\n      jump\t// in\n    tag_664:\n        /* \"#utility.yul\":13436:13575   */\n      swap1\n      pop\n        /* \"#utility.yul\":13163:13582   */\n      swap2\n      swap1\n      pop\n      jump\t// out\n        /* \"#utility.yul\":13588:13762   */\n    tag_511:\n        /* \"#utility.yul\":13728:13754   */\n      0x526564456e76656c6f7065206973206f7665722074696d650000000000000000\n        /* \"#utility.yul\":13724:13725   */\n      0x00\n        /* \"#utility.yul\":13716:13722   */\n      dup3\n        /* \"#utility.yul\":13712:13726   */\n      add\n        /* \"#utility.yul\":13705:13755   */\n      mstore\n        /* \"#utility.yul\":13588:13762   */\n      pop\n      jump\t// out\n        /* \"#utility.yul\":13768:14134   */\n    tag_512:\n        /* \"#utility.yul\":13910:13913   */\n      0x00\n        /* \"#utility.yul\":13931:13998   */\n      tag_667\n        /* \"#utility.yul\":13995:13997   */\n      0x18\n        /* \"#utility.yul\":13990:13993   */\n      dup4\n        /* \"#utility.yul\":13931:13998   */\n      tag_500\n      jump\t// in\n    tag_667:\n        /* \"#utility.yul\":13924:13998   */\n      swap2\n      pop\n        /* \"#utility.yul\":14007:14100   */\n      tag_668\n        /* \"#utility.yul\":14096:14099   */\n      dup3\n        /* \"#utility.yul\":14007:14100   */\n      tag_511\n      jump\t// in\n    tag_668:\n        /* \"#utility.yul\":14125:14127   */\n      0x20\n        /* \"#utility.yul\":14120:14123   */\n      dup3\n        /* \"#utility.yul\":14116:14128   */\n      add\n        /* \"#utility.yul\":14109:14128   */\n      swap1\n      pop\n        /* \"#utility.yul\":13768:14134   */\n      swap2\n      swap1\n      pop\n      jump\t// out\n        /* \"#utility.yul\":14140:14559   */\n    tag_155:\n        /* \"#utility.yul\":14306:14310   */\n      0x00\n        /* \"#utility.yul\":14344:14346   */\n      0x20\n        /* \"#utility.yul\":14333:14342   */\n      dup3\n        /* \"#utility.yul\":14329:14347   */\n      add\n        /* \"#utility.yul\":14321:14347   */\n      swap1\n      pop\n        /* \"#utility.yul\":14393:14402   */\n      dup2\n        /* \"#utility.yul\":14387:14391   */\n      dup2\n        /* \"#utility.yul\":14383:14403   */\n      sub\n        /* \"#utility.yul\":14379:14380   */\n      0x00\n        /* \"#utility.yul\":14368:14377   */\n      dup4\n        /* \"#utility.yul\":14364:14381   */\n      add\n        /* \"#utility.yul\":14357:14404   */\n      mstore\n        /* \"#utility.yul\":14421:14552   */\n      tag_670\n        /* \"#utility.yul\":14547:14551   */\n      dup2\n        /* \"#utility.yul\":14421:14552   */\n      tag_512\n      jump\t// in\n    tag_670:\n        /* \"#utility.yul\":14413:14552   */\n      swap1\n      pop\n        /* \"#utility.yul\":14140:14559   */\n      swap2\n      swap1\n      pop\n      jump\t// out\n        /* \"#utility.yul\":14565:14745   */\n    tag_513:\n        /* \"#utility.yul\":14613:14690   */\n      0x4e487b7100000000000000000000000000000000000000000000000000000000\n        /* \"#utility.yul\":14610:14611   */\n      0x00\n        /* \"#utility.yul\":14603:14691   */\n      mstore\n        /* \"#utility.yul\":14710:14714   */\n      0x11\n        /* \"#utility.yul\":14707:14708   */\n      0x04\n        /* \"#utility.yul\":14700:14715   */\n      mstore\n        /* \"#utility.yul\":14734:14738   */\n      0x24\n        /* \"#utility.yul\":14731:14732   */\n      0x00\n        /* \"#utility.yul\":14724:14739   */\n      revert\n        /* \"#utility.yul\":14751:14942   */\n    tag_158:\n        /* \"#utility.yul\":14791:14794   */\n      0x00\n        /* \"#utility.yul\":14810:14830   */\n      tag_673\n        /* \"#utility.yul\":14828:14829   */\n      dup3\n        /* \"#utility.yul\":14810:14830   */\n      tag_487\n      jump\t// in\n    tag_673:\n        /* \"#utility.yul\":14805:14830   */\n      swap2\n      pop\n        /* \"#utility.yul\":14844:14864   */\n      tag_674\n        /* \"#utility.yul\":14862:14863   */\n      dup4\n        /* \"#utility.yul\":14844:14864   */\n      tag_487\n      jump\t// in\n    tag_674:\n        /* \"#utility.yul\":14839:14864   */\n      swap3\n      pop\n        /* \"#utility.yul\":14887:14888   */\n      dup3\n        /* \"#utility.yul\":14884:14885   */\n      dup3\n        /* \"#utility.yul\":14880:14889   */\n      add\n        /* \"#utility.yul\":14873:14889   */\n      swap1\n      pop\n        /* \"#utility.yul\":14908:14911   */\n      dup1\n        /* \"#utility.yul\":14905:14906   */\n      dup3\n        /* \"#utility.yul\":14902:14912   */\n      gt\n        /* \"#utility.yul\":14899:14935   */\n      iszero\n      tag_675\n      jumpi\n        /* \"#utility.yul\":14915:14933   */\n      tag_676\n      tag_513\n      jump\t// in\n    tag_676:\n        /* \"#utility.yul\":14899:14935   */\n    tag_675:\n        /* \"#utility.yul\":14751:14942   */\n      swap3\n      swap2\n      pop\n      pop\n      jump\t// out\n        /* \"#utility.yul\":14948:15124   */\n    tag_514:\n        /* \"#utility.yul\":15088:15116   */\n      0x526564456e76656c6f7065206973206f766572207469636b6574000000000000\n        /* \"#utility.yul\":15084:15085   */\n      0x00\n        /* \"#utility.yul\":15076:15082   */\n      dup3\n        /* \"#utility.yul\":15072:15086   */\n      add\n        /* \"#utility.yul\":15065:15117   */\n      mstore\n        /* \"#utility.yul\":14948:15124   */\n      pop\n      jump\t// out\n        /* \"#utility.yul\":15130:15496   */\n    tag_515:\n        /* \"#utility.yul\":15272:15275   */\n      0x00\n        /* \"#utility.yul\":15293:15360   */\n      tag_679\n        /* \"#utility.yul\":15357:15359   */\n      0x1a\n        /* \"#utility.yul\":15352:15355   */\n      dup4\n        /* \"#utility.yul\":15293:15360   */\n      tag_500\n      jump\t// in\n    tag_679:\n        /* \"#utility.yul\":15286:15360   */\n      swap2\n      pop\n        /* \"#utility.yul\":15369:15462   */\n      tag_680\n        /* \"#utility.yul\":15458:15461   */\n      dup3\n        /* \"#utility.yul\":15369:15462   */\n      tag_514\n      jump\t// in\n    tag_680:\n        /* \"#utility.yul\":15487:15489   */\n      0x20\n        /* \"#utility.yul\":15482:15485   */\n      dup3\n        /* \"#utility.yul\":15478:15490   */\n      add\n        /* \"#utility.yul\":15471:15490   */\n      swap1\n      pop\n        /* \"#utility.yul\":15130:15496   */\n      swap2\n      swap1\n      pop\n      jump\t// out\n        /* \"#utility.yul\":15502:15921   */\n    tag_161:\n        /* \"#utility.yul\":15668:15672   */\n      0x00\n        /* \"#utility.yul\":15706:15708   */\n      0x20\n        /* \"#utility.yul\":15695:15704   */\n      dup3\n        /* \"#utility.yul\":15691:15709   */\n      add\n        /* \"#utility.yul\":15683:15709   */\n      swap1\n      pop\n        /* \"#utility.yul\":15755:15764   */\n      dup2\n        /* \"#utility.yul\":15749:15753   */\n      dup2\n        /* \"#utility.yul\":15745:15765   */\n      sub\n        /* \"#utility.yul\":15741:15742   */\n      0x00\n        /* \"#utility.yul\":15730:15739   */\n      dup4\n        /* \"#utility.yul\":15726:15743   */\n      add\n        /* \"#utility.yul\":15719:15766   */\n      mstore\n        /* \"#utility.yul\":15783:15914   */\n      tag_682\n        /* \"#utility.yul\":15909:15913   */\n      dup2\n        /* \"#utility.yul\":15783:15914   */\n      tag_515\n      jump\t// in\n    tag_682:\n        /* \"#utility.yul\":15775:15914   */\n      swap1\n      pop\n        /* \"#utility.yul\":15502:15921   */\n      swap2\n      swap1\n      pop\n      jump\t// out\n        /* \"#utility.yul\":15927:16091   */\n    tag_516:\n        /* \"#utility.yul\":16067:16083   */\n      0x696e6a656374206e6f207a65726f000000000000000000000000000000000000\n        /* \"#utility.yul\":16063:16064   */\n      0x00\n        /* \"#utility.yul\":16055:16061   */\n      dup3\n        /* \"#utility.yul\":16051:16065   */\n      add\n        /* \"#utility.yul\":16044:16084   */\n      mstore\n        /* \"#utility.yul\":15927:16091   */\n      pop\n      jump\t// out\n        /* \"#utility.yul\":16097:16463   */\n    tag_517:\n        /* \"#utility.yul\":16239:16242   */\n      0x00\n        /* \"#utility.yul\":16260:16327   */\n      tag_685\n        /* \"#utility.yul\":16324:16326   */\n      0x0e\n        /* \"#utility.yul\":16319:16322   */\n      dup4\n        /* \"#utility.yul\":16260:16327   */\n      tag_500\n      jump\t// in\n    tag_685:\n        /* \"#utility.yul\":16253:16327   */\n      swap2\n      pop\n        /* \"#utility.yul\":16336:16429   */\n      tag_686\n        /* \"#utility.yul\":16425:16428   */\n      dup3\n        /* \"#utility.yul\":16336:16429   */\n      tag_516\n      jump\t// in\n    tag_686:\n        /* \"#utility.yul\":16454:16456   */\n      0x20\n        /* \"#utility.yul\":16449:16452   */\n      dup3\n        /* \"#utility.yul\":16445:16457   */\n      add\n        /* \"#utility.yul\":16438:16457   */\n      swap1\n      pop\n        /* \"#utility.yul\":16097:16463   */\n      swap2\n      swap1\n      pop\n      jump\t// out\n        /* \"#utility.yul\":16469:16888   */\n    tag_171:\n        /* \"#utility.yul\":16635:16639   */\n      0x00\n        /* \"#utility.yul\":16673:16675   */\n      0x20\n        /* \"#utility.yul\":16662:16671   */\n      dup3\n        /* \"#utility.yul\":16658:16676   */\n      add\n        /* \"#utility.yul\":16650:16676   */\n      swap1\n      pop\n        /* \"#utility.yul\":16722:16731   */\n      dup2\n        /* \"#utility.yul\":16716:16720   */\n      dup2\n        /* \"#utility.yul\":16712:16732   */\n      sub\n        /* \"#utility.yul\":16708:16709   */\n      0x00\n        /* \"#utility.yul\":16697:16706   */\n      dup4\n        /* \"#utility.yul\":16693:16710   */\n      add\n        /* \"#utility.yul\":16686:16733   */\n      mstore\n        /* \"#utility.yul\":16750:16881   */\n      tag_688\n        /* \"#utility.yul\":16876:16880   */\n      dup2\n        /* \"#utility.yul\":16750:16881   */\n      tag_517\n      jump\t// in\n    tag_688:\n        /* \"#utility.yul\":16742:16881   */\n      swap1\n      pop\n        /* \"#utility.yul\":16469:16888   */\n      swap2\n      swap1\n      pop\n      jump\t// out\n        /* \"#utility.yul\":16894:17226   */\n    tag_196:\n        /* \"#utility.yul\":17015:17019   */\n      0x00\n        /* \"#utility.yul\":17053:17055   */\n      0x40\n        /* \"#utility.yul\":17042:17051   */\n      dup3\n        /* \"#utility.yul\":17038:17056   */\n      add\n        /* \"#utility.yul\":17030:17056   */\n      swap1\n      pop\n        /* \"#utility.yul\":17066:17137   */\n      tag_690\n        /* \"#utility.yul\":17134:17135   */\n      0x00\n        /* \"#utility.yul\":17123:17132   */\n      dup4\n        /* \"#utility.yul\":17119:17136   */\n      add\n        /* \"#utility.yul\":17110:17116   */\n      dup6\n        /* \"#utility.yul\":17066:17137   */\n      tag_495\n      jump\t// in\n    tag_690:\n        /* \"#utility.yul\":17147:17219   */\n      tag_691\n        /* \"#utility.yul\":17215:17217   */\n      0x20\n        /* \"#utility.yul\":17204:17213   */\n      dup4\n        /* \"#utility.yul\":17200:17218   */\n      add\n        /* \"#utility.yul\":17191:17197   */\n      dup5\n        /* \"#utility.yul\":17147:17219   */\n      tag_494\n      jump\t// in\n    tag_691:\n        /* \"#utility.yul\":16894:17226   */\n      swap4\n      swap3\n      pop\n      pop\n      pop\n      jump\t// out\n        /* \"#utility.yul\":17232:17403   */\n    tag_518:\n        /* \"#utility.yul\":17372:17395   */\n      0x526564456e76656c6f7065206e6f7420636c6f73650000000000000000000000\n        /* \"#utility.yul\":17368:17369   */\n      0x00\n        /* \"#utility.yul\":17360:17366   */\n      dup3\n        /* \"#utility.yul\":17356:17370   */\n      add\n        /* \"#utility.yul\":17349:17396   */\n      mstore\n        /* \"#utility.yul\":17232:17403   */\n      pop\n      jump\t// out\n        /* \"#utility.yul\":17409:17775   */\n    tag_519:\n        /* \"#utility.yul\":17551:17554   */\n      0x00\n        /* \"#utility.yul\":17572:17639   */\n      tag_694\n        /* \"#utility.yul\":17636:17638   */\n      0x15\n        /* \"#utility.yul\":17631:17634   */\n      dup4\n        /* \"#utility.yul\":17572:17639   */\n      tag_500\n      jump\t// in\n    tag_694:\n        /* \"#utility.yul\":17565:17639   */\n      swap2\n      pop\n        /* \"#utility.yul\":17648:17741   */\n      tag_695\n        /* \"#utility.yul\":17737:17740   */\n      dup3\n        /* \"#utility.yul\":17648:17741   */\n      tag_518\n      jump\t// in\n    tag_695:\n        /* \"#utility.yul\":17766:17768   */\n      0x20\n        /* \"#utility.yul\":17761:17764   */\n      dup3\n        /* \"#utility.yul\":17757:17769   */\n      add\n        /* \"#utility.yul\":17750:17769   */\n      swap1\n      pop\n        /* \"#utility.yul\":17409:17775   */\n      swap2\n      swap1\n      pop\n      jump\t// out\n        /* \"#utility.yul\":17781:18200   */\n    tag_218:\n        /* \"#utility.yul\":17947:17951   */\n      0x00\n        /* \"#utility.yul\":17985:17987   */\n      0x20\n        /* \"#utility.yul\":17974:17983   */\n      dup3\n        /* \"#utility.yul\":17970:17988   */\n      add\n        /* \"#utility.yul\":17962:17988   */\n      swap1\n      pop\n        /* \"#utility.yul\":18034:18043   */\n      dup2\n        /* \"#utility.yul\":18028:18032   */\n      dup2\n        /* \"#utility.yul\":18024:18044   */\n      sub\n        /* \"#utility.yul\":18020:18021   */\n      0x00\n        /* \"#utility.yul\":18009:18018   */\n      dup4\n        /* \"#utility.yul\":18005:18022   */\n      add\n        /* \"#utility.yul\":17998:18045   */\n      mstore\n        /* \"#utility.yul\":18062:18193   */\n      tag_697\n        /* \"#utility.yul\":18188:18192   */\n      dup2\n        /* \"#utility.yul\":18062:18193   */\n      tag_519\n      jump\t// in\n    tag_697:\n        /* \"#utility.yul\":18054:18193   */\n      swap1\n      pop\n        /* \"#utility.yul\":17781:18200   */\n      swap2\n      swap1\n      pop\n      jump\t// out\n        /* \"#utility.yul\":18206:18616   */\n    tag_230:\n        /* \"#utility.yul\":18246:18253   */\n      0x00\n        /* \"#utility.yul\":18269:18289   */\n      tag_699\n        /* \"#utility.yul\":18287:18288   */\n      dup3\n        /* \"#utility.yul\":18269:18289   */\n      tag_487\n      jump\t// in\n    tag_699:\n        /* \"#utility.yul\":18264:18289   */\n      swap2\n      pop\n        /* \"#utility.yul\":18303:18323   */\n      tag_700\n        /* \"#utility.yul\":18321:18322   */\n      dup4\n        /* \"#utility.yul\":18303:18323   */\n      tag_487\n      jump\t// in\n    tag_700:\n        /* \"#utility.yul\":18298:18323   */\n      swap3\n      pop\n        /* \"#utility.yul\":18358:18359   */\n      dup3\n        /* \"#utility.yul\":18355:18356   */\n      dup3\n        /* \"#utility.yul\":18351:18360   */\n      mul\n        /* \"#utility.yul\":18380:18410   */\n      tag_701\n        /* \"#utility.yul\":18398:18409   */\n      dup2\n        /* \"#utility.yul\":18380:18410   */\n      tag_487\n      jump\t// in\n    tag_701:\n        /* \"#utility.yul\":18369:18410   */\n      swap2\n      pop\n        /* \"#utility.yul\":18559:18560   */\n      dup3\n        /* \"#utility.yul\":18550:18557   */\n      dup3\n        /* \"#utility.yul\":18546:18561   */\n      div\n        /* \"#utility.yul\":18543:18544   */\n      dup5\n        /* \"#utility.yul\":18540:18562   */\n      eq\n        /* \"#utility.yul\":18520:18521   */\n      dup4\n        /* \"#utility.yul\":18513:18522   */\n      iszero\n        /* \"#utility.yul\":18493:18576   */\n      or\n        /* \"#utility.yul\":18470:18609   */\n      tag_702\n      jumpi\n        /* \"#utility.yul\":18589:18607   */\n      tag_703\n      tag_513\n      jump\t// in\n    tag_703:\n        /* \"#utility.yul\":18470:18609   */\n    tag_702:\n        /* \"#utility.yul\":18254:18616   */\n      pop\n        /* \"#utility.yul\":18206:18616   */\n      swap3\n      swap2\n      pop\n      pop\n      jump\t// out\n        /* \"#utility.yul\":18622:18791   */\n    tag_520:\n        /* \"#utility.yul\":18762:18783   */\n      0x6e6f20627579207469636b6574206d6f64656c00000000000000000000000000\n        /* \"#utility.yul\":18758:18759   */\n      0x00\n        /* \"#utility.yul\":18750:18756   */\n      dup3\n        /* \"#utility.yul\":18746:18760   */\n      add\n        /* \"#utility.yul\":18739:18784   */\n      mstore\n        /* \"#utility.yul\":18622:18791   */\n      pop\n      jump\t// out\n        /* \"#utility.yul\":18797:19163   */\n    tag_521:\n        /* \"#utility.yul\":18939:18942   */\n      0x00\n        /* \"#utility.yul\":18960:19027   */\n      tag_706\n        /* \"#utility.yul\":19024:19026   */\n      0x13\n        /* \"#utility.yul\":19019:19022   */\n      dup4\n        /* \"#utility.yul\":18960:19027   */\n      tag_500\n      jump\t// in\n    tag_706:\n        /* \"#utility.yul\":18953:19027   */\n      swap2\n      pop\n        /* \"#utility.yul\":19036:19129   */\n      tag_707\n        /* \"#utility.yul\":19125:19128   */\n      dup3\n        /* \"#utility.yul\":19036:19129   */\n      tag_520\n      jump\t// in\n    tag_707:\n        /* \"#utility.yul\":19154:19156   */\n      0x20\n        /* \"#utility.yul\":19149:19152   */\n      dup3\n        /* \"#utility.yul\":19145:19157   */\n      add\n        /* \"#utility.yul\":19138:19157   */\n      swap1\n      pop\n        /* \"#utility.yul\":18797:19163   */\n      swap2\n      swap1\n      pop\n      jump\t// out\n        /* \"#utility.yul\":19169:19588   */\n    tag_254:\n        /* \"#utility.yul\":19335:19339   */\n      0x00\n        /* \"#utility.yul\":19373:19375   */\n      0x20\n        /* \"#utility.yul\":19362:19371   */\n      dup3\n        /* \"#utility.yul\":19358:19376   */\n      add\n        /* \"#utility.yul\":19350:19376   */\n      swap1\n      pop\n        /* \"#utility.yul\":19422:19431   */\n      dup2\n        /* \"#utility.yul\":19416:19420   */\n      dup2\n        /* \"#utility.yul\":19412:19432   */\n      sub\n        /* \"#utility.yul\":19408:19409   */\n      0x00\n        /* \"#utility.yul\":19397:19406   */\n      dup4\n        /* \"#utility.yul\":19393:19410   */\n      add\n        /* \"#utility.yul\":19386:19433   */\n      mstore\n        /* \"#utility.yul\":19450:19581   */\n      tag_709\n        /* \"#utility.yul\":19576:19580   */\n      dup2\n        /* \"#utility.yul\":19450:19581   */\n      tag_521\n      jump\t// in\n    tag_709:\n        /* \"#utility.yul\":19442:19581   */\n      swap1\n      pop\n        /* \"#utility.yul\":19169:19588   */\n      swap2\n      swap1\n      pop\n      jump\t// out\n        /* \"#utility.yul\":19594:19769   */\n    tag_522:\n        /* \"#utility.yul\":19734:19761   */\n      0x526564456e76656c6f7065206e6f7420636c61696d61626c6500000000000000\n        /* \"#utility.yul\":19730:19731   */\n      0x00\n        /* \"#utility.yul\":19722:19728   */\n      dup3\n        /* \"#utility.yul\":19718:19732   */\n      add\n        /* \"#utility.yul\":19711:19762   */\n      mstore\n        /* \"#utility.yul\":19594:19769   */\n      pop\n      jump\t// out\n        /* \"#utility.yul\":19775:20141   */\n    tag_523:\n        /* \"#utility.yul\":19917:19920   */\n      0x00\n        /* \"#utility.yul\":19938:20005   */\n      tag_712\n        /* \"#utility.yul\":20002:20004   */\n      0x19\n        /* \"#utility.yul\":19997:20000   */\n      dup4\n        /* \"#utility.yul\":19938:20005   */\n      tag_500\n      jump\t// in\n    tag_712:\n        /* \"#utility.yul\":19931:20005   */\n      swap2\n      pop\n        /* \"#utility.yul\":20014:20107   */\n      tag_713\n        /* \"#utility.yul\":20103:20106   */\n      dup3\n        /* \"#utility.yul\":20014:20107   */\n      tag_522\n      jump\t// in\n    tag_713:\n        /* \"#utility.yul\":20132:20134   */\n      0x20\n        /* \"#utility.yul\":20127:20130   */\n      dup3\n        /* \"#utility.yul\":20123:20135   */\n      add\n        /* \"#utility.yul\":20116:20135   */\n      swap1\n      pop\n        /* \"#utility.yul\":19775:20141   */\n      swap2\n      swap1\n      pop\n      jump\t// out\n        /* \"#utility.yul\":20147:20566   */\n    tag_279:\n        /* \"#utility.yul\":20313:20317   */\n      0x00\n        /* \"#utility.yul\":20351:20353   */\n      0x20\n        /* \"#utility.yul\":20340:20349   */\n      dup3\n        /* \"#utility.yul\":20336:20354   */\n      add\n        /* \"#utility.yul\":20328:20354   */\n      swap1\n      pop\n        /* \"#utility.yul\":20400:20409   */\n      dup2\n        /* \"#utility.yul\":20394:20398   */\n      dup2\n        /* \"#utility.yul\":20390:20410   */\n      sub\n        /* \"#utility.yul\":20386:20387   */\n      0x00\n        /* \"#utility.yul\":20375:20384   */\n      dup4\n        /* \"#utility.yul\":20371:20388   */\n      add\n        /* \"#utility.yul\":20364:20411   */\n      mstore\n        /* \"#utility.yul\":20428:20559   */\n      tag_715\n        /* \"#utility.yul\":20554:20558   */\n      dup2\n        /* \"#utility.yul\":20428:20559   */\n      tag_523\n      jump\t// in\n    tag_715:\n        /* \"#utility.yul\":20420:20559   */\n      swap1\n      pop\n        /* \"#utility.yul\":20147:20566   */\n      swap2\n      swap1\n      pop\n      jump\t// out\n        /* \"#utility.yul\":20572:20744   */\n    tag_524:\n        /* \"#utility.yul\":20712:20736   */\n      0x526564456e76656c6f7065206175746f20636c61696d00000000000000000000\n        /* \"#utility.yul\":20708:20709   */\n      0x00\n        /* \"#utility.yul\":20700:20706   */\n      dup3\n        /* \"#utility.yul\":20696:20710   */\n      add\n        /* \"#utility.yul\":20689:20737   */\n      mstore\n        /* \"#utility.yul\":20572:20744   */\n      pop\n      jump\t// out\n        /* \"#utility.yul\":20750:21116   */\n    tag_525:\n        /* \"#utility.yul\":20892:20895   */\n      0x00\n        /* \"#utility.yul\":20913:20980   */\n      tag_718\n        /* \"#utility.yul\":20977:20979   */\n      0x16\n        /* \"#utility.yul\":20972:20975   */\n      dup4\n        /* \"#utility.yul\":20913:20980   */\n      tag_500\n      jump\t// in\n    tag_718:\n        /* \"#utility.yul\":20906:20980   */\n      swap2\n      pop\n        /* \"#utility.yul\":20989:21082   */\n      tag_719\n        /* \"#utility.yul\":21078:21081   */\n      dup3\n        /* \"#utility.yul\":20989:21082   */\n      tag_524\n      jump\t// in\n    tag_719:\n        /* \"#utility.yul\":21107:21109   */\n      0x20\n        /* \"#utility.yul\":21102:21105   */\n      dup3\n        /* \"#utility.yul\":21098:21110   */\n      add\n        /* \"#utility.yul\":21091:21110   */\n      swap1\n      pop\n        /* \"#utility.yul\":20750:21116   */\n      swap2\n      swap1\n      pop\n      jump\t// out\n        /* \"#utility.yul\":21122:21541   */\n    tag_282:\n        /* \"#utility.yul\":21288:21292   */\n      0x00\n        /* \"#utility.yul\":21326:21328   */\n      0x20\n        /* \"#utility.yul\":21315:21324   */\n      dup3\n        /* \"#utility.yul\":21311:21329   */\n      add\n        /* \"#utility.yul\":21303:21329   */\n      swap1\n      pop\n        /* \"#utility.yul\":21375:21384   */\n      dup2\n        /* \"#utility.yul\":21369:21373   */\n      dup2\n        /* \"#utility.yul\":21365:21385   */\n      sub\n        /* \"#utility.yul\":21361:21362   */\n      0x00\n        /* \"#utility.yul\":21350:21359   */\n      dup4\n        /* \"#utility.yul\":21346:21363   */\n      add\n        /* \"#utility.yul\":21339:21386   */\n      mstore\n        /* \"#utility.yul\":21403:21534   */\n      tag_721\n        /* \"#utility.yul\":21529:21533   */\n      dup2\n        /* \"#utility.yul\":21403:21534   */\n      tag_525\n      jump\t// in\n    tag_721:\n        /* \"#utility.yul\":21395:21534   */\n      swap1\n      pop\n        /* \"#utility.yul\":21122:21541   */\n      swap2\n      swap1\n      pop\n      jump\t// out\n        /* \"#utility.yul\":21547:21719   */\n    tag_526:\n        /* \"#utility.yul\":21687:21711   */\n      0x43616e6e6f74206265207a65726f206164647265737300000000000000000000\n        /* \"#utility.yul\":21683:21684   */\n      0x00\n        /* \"#utility.yul\":21675:21681   */\n      dup3\n        /* \"#utility.yul\":21671:21685   */\n      add\n        /* \"#utility.yul\":21664:21712   */\n      mstore\n        /* \"#utility.yul\":21547:21719   */\n      pop\n      jump\t// out\n        /* \"#utility.yul\":21725:22091   */\n    tag_527:\n        /* \"#utility.yul\":21867:21870   */\n      0x00\n        /* \"#utility.yul\":21888:21955   */\n      tag_724\n        /* \"#utility.yul\":21952:21954   */\n      0x16\n        /* \"#utility.yul\":21947:21950   */\n      dup4\n        /* \"#utility.yul\":21888:21955   */\n      tag_500\n      jump\t// in\n    tag_724:\n        /* \"#utility.yul\":21881:21955   */\n      swap2\n      pop\n        /* \"#utility.yul\":21964:22057   */\n      tag_725\n        /* \"#utility.yul\":22053:22056   */\n      dup3\n        /* \"#utility.yul\":21964:22057   */\n      tag_526\n      jump\t// in\n    tag_725:\n        /* \"#utility.yul\":22082:22084   */\n      0x20\n        /* \"#utility.yul\":22077:22080   */\n      dup3\n        /* \"#utility.yul\":22073:22085   */\n      add\n        /* \"#utility.yul\":22066:22085   */\n      swap1\n      pop\n        /* \"#utility.yul\":21725:22091   */\n      swap2\n      swap1\n      pop\n      jump\t// out\n        /* \"#utility.yul\":22097:22516   */\n    tag_290:\n        /* \"#utility.yul\":22263:22267   */\n      0x00\n        /* \"#utility.yul\":22301:22303   */\n      0x20\n        /* \"#utility.yul\":22290:22299   */\n      dup3\n        /* \"#utility.yul\":22286:22304   */\n      add\n        /* \"#utility.yul\":22278:22304   */\n      swap1\n      pop\n        /* \"#utility.yul\":22350:22359   */\n      dup2\n        /* \"#utility.yul\":22344:22348   */\n      dup2\n        /* \"#utility.yul\":22340:22360   */\n      sub\n        /* \"#utility.yul\":22336:22337   */\n      0x00\n        /* \"#utility.yul\":22325:22334   */\n      dup4\n        /* \"#utility.yul\":22321:22338   */\n      add\n        /* \"#utility.yul\":22314:22361   */\n      mstore\n        /* \"#utility.yul\":22378:22509   */\n      tag_727\n        /* \"#utility.yul\":22504:22508   */\n      dup2\n        /* \"#utility.yul\":22378:22509   */\n      tag_527\n      jump\t// in\n    tag_727:\n        /* \"#utility.yul\":22370:22509   */\n      swap1\n      pop\n        /* \"#utility.yul\":22097:22516   */\n      swap2\n      swap1\n      pop\n      jump\t// out\n        /* \"#utility.yul\":22522:22842   */\n    tag_292:\n        /* \"#utility.yul\":22637:22641   */\n      0x00\n        /* \"#utility.yul\":22675:22677   */\n      0x40\n        /* \"#utility.yul\":22664:22673   */\n      dup3\n        /* \"#utility.yul\":22660:22678   */\n      add\n        /* \"#utility.yul\":22652:22678   */\n      swap1\n      pop\n        /* \"#utility.yul\":22688:22759   */\n      tag_729\n        /* \"#utility.yul\":22756:22757   */\n      0x00\n        /* \"#utility.yul\":22745:22754   */\n      dup4\n        /* \"#utility.yul\":22741:22758   */\n      add\n        /* \"#utility.yul\":22732:22738   */\n      dup6\n        /* \"#utility.yul\":22688:22759   */\n      tag_495\n      jump\t// in\n    tag_729:\n        /* \"#utility.yul\":22769:22835   */\n      tag_730\n        /* \"#utility.yul\":22831:22833   */\n      0x20\n        /* \"#utility.yul\":22820:22829   */\n      dup4\n        /* \"#utility.yul\":22816:22834   */\n      add\n        /* \"#utility.yul\":22807:22813   */\n      dup5\n        /* \"#utility.yul\":22769:22835   */\n      tag_497\n      jump\t// in\n    tag_730:\n        /* \"#utility.yul\":22522:22842   */\n      swap4\n      swap3\n      pop\n      pop\n      pop\n      jump\t// out\n        /* \"#utility.yul\":22848:23081   */\n    tag_311:\n        /* \"#utility.yul\":22887:22890   */\n      0x00\n        /* \"#utility.yul\":22910:22934   */\n      tag_732\n        /* \"#utility.yul\":22928:22933   */\n      dup3\n        /* \"#utility.yul\":22910:22934   */\n      tag_487\n      jump\t// in\n    tag_732:\n        /* \"#utility.yul\":22901:22934   */\n      swap2\n      pop\n        /* \"#utility.yul\":22956:23022   */\n      0xffffffffffffffffffffffffffffffffffffffffffffffffffffffffffffffff\n        /* \"#utility.yul\":22949:22954   */\n      dup3\n        /* \"#utility.yul\":22946:23023   */\n      sub\n        /* \"#utility.yul\":22943:23046   */\n      tag_733\n      jumpi\n        /* \"#utility.yul\":23026:23044   */\n      tag_734\n      tag_513\n      jump\t// in\n    tag_734:\n        /* \"#utility.yul\":22943:23046   */\n    tag_733:\n        /* \"#utility.yul\":23073:23074   */\n      0x01\n        /* \"#utility.yul\":23066:23071   */\n      dup3\n        /* \"#utility.yul\":23062:23075   */\n      add\n        /* \"#utility.yul\":23055:23075   */\n      swap1\n      pop\n        /* \"#utility.yul\":22848:23081   */\n      swap2\n      swap1\n      pop\n      jump\t// out\n        /* \"#utility.yul\":23087:23850   */\n    tag_315:\n        /* \"#utility.yul\":23314:23318   */\n      0x00\n        /* \"#utility.yul\":23352:23355   */\n      0xc0\n        /* \"#utility.yul\":23341:23350   */\n      dup3\n        /* \"#utility.yul\":23337:23356   */\n      add\n        /* \"#utility.yul\":23329:23356   */\n      swap1\n      pop\n        /* \"#utility.yul\":23366:23437   */\n      tag_736\n        /* \"#utility.yul\":23434:23435   */\n      0x00\n        /* \"#utility.yul\":23423:23432   */\n      dup4\n        /* \"#utility.yul\":23419:23436   */\n      add\n        /* \"#utility.yul\":23410:23416   */\n      dup10\n        /* \"#utility.yul\":23366:23437   */\n      tag_494\n      jump\t// in\n    tag_736:\n        /* \"#utility.yul\":23447:23519   */\n      tag_737\n        /* \"#utility.yul\":23515:23517   */\n      0x20\n        /* \"#utility.yul\":23504:23513   */\n      dup4\n        /* \"#utility.yul\":23500:23518   */\n      add\n        /* \"#utility.yul\":23491:23497   */\n      dup9\n        /* \"#utility.yul\":23447:23519   */\n      tag_494\n      jump\t// in\n    tag_737:\n        /* \"#utility.yul\":23529:23601   */\n      tag_738\n        /* \"#utility.yul\":23597:23599   */\n      0x40\n        /* \"#utility.yul\":23586:23595   */\n      dup4\n        /* \"#utility.yul\":23582:23600   */\n      add\n        /* \"#utility.yul\":23573:23579   */\n      dup8\n        /* \"#utility.yul\":23529:23601   */\n      tag_494\n      jump\t// in\n    tag_738:\n        /* \"#utility.yul\":23611:23683   */\n      tag_739\n        /* \"#utility.yul\":23679:23681   */\n      0x60\n        /* \"#utility.yul\":23668:23677   */\n      dup4\n        /* \"#utility.yul\":23664:23682   */\n      add\n        /* \"#utility.yul\":23655:23661   */\n      dup7\n        /* \"#utility.yul\":23611:23683   */\n      tag_494\n      jump\t// in\n    tag_739:\n        /* \"#utility.yul\":23693:23766   */\n      tag_740\n        /* \"#utility.yul\":23761:23764   */\n      0x80\n        /* \"#utility.yul\":23750:23759   */\n      dup4\n        /* \"#utility.yul\":23746:23765   */\n      add\n        /* \"#utility.yul\":23737:23743   */\n      dup6\n        /* \"#utility.yul\":23693:23766   */\n      tag_495\n      jump\t// in\n    tag_740:\n        /* \"#utility.yul\":23776:23843   */\n      tag_741\n        /* \"#utility.yul\":23838:23841   */\n      0xa0\n        /* \"#utility.yul\":23827:23836   */\n      dup4\n        /* \"#utility.yul\":23823:23842   */\n      add\n        /* \"#utility.yul\":23814:23820   */\n      dup5\n        /* \"#utility.yul\":23776:23843   */\n      tag_497\n      jump\t// in\n    tag_741:\n        /* \"#utility.yul\":23087:23850   */\n      swap8\n      swap7\n      pop\n      pop\n      pop\n      pop\n      pop\n      pop\n      pop\n      jump\t// out\n        /* \"#utility.yul\":23856:24050   */\n    tag_322:\n        /* \"#utility.yul\":23896:23900   */\n      0x00\n        /* \"#utility.yul\":23916:23936   */\n      tag_743\n        /* \"#utility.yul\":23934:23935   */\n      dup3\n        /* \"#utility.yul\":23916:23936   */\n      tag_487\n      jump\t// in\n    tag_743:\n        /* \"#utility.yul\":23911:23936   */\n      swap2\n      pop\n        /* \"#utility.yul\":23950:23970   */\n      tag_744\n        /* \"#utility.yul\":23968:23969   */\n      dup4\n        /* \"#utility.yul\":23950:23970   */\n      tag_487\n      jump\t// in\n    tag_744:\n        /* \"#utility.yul\":23945:23970   */\n      swap3\n      pop\n        /* \"#utility.yul\":23994:23995   */\n      dup3\n        /* \"#utility.yul\":23991:23992   */\n      dup3\n        /* \"#utility.yul\":23987:23996   */\n      sub\n        /* \"#utility.yul\":23979:23996   */\n      swap1\n      pop\n        /* \"#utility.yul\":24018:24019   */\n      dup2\n        /* \"#utility.yul\":24012:24016   */\n      dup2\n        /* \"#utility.yul\":24009:24020   */\n      gt\n        /* \"#utility.yul\":24006:24043   */\n      iszero\n      tag_745\n      jumpi\n        /* \"#utility.yul\":24023:24041   */\n      tag_746\n      tag_513\n      jump\t// in\n    tag_746:\n        /* \"#utility.yul\":24006:24043   */\n    tag_745:\n        /* \"#utility.yul\":23856:24050   */\n      swap3\n      swap2\n      pop\n      pop\n      jump\t// out\n        /* \"#utility.yul\":24056:24236   */\n    tag_358:\n        /* \"#utility.yul\":24104:24181   */\n      0x4e487b7100000000000000000000000000000000000000000000000000000000\n        /* \"#utility.yul\":24101:24102   */\n      0x00\n        /* \"#utility.yul\":24094:24182   */\n      mstore\n        /* \"#utility.yul\":24201:24205   */\n      0x41\n        /* \"#utility.yul\":24198:24199   */\n      0x04\n        /* \"#utility.yul\":24191:24206   */\n      mstore\n        /* \"#utility.yul\":24225:24229   */\n      0x24\n        /* \"#utility.yul\":24222:24223   */\n      0x00\n        /* \"#utility.yul\":24215:24230   */\n      revert\n        /* \"#utility.yul\":24242:24422   */\n    tag_528:\n        /* \"#utility.yul\":24290:24367   */\n      0x4e487b7100000000000000000000000000000000000000000000000000000000\n        /* \"#utility.yul\":24287:24288   */\n      0x00\n        /* \"#utility.yul\":24280:24368   */\n      mstore\n        /* \"#utility.yul\":24387:24391   */\n      0x12\n        /* \"#utility.yul\":24384:24385   */\n      0x04\n        /* \"#utility.yul\":24377:24392   */\n      mstore\n        /* \"#utility.yul\":24411:24415   */\n      0x24\n        /* \"#utility.yul\":24408:24409   */\n      0x00\n        /* \"#utility.yul\":24401:24416   */\n      revert\n        /* \"#utility.yul\":24428:24604   */\n    tag_367:\n        /* \"#utility.yul\":24460:24461   */\n      0x00\n        /* \"#utility.yul\":24477:24497   */\n      tag_750\n        /* \"#utility.yul\":24495:24496   */\n      dup3\n        /* \"#utility.yul\":24477:24497   */\n      tag_487\n      jump\t// in\n    tag_750:\n        /* \"#utility.yul\":24472:24497   */\n      swap2\n      pop\n        /* \"#utility.yul\":24511:24531   */\n      tag_751\n        /* \"#utility.yul\":24529:24530   */\n      dup4\n        /* \"#utility.yul\":24511:24531   */\n      tag_487\n      jump\t// in\n    tag_751:\n        /* \"#utility.yul\":24506:24531   */\n      swap3\n      pop\n        /* \"#utility.yul\":24550:24551   */\n      dup3\n        /* \"#utility.yul\":24540:24575   */\n      tag_752\n      jumpi\n        /* \"#utility.yul\":24555:24573   */\n      tag_753\n      tag_528\n      jump\t// in\n    tag_753:\n        /* \"#utility.yul\":24540:24575   */\n    tag_752:\n        /* \"#utility.yul\":24596:24597   */\n      dup3\n        /* \"#utility.yul\":24593:24594   */\n      dup3\n        /* \"#utility.yul\":24589:24598   */\n      mod\n        /* \"#utility.yul\":24584:24598   */\n      swap1\n      pop\n        /* \"#utility.yul\":24428:24604   */\n      swap3\n      swap2\n      pop\n      pop\n      jump\t// out\n        /* \"#utility.yul\":24610:24790   */\n    tag_374:\n        /* \"#utility.yul\":24658:24735   */\n      0x4e487b7100000000000000000000000000000000000000000000000000000000\n        /* \"#utility.yul\":24655:24656   */\n      0x00\n        /* \"#utility.yul\":24648:24736   */\n      mstore\n        /* \"#utility.yul\":24755:24759   */\n      0x32\n        /* \"#utility.yul\":24752:24753   */\n      0x04\n        /* \"#utility.yul\":24745:24760   */\n      mstore\n        /* \"#utility.yul\":24779:24783   */\n      0x24\n        /* \"#utility.yul\":24776:24777   */\n      0x00\n        /* \"#utility.yul\":24769:24784   */\n      revert\n        /* \"#utility.yul\":24796:24967   */\n    tag_381:\n        /* \"#utility.yul\":24835:24838   */\n      0x00\n        /* \"#utility.yul\":24858:24882   */\n      tag_756\n        /* \"#utility.yul\":24876:24881   */\n      dup3\n        /* \"#utility.yul\":24858:24882   */\n      tag_487\n      jump\t// in\n    tag_756:\n        /* \"#utility.yul\":24849:24882   */\n      swap2\n      pop\n        /* \"#utility.yul\":24904:24908   */\n      0x00\n        /* \"#utility.yul\":24897:24902   */\n      dup3\n        /* \"#utility.yul\":24894:24909   */\n      sub\n        /* \"#utility.yul\":24891:24932   */\n      tag_757\n      jumpi\n        /* \"#utility.yul\":24912:24930   */\n      tag_758\n      tag_513\n      jump\t// in\n    tag_758:\n        /* \"#utility.yul\":24891:24932   */\n    tag_757:\n        /* \"#utility.yul\":24959:24960   */\n      0x01\n        /* \"#utility.yul\":24952:24957   */\n      dup3\n        /* \"#utility.yul\":24948:24961   */\n      sub\n        /* \"#utility.yul\":24941:24961   */\n      swap1\n      pop\n        /* \"#utility.yul\":24796:24967   */\n      swap2\n      swap1\n      pop\n      jump\t// out\n        /* \"#utility.yul\":24973:25293   */\n    tag_408:\n        /* \"#utility.yul\":25088:25092   */\n      0x00\n        /* \"#utility.yul\":25126:25128   */\n      0x40\n        /* \"#utility.yul\":25115:25124   */\n      dup3\n        /* \"#utility.yul\":25111:25129   */\n      add\n        /* \"#utility.yul\":25103:25129   */\n      swap1\n      pop\n        /* \"#utility.yul\":25139:25210   */\n      tag_760\n        /* \"#utility.yul\":25207:25208   */\n      0x00\n        /* \"#utility.yul\":25196:25205   */\n      dup4\n        /* \"#utility.yul\":25192:25209   */\n      add\n        /* \"#utility.yul\":25183:25189   */\n      dup6\n        /* \"#utility.yul\":25139:25210   */\n      tag_494\n      jump\t// in\n    tag_760:\n        /* \"#utility.yul\":25220:25286   */\n      tag_761\n        /* \"#utility.yul\":25282:25284   */\n      0x20\n        /* \"#utility.yul\":25271:25280   */\n      dup4\n        /* \"#utility.yul\":25267:25285   */\n      add\n        /* \"#utility.yul\":25258:25264   */\n      dup5\n        /* \"#utility.yul\":25220:25286   */\n      tag_497\n      jump\t// in\n    tag_761:\n        /* \"#utility.yul\":24973:25293   */\n      swap4\n      swap3\n      pop\n      pop\n      pop\n      jump\t// out\n        /* \"#utility.yul\":25299:25457   */\n    tag_529:\n        /* \"#utility.yul\":25439:25449   */\n      0x6e6f207072697a65000000000000000000000000000000000000000000000000\n        /* \"#utility.yul\":25435:25436   */\n      0x00\n        /* \"#utility.yul\":25427:25433   */\n      dup3\n        /* \"#utility.yul\":25423:25437   */\n      add\n        /* \"#utility.yul\":25416:25450   */\n      mstore\n        /* \"#utility.yul\":25299:25457   */\n      pop\n      jump\t// out\n        /* \"#utility.yul\":25463:25828   */\n    tag_530:\n        /* \"#utility.yul\":25605:25608   */\n      0x00\n        /* \"#utility.yul\":25626:25692   */\n      tag_764\n        /* \"#utility.yul\":25690:25691   */\n      0x08\n        /* \"#utility.yul\":25685:25688   */\n      dup4\n        /* \"#utility.yul\":25626:25692   */\n      tag_500\n      jump\t// in\n    tag_764:\n        /* \"#utility.yul\":25619:25692   */\n      swap2\n      pop\n        /* \"#utility.yul\":25701:25794   */\n      tag_765\n        /* \"#utility.yul\":25790:25793   */\n      dup3\n        /* \"#utility.yul\":25701:25794   */\n      tag_529\n      jump\t// in\n    tag_765:\n        /* \"#utility.yul\":25819:25821   */\n      0x20\n        /* \"#utility.yul\":25814:25817   */\n      dup3\n        /* \"#utility.yul\":25810:25822   */\n      add\n        /* \"#utility.yul\":25803:25822   */\n      swap1\n      pop\n        /* \"#utility.yul\":25463:25828   */\n      swap2\n      swap1\n      pop\n      jump\t// out\n        /* \"#utility.yul\":25834:26253   */\n    tag_414:\n        /* \"#utility.yul\":26000:26004   */\n      0x00\n        /* \"#utility.yul\":26038:26040   */\n      0x20\n        /* \"#utility.yul\":26027:26036   */\n      dup3\n        /* \"#utility.yul\":26023:26041   */\n      add\n        /* \"#utility.yul\":26015:26041   */\n      swap1\n      pop\n        /* \"#utility.yul\":26087:26096   */\n      dup2\n        /* \"#utility.yul\":26081:26085   */\n      dup2\n        /* \"#utility.yul\":26077:26097   */\n      sub\n        /* \"#utility.yul\":26073:26074   */\n      0x00\n        /* \"#utility.yul\":26062:26071   */\n      dup4\n        /* \"#utility.yul\":26058:26075   */\n      add\n        /* \"#utility.yul\":26051:26098   */\n      mstore\n        /* \"#utility.yul\":26115:26246   */\n      tag_767\n        /* \"#utility.yul\":26241:26245   */\n      dup2\n        /* \"#utility.yul\":26115:26246   */\n      tag_530\n      jump\t// in\n    tag_767:\n        /* \"#utility.yul\":26107:26246   */\n      swap1\n      pop\n        /* \"#utility.yul\":25834:26253   */\n      swap2\n      swap1\n      pop\n      jump\t// out\n        /* \"#utility.yul\":26259:26701   */\n    tag_420:\n        /* \"#utility.yul\":26408:26412   */\n      0x00\n        /* \"#utility.yul\":26446:26448   */\n      0x60\n        /* \"#utility.yul\":26435:26444   */\n      dup3\n        /* \"#utility.yul\":26431:26449   */\n      add\n        /* \"#utility.yul\":26423:26449   */\n      swap1\n      pop\n        /* \"#utility.yul\":26459:26530   */\n      tag_769\n        /* \"#utility.yul\":26527:26528   */\n      0x00\n        /* \"#utility.yul\":26516:26525   */\n      dup4\n        /* \"#utility.yul\":26512:26529   */\n      add\n        /* \"#utility.yul\":26503:26509   */\n      dup7\n        /* \"#utility.yul\":26459:26530   */\n      tag_495\n      jump\t// in\n    tag_769:\n        /* \"#utility.yul\":26540:26612   */\n      tag_770\n        /* \"#utility.yul\":26608:26610   */\n      0x20\n        /* \"#utility.yul\":26597:26606   */\n      dup4\n        /* \"#utility.yul\":26593:26611   */\n      add\n        /* \"#utility.yul\":26584:26590   */\n      dup6\n        /* \"#utility.yul\":26540:26612   */\n      tag_495\n      jump\t// in\n    tag_770:\n        /* \"#utility.yul\":26622:26694   */\n      tag_771\n        /* \"#utility.yul\":26690:26692   */\n      0x40\n        /* \"#utility.yul\":26679:26688   */\n      dup4\n        /* \"#utility.yul\":26675:26693   */\n      add\n        /* \"#utility.yul\":26666:26672   */\n      dup5\n        /* \"#utility.yul\":26622:26694   */\n      tag_494\n      jump\t// in\n    tag_771:\n        /* \"#utility.yul\":26259:26701   */\n      swap5\n      swap4\n      pop\n      pop\n      pop\n      pop\n      jump\t// out\n        /* \"#utility.yul\":26707:26786   */\n    tag_531:\n        /* \"#utility.yul\":26746:26753   */\n      0x00\n        /* \"#utility.yul\":26775:26780   */\n      dup2\n        /* \"#utility.yul\":26764:26780   */\n      swap1\n      pop\n        /* \"#utility.yul\":26707:26786   */\n      swap2\n      swap1\n      pop\n      jump\t// out\n        /* \"#utility.yul\":26792:26949   */\n    tag_532:\n        /* \"#utility.yul\":26897:26942   */\n      tag_774\n        /* \"#utility.yul\":26917:26941   */\n      tag_775\n        /* \"#utility.yul\":26935:26940   */\n      dup3\n        /* \"#utility.yul\":26917:26941   */\n      tag_487\n      jump\t// in\n    tag_775:\n        /* \"#utility.yul\":26897:26942   */\n      tag_531\n      jump\t// in\n    tag_774:\n        /* \"#utility.yul\":26892:26895   */\n      dup3\n        /* \"#utility.yul\":26885:26943   */\n      mstore\n        /* \"#utility.yul\":26792:26949   */\n      pop\n      pop\n      jump\t// out\n        /* \"#utility.yul\":26955:27352   */\n    tag_431:\n        /* \"#utility.yul\":27095:27098   */\n      0x00\n        /* \"#utility.yul\":27110:27185   */\n      tag_777\n        /* \"#utility.yul\":27181:27184   */\n      dup3\n        /* \"#utility.yul\":27172:27178   */\n      dup6\n        /* \"#utility.yul\":27110:27185   */\n      tag_532\n      jump\t// in\n    tag_777:\n        /* \"#utility.yul\":27210:27212   */\n      0x20\n        /* \"#utility.yul\":27205:27208   */\n      dup3\n        /* \"#utility.yul\":27201:27213   */\n      add\n        /* \"#utility.yul\":27194:27213   */\n      swap2\n      pop\n        /* \"#utility.yul\":27223:27298   */\n      tag_778\n        /* \"#utility.yul\":27294:27297   */\n      dup3\n        /* \"#utility.yul\":27285:27291   */\n      dup5\n        /* \"#utility.yul\":27223:27298   */\n      tag_532\n      jump\t// in\n    tag_778:\n        /* \"#utility.yul\":27323:27325   */\n      0x20\n        /* \"#utility.yul\":27318:27321   */\n      dup3\n        /* \"#utility.yul\":27314:27326   */\n      add\n        /* \"#utility.yul\":27307:27326   */\n      swap2\n      pop\n        /* \"#utility.yul\":27343:27346   */\n      dup2\n        /* \"#utility.yul\":27336:27346   */\n      swap1\n      pop\n        /* \"#utility.yul\":26955:27352   */\n      swap4\n      swap3\n      pop\n      pop\n      pop\n      jump\t// out\n        /* \"#utility.yul\":27358:27523   */\n    tag_533:\n        /* \"#utility.yul\":27498:27515   */\n      0x696e646578206f75742072616e67650000000000000000000000000000000000\n        /* \"#utility.yul\":27494:27495   */\n      0x00\n        /* \"#utility.yul\":27486:27492   */\n      dup3\n        /* \"#utility.yul\":27482:27496   */\n      add\n        /* \"#utility.yul\":27475:27516   */\n      mstore\n        /* \"#utility.yul\":27358:27523   */\n      pop\n      jump\t// out\n        /* \"#utility.yul\":27529:27895   */\n    tag_534:\n        /* \"#utility.yul\":27671:27674   */\n      0x00\n        /* \"#utility.yul\":27692:27759   */\n      tag_781\n        /* \"#utility.yul\":27756:27758   */\n      0x0f\n        /* \"#utility.yul\":27751:27754   */\n      dup4\n        /* \"#utility.yul\":27692:27759   */\n      tag_500\n      jump\t// in\n    tag_781:\n        /* \"#utility.yul\":27685:27759   */\n      swap2\n      pop\n        /* \"#utility.yul\":27768:27861   */\n      tag_782\n        /* \"#utility.yul\":27857:27860   */\n      dup3\n        /* \"#utility.yul\":27768:27861   */\n      tag_533\n      jump\t// in\n    tag_782:\n        /* \"#utility.yul\":27886:27888   */\n      0x20\n        /* \"#utility.yul\":27881:27884   */\n      dup3\n        /* \"#utility.yul\":27877:27889   */\n      add\n        /* \"#utility.yul\":27870:27889   */\n      swap1\n      pop\n        /* \"#utility.yul\":27529:27895   */\n      swap2\n      swap1\n      pop\n      jump\t// out\n        /* \"#utility.yul\":27901:28320   */\n    tag_436:\n        /* \"#utility.yul\":28067:28071   */\n      0x00\n        /* \"#utility.yul\":28105:28107   */\n      0x20\n        /* \"#utility.yul\":28094:28103   */\n      dup3\n        /* \"#utility.yul\":28090:28108   */\n      add\n        /* \"#utility.yul\":28082:28108   */\n      swap1\n      pop\n        /* \"#utility.yul\":28154:28163   */\n      dup2\n        /* \"#utility.yul\":28148:28152   */\n      dup2\n        /* \"#utility.yul\":28144:28164   */\n      sub\n        /* \"#utility.yul\":28140:28141   */\n      0x00\n        /* \"#utility.yul\":28129:28138   */\n      dup4\n        /* \"#utility.yul\":28125:28142   */\n      add\n        /* \"#utility.yul\":28118:28165   */\n      mstore\n        /* \"#utility.yul\":28182:28313   */\n      tag_784\n        /* \"#utility.yul\":28308:28312   */\n      dup2\n        /* \"#utility.yul\":28182:28313   */\n      tag_534\n      jump\t// in\n    tag_784:\n        /* \"#utility.yul\":28174:28313   */\n      swap1\n      pop\n        /* \"#utility.yul\":27901:28320   */\n      swap2\n      swap1\n      pop\n      jump\t// out\n        /* \"#utility.yul\":28326:28511   */\n    tag_443:\n        /* \"#utility.yul\":28366:28367   */\n      0x00\n        /* \"#utility.yul\":28383:28403   */\n      tag_786\n        /* \"#utility.yul\":28401:28402   */\n      dup3\n        /* \"#utility.yul\":28383:28403   */\n      tag_487\n      jump\t// in\n    tag_786:\n        /* \"#utility.yul\":28378:28403   */\n      swap2\n      pop\n        /* \"#utility.yul\":28417:28437   */\n      tag_787\n        /* \"#utility.yul\":28435:28436   */\n      dup4\n        /* \"#utility.yul\":28417:28437   */\n      tag_487\n      jump\t// in\n    tag_787:\n        /* \"#utility.yul\":28412:28437   */\n      swap3\n      pop\n        /* \"#utility.yul\":28456:28457   */\n      dup3\n        /* \"#utility.yul\":28446:28481   */\n      tag_788\n      jumpi\n        /* \"#utility.yul\":28461:28479   */\n      tag_789\n      tag_528\n      jump\t// in\n    tag_789:\n        /* \"#utility.yul\":28446:28481   */\n    tag_788:\n        /* \"#utility.yul\":28503:28504   */\n      dup3\n        /* \"#utility.yul\":28500:28501   */\n      dup3\n        /* \"#utility.yul\":28496:28505   */\n      div\n        /* \"#utility.yul\":28491:28505   */\n      swap1\n      pop\n        /* \"#utility.yul\":28326:28511   */\n      swap3\n      swap2\n      pop\n      pop\n      jump\t// out\n        /* \"#utility.yul\":28517:28654   */\n    tag_535:\n        /* \"#utility.yul\":28571:28576   */\n      0x00\n        /* \"#utility.yul\":28602:28608   */\n      dup2\n        /* \"#utility.yul\":28596:28609   */\n      mload\n        /* \"#utility.yul\":28587:28609   */\n      swap1\n      pop\n        /* \"#utility.yul\":28618:28648   */\n      tag_791\n        /* \"#utility.yul\":28642:28647   */\n      dup2\n        /* \"#utility.yul\":28618:28648   */\n      tag_498\n      jump\t// in\n    tag_791:\n        /* \"#utility.yul\":28517:28654   */\n      swap3\n      swap2\n      pop\n      pop\n      jump\t// out\n        /* \"#utility.yul\":28660:29005   */\n    tag_454:\n        /* \"#utility.yul\":28727:28733   */\n      0x00\n        /* \"#utility.yul\":28776:28778   */\n      0x20\n        /* \"#utility.yul\":28764:28773   */\n      dup3\n        /* \"#utility.yul\":28755:28762   */\n      dup5\n        /* \"#utility.yul\":28751:28774   */\n      sub\n        /* \"#utility.yul\":28747:28779   */\n      slt\n        /* \"#utility.yul\":28744:28863   */\n      iszero\n      tag_793\n      jumpi\n        /* \"#utility.yul\":28782:28861   */\n      tag_794\n      tag_485\n      jump\t// in\n    tag_794:\n        /* \"#utility.yul\":28744:28863   */\n    tag_793:\n        /* \"#utility.yul\":28902:28903   */\n      0x00\n        /* \"#utility.yul\":28927:28988   */\n      tag_795\n        /* \"#utility.yul\":28980:28987   */\n      dup5\n        /* \"#utility.yul\":28971:28977   */\n      dup3\n        /* \"#utility.yul\":28960:28969   */\n      dup6\n        /* \"#utility.yul\":28956:28978   */\n      add\n        /* \"#utility.yul\":28927:28988   */\n      tag_535\n      jump\t// in\n    tag_795:\n        /* \"#utility.yul\":28917:28988   */\n      swap2\n      pop\n        /* \"#utility.yul\":28873:28998   */\n      pop\n        /* \"#utility.yul\":28660:29005   */\n      swap3\n      swap2\n      pop\n      pop\n      jump\t// out\n        /* \"#utility.yul\":29011:29104   */\n    tag_536:\n        /* \"#utility.yul\":29047:29054   */\n      0x00\n        /* \"#utility.yul\":29087:29097   */\n      0xffffffff\n        /* \"#utility.yul\":29080:29085   */\n      dup3\n        /* \"#utility.yul\":29076:29098   */\n      and\n        /* \"#utility.yul\":29065:29098   */\n      swap1\n      pop\n        /* \"#utility.yul\":29011:29104   */\n      swap2\n      swap1\n      pop\n      jump\t// out\n        /* \"#utility.yul\":29110:29310   */\n    tag_459:\n        /* \"#utility.yul\":29149:29153   */\n      0x00\n        /* \"#utility.yul\":29169:29188   */\n      tag_798\n        /* \"#utility.yul\":29186:29187   */\n      dup3\n        /* \"#utility.yul\":29169:29188   */\n      tag_536\n      jump\t// in\n    tag_798:\n        /* \"#utility.yul\":29164:29188   */\n      swap2\n      pop\n        /* \"#utility.yul\":29202:29221   */\n      tag_799\n        /* \"#utility.yul\":29219:29220   */\n      dup4\n        /* \"#utility.yul\":29202:29221   */\n      tag_536\n      jump\t// in\n    tag_799:\n        /* \"#utility.yul\":29197:29221   */\n      swap3\n      pop\n        /* \"#utility.yul\":29245:29246   */\n      dup3\n        /* \"#utility.yul\":29242:29243   */\n      dup3\n        /* \"#utility.yul\":29238:29247   */\n      sub\n        /* \"#utility.yul\":29230:29247   */\n      swap1\n      pop\n        /* \"#utility.yul\":29269:29279   */\n      0xffffffff\n        /* \"#utility.yul\":29263:29267   */\n      dup2\n        /* \"#utility.yul\":29260:29280   */\n      gt\n        /* \"#utility.yul\":29257:29303   */\n      iszero\n      tag_800\n      jumpi\n        /* \"#utility.yul\":29283:29301   */\n      tag_801\n      tag_513\n      jump\t// in\n    tag_801:\n        /* \"#utility.yul\":29257:29303   */\n    tag_800:\n        /* \"#utility.yul\":29110:29310   */\n      swap3\n      swap2\n      pop\n      pop\n      jump\t// out\n        /* \"#utility.yul\":29316:29414   */\n    tag_537:\n        /* \"#utility.yul\":29367:29373   */\n      0x00\n        /* \"#utility.yul\":29401:29406   */\n      dup2\n        /* \"#utility.yul\":29395:29407   */\n      mload\n        /* \"#utility.yul\":29385:29407   */\n      swap1\n      pop\n        /* \"#utility.yul\":29316:29414   */\n      swap2\n      swap1\n      pop\n      jump\t// out\n        /* \"#utility.yul\":29420:29567   */\n    tag_538:\n        /* \"#utility.yul\":29521:29532   */\n      0x00\n        /* \"#utility.yul\":29558:29561   */\n      dup2\n        /* \"#utility.yul\":29543:29561   */\n      swap1\n      pop\n        /* \"#utility.yul\":29420:29567   */\n      swap3\n      swap2\n      pop\n      pop\n      jump\t// out\n        /* \"#utility.yul\":29573:29712   */\n    tag_539:\n        /* \"#utility.yul\":29662:29668   */\n      dup3\n        /* \"#utility.yul\":29657:29660   */\n      dup2\n        /* \"#utility.yul\":29652:29655   */\n      dup4\n        /* \"#utility.yul\":29646:29669   */\n      mcopy\n        /* \"#utility.yul\":29703:29704   */\n      0x00\n        /* \"#utility.yul\":29694:29700   */\n      dup4\n        /* \"#utility.yul\":29689:29692   */\n      dup4\n        /* \"#utility.yul\":29685:29701   */\n      add\n        /* \"#utility.yul\":29678:29705   */\n      mstore\n        /* \"#utility.yul\":29573:29712   */\n      pop\n      pop\n      pop\n      jump\t// out\n        /* \"#utility.yul\":29718:30104   */\n    tag_540:\n        /* \"#utility.yul\":29822:29825   */\n      0x00\n        /* \"#utility.yul\":29850:29888   */\n      tag_806\n        /* \"#utility.yul\":29882:29887   */\n      dup3\n        /* \"#utility.yul\":29850:29888   */\n      tag_537\n      jump\t// in\n    tag_806:\n        /* \"#utility.yul\":29904:29992   */\n      tag_807\n        /* \"#utility.yul\":29985:29991   */\n      dup2\n        /* \"#utility.yul\":29980:29983   */\n      dup6\n        /* \"#utility.yul\":29904:29992   */\n      tag_538\n      jump\t// in\n    tag_807:\n        /* \"#utility.yul\":29897:29992   */\n      swap4\n      pop\n        /* \"#utility.yul\":30001:30066   */\n      tag_808\n        /* \"#utility.yul\":30059:30065   */\n      dup2\n        /* \"#utility.yul\":30054:30057   */\n      dup6\n        /* \"#utility.yul\":30047:30051   */\n      0x20\n        /* \"#utility.yul\":30040:30045   */\n      dup7\n        /* \"#utility.yul\":30036:30052   */\n      add\n        /* \"#utility.yul\":30001:30066   */\n      tag_539\n      jump\t// in\n    tag_808:\n        /* \"#utility.yul\":30091:30097   */\n      dup1\n        /* \"#utility.yul\":30086:30089   */\n      dup5\n        /* \"#utility.yul\":30082:30098   */\n      add\n        /* \"#utility.yul\":30075:30098   */\n      swap2\n      pop\n        /* \"#utility.yul\":29826:30104   */\n      pop\n        /* \"#utility.yul\":29718:30104   */\n      swap3\n      swap2\n      pop\n      pop\n      jump\t// out\n        /* \"#utility.yul\":30110:30381   */\n    tag_467:\n        /* \"#utility.yul\":30240:30243   */\n      0x00\n        /* \"#utility.yul\":30262:30355   */\n      tag_810\n        /* \"#utility.yul\":30351:30354   */\n      dup3\n        /* \"#utility.yul\":30342:30348   */\n      dup5\n        /* \"#utility.yul\":30262:30355   */\n      tag_540\n      jump\t// in\n    tag_810:\n        /* \"#utility.yul\":30255:30355   */\n      swap2\n      pop\n        /* \"#utility.yul\":30372:30375   */\n      dup2\n        /* \"#utility.yul\":30365:30375   */\n      swap1\n      pop\n        /* \"#utility.yul\":30110:30381   */\n      swap3\n      swap2\n      pop\n      pop\n      jump\t// out\n\n    auxdata: 0xa26469706673582212206d84bd066a9c6ee713bd27915faac4091fd4a1247ff740c75bd3bd17cebaf50e64736f6c63430008190033\n}\n",
				"bytecode": {
					"linkReferences": {},
					"object": "608060405234801561000f575f80fd5b506040516142e23803806142e2833981810160405281019061003191906103a6565b3360015f819055505f73ffffffffffffffffffffffffffffffffffffffff168173ffffffffffffffffffffffffffffffffffffffff16036100a9575f6040517f1e4fbdf70000000000000000000000000000000000000000000000000000000081526004016100a09190610405565b60405180910390fd5b6100b88161025260201b60201c565b50600160065f8573ffffffffffffffffffffffffffffffffffffffff1673ffffffffffffffffffffffffffffffffffffffff1681526020019081526020015f205f6101000a81548160ff021916908315150217905550600160055f6101000a81548160ff0219169083151502179055508160025f6101000a81548173ffffffffffffffffffffffffffffffffffffffff021916908373ffffffffffffffffffffffffffffffffffffffff160217905550806004819055507fedae46487653623e513ea3b3341c9e6b457a2ef687d0342d2507ccb63458b19f8360016040516101a1929190610438565b60405180910390a17f6fe9a4ab2e95e24b2be44989dc36a685149dfde9354d486a8da5cb4bbd01b01060055f9054906101000a900460ff166040516101e6919061045f565b60405180910390a17fdc907cb17a7da8e1dffad2b7205a6ca1111cbb38a0f1f4b2b60a31eb673ca4a260025f9054906101000a900473ffffffffffffffffffffffffffffffffffffffff16600454604051610242929190610487565b60405180910390a15050506104ae565b5f60015f9054906101000a900473ffffffffffffffffffffffffffffffffffffffff1690508160015f6101000a81548173ffffffffffffffffffffffffffffffffffffffff021916908373ffffffffffffffffffffffffffffffffffffffff1602179055508173ffffffffffffffffffffffffffffffffffffffff168173ffffffffffffffffffffffffffffffffffffffff167f8be0079c531659141344cd1fd0a4f28419497f9722a3daafe3b4186f6b6457e060405160405180910390a35050565b5f80fd5b5f73ffffffffffffffffffffffffffffffffffffffff82169050919050565b5f61034282610319565b9050919050565b61035281610338565b811461035c575f80fd5b50565b5f8151905061036d81610349565b92915050565b5f819050919050565b61038581610373565b811461038f575f80fd5b50565b5f815190506103a08161037c565b92915050565b5f805f606084860312156103bd576103bc610315565b5b5f6103ca8682870161035f565b93505060206103db8682870161035f565b92505060406103ec86828701610392565b9150509250925092565b6103ff81610338565b82525050565b5f6020820190506104185f8301846103f6565b92915050565b5f8115159050919050565b6104328161041e565b82525050565b5f60408201905061044b5f8301856103f6565b6104586020830184610429565b9392505050565b5f6020820190506104725f830184610429565b92915050565b61048181610373565b82525050565b5f60408201905061049a5f8301856103f6565b6104a76020830184610478565b9392505050565b613e27806104bb5f395ff3fe608060405234801561000f575f80fd5b5060043610610135575f3560e01c8063a210d5e0116100b6578063d70981541161007a578063d7098154146102e9578063d982817414610305578063e00dd16114610321578063f2fde38b1461033f578063f41188ed1461035b578063fe5c59761461037757610135565b8063a210d5e014610247578063b4d9741914610265578063bc6bce9114610281578063bce3468d146102b1578063c5e7bb33146102cd57610135565b8063715018a6116100fd578063715018a6146101c75780638da5cb5b146101d1578063903606c5146101ef57806394456fa41461020b578063959acdaf1461022957610135565b80630e9e1262146101395780633834efe1146101555780633ddb7f19146101715780634bfec3aa1461018d578063559f24bc146101ab575b5f80fd5b610153600480360381019061014e9190612f43565b6103a7565b005b61016f600480360381019061016a9190612fa7565b610481565b005b61018b6004803603810190610186919061302c565b61064b565b005b6101956109e1565b6040516101a2919061308b565b60405180910390f35b6101c560048036038101906101c091906130a4565b6109e7565b005b6101cf610b41565b005b6101d9610b54565b6040516101e691906130f1565b60405180910390f35b6102096004803603810190610204919061310a565b610b7c565b005b610213610cb3565b604051610220919061308b565b60405180910390f35b610231610cbc565b60405161023e91906130f1565b60405180910390f35b61024f610ce1565b60405161025c9190613162565b60405180910390f35b61027f600480360381019061027a919061317b565b610cf3565b005b61029b6004803603810190610296919061323f565b610daf565b6040516102a89190613162565b60405180910390f35b6102cb60048036038101906102c691906130a4565b610dcc565b005b6102e760048036038101906102e2919061302c565b6111bd565b005b61030360048036038101906102fe9190612fa7565b611536565b005b61031f600480360381019061031a9190613294565b61163f565b005b610329611746565b604051610336919061308b565b60405180910390f35b6103596004803603810190610354919061323f565b61174c565b005b610375600480360381019061037091906132d2565b6117d0565b005b610391600480360381019061038c9190612fa7565b6118c1565b60405161039e919061308b565b60405180910390f35b6001151560065f3373ffffffffffffffffffffffffffffffffffffffff1673ffffffffffffffffffffffffffffffffffffffff1681526020019081526020015f205f9054906101000a900460ff16151514610437576040517f08c379a000000000000000000000000000000000000000000000000000000000815260040161042e90613357565b60405180910390fd5b61043f6118fc565b61047360025f9054906101000a900473ffffffffffffffffffffffffffffffffffffffff166004548686865f805f89611940565b61047b611aef565b50505050565b6001151560065f3373ffffffffffffffffffffffffffffffffffffffff1673ffffffffffffffffffffffffffffffffffffffff1681526020019081526020015f205f9054906101000a900460ff16151514610511576040517f08c379a000000000000000000000000000000000000000000000000000000000815260040161050890613357565b60405180910390fd5b6105196118fc565b6001600381111561052d5761052c613375565b5b60075f8381526020019081526020015f205f0160149054906101000a900460ff1660038111156105605761055f613375565b5b146105a0576040517f08c379a0000000000000000000000000000000000000000000000000000000008152600401610597906133ec565b60405180910390fd5b600260075f8381526020019081526020015f205f0160146101000a81548160ff021916908360038111156105d7576105d6613375565b5b0217905550807f4e7abaf6039e145cbdc465859479a7f979153a7c1a4e5662c425afe2a794c7854260075f8581526020019081526020015f206005015460075f8681526020019081526020015f20600701546040516106389392919061340a565b60405180910390a2610648611aef565b50565b6106536118fc565b6001600381111561066757610666613375565b5b60075f8581526020019081526020015f205f0160149054906101000a900460ff16600381111561069a57610699613375565b5b146106da576040517f08c379a00000000000000000000000000000000000000000000000000000000081526004016106d1906133ec565b60405180910390fd5b5f73ffffffffffffffffffffffffffffffffffffffff1660075f8581526020019081526020015f20600c015f9054906101000a900473ffffffffffffffffffffffffffffffffffffffff1673ffffffffffffffffffffffffffffffffffffffff160361077b576040517f08c379a000000000000000000000000000000000000000000000000000000000815260040161077290613489565b60405180910390fd5b3373ffffffffffffffffffffffffffffffffffffffff1660075f8581526020019081526020015f20600c015f9054906101000a900473ffffffffffffffffffffffffffffffffffffffff1673ffffffffffffffffffffffffffffffffffffffff161461081c576040517f08c379a0000000000000000000000000000000000000000000000000000000008152600401610813906134f1565b60405180910390fd5b5f810361085e576040517f08c379a000000000000000000000000000000000000000000000000000000000815260040161085590613559565b60405180910390fd5b5f60075f8581526020019081526020015f2060020154146108d05760075f8481526020019081526020015f206002015442106108cf576040517f08c379a00000000000000000000000000000000000000000000000000000000081526004016108c6906135c1565b60405180910390fd5b5b5f60075f8581526020019081526020015f2060030154146109625760075f8481526020019081526020015f20600301548160075f8681526020019081526020015f2060050154610920919061360c565b1115610961576040517f08c379a000000000000000000000000000000000000000000000000000000000815260040161095890613689565b60405180910390fd5b5b61096e8383835f611af8565b8173ffffffffffffffffffffffffffffffffffffffff163373ffffffffffffffffffffffffffffffffffffffff16847f0cdb228e331696a3755ff9db076df661228408ca1178178951e48ae952567c1f846040516109cc919061308b565b60405180910390a46109dc611aef565b505050565b60045481565b6109ef6118fc565b5f8103610a31576040517f08c379a0000000000000000000000000000000000000000000000000000000008152600401610a28906136f1565b60405180910390fd5b60016003811115610a4557610a44613375565b5b60075f8481526020019081526020015f205f0160149054906101000a900460ff166003811115610a7857610a77613375565b5b14610ab8576040517f08c379a0000000000000000000000000000000000000000000000000000000008152600401610aaf906133ec565b60405180910390fd5b5f60075f8481526020019081526020015f206002015414610b2a5760075f8381526020019081526020015f20600201544210610b29576040517f08c379a0000000000000000000000000000000000000000000000000000000008152600401610b20906135c1565b60405180910390fd5b5b610b35823383611e84565b610b3d611aef565b5050565b610b496120e6565b610b525f61216d565b565b5f60015f9054906101000a900473ffffffffffffffffffffffffffffffffffffffff16905090565b6001151560065f3373ffffffffffffffffffffffffffffffffffffffff1673ffffffffffffffffffffffffffffffffffffffff1681526020019081526020015f205f9054906101000a900460ff16151514610c0c576040517f08c379a0000000000000000000000000000000000000000000000000000000008152600401610c0390613357565b60405180910390fd5b8160025f6101000a81548173ffffffffffffffffffffffffffffffffffffffff021916908373ffffffffffffffffffffffffffffffffffffffff160217905550806004819055507fdc907cb17a7da8e1dffad2b7205a6ca1111cbb38a0f1f4b2b60a31eb673ca4a260025f9054906101000a900473ffffffffffffffffffffffffffffffffffffffff16600454604051610ca792919061370f565b60405180910390a15050565b5f600354905090565b60025f9054906101000a900473ffffffffffffffffffffffffffffffffffffffff1681565b60055f9054906101000a900460ff1681565b6001151560065f3373ffffffffffffffffffffffffffffffffffffffff1673ffffffffffffffffffffffffffffffffffffffff1681526020019081526020015f205f9054906101000a900460ff16151514610d83576040517f08c379a0000000000000000000000000000000000000000000000000000000008152600401610d7a90613357565b60405180910390fd5b610d8b6118fc565b610d9c898989898989898989611940565b610da4611aef565b505050505050505050565b6006602052805f5260405f205f915054906101000a900460ff1681565b6001151560065f3373ffffffffffffffffffffffffffffffffffffffff1673ffffffffffffffffffffffffffffffffffffffff1681526020019081526020015f205f9054906101000a900460ff16151514610e5c576040517f08c379a0000000000000000000000000000000000000000000000000000000008152600401610e5390613357565b60405180910390fd5b610e646118fc565b60026003811115610e7857610e77613375565b5b60075f8481526020019081526020015f205f0160149054906101000a900460ff166003811115610eab57610eaa613375565b5b14610eeb576040517f08c379a0000000000000000000000000000000000000000000000000000000008152600401610ee290613780565b60405180910390fd5b600360075f8481526020019081526020015f205f0160146101000a81548160ff02191690836003811115610f2257610f21613375565b5b0217905550817f66f6b4cd34444af165fb78bce3996496528b37af161c26f737b7341cc37063bb42604051610f57919061308b565b60405180910390a25f60075f8481526020019081526020015f206006015460075f8581526020019081526020015f2060050154610f94919061360c565b90505f8103610fac57610fa683612230565b506111b1565b5f8290505f82905060075f8681526020019081526020015f206004015481118015610feb57505f60075f8781526020019081526020015f206004015414155b156110085760075f8681526020019081526020015f206004015490505b5f60075f8781526020019081526020015f206005015460075f8881526020019081526020015f206007015461103d919061360c565b90505f8160075f8981526020019081526020015f20600b0154611060919061379e565b90505f61106e8585846123aa565b905061107b88858361252e565b60075f8981526020019081526020015f20600e015f9054906101000a900460ff16156111aa575f5b60075f8a81526020019081526020015f20600801548110156111a8575f600c5f8b81526020019081526020015f205f600b5f8d81526020019081526020015f205f8581526020019081526020015f205f9054906101000a900473ffffffffffffffffffffffffffffffffffffffff1673ffffffffffffffffffffffffffffffffffffffff1673ffffffffffffffffffffffffffffffffffffffff1681526020019081526020015f20541461119b5761119a89600b5f8c81526020019081526020015f205f8481526020019081526020015f205f9054906101000a900473ffffffffffffffffffffffffffffffffffffffff166127b1565b5b80806001019150506110a3565b505b5050505050505b6111b9611aef565b5050565b6111c56118fc565b600160038111156111d9576111d8613375565b5b60075f8581526020019081526020015f205f0160149054906101000a900460ff16600381111561120c5761120b613375565b5b1461124c576040517f08c379a0000000000000000000000000000000000000000000000000000000008152600401611243906133ec565b60405180910390fd5b5f73ffffffffffffffffffffffffffffffffffffffff1660075f8581526020019081526020015f20600c015f9054906101000a900473ffffffffffffffffffffffffffffffffffffffff1673ffffffffffffffffffffffffffffffffffffffff16146112ed576040517f08c379a00000000000000000000000000000000000000000000000000000000081526004016112e490613829565b60405180910390fd5b5f810361132f576040517f08c379a000000000000000000000000000000000000000000000000000000000815260040161132690613559565b60405180910390fd5b5f60075f8581526020019081526020015f2060020154146113a15760075f8481526020019081526020015f206002015442106113a0576040517f08c379a0000000000000000000000000000000000000000000000000000000008152600401611397906135c1565b60405180910390fd5b5b5f60075f8581526020019081526020015f2060030154146114335760075f8481526020019081526020015f20600301548160075f8681526020019081526020015f20600501546113f1919061360c565b1115611432576040517f08c379a000000000000000000000000000000000000000000000000000000000815260040161142990613689565b60405180910390fd5b5b5f8160075f8681526020019081526020015f20600b0154611454919061379e565b90506114b533308360075f8981526020019081526020015f205f015f9054906101000a900473ffffffffffffffffffffffffffffffffffffffff1673ffffffffffffffffffffffffffffffffffffffff166129b1909392919063ffffffff16565b6114c28484846001611af8565b8273ffffffffffffffffffffffffffffffffffffffff163373ffffffffffffffffffffffffffffffffffffffff16857fc711bfbe9284c7d96adbb9ebad39767e13c00b6b5cd4ca300fec0d969309a40785604051611520919061308b565b60405180910390a450611531611aef565b505050565b61153e6118fc565b60038081111561155157611550613375565b5b60075f8381526020019081526020015f205f0160149054906101000a900460ff16600381111561158457611583613375565b5b146115c4576040517f08c379a00000000000000000000000000000000000000000000000000000000081526004016115bb90613891565b60405180910390fd5b5f151560075f8381526020019081526020015f20600e015f9054906101000a900460ff1615151461162a576040517f08c379a0000000000000000000000000000000000000000000000000000000008152600401611621906138f9565b60405180910390fd5b61163481336127b1565b61163c611aef565b50565b6116476120e6565b5f73ffffffffffffffffffffffffffffffffffffffff168273ffffffffffffffffffffffffffffffffffffffff16036116b5576040517f08c379a00000000000000000000000000000000000000000000000000000000081526004016116ac90613961565b60405180910390fd5b8060065f8473ffffffffffffffffffffffffffffffffffffffff1673ffffffffffffffffffffffffffffffffffffffff1681526020019081526020015f205f6101000a81548160ff0219169083151502179055507fedae46487653623e513ea3b3341c9e6b457a2ef687d0342d2507ccb63458b19f828260405161173a92919061397f565b60405180910390a15050565b60035481565b6117546120e6565b5f73ffffffffffffffffffffffffffffffffffffffff168173ffffffffffffffffffffffffffffffffffffffff16036117c4575f6040517f1e4fbdf70000000000000000000000000000000000000000000000000000000081526004016117bb91906130f1565b60405180910390fd5b6117cd8161216d565b50565b6001151560065f3373ffffffffffffffffffffffffffffffffffffffff1673ffffffffffffffffffffffffffffffffffffffff1681526020019081526020015f205f9054906101000a900460ff16151514611860576040517f08c379a000000000000000000000000000000000000000000000000000000000815260040161185790613357565b60405180910390fd5b8060055f6101000a81548160ff0219169083151502179055507f6fe9a4ab2e95e24b2be44989dc36a685149dfde9354d486a8da5cb4bbd01b01060055f9054906101000a900460ff166040516118b69190613162565b60405180910390a150565b5f60075f8381526020019081526020015f205f0160149054906101000a900460ff1660038111156118f5576118f4613375565b5b9050919050565b60025f5403611937576040517f3ee5aeb500000000000000000000000000000000000000000000000000000000815260040160405180910390fd5b60025f81905550565b60035f815480929190611952906139a6565b91905055505f60075f60035481526020019081526020015f20905089815f015f6101000a81548173ffffffffffffffffffffffffffffffffffffffff021916908373ffffffffffffffffffffffffffffffffffffffff1602179055506001815f0160146101000a81548160ff021916908360038111156119d5576119d4613375565b5b02179055504281600101819055508781600201819055508681600301819055508581600401819055508881600b01819055508181600d018190555060055f9054906101000a900460ff1681600e015f6101000a81548160ff0219169083151502179055508281600c015f6101000a81548173ffffffffffffffffffffffffffffffffffffffff021916908373ffffffffffffffffffffffffffffffffffffffff1602179055506003547f4c987e6c9f6aad2cfe1d70875b12f8b9af9a28ca87e789bfef279084bf0354cd428a8a8d8860055f9054906101000a900460ff16604051611ac5969594939291906139ed565b60405180910390a25f841115611ae357611ae26003548686611e84565b5b50505050505050505050565b60015f81905550565b5f8060075f8781526020019081526020015f206009015414611b5a5760085f8681526020019081526020015f205f600160075f8981526020019081526020015f2060090154611b479190613a4c565b81526020019081526020015f205f015490505b60405180606001604052808483611b71919061360c565b81526020018573ffffffffffffffffffffffffffffffffffffffff16815260200183151581525060085f8781526020019081526020015f205f60075f8981526020019081526020015f206009015481526020019081526020015f205f820151815f01556020820151816001015f6101000a81548173ffffffffffffffffffffffffffffffffffffffff021916908373ffffffffffffffffffffffffffffffffffffffff16021790555060408201518160010160146101000a81548160ff0219169083151502179055509050508115611c80578260075f8781526020019081526020015f2060050154611c63919061360c565b60075f8781526020019081526020015f2060050181905550611cb9565b8260075f8781526020019081526020015f2060060154611ca0919061360c565b60075f8781526020019081526020015f20600601819055505b5f600a5f8781526020019081526020015f205f8673ffffffffffffffffffffffffffffffffffffffff1673ffffffffffffffffffffffffffffffffffffffff1681526020019081526020015f205403611daa5783600b5f8781526020019081526020015f205f60075f8981526020019081526020015f206008015481526020019081526020015f205f6101000a81548173ffffffffffffffffffffffffffffffffffffffff021916908373ffffffffffffffffffffffffffffffffffffffff160217905550600160075f8781526020019081526020015f206008015f828254611da2919061360c565b925050819055505b600160075f8781526020019081526020015f206009015f828254611dce919061360c565b9250508190555082600a5f8781526020019081526020015f205f8673ffffffffffffffffffffffffffffffffffffffff1673ffffffffffffffffffffffffffffffffffffffff1681526020019081526020015f2054611e2d919061360c565b600a5f8781526020019081526020015f205f8673ffffffffffffffffffffffffffffffffffffffff1673ffffffffffffffffffffffffffffffffffffffff1681526020019081526020015f20819055505050505050565b5f8160075f8681526020019081526020015f20600b0154611ea5919061379e565b9050611f0683308360075f8981526020019081526020015f205f015f9054906101000a900473ffffffffffffffffffffffffffffffffffffffff1673ffffffffffffffffffffffffffffffffffffffff166129b1909392919063ffffffff16565b8160075f60035481526020019081526020015f206007015f828254611f2b919061360c565b925050819055505f600e5f60035481526020019081526020015f205f8573ffffffffffffffffffffffffffffffffffffffff1673ffffffffffffffffffffffffffffffffffffffff1681526020019081526020015f20540361202b5782600d5f60035481526020019081526020015f205f60075f60035481526020019081526020015f20600a015481526020019081526020015f205f6101000a81548173ffffffffffffffffffffffffffffffffffffffff021916908373ffffffffffffffffffffffffffffffffffffffff160217905550600160075f60035481526020019081526020015f20600a015f828254612023919061360c565b925050819055505b81600e5f60035481526020019081526020015f205f8573ffffffffffffffffffffffffffffffffffffffff1673ffffffffffffffffffffffffffffffffffffffff1681526020019081526020015f205f828254612088919061360c565b925050819055508273ffffffffffffffffffffffffffffffffffffffff166003547fa95519638524dcea0d5d0102c719d77dc3d8b1ae68d2d1e37c79be21bc7b113b846040516120d8919061308b565b60405180910390a350505050565b6120ee612a33565b73ffffffffffffffffffffffffffffffffffffffff1661210c610b54565b73ffffffffffffffffffffffffffffffffffffffff161461216b5761212f612a33565b6040517f118cdaa700000000000000000000000000000000000000000000000000000000815260040161216291906130f1565b60405180910390fd5b565b5f60015f9054906101000a900473ffffffffffffffffffffffffffffffffffffffff1690508160015f6101000a81548173ffffffffffffffffffffffffffffffffffffffff021916908373ffffffffffffffffffffffffffffffffffffffff1602179055508173ffffffffffffffffffffffffffffffffffffffff168173ffffffffffffffffffffffffffffffffffffffff167f8be0079c531659141344cd1fd0a4f28419497f9722a3daafe3b4186f6b6457e060405160405180910390a35050565b5f5b60075f8381526020019081526020015f20600a01548110156123a6575f600e5f8481526020019081526020015f205f600d5f8681526020019081526020015f205f8581526020019081526020015f205f9054906101000a900473ffffffffffffffffffffffffffffffffffffffff1673ffffffffffffffffffffffffffffffffffffffff1673ffffffffffffffffffffffffffffffffffffffff1681526020019081526020015f205460075f8581526020019081526020015f20600b01546122fa919061379e565b9050612398600d5f8581526020019081526020015f205f8481526020019081526020015f205f9054906101000a900473ffffffffffffffffffffffffffffffffffffffff168260075f8781526020019081526020015f205f015f9054906101000a900473ffffffffffffffffffffffffffffffffffffffff1673ffffffffffffffffffffffffffffffffffffffff16612a3a9092919063ffffffff16565b508080600101915050612232565b5050565b60605f8367ffffffffffffffff8111156123c7576123c6613a7f565b5b6040519080825280602002602001820160405280156123f55781602001602082028036833780820191505090505b5090505f8590505f5b60018661240b9190613a4c565b8110156124f55761241c8282612ab9565b91505f858361242b9190613ad9565b90505f8290505b6001811015801561246857508460018261244c9190613a4c565b8151811061245d5761245c613b09565b5b602002602001015182105b156124c6578460018261247b9190613a4c565b8151811061248c5761248b613b09565b5b60200260200101518582815181106124a7576124a6613b09565b5b60200260200101818152505080806124be90613b36565b915050612432565b818582815181106124da576124d9613b09565b5b602002602001018181525050505080806001019150506123fe565b5083826001876125059190613a4c565b8151811061251657612515613b09565b5b60200260200101818152505081925050509392505050565b5f8060075f8681526020019081526020015f206006015460075f8781526020019081526020015f2060050154612564919061360c565b90505f5b848110156127a9575f8385838151811061258557612584613b09565b5b60200260200101516125979190613a4c565b90505f82905083871461262c57836125c98785815181106125bb576125ba613b09565b5b602002602001015185612ab9565b6125d39190613ad9565b90505b5f151560095f8a81526020019081526020015f205f8381526020019081526020015f205f9054906101000a900460ff1615151461262b578080612618906139a6565b915050838103612626575f90505b6125d6565b5b600160095f8a81526020019081526020015f205f8381526020019081526020015f205f6101000a81548160ff0219169083151502179055505f61266f8983612b08565b905081816001015f9054906101000a900473ffffffffffffffffffffffffffffffffffffffff1673ffffffffffffffffffffffffffffffffffffffff168a7f927546e38b674f5e5dff7edce9c7afdcf21a35ac03ba70fe8e341f61f2c73ded8660075f8f81526020019081526020015f20600e015f9054906101000a900460ff166040516126fe929190613b5d565b60405180910390a482600c5f8b81526020019081526020015f205f836001015f9054906101000a900473ffffffffffffffffffffffffffffffffffffffff1673ffffffffffffffffffffffffffffffffffffffff1673ffffffffffffffffffffffffffffffffffffffff1681526020019081526020015f205f828254612784919061360c565b925050819055508286612797919061360c565b95505050508080600101915050612568565b505050505050565b5f600c5f8481526020019081526020015f205f8373ffffffffffffffffffffffffffffffffffffffff1673ffffffffffffffffffffffffffffffffffffffff1681526020019081526020015f20540361283f576040517f08c379a000000000000000000000000000000000000000000000000000000000815260040161283690613bce565b60405180910390fd5b5f600c5f8481526020019081526020015f205f8373ffffffffffffffffffffffffffffffffffffffff1673ffffffffffffffffffffffffffffffffffffffff1681526020019081526020015f205490506128ec828260075f8781526020019081526020015f205f015f9054906101000a900473ffffffffffffffffffffffffffffffffffffffff1673ffffffffffffffffffffffffffffffffffffffff16612a3a9092919063ffffffff16565b600c5f8481526020019081526020015f205f8373ffffffffffffffffffffffffffffffffffffffff1673ffffffffffffffffffffffffffffffffffffffff1681526020019081526020015f205f90558173ffffffffffffffffffffffffffffffffffffffff16837f268ef67ed0490cc273925a4865e6fbdb4dcf7e0802aad957aa682a78c7618bef8360075f8881526020019081526020015f20600e015f9054906101000a900460ff166040516129a4929190613b5d565b60405180910390a3505050565b612a2d848573ffffffffffffffffffffffffffffffffffffffff166323b872dd8686866040516024016129e693929190613bec565b604051602081830303815290604052915060e01b6020820180517bffffffffffffffffffffffffffffffffffffffffffffffffffffffff8381831617835250505050612c9d565b50505050565b5f33905090565b612ab4838473ffffffffffffffffffffffffffffffffffffffff1663a9059cbb8585604051602401612a6d92919061370f565b604051602081830303815290604052915060e01b6020820180517bffffffffffffffffffffffffffffffffffffffffffffffffffffffff8381831617835250505050612c9d565b505050565b5f8061010083612ac99190613ad9565b905083612ad68583612d32565b604051602001612ae7929190613c41565b604051602081830303815290604052805190602001205f1c91505092915050565b5f8160085f8581526020019081526020015f205f600160075f8881526020019081526020015f2060090154612b3d9190613a4c565b81526020019081526020015f205f015411612b8d576040517f08c379a0000000000000000000000000000000000000000000000000000000008152600401612b8490613cb6565b60405180910390fd5b5f80600160075f8781526020019081526020015f2060090154612bb09190613a4c565b90505b5f60028284612bc2919061360c565b612bcc9190613cd4565b90508460085f8881526020019081526020015f205f8381526020019081526020015f205f01541115612c0057809150612c3a565b8460085f8881526020019081526020015f205f8381526020019081526020015f205f015411612c3957600181612c36919061360c565b92505b5b818310612c6b5760085f8781526020019081526020015f205f8381526020019081526020015f209350505050612c97565b506001612bb35760085f8681526020019081526020015f205f8081526020019081526020015f20925050505b92915050565b5f612cc7828473ffffffffffffffffffffffffffffffffffffffff16612d5d90919063ffffffff16565b90505f815114158015612ceb575080806020019051810190612ce99190613d18565b155b15612d2d57826040517f5274afe7000000000000000000000000000000000000000000000000000000008152600401612d2491906130f1565b60405180910390fd5b505050565b5f81610100612d419190613d52565b63ffffffff1683901c8263ffffffff1684901b17905092915050565b6060612d6a83835f612d72565b905092915050565b606081471015612db957306040517fcd786059000000000000000000000000000000000000000000000000000000008152600401612db091906130f1565b60405180910390fd5b5f808573ffffffffffffffffffffffffffffffffffffffff168486604051612de19190613ddb565b5f6040518083038185875af1925050503d805f8114612e1b576040519150601f19603f3d011682016040523d82523d5f602084013e612e20565b606091505b5091509150612e30868383612e3b565b925050509392505050565b606082612e5057612e4b82612ec8565b612ec0565b5f8251148015612e7657505f8473ffffffffffffffffffffffffffffffffffffffff163b145b15612eb857836040517f9996b315000000000000000000000000000000000000000000000000000000008152600401612eaf91906130f1565b60405180910390fd5b819050612ec1565b5b9392505050565b5f81511115612eda5780518082602001fd5b6040517f1425ea4200000000000000000000000000000000000000000000000000000000815260040160405180910390fd5b5f80fd5b5f819050919050565b612f2281612f10565b8114612f2c575f80fd5b50565b5f81359050612f3d81612f19565b92915050565b5f805f8060808587031215612f5b57612f5a612f0c565b5b5f612f6887828801612f2f565b9450506020612f7987828801612f2f565b9350506040612f8a87828801612f2f565b9250506060612f9b87828801612f2f565b91505092959194509250565b5f60208284031215612fbc57612fbb612f0c565b5b5f612fc984828501612f2f565b91505092915050565b5f73ffffffffffffffffffffffffffffffffffffffff82169050919050565b5f612ffb82612fd2565b9050919050565b61300b81612ff1565b8114613015575f80fd5b50565b5f8135905061302681613002565b92915050565b5f805f6060848603121561304357613042612f0c565b5b5f61305086828701612f2f565b935050602061306186828701613018565b925050604061307286828701612f2f565b9150509250925092565b61308581612f10565b82525050565b5f60208201905061309e5f83018461307c565b92915050565b5f80604083850312156130ba576130b9612f0c565b5b5f6130c785828601612f2f565b92505060206130d885828601612f2f565b9150509250929050565b6130eb81612ff1565b82525050565b5f6020820190506131045f8301846130e2565b92915050565b5f80604083850312156131205761311f612f0c565b5b5f61312d85828601613018565b925050602061313e85828601612f2f565b9150509250929050565b5f8115159050919050565b61315c81613148565b82525050565b5f6020820190506131755f830184613153565b92915050565b5f805f805f805f805f6101208a8c03121561319957613198612f0c565b5b5f6131a68c828d01613018565b99505060206131b78c828d01612f2f565b98505060406131c88c828d01612f2f565b97505060606131d98c828d01612f2f565b96505060806131ea8c828d01612f2f565b95505060a06131fb8c828d01613018565b94505060c061320c8c828d01612f2f565b93505060e061321d8c828d01613018565b92505061010061322f8c828d01612f2f565b9150509295985092959850929598565b5f6020828403121561325457613253612f0c565b5b5f61326184828501613018565b91505092915050565b61327381613148565b811461327d575f80fd5b50565b5f8135905061328e8161326a565b92915050565b5f80604083850312156132aa576132a9612f0c565b5b5f6132b785828601613018565b92505060206132c885828601613280565b9150509250929050565b5f602082840312156132e7576132e6612f0c565b5b5f6132f484828501613280565b91505092915050565b5f82825260208201905092915050565b7f4e6f74206f70657261746f7200000000000000000000000000000000000000005f82015250565b5f613341600c836132fd565b915061334c8261330d565b602082019050919050565b5f6020820190508181035f83015261336e81613335565b9050919050565b7f4e487b71000000000000000000000000000000000000000000000000000000005f52602160045260245ffd5b7f526564456e76656c6f7065206973206e6f74206f70656e0000000000000000005f82015250565b5f6133d66017836132fd565b91506133e1826133a2565b602082019050919050565b5f6020820190508181035f830152613403816133ca565b9050919050565b5f60608201905061341d5f83018661307c565b61342a602083018561307c565b613437604083018461307c565b949350505050565b7f6e6f20676574207469636b6574206d6f64656c000000000000000000000000005f82015250565b5f6134736013836132fd565b915061347e8261343f565b602082019050919050565b5f6020820190508181035f8301526134a081613467565b9050919050565b7f6e6f7420616c6c6f7720676574207469636b65740000000000000000000000005f82015250565b5f6134db6014836132fd565b91506134e6826134a7565b602082019050919050565b5f6020820190508181035f830152613508816134cf565b9050919050565b7f7469636b65744e756d62657273206e6f207a65726f00000000000000000000005f82015250565b5f6135436015836132fd565b915061354e8261350f565b602082019050919050565b5f6020820190508181035f83015261357081613537565b9050919050565b7f526564456e76656c6f7065206973206f7665722074696d6500000000000000005f82015250565b5f6135ab6018836132fd565b91506135b682613577565b602082019050919050565b5f6020820190508181035f8301526135d88161359f565b9050919050565b7f4e487b71000000000000000000000000000000000000000000000000000000005f52601160045260245ffd5b5f61361682612f10565b915061362183612f10565b9250828201905080821115613639576136386135df565b5b92915050565b7f526564456e76656c6f7065206973206f766572207469636b65740000000000005f82015250565b5f613673601a836132fd565b915061367e8261363f565b602082019050919050565b5f6020820190508181035f8301526136a081613667565b9050919050565b7f696e6a656374206e6f207a65726f0000000000000000000000000000000000005f82015250565b5f6136db600e836132fd565b91506136e6826136a7565b602082019050919050565b5f6020820190508181035f830152613708816136cf565b9050919050565b5f6040820190506137225f8301856130e2565b61372f602083018461307c565b9392505050565b7f526564456e76656c6f7065206e6f7420636c6f736500000000000000000000005f82015250565b5f61376a6015836132fd565b915061377582613736565b602082019050919050565b5f6020820190508181035f8301526137978161375e565b9050919050565b5f6137a882612f10565b91506137b383612f10565b92508282026137c181612f10565b915082820484148315176137d8576137d76135df565b5b5092915050565b7f6e6f20627579207469636b6574206d6f64656c000000000000000000000000005f82015250565b5f6138136013836132fd565b915061381e826137df565b602082019050919050565b5f6020820190508181035f83015261384081613807565b9050919050565b7f526564456e76656c6f7065206e6f7420636c61696d61626c65000000000000005f82015250565b5f61387b6019836132fd565b915061388682613847565b602082019050919050565b5f6020820190508181035f8301526138a88161386f565b9050919050565b7f526564456e76656c6f7065206175746f20636c61696d000000000000000000005f82015250565b5f6138e36016836132fd565b91506138ee826138af565b602082019050919050565b5f6020820190508181035f830152613910816138d7565b9050919050565b7f43616e6e6f74206265207a65726f2061646472657373000000000000000000005f82015250565b5f61394b6016836132fd565b915061395682613917565b602082019050919050565b5f6020820190508181035f8301526139788161393f565b9050919050565b5f6040820190506139925f8301856130e2565b61399f6020830184613153565b9392505050565b5f6139b082612f10565b91507fffffffffffffffffffffffffffffffffffffffffffffffffffffffffffffffff82036139e2576139e16135df565b5b600182019050919050565b5f60c082019050613a005f83018961307c565b613a0d602083018861307c565b613a1a604083018761307c565b613a27606083018661307c565b613a3460808301856130e2565b613a4160a0830184613153565b979650505050505050565b5f613a5682612f10565b9150613a6183612f10565b9250828203905081811115613a7957613a786135df565b5b92915050565b7f4e487b71000000000000000000000000000000000000000000000000000000005f52604160045260245ffd5b7f4e487b71000000000000000000000000000000000000000000000000000000005f52601260045260245ffd5b5f613ae382612f10565b9150613aee83612f10565b925082613afe57613afd613aac565b5b828206905092915050565b7f4e487b71000000000000000000000000000000000000000000000000000000005f52603260045260245ffd5b5f613b4082612f10565b91505f8203613b5257613b516135df565b5b600182039050919050565b5f604082019050613b705f83018561307c565b613b7d6020830184613153565b9392505050565b7f6e6f207072697a650000000000000000000000000000000000000000000000005f82015250565b5f613bb86008836132fd565b9150613bc382613b84565b602082019050919050565b5f6020820190508181035f830152613be581613bac565b9050919050565b5f606082019050613bff5f8301866130e2565b613c0c60208301856130e2565b613c19604083018461307c565b949350505050565b5f819050919050565b613c3b613c3682612f10565b613c21565b82525050565b5f613c4c8285613c2a565b602082019150613c5c8284613c2a565b6020820191508190509392505050565b7f696e646578206f75742072616e676500000000000000000000000000000000005f82015250565b5f613ca0600f836132fd565b9150613cab82613c6c565b602082019050919050565b5f6020820190508181035f830152613ccd81613c94565b9050919050565b5f613cde82612f10565b9150613ce983612f10565b925082613cf957613cf8613aac565b5b828204905092915050565b5f81519050613d128161326a565b92915050565b5f60208284031215613d2d57613d2c612f0c565b5b5f613d3a84828501613d04565b91505092915050565b5f63ffffffff82169050919050565b5f613d5c82613d43565b9150613d6783613d43565b9250828203905063ffffffff811115613d8357613d826135df565b5b92915050565b5f81519050919050565b5f81905092915050565b8281835e5f83830152505050565b5f613db582613d89565b613dbf8185613d93565b9350613dcf818560208601613d9d565b80840191505092915050565b5f613de68284613dab565b91508190509291505056fea26469706673582212206d84bd066a9c6ee713bd27915faac4091fd4a1247ff740c75bd3bd17cebaf50e64736f6c63430008190033",
					"opcodes": "PUSH1 0x80 PUSH1 0x40 MSTORE CALLVALUE DUP1 ISZERO PUSH2 0xF JUMPI PUSH0 DUP1 REVERT JUMPDEST POP PUSH1 0x40 MLOAD PUSH2 0x42E2 CODESIZE SUB DUP1 PUSH2 0x42E2 DUP4 CODECOPY DUP2 DUP2 ADD PUSH1 0x40 MSTORE DUP2 ADD SWAP1 PUSH2 0x31 SWAP2 SWAP1 PUSH2 0x3A6 JUMP JUMPDEST CALLER PUSH1 0x1 PUSH0 DUP2 SWAP1 SSTORE POP PUSH0 PUSH20 0xFFFFFFFFFFFFFFFFFFFFFFFFFFFFFFFFFFFFFFFF AND DUP2 PUSH20 0xFFFFFFFFFFFFFFFFFFFFFFFFFFFFFFFFFFFFFFFF AND SUB PUSH2 0xA9 JUMPI PUSH0 PUSH1 0x40 MLOAD PUSH32 0x1E4FBDF700000000000000000000000000000000000000000000000000000000 DUP2 MSTORE PUSH1 0x4 ADD PUSH2 0xA0 SWAP2 SWAP1 PUSH2 0x405 JUMP JUMPDEST PUSH1 0x40 MLOAD DUP1 SWAP2 SUB SWAP1 REVERT JUMPDEST PUSH2 0xB8 DUP2 PUSH2 0x252 PUSH1 0x20 SHL PUSH1 0x20 SHR JUMP JUMPDEST POP PUSH1 0x1 PUSH1 0x6 PUSH0 DUP6 PUSH20 0xFFFFFFFFFFFFFFFFFFFFFFFFFFFFFFFFFFFFFFFF AND PUSH20 0xFFFFFFFFFFFFFFFFFFFFFFFFFFFFFFFFFFFFFFFF AND DUP2 MSTORE PUSH1 0x20 ADD SWAP1 DUP2 MSTORE PUSH1 0x20 ADD PUSH0 KECCAK256 PUSH0 PUSH2 0x100 EXP DUP2 SLOAD DUP2 PUSH1 0xFF MUL NOT AND SWAP1 DUP4 ISZERO ISZERO MUL OR SWAP1 SSTORE POP PUSH1 0x1 PUSH1 0x5 PUSH0 PUSH2 0x100 EXP DUP2 SLOAD DUP2 PUSH1 0xFF MUL NOT AND SWAP1 DUP4 ISZERO ISZERO MUL OR SWAP1 SSTORE POP DUP2 PUSH1 0x2 PUSH0 PUSH2 0x100 EXP DUP2 SLOAD DUP2 PUSH20 0xFFFFFFFFFFFFFFFFFFFFFFFFFFFFFFFFFFFFFFFF MUL NOT AND SWAP1 DUP4 PUSH20 0xFFFFFFFFFFFFFFFFFFFFFFFFFFFFFFFFFFFFFFFF AND MUL OR SWAP1 SSTORE POP DUP1 PUSH1 0x4 DUP2 SWAP1 SSTORE POP PUSH32 0xEDAE46487653623E513EA3B3341C9E6B457A2EF687D0342D2507CCB63458B19F DUP4 PUSH1 0x1 PUSH1 0x40 MLOAD PUSH2 0x1A1 SWAP3 SWAP2 SWAP1 PUSH2 0x438 JUMP JUMPDEST PUSH1 0x40 MLOAD DUP1 SWAP2 SUB SWAP1 LOG1 PUSH32 0x6FE9A4AB2E95E24B2BE44989DC36A685149DFDE9354D486A8DA5CB4BBD01B010 PUSH1 0x5 PUSH0 SWAP1 SLOAD SWAP1 PUSH2 0x100 EXP SWAP1 DIV PUSH1 0xFF AND PUSH1 0x40 MLOAD PUSH2 0x1E6 SWAP2 SWAP1 PUSH2 0x45F JUMP JUMPDEST PUSH1 0x40 MLOAD DUP1 SWAP2 SUB SWAP1 LOG1 PUSH32 0xDC907CB17A7DA8E1DFFAD2B7205A6CA1111CBB38A0F1F4B2B60A31EB673CA4A2 PUSH1 0x2 PUSH0 SWAP1 SLOAD SWAP1 PUSH2 0x100 EXP SWAP1 DIV PUSH20 0xFFFFFFFFFFFFFFFFFFFFFFFFFFFFFFFFFFFFFFFF AND PUSH1 0x4 SLOAD PUSH1 0x40 MLOAD PUSH2 0x242 SWAP3 SWAP2 SWAP1 PUSH2 0x487 JUMP JUMPDEST PUSH1 0x40 MLOAD DUP1 SWAP2 SUB SWAP1 LOG1 POP POP POP PUSH2 0x4AE JUMP JUMPDEST PUSH0 PUSH1 0x1 PUSH0 SWAP1 SLOAD SWAP1 PUSH2 0x100 EXP SWAP1 DIV PUSH20 0xFFFFFFFFFFFFFFFFFFFFFFFFFFFFFFFFFFFFFFFF AND SWAP1 POP DUP2 PUSH1 0x1 PUSH0 PUSH2 0x100 EXP DUP2 SLOAD DUP2 PUSH20 0xFFFFFFFFFFFFFFFFFFFFFFFFFFFFFFFFFFFFFFFF MUL NOT AND SWAP1 DUP4 PUSH20 0xFFFFFFFFFFFFFFFFFFFFFFFFFFFFFFFFFFFFFFFF AND MUL OR SWAP1 SSTORE POP DUP2 PUSH20 0xFFFFFFFFFFFFFFFFFFFFFFFFFFFFFFFFFFFFFFFF AND DUP2 PUSH20 0xFFFFFFFFFFFFFFFFFFFFFFFFFFFFFFFFFFFFFFFF AND PUSH32 0x8BE0079C531659141344CD1FD0A4F28419497F9722A3DAAFE3B4186F6B6457E0 PUSH1 0x40 MLOAD PUSH1 0x40 MLOAD DUP1 SWAP2 SUB SWAP1 LOG3 POP POP JUMP JUMPDEST PUSH0 DUP1 REVERT JUMPDEST PUSH0 PUSH20 0xFFFFFFFFFFFFFFFFFFFFFFFFFFFFFFFFFFFFFFFF DUP3 AND SWAP1 POP SWAP2 SWAP1 POP JUMP JUMPDEST PUSH0 PUSH2 0x342 DUP3 PUSH2 0x319 JUMP JUMPDEST SWAP1 POP SWAP2 SWAP1 POP JUMP JUMPDEST PUSH2 0x352 DUP2 PUSH2 0x338 JUMP JUMPDEST DUP2 EQ PUSH2 0x35C JUMPI PUSH0 DUP1 REVERT JUMPDEST POP JUMP JUMPDEST PUSH0 DUP2 MLOAD SWAP1 POP PUSH2 0x36D DUP2 PUSH2 0x349 JUMP JUMPDEST SWAP3 SWAP2 POP POP JUMP JUMPDEST PUSH0 DUP2 SWAP1 POP SWAP2 SWAP1 POP JUMP JUMPDEST PUSH2 0x385 DUP2 PUSH2 0x373 JUMP JUMPDEST DUP2 EQ PUSH2 0x38F JUMPI PUSH0 DUP1 REVERT JUMPDEST POP JUMP JUMPDEST PUSH0 DUP2 MLOAD SWAP1 POP PUSH2 0x3A0 DUP2 PUSH2 0x37C JUMP JUMPDEST SWAP3 SWAP2 POP POP JUMP JUMPDEST PUSH0 DUP1 PUSH0 PUSH1 0x60 DUP5 DUP7 SUB SLT ISZERO PUSH2 0x3BD JUMPI PUSH2 0x3BC PUSH2 0x315 JUMP JUMPDEST JUMPDEST PUSH0 PUSH2 0x3CA DUP7 DUP3 DUP8 ADD PUSH2 0x35F JUMP JUMPDEST SWAP4 POP POP PUSH1 0x20 PUSH2 0x3DB DUP7 DUP3 DUP8 ADD PUSH2 0x35F JUMP JUMPDEST SWAP3 POP POP PUSH1 0x40 PUSH2 0x3EC DUP7 DUP3 DUP8 ADD PUSH2 0x392 JUMP JUMPDEST SWAP2 POP POP SWAP3 POP SWAP3 POP SWAP3 JUMP JUMPDEST PUSH2 0x3FF DUP2 PUSH2 0x338 JUMP JUMPDEST DUP3 MSTORE POP POP JUMP JUMPDEST PUSH0 PUSH1 0x20 DUP3 ADD SWAP1 POP PUSH2 0x418 PUSH0 DUP4 ADD DUP5 PUSH2 0x3F6 JUMP JUMPDEST SWAP3 SWAP2 POP POP JUMP JUMPDEST PUSH0 DUP2 ISZERO ISZERO SWAP1 POP SWAP2 SWAP1 POP JUMP JUMPDEST PUSH2 0x432 DUP2 PUSH2 0x41E JUMP JUMPDEST DUP3 MSTORE POP POP JUMP JUMPDEST PUSH0 PUSH1 0x40 DUP3 ADD SWAP1 POP PUSH2 0x44B PUSH0 DUP4 ADD DUP6 PUSH2 0x3F6 JUMP JUMPDEST PUSH2 0x458 PUSH1 0x20 DUP4 ADD DUP5 PUSH2 0x429 JUMP JUMPDEST SWAP4 SWAP3 POP POP POP JUMP JUMPDEST PUSH0 PUSH1 0x20 DUP3 ADD SWAP1 POP PUSH2 0x472 PUSH0 DUP4 ADD DUP5 PUSH2 0x429 JUMP JUMPDEST SWAP3 SWAP2 POP POP JUMP JUMPDEST PUSH2 0x481 DUP2 PUSH2 0x373 JUMP JUMPDEST DUP3 MSTORE POP POP JUMP JUMPDEST PUSH0 PUSH1 0x40 DUP3 ADD SWAP1 POP PUSH2 0x49A PUSH0 DUP4 ADD DUP6 PUSH2 0x3F6 JUMP JUMPDEST PUSH2 0x4A7 PUSH1 0x20 DUP4 ADD DUP5 PUSH2 0x478 JUMP JUMPDEST SWAP4 SWAP3 POP POP POP JUMP JUMPDEST PUSH2 0x3E27 DUP1 PUSH2 0x4BB PUSH0 CODECOPY PUSH0 RETURN INVALID PUSH1 0x80 PUSH1 0x40 MSTORE CALLVALUE DUP1 ISZERO PUSH2 0xF JUMPI PUSH0 DUP1 REVERT JUMPDEST POP PUSH1 0x4 CALLDATASIZE LT PUSH2 0x135 JUMPI PUSH0 CALLDATALOAD PUSH1 0xE0 SHR DUP1 PUSH4 0xA210D5E0 GT PUSH2 0xB6 JUMPI DUP1 PUSH4 0xD7098154 GT PUSH2 0x7A JUMPI DUP1 PUSH4 0xD7098154 EQ PUSH2 0x2E9 JUMPI DUP1 PUSH4 0xD9828174 EQ PUSH2 0x305 JUMPI DUP1 PUSH4 0xE00DD161 EQ PUSH2 0x321 JUMPI DUP1 PUSH4 0xF2FDE38B EQ PUSH2 0x33F JUMPI DUP1 PUSH4 0xF41188ED EQ PUSH2 0x35B JUMPI DUP1 PUSH4 0xFE5C5976 EQ PUSH2 0x377 JUMPI PUSH2 0x135 JUMP JUMPDEST DUP1 PUSH4 0xA210D5E0 EQ PUSH2 0x247 JUMPI DUP1 PUSH4 0xB4D97419 EQ PUSH2 0x265 JUMPI DUP1 PUSH4 0xBC6BCE91 EQ PUSH2 0x281 JUMPI DUP1 PUSH4 0xBCE3468D EQ PUSH2 0x2B1 JUMPI DUP1 PUSH4 0xC5E7BB33 EQ PUSH2 0x2CD JUMPI PUSH2 0x135 JUMP JUMPDEST DUP1 PUSH4 0x715018A6 GT PUSH2 0xFD JUMPI DUP1 PUSH4 0x715018A6 EQ PUSH2 0x1C7 JUMPI DUP1 PUSH4 0x8DA5CB5B EQ PUSH2 0x1D1 JUMPI DUP1 PUSH4 0x903606C5 EQ PUSH2 0x1EF JUMPI DUP1 PUSH4 0x94456FA4 EQ PUSH2 0x20B JUMPI DUP1 PUSH4 0x959ACDAF EQ PUSH2 0x229 JUMPI PUSH2 0x135 JUMP JUMPDEST DUP1 PUSH4 0xE9E1262 EQ PUSH2 0x139 JUMPI DUP1 PUSH4 0x3834EFE1 EQ PUSH2 0x155 JUMPI DUP1 PUSH4 0x3DDB7F19 EQ PUSH2 0x171 JUMPI DUP1 PUSH4 0x4BFEC3AA EQ PUSH2 0x18D JUMPI DUP1 PUSH4 0x559F24BC EQ PUSH2 0x1AB JUMPI JUMPDEST PUSH0 DUP1 REVERT JUMPDEST PUSH2 0x153 PUSH1 0x4 DUP1 CALLDATASIZE SUB DUP2 ADD SWAP1 PUSH2 0x14E SWAP2 SWAP1 PUSH2 0x2F43 JUMP JUMPDEST PUSH2 0x3A7 JUMP JUMPDEST STOP JUMPDEST PUSH2 0x16F PUSH1 0x4 DUP1 CALLDATASIZE SUB DUP2 ADD SWAP1 PUSH2 0x16A SWAP2 SWAP1 PUSH2 0x2FA7 JUMP JUMPDEST PUSH2 0x481 JUMP JUMPDEST STOP JUMPDEST PUSH2 0x18B PUSH1 0x4 DUP1 CALLDATASIZE SUB DUP2 ADD SWAP1 PUSH2 0x186 SWAP2 SWAP1 PUSH2 0x302C JUMP JUMPDEST PUSH2 0x64B JUMP JUMPDEST STOP JUMPDEST PUSH2 0x195 PUSH2 0x9E1 JUMP JUMPDEST PUSH1 0x40 MLOAD PUSH2 0x1A2 SWAP2 SWAP1 PUSH2 0x308B JUMP JUMPDEST PUSH1 0x40 MLOAD DUP1 SWAP2 SUB SWAP1 RETURN JUMPDEST PUSH2 0x1C5 PUSH1 0x4 DUP1 CALLDATASIZE SUB DUP2 ADD SWAP1 PUSH2 0x1C0 SWAP2 SWAP1 PUSH2 0x30A4 JUMP JUMPDEST PUSH2 0x9E7 JUMP JUMPDEST STOP JUMPDEST PUSH2 0x1CF PUSH2 0xB41 JUMP JUMPDEST STOP JUMPDEST PUSH2 0x1D9 PUSH2 0xB54 JUMP JUMPDEST PUSH1 0x40 MLOAD PUSH2 0x1E6 SWAP2 SWAP1 PUSH2 0x30F1 JUMP JUMPDEST PUSH1 0x40 MLOAD DUP1 SWAP2 SUB SWAP1 RETURN JUMPDEST PUSH2 0x209 PUSH1 0x4 DUP1 CALLDATASIZE SUB DUP2 ADD SWAP1 PUSH2 0x204 SWAP2 SWAP1 PUSH2 0x310A JUMP JUMPDEST PUSH2 0xB7C JUMP JUMPDEST STOP JUMPDEST PUSH2 0x213 PUSH2 0xCB3 JUMP JUMPDEST PUSH1 0x40 MLOAD PUSH2 0x220 SWAP2 SWAP1 PUSH2 0x308B JUMP JUMPDEST PUSH1 0x40 MLOAD DUP1 SWAP2 SUB SWAP1 RETURN JUMPDEST PUSH2 0x231 PUSH2 0xCBC JUMP JUMPDEST PUSH1 0x40 MLOAD PUSH2 0x23E SWAP2 SWAP1 PUSH2 0x30F1 JUMP JUMPDEST PUSH1 0x40 MLOAD DUP1 SWAP2 SUB SWAP1 RETURN JUMPDEST PUSH2 0x24F PUSH2 0xCE1 JUMP JUMPDEST PUSH1 0x40 MLOAD PUSH2 0x25C SWAP2 SWAP1 PUSH2 0x3162 JUMP JUMPDEST PUSH1 0x40 MLOAD DUP1 SWAP2 SUB SWAP1 RETURN JUMPDEST PUSH2 0x27F PUSH1 0x4 DUP1 CALLDATASIZE SUB DUP2 ADD SWAP1 PUSH2 0x27A SWAP2 SWAP1 PUSH2 0x317B JUMP JUMPDEST PUSH2 0xCF3 JUMP JUMPDEST STOP JUMPDEST PUSH2 0x29B PUSH1 0x4 DUP1 CALLDATASIZE SUB DUP2 ADD SWAP1 PUSH2 0x296 SWAP2 SWAP1 PUSH2 0x323F JUMP JUMPDEST PUSH2 0xDAF JUMP JUMPDEST PUSH1 0x40 MLOAD PUSH2 0x2A8 SWAP2 SWAP1 PUSH2 0x3162 JUMP JUMPDEST PUSH1 0x40 MLOAD DUP1 SWAP2 SUB SWAP1 RETURN JUMPDEST PUSH2 0x2CB PUSH1 0x4 DUP1 CALLDATASIZE SUB DUP2 ADD SWAP1 PUSH2 0x2C6 SWAP2 SWAP1 PUSH2 0x30A4 JUMP JUMPDEST PUSH2 0xDCC JUMP JUMPDEST STOP JUMPDEST PUSH2 0x2E7 PUSH1 0x4 DUP1 CALLDATASIZE SUB DUP2 ADD SWAP1 PUSH2 0x2E2 SWAP2 SWAP1 PUSH2 0x302C JUMP JUMPDEST PUSH2 0x11BD JUMP JUMPDEST STOP JUMPDEST PUSH2 0x303 PUSH1 0x4 DUP1 CALLDATASIZE SUB DUP2 ADD SWAP1 PUSH2 0x2FE SWAP2 SWAP1 PUSH2 0x2FA7 JUMP JUMPDEST PUSH2 0x1536 JUMP JUMPDEST STOP JUMPDEST PUSH2 0x31F PUSH1 0x4 DUP1 CALLDATASIZE SUB DUP2 ADD SWAP1 PUSH2 0x31A SWAP2 SWAP1 PUSH2 0x3294 JUMP JUMPDEST PUSH2 0x163F JUMP JUMPDEST STOP JUMPDEST PUSH2 0x329 PUSH2 0x1746 JUMP JUMPDEST PUSH1 0x40 MLOAD PUSH2 0x336 SWAP2 SWAP1 PUSH2 0x308B JUMP JUMPDEST PUSH1 0x40 MLOAD DUP1 SWAP2 SUB SWAP1 RETURN JUMPDEST PUSH2 0x359 PUSH1 0x4 DUP1 CALLDATASIZE SUB DUP2 ADD SWAP1 PUSH2 0x354 SWAP2 SWAP1 PUSH2 0x323F JUMP JUMPDEST PUSH2 0x174C JUMP JUMPDEST STOP JUMPDEST PUSH2 0x375 PUSH1 0x4 DUP1 CALLDATASIZE SUB DUP2 ADD SWAP1 PUSH2 0x370 SWAP2 SWAP1 PUSH2 0x32D2 JUMP JUMPDEST PUSH2 0x17D0 JUMP JUMPDEST STOP JUMPDEST PUSH2 0x391 PUSH1 0x4 DUP1 CALLDATASIZE SUB DUP2 ADD SWAP1 PUSH2 0x38C SWAP2 SWAP1 PUSH2 0x2FA7 JUMP JUMPDEST PUSH2 0x18C1 JUMP JUMPDEST PUSH1 0x40 MLOAD PUSH2 0x39E SWAP2 SWAP1 PUSH2 0x308B JUMP JUMPDEST PUSH1 0x40 MLOAD DUP1 SWAP2 SUB SWAP1 RETURN JUMPDEST PUSH1 0x1 ISZERO ISZERO PUSH1 0x6 PUSH0 CALLER PUSH20 0xFFFFFFFFFFFFFFFFFFFFFFFFFFFFFFFFFFFFFFFF AND PUSH20 0xFFFFFFFFFFFFFFFFFFFFFFFFFFFFFFFFFFFFFFFF AND DUP2 MSTORE PUSH1 0x20 ADD SWAP1 DUP2 MSTORE PUSH1 0x20 ADD PUSH0 KECCAK256 PUSH0 SWAP1 SLOAD SWAP1 PUSH2 0x100 EXP SWAP1 DIV PUSH1 0xFF AND ISZERO ISZERO EQ PUSH2 0x437 JUMPI PUSH1 0x40 MLOAD PUSH32 0x8C379A000000000000000000000000000000000000000000000000000000000 DUP2 MSTORE PUSH1 0x4 ADD PUSH2 0x42E SWAP1 PUSH2 0x3357 JUMP JUMPDEST PUSH1 0x40 MLOAD DUP1 SWAP2 SUB SWAP1 REVERT JUMPDEST PUSH2 0x43F PUSH2 0x18FC JUMP JUMPDEST PUSH2 0x473 PUSH1 0x2 PUSH0 SWAP1 SLOAD SWAP1 PUSH2 0x100 EXP SWAP1 DIV PUSH20 0xFFFFFFFFFFFFFFFFFFFFFFFFFFFFFFFFFFFFFFFF AND PUSH1 0x4 SLOAD DUP7 DUP7 DUP7 PUSH0 DUP1 PUSH0 DUP10 PUSH2 0x1940 JUMP JUMPDEST PUSH2 0x47B PUSH2 0x1AEF JUMP JUMPDEST POP POP POP POP JUMP JUMPDEST PUSH1 0x1 ISZERO ISZERO PUSH1 0x6 PUSH0 CALLER PUSH20 0xFFFFFFFFFFFFFFFFFFFFFFFFFFFFFFFFFFFFFFFF AND PUSH20 0xFFFFFFFFFFFFFFFFFFFFFFFFFFFFFFFFFFFFFFFF AND DUP2 MSTORE PUSH1 0x20 ADD SWAP1 DUP2 MSTORE PUSH1 0x20 ADD PUSH0 KECCAK256 PUSH0 SWAP1 SLOAD SWAP1 PUSH2 0x100 EXP SWAP1 DIV PUSH1 0xFF AND ISZERO ISZERO EQ PUSH2 0x511 JUMPI PUSH1 0x40 MLOAD PUSH32 0x8C379A000000000000000000000000000000000000000000000000000000000 DUP2 MSTORE PUSH1 0x4 ADD PUSH2 0x508 SWAP1 PUSH2 0x3357 JUMP JUMPDEST PUSH1 0x40 MLOAD DUP1 SWAP2 SUB SWAP1 REVERT JUMPDEST PUSH2 0x519 PUSH2 0x18FC JUMP JUMPDEST PUSH1 0x1 PUSH1 0x3 DUP2 GT ISZERO PUSH2 0x52D JUMPI PUSH2 0x52C PUSH2 0x3375 JUMP JUMPDEST JUMPDEST PUSH1 0x7 PUSH0 DUP4 DUP2 MSTORE PUSH1 0x20 ADD SWAP1 DUP2 MSTORE PUSH1 0x20 ADD PUSH0 KECCAK256 PUSH0 ADD PUSH1 0x14 SWAP1 SLOAD SWAP1 PUSH2 0x100 EXP SWAP1 DIV PUSH1 0xFF AND PUSH1 0x3 DUP2 GT ISZERO PUSH2 0x560 JUMPI PUSH2 0x55F PUSH2 0x3375 JUMP JUMPDEST JUMPDEST EQ PUSH2 0x5A0 JUMPI PUSH1 0x40 MLOAD PUSH32 0x8C379A000000000000000000000000000000000000000000000000000000000 DUP2 MSTORE PUSH1 0x4 ADD PUSH2 0x597 SWAP1 PUSH2 0x33EC JUMP JUMPDEST PUSH1 0x40 MLOAD DUP1 SWAP2 SUB SWAP1 REVERT JUMPDEST PUSH1 0x2 PUSH1 0x7 PUSH0 DUP4 DUP2 MSTORE PUSH1 0x20 ADD SWAP1 DUP2 MSTORE PUSH1 0x20 ADD PUSH0 KECCAK256 PUSH0 ADD PUSH1 0x14 PUSH2 0x100 EXP DUP2 SLOAD DUP2 PUSH1 0xFF MUL NOT AND SWAP1 DUP4 PUSH1 0x3 DUP2 GT ISZERO PUSH2 0x5D7 JUMPI PUSH2 0x5D6 PUSH2 0x3375 JUMP JUMPDEST JUMPDEST MUL OR SWAP1 SSTORE POP DUP1 PUSH32 0x4E7ABAF6039E145CBDC465859479A7F979153A7C1A4E5662C425AFE2A794C785 TIMESTAMP PUSH1 0x7 PUSH0 DUP6 DUP2 MSTORE PUSH1 0x20 ADD SWAP1 DUP2 MSTORE PUSH1 0x20 ADD PUSH0 KECCAK256 PUSH1 0x5 ADD SLOAD PUSH1 0x7 PUSH0 DUP7 DUP2 MSTORE PUSH1 0x20 ADD SWAP1 DUP2 MSTORE PUSH1 0x20 ADD PUSH0 KECCAK256 PUSH1 0x7 ADD SLOAD PUSH1 0x40 MLOAD PUSH2 0x638 SWAP4 SWAP3 SWAP2 SWAP1 PUSH2 0x340A JUMP JUMPDEST PUSH1 0x40 MLOAD DUP1 SWAP2 SUB SWAP1 LOG2 PUSH2 0x648 PUSH2 0x1AEF JUMP JUMPDEST POP JUMP JUMPDEST PUSH2 0x653 PUSH2 0x18FC JUMP JUMPDEST PUSH1 0x1 PUSH1 0x3 DUP2 GT ISZERO PUSH2 0x667 JUMPI PUSH2 0x666 PUSH2 0x3375 JUMP JUMPDEST JUMPDEST PUSH1 0x7 PUSH0 DUP6 DUP2 MSTORE PUSH1 0x20 ADD SWAP1 DUP2 MSTORE PUSH1 0x20 ADD PUSH0 KECCAK256 PUSH0 ADD PUSH1 0x14 SWAP1 SLOAD SWAP1 PUSH2 0x100 EXP SWAP1 DIV PUSH1 0xFF AND PUSH1 0x3 DUP2 GT ISZERO PUSH2 0x69A JUMPI PUSH2 0x699 PUSH2 0x3375 JUMP JUMPDEST JUMPDEST EQ PUSH2 0x6DA JUMPI PUSH1 0x40 MLOAD PUSH32 0x8C379A000000000000000000000000000000000000000000000000000000000 DUP2 MSTORE PUSH1 0x4 ADD PUSH2 0x6D1 SWAP1 PUSH2 0x33EC JUMP JUMPDEST PUSH1 0x40 MLOAD DUP1 SWAP2 SUB SWAP1 REVERT JUMPDEST PUSH0 PUSH20 0xFFFFFFFFFFFFFFFFFFFFFFFFFFFFFFFFFFFFFFFF AND PUSH1 0x7 PUSH0 DUP6 DUP2 MSTORE PUSH1 0x20 ADD SWAP1 DUP2 MSTORE PUSH1 0x20 ADD PUSH0 KECCAK256 PUSH1 0xC ADD PUSH0 SWAP1 SLOAD SWAP1 PUSH2 0x100 EXP SWAP1 DIV PUSH20 0xFFFFFFFFFFFFFFFFFFFFFFFFFFFFFFFFFFFFFFFF AND PUSH20 0xFFFFFFFFFFFFFFFFFFFFFFFFFFFFFFFFFFFFFFFF AND SUB PUSH2 0x77B JUMPI PUSH1 0x40 MLOAD PUSH32 0x8C379A000000000000000000000000000000000000000000000000000000000 DUP2 MSTORE PUSH1 0x4 ADD PUSH2 0x772 SWAP1 PUSH2 0x3489 JUMP JUMPDEST PUSH1 0x40 MLOAD DUP1 SWAP2 SUB SWAP1 REVERT JUMPDEST CALLER PUSH20 0xFFFFFFFFFFFFFFFFFFFFFFFFFFFFFFFFFFFFFFFF AND PUSH1 0x7 PUSH0 DUP6 DUP2 MSTORE PUSH1 0x20 ADD SWAP1 DUP2 MSTORE PUSH1 0x20 ADD PUSH0 KECCAK256 PUSH1 0xC ADD PUSH0 SWAP1 SLOAD SWAP1 PUSH2 0x100 EXP SWAP1 DIV PUSH20 0xFFFFFFFFFFFFFFFFFFFFFFFFFFFFFFFFFFFFFFFF AND PUSH20 0xFFFFFFFFFFFFFFFFFFFFFFFFFFFFFFFFFFFFFFFF AND EQ PUSH2 0x81C JUMPI PUSH1 0x40 MLOAD PUSH32 0x8C379A000000000000000000000000000000000000000000000000000000000 DUP2 MSTORE PUSH1 0x4 ADD PUSH2 0x813 SWAP1 PUSH2 0x34F1 JUMP JUMPDEST PUSH1 0x40 MLOAD DUP1 SWAP2 SUB SWAP1 REVERT JUMPDEST PUSH0 DUP2 SUB PUSH2 0x85E JUMPI PUSH1 0x40 MLOAD PUSH32 0x8C379A000000000000000000000000000000000000000000000000000000000 DUP2 MSTORE PUSH1 0x4 ADD PUSH2 0x855 SWAP1 PUSH2 0x3559 JUMP JUMPDEST PUSH1 0x40 MLOAD DUP1 SWAP2 SUB SWAP1 REVERT JUMPDEST PUSH0 PUSH1 0x7 PUSH0 DUP6 DUP2 MSTORE PUSH1 0x20 ADD SWAP1 DUP2 MSTORE PUSH1 0x20 ADD PUSH0 KECCAK256 PUSH1 0x2 ADD SLOAD EQ PUSH2 0x8D0 JUMPI PUSH1 0x7 PUSH0 DUP5 DUP2 MSTORE PUSH1 0x20 ADD SWAP1 DUP2 MSTORE PUSH1 0x20 ADD PUSH0 KECCAK256 PUSH1 0x2 ADD SLOAD TIMESTAMP LT PUSH2 0x8CF JUMPI PUSH1 0x40 MLOAD PUSH32 0x8C379A000000000000000000000000000000000000000000000000000000000 DUP2 MSTORE PUSH1 0x4 ADD PUSH2 0x8C6 SWAP1 PUSH2 0x35C1 JUMP JUMPDEST PUSH1 0x40 MLOAD DUP1 SWAP2 SUB SWAP1 REVERT JUMPDEST JUMPDEST PUSH0 PUSH1 0x7 PUSH0 DUP6 DUP2 MSTORE PUSH1 0x20 ADD SWAP1 DUP2 MSTORE PUSH1 0x20 ADD PUSH0 KECCAK256 PUSH1 0x3 ADD SLOAD EQ PUSH2 0x962 JUMPI PUSH1 0x7 PUSH0 DUP5 DUP2 MSTORE PUSH1 0x20 ADD SWAP1 DUP2 MSTORE PUSH1 0x20 ADD PUSH0 KECCAK256 PUSH1 0x3 ADD SLOAD DUP2 PUSH1 0x7 PUSH0 DUP7 DUP2 MSTORE PUSH1 0x20 ADD SWAP1 DUP2 MSTORE PUSH1 0x20 ADD PUSH0 KECCAK256 PUSH1 0x5 ADD SLOAD PUSH2 0x920 SWAP2 SWAP1 PUSH2 0x360C JUMP JUMPDEST GT ISZERO PUSH2 0x961 JUMPI PUSH1 0x40 MLOAD PUSH32 0x8C379A000000000000000000000000000000000000000000000000000000000 DUP2 MSTORE PUSH1 0x4 ADD PUSH2 0x958 SWAP1 PUSH2 0x3689 JUMP JUMPDEST PUSH1 0x40 MLOAD DUP1 SWAP2 SUB SWAP1 REVERT JUMPDEST JUMPDEST PUSH2 0x96E DUP4 DUP4 DUP4 PUSH0 PUSH2 0x1AF8 JUMP JUMPDEST DUP2 PUSH20 0xFFFFFFFFFFFFFFFFFFFFFFFFFFFFFFFFFFFFFFFF AND CALLER PUSH20 0xFFFFFFFFFFFFFFFFFFFFFFFFFFFFFFFFFFFFFFFF AND DUP5 PUSH32 0xCDB228E331696A3755FF9DB076DF661228408CA1178178951E48AE952567C1F DUP5 PUSH1 0x40 MLOAD PUSH2 0x9CC SWAP2 SWAP1 PUSH2 0x308B JUMP JUMPDEST PUSH1 0x40 MLOAD DUP1 SWAP2 SUB SWAP1 LOG4 PUSH2 0x9DC PUSH2 0x1AEF JUMP JUMPDEST POP POP POP JUMP JUMPDEST PUSH1 0x4 SLOAD DUP2 JUMP JUMPDEST PUSH2 0x9EF PUSH2 0x18FC JUMP JUMPDEST PUSH0 DUP2 SUB PUSH2 0xA31 JUMPI PUSH1 0x40 MLOAD PUSH32 0x8C379A000000000000000000000000000000000000000000000000000000000 DUP2 MSTORE PUSH1 0x4 ADD PUSH2 0xA28 SWAP1 PUSH2 0x36F1 JUMP JUMPDEST PUSH1 0x40 MLOAD DUP1 SWAP2 SUB SWAP1 REVERT JUMPDEST PUSH1 0x1 PUSH1 0x3 DUP2 GT ISZERO PUSH2 0xA45 JUMPI PUSH2 0xA44 PUSH2 0x3375 JUMP JUMPDEST JUMPDEST PUSH1 0x7 PUSH0 DUP5 DUP2 MSTORE PUSH1 0x20 ADD SWAP1 DUP2 MSTORE PUSH1 0x20 ADD PUSH0 KECCAK256 PUSH0 ADD PUSH1 0x14 SWAP1 SLOAD SWAP1 PUSH2 0x100 EXP SWAP1 DIV PUSH1 0xFF AND PUSH1 0x3 DUP2 GT ISZERO PUSH2 0xA78 JUMPI PUSH2 0xA77 PUSH2 0x3375 JUMP JUMPDEST JUMPDEST EQ PUSH2 0xAB8 JUMPI PUSH1 0x40 MLOAD PUSH32 0x8C379A000000000000000000000000000000000000000000000000000000000 DUP2 MSTORE PUSH1 0x4 ADD PUSH2 0xAAF SWAP1 PUSH2 0x33EC JUMP JUMPDEST PUSH1 0x40 MLOAD DUP1 SWAP2 SUB SWAP1 REVERT JUMPDEST PUSH0 PUSH1 0x7 PUSH0 DUP5 DUP2 MSTORE PUSH1 0x20 ADD SWAP1 DUP2 MSTORE PUSH1 0x20 ADD PUSH0 KECCAK256 PUSH1 0x2 ADD SLOAD EQ PUSH2 0xB2A JUMPI PUSH1 0x7 PUSH0 DUP4 DUP2 MSTORE PUSH1 0x20 ADD SWAP1 DUP2 MSTORE PUSH1 0x20 ADD PUSH0 KECCAK256 PUSH1 0x2 ADD SLOAD TIMESTAMP LT PUSH2 0xB29 JUMPI PUSH1 0x40 MLOAD PUSH32 0x8C379A000000000000000000000000000000000000000000000000000000000 DUP2 MSTORE PUSH1 0x4 ADD PUSH2 0xB20 SWAP1 PUSH2 0x35C1 JUMP JUMPDEST PUSH1 0x40 MLOAD DUP1 SWAP2 SUB SWAP1 REVERT JUMPDEST JUMPDEST PUSH2 0xB35 DUP3 CALLER DUP4 PUSH2 0x1E84 JUMP JUMPDEST PUSH2 0xB3D PUSH2 0x1AEF JUMP JUMPDEST POP POP JUMP JUMPDEST PUSH2 0xB49 PUSH2 0x20E6 JUMP JUMPDEST PUSH2 0xB52 PUSH0 PUSH2 0x216D JUMP JUMPDEST JUMP JUMPDEST PUSH0 PUSH1 0x1 PUSH0 SWAP1 SLOAD SWAP1 PUSH2 0x100 EXP SWAP1 DIV PUSH20 0xFFFFFFFFFFFFFFFFFFFFFFFFFFFFFFFFFFFFFFFF AND SWAP1 POP SWAP1 JUMP JUMPDEST PUSH1 0x1 ISZERO ISZERO PUSH1 0x6 PUSH0 CALLER PUSH20 0xFFFFFFFFFFFFFFFFFFFFFFFFFFFFFFFFFFFFFFFF AND PUSH20 0xFFFFFFFFFFFFFFFFFFFFFFFFFFFFFFFFFFFFFFFF AND DUP2 MSTORE PUSH1 0x20 ADD SWAP1 DUP2 MSTORE PUSH1 0x20 ADD PUSH0 KECCAK256 PUSH0 SWAP1 SLOAD SWAP1 PUSH2 0x100 EXP SWAP1 DIV PUSH1 0xFF AND ISZERO ISZERO EQ PUSH2 0xC0C JUMPI PUSH1 0x40 MLOAD PUSH32 0x8C379A000000000000000000000000000000000000000000000000000000000 DUP2 MSTORE PUSH1 0x4 ADD PUSH2 0xC03 SWAP1 PUSH2 0x3357 JUMP JUMPDEST PUSH1 0x40 MLOAD DUP1 SWAP2 SUB SWAP1 REVERT JUMPDEST DUP2 PUSH1 0x2 PUSH0 PUSH2 0x100 EXP DUP2 SLOAD DUP2 PUSH20 0xFFFFFFFFFFFFFFFFFFFFFFFFFFFFFFFFFFFFFFFF MUL NOT AND SWAP1 DUP4 PUSH20 0xFFFFFFFFFFFFFFFFFFFFFFFFFFFFFFFFFFFFFFFF AND MUL OR SWAP1 SSTORE POP DUP1 PUSH1 0x4 DUP2 SWAP1 SSTORE POP PUSH32 0xDC907CB17A7DA8E1DFFAD2B7205A6CA1111CBB38A0F1F4B2B60A31EB673CA4A2 PUSH1 0x2 PUSH0 SWAP1 SLOAD SWAP1 PUSH2 0x100 EXP SWAP1 DIV PUSH20 0xFFFFFFFFFFFFFFFFFFFFFFFFFFFFFFFFFFFFFFFF AND PUSH1 0x4 SLOAD PUSH1 0x40 MLOAD PUSH2 0xCA7 SWAP3 SWAP2 SWAP1 PUSH2 0x370F JUMP JUMPDEST PUSH1 0x40 MLOAD DUP1 SWAP2 SUB SWAP1 LOG1 POP POP JUMP JUMPDEST PUSH0 PUSH1 0x3 SLOAD SWAP1 POP SWAP1 JUMP JUMPDEST PUSH1 0x2 PUSH0 SWAP1 SLOAD SWAP1 PUSH2 0x100 EXP SWAP1 DIV PUSH20 0xFFFFFFFFFFFFFFFFFFFFFFFFFFFFFFFFFFFFFFFF AND DUP2 JUMP JUMPDEST PUSH1 0x5 PUSH0 SWAP1 SLOAD SWAP1 PUSH2 0x100 EXP SWAP1 DIV PUSH1 0xFF AND DUP2 JUMP JUMPDEST PUSH1 0x1 ISZERO ISZERO PUSH1 0x6 PUSH0 CALLER PUSH20 0xFFFFFFFFFFFFFFFFFFFFFFFFFFFFFFFFFFFFFFFF AND PUSH20 0xFFFFFFFFFFFFFFFFFFFFFFFFFFFFFFFFFFFFFFFF AND DUP2 MSTORE PUSH1 0x20 ADD SWAP1 DUP2 MSTORE PUSH1 0x20 ADD PUSH0 KECCAK256 PUSH0 SWAP1 SLOAD SWAP1 PUSH2 0x100 EXP SWAP1 DIV PUSH1 0xFF AND ISZERO ISZERO EQ PUSH2 0xD83 JUMPI PUSH1 0x40 MLOAD PUSH32 0x8C379A000000000000000000000000000000000000000000000000000000000 DUP2 MSTORE PUSH1 0x4 ADD PUSH2 0xD7A SWAP1 PUSH2 0x3357 JUMP JUMPDEST PUSH1 0x40 MLOAD DUP1 SWAP2 SUB SWAP1 REVERT JUMPDEST PUSH2 0xD8B PUSH2 0x18FC JUMP JUMPDEST PUSH2 0xD9C DUP10 DUP10 DUP10 DUP10 DUP10 DUP10 DUP10 DUP10 DUP10 PUSH2 0x1940 JUMP JUMPDEST PUSH2 0xDA4 PUSH2 0x1AEF JUMP JUMPDEST POP POP POP POP POP POP POP POP POP JUMP JUMPDEST PUSH1 0x6 PUSH1 0x20 MSTORE DUP1 PUSH0 MSTORE PUSH1 0x40 PUSH0 KECCAK256 PUSH0 SWAP2 POP SLOAD SWAP1 PUSH2 0x100 EXP SWAP1 DIV PUSH1 0xFF AND DUP2 JUMP JUMPDEST PUSH1 0x1 ISZERO ISZERO PUSH1 0x6 PUSH0 CALLER PUSH20 0xFFFFFFFFFFFFFFFFFFFFFFFFFFFFFFFFFFFFFFFF AND PUSH20 0xFFFFFFFFFFFFFFFFFFFFFFFFFFFFFFFFFFFFFFFF AND DUP2 MSTORE PUSH1 0x20 ADD SWAP1 DUP2 MSTORE PUSH1 0x20 ADD PUSH0 KECCAK256 PUSH0 SWAP1 SLOAD SWAP1 PUSH2 0x100 EXP SWAP1 DIV PUSH1 0xFF AND ISZERO ISZERO EQ PUSH2 0xE5C JUMPI PUSH1 0x40 MLOAD PUSH32 0x8C379A000000000000000000000000000000000000000000000000000000000 DUP2 MSTORE PUSH1 0x4 ADD PUSH2 0xE53 SWAP1 PUSH2 0x3357 JUMP JUMPDEST PUSH1 0x40 MLOAD DUP1 SWAP2 SUB SWAP1 REVERT JUMPDEST PUSH2 0xE64 PUSH2 0x18FC JUMP JUMPDEST PUSH1 0x2 PUSH1 0x3 DUP2 GT ISZERO PUSH2 0xE78 JUMPI PUSH2 0xE77 PUSH2 0x3375 JUMP JUMPDEST JUMPDEST PUSH1 0x7 PUSH0 DUP5 DUP2 MSTORE PUSH1 0x20 ADD SWAP1 DUP2 MSTORE PUSH1 0x20 ADD PUSH0 KECCAK256 PUSH0 ADD PUSH1 0x14 SWAP1 SLOAD SWAP1 PUSH2 0x100 EXP SWAP1 DIV PUSH1 0xFF AND PUSH1 0x3 DUP2 GT ISZERO PUSH2 0xEAB JUMPI PUSH2 0xEAA PUSH2 0x3375 JUMP JUMPDEST JUMPDEST EQ PUSH2 0xEEB JUMPI PUSH1 0x40 MLOAD PUSH32 0x8C379A000000000000000000000000000000000000000000000000000000000 DUP2 MSTORE PUSH1 0x4 ADD PUSH2 0xEE2 SWAP1 PUSH2 0x3780 JUMP JUMPDEST PUSH1 0x40 MLOAD DUP1 SWAP2 SUB SWAP1 REVERT JUMPDEST PUSH1 0x3 PUSH1 0x7 PUSH0 DUP5 DUP2 MSTORE PUSH1 0x20 ADD SWAP1 DUP2 MSTORE PUSH1 0x20 ADD PUSH0 KECCAK256 PUSH0 ADD PUSH1 0x14 PUSH2 0x100 EXP DUP2 SLOAD DUP2 PUSH1 0xFF MUL NOT AND SWAP1 DUP4 PUSH1 0x3 DUP2 GT ISZERO PUSH2 0xF22 JUMPI PUSH2 0xF21 PUSH2 0x3375 JUMP JUMPDEST JUMPDEST MUL OR SWAP1 SSTORE POP DUP2 PUSH32 0x66F6B4CD34444AF165FB78BCE3996496528B37AF161C26F737B7341CC37063BB TIMESTAMP PUSH1 0x40 MLOAD PUSH2 0xF57 SWAP2 SWAP1 PUSH2 0x308B JUMP JUMPDEST PUSH1 0x40 MLOAD DUP1 SWAP2 SUB SWAP1 LOG2 PUSH0 PUSH1 0x7 PUSH0 DUP5 DUP2 MSTORE PUSH1 0x20 ADD SWAP1 DUP2 MSTORE PUSH1 0x20 ADD PUSH0 KECCAK256 PUSH1 0x6 ADD SLOAD PUSH1 0x7 PUSH0 DUP6 DUP2 MSTORE PUSH1 0x20 ADD SWAP1 DUP2 MSTORE PUSH1 0x20 ADD PUSH0 KECCAK256 PUSH1 0x5 ADD SLOAD PUSH2 0xF94 SWAP2 SWAP1 PUSH2 0x360C JUMP JUMPDEST SWAP1 POP PUSH0 DUP2 SUB PUSH2 0xFAC JUMPI PUSH2 0xFA6 DUP4 PUSH2 0x2230 JUMP JUMPDEST POP PUSH2 0x11B1 JUMP JUMPDEST PUSH0 DUP3 SWAP1 POP PUSH0 DUP3 SWAP1 POP PUSH1 0x7 PUSH0 DUP7 DUP2 MSTORE PUSH1 0x20 ADD SWAP1 DUP2 MSTORE PUSH1 0x20 ADD PUSH0 KECCAK256 PUSH1 0x4 ADD SLOAD DUP2 GT DUP1 ISZERO PUSH2 0xFEB JUMPI POP PUSH0 PUSH1 0x7 PUSH0 DUP8 DUP2 MSTORE PUSH1 0x20 ADD SWAP1 DUP2 MSTORE PUSH1 0x20 ADD PUSH0 KECCAK256 PUSH1 0x4 ADD SLOAD EQ ISZERO JUMPDEST ISZERO PUSH2 0x1008 JUMPI PUSH1 0x7 PUSH0 DUP7 DUP2 MSTORE PUSH1 0x20 ADD SWAP1 DUP2 MSTORE PUSH1 0x20 ADD PUSH0 KECCAK256 PUSH1 0x4 ADD SLOAD SWAP1 POP JUMPDEST PUSH0 PUSH1 0x7 PUSH0 DUP8 DUP2 MSTORE PUSH1 0x20 ADD SWAP1 DUP2 MSTORE PUSH1 0x20 ADD PUSH0 KECCAK256 PUSH1 0x5 ADD SLOAD PUSH1 0x7 PUSH0 DUP9 DUP2 MSTORE PUSH1 0x20 ADD SWAP1 DUP2 MSTORE PUSH1 0x20 ADD PUSH0 KECCAK256 PUSH1 0x7 ADD SLOAD PUSH2 0x103D SWAP2 SWAP1 PUSH2 0x360C JUMP JUMPDEST SWAP1 POP PUSH0 DUP2 PUSH1 0x7 PUSH0 DUP10 DUP2 MSTORE PUSH1 0x20 ADD SWAP1 DUP2 MSTORE PUSH1 0x20 ADD PUSH0 KECCAK256 PUSH1 0xB ADD SLOAD PUSH2 0x1060 SWAP2 SWAP1 PUSH2 0x379E JUMP JUMPDEST SWAP1 POP PUSH0 PUSH2 0x106E DUP6 DUP6 DUP5 PUSH2 0x23AA JUMP JUMPDEST SWAP1 POP PUSH2 0x107B DUP9 DUP6 DUP4 PUSH2 0x252E JUMP JUMPDEST PUSH1 0x7 PUSH0 DUP10 DUP2 MSTORE PUSH1 0x20 ADD SWAP1 DUP2 MSTORE PUSH1 0x20 ADD PUSH0 KECCAK256 PUSH1 0xE ADD PUSH0 SWAP1 SLOAD SWAP1 PUSH2 0x100 EXP SWAP1 DIV PUSH1 0xFF AND ISZERO PUSH2 0x11AA JUMPI PUSH0 JUMPDEST PUSH1 0x7 PUSH0 DUP11 DUP2 MSTORE PUSH1 0x20 ADD SWAP1 DUP2 MSTORE PUSH1 0x20 ADD PUSH0 KECCAK256 PUSH1 0x8 ADD SLOAD DUP2 LT ISZERO PUSH2 0x11A8 JUMPI PUSH0 PUSH1 0xC PUSH0 DUP12 DUP2 MSTORE PUSH1 0x20 ADD SWAP1 DUP2 MSTORE PUSH1 0x20 ADD PUSH0 KECCAK256 PUSH0 PUSH1 0xB PUSH0 DUP14 DUP2 MSTORE PUSH1 0x20 ADD SWAP1 DUP2 MSTORE PUSH1 0x20 ADD PUSH0 KECCAK256 PUSH0 DUP6 DUP2 MSTORE PUSH1 0x20 ADD SWAP1 DUP2 MSTORE PUSH1 0x20 ADD PUSH0 KECCAK256 PUSH0 SWAP1 SLOAD SWAP1 PUSH2 0x100 EXP SWAP1 DIV PUSH20 0xFFFFFFFFFFFFFFFFFFFFFFFFFFFFFFFFFFFFFFFF AND PUSH20 0xFFFFFFFFFFFFFFFFFFFFFFFFFFFFFFFFFFFFFFFF AND PUSH20 0xFFFFFFFFFFFFFFFFFFFFFFFFFFFFFFFFFFFFFFFF AND DUP2 MSTORE PUSH1 0x20 ADD SWAP1 DUP2 MSTORE PUSH1 0x20 ADD PUSH0 KECCAK256 SLOAD EQ PUSH2 0x119B JUMPI PUSH2 0x119A DUP10 PUSH1 0xB PUSH0 DUP13 DUP2 MSTORE PUSH1 0x20 ADD SWAP1 DUP2 MSTORE PUSH1 0x20 ADD PUSH0 KECCAK256 PUSH0 DUP5 DUP2 MSTORE PUSH1 0x20 ADD SWAP1 DUP2 MSTORE PUSH1 0x20 ADD PUSH0 KECCAK256 PUSH0 SWAP1 SLOAD SWAP1 PUSH2 0x100 EXP SWAP1 DIV PUSH20 0xFFFFFFFFFFFFFFFFFFFFFFFFFFFFFFFFFFFFFFFF AND PUSH2 0x27B1 JUMP JUMPDEST JUMPDEST DUP1 DUP1 PUSH1 0x1 ADD SWAP2 POP POP PUSH2 0x10A3 JUMP JUMPDEST POP JUMPDEST POP POP POP POP POP POP JUMPDEST PUSH2 0x11B9 PUSH2 0x1AEF JUMP JUMPDEST POP POP JUMP JUMPDEST PUSH2 0x11C5 PUSH2 0x18FC JUMP JUMPDEST PUSH1 0x1 PUSH1 0x3 DUP2 GT ISZERO PUSH2 0x11D9 JUMPI PUSH2 0x11D8 PUSH2 0x3375 JUMP JUMPDEST JUMPDEST PUSH1 0x7 PUSH0 DUP6 DUP2 MSTORE PUSH1 0x20 ADD SWAP1 DUP2 MSTORE PUSH1 0x20 ADD PUSH0 KECCAK256 PUSH0 ADD PUSH1 0x14 SWAP1 SLOAD SWAP1 PUSH2 0x100 EXP SWAP1 DIV PUSH1 0xFF AND PUSH1 0x3 DUP2 GT ISZERO PUSH2 0x120C JUMPI PUSH2 0x120B PUSH2 0x3375 JUMP JUMPDEST JUMPDEST EQ PUSH2 0x124C JUMPI PUSH1 0x40 MLOAD PUSH32 0x8C379A000000000000000000000000000000000000000000000000000000000 DUP2 MSTORE PUSH1 0x4 ADD PUSH2 0x1243 SWAP1 PUSH2 0x33EC JUMP JUMPDEST PUSH1 0x40 MLOAD DUP1 SWAP2 SUB SWAP1 REVERT JUMPDEST PUSH0 PUSH20 0xFFFFFFFFFFFFFFFFFFFFFFFFFFFFFFFFFFFFFFFF AND PUSH1 0x7 PUSH0 DUP6 DUP2 MSTORE PUSH1 0x20 ADD SWAP1 DUP2 MSTORE PUSH1 0x20 ADD PUSH0 KECCAK256 PUSH1 0xC ADD PUSH0 SWAP1 SLOAD SWAP1 PUSH2 0x100 EXP SWAP1 DIV PUSH20 0xFFFFFFFFFFFFFFFFFFFFFFFFFFFFFFFFFFFFFFFF AND PUSH20 0xFFFFFFFFFFFFFFFFFFFFFFFFFFFFFFFFFFFFFFFF AND EQ PUSH2 0x12ED JUMPI PUSH1 0x40 MLOAD PUSH32 0x8C379A000000000000000000000000000000000000000000000000000000000 DUP2 MSTORE PUSH1 0x4 ADD PUSH2 0x12E4 SWAP1 PUSH2 0x3829 JUMP JUMPDEST PUSH1 0x40 MLOAD DUP1 SWAP2 SUB SWAP1 REVERT JUMPDEST PUSH0 DUP2 SUB PUSH2 0x132F JUMPI PUSH1 0x40 MLOAD PUSH32 0x8C379A000000000000000000000000000000000000000000000000000000000 DUP2 MSTORE PUSH1 0x4 ADD PUSH2 0x1326 SWAP1 PUSH2 0x3559 JUMP JUMPDEST PUSH1 0x40 MLOAD DUP1 SWAP2 SUB SWAP1 REVERT JUMPDEST PUSH0 PUSH1 0x7 PUSH0 DUP6 DUP2 MSTORE PUSH1 0x20 ADD SWAP1 DUP2 MSTORE PUSH1 0x20 ADD PUSH0 KECCAK256 PUSH1 0x2 ADD SLOAD EQ PUSH2 0x13A1 JUMPI PUSH1 0x7 PUSH0 DUP5 DUP2 MSTORE PUSH1 0x20 ADD SWAP1 DUP2 MSTORE PUSH1 0x20 ADD PUSH0 KECCAK256 PUSH1 0x2 ADD SLOAD TIMESTAMP LT PUSH2 0x13A0 JUMPI PUSH1 0x40 MLOAD PUSH32 0x8C379A000000000000000000000000000000000000000000000000000000000 DUP2 MSTORE PUSH1 0x4 ADD PUSH2 0x1397 SWAP1 PUSH2 0x35C1 JUMP JUMPDEST PUSH1 0x40 MLOAD DUP1 SWAP2 SUB SWAP1 REVERT JUMPDEST JUMPDEST PUSH0 PUSH1 0x7 PUSH0 DUP6 DUP2 MSTORE PUSH1 0x20 ADD SWAP1 DUP2 MSTORE PUSH1 0x20 ADD PUSH0 KECCAK256 PUSH1 0x3 ADD SLOAD EQ PUSH2 0x1433 JUMPI PUSH1 0x7 PUSH0 DUP5 DUP2 MSTORE PUSH1 0x20 ADD SWAP1 DUP2 MSTORE PUSH1 0x20 ADD PUSH0 KECCAK256 PUSH1 0x3 ADD SLOAD DUP2 PUSH1 0x7 PUSH0 DUP7 DUP2 MSTORE PUSH1 0x20 ADD SWAP1 DUP2 MSTORE PUSH1 0x20 ADD PUSH0 KECCAK256 PUSH1 0x5 ADD SLOAD PUSH2 0x13F1 SWAP2 SWAP1 PUSH2 0x360C JUMP JUMPDEST GT ISZERO PUSH2 0x1432 JUMPI PUSH1 0x40 MLOAD PUSH32 0x8C379A000000000000000000000000000000000000000000000000000000000 DUP2 MSTORE PUSH1 0x4 ADD PUSH2 0x1429 SWAP1 PUSH2 0x3689 JUMP JUMPDEST PUSH1 0x40 MLOAD DUP1 SWAP2 SUB SWAP1 REVERT JUMPDEST JUMPDEST PUSH0 DUP2 PUSH1 0x7 PUSH0 DUP7 DUP2 MSTORE PUSH1 0x20 ADD SWAP1 DUP2 MSTORE PUSH1 0x20 ADD PUSH0 KECCAK256 PUSH1 0xB ADD SLOAD PUSH2 0x1454 SWAP2 SWAP1 PUSH2 0x379E JUMP JUMPDEST SWAP1 POP PUSH2 0x14B5 CALLER ADDRESS DUP4 PUSH1 0x7 PUSH0 DUP10 DUP2 MSTORE PUSH1 0x20 ADD SWAP1 DUP2 MSTORE PUSH1 0x20 ADD PUSH0 KECCAK256 PUSH0 ADD PUSH0 SWAP1 SLOAD SWAP1 PUSH2 0x100 EXP SWAP1 DIV PUSH20 0xFFFFFFFFFFFFFFFFFFFFFFFFFFFFFFFFFFFFFFFF AND PUSH20 0xFFFFFFFFFFFFFFFFFFFFFFFFFFFFFFFFFFFFFFFF AND PUSH2 0x29B1 SWAP1 SWAP4 SWAP3 SWAP2 SWAP1 PUSH4 0xFFFFFFFF AND JUMP JUMPDEST PUSH2 0x14C2 DUP5 DUP5 DUP5 PUSH1 0x1 PUSH2 0x1AF8 JUMP JUMPDEST DUP3 PUSH20 0xFFFFFFFFFFFFFFFFFFFFFFFFFFFFFFFFFFFFFFFF AND CALLER PUSH20 0xFFFFFFFFFFFFFFFFFFFFFFFFFFFFFFFFFFFFFFFF AND DUP6 PUSH32 0xC711BFBE9284C7D96ADBB9EBAD39767E13C00B6B5CD4CA300FEC0D969309A407 DUP6 PUSH1 0x40 MLOAD PUSH2 0x1520 SWAP2 SWAP1 PUSH2 0x308B JUMP JUMPDEST PUSH1 0x40 MLOAD DUP1 SWAP2 SUB SWAP1 LOG4 POP PUSH2 0x1531 PUSH2 0x1AEF JUMP JUMPDEST POP POP POP JUMP JUMPDEST PUSH2 0x153E PUSH2 0x18FC JUMP JUMPDEST PUSH1 0x3 DUP1 DUP2 GT ISZERO PUSH2 0x1551 JUMPI PUSH2 0x1550 PUSH2 0x3375 JUMP JUMPDEST JUMPDEST PUSH1 0x7 PUSH0 DUP4 DUP2 MSTORE PUSH1 0x20 ADD SWAP1 DUP2 MSTORE PUSH1 0x20 ADD PUSH0 KECCAK256 PUSH0 ADD PUSH1 0x14 SWAP1 SLOAD SWAP1 PUSH2 0x100 EXP SWAP1 DIV PUSH1 0xFF AND PUSH1 0x3 DUP2 GT ISZERO PUSH2 0x1584 JUMPI PUSH2 0x1583 PUSH2 0x3375 JUMP JUMPDEST JUMPDEST EQ PUSH2 0x15C4 JUMPI PUSH1 0x40 MLOAD PUSH32 0x8C379A000000000000000000000000000000000000000000000000000000000 DUP2 MSTORE PUSH1 0x4 ADD PUSH2 0x15BB SWAP1 PUSH2 0x3891 JUMP JUMPDEST PUSH1 0x40 MLOAD DUP1 SWAP2 SUB SWAP1 REVERT JUMPDEST PUSH0 ISZERO ISZERO PUSH1 0x7 PUSH0 DUP4 DUP2 MSTORE PUSH1 0x20 ADD SWAP1 DUP2 MSTORE PUSH1 0x20 ADD PUSH0 KECCAK256 PUSH1 0xE ADD PUSH0 SWAP1 SLOAD SWAP1 PUSH2 0x100 EXP SWAP1 DIV PUSH1 0xFF AND ISZERO ISZERO EQ PUSH2 0x162A JUMPI PUSH1 0x40 MLOAD PUSH32 0x8C379A000000000000000000000000000000000000000000000000000000000 DUP2 MSTORE PUSH1 0x4 ADD PUSH2 0x1621 SWAP1 PUSH2 0x38F9 JUMP JUMPDEST PUSH1 0x40 MLOAD DUP1 SWAP2 SUB SWAP1 REVERT JUMPDEST PUSH2 0x1634 DUP2 CALLER PUSH2 0x27B1 JUMP JUMPDEST PUSH2 0x163C PUSH2 0x1AEF JUMP JUMPDEST POP JUMP JUMPDEST PUSH2 0x1647 PUSH2 0x20E6 JUMP JUMPDEST PUSH0 PUSH20 0xFFFFFFFFFFFFFFFFFFFFFFFFFFFFFFFFFFFFFFFF AND DUP3 PUSH20 0xFFFFFFFFFFFFFFFFFFFFFFFFFFFFFFFFFFFFFFFF AND SUB PUSH2 0x16B5 JUMPI PUSH1 0x40 MLOAD PUSH32 0x8C379A000000000000000000000000000000000000000000000000000000000 DUP2 MSTORE PUSH1 0x4 ADD PUSH2 0x16AC SWAP1 PUSH2 0x3961 JUMP JUMPDEST PUSH1 0x40 MLOAD DUP1 SWAP2 SUB SWAP1 REVERT JUMPDEST DUP1 PUSH1 0x6 PUSH0 DUP5 PUSH20 0xFFFFFFFFFFFFFFFFFFFFFFFFFFFFFFFFFFFFFFFF AND PUSH20 0xFFFFFFFFFFFFFFFFFFFFFFFFFFFFFFFFFFFFFFFF AND DUP2 MSTORE PUSH1 0x20 ADD SWAP1 DUP2 MSTORE PUSH1 0x20 ADD PUSH0 KECCAK256 PUSH0 PUSH2 0x100 EXP DUP2 SLOAD DUP2 PUSH1 0xFF MUL NOT AND SWAP1 DUP4 ISZERO ISZERO MUL OR SWAP1 SSTORE POP PUSH32 0xEDAE46487653623E513EA3B3341C9E6B457A2EF687D0342D2507CCB63458B19F DUP3 DUP3 PUSH1 0x40 MLOAD PUSH2 0x173A SWAP3 SWAP2 SWAP1 PUSH2 0x397F JUMP JUMPDEST PUSH1 0x40 MLOAD DUP1 SWAP2 SUB SWAP1 LOG1 POP POP JUMP JUMPDEST PUSH1 0x3 SLOAD DUP2 JUMP JUMPDEST PUSH2 0x1754 PUSH2 0x20E6 JUMP JUMPDEST PUSH0 PUSH20 0xFFFFFFFFFFFFFFFFFFFFFFFFFFFFFFFFFFFFFFFF AND DUP2 PUSH20 0xFFFFFFFFFFFFFFFFFFFFFFFFFFFFFFFFFFFFFFFF AND SUB PUSH2 0x17C4 JUMPI PUSH0 PUSH1 0x40 MLOAD PUSH32 0x1E4FBDF700000000000000000000000000000000000000000000000000000000 DUP2 MSTORE PUSH1 0x4 ADD PUSH2 0x17BB SWAP2 SWAP1 PUSH2 0x30F1 JUMP JUMPDEST PUSH1 0x40 MLOAD DUP1 SWAP2 SUB SWAP1 REVERT JUMPDEST PUSH2 0x17CD DUP2 PUSH2 0x216D JUMP JUMPDEST POP JUMP JUMPDEST PUSH1 0x1 ISZERO ISZERO PUSH1 0x6 PUSH0 CALLER PUSH20 0xFFFFFFFFFFFFFFFFFFFFFFFFFFFFFFFFFFFFFFFF AND PUSH20 0xFFFFFFFFFFFFFFFFFFFFFFFFFFFFFFFFFFFFFFFF AND DUP2 MSTORE PUSH1 0x20 ADD SWAP1 DUP2 MSTORE PUSH1 0x20 ADD PUSH0 KECCAK256 PUSH0 SWAP1 SLOAD SWAP1 PUSH2 0x100 EXP SWAP1 DIV PUSH1 0xFF AND ISZERO ISZERO EQ PUSH2 0x1860 JUMPI PUSH1 0x40 MLOAD PUSH32 0x8C379A000000000000000000000000000000000000000000000000000000000 DUP2 MSTORE PUSH1 0x4 ADD PUSH2 0x1857 SWAP1 PUSH2 0x3357 JUMP JUMPDEST PUSH1 0x40 MLOAD DUP1 SWAP2 SUB SWAP1 REVERT JUMPDEST DUP1 PUSH1 0x5 PUSH0 PUSH2 0x100 EXP DUP2 SLOAD DUP2 PUSH1 0xFF MUL NOT AND SWAP1 DUP4 ISZERO ISZERO MUL OR SWAP1 SSTORE POP PUSH32 0x6FE9A4AB2E95E24B2BE44989DC36A685149DFDE9354D486A8DA5CB4BBD01B010 PUSH1 0x5 PUSH0 SWAP1 SLOAD SWAP1 PUSH2 0x100 EXP SWAP1 DIV PUSH1 0xFF AND PUSH1 0x40 MLOAD PUSH2 0x18B6 SWAP2 SWAP1 PUSH2 0x3162 JUMP JUMPDEST PUSH1 0x40 MLOAD DUP1 SWAP2 SUB SWAP1 LOG1 POP JUMP JUMPDEST PUSH0 PUSH1 0x7 PUSH0 DUP4 DUP2 MSTORE PUSH1 0x20 ADD SWAP1 DUP2 MSTORE PUSH1 0x20 ADD PUSH0 KECCAK256 PUSH0 ADD PUSH1 0x14 SWAP1 SLOAD SWAP1 PUSH2 0x100 EXP SWAP1 DIV PUSH1 0xFF AND PUSH1 0x3 DUP2 GT ISZERO PUSH2 0x18F5 JUMPI PUSH2 0x18F4 PUSH2 0x3375 JUMP JUMPDEST JUMPDEST SWAP1 POP SWAP2 SWAP1 POP JUMP JUMPDEST PUSH1 0x2 PUSH0 SLOAD SUB PUSH2 0x1937 JUMPI PUSH1 0x40 MLOAD PUSH32 0x3EE5AEB500000000000000000000000000000000000000000000000000000000 DUP2 MSTORE PUSH1 0x4 ADD PUSH1 0x40 MLOAD DUP1 SWAP2 SUB SWAP1 REVERT JUMPDEST PUSH1 0x2 PUSH0 DUP2 SWAP1 SSTORE POP JUMP JUMPDEST PUSH1 0x3 PUSH0 DUP2 SLOAD DUP1 SWAP3 SWAP2 SWAP1 PUSH2 0x1952 SWAP1 PUSH2 0x39A6 JUMP JUMPDEST SWAP2 SWAP1 POP SSTORE POP PUSH0 PUSH1 0x7 PUSH0 PUSH1 0x3 SLOAD DUP2 MSTORE PUSH1 0x20 ADD SWAP1 DUP2 MSTORE PUSH1 0x20 ADD PUSH0 KECCAK256 SWAP1 POP DUP10 DUP2 PUSH0 ADD PUSH0 PUSH2 0x100 EXP DUP2 SLOAD DUP2 PUSH20 0xFFFFFFFFFFFFFFFFFFFFFFFFFFFFFFFFFFFFFFFF MUL NOT AND SWAP1 DUP4 PUSH20 0xFFFFFFFFFFFFFFFFFFFFFFFFFFFFFFFFFFFFFFFF AND MUL OR SWAP1 SSTORE POP PUSH1 0x1 DUP2 PUSH0 ADD PUSH1 0x14 PUSH2 0x100 EXP DUP2 SLOAD DUP2 PUSH1 0xFF MUL NOT AND SWAP1 DUP4 PUSH1 0x3 DUP2 GT ISZERO PUSH2 0x19D5 JUMPI PUSH2 0x19D4 PUSH2 0x3375 JUMP JUMPDEST JUMPDEST MUL OR SWAP1 SSTORE POP TIMESTAMP DUP2 PUSH1 0x1 ADD DUP2 SWAP1 SSTORE POP DUP8 DUP2 PUSH1 0x2 ADD DUP2 SWAP1 SSTORE POP DUP7 DUP2 PUSH1 0x3 ADD DUP2 SWAP1 SSTORE POP DUP6 DUP2 PUSH1 0x4 ADD DUP2 SWAP1 SSTORE POP DUP9 DUP2 PUSH1 0xB ADD DUP2 SWAP1 SSTORE POP DUP2 DUP2 PUSH1 0xD ADD DUP2 SWAP1 SSTORE POP PUSH1 0x5 PUSH0 SWAP1 SLOAD SWAP1 PUSH2 0x100 EXP SWAP1 DIV PUSH1 0xFF AND DUP2 PUSH1 0xE ADD PUSH0 PUSH2 0x100 EXP DUP2 SLOAD DUP2 PUSH1 0xFF MUL NOT AND SWAP1 DUP4 ISZERO ISZERO MUL OR SWAP1 SSTORE POP DUP3 DUP2 PUSH1 0xC ADD PUSH0 PUSH2 0x100 EXP DUP2 SLOAD DUP2 PUSH20 0xFFFFFFFFFFFFFFFFFFFFFFFFFFFFFFFFFFFFFFFF MUL NOT AND SWAP1 DUP4 PUSH20 0xFFFFFFFFFFFFFFFFFFFFFFFFFFFFFFFFFFFFFFFF AND MUL OR SWAP1 SSTORE POP PUSH1 0x3 SLOAD PUSH32 0x4C987E6C9F6AAD2CFE1D70875B12F8B9AF9A28CA87E789BFEF279084BF0354CD TIMESTAMP DUP11 DUP11 DUP14 DUP9 PUSH1 0x5 PUSH0 SWAP1 SLOAD SWAP1 PUSH2 0x100 EXP SWAP1 DIV PUSH1 0xFF AND PUSH1 0x40 MLOAD PUSH2 0x1AC5 SWAP7 SWAP6 SWAP5 SWAP4 SWAP3 SWAP2 SWAP1 PUSH2 0x39ED JUMP JUMPDEST PUSH1 0x40 MLOAD DUP1 SWAP2 SUB SWAP1 LOG2 PUSH0 DUP5 GT ISZERO PUSH2 0x1AE3 JUMPI PUSH2 0x1AE2 PUSH1 0x3 SLOAD DUP7 DUP7 PUSH2 0x1E84 JUMP JUMPDEST JUMPDEST POP POP POP POP POP POP POP POP POP POP JUMP JUMPDEST PUSH1 0x1 PUSH0 DUP2 SWAP1 SSTORE POP JUMP JUMPDEST PUSH0 DUP1 PUSH1 0x7 PUSH0 DUP8 DUP2 MSTORE PUSH1 0x20 ADD SWAP1 DUP2 MSTORE PUSH1 0x20 ADD PUSH0 KECCAK256 PUSH1 0x9 ADD SLOAD EQ PUSH2 0x1B5A JUMPI PUSH1 0x8 PUSH0 DUP7 DUP2 MSTORE PUSH1 0x20 ADD SWAP1 DUP2 MSTORE PUSH1 0x20 ADD PUSH0 KECCAK256 PUSH0 PUSH1 0x1 PUSH1 0x7 PUSH0 DUP10 DUP2 MSTORE PUSH1 0x20 ADD SWAP1 DUP2 MSTORE PUSH1 0x20 ADD PUSH0 KECCAK256 PUSH1 0x9 ADD SLOAD PUSH2 0x1B47 SWAP2 SWAP1 PUSH2 0x3A4C JUMP JUMPDEST DUP2 MSTORE PUSH1 0x20 ADD SWAP1 DUP2 MSTORE PUSH1 0x20 ADD PUSH0 KECCAK256 PUSH0 ADD SLOAD SWAP1 POP JUMPDEST PUSH1 0x40 MLOAD DUP1 PUSH1 0x60 ADD PUSH1 0x40 MSTORE DUP1 DUP5 DUP4 PUSH2 0x1B71 SWAP2 SWAP1 PUSH2 0x360C JUMP JUMPDEST DUP2 MSTORE PUSH1 0x20 ADD DUP6 PUSH20 0xFFFFFFFFFFFFFFFFFFFFFFFFFFFFFFFFFFFFFFFF AND DUP2 MSTORE PUSH1 0x20 ADD DUP4 ISZERO ISZERO DUP2 MSTORE POP PUSH1 0x8 PUSH0 DUP8 DUP2 MSTORE PUSH1 0x20 ADD SWAP1 DUP2 MSTORE PUSH1 0x20 ADD PUSH0 KECCAK256 PUSH0 PUSH1 0x7 PUSH0 DUP10 DUP2 MSTORE PUSH1 0x20 ADD SWAP1 DUP2 MSTORE PUSH1 0x20 ADD PUSH0 KECCAK256 PUSH1 0x9 ADD SLOAD DUP2 MSTORE PUSH1 0x20 ADD SWAP1 DUP2 MSTORE PUSH1 0x20 ADD PUSH0 KECCAK256 PUSH0 DUP3 ADD MLOAD DUP2 PUSH0 ADD SSTORE PUSH1 0x20 DUP3 ADD MLOAD DUP2 PUSH1 0x1 ADD PUSH0 PUSH2 0x100 EXP DUP2 SLOAD DUP2 PUSH20 0xFFFFFFFFFFFFFFFFFFFFFFFFFFFFFFFFFFFFFFFF MUL NOT AND SWAP1 DUP4 PUSH20 0xFFFFFFFFFFFFFFFFFFFFFFFFFFFFFFFFFFFFFFFF AND MUL OR SWAP1 SSTORE POP PUSH1 0x40 DUP3 ADD MLOAD DUP2 PUSH1 0x1 ADD PUSH1 0x14 PUSH2 0x100 EXP DUP2 SLOAD DUP2 PUSH1 0xFF MUL NOT AND SWAP1 DUP4 ISZERO ISZERO MUL OR SWAP1 SSTORE POP SWAP1 POP POP DUP2 ISZERO PUSH2 0x1C80 JUMPI DUP3 PUSH1 0x7 PUSH0 DUP8 DUP2 MSTORE PUSH1 0x20 ADD SWAP1 DUP2 MSTORE PUSH1 0x20 ADD PUSH0 KECCAK256 PUSH1 0x5 ADD SLOAD PUSH2 0x1C63 SWAP2 SWAP1 PUSH2 0x360C JUMP JUMPDEST PUSH1 0x7 PUSH0 DUP8 DUP2 MSTORE PUSH1 0x20 ADD SWAP1 DUP2 MSTORE PUSH1 0x20 ADD PUSH0 KECCAK256 PUSH1 0x5 ADD DUP2 SWAP1 SSTORE POP PUSH2 0x1CB9 JUMP JUMPDEST DUP3 PUSH1 0x7 PUSH0 DUP8 DUP2 MSTORE PUSH1 0x20 ADD SWAP1 DUP2 MSTORE PUSH1 0x20 ADD PUSH0 KECCAK256 PUSH1 0x6 ADD SLOAD PUSH2 0x1CA0 SWAP2 SWAP1 PUSH2 0x360C JUMP JUMPDEST PUSH1 0x7 PUSH0 DUP8 DUP2 MSTORE PUSH1 0x20 ADD SWAP1 DUP2 MSTORE PUSH1 0x20 ADD PUSH0 KECCAK256 PUSH1 0x6 ADD DUP2 SWAP1 SSTORE POP JUMPDEST PUSH0 PUSH1 0xA PUSH0 DUP8 DUP2 MSTORE PUSH1 0x20 ADD SWAP1 DUP2 MSTORE PUSH1 0x20 ADD PUSH0 KECCAK256 PUSH0 DUP7 PUSH20 0xFFFFFFFFFFFFFFFFFFFFFFFFFFFFFFFFFFFFFFFF AND PUSH20 0xFFFFFFFFFFFFFFFFFFFFFFFFFFFFFFFFFFFFFFFF AND DUP2 MSTORE PUSH1 0x20 ADD SWAP1 DUP2 MSTORE PUSH1 0x20 ADD PUSH0 KECCAK256 SLOAD SUB PUSH2 0x1DAA JUMPI DUP4 PUSH1 0xB PUSH0 DUP8 DUP2 MSTORE PUSH1 0x20 ADD SWAP1 DUP2 MSTORE PUSH1 0x20 ADD PUSH0 KECCAK256 PUSH0 PUSH1 0x7 PUSH0 DUP10 DUP2 MSTORE PUSH1 0x20 ADD SWAP1 DUP2 MSTORE PUSH1 0x20 ADD PUSH0 KECCAK256 PUSH1 0x8 ADD SLOAD DUP2 MSTORE PUSH1 0x20 ADD SWAP1 DUP2 MSTORE PUSH1 0x20 ADD PUSH0 KECCAK256 PUSH0 PUSH2 0x100 EXP DUP2 SLOAD DUP2 PUSH20 0xFFFFFFFFFFFFFFFFFFFFFFFFFFFFFFFFFFFFFFFF MUL NOT AND SWAP1 DUP4 PUSH20 0xFFFFFFFFFFFFFFFFFFFFFFFFFFFFFFFFFFFFFFFF AND MUL OR SWAP1 SSTORE POP PUSH1 0x1 PUSH1 0x7 PUSH0 DUP8 DUP2 MSTORE PUSH1 0x20 ADD SWAP1 DUP2 MSTORE PUSH1 0x20 ADD PUSH0 KECCAK256 PUSH1 0x8 ADD PUSH0 DUP3 DUP3 SLOAD PUSH2 0x1DA2 SWAP2 SWAP1 PUSH2 0x360C JUMP JUMPDEST SWAP3 POP POP DUP2 SWAP1 SSTORE POP JUMPDEST PUSH1 0x1 PUSH1 0x7 PUSH0 DUP8 DUP2 MSTORE PUSH1 0x20 ADD SWAP1 DUP2 MSTORE PUSH1 0x20 ADD PUSH0 KECCAK256 PUSH1 0x9 ADD PUSH0 DUP3 DUP3 SLOAD PUSH2 0x1DCE SWAP2 SWAP1 PUSH2 0x360C JUMP JUMPDEST SWAP3 POP POP DUP2 SWAP1 SSTORE POP DUP3 PUSH1 0xA PUSH0 DUP8 DUP2 MSTORE PUSH1 0x20 ADD SWAP1 DUP2 MSTORE PUSH1 0x20 ADD PUSH0 KECCAK256 PUSH0 DUP7 PUSH20 0xFFFFFFFFFFFFFFFFFFFFFFFFFFFFFFFFFFFFFFFF AND PUSH20 0xFFFFFFFFFFFFFFFFFFFFFFFFFFFFFFFFFFFFFFFF AND DUP2 MSTORE PUSH1 0x20 ADD SWAP1 DUP2 MSTORE PUSH1 0x20 ADD PUSH0 KECCAK256 SLOAD PUSH2 0x1E2D SWAP2 SWAP1 PUSH2 0x360C JUMP JUMPDEST PUSH1 0xA PUSH0 DUP8 DUP2 MSTORE PUSH1 0x20 ADD SWAP1 DUP2 MSTORE PUSH1 0x20 ADD PUSH0 KECCAK256 PUSH0 DUP7 PUSH20 0xFFFFFFFFFFFFFFFFFFFFFFFFFFFFFFFFFFFFFFFF AND PUSH20 0xFFFFFFFFFFFFFFFFFFFFFFFFFFFFFFFFFFFFFFFF AND DUP2 MSTORE PUSH1 0x20 ADD SWAP1 DUP2 MSTORE PUSH1 0x20 ADD PUSH0 KECCAK256 DUP2 SWAP1 SSTORE POP POP POP POP POP POP JUMP JUMPDEST PUSH0 DUP2 PUSH1 0x7 PUSH0 DUP7 DUP2 MSTORE PUSH1 0x20 ADD SWAP1 DUP2 MSTORE PUSH1 0x20 ADD PUSH0 KECCAK256 PUSH1 0xB ADD SLOAD PUSH2 0x1EA5 SWAP2 SWAP1 PUSH2 0x379E JUMP JUMPDEST SWAP1 POP PUSH2 0x1F06 DUP4 ADDRESS DUP4 PUSH1 0x7 PUSH0 DUP10 DUP2 MSTORE PUSH1 0x20 ADD SWAP1 DUP2 MSTORE PUSH1 0x20 ADD PUSH0 KECCAK256 PUSH0 ADD PUSH0 SWAP1 SLOAD SWAP1 PUSH2 0x100 EXP SWAP1 DIV PUSH20 0xFFFFFFFFFFFFFFFFFFFFFFFFFFFFFFFFFFFFFFFF AND PUSH20 0xFFFFFFFFFFFFFFFFFFFFFFFFFFFFFFFFFFFFFFFF AND PUSH2 0x29B1 SWAP1 SWAP4 SWAP3 SWAP2 SWAP1 PUSH4 0xFFFFFFFF AND JUMP JUMPDEST DUP2 PUSH1 0x7 PUSH0 PUSH1 0x3 SLOAD DUP2 MSTORE PUSH1 0x20 ADD SWAP1 DUP2 MSTORE PUSH1 0x20 ADD PUSH0 KECCAK256 PUSH1 0x7 ADD PUSH0 DUP3 DUP3 SLOAD PUSH2 0x1F2B SWAP2 SWAP1 PUSH2 0x360C JUMP JUMPDEST SWAP3 POP POP DUP2 SWAP1 SSTORE POP PUSH0 PUSH1 0xE PUSH0 PUSH1 0x3 SLOAD DUP2 MSTORE PUSH1 0x20 ADD SWAP1 DUP2 MSTORE PUSH1 0x20 ADD PUSH0 KECCAK256 PUSH0 DUP6 PUSH20 0xFFFFFFFFFFFFFFFFFFFFFFFFFFFFFFFFFFFFFFFF AND PUSH20 0xFFFFFFFFFFFFFFFFFFFFFFFFFFFFFFFFFFFFFFFF AND DUP2 MSTORE PUSH1 0x20 ADD SWAP1 DUP2 MSTORE PUSH1 0x20 ADD PUSH0 KECCAK256 SLOAD SUB PUSH2 0x202B JUMPI DUP3 PUSH1 0xD PUSH0 PUSH1 0x3 SLOAD DUP2 MSTORE PUSH1 0x20 ADD SWAP1 DUP2 MSTORE PUSH1 0x20 ADD PUSH0 KECCAK256 PUSH0 PUSH1 0x7 PUSH0 PUSH1 0x3 SLOAD DUP2 MSTORE PUSH1 0x20 ADD SWAP1 DUP2 MSTORE PUSH1 0x20 ADD PUSH0 KECCAK256 PUSH1 0xA ADD SLOAD DUP2 MSTORE PUSH1 0x20 ADD SWAP1 DUP2 MSTORE PUSH1 0x20 ADD PUSH0 KECCAK256 PUSH0 PUSH2 0x100 EXP DUP2 SLOAD DUP2 PUSH20 0xFFFFFFFFFFFFFFFFFFFFFFFFFFFFFFFFFFFFFFFF MUL NOT AND SWAP1 DUP4 PUSH20 0xFFFFFFFFFFFFFFFFFFFFFFFFFFFFFFFFFFFFFFFF AND MUL OR SWAP1 SSTORE POP PUSH1 0x1 PUSH1 0x7 PUSH0 PUSH1 0x3 SLOAD DUP2 MSTORE PUSH1 0x20 ADD SWAP1 DUP2 MSTORE PUSH1 0x20 ADD PUSH0 KECCAK256 PUSH1 0xA ADD PUSH0 DUP3 DUP3 SLOAD PUSH2 0x2023 SWAP2 SWAP1 PUSH2 0x360C JUMP JUMPDEST SWAP3 POP POP DUP2 SWAP1 SSTORE POP JUMPDEST DUP2 PUSH1 0xE PUSH0 PUSH1 0x3 SLOAD DUP2 MSTORE PUSH1 0x20 ADD SWAP1 DUP2 MSTORE PUSH1 0x20 ADD PUSH0 KECCAK256 PUSH0 DUP6 PUSH20 0xFFFFFFFFFFFFFFFFFFFFFFFFFFFFFFFFFFFFFFFF AND PUSH20 0xFFFFFFFFFFFFFFFFFFFFFFFFFFFFFFFFFFFFFFFF AND DUP2 MSTORE PUSH1 0x20 ADD SWAP1 DUP2 MSTORE PUSH1 0x20 ADD PUSH0 KECCAK256 PUSH0 DUP3 DUP3 SLOAD PUSH2 0x2088 SWAP2 SWAP1 PUSH2 0x360C JUMP JUMPDEST SWAP3 POP POP DUP2 SWAP1 SSTORE POP DUP3 PUSH20 0xFFFFFFFFFFFFFFFFFFFFFFFFFFFFFFFFFFFFFFFF AND PUSH1 0x3 SLOAD PUSH32 0xA95519638524DCEA0D5D0102C719D77DC3D8B1AE68D2D1E37C79BE21BC7B113B DUP5 PUSH1 0x40 MLOAD PUSH2 0x20D8 SWAP2 SWAP1 PUSH2 0x308B JUMP JUMPDEST PUSH1 0x40 MLOAD DUP1 SWAP2 SUB SWAP1 LOG3 POP POP POP POP JUMP JUMPDEST PUSH2 0x20EE PUSH2 0x2A33 JUMP JUMPDEST PUSH20 0xFFFFFFFFFFFFFFFFFFFFFFFFFFFFFFFFFFFFFFFF AND PUSH2 0x210C PUSH2 0xB54 JUMP JUMPDEST PUSH20 0xFFFFFFFFFFFFFFFFFFFFFFFFFFFFFFFFFFFFFFFF AND EQ PUSH2 0x216B JUMPI PUSH2 0x212F PUSH2 0x2A33 JUMP JUMPDEST PUSH1 0x40 MLOAD PUSH32 0x118CDAA700000000000000000000000000000000000000000000000000000000 DUP2 MSTORE PUSH1 0x4 ADD PUSH2 0x2162 SWAP2 SWAP1 PUSH2 0x30F1 JUMP JUMPDEST PUSH1 0x40 MLOAD DUP1 SWAP2 SUB SWAP1 REVERT JUMPDEST JUMP JUMPDEST PUSH0 PUSH1 0x1 PUSH0 SWAP1 SLOAD SWAP1 PUSH2 0x100 EXP SWAP1 DIV PUSH20 0xFFFFFFFFFFFFFFFFFFFFFFFFFFFFFFFFFFFFFFFF AND SWAP1 POP DUP2 PUSH1 0x1 PUSH0 PUSH2 0x100 EXP DUP2 SLOAD DUP2 PUSH20 0xFFFFFFFFFFFFFFFFFFFFFFFFFFFFFFFFFFFFFFFF MUL NOT AND SWAP1 DUP4 PUSH20 0xFFFFFFFFFFFFFFFFFFFFFFFFFFFFFFFFFFFFFFFF AND MUL OR SWAP1 SSTORE POP DUP2 PUSH20 0xFFFFFFFFFFFFFFFFFFFFFFFFFFFFFFFFFFFFFFFF AND DUP2 PUSH20 0xFFFFFFFFFFFFFFFFFFFFFFFFFFFFFFFFFFFFFFFF AND PUSH32 0x8BE0079C531659141344CD1FD0A4F28419497F9722A3DAAFE3B4186F6B6457E0 PUSH1 0x40 MLOAD PUSH1 0x40 MLOAD DUP1 SWAP2 SUB SWAP1 LOG3 POP POP JUMP JUMPDEST PUSH0 JUMPDEST PUSH1 0x7 PUSH0 DUP4 DUP2 MSTORE PUSH1 0x20 ADD SWAP1 DUP2 MSTORE PUSH1 0x20 ADD PUSH0 KECCAK256 PUSH1 0xA ADD SLOAD DUP2 LT ISZERO PUSH2 0x23A6 JUMPI PUSH0 PUSH1 0xE PUSH0 DUP5 DUP2 MSTORE PUSH1 0x20 ADD SWAP1 DUP2 MSTORE PUSH1 0x20 ADD PUSH0 KECCAK256 PUSH0 PUSH1 0xD PUSH0 DUP7 DUP2 MSTORE PUSH1 0x20 ADD SWAP1 DUP2 MSTORE PUSH1 0x20 ADD PUSH0 KECCAK256 PUSH0 DUP6 DUP2 MSTORE PUSH1 0x20 ADD SWAP1 DUP2 MSTORE PUSH1 0x20 ADD PUSH0 KECCAK256 PUSH0 SWAP1 SLOAD SWAP1 PUSH2 0x100 EXP SWAP1 DIV PUSH20 0xFFFFFFFFFFFFFFFFFFFFFFFFFFFFFFFFFFFFFFFF AND PUSH20 0xFFFFFFFFFFFFFFFFFFFFFFFFFFFFFFFFFFFFFFFF AND PUSH20 0xFFFFFFFFFFFFFFFFFFFFFFFFFFFFFFFFFFFFFFFF AND DUP2 MSTORE PUSH1 0x20 ADD SWAP1 DUP2 MSTORE PUSH1 0x20 ADD PUSH0 KECCAK256 SLOAD PUSH1 0x7 PUSH0 DUP6 DUP2 MSTORE PUSH1 0x20 ADD SWAP1 DUP2 MSTORE PUSH1 0x20 ADD PUSH0 KECCAK256 PUSH1 0xB ADD SLOAD PUSH2 0x22FA SWAP2 SWAP1 PUSH2 0x379E JUMP JUMPDEST SWAP1 POP PUSH2 0x2398 PUSH1 0xD PUSH0 DUP6 DUP2 MSTORE PUSH1 0x20 ADD SWAP1 DUP2 MSTORE PUSH1 0x20 ADD PUSH0 KECCAK256 PUSH0 DUP5 DUP2 MSTORE PUSH1 0x20 ADD SWAP1 DUP2 MSTORE PUSH1 0x20 ADD PUSH0 KECCAK256 PUSH0 SWAP1 SLOAD SWAP1 PUSH2 0x100 EXP SWAP1 DIV PUSH20 0xFFFFFFFFFFFFFFFFFFFFFFFFFFFFFFFFFFFFFFFF AND DUP3 PUSH1 0x7 PUSH0 DUP8 DUP2 MSTORE PUSH1 0x20 ADD SWAP1 DUP2 MSTORE PUSH1 0x20 ADD PUSH0 KECCAK256 PUSH0 ADD PUSH0 SWAP1 SLOAD SWAP1 PUSH2 0x100 EXP SWAP1 DIV PUSH20 0xFFFFFFFFFFFFFFFFFFFFFFFFFFFFFFFFFFFFFFFF AND PUSH20 0xFFFFFFFFFFFFFFFFFFFFFFFFFFFFFFFFFFFFFFFF AND PUSH2 0x2A3A SWAP1 SWAP3 SWAP2 SWAP1 PUSH4 0xFFFFFFFF AND JUMP JUMPDEST POP DUP1 DUP1 PUSH1 0x1 ADD SWAP2 POP POP PUSH2 0x2232 JUMP JUMPDEST POP POP JUMP JUMPDEST PUSH1 0x60 PUSH0 DUP4 PUSH8 0xFFFFFFFFFFFFFFFF DUP2 GT ISZERO PUSH2 0x23C7 JUMPI PUSH2 0x23C6 PUSH2 0x3A7F JUMP JUMPDEST JUMPDEST PUSH1 0x40 MLOAD SWAP1 DUP1 DUP3 MSTORE DUP1 PUSH1 0x20 MUL PUSH1 0x20 ADD DUP3 ADD PUSH1 0x40 MSTORE DUP1 ISZERO PUSH2 0x23F5 JUMPI DUP2 PUSH1 0x20 ADD PUSH1 0x20 DUP3 MUL DUP1 CALLDATASIZE DUP4 CALLDATACOPY DUP1 DUP3 ADD SWAP2 POP POP SWAP1 POP JUMPDEST POP SWAP1 POP PUSH0 DUP6 SWAP1 POP PUSH0 JUMPDEST PUSH1 0x1 DUP7 PUSH2 0x240B SWAP2 SWAP1 PUSH2 0x3A4C JUMP JUMPDEST DUP2 LT ISZERO PUSH2 0x24F5 JUMPI PUSH2 0x241C DUP3 DUP3 PUSH2 0x2AB9 JUMP JUMPDEST SWAP2 POP PUSH0 DUP6 DUP4 PUSH2 0x242B SWAP2 SWAP1 PUSH2 0x3AD9 JUMP JUMPDEST SWAP1 POP PUSH0 DUP3 SWAP1 POP JUMPDEST PUSH1 0x1 DUP2 LT ISZERO DUP1 ISZERO PUSH2 0x2468 JUMPI POP DUP5 PUSH1 0x1 DUP3 PUSH2 0x244C SWAP2 SWAP1 PUSH2 0x3A4C JUMP JUMPDEST DUP2 MLOAD DUP2 LT PUSH2 0x245D JUMPI PUSH2 0x245C PUSH2 0x3B09 JUMP JUMPDEST JUMPDEST PUSH1 0x20 MUL PUSH1 0x20 ADD ADD MLOAD DUP3 LT JUMPDEST ISZERO PUSH2 0x24C6 JUMPI DUP5 PUSH1 0x1 DUP3 PUSH2 0x247B SWAP2 SWAP1 PUSH2 0x3A4C JUMP JUMPDEST DUP2 MLOAD DUP2 LT PUSH2 0x248C JUMPI PUSH2 0x248B PUSH2 0x3B09 JUMP JUMPDEST JUMPDEST PUSH1 0x20 MUL PUSH1 0x20 ADD ADD MLOAD DUP6 DUP3 DUP2 MLOAD DUP2 LT PUSH2 0x24A7 JUMPI PUSH2 0x24A6 PUSH2 0x3B09 JUMP JUMPDEST JUMPDEST PUSH1 0x20 MUL PUSH1 0x20 ADD ADD DUP2 DUP2 MSTORE POP POP DUP1 DUP1 PUSH2 0x24BE SWAP1 PUSH2 0x3B36 JUMP JUMPDEST SWAP2 POP POP PUSH2 0x2432 JUMP JUMPDEST DUP2 DUP6 DUP3 DUP2 MLOAD DUP2 LT PUSH2 0x24DA JUMPI PUSH2 0x24D9 PUSH2 0x3B09 JUMP JUMPDEST JUMPDEST PUSH1 0x20 MUL PUSH1 0x20 ADD ADD DUP2 DUP2 MSTORE POP POP POP POP DUP1 DUP1 PUSH1 0x1 ADD SWAP2 POP POP PUSH2 0x23FE JUMP JUMPDEST POP DUP4 DUP3 PUSH1 0x1 DUP8 PUSH2 0x2505 SWAP2 SWAP1 PUSH2 0x3A4C JUMP JUMPDEST DUP2 MLOAD DUP2 LT PUSH2 0x2516 JUMPI PUSH2 0x2515 PUSH2 0x3B09 JUMP JUMPDEST JUMPDEST PUSH1 0x20 MUL PUSH1 0x20 ADD ADD DUP2 DUP2 MSTORE POP POP DUP2 SWAP3 POP POP POP SWAP4 SWAP3 POP POP POP JUMP JUMPDEST PUSH0 DUP1 PUSH1 0x7 PUSH0 DUP7 DUP2 MSTORE PUSH1 0x20 ADD SWAP1 DUP2 MSTORE PUSH1 0x20 ADD PUSH0 KECCAK256 PUSH1 0x6 ADD SLOAD PUSH1 0x7 PUSH0 DUP8 DUP2 MSTORE PUSH1 0x20 ADD SWAP1 DUP2 MSTORE PUSH1 0x20 ADD PUSH0 KECCAK256 PUSH1 0x5 ADD SLOAD PUSH2 0x2564 SWAP2 SWAP1 PUSH2 0x360C JUMP JUMPDEST SWAP1 POP PUSH0 JUMPDEST DUP5 DUP2 LT ISZERO PUSH2 0x27A9 JUMPI PUSH0 DUP4 DUP6 DUP4 DUP2 MLOAD DUP2 LT PUSH2 0x2585 JUMPI PUSH2 0x2584 PUSH2 0x3B09 JUMP JUMPDEST JUMPDEST PUSH1 0x20 MUL PUSH1 0x20 ADD ADD MLOAD PUSH2 0x2597 SWAP2 SWAP1 PUSH2 0x3A4C JUMP JUMPDEST SWAP1 POP PUSH0 DUP3 SWAP1 POP DUP4 DUP8 EQ PUSH2 0x262C JUMPI DUP4 PUSH2 0x25C9 DUP8 DUP6 DUP2 MLOAD DUP2 LT PUSH2 0x25BB JUMPI PUSH2 0x25BA PUSH2 0x3B09 JUMP JUMPDEST JUMPDEST PUSH1 0x20 MUL PUSH1 0x20 ADD ADD MLOAD DUP6 PUSH2 0x2AB9 JUMP JUMPDEST PUSH2 0x25D3 SWAP2 SWAP1 PUSH2 0x3AD9 JUMP JUMPDEST SWAP1 POP JUMPDEST PUSH0 ISZERO ISZERO PUSH1 0x9 PUSH0 DUP11 DUP2 MSTORE PUSH1 0x20 ADD SWAP1 DUP2 MSTORE PUSH1 0x20 ADD PUSH0 KECCAK256 PUSH0 DUP4 DUP2 MSTORE PUSH1 0x20 ADD SWAP1 DUP2 MSTORE PUSH1 0x20 ADD PUSH0 KECCAK256 PUSH0 SWAP1 SLOAD SWAP1 PUSH2 0x100 EXP SWAP1 DIV PUSH1 0xFF AND ISZERO ISZERO EQ PUSH2 0x262B JUMPI DUP1 DUP1 PUSH2 0x2618 SWAP1 PUSH2 0x39A6 JUMP JUMPDEST SWAP2 POP POP DUP4 DUP2 SUB PUSH2 0x2626 JUMPI PUSH0 SWAP1 POP JUMPDEST PUSH2 0x25D6 JUMP JUMPDEST JUMPDEST PUSH1 0x1 PUSH1 0x9 PUSH0 DUP11 DUP2 MSTORE PUSH1 0x20 ADD SWAP1 DUP2 MSTORE PUSH1 0x20 ADD PUSH0 KECCAK256 PUSH0 DUP4 DUP2 MSTORE PUSH1 0x20 ADD SWAP1 DUP2 MSTORE PUSH1 0x20 ADD PUSH0 KECCAK256 PUSH0 PUSH2 0x100 EXP DUP2 SLOAD DUP2 PUSH1 0xFF MUL NOT AND SWAP1 DUP4 ISZERO ISZERO MUL OR SWAP1 SSTORE POP PUSH0 PUSH2 0x266F DUP10 DUP4 PUSH2 0x2B08 JUMP JUMPDEST SWAP1 POP DUP2 DUP2 PUSH1 0x1 ADD PUSH0 SWAP1 SLOAD SWAP1 PUSH2 0x100 EXP SWAP1 DIV PUSH20 0xFFFFFFFFFFFFFFFFFFFFFFFFFFFFFFFFFFFFFFFF AND PUSH20 0xFFFFFFFFFFFFFFFFFFFFFFFFFFFFFFFFFFFFFFFF AND DUP11 PUSH32 0x927546E38B674F5E5DFF7EDCE9C7AFDCF21A35AC03BA70FE8E341F61F2C73DED DUP7 PUSH1 0x7 PUSH0 DUP16 DUP2 MSTORE PUSH1 0x20 ADD SWAP1 DUP2 MSTORE PUSH1 0x20 ADD PUSH0 KECCAK256 PUSH1 0xE ADD PUSH0 SWAP1 SLOAD SWAP1 PUSH2 0x100 EXP SWAP1 DIV PUSH1 0xFF AND PUSH1 0x40 MLOAD PUSH2 0x26FE SWAP3 SWAP2 SWAP1 PUSH2 0x3B5D JUMP JUMPDEST PUSH1 0x40 MLOAD DUP1 SWAP2 SUB SWAP1 LOG4 DUP3 PUSH1 0xC PUSH0 DUP12 DUP2 MSTORE PUSH1 0x20 ADD SWAP1 DUP2 MSTORE PUSH1 0x20 ADD PUSH0 KECCAK256 PUSH0 DUP4 PUSH1 0x1 ADD PUSH0 SWAP1 SLOAD SWAP1 PUSH2 0x100 EXP SWAP1 DIV PUSH20 0xFFFFFFFFFFFFFFFFFFFFFFFFFFFFFFFFFFFFFFFF AND PUSH20 0xFFFFFFFFFFFFFFFFFFFFFFFFFFFFFFFFFFFFFFFF AND PUSH20 0xFFFFFFFFFFFFFFFFFFFFFFFFFFFFFFFFFFFFFFFF AND DUP2 MSTORE PUSH1 0x20 ADD SWAP1 DUP2 MSTORE PUSH1 0x20 ADD PUSH0 KECCAK256 PUSH0 DUP3 DUP3 SLOAD PUSH2 0x2784 SWAP2 SWAP1 PUSH2 0x360C JUMP JUMPDEST SWAP3 POP POP DUP2 SWAP1 SSTORE POP DUP3 DUP7 PUSH2 0x2797 SWAP2 SWAP1 PUSH2 0x360C JUMP JUMPDEST SWAP6 POP POP POP POP DUP1 DUP1 PUSH1 0x1 ADD SWAP2 POP POP PUSH2 0x2568 JUMP JUMPDEST POP POP POP POP POP POP JUMP JUMPDEST PUSH0 PUSH1 0xC PUSH0 DUP5 DUP2 MSTORE PUSH1 0x20 ADD SWAP1 DUP2 MSTORE PUSH1 0x20 ADD PUSH0 KECCAK256 PUSH0 DUP4 PUSH20 0xFFFFFFFFFFFFFFFFFFFFFFFFFFFFFFFFFFFFFFFF AND PUSH20 0xFFFFFFFFFFFFFFFFFFFFFFFFFFFFFFFFFFFFFFFF AND DUP2 MSTORE PUSH1 0x20 ADD SWAP1 DUP2 MSTORE PUSH1 0x20 ADD PUSH0 KECCAK256 SLOAD SUB PUSH2 0x283F JUMPI PUSH1 0x40 MLOAD PUSH32 0x8C379A000000000000000000000000000000000000000000000000000000000 DUP2 MSTORE PUSH1 0x4 ADD PUSH2 0x2836 SWAP1 PUSH2 0x3BCE JUMP JUMPDEST PUSH1 0x40 MLOAD DUP1 SWAP2 SUB SWAP1 REVERT JUMPDEST PUSH0 PUSH1 0xC PUSH0 DUP5 DUP2 MSTORE PUSH1 0x20 ADD SWAP1 DUP2 MSTORE PUSH1 0x20 ADD PUSH0 KECCAK256 PUSH0 DUP4 PUSH20 0xFFFFFFFFFFFFFFFFFFFFFFFFFFFFFFFFFFFFFFFF AND PUSH20 0xFFFFFFFFFFFFFFFFFFFFFFFFFFFFFFFFFFFFFFFF AND DUP2 MSTORE PUSH1 0x20 ADD SWAP1 DUP2 MSTORE PUSH1 0x20 ADD PUSH0 KECCAK256 SLOAD SWAP1 POP PUSH2 0x28EC DUP3 DUP3 PUSH1 0x7 PUSH0 DUP8 DUP2 MSTORE PUSH1 0x20 ADD SWAP1 DUP2 MSTORE PUSH1 0x20 ADD PUSH0 KECCAK256 PUSH0 ADD PUSH0 SWAP1 SLOAD SWAP1 PUSH2 0x100 EXP SWAP1 DIV PUSH20 0xFFFFFFFFFFFFFFFFFFFFFFFFFFFFFFFFFFFFFFFF AND PUSH20 0xFFFFFFFFFFFFFFFFFFFFFFFFFFFFFFFFFFFFFFFF AND PUSH2 0x2A3A SWAP1 SWAP3 SWAP2 SWAP1 PUSH4 0xFFFFFFFF AND JUMP JUMPDEST PUSH1 0xC PUSH0 DUP5 DUP2 MSTORE PUSH1 0x20 ADD SWAP1 DUP2 MSTORE PUSH1 0x20 ADD PUSH0 KECCAK256 PUSH0 DUP4 PUSH20 0xFFFFFFFFFFFFFFFFFFFFFFFFFFFFFFFFFFFFFFFF AND PUSH20 0xFFFFFFFFFFFFFFFFFFFFFFFFFFFFFFFFFFFFFFFF AND DUP2 MSTORE PUSH1 0x20 ADD SWAP1 DUP2 MSTORE PUSH1 0x20 ADD PUSH0 KECCAK256 PUSH0 SWAP1 SSTORE DUP2 PUSH20 0xFFFFFFFFFFFFFFFFFFFFFFFFFFFFFFFFFFFFFFFF AND DUP4 PUSH32 0x268EF67ED0490CC273925A4865E6FBDB4DCF7E0802AAD957AA682A78C7618BEF DUP4 PUSH1 0x7 PUSH0 DUP9 DUP2 MSTORE PUSH1 0x20 ADD SWAP1 DUP2 MSTORE PUSH1 0x20 ADD PUSH0 KECCAK256 PUSH1 0xE ADD PUSH0 SWAP1 SLOAD SWAP1 PUSH2 0x100 EXP SWAP1 DIV PUSH1 0xFF AND PUSH1 0x40 MLOAD PUSH2 0x29A4 SWAP3 SWAP2 SWAP1 PUSH2 0x3B5D JUMP JUMPDEST PUSH1 0x40 MLOAD DUP1 SWAP2 SUB SWAP1 LOG3 POP POP POP JUMP JUMPDEST PUSH2 0x2A2D DUP5 DUP6 PUSH20 0xFFFFFFFFFFFFFFFFFFFFFFFFFFFFFFFFFFFFFFFF AND PUSH4 0x23B872DD DUP7 DUP7 DUP7 PUSH1 0x40 MLOAD PUSH1 0x24 ADD PUSH2 0x29E6 SWAP4 SWAP3 SWAP2 SWAP1 PUSH2 0x3BEC JUMP JUMPDEST PUSH1 0x40 MLOAD PUSH1 0x20 DUP2 DUP4 SUB SUB DUP2 MSTORE SWAP1 PUSH1 0x40 MSTORE SWAP2 POP PUSH1 0xE0 SHL PUSH1 0x20 DUP3 ADD DUP1 MLOAD PUSH28 0xFFFFFFFFFFFFFFFFFFFFFFFFFFFFFFFFFFFFFFFFFFFFFFFFFFFFFFFF DUP4 DUP2 DUP4 AND OR DUP4 MSTORE POP POP POP POP PUSH2 0x2C9D JUMP JUMPDEST POP POP POP POP JUMP JUMPDEST PUSH0 CALLER SWAP1 POP SWAP1 JUMP JUMPDEST PUSH2 0x2AB4 DUP4 DUP5 PUSH20 0xFFFFFFFFFFFFFFFFFFFFFFFFFFFFFFFFFFFFFFFF AND PUSH4 0xA9059CBB DUP6 DUP6 PUSH1 0x40 MLOAD PUSH1 0x24 ADD PUSH2 0x2A6D SWAP3 SWAP2 SWAP1 PUSH2 0x370F JUMP JUMPDEST PUSH1 0x40 MLOAD PUSH1 0x20 DUP2 DUP4 SUB SUB DUP2 MSTORE SWAP1 PUSH1 0x40 MSTORE SWAP2 POP PUSH1 0xE0 SHL PUSH1 0x20 DUP3 ADD DUP1 MLOAD PUSH28 0xFFFFFFFFFFFFFFFFFFFFFFFFFFFFFFFFFFFFFFFFFFFFFFFFFFFFFFFF DUP4 DUP2 DUP4 AND OR DUP4 MSTORE POP POP POP POP PUSH2 0x2C9D JUMP JUMPDEST POP POP POP JUMP JUMPDEST PUSH0 DUP1 PUSH2 0x100 DUP4 PUSH2 0x2AC9 SWAP2 SWAP1 PUSH2 0x3AD9 JUMP JUMPDEST SWAP1 POP DUP4 PUSH2 0x2AD6 DUP6 DUP4 PUSH2 0x2D32 JUMP JUMPDEST PUSH1 0x40 MLOAD PUSH1 0x20 ADD PUSH2 0x2AE7 SWAP3 SWAP2 SWAP1 PUSH2 0x3C41 JUMP JUMPDEST PUSH1 0x40 MLOAD PUSH1 0x20 DUP2 DUP4 SUB SUB DUP2 MSTORE SWAP1 PUSH1 0x40 MSTORE DUP1 MLOAD SWAP1 PUSH1 0x20 ADD KECCAK256 PUSH0 SHR SWAP2 POP POP SWAP3 SWAP2 POP POP JUMP JUMPDEST PUSH0 DUP2 PUSH1 0x8 PUSH0 DUP6 DUP2 MSTORE PUSH1 0x20 ADD SWAP1 DUP2 MSTORE PUSH1 0x20 ADD PUSH0 KECCAK256 PUSH0 PUSH1 0x1 PUSH1 0x7 PUSH0 DUP9 DUP2 MSTORE PUSH1 0x20 ADD SWAP1 DUP2 MSTORE PUSH1 0x20 ADD PUSH0 KECCAK256 PUSH1 0x9 ADD SLOAD PUSH2 0x2B3D SWAP2 SWAP1 PUSH2 0x3A4C JUMP JUMPDEST DUP2 MSTORE PUSH1 0x20 ADD SWAP1 DUP2 MSTORE PUSH1 0x20 ADD PUSH0 KECCAK256 PUSH0 ADD SLOAD GT PUSH2 0x2B8D JUMPI PUSH1 0x40 MLOAD PUSH32 0x8C379A000000000000000000000000000000000000000000000000000000000 DUP2 MSTORE PUSH1 0x4 ADD PUSH2 0x2B84 SWAP1 PUSH2 0x3CB6 JUMP JUMPDEST PUSH1 0x40 MLOAD DUP1 SWAP2 SUB SWAP1 REVERT JUMPDEST PUSH0 DUP1 PUSH1 0x1 PUSH1 0x7 PUSH0 DUP8 DUP2 MSTORE PUSH1 0x20 ADD SWAP1 DUP2 MSTORE PUSH1 0x20 ADD PUSH0 KECCAK256 PUSH1 0x9 ADD SLOAD PUSH2 0x2BB0 SWAP2 SWAP1 PUSH2 0x3A4C JUMP JUMPDEST SWAP1 POP JUMPDEST PUSH0 PUSH1 0x2 DUP3 DUP5 PUSH2 0x2BC2 SWAP2 SWAP1 PUSH2 0x360C JUMP JUMPDEST PUSH2 0x2BCC SWAP2 SWAP1 PUSH2 0x3CD4 JUMP JUMPDEST SWAP1 POP DUP5 PUSH1 0x8 PUSH0 DUP9 DUP2 MSTORE PUSH1 0x20 ADD SWAP1 DUP2 MSTORE PUSH1 0x20 ADD PUSH0 KECCAK256 PUSH0 DUP4 DUP2 MSTORE PUSH1 0x20 ADD SWAP1 DUP2 MSTORE PUSH1 0x20 ADD PUSH0 KECCAK256 PUSH0 ADD SLOAD GT ISZERO PUSH2 0x2C00 JUMPI DUP1 SWAP2 POP PUSH2 0x2C3A JUMP JUMPDEST DUP5 PUSH1 0x8 PUSH0 DUP9 DUP2 MSTORE PUSH1 0x20 ADD SWAP1 DUP2 MSTORE PUSH1 0x20 ADD PUSH0 KECCAK256 PUSH0 DUP4 DUP2 MSTORE PUSH1 0x20 ADD SWAP1 DUP2 MSTORE PUSH1 0x20 ADD PUSH0 KECCAK256 PUSH0 ADD SLOAD GT PUSH2 0x2C39 JUMPI PUSH1 0x1 DUP2 PUSH2 0x2C36 SWAP2 SWAP1 PUSH2 0x360C JUMP JUMPDEST SWAP3 POP JUMPDEST JUMPDEST DUP2 DUP4 LT PUSH2 0x2C6B JUMPI PUSH1 0x8 PUSH0 DUP8 DUP2 MSTORE PUSH1 0x20 ADD SWAP1 DUP2 MSTORE PUSH1 0x20 ADD PUSH0 KECCAK256 PUSH0 DUP4 DUP2 MSTORE PUSH1 0x20 ADD SWAP1 DUP2 MSTORE PUSH1 0x20 ADD PUSH0 KECCAK256 SWAP4 POP POP POP POP PUSH2 0x2C97 JUMP JUMPDEST POP PUSH1 0x1 PUSH2 0x2BB3 JUMPI PUSH1 0x8 PUSH0 DUP7 DUP2 MSTORE PUSH1 0x20 ADD SWAP1 DUP2 MSTORE PUSH1 0x20 ADD PUSH0 KECCAK256 PUSH0 DUP1 DUP2 MSTORE PUSH1 0x20 ADD SWAP1 DUP2 MSTORE PUSH1 0x20 ADD PUSH0 KECCAK256 SWAP3 POP POP POP JUMPDEST SWAP3 SWAP2 POP POP JUMP JUMPDEST PUSH0 PUSH2 0x2CC7 DUP3 DUP5 PUSH20 0xFFFFFFFFFFFFFFFFFFFFFFFFFFFFFFFFFFFFFFFF AND PUSH2 0x2D5D SWAP1 SWAP2 SWAP1 PUSH4 0xFFFFFFFF AND JUMP JUMPDEST SWAP1 POP PUSH0 DUP2 MLOAD EQ ISZERO DUP1 ISZERO PUSH2 0x2CEB JUMPI POP DUP1 DUP1 PUSH1 0x20 ADD SWAP1 MLOAD DUP2 ADD SWAP1 PUSH2 0x2CE9 SWAP2 SWAP1 PUSH2 0x3D18 JUMP JUMPDEST ISZERO JUMPDEST ISZERO PUSH2 0x2D2D JUMPI DUP3 PUSH1 0x40 MLOAD PUSH32 0x5274AFE700000000000000000000000000000000000000000000000000000000 DUP2 MSTORE PUSH1 0x4 ADD PUSH2 0x2D24 SWAP2 SWAP1 PUSH2 0x30F1 JUMP JUMPDEST PUSH1 0x40 MLOAD DUP1 SWAP2 SUB SWAP1 REVERT JUMPDEST POP POP POP JUMP JUMPDEST PUSH0 DUP2 PUSH2 0x100 PUSH2 0x2D41 SWAP2 SWAP1 PUSH2 0x3D52 JUMP JUMPDEST PUSH4 0xFFFFFFFF AND DUP4 SWAP1 SHR DUP3 PUSH4 0xFFFFFFFF AND DUP5 SWAP1 SHL OR SWAP1 POP SWAP3 SWAP2 POP POP JUMP JUMPDEST PUSH1 0x60 PUSH2 0x2D6A DUP4 DUP4 PUSH0 PUSH2 0x2D72 JUMP JUMPDEST SWAP1 POP SWAP3 SWAP2 POP POP JUMP JUMPDEST PUSH1 0x60 DUP2 SELFBALANCE LT ISZERO PUSH2 0x2DB9 JUMPI ADDRESS PUSH1 0x40 MLOAD PUSH32 0xCD78605900000000000000000000000000000000000000000000000000000000 DUP2 MSTORE PUSH1 0x4 ADD PUSH2 0x2DB0 SWAP2 SWAP1 PUSH2 0x30F1 JUMP JUMPDEST PUSH1 0x40 MLOAD DUP1 SWAP2 SUB SWAP1 REVERT JUMPDEST PUSH0 DUP1 DUP6 PUSH20 0xFFFFFFFFFFFFFFFFFFFFFFFFFFFFFFFFFFFFFFFF AND DUP5 DUP7 PUSH1 0x40 MLOAD PUSH2 0x2DE1 SWAP2 SWAP1 PUSH2 0x3DDB JUMP JUMPDEST PUSH0 PUSH1 0x40 MLOAD DUP1 DUP4 SUB DUP2 DUP6 DUP8 GAS CALL SWAP3 POP POP POP RETURNDATASIZE DUP1 PUSH0 DUP2 EQ PUSH2 0x2E1B JUMPI PUSH1 0x40 MLOAD SWAP2 POP PUSH1 0x1F NOT PUSH1 0x3F RETURNDATASIZE ADD AND DUP3 ADD PUSH1 0x40 MSTORE RETURNDATASIZE DUP3 MSTORE RETURNDATASIZE PUSH0 PUSH1 0x20 DUP5 ADD RETURNDATACOPY PUSH2 0x2E20 JUMP JUMPDEST PUSH1 0x60 SWAP2 POP JUMPDEST POP SWAP2 POP SWAP2 POP PUSH2 0x2E30 DUP7 DUP4 DUP4 PUSH2 0x2E3B JUMP JUMPDEST SWAP3 POP POP POP SWAP4 SWAP3 POP POP POP JUMP JUMPDEST PUSH1 0x60 DUP3 PUSH2 0x2E50 JUMPI PUSH2 0x2E4B DUP3 PUSH2 0x2EC8 JUMP JUMPDEST PUSH2 0x2EC0 JUMP JUMPDEST PUSH0 DUP3 MLOAD EQ DUP1 ISZERO PUSH2 0x2E76 JUMPI POP PUSH0 DUP5 PUSH20 0xFFFFFFFFFFFFFFFFFFFFFFFFFFFFFFFFFFFFFFFF AND EXTCODESIZE EQ JUMPDEST ISZERO PUSH2 0x2EB8 JUMPI DUP4 PUSH1 0x40 MLOAD PUSH32 0x9996B31500000000000000000000000000000000000000000000000000000000 DUP2 MSTORE PUSH1 0x4 ADD PUSH2 0x2EAF SWAP2 SWAP1 PUSH2 0x30F1 JUMP JUMPDEST PUSH1 0x40 MLOAD DUP1 SWAP2 SUB SWAP1 REVERT JUMPDEST DUP2 SWAP1 POP PUSH2 0x2EC1 JUMP JUMPDEST JUMPDEST SWAP4 SWAP3 POP POP POP JUMP JUMPDEST PUSH0 DUP2 MLOAD GT ISZERO PUSH2 0x2EDA JUMPI DUP1 MLOAD DUP1 DUP3 PUSH1 0x20 ADD REVERT JUMPDEST PUSH1 0x40 MLOAD PUSH32 0x1425EA4200000000000000000000000000000000000000000000000000000000 DUP2 MSTORE PUSH1 0x4 ADD PUSH1 0x40 MLOAD DUP1 SWAP2 SUB SWAP1 REVERT JUMPDEST PUSH0 DUP1 REVERT JUMPDEST PUSH0 DUP2 SWAP1 POP SWAP2 SWAP1 POP JUMP JUMPDEST PUSH2 0x2F22 DUP2 PUSH2 0x2F10 JUMP JUMPDEST DUP2 EQ PUSH2 0x2F2C JUMPI PUSH0 DUP1 REVERT JUMPDEST POP JUMP JUMPDEST PUSH0 DUP2 CALLDATALOAD SWAP1 POP PUSH2 0x2F3D DUP2 PUSH2 0x2F19 JUMP JUMPDEST SWAP3 SWAP2 POP POP JUMP JUMPDEST PUSH0 DUP1 PUSH0 DUP1 PUSH1 0x80 DUP6 DUP8 SUB SLT ISZERO PUSH2 0x2F5B JUMPI PUSH2 0x2F5A PUSH2 0x2F0C JUMP JUMPDEST JUMPDEST PUSH0 PUSH2 0x2F68 DUP8 DUP3 DUP9 ADD PUSH2 0x2F2F JUMP JUMPDEST SWAP5 POP POP PUSH1 0x20 PUSH2 0x2F79 DUP8 DUP3 DUP9 ADD PUSH2 0x2F2F JUMP JUMPDEST SWAP4 POP POP PUSH1 0x40 PUSH2 0x2F8A DUP8 DUP3 DUP9 ADD PUSH2 0x2F2F JUMP JUMPDEST SWAP3 POP POP PUSH1 0x60 PUSH2 0x2F9B DUP8 DUP3 DUP9 ADD PUSH2 0x2F2F JUMP JUMPDEST SWAP2 POP POP SWAP3 SWAP6 SWAP2 SWAP5 POP SWAP3 POP JUMP JUMPDEST PUSH0 PUSH1 0x20 DUP3 DUP5 SUB SLT ISZERO PUSH2 0x2FBC JUMPI PUSH2 0x2FBB PUSH2 0x2F0C JUMP JUMPDEST JUMPDEST PUSH0 PUSH2 0x2FC9 DUP5 DUP3 DUP6 ADD PUSH2 0x2F2F JUMP JUMPDEST SWAP2 POP POP SWAP3 SWAP2 POP POP JUMP JUMPDEST PUSH0 PUSH20 0xFFFFFFFFFFFFFFFFFFFFFFFFFFFFFFFFFFFFFFFF DUP3 AND SWAP1 POP SWAP2 SWAP1 POP JUMP JUMPDEST PUSH0 PUSH2 0x2FFB DUP3 PUSH2 0x2FD2 JUMP JUMPDEST SWAP1 POP SWAP2 SWAP1 POP JUMP JUMPDEST PUSH2 0x300B DUP2 PUSH2 0x2FF1 JUMP JUMPDEST DUP2 EQ PUSH2 0x3015 JUMPI PUSH0 DUP1 REVERT JUMPDEST POP JUMP JUMPDEST PUSH0 DUP2 CALLDATALOAD SWAP1 POP PUSH2 0x3026 DUP2 PUSH2 0x3002 JUMP JUMPDEST SWAP3 SWAP2 POP POP JUMP JUMPDEST PUSH0 DUP1 PUSH0 PUSH1 0x60 DUP5 DUP7 SUB SLT ISZERO PUSH2 0x3043 JUMPI PUSH2 0x3042 PUSH2 0x2F0C JUMP JUMPDEST JUMPDEST PUSH0 PUSH2 0x3050 DUP7 DUP3 DUP8 ADD PUSH2 0x2F2F JUMP JUMPDEST SWAP4 POP POP PUSH1 0x20 PUSH2 0x3061 DUP7 DUP3 DUP8 ADD PUSH2 0x3018 JUMP JUMPDEST SWAP3 POP POP PUSH1 0x40 PUSH2 0x3072 DUP7 DUP3 DUP8 ADD PUSH2 0x2F2F JUMP JUMPDEST SWAP2 POP POP SWAP3 POP SWAP3 POP SWAP3 JUMP JUMPDEST PUSH2 0x3085 DUP2 PUSH2 0x2F10 JUMP JUMPDEST DUP3 MSTORE POP POP JUMP JUMPDEST PUSH0 PUSH1 0x20 DUP3 ADD SWAP1 POP PUSH2 0x309E PUSH0 DUP4 ADD DUP5 PUSH2 0x307C JUMP JUMPDEST SWAP3 SWAP2 POP POP JUMP JUMPDEST PUSH0 DUP1 PUSH1 0x40 DUP4 DUP6 SUB SLT ISZERO PUSH2 0x30BA JUMPI PUSH2 0x30B9 PUSH2 0x2F0C JUMP JUMPDEST JUMPDEST PUSH0 PUSH2 0x30C7 DUP6 DUP3 DUP7 ADD PUSH2 0x2F2F JUMP JUMPDEST SWAP3 POP POP PUSH1 0x20 PUSH2 0x30D8 DUP6 DUP3 DUP7 ADD PUSH2 0x2F2F JUMP JUMPDEST SWAP2 POP POP SWAP3 POP SWAP3 SWAP1 POP JUMP JUMPDEST PUSH2 0x30EB DUP2 PUSH2 0x2FF1 JUMP JUMPDEST DUP3 MSTORE POP POP JUMP JUMPDEST PUSH0 PUSH1 0x20 DUP3 ADD SWAP1 POP PUSH2 0x3104 PUSH0 DUP4 ADD DUP5 PUSH2 0x30E2 JUMP JUMPDEST SWAP3 SWAP2 POP POP JUMP JUMPDEST PUSH0 DUP1 PUSH1 0x40 DUP4 DUP6 SUB SLT ISZERO PUSH2 0x3120 JUMPI PUSH2 0x311F PUSH2 0x2F0C JUMP JUMPDEST JUMPDEST PUSH0 PUSH2 0x312D DUP6 DUP3 DUP7 ADD PUSH2 0x3018 JUMP JUMPDEST SWAP3 POP POP PUSH1 0x20 PUSH2 0x313E DUP6 DUP3 DUP7 ADD PUSH2 0x2F2F JUMP JUMPDEST SWAP2 POP POP SWAP3 POP SWAP3 SWAP1 POP JUMP JUMPDEST PUSH0 DUP2 ISZERO ISZERO SWAP1 POP SWAP2 SWAP1 POP JUMP JUMPDEST PUSH2 0x315C DUP2 PUSH2 0x3148 JUMP JUMPDEST DUP3 MSTORE POP POP JUMP JUMPDEST PUSH0 PUSH1 0x20 DUP3 ADD SWAP1 POP PUSH2 0x3175 PUSH0 DUP4 ADD DUP5 PUSH2 0x3153 JUMP JUMPDEST SWAP3 SWAP2 POP POP JUMP JUMPDEST PUSH0 DUP1 PUSH0 DUP1 PUSH0 DUP1 PUSH0 DUP1 PUSH0 PUSH2 0x120 DUP11 DUP13 SUB SLT ISZERO PUSH2 0x3199 JUMPI PUSH2 0x3198 PUSH2 0x2F0C JUMP JUMPDEST JUMPDEST PUSH0 PUSH2 0x31A6 DUP13 DUP3 DUP14 ADD PUSH2 0x3018 JUMP JUMPDEST SWAP10 POP POP PUSH1 0x20 PUSH2 0x31B7 DUP13 DUP3 DUP14 ADD PUSH2 0x2F2F JUMP JUMPDEST SWAP9 POP POP PUSH1 0x40 PUSH2 0x31C8 DUP13 DUP3 DUP14 ADD PUSH2 0x2F2F JUMP JUMPDEST SWAP8 POP POP PUSH1 0x60 PUSH2 0x31D9 DUP13 DUP3 DUP14 ADD PUSH2 0x2F2F JUMP JUMPDEST SWAP7 POP POP PUSH1 0x80 PUSH2 0x31EA DUP13 DUP3 DUP14 ADD PUSH2 0x2F2F JUMP JUMPDEST SWAP6 POP POP PUSH1 0xA0 PUSH2 0x31FB DUP13 DUP3 DUP14 ADD PUSH2 0x3018 JUMP JUMPDEST SWAP5 POP POP PUSH1 0xC0 PUSH2 0x320C DUP13 DUP3 DUP14 ADD PUSH2 0x2F2F JUMP JUMPDEST SWAP4 POP POP PUSH1 0xE0 PUSH2 0x321D DUP13 DUP3 DUP14 ADD PUSH2 0x3018 JUMP JUMPDEST SWAP3 POP POP PUSH2 0x100 PUSH2 0x322F DUP13 DUP3 DUP14 ADD PUSH2 0x2F2F JUMP JUMPDEST SWAP2 POP POP SWAP3 SWAP6 SWAP9 POP SWAP3 SWAP6 SWAP9 POP SWAP3 SWAP6 SWAP9 JUMP JUMPDEST PUSH0 PUSH1 0x20 DUP3 DUP5 SUB SLT ISZERO PUSH2 0x3254 JUMPI PUSH2 0x3253 PUSH2 0x2F0C JUMP JUMPDEST JUMPDEST PUSH0 PUSH2 0x3261 DUP5 DUP3 DUP6 ADD PUSH2 0x3018 JUMP JUMPDEST SWAP2 POP POP SWAP3 SWAP2 POP POP JUMP JUMPDEST PUSH2 0x3273 DUP2 PUSH2 0x3148 JUMP JUMPDEST DUP2 EQ PUSH2 0x327D JUMPI PUSH0 DUP1 REVERT JUMPDEST POP JUMP JUMPDEST PUSH0 DUP2 CALLDATALOAD SWAP1 POP PUSH2 0x328E DUP2 PUSH2 0x326A JUMP JUMPDEST SWAP3 SWAP2 POP POP JUMP JUMPDEST PUSH0 DUP1 PUSH1 0x40 DUP4 DUP6 SUB SLT ISZERO PUSH2 0x32AA JUMPI PUSH2 0x32A9 PUSH2 0x2F0C JUMP JUMPDEST JUMPDEST PUSH0 PUSH2 0x32B7 DUP6 DUP3 DUP7 ADD PUSH2 0x3018 JUMP JUMPDEST SWAP3 POP POP PUSH1 0x20 PUSH2 0x32C8 DUP6 DUP3 DUP7 ADD PUSH2 0x3280 JUMP JUMPDEST SWAP2 POP POP SWAP3 POP SWAP3 SWAP1 POP JUMP JUMPDEST PUSH0 PUSH1 0x20 DUP3 DUP5 SUB SLT ISZERO PUSH2 0x32E7 JUMPI PUSH2 0x32E6 PUSH2 0x2F0C JUMP JUMPDEST JUMPDEST PUSH0 PUSH2 0x32F4 DUP5 DUP3 DUP6 ADD PUSH2 0x3280 JUMP JUMPDEST SWAP2 POP POP SWAP3 SWAP2 POP POP JUMP JUMPDEST PUSH0 DUP3 DUP3 MSTORE PUSH1 0x20 DUP3 ADD SWAP1 POP SWAP3 SWAP2 POP POP JUMP JUMPDEST PUSH32 0x4E6F74206F70657261746F720000000000000000000000000000000000000000 PUSH0 DUP3 ADD MSTORE POP JUMP JUMPDEST PUSH0 PUSH2 0x3341 PUSH1 0xC DUP4 PUSH2 0x32FD JUMP JUMPDEST SWAP2 POP PUSH2 0x334C DUP3 PUSH2 0x330D JUMP JUMPDEST PUSH1 0x20 DUP3 ADD SWAP1 POP SWAP2 SWAP1 POP JUMP JUMPDEST PUSH0 PUSH1 0x20 DUP3 ADD SWAP1 POP DUP2 DUP2 SUB PUSH0 DUP4 ADD MSTORE PUSH2 0x336E DUP2 PUSH2 0x3335 JUMP JUMPDEST SWAP1 POP SWAP2 SWAP1 POP JUMP JUMPDEST PUSH32 0x4E487B7100000000000000000000000000000000000000000000000000000000 PUSH0 MSTORE PUSH1 0x21 PUSH1 0x4 MSTORE PUSH1 0x24 PUSH0 REVERT JUMPDEST PUSH32 0x526564456E76656C6F7065206973206E6F74206F70656E000000000000000000 PUSH0 DUP3 ADD MSTORE POP JUMP JUMPDEST PUSH0 PUSH2 0x33D6 PUSH1 0x17 DUP4 PUSH2 0x32FD JUMP JUMPDEST SWAP2 POP PUSH2 0x33E1 DUP3 PUSH2 0x33A2 JUMP JUMPDEST PUSH1 0x20 DUP3 ADD SWAP1 POP SWAP2 SWAP1 POP JUMP JUMPDEST PUSH0 PUSH1 0x20 DUP3 ADD SWAP1 POP DUP2 DUP2 SUB PUSH0 DUP4 ADD MSTORE PUSH2 0x3403 DUP2 PUSH2 0x33CA JUMP JUMPDEST SWAP1 POP SWAP2 SWAP1 POP JUMP JUMPDEST PUSH0 PUSH1 0x60 DUP3 ADD SWAP1 POP PUSH2 0x341D PUSH0 DUP4 ADD DUP7 PUSH2 0x307C JUMP JUMPDEST PUSH2 0x342A PUSH1 0x20 DUP4 ADD DUP6 PUSH2 0x307C JUMP JUMPDEST PUSH2 0x3437 PUSH1 0x40 DUP4 ADD DUP5 PUSH2 0x307C JUMP JUMPDEST SWAP5 SWAP4 POP POP POP POP JUMP JUMPDEST PUSH32 0x6E6F20676574207469636B6574206D6F64656C00000000000000000000000000 PUSH0 DUP3 ADD MSTORE POP JUMP JUMPDEST PUSH0 PUSH2 0x3473 PUSH1 0x13 DUP4 PUSH2 0x32FD JUMP JUMPDEST SWAP2 POP PUSH2 0x347E DUP3 PUSH2 0x343F JUMP JUMPDEST PUSH1 0x20 DUP3 ADD SWAP1 POP SWAP2 SWAP1 POP JUMP JUMPDEST PUSH0 PUSH1 0x20 DUP3 ADD SWAP1 POP DUP2 DUP2 SUB PUSH0 DUP4 ADD MSTORE PUSH2 0x34A0 DUP2 PUSH2 0x3467 JUMP JUMPDEST SWAP1 POP SWAP2 SWAP1 POP JUMP JUMPDEST PUSH32 0x6E6F7420616C6C6F7720676574207469636B6574000000000000000000000000 PUSH0 DUP3 ADD MSTORE POP JUMP JUMPDEST PUSH0 PUSH2 0x34DB PUSH1 0x14 DUP4 PUSH2 0x32FD JUMP JUMPDEST SWAP2 POP PUSH2 0x34E6 DUP3 PUSH2 0x34A7 JUMP JUMPDEST PUSH1 0x20 DUP3 ADD SWAP1 POP SWAP2 SWAP1 POP JUMP JUMPDEST PUSH0 PUSH1 0x20 DUP3 ADD SWAP1 POP DUP2 DUP2 SUB PUSH0 DUP4 ADD MSTORE PUSH2 0x3508 DUP2 PUSH2 0x34CF JUMP JUMPDEST SWAP1 POP SWAP2 SWAP1 POP JUMP JUMPDEST PUSH32 0x7469636B65744E756D62657273206E6F207A65726F0000000000000000000000 PUSH0 DUP3 ADD MSTORE POP JUMP JUMPDEST PUSH0 PUSH2 0x3543 PUSH1 0x15 DUP4 PUSH2 0x32FD JUMP JUMPDEST SWAP2 POP PUSH2 0x354E DUP3 PUSH2 0x350F JUMP JUMPDEST PUSH1 0x20 DUP3 ADD SWAP1 POP SWAP2 SWAP1 POP JUMP JUMPDEST PUSH0 PUSH1 0x20 DUP3 ADD SWAP1 POP DUP2 DUP2 SUB PUSH0 DUP4 ADD MSTORE PUSH2 0x3570 DUP2 PUSH2 0x3537 JUMP JUMPDEST SWAP1 POP SWAP2 SWAP1 POP JUMP JUMPDEST PUSH32 0x526564456E76656C6F7065206973206F7665722074696D650000000000000000 PUSH0 DUP3 ADD MSTORE POP JUMP JUMPDEST PUSH0 PUSH2 0x35AB PUSH1 0x18 DUP4 PUSH2 0x32FD JUMP JUMPDEST SWAP2 POP PUSH2 0x35B6 DUP3 PUSH2 0x3577 JUMP JUMPDEST PUSH1 0x20 DUP3 ADD SWAP1 POP SWAP2 SWAP1 POP JUMP JUMPDEST PUSH0 PUSH1 0x20 DUP3 ADD SWAP1 POP DUP2 DUP2 SUB PUSH0 DUP4 ADD MSTORE PUSH2 0x35D8 DUP2 PUSH2 0x359F JUMP JUMPDEST SWAP1 POP SWAP2 SWAP1 POP JUMP JUMPDEST PUSH32 0x4E487B7100000000000000000000000000000000000000000000000000000000 PUSH0 MSTORE PUSH1 0x11 PUSH1 0x4 MSTORE PUSH1 0x24 PUSH0 REVERT JUMPDEST PUSH0 PUSH2 0x3616 DUP3 PUSH2 0x2F10 JUMP JUMPDEST SWAP2 POP PUSH2 0x3621 DUP4 PUSH2 0x2F10 JUMP JUMPDEST SWAP3 POP DUP3 DUP3 ADD SWAP1 POP DUP1 DUP3 GT ISZERO PUSH2 0x3639 JUMPI PUSH2 0x3638 PUSH2 0x35DF JUMP JUMPDEST JUMPDEST SWAP3 SWAP2 POP POP JUMP JUMPDEST PUSH32 0x526564456E76656C6F7065206973206F766572207469636B6574000000000000 PUSH0 DUP3 ADD MSTORE POP JUMP JUMPDEST PUSH0 PUSH2 0x3673 PUSH1 0x1A DUP4 PUSH2 0x32FD JUMP JUMPDEST SWAP2 POP PUSH2 0x367E DUP3 PUSH2 0x363F JUMP JUMPDEST PUSH1 0x20 DUP3 ADD SWAP1 POP SWAP2 SWAP1 POP JUMP JUMPDEST PUSH0 PUSH1 0x20 DUP3 ADD SWAP1 POP DUP2 DUP2 SUB PUSH0 DUP4 ADD MSTORE PUSH2 0x36A0 DUP2 PUSH2 0x3667 JUMP JUMPDEST SWAP1 POP SWAP2 SWAP1 POP JUMP JUMPDEST PUSH32 0x696E6A656374206E6F207A65726F000000000000000000000000000000000000 PUSH0 DUP3 ADD MSTORE POP JUMP JUMPDEST PUSH0 PUSH2 0x36DB PUSH1 0xE DUP4 PUSH2 0x32FD JUMP JUMPDEST SWAP2 POP PUSH2 0x36E6 DUP3 PUSH2 0x36A7 JUMP JUMPDEST PUSH1 0x20 DUP3 ADD SWAP1 POP SWAP2 SWAP1 POP JUMP JUMPDEST PUSH0 PUSH1 0x20 DUP3 ADD SWAP1 POP DUP2 DUP2 SUB PUSH0 DUP4 ADD MSTORE PUSH2 0x3708 DUP2 PUSH2 0x36CF JUMP JUMPDEST SWAP1 POP SWAP2 SWAP1 POP JUMP JUMPDEST PUSH0 PUSH1 0x40 DUP3 ADD SWAP1 POP PUSH2 0x3722 PUSH0 DUP4 ADD DUP6 PUSH2 0x30E2 JUMP JUMPDEST PUSH2 0x372F PUSH1 0x20 DUP4 ADD DUP5 PUSH2 0x307C JUMP JUMPDEST SWAP4 SWAP3 POP POP POP JUMP JUMPDEST PUSH32 0x526564456E76656C6F7065206E6F7420636C6F73650000000000000000000000 PUSH0 DUP3 ADD MSTORE POP JUMP JUMPDEST PUSH0 PUSH2 0x376A PUSH1 0x15 DUP4 PUSH2 0x32FD JUMP JUMPDEST SWAP2 POP PUSH2 0x3775 DUP3 PUSH2 0x3736 JUMP JUMPDEST PUSH1 0x20 DUP3 ADD SWAP1 POP SWAP2 SWAP1 POP JUMP JUMPDEST PUSH0 PUSH1 0x20 DUP3 ADD SWAP1 POP DUP2 DUP2 SUB PUSH0 DUP4 ADD MSTORE PUSH2 0x3797 DUP2 PUSH2 0x375E JUMP JUMPDEST SWAP1 POP SWAP2 SWAP1 POP JUMP JUMPDEST PUSH0 PUSH2 0x37A8 DUP3 PUSH2 0x2F10 JUMP JUMPDEST SWAP2 POP PUSH2 0x37B3 DUP4 PUSH2 0x2F10 JUMP JUMPDEST SWAP3 POP DUP3 DUP3 MUL PUSH2 0x37C1 DUP2 PUSH2 0x2F10 JUMP JUMPDEST SWAP2 POP DUP3 DUP3 DIV DUP5 EQ DUP4 ISZERO OR PUSH2 0x37D8 JUMPI PUSH2 0x37D7 PUSH2 0x35DF JUMP JUMPDEST JUMPDEST POP SWAP3 SWAP2 POP POP JUMP JUMPDEST PUSH32 0x6E6F20627579207469636B6574206D6F64656C00000000000000000000000000 PUSH0 DUP3 ADD MSTORE POP JUMP JUMPDEST PUSH0 PUSH2 0x3813 PUSH1 0x13 DUP4 PUSH2 0x32FD JUMP JUMPDEST SWAP2 POP PUSH2 0x381E DUP3 PUSH2 0x37DF JUMP JUMPDEST PUSH1 0x20 DUP3 ADD SWAP1 POP SWAP2 SWAP1 POP JUMP JUMPDEST PUSH0 PUSH1 0x20 DUP3 ADD SWAP1 POP DUP2 DUP2 SUB PUSH0 DUP4 ADD MSTORE PUSH2 0x3840 DUP2 PUSH2 0x3807 JUMP JUMPDEST SWAP1 POP SWAP2 SWAP1 POP JUMP JUMPDEST PUSH32 0x526564456E76656C6F7065206E6F7420636C61696D61626C6500000000000000 PUSH0 DUP3 ADD MSTORE POP JUMP JUMPDEST PUSH0 PUSH2 0x387B PUSH1 0x19 DUP4 PUSH2 0x32FD JUMP JUMPDEST SWAP2 POP PUSH2 0x3886 DUP3 PUSH2 0x3847 JUMP JUMPDEST PUSH1 0x20 DUP3 ADD SWAP1 POP SWAP2 SWAP1 POP JUMP JUMPDEST PUSH0 PUSH1 0x20 DUP3 ADD SWAP1 POP DUP2 DUP2 SUB PUSH0 DUP4 ADD MSTORE PUSH2 0x38A8 DUP2 PUSH2 0x386F JUMP JUMPDEST SWAP1 POP SWAP2 SWAP1 POP JUMP JUMPDEST PUSH32 0x526564456E76656C6F7065206175746F20636C61696D00000000000000000000 PUSH0 DUP3 ADD MSTORE POP JUMP JUMPDEST PUSH0 PUSH2 0x38E3 PUSH1 0x16 DUP4 PUSH2 0x32FD JUMP JUMPDEST SWAP2 POP PUSH2 0x38EE DUP3 PUSH2 0x38AF JUMP JUMPDEST PUSH1 0x20 DUP3 ADD SWAP1 POP SWAP2 SWAP1 POP JUMP JUMPDEST PUSH0 PUSH1 0x20 DUP3 ADD SWAP1 POP DUP2 DUP2 SUB PUSH0 DUP4 ADD MSTORE PUSH2 0x3910 DUP2 PUSH2 0x38D7 JUMP JUMPDEST SWAP1 POP SWAP2 SWAP1 POP JUMP JUMPDEST PUSH32 0x43616E6E6F74206265207A65726F206164647265737300000000000000000000 PUSH0 DUP3 ADD MSTORE POP JUMP JUMPDEST PUSH0 PUSH2 0x394B PUSH1 0x16 DUP4 PUSH2 0x32FD JUMP JUMPDEST SWAP2 POP PUSH2 0x3956 DUP3 PUSH2 0x3917 JUMP JUMPDEST PUSH1 0x20 DUP3 ADD SWAP1 POP SWAP2 SWAP1 POP JUMP JUMPDEST PUSH0 PUSH1 0x20 DUP3 ADD SWAP1 POP DUP2 DUP2 SUB PUSH0 DUP4 ADD MSTORE PUSH2 0x3978 DUP2 PUSH2 0x393F JUMP JUMPDEST SWAP1 POP SWAP2 SWAP1 POP JUMP JUMPDEST PUSH0 PUSH1 0x40 DUP3 ADD SWAP1 POP PUSH2 0x3992 PUSH0 DUP4 ADD DUP6 PUSH2 0x30E2 JUMP JUMPDEST PUSH2 0x399F PUSH1 0x20 DUP4 ADD DUP5 PUSH2 0x3153 JUMP JUMPDEST SWAP4 SWAP3 POP POP POP JUMP JUMPDEST PUSH0 PUSH2 0x39B0 DUP3 PUSH2 0x2F10 JUMP JUMPDEST SWAP2 POP PUSH32 0xFFFFFFFFFFFFFFFFFFFFFFFFFFFFFFFFFFFFFFFFFFFFFFFFFFFFFFFFFFFFFFFF DUP3 SUB PUSH2 0x39E2 JUMPI PUSH2 0x39E1 PUSH2 0x35DF JUMP JUMPDEST JUMPDEST PUSH1 0x1 DUP3 ADD SWAP1 POP SWAP2 SWAP1 POP JUMP JUMPDEST PUSH0 PUSH1 0xC0 DUP3 ADD SWAP1 POP PUSH2 0x3A00 PUSH0 DUP4 ADD DUP10 PUSH2 0x307C JUMP JUMPDEST PUSH2 0x3A0D PUSH1 0x20 DUP4 ADD DUP9 PUSH2 0x307C JUMP JUMPDEST PUSH2 0x3A1A PUSH1 0x40 DUP4 ADD DUP8 PUSH2 0x307C JUMP JUMPDEST PUSH2 0x3A27 PUSH1 0x60 DUP4 ADD DUP7 PUSH2 0x307C JUMP JUMPDEST PUSH2 0x3A34 PUSH1 0x80 DUP4 ADD DUP6 PUSH2 0x30E2 JUMP JUMPDEST PUSH2 0x3A41 PUSH1 0xA0 DUP4 ADD DUP5 PUSH2 0x3153 JUMP JUMPDEST SWAP8 SWAP7 POP POP POP POP POP POP POP JUMP JUMPDEST PUSH0 PUSH2 0x3A56 DUP3 PUSH2 0x2F10 JUMP JUMPDEST SWAP2 POP PUSH2 0x3A61 DUP4 PUSH2 0x2F10 JUMP JUMPDEST SWAP3 POP DUP3 DUP3 SUB SWAP1 POP DUP2 DUP2 GT ISZERO PUSH2 0x3A79 JUMPI PUSH2 0x3A78 PUSH2 0x35DF JUMP JUMPDEST JUMPDEST SWAP3 SWAP2 POP POP JUMP JUMPDEST PUSH32 0x4E487B7100000000000000000000000000000000000000000000000000000000 PUSH0 MSTORE PUSH1 0x41 PUSH1 0x4 MSTORE PUSH1 0x24 PUSH0 REVERT JUMPDEST PUSH32 0x4E487B7100000000000000000000000000000000000000000000000000000000 PUSH0 MSTORE PUSH1 0x12 PUSH1 0x4 MSTORE PUSH1 0x24 PUSH0 REVERT JUMPDEST PUSH0 PUSH2 0x3AE3 DUP3 PUSH2 0x2F10 JUMP JUMPDEST SWAP2 POP PUSH2 0x3AEE DUP4 PUSH2 0x2F10 JUMP JUMPDEST SWAP3 POP DUP3 PUSH2 0x3AFE JUMPI PUSH2 0x3AFD PUSH2 0x3AAC JUMP JUMPDEST JUMPDEST DUP3 DUP3 MOD SWAP1 POP SWAP3 SWAP2 POP POP JUMP JUMPDEST PUSH32 0x4E487B7100000000000000000000000000000000000000000000000000000000 PUSH0 MSTORE PUSH1 0x32 PUSH1 0x4 MSTORE PUSH1 0x24 PUSH0 REVERT JUMPDEST PUSH0 PUSH2 0x3B40 DUP3 PUSH2 0x2F10 JUMP JUMPDEST SWAP2 POP PUSH0 DUP3 SUB PUSH2 0x3B52 JUMPI PUSH2 0x3B51 PUSH2 0x35DF JUMP JUMPDEST JUMPDEST PUSH1 0x1 DUP3 SUB SWAP1 POP SWAP2 SWAP1 POP JUMP JUMPDEST PUSH0 PUSH1 0x40 DUP3 ADD SWAP1 POP PUSH2 0x3B70 PUSH0 DUP4 ADD DUP6 PUSH2 0x307C JUMP JUMPDEST PUSH2 0x3B7D PUSH1 0x20 DUP4 ADD DUP5 PUSH2 0x3153 JUMP JUMPDEST SWAP4 SWAP3 POP POP POP JUMP JUMPDEST PUSH32 0x6E6F207072697A65000000000000000000000000000000000000000000000000 PUSH0 DUP3 ADD MSTORE POP JUMP JUMPDEST PUSH0 PUSH2 0x3BB8 PUSH1 0x8 DUP4 PUSH2 0x32FD JUMP JUMPDEST SWAP2 POP PUSH2 0x3BC3 DUP3 PUSH2 0x3B84 JUMP JUMPDEST PUSH1 0x20 DUP3 ADD SWAP1 POP SWAP2 SWAP1 POP JUMP JUMPDEST PUSH0 PUSH1 0x20 DUP3 ADD SWAP1 POP DUP2 DUP2 SUB PUSH0 DUP4 ADD MSTORE PUSH2 0x3BE5 DUP2 PUSH2 0x3BAC JUMP JUMPDEST SWAP1 POP SWAP2 SWAP1 POP JUMP JUMPDEST PUSH0 PUSH1 0x60 DUP3 ADD SWAP1 POP PUSH2 0x3BFF PUSH0 DUP4 ADD DUP7 PUSH2 0x30E2 JUMP JUMPDEST PUSH2 0x3C0C PUSH1 0x20 DUP4 ADD DUP6 PUSH2 0x30E2 JUMP JUMPDEST PUSH2 0x3C19 PUSH1 0x40 DUP4 ADD DUP5 PUSH2 0x307C JUMP JUMPDEST SWAP5 SWAP4 POP POP POP POP JUMP JUMPDEST PUSH0 DUP2 SWAP1 POP SWAP2 SWAP1 POP JUMP JUMPDEST PUSH2 0x3C3B PUSH2 0x3C36 DUP3 PUSH2 0x2F10 JUMP JUMPDEST PUSH2 0x3C21 JUMP JUMPDEST DUP3 MSTORE POP POP JUMP JUMPDEST PUSH0 PUSH2 0x3C4C DUP3 DUP6 PUSH2 0x3C2A JUMP JUMPDEST PUSH1 0x20 DUP3 ADD SWAP2 POP PUSH2 0x3C5C DUP3 DUP5 PUSH2 0x3C2A JUMP JUMPDEST PUSH1 0x20 DUP3 ADD SWAP2 POP DUP2 SWAP1 POP SWAP4 SWAP3 POP POP POP JUMP JUMPDEST PUSH32 0x696E646578206F75742072616E67650000000000000000000000000000000000 PUSH0 DUP3 ADD MSTORE POP JUMP JUMPDEST PUSH0 PUSH2 0x3CA0 PUSH1 0xF DUP4 PUSH2 0x32FD JUMP JUMPDEST SWAP2 POP PUSH2 0x3CAB DUP3 PUSH2 0x3C6C JUMP JUMPDEST PUSH1 0x20 DUP3 ADD SWAP1 POP SWAP2 SWAP1 POP JUMP JUMPDEST PUSH0 PUSH1 0x20 DUP3 ADD SWAP1 POP DUP2 DUP2 SUB PUSH0 DUP4 ADD MSTORE PUSH2 0x3CCD DUP2 PUSH2 0x3C94 JUMP JUMPDEST SWAP1 POP SWAP2 SWAP1 POP JUMP JUMPDEST PUSH0 PUSH2 0x3CDE DUP3 PUSH2 0x2F10 JUMP JUMPDEST SWAP2 POP PUSH2 0x3CE9 DUP4 PUSH2 0x2F10 JUMP JUMPDEST SWAP3 POP DUP3 PUSH2 0x3CF9 JUMPI PUSH2 0x3CF8 PUSH2 0x3AAC JUMP JUMPDEST JUMPDEST DUP3 DUP3 DIV SWAP1 POP SWAP3 SWAP2 POP POP JUMP JUMPDEST PUSH0 DUP2 MLOAD SWAP1 POP PUSH2 0x3D12 DUP2 PUSH2 0x326A JUMP JUMPDEST SWAP3 SWAP2 POP POP JUMP JUMPDEST PUSH0 PUSH1 0x20 DUP3 DUP5 SUB SLT ISZERO PUSH2 0x3D2D JUMPI PUSH2 0x3D2C PUSH2 0x2F0C JUMP JUMPDEST JUMPDEST PUSH0 PUSH2 0x3D3A DUP5 DUP3 DUP6 ADD PUSH2 0x3D04 JUMP JUMPDEST SWAP2 POP POP SWAP3 SWAP2 POP POP JUMP JUMPDEST PUSH0 PUSH4 0xFFFFFFFF DUP3 AND SWAP1 POP SWAP2 SWAP1 POP JUMP JUMPDEST PUSH0 PUSH2 0x3D5C DUP3 PUSH2 0x3D43 JUMP JUMPDEST SWAP2 POP PUSH2 0x3D67 DUP4 PUSH2 0x3D43 JUMP JUMPDEST SWAP3 POP DUP3 DUP3 SUB SWAP1 POP PUSH4 0xFFFFFFFF DUP2 GT ISZERO PUSH2 0x3D83 JUMPI PUSH2 0x3D82 PUSH2 0x35DF JUMP JUMPDEST JUMPDEST SWAP3 SWAP2 POP POP JUMP JUMPDEST PUSH0 DUP2 MLOAD SWAP1 POP SWAP2 SWAP1 POP JUMP JUMPDEST PUSH0 DUP2 SWAP1 POP SWAP3 SWAP2 POP POP JUMP JUMPDEST DUP3 DUP2 DUP4 MCOPY PUSH0 DUP4 DUP4 ADD MSTORE POP POP POP JUMP JUMPDEST PUSH0 PUSH2 0x3DB5 DUP3 PUSH2 0x3D89 JUMP JUMPDEST PUSH2 0x3DBF DUP2 DUP6 PUSH2 0x3D93 JUMP JUMPDEST SWAP4 POP PUSH2 0x3DCF DUP2 DUP6 PUSH1 0x20 DUP7 ADD PUSH2 0x3D9D JUMP JUMPDEST DUP1 DUP5 ADD SWAP2 POP POP SWAP3 SWAP2 POP POP JUMP JUMPDEST PUSH0 PUSH2 0x3DE6 DUP3 DUP5 PUSH2 0x3DAB JUMP JUMPDEST SWAP2 POP DUP2 SWAP1 POP SWAP3 SWAP2 POP POP JUMP INVALID LOG2 PUSH5 0x6970667358 0x22 SLT KECCAK256 PUSH14 0x84BD066A9C6EE713BD27915FAAC4 MULMOD 0x1F 0xD4 LOG1 0x24 PUSH32 0xF740C75BD3BD17CEBAF50E64736F6C6343000819003300000000000000000000 "
				},
				"gasEstimates": {
					"creation": {
						"codeDepositCost": "3182200",
						"executionCost": "infinite",
						"totalCost": "infinite"
					},
					"external": {
						"buyTickets(uint256,address,uint256)": "infinite",
						"claimPrize(uint256)": "infinite",
						"createRedEnvelope(uint256,uint256,uint256,uint256)": "infinite",
						"createRedEnvelopeDetail(address,uint256,uint256,uint256,uint256,address,uint256,address,uint256)": "infinite",
						"currentId()": "2491",
						"defaultAutoClaim()": "2489",
						"defaultTicketPirce()": "2515",
						"defaultTicketToken()": "2619",
						"drawPrize(uint256,uint256)": "infinite",
						"endRedEnvelope(uint256)": "infinite",
						"getTickets(uint256,address,uint256)": "infinite",
						"injectTickets(uint256,uint256)": "infinite",
						"operatorAddressList(address)": "2900",
						"owner()": "2560",
						"renounceOwnership()": "infinite",
						"setDefaultAutoClaim(bool)": "infinite",
						"setOperatorAddress(address,bool)": "infinite",
						"setTicketToken(address,uint256)": "infinite",
						"transferOwnership(address)": "infinite",
						"viewCurrentRedEnvelopeId()": "2521",
						"viewRedEnvelopeStatus(uint256)": "infinite"
					},
					"internal": {
						"_calculatePrize(uint256,uint256,uint256[] memory)": "infinite",
						"_claimPrize(uint256,address)": "infinite",
						"_createRedEnvelope(address,uint256,uint256,uint256,uint256,address,uint256,address,uint256)": "infinite",
						"_deriveRandom(uint256,uint256)": "infinite",
						"_fillTicket(uint256,address,uint256,bool)": "infinite",
						"_getSortRandoms(uint256,uint256,uint256)": "infinite",
						"_getTicketbyIndex(uint256,uint256)": "infinite",
						"_injectTickets(uint256,address,uint256)": "infinite",
						"_leftRotate(uint256,uint32)": "infinite",
						"_returnInject(uint256)": "infinite"
					}
				},
				"methodIdentifiers": {
					"buyTickets(uint256,address,uint256)": "c5e7bb33",
					"claimPrize(uint256)": "d7098154",
					"createRedEnvelope(uint256,uint256,uint256,uint256)": "0e9e1262",
					"createRedEnvelopeDetail(address,uint256,uint256,uint256,uint256,address,uint256,address,uint256)": "b4d97419",
					"currentId()": "e00dd161",
					"defaultAutoClaim()": "a210d5e0",
					"defaultTicketPirce()": "4bfec3aa",
					"defaultTicketToken()": "959acdaf",
					"drawPrize(uint256,uint256)": "bce3468d",
					"endRedEnvelope(uint256)": "3834efe1",
					"getTickets(uint256,address,uint256)": "3ddb7f19",
					"injectTickets(uint256,uint256)": "559f24bc",
					"operatorAddressList(address)": "bc6bce91",
					"owner()": "8da5cb5b",
					"renounceOwnership()": "715018a6",
					"setDefaultAutoClaim(bool)": "f41188ed",
					"setOperatorAddress(address,bool)": "d9828174",
					"setTicketToken(address,uint256)": "903606c5",
					"transferOwnership(address)": "f2fde38b",
					"viewCurrentRedEnvelopeId()": "94456fa4",
					"viewRedEnvelopeStatus(uint256)": "fe5c5976"
				}
			},
			"storageLayout": {
				"storage": [
					{
						"astId": 845,
						"contract": "contracts/LuckyRedEnvelopeV2.sol:LuckyRedEnvelopeV2",
						"label": "_status",
						"offset": 0,
						"slot": "0",
						"type": "t_uint256"
					},
					{
						"astId": 8,
						"contract": "contracts/LuckyRedEnvelopeV2.sol:LuckyRedEnvelopeV2",
						"label": "_owner",
						"offset": 0,
						"slot": "1",
						"type": "t_address"
					},
					{
						"astId": 922,
						"contract": "contracts/LuckyRedEnvelopeV2.sol:LuckyRedEnvelopeV2",
						"label": "defaultTicketToken",
						"offset": 0,
						"slot": "2",
						"type": "t_address"
					},
					{
						"astId": 924,
						"contract": "contracts/LuckyRedEnvelopeV2.sol:LuckyRedEnvelopeV2",
						"label": "currentId",
						"offset": 0,
						"slot": "3",
						"type": "t_uint256"
					},
					{
						"astId": 926,
						"contract": "contracts/LuckyRedEnvelopeV2.sol:LuckyRedEnvelopeV2",
						"label": "defaultTicketPirce",
						"offset": 0,
						"slot": "4",
						"type": "t_uint256"
					},
					{
						"astId": 928,
						"contract": "contracts/LuckyRedEnvelopeV2.sol:LuckyRedEnvelopeV2",
						"label": "defaultAutoClaim",
						"offset": 0,
						"slot": "5",
						"type": "t_bool"
					},
					{
						"astId": 932,
						"contract": "contracts/LuckyRedEnvelopeV2.sol:LuckyRedEnvelopeV2",
						"label": "operatorAddressList",
						"offset": 0,
						"slot": "6",
						"type": "t_mapping(t_address,t_bool)"
					},
					{
						"astId": 983,
						"contract": "contracts/LuckyRedEnvelopeV2.sol:LuckyRedEnvelopeV2",
						"label": "_redEnvelopes",
						"offset": 0,
						"slot": "7",
						"type": "t_mapping(t_uint256,t_struct(RedEnvelope)971_storage)"
					},
					{
						"astId": 990,
						"contract": "contracts/LuckyRedEnvelopeV2.sol:LuckyRedEnvelopeV2",
						"label": "_tickets",
						"offset": 0,
						"slot": "8",
						"type": "t_mapping(t_uint256,t_mapping(t_uint256,t_struct(Ticket)978_storage))"
					},
					{
						"astId": 996,
						"contract": "contracts/LuckyRedEnvelopeV2.sol:LuckyRedEnvelopeV2",
						"label": "_prizedticketIndex",
						"offset": 0,
						"slot": "9",
						"type": "t_mapping(t_uint256,t_mapping(t_uint256,t_bool))"
					},
					{
						"astId": 1002,
						"contract": "contracts/LuckyRedEnvelopeV2.sol:LuckyRedEnvelopeV2",
						"label": "_userAddrTicketNum",
						"offset": 0,
						"slot": "10",
						"type": "t_mapping(t_uint256,t_mapping(t_address,t_uint256))"
					},
					{
						"astId": 1008,
						"contract": "contracts/LuckyRedEnvelopeV2.sol:LuckyRedEnvelopeV2",
						"label": "_userAddrIndex",
						"offset": 0,
						"slot": "11",
						"type": "t_mapping(t_uint256,t_mapping(t_uint256,t_address))"
					},
					{
						"astId": 1014,
						"contract": "contracts/LuckyRedEnvelopeV2.sol:LuckyRedEnvelopeV2",
						"label": "_amount2claimed",
						"offset": 0,
						"slot": "12",
						"type": "t_mapping(t_uint256,t_mapping(t_address,t_uint256))"
					},
					{
						"astId": 1020,
						"contract": "contracts/LuckyRedEnvelopeV2.sol:LuckyRedEnvelopeV2",
						"label": "_injectAddrIndex",
						"offset": 0,
						"slot": "13",
						"type": "t_mapping(t_uint256,t_mapping(t_uint256,t_address))"
					},
					{
						"astId": 1026,
						"contract": "contracts/LuckyRedEnvelopeV2.sol:LuckyRedEnvelopeV2",
						"label": "_injectTicketMap",
						"offset": 0,
						"slot": "14",
						"type": "t_mapping(t_uint256,t_mapping(t_address,t_uint256))"
					}
				],
				"types": {
					"t_address": {
						"encoding": "inplace",
						"label": "address",
						"numberOfBytes": "20"
					},
					"t_bool": {
						"encoding": "inplace",
						"label": "bool",
						"numberOfBytes": "1"
					},
					"t_enum(Status)937": {
						"encoding": "inplace",
						"label": "enum LuckyRedEnvelopeV2.Status",
						"numberOfBytes": "1"
					},
					"t_mapping(t_address,t_bool)": {
						"encoding": "mapping",
						"key": "t_address",
						"label": "mapping(address => bool)",
						"numberOfBytes": "32",
						"value": "t_bool"
					},
					"t_mapping(t_address,t_uint256)": {
						"encoding": "mapping",
						"key": "t_address",
						"label": "mapping(address => uint256)",
						"numberOfBytes": "32",
						"value": "t_uint256"
					},
					"t_mapping(t_uint256,t_address)": {
						"encoding": "mapping",
						"key": "t_uint256",
						"label": "mapping(uint256 => address)",
						"numberOfBytes": "32",
						"value": "t_address"
					},
					"t_mapping(t_uint256,t_bool)": {
						"encoding": "mapping",
						"key": "t_uint256",
						"label": "mapping(uint256 => bool)",
						"numberOfBytes": "32",
						"value": "t_bool"
					},
					"t_mapping(t_uint256,t_mapping(t_address,t_uint256))": {
						"encoding": "mapping",
						"key": "t_uint256",
						"label": "mapping(uint256 => mapping(address => uint256))",
						"numberOfBytes": "32",
						"value": "t_mapping(t_address,t_uint256)"
					},
					"t_mapping(t_uint256,t_mapping(t_uint256,t_address))": {
						"encoding": "mapping",
						"key": "t_uint256",
						"label": "mapping(uint256 => mapping(uint256 => address))",
						"numberOfBytes": "32",
						"value": "t_mapping(t_uint256,t_address)"
					},
					"t_mapping(t_uint256,t_mapping(t_uint256,t_bool))": {
						"encoding": "mapping",
						"key": "t_uint256",
						"label": "mapping(uint256 => mapping(uint256 => bool))",
						"numberOfBytes": "32",
						"value": "t_mapping(t_uint256,t_bool)"
					},
					"t_mapping(t_uint256,t_mapping(t_uint256,t_struct(Ticket)978_storage))": {
						"encoding": "mapping",
						"key": "t_uint256",
						"label": "mapping(uint256 => mapping(uint256 => struct LuckyRedEnvelopeV2.Ticket))",
						"numberOfBytes": "32",
						"value": "t_mapping(t_uint256,t_struct(Ticket)978_storage)"
					},
					"t_mapping(t_uint256,t_struct(RedEnvelope)971_storage)": {
						"encoding": "mapping",
						"key": "t_uint256",
						"label": "mapping(uint256 => struct LuckyRedEnvelopeV2.RedEnvelope)",
						"numberOfBytes": "32",
						"value": "t_struct(RedEnvelope)971_storage"
					},
					"t_mapping(t_uint256,t_struct(Ticket)978_storage)": {
						"encoding": "mapping",
						"key": "t_uint256",
						"label": "mapping(uint256 => struct LuckyRedEnvelopeV2.Ticket)",
						"numberOfBytes": "32",
						"value": "t_struct(Ticket)978_storage"
					},
					"t_struct(RedEnvelope)971_storage": {
						"encoding": "inplace",
						"label": "struct LuckyRedEnvelopeV2.RedEnvelope",
						"members": [
							{
								"astId": 939,
								"contract": "contracts/LuckyRedEnvelopeV2.sol:LuckyRedEnvelopeV2",
								"label": "ticketToken",
								"offset": 0,
								"slot": "0",
								"type": "t_address"
							},
							{
								"astId": 942,
								"contract": "contracts/LuckyRedEnvelopeV2.sol:LuckyRedEnvelopeV2",
								"label": "status",
								"offset": 20,
								"slot": "0",
								"type": "t_enum(Status)937"
							},
							{
								"astId": 944,
								"contract": "contracts/LuckyRedEnvelopeV2.sol:LuckyRedEnvelopeV2",
								"label": "startTime",
								"offset": 0,
								"slot": "1",
								"type": "t_uint256"
							},
							{
								"astId": 946,
								"contract": "contracts/LuckyRedEnvelopeV2.sol:LuckyRedEnvelopeV2",
								"label": "endTime",
								"offset": 0,
								"slot": "2",
								"type": "t_uint256"
							},
							{
								"astId": 948,
								"contract": "contracts/LuckyRedEnvelopeV2.sol:LuckyRedEnvelopeV2",
								"label": "maxTickets",
								"offset": 0,
								"slot": "3",
								"type": "t_uint256"
							},
							{
								"astId": 950,
								"contract": "contracts/LuckyRedEnvelopeV2.sol:LuckyRedEnvelopeV2",
								"label": "maxPrizeNum",
								"offset": 0,
								"slot": "4",
								"type": "t_uint256"
							},
							{
								"astId": 952,
								"contract": "contracts/LuckyRedEnvelopeV2.sol:LuckyRedEnvelopeV2",
								"label": "buyTickets",
								"offset": 0,
								"slot": "5",
								"type": "t_uint256"
							},
							{
								"astId": 954,
								"contract": "contracts/LuckyRedEnvelopeV2.sol:LuckyRedEnvelopeV2",
								"label": "getTickets",
								"offset": 0,
								"slot": "6",
								"type": "t_uint256"
							},
							{
								"astId": 956,
								"contract": "contracts/LuckyRedEnvelopeV2.sol:LuckyRedEnvelopeV2",
								"label": "injectTickets",
								"offset": 0,
								"slot": "7",
								"type": "t_uint256"
							},
							{
								"astId": 958,
								"contract": "contracts/LuckyRedEnvelopeV2.sol:LuckyRedEnvelopeV2",
								"label": "userAddrNum",
								"offset": 0,
								"slot": "8",
								"type": "t_uint256"
							},
							{
								"astId": 960,
								"contract": "contracts/LuckyRedEnvelopeV2.sol:LuckyRedEnvelopeV2",
								"label": "userTxNum",
								"offset": 0,
								"slot": "9",
								"type": "t_uint256"
							},
							{
								"astId": 962,
								"contract": "contracts/LuckyRedEnvelopeV2.sol:LuckyRedEnvelopeV2",
								"label": "injectAddrNum",
								"offset": 0,
								"slot": "10",
								"type": "t_uint256"
							},
							{
								"astId": 964,
								"contract": "contracts/LuckyRedEnvelopeV2.sol:LuckyRedEnvelopeV2",
								"label": "ticketPirce",
								"offset": 0,
								"slot": "11",
								"type": "t_uint256"
							},
							{
								"astId": 966,
								"contract": "contracts/LuckyRedEnvelopeV2.sol:LuckyRedEnvelopeV2",
								"label": "getTicketAddr",
								"offset": 0,
								"slot": "12",
								"type": "t_address"
							},
							{
								"astId": 968,
								"contract": "contracts/LuckyRedEnvelopeV2.sol:LuckyRedEnvelopeV2",
								"label": "secret",
								"offset": 0,
								"slot": "13",
								"type": "t_uint256"
							},
							{
								"astId": 970,
								"contract": "contracts/LuckyRedEnvelopeV2.sol:LuckyRedEnvelopeV2",
								"label": "autoClaim",
								"offset": 0,
								"slot": "14",
								"type": "t_bool"
							}
						],
						"numberOfBytes": "480"
					},
					"t_struct(Ticket)978_storage": {
						"encoding": "inplace",
						"label": "struct LuckyRedEnvelopeV2.Ticket",
						"members": [
							{
								"astId": 973,
								"contract": "contracts/LuckyRedEnvelopeV2.sol:LuckyRedEnvelopeV2",
								"label": "totalNumbers",
								"offset": 0,
								"slot": "0",
								"type": "t_uint256"
							},
							{
								"astId": 975,
								"contract": "contracts/LuckyRedEnvelopeV2.sol:LuckyRedEnvelopeV2",
								"label": "receiveAddress",
								"offset": 0,
								"slot": "1",
								"type": "t_address"
							},
							{
								"astId": 977,
								"contract": "contracts/LuckyRedEnvelopeV2.sol:LuckyRedEnvelopeV2",
								"label": "buy",
								"offset": 20,
								"slot": "1",
								"type": "t_bool"
							}
						],
						"numberOfBytes": "64"
					},
					"t_uint256": {
						"encoding": "inplace",
						"label": "uint256",
						"numberOfBytes": "32"
					}
				}
			},
			"userdoc": {
				"kind": "user",
				"methods": {
					"createRedEnvelope(uint256,uint256,uint256,uint256)": {
						"notice": "create the RedEnvelope"
					},
					"createRedEnvelopeDetail(address,uint256,uint256,uint256,uint256,address,uint256,address,uint256)": {
						"notice": "create the RedEnvelope"
					}
				},
				"version": 1
			}
		}
	}
}