{
	"contracts/LuckyRedEnvelopeV2.sol": {
		"LuckyRedEnvelopeV2": {
			"abi": [
				{
					"inputs": [
						{
							"internalType": "address",
							"name": "_operatorAddress",
							"type": "address"
						},
						{
							"internalType": "address",
							"name": "_defaultTicketToken",
							"type": "address"
						},
						{
							"internalType": "uint256",
							"name": "_defaultTicketPirce",
							"type": "uint256"
						}
					],
					"stateMutability": "nonpayable",
					"type": "constructor"
				},
				{
					"inputs": [
						{
							"internalType": "address",
							"name": "target",
							"type": "address"
						}
					],
					"name": "AddressEmptyCode",
					"type": "error"
				},
				{
					"inputs": [
						{
							"internalType": "address",
							"name": "account",
							"type": "address"
						}
					],
					"name": "AddressInsufficientBalance",
					"type": "error"
				},
				{
					"inputs": [],
					"name": "FailedInnerCall",
					"type": "error"
				},
				{
					"inputs": [
						{
							"internalType": "address",
							"name": "owner",
							"type": "address"
						}
					],
					"name": "OwnableInvalidOwner",
					"type": "error"
				},
				{
					"inputs": [
						{
							"internalType": "address",
							"name": "account",
							"type": "address"
						}
					],
					"name": "OwnableUnauthorizedAccount",
					"type": "error"
				},
				{
					"inputs": [],
					"name": "ReentrancyGuardReentrantCall",
					"type": "error"
				},
				{
					"inputs": [
						{
							"internalType": "address",
							"name": "token",
							"type": "address"
						}
					],
					"name": "SafeERC20FailedOperation",
					"type": "error"
				},
				{
					"anonymous": false,
					"inputs": [
						{
							"indexed": true,
							"internalType": "uint256",
							"name": "id",
							"type": "uint256"
						},
						{
							"indexed": true,
							"internalType": "address",
							"name": "winner",
							"type": "address"
						},
						{
							"indexed": false,
							"internalType": "uint256",
							"name": "totalAmount",
							"type": "uint256"
						},
						{
							"indexed": false,
							"internalType": "bool",
							"name": "autoClaim",
							"type": "bool"
						}
					],
					"name": "ClaimPrize",
					"type": "event"
				},
				{
					"anonymous": false,
					"inputs": [
						{
							"indexed": false,
							"internalType": "bool",
							"name": "defaultAutoClaim",
							"type": "bool"
						}
					],
					"name": "DefaultAutoClaimChange",
					"type": "event"
				},
				{
					"anonymous": false,
					"inputs": [
						{
							"indexed": false,
							"internalType": "address",
							"name": "defaultTicketToken",
							"type": "address"
						},
						{
							"indexed": false,
							"internalType": "uint256",
							"name": "defaultTicketPirce",
							"type": "uint256"
						}
					],
					"name": "DefaultTokenChange",
					"type": "event"
				},
				{
					"anonymous": false,
					"inputs": [
						{
							"indexed": false,
							"internalType": "address",
							"name": "operatorAddress",
							"type": "address"
						},
						{
							"indexed": false,
							"internalType": "bool",
							"name": "opt",
							"type": "bool"
						}
					],
					"name": "OperatorAddress",
					"type": "event"
				},
				{
					"anonymous": false,
					"inputs": [
						{
							"indexed": true,
							"internalType": "address",
							"name": "previousOwner",
							"type": "address"
						},
						{
							"indexed": true,
							"internalType": "address",
							"name": "newOwner",
							"type": "address"
						}
					],
					"name": "OwnershipTransferred",
					"type": "event"
				},
				{
					"anonymous": false,
					"inputs": [
						{
							"indexed": true,
							"internalType": "uint256",
							"name": "id",
							"type": "uint256"
						},
						{
							"indexed": true,
							"internalType": "address",
							"name": "winner",
							"type": "address"
						},
						{
							"indexed": true,
							"internalType": "uint256",
							"name": "index",
							"type": "uint256"
						},
						{
							"indexed": false,
							"internalType": "uint256",
							"name": "amount",
							"type": "uint256"
						},
						{
							"indexed": false,
							"internalType": "bool",
							"name": "autoClaim",
							"type": "bool"
						}
					],
					"name": "PrizeDrawn",
					"type": "event"
				},
				{
					"anonymous": false,
					"inputs": [
						{
							"indexed": true,
							"internalType": "uint256",
							"name": "id",
							"type": "uint256"
						},
						{
							"indexed": false,
							"internalType": "uint256",
							"name": "endTime",
							"type": "uint256"
						}
					],
					"name": "RedEnvelopeClaimable",
					"type": "event"
				},
				{
					"anonymous": false,
					"inputs": [
						{
							"indexed": true,
							"internalType": "uint256",
							"name": "id",
							"type": "uint256"
						},
						{
							"indexed": false,
							"internalType": "uint256",
							"name": "endTime",
							"type": "uint256"
						},
						{
							"indexed": false,
							"internalType": "uint256",
							"name": "buyTickets",
							"type": "uint256"
						},
						{
							"indexed": false,
							"internalType": "uint256",
							"name": "sendTickets",
							"type": "uint256"
						},
						{
							"indexed": false,
							"internalType": "uint256",
							"name": "injectTickets",
							"type": "uint256"
						}
					],
					"name": "RedEnvelopeClosed",
					"type": "event"
				},
				{
					"anonymous": false,
					"inputs": [
						{
							"indexed": true,
							"internalType": "uint256",
							"name": "id",
							"type": "uint256"
						},
						{
							"indexed": false,
							"internalType": "uint256",
							"name": "endTime",
							"type": "uint256"
						},
						{
							"indexed": false,
							"internalType": "uint256",
							"name": "maxTickets",
							"type": "uint256"
						},
						{
							"indexed": false,
							"internalType": "uint256",
							"name": "maxPrizeNum",
							"type": "uint256"
						},
						{
							"indexed": false,
							"internalType": "uint256",
							"name": "ticketPirce",
							"type": "uint256"
						},
						{
							"indexed": false,
							"internalType": "address",
							"name": "ticketToken",
							"type": "address"
						},
						{
							"indexed": false,
							"internalType": "address",
							"name": "sendAllowAddr",
							"type": "address"
						},
						{
							"indexed": false,
							"internalType": "bool",
							"name": "autoClaim",
							"type": "bool"
						}
					],
					"name": "RedEnvelopeCreated",
					"type": "event"
				},
				{
					"anonymous": false,
					"inputs": [
						{
							"indexed": true,
							"internalType": "uint256",
							"name": "id",
							"type": "uint256"
						},
						{
							"indexed": true,
							"internalType": "address",
							"name": "sender",
							"type": "address"
						},
						{
							"indexed": true,
							"internalType": "address",
							"name": "receiveAddress",
							"type": "address"
						},
						{
							"indexed": false,
							"internalType": "uint256",
							"name": "ticketIndex",
							"type": "uint256"
						},
						{
							"indexed": false,
							"internalType": "uint256",
							"name": "ticketNumbers",
							"type": "uint256"
						}
					],
					"name": "TicketsGet",
					"type": "event"
				},
				{
					"anonymous": false,
					"inputs": [
						{
							"indexed": true,
							"internalType": "uint256",
							"name": "id",
							"type": "uint256"
						},
						{
							"indexed": true,
							"internalType": "address",
							"name": "sender",
							"type": "address"
						},
						{
							"indexed": false,
							"internalType": "uint256",
							"name": "ticketNumbers",
							"type": "uint256"
						}
					],
					"name": "TicketsInject",
					"type": "event"
				},
				{
					"anonymous": false,
					"inputs": [
						{
							"indexed": true,
							"internalType": "uint256",
							"name": "id",
							"type": "uint256"
						},
						{
							"indexed": true,
							"internalType": "address",
							"name": "sender",
							"type": "address"
						},
						{
							"indexed": true,
							"internalType": "address",
							"name": "receiveAddress",
							"type": "address"
						},
						{
							"indexed": false,
							"internalType": "uint256",
							"name": "ticketIndex",
							"type": "uint256"
						},
						{
							"indexed": false,
							"internalType": "uint256",
							"name": "ticketNumbers",
							"type": "uint256"
						}
					],
					"name": "TicketsPurchase",
					"type": "event"
				},
				{
					"inputs": [
						{
							"internalType": "uint256",
							"name": "_id",
							"type": "uint256"
						},
						{
							"internalType": "address",
							"name": "_receiveAddress",
							"type": "address"
						},
						{
							"internalType": "uint256",
							"name": "_ticketNumbers",
							"type": "uint256"
						}
					],
					"name": "buyTickets",
					"outputs": [],
					"stateMutability": "nonpayable",
					"type": "function"
				},
				{
					"inputs": [
						{
							"internalType": "uint256",
							"name": "_id",
							"type": "uint256"
						}
					],
					"name": "claimPrize",
					"outputs": [],
					"stateMutability": "nonpayable",
					"type": "function"
				},
				{
					"inputs": [
						{
							"internalType": "uint256",
							"name": "_endTime",
							"type": "uint256"
						},
						{
							"internalType": "uint256",
							"name": "_maxTickets",
							"type": "uint256"
						},
						{
							"internalType": "uint256",
							"name": "_maxPrizeNum",
							"type": "uint256"
						},
						{
							"internalType": "uint256",
							"name": "_secret",
							"type": "uint256"
						}
					],
					"name": "createRedEnvelope",
					"outputs": [],
					"stateMutability": "nonpayable",
					"type": "function"
				},
				{
					"inputs": [
						{
							"internalType": "address",
							"name": "_tokenAddress",
							"type": "address"
						},
						{
							"internalType": "uint256",
							"name": "_ticketPirce",
							"type": "uint256"
						},
						{
							"internalType": "uint256",
							"name": "_endTime",
							"type": "uint256"
						},
						{
							"internalType": "uint256",
							"name": "_maxTickets",
							"type": "uint256"
						},
						{
							"internalType": "uint256",
							"name": "_maxPrizeNum",
							"type": "uint256"
						},
						{
							"internalType": "address",
							"name": "_injectAddress",
							"type": "address"
						},
						{
							"internalType": "uint256",
							"name": "_injectTicketNum",
							"type": "uint256"
						},
						{
							"internalType": "address",
							"name": "_sendAllowAddr",
							"type": "address"
						},
						{
							"internalType": "uint256",
							"name": "_secret",
							"type": "uint256"
						},
						{
							"internalType": "bool",
							"name": "_autoClaim",
							"type": "bool"
						}
					],
					"name": "createRedEnvelopeDetail",
					"outputs": [],
					"stateMutability": "nonpayable",
					"type": "function"
				},
				{
					"inputs": [],
					"name": "currentId",
					"outputs": [
						{
							"internalType": "uint256",
							"name": "",
							"type": "uint256"
						}
					],
					"stateMutability": "view",
					"type": "function"
				},
				{
					"inputs": [],
					"name": "defaultAutoClaim",
					"outputs": [
						{
							"internalType": "bool",
							"name": "",
							"type": "bool"
						}
					],
					"stateMutability": "view",
					"type": "function"
				},
				{
					"inputs": [],
					"name": "defaultTicketPirce",
					"outputs": [
						{
							"internalType": "uint256",
							"name": "",
							"type": "uint256"
						}
					],
					"stateMutability": "view",
					"type": "function"
				},
				{
					"inputs": [],
					"name": "defaultTicketToken",
					"outputs": [
						{
							"internalType": "address",
							"name": "",
							"type": "address"
						}
					],
					"stateMutability": "view",
					"type": "function"
				},
				{
					"inputs": [
						{
							"internalType": "uint256",
							"name": "_id",
							"type": "uint256"
						},
						{
							"internalType": "uint256",
							"name": "_nonce",
							"type": "uint256"
						}
					],
					"name": "drawPrize",
					"outputs": [],
					"stateMutability": "nonpayable",
					"type": "function"
				},
				{
					"inputs": [
						{
							"internalType": "uint256",
							"name": "_id",
							"type": "uint256"
						}
					],
					"name": "endRedEnvelope",
					"outputs": [],
					"stateMutability": "nonpayable",
					"type": "function"
				},
				{
					"inputs": [
						{
							"internalType": "uint256",
							"name": "_id",
							"type": "uint256"
						},
						{
							"internalType": "uint256",
							"name": "_ticketNumbers",
							"type": "uint256"
						}
					],
					"name": "injectTickets",
					"outputs": [],
					"stateMutability": "nonpayable",
					"type": "function"
				},
				{
					"inputs": [
						{
							"internalType": "address",
							"name": "",
							"type": "address"
						}
					],
					"name": "operatorAddressList",
					"outputs": [
						{
							"internalType": "bool",
							"name": "",
							"type": "bool"
						}
					],
					"stateMutability": "view",
					"type": "function"
				},
				{
					"inputs": [],
					"name": "owner",
					"outputs": [
						{
							"internalType": "address",
							"name": "",
							"type": "address"
						}
					],
					"stateMutability": "view",
					"type": "function"
				},
				{
					"inputs": [],
					"name": "renounceOwnership",
					"outputs": [],
					"stateMutability": "nonpayable",
					"type": "function"
				},
				{
					"inputs": [
						{
							"internalType": "uint256",
							"name": "_id",
							"type": "uint256"
						},
						{
							"internalType": "address",
							"name": "_receiveAddress",
							"type": "address"
						},
						{
							"internalType": "uint256",
							"name": "_ticketNumbers",
							"type": "uint256"
						}
					],
					"name": "sendTickets",
					"outputs": [],
					"stateMutability": "nonpayable",
					"type": "function"
				},
				{
					"inputs": [
						{
							"internalType": "bool",
							"name": "_defaultAutoClaim",
							"type": "bool"
						}
					],
					"name": "setDefaultAutoClaim",
					"outputs": [],
					"stateMutability": "nonpayable",
					"type": "function"
				},
				{
					"inputs": [
						{
							"internalType": "address",
							"name": "_operatorAddress",
							"type": "address"
						},
						{
							"internalType": "bool",
							"name": "_opt",
							"type": "bool"
						}
					],
					"name": "setOperatorAddress",
					"outputs": [],
					"stateMutability": "nonpayable",
					"type": "function"
				},
				{
					"inputs": [
						{
							"internalType": "address",
							"name": "_defaultTicketToken",
							"type": "address"
						},
						{
							"internalType": "uint256",
							"name": "_defaultTicketPirce",
							"type": "uint256"
						}
					],
					"name": "setTicketToken",
					"outputs": [],
					"stateMutability": "nonpayable",
					"type": "function"
				},
				{
					"inputs": [
						{
							"internalType": "address",
							"name": "newOwner",
							"type": "address"
						}
					],
					"name": "transferOwnership",
					"outputs": [],
					"stateMutability": "nonpayable",
					"type": "function"
				},
				{
					"inputs": [],
					"name": "viewCurrentRedEnvelopeId",
					"outputs": [
						{
							"internalType": "uint256",
							"name": "",
							"type": "uint256"
						}
					],
					"stateMutability": "view",
					"type": "function"
				},
				{
					"inputs": [
						{
							"internalType": "uint256",
							"name": "_id",
							"type": "uint256"
						}
					],
					"name": "viewRedEnvelope",
					"outputs": [
						{
							"components": [
								{
									"internalType": "address",
									"name": "ticketToken",
									"type": "address"
								},
								{
									"internalType": "enum Status",
									"name": "status",
									"type": "uint8"
								},
								{
									"internalType": "uint256",
									"name": "endTime",
									"type": "uint256"
								},
								{
									"internalType": "uint256",
									"name": "maxTickets",
									"type": "uint256"
								},
								{
									"internalType": "uint256",
									"name": "maxPrizeNum",
									"type": "uint256"
								},
								{
									"internalType": "uint256",
									"name": "buyTickets",
									"type": "uint256"
								},
								{
									"internalType": "uint256",
									"name": "sendTickets",
									"type": "uint256"
								},
								{
									"internalType": "uint256",
									"name": "injectTickets",
									"type": "uint256"
								},
								{
									"internalType": "uint256",
									"name": "userAddrNum",
									"type": "uint256"
								},
								{
									"internalType": "uint256",
									"name": "userTxNum",
									"type": "uint256"
								},
								{
									"internalType": "uint256",
									"name": "injectAddrNum",
									"type": "uint256"
								},
								{
									"internalType": "uint256",
									"name": "ticketPirce",
									"type": "uint256"
								},
								{
									"internalType": "address",
									"name": "sendAllowAddr",
									"type": "address"
								},
								{
									"internalType": "uint256",
									"name": "secret",
									"type": "uint256"
								},
								{
									"internalType": "bool",
									"name": "autoClaim",
									"type": "bool"
								}
							],
							"internalType": "struct RedEnvelope",
							"name": "",
							"type": "tuple"
						}
					],
					"stateMutability": "view",
					"type": "function"
				},
				{
					"inputs": [
						{
							"internalType": "uint256",
							"name": "_id",
							"type": "uint256"
						},
						{
							"internalType": "address",
							"name": "_user",
							"type": "address"
						}
					],
					"name": "viewRedEnvelopeClaimPrize",
					"outputs": [
						{
							"internalType": "uint256",
							"name": "",
							"type": "uint256"
						}
					],
					"stateMutability": "view",
					"type": "function"
				},
				{
					"inputs": [
						{
							"internalType": "uint256",
							"name": "_id",
							"type": "uint256"
						}
					],
					"name": "viewRedEnvelopeStatus",
					"outputs": [
						{
							"internalType": "uint256",
							"name": "",
							"type": "uint256"
						}
					],
					"stateMutability": "view",
					"type": "function"
				}
			],
			"devdoc": {
				"errors": {
					"AddressEmptyCode(address)": [
						{
							"details": "There's no code at `target` (it is not a contract)."
						}
					],
					"AddressInsufficientBalance(address)": [
						{
							"details": "The ETH balance of the account is not enough to perform the operation."
						}
					],
					"FailedInnerCall()": [
						{
							"details": "A call to an address target failed. The target may have reverted."
						}
					],
					"OwnableInvalidOwner(address)": [
						{
							"details": "The owner is not a valid owner account. (eg. `address(0)`)"
						}
					],
					"OwnableUnauthorizedAccount(address)": [
						{
							"details": "The caller account is not authorized to perform an operation."
						}
					],
					"ReentrancyGuardReentrantCall()": [
						{
							"details": "Unauthorized reentrant call."
						}
					],
					"SafeERC20FailedOperation(address)": [
						{
							"details": "An operation with an ERC20 token failed."
						}
					]
				},
				"kind": "dev",
				"methods": {
					"createRedEnvelope(uint256,uint256,uint256,uint256)": {
						"details": "Callable by operator",
						"params": {
							"_endTime": ": endTime of the RedEnvelope，0 = no limit",
							"_maxPrizeNum": ": prize num of the RedEnvelope，0为100%中奖",
							"_maxTickets": ": max ticket of the RedEnvelope，0 = no limit",
							"_secret": ": "
						}
					},
					"createRedEnvelopeDetail(address,uint256,uint256,uint256,uint256,address,uint256,address,uint256,bool)": {
						"details": "Callable by operator",
						"params": {
							"_endTime": ": endTime of the RedEnvelope",
							"_maxTickets": ": max ticket of the RedEnvelope",
							"_secret": ": "
						}
					},
					"owner()": {
						"details": "Returns the address of the current owner."
					},
					"renounceOwnership()": {
						"details": "Leaves the contract without owner. It will not be possible to call `onlyOwner` functions. Can only be called by the current owner. NOTE: Renouncing ownership will leave the contract without an owner, thereby disabling any functionality that is only available to the owner."
					},
					"transferOwnership(address)": {
						"details": "Transfers ownership of the contract to a new account (`newOwner`). Can only be called by the current owner."
					}
				},
				"version": 1
			},
			"evm": {
				"assembly": "    /* \"contracts/LuckyRedEnvelopeV2.sol\":382:19173  contract LuckyRedEnvelopeV2 is IRedEnvelope,ReentrancyGuard, Ownable{... */\n  mstore(0x40, 0x80)\n    /* \"contracts/LuckyRedEnvelopeV2.sol\":1859:2362  constructor(address _operatorAddress,address _defaultTicketToken,uint256 _defaultTicketPirce)Ownable(address(msg.sender)){... */\n  callvalue\n  dup1\n  iszero\n  tag_1\n  jumpi\n  0x00\n  dup1\n  revert\ntag_1:\n  pop\n  mload(0x40)\n  sub(codesize, bytecodeSize)\n  dup1\n  bytecodeSize\n  dup4\n  codecopy\n  dup2\n  add\n  0x40\n  dup2\n  swap1\n  mstore\n  tag_2\n  swap2\n  tag_3\n  jump\t// in\ntag_2:\n    /* \"@openzeppelin/contracts/utils/ReentrancyGuard.sol\":1713:1714  1 */\n  0x01\n    /* \"@openzeppelin/contracts/utils/ReentrancyGuard.sol\":1917:1924  _status */\n  0x00\n    /* \"@openzeppelin/contracts/utils/ReentrancyGuard.sol\":1917:1938  _status = NOT_ENTERED */\n  sstore\n    /* \"contracts/LuckyRedEnvelopeV2.sol\":1968:1978  msg.sender */\n  caller\n  dup1\n    /* \"@openzeppelin/contracts/access/Ownable.sol\":1269:1364  if (initialOwner == address(0)) {... */\n  tag_9\n  jumpi\n    /* \"@openzeppelin/contracts/access/Ownable.sol\":1322:1353  OwnableInvalidOwner(address(0)) */\n  mload(0x40)\n  shl(0xe0, 0x1e4fbdf7)\n  dup2\n  mstore\n    /* \"@openzeppelin/contracts/access/Ownable.sol\":1350:1351  0 */\n  0x00\n    /* \"@openzeppelin/contracts/access/Ownable.sol\":1322:1353  OwnableInvalidOwner(address(0)) */\n  0x04\n  dup3\n  add\n    /* \"#utility.yul\":701:752   */\n  mstore\n    /* \"#utility.yul\":674:692   */\n  0x24\n  add\n    /* \"@openzeppelin/contracts/access/Ownable.sol\":1322:1353  OwnableInvalidOwner(address(0)) */\n  mload(0x40)\n  dup1\n  swap2\n  sub\n  swap1\n  revert\n    /* \"@openzeppelin/contracts/access/Ownable.sol\":1269:1364  if (initialOwner == address(0)) {... */\ntag_9:\n    /* \"@openzeppelin/contracts/access/Ownable.sol\":1373:1405  _transferOwnership(initialOwner) */\n  tag_12\n    /* \"@openzeppelin/contracts/access/Ownable.sol\":1392:1404  initialOwner */\n  dup2\n    /* \"@openzeppelin/contracts/access/Ownable.sol\":1373:1391  _transferOwnership */\n  tag_13\n    /* \"@openzeppelin/contracts/access/Ownable.sol\":1373:1405  _transferOwnership(initialOwner) */\n  jump\t// in\ntag_12:\n  pop\n  sub(shl(0xa0, 0x01), 0x01)\n    /* \"contracts/LuckyRedEnvelopeV2.sol\":1991:2028  operatorAddressList[_operatorAddress] */\n  dup4\n  dup2\n  and\n  0x00\n  dup2\n  dup2\n  mstore\n    /* \"contracts/LuckyRedEnvelopeV2.sol\":1991:2010  operatorAddressList */\n  0x06\n    /* \"contracts/LuckyRedEnvelopeV2.sol\":1991:2028  operatorAddressList[_operatorAddress] */\n  0x20\n  swap1\n  dup2\n  mstore\n  0x40\n  swap2\n  dup3\n  swap1\n  keccak256\n    /* \"contracts/LuckyRedEnvelopeV2.sol\":1991:2035  operatorAddressList[_operatorAddress] = true */\n  dup1\n  sload\n    /* \"contracts/LuckyRedEnvelopeV2.sol\":2031:2035  true */\n  0x01\n  not(0xff)\n    /* \"contracts/LuckyRedEnvelopeV2.sol\":1991:2035  operatorAddressList[_operatorAddress] = true */\n  swap2\n  dup3\n  and\n  dup2\n  or\n  swap1\n  swap3\n  sstore\n    /* \"contracts/LuckyRedEnvelopeV2.sol\":2046:2062  defaultAutoClaim */\n  0x05\n    /* \"contracts/LuckyRedEnvelopeV2.sol\":2046:2069  defaultAutoClaim = true */\n  dup1\n  sload\n  swap1\n  swap2\n  and\n  dup3\n  or\n  swap1\n  sstore\n    /* \"contracts/LuckyRedEnvelopeV2.sol\":2080:2098  defaultTicketToken */\n  0x02\n    /* \"contracts/LuckyRedEnvelopeV2.sol\":2080:2120  defaultTicketToken = _defaultTicketToken */\n  dup1\n  sload\n  not(sub(shl(0xa0, 0x01), 0x01))\n  and\n  swap6\n  dup9\n  and\n  swap6\n  swap1\n  swap6\n  or\n  swap1\n  swap5\n  sstore\n    /* \"contracts/LuckyRedEnvelopeV2.sol\":2131:2149  defaultTicketPirce */\n  0x04\n    /* \"contracts/LuckyRedEnvelopeV2.sol\":2131:2171  defaultTicketPirce = _defaultTicketPirce */\n  dup6\n  swap1\n  sstore\n    /* \"contracts/LuckyRedEnvelopeV2.sol\":2187:2225  OperatorAddress(_operatorAddress,true) */\n  dup2\n  mload\n    /* \"#utility.yul\":931:982   */\n  swap3\n  dup4\n  mstore\n    /* \"#utility.yul\":998:1016   */\n  dup3\n  add\n    /* \"#utility.yul\":991:1041   */\n  swap3\n  swap1\n  swap3\n  mstore\n    /* \"contracts/LuckyRedEnvelopeV2.sol\":2187:2225  OperatorAddress(_operatorAddress,true) */\n  0xedae46487653623e513ea3b3341c9e6b457a2ef687d0342d2507ccb63458b19f\n  swap2\n    /* \"#utility.yul\":904:922   */\n  add\n    /* \"contracts/LuckyRedEnvelopeV2.sol\":2187:2225  OperatorAddress(_operatorAddress,true) */\n  mload(0x40)\n  dup1\n  swap2\n  sub\n  swap1\n  log1\n    /* \"contracts/LuckyRedEnvelopeV2.sol\":2264:2280  defaultAutoClaim */\n  sload(0x05)\n    /* \"contracts/LuckyRedEnvelopeV2.sol\":2241:2281  DefaultAutoClaimChange(defaultAutoClaim) */\n  mload(0x40)\n    /* \"contracts/LuckyRedEnvelopeV2.sol\":2264:2280  defaultAutoClaim */\n  0xff\n  swap1\n  swap2\n  and\n    /* \"#utility.yul\":1217:1231   */\n  iszero\n    /* \"#utility.yul\":1210:1232   */\n  iszero\n    /* \"#utility.yul\":1192:1233   */\n  dup2\n  mstore\n    /* \"contracts/LuckyRedEnvelopeV2.sol\":2241:2281  DefaultAutoClaimChange(defaultAutoClaim) */\n  0x6fe9a4ab2e95e24b2be44989dc36a685149dfde9354d486a8da5cb4bbd01b010\n  swap1\n    /* \"#utility.yul\":1180:1182   */\n  0x20\n    /* \"#utility.yul\":1165:1183   */\n  add\n    /* \"contracts/LuckyRedEnvelopeV2.sol\":2241:2281  DefaultAutoClaimChange(defaultAutoClaim) */\n  mload(0x40)\n  dup1\n  swap2\n  sub\n  swap1\n  log1\n    /* \"contracts/LuckyRedEnvelopeV2.sol\":2316:2334  defaultTicketToken */\n  sload(0x02)\n    /* \"contracts/LuckyRedEnvelopeV2.sol\":2335:2353  defaultTicketPirce */\n  sload(0x04)\n    /* \"contracts/LuckyRedEnvelopeV2.sol\":2297:2354  DefaultTokenChange(defaultTicketToken,defaultTicketPirce) */\n  0x40\n  dup1\n  mload\n  sub(shl(0xa0, 0x01), 0x01)\n    /* \"contracts/LuckyRedEnvelopeV2.sol\":2316:2334  defaultTicketToken */\n  swap1\n  swap4\n  and\n    /* \"#utility.yul\":1418:1469   */\n  dup4\n  mstore\n    /* \"#utility.yul\":1500:1502   */\n  0x20\n    /* \"#utility.yul\":1485:1503   */\n  dup4\n  add\n    /* \"#utility.yul\":1478:1512   */\n  swap2\n  swap1\n  swap2\n  mstore\n    /* \"contracts/LuckyRedEnvelopeV2.sol\":2297:2354  DefaultTokenChange(defaultTicketToken,defaultTicketPirce) */\n  0xdc907cb17a7da8e1dffad2b7205a6ca1111cbb38a0f1f4b2b60a31eb673ca4a2\n  swap2\n    /* \"#utility.yul\":1391:1409   */\n  add\n    /* \"contracts/LuckyRedEnvelopeV2.sol\":2297:2354  DefaultTokenChange(defaultTicketToken,defaultTicketPirce) */\n  mload(0x40)\n  dup1\n  swap2\n  sub\n  swap1\n  log1\n    /* \"contracts/LuckyRedEnvelopeV2.sol\":1859:2362  constructor(address _operatorAddress,address _defaultTicketToken,uint256 _defaultTicketPirce)Ownable(address(msg.sender)){... */\n  pop\n  pop\n  pop\n    /* \"contracts/LuckyRedEnvelopeV2.sol\":382:19173  contract LuckyRedEnvelopeV2 is IRedEnvelope,ReentrancyGuard, Ownable{... */\n  jump(tag_24)\n    /* \"@openzeppelin/contracts/access/Ownable.sol\":2912:3099  function _transferOwnership(address newOwner) internal virtual {... */\ntag_13:\n    /* \"@openzeppelin/contracts/access/Ownable.sol\":3004:3010  _owner */\n  0x01\n  dup1\n  sload\n  sub(shl(0xa0, 0x01), 0x01)\n    /* \"@openzeppelin/contracts/access/Ownable.sol\":3020:3037  _owner = newOwner */\n  dup4\n  dup2\n  and\n  not(sub(shl(0xa0, 0x01), 0x01))\n  dup4\n  and\n  dup2\n  or\n  swap1\n  swap4\n  sstore\n    /* \"@openzeppelin/contracts/access/Ownable.sol\":3052:3092  OwnershipTransferred(oldOwner, newOwner) */\n  mload(0x40)\n    /* \"@openzeppelin/contracts/access/Ownable.sol\":3004:3010  _owner */\n  swap2\n  and\n  swap2\n    /* \"@openzeppelin/contracts/access/Ownable.sol\":3020:3037  _owner = newOwner */\n  swap1\n    /* \"@openzeppelin/contracts/access/Ownable.sol\":3004:3010  _owner */\n  dup3\n  swap1\n    /* \"@openzeppelin/contracts/access/Ownable.sol\":3052:3092  OwnershipTransferred(oldOwner, newOwner) */\n  0x8be0079c531659141344cd1fd0a4f28419497f9722a3daafe3b4186f6b6457e0\n  swap1\n    /* \"@openzeppelin/contracts/access/Ownable.sol\":2985:3001  address oldOwner */\n  0x00\n  swap1\n    /* \"@openzeppelin/contracts/access/Ownable.sol\":3052:3092  OwnershipTransferred(oldOwner, newOwner) */\n  log3\n    /* \"@openzeppelin/contracts/access/Ownable.sol\":2975:3099  {... */\n  pop\n    /* \"@openzeppelin/contracts/access/Ownable.sol\":2912:3099  function _transferOwnership(address newOwner) internal virtual {... */\n  pop\n  jump\t// out\n    /* \"#utility.yul\":14:191   */\ntag_23:\n    /* \"#utility.yul\":93:106   */\n  dup1\n  mload\n  sub(shl(0xa0, 0x01), 0x01)\n    /* \"#utility.yul\":135:166   */\n  dup2\n  and\n    /* \"#utility.yul\":125:167   */\n  dup2\n  eq\n    /* \"#utility.yul\":115:185   */\n  tag_26\n  jumpi\n    /* \"#utility.yul\":181:182   */\n  0x00\n    /* \"#utility.yul\":178:179   */\n  dup1\n    /* \"#utility.yul\":171:183   */\n  revert\n    /* \"#utility.yul\":115:185   */\ntag_26:\n    /* \"#utility.yul\":14:191   */\n  swap2\n  swap1\n  pop\n  jump\t// out\n    /* \"#utility.yul\":196:550   */\ntag_3:\n    /* \"#utility.yul\":284:290   */\n  0x00\n    /* \"#utility.yul\":292:298   */\n  dup1\n    /* \"#utility.yul\":300:306   */\n  0x00\n    /* \"#utility.yul\":353:355   */\n  0x60\n    /* \"#utility.yul\":341:350   */\n  dup5\n    /* \"#utility.yul\":332:339   */\n  dup7\n    /* \"#utility.yul\":328:351   */\n  sub\n    /* \"#utility.yul\":324:356   */\n  slt\n    /* \"#utility.yul\":321:373   */\n  iszero\n  tag_28\n  jumpi\n    /* \"#utility.yul\":369:370   */\n  0x00\n    /* \"#utility.yul\":366:367   */\n  dup1\n    /* \"#utility.yul\":359:371   */\n  revert\n    /* \"#utility.yul\":321:373   */\ntag_28:\n    /* \"#utility.yul\":392:432   */\n  tag_29\n    /* \"#utility.yul\":422:431   */\n  dup5\n    /* \"#utility.yul\":392:432   */\n  tag_23\n  jump\t// in\ntag_29:\n    /* \"#utility.yul\":382:432   */\n  swap3\n  pop\n    /* \"#utility.yul\":451:500   */\n  tag_30\n    /* \"#utility.yul\":496:498   */\n  0x20\n    /* \"#utility.yul\":485:494   */\n  dup6\n    /* \"#utility.yul\":481:499   */\n  add\n    /* \"#utility.yul\":451:500   */\n  tag_23\n  jump\t// in\ntag_30:\n    /* \"#utility.yul\":441:500   */\n  swap2\n  pop\n    /* \"#utility.yul\":540:542   */\n  0x40\n    /* \"#utility.yul\":529:538   */\n  dup5\n    /* \"#utility.yul\":525:543   */\n  add\n    /* \"#utility.yul\":519:544   */\n  mload\n    /* \"#utility.yul\":509:544   */\n  swap1\n  pop\n    /* \"#utility.yul\":196:550   */\n  swap3\n  pop\n  swap3\n  pop\n  swap3\n  jump\t// out\n    /* \"#utility.yul\":1244:1518   */\ntag_24:\n    /* \"contracts/LuckyRedEnvelopeV2.sol\":382:19173  contract LuckyRedEnvelopeV2 is IRedEnvelope,ReentrancyGuard, Ownable{... */\n  dataSize(sub_0)\n  dup1\n  dataOffset(sub_0)\n  0x00\n  codecopy\n  0x00\n  return\nstop\n\nsub_0: assembly {\n        /* \"contracts/LuckyRedEnvelopeV2.sol\":382:19173  contract LuckyRedEnvelopeV2 is IRedEnvelope,ReentrancyGuard, Ownable{... */\n      mstore(0x40, 0x80)\n      callvalue\n      dup1\n      iszero\n      tag_1\n      jumpi\n      0x00\n      dup1\n      revert\n    tag_1:\n      pop\n      jumpi(tag_2, lt(calldatasize, 0x04))\n      shr(0xe0, calldataload(0x00))\n      dup1\n      0x959acdaf\n      gt\n      tag_26\n      jumpi\n      dup1\n      0xd9828174\n      gt\n      tag_27\n      jumpi\n      dup1\n      0xd9828174\n      eq\n      tag_20\n      jumpi\n      dup1\n      0xdc912a81\n      eq\n      tag_21\n      jumpi\n      dup1\n      0xe00dd161\n      eq\n      tag_22\n      jumpi\n      dup1\n      0xf2fde38b\n      eq\n      tag_23\n      jumpi\n      dup1\n      0xf41188ed\n      eq\n      tag_24\n      jumpi\n      dup1\n      0xfe5c5976\n      eq\n      tag_25\n      jumpi\n      0x00\n      dup1\n      revert\n    tag_27:\n      dup1\n      0x959acdaf\n      eq\n      tag_14\n      jumpi\n      dup1\n      0xa210d5e0\n      eq\n      tag_15\n      jumpi\n      dup1\n      0xbc6bce91\n      eq\n      tag_16\n      jumpi\n      dup1\n      0xbce3468d\n      eq\n      tag_17\n      jumpi\n      dup1\n      0xc5e7bb33\n      eq\n      tag_18\n      jumpi\n      dup1\n      0xd7098154\n      eq\n      tag_19\n      jumpi\n      0x00\n      dup1\n      revert\n    tag_26:\n      dup1\n      0x5c42e0c5\n      gt\n      tag_28\n      jumpi\n      dup1\n      0x5c42e0c5\n      eq\n      tag_8\n      jumpi\n      dup1\n      0x715018a6\n      eq\n      tag_9\n      jumpi\n      dup1\n      0x8da5cb5b\n      eq\n      tag_10\n      jumpi\n      dup1\n      0x8f91cd17\n      eq\n      tag_11\n      jumpi\n      dup1\n      0x903606c5\n      eq\n      tag_12\n      jumpi\n      dup1\n      0x94456fa4\n      eq\n      tag_13\n      jumpi\n      0x00\n      dup1\n      revert\n    tag_28:\n      dup1\n      0x0e9e1262\n      eq\n      tag_3\n      jumpi\n      dup1\n      0x3834efe1\n      eq\n      tag_4\n      jumpi\n      dup1\n      0x4a42c8f6\n      eq\n      tag_5\n      jumpi\n      dup1\n      0x4bfec3aa\n      eq\n      tag_6\n      jumpi\n      dup1\n      0x559f24bc\n      eq\n      tag_7\n      jumpi\n    tag_2:\n      0x00\n      dup1\n      revert\n        /* \"contracts/LuckyRedEnvelopeV2.sol\":3888:4363  function createRedEnvelope(... */\n    tag_3:\n      tag_29\n      tag_30\n      calldatasize\n      0x04\n      tag_31\n      jump\t// in\n    tag_30:\n      tag_32\n      jump\t// in\n    tag_29:\n      stop\n        /* \"contracts/LuckyRedEnvelopeV2.sol\":10895:11432  function endRedEnvelope(... */\n    tag_4:\n      tag_29\n      tag_34\n      calldatasize\n      0x04\n      tag_35\n      jump\t// in\n    tag_34:\n      tag_36\n      jump\t// in\n        /* \"contracts/LuckyRedEnvelopeV2.sol\":4597:5484  function createRedEnvelopeDetail(... */\n    tag_5:\n      tag_29\n      tag_38\n      calldatasize\n      0x04\n      tag_39\n      jump\t// in\n    tag_38:\n      tag_40\n      jump\t// in\n        /* \"contracts/LuckyRedEnvelopeV2.sol\":569:602  uint256 public defaultTicketPirce */\n    tag_6:\n      tag_41\n      sload(0x04)\n      dup2\n      jump\n    tag_41:\n      mload(0x40)\n        /* \"#utility.yul\":1919:1944   */\n      swap1\n      dup2\n      mstore\n        /* \"#utility.yul\":1907:1909   */\n      0x20\n        /* \"#utility.yul\":1892:1910   */\n      add\n        /* \"contracts/LuckyRedEnvelopeV2.sol\":569:602  uint256 public defaultTicketPirce */\n    tag_43:\n      mload(0x40)\n      dup1\n      swap2\n      sub\n      swap1\n      return\n        /* \"contracts/LuckyRedEnvelopeV2.sol\":5492:5941  function injectTickets(uint256 _id,uint256 _ticketNumbers)external nonReentrant{... */\n    tag_7:\n      tag_29\n      tag_46\n      calldatasize\n      0x04\n      tag_47\n      jump\t// in\n    tag_46:\n      tag_48\n      jump\t// in\n        /* \"contracts/LuckyRedEnvelopeV2.sol\":8523:9589  function sendTickets(... */\n    tag_8:\n      tag_29\n      tag_50\n      calldatasize\n      0x04\n      tag_51\n      jump\t// in\n    tag_50:\n      tag_52\n      jump\t// in\n        /* \"@openzeppelin/contracts/access/Ownable.sol\":2293:2394  function renounceOwnership() public virtual onlyOwner {... */\n    tag_9:\n      tag_29\n      tag_54\n      jump\t// in\n        /* \"@openzeppelin/contracts/access/Ownable.sol\":1638:1723  function owner() public view virtual returns (address) {... */\n    tag_10:\n        /* \"@openzeppelin/contracts/access/Ownable.sol\":1710:1716  _owner */\n      and(sub(shl(0xa0, 0x01), 0x01), sload(0x01))\n        /* \"@openzeppelin/contracts/access/Ownable.sol\":1638:1723  function owner() public view virtual returns (address) {... */\n    tag_55:\n      mload(0x40)\n      sub(shl(0xa0, 0x01), 0x01)\n        /* \"#utility.yul\":2808:2840   */\n      swap1\n      swap2\n      and\n        /* \"#utility.yul\":2790:2841   */\n      dup2\n      mstore\n        /* \"#utility.yul\":2778:2780   */\n      0x20\n        /* \"#utility.yul\":2763:2781   */\n      add\n        /* \"@openzeppelin/contracts/access/Ownable.sol\":1638:1723  function owner() public view virtual returns (address) {... */\n      tag_43\n        /* \"#utility.yul\":2644:2847   */\n      jump\n        /* \"contracts/LuckyRedEnvelopeV2.sol\":18845:18968  function viewRedEnvelope(uint256 _id)external view returns (RedEnvelope memory){... */\n    tag_11:\n      tag_59\n      tag_60\n      calldatasize\n      0x04\n      tag_35\n      jump\t// in\n    tag_60:\n      tag_61\n      jump\t// in\n    tag_59:\n      mload(0x40)\n      tag_43\n      swap2\n      swap1\n      tag_63\n      jump\t// in\n        /* \"contracts/LuckyRedEnvelopeV2.sol\":2874:3159  function setTicketToken(address _defaultTicketToken,uint256 _defaultTicketPirce) external onlyOperator{... */\n    tag_12:\n      tag_29\n      tag_65\n      calldatasize\n      0x04\n      tag_66\n      jump\t// in\n    tag_65:\n      tag_67\n      jump\t// in\n        /* \"contracts/LuckyRedEnvelopeV2.sol\":18706:18808  function  viewCurrentRedEnvelopeId() external view returns(uint256){... */\n    tag_13:\n        /* \"contracts/LuckyRedEnvelopeV2.sol\":18791:18800  currentId */\n      sload(0x03)\n        /* \"contracts/LuckyRedEnvelopeV2.sol\":18706:18808  function  viewCurrentRedEnvelopeId() external view returns(uint256){... */\n      jump(tag_41)\n        /* \"contracts/LuckyRedEnvelopeV2.sol\":492:525  address public defaultTicketToken */\n    tag_14:\n      sload(0x02)\n      tag_55\n      swap1\n      sub(shl(0xa0, 0x01), 0x01)\n      and\n      dup2\n      jump\n        /* \"contracts/LuckyRedEnvelopeV2.sol\":615:643  bool public defaultAutoClaim */\n    tag_15:\n      sload(0x05)\n      tag_74\n      swap1\n      0xff\n      and\n      dup2\n      jump\n    tag_74:\n      mload(0x40)\n        /* \"#utility.yul\":5200:5214   */\n      swap1\n      iszero\n        /* \"#utility.yul\":5193:5215   */\n      iszero\n        /* \"#utility.yul\":5175:5216   */\n      dup2\n      mstore\n        /* \"#utility.yul\":5163:5165   */\n      0x20\n        /* \"#utility.yul\":5148:5166   */\n      add\n        /* \"contracts/LuckyRedEnvelopeV2.sol\":615:643  bool public defaultAutoClaim */\n      tag_43\n        /* \"#utility.yul\":5035:5222   */\n      jump\n        /* \"contracts/LuckyRedEnvelopeV2.sol\":652:703  mapping(address => bool) public operatorAddressList */\n    tag_16:\n      tag_74\n      tag_79\n      calldatasize\n      0x04\n      tag_80\n      jump\t// in\n    tag_79:\n      mstore(0x20, 0x06)\n      0x00\n      swap1\n      dup2\n      mstore\n      0x40\n      swap1\n      keccak256\n      sload\n      0xff\n      and\n      dup2\n      jump\n        /* \"contracts/LuckyRedEnvelopeV2.sol\":13062:14817  function drawPrize(... */\n    tag_17:\n      tag_29\n      tag_84\n      calldatasize\n      0x04\n      tag_47\n      jump\t// in\n    tag_84:\n      tag_85\n      jump\t// in\n        /* \"contracts/LuckyRedEnvelopeV2.sol\":9597:10885  function buyTickets(... */\n    tag_18:\n      tag_29\n      tag_87\n      calldatasize\n      0x04\n      tag_51\n      jump\t// in\n    tag_87:\n      tag_88\n      jump\t// in\n        /* \"contracts/LuckyRedEnvelopeV2.sol\":17288:17573  function claimPrize(uint256 _id)external nonReentrant{... */\n    tag_19:\n      tag_29\n      tag_90\n      calldatasize\n      0x04\n      tag_35\n      jump\t// in\n    tag_90:\n      tag_91\n      jump\t// in\n        /* \"contracts/LuckyRedEnvelopeV2.sol\":2370:2672  function setOperatorAddress(... */\n    tag_20:\n      tag_29\n      tag_93\n      calldatasize\n      0x04\n      tag_94\n      jump\t// in\n    tag_93:\n      tag_95\n      jump\t// in\n        /* \"contracts/LuckyRedEnvelopeV2.sol\":19026:19170  function viewRedEnvelopeClaimPrize(uint256 _id,address _user)external view returns(uint256){... */\n    tag_21:\n      tag_41\n      tag_97\n      calldatasize\n      0x04\n      tag_98\n      jump\t// in\n    tag_97:\n      tag_99\n      jump\t// in\n        /* \"contracts/LuckyRedEnvelopeV2.sol\":538:562  uint256 public currentId */\n    tag_22:\n      tag_41\n      sload(0x03)\n      dup2\n      jump\n        /* \"@openzeppelin/contracts/access/Ownable.sol\":2543:2758  function transferOwnership(address newOwner) public virtual onlyOwner {... */\n    tag_23:\n      tag_29\n      tag_105\n      calldatasize\n      0x04\n      tag_80\n      jump\t// in\n    tag_105:\n      tag_106\n      jump\t// in\n        /* \"contracts/LuckyRedEnvelopeV2.sol\":2680:2865  function setDefaultAutoClaim(bool _defaultAutoClaim) external onlyOperator{... */\n    tag_24:\n      tag_29\n      tag_108\n      calldatasize\n      0x04\n      tag_109\n      jump\t// in\n    tag_108:\n      tag_110\n      jump\t// in\n        /* \"contracts/LuckyRedEnvelopeV2.sol\":18540:18670  function viewRedEnvelopeStatus(uint256 _id) external view  returns (uint){... */\n    tag_25:\n      tag_41\n      tag_112\n      calldatasize\n      0x04\n      tag_35\n      jump\t// in\n    tag_112:\n      tag_113\n      jump\t// in\n        /* \"contracts/LuckyRedEnvelopeV2.sol\":3888:4363  function createRedEnvelope(... */\n    tag_32:\n        /* \"contracts/LuckyRedEnvelopeV2.sol\":1589:1599  msg.sender */\n      caller\n        /* \"contracts/LuckyRedEnvelopeV2.sol\":1569:1600  operatorAddressList[msg.sender] */\n      0x00\n      swap1\n      dup2\n      mstore\n        /* \"contracts/LuckyRedEnvelopeV2.sol\":1569:1588  operatorAddressList */\n      0x06\n        /* \"contracts/LuckyRedEnvelopeV2.sol\":1569:1600  operatorAddressList[msg.sender] */\n      0x20\n      mstore\n      0x40\n      swap1\n      keccak256\n      sload\n      0xff\n      and\n        /* \"contracts/LuckyRedEnvelopeV2.sol\":1569:1608  operatorAddressList[msg.sender] == true */\n      iszero\n      iszero\n        /* \"contracts/LuckyRedEnvelopeV2.sol\":1569:1600  operatorAddressList[msg.sender] */\n      0x01\n        /* \"contracts/LuckyRedEnvelopeV2.sol\":1569:1608  operatorAddressList[msg.sender] == true */\n      eq\n        /* \"contracts/LuckyRedEnvelopeV2.sol\":1561:1625  require(operatorAddressList[msg.sender] == true, \"Not operator\") */\n      tag_116\n      jumpi\n      mload(0x40)\n      shl(0xe5, 0x461bcd)\n      dup2\n      mstore\n      0x04\n      add\n      tag_117\n      swap1\n      tag_118\n      jump\t// in\n    tag_117:\n      mload(0x40)\n      dup1\n      swap2\n      sub\n      swap1\n      revert\n    tag_116:\n        /* \"@openzeppelin/contracts/utils/ReentrancyGuard.sol\":2356:2377  _nonReentrantBefore() */\n      tag_120\n        /* \"@openzeppelin/contracts/utils/ReentrancyGuard.sol\":2356:2375  _nonReentrantBefore */\n      tag_121\n        /* \"@openzeppelin/contracts/utils/ReentrancyGuard.sol\":2356:2377  _nonReentrantBefore() */\n      jump\t// in\n    tag_120:\n        /* \"contracts/LuckyRedEnvelopeV2.sol\":4099:4117  defaultTicketToken */\n      sload(0x02)\n        /* \"contracts/LuckyRedEnvelopeV2.sol\":4118:4136  defaultTicketPirce */\n      sload(0x04)\n        /* \"contracts/LuckyRedEnvelopeV2.sol\":4193:4209  defaultAutoClaim */\n      sload(0x05)\n        /* \"contracts/LuckyRedEnvelopeV2.sol\":4080:4210  _createRedEnvelope(defaultTicketToken,defaultTicketPirce,_endTime,_maxTickets,... */\n      tag_123\n      swap3\n      sub(shl(0xa0, 0x01), 0x01)\n        /* \"contracts/LuckyRedEnvelopeV2.sol\":4099:4117  defaultTicketToken */\n      and\n      swap2\n        /* \"contracts/LuckyRedEnvelopeV2.sol\":4118:4136  defaultTicketPirce */\n      swap1\n        /* \"contracts/LuckyRedEnvelopeV2.sol\":4137:4145  _endTime */\n      dup8\n      swap1\n        /* \"contracts/LuckyRedEnvelopeV2.sol\":4146:4157  _maxTickets */\n      dup8\n      swap1\n        /* \"contracts/LuckyRedEnvelopeV2.sol\":4172:4184  _maxPrizeNum */\n      dup8\n      swap1\n        /* \"contracts/LuckyRedEnvelopeV2.sol\":4185:4192  _secret */\n      dup8\n      swap1\n        /* \"contracts/LuckyRedEnvelopeV2.sol\":4193:4209  defaultAutoClaim */\n      0xff\n      and\n        /* \"contracts/LuckyRedEnvelopeV2.sol\":4080:4098  _createRedEnvelope */\n      tag_124\n        /* \"contracts/LuckyRedEnvelopeV2.sol\":4080:4210  _createRedEnvelope(defaultTicketToken,defaultTicketPirce,_endTime,_maxTickets,... */\n      jump\t// in\n    tag_123:\n        /* \"contracts/LuckyRedEnvelopeV2.sol\":4245:4254  currentId */\n      sload(0x03)\n        /* \"contracts/LuckyRedEnvelopeV2.sol\":4289:4307  defaultTicketPirce */\n      sload(0x04)\n        /* \"contracts/LuckyRedEnvelopeV2.sol\":4308:4326  defaultTicketToken */\n      sload(0x02)\n        /* \"contracts/LuckyRedEnvelopeV2.sol\":4338:4354  defaultAutoClaim */\n      sload(0x05)\n        /* \"contracts/LuckyRedEnvelopeV2.sol\":4226:4355  RedEnvelopeCreated(currentId,_endTime,_maxTickets,_maxPrizeNum,defaultTicketPirce,defaultTicketToken,address(0),defaultAutoClaim) */\n      mload(0x40)\n      0xd1e3ee1889517a916aeecc9d0b214ca142fce1f8562cd5e9071876b998ec7eea\n      swap4\n      tag_125\n      swap4\n        /* \"contracts/LuckyRedEnvelopeV2.sol\":4255:4263  _endTime */\n      dup11\n      swap4\n        /* \"contracts/LuckyRedEnvelopeV2.sol\":4264:4275  _maxTickets */\n      dup11\n      swap4\n        /* \"contracts/LuckyRedEnvelopeV2.sol\":4276:4288  _maxPrizeNum */\n      dup11\n      swap4\n        /* \"contracts/LuckyRedEnvelopeV2.sol\":4289:4307  defaultTicketPirce */\n      swap3\n      sub(shl(0xa0, 0x01), 0x01)\n        /* \"contracts/LuckyRedEnvelopeV2.sol\":4308:4326  defaultTicketToken */\n      and\n      swap2\n      0x00\n      swap2\n        /* \"contracts/LuckyRedEnvelopeV2.sol\":4338:4354  defaultAutoClaim */\n      0xff\n      swap1\n      swap2\n      and\n      swap1\n        /* \"contracts/LuckyRedEnvelopeV2.sol\":4226:4355  RedEnvelopeCreated(currentId,_endTime,_maxTickets,_maxPrizeNum,defaultTicketPirce,defaultTicketToken,address(0),defaultAutoClaim) */\n      tag_126\n      jump\t// in\n    tag_125:\n      mload(0x40)\n      dup1\n      swap2\n      sub\n      swap1\n      log2\n        /* \"@openzeppelin/contracts/utils/ReentrancyGuard.sol\":2398:2418  _nonReentrantAfter() */\n      tag_127\n        /* \"@openzeppelin/contracts/utils/ReentrancyGuard.sol\":1713:1714  1 */\n      0x01\n        /* \"@openzeppelin/contracts/utils/ReentrancyGuard.sol\":2924:2931  _status */\n      0x00\n        /* \"@openzeppelin/contracts/utils/ReentrancyGuard.sol\":2924:2945  _status = NOT_ENTERED */\n      sstore\n        /* \"@openzeppelin/contracts/utils/ReentrancyGuard.sol\":2744:2952  function _nonReentrantAfter() private {... */\n      jump\n        /* \"@openzeppelin/contracts/utils/ReentrancyGuard.sol\":2398:2418  _nonReentrantAfter() */\n    tag_127:\n        /* \"contracts/LuckyRedEnvelopeV2.sol\":3888:4363  function createRedEnvelope(... */\n      pop\n      pop\n      pop\n      pop\n      jump\t// out\n        /* \"contracts/LuckyRedEnvelopeV2.sol\":10895:11432  function endRedEnvelope(... */\n    tag_36:\n        /* \"contracts/LuckyRedEnvelopeV2.sol\":1589:1599  msg.sender */\n      caller\n        /* \"contracts/LuckyRedEnvelopeV2.sol\":1569:1600  operatorAddressList[msg.sender] */\n      0x00\n      swap1\n      dup2\n      mstore\n        /* \"contracts/LuckyRedEnvelopeV2.sol\":1569:1588  operatorAddressList */\n      0x06\n        /* \"contracts/LuckyRedEnvelopeV2.sol\":1569:1600  operatorAddressList[msg.sender] */\n      0x20\n      mstore\n      0x40\n      swap1\n      keccak256\n      sload\n      0xff\n      and\n        /* \"contracts/LuckyRedEnvelopeV2.sol\":1569:1608  operatorAddressList[msg.sender] == true */\n      iszero\n      iszero\n        /* \"contracts/LuckyRedEnvelopeV2.sol\":1569:1600  operatorAddressList[msg.sender] */\n      0x01\n        /* \"contracts/LuckyRedEnvelopeV2.sol\":1569:1608  operatorAddressList[msg.sender] == true */\n      eq\n        /* \"contracts/LuckyRedEnvelopeV2.sol\":1561:1625  require(operatorAddressList[msg.sender] == true, \"Not operator\") */\n      tag_130\n      jumpi\n      mload(0x40)\n      shl(0xe5, 0x461bcd)\n      dup2\n      mstore\n      0x04\n      add\n      tag_117\n      swap1\n      tag_118\n      jump\t// in\n    tag_130:\n        /* \"@openzeppelin/contracts/utils/ReentrancyGuard.sol\":2356:2377  _nonReentrantBefore() */\n      tag_133\n        /* \"@openzeppelin/contracts/utils/ReentrancyGuard.sol\":2356:2375  _nonReentrantBefore */\n      tag_121\n        /* \"@openzeppelin/contracts/utils/ReentrancyGuard.sol\":2356:2377  _nonReentrantBefore() */\n      jump\t// in\n    tag_133:\n        /* \"contracts/LuckyRedEnvelopeV2.sol\":11029:11040  Status.Open */\n      0x01\n        /* \"contracts/LuckyRedEnvelopeV2.sol\":11000:11018  _redEnvelopes[_id] */\n      0x00\n      dup3\n      dup2\n      mstore\n        /* \"contracts/LuckyRedEnvelopeV2.sol\":11000:11013  _redEnvelopes */\n      0x07\n        /* \"contracts/LuckyRedEnvelopeV2.sol\":11000:11018  _redEnvelopes[_id] */\n      0x20\n      mstore\n      0x40\n      swap1\n      keccak256\n        /* \"contracts/LuckyRedEnvelopeV2.sol\":11000:11025  _redEnvelopes[_id].status */\n      sload\n      shl(0xa0, 0x01)\n      swap1\n      div\n      0xff\n      and\n        /* \"contracts/LuckyRedEnvelopeV2.sol\":11000:11040  _redEnvelopes[_id].status == Status.Open */\n      0x03\n      dup2\n      gt\n      iszero\n      tag_139\n      jumpi\n      tag_139\n      tag_137\n      jump\t// in\n    tag_139:\n      eq\n        /* \"contracts/LuckyRedEnvelopeV2.sol\":10992:11068  require(_redEnvelopes[_id].status == Status.Open, \"RedEnvelope is not open\") */\n      tag_140\n      jumpi\n      mload(0x40)\n      shl(0xe5, 0x461bcd)\n      dup2\n      mstore\n      0x04\n      add\n      tag_117\n      swap1\n      tag_142\n      jump\t// in\n    tag_140:\n        /* \"contracts/LuckyRedEnvelopeV2.sol\":11234:11252  _redEnvelopes[_id] */\n      0x00\n      dup2\n      dup2\n      mstore\n        /* \"contracts/LuckyRedEnvelopeV2.sol\":11234:11247  _redEnvelopes */\n      0x07\n        /* \"contracts/LuckyRedEnvelopeV2.sol\":11234:11252  _redEnvelopes[_id] */\n      0x20\n      swap1\n      dup2\n      mstore\n      0x40\n      swap2\n      dup3\n      swap1\n      keccak256\n        /* \"contracts/LuckyRedEnvelopeV2.sol\":11234:11274  _redEnvelopes[_id].status = Status.Close */\n      dup1\n      sload\n      not(shl(0xa0, 0xff))\n      and\n      shl(0xa1, 0x01)\n      or\n      dup2\n      sstore\n        /* \"contracts/LuckyRedEnvelopeV2.sol\":11330:11359  _redEnvelopes[_id].buyTickets */\n      0x04\n      dup2\n      add\n      sload\n        /* \"contracts/LuckyRedEnvelopeV2.sol\":11360:11390  _redEnvelopes[_id].sendTickets */\n      0x05\n      dup3\n      add\n      sload\n        /* \"contracts/LuckyRedEnvelopeV2.sol\":11391:11423  _redEnvelopes[_id].injectTickets */\n      0x06\n      swap1\n      swap3\n      add\n      sload\n        /* \"contracts/LuckyRedEnvelopeV2.sol\":11292:11424  RedEnvelopeClosed(_id,block.timestamp,_redEnvelopes[_id].buyTickets,_redEnvelopes[_id].sendTickets,_redEnvelopes[_id].injectTickets) */\n      dup5\n      mload\n        /* \"contracts/LuckyRedEnvelopeV2.sol\":11314:11329  block.timestamp */\n      timestamp\n        /* \"#utility.yul\":7845:7870   */\n      dup2\n      mstore\n        /* \"#utility.yul\":7886:7904   */\n      swap4\n      dup5\n      add\n        /* \"#utility.yul\":7879:7913   */\n      swap2\n      swap1\n      swap2\n      mstore\n        /* \"#utility.yul\":7929:7947   */\n      dup3\n      dup5\n      add\n        /* \"#utility.yul\":7922:7956   */\n      swap2\n      swap1\n      swap2\n      mstore\n        /* \"#utility.yul\":7987:7989   */\n      0x60\n        /* \"#utility.yul\":7972:7990   */\n      dup3\n      add\n        /* \"#utility.yul\":7965:7999   */\n      mstore\n        /* \"contracts/LuckyRedEnvelopeV2.sol\":11292:11424  RedEnvelopeClosed(_id,block.timestamp,_redEnvelopes[_id].buyTickets,_redEnvelopes[_id].sendTickets,_redEnvelopes[_id].injectTickets) */\n      swap1\n      mload\n        /* \"contracts/LuckyRedEnvelopeV2.sol\":11234:11252  _redEnvelopes[_id] */\n      dup3\n      swap2\n        /* \"contracts/LuckyRedEnvelopeV2.sol\":11292:11424  RedEnvelopeClosed(_id,block.timestamp,_redEnvelopes[_id].buyTickets,_redEnvelopes[_id].sendTickets,_redEnvelopes[_id].injectTickets) */\n      0x8e8517d306c35510333dea682099e81a1454bbf42be03c51d19d593ad811bb70\n      swap2\n      swap1\n      dup2\n      swap1\n      sub\n        /* \"#utility.yul\":7832:7835   */\n      0x80\n        /* \"contracts/LuckyRedEnvelopeV2.sol\":11292:11424  RedEnvelopeClosed(_id,block.timestamp,_redEnvelopes[_id].buyTickets,_redEnvelopes[_id].sendTickets,_redEnvelopes[_id].injectTickets) */\n      add\n      swap1\n      log2\n        /* \"@openzeppelin/contracts/utils/ReentrancyGuard.sol\":2398:2418  _nonReentrantAfter() */\n      tag_147\n        /* \"@openzeppelin/contracts/utils/ReentrancyGuard.sol\":1713:1714  1 */\n      0x01\n        /* \"@openzeppelin/contracts/utils/ReentrancyGuard.sol\":2924:2931  _status */\n      0x00\n        /* \"@openzeppelin/contracts/utils/ReentrancyGuard.sol\":2924:2945  _status = NOT_ENTERED */\n      sstore\n        /* \"@openzeppelin/contracts/utils/ReentrancyGuard.sol\":2744:2952  function _nonReentrantAfter() private {... */\n      jump\n        /* \"@openzeppelin/contracts/utils/ReentrancyGuard.sol\":2398:2418  _nonReentrantAfter() */\n    tag_147:\n        /* \"contracts/LuckyRedEnvelopeV2.sol\":10895:11432  function endRedEnvelope(... */\n      pop\n      jump\t// out\n        /* \"contracts/LuckyRedEnvelopeV2.sol\":4597:5484  function createRedEnvelopeDetail(... */\n    tag_40:\n        /* \"contracts/LuckyRedEnvelopeV2.sol\":1589:1599  msg.sender */\n      caller\n        /* \"contracts/LuckyRedEnvelopeV2.sol\":1569:1600  operatorAddressList[msg.sender] */\n      0x00\n      swap1\n      dup2\n      mstore\n        /* \"contracts/LuckyRedEnvelopeV2.sol\":1569:1588  operatorAddressList */\n      0x06\n        /* \"contracts/LuckyRedEnvelopeV2.sol\":1569:1600  operatorAddressList[msg.sender] */\n      0x20\n      mstore\n      0x40\n      swap1\n      keccak256\n      sload\n      0xff\n      and\n        /* \"contracts/LuckyRedEnvelopeV2.sol\":1569:1608  operatorAddressList[msg.sender] == true */\n      iszero\n      iszero\n        /* \"contracts/LuckyRedEnvelopeV2.sol\":1569:1600  operatorAddressList[msg.sender] */\n      0x01\n        /* \"contracts/LuckyRedEnvelopeV2.sol\":1569:1608  operatorAddressList[msg.sender] == true */\n      eq\n        /* \"contracts/LuckyRedEnvelopeV2.sol\":1561:1625  require(operatorAddressList[msg.sender] == true, \"Not operator\") */\n      tag_149\n      jumpi\n      mload(0x40)\n      shl(0xe5, 0x461bcd)\n      dup2\n      mstore\n      0x04\n      add\n      tag_117\n      swap1\n      tag_118\n      jump\t// in\n    tag_149:\n        /* \"@openzeppelin/contracts/utils/ReentrancyGuard.sol\":2356:2377  _nonReentrantBefore() */\n      tag_152\n        /* \"@openzeppelin/contracts/utils/ReentrancyGuard.sol\":2356:2375  _nonReentrantBefore */\n      tag_121\n        /* \"@openzeppelin/contracts/utils/ReentrancyGuard.sol\":2356:2377  _nonReentrantBefore() */\n      jump\t// in\n    tag_152:\n        /* \"contracts/LuckyRedEnvelopeV2.sol\":4985:5098  _createRedEnvelope(_tokenAddress,_ticketPirce,_endTime,_maxTickets,... */\n      tag_154\n        /* \"contracts/LuckyRedEnvelopeV2.sol\":5004:5017  _tokenAddress */\n      dup11\n        /* \"contracts/LuckyRedEnvelopeV2.sol\":5018:5030  _ticketPirce */\n      dup11\n        /* \"contracts/LuckyRedEnvelopeV2.sol\":5031:5039  _endTime */\n      dup11\n        /* \"contracts/LuckyRedEnvelopeV2.sol\":5040:5051  _maxTickets */\n      dup11\n        /* \"contracts/LuckyRedEnvelopeV2.sol\":5066:5078  _maxPrizeNum */\n      dup11\n        /* \"contracts/LuckyRedEnvelopeV2.sol\":5079:5086  _secret */\n      dup8\n        /* \"contracts/LuckyRedEnvelopeV2.sol\":5087:5097  _autoClaim */\n      dup8\n        /* \"contracts/LuckyRedEnvelopeV2.sol\":4985:5003  _createRedEnvelope */\n      tag_124\n        /* \"contracts/LuckyRedEnvelopeV2.sol\":4985:5098  _createRedEnvelope(_tokenAddress,_ticketPirce,_endTime,_maxTickets,... */\n      jump\t// in\n    tag_154:\n        /* \"contracts/LuckyRedEnvelopeV2.sol\":5150:5164  _sendAllowAddr */\n      dup3\n        /* \"contracts/LuckyRedEnvelopeV2.sol\":5109:5122  _redEnvelopes */\n      0x07\n        /* \"contracts/LuckyRedEnvelopeV2.sol\":5109:5133  _redEnvelopes[currentId] */\n      0x00\n        /* \"contracts/LuckyRedEnvelopeV2.sol\":5123:5132  currentId */\n      sload(0x03)\n        /* \"contracts/LuckyRedEnvelopeV2.sol\":5109:5133  _redEnvelopes[currentId] */\n      dup2\n      mstore\n      0x20\n      add\n      swap1\n      dup2\n      mstore\n      0x20\n      add\n      0x00\n      keccak256\n        /* \"contracts/LuckyRedEnvelopeV2.sol\":5109:5147  _redEnvelopes[currentId].sendAllowAddr */\n      0x0b\n      add\n      0x00\n        /* \"contracts/LuckyRedEnvelopeV2.sol\":5109:5164  _redEnvelopes[currentId].sendAllowAddr = _sendAllowAddr */\n      0x0100\n      exp\n      dup2\n      sload\n      dup2\n      sub(shl(0xa0, 0x01), 0x01)\n      mul\n      not\n      and\n      swap1\n      dup4\n      sub(shl(0xa0, 0x01), 0x01)\n      and\n      mul\n      or\n      swap1\n      sstore\n      pop\n        /* \"contracts/LuckyRedEnvelopeV2.sol\":5201:5210  currentId */\n      sload(0x03)\n        /* \"contracts/LuckyRedEnvelopeV2.sol\":5182:5298  RedEnvelopeCreated(currentId,_endTime,_maxTickets,_maxPrizeNum,_ticketPirce,_tokenAddress,_sendAllowAddr,_autoClaim) */\n      0xd1e3ee1889517a916aeecc9d0b214ca142fce1f8562cd5e9071876b998ec7eea\n        /* \"contracts/LuckyRedEnvelopeV2.sol\":5211:5219  _endTime */\n      dup10\n        /* \"contracts/LuckyRedEnvelopeV2.sol\":5220:5231  _maxTickets */\n      dup10\n        /* \"contracts/LuckyRedEnvelopeV2.sol\":5232:5244  _maxPrizeNum */\n      dup10\n        /* \"contracts/LuckyRedEnvelopeV2.sol\":5245:5257  _ticketPirce */\n      dup14\n        /* \"contracts/LuckyRedEnvelopeV2.sol\":5258:5271  _tokenAddress */\n      dup16\n        /* \"contracts/LuckyRedEnvelopeV2.sol\":5272:5286  _sendAllowAddr */\n      dup10\n        /* \"contracts/LuckyRedEnvelopeV2.sol\":5287:5297  _autoClaim */\n      dup9\n        /* \"contracts/LuckyRedEnvelopeV2.sol\":5182:5298  RedEnvelopeCreated(currentId,_endTime,_maxTickets,_maxPrizeNum,_ticketPirce,_tokenAddress,_sendAllowAddr,_autoClaim) */\n      mload(0x40)\n      tag_155\n      swap8\n      swap7\n      swap6\n      swap5\n      swap4\n      swap3\n      swap2\n      swap1\n      tag_126\n      jump\t// in\n    tag_155:\n      mload(0x40)\n      dup1\n      swap2\n      sub\n      swap1\n      log2\n        /* \"contracts/LuckyRedEnvelopeV2.sol\":5313:5333  _injectTicketNum > 0 */\n      dup4\n      iszero\n        /* \"contracts/LuckyRedEnvelopeV2.sol\":5309:5477  if (_injectTicketNum > 0){... */\n      tag_157\n      jumpi\n        /* \"contracts/LuckyRedEnvelopeV2.sol\":5408:5465  _injectTickets(currentId,_injectAddress,_injectTicketNum) */\n      tag_157\n        /* \"contracts/LuckyRedEnvelopeV2.sol\":5423:5432  currentId */\n      sload(0x03)\n        /* \"contracts/LuckyRedEnvelopeV2.sol\":5433:5447  _injectAddress */\n      dup7\n        /* \"contracts/LuckyRedEnvelopeV2.sol\":5448:5464  _injectTicketNum */\n      dup7\n        /* \"contracts/LuckyRedEnvelopeV2.sol\":5408:5422  _injectTickets */\n      tag_158\n        /* \"contracts/LuckyRedEnvelopeV2.sol\":5408:5465  _injectTickets(currentId,_injectAddress,_injectTicketNum) */\n      jump\t// in\n    tag_157:\n        /* \"@openzeppelin/contracts/utils/ReentrancyGuard.sol\":2398:2418  _nonReentrantAfter() */\n      tag_159\n        /* \"@openzeppelin/contracts/utils/ReentrancyGuard.sol\":1713:1714  1 */\n      0x01\n        /* \"@openzeppelin/contracts/utils/ReentrancyGuard.sol\":2924:2931  _status */\n      0x00\n        /* \"@openzeppelin/contracts/utils/ReentrancyGuard.sol\":2924:2945  _status = NOT_ENTERED */\n      sstore\n        /* \"@openzeppelin/contracts/utils/ReentrancyGuard.sol\":2744:2952  function _nonReentrantAfter() private {... */\n      jump\n        /* \"@openzeppelin/contracts/utils/ReentrancyGuard.sol\":2398:2418  _nonReentrantAfter() */\n    tag_159:\n        /* \"contracts/LuckyRedEnvelopeV2.sol\":4597:5484  function createRedEnvelopeDetail(... */\n      pop\n      pop\n      pop\n      pop\n      pop\n      pop\n      pop\n      pop\n      pop\n      pop\n      jump\t// out\n        /* \"contracts/LuckyRedEnvelopeV2.sol\":5492:5941  function injectTickets(uint256 _id,uint256 _ticketNumbers)external nonReentrant{... */\n    tag_48:\n        /* \"@openzeppelin/contracts/utils/ReentrancyGuard.sol\":2356:2377  _nonReentrantBefore() */\n      tag_161\n        /* \"@openzeppelin/contracts/utils/ReentrancyGuard.sol\":2356:2375  _nonReentrantBefore */\n      tag_121\n        /* \"@openzeppelin/contracts/utils/ReentrancyGuard.sol\":2356:2377  _nonReentrantBefore() */\n      jump\t// in\n    tag_161:\n        /* \"contracts/LuckyRedEnvelopeV2.sol\":5590:5604  _ticketNumbers */\n      dup1\n        /* \"contracts/LuckyRedEnvelopeV2.sol\":5608:5609  0 */\n      0x00\n        /* \"contracts/LuckyRedEnvelopeV2.sol\":5590:5609  _ticketNumbers != 0 */\n      sub\n        /* \"contracts/LuckyRedEnvelopeV2.sol\":5582:5627  require(_ticketNumbers != 0,\"inject no zero\") */\n      tag_163\n      jumpi\n      mload(0x40)\n      shl(0xe5, 0x461bcd)\n      dup2\n      mstore\n        /* \"#utility.yul\":8212:8214   */\n      0x20\n        /* \"contracts/LuckyRedEnvelopeV2.sol\":5582:5627  require(_ticketNumbers != 0,\"inject no zero\") */\n      0x04\n      dup3\n      add\n        /* \"#utility.yul\":8194:8215   */\n      mstore\n        /* \"#utility.yul\":8251:8253   */\n      0x0e\n        /* \"#utility.yul\":8231:8249   */\n      0x24\n      dup3\n      add\n        /* \"#utility.yul\":8224:8254   */\n      mstore\n      shl(0x90, 0x696e6a656374206e6f207a65726f)\n        /* \"#utility.yul\":8270:8288   */\n      0x44\n      dup3\n      add\n        /* \"#utility.yul\":8263:8307   */\n      mstore\n        /* \"#utility.yul\":8324:8342   */\n      0x64\n      add\n        /* \"contracts/LuckyRedEnvelopeV2.sol\":5582:5627  require(_ticketNumbers != 0,\"inject no zero\") */\n      tag_117\n        /* \"#utility.yul\":8010:8348   */\n      jump\n        /* \"contracts/LuckyRedEnvelopeV2.sol\":5582:5627  require(_ticketNumbers != 0,\"inject no zero\") */\n    tag_163:\n        /* \"contracts/LuckyRedEnvelopeV2.sol\":5675:5686  Status.Open */\n      0x01\n        /* \"contracts/LuckyRedEnvelopeV2.sol\":5646:5664  _redEnvelopes[_id] */\n      0x00\n      dup4\n      dup2\n      mstore\n        /* \"contracts/LuckyRedEnvelopeV2.sol\":5646:5659  _redEnvelopes */\n      0x07\n        /* \"contracts/LuckyRedEnvelopeV2.sol\":5646:5664  _redEnvelopes[_id] */\n      0x20\n      mstore\n      0x40\n      swap1\n      keccak256\n        /* \"contracts/LuckyRedEnvelopeV2.sol\":5646:5671  _redEnvelopes[_id].status */\n      sload\n      shl(0xa0, 0x01)\n      swap1\n      div\n      0xff\n      and\n        /* \"contracts/LuckyRedEnvelopeV2.sol\":5646:5686  _redEnvelopes[_id].status == Status.Open */\n      0x03\n      dup2\n      gt\n      iszero\n      tag_169\n      jumpi\n      tag_169\n      tag_137\n      jump\t// in\n    tag_169:\n      eq\n        /* \"contracts/LuckyRedEnvelopeV2.sol\":5638:5714  require(_redEnvelopes[_id].status == Status.Open, \"RedEnvelope is not open\") */\n      tag_170\n      jumpi\n      mload(0x40)\n      shl(0xe5, 0x461bcd)\n      dup2\n      mstore\n      0x04\n      add\n      tag_117\n      swap1\n      tag_142\n      jump\t// in\n    tag_170:\n        /* \"contracts/LuckyRedEnvelopeV2.sol\":5729:5747  _redEnvelopes[_id] */\n      0x00\n      dup3\n      dup2\n      mstore\n        /* \"contracts/LuckyRedEnvelopeV2.sol\":5729:5742  _redEnvelopes */\n      0x07\n        /* \"contracts/LuckyRedEnvelopeV2.sol\":5729:5747  _redEnvelopes[_id] */\n      0x20\n      mstore\n      0x40\n      swap1\n      keccak256\n        /* \"contracts/LuckyRedEnvelopeV2.sol\":5729:5755  _redEnvelopes[_id].endTime */\n      0x01\n      add\n      sload\n        /* \"contracts/LuckyRedEnvelopeV2.sol\":5729:5760  _redEnvelopes[_id].endTime != 0 */\n      iszero\n        /* \"contracts/LuckyRedEnvelopeV2.sol\":5725:5869  if (_redEnvelopes[_id].endTime != 0){... */\n      tag_173\n      jumpi\n        /* \"contracts/LuckyRedEnvelopeV2.sol\":5802:5820  _redEnvelopes[_id] */\n      0x00\n      dup3\n      dup2\n      mstore\n        /* \"contracts/LuckyRedEnvelopeV2.sol\":5802:5815  _redEnvelopes */\n      0x07\n        /* \"contracts/LuckyRedEnvelopeV2.sol\":5802:5820  _redEnvelopes[_id] */\n      0x20\n      mstore\n      0x40\n      swap1\n      keccak256\n        /* \"contracts/LuckyRedEnvelopeV2.sol\":5802:5828  _redEnvelopes[_id].endTime */\n      0x01\n      add\n      sload\n        /* \"contracts/LuckyRedEnvelopeV2.sol\":5784:5799  block.timestamp */\n      timestamp\n        /* \"contracts/LuckyRedEnvelopeV2.sol\":5784:5828  block.timestamp < _redEnvelopes[_id].endTime */\n      lt\n        /* \"contracts/LuckyRedEnvelopeV2.sol\":5776:5857  require(block.timestamp < _redEnvelopes[_id].endTime, \"RedEnvelope is over time\") */\n      tag_173\n      jumpi\n      mload(0x40)\n      shl(0xe5, 0x461bcd)\n      dup2\n      mstore\n      0x04\n      add\n      tag_117\n      swap1\n      tag_175\n      jump\t// in\n    tag_173:\n        /* \"contracts/LuckyRedEnvelopeV2.sol\":5879:5933  _injectTickets(_id,address(msg.sender),_ticketNumbers) */\n      tag_176\n        /* \"contracts/LuckyRedEnvelopeV2.sol\":5894:5897  _id */\n      dup3\n        /* \"contracts/LuckyRedEnvelopeV2.sol\":5906:5916  msg.sender */\n      caller\n        /* \"contracts/LuckyRedEnvelopeV2.sol\":5918:5932  _ticketNumbers */\n      dup4\n        /* \"contracts/LuckyRedEnvelopeV2.sol\":5879:5893  _injectTickets */\n      tag_158\n        /* \"contracts/LuckyRedEnvelopeV2.sol\":5879:5933  _injectTickets(_id,address(msg.sender),_ticketNumbers) */\n      jump\t// in\n    tag_176:\n        /* \"@openzeppelin/contracts/utils/ReentrancyGuard.sol\":2398:2418  _nonReentrantAfter() */\n      tag_177\n        /* \"@openzeppelin/contracts/utils/ReentrancyGuard.sol\":1713:1714  1 */\n      0x01\n        /* \"@openzeppelin/contracts/utils/ReentrancyGuard.sol\":2924:2931  _status */\n      0x00\n        /* \"@openzeppelin/contracts/utils/ReentrancyGuard.sol\":2924:2945  _status = NOT_ENTERED */\n      sstore\n        /* \"@openzeppelin/contracts/utils/ReentrancyGuard.sol\":2744:2952  function _nonReentrantAfter() private {... */\n      jump\n        /* \"@openzeppelin/contracts/utils/ReentrancyGuard.sol\":2398:2418  _nonReentrantAfter() */\n    tag_177:\n        /* \"contracts/LuckyRedEnvelopeV2.sol\":5492:5941  function injectTickets(uint256 _id,uint256 _ticketNumbers)external nonReentrant{... */\n      pop\n      pop\n      jump\t// out\n        /* \"contracts/LuckyRedEnvelopeV2.sol\":8523:9589  function sendTickets(... */\n    tag_52:\n        /* \"@openzeppelin/contracts/utils/ReentrancyGuard.sol\":2356:2377  _nonReentrantBefore() */\n      tag_179\n        /* \"@openzeppelin/contracts/utils/ReentrancyGuard.sol\":2356:2375  _nonReentrantBefore */\n      tag_121\n        /* \"@openzeppelin/contracts/utils/ReentrancyGuard.sol\":2356:2377  _nonReentrantBefore() */\n      jump\t// in\n    tag_179:\n        /* \"contracts/LuckyRedEnvelopeV2.sol\":8708:8719  Status.Open */\n      0x01\n        /* \"contracts/LuckyRedEnvelopeV2.sol\":8679:8697  _redEnvelopes[_id] */\n      0x00\n      dup5\n      dup2\n      mstore\n        /* \"contracts/LuckyRedEnvelopeV2.sol\":8679:8692  _redEnvelopes */\n      0x07\n        /* \"contracts/LuckyRedEnvelopeV2.sol\":8679:8697  _redEnvelopes[_id] */\n      0x20\n      mstore\n      0x40\n      swap1\n      keccak256\n        /* \"contracts/LuckyRedEnvelopeV2.sol\":8679:8704  _redEnvelopes[_id].status */\n      sload\n      shl(0xa0, 0x01)\n      swap1\n      div\n      0xff\n      and\n        /* \"contracts/LuckyRedEnvelopeV2.sol\":8679:8719  _redEnvelopes[_id].status == Status.Open */\n      0x03\n      dup2\n      gt\n      iszero\n      tag_184\n      jumpi\n      tag_184\n      tag_137\n      jump\t// in\n    tag_184:\n      eq\n        /* \"contracts/LuckyRedEnvelopeV2.sol\":8671:8747  require(_redEnvelopes[_id].status == Status.Open, \"RedEnvelope is not open\") */\n      tag_185\n      jumpi\n      mload(0x40)\n      shl(0xe5, 0x461bcd)\n      dup2\n      mstore\n      0x04\n      add\n      tag_117\n      swap1\n      tag_142\n      jump\t// in\n    tag_185:\n        /* \"contracts/LuckyRedEnvelopeV2.sol\":8810:8811  0 */\n      0x00\n        /* \"contracts/LuckyRedEnvelopeV2.sol\":8766:8784  _redEnvelopes[_id] */\n      dup4\n      dup2\n      mstore\n        /* \"contracts/LuckyRedEnvelopeV2.sol\":8766:8779  _redEnvelopes */\n      0x07\n        /* \"contracts/LuckyRedEnvelopeV2.sol\":8766:8784  _redEnvelopes[_id] */\n      0x20\n      mstore\n      0x40\n      swap1\n      keccak256\n        /* \"contracts/LuckyRedEnvelopeV2.sol\":8766:8798  _redEnvelopes[_id].sendAllowAddr */\n      0x0b\n      add\n      sload\n      sub(shl(0xa0, 0x01), 0x01)\n      and\n        /* \"contracts/LuckyRedEnvelopeV2.sol\":8758:8836  require(_redEnvelopes[_id].sendAllowAddr != address(0), \"no get ticket model\") */\n      tag_187\n      jumpi\n      mload(0x40)\n      shl(0xe5, 0x461bcd)\n      dup2\n      mstore\n        /* \"#utility.yul\":8908:8910   */\n      0x20\n        /* \"contracts/LuckyRedEnvelopeV2.sol\":8758:8836  require(_redEnvelopes[_id].sendAllowAddr != address(0), \"no get ticket model\") */\n      0x04\n      dup3\n      add\n        /* \"#utility.yul\":8890:8911   */\n      mstore\n        /* \"#utility.yul\":8947:8949   */\n      0x13\n        /* \"#utility.yul\":8927:8945   */\n      0x24\n      dup3\n      add\n        /* \"#utility.yul\":8920:8950   */\n      mstore\n      shl(0x6a, 0x1b9bc819d95d081d1a58dad95d081b5bd9195b)\n        /* \"#utility.yul\":8966:8984   */\n      0x44\n      dup3\n      add\n        /* \"#utility.yul\":8959:9008   */\n      mstore\n        /* \"#utility.yul\":9025:9043   */\n      0x64\n      add\n        /* \"contracts/LuckyRedEnvelopeV2.sol\":8758:8836  require(_redEnvelopes[_id].sendAllowAddr != address(0), \"no get ticket model\") */\n      tag_117\n        /* \"#utility.yul\":8706:9049   */\n      jump\n        /* \"contracts/LuckyRedEnvelopeV2.sol\":8758:8836  require(_redEnvelopes[_id].sendAllowAddr != address(0), \"no get ticket model\") */\n    tag_187:\n        /* \"contracts/LuckyRedEnvelopeV2.sol\":8855:8873  _redEnvelopes[_id] */\n      0x00\n      dup4\n      dup2\n      mstore\n        /* \"contracts/LuckyRedEnvelopeV2.sol\":8855:8868  _redEnvelopes */\n      0x07\n        /* \"contracts/LuckyRedEnvelopeV2.sol\":8855:8873  _redEnvelopes[_id] */\n      0x20\n      mstore\n      0x40\n      swap1\n      keccak256\n        /* \"contracts/LuckyRedEnvelopeV2.sol\":8855:8887  _redEnvelopes[_id].sendAllowAddr */\n      0x0b\n      add\n      sload\n      sub(shl(0xa0, 0x01), 0x01)\n      and\n        /* \"contracts/LuckyRedEnvelopeV2.sol\":8899:8909  msg.sender */\n      caller\n        /* \"contracts/LuckyRedEnvelopeV2.sol\":8855:8910  _redEnvelopes[_id].sendAllowAddr == address(msg.sender) */\n      eq\n        /* \"contracts/LuckyRedEnvelopeV2.sol\":8847:8935  require(_redEnvelopes[_id].sendAllowAddr == address(msg.sender), \"not allow get ticket\") */\n      tag_190\n      jumpi\n      mload(0x40)\n      shl(0xe5, 0x461bcd)\n      dup2\n      mstore\n        /* \"#utility.yul\":9256:9258   */\n      0x20\n        /* \"contracts/LuckyRedEnvelopeV2.sol\":8847:8935  require(_redEnvelopes[_id].sendAllowAddr == address(msg.sender), \"not allow get ticket\") */\n      0x04\n      dup3\n      add\n        /* \"#utility.yul\":9238:9259   */\n      mstore\n        /* \"#utility.yul\":9295:9297   */\n      0x14\n        /* \"#utility.yul\":9275:9293   */\n      0x24\n      dup3\n      add\n        /* \"#utility.yul\":9268:9298   */\n      mstore\n      shl(0x62, 0x1b9bdd08185b1b1bddc819d95d081d1a58dad95d)\n        /* \"#utility.yul\":9314:9332   */\n      0x44\n      dup3\n      add\n        /* \"#utility.yul\":9307:9357   */\n      mstore\n        /* \"#utility.yul\":9374:9392   */\n      0x64\n      add\n        /* \"contracts/LuckyRedEnvelopeV2.sol\":8847:8935  require(_redEnvelopes[_id].sendAllowAddr == address(msg.sender), \"not allow get ticket\") */\n      tag_117\n        /* \"#utility.yul\":9054:9398   */\n      jump\n        /* \"contracts/LuckyRedEnvelopeV2.sol\":8847:8935  require(_redEnvelopes[_id].sendAllowAddr == address(msg.sender), \"not allow get ticket\") */\n    tag_190:\n        /* \"contracts/LuckyRedEnvelopeV2.sol\":8954:8968  _ticketNumbers */\n      dup1\n        /* \"contracts/LuckyRedEnvelopeV2.sol\":8972:8973  0 */\n      0x00\n        /* \"contracts/LuckyRedEnvelopeV2.sol\":8954:8973  _ticketNumbers != 0 */\n      sub\n        /* \"contracts/LuckyRedEnvelopeV2.sol\":8946:8999  require(_ticketNumbers != 0 ,\"ticketNumbers no zero\") */\n      tag_193\n      jumpi\n      mload(0x40)\n      shl(0xe5, 0x461bcd)\n      dup2\n      mstore\n        /* \"#utility.yul\":9605:9607   */\n      0x20\n        /* \"contracts/LuckyRedEnvelopeV2.sol\":8946:8999  require(_ticketNumbers != 0 ,\"ticketNumbers no zero\") */\n      0x04\n      dup3\n      add\n        /* \"#utility.yul\":9587:9608   */\n      mstore\n        /* \"#utility.yul\":9644:9646   */\n      0x15\n        /* \"#utility.yul\":9624:9642   */\n      0x24\n      dup3\n      add\n        /* \"#utility.yul\":9617:9647   */\n      mstore\n      shl(0x58, 0x7469636b65744e756d62657273206e6f207a65726f)\n        /* \"#utility.yul\":9663:9681   */\n      0x44\n      dup3\n      add\n        /* \"#utility.yul\":9656:9707   */\n      mstore\n        /* \"#utility.yul\":9724:9742   */\n      0x64\n      add\n        /* \"contracts/LuckyRedEnvelopeV2.sol\":8946:8999  require(_ticketNumbers != 0 ,\"ticketNumbers no zero\") */\n      tag_117\n        /* \"#utility.yul\":9403:9748   */\n      jump\n        /* \"contracts/LuckyRedEnvelopeV2.sol\":8946:8999  require(_ticketNumbers != 0 ,\"ticketNumbers no zero\") */\n    tag_193:\n        /* \"contracts/LuckyRedEnvelopeV2.sol\":9014:9032  _redEnvelopes[_id] */\n      0x00\n      dup4\n      dup2\n      mstore\n        /* \"contracts/LuckyRedEnvelopeV2.sol\":9014:9027  _redEnvelopes */\n      0x07\n        /* \"contracts/LuckyRedEnvelopeV2.sol\":9014:9032  _redEnvelopes[_id] */\n      0x20\n      mstore\n      0x40\n      swap1\n      keccak256\n        /* \"contracts/LuckyRedEnvelopeV2.sol\":9014:9040  _redEnvelopes[_id].endTime */\n      0x01\n      add\n      sload\n        /* \"contracts/LuckyRedEnvelopeV2.sol\":9014:9045  _redEnvelopes[_id].endTime != 0 */\n      iszero\n        /* \"contracts/LuckyRedEnvelopeV2.sol\":9010:9154  if (_redEnvelopes[_id].endTime != 0){... */\n      tag_197\n      jumpi\n        /* \"contracts/LuckyRedEnvelopeV2.sol\":9087:9105  _redEnvelopes[_id] */\n      0x00\n      dup4\n      dup2\n      mstore\n        /* \"contracts/LuckyRedEnvelopeV2.sol\":9087:9100  _redEnvelopes */\n      0x07\n        /* \"contracts/LuckyRedEnvelopeV2.sol\":9087:9105  _redEnvelopes[_id] */\n      0x20\n      mstore\n      0x40\n      swap1\n      keccak256\n        /* \"contracts/LuckyRedEnvelopeV2.sol\":9087:9113  _redEnvelopes[_id].endTime */\n      0x01\n      add\n      sload\n        /* \"contracts/LuckyRedEnvelopeV2.sol\":9069:9084  block.timestamp */\n      timestamp\n        /* \"contracts/LuckyRedEnvelopeV2.sol\":9069:9113  block.timestamp < _redEnvelopes[_id].endTime */\n      lt\n        /* \"contracts/LuckyRedEnvelopeV2.sol\":9061:9142  require(block.timestamp < _redEnvelopes[_id].endTime, \"RedEnvelope is over time\") */\n      tag_197\n      jumpi\n      mload(0x40)\n      shl(0xe5, 0x461bcd)\n      dup2\n      mstore\n      0x04\n      add\n      tag_117\n      swap1\n      tag_175\n      jump\t// in\n    tag_197:\n        /* \"contracts/LuckyRedEnvelopeV2.sol\":9168:9186  _redEnvelopes[_id] */\n      0x00\n      dup4\n      dup2\n      mstore\n        /* \"contracts/LuckyRedEnvelopeV2.sol\":9168:9181  _redEnvelopes */\n      0x07\n        /* \"contracts/LuckyRedEnvelopeV2.sol\":9168:9186  _redEnvelopes[_id] */\n      0x20\n      mstore\n      0x40\n      swap1\n      keccak256\n        /* \"contracts/LuckyRedEnvelopeV2.sol\":9168:9197  _redEnvelopes[_id].maxTickets */\n      0x02\n      add\n      sload\n        /* \"contracts/LuckyRedEnvelopeV2.sol\":9168:9202  _redEnvelopes[_id].maxTickets != 0 */\n      iszero\n        /* \"contracts/LuckyRedEnvelopeV2.sol\":9164:9382  if (_redEnvelopes[_id].maxTickets != 0){... */\n      tag_203\n      jumpi\n        /* \"contracts/LuckyRedEnvelopeV2.sol\":9310:9328  _redEnvelopes[_id] */\n      0x00\n      dup4\n      dup2\n      mstore\n        /* \"contracts/LuckyRedEnvelopeV2.sol\":9310:9323  _redEnvelopes */\n      0x07\n        /* \"contracts/LuckyRedEnvelopeV2.sol\":9310:9328  _redEnvelopes[_id] */\n      0x20\n      mstore\n      0x40\n      swap1\n      keccak256\n        /* \"contracts/LuckyRedEnvelopeV2.sol\":9310:9339  _redEnvelopes[_id].maxTickets */\n      0x02\n      dup2\n      add\n      sload\n        /* \"contracts/LuckyRedEnvelopeV2.sol\":9258:9288  _redEnvelopes[_id].sendTickets */\n      0x05\n      dup3\n      add\n      sload\n        /* \"contracts/LuckyRedEnvelopeV2.sol\":9226:9255  _redEnvelopes[_id].buyTickets */\n      0x04\n      swap1\n      swap3\n      add\n      sload\n        /* \"contracts/LuckyRedEnvelopeV2.sol\":9310:9339  _redEnvelopes[_id].maxTickets */\n      swap1\n      swap2\n        /* \"contracts/LuckyRedEnvelopeV2.sol\":9292:9306  _ticketNumbers */\n      dup4\n      swap2\n        /* \"contracts/LuckyRedEnvelopeV2.sol\":9226:9288  _redEnvelopes[_id].buyTickets + _redEnvelopes[_id].sendTickets */\n      tag_200\n      swap2\n        /* \"contracts/LuckyRedEnvelopeV2.sol\":9258:9288  _redEnvelopes[_id].sendTickets */\n      swap1\n        /* \"contracts/LuckyRedEnvelopeV2.sol\":9226:9288  _redEnvelopes[_id].buyTickets + _redEnvelopes[_id].sendTickets */\n      tag_201\n      jump\t// in\n    tag_200:\n        /* \"contracts/LuckyRedEnvelopeV2.sol\":9226:9306  _redEnvelopes[_id].buyTickets + _redEnvelopes[_id].sendTickets +  _ticketNumbers */\n      tag_202\n      swap2\n      swap1\n      tag_201\n      jump\t// in\n    tag_202:\n        /* \"contracts/LuckyRedEnvelopeV2.sol\":9226:9339  _redEnvelopes[_id].buyTickets + _redEnvelopes[_id].sendTickets +  _ticketNumbers <= _redEnvelopes[_id].maxTickets */\n      gt\n      iszero\n        /* \"contracts/LuckyRedEnvelopeV2.sol\":9218:9370  require(_redEnvelopes[_id].buyTickets + _redEnvelopes[_id].sendTickets +  _ticketNumbers <= _redEnvelopes[_id].maxTickets, \"RedEnvelope is over ticket\") */\n      tag_203\n      jumpi\n      mload(0x40)\n      shl(0xe5, 0x461bcd)\n      dup2\n      mstore\n        /* \"#utility.yul\":10217:10219   */\n      0x20\n        /* \"contracts/LuckyRedEnvelopeV2.sol\":9218:9370  require(_redEnvelopes[_id].buyTickets + _redEnvelopes[_id].sendTickets +  _ticketNumbers <= _redEnvelopes[_id].maxTickets, \"RedEnvelope is over ticket\") */\n      0x04\n      dup3\n      add\n        /* \"#utility.yul\":10199:10220   */\n      mstore\n        /* \"#utility.yul\":10256:10258   */\n      0x1a\n        /* \"#utility.yul\":10236:10254   */\n      0x24\n      dup3\n      add\n        /* \"#utility.yul\":10229:10259   */\n      mstore\n        /* \"#utility.yul\":10295:10323   */\n      0x526564456e76656c6f7065206973206f766572207469636b6574000000000000\n        /* \"#utility.yul\":10275:10293   */\n      0x44\n      dup3\n      add\n        /* \"#utility.yul\":10268:10324   */\n      mstore\n        /* \"#utility.yul\":10341:10359   */\n      0x64\n      add\n        /* \"contracts/LuckyRedEnvelopeV2.sol\":9218:9370  require(_redEnvelopes[_id].buyTickets + _redEnvelopes[_id].sendTickets +  _ticketNumbers <= _redEnvelopes[_id].maxTickets, \"RedEnvelope is over ticket\") */\n      tag_117\n        /* \"#utility.yul\":10015:10365   */\n      jump\n        /* \"contracts/LuckyRedEnvelopeV2.sol\":9218:9370  require(_redEnvelopes[_id].buyTickets + _redEnvelopes[_id].sendTickets +  _ticketNumbers <= _redEnvelopes[_id].maxTickets, \"RedEnvelope is over ticket\") */\n    tag_203:\n        /* \"contracts/LuckyRedEnvelopeV2.sol\":9392:9416  uint256 lastTotalNumbers */\n      0x00\n        /* \"contracts/LuckyRedEnvelopeV2.sol\":9419:9472  _fillTicket(_id,_receiveAddress,_ticketNumbers,false) */\n      tag_206\n        /* \"contracts/LuckyRedEnvelopeV2.sol\":9431:9434  _id */\n      dup5\n        /* \"contracts/LuckyRedEnvelopeV2.sol\":9435:9450  _receiveAddress */\n      dup5\n        /* \"contracts/LuckyRedEnvelopeV2.sol\":9451:9465  _ticketNumbers */\n      dup5\n        /* \"contracts/LuckyRedEnvelopeV2.sol\":9466:9471  false */\n      0x00\n        /* \"contracts/LuckyRedEnvelopeV2.sol\":9419:9430  _fillTicket */\n      tag_207\n        /* \"contracts/LuckyRedEnvelopeV2.sol\":9419:9472  _fillTicket(_id,_receiveAddress,_ticketNumbers,false) */\n      jump\t// in\n    tag_206:\n        /* \"contracts/LuckyRedEnvelopeV2.sol\":9498:9581  TicketsGet(_id,address(msg.sender),_receiveAddress,lastTotalNumbers,_ticketNumbers) */\n      0x40\n      dup1\n      mload\n        /* \"#utility.yul\":10544:10569   */\n      dup3\n      dup2\n      mstore\n        /* \"#utility.yul\":10600:10602   */\n      0x20\n        /* \"#utility.yul\":10585:10603   */\n      dup2\n      add\n        /* \"#utility.yul\":10578:10612   */\n      dup6\n      swap1\n      mstore\n        /* \"contracts/LuckyRedEnvelopeV2.sol\":9392:9472  uint256 lastTotalNumbers = _fillTicket(_id,_receiveAddress,_ticketNumbers,false) */\n      swap2\n      swap3\n      pop\n      sub(shl(0xa0, 0x01), 0x01)\n        /* \"contracts/LuckyRedEnvelopeV2.sol\":9498:9581  TicketsGet(_id,address(msg.sender),_receiveAddress,lastTotalNumbers,_ticketNumbers) */\n      dup6\n      and\n      swap2\n        /* \"contracts/LuckyRedEnvelopeV2.sol\":9521:9531  msg.sender */\n      caller\n      swap2\n        /* \"contracts/LuckyRedEnvelopeV2.sol\":9509:9512  _id */\n      dup8\n      swap2\n        /* \"contracts/LuckyRedEnvelopeV2.sol\":9498:9581  TicketsGet(_id,address(msg.sender),_receiveAddress,lastTotalNumbers,_ticketNumbers) */\n      0x044a018626111fd20a3d6ed65f4bf175632a5877b08c4aa033d87b2c7b6318b5\n      swap2\n        /* \"#utility.yul\":10517:10535   */\n      add\n        /* \"contracts/LuckyRedEnvelopeV2.sol\":9498:9581  TicketsGet(_id,address(msg.sender),_receiveAddress,lastTotalNumbers,_ticketNumbers) */\n      mload(0x40)\n      dup1\n      swap2\n      sub\n      swap1\n      log4\n        /* \"contracts/LuckyRedEnvelopeV2.sol\":8660:9589  {... */\n      pop\n        /* \"@openzeppelin/contracts/utils/ReentrancyGuard.sol\":2398:2418  _nonReentrantAfter() */\n      tag_210\n        /* \"@openzeppelin/contracts/utils/ReentrancyGuard.sol\":1713:1714  1 */\n      0x01\n        /* \"@openzeppelin/contracts/utils/ReentrancyGuard.sol\":2924:2931  _status */\n      0x00\n        /* \"@openzeppelin/contracts/utils/ReentrancyGuard.sol\":2924:2945  _status = NOT_ENTERED */\n      sstore\n        /* \"@openzeppelin/contracts/utils/ReentrancyGuard.sol\":2744:2952  function _nonReentrantAfter() private {... */\n      jump\n        /* \"@openzeppelin/contracts/utils/ReentrancyGuard.sol\":2398:2418  _nonReentrantAfter() */\n    tag_210:\n        /* \"contracts/LuckyRedEnvelopeV2.sol\":8523:9589  function sendTickets(... */\n      pop\n      pop\n      pop\n      jump\t// out\n        /* \"@openzeppelin/contracts/access/Ownable.sol\":2293:2394  function renounceOwnership() public virtual onlyOwner {... */\n    tag_54:\n        /* \"@openzeppelin/contracts/access/Ownable.sol\":1531:1544  _checkOwner() */\n      tag_212\n        /* \"@openzeppelin/contracts/access/Ownable.sol\":1531:1542  _checkOwner */\n      tag_213\n        /* \"@openzeppelin/contracts/access/Ownable.sol\":1531:1544  _checkOwner() */\n      jump\t// in\n    tag_212:\n        /* \"@openzeppelin/contracts/access/Ownable.sol\":2357:2387  _transferOwnership(address(0)) */\n      tag_215\n        /* \"@openzeppelin/contracts/access/Ownable.sol\":2384:2385  0 */\n      0x00\n        /* \"@openzeppelin/contracts/access/Ownable.sol\":2357:2375  _transferOwnership */\n      tag_216\n        /* \"@openzeppelin/contracts/access/Ownable.sol\":2357:2387  _transferOwnership(address(0)) */\n      jump\t// in\n    tag_215:\n        /* \"@openzeppelin/contracts/access/Ownable.sol\":2293:2394  function renounceOwnership() public virtual onlyOwner {... */\n      jump\t// out\n        /* \"contracts/LuckyRedEnvelopeV2.sol\":18845:18968  function viewRedEnvelope(uint256 _id)external view returns (RedEnvelope memory){... */\n    tag_61:\n        /* \"contracts/LuckyRedEnvelopeV2.sol\":18905:18923  RedEnvelope memory */\n      tag_218\n      0x40\n      dup1\n      mload\n      0x01e0\n      dup2\n      add\n      swap1\n      swap2\n      mstore\n      0x00\n      dup1\n      dup3\n      mstore\n      0x20\n      dup3\n      add\n      swap1\n      dup2\n      mstore\n      0x20\n      add\n      0x00\n      dup2\n      mstore\n      0x20\n      add\n      0x00\n      dup2\n      mstore\n      0x20\n      add\n      0x00\n      dup2\n      mstore\n      0x20\n      add\n      0x00\n      dup2\n      mstore\n      0x20\n      add\n      0x00\n      dup2\n      mstore\n      0x20\n      add\n      0x00\n      dup2\n      mstore\n      0x20\n      add\n      0x00\n      dup2\n      mstore\n      0x20\n      add\n      0x00\n      dup2\n      mstore\n      0x20\n      add\n      0x00\n      dup2\n      mstore\n      0x20\n      add\n      0x00\n      dup2\n      mstore\n      0x20\n      add\n      and(sub(shl(0xa0, 0x01), 0x01), 0x00)\n      dup2\n      mstore\n      0x20\n      add\n      0x00\n      dup2\n      mstore\n      0x20\n      add\n      iszero(iszero(0x00))\n      dup2\n      mstore\n      pop\n      swap1\n      jump\n    tag_218:\n        /* \"contracts/LuckyRedEnvelopeV2.sol\":18942:18960  _redEnvelopes[_id] */\n      0x00\n      dup3\n      dup2\n      mstore\n        /* \"contracts/LuckyRedEnvelopeV2.sol\":18942:18955  _redEnvelopes */\n      0x07\n        /* \"contracts/LuckyRedEnvelopeV2.sol\":18942:18960  _redEnvelopes[_id] */\n      0x20\n      swap1\n      dup2\n      mstore\n      0x40\n      swap2\n      dup3\n      swap1\n      keccak256\n        /* \"contracts/LuckyRedEnvelopeV2.sol\":18935:18960  return _redEnvelopes[_id] */\n      dup3\n      mload\n      0x01e0\n      dup2\n      add\n      swap1\n      swap4\n      mstore\n      dup1\n      sload\n      sub(shl(0xa0, 0x01), 0x01)\n      dup2\n      and\n      dup5\n      mstore\n        /* \"contracts/LuckyRedEnvelopeV2.sol\":18942:18960  _redEnvelopes[_id] */\n      swap1\n      swap2\n        /* \"contracts/LuckyRedEnvelopeV2.sol\":18935:18960  return _redEnvelopes[_id] */\n      dup4\n      add\n      swap1\n      shl(0xa0, 0x01)\n      swap1\n      div\n      0xff\n      and\n      0x03\n      dup2\n      gt\n      iszero\n      tag_222\n      jumpi\n      tag_222\n      tag_137\n      jump\t// in\n    tag_222:\n      0x03\n      dup2\n      gt\n      iszero\n      tag_224\n      jumpi\n      tag_224\n      tag_137\n      jump\t// in\n    tag_224:\n      dup2\n      mstore\n      0x01\n      dup3\n      add\n      sload\n      0x20\n      dup3\n      add\n      mstore\n      0x02\n      dup3\n      add\n      sload\n      0x40\n      dup3\n      add\n      mstore\n      0x03\n      dup3\n      add\n      sload\n      0x60\n      dup3\n      add\n      mstore\n      0x04\n      dup3\n      add\n      sload\n      0x80\n      dup3\n      add\n      mstore\n      0x05\n      dup3\n      add\n      sload\n      0xa0\n      dup3\n      add\n      mstore\n      0x06\n      dup3\n      add\n      sload\n      0xc0\n      dup3\n      add\n      mstore\n      0x07\n      dup3\n      add\n      sload\n      0xe0\n      dup3\n      add\n      mstore\n      0x08\n      dup3\n      add\n      sload\n      0x0100\n      dup3\n      add\n      mstore\n      0x09\n      dup3\n      add\n      sload\n      0x0120\n      dup3\n      add\n      mstore\n      0x0a\n      dup3\n      add\n      sload\n      0x0140\n      dup3\n      add\n      mstore\n      0x0b\n      dup3\n      add\n      sload\n      sub(shl(0xa0, 0x01), 0x01)\n      and\n      0x0160\n      dup3\n      add\n      mstore\n      0x0c\n      dup3\n      add\n      sload\n      0x0180\n      dup3\n      add\n      mstore\n      0x0d\n      swap1\n      swap2\n      add\n      sload\n      0xff\n      and\n      iszero\n      iszero\n      0x01a0\n      swap1\n      swap2\n      add\n      mstore\n      swap3\n        /* \"contracts/LuckyRedEnvelopeV2.sol\":18845:18968  function viewRedEnvelope(uint256 _id)external view returns (RedEnvelope memory){... */\n      swap2\n      pop\n      pop\n      jump\t// out\n        /* \"contracts/LuckyRedEnvelopeV2.sol\":2874:3159  function setTicketToken(address _defaultTicketToken,uint256 _defaultTicketPirce) external onlyOperator{... */\n    tag_67:\n        /* \"contracts/LuckyRedEnvelopeV2.sol\":1589:1599  msg.sender */\n      caller\n        /* \"contracts/LuckyRedEnvelopeV2.sol\":1569:1600  operatorAddressList[msg.sender] */\n      0x00\n      swap1\n      dup2\n      mstore\n        /* \"contracts/LuckyRedEnvelopeV2.sol\":1569:1588  operatorAddressList */\n      0x06\n        /* \"contracts/LuckyRedEnvelopeV2.sol\":1569:1600  operatorAddressList[msg.sender] */\n      0x20\n      mstore\n      0x40\n      swap1\n      keccak256\n      sload\n      0xff\n      and\n        /* \"contracts/LuckyRedEnvelopeV2.sol\":1569:1608  operatorAddressList[msg.sender] == true */\n      iszero\n      iszero\n        /* \"contracts/LuckyRedEnvelopeV2.sol\":1569:1600  operatorAddressList[msg.sender] */\n      0x01\n        /* \"contracts/LuckyRedEnvelopeV2.sol\":1569:1608  operatorAddressList[msg.sender] == true */\n      eq\n        /* \"contracts/LuckyRedEnvelopeV2.sol\":1561:1625  require(operatorAddressList[msg.sender] == true, \"Not operator\") */\n      tag_226\n      jumpi\n      mload(0x40)\n      shl(0xe5, 0x461bcd)\n      dup2\n      mstore\n      0x04\n      add\n      tag_117\n      swap1\n      tag_118\n      jump\t// in\n    tag_226:\n        /* \"contracts/LuckyRedEnvelopeV2.sol\":2987:3005  defaultTicketToken */\n      0x02\n        /* \"contracts/LuckyRedEnvelopeV2.sol\":2987:3027  defaultTicketToken = _defaultTicketToken */\n      dup1\n      sload\n      not(sub(shl(0xa0, 0x01), 0x01))\n      and\n      sub(shl(0xa0, 0x01), 0x01)\n      dup5\n      and\n      swap1\n      dup2\n      or\n      swap1\n      swap2\n      sstore\n        /* \"contracts/LuckyRedEnvelopeV2.sol\":3038:3056  defaultTicketPirce */\n      0x04\n        /* \"contracts/LuckyRedEnvelopeV2.sol\":3038:3078  defaultTicketPirce = _defaultTicketPirce */\n      dup3\n      swap1\n      sstore\n        /* \"contracts/LuckyRedEnvelopeV2.sol\":3094:3151  DefaultTokenChange(defaultTicketToken,defaultTicketPirce) */\n      0x40\n      dup1\n      mload\n        /* \"#utility.yul\":10797:10848   */\n      swap2\n      dup3\n      mstore\n        /* \"#utility.yul\":10879:10881   */\n      0x20\n        /* \"#utility.yul\":10864:10882   */\n      dup3\n      add\n        /* \"#utility.yul\":10857:10891   */\n      dup4\n      swap1\n      mstore\n        /* \"contracts/LuckyRedEnvelopeV2.sol\":3094:3151  DefaultTokenChange(defaultTicketToken,defaultTicketPirce) */\n      0xdc907cb17a7da8e1dffad2b7205a6ca1111cbb38a0f1f4b2b60a31eb673ca4a2\n      swap2\n        /* \"#utility.yul\":10770:10788   */\n      add\n        /* \"contracts/LuckyRedEnvelopeV2.sol\":3094:3151  DefaultTokenChange(defaultTicketToken,defaultTicketPirce) */\n    tag_229:\n      mload(0x40)\n      dup1\n      swap2\n      sub\n      swap1\n      log1\n        /* \"contracts/LuckyRedEnvelopeV2.sol\":2874:3159  function setTicketToken(address _defaultTicketToken,uint256 _defaultTicketPirce) external onlyOperator{... */\n      pop\n      pop\n      jump\t// out\n        /* \"contracts/LuckyRedEnvelopeV2.sol\":13062:14817  function drawPrize(... */\n    tag_85:\n        /* \"contracts/LuckyRedEnvelopeV2.sol\":1589:1599  msg.sender */\n      caller\n        /* \"contracts/LuckyRedEnvelopeV2.sol\":1569:1600  operatorAddressList[msg.sender] */\n      0x00\n      swap1\n      dup2\n      mstore\n        /* \"contracts/LuckyRedEnvelopeV2.sol\":1569:1588  operatorAddressList */\n      0x06\n        /* \"contracts/LuckyRedEnvelopeV2.sol\":1569:1600  operatorAddressList[msg.sender] */\n      0x20\n      mstore\n      0x40\n      swap1\n      keccak256\n      sload\n      0xff\n      and\n        /* \"contracts/LuckyRedEnvelopeV2.sol\":1569:1608  operatorAddressList[msg.sender] == true */\n      iszero\n      iszero\n        /* \"contracts/LuckyRedEnvelopeV2.sol\":1569:1600  operatorAddressList[msg.sender] */\n      0x01\n        /* \"contracts/LuckyRedEnvelopeV2.sol\":1569:1608  operatorAddressList[msg.sender] == true */\n      eq\n        /* \"contracts/LuckyRedEnvelopeV2.sol\":1561:1625  require(operatorAddressList[msg.sender] == true, \"Not operator\") */\n      tag_233\n      jumpi\n      mload(0x40)\n      shl(0xe5, 0x461bcd)\n      dup2\n      mstore\n      0x04\n      add\n      tag_117\n      swap1\n      tag_118\n      jump\t// in\n    tag_233:\n        /* \"@openzeppelin/contracts/utils/ReentrancyGuard.sol\":2356:2377  _nonReentrantBefore() */\n      tag_236\n        /* \"@openzeppelin/contracts/utils/ReentrancyGuard.sol\":2356:2375  _nonReentrantBefore */\n      tag_121\n        /* \"@openzeppelin/contracts/utils/ReentrancyGuard.sol\":2356:2377  _nonReentrantBefore() */\n      jump\t// in\n    tag_236:\n        /* \"contracts/LuckyRedEnvelopeV2.sol\":13216:13228  Status.Close */\n      0x02\n        /* \"contracts/LuckyRedEnvelopeV2.sol\":13187:13205  _redEnvelopes[_id] */\n      0x00\n      dup4\n      dup2\n      mstore\n        /* \"contracts/LuckyRedEnvelopeV2.sol\":13187:13200  _redEnvelopes */\n      0x07\n        /* \"contracts/LuckyRedEnvelopeV2.sol\":13187:13205  _redEnvelopes[_id] */\n      0x20\n      mstore\n      0x40\n      swap1\n      keccak256\n        /* \"contracts/LuckyRedEnvelopeV2.sol\":13187:13212  _redEnvelopes[_id].status */\n      sload\n      shl(0xa0, 0x01)\n      swap1\n      div\n      0xff\n      and\n        /* \"contracts/LuckyRedEnvelopeV2.sol\":13187:13228  _redEnvelopes[_id].status == Status.Close */\n      0x03\n      dup2\n      gt\n      iszero\n      tag_241\n      jumpi\n      tag_241\n      tag_137\n      jump\t// in\n    tag_241:\n      eq\n        /* \"contracts/LuckyRedEnvelopeV2.sol\":13179:13254  require(_redEnvelopes[_id].status == Status.Close, \"RedEnvelope not close\") */\n      tag_242\n      jumpi\n      mload(0x40)\n      shl(0xe5, 0x461bcd)\n      dup2\n      mstore\n        /* \"#utility.yul\":11104:11106   */\n      0x20\n        /* \"contracts/LuckyRedEnvelopeV2.sol\":13179:13254  require(_redEnvelopes[_id].status == Status.Close, \"RedEnvelope not close\") */\n      0x04\n      dup3\n      add\n        /* \"#utility.yul\":11086:11107   */\n      mstore\n        /* \"#utility.yul\":11143:11145   */\n      0x15\n        /* \"#utility.yul\":11123:11141   */\n      0x24\n      dup3\n      add\n        /* \"#utility.yul\":11116:11146   */\n      mstore\n      shl(0x58, 0x526564456e76656c6f7065206e6f7420636c6f7365)\n        /* \"#utility.yul\":11162:11180   */\n      0x44\n      dup3\n      add\n        /* \"#utility.yul\":11155:11206   */\n      mstore\n        /* \"#utility.yul\":11223:11241   */\n      0x64\n      add\n        /* \"contracts/LuckyRedEnvelopeV2.sol\":13179:13254  require(_redEnvelopes[_id].status == Status.Close, \"RedEnvelope not close\") */\n      tag_117\n        /* \"#utility.yul\":10902:11247   */\n      jump\n        /* \"contracts/LuckyRedEnvelopeV2.sol\":13179:13254  require(_redEnvelopes[_id].status == Status.Close, \"RedEnvelope not close\") */\n    tag_242:\n        /* \"contracts/LuckyRedEnvelopeV2.sol\":13265:13283  _redEnvelopes[_id] */\n      0x00\n      dup3\n      dup2\n      mstore\n        /* \"contracts/LuckyRedEnvelopeV2.sol\":13265:13278  _redEnvelopes */\n      0x07\n        /* \"contracts/LuckyRedEnvelopeV2.sol\":13265:13283  _redEnvelopes[_id] */\n      0x20\n      swap1\n      dup2\n      mstore\n      0x40\n      swap2\n      dup3\n      swap1\n      keccak256\n        /* \"contracts/LuckyRedEnvelopeV2.sol\":13265:13309  _redEnvelopes[_id].status = Status.Claimable */\n      dup1\n      sload\n      not(shl(0xa0, 0xff))\n      and\n      shl(0xa0, 0x03)\n      or\n      swap1\n      sstore\n        /* \"contracts/LuckyRedEnvelopeV2.sol\":13325:13366  RedEnvelopeClaimable(_id,block.timestamp) */\n      swap1\n      mload\n        /* \"contracts/LuckyRedEnvelopeV2.sol\":13350:13365  block.timestamp */\n      timestamp\n        /* \"#utility.yul\":1919:1944   */\n      dup2\n      mstore\n        /* \"contracts/LuckyRedEnvelopeV2.sol\":13265:13283  _redEnvelopes[_id] */\n      dup4\n      swap2\n        /* \"contracts/LuckyRedEnvelopeV2.sol\":13325:13366  RedEnvelopeClaimable(_id,block.timestamp) */\n      0x66f6b4cd34444af165fb78bce3996496528b37af161c26f737b7341cc37063bb\n      swap2\n        /* \"#utility.yul\":1892:1910   */\n      add\n        /* \"contracts/LuckyRedEnvelopeV2.sol\":13325:13366  RedEnvelopeClaimable(_id,block.timestamp) */\n      mload(0x40)\n      dup1\n      swap2\n      sub\n      swap1\n      log2\n        /* \"contracts/LuckyRedEnvelopeV2.sol\":13377:13396  uint256 userTickets */\n      0x00\n        /* \"contracts/LuckyRedEnvelopeV2.sol\":13431:13449  _redEnvelopes[_id] */\n      dup3\n      dup2\n      mstore\n        /* \"contracts/LuckyRedEnvelopeV2.sol\":13431:13444  _redEnvelopes */\n      0x07\n        /* \"contracts/LuckyRedEnvelopeV2.sol\":13431:13449  _redEnvelopes[_id] */\n      0x20\n      mstore\n      0x40\n      dup2\n      keccak256\n        /* \"contracts/LuckyRedEnvelopeV2.sol\":13431:13461  _redEnvelopes[_id].sendTickets */\n      0x05\n      dup2\n      add\n      sload\n        /* \"contracts/LuckyRedEnvelopeV2.sol\":13399:13428  _redEnvelopes[_id].buyTickets */\n      0x04\n      swap1\n      swap2\n      add\n      sload\n        /* \"contracts/LuckyRedEnvelopeV2.sol\":13399:13461  _redEnvelopes[_id].buyTickets + _redEnvelopes[_id].sendTickets */\n      tag_248\n      swap2\n        /* \"contracts/LuckyRedEnvelopeV2.sol\":13431:13461  _redEnvelopes[_id].sendTickets */\n      swap1\n        /* \"contracts/LuckyRedEnvelopeV2.sol\":13399:13461  _redEnvelopes[_id].buyTickets + _redEnvelopes[_id].sendTickets */\n      tag_201\n      jump\t// in\n    tag_248:\n        /* \"contracts/LuckyRedEnvelopeV2.sol\":13377:13461  uint256 userTickets = _redEnvelopes[_id].buyTickets + _redEnvelopes[_id].sendTickets */\n      swap1\n      pop\n        /* \"contracts/LuckyRedEnvelopeV2.sol\":13477:13488  userTickets */\n      dup1\n        /* \"contracts/LuckyRedEnvelopeV2.sol\":13492:13493  0 */\n      0x00\n        /* \"contracts/LuckyRedEnvelopeV2.sol\":13477:13493  userTickets == 0 */\n      sub\n        /* \"contracts/LuckyRedEnvelopeV2.sol\":13472:13632  if ( userTickets == 0){... */\n      tag_249\n      jumpi\n        /* \"contracts/LuckyRedEnvelopeV2.sol\":13543:13561  _returnInject(_id) */\n      tag_250\n        /* \"contracts/LuckyRedEnvelopeV2.sol\":13557:13560  _id */\n      dup4\n        /* \"contracts/LuckyRedEnvelopeV2.sol\":13543:13556  _returnInject */\n      tag_251\n        /* \"contracts/LuckyRedEnvelopeV2.sol\":13543:13561  _returnInject(_id) */\n      jump\t// in\n    tag_250:\n        /* \"contracts/LuckyRedEnvelopeV2.sol\":13613:13621  return ; */\n      pop\n      jump(tag_176)\n        /* \"contracts/LuckyRedEnvelopeV2.sol\":13472:13632  if ( userTickets == 0){... */\n    tag_249:\n        /* \"contracts/LuckyRedEnvelopeV2.sol\":13676:13694  uint256 randomWord */\n      0x00\n        /* \"contracts/LuckyRedEnvelopeV2.sol\":13778:13796  _redEnvelopes[_id] */\n      dup4\n      dup2\n      mstore\n        /* \"contracts/LuckyRedEnvelopeV2.sol\":13778:13791  _redEnvelopes */\n      0x07\n        /* \"contracts/LuckyRedEnvelopeV2.sol\":13778:13796  _redEnvelopes[_id] */\n      0x20\n      mstore\n      0x40\n      swap1\n      keccak256\n        /* \"contracts/LuckyRedEnvelopeV2.sol\":13778:13808  _redEnvelopes[_id].maxPrizeNum */\n      0x03\n      add\n      sload\n        /* \"contracts/LuckyRedEnvelopeV2.sol\":13697:13703  _nonce */\n      dup3\n      swap1\n        /* \"contracts/LuckyRedEnvelopeV2.sol\":13742:13753  userTickets */\n      dup3\n      swap1\n        /* \"contracts/LuckyRedEnvelopeV2.sol\":13768:13808  drawNum > _redEnvelopes[_id].maxPrizeNum */\n      dup2\n      gt\n        /* \"contracts/LuckyRedEnvelopeV2.sol\":13768:13847  drawNum > _redEnvelopes[_id].maxPrizeNum && _redEnvelopes[_id].maxPrizeNum != 0 */\n      dup1\n      iszero\n      tag_252\n      jumpi\n      pop\n        /* \"contracts/LuckyRedEnvelopeV2.sol\":13812:13830  _redEnvelopes[_id] */\n      0x00\n      dup6\n      dup2\n      mstore\n        /* \"contracts/LuckyRedEnvelopeV2.sol\":13812:13825  _redEnvelopes */\n      0x07\n        /* \"contracts/LuckyRedEnvelopeV2.sol\":13812:13830  _redEnvelopes[_id] */\n      0x20\n      mstore\n      0x40\n      swap1\n      keccak256\n        /* \"contracts/LuckyRedEnvelopeV2.sol\":13812:13842  _redEnvelopes[_id].maxPrizeNum */\n      0x03\n      add\n      sload\n        /* \"contracts/LuckyRedEnvelopeV2.sol\":13812:13847  _redEnvelopes[_id].maxPrizeNum != 0 */\n      iszero\n      iszero\n        /* \"contracts/LuckyRedEnvelopeV2.sol\":13768:13847  drawNum > _redEnvelopes[_id].maxPrizeNum && _redEnvelopes[_id].maxPrizeNum != 0 */\n    tag_252:\n        /* \"contracts/LuckyRedEnvelopeV2.sol\":13764:13915  if (drawNum > _redEnvelopes[_id].maxPrizeNum && _redEnvelopes[_id].maxPrizeNum != 0){... */\n      iszero\n      tag_253\n      jumpi\n      pop\n        /* \"contracts/LuckyRedEnvelopeV2.sol\":13873:13891  _redEnvelopes[_id] */\n      0x00\n      dup5\n      dup2\n      mstore\n        /* \"contracts/LuckyRedEnvelopeV2.sol\":13873:13886  _redEnvelopes */\n      0x07\n        /* \"contracts/LuckyRedEnvelopeV2.sol\":13873:13891  _redEnvelopes[_id] */\n      0x20\n      mstore\n      0x40\n      swap1\n      keccak256\n        /* \"contracts/LuckyRedEnvelopeV2.sol\":13873:13903  _redEnvelopes[_id].maxPrizeNum */\n      0x03\n      add\n      sload\n        /* \"contracts/LuckyRedEnvelopeV2.sol\":13764:13915  if (drawNum > _redEnvelopes[_id].maxPrizeNum && _redEnvelopes[_id].maxPrizeNum != 0){... */\n    tag_253:\n        /* \"contracts/LuckyRedEnvelopeV2.sol\":13954:13974  uint256 totalTickets */\n      0x00\n        /* \"contracts/LuckyRedEnvelopeV2.sol\":14012:14030  _redEnvelopes[_id] */\n      dup6\n      dup2\n      mstore\n        /* \"contracts/LuckyRedEnvelopeV2.sol\":14012:14025  _redEnvelopes */\n      0x07\n        /* \"contracts/LuckyRedEnvelopeV2.sol\":14012:14030  _redEnvelopes[_id] */\n      0x20\n      mstore\n      0x40\n      dup2\n      keccak256\n        /* \"contracts/LuckyRedEnvelopeV2.sol\":14012:14041  _redEnvelopes[_id].buyTickets */\n      0x04\n      dup2\n      add\n      sload\n        /* \"contracts/LuckyRedEnvelopeV2.sol\":13977:14009  _redEnvelopes[_id].injectTickets */\n      0x06\n      swap1\n      swap2\n      add\n      sload\n        /* \"contracts/LuckyRedEnvelopeV2.sol\":13977:14041  _redEnvelopes[_id].injectTickets + _redEnvelopes[_id].buyTickets */\n      tag_254\n      swap2\n        /* \"contracts/LuckyRedEnvelopeV2.sol\":14012:14041  _redEnvelopes[_id].buyTickets */\n      swap1\n        /* \"contracts/LuckyRedEnvelopeV2.sol\":13977:14041  _redEnvelopes[_id].injectTickets + _redEnvelopes[_id].buyTickets */\n      tag_201\n      jump\t// in\n    tag_254:\n        /* \"contracts/LuckyRedEnvelopeV2.sol\":14052:14071  uint256 amountToken */\n      0x00\n        /* \"contracts/LuckyRedEnvelopeV2.sol\":14075:14093  _redEnvelopes[_id] */\n      dup8\n      dup2\n      mstore\n        /* \"contracts/LuckyRedEnvelopeV2.sol\":14075:14088  _redEnvelopes */\n      0x07\n        /* \"contracts/LuckyRedEnvelopeV2.sol\":14075:14093  _redEnvelopes[_id] */\n      0x20\n      mstore\n      0x40\n      dup2\n      keccak256\n        /* \"contracts/LuckyRedEnvelopeV2.sol\":14075:14105  _redEnvelopes[_id].ticketPirce */\n      0x0a\n      add\n      sload\n        /* \"contracts/LuckyRedEnvelopeV2.sol\":13954:14041  uint256 totalTickets = _redEnvelopes[_id].injectTickets + _redEnvelopes[_id].buyTickets */\n      swap2\n      swap3\n      pop\n        /* \"contracts/LuckyRedEnvelopeV2.sol\":14052:14071  uint256 amountToken */\n      swap1\n        /* \"contracts/LuckyRedEnvelopeV2.sol\":14075:14120  _redEnvelopes[_id].ticketPirce * totalTickets */\n      tag_255\n      swap1\n        /* \"contracts/LuckyRedEnvelopeV2.sol\":13954:14041  uint256 totalTickets = _redEnvelopes[_id].injectTickets + _redEnvelopes[_id].buyTickets */\n      dup4\n      swap1\n        /* \"contracts/LuckyRedEnvelopeV2.sol\":14075:14120  _redEnvelopes[_id].ticketPirce * totalTickets */\n      tag_256\n      jump\t// in\n    tag_255:\n        /* \"contracts/LuckyRedEnvelopeV2.sol\":14052:14120  uint256 amountToken =  _redEnvelopes[_id].ticketPirce * totalTickets */\n      swap1\n      pop\n        /* \"contracts/LuckyRedEnvelopeV2.sol\":14132:14162  uint256[] memory randomsAmount */\n      0x00\n        /* \"contracts/LuckyRedEnvelopeV2.sol\":14165:14212  _getSortRandoms(randomWord,drawNum,amountToken) */\n      tag_257\n        /* \"contracts/LuckyRedEnvelopeV2.sol\":14181:14191  randomWord */\n      dup6\n        /* \"contracts/LuckyRedEnvelopeV2.sol\":14192:14199  drawNum */\n      dup6\n        /* \"contracts/LuckyRedEnvelopeV2.sol\":14200:14211  amountToken */\n      dup5\n        /* \"contracts/LuckyRedEnvelopeV2.sol\":14165:14180  _getSortRandoms */\n      tag_258\n        /* \"contracts/LuckyRedEnvelopeV2.sol\":14165:14212  _getSortRandoms(randomWord,drawNum,amountToken) */\n      jump\t// in\n    tag_257:\n        /* \"contracts/LuckyRedEnvelopeV2.sol\":14132:14212  uint256[] memory randomsAmount = _getSortRandoms(randomWord,drawNum,amountToken) */\n      swap1\n      pop\n        /* \"contracts/LuckyRedEnvelopeV2.sol\":14225:14267  _calculatePrize(_id,drawNum,randomsAmount) */\n      tag_259\n        /* \"contracts/LuckyRedEnvelopeV2.sol\":14241:14244  _id */\n      dup9\n        /* \"contracts/LuckyRedEnvelopeV2.sol\":14245:14252  drawNum */\n      dup6\n        /* \"contracts/LuckyRedEnvelopeV2.sol\":14253:14266  randomsAmount */\n      dup4\n        /* \"contracts/LuckyRedEnvelopeV2.sol\":14225:14240  _calculatePrize */\n      tag_260\n        /* \"contracts/LuckyRedEnvelopeV2.sol\":14225:14267  _calculatePrize(_id,drawNum,randomsAmount) */\n      jump\t// in\n    tag_259:\n        /* \"contracts/LuckyRedEnvelopeV2.sol\":14330:14348  _redEnvelopes[_id] */\n      0x00\n      dup9\n      dup2\n      mstore\n        /* \"contracts/LuckyRedEnvelopeV2.sol\":14330:14343  _redEnvelopes */\n      0x07\n        /* \"contracts/LuckyRedEnvelopeV2.sol\":14330:14348  _redEnvelopes[_id] */\n      0x20\n      mstore\n      0x40\n      swap1\n      keccak256\n        /* \"contracts/LuckyRedEnvelopeV2.sol\":14330:14358  _redEnvelopes[_id].autoClaim */\n      0x0d\n      add\n      sload\n      0xff\n      and\n        /* \"contracts/LuckyRedEnvelopeV2.sol\":14327:14777  if(_redEnvelopes[_id].autoClaim){... */\n      iszero\n      tag_261\n      jumpi\n        /* \"contracts/LuckyRedEnvelopeV2.sol\":14378:14387  uint256 i */\n      0x00\n        /* \"contracts/LuckyRedEnvelopeV2.sol\":14374:14766  for(uint256 i = 0;i < _redEnvelopes[_id].userAddrNum;i++){... */\n    tag_262:\n        /* \"contracts/LuckyRedEnvelopeV2.sol\":14396:14414  _redEnvelopes[_id] */\n      0x00\n      dup10\n      dup2\n      mstore\n        /* \"contracts/LuckyRedEnvelopeV2.sol\":14396:14409  _redEnvelopes */\n      0x07\n        /* \"contracts/LuckyRedEnvelopeV2.sol\":14396:14414  _redEnvelopes[_id] */\n      0x20\n      dup2\n      swap1\n      mstore\n      0x40\n      swap1\n      swap2\n      keccak256\n        /* \"contracts/LuckyRedEnvelopeV2.sol\":14396:14426  _redEnvelopes[_id].userAddrNum */\n      add\n      sload\n        /* \"contracts/LuckyRedEnvelopeV2.sol\":14392:14426  i < _redEnvelopes[_id].userAddrNum */\n      dup2\n      lt\n        /* \"contracts/LuckyRedEnvelopeV2.sol\":14374:14766  for(uint256 i = 0;i < _redEnvelopes[_id].userAddrNum;i++){... */\n      iszero\n      tag_263\n      jumpi\n        /* \"contracts/LuckyRedEnvelopeV2.sol\":14453:14473  _amount2claimed[_id] */\n      0x00\n      dup10\n      dup2\n      mstore\n        /* \"contracts/LuckyRedEnvelopeV2.sol\":14453:14468  _amount2claimed */\n      0x0c\n        /* \"contracts/LuckyRedEnvelopeV2.sol\":14453:14473  _amount2claimed[_id] */\n      0x20\n      swap1\n      dup2\n      mstore\n      0x40\n      dup1\n      dup4\n      keccak256\n        /* \"contracts/LuckyRedEnvelopeV2.sol\":14474:14488  _userAddrIndex */\n      0x0b\n        /* \"contracts/LuckyRedEnvelopeV2.sol\":14474:14493  _userAddrIndex[_id] */\n      dup4\n      mstore\n      dup2\n      dup5\n      keccak256\n        /* \"contracts/LuckyRedEnvelopeV2.sol\":14474:14496  _userAddrIndex[_id][i] */\n      dup6\n      dup6\n      mstore\n      dup4\n      mstore\n      dup2\n      dup5\n      keccak256\n      sload\n      sub(shl(0xa0, 0x01), 0x01)\n      and\n        /* \"contracts/LuckyRedEnvelopeV2.sol\":14453:14497  _amount2claimed[_id][_userAddrIndex[_id][i]] */\n      dup5\n      mstore\n      swap1\n      swap2\n      mstore\n      swap1\n      keccak256\n      sload\n        /* \"contracts/LuckyRedEnvelopeV2.sol\":14453:14502  _amount2claimed[_id][_userAddrIndex[_id][i]] != 0 */\n      iszero\n        /* \"contracts/LuckyRedEnvelopeV2.sol\":14450:14585  if(_amount2claimed[_id][_userAddrIndex[_id][i]] != 0){... */\n      tag_266\n      jumpi\n        /* \"contracts/LuckyRedEnvelopeV2.sol\":14542:14561  _userAddrIndex[_id] */\n      0x00\n      dup10\n      dup2\n      mstore\n        /* \"contracts/LuckyRedEnvelopeV2.sol\":14542:14556  _userAddrIndex */\n      0x0b\n        /* \"contracts/LuckyRedEnvelopeV2.sol\":14542:14561  _userAddrIndex[_id] */\n      0x20\n      swap1\n      dup2\n      mstore\n      0x40\n      dup1\n      dup4\n      keccak256\n        /* \"contracts/LuckyRedEnvelopeV2.sol\":14542:14564  _userAddrIndex[_id][i] */\n      dup5\n      dup5\n      mstore\n      swap1\n      swap2\n      mstore\n      swap1\n      keccak256\n      sload\n        /* \"contracts/LuckyRedEnvelopeV2.sol\":14526:14565  _claimPrize(_id,_userAddrIndex[_id][i]) */\n      tag_266\n      swap1\n        /* \"contracts/LuckyRedEnvelopeV2.sol\":14538:14541  _id */\n      dup11\n      swap1\n      sub(shl(0xa0, 0x01), 0x01)\n        /* \"contracts/LuckyRedEnvelopeV2.sol\":14542:14564  _userAddrIndex[_id][i] */\n      and\n        /* \"contracts/LuckyRedEnvelopeV2.sol\":14526:14537  _claimPrize */\n      tag_267\n        /* \"contracts/LuckyRedEnvelopeV2.sol\":14526:14565  _claimPrize(_id,_userAddrIndex[_id][i]) */\n      jump\t// in\n    tag_266:\n        /* \"contracts/LuckyRedEnvelopeV2.sol\":14427:14430  i++ */\n      0x01\n      add\n        /* \"contracts/LuckyRedEnvelopeV2.sol\":14374:14766  for(uint256 i = 0;i < _redEnvelopes[_id].userAddrNum;i++){... */\n      jump(tag_262)\n    tag_263:\n      pop\n        /* \"contracts/LuckyRedEnvelopeV2.sol\":14327:14777  if(_redEnvelopes[_id].autoClaim){... */\n    tag_261:\n        /* \"contracts/LuckyRedEnvelopeV2.sol\":13168:14817  {... */\n      pop\n      pop\n      pop\n      pop\n      pop\n      pop\n        /* \"@openzeppelin/contracts/utils/ReentrancyGuard.sol\":2398:2418  _nonReentrantAfter() */\n      tag_177\n        /* \"@openzeppelin/contracts/utils/ReentrancyGuard.sol\":1713:1714  1 */\n      0x01\n        /* \"@openzeppelin/contracts/utils/ReentrancyGuard.sol\":2924:2931  _status */\n      0x00\n        /* \"@openzeppelin/contracts/utils/ReentrancyGuard.sol\":2924:2945  _status = NOT_ENTERED */\n      sstore\n        /* \"@openzeppelin/contracts/utils/ReentrancyGuard.sol\":2744:2952  function _nonReentrantAfter() private {... */\n      jump\n        /* \"contracts/LuckyRedEnvelopeV2.sol\":9597:10885  function buyTickets(... */\n    tag_88:\n        /* \"@openzeppelin/contracts/utils/ReentrancyGuard.sol\":2356:2377  _nonReentrantBefore() */\n      tag_270\n        /* \"@openzeppelin/contracts/utils/ReentrancyGuard.sol\":2356:2375  _nonReentrantBefore */\n      tag_121\n        /* \"@openzeppelin/contracts/utils/ReentrancyGuard.sol\":2356:2377  _nonReentrantBefore() */\n      jump\t// in\n    tag_270:\n        /* \"contracts/LuckyRedEnvelopeV2.sol\":9781:9792  Status.Open */\n      0x01\n        /* \"contracts/LuckyRedEnvelopeV2.sol\":9752:9770  _redEnvelopes[_id] */\n      0x00\n      dup5\n      dup2\n      mstore\n        /* \"contracts/LuckyRedEnvelopeV2.sol\":9752:9765  _redEnvelopes */\n      0x07\n        /* \"contracts/LuckyRedEnvelopeV2.sol\":9752:9770  _redEnvelopes[_id] */\n      0x20\n      mstore\n      0x40\n      swap1\n      keccak256\n        /* \"contracts/LuckyRedEnvelopeV2.sol\":9752:9777  _redEnvelopes[_id].status */\n      sload\n      shl(0xa0, 0x01)\n      swap1\n      div\n      0xff\n      and\n        /* \"contracts/LuckyRedEnvelopeV2.sol\":9752:9792  _redEnvelopes[_id].status == Status.Open */\n      0x03\n      dup2\n      gt\n      iszero\n      tag_275\n      jumpi\n      tag_275\n      tag_137\n      jump\t// in\n    tag_275:\n      eq\n        /* \"contracts/LuckyRedEnvelopeV2.sol\":9744:9820  require(_redEnvelopes[_id].status == Status.Open, \"RedEnvelope is not open\") */\n      tag_276\n      jumpi\n      mload(0x40)\n      shl(0xe5, 0x461bcd)\n      dup2\n      mstore\n      0x04\n      add\n      tag_117\n      swap1\n      tag_142\n      jump\t// in\n    tag_276:\n        /* \"contracts/LuckyRedEnvelopeV2.sol\":9883:9884  0 */\n      0x00\n        /* \"contracts/LuckyRedEnvelopeV2.sol\":9839:9857  _redEnvelopes[_id] */\n      dup4\n      dup2\n      mstore\n        /* \"contracts/LuckyRedEnvelopeV2.sol\":9839:9852  _redEnvelopes */\n      0x07\n        /* \"contracts/LuckyRedEnvelopeV2.sol\":9839:9857  _redEnvelopes[_id] */\n      0x20\n      mstore\n      0x40\n      swap1\n      keccak256\n        /* \"contracts/LuckyRedEnvelopeV2.sol\":9839:9871  _redEnvelopes[_id].sendAllowAddr */\n      0x0b\n      add\n      sload\n      sub(shl(0xa0, 0x01), 0x01)\n      and\n        /* \"contracts/LuckyRedEnvelopeV2.sol\":9839:9885  _redEnvelopes[_id].sendAllowAddr == address(0) */\n      iszero\n        /* \"contracts/LuckyRedEnvelopeV2.sol\":9831:9909  require(_redEnvelopes[_id].sendAllowAddr == address(0), \"no buy ticket model\") */\n      tag_278\n      jumpi\n      mload(0x40)\n      shl(0xe5, 0x461bcd)\n      dup2\n      mstore\n        /* \"#utility.yul\":11627:11629   */\n      0x20\n        /* \"contracts/LuckyRedEnvelopeV2.sol\":9831:9909  require(_redEnvelopes[_id].sendAllowAddr == address(0), \"no buy ticket model\") */\n      0x04\n      dup3\n      add\n        /* \"#utility.yul\":11609:11630   */\n      mstore\n        /* \"#utility.yul\":11666:11668   */\n      0x13\n        /* \"#utility.yul\":11646:11664   */\n      0x24\n      dup3\n      add\n        /* \"#utility.yul\":11639:11669   */\n      mstore\n      shl(0x6a, 0x1b9bc8189d5e481d1a58dad95d081b5bd9195b)\n        /* \"#utility.yul\":11685:11703   */\n      0x44\n      dup3\n      add\n        /* \"#utility.yul\":11678:11727   */\n      mstore\n        /* \"#utility.yul\":11744:11762   */\n      0x64\n      add\n        /* \"contracts/LuckyRedEnvelopeV2.sol\":9831:9909  require(_redEnvelopes[_id].sendAllowAddr == address(0), \"no buy ticket model\") */\n      tag_117\n        /* \"#utility.yul\":11425:11768   */\n      jump\n        /* \"contracts/LuckyRedEnvelopeV2.sol\":9831:9909  require(_redEnvelopes[_id].sendAllowAddr == address(0), \"no buy ticket model\") */\n    tag_278:\n        /* \"contracts/LuckyRedEnvelopeV2.sol\":9928:9942  _ticketNumbers */\n      dup1\n        /* \"contracts/LuckyRedEnvelopeV2.sol\":9946:9947  0 */\n      0x00\n        /* \"contracts/LuckyRedEnvelopeV2.sol\":9928:9947  _ticketNumbers != 0 */\n      sub\n        /* \"contracts/LuckyRedEnvelopeV2.sol\":9920:9973  require(_ticketNumbers != 0 ,\"ticketNumbers no zero\") */\n      tag_281\n      jumpi\n      mload(0x40)\n      shl(0xe5, 0x461bcd)\n      dup2\n      mstore\n        /* \"#utility.yul\":9605:9607   */\n      0x20\n        /* \"contracts/LuckyRedEnvelopeV2.sol\":9920:9973  require(_ticketNumbers != 0 ,\"ticketNumbers no zero\") */\n      0x04\n      dup3\n      add\n        /* \"#utility.yul\":9587:9608   */\n      mstore\n        /* \"#utility.yul\":9644:9646   */\n      0x15\n        /* \"#utility.yul\":9624:9642   */\n      0x24\n      dup3\n      add\n        /* \"#utility.yul\":9617:9647   */\n      mstore\n      shl(0x58, 0x7469636b65744e756d62657273206e6f207a65726f)\n        /* \"#utility.yul\":9663:9681   */\n      0x44\n      dup3\n      add\n        /* \"#utility.yul\":9656:9707   */\n      mstore\n        /* \"#utility.yul\":9724:9742   */\n      0x64\n      add\n        /* \"contracts/LuckyRedEnvelopeV2.sol\":9920:9973  require(_ticketNumbers != 0 ,\"ticketNumbers no zero\") */\n      tag_117\n        /* \"#utility.yul\":9403:9748   */\n      jump\n        /* \"contracts/LuckyRedEnvelopeV2.sol\":9920:9973  require(_ticketNumbers != 0 ,\"ticketNumbers no zero\") */\n    tag_281:\n        /* \"contracts/LuckyRedEnvelopeV2.sol\":9988:10006  _redEnvelopes[_id] */\n      0x00\n      dup4\n      dup2\n      mstore\n        /* \"contracts/LuckyRedEnvelopeV2.sol\":9988:10001  _redEnvelopes */\n      0x07\n        /* \"contracts/LuckyRedEnvelopeV2.sol\":9988:10006  _redEnvelopes[_id] */\n      0x20\n      mstore\n      0x40\n      swap1\n      keccak256\n        /* \"contracts/LuckyRedEnvelopeV2.sol\":9988:10014  _redEnvelopes[_id].endTime */\n      0x01\n      add\n      sload\n        /* \"contracts/LuckyRedEnvelopeV2.sol\":9988:10019  _redEnvelopes[_id].endTime != 0 */\n      iszero\n        /* \"contracts/LuckyRedEnvelopeV2.sol\":9984:10128  if (_redEnvelopes[_id].endTime != 0){... */\n      tag_284\n      jumpi\n        /* \"contracts/LuckyRedEnvelopeV2.sol\":10061:10079  _redEnvelopes[_id] */\n      0x00\n      dup4\n      dup2\n      mstore\n        /* \"contracts/LuckyRedEnvelopeV2.sol\":10061:10074  _redEnvelopes */\n      0x07\n        /* \"contracts/LuckyRedEnvelopeV2.sol\":10061:10079  _redEnvelopes[_id] */\n      0x20\n      mstore\n      0x40\n      swap1\n      keccak256\n        /* \"contracts/LuckyRedEnvelopeV2.sol\":10061:10087  _redEnvelopes[_id].endTime */\n      0x01\n      add\n      sload\n        /* \"contracts/LuckyRedEnvelopeV2.sol\":10043:10058  block.timestamp */\n      timestamp\n        /* \"contracts/LuckyRedEnvelopeV2.sol\":10043:10087  block.timestamp < _redEnvelopes[_id].endTime */\n      lt\n        /* \"contracts/LuckyRedEnvelopeV2.sol\":10035:10116  require(block.timestamp < _redEnvelopes[_id].endTime, \"RedEnvelope is over time\") */\n      tag_284\n      jumpi\n      mload(0x40)\n      shl(0xe5, 0x461bcd)\n      dup2\n      mstore\n      0x04\n      add\n      tag_117\n      swap1\n      tag_175\n      jump\t// in\n    tag_284:\n        /* \"contracts/LuckyRedEnvelopeV2.sol\":10142:10160  _redEnvelopes[_id] */\n      0x00\n      dup4\n      dup2\n      mstore\n        /* \"contracts/LuckyRedEnvelopeV2.sol\":10142:10155  _redEnvelopes */\n      0x07\n        /* \"contracts/LuckyRedEnvelopeV2.sol\":10142:10160  _redEnvelopes[_id] */\n      0x20\n      mstore\n      0x40\n      swap1\n      keccak256\n        /* \"contracts/LuckyRedEnvelopeV2.sol\":10142:10171  _redEnvelopes[_id].maxTickets */\n      0x02\n      add\n      sload\n        /* \"contracts/LuckyRedEnvelopeV2.sol\":10142:10176  _redEnvelopes[_id].maxTickets != 0 */\n      iszero\n        /* \"contracts/LuckyRedEnvelopeV2.sol\":10138:10356  if (_redEnvelopes[_id].maxTickets != 0){... */\n      tag_289\n      jumpi\n        /* \"contracts/LuckyRedEnvelopeV2.sol\":10284:10302  _redEnvelopes[_id] */\n      0x00\n      dup4\n      dup2\n      mstore\n        /* \"contracts/LuckyRedEnvelopeV2.sol\":10284:10297  _redEnvelopes */\n      0x07\n        /* \"contracts/LuckyRedEnvelopeV2.sol\":10284:10302  _redEnvelopes[_id] */\n      0x20\n      mstore\n      0x40\n      swap1\n      keccak256\n        /* \"contracts/LuckyRedEnvelopeV2.sol\":10284:10313  _redEnvelopes[_id].maxTickets */\n      0x02\n      dup2\n      add\n      sload\n        /* \"contracts/LuckyRedEnvelopeV2.sol\":10232:10262  _redEnvelopes[_id].sendTickets */\n      0x05\n      dup3\n      add\n      sload\n        /* \"contracts/LuckyRedEnvelopeV2.sol\":10200:10229  _redEnvelopes[_id].buyTickets */\n      0x04\n      swap1\n      swap3\n      add\n      sload\n        /* \"contracts/LuckyRedEnvelopeV2.sol\":10284:10313  _redEnvelopes[_id].maxTickets */\n      swap1\n      swap2\n        /* \"contracts/LuckyRedEnvelopeV2.sol\":10266:10280  _ticketNumbers */\n      dup4\n      swap2\n        /* \"contracts/LuckyRedEnvelopeV2.sol\":10200:10262  _redEnvelopes[_id].buyTickets + _redEnvelopes[_id].sendTickets */\n      tag_287\n      swap2\n        /* \"contracts/LuckyRedEnvelopeV2.sol\":10232:10262  _redEnvelopes[_id].sendTickets */\n      swap1\n        /* \"contracts/LuckyRedEnvelopeV2.sol\":10200:10262  _redEnvelopes[_id].buyTickets + _redEnvelopes[_id].sendTickets */\n      tag_201\n      jump\t// in\n    tag_287:\n        /* \"contracts/LuckyRedEnvelopeV2.sol\":10200:10280  _redEnvelopes[_id].buyTickets + _redEnvelopes[_id].sendTickets +  _ticketNumbers */\n      tag_288\n      swap2\n      swap1\n      tag_201\n      jump\t// in\n    tag_288:\n        /* \"contracts/LuckyRedEnvelopeV2.sol\":10200:10313  _redEnvelopes[_id].buyTickets + _redEnvelopes[_id].sendTickets +  _ticketNumbers <= _redEnvelopes[_id].maxTickets */\n      gt\n      iszero\n        /* \"contracts/LuckyRedEnvelopeV2.sol\":10192:10344  require(_redEnvelopes[_id].buyTickets + _redEnvelopes[_id].sendTickets +  _ticketNumbers <= _redEnvelopes[_id].maxTickets, \"RedEnvelope is over ticket\") */\n      tag_289\n      jumpi\n      mload(0x40)\n      shl(0xe5, 0x461bcd)\n      dup2\n      mstore\n        /* \"#utility.yul\":10217:10219   */\n      0x20\n        /* \"contracts/LuckyRedEnvelopeV2.sol\":10192:10344  require(_redEnvelopes[_id].buyTickets + _redEnvelopes[_id].sendTickets +  _ticketNumbers <= _redEnvelopes[_id].maxTickets, \"RedEnvelope is over ticket\") */\n      0x04\n      dup3\n      add\n        /* \"#utility.yul\":10199:10220   */\n      mstore\n        /* \"#utility.yul\":10256:10258   */\n      0x1a\n        /* \"#utility.yul\":10236:10254   */\n      0x24\n      dup3\n      add\n        /* \"#utility.yul\":10229:10259   */\n      mstore\n        /* \"#utility.yul\":10295:10323   */\n      0x526564456e76656c6f7065206973206f766572207469636b6574000000000000\n        /* \"#utility.yul\":10275:10293   */\n      0x44\n      dup3\n      add\n        /* \"#utility.yul\":10268:10324   */\n      mstore\n        /* \"#utility.yul\":10341:10359   */\n      0x64\n      add\n        /* \"contracts/LuckyRedEnvelopeV2.sol\":10192:10344  require(_redEnvelopes[_id].buyTickets + _redEnvelopes[_id].sendTickets +  _ticketNumbers <= _redEnvelopes[_id].maxTickets, \"RedEnvelope is over ticket\") */\n      tag_117\n        /* \"#utility.yul\":10015:10365   */\n      jump\n        /* \"contracts/LuckyRedEnvelopeV2.sol\":10192:10344  require(_redEnvelopes[_id].buyTickets + _redEnvelopes[_id].sendTickets +  _ticketNumbers <= _redEnvelopes[_id].maxTickets, \"RedEnvelope is over ticket\") */\n    tag_289:\n        /* \"contracts/LuckyRedEnvelopeV2.sol\":10423:10452  uint256 amountTokenToTransfer */\n      0x00\n        /* \"contracts/LuckyRedEnvelopeV2.sol\":10455:10473  _redEnvelopes[_id] */\n      dup4\n      dup2\n      mstore\n        /* \"contracts/LuckyRedEnvelopeV2.sol\":10455:10468  _redEnvelopes */\n      0x07\n        /* \"contracts/LuckyRedEnvelopeV2.sol\":10455:10473  _redEnvelopes[_id] */\n      0x20\n      mstore\n      0x40\n      dup2\n      keccak256\n        /* \"contracts/LuckyRedEnvelopeV2.sol\":10455:10485  _redEnvelopes[_id].ticketPirce */\n      0x0a\n      add\n      sload\n        /* \"contracts/LuckyRedEnvelopeV2.sol\":10455:10502  _redEnvelopes[_id].ticketPirce * _ticketNumbers */\n      tag_291\n      swap1\n        /* \"contracts/LuckyRedEnvelopeV2.sol\":10488:10502  _ticketNumbers */\n      dup4\n      swap1\n        /* \"contracts/LuckyRedEnvelopeV2.sol\":10455:10502  _redEnvelopes[_id].ticketPirce * _ticketNumbers */\n      tag_256\n      jump\t// in\n    tag_291:\n        /* \"contracts/LuckyRedEnvelopeV2.sol\":10572:10590  _redEnvelopes[_id] */\n      0x00\n      dup6\n      dup2\n      mstore\n        /* \"contracts/LuckyRedEnvelopeV2.sol\":10572:10585  _redEnvelopes */\n      0x07\n        /* \"contracts/LuckyRedEnvelopeV2.sol\":10572:10590  _redEnvelopes[_id] */\n      0x20\n      mstore\n      0x40\n      swap1\n      keccak256\n        /* \"contracts/LuckyRedEnvelopeV2.sol\":10572:10602  _redEnvelopes[_id].ticketToken */\n      sload\n        /* \"contracts/LuckyRedEnvelopeV2.sol\":10423:10502  uint256 amountTokenToTransfer = _redEnvelopes[_id].ticketPirce * _ticketNumbers */\n      swap1\n      swap2\n      pop\n        /* \"contracts/LuckyRedEnvelopeV2.sol\":10565:10679  IERC20(_redEnvelopes[_id].ticketToken).safeTransferFrom(address(msg.sender), address(this), amountTokenToTransfer) */\n      tag_292\n      swap1\n      sub(shl(0xa0, 0x01), 0x01)\n        /* \"contracts/LuckyRedEnvelopeV2.sol\":10572:10602  _redEnvelopes[_id].ticketToken */\n      and\n        /* \"contracts/LuckyRedEnvelopeV2.sol\":10629:10639  msg.sender */\n      caller\n        /* \"contracts/LuckyRedEnvelopeV2.sol\":10650:10654  this */\n      address\n        /* \"contracts/LuckyRedEnvelopeV2.sol\":10423:10502  uint256 amountTokenToTransfer = _redEnvelopes[_id].ticketPirce * _ticketNumbers */\n      dup5\n        /* \"contracts/LuckyRedEnvelopeV2.sol\":10565:10620  IERC20(_redEnvelopes[_id].ticketToken).safeTransferFrom */\n      tag_293\n        /* \"contracts/LuckyRedEnvelopeV2.sol\":10565:10679  IERC20(_redEnvelopes[_id].ticketToken).safeTransferFrom(address(msg.sender), address(this), amountTokenToTransfer) */\n      jump\t// in\n    tag_292:\n        /* \"contracts/LuckyRedEnvelopeV2.sol\":10692:10716  uint256 lastTotalNumbers */\n      0x00\n        /* \"contracts/LuckyRedEnvelopeV2.sol\":10719:10771  _fillTicket(_id,_receiveAddress,_ticketNumbers,true) */\n      tag_294\n        /* \"contracts/LuckyRedEnvelopeV2.sol\":10731:10734  _id */\n      dup6\n        /* \"contracts/LuckyRedEnvelopeV2.sol\":10735:10750  _receiveAddress */\n      dup6\n        /* \"contracts/LuckyRedEnvelopeV2.sol\":10751:10765  _ticketNumbers */\n      dup6\n        /* \"contracts/LuckyRedEnvelopeV2.sol\":10766:10770  true */\n      0x01\n        /* \"contracts/LuckyRedEnvelopeV2.sol\":10719:10730  _fillTicket */\n      tag_207\n        /* \"contracts/LuckyRedEnvelopeV2.sol\":10719:10771  _fillTicket(_id,_receiveAddress,_ticketNumbers,true) */\n      jump\t// in\n    tag_294:\n        /* \"contracts/LuckyRedEnvelopeV2.sol\":10789:10877  TicketsPurchase(_id,address(msg.sender),_receiveAddress,lastTotalNumbers,_ticketNumbers) */\n      0x40\n      dup1\n      mload\n        /* \"#utility.yul\":10544:10569   */\n      dup3\n      dup2\n      mstore\n        /* \"#utility.yul\":10600:10602   */\n      0x20\n        /* \"#utility.yul\":10585:10603   */\n      dup2\n      add\n        /* \"#utility.yul\":10578:10612   */\n      dup7\n      swap1\n      mstore\n        /* \"contracts/LuckyRedEnvelopeV2.sol\":10692:10771  uint256 lastTotalNumbers = _fillTicket(_id,_receiveAddress,_ticketNumbers,true) */\n      swap2\n      swap3\n      pop\n      sub(shl(0xa0, 0x01), 0x01)\n        /* \"contracts/LuckyRedEnvelopeV2.sol\":10789:10877  TicketsPurchase(_id,address(msg.sender),_receiveAddress,lastTotalNumbers,_ticketNumbers) */\n      dup7\n      and\n      swap2\n        /* \"contracts/LuckyRedEnvelopeV2.sol\":10817:10827  msg.sender */\n      caller\n      swap2\n        /* \"contracts/LuckyRedEnvelopeV2.sol\":10805:10808  _id */\n      dup9\n      swap2\n        /* \"contracts/LuckyRedEnvelopeV2.sol\":10789:10877  TicketsPurchase(_id,address(msg.sender),_receiveAddress,lastTotalNumbers,_ticketNumbers) */\n      0x2f21f7ec4c4f5661e7ee11613bb65b35b597763197b0d487352af168e7689653\n      swap2\n        /* \"#utility.yul\":10517:10535   */\n      add\n        /* \"contracts/LuckyRedEnvelopeV2.sol\":10789:10877  TicketsPurchase(_id,address(msg.sender),_receiveAddress,lastTotalNumbers,_ticketNumbers) */\n      mload(0x40)\n      dup1\n      swap2\n      sub\n      swap1\n      log4\n        /* \"contracts/LuckyRedEnvelopeV2.sol\":9733:10885  {... */\n      pop\n      pop\n        /* \"@openzeppelin/contracts/utils/ReentrancyGuard.sol\":2398:2418  _nonReentrantAfter() */\n      tag_210\n        /* \"@openzeppelin/contracts/utils/ReentrancyGuard.sol\":1713:1714  1 */\n      0x01\n        /* \"@openzeppelin/contracts/utils/ReentrancyGuard.sol\":2924:2931  _status */\n      0x00\n        /* \"@openzeppelin/contracts/utils/ReentrancyGuard.sol\":2924:2945  _status = NOT_ENTERED */\n      sstore\n        /* \"@openzeppelin/contracts/utils/ReentrancyGuard.sol\":2744:2952  function _nonReentrantAfter() private {... */\n      jump\n        /* \"contracts/LuckyRedEnvelopeV2.sol\":17288:17573  function claimPrize(uint256 _id)external nonReentrant{... */\n    tag_91:\n        /* \"@openzeppelin/contracts/utils/ReentrancyGuard.sol\":2356:2377  _nonReentrantBefore() */\n      tag_298\n        /* \"@openzeppelin/contracts/utils/ReentrancyGuard.sol\":2356:2375  _nonReentrantBefore */\n      tag_121\n        /* \"@openzeppelin/contracts/utils/ReentrancyGuard.sol\":2356:2377  _nonReentrantBefore() */\n      jump\t// in\n    tag_298:\n        /* \"contracts/LuckyRedEnvelopeV2.sol\":17389:17405  Status.Claimable */\n      0x03\n        /* \"contracts/LuckyRedEnvelopeV2.sol\":17360:17378  _redEnvelopes[_id] */\n      0x00\n      dup3\n      dup2\n      mstore\n        /* \"contracts/LuckyRedEnvelopeV2.sol\":17360:17373  _redEnvelopes */\n      0x07\n        /* \"contracts/LuckyRedEnvelopeV2.sol\":17360:17378  _redEnvelopes[_id] */\n      0x20\n      mstore\n      0x40\n      swap1\n      keccak256\n        /* \"contracts/LuckyRedEnvelopeV2.sol\":17360:17385  _redEnvelopes[_id].status */\n      sload\n      shl(0xa0, 0x01)\n      swap1\n      div\n      0xff\n      and\n        /* \"contracts/LuckyRedEnvelopeV2.sol\":17360:17405  _redEnvelopes[_id].status == Status.Claimable */\n      0x03\n      dup2\n      gt\n      iszero\n      tag_303\n      jumpi\n      tag_303\n      tag_137\n      jump\t// in\n    tag_303:\n      eq\n        /* \"contracts/LuckyRedEnvelopeV2.sol\":17352:17435  require(_redEnvelopes[_id].status == Status.Claimable, \"RedEnvelope not claimable\") */\n      tag_304\n      jumpi\n      mload(0x40)\n      shl(0xe5, 0x461bcd)\n      dup2\n      mstore\n        /* \"#utility.yul\":11975:11977   */\n      0x20\n        /* \"contracts/LuckyRedEnvelopeV2.sol\":17352:17435  require(_redEnvelopes[_id].status == Status.Claimable, \"RedEnvelope not claimable\") */\n      0x04\n      dup3\n      add\n        /* \"#utility.yul\":11957:11978   */\n      mstore\n        /* \"#utility.yul\":12014:12016   */\n      0x19\n        /* \"#utility.yul\":11994:12012   */\n      0x24\n      dup3\n      add\n        /* \"#utility.yul\":11987:12017   */\n      mstore\n        /* \"#utility.yul\":12053:12080   */\n      0x526564456e76656c6f7065206e6f7420636c61696d61626c6500000000000000\n        /* \"#utility.yul\":12033:12051   */\n      0x44\n      dup3\n      add\n        /* \"#utility.yul\":12026:12081   */\n      mstore\n        /* \"#utility.yul\":12098:12116   */\n      0x64\n      add\n        /* \"contracts/LuckyRedEnvelopeV2.sol\":17352:17435  require(_redEnvelopes[_id].status == Status.Claimable, \"RedEnvelope not claimable\") */\n      tag_117\n        /* \"#utility.yul\":11773:12122   */\n      jump\n        /* \"contracts/LuckyRedEnvelopeV2.sol\":17352:17435  require(_redEnvelopes[_id].status == Status.Claimable, \"RedEnvelope not claimable\") */\n    tag_304:\n        /* \"contracts/LuckyRedEnvelopeV2.sol\":17454:17472  _redEnvelopes[_id] */\n      0x00\n      dup2\n      dup2\n      mstore\n        /* \"contracts/LuckyRedEnvelopeV2.sol\":17454:17467  _redEnvelopes */\n      0x07\n        /* \"contracts/LuckyRedEnvelopeV2.sol\":17454:17472  _redEnvelopes[_id] */\n      0x20\n      mstore\n      0x40\n      swap1\n      keccak256\n        /* \"contracts/LuckyRedEnvelopeV2.sol\":17454:17482  _redEnvelopes[_id].autoClaim */\n      0x0d\n      add\n      sload\n      0xff\n      and\n        /* \"contracts/LuckyRedEnvelopeV2.sol\":17454:17491  _redEnvelopes[_id].autoClaim == false */\n      iszero\n        /* \"contracts/LuckyRedEnvelopeV2.sol\":17446:17518  require(_redEnvelopes[_id].autoClaim == false, \"RedEnvelope auto claim\") */\n      tag_307\n      jumpi\n      mload(0x40)\n      shl(0xe5, 0x461bcd)\n      dup2\n      mstore\n        /* \"#utility.yul\":12329:12331   */\n      0x20\n        /* \"contracts/LuckyRedEnvelopeV2.sol\":17446:17518  require(_redEnvelopes[_id].autoClaim == false, \"RedEnvelope auto claim\") */\n      0x04\n      dup3\n      add\n        /* \"#utility.yul\":12311:12332   */\n      mstore\n        /* \"#utility.yul\":12368:12370   */\n      0x16\n        /* \"#utility.yul\":12348:12366   */\n      0x24\n      dup3\n      add\n        /* \"#utility.yul\":12341:12371   */\n      mstore\n      shl(0x50, 0x526564456e76656c6f7065206175746f20636c61696d)\n        /* \"#utility.yul\":12387:12405   */\n      0x44\n      dup3\n      add\n        /* \"#utility.yul\":12380:12432   */\n      mstore\n        /* \"#utility.yul\":12449:12467   */\n      0x64\n      add\n        /* \"contracts/LuckyRedEnvelopeV2.sol\":17446:17518  require(_redEnvelopes[_id].autoClaim == false, \"RedEnvelope auto claim\") */\n      tag_117\n        /* \"#utility.yul\":12127:12473   */\n      jump\n        /* \"contracts/LuckyRedEnvelopeV2.sol\":17446:17518  require(_redEnvelopes[_id].autoClaim == false, \"RedEnvelope auto claim\") */\n    tag_307:\n        /* \"contracts/LuckyRedEnvelopeV2.sol\":17529:17565  _claimPrize(_id,address(msg.sender)) */\n      tag_310\n        /* \"contracts/LuckyRedEnvelopeV2.sol\":17541:17544  _id */\n      dup2\n        /* \"contracts/LuckyRedEnvelopeV2.sol\":17553:17563  msg.sender */\n      caller\n        /* \"contracts/LuckyRedEnvelopeV2.sol\":17529:17540  _claimPrize */\n      tag_267\n        /* \"contracts/LuckyRedEnvelopeV2.sol\":17529:17565  _claimPrize(_id,address(msg.sender)) */\n      jump\t// in\n    tag_310:\n        /* \"@openzeppelin/contracts/utils/ReentrancyGuard.sol\":2398:2418  _nonReentrantAfter() */\n      tag_147\n        /* \"@openzeppelin/contracts/utils/ReentrancyGuard.sol\":1713:1714  1 */\n      0x01\n        /* \"@openzeppelin/contracts/utils/ReentrancyGuard.sol\":2924:2931  _status */\n      0x00\n        /* \"@openzeppelin/contracts/utils/ReentrancyGuard.sol\":2924:2945  _status = NOT_ENTERED */\n      sstore\n        /* \"@openzeppelin/contracts/utils/ReentrancyGuard.sol\":2744:2952  function _nonReentrantAfter() private {... */\n      jump\n        /* \"contracts/LuckyRedEnvelopeV2.sol\":2370:2672  function setOperatorAddress(... */\n    tag_95:\n        /* \"@openzeppelin/contracts/access/Ownable.sol\":1531:1544  _checkOwner() */\n      tag_313\n        /* \"@openzeppelin/contracts/access/Ownable.sol\":1531:1542  _checkOwner */\n      tag_213\n        /* \"@openzeppelin/contracts/access/Ownable.sol\":1531:1544  _checkOwner() */\n      jump\t// in\n    tag_313:\n      sub(shl(0xa0, 0x01), 0x01)\n        /* \"contracts/LuckyRedEnvelopeV2.sol\":2496:2526  _operatorAddress != address(0) */\n      dup3\n      and\n        /* \"contracts/LuckyRedEnvelopeV2.sol\":2488:2553  require(_operatorAddress != address(0), \"Cannot be zero address\") */\n      tag_315\n      jumpi\n      mload(0x40)\n      shl(0xe5, 0x461bcd)\n      dup2\n      mstore\n        /* \"#utility.yul\":12680:12682   */\n      0x20\n        /* \"contracts/LuckyRedEnvelopeV2.sol\":2488:2553  require(_operatorAddress != address(0), \"Cannot be zero address\") */\n      0x04\n      dup3\n      add\n        /* \"#utility.yul\":12662:12683   */\n      mstore\n        /* \"#utility.yul\":12719:12721   */\n      0x16\n        /* \"#utility.yul\":12699:12717   */\n      0x24\n      dup3\n      add\n        /* \"#utility.yul\":12692:12722   */\n      mstore\n      shl(0x50, 0x43616e6e6f74206265207a65726f2061646472657373)\n        /* \"#utility.yul\":12738:12756   */\n      0x44\n      dup3\n      add\n        /* \"#utility.yul\":12731:12783   */\n      mstore\n        /* \"#utility.yul\":12800:12818   */\n      0x64\n      add\n        /* \"contracts/LuckyRedEnvelopeV2.sol\":2488:2553  require(_operatorAddress != address(0), \"Cannot be zero address\") */\n      tag_117\n        /* \"#utility.yul\":12478:12824   */\n      jump\n        /* \"contracts/LuckyRedEnvelopeV2.sol\":2488:2553  require(_operatorAddress != address(0), \"Cannot be zero address\") */\n    tag_315:\n      sub(shl(0xa0, 0x01), 0x01)\n        /* \"contracts/LuckyRedEnvelopeV2.sol\":2564:2601  operatorAddressList[_operatorAddress] */\n      dup3\n      and\n      0x00\n      dup2\n      dup2\n      mstore\n        /* \"contracts/LuckyRedEnvelopeV2.sol\":2564:2583  operatorAddressList */\n      0x06\n        /* \"contracts/LuckyRedEnvelopeV2.sol\":2564:2601  operatorAddressList[_operatorAddress] */\n      0x20\n      swap1\n      dup2\n      mstore\n      0x40\n      swap2\n      dup3\n      swap1\n      keccak256\n        /* \"contracts/LuckyRedEnvelopeV2.sol\":2564:2608  operatorAddressList[_operatorAddress] = _opt */\n      dup1\n      sload\n      not(0xff)\n      and\n      dup6\n      iszero\n      iszero\n      swap1\n      dup2\n      or\n      swap1\n      swap2\n      sstore\n        /* \"contracts/LuckyRedEnvelopeV2.sol\":2626:2664  OperatorAddress(_operatorAddress,_opt) */\n      dup3\n      mload\n        /* \"#utility.yul\":12997:13048   */\n      swap4\n      dup5\n      mstore\n        /* \"#utility.yul\":13064:13082   */\n      swap1\n      dup4\n      add\n        /* \"#utility.yul\":13057:13107   */\n      mstore\n        /* \"contracts/LuckyRedEnvelopeV2.sol\":2626:2664  OperatorAddress(_operatorAddress,_opt) */\n      0xedae46487653623e513ea3b3341c9e6b457a2ef687d0342d2507ccb63458b19f\n      swap2\n        /* \"#utility.yul\":12970:12988   */\n      add\n        /* \"contracts/LuckyRedEnvelopeV2.sol\":2626:2664  OperatorAddress(_operatorAddress,_opt) */\n      tag_229\n        /* \"#utility.yul\":12829:13113   */\n      jump\n        /* \"contracts/LuckyRedEnvelopeV2.sol\":19026:19170  function viewRedEnvelopeClaimPrize(uint256 _id,address _user)external view returns(uint256){... */\n    tag_99:\n        /* \"contracts/LuckyRedEnvelopeV2.sol\":19109:19116  uint256 */\n      0x00\n        /* \"contracts/LuckyRedEnvelopeV2.sol\":19135:19155  _amount2claimed[_id] */\n      dup3\n      dup2\n      mstore\n        /* \"contracts/LuckyRedEnvelopeV2.sol\":19135:19150  _amount2claimed */\n      0x0c\n        /* \"contracts/LuckyRedEnvelopeV2.sol\":19135:19155  _amount2claimed[_id] */\n      0x20\n      swap1\n      dup2\n      mstore\n      0x40\n      dup1\n      dup4\n      keccak256\n      sub(shl(0xa0, 0x01), 0x01)\n        /* \"contracts/LuckyRedEnvelopeV2.sol\":19135:19162  _amount2claimed[_id][_user] */\n      dup6\n      and\n      dup5\n      mstore\n      swap1\n      swap2\n      mstore\n      swap1\n      keccak256\n      sload\n        /* \"contracts/LuckyRedEnvelopeV2.sol\":19026:19170  function viewRedEnvelopeClaimPrize(uint256 _id,address _user)external view returns(uint256){... */\n    tag_320:\n      swap3\n      swap2\n      pop\n      pop\n      jump\t// out\n        /* \"@openzeppelin/contracts/access/Ownable.sol\":2543:2758  function transferOwnership(address newOwner) public virtual onlyOwner {... */\n    tag_106:\n        /* \"@openzeppelin/contracts/access/Ownable.sol\":1531:1544  _checkOwner() */\n      tag_322\n        /* \"@openzeppelin/contracts/access/Ownable.sol\":1531:1542  _checkOwner */\n      tag_213\n        /* \"@openzeppelin/contracts/access/Ownable.sol\":1531:1544  _checkOwner() */\n      jump\t// in\n    tag_322:\n      sub(shl(0xa0, 0x01), 0x01)\n        /* \"@openzeppelin/contracts/access/Ownable.sol\":2627:2649  newOwner == address(0) */\n      dup2\n      and\n        /* \"@openzeppelin/contracts/access/Ownable.sol\":2623:2714  if (newOwner == address(0)) {... */\n      tag_324\n      jumpi\n        /* \"@openzeppelin/contracts/access/Ownable.sol\":2672:2703  OwnableInvalidOwner(address(0)) */\n      mload(0x40)\n      shl(0xe0, 0x1e4fbdf7)\n      dup2\n      mstore\n        /* \"@openzeppelin/contracts/access/Ownable.sol\":2700:2701  0 */\n      0x00\n        /* \"@openzeppelin/contracts/access/Ownable.sol\":2672:2703  OwnableInvalidOwner(address(0)) */\n      0x04\n      dup3\n      add\n        /* \"#utility.yul\":2790:2841   */\n      mstore\n        /* \"#utility.yul\":2763:2781   */\n      0x24\n      add\n        /* \"@openzeppelin/contracts/access/Ownable.sol\":2672:2703  OwnableInvalidOwner(address(0)) */\n      tag_117\n        /* \"#utility.yul\":2644:2847   */\n      jump\n        /* \"@openzeppelin/contracts/access/Ownable.sol\":2623:2714  if (newOwner == address(0)) {... */\n    tag_324:\n        /* \"@openzeppelin/contracts/access/Ownable.sol\":2723:2751  _transferOwnership(newOwner) */\n      tag_147\n        /* \"@openzeppelin/contracts/access/Ownable.sol\":2742:2750  newOwner */\n      dup2\n        /* \"@openzeppelin/contracts/access/Ownable.sol\":2723:2741  _transferOwnership */\n      tag_216\n        /* \"@openzeppelin/contracts/access/Ownable.sol\":2723:2751  _transferOwnership(newOwner) */\n      jump\t// in\n        /* \"contracts/LuckyRedEnvelopeV2.sol\":2680:2865  function setDefaultAutoClaim(bool _defaultAutoClaim) external onlyOperator{... */\n    tag_110:\n        /* \"contracts/LuckyRedEnvelopeV2.sol\":1589:1599  msg.sender */\n      caller\n        /* \"contracts/LuckyRedEnvelopeV2.sol\":1569:1600  operatorAddressList[msg.sender] */\n      0x00\n      swap1\n      dup2\n      mstore\n        /* \"contracts/LuckyRedEnvelopeV2.sol\":1569:1588  operatorAddressList */\n      0x06\n        /* \"contracts/LuckyRedEnvelopeV2.sol\":1569:1600  operatorAddressList[msg.sender] */\n      0x20\n      mstore\n      0x40\n      swap1\n      keccak256\n      sload\n      0xff\n      and\n        /* \"contracts/LuckyRedEnvelopeV2.sol\":1569:1608  operatorAddressList[msg.sender] == true */\n      iszero\n      iszero\n        /* \"contracts/LuckyRedEnvelopeV2.sol\":1569:1600  operatorAddressList[msg.sender] */\n      0x01\n        /* \"contracts/LuckyRedEnvelopeV2.sol\":1569:1608  operatorAddressList[msg.sender] == true */\n      eq\n        /* \"contracts/LuckyRedEnvelopeV2.sol\":1561:1625  require(operatorAddressList[msg.sender] == true, \"Not operator\") */\n      tag_328\n      jumpi\n      mload(0x40)\n      shl(0xe5, 0x461bcd)\n      dup2\n      mstore\n      0x04\n      add\n      tag_117\n      swap1\n      tag_118\n      jump\t// in\n    tag_328:\n        /* \"contracts/LuckyRedEnvelopeV2.sol\":2765:2781  defaultAutoClaim */\n      0x05\n        /* \"contracts/LuckyRedEnvelopeV2.sol\":2765:2801  defaultAutoClaim = _defaultAutoClaim */\n      dup1\n      sload\n      not(0xff)\n      and\n      dup3\n      iszero\n      iszero\n      swap1\n      dup2\n      or\n      swap1\n      swap2\n      sstore\n        /* \"contracts/LuckyRedEnvelopeV2.sol\":2817:2857  DefaultAutoClaimChange(defaultAutoClaim) */\n      mload(0x40)\n        /* \"contracts/LuckyRedEnvelopeV2.sol\":2765:2801  defaultAutoClaim = _defaultAutoClaim */\n      0xff\n        /* \"contracts/LuckyRedEnvelopeV2.sol\":2840:2856  defaultAutoClaim */\n      swap1\n      swap2\n      and\n        /* \"#utility.yul\":5200:5214   */\n      iszero\n        /* \"#utility.yul\":5193:5215   */\n      iszero\n        /* \"#utility.yul\":5175:5216   */\n      dup2\n      mstore\n        /* \"contracts/LuckyRedEnvelopeV2.sol\":2817:2857  DefaultAutoClaimChange(defaultAutoClaim) */\n      0x6fe9a4ab2e95e24b2be44989dc36a685149dfde9354d486a8da5cb4bbd01b010\n      swap1\n        /* \"#utility.yul\":5163:5165   */\n      0x20\n        /* \"#utility.yul\":5148:5166   */\n      add\n        /* \"contracts/LuckyRedEnvelopeV2.sol\":2817:2857  DefaultAutoClaimChange(defaultAutoClaim) */\n      mload(0x40)\n      dup1\n      swap2\n      sub\n      swap1\n      log1\n        /* \"contracts/LuckyRedEnvelopeV2.sol\":2680:2865  function setDefaultAutoClaim(bool _defaultAutoClaim) external onlyOperator{... */\n      pop\n      jump\t// out\n        /* \"contracts/LuckyRedEnvelopeV2.sol\":18540:18670  function viewRedEnvelopeStatus(uint256 _id) external view  returns (uint){... */\n    tag_113:\n        /* \"contracts/LuckyRedEnvelopeV2.sol\":18608:18612  uint */\n      0x00\n        /* \"contracts/LuckyRedEnvelopeV2.sol\":18636:18654  _redEnvelopes[_id] */\n      dup2\n      dup2\n      mstore\n        /* \"contracts/LuckyRedEnvelopeV2.sol\":18636:18649  _redEnvelopes */\n      0x07\n        /* \"contracts/LuckyRedEnvelopeV2.sol\":18636:18654  _redEnvelopes[_id] */\n      0x20\n      mstore\n      0x40\n      dup2\n      keccak256\n        /* \"contracts/LuckyRedEnvelopeV2.sol\":18636:18661  _redEnvelopes[_id].status */\n      sload\n      shl(0xa0, 0x01)\n      swap1\n      div\n      0xff\n      and\n        /* \"contracts/LuckyRedEnvelopeV2.sol\":18631:18662  uint(_redEnvelopes[_id].status) */\n      0x03\n      dup2\n      gt\n      iszero\n      tag_320\n      jumpi\n      tag_320\n      tag_137\n      jump\t// in\n        /* \"@openzeppelin/contracts/utils/ReentrancyGuard.sol\":2431:2738  function _nonReentrantBefore() private {... */\n    tag_121:\n        /* \"@openzeppelin/contracts/utils/ReentrancyGuard.sol\":1755:1756  2 */\n      0x02\n        /* \"@openzeppelin/contracts/utils/ReentrancyGuard.sol\":2558:2565  _status */\n      sload(0x00)\n        /* \"@openzeppelin/contracts/utils/ReentrancyGuard.sol\":2558:2576  _status == ENTERED */\n      sub\n        /* \"@openzeppelin/contracts/utils/ReentrancyGuard.sol\":2554:2640  if (_status == ENTERED) {... */\n      tag_336\n      jumpi\n        /* \"@openzeppelin/contracts/utils/ReentrancyGuard.sol\":2599:2629  ReentrancyGuardReentrantCall() */\n      mload(0x40)\n      shl(0xe0, 0x3ee5aeb5)\n      dup2\n      mstore\n      0x04\n      add\n      mload(0x40)\n      dup1\n      swap2\n      sub\n      swap1\n      revert\n        /* \"@openzeppelin/contracts/utils/ReentrancyGuard.sol\":2554:2640  if (_status == ENTERED) {... */\n    tag_336:\n        /* \"@openzeppelin/contracts/utils/ReentrancyGuard.sol\":1755:1756  2 */\n      0x02\n        /* \"@openzeppelin/contracts/utils/ReentrancyGuard.sol\":2714:2721  _status */\n      0x00\n        /* \"@openzeppelin/contracts/utils/ReentrancyGuard.sol\":2714:2731  _status = ENTERED */\n      sstore\n        /* \"@openzeppelin/contracts/utils/ReentrancyGuard.sol\":2431:2738  function _nonReentrantBefore() private {... */\n      jump\t// out\n        /* \"contracts/LuckyRedEnvelopeV2.sol\":3173:3874  function _createRedEnvelope(address _tokenAddress,... */\n    tag_124:\n        /* \"contracts/LuckyRedEnvelopeV2.sol\":3423:3432  currentId */\n      0x03\n        /* \"contracts/LuckyRedEnvelopeV2.sol\":3423:3434  currentId++ */\n      dup1\n      sload\n      swap1\n        /* \"contracts/LuckyRedEnvelopeV2.sol\":3423:3432  currentId */\n      0x00\n        /* \"contracts/LuckyRedEnvelopeV2.sol\":3423:3434  currentId++ */\n      tag_338\n      dup4\n      tag_339\n      jump\t// in\n    tag_338:\n      swap1\n      swap2\n      sstore\n      pop\n      pop\n        /* \"contracts/LuckyRedEnvelopeV2.sol\":3493:3502  currentId */\n      0x03\n      dup1\n      sload\n        /* \"contracts/LuckyRedEnvelopeV2.sol\":3445:3476  RedEnvelope storage redEnvelope */\n      0x00\n        /* \"contracts/LuckyRedEnvelopeV2.sol\":3479:3503  _redEnvelopes[currentId] */\n      swap1\n      dup2\n      mstore\n        /* \"contracts/LuckyRedEnvelopeV2.sol\":3479:3492  _redEnvelopes */\n      0x07\n        /* \"contracts/LuckyRedEnvelopeV2.sol\":3479:3503  _redEnvelopes[currentId] */\n      0x20\n      mstore\n      0x40\n      swap1\n      keccak256\n        /* \"contracts/LuckyRedEnvelopeV2.sol\":3514:3553  redEnvelope.ticketToken = _tokenAddress */\n      dup1\n      sload\n      sub(shl(0xa0, 0x01), 0x01)\n      swap10\n      swap1\n      swap10\n      and\n      not(sub(shl(0xa8, 0x01), 0x01))\n        /* \"contracts/LuckyRedEnvelopeV2.sol\":3564:3596  redEnvelope.status = Status.Open */\n      swap1\n      swap10\n      and\n      swap9\n      swap1\n      swap9\n      or\n      shl(0xa0, 0x01)\n      or\n      dup9\n      sstore\n      0x01\n        /* \"contracts/LuckyRedEnvelopeV2.sol\":3607:3626  redEnvelope.endTime */\n      dup9\n      add\n        /* \"contracts/LuckyRedEnvelopeV2.sol\":3607:3637  redEnvelope.endTime = _endTime */\n      swap6\n      swap1\n      swap6\n      sstore\n        /* \"contracts/LuckyRedEnvelopeV2.sol\":3648:3670  redEnvelope.maxTickets */\n      0x02\n      dup8\n      add\n        /* \"contracts/LuckyRedEnvelopeV2.sol\":3648:3684  redEnvelope.maxTickets = _maxTickets */\n      swap4\n      swap1\n      swap4\n      sstore\n        /* \"contracts/LuckyRedEnvelopeV2.sol\":3695:3718  redEnvelope.maxPrizeNum */\n      swap3\n      dup6\n      add\n        /* \"contracts/LuckyRedEnvelopeV2.sol\":3695:3733  redEnvelope.maxPrizeNum = _maxPrizeNum */\n      sstore\n        /* \"contracts/LuckyRedEnvelopeV2.sol\":3744:3767  redEnvelope.ticketPirce */\n      0x0a\n      dup5\n      add\n        /* \"contracts/LuckyRedEnvelopeV2.sol\":3744:3782  redEnvelope.ticketPirce = _ticketPirce */\n      swap3\n      swap1\n      swap3\n      sstore\n        /* \"contracts/LuckyRedEnvelopeV2.sol\":3793:3811  redEnvelope.secret */\n      0x0c\n      dup4\n      add\n        /* \"contracts/LuckyRedEnvelopeV2.sol\":3793:3821  redEnvelope.secret = _secret */\n      sstore\n        /* \"contracts/LuckyRedEnvelopeV2.sol\":3832:3853  redEnvelope.autoClaim */\n      0x0d\n      swap1\n      swap2\n      add\n        /* \"contracts/LuckyRedEnvelopeV2.sol\":3832:3866  redEnvelope.autoClaim = _autoClaim */\n      dup1\n      sload\n      not(0xff)\n      and\n      swap2\n      iszero\n      iszero\n      swap2\n      swap1\n      swap2\n      or\n      swap1\n      sstore\n        /* \"contracts/LuckyRedEnvelopeV2.sol\":3173:3874  function _createRedEnvelope(address _tokenAddress,... */\n      jump\t// out\n        /* \"contracts/LuckyRedEnvelopeV2.sol\":5949:6773  function _injectTickets(uint256 _id,address _injectAddress,uint256 _ticketNumbers)internal{... */\n    tag_158:\n        /* \"contracts/LuckyRedEnvelopeV2.sol\":6050:6079  uint256 amountTokenToTransfer */\n      0x00\n        /* \"contracts/LuckyRedEnvelopeV2.sol\":6082:6100  _redEnvelopes[_id] */\n      dup4\n      dup2\n      mstore\n        /* \"contracts/LuckyRedEnvelopeV2.sol\":6082:6095  _redEnvelopes */\n      0x07\n        /* \"contracts/LuckyRedEnvelopeV2.sol\":6082:6100  _redEnvelopes[_id] */\n      0x20\n      mstore\n      0x40\n      dup2\n      keccak256\n        /* \"contracts/LuckyRedEnvelopeV2.sol\":6082:6112  _redEnvelopes[_id].ticketPirce */\n      0x0a\n      add\n      sload\n        /* \"contracts/LuckyRedEnvelopeV2.sol\":6082:6129  _redEnvelopes[_id].ticketPirce * _ticketNumbers */\n      tag_344\n      swap1\n        /* \"contracts/LuckyRedEnvelopeV2.sol\":6115:6129  _ticketNumbers */\n      dup4\n      swap1\n        /* \"contracts/LuckyRedEnvelopeV2.sol\":6082:6129  _redEnvelopes[_id].ticketPirce * _ticketNumbers */\n      tag_256\n      jump\t// in\n    tag_344:\n        /* \"contracts/LuckyRedEnvelopeV2.sol\":6199:6217  _redEnvelopes[_id] */\n      0x00\n      dup6\n      dup2\n      mstore\n        /* \"contracts/LuckyRedEnvelopeV2.sol\":6199:6212  _redEnvelopes */\n      0x07\n        /* \"contracts/LuckyRedEnvelopeV2.sol\":6199:6217  _redEnvelopes[_id] */\n      0x20\n      mstore\n      0x40\n      swap1\n      keccak256\n        /* \"contracts/LuckyRedEnvelopeV2.sol\":6199:6229  _redEnvelopes[_id].ticketToken */\n      sload\n        /* \"contracts/LuckyRedEnvelopeV2.sol\":6050:6129  uint256 amountTokenToTransfer = _redEnvelopes[_id].ticketPirce * _ticketNumbers */\n      swap1\n      swap2\n      pop\n        /* \"contracts/LuckyRedEnvelopeV2.sol\":6192:6310  IERC20(_redEnvelopes[_id].ticketToken).safeTransferFrom(address(_injectAddress), address(this), amountTokenToTransfer) */\n      tag_345\n      swap1\n      sub(shl(0xa0, 0x01), 0x01)\n        /* \"contracts/LuckyRedEnvelopeV2.sol\":6199:6229  _redEnvelopes[_id].ticketToken */\n      and\n        /* \"contracts/LuckyRedEnvelopeV2.sol\":6256:6270  _injectAddress */\n      dup5\n        /* \"contracts/LuckyRedEnvelopeV2.sol\":6281:6285  this */\n      address\n        /* \"contracts/LuckyRedEnvelopeV2.sol\":6050:6129  uint256 amountTokenToTransfer = _redEnvelopes[_id].ticketPirce * _ticketNumbers */\n      dup5\n        /* \"contracts/LuckyRedEnvelopeV2.sol\":6192:6247  IERC20(_redEnvelopes[_id].ticketToken).safeTransferFrom */\n      tag_293\n        /* \"contracts/LuckyRedEnvelopeV2.sol\":6192:6310  IERC20(_redEnvelopes[_id].ticketToken).safeTransferFrom(address(_injectAddress), address(this), amountTokenToTransfer) */\n      jump\t// in\n    tag_345:\n        /* \"contracts/LuckyRedEnvelopeV2.sol\":6335:6344  currentId */\n      sload(0x03)\n        /* \"contracts/LuckyRedEnvelopeV2.sol\":6321:6345  _redEnvelopes[currentId] */\n      0x00\n      swap1\n      dup2\n      mstore\n        /* \"contracts/LuckyRedEnvelopeV2.sol\":6321:6334  _redEnvelopes */\n      0x07\n        /* \"contracts/LuckyRedEnvelopeV2.sol\":6321:6345  _redEnvelopes[currentId] */\n      0x20\n      mstore\n      0x40\n      dup2\n      keccak256\n        /* \"contracts/LuckyRedEnvelopeV2.sol\":6321:6359  _redEnvelopes[currentId].injectTickets */\n      0x06\n      add\n        /* \"contracts/LuckyRedEnvelopeV2.sol\":6321:6377  _redEnvelopes[currentId].injectTickets += _ticketNumbers */\n      dup1\n      sload\n        /* \"contracts/LuckyRedEnvelopeV2.sol\":6363:6377  _ticketNumbers */\n      dup5\n      swap3\n        /* \"contracts/LuckyRedEnvelopeV2.sol\":6321:6345  _redEnvelopes[currentId] */\n      swap1\n        /* \"contracts/LuckyRedEnvelopeV2.sol\":6321:6377  _redEnvelopes[currentId].injectTickets += _ticketNumbers */\n      tag_346\n      swap1\n        /* \"contracts/LuckyRedEnvelopeV2.sol\":6363:6377  _ticketNumbers */\n      dup5\n      swap1\n        /* \"contracts/LuckyRedEnvelopeV2.sol\":6321:6377  _redEnvelopes[currentId].injectTickets += _ticketNumbers */\n      tag_201\n      jump\t// in\n    tag_346:\n      swap1\n      swap2\n      sstore\n      pop\n      pop\n        /* \"contracts/LuckyRedEnvelopeV2.sol\":6412:6421  currentId */\n      sload(0x03)\n        /* \"contracts/LuckyRedEnvelopeV2.sol\":6395:6422  _injectTicketMap[currentId] */\n      0x00\n      swap1\n      dup2\n      mstore\n        /* \"contracts/LuckyRedEnvelopeV2.sol\":6395:6411  _injectTicketMap */\n      0x0e\n        /* \"contracts/LuckyRedEnvelopeV2.sol\":6395:6422  _injectTicketMap[currentId] */\n      0x20\n      swap1\n      dup2\n      mstore\n      0x40\n      dup1\n      dup4\n      keccak256\n      sub(shl(0xa0, 0x01), 0x01)\n        /* \"contracts/LuckyRedEnvelopeV2.sol\":6395:6438  _injectTicketMap[currentId][_injectAddress] */\n      dup8\n      and\n      dup5\n      mstore\n      swap1\n      swap2\n      mstore\n      dup2\n      keccak256\n      sload\n        /* \"contracts/LuckyRedEnvelopeV2.sol\":6395:6443  _injectTicketMap[currentId][_injectAddress] == 0 */\n      swap1\n      sub\n        /* \"contracts/LuckyRedEnvelopeV2.sol\":6390:6613  if ( _injectTicketMap[currentId][_injectAddress] == 0){... */\n      tag_347\n      jumpi\n        /* \"contracts/LuckyRedEnvelopeV2.sol\":6476:6485  currentId */\n      0x03\n      dup1\n      sload\n        /* \"contracts/LuckyRedEnvelopeV2.sol\":6459:6486  _injectAddrIndex[currentId] */\n      0x00\n      swap1\n      dup2\n      mstore\n        /* \"contracts/LuckyRedEnvelopeV2.sol\":6459:6475  _injectAddrIndex */\n      0x0d\n        /* \"contracts/LuckyRedEnvelopeV2.sol\":6459:6486  _injectAddrIndex[currentId] */\n      0x20\n      swap1\n      dup2\n      mstore\n      0x40\n      dup1\n      dup4\n      keccak256\n        /* \"contracts/LuckyRedEnvelopeV2.sol\":6487:6500  _redEnvelopes */\n      0x07\n        /* \"contracts/LuckyRedEnvelopeV2.sol\":6487:6511  _redEnvelopes[currentId] */\n      dup1\n      dup5\n      mstore\n      dup3\n      dup6\n      keccak256\n        /* \"contracts/LuckyRedEnvelopeV2.sol\":6487:6525  _redEnvelopes[currentId].injectAddrNum */\n      0x09\n      swap1\n      dup2\n      add\n      sload\n        /* \"contracts/LuckyRedEnvelopeV2.sol\":6459:6526  _injectAddrIndex[currentId][_redEnvelopes[currentId].injectAddrNum] */\n      dup7\n      mstore\n      swap2\n      dup5\n      mstore\n      dup3\n      dup6\n      keccak256\n        /* \"contracts/LuckyRedEnvelopeV2.sol\":6459:6543  _injectAddrIndex[currentId][_redEnvelopes[currentId].injectAddrNum] = _injectAddress */\n      dup1\n      sload\n      not(sub(shl(0xa0, 0x01), 0x01))\n      and\n      sub(shl(0xa0, 0x01), 0x01)\n      dup12\n      and\n      or\n      swap1\n      sstore\n        /* \"contracts/LuckyRedEnvelopeV2.sol\":6572:6581  currentId */\n      swap5\n      sload\n        /* \"contracts/LuckyRedEnvelopeV2.sol\":6558:6582  _redEnvelopes[currentId] */\n      dup5\n      mstore\n      swap4\n      swap1\n      swap2\n      mstore\n      dup2\n      keccak256\n        /* \"contracts/LuckyRedEnvelopeV2.sol\":6558:6596  _redEnvelopes[currentId].injectAddrNum */\n      swap1\n      swap2\n      add\n        /* \"contracts/LuckyRedEnvelopeV2.sol\":6558:6601  _redEnvelopes[currentId].injectAddrNum += 1 */\n      dup1\n      sload\n      0x01\n      swap3\n        /* \"contracts/LuckyRedEnvelopeV2.sol\":6459:6486  _injectAddrIndex[currentId] */\n      swap1\n        /* \"contracts/LuckyRedEnvelopeV2.sol\":6558:6601  _redEnvelopes[currentId].injectAddrNum += 1 */\n      tag_348\n      swap1\n      dup5\n      swap1\n      tag_201\n      jump\t// in\n    tag_348:\n      swap1\n      swap2\n      sstore\n      pop\n      pop\n        /* \"contracts/LuckyRedEnvelopeV2.sol\":6390:6613  if ( _injectTicketMap[currentId][_injectAddress] == 0){... */\n    tag_347:\n        /* \"contracts/LuckyRedEnvelopeV2.sol\":6640:6649  currentId */\n      sload(0x03)\n        /* \"contracts/LuckyRedEnvelopeV2.sol\":6623:6650  _injectTicketMap[currentId] */\n      0x00\n      swap1\n      dup2\n      mstore\n        /* \"contracts/LuckyRedEnvelopeV2.sol\":6623:6639  _injectTicketMap */\n      0x0e\n        /* \"contracts/LuckyRedEnvelopeV2.sol\":6623:6650  _injectTicketMap[currentId] */\n      0x20\n      swap1\n      dup2\n      mstore\n      0x40\n      dup1\n      dup4\n      keccak256\n      sub(shl(0xa0, 0x01), 0x01)\n        /* \"contracts/LuckyRedEnvelopeV2.sol\":6623:6666  _injectTicketMap[currentId][_injectAddress] */\n      dup8\n      and\n      dup5\n      mstore\n      swap1\n      swap2\n      mstore\n      dup2\n      keccak256\n        /* \"contracts/LuckyRedEnvelopeV2.sol\":6623:6684  _injectTicketMap[currentId][_injectAddress] += _ticketNumbers */\n      dup1\n      sload\n        /* \"contracts/LuckyRedEnvelopeV2.sol\":6670:6684  _ticketNumbers */\n      dup5\n      swap3\n        /* \"contracts/LuckyRedEnvelopeV2.sol\":6623:6650  _injectTicketMap[currentId] */\n      swap1\n        /* \"contracts/LuckyRedEnvelopeV2.sol\":6623:6684  _injectTicketMap[currentId][_injectAddress] += _ticketNumbers */\n      tag_349\n      swap1\n        /* \"contracts/LuckyRedEnvelopeV2.sol\":6670:6684  _ticketNumbers */\n      dup5\n      swap1\n        /* \"contracts/LuckyRedEnvelopeV2.sol\":6623:6684  _injectTicketMap[currentId][_injectAddress] += _ticketNumbers */\n      tag_201\n      jump\t// in\n    tag_349:\n      swap1\n      swap2\n      sstore\n      pop\n      pop\n        /* \"contracts/LuckyRedEnvelopeV2.sol\":6716:6725  currentId */\n      sload(0x03)\n        /* \"contracts/LuckyRedEnvelopeV2.sol\":6702:6765  TicketsInject(currentId,address(_injectAddress),_ticketNumbers) */\n      mload(0x40)\n        /* \"#utility.yul\":1919:1944   */\n      dup4\n      dup2\n      mstore\n      sub(shl(0xa0, 0x01), 0x01)\n        /* \"contracts/LuckyRedEnvelopeV2.sol\":6702:6765  TicketsInject(currentId,address(_injectAddress),_ticketNumbers) */\n      dup6\n      and\n      swap2\n        /* \"contracts/LuckyRedEnvelopeV2.sol\":6716:6725  currentId */\n      swap1\n        /* \"contracts/LuckyRedEnvelopeV2.sol\":6702:6765  TicketsInject(currentId,address(_injectAddress),_ticketNumbers) */\n      0xa95519638524dcea0d5d0102c719d77dc3d8b1ae68d2d1e37c79be21bc7b113b\n      swap1\n        /* \"#utility.yul\":1907:1909   */\n      0x20\n        /* \"#utility.yul\":1892:1910   */\n      add\n        /* \"contracts/LuckyRedEnvelopeV2.sol\":6702:6765  TicketsInject(currentId,address(_injectAddress),_ticketNumbers) */\n      mload(0x40)\n      dup1\n      swap2\n      sub\n      swap1\n      log3\n        /* \"contracts/LuckyRedEnvelopeV2.sol\":6039:6773  {... */\n      pop\n        /* \"contracts/LuckyRedEnvelopeV2.sol\":5949:6773  function _injectTickets(uint256 _id,address _injectAddress,uint256 _ticketNumbers)internal{... */\n      pop\n      pop\n      pop\n      jump\t// out\n        /* \"contracts/LuckyRedEnvelopeV2.sol\":6781:8515  function _fillTicket(uint256 _id,address _receiveAddress,uint256 _ticketNumbers,bool _buy)internal returns(uint256){... */\n    tag_207:\n        /* \"contracts/LuckyRedEnvelopeV2.sol\":6888:6895  uint256 */\n      0x00\n        /* \"contracts/LuckyRedEnvelopeV2.sol\":7369:7387  _redEnvelopes[_id] */\n      dup5\n      dup2\n      mstore\n        /* \"contracts/LuckyRedEnvelopeV2.sol\":7369:7382  _redEnvelopes */\n      0x07\n        /* \"contracts/LuckyRedEnvelopeV2.sol\":7369:7387  _redEnvelopes[_id] */\n      0x20\n      mstore\n      0x40\n      dup2\n      keccak256\n        /* \"contracts/LuckyRedEnvelopeV2.sol\":7369:7397  _redEnvelopes[_id].userTxNum */\n      0x08\n      add\n      sload\n        /* \"contracts/LuckyRedEnvelopeV2.sol\":6888:6895  uint256 */\n      dup2\n      swap1\n        /* \"contracts/LuckyRedEnvelopeV2.sol\":7369:7402  _redEnvelopes[_id].userTxNum != 0 */\n      iszero\n        /* \"contracts/LuckyRedEnvelopeV2.sol\":7365:7517  if (_redEnvelopes[_id].userTxNum != 0){... */\n      tag_352\n      jumpi\n        /* \"contracts/LuckyRedEnvelopeV2.sol\":7441:7454  _tickets[_id] */\n      0x00\n      dup7\n      dup2\n      mstore\n        /* \"contracts/LuckyRedEnvelopeV2.sol\":7441:7449  _tickets */\n      0x08\n        /* \"contracts/LuckyRedEnvelopeV2.sol\":7441:7454  _tickets[_id] */\n      0x20\n      dup2\n      dup2\n      mstore\n      0x40\n      dup1\n      dup5\n      keccak256\n        /* \"contracts/LuckyRedEnvelopeV2.sol\":7455:7468  _redEnvelopes */\n      0x07\n        /* \"contracts/LuckyRedEnvelopeV2.sol\":7455:7473  _redEnvelopes[_id] */\n      swap1\n      swap3\n      mstore\n      dup4\n      keccak256\n        /* \"contracts/LuckyRedEnvelopeV2.sol\":7455:7483  _redEnvelopes[_id].userTxNum */\n      swap1\n      swap2\n      add\n      sload\n        /* \"contracts/LuckyRedEnvelopeV2.sol\":7441:7454  _tickets[_id] */\n      swap1\n      swap2\n      swap1\n        /* \"contracts/LuckyRedEnvelopeV2.sol\":7455:7487  _redEnvelopes[_id].userTxNum - 1 */\n      tag_353\n      swap1\n        /* \"contracts/LuckyRedEnvelopeV2.sol\":7486:7487  1 */\n      0x01\n      swap1\n        /* \"contracts/LuckyRedEnvelopeV2.sol\":7455:7487  _redEnvelopes[_id].userTxNum - 1 */\n      tag_354\n      jump\t// in\n    tag_353:\n        /* \"contracts/LuckyRedEnvelopeV2.sol\":7441:7488  _tickets[_id][_redEnvelopes[_id].userTxNum - 1] */\n      dup2\n      mstore\n      0x20\n      add\n      swap1\n      dup2\n      mstore\n      0x20\n      add\n      0x00\n      keccak256\n        /* \"contracts/LuckyRedEnvelopeV2.sol\":7441:7501  _tickets[_id][_redEnvelopes[_id].userTxNum - 1].totalNumbers */\n      0x00\n      add\n      sload\n        /* \"contracts/LuckyRedEnvelopeV2.sol\":7422:7501  lastTotalNumbers = _tickets[_id][_redEnvelopes[_id].userTxNum - 1].totalNumbers */\n      swap1\n      pop\n        /* \"contracts/LuckyRedEnvelopeV2.sol\":7365:7517  if (_redEnvelopes[_id].userTxNum != 0){... */\n    tag_352:\n        /* \"contracts/LuckyRedEnvelopeV2.sol\":7577:7813  Ticket({... */\n      mload(0x40)\n      dup1\n      0x60\n      add\n      0x40\n      mstore\n      dup1\n        /* \"contracts/LuckyRedEnvelopeV2.sol\":7748:7762  _ticketNumbers */\n      dup6\n        /* \"contracts/LuckyRedEnvelopeV2.sol\":7729:7745  lastTotalNumbers */\n      dup4\n        /* \"contracts/LuckyRedEnvelopeV2.sol\":7729:7762  lastTotalNumbers + _ticketNumbers */\n      tag_355\n      swap2\n      swap1\n      tag_201\n      jump\t// in\n    tag_355:\n        /* \"contracts/LuckyRedEnvelopeV2.sol\":7577:7813  Ticket({... */\n      dup2\n      mstore\n      sub(shl(0xa0, 0x01), 0x01)\n      dup1\n      dup9\n      and\n      0x20\n      dup1\n      dup5\n      add\n      swap2\n      swap1\n      swap2\n      mstore\n      dup7\n      iszero\n      dup1\n      iszero\n      0x40\n      swap5\n      dup6\n      add\n      mstore\n      0x00\n        /* \"contracts/LuckyRedEnvelopeV2.sol\":7531:7544  _tickets[_id] */\n      dup12\n      dup2\n      mstore\n        /* \"contracts/LuckyRedEnvelopeV2.sol\":7531:7539  _tickets */\n      0x08\n        /* \"contracts/LuckyRedEnvelopeV2.sol\":7531:7544  _tickets[_id] */\n      dup1\n      dup5\n      mstore\n      dup6\n      dup3\n      keccak256\n        /* \"contracts/LuckyRedEnvelopeV2.sol\":7545:7558  _redEnvelopes */\n      0x07\n        /* \"contracts/LuckyRedEnvelopeV2.sol\":7545:7563  _redEnvelopes[_id] */\n      dup6\n      mstore\n      dup7\n      dup4\n      keccak256\n        /* \"contracts/LuckyRedEnvelopeV2.sol\":7545:7573  _redEnvelopes[_id].userTxNum */\n      swap1\n      swap2\n      add\n      sload\n        /* \"contracts/LuckyRedEnvelopeV2.sol\":7531:7574  _tickets[_id][_redEnvelopes[_id].userTxNum] */\n      dup3\n      mstore\n      dup4\n      mstore\n      dup5\n      swap1\n      keccak256\n        /* \"contracts/LuckyRedEnvelopeV2.sol\":7531:7813  _tickets[_id][_redEnvelopes[_id].userTxNum] = Ticket({... */\n      dup6\n      mload\n      dup2\n      sstore\n      swap2\n      dup6\n      add\n      mload\n      0x01\n      swap1\n      swap3\n      add\n      dup1\n      sload\n      swap6\n      swap1\n      swap5\n      add\n      mload\n      iszero\n      iszero\n      shl(0xa0, 0x01)\n      mul\n      not(sub(shl(0xa8, 0x01), 0x01))\n      swap1\n      swap6\n      and\n      swap2\n      swap1\n      swap3\n      and\n      or\n      swap3\n      swap1\n      swap3\n      or\n      swap1\n      sstore\n        /* \"contracts/LuckyRedEnvelopeV2.sol\":7830:8071  if (_buy){... */\n      tag_356\n      jumpi\n        /* \"contracts/LuckyRedEnvelopeV2.sol\":7890:7908  _redEnvelopes[_id] */\n      0x00\n      dup7\n      dup2\n      mstore\n        /* \"contracts/LuckyRedEnvelopeV2.sol\":7890:7903  _redEnvelopes */\n      0x07\n        /* \"contracts/LuckyRedEnvelopeV2.sol\":7890:7908  _redEnvelopes[_id] */\n      0x20\n      mstore\n      0x40\n      swap1\n      keccak256\n        /* \"contracts/LuckyRedEnvelopeV2.sol\":7890:7919  _redEnvelopes[_id].buyTickets */\n      0x04\n      add\n      sload\n        /* \"contracts/LuckyRedEnvelopeV2.sol\":7890:7936  _redEnvelopes[_id].buyTickets + _ticketNumbers */\n      tag_357\n      swap1\n        /* \"contracts/LuckyRedEnvelopeV2.sol\":7922:7936  _ticketNumbers */\n      dup6\n      swap1\n        /* \"contracts/LuckyRedEnvelopeV2.sol\":7890:7936  _redEnvelopes[_id].buyTickets + _ticketNumbers */\n      tag_201\n      jump\t// in\n    tag_357:\n        /* \"contracts/LuckyRedEnvelopeV2.sol\":7858:7876  _redEnvelopes[_id] */\n      0x00\n      dup8\n      dup2\n      mstore\n        /* \"contracts/LuckyRedEnvelopeV2.sol\":7858:7871  _redEnvelopes */\n      0x07\n        /* \"contracts/LuckyRedEnvelopeV2.sol\":7858:7876  _redEnvelopes[_id] */\n      0x20\n      mstore\n      0x40\n      swap1\n      keccak256\n        /* \"contracts/LuckyRedEnvelopeV2.sol\":7858:7887  _redEnvelopes[_id].buyTickets */\n      0x04\n      add\n        /* \"contracts/LuckyRedEnvelopeV2.sol\":7858:7936  _redEnvelopes[_id].buyTickets = _redEnvelopes[_id].buyTickets + _ticketNumbers */\n      sstore\n        /* \"contracts/LuckyRedEnvelopeV2.sol\":7830:8071  if (_buy){... */\n      jump(tag_358)\n    tag_356:\n        /* \"contracts/LuckyRedEnvelopeV2.sol\":8008:8026  _redEnvelopes[_id] */\n      0x00\n      dup7\n      dup2\n      mstore\n        /* \"contracts/LuckyRedEnvelopeV2.sol\":8008:8021  _redEnvelopes */\n      0x07\n        /* \"contracts/LuckyRedEnvelopeV2.sol\":8008:8026  _redEnvelopes[_id] */\n      0x20\n      mstore\n      0x40\n      swap1\n      keccak256\n        /* \"contracts/LuckyRedEnvelopeV2.sol\":8008:8038  _redEnvelopes[_id].sendTickets */\n      0x05\n      add\n      sload\n        /* \"contracts/LuckyRedEnvelopeV2.sol\":8008:8055  _redEnvelopes[_id].sendTickets + _ticketNumbers */\n      tag_359\n      swap1\n        /* \"contracts/LuckyRedEnvelopeV2.sol\":8041:8055  _ticketNumbers */\n      dup6\n      swap1\n        /* \"contracts/LuckyRedEnvelopeV2.sol\":8008:8055  _redEnvelopes[_id].sendTickets + _ticketNumbers */\n      tag_201\n      jump\t// in\n    tag_359:\n        /* \"contracts/LuckyRedEnvelopeV2.sol\":7975:7993  _redEnvelopes[_id] */\n      0x00\n      dup8\n      dup2\n      mstore\n        /* \"contracts/LuckyRedEnvelopeV2.sol\":7975:7988  _redEnvelopes */\n      0x07\n        /* \"contracts/LuckyRedEnvelopeV2.sol\":7975:7993  _redEnvelopes[_id] */\n      0x20\n      mstore\n      0x40\n      swap1\n      keccak256\n        /* \"contracts/LuckyRedEnvelopeV2.sol\":7975:8005  _redEnvelopes[_id].sendTickets */\n      0x05\n      add\n        /* \"contracts/LuckyRedEnvelopeV2.sol\":7975:8055  _redEnvelopes[_id].sendTickets = _redEnvelopes[_id].sendTickets + _ticketNumbers */\n      sstore\n        /* \"contracts/LuckyRedEnvelopeV2.sol\":7830:8071  if (_buy){... */\n    tag_358:\n        /* \"contracts/LuckyRedEnvelopeV2.sol\":8103:8126  _userAddrTicketNum[_id] */\n      0x00\n      dup7\n      dup2\n      mstore\n        /* \"contracts/LuckyRedEnvelopeV2.sol\":8103:8121  _userAddrTicketNum */\n      0x0a\n        /* \"contracts/LuckyRedEnvelopeV2.sol\":8103:8126  _userAddrTicketNum[_id] */\n      0x20\n      swap1\n      dup2\n      mstore\n      0x40\n      dup1\n      dup4\n      keccak256\n      sub(shl(0xa0, 0x01), 0x01)\n        /* \"contracts/LuckyRedEnvelopeV2.sol\":8103:8143  _userAddrTicketNum[_id][_receiveAddress] */\n      dup10\n      and\n      dup5\n      mstore\n      swap1\n      swap2\n      mstore\n      dup2\n      keccak256\n      sload\n        /* \"contracts/LuckyRedEnvelopeV2.sol\":8103:8148  _userAddrTicketNum[_id][_receiveAddress] == 0 */\n      swap1\n      sub\n        /* \"contracts/LuckyRedEnvelopeV2.sol\":8099:8307  if (_userAddrTicketNum[_id][_receiveAddress] == 0){... */\n      tag_360\n      jumpi\n        /* \"contracts/LuckyRedEnvelopeV2.sol\":8168:8187  _userAddrIndex[_id] */\n      0x00\n      dup7\n      dup2\n      mstore\n        /* \"contracts/LuckyRedEnvelopeV2.sol\":8168:8182  _userAddrIndex */\n      0x0b\n        /* \"contracts/LuckyRedEnvelopeV2.sol\":8168:8187  _userAddrIndex[_id] */\n      0x20\n      swap1\n      dup2\n      mstore\n      0x40\n      dup1\n      dup4\n      keccak256\n        /* \"contracts/LuckyRedEnvelopeV2.sol\":8188:8201  _redEnvelopes */\n      0x07\n        /* \"contracts/LuckyRedEnvelopeV2.sol\":8188:8206  _redEnvelopes[_id] */\n      dup1\n      dup5\n      mstore\n      dup3\n      dup6\n      keccak256\n        /* \"contracts/LuckyRedEnvelopeV2.sol\":8188:8218  _redEnvelopes[_id].userAddrNum */\n      dup2\n      add\n      dup1\n      sload\n        /* \"contracts/LuckyRedEnvelopeV2.sol\":8168:8219  _userAddrIndex[_id][_redEnvelopes[_id].userAddrNum] */\n      dup7\n      mstore\n      swap2\n      dup5\n      mstore\n      swap2\n      dup5\n      keccak256\n        /* \"contracts/LuckyRedEnvelopeV2.sol\":8168:8237  _userAddrIndex[_id][_redEnvelopes[_id].userAddrNum] = _receiveAddress */\n      dup1\n      sload\n      not(sub(shl(0xa0, 0x01), 0x01))\n      and\n      sub(shl(0xa0, 0x01), 0x01)\n      dup12\n      and\n      or\n      swap1\n      sstore\n        /* \"contracts/LuckyRedEnvelopeV2.sol\":8256:8274  _redEnvelopes[_id] */\n      dup10\n      dup5\n      mstore\n      swap2\n      mstore\n        /* \"contracts/LuckyRedEnvelopeV2.sol\":8256:8291  _redEnvelopes[_id].userAddrNum += 1 */\n      dup1\n      sload\n      0x01\n      swap3\n        /* \"contracts/LuckyRedEnvelopeV2.sol\":8168:8187  _userAddrIndex[_id] */\n      swap1\n        /* \"contracts/LuckyRedEnvelopeV2.sol\":8256:8291  _redEnvelopes[_id].userAddrNum += 1 */\n      tag_361\n      swap1\n      dup5\n      swap1\n      tag_201\n      jump\t// in\n    tag_361:\n      swap1\n      swap2\n      sstore\n      pop\n      pop\n        /* \"contracts/LuckyRedEnvelopeV2.sol\":8099:8307  if (_userAddrTicketNum[_id][_receiveAddress] == 0){... */\n    tag_360:\n        /* \"contracts/LuckyRedEnvelopeV2.sol\":8321:8339  _redEnvelopes[_id] */\n      0x00\n      dup7\n      dup2\n      mstore\n        /* \"contracts/LuckyRedEnvelopeV2.sol\":8321:8334  _redEnvelopes */\n      0x07\n        /* \"contracts/LuckyRedEnvelopeV2.sol\":8321:8339  _redEnvelopes[_id] */\n      0x20\n      mstore\n      0x40\n      dup2\n      keccak256\n        /* \"contracts/LuckyRedEnvelopeV2.sol\":8321:8349  _redEnvelopes[_id].userTxNum */\n      0x08\n      add\n        /* \"contracts/LuckyRedEnvelopeV2.sol\":8321:8354  _redEnvelopes[_id].userTxNum += 1 */\n      dup1\n      sload\n        /* \"contracts/LuckyRedEnvelopeV2.sol\":8353:8354  1 */\n      0x01\n      swap3\n        /* \"contracts/LuckyRedEnvelopeV2.sol\":8321:8339  _redEnvelopes[_id] */\n      swap1\n        /* \"contracts/LuckyRedEnvelopeV2.sol\":8321:8354  _redEnvelopes[_id].userTxNum += 1 */\n      tag_362\n      swap1\n        /* \"contracts/LuckyRedEnvelopeV2.sol\":8353:8354  1 */\n      dup5\n      swap1\n        /* \"contracts/LuckyRedEnvelopeV2.sol\":8321:8354  _redEnvelopes[_id].userTxNum += 1 */\n      tag_201\n      jump\t// in\n    tag_362:\n      swap1\n      swap2\n      sstore\n      pop\n      pop\n        /* \"contracts/LuckyRedEnvelopeV2.sol\":8412:8435  _userAddrTicketNum[_id] */\n      0x00\n      dup7\n      dup2\n      mstore\n        /* \"contracts/LuckyRedEnvelopeV2.sol\":8412:8430  _userAddrTicketNum */\n      0x0a\n        /* \"contracts/LuckyRedEnvelopeV2.sol\":8412:8435  _userAddrTicketNum[_id] */\n      0x20\n      swap1\n      dup2\n      mstore\n      0x40\n      dup1\n      dup4\n      keccak256\n      sub(shl(0xa0, 0x01), 0x01)\n        /* \"contracts/LuckyRedEnvelopeV2.sol\":8412:8452  _userAddrTicketNum[_id][_receiveAddress] */\n      dup10\n      and\n      dup5\n      mstore\n      swap1\n      swap2\n      mstore\n      swap1\n      keccak256\n      sload\n        /* \"contracts/LuckyRedEnvelopeV2.sol\":8412:8469  _userAddrTicketNum[_id][_receiveAddress] + _ticketNumbers */\n      tag_363\n      swap1\n        /* \"contracts/LuckyRedEnvelopeV2.sol\":8455:8469  _ticketNumbers */\n      dup6\n      swap1\n        /* \"contracts/LuckyRedEnvelopeV2.sol\":8412:8469  _userAddrTicketNum[_id][_receiveAddress] + _ticketNumbers */\n      tag_201\n      jump\t// in\n    tag_363:\n        /* \"contracts/LuckyRedEnvelopeV2.sol\":8369:8392  _userAddrTicketNum[_id] */\n      0x00\n      dup8\n      dup2\n      mstore\n        /* \"contracts/LuckyRedEnvelopeV2.sol\":8369:8387  _userAddrTicketNum */\n      0x0a\n        /* \"contracts/LuckyRedEnvelopeV2.sol\":8369:8392  _userAddrTicketNum[_id] */\n      0x20\n      swap1\n      dup2\n      mstore\n      0x40\n      dup1\n      dup4\n      keccak256\n      sub(shl(0xa0, 0x01), 0x01)\n        /* \"contracts/LuckyRedEnvelopeV2.sol\":8369:8409  _userAddrTicketNum[_id][_receiveAddress] */\n      dup11\n      and\n      dup5\n      mstore\n      swap1\n      swap2\n      mstore\n      swap1\n      keccak256\n        /* \"contracts/LuckyRedEnvelopeV2.sol\":8369:8469  _userAddrTicketNum[_id][_receiveAddress] = _userAddrTicketNum[_id][_receiveAddress] + _ticketNumbers */\n      sstore\n        /* \"contracts/LuckyRedEnvelopeV2.sol\":8491:8507  lastTotalNumbers */\n      swap1\n      pop\n        /* \"contracts/LuckyRedEnvelopeV2.sol\":6781:8515  function _fillTicket(uint256 _id,address _receiveAddress,uint256 _ticketNumbers,bool _buy)internal returns(uint256){... */\n      swap5\n      swap4\n      pop\n      pop\n      pop\n      pop\n      jump\t// out\n        /* \"@openzeppelin/contracts/access/Ownable.sol\":1796:1958  function _checkOwner() internal view virtual {... */\n    tag_213:\n        /* \"@openzeppelin/contracts/access/Ownable.sol\":1710:1716  _owner */\n      and(sub(shl(0xa0, 0x01), 0x01), sload(0x01))\n        /* \"@openzeppelin/contracts/utils/Context.sol\":735:745  msg.sender */\n      caller\n        /* \"@openzeppelin/contracts/access/Ownable.sol\":1855:1878  owner() != _msgSender() */\n      eq\n        /* \"@openzeppelin/contracts/access/Ownable.sol\":1851:1952  if (owner() != _msgSender()) {... */\n      tag_215\n      jumpi\n        /* \"@openzeppelin/contracts/access/Ownable.sol\":1901:1941  OwnableUnauthorizedAccount(_msgSender()) */\n      mload(0x40)\n      shl(0xe0, 0x118cdaa7)\n      dup2\n      mstore\n        /* \"@openzeppelin/contracts/utils/Context.sol\":735:745  msg.sender */\n      caller\n        /* \"@openzeppelin/contracts/access/Ownable.sol\":1901:1941  OwnableUnauthorizedAccount(_msgSender()) */\n      0x04\n      dup3\n      add\n        /* \"#utility.yul\":2790:2841   */\n      mstore\n        /* \"#utility.yul\":2763:2781   */\n      0x24\n      add\n        /* \"@openzeppelin/contracts/access/Ownable.sol\":1901:1941  OwnableUnauthorizedAccount(_msgSender()) */\n      tag_117\n        /* \"#utility.yul\":2644:2847   */\n      jump\n        /* \"@openzeppelin/contracts/access/Ownable.sol\":2912:3099  function _transferOwnership(address newOwner) internal virtual {... */\n    tag_216:\n        /* \"@openzeppelin/contracts/access/Ownable.sol\":3004:3010  _owner */\n      0x01\n      dup1\n      sload\n      sub(shl(0xa0, 0x01), 0x01)\n        /* \"@openzeppelin/contracts/access/Ownable.sol\":3020:3037  _owner = newOwner */\n      dup4\n      dup2\n      and\n      not(sub(shl(0xa0, 0x01), 0x01))\n      dup4\n      and\n      dup2\n      or\n      swap1\n      swap4\n      sstore\n        /* \"@openzeppelin/contracts/access/Ownable.sol\":3052:3092  OwnershipTransferred(oldOwner, newOwner) */\n      mload(0x40)\n        /* \"@openzeppelin/contracts/access/Ownable.sol\":3004:3010  _owner */\n      swap2\n      and\n      swap2\n        /* \"@openzeppelin/contracts/access/Ownable.sol\":3020:3037  _owner = newOwner */\n      swap1\n        /* \"@openzeppelin/contracts/access/Ownable.sol\":3004:3010  _owner */\n      dup3\n      swap1\n        /* \"@openzeppelin/contracts/access/Ownable.sol\":3052:3092  OwnershipTransferred(oldOwner, newOwner) */\n      0x8be0079c531659141344cd1fd0a4f28419497f9722a3daafe3b4186f6b6457e0\n      swap1\n        /* \"@openzeppelin/contracts/access/Ownable.sol\":2985:3001  address oldOwner */\n      0x00\n      swap1\n        /* \"@openzeppelin/contracts/access/Ownable.sol\":3052:3092  OwnershipTransferred(oldOwner, newOwner) */\n      log3\n        /* \"@openzeppelin/contracts/access/Ownable.sol\":2975:3099  {... */\n      pop\n        /* \"@openzeppelin/contracts/access/Ownable.sol\":2912:3099  function _transferOwnership(address newOwner) internal virtual {... */\n      pop\n      jump\t// out\n        /* \"contracts/LuckyRedEnvelopeV2.sol\":11440:11817  function _returnInject(uint256 _id)internal{... */\n    tag_251:\n        /* \"contracts/LuckyRedEnvelopeV2.sol\":11499:11508  uint256 i */\n      0x00\n        /* \"contracts/LuckyRedEnvelopeV2.sol\":11494:11810  for (uint256 i = 0;i <  _redEnvelopes[_id].injectAddrNum;i ++){... */\n    tag_373:\n        /* \"contracts/LuckyRedEnvelopeV2.sol\":11518:11536  _redEnvelopes[_id] */\n      0x00\n      dup3\n      dup2\n      mstore\n        /* \"contracts/LuckyRedEnvelopeV2.sol\":11518:11531  _redEnvelopes */\n      0x07\n        /* \"contracts/LuckyRedEnvelopeV2.sol\":11518:11536  _redEnvelopes[_id] */\n      0x20\n      mstore\n      0x40\n      swap1\n      keccak256\n        /* \"contracts/LuckyRedEnvelopeV2.sol\":11518:11550  _redEnvelopes[_id].injectAddrNum */\n      0x09\n      add\n      sload\n        /* \"contracts/LuckyRedEnvelopeV2.sol\":11513:11550  i <  _redEnvelopes[_id].injectAddrNum */\n      dup2\n      lt\n        /* \"contracts/LuckyRedEnvelopeV2.sol\":11494:11810  for (uint256 i = 0;i <  _redEnvelopes[_id].injectAddrNum;i ++){... */\n      iszero\n      tag_177\n      jumpi\n        /* \"contracts/LuckyRedEnvelopeV2.sol\":11571:11600  uint256 amountTokenToTransfer */\n      0x00\n        /* \"contracts/LuckyRedEnvelopeV2.sol\":11636:11657  _injectTicketMap[_id] */\n      dup3\n      dup2\n      mstore\n        /* \"contracts/LuckyRedEnvelopeV2.sol\":11636:11652  _injectTicketMap */\n      0x0e\n        /* \"contracts/LuckyRedEnvelopeV2.sol\":11636:11657  _injectTicketMap[_id] */\n      0x20\n      swap1\n      dup2\n      mstore\n      0x40\n      dup1\n      dup4\n      keccak256\n        /* \"contracts/LuckyRedEnvelopeV2.sol\":11658:11674  _injectAddrIndex */\n      0x0d\n        /* \"contracts/LuckyRedEnvelopeV2.sol\":11658:11679  _injectAddrIndex[_id] */\n      dup4\n      mstore\n      dup2\n      dup5\n      keccak256\n        /* \"contracts/LuckyRedEnvelopeV2.sol\":11658:11682  _injectAddrIndex[_id][i] */\n      dup6\n      dup6\n      mstore\n      dup4\n      mstore\n      dup2\n      dup5\n      keccak256\n      sload\n      sub(shl(0xa0, 0x01), 0x01)\n      and\n        /* \"contracts/LuckyRedEnvelopeV2.sol\":11636:11683  _injectTicketMap[_id][_injectAddrIndex[_id][i]] */\n      dup5\n      mstore\n      dup3\n      mstore\n      dup1\n      dup4\n      keccak256\n      sload\n        /* \"contracts/LuckyRedEnvelopeV2.sol\":11603:11621  _redEnvelopes[_id] */\n      dup6\n      dup5\n      mstore\n        /* \"contracts/LuckyRedEnvelopeV2.sol\":11603:11616  _redEnvelopes */\n      0x07\n        /* \"contracts/LuckyRedEnvelopeV2.sol\":11603:11621  _redEnvelopes[_id] */\n      swap1\n      swap3\n      mstore\n      dup3\n      keccak256\n        /* \"contracts/LuckyRedEnvelopeV2.sol\":11603:11633  _redEnvelopes[_id].ticketPirce */\n      0x0a\n      add\n      sload\n        /* \"contracts/LuckyRedEnvelopeV2.sol\":11603:11683  _redEnvelopes[_id].ticketPirce * _injectTicketMap[_id][_injectAddrIndex[_id][i]] */\n      tag_376\n      swap2\n        /* \"contracts/LuckyRedEnvelopeV2.sol\":11636:11683  _injectTicketMap[_id][_injectAddrIndex[_id][i]] */\n      swap1\n        /* \"contracts/LuckyRedEnvelopeV2.sol\":11603:11683  _redEnvelopes[_id].ticketPirce * _injectTicketMap[_id][_injectAddrIndex[_id][i]] */\n      tag_256\n      jump\t// in\n    tag_376:\n        /* \"contracts/LuckyRedEnvelopeV2.sol\":11750:11771  _injectAddrIndex[_id] */\n      0x00\n      dup5\n      dup2\n      mstore\n        /* \"contracts/LuckyRedEnvelopeV2.sol\":11750:11766  _injectAddrIndex */\n      0x0d\n        /* \"contracts/LuckyRedEnvelopeV2.sol\":11750:11771  _injectAddrIndex[_id] */\n      0x20\n      swap1\n      dup2\n      mstore\n      0x40\n      dup1\n      dup4\n      keccak256\n        /* \"contracts/LuckyRedEnvelopeV2.sol\":11750:11774  _injectAddrIndex[_id][i] */\n      dup7\n      dup5\n      mstore\n      dup3\n      mstore\n      dup1\n      dup4\n      keccak256\n      sload\n        /* \"contracts/LuckyRedEnvelopeV2.sol\":11705:11723  _redEnvelopes[_id] */\n      dup8\n      dup5\n      mstore\n        /* \"contracts/LuckyRedEnvelopeV2.sol\":11705:11718  _redEnvelopes */\n      0x07\n        /* \"contracts/LuckyRedEnvelopeV2.sol\":11705:11723  _redEnvelopes[_id] */\n      swap1\n      swap3\n      mstore\n      swap1\n      swap2\n      keccak256\n        /* \"contracts/LuckyRedEnvelopeV2.sol\":11705:11735  _redEnvelopes[_id].ticketToken */\n      sload\n        /* \"contracts/LuckyRedEnvelopeV2.sol\":11571:11683  uint256 amountTokenToTransfer = _redEnvelopes[_id].ticketPirce * _injectTicketMap[_id][_injectAddrIndex[_id][i]] */\n      swap2\n      swap3\n      pop\n        /* \"contracts/LuckyRedEnvelopeV2.sol\":11698:11798  IERC20(_redEnvelopes[_id].ticketToken).safeTransfer(_injectAddrIndex[_id][i], amountTokenToTransfer) */\n      tag_377\n      swap2\n      sub(shl(0xa0, 0x01), 0x01)\n        /* \"contracts/LuckyRedEnvelopeV2.sol\":11705:11735  _redEnvelopes[_id].ticketToken */\n      swap1\n      dup2\n      and\n      swap2\n        /* \"contracts/LuckyRedEnvelopeV2.sol\":11750:11774  _injectAddrIndex[_id][i] */\n      and\n        /* \"contracts/LuckyRedEnvelopeV2.sol\":11571:11683  uint256 amountTokenToTransfer = _redEnvelopes[_id].ticketPirce * _injectTicketMap[_id][_injectAddrIndex[_id][i]] */\n      dup4\n        /* \"contracts/LuckyRedEnvelopeV2.sol\":11698:11749  IERC20(_redEnvelopes[_id].ticketToken).safeTransfer */\n      tag_378\n        /* \"contracts/LuckyRedEnvelopeV2.sol\":11698:11798  IERC20(_redEnvelopes[_id].ticketToken).safeTransfer(_injectAddrIndex[_id][i], amountTokenToTransfer) */\n      jump\t// in\n    tag_377:\n      pop\n        /* \"contracts/LuckyRedEnvelopeV2.sol\":11551:11555  i ++ */\n      0x01\n      add\n        /* \"contracts/LuckyRedEnvelopeV2.sol\":11494:11810  for (uint256 i = 0;i <  _redEnvelopes[_id].injectAddrNum;i ++){... */\n      jump(tag_373)\n        /* \"contracts/LuckyRedEnvelopeV2.sol\":16670:17278  function _getSortRandoms(uint256 _seed,uint256 _num,uint256 _range) internal pure returns(uint256[] memory){... */\n    tag_258:\n        /* \"contracts/LuckyRedEnvelopeV2.sol\":16760:16776  uint256[] memory */\n      0x60\n        /* \"contracts/LuckyRedEnvelopeV2.sol\":16788:16812  uint256[] memory randons */\n      0x00\n        /* \"contracts/LuckyRedEnvelopeV2.sol\":16829:16833  _num */\n      dup4\n        /* \"contracts/LuckyRedEnvelopeV2.sol\":16815:16834  new uint256[](_num) */\n      0xffffffffffffffff\n      dup2\n      gt\n      iszero\n      tag_381\n      jumpi\n      tag_381\n      tag_382\n      jump\t// in\n    tag_381:\n      mload(0x40)\n      swap1\n      dup1\n      dup3\n      mstore\n      dup1\n      0x20\n      mul\n      0x20\n      add\n      dup3\n      add\n      0x40\n      mstore\n      dup1\n      iszero\n      tag_383\n      jumpi\n      dup2\n      0x20\n      add\n      0x20\n      dup3\n      mul\n      dup1\n      calldatasize\n      dup4\n      calldatacopy\n      add\n      swap1\n      pop\n    tag_383:\n      pop\n        /* \"contracts/LuckyRedEnvelopeV2.sol\":16788:16834  uint256[] memory randons = new uint256[](_num) */\n      swap1\n      pop\n        /* \"contracts/LuckyRedEnvelopeV2.sol\":16860:16865  _seed */\n      dup5\n        /* \"contracts/LuckyRedEnvelopeV2.sol\":16845:16857  uint256 seed */\n      0x00\n        /* \"contracts/LuckyRedEnvelopeV2.sol\":16876:17211  for (uint256 i = 0; i < _num - 1; i++){... */\n    tag_384:\n        /* \"contracts/LuckyRedEnvelopeV2.sol\":16900:16908  _num - 1 */\n      tag_387\n        /* \"contracts/LuckyRedEnvelopeV2.sol\":16907:16908  1 */\n      0x01\n        /* \"contracts/LuckyRedEnvelopeV2.sol\":16900:16904  _num */\n      dup8\n        /* \"contracts/LuckyRedEnvelopeV2.sol\":16900:16908  _num - 1 */\n      tag_354\n      jump\t// in\n    tag_387:\n        /* \"contracts/LuckyRedEnvelopeV2.sol\":16896:16897  i */\n      dup2\n        /* \"contracts/LuckyRedEnvelopeV2.sol\":16896:16908  i < _num - 1 */\n      lt\n        /* \"contracts/LuckyRedEnvelopeV2.sol\":16876:17211  for (uint256 i = 0; i < _num - 1; i++){... */\n      iszero\n      tag_385\n      jumpi\n        /* \"contracts/LuckyRedEnvelopeV2.sol\":16936:16957  _deriveRandom(seed,i) */\n      tag_388\n        /* \"contracts/LuckyRedEnvelopeV2.sol\":16950:16954  seed */\n      dup3\n        /* \"contracts/LuckyRedEnvelopeV2.sol\":16955:16956  i */\n      dup3\n        /* \"contracts/LuckyRedEnvelopeV2.sol\":16936:16949  _deriveRandom */\n      tag_389\n        /* \"contracts/LuckyRedEnvelopeV2.sol\":16936:16957  _deriveRandom(seed,i) */\n      jump\t// in\n    tag_388:\n        /* \"contracts/LuckyRedEnvelopeV2.sol\":16929:16957  seed = _deriveRandom(seed,i) */\n      swap2\n      pop\n        /* \"contracts/LuckyRedEnvelopeV2.sol\":16972:16985  uint256 value */\n      0x00\n        /* \"contracts/LuckyRedEnvelopeV2.sol\":16988:17001  seed % _range */\n      tag_390\n        /* \"contracts/LuckyRedEnvelopeV2.sol\":16995:17001  _range */\n      dup7\n        /* \"contracts/LuckyRedEnvelopeV2.sol\":16929:16957  seed = _deriveRandom(seed,i) */\n      dup5\n        /* \"contracts/LuckyRedEnvelopeV2.sol\":16988:17001  seed % _range */\n      tag_391\n      jump\t// in\n    tag_390:\n        /* \"contracts/LuckyRedEnvelopeV2.sol\":16972:17001  uint256 value = seed % _range */\n      swap1\n      pop\n        /* \"contracts/LuckyRedEnvelopeV2.sol\":17028:17029  i */\n      dup2\n        /* \"contracts/LuckyRedEnvelopeV2.sol\":17044:17167  while((j >= 1) && value < randons[j - 1]){... */\n    tag_392:\n        /* \"contracts/LuckyRedEnvelopeV2.sol\":17056:17057  1 */\n      0x01\n        /* \"contracts/LuckyRedEnvelopeV2.sol\":17051:17052  j */\n      dup2\n        /* \"contracts/LuckyRedEnvelopeV2.sol\":17051:17057  j >= 1 */\n      lt\n      iszero\n        /* \"contracts/LuckyRedEnvelopeV2.sol\":17050:17084  (j >= 1) && value < randons[j - 1] */\n      dup1\n      iszero\n      tag_394\n      jumpi\n      pop\n        /* \"contracts/LuckyRedEnvelopeV2.sol\":17070:17077  randons */\n      dup5\n        /* \"contracts/LuckyRedEnvelopeV2.sol\":17078:17083  j - 1 */\n      tag_395\n        /* \"contracts/LuckyRedEnvelopeV2.sol\":17082:17083  1 */\n      0x01\n        /* \"contracts/LuckyRedEnvelopeV2.sol\":17078:17079  j */\n      dup4\n        /* \"contracts/LuckyRedEnvelopeV2.sol\":17078:17083  j - 1 */\n      tag_354\n      jump\t// in\n    tag_395:\n        /* \"contracts/LuckyRedEnvelopeV2.sol\":17070:17084  randons[j - 1] */\n      dup2\n      mload\n      dup2\n      lt\n      tag_397\n      jumpi\n      tag_397\n      tag_398\n      jump\t// in\n    tag_397:\n      0x20\n      mul\n      0x20\n      add\n      add\n      mload\n        /* \"contracts/LuckyRedEnvelopeV2.sol\":17062:17067  value */\n      dup3\n        /* \"contracts/LuckyRedEnvelopeV2.sol\":17062:17084  value < randons[j - 1] */\n      lt\n        /* \"contracts/LuckyRedEnvelopeV2.sol\":17050:17084  (j >= 1) && value < randons[j - 1] */\n    tag_394:\n        /* \"contracts/LuckyRedEnvelopeV2.sol\":17044:17167  while((j >= 1) && value < randons[j - 1]){... */\n      iszero\n      tag_393\n      jumpi\n        /* \"contracts/LuckyRedEnvelopeV2.sol\":17117:17124  randons */\n      dup5\n        /* \"contracts/LuckyRedEnvelopeV2.sol\":17125:17128  j-1 */\n      tag_399\n        /* \"contracts/LuckyRedEnvelopeV2.sol\":17127:17128  1 */\n      0x01\n        /* \"contracts/LuckyRedEnvelopeV2.sol\":17125:17126  j */\n      dup4\n        /* \"contracts/LuckyRedEnvelopeV2.sol\":17125:17128  j-1 */\n      tag_354\n      jump\t// in\n    tag_399:\n        /* \"contracts/LuckyRedEnvelopeV2.sol\":17117:17129  randons[j-1] */\n      dup2\n      mload\n      dup2\n      lt\n      tag_401\n      jumpi\n      tag_401\n      tag_398\n      jump\t// in\n    tag_401:\n      0x20\n      mul\n      0x20\n      add\n      add\n      mload\n        /* \"contracts/LuckyRedEnvelopeV2.sol\":17104:17111  randons */\n      dup6\n        /* \"contracts/LuckyRedEnvelopeV2.sol\":17112:17113  j */\n      dup3\n        /* \"contracts/LuckyRedEnvelopeV2.sol\":17104:17114  randons[j] */\n      dup2\n      mload\n      dup2\n      lt\n      tag_403\n      jumpi\n      tag_403\n      tag_398\n      jump\t// in\n    tag_403:\n      0x20\n      swap1\n      dup2\n      mul\n      swap2\n      swap1\n      swap2\n      add\n      add\n        /* \"contracts/LuckyRedEnvelopeV2.sol\":17104:17129  randons[j] = randons[j-1] */\n      mstore\n        /* \"contracts/LuckyRedEnvelopeV2.sol\":17148:17151  j-- */\n      dup1\n      tag_404\n      dup2\n      tag_405\n      jump\t// in\n    tag_404:\n      swap2\n      pop\n      pop\n        /* \"contracts/LuckyRedEnvelopeV2.sol\":17044:17167  while((j >= 1) && value < randons[j - 1]){... */\n      jump(tag_392)\n    tag_393:\n        /* \"contracts/LuckyRedEnvelopeV2.sol\":17194:17199  value */\n      dup2\n        /* \"contracts/LuckyRedEnvelopeV2.sol\":17181:17188  randons */\n      dup6\n        /* \"contracts/LuckyRedEnvelopeV2.sol\":17189:17190  j */\n      dup3\n        /* \"contracts/LuckyRedEnvelopeV2.sol\":17181:17191  randons[j] */\n      dup2\n      mload\n      dup2\n      lt\n      tag_407\n      jumpi\n      tag_407\n      tag_398\n      jump\t// in\n    tag_407:\n      0x20\n      swap1\n      dup2\n      mul\n      swap2\n      swap1\n      swap2\n      add\n      add\n        /* \"contracts/LuckyRedEnvelopeV2.sol\":17181:17199  randons[j] = value */\n      mstore\n      pop\n      pop\n        /* \"contracts/LuckyRedEnvelopeV2.sol\":16910:16913  i++ */\n      0x01\n      add\n        /* \"contracts/LuckyRedEnvelopeV2.sol\":16876:17211  for (uint256 i = 0; i < _num - 1; i++){... */\n      jump(tag_384)\n    tag_385:\n      pop\n        /* \"contracts/LuckyRedEnvelopeV2.sol\":17239:17245  _range */\n      dup4\n        /* \"contracts/LuckyRedEnvelopeV2.sol\":17221:17228  randons */\n      dup3\n        /* \"contracts/LuckyRedEnvelopeV2.sol\":17229:17235  _num-1 */\n      tag_408\n        /* \"contracts/LuckyRedEnvelopeV2.sol\":17234:17235  1 */\n      0x01\n        /* \"contracts/LuckyRedEnvelopeV2.sol\":17229:17233  _num */\n      dup9\n        /* \"contracts/LuckyRedEnvelopeV2.sol\":17229:17235  _num-1 */\n      tag_354\n      jump\t// in\n    tag_408:\n        /* \"contracts/LuckyRedEnvelopeV2.sol\":17221:17236  randons[_num-1] */\n      dup2\n      mload\n      dup2\n      lt\n      tag_410\n      jumpi\n      tag_410\n      tag_398\n      jump\t// in\n    tag_410:\n      0x20\n      swap1\n      dup2\n      mul\n      swap2\n      swap1\n      swap2\n      add\n      add\n        /* \"contracts/LuckyRedEnvelopeV2.sol\":17221:17245  randons[_num-1] = _range */\n      mstore\n      pop\n        /* \"contracts/LuckyRedEnvelopeV2.sol\":17263:17270  randons */\n      swap1\n      pop\n        /* \"contracts/LuckyRedEnvelopeV2.sol\":16670:17278  function _getSortRandoms(uint256 _seed,uint256 _num,uint256 _range) internal pure returns(uint256[] memory){... */\n    tag_379:\n      swap4\n      swap3\n      pop\n      pop\n      pop\n      jump\t// out\n        /* \"contracts/LuckyRedEnvelopeV2.sol\":14825:16036  function _calculatePrize(uint256 _id,uint256 _drawNum,uint256[] memory _randomsAmount)internal{... */\n    tag_260:\n        /* \"contracts/LuckyRedEnvelopeV2.sol\":14930:14953  uint256 totalSendAmount */\n      0x00\n        /* \"contracts/LuckyRedEnvelopeV2.sol\":15022:15040  _redEnvelopes[_id] */\n      dup4\n      dup2\n      mstore\n        /* \"contracts/LuckyRedEnvelopeV2.sol\":15022:15035  _redEnvelopes */\n      0x07\n        /* \"contracts/LuckyRedEnvelopeV2.sol\":15022:15040  _redEnvelopes[_id] */\n      0x20\n      mstore\n      0x40\n      dup2\n      keccak256\n        /* \"contracts/LuckyRedEnvelopeV2.sol\":15022:15052  _redEnvelopes[_id].sendTickets */\n      0x05\n      dup2\n      add\n      sload\n        /* \"contracts/LuckyRedEnvelopeV2.sol\":14990:15019  _redEnvelopes[_id].buyTickets */\n      0x04\n      swap1\n      swap2\n      add\n      sload\n        /* \"contracts/LuckyRedEnvelopeV2.sol\":14930:14953  uint256 totalSendAmount */\n      dup3\n      swap2\n        /* \"contracts/LuckyRedEnvelopeV2.sol\":14990:15052  _redEnvelopes[_id].buyTickets + _redEnvelopes[_id].sendTickets */\n      tag_412\n      swap2\n      tag_201\n      jump\t// in\n    tag_412:\n        /* \"contracts/LuckyRedEnvelopeV2.sol\":14968:15052  uint256 userTickets = _redEnvelopes[_id].buyTickets + _redEnvelopes[_id].sendTickets */\n      swap1\n      pop\n        /* \"contracts/LuckyRedEnvelopeV2.sol\":15134:15143  uint256 i */\n      0x00\n        /* \"contracts/LuckyRedEnvelopeV2.sol\":15129:16021  for (uint256 i = 0; i < _drawNum; i++){... */\n    tag_413:\n        /* \"contracts/LuckyRedEnvelopeV2.sol\":15153:15161  _drawNum */\n      dup5\n        /* \"contracts/LuckyRedEnvelopeV2.sol\":15149:15150  i */\n      dup2\n        /* \"contracts/LuckyRedEnvelopeV2.sol\":15149:15161  i < _drawNum */\n      lt\n        /* \"contracts/LuckyRedEnvelopeV2.sol\":15129:16021  for (uint256 i = 0; i < _drawNum; i++){... */\n      iszero\n      tag_414\n      jumpi\n        /* \"contracts/LuckyRedEnvelopeV2.sol\":15182:15199  uint256 sendValue */\n      0x00\n        /* \"contracts/LuckyRedEnvelopeV2.sol\":15222:15237  totalSendAmount */\n      dup4\n        /* \"contracts/LuckyRedEnvelopeV2.sol\":15202:15216  _randomsAmount */\n      dup6\n        /* \"contracts/LuckyRedEnvelopeV2.sol\":15217:15218  i */\n      dup4\n        /* \"contracts/LuckyRedEnvelopeV2.sol\":15202:15219  _randomsAmount[i] */\n      dup2\n      mload\n      dup2\n      lt\n      tag_417\n      jumpi\n      tag_417\n      tag_398\n      jump\t// in\n    tag_417:\n      0x20\n      mul\n      0x20\n      add\n      add\n      mload\n        /* \"contracts/LuckyRedEnvelopeV2.sol\":15202:15237  _randomsAmount[i] - totalSendAmount */\n      tag_418\n      swap2\n      swap1\n      tag_354\n      jump\t// in\n    tag_418:\n        /* \"contracts/LuckyRedEnvelopeV2.sol\":15182:15237  uint256 sendValue = _randomsAmount[i] - totalSendAmount */\n      swap1\n      pop\n        /* \"contracts/LuckyRedEnvelopeV2.sol\":15268:15269  i */\n      dup2\n        /* \"contracts/LuckyRedEnvelopeV2.sol\":15288:15311  _drawNum != userTickets */\n      dup7\n      dup5\n      eq\n        /* \"contracts/LuckyRedEnvelopeV2.sol\":15284:15675  if (_drawNum != userTickets){... */\n      tag_425\n      jumpi\n        /* \"contracts/LuckyRedEnvelopeV2.sol\":15426:15437  userTickets */\n      dup4\n        /* \"contracts/LuckyRedEnvelopeV2.sol\":15389:15423  _deriveRandom(_randomsAmount[i],i) */\n      tag_420\n        /* \"contracts/LuckyRedEnvelopeV2.sol\":15403:15417  _randomsAmount */\n      dup8\n        /* \"contracts/LuckyRedEnvelopeV2.sol\":15418:15419  i */\n      dup6\n        /* \"contracts/LuckyRedEnvelopeV2.sol\":15403:15420  _randomsAmount[i] */\n      dup2\n      mload\n      dup2\n      lt\n      tag_422\n      jumpi\n      tag_422\n      tag_398\n      jump\t// in\n    tag_422:\n      0x20\n      mul\n      0x20\n      add\n      add\n      mload\n        /* \"contracts/LuckyRedEnvelopeV2.sol\":15421:15422  i */\n      dup6\n        /* \"contracts/LuckyRedEnvelopeV2.sol\":15389:15402  _deriveRandom */\n      tag_389\n        /* \"contracts/LuckyRedEnvelopeV2.sol\":15389:15423  _deriveRandom(_randomsAmount[i],i) */\n      jump\t// in\n    tag_420:\n        /* \"contracts/LuckyRedEnvelopeV2.sol\":15389:15437  _deriveRandom(_randomsAmount[i],i) % userTickets */\n      tag_423\n      swap2\n      swap1\n      tag_391\n      jump\t// in\n    tag_423:\n        /* \"contracts/LuckyRedEnvelopeV2.sol\":15381:15437  index = _deriveRandom(_randomsAmount[i],i) % userTickets */\n      swap1\n      pop\n        /* \"contracts/LuckyRedEnvelopeV2.sol\":15456:15660  for (;_prizedticketIndex[_id][index] != false;){... */\n    tag_424:\n        /* \"contracts/LuckyRedEnvelopeV2.sol\":15462:15485  _prizedticketIndex[_id] */\n      0x00\n      dup9\n      dup2\n      mstore\n        /* \"contracts/LuckyRedEnvelopeV2.sol\":15462:15480  _prizedticketIndex */\n      0x09\n        /* \"contracts/LuckyRedEnvelopeV2.sol\":15462:15485  _prizedticketIndex[_id] */\n      0x20\n      swap1\n      dup2\n      mstore\n      0x40\n      dup1\n      dup4\n      keccak256\n        /* \"contracts/LuckyRedEnvelopeV2.sol\":15462:15492  _prizedticketIndex[_id][index] */\n      dup5\n      dup5\n      mstore\n      swap1\n      swap2\n      mstore\n      swap1\n      keccak256\n      sload\n      0xff\n      and\n        /* \"contracts/LuckyRedEnvelopeV2.sol\":15462:15501  _prizedticketIndex[_id][index] != false */\n      iszero\n        /* \"contracts/LuckyRedEnvelopeV2.sol\":15456:15660  for (;_prizedticketIndex[_id][index] != false;){... */\n      tag_425\n      jumpi\n        /* \"contracts/LuckyRedEnvelopeV2.sol\":15526:15533  index++ */\n      dup1\n      tag_427\n      dup2\n      tag_339\n      jump\t// in\n    tag_427:\n      swap2\n      pop\n      pop\n        /* \"contracts/LuckyRedEnvelopeV2.sol\":15569:15580  userTickets */\n      dup4\n        /* \"contracts/LuckyRedEnvelopeV2.sol\":15560:15565  index */\n      dup2\n        /* \"contracts/LuckyRedEnvelopeV2.sol\":15560:15580  index == userTickets */\n      sub\n        /* \"contracts/LuckyRedEnvelopeV2.sol\":15556:15641  if (index == userTickets){... */\n      tag_428\n      jumpi\n      pop\n        /* \"contracts/LuckyRedEnvelopeV2.sol\":15616:15617  0 */\n      0x00\n        /* \"contracts/LuckyRedEnvelopeV2.sol\":15556:15641  if (index == userTickets){... */\n    tag_428:\n        /* \"contracts/LuckyRedEnvelopeV2.sol\":15456:15660  for (;_prizedticketIndex[_id][index] != false;){... */\n      jump(tag_424)\n    tag_425:\n        /* \"contracts/LuckyRedEnvelopeV2.sol\":15689:15712  _prizedticketIndex[_id] */\n      0x00\n      dup9\n      dup2\n      mstore\n        /* \"contracts/LuckyRedEnvelopeV2.sol\":15689:15707  _prizedticketIndex */\n      0x09\n        /* \"contracts/LuckyRedEnvelopeV2.sol\":15689:15712  _prizedticketIndex[_id] */\n      0x20\n      swap1\n      dup2\n      mstore\n      0x40\n      dup1\n      dup4\n      keccak256\n        /* \"contracts/LuckyRedEnvelopeV2.sol\":15689:15719  _prizedticketIndex[_id][index] */\n      dup5\n      dup5\n      mstore\n      swap1\n      swap2\n      mstore\n      dup2\n      keccak256\n        /* \"contracts/LuckyRedEnvelopeV2.sol\":15689:15726  _prizedticketIndex[_id][index] = true */\n      dup1\n      sload\n      not(0xff)\n      and\n        /* \"contracts/LuckyRedEnvelopeV2.sol\":15722:15726  true */\n      0x01\n        /* \"contracts/LuckyRedEnvelopeV2.sol\":15689:15726  _prizedticketIndex[_id][index] = true */\n      or\n      swap1\n      sstore\n        /* \"contracts/LuckyRedEnvelopeV2.sol\":15765:15793  _getTicketbyIndex(_id,index) */\n      tag_429\n        /* \"contracts/LuckyRedEnvelopeV2.sol\":15708:15711  _id */\n      dup10\n        /* \"contracts/LuckyRedEnvelopeV2.sol\":15713:15718  index */\n      dup4\n        /* \"contracts/LuckyRedEnvelopeV2.sol\":15765:15782  _getTicketbyIndex */\n      tag_430\n        /* \"contracts/LuckyRedEnvelopeV2.sol\":15765:15793  _getTicketbyIndex(_id,index) */\n      jump\t// in\n    tag_429:\n        /* \"contracts/LuckyRedEnvelopeV2.sol\":15828:15849  ticket.receiveAddress */\n      0x01\n      dup2\n      add\n      sload\n      0x00\n        /* \"contracts/LuckyRedEnvelopeV2.sol\":15866:15884  _redEnvelopes[_id] */\n      dup12\n      dup2\n      mstore\n        /* \"contracts/LuckyRedEnvelopeV2.sol\":15866:15879  _redEnvelopes */\n      0x07\n        /* \"contracts/LuckyRedEnvelopeV2.sol\":15866:15884  _redEnvelopes[_id] */\n      0x20\n      swap1\n      dup2\n      mstore\n      0x40\n      swap2\n      dup3\n      swap1\n      keccak256\n        /* \"contracts/LuckyRedEnvelopeV2.sol\":15866:15894  _redEnvelopes[_id].autoClaim */\n      0x0d\n      add\n      sload\n        /* \"contracts/LuckyRedEnvelopeV2.sol\":15813:15895  PrizeDrawn(_id,ticket.receiveAddress,index,sendValue,_redEnvelopes[_id].autoClaim) */\n      dup3\n      mload\n        /* \"#utility.yul\":14213:14238   */\n      dup9\n      dup2\n      mstore\n        /* \"contracts/LuckyRedEnvelopeV2.sol\":15866:15894  _redEnvelopes[_id].autoClaim */\n      0xff\n      swap1\n      swap2\n      and\n        /* \"#utility.yul\":14281:14295   */\n      iszero\n        /* \"#utility.yul\":14274:14296   */\n      iszero\n        /* \"#utility.yul\":14254:14272   */\n      swap2\n      dup2\n      add\n        /* \"#utility.yul\":14247:14297   */\n      swap2\n      swap1\n      swap2\n      mstore\n        /* \"contracts/LuckyRedEnvelopeV2.sol\":15828:15849  ticket.receiveAddress */\n      swap3\n      swap4\n      pop\n        /* \"contracts/LuckyRedEnvelopeV2.sol\":15850:15855  index */\n      dup5\n      swap3\n      sub(shl(0xa0, 0x01), 0x01)\n        /* \"contracts/LuckyRedEnvelopeV2.sol\":15828:15849  ticket.receiveAddress */\n      swap1\n      swap3\n      and\n      swap2\n        /* \"contracts/LuckyRedEnvelopeV2.sol\":15866:15884  _redEnvelopes[_id] */\n      dup13\n      swap2\n        /* \"contracts/LuckyRedEnvelopeV2.sol\":15813:15895  PrizeDrawn(_id,ticket.receiveAddress,index,sendValue,_redEnvelopes[_id].autoClaim) */\n      0x927546e38b674f5e5dff7edce9c7afdcf21a35ac03ba70fe8e341f61f2c73ded\n      swap2\n        /* \"#utility.yul\":14186:14204   */\n      add\n        /* \"contracts/LuckyRedEnvelopeV2.sol\":15813:15895  PrizeDrawn(_id,ticket.receiveAddress,index,sendValue,_redEnvelopes[_id].autoClaim) */\n      mload(0x40)\n      dup1\n      swap2\n      sub\n      swap1\n      log4\n        /* \"contracts/LuckyRedEnvelopeV2.sol\":15910:15930  _amount2claimed[_id] */\n      0x00\n      dup10\n      dup2\n      mstore\n        /* \"contracts/LuckyRedEnvelopeV2.sol\":15910:15925  _amount2claimed */\n      0x0c\n        /* \"contracts/LuckyRedEnvelopeV2.sol\":15910:15930  _amount2claimed[_id] */\n      0x20\n      swap1\n      dup2\n      mstore\n      0x40\n      dup1\n      dup4\n      keccak256\n        /* \"contracts/LuckyRedEnvelopeV2.sol\":15931:15952  ticket.receiveAddress */\n      0x01\n      dup6\n      add\n      sload\n      sub(shl(0xa0, 0x01), 0x01)\n      and\n        /* \"contracts/LuckyRedEnvelopeV2.sol\":15910:15953  _amount2claimed[_id][ticket.receiveAddress] */\n      dup5\n      mstore\n      swap1\n      swap2\n      mstore\n      dup2\n      keccak256\n        /* \"contracts/LuckyRedEnvelopeV2.sol\":15910:15966  _amount2claimed[_id][ticket.receiveAddress] += sendValue */\n      dup1\n      sload\n        /* \"contracts/LuckyRedEnvelopeV2.sol\":15957:15966  sendValue */\n      dup6\n      swap3\n        /* \"contracts/LuckyRedEnvelopeV2.sol\":15910:15930  _amount2claimed[_id] */\n      swap1\n        /* \"contracts/LuckyRedEnvelopeV2.sol\":15910:15966  _amount2claimed[_id][ticket.receiveAddress] += sendValue */\n      tag_433\n      swap1\n        /* \"contracts/LuckyRedEnvelopeV2.sol\":15957:15966  sendValue */\n      dup5\n      swap1\n        /* \"contracts/LuckyRedEnvelopeV2.sol\":15910:15966  _amount2claimed[_id][ticket.receiveAddress] += sendValue */\n      tag_201\n      jump\t// in\n    tag_433:\n      swap1\n      swap2\n      sstore\n      pop\n        /* \"contracts/LuckyRedEnvelopeV2.sol\":15981:16009  totalSendAmount += sendValue */\n      tag_434\n      swap1\n      pop\n        /* \"contracts/LuckyRedEnvelopeV2.sol\":16000:16009  sendValue */\n      dup4\n        /* \"contracts/LuckyRedEnvelopeV2.sol\":15981:16009  totalSendAmount += sendValue */\n      dup8\n      tag_201\n      jump\t// in\n    tag_434:\n      swap6\n      pop\n      pop\n        /* \"contracts/LuckyRedEnvelopeV2.sol\":15163:15166  i++ */\n      0x01\n      swap1\n      swap3\n      add\n      swap2\n      pop\n        /* \"contracts/LuckyRedEnvelopeV2.sol\":15129:16021  for (uint256 i = 0; i < _drawNum; i++){... */\n      tag_413\n      swap1\n      pop\n      jump\n    tag_414:\n      pop\n        /* \"contracts/LuckyRedEnvelopeV2.sol\":14919:16036  {... */\n      pop\n      pop\n        /* \"contracts/LuckyRedEnvelopeV2.sol\":14825:16036  function _calculatePrize(uint256 _id,uint256 _drawNum,uint256[] memory _randomsAmount)internal{... */\n      pop\n      pop\n      pop\n      jump\t// out\n        /* \"contracts/LuckyRedEnvelopeV2.sol\":17581:18075  function _claimPrize(uint256 _id,address _winner)internal {... */\n    tag_267:\n        /* \"contracts/LuckyRedEnvelopeV2.sol\":17658:17678  _amount2claimed[_id] */\n      0x00\n      dup3\n      dup2\n      mstore\n        /* \"contracts/LuckyRedEnvelopeV2.sol\":17658:17673  _amount2claimed */\n      0x0c\n        /* \"contracts/LuckyRedEnvelopeV2.sol\":17658:17678  _amount2claimed[_id] */\n      0x20\n      swap1\n      dup2\n      mstore\n      0x40\n      dup1\n      dup4\n      keccak256\n      sub(shl(0xa0, 0x01), 0x01)\n        /* \"contracts/LuckyRedEnvelopeV2.sol\":17658:17687  _amount2claimed[_id][_winner] */\n      dup6\n      and\n      dup5\n      mstore\n      swap1\n      swap2\n      mstore\n      dup2\n      keccak256\n      sload\n        /* \"contracts/LuckyRedEnvelopeV2.sol\":17658:17692  _amount2claimed[_id][_winner] != 0 */\n      swap1\n      sub\n        /* \"contracts/LuckyRedEnvelopeV2.sol\":17650:17705  require(_amount2claimed[_id][_winner] != 0, \"no prize\") */\n      tag_436\n      jumpi\n      mload(0x40)\n      shl(0xe5, 0x461bcd)\n      dup2\n      mstore\n        /* \"#utility.yul\":14510:14512   */\n      0x20\n        /* \"contracts/LuckyRedEnvelopeV2.sol\":17650:17705  require(_amount2claimed[_id][_winner] != 0, \"no prize\") */\n      0x04\n      dup3\n      add\n        /* \"#utility.yul\":14492:14513   */\n      mstore\n        /* \"#utility.yul\":14549:14550   */\n      0x08\n        /* \"#utility.yul\":14529:14547   */\n      0x24\n      dup3\n      add\n        /* \"#utility.yul\":14522:14551   */\n      mstore\n      shl(0xc0, 0x6e6f207072697a65)\n        /* \"#utility.yul\":14567:14585   */\n      0x44\n      dup3\n      add\n        /* \"#utility.yul\":14560:14598   */\n      mstore\n        /* \"#utility.yul\":14615:14633   */\n      0x64\n      add\n        /* \"contracts/LuckyRedEnvelopeV2.sol\":17650:17705  require(_amount2claimed[_id][_winner] != 0, \"no prize\") */\n      tag_117\n        /* \"#utility.yul\":14308:14639   */\n      jump\n        /* \"contracts/LuckyRedEnvelopeV2.sol\":17650:17705  require(_amount2claimed[_id][_winner] != 0, \"no prize\") */\n    tag_436:\n        /* \"contracts/LuckyRedEnvelopeV2.sol\":17773:17802  uint256 amountTokenToTransfer */\n      0x00\n        /* \"contracts/LuckyRedEnvelopeV2.sol\":17805:17825  _amount2claimed[_id] */\n      dup3\n      dup2\n      mstore\n        /* \"contracts/LuckyRedEnvelopeV2.sol\":17805:17820  _amount2claimed */\n      0x0c\n        /* \"contracts/LuckyRedEnvelopeV2.sol\":17805:17825  _amount2claimed[_id] */\n      0x20\n      swap1\n      dup2\n      mstore\n      0x40\n      dup1\n      dup4\n      keccak256\n      sub(shl(0xa0, 0x01), 0x01)\n        /* \"contracts/LuckyRedEnvelopeV2.sol\":17805:17834  _amount2claimed[_id][_winner] */\n      dup1\n      dup7\n      and\n      dup6\n      mstore\n      swap1\n      dup4\n      mstore\n      dup2\n      dup5\n      keccak256\n      sload\n        /* \"contracts/LuckyRedEnvelopeV2.sol\":17854:17872  _redEnvelopes[_id] */\n      dup7\n      dup6\n      mstore\n        /* \"contracts/LuckyRedEnvelopeV2.sol\":17854:17867  _redEnvelopes */\n      0x07\n        /* \"contracts/LuckyRedEnvelopeV2.sol\":17854:17872  _redEnvelopes[_id] */\n      swap1\n      swap4\n      mstore\n      swap3\n      keccak256\n        /* \"contracts/LuckyRedEnvelopeV2.sol\":17854:17884  _redEnvelopes[_id].ticketToken */\n      sload\n        /* \"contracts/LuckyRedEnvelopeV2.sol\":17805:17834  _amount2claimed[_id][_winner] */\n      swap1\n      swap2\n        /* \"contracts/LuckyRedEnvelopeV2.sol\":17847:17930  IERC20(_redEnvelopes[_id].ticketToken).safeTransfer(_winner, amountTokenToTransfer) */\n      tag_439\n      swap2\n        /* \"contracts/LuckyRedEnvelopeV2.sol\":17854:17884  _redEnvelopes[_id].ticketToken */\n      and\n        /* \"contracts/LuckyRedEnvelopeV2.sol\":17826:17833  _winner */\n      dup4\n        /* \"contracts/LuckyRedEnvelopeV2.sol\":17805:17834  _amount2claimed[_id][_winner] */\n      dup4\n        /* \"contracts/LuckyRedEnvelopeV2.sol\":17847:17898  IERC20(_redEnvelopes[_id].ticketToken).safeTransfer */\n      tag_378\n        /* \"contracts/LuckyRedEnvelopeV2.sol\":17847:17930  IERC20(_redEnvelopes[_id].ticketToken).safeTransfer(_winner, amountTokenToTransfer) */\n      jump\t// in\n    tag_439:\n        /* \"contracts/LuckyRedEnvelopeV2.sol\":17948:17968  _amount2claimed[_id] */\n      0x00\n      dup4\n      dup2\n      mstore\n        /* \"contracts/LuckyRedEnvelopeV2.sol\":17948:17963  _amount2claimed */\n      0x0c\n        /* \"contracts/LuckyRedEnvelopeV2.sol\":17948:17968  _amount2claimed[_id] */\n      0x20\n      swap1\n      dup2\n      mstore\n      0x40\n      dup1\n      dup4\n      keccak256\n      sub(shl(0xa0, 0x01), 0x01)\n        /* \"contracts/LuckyRedEnvelopeV2.sol\":17948:17977  _amount2claimed[_id][_winner] */\n      dup7\n      and\n      dup1\n      dup6\n      mstore\n      swap1\n      dup4\n      mstore\n      dup2\n      dup5\n      keccak256\n        /* \"contracts/LuckyRedEnvelopeV2.sol\":17941:17977  delete _amount2claimed[_id][_winner] */\n      dup5\n      swap1\n      sstore\n        /* \"contracts/LuckyRedEnvelopeV2.sol\":18038:18056  _redEnvelopes[_id] */\n      dup7\n      dup5\n      mstore\n        /* \"contracts/LuckyRedEnvelopeV2.sol\":18038:18051  _redEnvelopes */\n      0x07\n        /* \"contracts/LuckyRedEnvelopeV2.sol\":18038:18056  _redEnvelopes[_id] */\n      dup4\n      mstore\n      swap3\n      dup2\n      swap1\n      keccak256\n        /* \"contracts/LuckyRedEnvelopeV2.sol\":18038:18066  _redEnvelopes[_id].autoClaim */\n      0x0d\n      add\n      sload\n        /* \"contracts/LuckyRedEnvelopeV2.sol\":17993:18067  ClaimPrize(_id,_winner,amountTokenToTransfer,_redEnvelopes[_id].autoClaim) */\n      dup2\n      mload\n        /* \"#utility.yul\":14213:14238   */\n      dup6\n      dup2\n      mstore\n        /* \"contracts/LuckyRedEnvelopeV2.sol\":18038:18066  _redEnvelopes[_id].autoClaim */\n      0xff\n      swap1\n      swap2\n      and\n        /* \"#utility.yul\":14281:14295   */\n      iszero\n        /* \"#utility.yul\":14274:14296   */\n      iszero\n        /* \"#utility.yul\":14254:14272   */\n      swap3\n      dup2\n      add\n        /* \"#utility.yul\":14247:14297   */\n      swap3\n      swap1\n      swap3\n      mstore\n        /* \"contracts/LuckyRedEnvelopeV2.sol\":17948:17968  _amount2claimed[_id] */\n      dup6\n      swap2\n        /* \"contracts/LuckyRedEnvelopeV2.sol\":17993:18067  ClaimPrize(_id,_winner,amountTokenToTransfer,_redEnvelopes[_id].autoClaim) */\n      0x268ef67ed0490cc273925a4865e6fbdb4dcf7e0802aad957aa682a78c7618bef\n      swap2\n        /* \"#utility.yul\":14186:14204   */\n      add\n        /* \"contracts/LuckyRedEnvelopeV2.sol\":17993:18067  ClaimPrize(_id,_winner,amountTokenToTransfer,_redEnvelopes[_id].autoClaim) */\n      mload(0x40)\n      dup1\n      swap2\n      sub\n      swap1\n      log3\n        /* \"contracts/LuckyRedEnvelopeV2.sol\":17639:18075  {... */\n      pop\n        /* \"contracts/LuckyRedEnvelopeV2.sol\":17581:18075  function _claimPrize(uint256 _id,address _winner)internal {... */\n      pop\n      pop\n      jump\t// out\n        /* \"@openzeppelin/contracts/token/ERC20/utils/SafeERC20.sol\":1702:1890  function safeTransferFrom(IERC20 token, address from, address to, uint256 value) internal {... */\n    tag_293:\n        /* \"@openzeppelin/contracts/token/ERC20/utils/SafeERC20.sol\":1829:1882  abi.encodeCall(token.transferFrom, (from, to, value)) */\n      mload(0x40)\n      sub(shl(0xa0, 0x01), 0x01)\n        /* \"#utility.yul\":14902:14917   */\n      dup5\n      dup2\n      and\n        /* \"@openzeppelin/contracts/token/ERC20/utils/SafeERC20.sol\":1829:1882  abi.encodeCall(token.transferFrom, (from, to, value)) */\n      0x24\n      dup4\n      add\n        /* \"#utility.yul\":14884:14918   */\n      mstore\n        /* \"#utility.yul\":14954:14969   */\n      dup4\n      dup2\n      and\n        /* \"#utility.yul\":14934:14952   */\n      0x44\n      dup4\n      add\n        /* \"#utility.yul\":14927:14970   */\n      mstore\n        /* \"#utility.yul\":14986:15004   */\n      0x64\n      dup3\n      add\n        /* \"#utility.yul\":14979:15013   */\n      dup4\n      swap1\n      mstore\n        /* \"@openzeppelin/contracts/token/ERC20/utils/SafeERC20.sol\":1802:1883  _callOptionalReturn(token, abi.encodeCall(token.transferFrom, (from, to, value))) */\n      tag_127\n      swap2\n        /* \"@openzeppelin/contracts/token/ERC20/utils/SafeERC20.sol\":1822:1827  token */\n      dup7\n      swap2\n        /* \"@openzeppelin/contracts/token/ERC20/utils/SafeERC20.sol\":1844:1862  token.transferFrom */\n      dup3\n      and\n      swap1\n      0x23b872dd\n      swap1\n        /* \"#utility.yul\":14819:14837   */\n      0x84\n      add\n        /* \"@openzeppelin/contracts/token/ERC20/utils/SafeERC20.sol\":1829:1882  abi.encodeCall(token.transferFrom, (from, to, value)) */\n    tag_443:\n      mload(0x40)\n      0x20\n      dup2\n      dup4\n      sub\n      sub\n      dup2\n      mstore\n      swap1\n      0x40\n      mstore\n      swap2\n      pop\n      0xe0\n      shl\n      0x20\n      dup3\n      add\n      dup1\n      mload\n      sub(shl(0xe0, 0x01), 0x01)\n      dup4\n      dup2\n      dup4\n      and\n      or\n      dup4\n      mstore\n      pop\n      pop\n      pop\n      pop\n        /* \"@openzeppelin/contracts/token/ERC20/utils/SafeERC20.sol\":1802:1821  _callOptionalReturn */\n      tag_445\n        /* \"@openzeppelin/contracts/token/ERC20/utils/SafeERC20.sol\":1802:1883  _callOptionalReturn(token, abi.encodeCall(token.transferFrom, (from, to, value))) */\n      jump\t// in\n        /* \"@openzeppelin/contracts/token/ERC20/utils/SafeERC20.sol\":1303:1463  function safeTransfer(IERC20 token, address to, uint256 value) internal {... */\n    tag_378:\n        /* \"@openzeppelin/contracts/token/ERC20/utils/SafeERC20.sol\":1412:1455  abi.encodeCall(token.transfer, (to, value)) */\n      mload(0x40)\n      sub(shl(0xa0, 0x01), 0x01)\n        /* \"#utility.yul\":10815:10847   */\n      dup4\n      dup2\n      and\n        /* \"@openzeppelin/contracts/token/ERC20/utils/SafeERC20.sol\":1412:1455  abi.encodeCall(token.transfer, (to, value)) */\n      0x24\n      dup4\n      add\n        /* \"#utility.yul\":10797:10848   */\n      mstore\n        /* \"#utility.yul\":10864:10882   */\n      0x44\n      dup3\n      add\n        /* \"#utility.yul\":10857:10891   */\n      dup4\n      swap1\n      mstore\n        /* \"@openzeppelin/contracts/token/ERC20/utils/SafeERC20.sol\":1385:1456  _callOptionalReturn(token, abi.encodeCall(token.transfer, (to, value))) */\n      tag_210\n      swap2\n        /* \"@openzeppelin/contracts/token/ERC20/utils/SafeERC20.sol\":1405:1410  token */\n      dup6\n      swap2\n        /* \"@openzeppelin/contracts/token/ERC20/utils/SafeERC20.sol\":1427:1441  token.transfer */\n      dup3\n      and\n      swap1\n      0xa9059cbb\n      swap1\n        /* \"#utility.yul\":10770:10788   */\n      0x64\n      add\n        /* \"@openzeppelin/contracts/token/ERC20/utils/SafeERC20.sol\":1412:1455  abi.encodeCall(token.transfer, (to, value)) */\n      tag_443\n        /* \"#utility.yul\":10623:10897   */\n      jump\n        /* \"contracts/LuckyRedEnvelopeV2.sol\":16207:16436  function _deriveRandom(uint256 _seed,uint256 i)internal pure returns(uint256){... */\n    tag_389:\n        /* \"contracts/LuckyRedEnvelopeV2.sol\":16276:16283  uint256 */\n      0x00\n      dup1\n        /* \"contracts/LuckyRedEnvelopeV2.sol\":16334:16341  i % 256 */\n      tag_451\n        /* \"contracts/LuckyRedEnvelopeV2.sol\":16338:16341  256 */\n      0x0100\n        /* \"contracts/LuckyRedEnvelopeV2.sol\":16334:16335  i */\n      dup5\n        /* \"contracts/LuckyRedEnvelopeV2.sol\":16334:16341  i % 256 */\n      tag_391\n      jump\t// in\n    tag_451:\n        /* \"contracts/LuckyRedEnvelopeV2.sol\":16312:16342  uint32 shift = uint32(i % 256) */\n      swap1\n      pop\n        /* \"contracts/LuckyRedEnvelopeV2.sol\":16395:16400  _seed */\n      dup4\n        /* \"contracts/LuckyRedEnvelopeV2.sol\":16401:16425  _leftRotate(_seed,shift) */\n      tag_452\n        /* \"contracts/LuckyRedEnvelopeV2.sol\":16413:16418  _seed */\n      dup6\n        /* \"contracts/LuckyRedEnvelopeV2.sol\":16419:16424  shift */\n      dup4\n        /* \"contracts/LuckyRedEnvelopeV2.sol\":16401:16412  _leftRotate */\n      tag_453\n        /* \"contracts/LuckyRedEnvelopeV2.sol\":16401:16425  _leftRotate(_seed,shift) */\n      jump\t// in\n    tag_452:\n        /* \"contracts/LuckyRedEnvelopeV2.sol\":16378:16426  abi.encodePacked(_seed,_leftRotate(_seed,shift)) */\n      0x40\n      dup1\n      mload\n      0x20\n      dup2\n      add\n        /* \"#utility.yul\":15181:15200   */\n      swap4\n      swap1\n      swap4\n      mstore\n        /* \"#utility.yul\":15216:15228   */\n      dup3\n      add\n        /* \"#utility.yul\":15209:15237   */\n      mstore\n        /* \"#utility.yul\":15253:15265   */\n      0x60\n      add\n        /* \"contracts/LuckyRedEnvelopeV2.sol\":16378:16426  abi.encodePacked(_seed,_leftRotate(_seed,shift)) */\n      0x40\n      dup1\n      mload\n      not(0x1f)\n      dup2\n      dup5\n      sub\n      add\n      dup2\n      mstore\n      swap2\n      swap1\n      mstore\n        /* \"contracts/LuckyRedEnvelopeV2.sol\":16368:16427  keccak256(abi.encodePacked(_seed,_leftRotate(_seed,shift))) */\n      dup1\n      mload\n        /* \"contracts/LuckyRedEnvelopeV2.sol\":16378:16426  abi.encodePacked(_seed,_leftRotate(_seed,shift)) */\n      0x20\n        /* \"contracts/LuckyRedEnvelopeV2.sol\":16368:16427  keccak256(abi.encodePacked(_seed,_leftRotate(_seed,shift))) */\n      swap1\n      swap2\n      add\n      keccak256\n      swap5\n        /* \"contracts/LuckyRedEnvelopeV2.sol\":16207:16436  function _deriveRandom(uint256 _seed,uint256 i)internal pure returns(uint256){... */\n      swap4\n      pop\n      pop\n      pop\n      pop\n      jump\t// out\n        /* \"contracts/LuckyRedEnvelopeV2.sol\":12295:13054  function _getTicketbyIndex(uint256 _id,uint256 _index) internal view returns (Ticket storage){... */\n    tag_430:\n        /* \"contracts/LuckyRedEnvelopeV2.sol\":12373:12387  Ticket storage */\n      0x00\n        /* \"contracts/LuckyRedEnvelopeV2.sol\":12407:12420  _tickets[_id] */\n      dup3\n      dup2\n      mstore\n        /* \"contracts/LuckyRedEnvelopeV2.sol\":12407:12415  _tickets */\n      0x08\n        /* \"contracts/LuckyRedEnvelopeV2.sol\":12407:12420  _tickets[_id] */\n      0x20\n      dup2\n      dup2\n      mstore\n      0x40\n      dup1\n      dup5\n      keccak256\n        /* \"contracts/LuckyRedEnvelopeV2.sol\":12421:12434  _redEnvelopes */\n      0x07\n        /* \"contracts/LuckyRedEnvelopeV2.sol\":12421:12439  _redEnvelopes[_id] */\n      swap1\n      swap3\n      mstore\n      dup4\n      keccak256\n        /* \"contracts/LuckyRedEnvelopeV2.sol\":12421:12449  _redEnvelopes[_id].userTxNum */\n      swap1\n      swap2\n      add\n      sload\n        /* \"contracts/LuckyRedEnvelopeV2.sol\":12470:12476  _index */\n      dup4\n      swap2\n        /* \"contracts/LuckyRedEnvelopeV2.sol\":12407:12420  _tickets[_id] */\n      swap1\n        /* \"contracts/LuckyRedEnvelopeV2.sol\":12373:12387  Ticket storage */\n      dup4\n      swap1\n        /* \"contracts/LuckyRedEnvelopeV2.sol\":12421:12453  _redEnvelopes[_id].userTxNum - 1 */\n      tag_457\n      swap1\n        /* \"contracts/LuckyRedEnvelopeV2.sol\":12452:12453  1 */\n      0x01\n      swap1\n        /* \"contracts/LuckyRedEnvelopeV2.sol\":12421:12453  _redEnvelopes[_id].userTxNum - 1 */\n      tag_354\n      jump\t// in\n    tag_457:\n        /* \"contracts/LuckyRedEnvelopeV2.sol\":12407:12454  _tickets[_id][_redEnvelopes[_id].userTxNum - 1] */\n      dup2\n      mstore\n      0x20\n      add\n      swap1\n      dup2\n      mstore\n      0x20\n      add\n      0x00\n      keccak256\n        /* \"contracts/LuckyRedEnvelopeV2.sol\":12407:12467  _tickets[_id][_redEnvelopes[_id].userTxNum - 1].totalNumbers */\n      0x00\n      add\n      sload\n        /* \"contracts/LuckyRedEnvelopeV2.sol\":12407:12476  _tickets[_id][_redEnvelopes[_id].userTxNum - 1].totalNumbers > _index */\n      gt\n        /* \"contracts/LuckyRedEnvelopeV2.sol\":12399:12495  require(_tickets[_id][_redEnvelopes[_id].userTxNum - 1].totalNumbers > _index,\"index out range\") */\n      tag_458\n      jumpi\n      mload(0x40)\n      shl(0xe5, 0x461bcd)\n      dup2\n      mstore\n        /* \"#utility.yul\":15478:15480   */\n      0x20\n        /* \"contracts/LuckyRedEnvelopeV2.sol\":12399:12495  require(_tickets[_id][_redEnvelopes[_id].userTxNum - 1].totalNumbers > _index,\"index out range\") */\n      0x04\n      dup3\n      add\n        /* \"#utility.yul\":15460:15481   */\n      mstore\n        /* \"#utility.yul\":15517:15519   */\n      0x0f\n        /* \"#utility.yul\":15497:15515   */\n      0x24\n      dup3\n      add\n        /* \"#utility.yul\":15490:15520   */\n      mstore\n      shl(0x88, 0x696e646578206f75742072616e6765)\n        /* \"#utility.yul\":15536:15554   */\n      0x44\n      dup3\n      add\n        /* \"#utility.yul\":15529:15574   */\n      mstore\n        /* \"#utility.yul\":15591:15609   */\n      0x64\n      add\n        /* \"contracts/LuckyRedEnvelopeV2.sol\":12399:12495  require(_tickets[_id][_redEnvelopes[_id].userTxNum - 1].totalNumbers > _index,\"index out range\") */\n      tag_117\n        /* \"#utility.yul\":15276:15615   */\n      jump\n        /* \"contracts/LuckyRedEnvelopeV2.sol\":12399:12495  require(_tickets[_id][_redEnvelopes[_id].userTxNum - 1].totalNumbers > _index,\"index out range\") */\n    tag_458:\n        /* \"contracts/LuckyRedEnvelopeV2.sol\":12506:12518  uint256 left */\n      0x00\n        /* \"contracts/LuckyRedEnvelopeV2.sol\":12549:12567  _redEnvelopes[_id] */\n      dup4\n      dup2\n      mstore\n        /* \"contracts/LuckyRedEnvelopeV2.sol\":12549:12562  _redEnvelopes */\n      0x07\n        /* \"contracts/LuckyRedEnvelopeV2.sol\":12549:12567  _redEnvelopes[_id] */\n      0x20\n      mstore\n      0x40\n      dup2\n      keccak256\n        /* \"contracts/LuckyRedEnvelopeV2.sol\":12549:12577  _redEnvelopes[_id].userTxNum */\n      0x08\n      add\n      sload\n        /* \"contracts/LuckyRedEnvelopeV2.sol\":12506:12518  uint256 left */\n      dup2\n      swap1\n        /* \"contracts/LuckyRedEnvelopeV2.sol\":12549:12581  _redEnvelopes[_id].userTxNum - 1 */\n      tag_461\n      swap1\n        /* \"contracts/LuckyRedEnvelopeV2.sol\":12580:12581  1 */\n      0x01\n      swap1\n        /* \"contracts/LuckyRedEnvelopeV2.sol\":12549:12581  _redEnvelopes[_id].userTxNum - 1 */\n      tag_354\n      jump\t// in\n    tag_461:\n        /* \"contracts/LuckyRedEnvelopeV2.sol\":12533:12581  uint256 right = _redEnvelopes[_id].userTxNum - 1 */\n      swap1\n      pop\n        /* \"contracts/LuckyRedEnvelopeV2.sol\":12641:13013  do{... */\n    tag_462:\n        /* \"contracts/LuckyRedEnvelopeV2.sol\":12658:12669  uint256 mid */\n      0x00\n        /* \"contracts/LuckyRedEnvelopeV2.sol\":12689:12690  2 */\n      0x02\n        /* \"contracts/LuckyRedEnvelopeV2.sol\":12673:12685  left + right */\n      tag_465\n        /* \"contracts/LuckyRedEnvelopeV2.sol\":12680:12685  right */\n      dup4\n        /* \"contracts/LuckyRedEnvelopeV2.sol\":12673:12677  left */\n      dup6\n        /* \"contracts/LuckyRedEnvelopeV2.sol\":12673:12685  left + right */\n      tag_201\n      jump\t// in\n    tag_465:\n        /* \"contracts/LuckyRedEnvelopeV2.sol\":12672:12690  (left + right) / 2 */\n      tag_466\n      swap2\n      swap1\n      tag_467\n      jump\t// in\n    tag_466:\n        /* \"contracts/LuckyRedEnvelopeV2.sol\":12709:12722  _tickets[_id] */\n      0x00\n      dup8\n      dup2\n      mstore\n        /* \"contracts/LuckyRedEnvelopeV2.sol\":12709:12717  _tickets */\n      0x08\n        /* \"contracts/LuckyRedEnvelopeV2.sol\":12709:12722  _tickets[_id] */\n      0x20\n      swap1\n      dup2\n      mstore\n      0x40\n      dup1\n      dup4\n      keccak256\n        /* \"contracts/LuckyRedEnvelopeV2.sol\":12709:12727  _tickets[_id][mid] */\n      dup5\n      dup5\n      mstore\n      swap1\n      swap2\n      mstore\n      swap1\n      keccak256\n        /* \"contracts/LuckyRedEnvelopeV2.sol\":12709:12740  _tickets[_id][mid].totalNumbers */\n      sload\n        /* \"contracts/LuckyRedEnvelopeV2.sol\":12658:12690  uint256 mid = (left + right) / 2 */\n      swap1\n      swap2\n      pop\n        /* \"contracts/LuckyRedEnvelopeV2.sol\":12709:12749  _tickets[_id][mid].totalNumbers > _index */\n      dup6\n      lt\n        /* \"contracts/LuckyRedEnvelopeV2.sol\":12705:12896  if (_tickets[_id][mid].totalNumbers > _index){... */\n      iszero\n      tag_468\n      jumpi\n        /* \"contracts/LuckyRedEnvelopeV2.sol\":12777:12780  mid */\n      dup1\n        /* \"contracts/LuckyRedEnvelopeV2.sol\":12769:12780  right = mid */\n      swap2\n      pop\n        /* \"contracts/LuckyRedEnvelopeV2.sol\":12705:12896  if (_tickets[_id][mid].totalNumbers > _index){... */\n      jump(tag_470)\n    tag_468:\n        /* \"contracts/LuckyRedEnvelopeV2.sol\":12805:12818  _tickets[_id] */\n      0x00\n      dup7\n      dup2\n      mstore\n        /* \"contracts/LuckyRedEnvelopeV2.sol\":12805:12813  _tickets */\n      0x08\n        /* \"contracts/LuckyRedEnvelopeV2.sol\":12805:12818  _tickets[_id] */\n      0x20\n      swap1\n      dup2\n      mstore\n      0x40\n      dup1\n      dup4\n      keccak256\n        /* \"contracts/LuckyRedEnvelopeV2.sol\":12805:12823  _tickets[_id][mid] */\n      dup5\n      dup5\n      mstore\n      swap1\n      swap2\n      mstore\n      swap1\n      keccak256\n        /* \"contracts/LuckyRedEnvelopeV2.sol\":12805:12836  _tickets[_id][mid].totalNumbers */\n      sload\n        /* \"contracts/LuckyRedEnvelopeV2.sol\":12805:12846  _tickets[_id][mid].totalNumbers <= _index */\n      dup6\n      lt\n        /* \"contracts/LuckyRedEnvelopeV2.sol\":12802:12896  if(_tickets[_id][mid].totalNumbers <= _index){... */\n      tag_470\n      jumpi\n        /* \"contracts/LuckyRedEnvelopeV2.sol\":12873:12880  mid + 1 */\n      tag_471\n        /* \"contracts/LuckyRedEnvelopeV2.sol\":12873:12876  mid */\n      dup2\n        /* \"contracts/LuckyRedEnvelopeV2.sol\":12879:12880  1 */\n      0x01\n        /* \"contracts/LuckyRedEnvelopeV2.sol\":12873:12880  mid + 1 */\n      tag_201\n      jump\t// in\n    tag_471:\n        /* \"contracts/LuckyRedEnvelopeV2.sol\":12866:12880  left = mid + 1 */\n      swap3\n      pop\n        /* \"contracts/LuckyRedEnvelopeV2.sol\":12802:12896  if(_tickets[_id][mid].totalNumbers <= _index){... */\n    tag_470:\n        /* \"contracts/LuckyRedEnvelopeV2.sol\":12922:12927  right */\n      dup2\n        /* \"contracts/LuckyRedEnvelopeV2.sol\":12914:12918  left */\n      dup4\n        /* \"contracts/LuckyRedEnvelopeV2.sol\":12914:12927  left >= right */\n      lt\n        /* \"contracts/LuckyRedEnvelopeV2.sol\":12910:12990  if (left >= right){... */\n      tag_472\n      jumpi\n      pop\n        /* \"contracts/LuckyRedEnvelopeV2.sol\":12954:12967  _tickets[_id] */\n      0x00\n      dup6\n      dup2\n      mstore\n        /* \"contracts/LuckyRedEnvelopeV2.sol\":12954:12962  _tickets */\n      0x08\n        /* \"contracts/LuckyRedEnvelopeV2.sol\":12954:12967  _tickets[_id] */\n      0x20\n      swap1\n      dup2\n      mstore\n      0x40\n      dup1\n      dup4\n      keccak256\n        /* \"contracts/LuckyRedEnvelopeV2.sol\":12954:12974  _tickets[_id][right] */\n      swap4\n      dup4\n      mstore\n      swap3\n      swap1\n      mstore\n      keccak256\n      swap2\n      pop\n        /* \"contracts/LuckyRedEnvelopeV2.sol\":12947:12974  return _tickets[_id][right] */\n      tag_320\n      swap1\n      pop\n      jump\n        /* \"contracts/LuckyRedEnvelopeV2.sol\":12910:12990  if (left >= right){... */\n    tag_472:\n      pop\n        /* \"contracts/LuckyRedEnvelopeV2.sol\":12641:13013  do{... */\n      jump(tag_462)\n        /* \"@openzeppelin/contracts/token/ERC20/utils/SafeERC20.sol\":4059:4688  function _callOptionalReturn(IERC20 token, bytes memory data) private {... */\n    tag_445:\n        /* \"@openzeppelin/contracts/token/ERC20/utils/SafeERC20.sol\":4478:4501  bytes memory returndata */\n      0x00\n        /* \"@openzeppelin/contracts/token/ERC20/utils/SafeERC20.sol\":4504:4537  address(token).functionCall(data) */\n      tag_474\n      sub(shl(0xa0, 0x01), 0x01)\n        /* \"@openzeppelin/contracts/token/ERC20/utils/SafeERC20.sol\":4504:4531  address(token).functionCall */\n      dup5\n      and\n        /* \"@openzeppelin/contracts/token/ERC20/utils/SafeERC20.sol\":4532:4536  data */\n      dup4\n        /* \"@openzeppelin/contracts/token/ERC20/utils/SafeERC20.sol\":4504:4531  address(token).functionCall */\n      tag_475\n        /* \"@openzeppelin/contracts/token/ERC20/utils/SafeERC20.sol\":4504:4537  address(token).functionCall(data) */\n      jump\t// in\n    tag_474:\n        /* \"@openzeppelin/contracts/token/ERC20/utils/SafeERC20.sol\":4478:4537  bytes memory returndata = address(token).functionCall(data) */\n      swap1\n      pop\n        /* \"@openzeppelin/contracts/token/ERC20/utils/SafeERC20.sol\":4551:4561  returndata */\n      dup1\n        /* \"@openzeppelin/contracts/token/ERC20/utils/SafeERC20.sol\":4551:4568  returndata.length */\n      mload\n        /* \"@openzeppelin/contracts/token/ERC20/utils/SafeERC20.sol\":4572:4573  0 */\n      0x00\n        /* \"@openzeppelin/contracts/token/ERC20/utils/SafeERC20.sol\":4551:4573  returndata.length != 0 */\n      eq\n      iszero\n        /* \"@openzeppelin/contracts/token/ERC20/utils/SafeERC20.sol\":4551:4608  returndata.length != 0 && !abi.decode(returndata, (bool)) */\n      dup1\n      iszero\n      tag_476\n      jumpi\n      pop\n        /* \"@openzeppelin/contracts/token/ERC20/utils/SafeERC20.sol\":4589:4599  returndata */\n      dup1\n        /* \"@openzeppelin/contracts/token/ERC20/utils/SafeERC20.sol\":4578:4608  abi.decode(returndata, (bool)) */\n      dup1\n      0x20\n      add\n      swap1\n      mload\n      dup2\n      add\n      swap1\n      tag_477\n      swap2\n      swap1\n      tag_478\n      jump\t// in\n    tag_477:\n        /* \"@openzeppelin/contracts/token/ERC20/utils/SafeERC20.sol\":4577:4608  !abi.decode(returndata, (bool)) */\n      iszero\n        /* \"@openzeppelin/contracts/token/ERC20/utils/SafeERC20.sol\":4551:4608  returndata.length != 0 && !abi.decode(returndata, (bool)) */\n    tag_476:\n        /* \"@openzeppelin/contracts/token/ERC20/utils/SafeERC20.sol\":4547:4682  if (returndata.length != 0 && !abi.decode(returndata, (bool))) {... */\n      iszero\n      tag_210\n      jumpi\n        /* \"@openzeppelin/contracts/token/ERC20/utils/SafeERC20.sol\":4631:4671  SafeERC20FailedOperation(address(token)) */\n      mload(0x40)\n      shl(0xe0, 0x5274afe7)\n      dup2\n      mstore\n      sub(shl(0xa0, 0x01), 0x01)\n        /* \"#utility.yul\":2808:2840   */\n      dup5\n      and\n        /* \"@openzeppelin/contracts/token/ERC20/utils/SafeERC20.sol\":4631:4671  SafeERC20FailedOperation(address(token)) */\n      0x04\n      dup3\n      add\n        /* \"#utility.yul\":2790:2841   */\n      mstore\n        /* \"#utility.yul\":2763:2781   */\n      0x24\n      add\n        /* \"@openzeppelin/contracts/token/ERC20/utils/SafeERC20.sol\":4631:4671  SafeERC20FailedOperation(address(token)) */\n      tag_117\n        /* \"#utility.yul\":2644:2847   */\n      jump\n        /* \"contracts/LuckyRedEnvelopeV2.sol\":16046:16199  function _leftRotate(uint256 _value,uint32 _shift)internal pure returns(uint256){... */\n    tag_453:\n        /* \"contracts/LuckyRedEnvelopeV2.sol\":16118:16125  uint256 */\n      0x00\n        /* \"contracts/LuckyRedEnvelopeV2.sol\":16177:16189  256 - _shift */\n      tag_482\n        /* \"contracts/LuckyRedEnvelopeV2.sol\":16183:16189  _shift */\n      dup3\n        /* \"contracts/LuckyRedEnvelopeV2.sol\":16177:16180  256 */\n      0x0100\n        /* \"contracts/LuckyRedEnvelopeV2.sol\":16177:16189  256 - _shift */\n      tag_483\n      jump\t// in\n    tag_482:\n        /* \"contracts/LuckyRedEnvelopeV2.sol\":16166:16190  _value >> (256 - _shift) */\n      0xffffffff\n        /* \"contracts/LuckyRedEnvelopeV2.sol\":16145:16161  _value << _shift */\n      swap3\n      dup4\n      and\n      dup5\n      swap1\n      shl\n        /* \"contracts/LuckyRedEnvelopeV2.sol\":16166:16190  _value >> (256 - _shift) */\n      swap3\n      and\n      swap3\n      swap1\n      swap3\n      shr\n        /* \"contracts/LuckyRedEnvelopeV2.sol\":16144:16191  (_value << _shift) | (_value >> (256 - _shift)) */\n      or\n      swap2\n        /* \"contracts/LuckyRedEnvelopeV2.sol\":16046:16199  function _leftRotate(uint256 _value,uint32 _shift)internal pure returns(uint256){... */\n      swap1\n      pop\n      jump\t// out\n        /* \"@openzeppelin/contracts/utils/Address.sol\":2705:2856  function functionCall(address target, bytes memory data) internal returns (bytes memory) {... */\n    tag_475:\n        /* \"@openzeppelin/contracts/utils/Address.sol\":2780:2792  bytes memory */\n      0x60\n        /* \"@openzeppelin/contracts/utils/Address.sol\":2811:2849  functionCallWithValue(target, data, 0) */\n      tag_379\n        /* \"@openzeppelin/contracts/utils/Address.sol\":2833:2839  target */\n      dup4\n        /* \"@openzeppelin/contracts/utils/Address.sol\":2841:2845  data */\n      dup4\n        /* \"@openzeppelin/contracts/utils/Address.sol\":2847:2848  0 */\n      0x00\n        /* \"@openzeppelin/contracts/utils/Address.sol\":2780:2792  bytes memory */\n      dup5\n        /* \"@openzeppelin/contracts/utils/Address.sol\":3421:3433  bool success */\n      0x00\n        /* \"@openzeppelin/contracts/utils/Address.sol\":3435:3458  bytes memory returndata */\n      dup1\n        /* \"@openzeppelin/contracts/utils/Address.sol\":3462:3468  target */\n      dup6\n      sub(shl(0xa0, 0x01), 0x01)\n        /* \"@openzeppelin/contracts/utils/Address.sol\":3462:3473  target.call */\n      and\n        /* \"@openzeppelin/contracts/utils/Address.sol\":3481:3486  value */\n      dup5\n        /* \"@openzeppelin/contracts/utils/Address.sol\":3488:3492  data */\n      dup7\n        /* \"@openzeppelin/contracts/utils/Address.sol\":3462:3493  target.call{value: value}(data) */\n      mload(0x40)\n      tag_490\n      swap2\n      swap1\n      tag_491\n      jump\t// in\n    tag_490:\n      0x00\n      mload(0x40)\n      dup1\n      dup4\n      sub\n      dup2\n      dup6\n      dup8\n      gas\n      call\n      swap3\n      pop\n      pop\n      pop\n      returndatasize\n      dup1\n      0x00\n      dup2\n      eq\n      tag_494\n      jumpi\n      mload(0x40)\n      swap2\n      pop\n      and(add(returndatasize, 0x3f), not(0x1f))\n      dup3\n      add\n      0x40\n      mstore\n      returndatasize\n      dup3\n      mstore\n      returndatasize\n      0x00\n      0x20\n      dup5\n      add\n      returndatacopy\n      jump(tag_493)\n    tag_494:\n      0x60\n      swap2\n      pop\n    tag_493:\n      pop\n        /* \"@openzeppelin/contracts/utils/Address.sol\":3420:3493  (bool success, bytes memory returndata) = target.call{value: value}(data) */\n      swap2\n      pop\n      swap2\n      pop\n        /* \"@openzeppelin/contracts/utils/Address.sol\":3510:3565  verifyCallResultFromTarget(target, success, returndata) */\n      tag_495\n        /* \"@openzeppelin/contracts/utils/Address.sol\":3537:3543  target */\n      dup7\n        /* \"@openzeppelin/contracts/utils/Address.sol\":3545:3552  success */\n      dup4\n        /* \"@openzeppelin/contracts/utils/Address.sol\":3554:3564  returndata */\n      dup4\n        /* \"@openzeppelin/contracts/utils/Address.sol\":3510:3536  verifyCallResultFromTarget */\n      tag_496\n        /* \"@openzeppelin/contracts/utils/Address.sol\":3510:3565  verifyCallResultFromTarget(target, success, returndata) */\n      jump\t// in\n    tag_495:\n        /* \"@openzeppelin/contracts/utils/Address.sol\":3503:3565  return verifyCallResultFromTarget(target, success, returndata) */\n      swap7\n        /* \"@openzeppelin/contracts/utils/Address.sol\":3180:3572  function functionCallWithValue(address target, bytes memory data, uint256 value) internal returns (bytes memory) {... */\n      swap6\n      pop\n      pop\n      pop\n      pop\n      pop\n      pop\n      jump\t// out\n        /* \"@openzeppelin/contracts/utils/Address.sol\":4625:5207  function verifyCallResultFromTarget(... */\n    tag_496:\n        /* \"@openzeppelin/contracts/utils/Address.sol\":4769:4781  bytes memory */\n      0x60\n        /* \"@openzeppelin/contracts/utils/Address.sol\":4798:4805  success */\n      dup3\n        /* \"@openzeppelin/contracts/utils/Address.sol\":4793:5201  if (!success) {... */\n      tag_498\n      jumpi\n        /* \"@openzeppelin/contracts/utils/Address.sol\":4821:4840  _revert(returndata) */\n      tag_499\n        /* \"@openzeppelin/contracts/utils/Address.sol\":4829:4839  returndata */\n      dup3\n        /* \"@openzeppelin/contracts/utils/Address.sol\":4821:4828  _revert */\n      tag_500\n        /* \"@openzeppelin/contracts/utils/Address.sol\":4821:4840  _revert(returndata) */\n      jump\t// in\n    tag_499:\n        /* \"@openzeppelin/contracts/utils/Address.sol\":4793:5201  if (!success) {... */\n      jump(tag_379)\n    tag_498:\n        /* \"@openzeppelin/contracts/utils/Address.sol\":5045:5062  returndata.length */\n      dup2\n      mload\n        /* \"@openzeppelin/contracts/utils/Address.sol\":5045:5067  returndata.length == 0 */\n      iszero\n        /* \"@openzeppelin/contracts/utils/Address.sol\":5045:5094  returndata.length == 0 && target.code.length == 0 */\n      dup1\n      iszero\n      tag_502\n      jumpi\n      pop\n      sub(shl(0xa0, 0x01), 0x01)\n        /* \"@openzeppelin/contracts/utils/Address.sol\":5071:5089  target.code.length */\n      dup5\n      and\n      extcodesize\n        /* \"@openzeppelin/contracts/utils/Address.sol\":5071:5094  target.code.length == 0 */\n      iszero\n        /* \"@openzeppelin/contracts/utils/Address.sol\":5045:5094  returndata.length == 0 && target.code.length == 0 */\n    tag_502:\n        /* \"@openzeppelin/contracts/utils/Address.sol\":5041:5160  if (returndata.length == 0 && target.code.length == 0) {... */\n      iszero\n      tag_503\n      jumpi\n        /* \"@openzeppelin/contracts/utils/Address.sol\":5121:5145  AddressEmptyCode(target) */\n      mload(0x40)\n      shl(0xe0, 0x9996b315)\n      dup2\n      mstore\n      sub(shl(0xa0, 0x01), 0x01)\n        /* \"#utility.yul\":2808:2840   */\n      dup6\n      and\n        /* \"@openzeppelin/contracts/utils/Address.sol\":5121:5145  AddressEmptyCode(target) */\n      0x04\n      dup3\n      add\n        /* \"#utility.yul\":2790:2841   */\n      mstore\n        /* \"#utility.yul\":2763:2781   */\n      0x24\n      add\n        /* \"@openzeppelin/contracts/utils/Address.sol\":5121:5145  AddressEmptyCode(target) */\n      tag_117\n        /* \"#utility.yul\":2644:2847   */\n      jump\n        /* \"@openzeppelin/contracts/utils/Address.sol\":5041:5160  if (returndata.length == 0 && target.code.length == 0) {... */\n    tag_503:\n      pop\n        /* \"@openzeppelin/contracts/utils/Address.sol\":5180:5190  returndata */\n      dup1\n        /* \"@openzeppelin/contracts/utils/Address.sol\":5173:5190  return returndata */\n      jump(tag_379)\n        /* \"@openzeppelin/contracts/utils/Address.sol\":5743:6259  function _revert(bytes memory returndata) private pure {... */\n    tag_500:\n        /* \"@openzeppelin/contracts/utils/Address.sol\":5874:5891  returndata.length */\n      dup1\n      mload\n        /* \"@openzeppelin/contracts/utils/Address.sol\":5874:5895  returndata.length > 0 */\n      iszero\n        /* \"@openzeppelin/contracts/utils/Address.sol\":5870:6253  if (returndata.length > 0) {... */\n      tag_506\n      jumpi\n        /* \"@openzeppelin/contracts/utils/Address.sol\":6102:6112  returndata */\n      dup1\n        /* \"@openzeppelin/contracts/utils/Address.sol\":6096:6113  mload(returndata) */\n      mload\n        /* \"@openzeppelin/contracts/utils/Address.sol\":6158:6173  returndata_size */\n      dup1\n        /* \"@openzeppelin/contracts/utils/Address.sol\":6145:6155  returndata */\n      dup3\n        /* \"@openzeppelin/contracts/utils/Address.sol\":6141:6143  32 */\n      0x20\n        /* \"@openzeppelin/contracts/utils/Address.sol\":6137:6156  add(32, returndata) */\n      add\n        /* \"@openzeppelin/contracts/utils/Address.sol\":6130:6174  revert(add(32, returndata), returndata_size) */\n      revert\n        /* \"@openzeppelin/contracts/utils/Address.sol\":5870:6253  if (returndata.length > 0) {... */\n    tag_506:\n        /* \"@openzeppelin/contracts/utils/Address.sol\":6225:6242  FailedInnerCall() */\n      mload(0x40)\n      shl(0xe1, 0x0a12f521)\n      dup2\n      mstore\n      0x04\n      add\n      mload(0x40)\n      dup1\n      swap2\n      sub\n      swap1\n      revert\n        /* \"#utility.yul\":14:399   */\n    tag_31:\n        /* \"#utility.yul\":100:106   */\n      0x00\n        /* \"#utility.yul\":108:114   */\n      dup1\n        /* \"#utility.yul\":116:122   */\n      0x00\n        /* \"#utility.yul\":124:130   */\n      dup1\n        /* \"#utility.yul\":177:180   */\n      0x80\n        /* \"#utility.yul\":165:174   */\n      dup6\n        /* \"#utility.yul\":156:163   */\n      dup8\n        /* \"#utility.yul\":152:175   */\n      sub\n        /* \"#utility.yul\":148:181   */\n      slt\n        /* \"#utility.yul\":145:198   */\n      iszero\n      tag_519\n      jumpi\n        /* \"#utility.yul\":194:195   */\n      0x00\n        /* \"#utility.yul\":191:192   */\n      dup1\n        /* \"#utility.yul\":184:196   */\n      revert\n        /* \"#utility.yul\":145:198   */\n    tag_519:\n      pop\n      pop\n        /* \"#utility.yul\":217:240   */\n      dup3\n      calldataload\n      swap5\n        /* \"#utility.yul\":287:289   */\n      0x20\n        /* \"#utility.yul\":272:290   */\n      dup5\n      add\n        /* \"#utility.yul\":259:291   */\n      calldataload\n      swap5\n      pop\n        /* \"#utility.yul\":338:340   */\n      0x40\n        /* \"#utility.yul\":323:341   */\n      dup5\n      add\n        /* \"#utility.yul\":310:342   */\n      calldataload\n      swap4\n        /* \"#utility.yul\":389:391   */\n      0x60\n        /* \"#utility.yul\":374:392   */\n      add\n        /* \"#utility.yul\":361:393   */\n      calldataload\n      swap3\n      pop\n        /* \"#utility.yul\":14:399   */\n      swap1\n      pop\n      jump\t// out\n        /* \"#utility.yul\":404:584   */\n    tag_35:\n        /* \"#utility.yul\":463:469   */\n      0x00\n        /* \"#utility.yul\":516:518   */\n      0x20\n        /* \"#utility.yul\":504:513   */\n      dup3\n        /* \"#utility.yul\":495:502   */\n      dup5\n        /* \"#utility.yul\":491:514   */\n      sub\n        /* \"#utility.yul\":487:519   */\n      slt\n        /* \"#utility.yul\":484:536   */\n      iszero\n      tag_521\n      jumpi\n        /* \"#utility.yul\":532:533   */\n      0x00\n        /* \"#utility.yul\":529:530   */\n      dup1\n        /* \"#utility.yul\":522:534   */\n      revert\n        /* \"#utility.yul\":484:536   */\n    tag_521:\n      pop\n        /* \"#utility.yul\":555:578   */\n      calldataload\n      swap2\n        /* \"#utility.yul\":404:584   */\n      swap1\n      pop\n      jump\t// out\n        /* \"#utility.yul\":589:762   */\n    tag_510:\n        /* \"#utility.yul\":657:677   */\n      dup1\n      calldataload\n      sub(shl(0xa0, 0x01), 0x01)\n        /* \"#utility.yul\":706:737   */\n      dup2\n      and\n        /* \"#utility.yul\":696:738   */\n      dup2\n      eq\n        /* \"#utility.yul\":686:756   */\n      tag_523\n      jumpi\n        /* \"#utility.yul\":752:753   */\n      0x00\n        /* \"#utility.yul\":749:750   */\n      dup1\n        /* \"#utility.yul\":742:754   */\n      revert\n        /* \"#utility.yul\":686:756   */\n    tag_523:\n        /* \"#utility.yul\":589:762   */\n      swap2\n      swap1\n      pop\n      jump\t// out\n        /* \"#utility.yul\":767:885   */\n    tag_511:\n        /* \"#utility.yul\":853:858   */\n      dup1\n        /* \"#utility.yul\":846:859   */\n      iszero\n        /* \"#utility.yul\":839:860   */\n      iszero\n        /* \"#utility.yul\":832:837   */\n      dup2\n        /* \"#utility.yul\":829:861   */\n      eq\n        /* \"#utility.yul\":819:879   */\n      tag_147\n      jumpi\n        /* \"#utility.yul\":875:876   */\n      0x00\n        /* \"#utility.yul\":872:873   */\n      dup1\n        /* \"#utility.yul\":865:877   */\n      revert\n        /* \"#utility.yul\":890:1768   */\n    tag_39:\n        /* \"#utility.yul\":1027:1033   */\n      0x00\n        /* \"#utility.yul\":1035:1041   */\n      dup1\n        /* \"#utility.yul\":1043:1049   */\n      0x00\n        /* \"#utility.yul\":1051:1057   */\n      dup1\n        /* \"#utility.yul\":1059:1065   */\n      0x00\n        /* \"#utility.yul\":1067:1073   */\n      dup1\n        /* \"#utility.yul\":1075:1081   */\n      0x00\n        /* \"#utility.yul\":1083:1089   */\n      dup1\n        /* \"#utility.yul\":1091:1097   */\n      0x00\n        /* \"#utility.yul\":1099:1105   */\n      dup1\n        /* \"#utility.yul\":1152:1155   */\n      0x0140\n        /* \"#utility.yul\":1140:1149   */\n      dup12\n        /* \"#utility.yul\":1131:1138   */\n      dup14\n        /* \"#utility.yul\":1127:1150   */\n      sub\n        /* \"#utility.yul\":1123:1156   */\n      slt\n        /* \"#utility.yul\":1120:1173   */\n      iszero\n      tag_527\n      jumpi\n        /* \"#utility.yul\":1169:1170   */\n      0x00\n        /* \"#utility.yul\":1166:1167   */\n      dup1\n        /* \"#utility.yul\":1159:1171   */\n      revert\n        /* \"#utility.yul\":1120:1173   */\n    tag_527:\n        /* \"#utility.yul\":1192:1221   */\n      tag_528\n        /* \"#utility.yul\":1211:1220   */\n      dup12\n        /* \"#utility.yul\":1192:1221   */\n      tag_510\n      jump\t// in\n    tag_528:\n        /* \"#utility.yul\":1182:1221   */\n      swap10\n      pop\n        /* \"#utility.yul\":1268:1270   */\n      0x20\n        /* \"#utility.yul\":1257:1266   */\n      dup12\n        /* \"#utility.yul\":1253:1271   */\n      add\n        /* \"#utility.yul\":1240:1272   */\n      calldataload\n        /* \"#utility.yul\":1230:1272   */\n      swap9\n      pop\n        /* \"#utility.yul\":1319:1321   */\n      0x40\n        /* \"#utility.yul\":1308:1317   */\n      dup12\n        /* \"#utility.yul\":1304:1322   */\n      add\n        /* \"#utility.yul\":1291:1323   */\n      calldataload\n        /* \"#utility.yul\":1281:1323   */\n      swap8\n      pop\n        /* \"#utility.yul\":1370:1372   */\n      0x60\n        /* \"#utility.yul\":1359:1368   */\n      dup12\n        /* \"#utility.yul\":1355:1373   */\n      add\n        /* \"#utility.yul\":1342:1374   */\n      calldataload\n        /* \"#utility.yul\":1332:1374   */\n      swap7\n      pop\n        /* \"#utility.yul\":1421:1424   */\n      0x80\n        /* \"#utility.yul\":1410:1419   */\n      dup12\n        /* \"#utility.yul\":1406:1425   */\n      add\n        /* \"#utility.yul\":1393:1426   */\n      calldataload\n        /* \"#utility.yul\":1383:1426   */\n      swap6\n      pop\n        /* \"#utility.yul\":1445:1484   */\n      tag_529\n        /* \"#utility.yul\":1479:1482   */\n      0xa0\n        /* \"#utility.yul\":1468:1477   */\n      dup13\n        /* \"#utility.yul\":1464:1483   */\n      add\n        /* \"#utility.yul\":1445:1484   */\n      tag_510\n      jump\t// in\n    tag_529:\n        /* \"#utility.yul\":1435:1484   */\n      swap5\n      pop\n        /* \"#utility.yul\":1531:1534   */\n      0xc0\n        /* \"#utility.yul\":1520:1529   */\n      dup12\n        /* \"#utility.yul\":1516:1535   */\n      add\n        /* \"#utility.yul\":1503:1536   */\n      calldataload\n        /* \"#utility.yul\":1493:1536   */\n      swap4\n      pop\n        /* \"#utility.yul\":1555:1594   */\n      tag_530\n        /* \"#utility.yul\":1589:1592   */\n      0xe0\n        /* \"#utility.yul\":1578:1587   */\n      dup13\n        /* \"#utility.yul\":1574:1593   */\n      add\n        /* \"#utility.yul\":1555:1594   */\n      tag_510\n      jump\t// in\n    tag_530:\n        /* \"#utility.yul\":1545:1594   */\n      swap3\n      pop\n        /* \"#utility.yul\":1641:1644   */\n      0x0100\n        /* \"#utility.yul\":1630:1639   */\n      dup12\n        /* \"#utility.yul\":1626:1645   */\n      add\n        /* \"#utility.yul\":1613:1646   */\n      calldataload\n        /* \"#utility.yul\":1603:1646   */\n      swap2\n      pop\n        /* \"#utility.yul\":1696:1699   */\n      0x0120\n        /* \"#utility.yul\":1685:1694   */\n      dup12\n        /* \"#utility.yul\":1681:1700   */\n      add\n        /* \"#utility.yul\":1668:1701   */\n      calldataload\n        /* \"#utility.yul\":1710:1738   */\n      tag_531\n        /* \"#utility.yul\":1732:1737   */\n      dup2\n        /* \"#utility.yul\":1710:1738   */\n      tag_511\n      jump\t// in\n    tag_531:\n        /* \"#utility.yul\":1757:1762   */\n      dup1\n        /* \"#utility.yul\":1747:1762   */\n      swap2\n      pop\n      pop\n        /* \"#utility.yul\":890:1768   */\n      swap3\n      swap6\n      swap9\n      swap12\n      swap2\n      swap5\n      swap8\n      swap11\n      pop\n      swap3\n      swap6\n      swap9\n      pop\n      jump\t// out\n        /* \"#utility.yul\":1955:2203   */\n    tag_47:\n        /* \"#utility.yul\":2023:2029   */\n      0x00\n        /* \"#utility.yul\":2031:2037   */\n      dup1\n        /* \"#utility.yul\":2084:2086   */\n      0x40\n        /* \"#utility.yul\":2072:2081   */\n      dup4\n        /* \"#utility.yul\":2063:2070   */\n      dup6\n        /* \"#utility.yul\":2059:2082   */\n      sub\n        /* \"#utility.yul\":2055:2087   */\n      slt\n        /* \"#utility.yul\":2052:2104   */\n      iszero\n      tag_534\n      jumpi\n        /* \"#utility.yul\":2100:2101   */\n      0x00\n        /* \"#utility.yul\":2097:2098   */\n      dup1\n        /* \"#utility.yul\":2090:2102   */\n      revert\n        /* \"#utility.yul\":2052:2104   */\n    tag_534:\n      pop\n      pop\n        /* \"#utility.yul\":2123:2146   */\n      dup1\n      calldataload\n      swap3\n        /* \"#utility.yul\":2193:2195   */\n      0x20\n        /* \"#utility.yul\":2178:2196   */\n      swap1\n      swap2\n      add\n        /* \"#utility.yul\":2165:2197   */\n      calldataload\n      swap2\n      pop\n        /* \"#utility.yul\":1955:2203   */\n      jump\t// out\n        /* \"#utility.yul\":2208:2530   */\n    tag_51:\n        /* \"#utility.yul\":2285:2291   */\n      0x00\n        /* \"#utility.yul\":2293:2299   */\n      dup1\n        /* \"#utility.yul\":2301:2307   */\n      0x00\n        /* \"#utility.yul\":2354:2356   */\n      0x60\n        /* \"#utility.yul\":2342:2351   */\n      dup5\n        /* \"#utility.yul\":2333:2340   */\n      dup7\n        /* \"#utility.yul\":2329:2352   */\n      sub\n        /* \"#utility.yul\":2325:2357   */\n      slt\n        /* \"#utility.yul\":2322:2374   */\n      iszero\n      tag_536\n      jumpi\n        /* \"#utility.yul\":2370:2371   */\n      0x00\n        /* \"#utility.yul\":2367:2368   */\n      dup1\n        /* \"#utility.yul\":2360:2372   */\n      revert\n        /* \"#utility.yul\":2322:2374   */\n    tag_536:\n        /* \"#utility.yul\":2406:2415   */\n      dup4\n        /* \"#utility.yul\":2393:2416   */\n      calldataload\n        /* \"#utility.yul\":2383:2416   */\n      swap3\n      pop\n        /* \"#utility.yul\":2435:2473   */\n      tag_537\n        /* \"#utility.yul\":2469:2471   */\n      0x20\n        /* \"#utility.yul\":2458:2467   */\n      dup6\n        /* \"#utility.yul\":2454:2472   */\n      add\n        /* \"#utility.yul\":2435:2473   */\n      tag_510\n      jump\t// in\n    tag_537:\n        /* \"#utility.yul\":2425:2473   */\n      swap2\n      pop\n        /* \"#utility.yul\":2520:2522   */\n      0x40\n        /* \"#utility.yul\":2509:2518   */\n      dup5\n        /* \"#utility.yul\":2505:2523   */\n      add\n        /* \"#utility.yul\":2492:2524   */\n      calldataload\n        /* \"#utility.yul\":2482:2524   */\n      swap1\n      pop\n        /* \"#utility.yul\":2208:2530   */\n      swap3\n      pop\n      swap3\n      pop\n      swap3\n      jump\t// out\n        /* \"#utility.yul\":2852:2979   */\n    tag_137:\n        /* \"#utility.yul\":2913:2923   */\n      0x4e487b71\n        /* \"#utility.yul\":2908:2911   */\n      0xe0\n        /* \"#utility.yul\":2904:2924   */\n      shl\n        /* \"#utility.yul\":2901:2902   */\n      0x00\n        /* \"#utility.yul\":2894:2925   */\n      mstore\n        /* \"#utility.yul\":2944:2948   */\n      0x21\n        /* \"#utility.yul\":2941:2942   */\n      0x04\n        /* \"#utility.yul\":2934:2949   */\n      mstore\n        /* \"#utility.yul\":2968:2972   */\n      0x24\n        /* \"#utility.yul\":2965:2966   */\n      0x00\n        /* \"#utility.yul\":2958:2973   */\n      revert\n        /* \"#utility.yul\":2984:3218   */\n    tag_513:\n        /* \"#utility.yul\":3062:3063   */\n      0x04\n        /* \"#utility.yul\":3055:3060   */\n      dup2\n        /* \"#utility.yul\":3052:3064   */\n      lt\n        /* \"#utility.yul\":3042:3185   */\n      tag_542\n      jumpi\n        /* \"#utility.yul\":3107:3117   */\n      0x4e487b71\n        /* \"#utility.yul\":3102:3105   */\n      0xe0\n        /* \"#utility.yul\":3098:3118   */\n      shl\n        /* \"#utility.yul\":3095:3096   */\n      0x00\n        /* \"#utility.yul\":3088:3119   */\n      mstore\n        /* \"#utility.yul\":3142:3146   */\n      0x21\n        /* \"#utility.yul\":3139:3140   */\n      0x04\n        /* \"#utility.yul\":3132:3147   */\n      mstore\n        /* \"#utility.yul\":3170:3174   */\n      0x24\n        /* \"#utility.yul\":3167:3168   */\n      0x00\n        /* \"#utility.yul\":3160:3175   */\n      revert\n        /* \"#utility.yul\":3042:3185   */\n    tag_542:\n        /* \"#utility.yul\":3194:3212   */\n      swap1\n      mstore\n        /* \"#utility.yul\":2984:3218   */\n      jump\t// out\n        /* \"#utility.yul\":3319:4771   */\n    tag_63:\n        /* \"#utility.yul\":3543:3556   */\n      dup2\n      mload\n      sub(shl(0xa0, 0x01), 0x01)\n        /* \"#utility.yul\":2601:2632   */\n      and\n        /* \"#utility.yul\":2589:2633   */\n      dup2\n      mstore\n        /* \"#utility.yul\":3511:3514   */\n      0x01e0\n        /* \"#utility.yul\":3496:3515   */\n      dup2\n      add\n        /* \"#utility.yul\":3615:3619   */\n      0x20\n        /* \"#utility.yul\":3607:3613   */\n      dup4\n        /* \"#utility.yul\":3603:3620   */\n      add\n        /* \"#utility.yul\":3597:3621   */\n      mload\n        /* \"#utility.yul\":3630:3688   */\n      tag_546\n        /* \"#utility.yul\":3682:3686   */\n      0x20\n        /* \"#utility.yul\":3671:3680   */\n      dup5\n        /* \"#utility.yul\":3667:3687   */\n      add\n        /* \"#utility.yul\":3653:3665   */\n      dup3\n        /* \"#utility.yul\":3630:3688   */\n      tag_513\n      jump\t// in\n    tag_546:\n      pop\n        /* \"#utility.yul\":3744:3748   */\n      0x40\n        /* \"#utility.yul\":3736:3742   */\n      dup4\n        /* \"#utility.yul\":3732:3749   */\n      add\n        /* \"#utility.yul\":3726:3750   */\n      mload\n        /* \"#utility.yul\":3719:3723   */\n      0x40\n        /* \"#utility.yul\":3708:3717   */\n      dup4\n        /* \"#utility.yul\":3704:3724   */\n      add\n        /* \"#utility.yul\":3697:3751   */\n      mstore\n        /* \"#utility.yul\":3807:3811   */\n      0x60\n        /* \"#utility.yul\":3799:3805   */\n      dup4\n        /* \"#utility.yul\":3795:3812   */\n      add\n        /* \"#utility.yul\":3789:3813   */\n      mload\n        /* \"#utility.yul\":3782:3786   */\n      0x60\n        /* \"#utility.yul\":3771:3780   */\n      dup4\n        /* \"#utility.yul\":3767:3787   */\n      add\n        /* \"#utility.yul\":3760:3814   */\n      mstore\n        /* \"#utility.yul\":3870:3874   */\n      0x80\n        /* \"#utility.yul\":3862:3868   */\n      dup4\n        /* \"#utility.yul\":3858:3875   */\n      add\n        /* \"#utility.yul\":3852:3876   */\n      mload\n        /* \"#utility.yul\":3845:3849   */\n      0x80\n        /* \"#utility.yul\":3834:3843   */\n      dup4\n        /* \"#utility.yul\":3830:3850   */\n      add\n        /* \"#utility.yul\":3823:3877   */\n      mstore\n        /* \"#utility.yul\":3933:3937   */\n      0xa0\n        /* \"#utility.yul\":3925:3931   */\n      dup4\n        /* \"#utility.yul\":3921:3938   */\n      add\n        /* \"#utility.yul\":3915:3939   */\n      mload\n        /* \"#utility.yul\":3908:3912   */\n      0xa0\n        /* \"#utility.yul\":3897:3906   */\n      dup4\n        /* \"#utility.yul\":3893:3913   */\n      add\n        /* \"#utility.yul\":3886:3940   */\n      mstore\n        /* \"#utility.yul\":3996:4000   */\n      0xc0\n        /* \"#utility.yul\":3988:3994   */\n      dup4\n        /* \"#utility.yul\":3984:4001   */\n      add\n        /* \"#utility.yul\":3978:4002   */\n      mload\n        /* \"#utility.yul\":3971:3975   */\n      0xc0\n        /* \"#utility.yul\":3960:3969   */\n      dup4\n        /* \"#utility.yul\":3956:3976   */\n      add\n        /* \"#utility.yul\":3949:4003   */\n      mstore\n        /* \"#utility.yul\":4059:4063   */\n      0xe0\n        /* \"#utility.yul\":4051:4057   */\n      dup4\n        /* \"#utility.yul\":4047:4064   */\n      add\n        /* \"#utility.yul\":4041:4065   */\n      mload\n        /* \"#utility.yul\":4034:4038   */\n      0xe0\n        /* \"#utility.yul\":4023:4032   */\n      dup4\n        /* \"#utility.yul\":4019:4039   */\n      add\n        /* \"#utility.yul\":4012:4066   */\n      mstore\n        /* \"#utility.yul\":4085:4091   */\n      0x0100\n        /* \"#utility.yul\":4145:4147   */\n      dup1\n        /* \"#utility.yul\":4137:4143   */\n      dup5\n        /* \"#utility.yul\":4133:4148   */\n      add\n        /* \"#utility.yul\":4127:4149   */\n      mload\n        /* \"#utility.yul\":4122:4124   */\n      dup2\n        /* \"#utility.yul\":4111:4120   */\n      dup5\n        /* \"#utility.yul\":4107:4125   */\n      add\n        /* \"#utility.yul\":4100:4150   */\n      mstore\n      pop\n        /* \"#utility.yul\":4169:4175   */\n      0x0120\n        /* \"#utility.yul\":4229:4231   */\n      dup1\n        /* \"#utility.yul\":4221:4227   */\n      dup5\n        /* \"#utility.yul\":4217:4232   */\n      add\n        /* \"#utility.yul\":4211:4233   */\n      mload\n        /* \"#utility.yul\":4206:4208   */\n      dup2\n        /* \"#utility.yul\":4195:4204   */\n      dup5\n        /* \"#utility.yul\":4191:4209   */\n      add\n        /* \"#utility.yul\":4184:4234   */\n      mstore\n      pop\n        /* \"#utility.yul\":4253:4259   */\n      0x0140\n        /* \"#utility.yul\":4313:4315   */\n      dup1\n        /* \"#utility.yul\":4305:4311   */\n      dup5\n        /* \"#utility.yul\":4301:4316   */\n      add\n        /* \"#utility.yul\":4295:4317   */\n      mload\n        /* \"#utility.yul\":4290:4292   */\n      dup2\n        /* \"#utility.yul\":4279:4288   */\n      dup5\n        /* \"#utility.yul\":4275:4293   */\n      add\n        /* \"#utility.yul\":4268:4318   */\n      mstore\n      pop\n        /* \"#utility.yul\":4337:4343   */\n      0x0160\n        /* \"#utility.yul\":4397:4399   */\n      dup1\n        /* \"#utility.yul\":4389:4395   */\n      dup5\n        /* \"#utility.yul\":4385:4400   */\n      add\n        /* \"#utility.yul\":4379:4401   */\n      mload\n        /* \"#utility.yul\":4374:4376   */\n      dup2\n        /* \"#utility.yul\":4363:4372   */\n      dup5\n        /* \"#utility.yul\":4359:4377   */\n      add\n        /* \"#utility.yul\":4352:4402   */\n      mstore\n      pop\n        /* \"#utility.yul\":4421:4427   */\n      0x0180\n        /* \"#utility.yul\":4476:4478   */\n      dup1\n        /* \"#utility.yul\":4468:4474   */\n      dup5\n        /* \"#utility.yul\":4464:4479   */\n      add\n        /* \"#utility.yul\":4458:4480   */\n      mload\n        /* \"#utility.yul\":4489:4543   */\n      tag_547\n        /* \"#utility.yul\":4539:4541   */\n      dup3\n        /* \"#utility.yul\":4528:4537   */\n      dup6\n        /* \"#utility.yul\":4524:4542   */\n      add\n        /* \"#utility.yul\":4508:4522   */\n      dup3\n      sub(shl(0xa0, 0x01), 0x01)\n        /* \"#utility.yul\":2601:2632   */\n      and\n        /* \"#utility.yul\":2589:2633   */\n      swap1\n      mstore\n        /* \"#utility.yul\":2535:2639   */\n      jump\n        /* \"#utility.yul\":4489:4543   */\n    tag_547:\n      pop\n      pop\n        /* \"#utility.yul\":4562:4568   */\n      0x01a0\n        /* \"#utility.yul\":4610:4625   */\n      dup4\n      dup2\n      add\n        /* \"#utility.yul\":4604:4626   */\n      mload\n        /* \"#utility.yul\":4584:4602   */\n      swap1\n      dup4\n      add\n        /* \"#utility.yul\":4577:4627   */\n      mstore\n        /* \"#utility.yul\":4646:4652   */\n      0x01c0\n        /* \"#utility.yul\":4689:4704   */\n      swap3\n      dup4\n      add\n        /* \"#utility.yul\":4683:4705   */\n      mload\n        /* \"#utility.yul\":3293:3306   */\n      iszero\n        /* \"#utility.yul\":3286:3307   */\n      iszero\n        /* \"#utility.yul\":4746:4764   */\n      swap3\n      swap1\n      swap2\n      add\n        /* \"#utility.yul\":3274:3308   */\n      swap2\n      swap1\n      swap2\n      mstore\n        /* \"#utility.yul\":3319:4771   */\n      swap1\n      jump\t// out\n        /* \"#utility.yul\":4776:5030   */\n    tag_66:\n        /* \"#utility.yul\":4844:4850   */\n      0x00\n        /* \"#utility.yul\":4852:4858   */\n      dup1\n        /* \"#utility.yul\":4905:4907   */\n      0x40\n        /* \"#utility.yul\":4893:4902   */\n      dup4\n        /* \"#utility.yul\":4884:4891   */\n      dup6\n        /* \"#utility.yul\":4880:4903   */\n      sub\n        /* \"#utility.yul\":4876:4908   */\n      slt\n        /* \"#utility.yul\":4873:4925   */\n      iszero\n      tag_550\n      jumpi\n        /* \"#utility.yul\":4921:4922   */\n      0x00\n        /* \"#utility.yul\":4918:4919   */\n      dup1\n        /* \"#utility.yul\":4911:4923   */\n      revert\n        /* \"#utility.yul\":4873:4925   */\n    tag_550:\n        /* \"#utility.yul\":4944:4973   */\n      tag_551\n        /* \"#utility.yul\":4963:4972   */\n      dup4\n        /* \"#utility.yul\":4944:4973   */\n      tag_510\n      jump\t// in\n    tag_551:\n        /* \"#utility.yul\":4934:4973   */\n      swap5\n        /* \"#utility.yul\":5020:5022   */\n      0x20\n        /* \"#utility.yul\":5005:5023   */\n      swap4\n      swap1\n      swap4\n      add\n        /* \"#utility.yul\":4992:5024   */\n      calldataload\n      swap4\n      pop\n      pop\n      pop\n        /* \"#utility.yul\":4776:5030   */\n      jump\t// out\n        /* \"#utility.yul\":5227:5413   */\n    tag_80:\n        /* \"#utility.yul\":5286:5292   */\n      0x00\n        /* \"#utility.yul\":5339:5341   */\n      0x20\n        /* \"#utility.yul\":5327:5336   */\n      dup3\n        /* \"#utility.yul\":5318:5325   */\n      dup5\n        /* \"#utility.yul\":5314:5337   */\n      sub\n        /* \"#utility.yul\":5310:5342   */\n      slt\n        /* \"#utility.yul\":5307:5359   */\n      iszero\n      tag_554\n      jumpi\n        /* \"#utility.yul\":5355:5356   */\n      0x00\n        /* \"#utility.yul\":5352:5353   */\n      dup1\n        /* \"#utility.yul\":5345:5357   */\n      revert\n        /* \"#utility.yul\":5307:5359   */\n    tag_554:\n        /* \"#utility.yul\":5378:5407   */\n      tag_379\n        /* \"#utility.yul\":5397:5406   */\n      dup3\n        /* \"#utility.yul\":5378:5407   */\n      tag_510\n      jump\t// in\n        /* \"#utility.yul\":5418:5733   */\n    tag_94:\n        /* \"#utility.yul\":5483:5489   */\n      0x00\n        /* \"#utility.yul\":5491:5497   */\n      dup1\n        /* \"#utility.yul\":5544:5546   */\n      0x40\n        /* \"#utility.yul\":5532:5541   */\n      dup4\n        /* \"#utility.yul\":5523:5530   */\n      dup6\n        /* \"#utility.yul\":5519:5542   */\n      sub\n        /* \"#utility.yul\":5515:5547   */\n      slt\n        /* \"#utility.yul\":5512:5564   */\n      iszero\n      tag_557\n      jumpi\n        /* \"#utility.yul\":5560:5561   */\n      0x00\n        /* \"#utility.yul\":5557:5558   */\n      dup1\n        /* \"#utility.yul\":5550:5562   */\n      revert\n        /* \"#utility.yul\":5512:5564   */\n    tag_557:\n        /* \"#utility.yul\":5583:5612   */\n      tag_558\n        /* \"#utility.yul\":5602:5611   */\n      dup4\n        /* \"#utility.yul\":5583:5612   */\n      tag_510\n      jump\t// in\n    tag_558:\n        /* \"#utility.yul\":5573:5612   */\n      swap2\n      pop\n        /* \"#utility.yul\":5662:5664   */\n      0x20\n        /* \"#utility.yul\":5651:5660   */\n      dup4\n        /* \"#utility.yul\":5647:5665   */\n      add\n        /* \"#utility.yul\":5634:5666   */\n      calldataload\n        /* \"#utility.yul\":5675:5703   */\n      tag_559\n        /* \"#utility.yul\":5697:5702   */\n      dup2\n        /* \"#utility.yul\":5675:5703   */\n      tag_511\n      jump\t// in\n    tag_559:\n        /* \"#utility.yul\":5722:5727   */\n      dup1\n        /* \"#utility.yul\":5712:5727   */\n      swap2\n      pop\n      pop\n        /* \"#utility.yul\":5418:5733   */\n      swap3\n      pop\n      swap3\n      swap1\n      pop\n      jump\t// out\n        /* \"#utility.yul\":5738:5992   */\n    tag_98:\n        /* \"#utility.yul\":5806:5812   */\n      0x00\n        /* \"#utility.yul\":5814:5820   */\n      dup1\n        /* \"#utility.yul\":5867:5869   */\n      0x40\n        /* \"#utility.yul\":5855:5864   */\n      dup4\n        /* \"#utility.yul\":5846:5853   */\n      dup6\n        /* \"#utility.yul\":5842:5865   */\n      sub\n        /* \"#utility.yul\":5838:5870   */\n      slt\n        /* \"#utility.yul\":5835:5887   */\n      iszero\n      tag_561\n      jumpi\n        /* \"#utility.yul\":5883:5884   */\n      0x00\n        /* \"#utility.yul\":5880:5881   */\n      dup1\n        /* \"#utility.yul\":5873:5885   */\n      revert\n        /* \"#utility.yul\":5835:5887   */\n    tag_561:\n        /* \"#utility.yul\":5919:5928   */\n      dup3\n        /* \"#utility.yul\":5906:5929   */\n      calldataload\n        /* \"#utility.yul\":5896:5929   */\n      swap2\n      pop\n        /* \"#utility.yul\":5948:5986   */\n      tag_562\n        /* \"#utility.yul\":5982:5984   */\n      0x20\n        /* \"#utility.yul\":5971:5980   */\n      dup5\n        /* \"#utility.yul\":5967:5985   */\n      add\n        /* \"#utility.yul\":5948:5986   */\n      tag_510\n      jump\t// in\n    tag_562:\n        /* \"#utility.yul\":5938:5986   */\n      swap1\n      pop\n        /* \"#utility.yul\":5738:5992   */\n      swap3\n      pop\n      swap3\n      swap1\n      pop\n      jump\t// out\n        /* \"#utility.yul\":5997:6238   */\n    tag_109:\n        /* \"#utility.yul\":6053:6059   */\n      0x00\n        /* \"#utility.yul\":6106:6108   */\n      0x20\n        /* \"#utility.yul\":6094:6103   */\n      dup3\n        /* \"#utility.yul\":6085:6092   */\n      dup5\n        /* \"#utility.yul\":6081:6104   */\n      sub\n        /* \"#utility.yul\":6077:6109   */\n      slt\n        /* \"#utility.yul\":6074:6126   */\n      iszero\n      tag_564\n      jumpi\n        /* \"#utility.yul\":6122:6123   */\n      0x00\n        /* \"#utility.yul\":6119:6120   */\n      dup1\n        /* \"#utility.yul\":6112:6124   */\n      revert\n        /* \"#utility.yul\":6074:6126   */\n    tag_564:\n        /* \"#utility.yul\":6161:6170   */\n      dup2\n        /* \"#utility.yul\":6148:6171   */\n      calldataload\n        /* \"#utility.yul\":6180:6208   */\n      tag_379\n        /* \"#utility.yul\":6202:6207   */\n      dup2\n        /* \"#utility.yul\":6180:6208   */\n      tag_511\n      jump\t// in\n        /* \"#utility.yul\":6243:6579   */\n    tag_118:\n        /* \"#utility.yul\":6445:6447   */\n      0x20\n        /* \"#utility.yul\":6427:6448   */\n      dup1\n      dup3\n      mstore\n        /* \"#utility.yul\":6484:6486   */\n      0x0c\n        /* \"#utility.yul\":6464:6482   */\n      swap1\n      dup3\n      add\n        /* \"#utility.yul\":6457:6487   */\n      mstore\n      shl(0xa1, 0x2737ba1037b832b930ba37b9)\n        /* \"#utility.yul\":6518:6520   */\n      0x40\n        /* \"#utility.yul\":6503:6521   */\n      dup3\n      add\n        /* \"#utility.yul\":6496:6538   */\n      mstore\n        /* \"#utility.yul\":6570:6572   */\n      0x60\n        /* \"#utility.yul\":6555:6573   */\n      add\n      swap1\n        /* \"#utility.yul\":6243:6579   */\n      jump\t// out\n        /* \"#utility.yul\":6584:7257   */\n    tag_126:\n        /* \"#utility.yul\":6893:6918   */\n      swap7\n      dup8\n      mstore\n        /* \"#utility.yul\":6949:6951   */\n      0x20\n        /* \"#utility.yul\":6934:6952   */\n      dup8\n      add\n        /* \"#utility.yul\":6927:6961   */\n      swap6\n      swap1\n      swap6\n      mstore\n        /* \"#utility.yul\":6992:6994   */\n      0x40\n        /* \"#utility.yul\":6977:6995   */\n      dup7\n      add\n        /* \"#utility.yul\":6970:7004   */\n      swap4\n      swap1\n      swap4\n      mstore\n        /* \"#utility.yul\":7035:7037   */\n      0x60\n        /* \"#utility.yul\":7020:7038   */\n      dup6\n      add\n        /* \"#utility.yul\":7013:7047   */\n      swap2\n      swap1\n      swap2\n      mstore\n      sub(shl(0xa0, 0x01), 0x01)\n        /* \"#utility.yul\":7122:7137   */\n      swap1\n      dup2\n      and\n        /* \"#utility.yul\":7116:7119   */\n      0x80\n        /* \"#utility.yul\":7101:7120   */\n      dup6\n      add\n        /* \"#utility.yul\":7094:7138   */\n      mstore\n        /* \"#utility.yul\":7175:7190   */\n      and\n        /* \"#utility.yul\":7074:7077   */\n      0xa0\n        /* \"#utility.yul\":7154:7173   */\n      dup4\n      add\n        /* \"#utility.yul\":7147:7191   */\n      mstore\n        /* \"#utility.yul\":7235:7249   */\n      iszero\n        /* \"#utility.yul\":7228:7250   */\n      iszero\n        /* \"#utility.yul\":7222:7225   */\n      0xc0\n        /* \"#utility.yul\":7207:7226   */\n      dup3\n      add\n        /* \"#utility.yul\":7200:7251   */\n      mstore\n        /* \"#utility.yul\":6880:6883   */\n      0xe0\n        /* \"#utility.yul\":6865:6884   */\n      add\n      swap1\n        /* \"#utility.yul\":6584:7257   */\n      jump\t// out\n        /* \"#utility.yul\":7262:7609   */\n    tag_142:\n        /* \"#utility.yul\":7464:7466   */\n      0x20\n        /* \"#utility.yul\":7446:7467   */\n      dup1\n      dup3\n      mstore\n        /* \"#utility.yul\":7503:7505   */\n      0x17\n        /* \"#utility.yul\":7483:7501   */\n      swap1\n      dup3\n      add\n        /* \"#utility.yul\":7476:7506   */\n      mstore\n        /* \"#utility.yul\":7542:7567   */\n      0x526564456e76656c6f7065206973206e6f74206f70656e000000000000000000\n        /* \"#utility.yul\":7537:7539   */\n      0x40\n        /* \"#utility.yul\":7522:7540   */\n      dup3\n      add\n        /* \"#utility.yul\":7515:7568   */\n      mstore\n        /* \"#utility.yul\":7600:7602   */\n      0x60\n        /* \"#utility.yul\":7585:7603   */\n      add\n      swap1\n        /* \"#utility.yul\":7262:7609   */\n      jump\t// out\n        /* \"#utility.yul\":8353:8701   */\n    tag_175:\n        /* \"#utility.yul\":8555:8557   */\n      0x20\n        /* \"#utility.yul\":8537:8558   */\n      dup1\n      dup3\n      mstore\n        /* \"#utility.yul\":8594:8596   */\n      0x18\n        /* \"#utility.yul\":8574:8592   */\n      swap1\n      dup3\n      add\n        /* \"#utility.yul\":8567:8597   */\n      mstore\n        /* \"#utility.yul\":8633:8659   */\n      0x526564456e76656c6f7065206973206f7665722074696d650000000000000000\n        /* \"#utility.yul\":8628:8630   */\n      0x40\n        /* \"#utility.yul\":8613:8631   */\n      dup3\n      add\n        /* \"#utility.yul\":8606:8660   */\n      mstore\n        /* \"#utility.yul\":8692:8694   */\n      0x60\n        /* \"#utility.yul\":8677:8695   */\n      add\n      swap1\n        /* \"#utility.yul\":8353:8701   */\n      jump\t// out\n        /* \"#utility.yul\":9753:9880   */\n    tag_515:\n        /* \"#utility.yul\":9814:9824   */\n      0x4e487b71\n        /* \"#utility.yul\":9809:9812   */\n      0xe0\n        /* \"#utility.yul\":9805:9825   */\n      shl\n        /* \"#utility.yul\":9802:9803   */\n      0x00\n        /* \"#utility.yul\":9795:9826   */\n      mstore\n        /* \"#utility.yul\":9845:9849   */\n      0x11\n        /* \"#utility.yul\":9842:9843   */\n      0x04\n        /* \"#utility.yul\":9835:9850   */\n      mstore\n        /* \"#utility.yul\":9869:9873   */\n      0x24\n        /* \"#utility.yul\":9866:9867   */\n      0x00\n        /* \"#utility.yul\":9859:9874   */\n      revert\n        /* \"#utility.yul\":9885:10010   */\n    tag_201:\n        /* \"#utility.yul\":9950:9959   */\n      dup1\n      dup3\n      add\n        /* \"#utility.yul\":9971:9981   */\n      dup1\n      dup3\n      gt\n        /* \"#utility.yul\":9968:10004   */\n      iszero\n      tag_320\n      jumpi\n        /* \"#utility.yul\":9984:10002   */\n      tag_320\n      tag_515\n      jump\t// in\n        /* \"#utility.yul\":11252:11420   */\n    tag_256:\n        /* \"#utility.yul\":11325:11334   */\n      dup1\n      dup3\n      mul\n        /* \"#utility.yul\":11356:11365   */\n      dup2\n      iszero\n        /* \"#utility.yul\":11373:11388   */\n      dup3\n      dup3\n      div\n        /* \"#utility.yul\":11367:11389   */\n      dup5\n      eq\n        /* \"#utility.yul\":11353:11390   */\n      or\n        /* \"#utility.yul\":11343:11414   */\n      tag_320\n      jumpi\n        /* \"#utility.yul\":11394:11412   */\n      tag_320\n      tag_515\n      jump\t// in\n        /* \"#utility.yul\":13118:13253   */\n    tag_339:\n        /* \"#utility.yul\":13157:13160   */\n      0x00\n        /* \"#utility.yul\":13178:13195   */\n      0x01\n      dup3\n      add\n        /* \"#utility.yul\":13175:13218   */\n      tag_593\n      jumpi\n        /* \"#utility.yul\":13198:13216   */\n      tag_593\n      tag_515\n      jump\t// in\n    tag_593:\n      pop\n        /* \"#utility.yul\":13245:13246   */\n      0x01\n        /* \"#utility.yul\":13234:13247   */\n      add\n      swap1\n        /* \"#utility.yul\":13118:13253   */\n      jump\t// out\n        /* \"#utility.yul\":13258:13386   */\n    tag_354:\n        /* \"#utility.yul\":13325:13334   */\n      dup2\n      dup2\n      sub\n        /* \"#utility.yul\":13346:13357   */\n      dup2\n      dup2\n      gt\n        /* \"#utility.yul\":13343:13380   */\n      iszero\n      tag_320\n      jumpi\n        /* \"#utility.yul\":13360:13378   */\n      tag_320\n      tag_515\n      jump\t// in\n        /* \"#utility.yul\":13391:13518   */\n    tag_382:\n        /* \"#utility.yul\":13452:13462   */\n      0x4e487b71\n        /* \"#utility.yul\":13447:13450   */\n      0xe0\n        /* \"#utility.yul\":13443:13463   */\n      shl\n        /* \"#utility.yul\":13440:13441   */\n      0x00\n        /* \"#utility.yul\":13433:13464   */\n      mstore\n        /* \"#utility.yul\":13483:13487   */\n      0x41\n        /* \"#utility.yul\":13480:13481   */\n      0x04\n        /* \"#utility.yul\":13473:13488   */\n      mstore\n        /* \"#utility.yul\":13507:13511   */\n      0x24\n        /* \"#utility.yul\":13504:13505   */\n      0x00\n        /* \"#utility.yul\":13497:13512   */\n      revert\n        /* \"#utility.yul\":13523:13650   */\n    tag_516:\n        /* \"#utility.yul\":13584:13594   */\n      0x4e487b71\n        /* \"#utility.yul\":13579:13582   */\n      0xe0\n        /* \"#utility.yul\":13575:13595   */\n      shl\n        /* \"#utility.yul\":13572:13573   */\n      0x00\n        /* \"#utility.yul\":13565:13596   */\n      mstore\n        /* \"#utility.yul\":13615:13619   */\n      0x12\n        /* \"#utility.yul\":13612:13613   */\n      0x04\n        /* \"#utility.yul\":13605:13620   */\n      mstore\n        /* \"#utility.yul\":13639:13643   */\n      0x24\n        /* \"#utility.yul\":13636:13637   */\n      0x00\n        /* \"#utility.yul\":13629:13644   */\n      revert\n        /* \"#utility.yul\":13655:13767   */\n    tag_391:\n        /* \"#utility.yul\":13687:13688   */\n      0x00\n        /* \"#utility.yul\":13713:13714   */\n      dup3\n        /* \"#utility.yul\":13703:13738   */\n      tag_601\n      jumpi\n        /* \"#utility.yul\":13718:13736   */\n      tag_601\n      tag_516\n      jump\t// in\n    tag_601:\n      pop\n        /* \"#utility.yul\":13752:13761   */\n      mod\n      swap1\n        /* \"#utility.yul\":13655:13767   */\n      jump\t// out\n        /* \"#utility.yul\":13772:13899   */\n    tag_398:\n        /* \"#utility.yul\":13833:13843   */\n      0x4e487b71\n        /* \"#utility.yul\":13828:13831   */\n      0xe0\n        /* \"#utility.yul\":13824:13844   */\n      shl\n        /* \"#utility.yul\":13821:13822   */\n      0x00\n        /* \"#utility.yul\":13814:13845   */\n      mstore\n        /* \"#utility.yul\":13864:13868   */\n      0x32\n        /* \"#utility.yul\":13861:13862   */\n      0x04\n        /* \"#utility.yul\":13854:13869   */\n      mstore\n        /* \"#utility.yul\":13888:13892   */\n      0x24\n        /* \"#utility.yul\":13885:13886   */\n      0x00\n        /* \"#utility.yul\":13878:13893   */\n      revert\n        /* \"#utility.yul\":13904:14040   */\n    tag_405:\n        /* \"#utility.yul\":13943:13946   */\n      0x00\n        /* \"#utility.yul\":13971:13976   */\n      dup2\n        /* \"#utility.yul\":13961:14000   */\n      tag_605\n      jumpi\n        /* \"#utility.yul\":13980:13998   */\n      tag_605\n      tag_515\n      jump\t// in\n    tag_605:\n      pop\n      not(0x00)\n        /* \"#utility.yul\":14016:14034   */\n      add\n      swap1\n        /* \"#utility.yul\":13904:14040   */\n      jump\t// out\n        /* \"#utility.yul\":15620:15740   */\n    tag_467:\n        /* \"#utility.yul\":15660:15661   */\n      0x00\n        /* \"#utility.yul\":15686:15687   */\n      dup3\n        /* \"#utility.yul\":15676:15711   */\n      tag_613\n      jumpi\n        /* \"#utility.yul\":15691:15709   */\n      tag_613\n      tag_516\n      jump\t// in\n    tag_613:\n      pop\n        /* \"#utility.yul\":15725:15734   */\n      div\n      swap1\n        /* \"#utility.yul\":15620:15740   */\n      jump\t// out\n        /* \"#utility.yul\":15745:15990   */\n    tag_478:\n        /* \"#utility.yul\":15812:15818   */\n      0x00\n        /* \"#utility.yul\":15865:15867   */\n      0x20\n        /* \"#utility.yul\":15853:15862   */\n      dup3\n        /* \"#utility.yul\":15844:15851   */\n      dup5\n        /* \"#utility.yul\":15840:15863   */\n      sub\n        /* \"#utility.yul\":15836:15868   */\n      slt\n        /* \"#utility.yul\":15833:15885   */\n      iszero\n      tag_615\n      jumpi\n        /* \"#utility.yul\":15881:15882   */\n      0x00\n        /* \"#utility.yul\":15878:15879   */\n      dup1\n        /* \"#utility.yul\":15871:15883   */\n      revert\n        /* \"#utility.yul\":15833:15885   */\n    tag_615:\n        /* \"#utility.yul\":15913:15922   */\n      dup2\n        /* \"#utility.yul\":15907:15923   */\n      mload\n        /* \"#utility.yul\":15932:15960   */\n      tag_379\n        /* \"#utility.yul\":15954:15959   */\n      dup2\n        /* \"#utility.yul\":15932:15960   */\n      tag_511\n      jump\t// in\n        /* \"#utility.yul\":15995:16170   */\n    tag_483:\n        /* \"#utility.yul\":16063:16073   */\n      0xffffffff\n        /* \"#utility.yul\":16106:16116   */\n      dup3\n      dup2\n      and\n        /* \"#utility.yul\":16094:16104   */\n      dup3\n      dup3\n      and\n        /* \"#utility.yul\":16090:16117   */\n      sub\n      swap1\n        /* \"#utility.yul\":16129:16141   */\n      dup1\n      dup3\n      gt\n        /* \"#utility.yul\":16126:16164   */\n      iszero\n      tag_619\n      jumpi\n        /* \"#utility.yul\":16144:16162   */\n      tag_619\n      tag_515\n      jump\t// in\n    tag_619:\n        /* \"#utility.yul\":16126:16164   */\n      pop\n        /* \"#utility.yul\":15995:16170   */\n      swap3\n      swap2\n      pop\n      pop\n      jump\t// out\n        /* \"#utility.yul\":16175:16476   */\n    tag_491:\n        /* \"#utility.yul\":16304:16307   */\n      0x00\n        /* \"#utility.yul\":16342:16348   */\n      dup3\n        /* \"#utility.yul\":16336:16349   */\n      mload\n        /* \"#utility.yul\":16388:16394   */\n      dup1\n        /* \"#utility.yul\":16381:16385   */\n      0x20\n        /* \"#utility.yul\":16373:16379   */\n      dup6\n        /* \"#utility.yul\":16369:16386   */\n      add\n        /* \"#utility.yul\":16364:16367   */\n      dup5\n        /* \"#utility.yul\":16358:16395   */\n      mcopy\n        /* \"#utility.yul\":16450:16451   */\n      0x00\n        /* \"#utility.yul\":16414:16430   */\n      swap3\n      add\n        /* \"#utility.yul\":16439:16452   */\n      swap2\n      dup3\n      mstore\n      pop\n        /* \"#utility.yul\":16414:16430   */\n      swap2\n        /* \"#utility.yul\":16175:16476   */\n      swap1\n      pop\n      jump\t// out\n\n    auxdata: 0xa264697066735822122080a87c28513ccc9df02b93fe5ea97ff3dd4fbe1a2835dfa747d4258bdf24789a64736f6c63430008190033\n}\n",
				"bytecode": {
					"linkReferences": {},
					"object": "608060405234801561000f575f80fd5b5060405161281f38038061281f83398101604081905261002e916101e4565b60015f55338061005757604051631e4fbdf760e01b81525f600482015260240160405180910390fd5b61006081610178565b506001600160a01b038381165f818152600660209081526040918290208054600160ff1991821681179092556005805490911682179055600280546001600160a01b03191695881695909517909455600485905581519283528201929092527fedae46487653623e513ea3b3341c9e6b457a2ef687d0342d2507ccb63458b19f910160405180910390a160055460405160ff909116151581527f6fe9a4ab2e95e24b2be44989dc36a685149dfde9354d486a8da5cb4bbd01b0109060200160405180910390a1600254600454604080516001600160a01b03909316835260208301919091527fdc907cb17a7da8e1dffad2b7205a6ca1111cbb38a0f1f4b2b60a31eb673ca4a2910160405180910390a150505061021d565b600180546001600160a01b038381166001600160a01b0319831681179093556040519116919082907f8be0079c531659141344cd1fd0a4f28419497f9722a3daafe3b4186f6b6457e0905f90a35050565b80516001600160a01b03811681146101df575f80fd5b919050565b5f805f606084860312156101f6575f80fd5b6101ff846101c9565b925061020d602085016101c9565b9150604084015190509250925092565b6125f58061022a5f395ff3fe608060405234801561000f575f80fd5b5060043610610148575f3560e01c8063959acdaf116100bf578063d982817411610079578063d9828174146102bc578063dc912a81146102cf578063e00dd161146102e2578063f2fde38b146102eb578063f41188ed146102fe578063fe5c597614610311575f80fd5b8063959acdaf14610231578063a210d5e014610244578063bc6bce9114610261578063bce3468d14610283578063c5e7bb3314610296578063d7098154146102a9575f80fd5b80635c42e0c5116101105780635c42e0c5146101b6578063715018a6146101c95780638da5cb5b146101d15780638f91cd17146101f6578063903606c51461021657806394456fa414610229575f80fd5b80630e9e12621461014c5780633834efe1146101615780634a42c8f6146101745780634bfec3aa14610187578063559f24bc146101a3575b5f80fd5b61015f61015a3660046120ae565b610324565b005b61015f61016f3660046120dd565b6103fa565b61015f61018236600461211c565b610502565b61019060045481565b6040519081526020015b60405180910390f35b61015f6101b13660046121aa565b6105f4565b61015f6101c43660046121ca565b6106e1565b61015f610978565b6001546001600160a01b03165b6040516001600160a01b03909116815260200161019a565b6102096102043660046120dd565b61098b565b60405161019a9190612230565b61015f6102243660046122fd565b610afc565b600354610190565b6002546101de906001600160a01b031681565b6005546102519060ff1681565b604051901515815260200161019a565b61025161026f366004612325565b60066020525f908152604090205460ff1681565b61015f6102913660046121aa565b610b90565b61015f6102a43660046121ca565b610e20565b61015f6102b73660046120dd565b611098565b61015f6102ca36600461233e565b611185565b6101906102dd366004612373565b611237565b61019060035481565b61015f6102f9366004612325565b611260565b61015f61030c36600461239d565b61129a565b61019061031f3660046120dd565b61131a565b335f9081526006602052604090205460ff1615156001146103605760405162461bcd60e51b8152600401610357906123b8565b60405180910390fd5b610368611343565b600254600454600554610390926001600160a01b03169190879087908790879060ff1661136b565b6003546004546002546005546040517fd1e3ee1889517a916aeecc9d0b214ca142fce1f8562cd5e9071876b998ec7eea936103e3938a938a938a93926001600160a01b0316915f9160ff909116906123de565b60405180910390a26103f460015f55565b50505050565b335f9081526006602052604090205460ff16151560011461042d5760405162461bcd60e51b8152600401610357906123b8565b610435611343565b60015f82815260076020526040902054600160a01b900460ff166003811115610460576104606121fc565b1461047d5760405162461bcd60e51b81526004016103579061241c565b5f81815260076020908152604091829020805460ff60a01b1916600160a11b17815560048101546005820154600690920154845142815293840191909152828401919091526060820152905182917f8e8517d306c35510333dea682099e81a1454bbf42be03c51d19d593ad811bb70919081900360800190a26104ff60015f55565b50565b335f9081526006602052604090205460ff1615156001146105355760405162461bcd60e51b8152600401610357906123b8565b61053d611343565b61054c8a8a8a8a8a878761136b565b8260075f60035481526020019081526020015f20600b015f6101000a8154816001600160a01b0302191690836001600160a01b031602179055506003547fd1e3ee1889517a916aeecc9d0b214ca142fce1f8562cd5e9071876b998ec7eea8989898d8f89886040516105c497969594939291906123de565b60405180910390a283156105df576105df60035486866113ed565b6105e860015f55565b50505050505050505050565b6105fc611343565b805f0361063c5760405162461bcd60e51b815260206004820152600e60248201526d696e6a656374206e6f207a65726f60901b6044820152606401610357565b60015f83815260076020526040902054600160a01b900460ff166003811115610667576106676121fc565b146106845760405162461bcd60e51b81526004016103579061241c565b5f82815260076020526040902060010154156106c9575f8281526007602052604090206001015442106106c95760405162461bcd60e51b815260040161035790612453565b6106d48233836113ed565b6106dd60015f55565b5050565b6106e9611343565b60015f84815260076020526040902054600160a01b900460ff166003811115610714576107146121fc565b146107315760405162461bcd60e51b81526004016103579061241c565b5f838152600760205260409020600b01546001600160a01b031661078d5760405162461bcd60e51b81526020600482015260136024820152721b9bc819d95d081d1a58dad95d081b5bd9195b606a1b6044820152606401610357565b5f838152600760205260409020600b01546001600160a01b031633146107ec5760405162461bcd60e51b81526020600482015260146024820152731b9bdd08185b1b1bddc819d95d081d1a58dad95d60621b6044820152606401610357565b805f036108335760405162461bcd60e51b81526020600482015260156024820152747469636b65744e756d62657273206e6f207a65726f60581b6044820152606401610357565b5f8381526007602052604090206001015415610878575f8381526007602052604090206001015442106108785760405162461bcd60e51b815260040161035790612453565b5f8381526007602052604090206002015415610911575f83815260076020526040902060028101546005820154600490920154909183916108b9919061249e565b6108c3919061249e565b11156109115760405162461bcd60e51b815260206004820152601a60248201527f526564456e76656c6f7065206973206f766572207469636b65740000000000006044820152606401610357565b5f61091e8484845f61156a565b60408051828152602081018590529192506001600160a01b03851691339187917f044a018626111fd20a3d6ed65f4bf175632a5877b08c4aa033d87b2c7b6318b5910160405180910390a45061097360015f55565b505050565b6109806117ab565b6109895f6117d8565b565b610a02604080516101e081019091525f808252602082019081526020015f81526020015f81526020015f81526020015f81526020015f81526020015f81526020015f81526020015f81526020015f81526020015f81526020015f6001600160a01b031681526020015f81526020015f151581525090565b5f8281526007602090815260409182902082516101e0810190935280546001600160a01b03811684529091830190600160a01b900460ff166003811115610a4b57610a4b6121fc565b6003811115610a5c57610a5c6121fc565b815260018201546020820152600282015460408201526003820154606082015260048201546080820152600582015460a0820152600682015460c0820152600782015460e082015260088201546101008201526009820154610120820152600a820154610140820152600b8201546001600160a01b0316610160820152600c820154610180820152600d9091015460ff1615156101a09091015292915050565b335f9081526006602052604090205460ff161515600114610b2f5760405162461bcd60e51b8152600401610357906123b8565b600280546001600160a01b0319166001600160a01b038416908117909155600482905560408051918252602082018390527fdc907cb17a7da8e1dffad2b7205a6ca1111cbb38a0f1f4b2b60a31eb673ca4a291015b60405180910390a15050565b335f9081526006602052604090205460ff161515600114610bc35760405162461bcd60e51b8152600401610357906123b8565b610bcb611343565b60025f83815260076020526040902054600160a01b900460ff166003811115610bf657610bf66121fc565b14610c3b5760405162461bcd60e51b8152602060048201526015602482015274526564456e76656c6f7065206e6f7420636c6f736560581b6044820152606401610357565b5f82815260076020908152604091829020805460ff60a01b1916600360a01b179055905142815283917f66f6b4cd34444af165fb78bce3996496528b37af161c26f737b7341cc37063bb910160405180910390a25f8281526007602052604081206005810154600490910154610cb1919061249e565b9050805f03610cc957610cc383611829565b506106d4565b5f838152600760205260409020600301548290829081118015610cfb57505f8581526007602052604090206003015415155b15610d1357505f848152600760205260409020600301545b5f8581526007602052604081206004810154600690910154610d35919061249e565b5f878152600760205260408120600a015491925090610d559083906124b1565b90505f610d638585846118d4565b9050610d70888583611a33565b5f888152600760205260409020600d015460ff1615610e11575f5b5f8981526007602081905260409091200154811015610e0f575f898152600c60209081526040808320600b83528184208585528352818420546001600160a01b0316845290915290205415610e07575f898152600b60209081526040808320848452909152902054610e07908a906001600160a01b0316611bf6565b600101610d8b565b505b5050505050506106dd60015f55565b610e28611343565b60015f84815260076020526040902054600160a01b900460ff166003811115610e5357610e536121fc565b14610e705760405162461bcd60e51b81526004016103579061241c565b5f838152600760205260409020600b01546001600160a01b031615610ecd5760405162461bcd60e51b81526020600482015260136024820152721b9bc8189d5e481d1a58dad95d081b5bd9195b606a1b6044820152606401610357565b805f03610f145760405162461bcd60e51b81526020600482015260156024820152747469636b65744e756d62657273206e6f207a65726f60581b6044820152606401610357565b5f8381526007602052604090206001015415610f59575f838152600760205260409020600101544210610f595760405162461bcd60e51b815260040161035790612453565b5f8381526007602052604090206002015415610ff2575f8381526007602052604090206002810154600582015460049092015490918391610f9a919061249e565b610fa4919061249e565b1115610ff25760405162461bcd60e51b815260206004820152601a60248201527f526564456e76656c6f7065206973206f766572207469636b65740000000000006044820152606401610357565b5f838152600760205260408120600a015461100e9083906124b1565b5f85815260076020526040902054909150611034906001600160a01b0316333084611d08565b5f611042858585600161156a565b60408051828152602081018690529192506001600160a01b03861691339188917f2f21f7ec4c4f5661e7ee11613bb65b35b597763197b0d487352af168e7689653910160405180910390a4505061097360015f55565b6110a0611343565b60035f82815260076020526040902054600160a01b900460ff1660038111156110cb576110cb6121fc565b146111185760405162461bcd60e51b815260206004820152601960248201527f526564456e76656c6f7065206e6f7420636c61696d61626c65000000000000006044820152606401610357565b5f818152600760205260409020600d015460ff16156111725760405162461bcd60e51b8152602060048201526016602482015275526564456e76656c6f7065206175746f20636c61696d60501b6044820152606401610357565b61117c8133611bf6565b6104ff60015f55565b61118d6117ab565b6001600160a01b0382166111dc5760405162461bcd60e51b815260206004820152601660248201527543616e6e6f74206265207a65726f206164647265737360501b6044820152606401610357565b6001600160a01b0382165f81815260066020908152604091829020805460ff19168515159081179091558251938452908301527fedae46487653623e513ea3b3341c9e6b457a2ef687d0342d2507ccb63458b19f9101610b84565b5f828152600c602090815260408083206001600160a01b03851684529091529020545b92915050565b6112686117ab565b6001600160a01b03811661129157604051631e4fbdf760e01b81525f6004820152602401610357565b6104ff816117d8565b335f9081526006602052604090205460ff1615156001146112cd5760405162461bcd60e51b8152600401610357906123b8565b6005805460ff191682151590811790915560405160ff909116151581527f6fe9a4ab2e95e24b2be44989dc36a685149dfde9354d486a8da5cb4bbd01b0109060200160405180910390a150565b5f81815260076020526040812054600160a01b900460ff16600381111561125a5761125a6121fc565b60025f540361136557604051633ee5aeb560e01b815260040160405180910390fd5b60025f55565b60038054905f61137a836124c8565b9091555050600380545f90815260076020526040902080546001600160a01b03999099166001600160a81b031990991698909817600160a01b1788556001880195909555600287019390935592850155600a840192909255600c830155600d909101805460ff1916911515919091179055565b5f838152600760205260408120600a01546114099083906124b1565b5f8581526007602052604090205490915061142f906001600160a01b0316843084611d08565b6003545f908152600760205260408120600601805484929061145290849061249e565b90915550506003545f908152600e602090815260408083206001600160a01b038716845290915281205490036114e957600380545f908152600d602090815260408083206007808452828520600990810154865291845282852080546001600160a01b0319166001600160a01b038b16179055945484529390915281209091018054600192906114e390849061249e565b90915550505b6003545f908152600e602090815260408083206001600160a01b03871684529091528120805484929061151d90849061249e565b90915550506003546040518381526001600160a01b03851691907fa95519638524dcea0d5d0102c719d77dc3d8b1ae68d2d1e37c79be21bc7b113b9060200160405180910390a350505050565b5f848152600760205260408120600801548190156115bf575f86815260086020818152604080842060079092528320909101549091906115ac906001906124e0565b81526020019081526020015f205f015490505b604051806060016040528085836115d6919061249e565b81526001600160a01b03808816602080840191909152861580156040948501525f8b8152600880845285822060078552868320909101548252835284902085518155918501516001909201805495909401511515600160a01b026001600160a81b0319909516919092161792909217905561167d575f8681526007602052604090206004015461166790859061249e565b5f878152600760205260409020600401556116ab565b5f8681526007602052604090206005015461169990859061249e565b5f878152600760205260409020600501555b5f868152600a602090815260408083206001600160a01b0389168452909152812054900361172c575f868152600b60209081526040808320600780845282852081018054865291845291842080546001600160a01b0319166001600160a01b038b16179055898452915280546001929061172690849061249e565b90915550505b5f86815260076020526040812060080180546001929061174d90849061249e565b90915550505f868152600a602090815260408083206001600160a01b038916845290915290205461177f90859061249e565b5f878152600a602090815260408083206001600160a01b038a1684529091529020559050949350505050565b6001546001600160a01b031633146109895760405163118cdaa760e01b8152336004820152602401610357565b600180546001600160a01b038381166001600160a01b0319831681179093556040519116919082907f8be0079c531659141344cd1fd0a4f28419497f9722a3daafe3b4186f6b6457e0905f90a35050565b5f5b5f828152600760205260409020600901548110156106dd575f828152600e60209081526040808320600d83528184208585528352818420546001600160a01b0316845282528083205485845260079092528220600a015461188c91906124b1565b5f848152600d602090815260408083208684528252808320548784526007909252909120549192506118cb916001600160a01b03908116911683611d6f565b5060010161182b565b60605f8367ffffffffffffffff8111156118f0576118f06124f3565b604051908082528060200260200182016040528015611919578160200160208202803683370190505b509050845f5b61192a6001876124e0565b8110156119ff5761193b8282611da0565b91505f611948868461251b565b9050815b6001811015801561197f5750846119646001836124e0565b815181106119745761197461252e565b602002602001015182105b156119d757846119906001836124e0565b815181106119a0576119a061252e565b60200260200101518582815181106119ba576119ba61252e565b6020908102919091010152806119cf81612542565b91505061194c565b818582815181106119ea576119ea61252e565b6020908102919091010152505060010161191f565b508382611a0d6001886124e0565b81518110611a1d57611a1d61252e565b60209081029190910101525090505b9392505050565b5f83815260076020526040812060058101546004909101548291611a569161249e565b90505f5b84811015611bee575f83858381518110611a7657611a7661252e565b6020026020010151611a8891906124e0565b905081868414611b005783611ab6878581518110611aa857611aa861252e565b602002602001015185611da0565b611ac0919061251b565b90505b5f88815260096020908152604080832084845290915290205460ff1615611b005780611aee816124c8565b915050838103611afb57505f5b611ac3565b5f8881526009602090815260408083208484529091528120805460ff19166001179055611b2d8983611ded565b60018101545f8b815260076020908152604091829020600d0154825188815260ff90911615159181019190915292935084926001600160a01b03909216918c917f927546e38b674f5e5dff7edce9c7afdcf21a35ac03ba70fe8e341f61f2c73ded910160405180910390a45f898152600c6020908152604080832060018501546001600160a01b0316845290915281208054859290611bcd90849061249e565b90915550611bdd9050838761249e565b95505060019092019150611a5a9050565b505050505050565b5f828152600c602090815260408083206001600160a01b03851684529091528120549003611c515760405162461bcd60e51b81526020600482015260086024820152676e6f207072697a6560c01b6044820152606401610357565b5f828152600c602090815260408083206001600160a01b0380861685529083528184205486855260079093529220549091611c8e91168383611d6f565b5f838152600c602090815260408083206001600160a01b0386168085529083528184208490558684526007835292819020600d0154815185815260ff90911615159281019290925285917f268ef67ed0490cc273925a4865e6fbdb4dcf7e0802aad957aa682a78c7618bef910160405180910390a3505050565b6040516001600160a01b0384811660248301528381166044830152606482018390526103f49186918216906323b872dd906084015b604051602081830303815290604052915060e01b6020820180516001600160e01b038381831617835250505050611f27565b6040516001600160a01b0383811660248301526044820183905261097391859182169063a9059cbb90606401611d3d565b5f80611dae6101008461251b565b905083611dbb8583611f88565b60408051602081019390935282015260600160408051601f198184030181529190528051602090910120949350505050565b5f82815260086020818152604080842060079092528320909101548391908390611e19906001906124e0565b81526020019081526020015f205f015411611e685760405162461bcd60e51b815260206004820152600f60248201526e696e646578206f75742072616e676560881b6044820152606401610357565b5f838152600760205260408120600801548190611e87906001906124e0565b90505b5f6002611e97838561249e565b611ea19190612557565b5f878152600860209081526040808320848452909152902054909150851015611ecc57809150611ef9565b5f8681526008602090815260408083208484529091529020548510611ef957611ef681600161249e565b92505b818310611f2157505f85815260086020908152604080832093835292905220915061125a9050565b50611e8a565b5f611f3b6001600160a01b03841683611fac565b905080515f14158015611f5f575080806020019051810190611f5d919061256a565b155b1561097357604051635274afe760e01b81526001600160a01b0384166004820152602401610357565b5f611f9582610100612585565b63ffffffff92831684901b92169290921c17919050565b6060611a2c83835f845f80856001600160a01b03168486604051611fd091906125a9565b5f6040518083038185875af1925050503d805f811461200a576040519150601f19603f3d011682016040523d82523d5f602084013e61200f565b606091505b509150915061201f868383612029565b9695505050505050565b60608261203e5761203982612085565b611a2c565b815115801561205557506001600160a01b0384163b155b1561207e57604051639996b31560e01b81526001600160a01b0385166004820152602401610357565b5080611a2c565b8051156120955780518082602001fd5b604051630a12f52160e11b815260040160405180910390fd5b5f805f80608085870312156120c1575f80fd5b5050823594602084013594506040840135936060013592509050565b5f602082840312156120ed575f80fd5b5035919050565b80356001600160a01b038116811461210a575f80fd5b919050565b80151581146104ff575f80fd5b5f805f805f805f805f806101408b8d031215612136575f80fd5b61213f8b6120f4565b995060208b0135985060408b0135975060608b0135965060808b0135955061216960a08c016120f4565b945060c08b0135935061217e60e08c016120f4565b92506101008b013591506101208b01356121978161210f565b809150509295989b9194979a5092959850565b5f80604083850312156121bb575f80fd5b50508035926020909101359150565b5f805f606084860312156121dc575f80fd5b833592506121ec602085016120f4565b9150604084013590509250925092565b634e487b7160e01b5f52602160045260245ffd5b6004811061222c57634e487b7160e01b5f52602160045260245ffd5b9052565b81516001600160a01b031681526101e0810160208301516122546020840182612210565b5060408301516040830152606083015160608301526080830151608083015260a083015160a083015260c083015160c083015260e083015160e0830152610100808401518184015250610120808401518184015250610140808401518184015250610160808401518184015250610180808401516122dc828501826001600160a01b03169052565b50506101a083810151908301526101c0928301511515929091019190915290565b5f806040838503121561230e575f80fd5b612317836120f4565b946020939093013593505050565b5f60208284031215612335575f80fd5b611a2c826120f4565b5f806040838503121561234f575f80fd5b612358836120f4565b915060208301356123688161210f565b809150509250929050565b5f8060408385031215612384575f80fd5b82359150612394602084016120f4565b90509250929050565b5f602082840312156123ad575f80fd5b8135611a2c8161210f565b6020808252600c908201526b2737ba1037b832b930ba37b960a11b604082015260600190565b9687526020870195909552604086019390935260608501919091526001600160a01b0390811660808501521660a0830152151560c082015260e00190565b60208082526017908201527f526564456e76656c6f7065206973206e6f74206f70656e000000000000000000604082015260600190565b60208082526018908201527f526564456e76656c6f7065206973206f7665722074696d650000000000000000604082015260600190565b634e487b7160e01b5f52601160045260245ffd5b8082018082111561125a5761125a61248a565b808202811582820484141761125a5761125a61248a565b5f600182016124d9576124d961248a565b5060010190565b8181038181111561125a5761125a61248a565b634e487b7160e01b5f52604160045260245ffd5b634e487b7160e01b5f52601260045260245ffd5b5f8261252957612529612507565b500690565b634e487b7160e01b5f52603260045260245ffd5b5f816125505761255061248a565b505f190190565b5f8261256557612565612507565b500490565b5f6020828403121561257a575f80fd5b8151611a2c8161210f565b63ffffffff8281168282160390808211156125a2576125a261248a565b5092915050565b5f82518060208501845e5f92019182525091905056fea264697066735822122080a87c28513ccc9df02b93fe5ea97ff3dd4fbe1a2835dfa747d4258bdf24789a64736f6c63430008190033",
					"opcodes": "PUSH1 0x80 PUSH1 0x40 MSTORE CALLVALUE DUP1 ISZERO PUSH2 0xF JUMPI PUSH0 DUP1 REVERT JUMPDEST POP PUSH1 0x40 MLOAD PUSH2 0x281F CODESIZE SUB DUP1 PUSH2 0x281F DUP4 CODECOPY DUP2 ADD PUSH1 0x40 DUP2 SWAP1 MSTORE PUSH2 0x2E SWAP2 PUSH2 0x1E4 JUMP JUMPDEST PUSH1 0x1 PUSH0 SSTORE CALLER DUP1 PUSH2 0x57 JUMPI PUSH1 0x40 MLOAD PUSH4 0x1E4FBDF7 PUSH1 0xE0 SHL DUP2 MSTORE PUSH0 PUSH1 0x4 DUP3 ADD MSTORE PUSH1 0x24 ADD PUSH1 0x40 MLOAD DUP1 SWAP2 SUB SWAP1 REVERT JUMPDEST PUSH2 0x60 DUP2 PUSH2 0x178 JUMP JUMPDEST POP PUSH1 0x1 PUSH1 0x1 PUSH1 0xA0 SHL SUB DUP4 DUP2 AND PUSH0 DUP2 DUP2 MSTORE PUSH1 0x6 PUSH1 0x20 SWAP1 DUP2 MSTORE PUSH1 0x40 SWAP2 DUP3 SWAP1 KECCAK256 DUP1 SLOAD PUSH1 0x1 PUSH1 0xFF NOT SWAP2 DUP3 AND DUP2 OR SWAP1 SWAP3 SSTORE PUSH1 0x5 DUP1 SLOAD SWAP1 SWAP2 AND DUP3 OR SWAP1 SSTORE PUSH1 0x2 DUP1 SLOAD PUSH1 0x1 PUSH1 0x1 PUSH1 0xA0 SHL SUB NOT AND SWAP6 DUP9 AND SWAP6 SWAP1 SWAP6 OR SWAP1 SWAP5 SSTORE PUSH1 0x4 DUP6 SWAP1 SSTORE DUP2 MLOAD SWAP3 DUP4 MSTORE DUP3 ADD SWAP3 SWAP1 SWAP3 MSTORE PUSH32 0xEDAE46487653623E513EA3B3341C9E6B457A2EF687D0342D2507CCB63458B19F SWAP2 ADD PUSH1 0x40 MLOAD DUP1 SWAP2 SUB SWAP1 LOG1 PUSH1 0x5 SLOAD PUSH1 0x40 MLOAD PUSH1 0xFF SWAP1 SWAP2 AND ISZERO ISZERO DUP2 MSTORE PUSH32 0x6FE9A4AB2E95E24B2BE44989DC36A685149DFDE9354D486A8DA5CB4BBD01B010 SWAP1 PUSH1 0x20 ADD PUSH1 0x40 MLOAD DUP1 SWAP2 SUB SWAP1 LOG1 PUSH1 0x2 SLOAD PUSH1 0x4 SLOAD PUSH1 0x40 DUP1 MLOAD PUSH1 0x1 PUSH1 0x1 PUSH1 0xA0 SHL SUB SWAP1 SWAP4 AND DUP4 MSTORE PUSH1 0x20 DUP4 ADD SWAP2 SWAP1 SWAP2 MSTORE PUSH32 0xDC907CB17A7DA8E1DFFAD2B7205A6CA1111CBB38A0F1F4B2B60A31EB673CA4A2 SWAP2 ADD PUSH1 0x40 MLOAD DUP1 SWAP2 SUB SWAP1 LOG1 POP POP POP PUSH2 0x21D JUMP JUMPDEST PUSH1 0x1 DUP1 SLOAD PUSH1 0x1 PUSH1 0x1 PUSH1 0xA0 SHL SUB DUP4 DUP2 AND PUSH1 0x1 PUSH1 0x1 PUSH1 0xA0 SHL SUB NOT DUP4 AND DUP2 OR SWAP1 SWAP4 SSTORE PUSH1 0x40 MLOAD SWAP2 AND SWAP2 SWAP1 DUP3 SWAP1 PUSH32 0x8BE0079C531659141344CD1FD0A4F28419497F9722A3DAAFE3B4186F6B6457E0 SWAP1 PUSH0 SWAP1 LOG3 POP POP JUMP JUMPDEST DUP1 MLOAD PUSH1 0x1 PUSH1 0x1 PUSH1 0xA0 SHL SUB DUP2 AND DUP2 EQ PUSH2 0x1DF JUMPI PUSH0 DUP1 REVERT JUMPDEST SWAP2 SWAP1 POP JUMP JUMPDEST PUSH0 DUP1 PUSH0 PUSH1 0x60 DUP5 DUP7 SUB SLT ISZERO PUSH2 0x1F6 JUMPI PUSH0 DUP1 REVERT JUMPDEST PUSH2 0x1FF DUP5 PUSH2 0x1C9 JUMP JUMPDEST SWAP3 POP PUSH2 0x20D PUSH1 0x20 DUP6 ADD PUSH2 0x1C9 JUMP JUMPDEST SWAP2 POP PUSH1 0x40 DUP5 ADD MLOAD SWAP1 POP SWAP3 POP SWAP3 POP SWAP3 JUMP JUMPDEST PUSH2 0x25F5 DUP1 PUSH2 0x22A PUSH0 CODECOPY PUSH0 RETURN INVALID PUSH1 0x80 PUSH1 0x40 MSTORE CALLVALUE DUP1 ISZERO PUSH2 0xF JUMPI PUSH0 DUP1 REVERT JUMPDEST POP PUSH1 0x4 CALLDATASIZE LT PUSH2 0x148 JUMPI PUSH0 CALLDATALOAD PUSH1 0xE0 SHR DUP1 PUSH4 0x959ACDAF GT PUSH2 0xBF JUMPI DUP1 PUSH4 0xD9828174 GT PUSH2 0x79 JUMPI DUP1 PUSH4 0xD9828174 EQ PUSH2 0x2BC JUMPI DUP1 PUSH4 0xDC912A81 EQ PUSH2 0x2CF JUMPI DUP1 PUSH4 0xE00DD161 EQ PUSH2 0x2E2 JUMPI DUP1 PUSH4 0xF2FDE38B EQ PUSH2 0x2EB JUMPI DUP1 PUSH4 0xF41188ED EQ PUSH2 0x2FE JUMPI DUP1 PUSH4 0xFE5C5976 EQ PUSH2 0x311 JUMPI PUSH0 DUP1 REVERT JUMPDEST DUP1 PUSH4 0x959ACDAF EQ PUSH2 0x231 JUMPI DUP1 PUSH4 0xA210D5E0 EQ PUSH2 0x244 JUMPI DUP1 PUSH4 0xBC6BCE91 EQ PUSH2 0x261 JUMPI DUP1 PUSH4 0xBCE3468D EQ PUSH2 0x283 JUMPI DUP1 PUSH4 0xC5E7BB33 EQ PUSH2 0x296 JUMPI DUP1 PUSH4 0xD7098154 EQ PUSH2 0x2A9 JUMPI PUSH0 DUP1 REVERT JUMPDEST DUP1 PUSH4 0x5C42E0C5 GT PUSH2 0x110 JUMPI DUP1 PUSH4 0x5C42E0C5 EQ PUSH2 0x1B6 JUMPI DUP1 PUSH4 0x715018A6 EQ PUSH2 0x1C9 JUMPI DUP1 PUSH4 0x8DA5CB5B EQ PUSH2 0x1D1 JUMPI DUP1 PUSH4 0x8F91CD17 EQ PUSH2 0x1F6 JUMPI DUP1 PUSH4 0x903606C5 EQ PUSH2 0x216 JUMPI DUP1 PUSH4 0x94456FA4 EQ PUSH2 0x229 JUMPI PUSH0 DUP1 REVERT JUMPDEST DUP1 PUSH4 0xE9E1262 EQ PUSH2 0x14C JUMPI DUP1 PUSH4 0x3834EFE1 EQ PUSH2 0x161 JUMPI DUP1 PUSH4 0x4A42C8F6 EQ PUSH2 0x174 JUMPI DUP1 PUSH4 0x4BFEC3AA EQ PUSH2 0x187 JUMPI DUP1 PUSH4 0x559F24BC EQ PUSH2 0x1A3 JUMPI JUMPDEST PUSH0 DUP1 REVERT JUMPDEST PUSH2 0x15F PUSH2 0x15A CALLDATASIZE PUSH1 0x4 PUSH2 0x20AE JUMP JUMPDEST PUSH2 0x324 JUMP JUMPDEST STOP JUMPDEST PUSH2 0x15F PUSH2 0x16F CALLDATASIZE PUSH1 0x4 PUSH2 0x20DD JUMP JUMPDEST PUSH2 0x3FA JUMP JUMPDEST PUSH2 0x15F PUSH2 0x182 CALLDATASIZE PUSH1 0x4 PUSH2 0x211C JUMP JUMPDEST PUSH2 0x502 JUMP JUMPDEST PUSH2 0x190 PUSH1 0x4 SLOAD DUP2 JUMP JUMPDEST PUSH1 0x40 MLOAD SWAP1 DUP2 MSTORE PUSH1 0x20 ADD JUMPDEST PUSH1 0x40 MLOAD DUP1 SWAP2 SUB SWAP1 RETURN JUMPDEST PUSH2 0x15F PUSH2 0x1B1 CALLDATASIZE PUSH1 0x4 PUSH2 0x21AA JUMP JUMPDEST PUSH2 0x5F4 JUMP JUMPDEST PUSH2 0x15F PUSH2 0x1C4 CALLDATASIZE PUSH1 0x4 PUSH2 0x21CA JUMP JUMPDEST PUSH2 0x6E1 JUMP JUMPDEST PUSH2 0x15F PUSH2 0x978 JUMP JUMPDEST PUSH1 0x1 SLOAD PUSH1 0x1 PUSH1 0x1 PUSH1 0xA0 SHL SUB AND JUMPDEST PUSH1 0x40 MLOAD PUSH1 0x1 PUSH1 0x1 PUSH1 0xA0 SHL SUB SWAP1 SWAP2 AND DUP2 MSTORE PUSH1 0x20 ADD PUSH2 0x19A JUMP JUMPDEST PUSH2 0x209 PUSH2 0x204 CALLDATASIZE PUSH1 0x4 PUSH2 0x20DD JUMP JUMPDEST PUSH2 0x98B JUMP JUMPDEST PUSH1 0x40 MLOAD PUSH2 0x19A SWAP2 SWAP1 PUSH2 0x2230 JUMP JUMPDEST PUSH2 0x15F PUSH2 0x224 CALLDATASIZE PUSH1 0x4 PUSH2 0x22FD JUMP JUMPDEST PUSH2 0xAFC JUMP JUMPDEST PUSH1 0x3 SLOAD PUSH2 0x190 JUMP JUMPDEST PUSH1 0x2 SLOAD PUSH2 0x1DE SWAP1 PUSH1 0x1 PUSH1 0x1 PUSH1 0xA0 SHL SUB AND DUP2 JUMP JUMPDEST PUSH1 0x5 SLOAD PUSH2 0x251 SWAP1 PUSH1 0xFF AND DUP2 JUMP JUMPDEST PUSH1 0x40 MLOAD SWAP1 ISZERO ISZERO DUP2 MSTORE PUSH1 0x20 ADD PUSH2 0x19A JUMP JUMPDEST PUSH2 0x251 PUSH2 0x26F CALLDATASIZE PUSH1 0x4 PUSH2 0x2325 JUMP JUMPDEST PUSH1 0x6 PUSH1 0x20 MSTORE PUSH0 SWAP1 DUP2 MSTORE PUSH1 0x40 SWAP1 KECCAK256 SLOAD PUSH1 0xFF AND DUP2 JUMP JUMPDEST PUSH2 0x15F PUSH2 0x291 CALLDATASIZE PUSH1 0x4 PUSH2 0x21AA JUMP JUMPDEST PUSH2 0xB90 JUMP JUMPDEST PUSH2 0x15F PUSH2 0x2A4 CALLDATASIZE PUSH1 0x4 PUSH2 0x21CA JUMP JUMPDEST PUSH2 0xE20 JUMP JUMPDEST PUSH2 0x15F PUSH2 0x2B7 CALLDATASIZE PUSH1 0x4 PUSH2 0x20DD JUMP JUMPDEST PUSH2 0x1098 JUMP JUMPDEST PUSH2 0x15F PUSH2 0x2CA CALLDATASIZE PUSH1 0x4 PUSH2 0x233E JUMP JUMPDEST PUSH2 0x1185 JUMP JUMPDEST PUSH2 0x190 PUSH2 0x2DD CALLDATASIZE PUSH1 0x4 PUSH2 0x2373 JUMP JUMPDEST PUSH2 0x1237 JUMP JUMPDEST PUSH2 0x190 PUSH1 0x3 SLOAD DUP2 JUMP JUMPDEST PUSH2 0x15F PUSH2 0x2F9 CALLDATASIZE PUSH1 0x4 PUSH2 0x2325 JUMP JUMPDEST PUSH2 0x1260 JUMP JUMPDEST PUSH2 0x15F PUSH2 0x30C CALLDATASIZE PUSH1 0x4 PUSH2 0x239D JUMP JUMPDEST PUSH2 0x129A JUMP JUMPDEST PUSH2 0x190 PUSH2 0x31F CALLDATASIZE PUSH1 0x4 PUSH2 0x20DD JUMP JUMPDEST PUSH2 0x131A JUMP JUMPDEST CALLER PUSH0 SWAP1 DUP2 MSTORE PUSH1 0x6 PUSH1 0x20 MSTORE PUSH1 0x40 SWAP1 KECCAK256 SLOAD PUSH1 0xFF AND ISZERO ISZERO PUSH1 0x1 EQ PUSH2 0x360 JUMPI PUSH1 0x40 MLOAD PUSH3 0x461BCD PUSH1 0xE5 SHL DUP2 MSTORE PUSH1 0x4 ADD PUSH2 0x357 SWAP1 PUSH2 0x23B8 JUMP JUMPDEST PUSH1 0x40 MLOAD DUP1 SWAP2 SUB SWAP1 REVERT JUMPDEST PUSH2 0x368 PUSH2 0x1343 JUMP JUMPDEST PUSH1 0x2 SLOAD PUSH1 0x4 SLOAD PUSH1 0x5 SLOAD PUSH2 0x390 SWAP3 PUSH1 0x1 PUSH1 0x1 PUSH1 0xA0 SHL SUB AND SWAP2 SWAP1 DUP8 SWAP1 DUP8 SWAP1 DUP8 SWAP1 DUP8 SWAP1 PUSH1 0xFF AND PUSH2 0x136B JUMP JUMPDEST PUSH1 0x3 SLOAD PUSH1 0x4 SLOAD PUSH1 0x2 SLOAD PUSH1 0x5 SLOAD PUSH1 0x40 MLOAD PUSH32 0xD1E3EE1889517A916AEECC9D0B214CA142FCE1F8562CD5E9071876B998EC7EEA SWAP4 PUSH2 0x3E3 SWAP4 DUP11 SWAP4 DUP11 SWAP4 DUP11 SWAP4 SWAP3 PUSH1 0x1 PUSH1 0x1 PUSH1 0xA0 SHL SUB AND SWAP2 PUSH0 SWAP2 PUSH1 0xFF SWAP1 SWAP2 AND SWAP1 PUSH2 0x23DE JUMP JUMPDEST PUSH1 0x40 MLOAD DUP1 SWAP2 SUB SWAP1 LOG2 PUSH2 0x3F4 PUSH1 0x1 PUSH0 SSTORE JUMP JUMPDEST POP POP POP POP JUMP JUMPDEST CALLER PUSH0 SWAP1 DUP2 MSTORE PUSH1 0x6 PUSH1 0x20 MSTORE PUSH1 0x40 SWAP1 KECCAK256 SLOAD PUSH1 0xFF AND ISZERO ISZERO PUSH1 0x1 EQ PUSH2 0x42D JUMPI PUSH1 0x40 MLOAD PUSH3 0x461BCD PUSH1 0xE5 SHL DUP2 MSTORE PUSH1 0x4 ADD PUSH2 0x357 SWAP1 PUSH2 0x23B8 JUMP JUMPDEST PUSH2 0x435 PUSH2 0x1343 JUMP JUMPDEST PUSH1 0x1 PUSH0 DUP3 DUP2 MSTORE PUSH1 0x7 PUSH1 0x20 MSTORE PUSH1 0x40 SWAP1 KECCAK256 SLOAD PUSH1 0x1 PUSH1 0xA0 SHL SWAP1 DIV PUSH1 0xFF AND PUSH1 0x3 DUP2 GT ISZERO PUSH2 0x460 JUMPI PUSH2 0x460 PUSH2 0x21FC JUMP JUMPDEST EQ PUSH2 0x47D JUMPI PUSH1 0x40 MLOAD PUSH3 0x461BCD PUSH1 0xE5 SHL DUP2 MSTORE PUSH1 0x4 ADD PUSH2 0x357 SWAP1 PUSH2 0x241C JUMP JUMPDEST PUSH0 DUP2 DUP2 MSTORE PUSH1 0x7 PUSH1 0x20 SWAP1 DUP2 MSTORE PUSH1 0x40 SWAP2 DUP3 SWAP1 KECCAK256 DUP1 SLOAD PUSH1 0xFF PUSH1 0xA0 SHL NOT AND PUSH1 0x1 PUSH1 0xA1 SHL OR DUP2 SSTORE PUSH1 0x4 DUP2 ADD SLOAD PUSH1 0x5 DUP3 ADD SLOAD PUSH1 0x6 SWAP1 SWAP3 ADD SLOAD DUP5 MLOAD TIMESTAMP DUP2 MSTORE SWAP4 DUP5 ADD SWAP2 SWAP1 SWAP2 MSTORE DUP3 DUP5 ADD SWAP2 SWAP1 SWAP2 MSTORE PUSH1 0x60 DUP3 ADD MSTORE SWAP1 MLOAD DUP3 SWAP2 PUSH32 0x8E8517D306C35510333DEA682099E81A1454BBF42BE03C51D19D593AD811BB70 SWAP2 SWAP1 DUP2 SWAP1 SUB PUSH1 0x80 ADD SWAP1 LOG2 PUSH2 0x4FF PUSH1 0x1 PUSH0 SSTORE JUMP JUMPDEST POP JUMP JUMPDEST CALLER PUSH0 SWAP1 DUP2 MSTORE PUSH1 0x6 PUSH1 0x20 MSTORE PUSH1 0x40 SWAP1 KECCAK256 SLOAD PUSH1 0xFF AND ISZERO ISZERO PUSH1 0x1 EQ PUSH2 0x535 JUMPI PUSH1 0x40 MLOAD PUSH3 0x461BCD PUSH1 0xE5 SHL DUP2 MSTORE PUSH1 0x4 ADD PUSH2 0x357 SWAP1 PUSH2 0x23B8 JUMP JUMPDEST PUSH2 0x53D PUSH2 0x1343 JUMP JUMPDEST PUSH2 0x54C DUP11 DUP11 DUP11 DUP11 DUP11 DUP8 DUP8 PUSH2 0x136B JUMP JUMPDEST DUP3 PUSH1 0x7 PUSH0 PUSH1 0x3 SLOAD DUP2 MSTORE PUSH1 0x20 ADD SWAP1 DUP2 MSTORE PUSH1 0x20 ADD PUSH0 KECCAK256 PUSH1 0xB ADD PUSH0 PUSH2 0x100 EXP DUP2 SLOAD DUP2 PUSH1 0x1 PUSH1 0x1 PUSH1 0xA0 SHL SUB MUL NOT AND SWAP1 DUP4 PUSH1 0x1 PUSH1 0x1 PUSH1 0xA0 SHL SUB AND MUL OR SWAP1 SSTORE POP PUSH1 0x3 SLOAD PUSH32 0xD1E3EE1889517A916AEECC9D0B214CA142FCE1F8562CD5E9071876B998EC7EEA DUP10 DUP10 DUP10 DUP14 DUP16 DUP10 DUP9 PUSH1 0x40 MLOAD PUSH2 0x5C4 SWAP8 SWAP7 SWAP6 SWAP5 SWAP4 SWAP3 SWAP2 SWAP1 PUSH2 0x23DE JUMP JUMPDEST PUSH1 0x40 MLOAD DUP1 SWAP2 SUB SWAP1 LOG2 DUP4 ISZERO PUSH2 0x5DF JUMPI PUSH2 0x5DF PUSH1 0x3 SLOAD DUP7 DUP7 PUSH2 0x13ED JUMP JUMPDEST PUSH2 0x5E8 PUSH1 0x1 PUSH0 SSTORE JUMP JUMPDEST POP POP POP POP POP POP POP POP POP POP JUMP JUMPDEST PUSH2 0x5FC PUSH2 0x1343 JUMP JUMPDEST DUP1 PUSH0 SUB PUSH2 0x63C JUMPI PUSH1 0x40 MLOAD PUSH3 0x461BCD PUSH1 0xE5 SHL DUP2 MSTORE PUSH1 0x20 PUSH1 0x4 DUP3 ADD MSTORE PUSH1 0xE PUSH1 0x24 DUP3 ADD MSTORE PUSH14 0x696E6A656374206E6F207A65726F PUSH1 0x90 SHL PUSH1 0x44 DUP3 ADD MSTORE PUSH1 0x64 ADD PUSH2 0x357 JUMP JUMPDEST PUSH1 0x1 PUSH0 DUP4 DUP2 MSTORE PUSH1 0x7 PUSH1 0x20 MSTORE PUSH1 0x40 SWAP1 KECCAK256 SLOAD PUSH1 0x1 PUSH1 0xA0 SHL SWAP1 DIV PUSH1 0xFF AND PUSH1 0x3 DUP2 GT ISZERO PUSH2 0x667 JUMPI PUSH2 0x667 PUSH2 0x21FC JUMP JUMPDEST EQ PUSH2 0x684 JUMPI PUSH1 0x40 MLOAD PUSH3 0x461BCD PUSH1 0xE5 SHL DUP2 MSTORE PUSH1 0x4 ADD PUSH2 0x357 SWAP1 PUSH2 0x241C JUMP JUMPDEST PUSH0 DUP3 DUP2 MSTORE PUSH1 0x7 PUSH1 0x20 MSTORE PUSH1 0x40 SWAP1 KECCAK256 PUSH1 0x1 ADD SLOAD ISZERO PUSH2 0x6C9 JUMPI PUSH0 DUP3 DUP2 MSTORE PUSH1 0x7 PUSH1 0x20 MSTORE PUSH1 0x40 SWAP1 KECCAK256 PUSH1 0x1 ADD SLOAD TIMESTAMP LT PUSH2 0x6C9 JUMPI PUSH1 0x40 MLOAD PUSH3 0x461BCD PUSH1 0xE5 SHL DUP2 MSTORE PUSH1 0x4 ADD PUSH2 0x357 SWAP1 PUSH2 0x2453 JUMP JUMPDEST PUSH2 0x6D4 DUP3 CALLER DUP4 PUSH2 0x13ED JUMP JUMPDEST PUSH2 0x6DD PUSH1 0x1 PUSH0 SSTORE JUMP JUMPDEST POP POP JUMP JUMPDEST PUSH2 0x6E9 PUSH2 0x1343 JUMP JUMPDEST PUSH1 0x1 PUSH0 DUP5 DUP2 MSTORE PUSH1 0x7 PUSH1 0x20 MSTORE PUSH1 0x40 SWAP1 KECCAK256 SLOAD PUSH1 0x1 PUSH1 0xA0 SHL SWAP1 DIV PUSH1 0xFF AND PUSH1 0x3 DUP2 GT ISZERO PUSH2 0x714 JUMPI PUSH2 0x714 PUSH2 0x21FC JUMP JUMPDEST EQ PUSH2 0x731 JUMPI PUSH1 0x40 MLOAD PUSH3 0x461BCD PUSH1 0xE5 SHL DUP2 MSTORE PUSH1 0x4 ADD PUSH2 0x357 SWAP1 PUSH2 0x241C JUMP JUMPDEST PUSH0 DUP4 DUP2 MSTORE PUSH1 0x7 PUSH1 0x20 MSTORE PUSH1 0x40 SWAP1 KECCAK256 PUSH1 0xB ADD SLOAD PUSH1 0x1 PUSH1 0x1 PUSH1 0xA0 SHL SUB AND PUSH2 0x78D JUMPI PUSH1 0x40 MLOAD PUSH3 0x461BCD PUSH1 0xE5 SHL DUP2 MSTORE PUSH1 0x20 PUSH1 0x4 DUP3 ADD MSTORE PUSH1 0x13 PUSH1 0x24 DUP3 ADD MSTORE PUSH19 0x1B9BC819D95D081D1A58DAD95D081B5BD9195B PUSH1 0x6A SHL PUSH1 0x44 DUP3 ADD MSTORE PUSH1 0x64 ADD PUSH2 0x357 JUMP JUMPDEST PUSH0 DUP4 DUP2 MSTORE PUSH1 0x7 PUSH1 0x20 MSTORE PUSH1 0x40 SWAP1 KECCAK256 PUSH1 0xB ADD SLOAD PUSH1 0x1 PUSH1 0x1 PUSH1 0xA0 SHL SUB AND CALLER EQ PUSH2 0x7EC JUMPI PUSH1 0x40 MLOAD PUSH3 0x461BCD PUSH1 0xE5 SHL DUP2 MSTORE PUSH1 0x20 PUSH1 0x4 DUP3 ADD MSTORE PUSH1 0x14 PUSH1 0x24 DUP3 ADD MSTORE PUSH20 0x1B9BDD08185B1B1BDDC819D95D081D1A58DAD95D PUSH1 0x62 SHL PUSH1 0x44 DUP3 ADD MSTORE PUSH1 0x64 ADD PUSH2 0x357 JUMP JUMPDEST DUP1 PUSH0 SUB PUSH2 0x833 JUMPI PUSH1 0x40 MLOAD PUSH3 0x461BCD PUSH1 0xE5 SHL DUP2 MSTORE PUSH1 0x20 PUSH1 0x4 DUP3 ADD MSTORE PUSH1 0x15 PUSH1 0x24 DUP3 ADD MSTORE PUSH21 0x7469636B65744E756D62657273206E6F207A65726F PUSH1 0x58 SHL PUSH1 0x44 DUP3 ADD MSTORE PUSH1 0x64 ADD PUSH2 0x357 JUMP JUMPDEST PUSH0 DUP4 DUP2 MSTORE PUSH1 0x7 PUSH1 0x20 MSTORE PUSH1 0x40 SWAP1 KECCAK256 PUSH1 0x1 ADD SLOAD ISZERO PUSH2 0x878 JUMPI PUSH0 DUP4 DUP2 MSTORE PUSH1 0x7 PUSH1 0x20 MSTORE PUSH1 0x40 SWAP1 KECCAK256 PUSH1 0x1 ADD SLOAD TIMESTAMP LT PUSH2 0x878 JUMPI PUSH1 0x40 MLOAD PUSH3 0x461BCD PUSH1 0xE5 SHL DUP2 MSTORE PUSH1 0x4 ADD PUSH2 0x357 SWAP1 PUSH2 0x2453 JUMP JUMPDEST PUSH0 DUP4 DUP2 MSTORE PUSH1 0x7 PUSH1 0x20 MSTORE PUSH1 0x40 SWAP1 KECCAK256 PUSH1 0x2 ADD SLOAD ISZERO PUSH2 0x911 JUMPI PUSH0 DUP4 DUP2 MSTORE PUSH1 0x7 PUSH1 0x20 MSTORE PUSH1 0x40 SWAP1 KECCAK256 PUSH1 0x2 DUP2 ADD SLOAD PUSH1 0x5 DUP3 ADD SLOAD PUSH1 0x4 SWAP1 SWAP3 ADD SLOAD SWAP1 SWAP2 DUP4 SWAP2 PUSH2 0x8B9 SWAP2 SWAP1 PUSH2 0x249E JUMP JUMPDEST PUSH2 0x8C3 SWAP2 SWAP1 PUSH2 0x249E JUMP JUMPDEST GT ISZERO PUSH2 0x911 JUMPI PUSH1 0x40 MLOAD PUSH3 0x461BCD PUSH1 0xE5 SHL DUP2 MSTORE PUSH1 0x20 PUSH1 0x4 DUP3 ADD MSTORE PUSH1 0x1A PUSH1 0x24 DUP3 ADD MSTORE PUSH32 0x526564456E76656C6F7065206973206F766572207469636B6574000000000000 PUSH1 0x44 DUP3 ADD MSTORE PUSH1 0x64 ADD PUSH2 0x357 JUMP JUMPDEST PUSH0 PUSH2 0x91E DUP5 DUP5 DUP5 PUSH0 PUSH2 0x156A JUMP JUMPDEST PUSH1 0x40 DUP1 MLOAD DUP3 DUP2 MSTORE PUSH1 0x20 DUP2 ADD DUP6 SWAP1 MSTORE SWAP2 SWAP3 POP PUSH1 0x1 PUSH1 0x1 PUSH1 0xA0 SHL SUB DUP6 AND SWAP2 CALLER SWAP2 DUP8 SWAP2 PUSH32 0x44A018626111FD20A3D6ED65F4BF175632A5877B08C4AA033D87B2C7B6318B5 SWAP2 ADD PUSH1 0x40 MLOAD DUP1 SWAP2 SUB SWAP1 LOG4 POP PUSH2 0x973 PUSH1 0x1 PUSH0 SSTORE JUMP JUMPDEST POP POP POP JUMP JUMPDEST PUSH2 0x980 PUSH2 0x17AB JUMP JUMPDEST PUSH2 0x989 PUSH0 PUSH2 0x17D8 JUMP JUMPDEST JUMP JUMPDEST PUSH2 0xA02 PUSH1 0x40 DUP1 MLOAD PUSH2 0x1E0 DUP2 ADD SWAP1 SWAP2 MSTORE PUSH0 DUP1 DUP3 MSTORE PUSH1 0x20 DUP3 ADD SWAP1 DUP2 MSTORE PUSH1 0x20 ADD PUSH0 DUP2 MSTORE PUSH1 0x20 ADD PUSH0 DUP2 MSTORE PUSH1 0x20 ADD PUSH0 DUP2 MSTORE PUSH1 0x20 ADD PUSH0 DUP2 MSTORE PUSH1 0x20 ADD PUSH0 DUP2 MSTORE PUSH1 0x20 ADD PUSH0 DUP2 MSTORE PUSH1 0x20 ADD PUSH0 DUP2 MSTORE PUSH1 0x20 ADD PUSH0 DUP2 MSTORE PUSH1 0x20 ADD PUSH0 DUP2 MSTORE PUSH1 0x20 ADD PUSH0 DUP2 MSTORE PUSH1 0x20 ADD PUSH0 PUSH1 0x1 PUSH1 0x1 PUSH1 0xA0 SHL SUB AND DUP2 MSTORE PUSH1 0x20 ADD PUSH0 DUP2 MSTORE PUSH1 0x20 ADD PUSH0 ISZERO ISZERO DUP2 MSTORE POP SWAP1 JUMP JUMPDEST PUSH0 DUP3 DUP2 MSTORE PUSH1 0x7 PUSH1 0x20 SWAP1 DUP2 MSTORE PUSH1 0x40 SWAP2 DUP3 SWAP1 KECCAK256 DUP3 MLOAD PUSH2 0x1E0 DUP2 ADD SWAP1 SWAP4 MSTORE DUP1 SLOAD PUSH1 0x1 PUSH1 0x1 PUSH1 0xA0 SHL SUB DUP2 AND DUP5 MSTORE SWAP1 SWAP2 DUP4 ADD SWAP1 PUSH1 0x1 PUSH1 0xA0 SHL SWAP1 DIV PUSH1 0xFF AND PUSH1 0x3 DUP2 GT ISZERO PUSH2 0xA4B JUMPI PUSH2 0xA4B PUSH2 0x21FC JUMP JUMPDEST PUSH1 0x3 DUP2 GT ISZERO PUSH2 0xA5C JUMPI PUSH2 0xA5C PUSH2 0x21FC JUMP JUMPDEST DUP2 MSTORE PUSH1 0x1 DUP3 ADD SLOAD PUSH1 0x20 DUP3 ADD MSTORE PUSH1 0x2 DUP3 ADD SLOAD PUSH1 0x40 DUP3 ADD MSTORE PUSH1 0x3 DUP3 ADD SLOAD PUSH1 0x60 DUP3 ADD MSTORE PUSH1 0x4 DUP3 ADD SLOAD PUSH1 0x80 DUP3 ADD MSTORE PUSH1 0x5 DUP3 ADD SLOAD PUSH1 0xA0 DUP3 ADD MSTORE PUSH1 0x6 DUP3 ADD SLOAD PUSH1 0xC0 DUP3 ADD MSTORE PUSH1 0x7 DUP3 ADD SLOAD PUSH1 0xE0 DUP3 ADD MSTORE PUSH1 0x8 DUP3 ADD SLOAD PUSH2 0x100 DUP3 ADD MSTORE PUSH1 0x9 DUP3 ADD SLOAD PUSH2 0x120 DUP3 ADD MSTORE PUSH1 0xA DUP3 ADD SLOAD PUSH2 0x140 DUP3 ADD MSTORE PUSH1 0xB DUP3 ADD SLOAD PUSH1 0x1 PUSH1 0x1 PUSH1 0xA0 SHL SUB AND PUSH2 0x160 DUP3 ADD MSTORE PUSH1 0xC DUP3 ADD SLOAD PUSH2 0x180 DUP3 ADD MSTORE PUSH1 0xD SWAP1 SWAP2 ADD SLOAD PUSH1 0xFF AND ISZERO ISZERO PUSH2 0x1A0 SWAP1 SWAP2 ADD MSTORE SWAP3 SWAP2 POP POP JUMP JUMPDEST CALLER PUSH0 SWAP1 DUP2 MSTORE PUSH1 0x6 PUSH1 0x20 MSTORE PUSH1 0x40 SWAP1 KECCAK256 SLOAD PUSH1 0xFF AND ISZERO ISZERO PUSH1 0x1 EQ PUSH2 0xB2F JUMPI PUSH1 0x40 MLOAD PUSH3 0x461BCD PUSH1 0xE5 SHL DUP2 MSTORE PUSH1 0x4 ADD PUSH2 0x357 SWAP1 PUSH2 0x23B8 JUMP JUMPDEST PUSH1 0x2 DUP1 SLOAD PUSH1 0x1 PUSH1 0x1 PUSH1 0xA0 SHL SUB NOT AND PUSH1 0x1 PUSH1 0x1 PUSH1 0xA0 SHL SUB DUP5 AND SWAP1 DUP2 OR SWAP1 SWAP2 SSTORE PUSH1 0x4 DUP3 SWAP1 SSTORE PUSH1 0x40 DUP1 MLOAD SWAP2 DUP3 MSTORE PUSH1 0x20 DUP3 ADD DUP4 SWAP1 MSTORE PUSH32 0xDC907CB17A7DA8E1DFFAD2B7205A6CA1111CBB38A0F1F4B2B60A31EB673CA4A2 SWAP2 ADD JUMPDEST PUSH1 0x40 MLOAD DUP1 SWAP2 SUB SWAP1 LOG1 POP POP JUMP JUMPDEST CALLER PUSH0 SWAP1 DUP2 MSTORE PUSH1 0x6 PUSH1 0x20 MSTORE PUSH1 0x40 SWAP1 KECCAK256 SLOAD PUSH1 0xFF AND ISZERO ISZERO PUSH1 0x1 EQ PUSH2 0xBC3 JUMPI PUSH1 0x40 MLOAD PUSH3 0x461BCD PUSH1 0xE5 SHL DUP2 MSTORE PUSH1 0x4 ADD PUSH2 0x357 SWAP1 PUSH2 0x23B8 JUMP JUMPDEST PUSH2 0xBCB PUSH2 0x1343 JUMP JUMPDEST PUSH1 0x2 PUSH0 DUP4 DUP2 MSTORE PUSH1 0x7 PUSH1 0x20 MSTORE PUSH1 0x40 SWAP1 KECCAK256 SLOAD PUSH1 0x1 PUSH1 0xA0 SHL SWAP1 DIV PUSH1 0xFF AND PUSH1 0x3 DUP2 GT ISZERO PUSH2 0xBF6 JUMPI PUSH2 0xBF6 PUSH2 0x21FC JUMP JUMPDEST EQ PUSH2 0xC3B JUMPI PUSH1 0x40 MLOAD PUSH3 0x461BCD PUSH1 0xE5 SHL DUP2 MSTORE PUSH1 0x20 PUSH1 0x4 DUP3 ADD MSTORE PUSH1 0x15 PUSH1 0x24 DUP3 ADD MSTORE PUSH21 0x526564456E76656C6F7065206E6F7420636C6F7365 PUSH1 0x58 SHL PUSH1 0x44 DUP3 ADD MSTORE PUSH1 0x64 ADD PUSH2 0x357 JUMP JUMPDEST PUSH0 DUP3 DUP2 MSTORE PUSH1 0x7 PUSH1 0x20 SWAP1 DUP2 MSTORE PUSH1 0x40 SWAP2 DUP3 SWAP1 KECCAK256 DUP1 SLOAD PUSH1 0xFF PUSH1 0xA0 SHL NOT AND PUSH1 0x3 PUSH1 0xA0 SHL OR SWAP1 SSTORE SWAP1 MLOAD TIMESTAMP DUP2 MSTORE DUP4 SWAP2 PUSH32 0x66F6B4CD34444AF165FB78BCE3996496528B37AF161C26F737B7341CC37063BB SWAP2 ADD PUSH1 0x40 MLOAD DUP1 SWAP2 SUB SWAP1 LOG2 PUSH0 DUP3 DUP2 MSTORE PUSH1 0x7 PUSH1 0x20 MSTORE PUSH1 0x40 DUP2 KECCAK256 PUSH1 0x5 DUP2 ADD SLOAD PUSH1 0x4 SWAP1 SWAP2 ADD SLOAD PUSH2 0xCB1 SWAP2 SWAP1 PUSH2 0x249E JUMP JUMPDEST SWAP1 POP DUP1 PUSH0 SUB PUSH2 0xCC9 JUMPI PUSH2 0xCC3 DUP4 PUSH2 0x1829 JUMP JUMPDEST POP PUSH2 0x6D4 JUMP JUMPDEST PUSH0 DUP4 DUP2 MSTORE PUSH1 0x7 PUSH1 0x20 MSTORE PUSH1 0x40 SWAP1 KECCAK256 PUSH1 0x3 ADD SLOAD DUP3 SWAP1 DUP3 SWAP1 DUP2 GT DUP1 ISZERO PUSH2 0xCFB JUMPI POP PUSH0 DUP6 DUP2 MSTORE PUSH1 0x7 PUSH1 0x20 MSTORE PUSH1 0x40 SWAP1 KECCAK256 PUSH1 0x3 ADD SLOAD ISZERO ISZERO JUMPDEST ISZERO PUSH2 0xD13 JUMPI POP PUSH0 DUP5 DUP2 MSTORE PUSH1 0x7 PUSH1 0x20 MSTORE PUSH1 0x40 SWAP1 KECCAK256 PUSH1 0x3 ADD SLOAD JUMPDEST PUSH0 DUP6 DUP2 MSTORE PUSH1 0x7 PUSH1 0x20 MSTORE PUSH1 0x40 DUP2 KECCAK256 PUSH1 0x4 DUP2 ADD SLOAD PUSH1 0x6 SWAP1 SWAP2 ADD SLOAD PUSH2 0xD35 SWAP2 SWAP1 PUSH2 0x249E JUMP JUMPDEST PUSH0 DUP8 DUP2 MSTORE PUSH1 0x7 PUSH1 0x20 MSTORE PUSH1 0x40 DUP2 KECCAK256 PUSH1 0xA ADD SLOAD SWAP2 SWAP3 POP SWAP1 PUSH2 0xD55 SWAP1 DUP4 SWAP1 PUSH2 0x24B1 JUMP JUMPDEST SWAP1 POP PUSH0 PUSH2 0xD63 DUP6 DUP6 DUP5 PUSH2 0x18D4 JUMP JUMPDEST SWAP1 POP PUSH2 0xD70 DUP9 DUP6 DUP4 PUSH2 0x1A33 JUMP JUMPDEST PUSH0 DUP9 DUP2 MSTORE PUSH1 0x7 PUSH1 0x20 MSTORE PUSH1 0x40 SWAP1 KECCAK256 PUSH1 0xD ADD SLOAD PUSH1 0xFF AND ISZERO PUSH2 0xE11 JUMPI PUSH0 JUMPDEST PUSH0 DUP10 DUP2 MSTORE PUSH1 0x7 PUSH1 0x20 DUP2 SWAP1 MSTORE PUSH1 0x40 SWAP1 SWAP2 KECCAK256 ADD SLOAD DUP2 LT ISZERO PUSH2 0xE0F JUMPI PUSH0 DUP10 DUP2 MSTORE PUSH1 0xC PUSH1 0x20 SWAP1 DUP2 MSTORE PUSH1 0x40 DUP1 DUP4 KECCAK256 PUSH1 0xB DUP4 MSTORE DUP2 DUP5 KECCAK256 DUP6 DUP6 MSTORE DUP4 MSTORE DUP2 DUP5 KECCAK256 SLOAD PUSH1 0x1 PUSH1 0x1 PUSH1 0xA0 SHL SUB AND DUP5 MSTORE SWAP1 SWAP2 MSTORE SWAP1 KECCAK256 SLOAD ISZERO PUSH2 0xE07 JUMPI PUSH0 DUP10 DUP2 MSTORE PUSH1 0xB PUSH1 0x20 SWAP1 DUP2 MSTORE PUSH1 0x40 DUP1 DUP4 KECCAK256 DUP5 DUP5 MSTORE SWAP1 SWAP2 MSTORE SWAP1 KECCAK256 SLOAD PUSH2 0xE07 SWAP1 DUP11 SWAP1 PUSH1 0x1 PUSH1 0x1 PUSH1 0xA0 SHL SUB AND PUSH2 0x1BF6 JUMP JUMPDEST PUSH1 0x1 ADD PUSH2 0xD8B JUMP JUMPDEST POP JUMPDEST POP POP POP POP POP POP PUSH2 0x6DD PUSH1 0x1 PUSH0 SSTORE JUMP JUMPDEST PUSH2 0xE28 PUSH2 0x1343 JUMP JUMPDEST PUSH1 0x1 PUSH0 DUP5 DUP2 MSTORE PUSH1 0x7 PUSH1 0x20 MSTORE PUSH1 0x40 SWAP1 KECCAK256 SLOAD PUSH1 0x1 PUSH1 0xA0 SHL SWAP1 DIV PUSH1 0xFF AND PUSH1 0x3 DUP2 GT ISZERO PUSH2 0xE53 JUMPI PUSH2 0xE53 PUSH2 0x21FC JUMP JUMPDEST EQ PUSH2 0xE70 JUMPI PUSH1 0x40 MLOAD PUSH3 0x461BCD PUSH1 0xE5 SHL DUP2 MSTORE PUSH1 0x4 ADD PUSH2 0x357 SWAP1 PUSH2 0x241C JUMP JUMPDEST PUSH0 DUP4 DUP2 MSTORE PUSH1 0x7 PUSH1 0x20 MSTORE PUSH1 0x40 SWAP1 KECCAK256 PUSH1 0xB ADD SLOAD PUSH1 0x1 PUSH1 0x1 PUSH1 0xA0 SHL SUB AND ISZERO PUSH2 0xECD JUMPI PUSH1 0x40 MLOAD PUSH3 0x461BCD PUSH1 0xE5 SHL DUP2 MSTORE PUSH1 0x20 PUSH1 0x4 DUP3 ADD MSTORE PUSH1 0x13 PUSH1 0x24 DUP3 ADD MSTORE PUSH19 0x1B9BC8189D5E481D1A58DAD95D081B5BD9195B PUSH1 0x6A SHL PUSH1 0x44 DUP3 ADD MSTORE PUSH1 0x64 ADD PUSH2 0x357 JUMP JUMPDEST DUP1 PUSH0 SUB PUSH2 0xF14 JUMPI PUSH1 0x40 MLOAD PUSH3 0x461BCD PUSH1 0xE5 SHL DUP2 MSTORE PUSH1 0x20 PUSH1 0x4 DUP3 ADD MSTORE PUSH1 0x15 PUSH1 0x24 DUP3 ADD MSTORE PUSH21 0x7469636B65744E756D62657273206E6F207A65726F PUSH1 0x58 SHL PUSH1 0x44 DUP3 ADD MSTORE PUSH1 0x64 ADD PUSH2 0x357 JUMP JUMPDEST PUSH0 DUP4 DUP2 MSTORE PUSH1 0x7 PUSH1 0x20 MSTORE PUSH1 0x40 SWAP1 KECCAK256 PUSH1 0x1 ADD SLOAD ISZERO PUSH2 0xF59 JUMPI PUSH0 DUP4 DUP2 MSTORE PUSH1 0x7 PUSH1 0x20 MSTORE PUSH1 0x40 SWAP1 KECCAK256 PUSH1 0x1 ADD SLOAD TIMESTAMP LT PUSH2 0xF59 JUMPI PUSH1 0x40 MLOAD PUSH3 0x461BCD PUSH1 0xE5 SHL DUP2 MSTORE PUSH1 0x4 ADD PUSH2 0x357 SWAP1 PUSH2 0x2453 JUMP JUMPDEST PUSH0 DUP4 DUP2 MSTORE PUSH1 0x7 PUSH1 0x20 MSTORE PUSH1 0x40 SWAP1 KECCAK256 PUSH1 0x2 ADD SLOAD ISZERO PUSH2 0xFF2 JUMPI PUSH0 DUP4 DUP2 MSTORE PUSH1 0x7 PUSH1 0x20 MSTORE PUSH1 0x40 SWAP1 KECCAK256 PUSH1 0x2 DUP2 ADD SLOAD PUSH1 0x5 DUP3 ADD SLOAD PUSH1 0x4 SWAP1 SWAP3 ADD SLOAD SWAP1 SWAP2 DUP4 SWAP2 PUSH2 0xF9A SWAP2 SWAP1 PUSH2 0x249E JUMP JUMPDEST PUSH2 0xFA4 SWAP2 SWAP1 PUSH2 0x249E JUMP JUMPDEST GT ISZERO PUSH2 0xFF2 JUMPI PUSH1 0x40 MLOAD PUSH3 0x461BCD PUSH1 0xE5 SHL DUP2 MSTORE PUSH1 0x20 PUSH1 0x4 DUP3 ADD MSTORE PUSH1 0x1A PUSH1 0x24 DUP3 ADD MSTORE PUSH32 0x526564456E76656C6F7065206973206F766572207469636B6574000000000000 PUSH1 0x44 DUP3 ADD MSTORE PUSH1 0x64 ADD PUSH2 0x357 JUMP JUMPDEST PUSH0 DUP4 DUP2 MSTORE PUSH1 0x7 PUSH1 0x20 MSTORE PUSH1 0x40 DUP2 KECCAK256 PUSH1 0xA ADD SLOAD PUSH2 0x100E SWAP1 DUP4 SWAP1 PUSH2 0x24B1 JUMP JUMPDEST PUSH0 DUP6 DUP2 MSTORE PUSH1 0x7 PUSH1 0x20 MSTORE PUSH1 0x40 SWAP1 KECCAK256 SLOAD SWAP1 SWAP2 POP PUSH2 0x1034 SWAP1 PUSH1 0x1 PUSH1 0x1 PUSH1 0xA0 SHL SUB AND CALLER ADDRESS DUP5 PUSH2 0x1D08 JUMP JUMPDEST PUSH0 PUSH2 0x1042 DUP6 DUP6 DUP6 PUSH1 0x1 PUSH2 0x156A JUMP JUMPDEST PUSH1 0x40 DUP1 MLOAD DUP3 DUP2 MSTORE PUSH1 0x20 DUP2 ADD DUP7 SWAP1 MSTORE SWAP2 SWAP3 POP PUSH1 0x1 PUSH1 0x1 PUSH1 0xA0 SHL SUB DUP7 AND SWAP2 CALLER SWAP2 DUP9 SWAP2 PUSH32 0x2F21F7EC4C4F5661E7EE11613BB65B35B597763197B0D487352AF168E7689653 SWAP2 ADD PUSH1 0x40 MLOAD DUP1 SWAP2 SUB SWAP1 LOG4 POP POP PUSH2 0x973 PUSH1 0x1 PUSH0 SSTORE JUMP JUMPDEST PUSH2 0x10A0 PUSH2 0x1343 JUMP JUMPDEST PUSH1 0x3 PUSH0 DUP3 DUP2 MSTORE PUSH1 0x7 PUSH1 0x20 MSTORE PUSH1 0x40 SWAP1 KECCAK256 SLOAD PUSH1 0x1 PUSH1 0xA0 SHL SWAP1 DIV PUSH1 0xFF AND PUSH1 0x3 DUP2 GT ISZERO PUSH2 0x10CB JUMPI PUSH2 0x10CB PUSH2 0x21FC JUMP JUMPDEST EQ PUSH2 0x1118 JUMPI PUSH1 0x40 MLOAD PUSH3 0x461BCD PUSH1 0xE5 SHL DUP2 MSTORE PUSH1 0x20 PUSH1 0x4 DUP3 ADD MSTORE PUSH1 0x19 PUSH1 0x24 DUP3 ADD MSTORE PUSH32 0x526564456E76656C6F7065206E6F7420636C61696D61626C6500000000000000 PUSH1 0x44 DUP3 ADD MSTORE PUSH1 0x64 ADD PUSH2 0x357 JUMP JUMPDEST PUSH0 DUP2 DUP2 MSTORE PUSH1 0x7 PUSH1 0x20 MSTORE PUSH1 0x40 SWAP1 KECCAK256 PUSH1 0xD ADD SLOAD PUSH1 0xFF AND ISZERO PUSH2 0x1172 JUMPI PUSH1 0x40 MLOAD PUSH3 0x461BCD PUSH1 0xE5 SHL DUP2 MSTORE PUSH1 0x20 PUSH1 0x4 DUP3 ADD MSTORE PUSH1 0x16 PUSH1 0x24 DUP3 ADD MSTORE PUSH22 0x526564456E76656C6F7065206175746F20636C61696D PUSH1 0x50 SHL PUSH1 0x44 DUP3 ADD MSTORE PUSH1 0x64 ADD PUSH2 0x357 JUMP JUMPDEST PUSH2 0x117C DUP2 CALLER PUSH2 0x1BF6 JUMP JUMPDEST PUSH2 0x4FF PUSH1 0x1 PUSH0 SSTORE JUMP JUMPDEST PUSH2 0x118D PUSH2 0x17AB JUMP JUMPDEST PUSH1 0x1 PUSH1 0x1 PUSH1 0xA0 SHL SUB DUP3 AND PUSH2 0x11DC JUMPI PUSH1 0x40 MLOAD PUSH3 0x461BCD PUSH1 0xE5 SHL DUP2 MSTORE PUSH1 0x20 PUSH1 0x4 DUP3 ADD MSTORE PUSH1 0x16 PUSH1 0x24 DUP3 ADD MSTORE PUSH22 0x43616E6E6F74206265207A65726F2061646472657373 PUSH1 0x50 SHL PUSH1 0x44 DUP3 ADD MSTORE PUSH1 0x64 ADD PUSH2 0x357 JUMP JUMPDEST PUSH1 0x1 PUSH1 0x1 PUSH1 0xA0 SHL SUB DUP3 AND PUSH0 DUP2 DUP2 MSTORE PUSH1 0x6 PUSH1 0x20 SWAP1 DUP2 MSTORE PUSH1 0x40 SWAP2 DUP3 SWAP1 KECCAK256 DUP1 SLOAD PUSH1 0xFF NOT AND DUP6 ISZERO ISZERO SWAP1 DUP2 OR SWAP1 SWAP2 SSTORE DUP3 MLOAD SWAP4 DUP5 MSTORE SWAP1 DUP4 ADD MSTORE PUSH32 0xEDAE46487653623E513EA3B3341C9E6B457A2EF687D0342D2507CCB63458B19F SWAP2 ADD PUSH2 0xB84 JUMP JUMPDEST PUSH0 DUP3 DUP2 MSTORE PUSH1 0xC PUSH1 0x20 SWAP1 DUP2 MSTORE PUSH1 0x40 DUP1 DUP4 KECCAK256 PUSH1 0x1 PUSH1 0x1 PUSH1 0xA0 SHL SUB DUP6 AND DUP5 MSTORE SWAP1 SWAP2 MSTORE SWAP1 KECCAK256 SLOAD JUMPDEST SWAP3 SWAP2 POP POP JUMP JUMPDEST PUSH2 0x1268 PUSH2 0x17AB JUMP JUMPDEST PUSH1 0x1 PUSH1 0x1 PUSH1 0xA0 SHL SUB DUP2 AND PUSH2 0x1291 JUMPI PUSH1 0x40 MLOAD PUSH4 0x1E4FBDF7 PUSH1 0xE0 SHL DUP2 MSTORE PUSH0 PUSH1 0x4 DUP3 ADD MSTORE PUSH1 0x24 ADD PUSH2 0x357 JUMP JUMPDEST PUSH2 0x4FF DUP2 PUSH2 0x17D8 JUMP JUMPDEST CALLER PUSH0 SWAP1 DUP2 MSTORE PUSH1 0x6 PUSH1 0x20 MSTORE PUSH1 0x40 SWAP1 KECCAK256 SLOAD PUSH1 0xFF AND ISZERO ISZERO PUSH1 0x1 EQ PUSH2 0x12CD JUMPI PUSH1 0x40 MLOAD PUSH3 0x461BCD PUSH1 0xE5 SHL DUP2 MSTORE PUSH1 0x4 ADD PUSH2 0x357 SWAP1 PUSH2 0x23B8 JUMP JUMPDEST PUSH1 0x5 DUP1 SLOAD PUSH1 0xFF NOT AND DUP3 ISZERO ISZERO SWAP1 DUP2 OR SWAP1 SWAP2 SSTORE PUSH1 0x40 MLOAD PUSH1 0xFF SWAP1 SWAP2 AND ISZERO ISZERO DUP2 MSTORE PUSH32 0x6FE9A4AB2E95E24B2BE44989DC36A685149DFDE9354D486A8DA5CB4BBD01B010 SWAP1 PUSH1 0x20 ADD PUSH1 0x40 MLOAD DUP1 SWAP2 SUB SWAP1 LOG1 POP JUMP JUMPDEST PUSH0 DUP2 DUP2 MSTORE PUSH1 0x7 PUSH1 0x20 MSTORE PUSH1 0x40 DUP2 KECCAK256 SLOAD PUSH1 0x1 PUSH1 0xA0 SHL SWAP1 DIV PUSH1 0xFF AND PUSH1 0x3 DUP2 GT ISZERO PUSH2 0x125A JUMPI PUSH2 0x125A PUSH2 0x21FC JUMP JUMPDEST PUSH1 0x2 PUSH0 SLOAD SUB PUSH2 0x1365 JUMPI PUSH1 0x40 MLOAD PUSH4 0x3EE5AEB5 PUSH1 0xE0 SHL DUP2 MSTORE PUSH1 0x4 ADD PUSH1 0x40 MLOAD DUP1 SWAP2 SUB SWAP1 REVERT JUMPDEST PUSH1 0x2 PUSH0 SSTORE JUMP JUMPDEST PUSH1 0x3 DUP1 SLOAD SWAP1 PUSH0 PUSH2 0x137A DUP4 PUSH2 0x24C8 JUMP JUMPDEST SWAP1 SWAP2 SSTORE POP POP PUSH1 0x3 DUP1 SLOAD PUSH0 SWAP1 DUP2 MSTORE PUSH1 0x7 PUSH1 0x20 MSTORE PUSH1 0x40 SWAP1 KECCAK256 DUP1 SLOAD PUSH1 0x1 PUSH1 0x1 PUSH1 0xA0 SHL SUB SWAP10 SWAP1 SWAP10 AND PUSH1 0x1 PUSH1 0x1 PUSH1 0xA8 SHL SUB NOT SWAP1 SWAP10 AND SWAP9 SWAP1 SWAP9 OR PUSH1 0x1 PUSH1 0xA0 SHL OR DUP9 SSTORE PUSH1 0x1 DUP9 ADD SWAP6 SWAP1 SWAP6 SSTORE PUSH1 0x2 DUP8 ADD SWAP4 SWAP1 SWAP4 SSTORE SWAP3 DUP6 ADD SSTORE PUSH1 0xA DUP5 ADD SWAP3 SWAP1 SWAP3 SSTORE PUSH1 0xC DUP4 ADD SSTORE PUSH1 0xD SWAP1 SWAP2 ADD DUP1 SLOAD PUSH1 0xFF NOT AND SWAP2 ISZERO ISZERO SWAP2 SWAP1 SWAP2 OR SWAP1 SSTORE JUMP JUMPDEST PUSH0 DUP4 DUP2 MSTORE PUSH1 0x7 PUSH1 0x20 MSTORE PUSH1 0x40 DUP2 KECCAK256 PUSH1 0xA ADD SLOAD PUSH2 0x1409 SWAP1 DUP4 SWAP1 PUSH2 0x24B1 JUMP JUMPDEST PUSH0 DUP6 DUP2 MSTORE PUSH1 0x7 PUSH1 0x20 MSTORE PUSH1 0x40 SWAP1 KECCAK256 SLOAD SWAP1 SWAP2 POP PUSH2 0x142F SWAP1 PUSH1 0x1 PUSH1 0x1 PUSH1 0xA0 SHL SUB AND DUP5 ADDRESS DUP5 PUSH2 0x1D08 JUMP JUMPDEST PUSH1 0x3 SLOAD PUSH0 SWAP1 DUP2 MSTORE PUSH1 0x7 PUSH1 0x20 MSTORE PUSH1 0x40 DUP2 KECCAK256 PUSH1 0x6 ADD DUP1 SLOAD DUP5 SWAP3 SWAP1 PUSH2 0x1452 SWAP1 DUP5 SWAP1 PUSH2 0x249E JUMP JUMPDEST SWAP1 SWAP2 SSTORE POP POP PUSH1 0x3 SLOAD PUSH0 SWAP1 DUP2 MSTORE PUSH1 0xE PUSH1 0x20 SWAP1 DUP2 MSTORE PUSH1 0x40 DUP1 DUP4 KECCAK256 PUSH1 0x1 PUSH1 0x1 PUSH1 0xA0 SHL SUB DUP8 AND DUP5 MSTORE SWAP1 SWAP2 MSTORE DUP2 KECCAK256 SLOAD SWAP1 SUB PUSH2 0x14E9 JUMPI PUSH1 0x3 DUP1 SLOAD PUSH0 SWAP1 DUP2 MSTORE PUSH1 0xD PUSH1 0x20 SWAP1 DUP2 MSTORE PUSH1 0x40 DUP1 DUP4 KECCAK256 PUSH1 0x7 DUP1 DUP5 MSTORE DUP3 DUP6 KECCAK256 PUSH1 0x9 SWAP1 DUP2 ADD SLOAD DUP7 MSTORE SWAP2 DUP5 MSTORE DUP3 DUP6 KECCAK256 DUP1 SLOAD PUSH1 0x1 PUSH1 0x1 PUSH1 0xA0 SHL SUB NOT AND PUSH1 0x1 PUSH1 0x1 PUSH1 0xA0 SHL SUB DUP12 AND OR SWAP1 SSTORE SWAP5 SLOAD DUP5 MSTORE SWAP4 SWAP1 SWAP2 MSTORE DUP2 KECCAK256 SWAP1 SWAP2 ADD DUP1 SLOAD PUSH1 0x1 SWAP3 SWAP1 PUSH2 0x14E3 SWAP1 DUP5 SWAP1 PUSH2 0x249E JUMP JUMPDEST SWAP1 SWAP2 SSTORE POP POP JUMPDEST PUSH1 0x3 SLOAD PUSH0 SWAP1 DUP2 MSTORE PUSH1 0xE PUSH1 0x20 SWAP1 DUP2 MSTORE PUSH1 0x40 DUP1 DUP4 KECCAK256 PUSH1 0x1 PUSH1 0x1 PUSH1 0xA0 SHL SUB DUP8 AND DUP5 MSTORE SWAP1 SWAP2 MSTORE DUP2 KECCAK256 DUP1 SLOAD DUP5 SWAP3 SWAP1 PUSH2 0x151D SWAP1 DUP5 SWAP1 PUSH2 0x249E JUMP JUMPDEST SWAP1 SWAP2 SSTORE POP POP PUSH1 0x3 SLOAD PUSH1 0x40 MLOAD DUP4 DUP2 MSTORE PUSH1 0x1 PUSH1 0x1 PUSH1 0xA0 SHL SUB DUP6 AND SWAP2 SWAP1 PUSH32 0xA95519638524DCEA0D5D0102C719D77DC3D8B1AE68D2D1E37C79BE21BC7B113B SWAP1 PUSH1 0x20 ADD PUSH1 0x40 MLOAD DUP1 SWAP2 SUB SWAP1 LOG3 POP POP POP POP JUMP JUMPDEST PUSH0 DUP5 DUP2 MSTORE PUSH1 0x7 PUSH1 0x20 MSTORE PUSH1 0x40 DUP2 KECCAK256 PUSH1 0x8 ADD SLOAD DUP2 SWAP1 ISZERO PUSH2 0x15BF JUMPI PUSH0 DUP7 DUP2 MSTORE PUSH1 0x8 PUSH1 0x20 DUP2 DUP2 MSTORE PUSH1 0x40 DUP1 DUP5 KECCAK256 PUSH1 0x7 SWAP1 SWAP3 MSTORE DUP4 KECCAK256 SWAP1 SWAP2 ADD SLOAD SWAP1 SWAP2 SWAP1 PUSH2 0x15AC SWAP1 PUSH1 0x1 SWAP1 PUSH2 0x24E0 JUMP JUMPDEST DUP2 MSTORE PUSH1 0x20 ADD SWAP1 DUP2 MSTORE PUSH1 0x20 ADD PUSH0 KECCAK256 PUSH0 ADD SLOAD SWAP1 POP JUMPDEST PUSH1 0x40 MLOAD DUP1 PUSH1 0x60 ADD PUSH1 0x40 MSTORE DUP1 DUP6 DUP4 PUSH2 0x15D6 SWAP2 SWAP1 PUSH2 0x249E JUMP JUMPDEST DUP2 MSTORE PUSH1 0x1 PUSH1 0x1 PUSH1 0xA0 SHL SUB DUP1 DUP9 AND PUSH1 0x20 DUP1 DUP5 ADD SWAP2 SWAP1 SWAP2 MSTORE DUP7 ISZERO DUP1 ISZERO PUSH1 0x40 SWAP5 DUP6 ADD MSTORE PUSH0 DUP12 DUP2 MSTORE PUSH1 0x8 DUP1 DUP5 MSTORE DUP6 DUP3 KECCAK256 PUSH1 0x7 DUP6 MSTORE DUP7 DUP4 KECCAK256 SWAP1 SWAP2 ADD SLOAD DUP3 MSTORE DUP4 MSTORE DUP5 SWAP1 KECCAK256 DUP6 MLOAD DUP2 SSTORE SWAP2 DUP6 ADD MLOAD PUSH1 0x1 SWAP1 SWAP3 ADD DUP1 SLOAD SWAP6 SWAP1 SWAP5 ADD MLOAD ISZERO ISZERO PUSH1 0x1 PUSH1 0xA0 SHL MUL PUSH1 0x1 PUSH1 0x1 PUSH1 0xA8 SHL SUB NOT SWAP1 SWAP6 AND SWAP2 SWAP1 SWAP3 AND OR SWAP3 SWAP1 SWAP3 OR SWAP1 SSTORE PUSH2 0x167D JUMPI PUSH0 DUP7 DUP2 MSTORE PUSH1 0x7 PUSH1 0x20 MSTORE PUSH1 0x40 SWAP1 KECCAK256 PUSH1 0x4 ADD SLOAD PUSH2 0x1667 SWAP1 DUP6 SWAP1 PUSH2 0x249E JUMP JUMPDEST PUSH0 DUP8 DUP2 MSTORE PUSH1 0x7 PUSH1 0x20 MSTORE PUSH1 0x40 SWAP1 KECCAK256 PUSH1 0x4 ADD SSTORE PUSH2 0x16AB JUMP JUMPDEST PUSH0 DUP7 DUP2 MSTORE PUSH1 0x7 PUSH1 0x20 MSTORE PUSH1 0x40 SWAP1 KECCAK256 PUSH1 0x5 ADD SLOAD PUSH2 0x1699 SWAP1 DUP6 SWAP1 PUSH2 0x249E JUMP JUMPDEST PUSH0 DUP8 DUP2 MSTORE PUSH1 0x7 PUSH1 0x20 MSTORE PUSH1 0x40 SWAP1 KECCAK256 PUSH1 0x5 ADD SSTORE JUMPDEST PUSH0 DUP7 DUP2 MSTORE PUSH1 0xA PUSH1 0x20 SWAP1 DUP2 MSTORE PUSH1 0x40 DUP1 DUP4 KECCAK256 PUSH1 0x1 PUSH1 0x1 PUSH1 0xA0 SHL SUB DUP10 AND DUP5 MSTORE SWAP1 SWAP2 MSTORE DUP2 KECCAK256 SLOAD SWAP1 SUB PUSH2 0x172C JUMPI PUSH0 DUP7 DUP2 MSTORE PUSH1 0xB PUSH1 0x20 SWAP1 DUP2 MSTORE PUSH1 0x40 DUP1 DUP4 KECCAK256 PUSH1 0x7 DUP1 DUP5 MSTORE DUP3 DUP6 KECCAK256 DUP2 ADD DUP1 SLOAD DUP7 MSTORE SWAP2 DUP5 MSTORE SWAP2 DUP5 KECCAK256 DUP1 SLOAD PUSH1 0x1 PUSH1 0x1 PUSH1 0xA0 SHL SUB NOT AND PUSH1 0x1 PUSH1 0x1 PUSH1 0xA0 SHL SUB DUP12 AND OR SWAP1 SSTORE DUP10 DUP5 MSTORE SWAP2 MSTORE DUP1 SLOAD PUSH1 0x1 SWAP3 SWAP1 PUSH2 0x1726 SWAP1 DUP5 SWAP1 PUSH2 0x249E JUMP JUMPDEST SWAP1 SWAP2 SSTORE POP POP JUMPDEST PUSH0 DUP7 DUP2 MSTORE PUSH1 0x7 PUSH1 0x20 MSTORE PUSH1 0x40 DUP2 KECCAK256 PUSH1 0x8 ADD DUP1 SLOAD PUSH1 0x1 SWAP3 SWAP1 PUSH2 0x174D SWAP1 DUP5 SWAP1 PUSH2 0x249E JUMP JUMPDEST SWAP1 SWAP2 SSTORE POP POP PUSH0 DUP7 DUP2 MSTORE PUSH1 0xA PUSH1 0x20 SWAP1 DUP2 MSTORE PUSH1 0x40 DUP1 DUP4 KECCAK256 PUSH1 0x1 PUSH1 0x1 PUSH1 0xA0 SHL SUB DUP10 AND DUP5 MSTORE SWAP1 SWAP2 MSTORE SWAP1 KECCAK256 SLOAD PUSH2 0x177F SWAP1 DUP6 SWAP1 PUSH2 0x249E JUMP JUMPDEST PUSH0 DUP8 DUP2 MSTORE PUSH1 0xA PUSH1 0x20 SWAP1 DUP2 MSTORE PUSH1 0x40 DUP1 DUP4 KECCAK256 PUSH1 0x1 PUSH1 0x1 PUSH1 0xA0 SHL SUB DUP11 AND DUP5 MSTORE SWAP1 SWAP2 MSTORE SWAP1 KECCAK256 SSTORE SWAP1 POP SWAP5 SWAP4 POP POP POP POP JUMP JUMPDEST PUSH1 0x1 SLOAD PUSH1 0x1 PUSH1 0x1 PUSH1 0xA0 SHL SUB AND CALLER EQ PUSH2 0x989 JUMPI PUSH1 0x40 MLOAD PUSH4 0x118CDAA7 PUSH1 0xE0 SHL DUP2 MSTORE CALLER PUSH1 0x4 DUP3 ADD MSTORE PUSH1 0x24 ADD PUSH2 0x357 JUMP JUMPDEST PUSH1 0x1 DUP1 SLOAD PUSH1 0x1 PUSH1 0x1 PUSH1 0xA0 SHL SUB DUP4 DUP2 AND PUSH1 0x1 PUSH1 0x1 PUSH1 0xA0 SHL SUB NOT DUP4 AND DUP2 OR SWAP1 SWAP4 SSTORE PUSH1 0x40 MLOAD SWAP2 AND SWAP2 SWAP1 DUP3 SWAP1 PUSH32 0x8BE0079C531659141344CD1FD0A4F28419497F9722A3DAAFE3B4186F6B6457E0 SWAP1 PUSH0 SWAP1 LOG3 POP POP JUMP JUMPDEST PUSH0 JUMPDEST PUSH0 DUP3 DUP2 MSTORE PUSH1 0x7 PUSH1 0x20 MSTORE PUSH1 0x40 SWAP1 KECCAK256 PUSH1 0x9 ADD SLOAD DUP2 LT ISZERO PUSH2 0x6DD JUMPI PUSH0 DUP3 DUP2 MSTORE PUSH1 0xE PUSH1 0x20 SWAP1 DUP2 MSTORE PUSH1 0x40 DUP1 DUP4 KECCAK256 PUSH1 0xD DUP4 MSTORE DUP2 DUP5 KECCAK256 DUP6 DUP6 MSTORE DUP4 MSTORE DUP2 DUP5 KECCAK256 SLOAD PUSH1 0x1 PUSH1 0x1 PUSH1 0xA0 SHL SUB AND DUP5 MSTORE DUP3 MSTORE DUP1 DUP4 KECCAK256 SLOAD DUP6 DUP5 MSTORE PUSH1 0x7 SWAP1 SWAP3 MSTORE DUP3 KECCAK256 PUSH1 0xA ADD SLOAD PUSH2 0x188C SWAP2 SWAP1 PUSH2 0x24B1 JUMP JUMPDEST PUSH0 DUP5 DUP2 MSTORE PUSH1 0xD PUSH1 0x20 SWAP1 DUP2 MSTORE PUSH1 0x40 DUP1 DUP4 KECCAK256 DUP7 DUP5 MSTORE DUP3 MSTORE DUP1 DUP4 KECCAK256 SLOAD DUP8 DUP5 MSTORE PUSH1 0x7 SWAP1 SWAP3 MSTORE SWAP1 SWAP2 KECCAK256 SLOAD SWAP2 SWAP3 POP PUSH2 0x18CB SWAP2 PUSH1 0x1 PUSH1 0x1 PUSH1 0xA0 SHL SUB SWAP1 DUP2 AND SWAP2 AND DUP4 PUSH2 0x1D6F JUMP JUMPDEST POP PUSH1 0x1 ADD PUSH2 0x182B JUMP JUMPDEST PUSH1 0x60 PUSH0 DUP4 PUSH8 0xFFFFFFFFFFFFFFFF DUP2 GT ISZERO PUSH2 0x18F0 JUMPI PUSH2 0x18F0 PUSH2 0x24F3 JUMP JUMPDEST PUSH1 0x40 MLOAD SWAP1 DUP1 DUP3 MSTORE DUP1 PUSH1 0x20 MUL PUSH1 0x20 ADD DUP3 ADD PUSH1 0x40 MSTORE DUP1 ISZERO PUSH2 0x1919 JUMPI DUP2 PUSH1 0x20 ADD PUSH1 0x20 DUP3 MUL DUP1 CALLDATASIZE DUP4 CALLDATACOPY ADD SWAP1 POP JUMPDEST POP SWAP1 POP DUP5 PUSH0 JUMPDEST PUSH2 0x192A PUSH1 0x1 DUP8 PUSH2 0x24E0 JUMP JUMPDEST DUP2 LT ISZERO PUSH2 0x19FF JUMPI PUSH2 0x193B DUP3 DUP3 PUSH2 0x1DA0 JUMP JUMPDEST SWAP2 POP PUSH0 PUSH2 0x1948 DUP7 DUP5 PUSH2 0x251B JUMP JUMPDEST SWAP1 POP DUP2 JUMPDEST PUSH1 0x1 DUP2 LT ISZERO DUP1 ISZERO PUSH2 0x197F JUMPI POP DUP5 PUSH2 0x1964 PUSH1 0x1 DUP4 PUSH2 0x24E0 JUMP JUMPDEST DUP2 MLOAD DUP2 LT PUSH2 0x1974 JUMPI PUSH2 0x1974 PUSH2 0x252E JUMP JUMPDEST PUSH1 0x20 MUL PUSH1 0x20 ADD ADD MLOAD DUP3 LT JUMPDEST ISZERO PUSH2 0x19D7 JUMPI DUP5 PUSH2 0x1990 PUSH1 0x1 DUP4 PUSH2 0x24E0 JUMP JUMPDEST DUP2 MLOAD DUP2 LT PUSH2 0x19A0 JUMPI PUSH2 0x19A0 PUSH2 0x252E JUMP JUMPDEST PUSH1 0x20 MUL PUSH1 0x20 ADD ADD MLOAD DUP6 DUP3 DUP2 MLOAD DUP2 LT PUSH2 0x19BA JUMPI PUSH2 0x19BA PUSH2 0x252E JUMP JUMPDEST PUSH1 0x20 SWAP1 DUP2 MUL SWAP2 SWAP1 SWAP2 ADD ADD MSTORE DUP1 PUSH2 0x19CF DUP2 PUSH2 0x2542 JUMP JUMPDEST SWAP2 POP POP PUSH2 0x194C JUMP JUMPDEST DUP2 DUP6 DUP3 DUP2 MLOAD DUP2 LT PUSH2 0x19EA JUMPI PUSH2 0x19EA PUSH2 0x252E JUMP JUMPDEST PUSH1 0x20 SWAP1 DUP2 MUL SWAP2 SWAP1 SWAP2 ADD ADD MSTORE POP POP PUSH1 0x1 ADD PUSH2 0x191F JUMP JUMPDEST POP DUP4 DUP3 PUSH2 0x1A0D PUSH1 0x1 DUP9 PUSH2 0x24E0 JUMP JUMPDEST DUP2 MLOAD DUP2 LT PUSH2 0x1A1D JUMPI PUSH2 0x1A1D PUSH2 0x252E JUMP JUMPDEST PUSH1 0x20 SWAP1 DUP2 MUL SWAP2 SWAP1 SWAP2 ADD ADD MSTORE POP SWAP1 POP JUMPDEST SWAP4 SWAP3 POP POP POP JUMP JUMPDEST PUSH0 DUP4 DUP2 MSTORE PUSH1 0x7 PUSH1 0x20 MSTORE PUSH1 0x40 DUP2 KECCAK256 PUSH1 0x5 DUP2 ADD SLOAD PUSH1 0x4 SWAP1 SWAP2 ADD SLOAD DUP3 SWAP2 PUSH2 0x1A56 SWAP2 PUSH2 0x249E JUMP JUMPDEST SWAP1 POP PUSH0 JUMPDEST DUP5 DUP2 LT ISZERO PUSH2 0x1BEE JUMPI PUSH0 DUP4 DUP6 DUP4 DUP2 MLOAD DUP2 LT PUSH2 0x1A76 JUMPI PUSH2 0x1A76 PUSH2 0x252E JUMP JUMPDEST PUSH1 0x20 MUL PUSH1 0x20 ADD ADD MLOAD PUSH2 0x1A88 SWAP2 SWAP1 PUSH2 0x24E0 JUMP JUMPDEST SWAP1 POP DUP2 DUP7 DUP5 EQ PUSH2 0x1B00 JUMPI DUP4 PUSH2 0x1AB6 DUP8 DUP6 DUP2 MLOAD DUP2 LT PUSH2 0x1AA8 JUMPI PUSH2 0x1AA8 PUSH2 0x252E JUMP JUMPDEST PUSH1 0x20 MUL PUSH1 0x20 ADD ADD MLOAD DUP6 PUSH2 0x1DA0 JUMP JUMPDEST PUSH2 0x1AC0 SWAP2 SWAP1 PUSH2 0x251B JUMP JUMPDEST SWAP1 POP JUMPDEST PUSH0 DUP9 DUP2 MSTORE PUSH1 0x9 PUSH1 0x20 SWAP1 DUP2 MSTORE PUSH1 0x40 DUP1 DUP4 KECCAK256 DUP5 DUP5 MSTORE SWAP1 SWAP2 MSTORE SWAP1 KECCAK256 SLOAD PUSH1 0xFF AND ISZERO PUSH2 0x1B00 JUMPI DUP1 PUSH2 0x1AEE DUP2 PUSH2 0x24C8 JUMP JUMPDEST SWAP2 POP POP DUP4 DUP2 SUB PUSH2 0x1AFB JUMPI POP PUSH0 JUMPDEST PUSH2 0x1AC3 JUMP JUMPDEST PUSH0 DUP9 DUP2 MSTORE PUSH1 0x9 PUSH1 0x20 SWAP1 DUP2 MSTORE PUSH1 0x40 DUP1 DUP4 KECCAK256 DUP5 DUP5 MSTORE SWAP1 SWAP2 MSTORE DUP2 KECCAK256 DUP1 SLOAD PUSH1 0xFF NOT AND PUSH1 0x1 OR SWAP1 SSTORE PUSH2 0x1B2D DUP10 DUP4 PUSH2 0x1DED JUMP JUMPDEST PUSH1 0x1 DUP2 ADD SLOAD PUSH0 DUP12 DUP2 MSTORE PUSH1 0x7 PUSH1 0x20 SWAP1 DUP2 MSTORE PUSH1 0x40 SWAP2 DUP3 SWAP1 KECCAK256 PUSH1 0xD ADD SLOAD DUP3 MLOAD DUP9 DUP2 MSTORE PUSH1 0xFF SWAP1 SWAP2 AND ISZERO ISZERO SWAP2 DUP2 ADD SWAP2 SWAP1 SWAP2 MSTORE SWAP3 SWAP4 POP DUP5 SWAP3 PUSH1 0x1 PUSH1 0x1 PUSH1 0xA0 SHL SUB SWAP1 SWAP3 AND SWAP2 DUP13 SWAP2 PUSH32 0x927546E38B674F5E5DFF7EDCE9C7AFDCF21A35AC03BA70FE8E341F61F2C73DED SWAP2 ADD PUSH1 0x40 MLOAD DUP1 SWAP2 SUB SWAP1 LOG4 PUSH0 DUP10 DUP2 MSTORE PUSH1 0xC PUSH1 0x20 SWAP1 DUP2 MSTORE PUSH1 0x40 DUP1 DUP4 KECCAK256 PUSH1 0x1 DUP6 ADD SLOAD PUSH1 0x1 PUSH1 0x1 PUSH1 0xA0 SHL SUB AND DUP5 MSTORE SWAP1 SWAP2 MSTORE DUP2 KECCAK256 DUP1 SLOAD DUP6 SWAP3 SWAP1 PUSH2 0x1BCD SWAP1 DUP5 SWAP1 PUSH2 0x249E JUMP JUMPDEST SWAP1 SWAP2 SSTORE POP PUSH2 0x1BDD SWAP1 POP DUP4 DUP8 PUSH2 0x249E JUMP JUMPDEST SWAP6 POP POP PUSH1 0x1 SWAP1 SWAP3 ADD SWAP2 POP PUSH2 0x1A5A SWAP1 POP JUMP JUMPDEST POP POP POP POP POP POP JUMP JUMPDEST PUSH0 DUP3 DUP2 MSTORE PUSH1 0xC PUSH1 0x20 SWAP1 DUP2 MSTORE PUSH1 0x40 DUP1 DUP4 KECCAK256 PUSH1 0x1 PUSH1 0x1 PUSH1 0xA0 SHL SUB DUP6 AND DUP5 MSTORE SWAP1 SWAP2 MSTORE DUP2 KECCAK256 SLOAD SWAP1 SUB PUSH2 0x1C51 JUMPI PUSH1 0x40 MLOAD PUSH3 0x461BCD PUSH1 0xE5 SHL DUP2 MSTORE PUSH1 0x20 PUSH1 0x4 DUP3 ADD MSTORE PUSH1 0x8 PUSH1 0x24 DUP3 ADD MSTORE PUSH8 0x6E6F207072697A65 PUSH1 0xC0 SHL PUSH1 0x44 DUP3 ADD MSTORE PUSH1 0x64 ADD PUSH2 0x357 JUMP JUMPDEST PUSH0 DUP3 DUP2 MSTORE PUSH1 0xC PUSH1 0x20 SWAP1 DUP2 MSTORE PUSH1 0x40 DUP1 DUP4 KECCAK256 PUSH1 0x1 PUSH1 0x1 PUSH1 0xA0 SHL SUB DUP1 DUP7 AND DUP6 MSTORE SWAP1 DUP4 MSTORE DUP2 DUP5 KECCAK256 SLOAD DUP7 DUP6 MSTORE PUSH1 0x7 SWAP1 SWAP4 MSTORE SWAP3 KECCAK256 SLOAD SWAP1 SWAP2 PUSH2 0x1C8E SWAP2 AND DUP4 DUP4 PUSH2 0x1D6F JUMP JUMPDEST PUSH0 DUP4 DUP2 MSTORE PUSH1 0xC PUSH1 0x20 SWAP1 DUP2 MSTORE PUSH1 0x40 DUP1 DUP4 KECCAK256 PUSH1 0x1 PUSH1 0x1 PUSH1 0xA0 SHL SUB DUP7 AND DUP1 DUP6 MSTORE SWAP1 DUP4 MSTORE DUP2 DUP5 KECCAK256 DUP5 SWAP1 SSTORE DUP7 DUP5 MSTORE PUSH1 0x7 DUP4 MSTORE SWAP3 DUP2 SWAP1 KECCAK256 PUSH1 0xD ADD SLOAD DUP2 MLOAD DUP6 DUP2 MSTORE PUSH1 0xFF SWAP1 SWAP2 AND ISZERO ISZERO SWAP3 DUP2 ADD SWAP3 SWAP1 SWAP3 MSTORE DUP6 SWAP2 PUSH32 0x268EF67ED0490CC273925A4865E6FBDB4DCF7E0802AAD957AA682A78C7618BEF SWAP2 ADD PUSH1 0x40 MLOAD DUP1 SWAP2 SUB SWAP1 LOG3 POP POP POP JUMP JUMPDEST PUSH1 0x40 MLOAD PUSH1 0x1 PUSH1 0x1 PUSH1 0xA0 SHL SUB DUP5 DUP2 AND PUSH1 0x24 DUP4 ADD MSTORE DUP4 DUP2 AND PUSH1 0x44 DUP4 ADD MSTORE PUSH1 0x64 DUP3 ADD DUP4 SWAP1 MSTORE PUSH2 0x3F4 SWAP2 DUP7 SWAP2 DUP3 AND SWAP1 PUSH4 0x23B872DD SWAP1 PUSH1 0x84 ADD JUMPDEST PUSH1 0x40 MLOAD PUSH1 0x20 DUP2 DUP4 SUB SUB DUP2 MSTORE SWAP1 PUSH1 0x40 MSTORE SWAP2 POP PUSH1 0xE0 SHL PUSH1 0x20 DUP3 ADD DUP1 MLOAD PUSH1 0x1 PUSH1 0x1 PUSH1 0xE0 SHL SUB DUP4 DUP2 DUP4 AND OR DUP4 MSTORE POP POP POP POP PUSH2 0x1F27 JUMP JUMPDEST PUSH1 0x40 MLOAD PUSH1 0x1 PUSH1 0x1 PUSH1 0xA0 SHL SUB DUP4 DUP2 AND PUSH1 0x24 DUP4 ADD MSTORE PUSH1 0x44 DUP3 ADD DUP4 SWAP1 MSTORE PUSH2 0x973 SWAP2 DUP6 SWAP2 DUP3 AND SWAP1 PUSH4 0xA9059CBB SWAP1 PUSH1 0x64 ADD PUSH2 0x1D3D JUMP JUMPDEST PUSH0 DUP1 PUSH2 0x1DAE PUSH2 0x100 DUP5 PUSH2 0x251B JUMP JUMPDEST SWAP1 POP DUP4 PUSH2 0x1DBB DUP6 DUP4 PUSH2 0x1F88 JUMP JUMPDEST PUSH1 0x40 DUP1 MLOAD PUSH1 0x20 DUP2 ADD SWAP4 SWAP1 SWAP4 MSTORE DUP3 ADD MSTORE PUSH1 0x60 ADD PUSH1 0x40 DUP1 MLOAD PUSH1 0x1F NOT DUP2 DUP5 SUB ADD DUP2 MSTORE SWAP2 SWAP1 MSTORE DUP1 MLOAD PUSH1 0x20 SWAP1 SWAP2 ADD KECCAK256 SWAP5 SWAP4 POP POP POP POP JUMP JUMPDEST PUSH0 DUP3 DUP2 MSTORE PUSH1 0x8 PUSH1 0x20 DUP2 DUP2 MSTORE PUSH1 0x40 DUP1 DUP5 KECCAK256 PUSH1 0x7 SWAP1 SWAP3 MSTORE DUP4 KECCAK256 SWAP1 SWAP2 ADD SLOAD DUP4 SWAP2 SWAP1 DUP4 SWAP1 PUSH2 0x1E19 SWAP1 PUSH1 0x1 SWAP1 PUSH2 0x24E0 JUMP JUMPDEST DUP2 MSTORE PUSH1 0x20 ADD SWAP1 DUP2 MSTORE PUSH1 0x20 ADD PUSH0 KECCAK256 PUSH0 ADD SLOAD GT PUSH2 0x1E68 JUMPI PUSH1 0x40 MLOAD PUSH3 0x461BCD PUSH1 0xE5 SHL DUP2 MSTORE PUSH1 0x20 PUSH1 0x4 DUP3 ADD MSTORE PUSH1 0xF PUSH1 0x24 DUP3 ADD MSTORE PUSH15 0x696E646578206F75742072616E6765 PUSH1 0x88 SHL PUSH1 0x44 DUP3 ADD MSTORE PUSH1 0x64 ADD PUSH2 0x357 JUMP JUMPDEST PUSH0 DUP4 DUP2 MSTORE PUSH1 0x7 PUSH1 0x20 MSTORE PUSH1 0x40 DUP2 KECCAK256 PUSH1 0x8 ADD SLOAD DUP2 SWAP1 PUSH2 0x1E87 SWAP1 PUSH1 0x1 SWAP1 PUSH2 0x24E0 JUMP JUMPDEST SWAP1 POP JUMPDEST PUSH0 PUSH1 0x2 PUSH2 0x1E97 DUP4 DUP6 PUSH2 0x249E JUMP JUMPDEST PUSH2 0x1EA1 SWAP2 SWAP1 PUSH2 0x2557 JUMP JUMPDEST PUSH0 DUP8 DUP2 MSTORE PUSH1 0x8 PUSH1 0x20 SWAP1 DUP2 MSTORE PUSH1 0x40 DUP1 DUP4 KECCAK256 DUP5 DUP5 MSTORE SWAP1 SWAP2 MSTORE SWAP1 KECCAK256 SLOAD SWAP1 SWAP2 POP DUP6 LT ISZERO PUSH2 0x1ECC JUMPI DUP1 SWAP2 POP PUSH2 0x1EF9 JUMP JUMPDEST PUSH0 DUP7 DUP2 MSTORE PUSH1 0x8 PUSH1 0x20 SWAP1 DUP2 MSTORE PUSH1 0x40 DUP1 DUP4 KECCAK256 DUP5 DUP5 MSTORE SWAP1 SWAP2 MSTORE SWAP1 KECCAK256 SLOAD DUP6 LT PUSH2 0x1EF9 JUMPI PUSH2 0x1EF6 DUP2 PUSH1 0x1 PUSH2 0x249E JUMP JUMPDEST SWAP3 POP JUMPDEST DUP2 DUP4 LT PUSH2 0x1F21 JUMPI POP PUSH0 DUP6 DUP2 MSTORE PUSH1 0x8 PUSH1 0x20 SWAP1 DUP2 MSTORE PUSH1 0x40 DUP1 DUP4 KECCAK256 SWAP4 DUP4 MSTORE SWAP3 SWAP1 MSTORE KECCAK256 SWAP2 POP PUSH2 0x125A SWAP1 POP JUMP JUMPDEST POP PUSH2 0x1E8A JUMP JUMPDEST PUSH0 PUSH2 0x1F3B PUSH1 0x1 PUSH1 0x1 PUSH1 0xA0 SHL SUB DUP5 AND DUP4 PUSH2 0x1FAC JUMP JUMPDEST SWAP1 POP DUP1 MLOAD PUSH0 EQ ISZERO DUP1 ISZERO PUSH2 0x1F5F JUMPI POP DUP1 DUP1 PUSH1 0x20 ADD SWAP1 MLOAD DUP2 ADD SWAP1 PUSH2 0x1F5D SWAP2 SWAP1 PUSH2 0x256A JUMP JUMPDEST ISZERO JUMPDEST ISZERO PUSH2 0x973 JUMPI PUSH1 0x40 MLOAD PUSH4 0x5274AFE7 PUSH1 0xE0 SHL DUP2 MSTORE PUSH1 0x1 PUSH1 0x1 PUSH1 0xA0 SHL SUB DUP5 AND PUSH1 0x4 DUP3 ADD MSTORE PUSH1 0x24 ADD PUSH2 0x357 JUMP JUMPDEST PUSH0 PUSH2 0x1F95 DUP3 PUSH2 0x100 PUSH2 0x2585 JUMP JUMPDEST PUSH4 0xFFFFFFFF SWAP3 DUP4 AND DUP5 SWAP1 SHL SWAP3 AND SWAP3 SWAP1 SWAP3 SHR OR SWAP2 SWAP1 POP JUMP JUMPDEST PUSH1 0x60 PUSH2 0x1A2C DUP4 DUP4 PUSH0 DUP5 PUSH0 DUP1 DUP6 PUSH1 0x1 PUSH1 0x1 PUSH1 0xA0 SHL SUB AND DUP5 DUP7 PUSH1 0x40 MLOAD PUSH2 0x1FD0 SWAP2 SWAP1 PUSH2 0x25A9 JUMP JUMPDEST PUSH0 PUSH1 0x40 MLOAD DUP1 DUP4 SUB DUP2 DUP6 DUP8 GAS CALL SWAP3 POP POP POP RETURNDATASIZE DUP1 PUSH0 DUP2 EQ PUSH2 0x200A JUMPI PUSH1 0x40 MLOAD SWAP2 POP PUSH1 0x1F NOT PUSH1 0x3F RETURNDATASIZE ADD AND DUP3 ADD PUSH1 0x40 MSTORE RETURNDATASIZE DUP3 MSTORE RETURNDATASIZE PUSH0 PUSH1 0x20 DUP5 ADD RETURNDATACOPY PUSH2 0x200F JUMP JUMPDEST PUSH1 0x60 SWAP2 POP JUMPDEST POP SWAP2 POP SWAP2 POP PUSH2 0x201F DUP7 DUP4 DUP4 PUSH2 0x2029 JUMP JUMPDEST SWAP7 SWAP6 POP POP POP POP POP POP JUMP JUMPDEST PUSH1 0x60 DUP3 PUSH2 0x203E JUMPI PUSH2 0x2039 DUP3 PUSH2 0x2085 JUMP JUMPDEST PUSH2 0x1A2C JUMP JUMPDEST DUP2 MLOAD ISZERO DUP1 ISZERO PUSH2 0x2055 JUMPI POP PUSH1 0x1 PUSH1 0x1 PUSH1 0xA0 SHL SUB DUP5 AND EXTCODESIZE ISZERO JUMPDEST ISZERO PUSH2 0x207E JUMPI PUSH1 0x40 MLOAD PUSH4 0x9996B315 PUSH1 0xE0 SHL DUP2 MSTORE PUSH1 0x1 PUSH1 0x1 PUSH1 0xA0 SHL SUB DUP6 AND PUSH1 0x4 DUP3 ADD MSTORE PUSH1 0x24 ADD PUSH2 0x357 JUMP JUMPDEST POP DUP1 PUSH2 0x1A2C JUMP JUMPDEST DUP1 MLOAD ISZERO PUSH2 0x2095 JUMPI DUP1 MLOAD DUP1 DUP3 PUSH1 0x20 ADD REVERT JUMPDEST PUSH1 0x40 MLOAD PUSH4 0xA12F521 PUSH1 0xE1 SHL DUP2 MSTORE PUSH1 0x4 ADD PUSH1 0x40 MLOAD DUP1 SWAP2 SUB SWAP1 REVERT JUMPDEST PUSH0 DUP1 PUSH0 DUP1 PUSH1 0x80 DUP6 DUP8 SUB SLT ISZERO PUSH2 0x20C1 JUMPI PUSH0 DUP1 REVERT JUMPDEST POP POP DUP3 CALLDATALOAD SWAP5 PUSH1 0x20 DUP5 ADD CALLDATALOAD SWAP5 POP PUSH1 0x40 DUP5 ADD CALLDATALOAD SWAP4 PUSH1 0x60 ADD CALLDATALOAD SWAP3 POP SWAP1 POP JUMP JUMPDEST PUSH0 PUSH1 0x20 DUP3 DUP5 SUB SLT ISZERO PUSH2 0x20ED JUMPI PUSH0 DUP1 REVERT JUMPDEST POP CALLDATALOAD SWAP2 SWAP1 POP JUMP JUMPDEST DUP1 CALLDATALOAD PUSH1 0x1 PUSH1 0x1 PUSH1 0xA0 SHL SUB DUP2 AND DUP2 EQ PUSH2 0x210A JUMPI PUSH0 DUP1 REVERT JUMPDEST SWAP2 SWAP1 POP JUMP JUMPDEST DUP1 ISZERO ISZERO DUP2 EQ PUSH2 0x4FF JUMPI PUSH0 DUP1 REVERT JUMPDEST PUSH0 DUP1 PUSH0 DUP1 PUSH0 DUP1 PUSH0 DUP1 PUSH0 DUP1 PUSH2 0x140 DUP12 DUP14 SUB SLT ISZERO PUSH2 0x2136 JUMPI PUSH0 DUP1 REVERT JUMPDEST PUSH2 0x213F DUP12 PUSH2 0x20F4 JUMP JUMPDEST SWAP10 POP PUSH1 0x20 DUP12 ADD CALLDATALOAD SWAP9 POP PUSH1 0x40 DUP12 ADD CALLDATALOAD SWAP8 POP PUSH1 0x60 DUP12 ADD CALLDATALOAD SWAP7 POP PUSH1 0x80 DUP12 ADD CALLDATALOAD SWAP6 POP PUSH2 0x2169 PUSH1 0xA0 DUP13 ADD PUSH2 0x20F4 JUMP JUMPDEST SWAP5 POP PUSH1 0xC0 DUP12 ADD CALLDATALOAD SWAP4 POP PUSH2 0x217E PUSH1 0xE0 DUP13 ADD PUSH2 0x20F4 JUMP JUMPDEST SWAP3 POP PUSH2 0x100 DUP12 ADD CALLDATALOAD SWAP2 POP PUSH2 0x120 DUP12 ADD CALLDATALOAD PUSH2 0x2197 DUP2 PUSH2 0x210F JUMP JUMPDEST DUP1 SWAP2 POP POP SWAP3 SWAP6 SWAP9 SWAP12 SWAP2 SWAP5 SWAP8 SWAP11 POP SWAP3 SWAP6 SWAP9 POP JUMP JUMPDEST PUSH0 DUP1 PUSH1 0x40 DUP4 DUP6 SUB SLT ISZERO PUSH2 0x21BB JUMPI PUSH0 DUP1 REVERT JUMPDEST POP POP DUP1 CALLDATALOAD SWAP3 PUSH1 0x20 SWAP1 SWAP2 ADD CALLDATALOAD SWAP2 POP JUMP JUMPDEST PUSH0 DUP1 PUSH0 PUSH1 0x60 DUP5 DUP7 SUB SLT ISZERO PUSH2 0x21DC JUMPI PUSH0 DUP1 REVERT JUMPDEST DUP4 CALLDATALOAD SWAP3 POP PUSH2 0x21EC PUSH1 0x20 DUP6 ADD PUSH2 0x20F4 JUMP JUMPDEST SWAP2 POP PUSH1 0x40 DUP5 ADD CALLDATALOAD SWAP1 POP SWAP3 POP SWAP3 POP SWAP3 JUMP JUMPDEST PUSH4 0x4E487B71 PUSH1 0xE0 SHL PUSH0 MSTORE PUSH1 0x21 PUSH1 0x4 MSTORE PUSH1 0x24 PUSH0 REVERT JUMPDEST PUSH1 0x4 DUP2 LT PUSH2 0x222C JUMPI PUSH4 0x4E487B71 PUSH1 0xE0 SHL PUSH0 MSTORE PUSH1 0x21 PUSH1 0x4 MSTORE PUSH1 0x24 PUSH0 REVERT JUMPDEST SWAP1 MSTORE JUMP JUMPDEST DUP2 MLOAD PUSH1 0x1 PUSH1 0x1 PUSH1 0xA0 SHL SUB AND DUP2 MSTORE PUSH2 0x1E0 DUP2 ADD PUSH1 0x20 DUP4 ADD MLOAD PUSH2 0x2254 PUSH1 0x20 DUP5 ADD DUP3 PUSH2 0x2210 JUMP JUMPDEST POP PUSH1 0x40 DUP4 ADD MLOAD PUSH1 0x40 DUP4 ADD MSTORE PUSH1 0x60 DUP4 ADD MLOAD PUSH1 0x60 DUP4 ADD MSTORE PUSH1 0x80 DUP4 ADD MLOAD PUSH1 0x80 DUP4 ADD MSTORE PUSH1 0xA0 DUP4 ADD MLOAD PUSH1 0xA0 DUP4 ADD MSTORE PUSH1 0xC0 DUP4 ADD MLOAD PUSH1 0xC0 DUP4 ADD MSTORE PUSH1 0xE0 DUP4 ADD MLOAD PUSH1 0xE0 DUP4 ADD MSTORE PUSH2 0x100 DUP1 DUP5 ADD MLOAD DUP2 DUP5 ADD MSTORE POP PUSH2 0x120 DUP1 DUP5 ADD MLOAD DUP2 DUP5 ADD MSTORE POP PUSH2 0x140 DUP1 DUP5 ADD MLOAD DUP2 DUP5 ADD MSTORE POP PUSH2 0x160 DUP1 DUP5 ADD MLOAD DUP2 DUP5 ADD MSTORE POP PUSH2 0x180 DUP1 DUP5 ADD MLOAD PUSH2 0x22DC DUP3 DUP6 ADD DUP3 PUSH1 0x1 PUSH1 0x1 PUSH1 0xA0 SHL SUB AND SWAP1 MSTORE JUMP JUMPDEST POP POP PUSH2 0x1A0 DUP4 DUP2 ADD MLOAD SWAP1 DUP4 ADD MSTORE PUSH2 0x1C0 SWAP3 DUP4 ADD MLOAD ISZERO ISZERO SWAP3 SWAP1 SWAP2 ADD SWAP2 SWAP1 SWAP2 MSTORE SWAP1 JUMP JUMPDEST PUSH0 DUP1 PUSH1 0x40 DUP4 DUP6 SUB SLT ISZERO PUSH2 0x230E JUMPI PUSH0 DUP1 REVERT JUMPDEST PUSH2 0x2317 DUP4 PUSH2 0x20F4 JUMP JUMPDEST SWAP5 PUSH1 0x20 SWAP4 SWAP1 SWAP4 ADD CALLDATALOAD SWAP4 POP POP POP JUMP JUMPDEST PUSH0 PUSH1 0x20 DUP3 DUP5 SUB SLT ISZERO PUSH2 0x2335 JUMPI PUSH0 DUP1 REVERT JUMPDEST PUSH2 0x1A2C DUP3 PUSH2 0x20F4 JUMP JUMPDEST PUSH0 DUP1 PUSH1 0x40 DUP4 DUP6 SUB SLT ISZERO PUSH2 0x234F JUMPI PUSH0 DUP1 REVERT JUMPDEST PUSH2 0x2358 DUP4 PUSH2 0x20F4 JUMP JUMPDEST SWAP2 POP PUSH1 0x20 DUP4 ADD CALLDATALOAD PUSH2 0x2368 DUP2 PUSH2 0x210F JUMP JUMPDEST DUP1 SWAP2 POP POP SWAP3 POP SWAP3 SWAP1 POP JUMP JUMPDEST PUSH0 DUP1 PUSH1 0x40 DUP4 DUP6 SUB SLT ISZERO PUSH2 0x2384 JUMPI PUSH0 DUP1 REVERT JUMPDEST DUP3 CALLDATALOAD SWAP2 POP PUSH2 0x2394 PUSH1 0x20 DUP5 ADD PUSH2 0x20F4 JUMP JUMPDEST SWAP1 POP SWAP3 POP SWAP3 SWAP1 POP JUMP JUMPDEST PUSH0 PUSH1 0x20 DUP3 DUP5 SUB SLT ISZERO PUSH2 0x23AD JUMPI PUSH0 DUP1 REVERT JUMPDEST DUP2 CALLDATALOAD PUSH2 0x1A2C DUP2 PUSH2 0x210F JUMP JUMPDEST PUSH1 0x20 DUP1 DUP3 MSTORE PUSH1 0xC SWAP1 DUP3 ADD MSTORE PUSH12 0x2737BA1037B832B930BA37B9 PUSH1 0xA1 SHL PUSH1 0x40 DUP3 ADD MSTORE PUSH1 0x60 ADD SWAP1 JUMP JUMPDEST SWAP7 DUP8 MSTORE PUSH1 0x20 DUP8 ADD SWAP6 SWAP1 SWAP6 MSTORE PUSH1 0x40 DUP7 ADD SWAP4 SWAP1 SWAP4 MSTORE PUSH1 0x60 DUP6 ADD SWAP2 SWAP1 SWAP2 MSTORE PUSH1 0x1 PUSH1 0x1 PUSH1 0xA0 SHL SUB SWAP1 DUP2 AND PUSH1 0x80 DUP6 ADD MSTORE AND PUSH1 0xA0 DUP4 ADD MSTORE ISZERO ISZERO PUSH1 0xC0 DUP3 ADD MSTORE PUSH1 0xE0 ADD SWAP1 JUMP JUMPDEST PUSH1 0x20 DUP1 DUP3 MSTORE PUSH1 0x17 SWAP1 DUP3 ADD MSTORE PUSH32 0x526564456E76656C6F7065206973206E6F74206F70656E000000000000000000 PUSH1 0x40 DUP3 ADD MSTORE PUSH1 0x60 ADD SWAP1 JUMP JUMPDEST PUSH1 0x20 DUP1 DUP3 MSTORE PUSH1 0x18 SWAP1 DUP3 ADD MSTORE PUSH32 0x526564456E76656C6F7065206973206F7665722074696D650000000000000000 PUSH1 0x40 DUP3 ADD MSTORE PUSH1 0x60 ADD SWAP1 JUMP JUMPDEST PUSH4 0x4E487B71 PUSH1 0xE0 SHL PUSH0 MSTORE PUSH1 0x11 PUSH1 0x4 MSTORE PUSH1 0x24 PUSH0 REVERT JUMPDEST DUP1 DUP3 ADD DUP1 DUP3 GT ISZERO PUSH2 0x125A JUMPI PUSH2 0x125A PUSH2 0x248A JUMP JUMPDEST DUP1 DUP3 MUL DUP2 ISZERO DUP3 DUP3 DIV DUP5 EQ OR PUSH2 0x125A JUMPI PUSH2 0x125A PUSH2 0x248A JUMP JUMPDEST PUSH0 PUSH1 0x1 DUP3 ADD PUSH2 0x24D9 JUMPI PUSH2 0x24D9 PUSH2 0x248A JUMP JUMPDEST POP PUSH1 0x1 ADD SWAP1 JUMP JUMPDEST DUP2 DUP2 SUB DUP2 DUP2 GT ISZERO PUSH2 0x125A JUMPI PUSH2 0x125A PUSH2 0x248A JUMP JUMPDEST PUSH4 0x4E487B71 PUSH1 0xE0 SHL PUSH0 MSTORE PUSH1 0x41 PUSH1 0x4 MSTORE PUSH1 0x24 PUSH0 REVERT JUMPDEST PUSH4 0x4E487B71 PUSH1 0xE0 SHL PUSH0 MSTORE PUSH1 0x12 PUSH1 0x4 MSTORE PUSH1 0x24 PUSH0 REVERT JUMPDEST PUSH0 DUP3 PUSH2 0x2529 JUMPI PUSH2 0x2529 PUSH2 0x2507 JUMP JUMPDEST POP MOD SWAP1 JUMP JUMPDEST PUSH4 0x4E487B71 PUSH1 0xE0 SHL PUSH0 MSTORE PUSH1 0x32 PUSH1 0x4 MSTORE PUSH1 0x24 PUSH0 REVERT JUMPDEST PUSH0 DUP2 PUSH2 0x2550 JUMPI PUSH2 0x2550 PUSH2 0x248A JUMP JUMPDEST POP PUSH0 NOT ADD SWAP1 JUMP JUMPDEST PUSH0 DUP3 PUSH2 0x2565 JUMPI PUSH2 0x2565 PUSH2 0x2507 JUMP JUMPDEST POP DIV SWAP1 JUMP JUMPDEST PUSH0 PUSH1 0x20 DUP3 DUP5 SUB SLT ISZERO PUSH2 0x257A JUMPI PUSH0 DUP1 REVERT JUMPDEST DUP2 MLOAD PUSH2 0x1A2C DUP2 PUSH2 0x210F JUMP JUMPDEST PUSH4 0xFFFFFFFF DUP3 DUP2 AND DUP3 DUP3 AND SUB SWAP1 DUP1 DUP3 GT ISZERO PUSH2 0x25A2 JUMPI PUSH2 0x25A2 PUSH2 0x248A JUMP JUMPDEST POP SWAP3 SWAP2 POP POP JUMP JUMPDEST PUSH0 DUP3 MLOAD DUP1 PUSH1 0x20 DUP6 ADD DUP5 MCOPY PUSH0 SWAP3 ADD SWAP2 DUP3 MSTORE POP SWAP2 SWAP1 POP JUMP INVALID LOG2 PUSH5 0x6970667358 0x22 SLT KECCAK256 DUP1 0xA8 PUSH29 0x28513CCC9DF02B93FE5EA97FF3DD4FBE1A2835DFA747D4258BDF24789A PUSH5 0x736F6C6343 STOP ADDMOD NOT STOP CALLER "
				},
				"gasEstimates": {
					"creation": {
						"codeDepositCost": "1943400",
						"executionCost": "infinite",
						"totalCost": "infinite"
					},
					"external": {
						"buyTickets(uint256,address,uint256)": "infinite",
						"claimPrize(uint256)": "infinite",
						"createRedEnvelope(uint256,uint256,uint256,uint256)": "252454",
						"createRedEnvelopeDetail(address,uint256,uint256,uint256,uint256,address,uint256,address,uint256,bool)": "infinite",
						"currentId()": "2349",
						"defaultAutoClaim()": "2354",
						"defaultTicketPirce()": "2373",
						"defaultTicketToken()": "2359",
						"drawPrize(uint256,uint256)": "infinite",
						"endRedEnvelope(uint256)": "83988",
						"injectTickets(uint256,uint256)": "infinite",
						"operatorAddressList(address)": "2595",
						"owner()": "2386",
						"renounceOwnership()": "infinite",
						"sendTickets(uint256,address,uint256)": "infinite",
						"setDefaultAutoClaim(bool)": "27907",
						"setOperatorAddress(address,bool)": "28288",
						"setTicketToken(address,uint256)": "50345",
						"transferOwnership(address)": "28421",
						"viewCurrentRedEnvelopeId()": "2413",
						"viewRedEnvelope(uint256)": "31252",
						"viewRedEnvelopeClaimPrize(uint256,address)": "2685",
						"viewRedEnvelopeStatus(uint256)": "2624"
					},
					"internal": {
						"_calculatePrize(uint256,uint256,uint256[] memory)": "infinite",
						"_claimPrize(uint256,address)": "infinite",
						"_createRedEnvelope(address,uint256,uint256,uint256,uint256,uint256,bool)": "185577",
						"_deriveRandom(uint256,uint256)": "infinite",
						"_fillTicket(uint256,address,uint256,bool)": "infinite",
						"_getSortRandoms(uint256,uint256,uint256)": "infinite",
						"_getTicketbyIndex(uint256,uint256)": "infinite",
						"_injectTickets(uint256,address,uint256)": "infinite",
						"_leftRotate(uint256,uint32)": "156",
						"_returnInject(uint256)": "infinite"
					}
				},
				"methodIdentifiers": {
					"buyTickets(uint256,address,uint256)": "c5e7bb33",
					"claimPrize(uint256)": "d7098154",
					"createRedEnvelope(uint256,uint256,uint256,uint256)": "0e9e1262",
					"createRedEnvelopeDetail(address,uint256,uint256,uint256,uint256,address,uint256,address,uint256,bool)": "4a42c8f6",
					"currentId()": "e00dd161",
					"defaultAutoClaim()": "a210d5e0",
					"defaultTicketPirce()": "4bfec3aa",
					"defaultTicketToken()": "959acdaf",
					"drawPrize(uint256,uint256)": "bce3468d",
					"endRedEnvelope(uint256)": "3834efe1",
					"injectTickets(uint256,uint256)": "559f24bc",
					"operatorAddressList(address)": "bc6bce91",
					"owner()": "8da5cb5b",
					"renounceOwnership()": "715018a6",
					"sendTickets(uint256,address,uint256)": "5c42e0c5",
					"setDefaultAutoClaim(bool)": "f41188ed",
					"setOperatorAddress(address,bool)": "d9828174",
					"setTicketToken(address,uint256)": "903606c5",
					"transferOwnership(address)": "f2fde38b",
					"viewCurrentRedEnvelopeId()": "94456fa4",
					"viewRedEnvelope(uint256)": "8f91cd17",
					"viewRedEnvelopeClaimPrize(uint256,address)": "dc912a81",
					"viewRedEnvelopeStatus(uint256)": "fe5c5976"
				}
			},
			"storageLayout": {
				"storage": [
					{
						"astId": 845,
						"contract": "contracts/LuckyRedEnvelopeV2.sol:LuckyRedEnvelopeV2",
						"label": "_status",
						"offset": 0,
						"slot": "0",
						"type": "t_uint256"
					},
					{
						"astId": 8,
						"contract": "contracts/LuckyRedEnvelopeV2.sol:LuckyRedEnvelopeV2",
						"label": "_owner",
						"offset": 0,
						"slot": "1",
						"type": "t_address"
					},
					{
						"astId": 922,
						"contract": "contracts/LuckyRedEnvelopeV2.sol:LuckyRedEnvelopeV2",
						"label": "defaultTicketToken",
						"offset": 0,
						"slot": "2",
						"type": "t_address"
					},
					{
						"astId": 924,
						"contract": "contracts/LuckyRedEnvelopeV2.sol:LuckyRedEnvelopeV2",
						"label": "currentId",
						"offset": 0,
						"slot": "3",
						"type": "t_uint256"
					},
					{
						"astId": 926,
						"contract": "contracts/LuckyRedEnvelopeV2.sol:LuckyRedEnvelopeV2",
						"label": "defaultTicketPirce",
						"offset": 0,
						"slot": "4",
						"type": "t_uint256"
					},
					{
						"astId": 928,
						"contract": "contracts/LuckyRedEnvelopeV2.sol:LuckyRedEnvelopeV2",
						"label": "defaultAutoClaim",
						"offset": 0,
						"slot": "5",
						"type": "t_bool"
					},
					{
						"astId": 932,
						"contract": "contracts/LuckyRedEnvelopeV2.sol:LuckyRedEnvelopeV2",
						"label": "operatorAddressList",
						"offset": 0,
						"slot": "6",
						"type": "t_mapping(t_address,t_bool)"
					},
					{
						"astId": 937,
						"contract": "contracts/LuckyRedEnvelopeV2.sol:LuckyRedEnvelopeV2",
						"label": "_redEnvelopes",
						"offset": 0,
						"slot": "7",
						"type": "t_mapping(t_uint256,t_struct(RedEnvelope)2701_storage)"
					},
					{
						"astId": 944,
						"contract": "contracts/LuckyRedEnvelopeV2.sol:LuckyRedEnvelopeV2",
						"label": "_tickets",
						"offset": 0,
						"slot": "8",
						"type": "t_mapping(t_uint256,t_mapping(t_uint256,t_struct(Ticket)2708_storage))"
					},
					{
						"astId": 950,
						"contract": "contracts/LuckyRedEnvelopeV2.sol:LuckyRedEnvelopeV2",
						"label": "_prizedticketIndex",
						"offset": 0,
						"slot": "9",
						"type": "t_mapping(t_uint256,t_mapping(t_uint256,t_bool))"
					},
					{
						"astId": 956,
						"contract": "contracts/LuckyRedEnvelopeV2.sol:LuckyRedEnvelopeV2",
						"label": "_userAddrTicketNum",
						"offset": 0,
						"slot": "10",
						"type": "t_mapping(t_uint256,t_mapping(t_address,t_uint256))"
					},
					{
						"astId": 962,
						"contract": "contracts/LuckyRedEnvelopeV2.sol:LuckyRedEnvelopeV2",
						"label": "_userAddrIndex",
						"offset": 0,
						"slot": "11",
						"type": "t_mapping(t_uint256,t_mapping(t_uint256,t_address))"
					},
					{
						"astId": 968,
						"contract": "contracts/LuckyRedEnvelopeV2.sol:LuckyRedEnvelopeV2",
						"label": "_amount2claimed",
						"offset": 0,
						"slot": "12",
						"type": "t_mapping(t_uint256,t_mapping(t_address,t_uint256))"
					},
					{
						"astId": 974,
						"contract": "contracts/LuckyRedEnvelopeV2.sol:LuckyRedEnvelopeV2",
						"label": "_injectAddrIndex",
						"offset": 0,
						"slot": "13",
						"type": "t_mapping(t_uint256,t_mapping(t_uint256,t_address))"
					},
					{
						"astId": 980,
						"contract": "contracts/LuckyRedEnvelopeV2.sol:LuckyRedEnvelopeV2",
						"label": "_injectTicketMap",
						"offset": 0,
						"slot": "14",
						"type": "t_mapping(t_uint256,t_mapping(t_address,t_uint256))"
					}
				],
				"types": {
					"t_address": {
						"encoding": "inplace",
						"label": "address",
						"numberOfBytes": "20"
					},
					"t_bool": {
						"encoding": "inplace",
						"label": "bool",
						"numberOfBytes": "1"
					},
					"t_enum(Status)2669": {
						"encoding": "inplace",
						"label": "enum Status",
						"numberOfBytes": "1"
					},
					"t_mapping(t_address,t_bool)": {
						"encoding": "mapping",
						"key": "t_address",
						"label": "mapping(address => bool)",
						"numberOfBytes": "32",
						"value": "t_bool"
					},
					"t_mapping(t_address,t_uint256)": {
						"encoding": "mapping",
						"key": "t_address",
						"label": "mapping(address => uint256)",
						"numberOfBytes": "32",
						"value": "t_uint256"
					},
					"t_mapping(t_uint256,t_address)": {
						"encoding": "mapping",
						"key": "t_uint256",
						"label": "mapping(uint256 => address)",
						"numberOfBytes": "32",
						"value": "t_address"
					},
					"t_mapping(t_uint256,t_bool)": {
						"encoding": "mapping",
						"key": "t_uint256",
						"label": "mapping(uint256 => bool)",
						"numberOfBytes": "32",
						"value": "t_bool"
					},
					"t_mapping(t_uint256,t_mapping(t_address,t_uint256))": {
						"encoding": "mapping",
						"key": "t_uint256",
						"label": "mapping(uint256 => mapping(address => uint256))",
						"numberOfBytes": "32",
						"value": "t_mapping(t_address,t_uint256)"
					},
					"t_mapping(t_uint256,t_mapping(t_uint256,t_address))": {
						"encoding": "mapping",
						"key": "t_uint256",
						"label": "mapping(uint256 => mapping(uint256 => address))",
						"numberOfBytes": "32",
						"value": "t_mapping(t_uint256,t_address)"
					},
					"t_mapping(t_uint256,t_mapping(t_uint256,t_bool))": {
						"encoding": "mapping",
						"key": "t_uint256",
						"label": "mapping(uint256 => mapping(uint256 => bool))",
						"numberOfBytes": "32",
						"value": "t_mapping(t_uint256,t_bool)"
					},
					"t_mapping(t_uint256,t_mapping(t_uint256,t_struct(Ticket)2708_storage))": {
						"encoding": "mapping",
						"key": "t_uint256",
						"label": "mapping(uint256 => mapping(uint256 => struct Ticket))",
						"numberOfBytes": "32",
						"value": "t_mapping(t_uint256,t_struct(Ticket)2708_storage)"
					},
					"t_mapping(t_uint256,t_struct(RedEnvelope)2701_storage)": {
						"encoding": "mapping",
						"key": "t_uint256",
						"label": "mapping(uint256 => struct RedEnvelope)",
						"numberOfBytes": "32",
						"value": "t_struct(RedEnvelope)2701_storage"
					},
					"t_mapping(t_uint256,t_struct(Ticket)2708_storage)": {
						"encoding": "mapping",
						"key": "t_uint256",
						"label": "mapping(uint256 => struct Ticket)",
						"numberOfBytes": "32",
						"value": "t_struct(Ticket)2708_storage"
					},
					"t_struct(RedEnvelope)2701_storage": {
						"encoding": "inplace",
						"label": "struct RedEnvelope",
						"members": [
							{
								"astId": 2671,
								"contract": "contracts/LuckyRedEnvelopeV2.sol:LuckyRedEnvelopeV2",
								"label": "ticketToken",
								"offset": 0,
								"slot": "0",
								"type": "t_address"
							},
							{
								"astId": 2674,
								"contract": "contracts/LuckyRedEnvelopeV2.sol:LuckyRedEnvelopeV2",
								"label": "status",
								"offset": 20,
								"slot": "0",
								"type": "t_enum(Status)2669"
							},
							{
								"astId": 2676,
								"contract": "contracts/LuckyRedEnvelopeV2.sol:LuckyRedEnvelopeV2",
								"label": "endTime",
								"offset": 0,
								"slot": "1",
								"type": "t_uint256"
							},
							{
								"astId": 2678,
								"contract": "contracts/LuckyRedEnvelopeV2.sol:LuckyRedEnvelopeV2",
								"label": "maxTickets",
								"offset": 0,
								"slot": "2",
								"type": "t_uint256"
							},
							{
								"astId": 2680,
								"contract": "contracts/LuckyRedEnvelopeV2.sol:LuckyRedEnvelopeV2",
								"label": "maxPrizeNum",
								"offset": 0,
								"slot": "3",
								"type": "t_uint256"
							},
							{
								"astId": 2682,
								"contract": "contracts/LuckyRedEnvelopeV2.sol:LuckyRedEnvelopeV2",
								"label": "buyTickets",
								"offset": 0,
								"slot": "4",
								"type": "t_uint256"
							},
							{
								"astId": 2684,
								"contract": "contracts/LuckyRedEnvelopeV2.sol:LuckyRedEnvelopeV2",
								"label": "sendTickets",
								"offset": 0,
								"slot": "5",
								"type": "t_uint256"
							},
							{
								"astId": 2686,
								"contract": "contracts/LuckyRedEnvelopeV2.sol:LuckyRedEnvelopeV2",
								"label": "injectTickets",
								"offset": 0,
								"slot": "6",
								"type": "t_uint256"
							},
							{
								"astId": 2688,
								"contract": "contracts/LuckyRedEnvelopeV2.sol:LuckyRedEnvelopeV2",
								"label": "userAddrNum",
								"offset": 0,
								"slot": "7",
								"type": "t_uint256"
							},
							{
								"astId": 2690,
								"contract": "contracts/LuckyRedEnvelopeV2.sol:LuckyRedEnvelopeV2",
								"label": "userTxNum",
								"offset": 0,
								"slot": "8",
								"type": "t_uint256"
							},
							{
								"astId": 2692,
								"contract": "contracts/LuckyRedEnvelopeV2.sol:LuckyRedEnvelopeV2",
								"label": "injectAddrNum",
								"offset": 0,
								"slot": "9",
								"type": "t_uint256"
							},
							{
								"astId": 2694,
								"contract": "contracts/LuckyRedEnvelopeV2.sol:LuckyRedEnvelopeV2",
								"label": "ticketPirce",
								"offset": 0,
								"slot": "10",
								"type": "t_uint256"
							},
							{
								"astId": 2696,
								"contract": "contracts/LuckyRedEnvelopeV2.sol:LuckyRedEnvelopeV2",
								"label": "sendAllowAddr",
								"offset": 0,
								"slot": "11",
								"type": "t_address"
							},
							{
								"astId": 2698,
								"contract": "contracts/LuckyRedEnvelopeV2.sol:LuckyRedEnvelopeV2",
								"label": "secret",
								"offset": 0,
								"slot": "12",
								"type": "t_uint256"
							},
							{
								"astId": 2700,
								"contract": "contracts/LuckyRedEnvelopeV2.sol:LuckyRedEnvelopeV2",
								"label": "autoClaim",
								"offset": 0,
								"slot": "13",
								"type": "t_bool"
							}
						],
						"numberOfBytes": "448"
					},
					"t_struct(Ticket)2708_storage": {
						"encoding": "inplace",
						"label": "struct Ticket",
						"members": [
							{
								"astId": 2703,
								"contract": "contracts/LuckyRedEnvelopeV2.sol:LuckyRedEnvelopeV2",
								"label": "totalNumbers",
								"offset": 0,
								"slot": "0",
								"type": "t_uint256"
							},
							{
								"astId": 2705,
								"contract": "contracts/LuckyRedEnvelopeV2.sol:LuckyRedEnvelopeV2",
								"label": "receiveAddress",
								"offset": 0,
								"slot": "1",
								"type": "t_address"
							},
							{
								"astId": 2707,
								"contract": "contracts/LuckyRedEnvelopeV2.sol:LuckyRedEnvelopeV2",
								"label": "buy",
								"offset": 20,
								"slot": "1",
								"type": "t_bool"
							}
						],
						"numberOfBytes": "64"
					},
					"t_uint256": {
						"encoding": "inplace",
						"label": "uint256",
						"numberOfBytes": "32"
					}
				}
			},
			"userdoc": {
				"kind": "user",
				"methods": {
					"createRedEnvelope(uint256,uint256,uint256,uint256)": {
						"notice": "create the RedEnvelope，采用默认代币地址及配置，默认为仅支持buyTickets模式"
					},
					"createRedEnvelopeDetail(address,uint256,uint256,uint256,uint256,address,uint256,address,uint256,bool)": {
						"notice": "create the RedEnvelope"
					}
				},
				"version": 1
			}
		}
	}
}