{
	"contracts/TaskControl.sol": {
		"TaskControl": {
			"abi": [
				{
					"inputs": [
						{
							"internalType": "address",
							"name": "_redEnvelopeAddr",
							"type": "address"
						},
						{
							"internalType": "bool",
							"name": "_allowBuyTicket",
							"type": "bool"
						},
						{
							"internalType": "bool",
							"name": "_allowSendTicket",
							"type": "bool"
						}
					],
					"stateMutability": "nonpayable",
					"type": "constructor"
				},
				{
					"inputs": [
						{
							"internalType": "address",
							"name": "spender",
							"type": "address"
						},
						{
							"internalType": "uint256",
							"name": "allowance",
							"type": "uint256"
						},
						{
							"internalType": "uint256",
							"name": "needed",
							"type": "uint256"
						}
					],
					"name": "ERC20InsufficientAllowance",
					"type": "error"
				},
				{
					"inputs": [
						{
							"internalType": "address",
							"name": "sender",
							"type": "address"
						},
						{
							"internalType": "uint256",
							"name": "balance",
							"type": "uint256"
						},
						{
							"internalType": "uint256",
							"name": "needed",
							"type": "uint256"
						}
					],
					"name": "ERC20InsufficientBalance",
					"type": "error"
				},
				{
					"inputs": [
						{
							"internalType": "address",
							"name": "approver",
							"type": "address"
						}
					],
					"name": "ERC20InvalidApprover",
					"type": "error"
				},
				{
					"inputs": [
						{
							"internalType": "address",
							"name": "receiver",
							"type": "address"
						}
					],
					"name": "ERC20InvalidReceiver",
					"type": "error"
				},
				{
					"inputs": [
						{
							"internalType": "address",
							"name": "sender",
							"type": "address"
						}
					],
					"name": "ERC20InvalidSender",
					"type": "error"
				},
				{
					"inputs": [
						{
							"internalType": "address",
							"name": "spender",
							"type": "address"
						}
					],
					"name": "ERC20InvalidSpender",
					"type": "error"
				},
				{
					"inputs": [
						{
							"internalType": "address",
							"name": "owner",
							"type": "address"
						}
					],
					"name": "OwnableInvalidOwner",
					"type": "error"
				},
				{
					"inputs": [
						{
							"internalType": "address",
							"name": "account",
							"type": "address"
						}
					],
					"name": "OwnableUnauthorizedAccount",
					"type": "error"
				},
				{
					"anonymous": false,
					"inputs": [
						{
							"indexed": true,
							"internalType": "address",
							"name": "owner",
							"type": "address"
						},
						{
							"indexed": true,
							"internalType": "address",
							"name": "spender",
							"type": "address"
						},
						{
							"indexed": false,
							"internalType": "uint256",
							"name": "value",
							"type": "uint256"
						}
					],
					"name": "Approval",
					"type": "event"
				},
				{
					"anonymous": false,
					"inputs": [
						{
							"indexed": true,
							"internalType": "address",
							"name": "previousOwner",
							"type": "address"
						},
						{
							"indexed": true,
							"internalType": "address",
							"name": "newOwner",
							"type": "address"
						}
					],
					"name": "OwnershipTransferred",
					"type": "event"
				},
				{
					"anonymous": false,
					"inputs": [
						{
							"indexed": true,
							"internalType": "address",
							"name": "from",
							"type": "address"
						},
						{
							"indexed": true,
							"internalType": "address",
							"name": "to",
							"type": "address"
						},
						{
							"indexed": false,
							"internalType": "uint256",
							"name": "value",
							"type": "uint256"
						}
					],
					"name": "Transfer",
					"type": "event"
				},
				{
					"inputs": [],
					"name": "allowBuyTicket",
					"outputs": [
						{
							"internalType": "bool",
							"name": "",
							"type": "bool"
						}
					],
					"stateMutability": "view",
					"type": "function"
				},
				{
					"inputs": [],
					"name": "allowSendTicket",
					"outputs": [
						{
							"internalType": "bool",
							"name": "",
							"type": "bool"
						}
					],
					"stateMutability": "view",
					"type": "function"
				},
				{
					"inputs": [
						{
							"internalType": "address",
							"name": "owner",
							"type": "address"
						},
						{
							"internalType": "address",
							"name": "spender",
							"type": "address"
						}
					],
					"name": "allowance",
					"outputs": [
						{
							"internalType": "uint256",
							"name": "",
							"type": "uint256"
						}
					],
					"stateMutability": "view",
					"type": "function"
				},
				{
					"inputs": [
						{
							"internalType": "address",
							"name": "spender",
							"type": "address"
						},
						{
							"internalType": "uint256",
							"name": "value",
							"type": "uint256"
						}
					],
					"name": "approve",
					"outputs": [
						{
							"internalType": "bool",
							"name": "",
							"type": "bool"
						}
					],
					"stateMutability": "nonpayable",
					"type": "function"
				},
				{
					"inputs": [
						{
							"internalType": "address",
							"name": "account",
							"type": "address"
						}
					],
					"name": "balanceOf",
					"outputs": [
						{
							"internalType": "uint256",
							"name": "",
							"type": "uint256"
						}
					],
					"stateMutability": "view",
					"type": "function"
				},
				{
					"inputs": [
						{
							"internalType": "uint256",
							"name": "value",
							"type": "uint256"
						}
					],
					"name": "burn",
					"outputs": [],
					"stateMutability": "nonpayable",
					"type": "function"
				},
				{
					"inputs": [
						{
							"internalType": "address",
							"name": "account",
							"type": "address"
						},
						{
							"internalType": "uint256",
							"name": "value",
							"type": "uint256"
						}
					],
					"name": "burnFrom",
					"outputs": [],
					"stateMutability": "nonpayable",
					"type": "function"
				},
				{
					"inputs": [],
					"name": "decimals",
					"outputs": [
						{
							"internalType": "uint8",
							"name": "",
							"type": "uint8"
						}
					],
					"stateMutability": "view",
					"type": "function"
				},
				{
					"inputs": [
						{
							"internalType": "uint256",
							"name": "_id",
							"type": "uint256"
						},
						{
							"internalType": "address",
							"name": "_receiveAddress",
							"type": "address"
						},
						{
							"internalType": "uint256",
							"name": "_ticketNumbers",
							"type": "uint256"
						}
					],
					"name": "getTicket",
					"outputs": [],
					"stateMutability": "nonpayable",
					"type": "function"
				},
				{
					"inputs": [
						{
							"internalType": "uint256",
							"name": "_id",
							"type": "uint256"
						},
						{
							"internalType": "address",
							"name": "_fromAddress",
							"type": "address"
						},
						{
							"internalType": "address",
							"name": "_receiveAddress",
							"type": "address"
						},
						{
							"internalType": "uint256",
							"name": "_ticketNumbers",
							"type": "uint256"
						}
					],
					"name": "getTicketFrom",
					"outputs": [],
					"stateMutability": "nonpayable",
					"type": "function"
				},
				{
					"inputs": [
						{
							"internalType": "address",
							"name": "_taskAddr",
							"type": "address"
						},
						{
							"internalType": "address",
							"name": "_receiveAddress",
							"type": "address"
						},
						{
							"internalType": "uint256",
							"name": "_value",
							"type": "uint256"
						},
						{
							"internalType": "bytes",
							"name": "_data",
							"type": "bytes"
						}
					],
					"name": "mintToken",
					"outputs": [],
					"stateMutability": "nonpayable",
					"type": "function"
				},
				{
					"inputs": [],
					"name": "name",
					"outputs": [
						{
							"internalType": "string",
							"name": "",
							"type": "string"
						}
					],
					"stateMutability": "view",
					"type": "function"
				},
				{
					"inputs": [],
					"name": "owner",
					"outputs": [
						{
							"internalType": "address",
							"name": "",
							"type": "address"
						}
					],
					"stateMutability": "view",
					"type": "function"
				},
				{
					"inputs": [],
					"name": "redEnvelopeAddr",
					"outputs": [
						{
							"internalType": "address",
							"name": "",
							"type": "address"
						}
					],
					"stateMutability": "view",
					"type": "function"
				},
				{
					"inputs": [],
					"name": "renounceOwnership",
					"outputs": [],
					"stateMutability": "nonpayable",
					"type": "function"
				},
				{
					"inputs": [
						{
							"internalType": "address",
							"name": "_taskAddr",
							"type": "address"
						},
						{
							"internalType": "uint256",
							"name": "_weight",
							"type": "uint256"
						}
					],
					"name": "setTask",
					"outputs": [],
					"stateMutability": "nonpayable",
					"type": "function"
				},
				{
					"inputs": [],
					"name": "symbol",
					"outputs": [
						{
							"internalType": "string",
							"name": "",
							"type": "string"
						}
					],
					"stateMutability": "view",
					"type": "function"
				},
				{
					"inputs": [],
					"name": "totalSupply",
					"outputs": [
						{
							"internalType": "uint256",
							"name": "",
							"type": "uint256"
						}
					],
					"stateMutability": "view",
					"type": "function"
				},
				{
					"inputs": [
						{
							"internalType": "address",
							"name": "to",
							"type": "address"
						},
						{
							"internalType": "uint256",
							"name": "value",
							"type": "uint256"
						}
					],
					"name": "transfer",
					"outputs": [
						{
							"internalType": "bool",
							"name": "",
							"type": "bool"
						}
					],
					"stateMutability": "nonpayable",
					"type": "function"
				},
				{
					"inputs": [
						{
							"internalType": "address",
							"name": "from",
							"type": "address"
						},
						{
							"internalType": "address",
							"name": "to",
							"type": "address"
						},
						{
							"internalType": "uint256",
							"name": "value",
							"type": "uint256"
						}
					],
					"name": "transferFrom",
					"outputs": [
						{
							"internalType": "bool",
							"name": "",
							"type": "bool"
						}
					],
					"stateMutability": "nonpayable",
					"type": "function"
				},
				{
					"inputs": [
						{
							"internalType": "address",
							"name": "newOwner",
							"type": "address"
						}
					],
					"name": "transferOwnership",
					"outputs": [],
					"stateMutability": "nonpayable",
					"type": "function"
				},
				{
					"inputs": [
						{
							"internalType": "address",
							"name": "_token",
							"type": "address"
						},
						{
							"internalType": "address",
							"name": "_to",
							"type": "address"
						},
						{
							"internalType": "uint256",
							"name": "_value",
							"type": "uint256"
						}
					],
					"name": "withdraw",
					"outputs": [],
					"stateMutability": "nonpayable",
					"type": "function"
				}
			],
			"devdoc": {
				"errors": {
					"ERC20InsufficientAllowance(address,uint256,uint256)": [
						{
							"details": "Indicates a failure with the `spender`’s `allowance`. Used in transfers.",
							"params": {
								"allowance": "Amount of tokens a `spender` is allowed to operate with.",
								"needed": "Minimum amount required to perform a transfer.",
								"spender": "Address that may be allowed to operate on tokens without being their owner."
							}
						}
					],
					"ERC20InsufficientBalance(address,uint256,uint256)": [
						{
							"details": "Indicates an error related to the current `balance` of a `sender`. Used in transfers.",
							"params": {
								"balance": "Current balance for the interacting account.",
								"needed": "Minimum amount required to perform a transfer.",
								"sender": "Address whose tokens are being transferred."
							}
						}
					],
					"ERC20InvalidApprover(address)": [
						{
							"details": "Indicates a failure with the `approver` of a token to be approved. Used in approvals.",
							"params": {
								"approver": "Address initiating an approval operation."
							}
						}
					],
					"ERC20InvalidReceiver(address)": [
						{
							"details": "Indicates a failure with the token `receiver`. Used in transfers.",
							"params": {
								"receiver": "Address to which tokens are being transferred."
							}
						}
					],
					"ERC20InvalidSender(address)": [
						{
							"details": "Indicates a failure with the token `sender`. Used in transfers.",
							"params": {
								"sender": "Address whose tokens are being transferred."
							}
						}
					],
					"ERC20InvalidSpender(address)": [
						{
							"details": "Indicates a failure with the `spender` to be approved. Used in approvals.",
							"params": {
								"spender": "Address that may be allowed to operate on tokens without being their owner."
							}
						}
					],
					"OwnableInvalidOwner(address)": [
						{
							"details": "The owner is not a valid owner account. (eg. `address(0)`)"
						}
					],
					"OwnableUnauthorizedAccount(address)": [
						{
							"details": "The caller account is not authorized to perform an operation."
						}
					]
				},
				"events": {
					"Approval(address,address,uint256)": {
						"details": "Emitted when the allowance of a `spender` for an `owner` is set by a call to {approve}. `value` is the new allowance."
					},
					"Transfer(address,address,uint256)": {
						"details": "Emitted when `value` tokens are moved from one account (`from`) to another (`to`). Note that `value` may be zero."
					}
				},
				"kind": "dev",
				"methods": {
					"allowance(address,address)": {
						"details": "See {IERC20-allowance}."
					},
					"approve(address,uint256)": {
						"details": "See {IERC20-approve}. NOTE: If `value` is the maximum `uint256`, the allowance is not updated on `transferFrom`. This is semantically equivalent to an infinite approval. Requirements: - `spender` cannot be the zero address."
					},
					"balanceOf(address)": {
						"details": "See {IERC20-balanceOf}."
					},
					"burn(uint256)": {
						"details": "Destroys a `value` amount of tokens from the caller. See {ERC20-_burn}."
					},
					"burnFrom(address,uint256)": {
						"details": "Destroys a `value` amount of tokens from `account`, deducting from the caller's allowance. See {ERC20-_burn} and {ERC20-allowance}. Requirements: - the caller must have allowance for ``accounts``'s tokens of at least `value`."
					},
					"decimals()": {
						"details": "Returns the number of decimals used to get its user representation. For example, if `decimals` equals `2`, a balance of `505` tokens should be displayed to a user as `5.05` (`505 / 10 ** 2`). Tokens usually opt for a value of 18, imitating the relationship between Ether and Wei. This is the default value returned by this function, unless it's overridden. NOTE: This information is only used for _display_ purposes: it in no way affects any of the arithmetic of the contract, including {IERC20-balanceOf} and {IERC20-transfer}."
					},
					"name()": {
						"details": "Returns the name of the token."
					},
					"owner()": {
						"details": "Returns the address of the current owner."
					},
					"renounceOwnership()": {
						"details": "Leaves the contract without owner. It will not be possible to call `onlyOwner` functions. Can only be called by the current owner. NOTE: Renouncing ownership will leave the contract without an owner, thereby disabling any functionality that is only available to the owner."
					},
					"symbol()": {
						"details": "Returns the symbol of the token, usually a shorter version of the name."
					},
					"totalSupply()": {
						"details": "See {IERC20-totalSupply}."
					},
					"transfer(address,uint256)": {
						"details": "See {IERC20-transfer}. Requirements: - `to` cannot be the zero address. - the caller must have a balance of at least `value`."
					},
					"transferFrom(address,address,uint256)": {
						"details": "See {IERC20-transferFrom}. Emits an {Approval} event indicating the updated allowance. This is not required by the EIP. See the note at the beginning of {ERC20}. NOTE: Does not update the allowance if the current allowance is the maximum `uint256`. Requirements: - `from` and `to` cannot be the zero address. - `from` must have a balance of at least `value`. - the caller must have allowance for ``from``'s tokens of at least `value`."
					},
					"transferOwnership(address)": {
						"details": "Transfers ownership of the contract to a new account (`newOwner`). Can only be called by the current owner."
					}
				},
				"version": 1
			},
			"evm": {
				"assembly": "    /* \"contracts/TaskControl.sol\":445:3087  contract TaskControl is ITaskControl,ERC20, ERC20Burnable, Ownable {... */\n  mstore(0x40, 0x80)\n    /* \"contracts/TaskControl.sol\":689:1076  constructor(address _redEnvelopeAddr,bool _allowBuyTicket,bool _allowSendTicket)... */\n  callvalue\n  dup1\n  iszero\n  tag_1\n  jumpi\n  0x00\n  dup1\n  revert\ntag_1:\n  pop\n  mload(0x40)\n  sub(codesize, bytecodeSize)\n  dup1\n  bytecodeSize\n  dup4\n  codecopy\n  dup2\n  add\n  0x40\n  dup2\n  swap1\n  mstore\n  tag_2\n  swap2\n  tag_3\n  jump\t// in\ntag_2:\n    /* \"contracts/TaskControl.sol\":843:853  msg.sender */\n  caller\n    /* \"@openzeppelin/contracts/token/ERC20/ERC20.sol\":1896:2009  constructor(string memory name_, string memory symbol_) {... */\n  mload(0x40)\n  dup1\n  0x40\n  add\n  0x40\n  mstore\n  dup1\n  0x0d\n  dup2\n  mstore\n  0x20\n  add\n  shl(0x9a, 0x1b1bdd1d195c9e551a58dad95d)\n  dup2\n  mstore\n  pop\n  mload(0x40)\n  dup1\n  0x40\n  add\n  0x40\n  mstore\n  dup1\n  0x06\n  dup2\n  mstore\n  0x20\n  add\n  shl(0xd2, 0x151a58dad95d)\n  dup2\n  mstore\n  pop\n    /* \"@openzeppelin/contracts/token/ERC20/ERC20.sol\":1970:1975  name_ */\n  dup2\n    /* \"@openzeppelin/contracts/token/ERC20/ERC20.sol\":1962:1967  _name */\n  0x03\n    /* \"@openzeppelin/contracts/token/ERC20/ERC20.sol\":1962:1975  _name = name_ */\n  swap1\n  dup2\n  tag_8\n  swap2\n  swap1\n  tag_9\n  jump\t// in\ntag_8:\n  pop\n    /* \"@openzeppelin/contracts/token/ERC20/ERC20.sol\":1985:1992  _symbol */\n  0x04\n    /* \"@openzeppelin/contracts/token/ERC20/ERC20.sol\":1985:2002  _symbol = symbol_ */\n  tag_10\n    /* \"@openzeppelin/contracts/token/ERC20/ERC20.sol\":1995:2002  symbol_ */\n  dup3\n    /* \"@openzeppelin/contracts/token/ERC20/ERC20.sol\":1985:1992  _symbol */\n  dup3\n    /* \"@openzeppelin/contracts/token/ERC20/ERC20.sol\":1985:2002  _symbol = symbol_ */\n  tag_9\n  jump\t// in\ntag_10:\n  pop\n  pop\n  pop\n  sub(shl(0xa0, 0x01), 0x01)\n    /* \"@openzeppelin/contracts/access/Ownable.sol\":1273:1299  initialOwner == address(0) */\n  dup2\n  and\n    /* \"@openzeppelin/contracts/access/Ownable.sol\":1269:1364  if (initialOwner == address(0)) {... */\n  tag_12\n  jumpi\n    /* \"@openzeppelin/contracts/access/Ownable.sol\":1322:1353  OwnableInvalidOwner(address(0)) */\n  mload(0x40)\n  shl(0xe0, 0x1e4fbdf7)\n  dup2\n  mstore\n    /* \"@openzeppelin/contracts/access/Ownable.sol\":1350:1351  0 */\n  0x00\n    /* \"@openzeppelin/contracts/access/Ownable.sol\":1322:1353  OwnableInvalidOwner(address(0)) */\n  0x04\n  dup3\n  add\n    /* \"#utility.yul\":3469:3520   */\n  mstore\n    /* \"#utility.yul\":3442:3460   */\n  0x24\n  add\n    /* \"@openzeppelin/contracts/access/Ownable.sol\":1322:1353  OwnableInvalidOwner(address(0)) */\n  mload(0x40)\n  dup1\n  swap2\n  sub\n  swap1\n  revert\n    /* \"@openzeppelin/contracts/access/Ownable.sol\":1269:1364  if (initialOwner == address(0)) {... */\ntag_12:\n    /* \"@openzeppelin/contracts/access/Ownable.sol\":1373:1405  _transferOwnership(initialOwner) */\n  tag_15\n    /* \"@openzeppelin/contracts/access/Ownable.sol\":1392:1404  initialOwner */\n  dup2\n    /* \"@openzeppelin/contracts/access/Ownable.sol\":1373:1391  _transferOwnership */\n  tag_16\n    /* \"@openzeppelin/contracts/access/Ownable.sol\":1373:1405  _transferOwnership(initialOwner) */\n  jump\t// in\ntag_15:\n  pop\n    /* \"contracts/TaskControl.sol\":937:952  redEnvelopeAddr */\n  0x06\n    /* \"contracts/TaskControl.sol\":937:971  redEnvelopeAddr = _redEnvelopeAddr */\n  dup1\n  sload\n    /* \"contracts/TaskControl.sol\":1031:1065  allowSendTicket = _allowSendTicket */\n  swap2\n  iszero\n  iszero\n  shl(0xa8, 0x01)\n  mul\n  not(shl(0xa8, 0xff))\n    /* \"contracts/TaskControl.sol\":985:1017  allowBuyTicket = _allowBuyTicket */\n  swap4\n  iszero\n  iszero\n  shl(0xa0, 0x01)\n  mul\n  not(sub(shl(0xa8, 0x01), 0x01))\n  swap1\n  swap4\n  and\n  sub(shl(0xa0, 0x01), 0x01)\n    /* \"contracts/TaskControl.sol\":937:971  redEnvelopeAddr = _redEnvelopeAddr */\n  swap1\n  swap6\n  and\n    /* \"contracts/TaskControl.sol\":985:1017  allowBuyTicket = _allowBuyTicket */\n  swap5\n  swap1\n  swap5\n  or\n  swap2\n  swap1\n  swap2\n  or\n    /* \"contracts/TaskControl.sol\":1031:1065  allowSendTicket = _allowSendTicket */\n  swap2\n  swap1\n  swap2\n  and\n  swap2\n  swap1\n  swap2\n  or\n  swap1\n  sstore\n    /* \"contracts/TaskControl.sol\":445:3087  contract TaskControl is ITaskControl,ERC20, ERC20Burnable, Ownable {... */\n  jump(tag_26)\n    /* \"@openzeppelin/contracts/access/Ownable.sol\":2912:3099  function _transferOwnership(address newOwner) internal virtual {... */\ntag_16:\n    /* \"@openzeppelin/contracts/access/Ownable.sol\":3004:3010  _owner */\n  0x05\n  dup1\n  sload\n  sub(shl(0xa0, 0x01), 0x01)\n    /* \"@openzeppelin/contracts/access/Ownable.sol\":3020:3037  _owner = newOwner */\n  dup4\n  dup2\n  and\n  not(sub(shl(0xa0, 0x01), 0x01))\n  dup4\n  and\n  dup2\n  or\n  swap1\n  swap4\n  sstore\n    /* \"@openzeppelin/contracts/access/Ownable.sol\":3052:3092  OwnershipTransferred(oldOwner, newOwner) */\n  mload(0x40)\n    /* \"@openzeppelin/contracts/access/Ownable.sol\":3004:3010  _owner */\n  swap2\n  and\n  swap2\n    /* \"@openzeppelin/contracts/access/Ownable.sol\":3020:3037  _owner = newOwner */\n  swap1\n    /* \"@openzeppelin/contracts/access/Ownable.sol\":3004:3010  _owner */\n  dup3\n  swap1\n    /* \"@openzeppelin/contracts/access/Ownable.sol\":3052:3092  OwnershipTransferred(oldOwner, newOwner) */\n  0x8be0079c531659141344cd1fd0a4f28419497f9722a3daafe3b4186f6b6457e0\n  swap1\n    /* \"@openzeppelin/contracts/access/Ownable.sol\":2985:3001  address oldOwner */\n  0x00\n  swap1\n    /* \"@openzeppelin/contracts/access/Ownable.sol\":3052:3092  OwnershipTransferred(oldOwner, newOwner) */\n  log3\n    /* \"@openzeppelin/contracts/access/Ownable.sol\":2975:3099  {... */\n  pop\n    /* \"@openzeppelin/contracts/access/Ownable.sol\":2912:3099  function _transferOwnership(address newOwner) internal virtual {... */\n  pop\n  jump\t// out\n    /* \"#utility.yul\":14:178   */\ntag_20:\n    /* \"#utility.yul\":90:103   */\n  dup1\n  mload\n    /* \"#utility.yul\":139:152   */\n  dup1\n  iszero\n    /* \"#utility.yul\":132:153   */\n  iszero\n    /* \"#utility.yul\":122:154   */\n  dup2\n  eq\n    /* \"#utility.yul\":112:172   */\n  tag_28\n  jumpi\n    /* \"#utility.yul\":168:169   */\n  0x00\n    /* \"#utility.yul\":165:166   */\n  dup1\n    /* \"#utility.yul\":158:170   */\n  revert\n    /* \"#utility.yul\":112:172   */\ntag_28:\n    /* \"#utility.yul\":14:178   */\n  swap2\n  swap1\n  pop\n  jump\t// out\n    /* \"#utility.yul\":183:631   */\ntag_3:\n    /* \"#utility.yul\":265:271   */\n  0x00\n    /* \"#utility.yul\":273:279   */\n  dup1\n    /* \"#utility.yul\":281:287   */\n  0x00\n    /* \"#utility.yul\":334:336   */\n  0x60\n    /* \"#utility.yul\":322:331   */\n  dup5\n    /* \"#utility.yul\":313:320   */\n  dup7\n    /* \"#utility.yul\":309:332   */\n  sub\n    /* \"#utility.yul\":305:337   */\n  slt\n    /* \"#utility.yul\":302:354   */\n  iszero\n  tag_30\n  jumpi\n    /* \"#utility.yul\":350:351   */\n  0x00\n    /* \"#utility.yul\":347:348   */\n  dup1\n    /* \"#utility.yul\":340:352   */\n  revert\n    /* \"#utility.yul\":302:354   */\ntag_30:\n    /* \"#utility.yul\":376:392   */\n  dup4\n  mload\n  sub(shl(0xa0, 0x01), 0x01)\n    /* \"#utility.yul\":421:452   */\n  dup2\n  and\n    /* \"#utility.yul\":411:453   */\n  dup2\n  eq\n    /* \"#utility.yul\":401:471   */\n  tag_31\n  jumpi\n    /* \"#utility.yul\":467:468   */\n  0x00\n    /* \"#utility.yul\":464:465   */\n  dup1\n    /* \"#utility.yul\":457:469   */\n  revert\n    /* \"#utility.yul\":401:471   */\ntag_31:\n    /* \"#utility.yul\":490:495   */\n  swap3\n  pop\n    /* \"#utility.yul\":514:560   */\n  tag_32\n    /* \"#utility.yul\":556:558   */\n  0x20\n    /* \"#utility.yul\":541:559   */\n  dup6\n  add\n    /* \"#utility.yul\":514:560   */\n  tag_20\n  jump\t// in\ntag_32:\n    /* \"#utility.yul\":504:560   */\n  swap2\n  pop\n    /* \"#utility.yul\":579:625   */\n  tag_33\n    /* \"#utility.yul\":621:623   */\n  0x40\n    /* \"#utility.yul\":610:619   */\n  dup6\n    /* \"#utility.yul\":606:624   */\n  add\n    /* \"#utility.yul\":579:625   */\n  tag_20\n  jump\t// in\ntag_33:\n    /* \"#utility.yul\":569:625   */\n  swap1\n  pop\n    /* \"#utility.yul\":183:631   */\n  swap3\n  pop\n  swap3\n  pop\n  swap3\n  jump\t// out\n    /* \"#utility.yul\":636:763   */\ntag_21:\n    /* \"#utility.yul\":697:707   */\n  0x4e487b71\n    /* \"#utility.yul\":692:695   */\n  0xe0\n    /* \"#utility.yul\":688:708   */\n  shl\n    /* \"#utility.yul\":685:686   */\n  0x00\n    /* \"#utility.yul\":678:709   */\n  mstore\n    /* \"#utility.yul\":728:732   */\n  0x41\n    /* \"#utility.yul\":725:726   */\n  0x04\n    /* \"#utility.yul\":718:733   */\n  mstore\n    /* \"#utility.yul\":752:756   */\n  0x24\n    /* \"#utility.yul\":749:750   */\n  0x00\n    /* \"#utility.yul\":742:757   */\n  revert\n    /* \"#utility.yul\":768:1148   */\ntag_22:\n    /* \"#utility.yul\":847:848   */\n  0x01\n    /* \"#utility.yul\":843:855   */\n  dup2\n  dup2\n  shr\n  swap1\n    /* \"#utility.yul\":890:902   */\n  dup3\n  and\n  dup1\n    /* \"#utility.yul\":911:972   */\n  tag_36\n  jumpi\n    /* \"#utility.yul\":965:969   */\n  0x7f\n    /* \"#utility.yul\":957:963   */\n  dup3\n    /* \"#utility.yul\":953:970   */\n  and\n    /* \"#utility.yul\":943:970   */\n  swap2\n  pop\n    /* \"#utility.yul\":911:972   */\ntag_36:\n    /* \"#utility.yul\":1018:1020   */\n  0x20\n    /* \"#utility.yul\":1010:1016   */\n  dup3\n    /* \"#utility.yul\":1007:1021   */\n  lt\n    /* \"#utility.yul\":987:1005   */\n  dup2\n    /* \"#utility.yul\":984:1022   */\n  sub\n    /* \"#utility.yul\":981:1142   */\n  tag_37\n  jumpi\n    /* \"#utility.yul\":1064:1074   */\n  0x4e487b71\n    /* \"#utility.yul\":1059:1062   */\n  0xe0\n    /* \"#utility.yul\":1055:1075   */\n  shl\n    /* \"#utility.yul\":1052:1053   */\n  0x00\n    /* \"#utility.yul\":1045:1076   */\n  mstore\n    /* \"#utility.yul\":1099:1103   */\n  0x22\n    /* \"#utility.yul\":1096:1097   */\n  0x04\n    /* \"#utility.yul\":1089:1104   */\n  mstore\n    /* \"#utility.yul\":1127:1131   */\n  0x24\n    /* \"#utility.yul\":1124:1125   */\n  0x00\n    /* \"#utility.yul\":1117:1132   */\n  revert\n    /* \"#utility.yul\":981:1142   */\ntag_37:\n  pop\n    /* \"#utility.yul\":768:1148   */\n  swap2\n  swap1\n  pop\n  jump\t// out\n    /* \"#utility.yul\":1279:1797   */\ntag_24:\n    /* \"#utility.yul\":1381:1383   */\n  0x1f\n    /* \"#utility.yul\":1376:1379   */\n  dup3\n    /* \"#utility.yul\":1373:1384   */\n  gt\n    /* \"#utility.yul\":1370:1791   */\n  iszero\n  tag_40\n  jumpi\n    /* \"#utility.yul\":1417:1422   */\n  dup1\n    /* \"#utility.yul\":1414:1415   */\n  0x00\n    /* \"#utility.yul\":1407:1423   */\n  mstore\n    /* \"#utility.yul\":1461:1465   */\n  0x20\n    /* \"#utility.yul\":1458:1459   */\n  0x00\n    /* \"#utility.yul\":1448:1466   */\n  keccak256\n    /* \"#utility.yul\":1531:1533   */\n  0x1f\n    /* \"#utility.yul\":1519:1529   */\n  dup5\n    /* \"#utility.yul\":1515:1534   */\n  add\n    /* \"#utility.yul\":1512:1513   */\n  0x05\n    /* \"#utility.yul\":1508:1535   */\n  shr\n    /* \"#utility.yul\":1502:1506   */\n  dup2\n    /* \"#utility.yul\":1498:1536   */\n  add\n    /* \"#utility.yul\":1567:1571   */\n  0x20\n    /* \"#utility.yul\":1555:1565   */\n  dup6\n    /* \"#utility.yul\":1552:1572   */\n  lt\n    /* \"#utility.yul\":1549:1596   */\n  iszero\n  tag_41\n  jumpi\n  pop\n    /* \"#utility.yul\":1590:1594   */\n  dup1\n    /* \"#utility.yul\":1549:1596   */\ntag_41:\n    /* \"#utility.yul\":1645:1647   */\n  0x1f\n    /* \"#utility.yul\":1640:1643   */\n  dup5\n    /* \"#utility.yul\":1636:1648   */\n  add\n    /* \"#utility.yul\":1633:1634   */\n  0x05\n    /* \"#utility.yul\":1629:1649   */\n  shr\n    /* \"#utility.yul\":1623:1627   */\n  dup3\n    /* \"#utility.yul\":1619:1650   */\n  add\n    /* \"#utility.yul\":1609:1650   */\n  swap2\n  pop\n    /* \"#utility.yul\":1700:1781   */\ntag_42:\n    /* \"#utility.yul\":1718:1720   */\n  dup2\n    /* \"#utility.yul\":1711:1716   */\n  dup2\n    /* \"#utility.yul\":1708:1721   */\n  lt\n    /* \"#utility.yul\":1700:1781   */\n  iszero\n  tag_44\n  jumpi\n    /* \"#utility.yul\":1777:1778   */\n  0x00\n    /* \"#utility.yul\":1763:1779   */\n  dup2\n  sstore\n    /* \"#utility.yul\":1744:1745   */\n  0x01\n    /* \"#utility.yul\":1733:1746   */\n  add\n    /* \"#utility.yul\":1700:1781   */\n  jump(tag_42)\ntag_44:\n    /* \"#utility.yul\":1704:1707   */\n  pop\n  pop\n    /* \"#utility.yul\":1370:1791   */\ntag_40:\n    /* \"#utility.yul\":1279:1797   */\n  pop\n  pop\n  pop\n  jump\t// out\n    /* \"#utility.yul\":1973:3318   */\ntag_9:\n    /* \"#utility.yul\":2093:2103   */\n  dup2\n  mload\n  sub(shl(0x40, 0x01), 0x01)\n    /* \"#utility.yul\":2115:2145   */\n  dup2\n  gt\n    /* \"#utility.yul\":2112:2168   */\n  iszero\n  tag_48\n  jumpi\n    /* \"#utility.yul\":2148:2166   */\n  tag_48\n  tag_21\n  jump\t// in\ntag_48:\n    /* \"#utility.yul\":2177:2274   */\n  tag_49\n    /* \"#utility.yul\":2267:2273   */\n  dup2\n    /* \"#utility.yul\":2227:2265   */\n  tag_50\n    /* \"#utility.yul\":2259:2263   */\n  dup5\n    /* \"#utility.yul\":2253:2264   */\n  sload\n    /* \"#utility.yul\":2227:2265   */\n  tag_22\n  jump\t// in\ntag_50:\n    /* \"#utility.yul\":2221:2225   */\n  dup5\n    /* \"#utility.yul\":2177:2274   */\n  tag_24\n  jump\t// in\ntag_49:\n    /* \"#utility.yul\":2329:2333   */\n  0x20\n  dup1\n    /* \"#utility.yul\":2386:2388   */\n  0x1f\n    /* \"#utility.yul\":2375:2389   */\n  dup4\n  gt\n    /* \"#utility.yul\":2403:2404   */\n  0x01\n    /* \"#utility.yul\":2398:3061   */\n  dup2\n  eq\n  tag_52\n  jumpi\n    /* \"#utility.yul\":3105:3106   */\n  0x00\n    /* \"#utility.yul\":3122:3128   */\n  dup5\n    /* \"#utility.yul\":3119:3208   */\n  iszero\n  tag_53\n  jumpi\n  pop\n    /* \"#utility.yul\":3174:3193   */\n  dup6\n  dup4\n  add\n    /* \"#utility.yul\":3168:3194   */\n  mload\n    /* \"#utility.yul\":3119:3208   */\ntag_53:\n  not(0x00)\n    /* \"#utility.yul\":1930:1931   */\n  0x03\n    /* \"#utility.yul\":1926:1937   */\n  dup7\n  swap1\n  shl\n    /* \"#utility.yul\":1922:1946   */\n  shr\n    /* \"#utility.yul\":1918:1947   */\n  not\n    /* \"#utility.yul\":1908:1948   */\n  and\n    /* \"#utility.yul\":1954:1955   */\n  0x01\n    /* \"#utility.yul\":1950:1961   */\n  dup6\n  swap1\n  shl\n    /* \"#utility.yul\":1905:1962   */\n  or\n    /* \"#utility.yul\":3221:3302   */\n  dup6\n  sstore\n    /* \"#utility.yul\":2368:3312   */\n  jump(tag_51)\n    /* \"#utility.yul\":2398:3061   */\ntag_52:\n    /* \"#utility.yul\":1226:1227   */\n  0x00\n    /* \"#utility.yul\":1219:1233   */\n  dup6\n  dup2\n  mstore\n    /* \"#utility.yul\":1263:1267   */\n  0x20\n    /* \"#utility.yul\":1250:1268   */\n  dup2\n  keccak256\n  not(0x1f)\n    /* \"#utility.yul\":2434:2454   */\n  dup7\n  and\n  swap2\n    /* \"#utility.yul\":2552:2788   */\ntag_56:\n    /* \"#utility.yul\":2566:2573   */\n  dup3\n    /* \"#utility.yul\":2563:2564   */\n  dup2\n    /* \"#utility.yul\":2560:2574   */\n  lt\n    /* \"#utility.yul\":2552:2788   */\n  iszero\n  tag_58\n  jumpi\n    /* \"#utility.yul\":2655:2674   */\n  dup9\n  dup7\n  add\n    /* \"#utility.yul\":2649:2675   */\n  mload\n    /* \"#utility.yul\":2634:2676   */\n  dup3\n  sstore\n    /* \"#utility.yul\":2747:2774   */\n  swap5\n  dup5\n  add\n  swap5\n    /* \"#utility.yul\":2715:2716   */\n  0x01\n    /* \"#utility.yul\":2703:2717   */\n  swap1\n  swap2\n  add\n  swap1\n    /* \"#utility.yul\":2582:2601   */\n  dup5\n  add\n    /* \"#utility.yul\":2552:2788   */\n  jump(tag_56)\ntag_58:\n    /* \"#utility.yul\":2556:2559   */\n  pop\n    /* \"#utility.yul\":2816:2822   */\n  dup6\n    /* \"#utility.yul\":2807:2814   */\n  dup3\n    /* \"#utility.yul\":2804:2823   */\n  lt\n    /* \"#utility.yul\":2801:3002   */\n  iszero\n  tag_59\n  jumpi\n    /* \"#utility.yul\":2877:2896   */\n  dup8\n  dup6\n  add\n    /* \"#utility.yul\":2871:2897   */\n  mload\n  not(0x00)\n    /* \"#utility.yul\":2960:2961   */\n  0x03\n    /* \"#utility.yul\":2956:2970   */\n  dup9\n  swap1\n  shl\n    /* \"#utility.yul\":2972:2975   */\n  0xf8\n    /* \"#utility.yul\":2952:2976   */\n  and\n    /* \"#utility.yul\":2948:2985   */\n  shr\n    /* \"#utility.yul\":2944:2986   */\n  not\n    /* \"#utility.yul\":2929:2987   */\n  and\n    /* \"#utility.yul\":2914:2988   */\n  dup2\n  sstore\n    /* \"#utility.yul\":2801:3002   */\ntag_59:\n  pop\n  pop\n    /* \"#utility.yul\":3048:3049   */\n  0x01\n    /* \"#utility.yul\":3039:3045   */\n  dup5\n    /* \"#utility.yul\":3036:3037   */\n  0x01\n    /* \"#utility.yul\":3032:3046   */\n  shl\n    /* \"#utility.yul\":3028:3050   */\n  add\n    /* \"#utility.yul\":3022:3026   */\n  dup6\n    /* \"#utility.yul\":3015:3051   */\n  sstore\n    /* \"#utility.yul\":2368:3312   */\ntag_51:\n  pop\n  pop\n  pop\n  pop\n    /* \"#utility.yul\":1973:3318   */\n  pop\n  pop\n  jump\t// out\n    /* \"#utility.yul\":3323:3526   */\ntag_26:\n    /* \"contracts/TaskControl.sol\":445:3087  contract TaskControl is ITaskControl,ERC20, ERC20Burnable, Ownable {... */\n  dataSize(sub_0)\n  dup1\n  dataOffset(sub_0)\n  0x00\n  codecopy\n  0x00\n  return\nstop\n\nsub_0: assembly {\n        /* \"contracts/TaskControl.sol\":445:3087  contract TaskControl is ITaskControl,ERC20, ERC20Burnable, Ownable {... */\n      mstore(0x40, 0x80)\n      callvalue\n      dup1\n      iszero\n      tag_1\n      jumpi\n      0x00\n      dup1\n      revert\n    tag_1:\n      pop\n      jumpi(tag_2, lt(calldatasize, 0x04))\n      shr(0xe0, calldataload(0x00))\n      dup1\n      0x70a08231\n      gt\n      tag_25\n      jumpi\n      dup1\n      0xa9059cbb\n      gt\n      tag_26\n      jumpi\n      dup1\n      0xa9059cbb\n      eq\n      tag_19\n      jumpi\n      dup1\n      0xb4309a9c\n      eq\n      tag_20\n      jumpi\n      dup1\n      0xc7ff23bb\n      eq\n      tag_21\n      jumpi\n      dup1\n      0xd9caed12\n      eq\n      tag_22\n      jumpi\n      dup1\n      0xdd62ed3e\n      eq\n      tag_23\n      jumpi\n      dup1\n      0xf2fde38b\n      eq\n      tag_24\n      jumpi\n      0x00\n      dup1\n      revert\n    tag_26:\n      dup1\n      0x70a08231\n      eq\n      tag_14\n      jumpi\n      dup1\n      0x715018a6\n      eq\n      tag_15\n      jumpi\n      dup1\n      0x79cc6790\n      eq\n      tag_16\n      jumpi\n      dup1\n      0x8da5cb5b\n      eq\n      tag_17\n      jumpi\n      dup1\n      0x95d89b41\n      eq\n      tag_18\n      jumpi\n      0x00\n      dup1\n      revert\n    tag_25:\n      dup1\n      0x18160ddd\n      gt\n      tag_27\n      jumpi\n      dup1\n      0x18160ddd\n      eq\n      tag_8\n      jumpi\n      dup1\n      0x1bf69970\n      eq\n      tag_9\n      jumpi\n      dup1\n      0x23b872dd\n      eq\n      tag_10\n      jumpi\n      dup1\n      0x313ce567\n      eq\n      tag_11\n      jumpi\n      dup1\n      0x42966c68\n      eq\n      tag_12\n      jumpi\n      dup1\n      0x6ebd327b\n      eq\n      tag_13\n      jumpi\n      0x00\n      dup1\n      revert\n    tag_27:\n      dup1\n      0x012c911e\n      eq\n      tag_3\n      jumpi\n      dup1\n      0x06e2a29a\n      eq\n      tag_4\n      jumpi\n      dup1\n      0x06fdde03\n      eq\n      tag_5\n      jumpi\n      dup1\n      0x082921a5\n      eq\n      tag_6\n      jumpi\n      dup1\n      0x095ea7b3\n      eq\n      tag_7\n      jumpi\n    tag_2:\n      0x00\n      dup1\n      revert\n        /* \"contracts/TaskControl.sol\":2500:2691  function getTicket(uint256 _id,address _receiveAddress,uint256 _ticketNumbers)external{... */\n    tag_3:\n      tag_28\n      tag_29\n      calldatasize\n      0x04\n      tag_30\n      jump\t// in\n    tag_29:\n      tag_31\n      jump\t// in\n    tag_28:\n      stop\n        /* \"contracts/TaskControl.sol\":598:625  bool public allowSendTicket */\n    tag_4:\n      sload(0x06)\n      tag_32\n      swap1\n      shl(0xa8, 0x01)\n      swap1\n      div\n      0xff\n      and\n      dup2\n      jump\n    tag_32:\n      mload(0x40)\n        /* \"#utility.yul\":703:717   */\n      swap1\n      iszero\n        /* \"#utility.yul\":696:718   */\n      iszero\n        /* \"#utility.yul\":678:719   */\n      dup2\n      mstore\n        /* \"#utility.yul\":666:668   */\n      0x20\n        /* \"#utility.yul\":651:669   */\n      add\n        /* \"contracts/TaskControl.sol\":598:625  bool public allowSendTicket */\n    tag_34:\n      mload(0x40)\n      dup1\n      swap2\n      sub\n      swap1\n      return\n        /* \"@openzeppelin/contracts/token/ERC20/ERC20.sol\":2074:2163  function name() public view virtual returns (string memory) {... */\n    tag_5:\n      tag_36\n      tag_37\n      jump\t// in\n    tag_36:\n      mload(0x40)\n      tag_34\n      swap2\n      swap1\n      tag_39\n      jump\t// in\n        /* \"contracts/TaskControl.sol\":1194:1315  function setTask(address _taskAddr,uint256 _weight)external onlyOwner{... */\n    tag_6:\n      tag_28\n      tag_41\n      calldatasize\n      0x04\n      tag_42\n      jump\t// in\n    tag_41:\n      tag_43\n      jump\t// in\n        /* \"@openzeppelin/contracts/token/ERC20/ERC20.sol\":4293:4479  function approve(address spender, uint256 value) public virtual returns (bool) {... */\n    tag_7:\n      tag_32\n      tag_45\n      calldatasize\n      0x04\n      tag_42\n      jump\t// in\n    tag_45:\n      tag_46\n      jump\t// in\n        /* \"@openzeppelin/contracts/token/ERC20/ERC20.sol\":3144:3241  function totalSupply() public view virtual returns (uint256) {... */\n    tag_8:\n        /* \"@openzeppelin/contracts/token/ERC20/ERC20.sol\":3222:3234  _totalSupply */\n      sload(0x02)\n        /* \"@openzeppelin/contracts/token/ERC20/ERC20.sol\":3144:3241  function totalSupply() public view virtual returns (uint256) {... */\n    tag_48:\n      mload(0x40)\n        /* \"#utility.yul\":1619:1644   */\n      swap1\n      dup2\n      mstore\n        /* \"#utility.yul\":1607:1609   */\n      0x20\n        /* \"#utility.yul\":1592:1610   */\n      add\n        /* \"@openzeppelin/contracts/token/ERC20/ERC20.sol\":3144:3241  function totalSupply() public view virtual returns (uint256) {... */\n      tag_34\n        /* \"#utility.yul\":1473:1650   */\n      jump\n        /* \"contracts/TaskControl.sol\":1326:1660  function mintToken(address _taskAddr,address _receiveAddress,uint256 _value,bytes calldata _data) external {... */\n    tag_9:\n      tag_28\n      tag_53\n      calldatasize\n      0x04\n      tag_54\n      jump\t// in\n    tag_53:\n      tag_55\n      jump\t// in\n        /* \"@openzeppelin/contracts/token/ERC20/ERC20.sol\":5039:5283  function transferFrom(address from, address to, uint256 value) public virtual returns (bool) {... */\n    tag_10:\n      tag_32\n      tag_57\n      calldatasize\n      0x04\n      tag_58\n      jump\t// in\n    tag_57:\n      tag_59\n      jump\t// in\n        /* \"contracts/TaskControl.sol\":1086:1184  function decimals() public view override virtual returns (uint8) {... */\n    tag_11:\n      mload(0x40)\n        /* \"contracts/TaskControl.sol\":1144:1149  uint8 */\n      0x00\n        /* \"#utility.yul\":3199:3235   */\n      dup2\n      mstore\n        /* \"#utility.yul\":3187:3189   */\n      0x20\n        /* \"#utility.yul\":3172:3190   */\n      add\n        /* \"contracts/TaskControl.sol\":1086:1184  function decimals() public view override virtual returns (uint8) {... */\n      tag_34\n        /* \"#utility.yul\":3057:3241   */\n      jump\n        /* \"@openzeppelin/contracts/token/ERC20/extensions/ERC20Burnable.sol\":618:705  function burn(uint256 value) public virtual {... */\n    tag_12:\n      tag_28\n      tag_66\n      calldatasize\n      0x04\n      tag_67\n      jump\t// in\n    tag_66:\n      tag_68\n      jump\t// in\n        /* \"contracts/TaskControl.sol\":2700:2933  function getTicketFrom(uint256 _id,address _fromAddress,address _receiveAddress,uint256 _ticketNumbers)external{... */\n    tag_13:\n      tag_28\n      tag_70\n      calldatasize\n      0x04\n      tag_71\n      jump\t// in\n    tag_70:\n      tag_72\n      jump\t// in\n        /* \"@openzeppelin/contracts/token/ERC20/ERC20.sol\":3299:3415  function balanceOf(address account) public view virtual returns (uint256) {... */\n    tag_14:\n      tag_48\n      tag_74\n      calldatasize\n      0x04\n      tag_75\n      jump\t// in\n    tag_74:\n      sub(shl(0xa0, 0x01), 0x01)\n        /* \"@openzeppelin/contracts/token/ERC20/ERC20.sol\":3390:3408  _balances[account] */\n      and\n        /* \"@openzeppelin/contracts/token/ERC20/ERC20.sol\":3364:3371  uint256 */\n      0x00\n        /* \"@openzeppelin/contracts/token/ERC20/ERC20.sol\":3390:3408  _balances[account] */\n      swap1\n      dup2\n      mstore\n      0x20\n      dup2\n      swap1\n      mstore\n      0x40\n      swap1\n      keccak256\n      sload\n      swap1\n        /* \"@openzeppelin/contracts/token/ERC20/ERC20.sol\":3299:3415  function balanceOf(address account) public view virtual returns (uint256) {... */\n      jump\n        /* \"@openzeppelin/contracts/access/Ownable.sol\":2293:2394  function renounceOwnership() public virtual onlyOwner {... */\n    tag_15:\n      tag_28\n      tag_79\n      jump\t// in\n        /* \"@openzeppelin/contracts/token/ERC20/extensions/ERC20Burnable.sol\":1021:1179  function burnFrom(address account, uint256 value) public virtual {... */\n    tag_16:\n      tag_28\n      tag_81\n      calldatasize\n      0x04\n      tag_42\n      jump\t// in\n    tag_81:\n      tag_82\n      jump\t// in\n        /* \"@openzeppelin/contracts/access/Ownable.sol\":1638:1723  function owner() public view virtual returns (address) {... */\n    tag_17:\n        /* \"@openzeppelin/contracts/access/Ownable.sol\":1710:1716  _owner */\n      and(sub(shl(0xa0, 0x01), 0x01), sload(0x05))\n        /* \"@openzeppelin/contracts/access/Ownable.sol\":1638:1723  function owner() public view virtual returns (address) {... */\n    tag_83:\n      mload(0x40)\n      sub(shl(0xa0, 0x01), 0x01)\n        /* \"#utility.yul\":4377:4409   */\n      swap1\n      swap2\n      and\n        /* \"#utility.yul\":4359:4410   */\n      dup2\n      mstore\n        /* \"#utility.yul\":4347:4349   */\n      0x20\n        /* \"#utility.yul\":4332:4350   */\n      add\n        /* \"@openzeppelin/contracts/access/Ownable.sol\":1638:1723  function owner() public view virtual returns (address) {... */\n      tag_34\n        /* \"#utility.yul\":4213:4416   */\n      jump\n        /* \"@openzeppelin/contracts/token/ERC20/ERC20.sol\":2276:2369  function symbol() public view virtual returns (string memory) {... */\n    tag_18:\n      tag_36\n      tag_88\n      jump\t// in\n        /* \"@openzeppelin/contracts/token/ERC20/ERC20.sol\":3610:3788  function transfer(address to, uint256 value) public virtual returns (bool) {... */\n    tag_19:\n      tag_32\n      tag_91\n      calldatasize\n      0x04\n      tag_42\n      jump\t// in\n    tag_91:\n      tag_92\n      jump\t// in\n        /* \"contracts/TaskControl.sol\":562:588  bool public allowBuyTicket */\n    tag_20:\n      sload(0x06)\n      tag_32\n      swap1\n      shl(0xa0, 0x01)\n      swap1\n      div\n      0xff\n      and\n      dup2\n      jump\n        /* \"contracts/TaskControl.sol\":522:552  address public redEnvelopeAddr */\n    tag_21:\n      sload(0x06)\n      tag_83\n      swap1\n      sub(shl(0xa0, 0x01), 0x01)\n      and\n      dup2\n      jump\n        /* \"contracts/TaskControl.sol\":2943:3081  function withdraw(address _token,address _to,uint256 _value)external onlyOwner{... */\n    tag_22:\n      tag_28\n      tag_101\n      calldatasize\n      0x04\n      tag_58\n      jump\t// in\n    tag_101:\n      tag_102\n      jump\t// in\n        /* \"@openzeppelin/contracts/token/ERC20/ERC20.sol\":3846:3986  function allowance(address owner, address spender) public view virtual returns (uint256) {... */\n    tag_23:\n      tag_48\n      tag_104\n      calldatasize\n      0x04\n      tag_105\n      jump\t// in\n    tag_104:\n      sub(shl(0xa0, 0x01), 0x01)\n        /* \"@openzeppelin/contracts/token/ERC20/ERC20.sol\":3952:3970  _allowances[owner] */\n      swap2\n      dup3\n      and\n        /* \"@openzeppelin/contracts/token/ERC20/ERC20.sol\":3926:3933  uint256 */\n      0x00\n        /* \"@openzeppelin/contracts/token/ERC20/ERC20.sol\":3952:3970  _allowances[owner] */\n      swap1\n      dup2\n      mstore\n        /* \"@openzeppelin/contracts/token/ERC20/ERC20.sol\":3952:3963  _allowances */\n      0x01\n        /* \"@openzeppelin/contracts/token/ERC20/ERC20.sol\":3952:3970  _allowances[owner] */\n      0x20\n      swap1\n      dup2\n      mstore\n      0x40\n      dup1\n      dup4\n      keccak256\n        /* \"@openzeppelin/contracts/token/ERC20/ERC20.sol\":3952:3979  _allowances[owner][spender] */\n      swap4\n      swap1\n      swap5\n      and\n      dup3\n      mstore\n      swap2\n      swap1\n      swap2\n      mstore\n      keccak256\n      sload\n      swap1\n        /* \"@openzeppelin/contracts/token/ERC20/ERC20.sol\":3846:3986  function allowance(address owner, address spender) public view virtual returns (uint256) {... */\n      jump\n        /* \"@openzeppelin/contracts/access/Ownable.sol\":2543:2758  function transferOwnership(address newOwner) public virtual onlyOwner {... */\n    tag_24:\n      tag_28\n      tag_109\n      calldatasize\n      0x04\n      tag_75\n      jump\t// in\n    tag_109:\n      tag_110\n      jump\t// in\n        /* \"contracts/TaskControl.sol\":2500:2691  function getTicket(uint256 _id,address _receiveAddress,uint256 _ticketNumbers)external{... */\n    tag_31:\n        /* \"contracts/TaskControl.sol\":2600:2620  burn(_ticketNumbers) */\n      tag_112\n        /* \"contracts/TaskControl.sol\":2605:2619  _ticketNumbers */\n      dup2\n        /* \"contracts/TaskControl.sol\":2600:2604  burn */\n      tag_68\n        /* \"contracts/TaskControl.sol\":2600:2620  burn(_ticketNumbers) */\n      jump\t// in\n    tag_112:\n        /* \"contracts/TaskControl.sol\":2634:2680  _getTicket(_id,_receiveAddress,_ticketNumbers) */\n      tag_113\n        /* \"contracts/TaskControl.sol\":2645:2648  _id */\n      dup4\n        /* \"contracts/TaskControl.sol\":2649:2664  _receiveAddress */\n      dup4\n        /* \"contracts/TaskControl.sol\":2665:2679  _ticketNumbers */\n      dup4\n        /* \"contracts/TaskControl.sol\":2634:2644  _getTicket */\n      tag_114\n        /* \"contracts/TaskControl.sol\":2634:2680  _getTicket(_id,_receiveAddress,_ticketNumbers) */\n      jump\t// in\n    tag_113:\n        /* \"contracts/TaskControl.sol\":2500:2691  function getTicket(uint256 _id,address _receiveAddress,uint256 _ticketNumbers)external{... */\n      pop\n      pop\n      pop\n      jump\t// out\n        /* \"@openzeppelin/contracts/token/ERC20/ERC20.sol\":2074:2163  function name() public view virtual returns (string memory) {... */\n    tag_37:\n        /* \"@openzeppelin/contracts/token/ERC20/ERC20.sol\":2119:2132  string memory */\n      0x60\n        /* \"@openzeppelin/contracts/token/ERC20/ERC20.sol\":2151:2156  _name */\n      0x03\n        /* \"@openzeppelin/contracts/token/ERC20/ERC20.sol\":2144:2156  return _name */\n      dup1\n      sload\n      tag_116\n      swap1\n      tag_117\n      jump\t// in\n    tag_116:\n      dup1\n      0x1f\n      add\n      0x20\n      dup1\n      swap2\n      div\n      mul\n      0x20\n      add\n      mload(0x40)\n      swap1\n      dup2\n      add\n      0x40\n      mstore\n      dup1\n      swap3\n      swap2\n      swap1\n      dup2\n      dup2\n      mstore\n      0x20\n      add\n      dup3\n      dup1\n      sload\n      tag_118\n      swap1\n      tag_117\n      jump\t// in\n    tag_118:\n      dup1\n      iszero\n      tag_119\n      jumpi\n      dup1\n      0x1f\n      lt\n      tag_120\n      jumpi\n      0x0100\n      dup1\n      dup4\n      sload\n      div\n      mul\n      dup4\n      mstore\n      swap2\n      0x20\n      add\n      swap2\n      jump(tag_119)\n    tag_120:\n      dup3\n      add\n      swap2\n      swap1\n      0x00\n      mstore\n      keccak256(0x00, 0x20)\n      swap1\n    tag_121:\n      dup2\n      sload\n      dup2\n      mstore\n      swap1\n      0x01\n      add\n      swap1\n      0x20\n      add\n      dup1\n      dup4\n      gt\n      tag_121\n      jumpi\n      dup3\n      swap1\n      sub\n      0x1f\n      and\n      dup3\n      add\n      swap2\n    tag_119:\n      pop\n      pop\n      pop\n      pop\n      pop\n      swap1\n      pop\n        /* \"@openzeppelin/contracts/token/ERC20/ERC20.sol\":2074:2163  function name() public view virtual returns (string memory) {... */\n      swap1\n      jump\t// out\n        /* \"contracts/TaskControl.sol\":1194:1315  function setTask(address _taskAddr,uint256 _weight)external onlyOwner{... */\n    tag_43:\n        /* \"@openzeppelin/contracts/access/Ownable.sol\":1531:1544  _checkOwner() */\n      tag_123\n        /* \"@openzeppelin/contracts/access/Ownable.sol\":1531:1542  _checkOwner */\n      tag_124\n        /* \"@openzeppelin/contracts/access/Ownable.sol\":1531:1544  _checkOwner() */\n      jump\t// in\n    tag_123:\n      sub(shl(0xa0, 0x01), 0x01)\n        /* \"contracts/TaskControl.sol\":1277:1294  _tasks[_taskAddr] */\n      swap1\n      swap2\n      and\n      0x00\n      swap1\n      dup2\n      mstore\n        /* \"contracts/TaskControl.sol\":1277:1283  _tasks */\n      0x07\n        /* \"contracts/TaskControl.sol\":1277:1294  _tasks[_taskAddr] */\n      0x20\n      mstore\n      0x40\n      swap1\n      keccak256\n        /* \"contracts/TaskControl.sol\":1277:1304  _tasks[_taskAddr] = _weight */\n      sstore\n        /* \"contracts/TaskControl.sol\":1194:1315  function setTask(address _taskAddr,uint256 _weight)external onlyOwner{... */\n      jump\t// out\n        /* \"@openzeppelin/contracts/token/ERC20/ERC20.sol\":4293:4479  function approve(address spender, uint256 value) public virtual returns (bool) {... */\n    tag_46:\n        /* \"@openzeppelin/contracts/token/ERC20/ERC20.sol\":4366:4370  bool */\n      0x00\n        /* \"@openzeppelin/contracts/utils/Context.sol\":735:745  msg.sender */\n      caller\n        /* \"@openzeppelin/contracts/token/ERC20/ERC20.sol\":4420:4451  _approve(owner, spender, value) */\n      tag_129\n        /* \"@openzeppelin/contracts/utils/Context.sol\":735:745  msg.sender */\n      dup2\n        /* \"@openzeppelin/contracts/token/ERC20/ERC20.sol\":4436:4443  spender */\n      dup6\n        /* \"@openzeppelin/contracts/token/ERC20/ERC20.sol\":4445:4450  value */\n      dup6\n        /* \"@openzeppelin/contracts/token/ERC20/ERC20.sol\":4420:4428  _approve */\n      tag_130\n        /* \"@openzeppelin/contracts/token/ERC20/ERC20.sol\":4420:4451  _approve(owner, spender, value) */\n      jump\t// in\n    tag_129:\n        /* \"@openzeppelin/contracts/token/ERC20/ERC20.sol\":4468:4472  true */\n      0x01\n        /* \"@openzeppelin/contracts/token/ERC20/ERC20.sol\":4461:4472  return true */\n      swap2\n      pop\n      pop\n        /* \"@openzeppelin/contracts/token/ERC20/ERC20.sol\":4293:4479  function approve(address spender, uint256 value) public virtual returns (bool) {... */\n    tag_126:\n      swap3\n      swap2\n      pop\n      pop\n      jump\t// out\n        /* \"contracts/TaskControl.sol\":1326:1660  function mintToken(address _taskAddr,address _receiveAddress,uint256 _value,bytes calldata _data) external {... */\n    tag_55:\n      sub(shl(0xa0, 0x01), 0x01)\n        /* \"contracts/TaskControl.sol\":1455:1472  _tasks[_taskAddr] */\n      dup6\n      and\n      0x00\n      swap1\n      dup2\n      mstore\n        /* \"contracts/TaskControl.sol\":1455:1461  _tasks */\n      0x07\n        /* \"contracts/TaskControl.sol\":1455:1472  _tasks[_taskAddr] */\n      0x20\n      mstore\n      0x40\n      dup2\n      keccak256\n      sload\n        /* \"contracts/TaskControl.sol\":1455:1477  _tasks[_taskAddr] != 0 */\n      swap1\n      sub\n        /* \"contracts/TaskControl.sol\":1447:1495  require(_tasks[_taskAddr] != 0,\"no set as task\") */\n      tag_133\n      jumpi\n      mload(0x40)\n      shl(0xe5, 0x461bcd)\n      dup2\n      mstore\n        /* \"#utility.yul\":5401:5403   */\n      0x20\n        /* \"contracts/TaskControl.sol\":1447:1495  require(_tasks[_taskAddr] != 0,\"no set as task\") */\n      0x04\n      dup3\n      add\n        /* \"#utility.yul\":5383:5404   */\n      mstore\n        /* \"#utility.yul\":5440:5442   */\n      0x0e\n        /* \"#utility.yul\":5420:5438   */\n      0x24\n      dup3\n      add\n        /* \"#utility.yul\":5413:5443   */\n      mstore\n      shl(0x90, 0x6e6f20736574206173207461736b)\n        /* \"#utility.yul\":5459:5477   */\n      0x44\n      dup3\n      add\n        /* \"#utility.yul\":5452:5496   */\n      mstore\n        /* \"#utility.yul\":5513:5531   */\n      0x64\n      add\n        /* \"contracts/TaskControl.sol\":1447:1495  require(_tasks[_taskAddr] != 0,\"no set as task\") */\n    tag_134:\n      mload(0x40)\n      dup1\n      swap2\n      sub\n      swap1\n      revert\n    tag_133:\n      sub(shl(0xa0, 0x01), 0x01)\n        /* \"contracts/TaskControl.sol\":1588:1605  _tasks[_taskAddr] */\n      dup6\n      and\n        /* \"contracts/TaskControl.sol\":1510:1524  uint256 amount */\n      0x00\n        /* \"contracts/TaskControl.sol\":1588:1605  _tasks[_taskAddr] */\n      dup2\n      dup2\n      mstore\n        /* \"contracts/TaskControl.sol\":1588:1594  _tasks */\n      0x07\n        /* \"contracts/TaskControl.sol\":1588:1605  _tasks[_taskAddr] */\n      0x20\n      mstore\n      0x40\n      dup1\n      dup3\n      keccak256\n      sload\n        /* \"contracts/TaskControl.sol\":1527:1585  Itask(_taskAddr).runTask(address(msg.sender),_value,_data) */\n      swap1\n      mload\n      shl(0xe0, 0x6e501eef)\n      dup2\n      mstore\n        /* \"contracts/TaskControl.sol\":1510:1524  uint256 amount */\n      swap2\n      swap3\n        /* \"contracts/TaskControl.sol\":1588:1605  _tasks[_taskAddr] */\n      swap1\n      swap2\n        /* \"contracts/TaskControl.sol\":1527:1551  Itask(_taskAddr).runTask */\n      0x6e501eef\n      swap1\n        /* \"contracts/TaskControl.sol\":1527:1585  Itask(_taskAddr).runTask(address(msg.sender),_value,_data) */\n      tag_136\n      swap1\n        /* \"contracts/TaskControl.sol\":1560:1570  msg.sender */\n      caller\n      swap1\n        /* \"contracts/TaskControl.sol\":1572:1578  _value */\n      dup10\n      swap1\n        /* \"contracts/TaskControl.sol\":1579:1584  _data */\n      dup10\n      swap1\n      dup10\n      swap1\n        /* \"contracts/TaskControl.sol\":1527:1585  Itask(_taskAddr).runTask(address(msg.sender),_value,_data) */\n      0x04\n      add\n      tag_137\n      jump\t// in\n    tag_136:\n      0x20\n      mload(0x40)\n      dup1\n      dup4\n      sub\n      dup2\n      0x00\n      dup8\n      gas\n      call\n      iszero\n      dup1\n      iszero\n      tag_139\n      jumpi\n      returndatasize\n      0x00\n      dup1\n      returndatacopy\n      revert(0x00, returndatasize)\n    tag_139:\n      pop\n      pop\n      pop\n      pop\n      mload(0x40)\n      returndatasize\n      not(0x1f)\n      0x1f\n      dup3\n      add\n      and\n      dup3\n      add\n      dup1\n      0x40\n      mstore\n      pop\n      dup2\n      add\n      swap1\n      tag_140\n      swap2\n      swap1\n      tag_141\n      jump\t// in\n    tag_140:\n        /* \"contracts/TaskControl.sol\":1527:1605  Itask(_taskAddr).runTask(address(msg.sender),_value,_data) * _tasks[_taskAddr] */\n      tag_142\n      swap2\n      swap1\n      tag_143\n      jump\t// in\n    tag_142:\n        /* \"contracts/TaskControl.sol\":1510:1605  uint256 amount = Itask(_taskAddr).runTask(address(msg.sender),_value,_data) * _tasks[_taskAddr] */\n      swap1\n      pop\n        /* \"contracts/TaskControl.sol\":1619:1649  _mint(_receiveAddress, amount) */\n      tag_144\n        /* \"contracts/TaskControl.sol\":1625:1640  _receiveAddress */\n      dup6\n        /* \"contracts/TaskControl.sol\":1642:1648  amount */\n      dup3\n        /* \"contracts/TaskControl.sol\":1619:1624  _mint */\n      tag_145\n        /* \"contracts/TaskControl.sol\":1619:1649  _mint(_receiveAddress, amount) */\n      jump\t// in\n    tag_144:\n        /* \"contracts/TaskControl.sol\":1433:1660  {... */\n      pop\n        /* \"contracts/TaskControl.sol\":1326:1660  function mintToken(address _taskAddr,address _receiveAddress,uint256 _value,bytes calldata _data) external {... */\n      pop\n      pop\n      pop\n      pop\n      pop\n      jump\t// out\n        /* \"@openzeppelin/contracts/token/ERC20/ERC20.sol\":5039:5283  function transferFrom(address from, address to, uint256 value) public virtual returns (bool) {... */\n    tag_59:\n        /* \"@openzeppelin/contracts/token/ERC20/ERC20.sol\":5126:5130  bool */\n      0x00\n        /* \"@openzeppelin/contracts/utils/Context.sol\":735:745  msg.sender */\n      caller\n        /* \"@openzeppelin/contracts/token/ERC20/ERC20.sol\":5182:5219  _spendAllowance(from, spender, value) */\n      tag_148\n        /* \"@openzeppelin/contracts/token/ERC20/ERC20.sol\":5198:5202  from */\n      dup6\n        /* \"@openzeppelin/contracts/utils/Context.sol\":735:745  msg.sender */\n      dup3\n        /* \"@openzeppelin/contracts/token/ERC20/ERC20.sol\":5213:5218  value */\n      dup6\n        /* \"@openzeppelin/contracts/token/ERC20/ERC20.sol\":5182:5197  _spendAllowance */\n      tag_149\n        /* \"@openzeppelin/contracts/token/ERC20/ERC20.sol\":5182:5219  _spendAllowance(from, spender, value) */\n      jump\t// in\n    tag_148:\n        /* \"@openzeppelin/contracts/token/ERC20/ERC20.sol\":5229:5255  _transfer(from, to, value) */\n      tag_150\n        /* \"@openzeppelin/contracts/token/ERC20/ERC20.sol\":5239:5243  from */\n      dup6\n        /* \"@openzeppelin/contracts/token/ERC20/ERC20.sol\":5245:5247  to */\n      dup6\n        /* \"@openzeppelin/contracts/token/ERC20/ERC20.sol\":5249:5254  value */\n      dup6\n        /* \"@openzeppelin/contracts/token/ERC20/ERC20.sol\":5229:5238  _transfer */\n      tag_151\n        /* \"@openzeppelin/contracts/token/ERC20/ERC20.sol\":5229:5255  _transfer(from, to, value) */\n      jump\t// in\n    tag_150:\n      pop\n        /* \"@openzeppelin/contracts/token/ERC20/ERC20.sol\":5272:5276  true */\n      0x01\n      swap5\n        /* \"@openzeppelin/contracts/token/ERC20/ERC20.sol\":5039:5283  function transferFrom(address from, address to, uint256 value) public virtual returns (bool) {... */\n      swap4\n      pop\n      pop\n      pop\n      pop\n      jump\t// out\n        /* \"@openzeppelin/contracts/token/ERC20/extensions/ERC20Burnable.sol\":618:705  function burn(uint256 value) public virtual {... */\n    tag_68:\n        /* \"@openzeppelin/contracts/token/ERC20/extensions/ERC20Burnable.sol\":672:698  _burn(_msgSender(), value) */\n      tag_154\n        /* \"@openzeppelin/contracts/utils/Context.sol\":735:745  msg.sender */\n      caller\n        /* \"@openzeppelin/contracts/token/ERC20/extensions/ERC20Burnable.sol\":692:697  value */\n      dup3\n        /* \"@openzeppelin/contracts/token/ERC20/extensions/ERC20Burnable.sol\":672:677  _burn */\n      tag_156\n        /* \"@openzeppelin/contracts/token/ERC20/extensions/ERC20Burnable.sol\":672:698  _burn(_msgSender(), value) */\n      jump\t// in\n    tag_154:\n        /* \"@openzeppelin/contracts/token/ERC20/extensions/ERC20Burnable.sol\":618:705  function burn(uint256 value) public virtual {... */\n      pop\n      jump\t// out\n        /* \"contracts/TaskControl.sol\":2700:2933  function getTicketFrom(uint256 _id,address _fromAddress,address _receiveAddress,uint256 _ticketNumbers)external{... */\n    tag_72:\n        /* \"contracts/TaskControl.sol\":2825:2862  burnFrom(_fromAddress,_ticketNumbers) */\n      tag_158\n        /* \"contracts/TaskControl.sol\":2834:2846  _fromAddress */\n      dup4\n        /* \"contracts/TaskControl.sol\":2847:2861  _ticketNumbers */\n      dup3\n        /* \"contracts/TaskControl.sol\":2825:2833  burnFrom */\n      tag_82\n        /* \"contracts/TaskControl.sol\":2825:2862  burnFrom(_fromAddress,_ticketNumbers) */\n      jump\t// in\n    tag_158:\n        /* \"contracts/TaskControl.sol\":2876:2922  _getTicket(_id,_receiveAddress,_ticketNumbers) */\n      tag_159\n        /* \"contracts/TaskControl.sol\":2887:2890  _id */\n      dup5\n        /* \"contracts/TaskControl.sol\":2891:2906  _receiveAddress */\n      dup4\n        /* \"contracts/TaskControl.sol\":2907:2921  _ticketNumbers */\n      dup4\n        /* \"contracts/TaskControl.sol\":2876:2886  _getTicket */\n      tag_114\n        /* \"contracts/TaskControl.sol\":2876:2922  _getTicket(_id,_receiveAddress,_ticketNumbers) */\n      jump\t// in\n    tag_159:\n        /* \"contracts/TaskControl.sol\":2700:2933  function getTicketFrom(uint256 _id,address _fromAddress,address _receiveAddress,uint256 _ticketNumbers)external{... */\n      pop\n      pop\n      pop\n      pop\n      jump\t// out\n        /* \"@openzeppelin/contracts/access/Ownable.sol\":2293:2394  function renounceOwnership() public virtual onlyOwner {... */\n    tag_79:\n        /* \"@openzeppelin/contracts/access/Ownable.sol\":1531:1544  _checkOwner() */\n      tag_162\n        /* \"@openzeppelin/contracts/access/Ownable.sol\":1531:1542  _checkOwner */\n      tag_124\n        /* \"@openzeppelin/contracts/access/Ownable.sol\":1531:1544  _checkOwner() */\n      jump\t// in\n    tag_162:\n        /* \"@openzeppelin/contracts/access/Ownable.sol\":2357:2387  _transferOwnership(address(0)) */\n      tag_164\n        /* \"@openzeppelin/contracts/access/Ownable.sol\":2384:2385  0 */\n      0x00\n        /* \"@openzeppelin/contracts/access/Ownable.sol\":2357:2375  _transferOwnership */\n      tag_165\n        /* \"@openzeppelin/contracts/access/Ownable.sol\":2357:2387  _transferOwnership(address(0)) */\n      jump\t// in\n    tag_164:\n        /* \"@openzeppelin/contracts/access/Ownable.sol\":2293:2394  function renounceOwnership() public virtual onlyOwner {... */\n      jump\t// out\n        /* \"@openzeppelin/contracts/token/ERC20/extensions/ERC20Burnable.sol\":1021:1179  function burnFrom(address account, uint256 value) public virtual {... */\n    tag_82:\n        /* \"@openzeppelin/contracts/token/ERC20/extensions/ERC20Burnable.sol\":1096:1141  _spendAllowance(account, _msgSender(), value) */\n      tag_167\n        /* \"@openzeppelin/contracts/token/ERC20/extensions/ERC20Burnable.sol\":1112:1119  account */\n      dup3\n        /* \"@openzeppelin/contracts/utils/Context.sol\":735:745  msg.sender */\n      caller\n        /* \"@openzeppelin/contracts/token/ERC20/extensions/ERC20Burnable.sol\":1135:1140  value */\n      dup4\n        /* \"@openzeppelin/contracts/token/ERC20/extensions/ERC20Burnable.sol\":1096:1111  _spendAllowance */\n      tag_149\n        /* \"@openzeppelin/contracts/token/ERC20/extensions/ERC20Burnable.sol\":1096:1141  _spendAllowance(account, _msgSender(), value) */\n      jump\t// in\n    tag_167:\n        /* \"@openzeppelin/contracts/token/ERC20/extensions/ERC20Burnable.sol\":1151:1172  _burn(account, value) */\n      tag_169\n        /* \"@openzeppelin/contracts/token/ERC20/extensions/ERC20Burnable.sol\":1157:1164  account */\n      dup3\n        /* \"@openzeppelin/contracts/token/ERC20/extensions/ERC20Burnable.sol\":1166:1171  value */\n      dup3\n        /* \"@openzeppelin/contracts/token/ERC20/extensions/ERC20Burnable.sol\":1151:1156  _burn */\n      tag_156\n        /* \"@openzeppelin/contracts/token/ERC20/extensions/ERC20Burnable.sol\":1151:1172  _burn(account, value) */\n      jump\t// in\n    tag_169:\n        /* \"@openzeppelin/contracts/token/ERC20/extensions/ERC20Burnable.sol\":1021:1179  function burnFrom(address account, uint256 value) public virtual {... */\n      pop\n      pop\n      jump\t// out\n        /* \"@openzeppelin/contracts/token/ERC20/ERC20.sol\":2276:2369  function symbol() public view virtual returns (string memory) {... */\n    tag_88:\n        /* \"@openzeppelin/contracts/token/ERC20/ERC20.sol\":2323:2336  string memory */\n      0x60\n        /* \"@openzeppelin/contracts/token/ERC20/ERC20.sol\":2355:2362  _symbol */\n      0x04\n        /* \"@openzeppelin/contracts/token/ERC20/ERC20.sol\":2348:2362  return _symbol */\n      dup1\n      sload\n      tag_116\n      swap1\n      tag_117\n      jump\t// in\n        /* \"@openzeppelin/contracts/token/ERC20/ERC20.sol\":3610:3788  function transfer(address to, uint256 value) public virtual returns (bool) {... */\n    tag_92:\n        /* \"@openzeppelin/contracts/token/ERC20/ERC20.sol\":3679:3683  bool */\n      0x00\n        /* \"@openzeppelin/contracts/utils/Context.sol\":735:745  msg.sender */\n      caller\n        /* \"@openzeppelin/contracts/token/ERC20/ERC20.sol\":3733:3760  _transfer(owner, to, value) */\n      tag_129\n        /* \"@openzeppelin/contracts/utils/Context.sol\":735:745  msg.sender */\n      dup2\n        /* \"@openzeppelin/contracts/token/ERC20/ERC20.sol\":3750:3752  to */\n      dup6\n        /* \"@openzeppelin/contracts/token/ERC20/ERC20.sol\":3754:3759  value */\n      dup6\n        /* \"@openzeppelin/contracts/token/ERC20/ERC20.sol\":3733:3742  _transfer */\n      tag_151\n        /* \"@openzeppelin/contracts/token/ERC20/ERC20.sol\":3733:3760  _transfer(owner, to, value) */\n      jump\t// in\n        /* \"contracts/TaskControl.sol\":2943:3081  function withdraw(address _token,address _to,uint256 _value)external onlyOwner{... */\n    tag_102:\n        /* \"@openzeppelin/contracts/access/Ownable.sol\":1531:1544  _checkOwner() */\n      tag_181\n        /* \"@openzeppelin/contracts/access/Ownable.sol\":1531:1542  _checkOwner */\n      tag_124\n        /* \"@openzeppelin/contracts/access/Ownable.sol\":1531:1544  _checkOwner() */\n      jump\t// in\n    tag_181:\n        /* \"contracts/TaskControl.sol\":3035:3070  IERC20(_token).transfer(_to,_value) */\n      mload(0x40)\n      shl(0xe0, 0xa9059cbb)\n      dup2\n      mstore\n      sub(shl(0xa0, 0x01), 0x01)\n        /* \"#utility.yul\":6792:6824   */\n      dup4\n      dup2\n      and\n        /* \"contracts/TaskControl.sol\":3035:3070  IERC20(_token).transfer(_to,_value) */\n      0x04\n      dup4\n      add\n        /* \"#utility.yul\":6774:6825   */\n      mstore\n        /* \"#utility.yul\":6841:6859   */\n      0x24\n      dup3\n      add\n        /* \"#utility.yul\":6834:6868   */\n      dup4\n      swap1\n      mstore\n        /* \"contracts/TaskControl.sol\":3035:3058  IERC20(_token).transfer */\n      dup5\n      and\n      swap1\n      0xa9059cbb\n      swap1\n        /* \"#utility.yul\":6747:6765   */\n      0x44\n      add\n        /* \"contracts/TaskControl.sol\":3035:3070  IERC20(_token).transfer(_to,_value) */\n      0x20\n      mload(0x40)\n      dup1\n      dup4\n      sub\n      dup2\n      0x00\n      dup8\n      gas\n      call\n      iszero\n      dup1\n      iszero\n      tag_186\n      jumpi\n      returndatasize\n      0x00\n      dup1\n      returndatacopy\n      revert(0x00, returndatasize)\n    tag_186:\n      pop\n      pop\n      pop\n      pop\n      mload(0x40)\n      returndatasize\n      not(0x1f)\n      0x1f\n      dup3\n      add\n      and\n      dup3\n      add\n      dup1\n      0x40\n      mstore\n      pop\n      dup2\n      add\n      swap1\n      tag_159\n      swap2\n      swap1\n      tag_188\n      jump\t// in\n        /* \"@openzeppelin/contracts/access/Ownable.sol\":2543:2758  function transferOwnership(address newOwner) public virtual onlyOwner {... */\n    tag_110:\n        /* \"@openzeppelin/contracts/access/Ownable.sol\":1531:1544  _checkOwner() */\n      tag_191\n        /* \"@openzeppelin/contracts/access/Ownable.sol\":1531:1542  _checkOwner */\n      tag_124\n        /* \"@openzeppelin/contracts/access/Ownable.sol\":1531:1544  _checkOwner() */\n      jump\t// in\n    tag_191:\n      sub(shl(0xa0, 0x01), 0x01)\n        /* \"@openzeppelin/contracts/access/Ownable.sol\":2627:2649  newOwner == address(0) */\n      dup2\n      and\n        /* \"@openzeppelin/contracts/access/Ownable.sol\":2623:2714  if (newOwner == address(0)) {... */\n      tag_193\n      jumpi\n        /* \"@openzeppelin/contracts/access/Ownable.sol\":2672:2703  OwnableInvalidOwner(address(0)) */\n      mload(0x40)\n      shl(0xe0, 0x1e4fbdf7)\n      dup2\n      mstore\n        /* \"@openzeppelin/contracts/access/Ownable.sol\":2700:2701  0 */\n      0x00\n        /* \"@openzeppelin/contracts/access/Ownable.sol\":2672:2703  OwnableInvalidOwner(address(0)) */\n      0x04\n      dup3\n      add\n        /* \"#utility.yul\":4359:4410   */\n      mstore\n        /* \"#utility.yul\":4332:4350   */\n      0x24\n      add\n        /* \"@openzeppelin/contracts/access/Ownable.sol\":2672:2703  OwnableInvalidOwner(address(0)) */\n      tag_134\n        /* \"#utility.yul\":4213:4416   */\n      jump\n        /* \"@openzeppelin/contracts/access/Ownable.sol\":2623:2714  if (newOwner == address(0)) {... */\n    tag_193:\n        /* \"@openzeppelin/contracts/access/Ownable.sol\":2723:2751  _transferOwnership(newOwner) */\n      tag_154\n        /* \"@openzeppelin/contracts/access/Ownable.sol\":2742:2750  newOwner */\n      dup2\n        /* \"@openzeppelin/contracts/access/Ownable.sol\":2723:2741  _transferOwnership */\n      tag_165\n        /* \"@openzeppelin/contracts/access/Ownable.sol\":2723:2751  _transferOwnership(newOwner) */\n      jump\t// in\n        /* \"contracts/TaskControl.sol\":1670:2490  function _getTicket(uint256 _id,address _receiveAddress,uint256 _ticketNumbers)internal{... */\n    tag_114:\n        /* \"contracts/TaskControl.sol\":1817:1832  redEnvelopeAddr */\n      sload(0x06)\n        /* \"contracts/TaskControl.sol\":1804:1854  IRedEnvelope(redEnvelopeAddr).viewRedEnvelope(_id) */\n      mload(0x40)\n      shl(0xe0, 0x8f91cd17)\n      dup2\n      mstore\n      0x04\n      dup2\n      add\n        /* \"#utility.yul\":1619:1644   */\n      dup6\n      swap1\n      mstore\n        /* \"contracts/TaskControl.sol\":1771:1801  RedEnvelope memory redEnvelope */\n      0x00\n      swap2\n      sub(shl(0xa0, 0x01), 0x01)\n        /* \"contracts/TaskControl.sol\":1817:1832  redEnvelopeAddr */\n      and\n      swap1\n        /* \"contracts/TaskControl.sol\":1804:1849  IRedEnvelope(redEnvelopeAddr).viewRedEnvelope */\n      0x8f91cd17\n      swap1\n        /* \"#utility.yul\":1592:1610   */\n      0x24\n      add\n        /* \"contracts/TaskControl.sol\":1804:1854  IRedEnvelope(redEnvelopeAddr).viewRedEnvelope(_id) */\n      0x01e0\n      mload(0x40)\n      dup1\n      dup4\n      sub\n      dup2\n      dup7\n      gas\n      staticcall\n      iszero\n      dup1\n      iszero\n      tag_199\n      jumpi\n      returndatasize\n      0x00\n      dup1\n      returndatacopy\n      revert(0x00, returndatasize)\n    tag_199:\n      pop\n      pop\n      pop\n      pop\n      mload(0x40)\n      returndatasize\n      not(0x1f)\n      0x1f\n      dup3\n      add\n      and\n      dup3\n      add\n      dup1\n      0x40\n      mstore\n      pop\n      dup2\n      add\n      swap1\n      tag_200\n      swap2\n      swap1\n      tag_201\n      jump\t// in\n    tag_200:\n        /* \"contracts/TaskControl.sol\":1872:1897  redEnvelope.sendAllowAddr */\n      0x0180\n      dup2\n      add\n      mload\n        /* \"contracts/TaskControl.sol\":1771:1854  RedEnvelope memory redEnvelope = IRedEnvelope(redEnvelopeAddr).viewRedEnvelope(_id) */\n      swap1\n      swap2\n      pop\n      sub(shl(0xa0, 0x01), 0x01)\n        /* \"contracts/TaskControl.sol\":1872:1911  redEnvelope.sendAllowAddr == address(0) */\n      and\n        /* \"contracts/TaskControl.sol\":1868:2480  if (redEnvelope.sendAllowAddr == address(0)){      ... */\n      tag_202\n      jumpi\n        /* \"contracts/TaskControl.sol\":1944:1958  allowBuyTicket */\n      sload(0x06)\n      shl(0xa0, 0x01)\n      swap1\n      div\n      0xff\n      and\n        /* \"contracts/TaskControl.sol\":1944:1966  allowBuyTicket == true */\n      iszero\n      iszero\n        /* \"contracts/TaskControl.sol\":1962:1966  true */\n      0x01\n        /* \"contracts/TaskControl.sol\":1944:1966  allowBuyTicket == true */\n      eq\n        /* \"contracts/TaskControl.sol\":1936:1990  require(allowBuyTicket == true, \"buy ticket no allow\") */\n      tag_203\n      jumpi\n      mload(0x40)\n      shl(0xe5, 0x461bcd)\n      dup2\n      mstore\n        /* \"#utility.yul\":9463:9465   */\n      0x20\n        /* \"contracts/TaskControl.sol\":1936:1990  require(allowBuyTicket == true, \"buy ticket no allow\") */\n      0x04\n      dup3\n      add\n        /* \"#utility.yul\":9445:9466   */\n      mstore\n        /* \"#utility.yul\":9502:9504   */\n      0x13\n        /* \"#utility.yul\":9482:9500   */\n      0x24\n      dup3\n      add\n        /* \"#utility.yul\":9475:9505   */\n      mstore\n      shl(0x68, 0x627579207469636b6574206e6f20616c6c6f77)\n        /* \"#utility.yul\":9521:9539   */\n      0x44\n      dup3\n      add\n        /* \"#utility.yul\":9514:9563   */\n      mstore\n        /* \"#utility.yul\":9580:9598   */\n      0x64\n      add\n        /* \"contracts/TaskControl.sol\":1936:1990  require(allowBuyTicket == true, \"buy ticket no allow\") */\n      tag_134\n        /* \"#utility.yul\":9261:9604   */\n      jump\n        /* \"contracts/TaskControl.sol\":1936:1990  require(allowBuyTicket == true, \"buy ticket no allow\") */\n    tag_203:\n        /* \"contracts/TaskControl.sol\":2008:2029  uint256 approveAmount */\n      0x00\n        /* \"contracts/TaskControl.sol\":2058:2072  _ticketNumbers */\n      dup3\n        /* \"contracts/TaskControl.sol\":2032:2043  redEnvelope */\n      dup3\n        /* \"contracts/TaskControl.sol\":2032:2055  redEnvelope.ticketPirce */\n      0x0160\n      add\n      mload\n        /* \"contracts/TaskControl.sol\":2032:2072  redEnvelope.ticketPirce * _ticketNumbers */\n      tag_206\n      swap2\n      swap1\n      tag_143\n      jump\t// in\n    tag_206:\n        /* \"contracts/TaskControl.sol\":2097:2120  redEnvelope.ticketToken */\n      dup3\n      mload\n        /* \"contracts/TaskControl.sol\":2130:2145  redEnvelopeAddr */\n      sload(0x06)\n        /* \"contracts/TaskControl.sol\":2090:2160  IERC20(redEnvelope.ticketToken).approve(redEnvelopeAddr,approveAmount) */\n      mload(0x40)\n      shl(0xe0, 0x095ea7b3)\n      dup2\n      mstore\n      sub(shl(0xa0, 0x01), 0x01)\n        /* \"contracts/TaskControl.sol\":2130:2145  redEnvelopeAddr */\n      swap2\n      dup3\n      and\n        /* \"contracts/TaskControl.sol\":2090:2160  IERC20(redEnvelope.ticketToken).approve(redEnvelopeAddr,approveAmount) */\n      0x04\n      dup3\n      add\n        /* \"#utility.yul\":6774:6825   */\n      mstore\n        /* \"#utility.yul\":6841:6859   */\n      0x24\n      dup2\n      add\n        /* \"#utility.yul\":6834:6868   */\n      dup5\n      swap1\n      mstore\n        /* \"contracts/TaskControl.sol\":2008:2072  uint256 approveAmount = redEnvelope.ticketPirce * _ticketNumbers */\n      swap3\n      swap4\n      pop\n        /* \"contracts/TaskControl.sol\":2090:2129  IERC20(redEnvelope.ticketToken).approve */\n      and\n      swap1\n      0x095ea7b3\n      swap1\n        /* \"#utility.yul\":6747:6765   */\n      0x44\n      add\n        /* \"contracts/TaskControl.sol\":2090:2160  IERC20(redEnvelope.ticketToken).approve(redEnvelopeAddr,approveAmount) */\n      0x20\n      mload(0x40)\n      dup1\n      dup4\n      sub\n      dup2\n      0x00\n      dup8\n      gas\n      call\n      iszero\n      dup1\n      iszero\n      tag_209\n      jumpi\n      returndatasize\n      0x00\n      dup1\n      returndatacopy\n      revert(0x00, returndatasize)\n    tag_209:\n      pop\n      pop\n      pop\n      pop\n      mload(0x40)\n      returndatasize\n      not(0x1f)\n      0x1f\n      dup3\n      add\n      and\n      dup3\n      add\n      dup1\n      0x40\n      mstore\n      pop\n      dup2\n      add\n      swap1\n      tag_210\n      swap2\n      swap1\n      tag_188\n      jump\t// in\n    tag_210:\n      pop\n        /* \"contracts/TaskControl.sol\":2198:2213  redEnvelopeAddr */\n      sload(0x06)\n        /* \"contracts/TaskControl.sol\":2185:2261  IRedEnvelope(redEnvelopeAddr).buyTickets(_id,_receiveAddress,_ticketNumbers) */\n      mload(0x40)\n      shl(0xe0, 0xc5e7bb33)\n      dup2\n      mstore\n      0x04\n      dup2\n      add\n        /* \"#utility.yul\":9811:9836   */\n      dup8\n      swap1\n      mstore\n      sub(shl(0xa0, 0x01), 0x01)\n        /* \"#utility.yul\":9872:9904   */\n      dup7\n      dup2\n      and\n        /* \"#utility.yul\":9852:9870   */\n      0x24\n      dup4\n      add\n        /* \"#utility.yul\":9845:9905   */\n      mstore\n        /* \"#utility.yul\":9921:9939   */\n      0x44\n      dup3\n      add\n        /* \"#utility.yul\":9914:9948   */\n      dup7\n      swap1\n      mstore\n        /* \"contracts/TaskControl.sol\":2198:2213  redEnvelopeAddr */\n      swap1\n      swap2\n      and\n      swap1\n        /* \"contracts/TaskControl.sol\":2185:2225  IRedEnvelope(redEnvelopeAddr).buyTickets */\n      0xc5e7bb33\n      swap1\n        /* \"#utility.yul\":9784:9802   */\n      0x64\n      add\n        /* \"contracts/TaskControl.sol\":2185:2261  IRedEnvelope(redEnvelopeAddr).buyTickets(_id,_receiveAddress,_ticketNumbers) */\n      0x00\n      mload(0x40)\n      dup1\n      dup4\n      sub\n      dup2\n      0x00\n      dup8\n      dup1\n      extcodesize\n      iszero\n      dup1\n      iszero\n      tag_213\n      jumpi\n      0x00\n      dup1\n      revert\n    tag_213:\n      pop\n      gas\n      call\n      iszero\n      dup1\n      iszero\n      tag_215\n      jumpi\n      returndatasize\n      0x00\n      dup1\n      returndatacopy\n      revert(0x00, returndatasize)\n    tag_215:\n      pop\n      pop\n      pop\n      pop\n        /* \"contracts/TaskControl.sol\":1912:2276  {      ... */\n      pop\n        /* \"contracts/TaskControl.sol\":1868:2480  if (redEnvelope.sendAllowAddr == address(0)){      ... */\n      jump(tag_159)\n    tag_202:\n        /* \"contracts/TaskControl.sol\":2306:2321  allowSendTicket */\n      sload(0x06)\n      shl(0xa8, 0x01)\n      swap1\n      div\n      0xff\n      and\n        /* \"contracts/TaskControl.sol\":2306:2329  allowSendTicket == true */\n      iszero\n      iszero\n        /* \"contracts/TaskControl.sol\":2325:2329  true */\n      0x01\n        /* \"contracts/TaskControl.sol\":2306:2329  allowSendTicket == true */\n      eq\n        /* \"contracts/TaskControl.sol\":2298:2354  require(allowSendTicket == true, \"send ticket no allow\") */\n      tag_217\n      jumpi\n      mload(0x40)\n      shl(0xe5, 0x461bcd)\n      dup2\n      mstore\n        /* \"#utility.yul\":10161:10163   */\n      0x20\n        /* \"contracts/TaskControl.sol\":2298:2354  require(allowSendTicket == true, \"send ticket no allow\") */\n      0x04\n      dup3\n      add\n        /* \"#utility.yul\":10143:10164   */\n      mstore\n        /* \"#utility.yul\":10200:10202   */\n      0x14\n        /* \"#utility.yul\":10180:10198   */\n      0x24\n      dup3\n      add\n        /* \"#utility.yul\":10173:10203   */\n      mstore\n      shl(0x60, 0x73656e64207469636b6574206e6f20616c6c6f77)\n        /* \"#utility.yul\":10219:10237   */\n      0x44\n      dup3\n      add\n        /* \"#utility.yul\":10212:10262   */\n      mstore\n        /* \"#utility.yul\":10279:10297   */\n      0x64\n      add\n        /* \"contracts/TaskControl.sol\":2298:2354  require(allowSendTicket == true, \"send ticket no allow\") */\n      tag_134\n        /* \"#utility.yul\":9959:10303   */\n      jump\n        /* \"contracts/TaskControl.sol\":2298:2354  require(allowSendTicket == true, \"send ticket no allow\") */\n    tag_217:\n        /* \"contracts/TaskControl.sol\":2401:2416  redEnvelopeAddr */\n      sload(0x06)\n        /* \"contracts/TaskControl.sol\":2388:2465  IRedEnvelope(redEnvelopeAddr).sendTickets(_id,_receiveAddress,_ticketNumbers) */\n      mload(0x40)\n      shl(0xe0, 0x5c42e0c5)\n      dup2\n      mstore\n      0x04\n      dup2\n      add\n        /* \"#utility.yul\":9811:9836   */\n      dup7\n      swap1\n      mstore\n      sub(shl(0xa0, 0x01), 0x01)\n        /* \"#utility.yul\":9872:9904   */\n      dup6\n      dup2\n      and\n        /* \"#utility.yul\":9852:9870   */\n      0x24\n      dup4\n      add\n        /* \"#utility.yul\":9845:9905   */\n      mstore\n        /* \"#utility.yul\":9921:9939   */\n      0x44\n      dup3\n      add\n        /* \"#utility.yul\":9914:9948   */\n      dup6\n      swap1\n      mstore\n        /* \"contracts/TaskControl.sol\":2401:2416  redEnvelopeAddr */\n      swap1\n      swap2\n      and\n      swap1\n        /* \"contracts/TaskControl.sol\":2388:2429  IRedEnvelope(redEnvelopeAddr).sendTickets */\n      0x5c42e0c5\n      swap1\n        /* \"#utility.yul\":9784:9802   */\n      0x64\n      add\n        /* \"contracts/TaskControl.sol\":2388:2465  IRedEnvelope(redEnvelopeAddr).sendTickets(_id,_receiveAddress,_ticketNumbers) */\n      0x00\n      mload(0x40)\n      dup1\n      dup4\n      sub\n      dup2\n      0x00\n      dup8\n      dup1\n      extcodesize\n      iszero\n      dup1\n      iszero\n      tag_221\n      jumpi\n      0x00\n      dup1\n      revert\n    tag_221:\n      pop\n      gas\n      call\n      iszero\n      dup1\n      iszero\n      tag_223\n      jumpi\n      returndatasize\n      0x00\n      dup1\n      returndatacopy\n      revert(0x00, returndatasize)\n    tag_223:\n      pop\n      pop\n      pop\n      pop\n        /* \"contracts/TaskControl.sol\":1757:2490  {... */\n      pop\n        /* \"contracts/TaskControl.sol\":1670:2490  function _getTicket(uint256 _id,address _receiveAddress,uint256 _ticketNumbers)internal{... */\n      pop\n      pop\n      pop\n      jump\t// out\n        /* \"@openzeppelin/contracts/access/Ownable.sol\":1796:1958  function _checkOwner() internal view virtual {... */\n    tag_124:\n        /* \"@openzeppelin/contracts/access/Ownable.sol\":1710:1716  _owner */\n      and(sub(shl(0xa0, 0x01), 0x01), sload(0x05))\n        /* \"@openzeppelin/contracts/utils/Context.sol\":735:745  msg.sender */\n      caller\n        /* \"@openzeppelin/contracts/access/Ownable.sol\":1855:1878  owner() != _msgSender() */\n      eq\n        /* \"@openzeppelin/contracts/access/Ownable.sol\":1851:1952  if (owner() != _msgSender()) {... */\n      tag_164\n      jumpi\n        /* \"@openzeppelin/contracts/access/Ownable.sol\":1901:1941  OwnableUnauthorizedAccount(_msgSender()) */\n      mload(0x40)\n      shl(0xe0, 0x118cdaa7)\n      dup2\n      mstore\n        /* \"@openzeppelin/contracts/utils/Context.sol\":735:745  msg.sender */\n      caller\n        /* \"@openzeppelin/contracts/access/Ownable.sol\":1901:1941  OwnableUnauthorizedAccount(_msgSender()) */\n      0x04\n      dup3\n      add\n        /* \"#utility.yul\":4359:4410   */\n      mstore\n        /* \"#utility.yul\":4332:4350   */\n      0x24\n      add\n        /* \"@openzeppelin/contracts/access/Ownable.sol\":1901:1941  OwnableUnauthorizedAccount(_msgSender()) */\n      tag_134\n        /* \"#utility.yul\":4213:4416   */\n      jump\n        /* \"@openzeppelin/contracts/token/ERC20/ERC20.sol\":8989:9117  function _approve(address owner, address spender, uint256 value) internal {... */\n    tag_130:\n        /* \"@openzeppelin/contracts/token/ERC20/ERC20.sol\":9073:9110  _approve(owner, spender, value, true) */\n      tag_113\n        /* \"@openzeppelin/contracts/token/ERC20/ERC20.sol\":9082:9087  owner */\n      dup4\n        /* \"@openzeppelin/contracts/token/ERC20/ERC20.sol\":9089:9096  spender */\n      dup4\n        /* \"@openzeppelin/contracts/token/ERC20/ERC20.sol\":9098:9103  value */\n      dup4\n        /* \"@openzeppelin/contracts/token/ERC20/ERC20.sol\":9105:9109  true */\n      0x01\n        /* \"@openzeppelin/contracts/token/ERC20/ERC20.sol\":9073:9081  _approve */\n      tag_233\n        /* \"@openzeppelin/contracts/token/ERC20/ERC20.sol\":9073:9110  _approve(owner, spender, value, true) */\n      jump\t// in\n        /* \"@openzeppelin/contracts/token/ERC20/ERC20.sol\":7721:7929  function _mint(address account, uint256 value) internal {... */\n    tag_145:\n      sub(shl(0xa0, 0x01), 0x01)\n        /* \"@openzeppelin/contracts/token/ERC20/ERC20.sol\":7791:7812  account == address(0) */\n      dup3\n      and\n        /* \"@openzeppelin/contracts/token/ERC20/ERC20.sol\":7787:7878  if (account == address(0)) {... */\n      tag_235\n      jumpi\n        /* \"@openzeppelin/contracts/token/ERC20/ERC20.sol\":7835:7867  ERC20InvalidReceiver(address(0)) */\n      mload(0x40)\n      shl(0xe0, 0xec442f05)\n      dup2\n      mstore\n        /* \"@openzeppelin/contracts/token/ERC20/ERC20.sol\":7864:7865  0 */\n      0x00\n        /* \"@openzeppelin/contracts/token/ERC20/ERC20.sol\":7835:7867  ERC20InvalidReceiver(address(0)) */\n      0x04\n      dup3\n      add\n        /* \"#utility.yul\":4359:4410   */\n      mstore\n        /* \"#utility.yul\":4332:4350   */\n      0x24\n      add\n        /* \"@openzeppelin/contracts/token/ERC20/ERC20.sol\":7835:7867  ERC20InvalidReceiver(address(0)) */\n      tag_134\n        /* \"#utility.yul\":4213:4416   */\n      jump\n        /* \"@openzeppelin/contracts/token/ERC20/ERC20.sol\":7787:7878  if (account == address(0)) {... */\n    tag_235:\n        /* \"@openzeppelin/contracts/token/ERC20/ERC20.sol\":7887:7922  _update(address(0), account, value) */\n      tag_169\n        /* \"@openzeppelin/contracts/token/ERC20/ERC20.sol\":7903:7904  0 */\n      0x00\n        /* \"@openzeppelin/contracts/token/ERC20/ERC20.sol\":7907:7914  account */\n      dup4\n        /* \"@openzeppelin/contracts/token/ERC20/ERC20.sol\":7916:7921  value */\n      dup4\n        /* \"@openzeppelin/contracts/token/ERC20/ERC20.sol\":7887:7894  _update */\n      tag_238\n        /* \"@openzeppelin/contracts/token/ERC20/ERC20.sol\":7887:7922  _update(address(0), account, value) */\n      jump\t// in\n        /* \"@openzeppelin/contracts/token/ERC20/ERC20.sol\":10663:11140  function _spendAllowance(address owner, address spender, uint256 value) internal virtual {... */\n    tag_149:\n      sub(shl(0xa0, 0x01), 0x01)\n        /* \"@openzeppelin/contracts/token/ERC20/ERC20.sol\":3952:3970  _allowances[owner] */\n      dup4\n      dup2\n      and\n        /* \"@openzeppelin/contracts/token/ERC20/ERC20.sol\":10762:10786  uint256 currentAllowance */\n      0x00\n        /* \"@openzeppelin/contracts/token/ERC20/ERC20.sol\":3952:3970  _allowances[owner] */\n      swap1\n      dup2\n      mstore\n        /* \"@openzeppelin/contracts/token/ERC20/ERC20.sol\":3952:3963  _allowances */\n      0x01\n        /* \"@openzeppelin/contracts/token/ERC20/ERC20.sol\":3952:3970  _allowances[owner] */\n      0x20\n      swap1\n      dup2\n      mstore\n      0x40\n      dup1\n      dup4\n      keccak256\n        /* \"@openzeppelin/contracts/token/ERC20/ERC20.sol\":3952:3979  _allowances[owner][spender] */\n      swap4\n      dup7\n      and\n      dup4\n      mstore\n      swap3\n      swap1\n      mstore\n      keccak256\n      sload\n      not(0x00)\n        /* \"@openzeppelin/contracts/token/ERC20/ERC20.sol\":10828:10865  currentAllowance != type(uint256).max */\n      dup2\n      eq\n        /* \"@openzeppelin/contracts/token/ERC20/ERC20.sol\":10824:11134  if (currentAllowance != type(uint256).max) {... */\n      tag_159\n      jumpi\n        /* \"@openzeppelin/contracts/token/ERC20/ERC20.sol\":10904:10909  value */\n      dup2\n        /* \"@openzeppelin/contracts/token/ERC20/ERC20.sol\":10885:10901  currentAllowance */\n      dup2\n        /* \"@openzeppelin/contracts/token/ERC20/ERC20.sol\":10885:10909  currentAllowance < value */\n      lt\n        /* \"@openzeppelin/contracts/token/ERC20/ERC20.sol\":10881:11011  if (currentAllowance < value) {... */\n      iszero\n      tag_242\n      jumpi\n        /* \"@openzeppelin/contracts/token/ERC20/ERC20.sol\":10936:10996  ERC20InsufficientAllowance(spender, currentAllowance, value) */\n      mload(0x40)\n      shl(0xe1, 0x7dc7a0d9)\n      dup2\n      mstore\n      sub(shl(0xa0, 0x01), 0x01)\n        /* \"#utility.yul\":10528:10560   */\n      dup5\n      and\n        /* \"@openzeppelin/contracts/token/ERC20/ERC20.sol\":10936:10996  ERC20InsufficientAllowance(spender, currentAllowance, value) */\n      0x04\n      dup3\n      add\n        /* \"#utility.yul\":10510:10561   */\n      mstore\n        /* \"#utility.yul\":10577:10595   */\n      0x24\n      dup2\n      add\n        /* \"#utility.yul\":10570:10604   */\n      dup3\n      swap1\n      mstore\n        /* \"#utility.yul\":10620:10638   */\n      0x44\n      dup2\n      add\n        /* \"#utility.yul\":10613:10647   */\n      dup4\n      swap1\n      mstore\n        /* \"#utility.yul\":10483:10501   */\n      0x64\n      add\n        /* \"@openzeppelin/contracts/token/ERC20/ERC20.sol\":10936:10996  ERC20InsufficientAllowance(spender, currentAllowance, value) */\n      tag_134\n        /* \"#utility.yul\":10308:10653   */\n      jump\n        /* \"@openzeppelin/contracts/token/ERC20/ERC20.sol\":10881:11011  if (currentAllowance < value) {... */\n    tag_242:\n        /* \"@openzeppelin/contracts/token/ERC20/ERC20.sol\":11052:11109  _approve(owner, spender, currentAllowance - value, false) */\n      tag_159\n        /* \"@openzeppelin/contracts/token/ERC20/ERC20.sol\":11061:11066  owner */\n      dup5\n        /* \"@openzeppelin/contracts/token/ERC20/ERC20.sol\":11068:11075  spender */\n      dup5\n        /* \"@openzeppelin/contracts/token/ERC20/ERC20.sol\":11096:11101  value */\n      dup5\n        /* \"@openzeppelin/contracts/token/ERC20/ERC20.sol\":11077:11093  currentAllowance */\n      dup5\n        /* \"@openzeppelin/contracts/token/ERC20/ERC20.sol\":11077:11101  currentAllowance - value */\n      sub\n        /* \"@openzeppelin/contracts/token/ERC20/ERC20.sol\":11103:11108  false */\n      0x00\n        /* \"@openzeppelin/contracts/token/ERC20/ERC20.sol\":11052:11060  _approve */\n      tag_233\n        /* \"@openzeppelin/contracts/token/ERC20/ERC20.sol\":11052:11109  _approve(owner, spender, currentAllowance - value, false) */\n      jump\t// in\n        /* \"@openzeppelin/contracts/token/ERC20/ERC20.sol\":5656:5956  function _transfer(address from, address to, uint256 value) internal {... */\n    tag_151:\n      sub(shl(0xa0, 0x01), 0x01)\n        /* \"@openzeppelin/contracts/token/ERC20/ERC20.sol\":5739:5757  from == address(0) */\n      dup4\n      and\n        /* \"@openzeppelin/contracts/token/ERC20/ERC20.sol\":5735:5821  if (from == address(0)) {... */\n      tag_247\n      jumpi\n        /* \"@openzeppelin/contracts/token/ERC20/ERC20.sol\":5780:5810  ERC20InvalidSender(address(0)) */\n      mload(0x40)\n      shl(0xe1, 0x4b637e8f)\n      dup2\n      mstore\n        /* \"@openzeppelin/contracts/token/ERC20/ERC20.sol\":5807:5808  0 */\n      0x00\n        /* \"@openzeppelin/contracts/token/ERC20/ERC20.sol\":5780:5810  ERC20InvalidSender(address(0)) */\n      0x04\n      dup3\n      add\n        /* \"#utility.yul\":4359:4410   */\n      mstore\n        /* \"#utility.yul\":4332:4350   */\n      0x24\n      add\n        /* \"@openzeppelin/contracts/token/ERC20/ERC20.sol\":5780:5810  ERC20InvalidSender(address(0)) */\n      tag_134\n        /* \"#utility.yul\":4213:4416   */\n      jump\n        /* \"@openzeppelin/contracts/token/ERC20/ERC20.sol\":5735:5821  if (from == address(0)) {... */\n    tag_247:\n      sub(shl(0xa0, 0x01), 0x01)\n        /* \"@openzeppelin/contracts/token/ERC20/ERC20.sol\":5834:5850  to == address(0) */\n      dup3\n      and\n        /* \"@openzeppelin/contracts/token/ERC20/ERC20.sol\":5830:5916  if (to == address(0)) {... */\n      tag_249\n      jumpi\n        /* \"@openzeppelin/contracts/token/ERC20/ERC20.sol\":5873:5905  ERC20InvalidReceiver(address(0)) */\n      mload(0x40)\n      shl(0xe0, 0xec442f05)\n      dup2\n      mstore\n        /* \"@openzeppelin/contracts/token/ERC20/ERC20.sol\":5902:5903  0 */\n      0x00\n        /* \"@openzeppelin/contracts/token/ERC20/ERC20.sol\":5873:5905  ERC20InvalidReceiver(address(0)) */\n      0x04\n      dup3\n      add\n        /* \"#utility.yul\":4359:4410   */\n      mstore\n        /* \"#utility.yul\":4332:4350   */\n      0x24\n      add\n        /* \"@openzeppelin/contracts/token/ERC20/ERC20.sol\":5873:5905  ERC20InvalidReceiver(address(0)) */\n      tag_134\n        /* \"#utility.yul\":4213:4416   */\n      jump\n        /* \"@openzeppelin/contracts/token/ERC20/ERC20.sol\":5830:5916  if (to == address(0)) {... */\n    tag_249:\n        /* \"@openzeppelin/contracts/token/ERC20/ERC20.sol\":5925:5949  _update(from, to, value) */\n      tag_113\n        /* \"@openzeppelin/contracts/token/ERC20/ERC20.sol\":5933:5937  from */\n      dup4\n        /* \"@openzeppelin/contracts/token/ERC20/ERC20.sol\":5939:5941  to */\n      dup4\n        /* \"@openzeppelin/contracts/token/ERC20/ERC20.sol\":5943:5948  value */\n      dup4\n        /* \"@openzeppelin/contracts/token/ERC20/ERC20.sol\":5925:5932  _update */\n      tag_238\n        /* \"@openzeppelin/contracts/token/ERC20/ERC20.sol\":5925:5949  _update(from, to, value) */\n      jump\t// in\n        /* \"@openzeppelin/contracts/token/ERC20/ERC20.sol\":8247:8453  function _burn(address account, uint256 value) internal {... */\n    tag_156:\n      sub(shl(0xa0, 0x01), 0x01)\n        /* \"@openzeppelin/contracts/token/ERC20/ERC20.sol\":8317:8338  account == address(0) */\n      dup3\n      and\n        /* \"@openzeppelin/contracts/token/ERC20/ERC20.sol\":8313:8402  if (account == address(0)) {... */\n      tag_253\n      jumpi\n        /* \"@openzeppelin/contracts/token/ERC20/ERC20.sol\":8361:8391  ERC20InvalidSender(address(0)) */\n      mload(0x40)\n      shl(0xe1, 0x4b637e8f)\n      dup2\n      mstore\n        /* \"@openzeppelin/contracts/token/ERC20/ERC20.sol\":8388:8389  0 */\n      0x00\n        /* \"@openzeppelin/contracts/token/ERC20/ERC20.sol\":8361:8391  ERC20InvalidSender(address(0)) */\n      0x04\n      dup3\n      add\n        /* \"#utility.yul\":4359:4410   */\n      mstore\n        /* \"#utility.yul\":4332:4350   */\n      0x24\n      add\n        /* \"@openzeppelin/contracts/token/ERC20/ERC20.sol\":8361:8391  ERC20InvalidSender(address(0)) */\n      tag_134\n        /* \"#utility.yul\":4213:4416   */\n      jump\n        /* \"@openzeppelin/contracts/token/ERC20/ERC20.sol\":8313:8402  if (account == address(0)) {... */\n    tag_253:\n        /* \"@openzeppelin/contracts/token/ERC20/ERC20.sol\":8411:8446  _update(account, address(0), value) */\n      tag_169\n        /* \"@openzeppelin/contracts/token/ERC20/ERC20.sol\":8419:8426  account */\n      dup3\n        /* \"@openzeppelin/contracts/token/ERC20/ERC20.sol\":8436:8437  0 */\n      0x00\n        /* \"@openzeppelin/contracts/token/ERC20/ERC20.sol\":8440:8445  value */\n      dup4\n        /* \"@openzeppelin/contracts/token/ERC20/ERC20.sol\":8411:8418  _update */\n      tag_238\n        /* \"@openzeppelin/contracts/token/ERC20/ERC20.sol\":8411:8446  _update(account, address(0), value) */\n      jump\t// in\n        /* \"@openzeppelin/contracts/access/Ownable.sol\":2912:3099  function _transferOwnership(address newOwner) internal virtual {... */\n    tag_165:\n        /* \"@openzeppelin/contracts/access/Ownable.sol\":3004:3010  _owner */\n      0x05\n      dup1\n      sload\n      sub(shl(0xa0, 0x01), 0x01)\n        /* \"@openzeppelin/contracts/access/Ownable.sol\":3020:3037  _owner = newOwner */\n      dup4\n      dup2\n      and\n      not(sub(shl(0xa0, 0x01), 0x01))\n      dup4\n      and\n      dup2\n      or\n      swap1\n      swap4\n      sstore\n        /* \"@openzeppelin/contracts/access/Ownable.sol\":3052:3092  OwnershipTransferred(oldOwner, newOwner) */\n      mload(0x40)\n        /* \"@openzeppelin/contracts/access/Ownable.sol\":3004:3010  _owner */\n      swap2\n      and\n      swap2\n        /* \"@openzeppelin/contracts/access/Ownable.sol\":3020:3037  _owner = newOwner */\n      swap1\n        /* \"@openzeppelin/contracts/access/Ownable.sol\":3004:3010  _owner */\n      dup3\n      swap1\n        /* \"@openzeppelin/contracts/access/Ownable.sol\":3052:3092  OwnershipTransferred(oldOwner, newOwner) */\n      0x8be0079c531659141344cd1fd0a4f28419497f9722a3daafe3b4186f6b6457e0\n      swap1\n        /* \"@openzeppelin/contracts/access/Ownable.sol\":2985:3001  address oldOwner */\n      0x00\n      swap1\n        /* \"@openzeppelin/contracts/access/Ownable.sol\":3052:3092  OwnershipTransferred(oldOwner, newOwner) */\n      log3\n        /* \"@openzeppelin/contracts/access/Ownable.sol\":2975:3099  {... */\n      pop\n        /* \"@openzeppelin/contracts/access/Ownable.sol\":2912:3099  function _transferOwnership(address newOwner) internal virtual {... */\n      pop\n      jump\t// out\n        /* \"@openzeppelin/contracts/token/ERC20/ERC20.sol\":9949:10381  function _approve(address owner, address spender, uint256 value, bool emitEvent) internal virtual {... */\n    tag_233:\n      sub(shl(0xa0, 0x01), 0x01)\n        /* \"@openzeppelin/contracts/token/ERC20/ERC20.sol\":10061:10080  owner == address(0) */\n      dup5\n      and\n        /* \"@openzeppelin/contracts/token/ERC20/ERC20.sol\":10057:10146  if (owner == address(0)) {... */\n      tag_258\n      jumpi\n        /* \"@openzeppelin/contracts/token/ERC20/ERC20.sol\":10103:10135  ERC20InvalidApprover(address(0)) */\n      mload(0x40)\n      shl(0xe0, 0xe602df05)\n      dup2\n      mstore\n        /* \"@openzeppelin/contracts/token/ERC20/ERC20.sol\":10132:10133  0 */\n      0x00\n        /* \"@openzeppelin/contracts/token/ERC20/ERC20.sol\":10103:10135  ERC20InvalidApprover(address(0)) */\n      0x04\n      dup3\n      add\n        /* \"#utility.yul\":4359:4410   */\n      mstore\n        /* \"#utility.yul\":4332:4350   */\n      0x24\n      add\n        /* \"@openzeppelin/contracts/token/ERC20/ERC20.sol\":10103:10135  ERC20InvalidApprover(address(0)) */\n      tag_134\n        /* \"#utility.yul\":4213:4416   */\n      jump\n        /* \"@openzeppelin/contracts/token/ERC20/ERC20.sol\":10057:10146  if (owner == address(0)) {... */\n    tag_258:\n      sub(shl(0xa0, 0x01), 0x01)\n        /* \"@openzeppelin/contracts/token/ERC20/ERC20.sol\":10159:10180  spender == address(0) */\n      dup4\n      and\n        /* \"@openzeppelin/contracts/token/ERC20/ERC20.sol\":10155:10245  if (spender == address(0)) {... */\n      tag_260\n      jumpi\n        /* \"@openzeppelin/contracts/token/ERC20/ERC20.sol\":10203:10234  ERC20InvalidSpender(address(0)) */\n      mload(0x40)\n      shl(0xe1, 0x4a1406b1)\n      dup2\n      mstore\n        /* \"@openzeppelin/contracts/token/ERC20/ERC20.sol\":10231:10232  0 */\n      0x00\n        /* \"@openzeppelin/contracts/token/ERC20/ERC20.sol\":10203:10234  ERC20InvalidSpender(address(0)) */\n      0x04\n      dup3\n      add\n        /* \"#utility.yul\":4359:4410   */\n      mstore\n        /* \"#utility.yul\":4332:4350   */\n      0x24\n      add\n        /* \"@openzeppelin/contracts/token/ERC20/ERC20.sol\":10203:10234  ERC20InvalidSpender(address(0)) */\n      tag_134\n        /* \"#utility.yul\":4213:4416   */\n      jump\n        /* \"@openzeppelin/contracts/token/ERC20/ERC20.sol\":10155:10245  if (spender == address(0)) {... */\n    tag_260:\n      sub(shl(0xa0, 0x01), 0x01)\n        /* \"@openzeppelin/contracts/token/ERC20/ERC20.sol\":10254:10272  _allowances[owner] */\n      dup1\n      dup6\n      and\n      0x00\n      swap1\n      dup2\n      mstore\n        /* \"@openzeppelin/contracts/token/ERC20/ERC20.sol\":10254:10265  _allowances */\n      0x01\n        /* \"@openzeppelin/contracts/token/ERC20/ERC20.sol\":10254:10272  _allowances[owner] */\n      0x20\n      swap1\n      dup2\n      mstore\n      0x40\n      dup1\n      dup4\n      keccak256\n        /* \"@openzeppelin/contracts/token/ERC20/ERC20.sol\":10254:10281  _allowances[owner][spender] */\n      swap4\n      dup8\n      and\n      dup4\n      mstore\n      swap3\n      swap1\n      mstore\n      keccak256\n        /* \"@openzeppelin/contracts/token/ERC20/ERC20.sol\":10254:10289  _allowances[owner][spender] = value */\n      dup3\n      swap1\n      sstore\n        /* \"@openzeppelin/contracts/token/ERC20/ERC20.sol\":10299:10375  if (emitEvent) {... */\n      dup1\n      iszero\n      tag_159\n      jumpi\n        /* \"@openzeppelin/contracts/token/ERC20/ERC20.sol\":10349:10356  spender */\n      dup3\n      sub(shl(0xa0, 0x01), 0x01)\n        /* \"@openzeppelin/contracts/token/ERC20/ERC20.sol\":10333:10364  Approval(owner, spender, value) */\n      and\n        /* \"@openzeppelin/contracts/token/ERC20/ERC20.sol\":10342:10347  owner */\n      dup5\n      sub(shl(0xa0, 0x01), 0x01)\n        /* \"@openzeppelin/contracts/token/ERC20/ERC20.sol\":10333:10364  Approval(owner, spender, value) */\n      and\n      0x8c5be1e5ebec7d5bd14f71427d1e84f3dd0314c0f7b2291e5b200ac8c7c3b925\n        /* \"@openzeppelin/contracts/token/ERC20/ERC20.sol\":10358:10363  value */\n      dup5\n        /* \"@openzeppelin/contracts/token/ERC20/ERC20.sol\":10333:10364  Approval(owner, spender, value) */\n      mload(0x40)\n      tag_263\n      swap2\n        /* \"#utility.yul\":1619:1644   */\n      dup2\n      mstore\n        /* \"#utility.yul\":1607:1609   */\n      0x20\n        /* \"#utility.yul\":1592:1610   */\n      add\n      swap1\n        /* \"#utility.yul\":1473:1650   */\n      jump\n        /* \"@openzeppelin/contracts/token/ERC20/ERC20.sol\":10333:10364  Approval(owner, spender, value) */\n    tag_263:\n      mload(0x40)\n      dup1\n      swap2\n      sub\n      swap1\n      log3\n        /* \"@openzeppelin/contracts/token/ERC20/ERC20.sol\":9949:10381  function _approve(address owner, address spender, uint256 value, bool emitEvent) internal virtual {... */\n      pop\n      pop\n      pop\n      pop\n      jump\t// out\n        /* \"@openzeppelin/contracts/token/ERC20/ERC20.sol\":6271:7378  function _update(address from, address to, uint256 value) internal virtual {... */\n    tag_238:\n      sub(shl(0xa0, 0x01), 0x01)\n        /* \"@openzeppelin/contracts/token/ERC20/ERC20.sol\":6360:6378  from == address(0) */\n      dup4\n      and\n        /* \"@openzeppelin/contracts/token/ERC20/ERC20.sol\":6356:6896  if (from == address(0)) {... */\n      tag_265\n      jumpi\n        /* \"@openzeppelin/contracts/token/ERC20/ERC20.sol\":6512:6517  value */\n      dup1\n        /* \"@openzeppelin/contracts/token/ERC20/ERC20.sol\":6496:6508  _totalSupply */\n      0x02\n      0x00\n        /* \"@openzeppelin/contracts/token/ERC20/ERC20.sol\":6496:6517  _totalSupply += value */\n      dup3\n      dup3\n      sload\n      tag_266\n      swap2\n      swap1\n      tag_267\n      jump\t// in\n    tag_266:\n      swap1\n      swap2\n      sstore\n      pop\n        /* \"@openzeppelin/contracts/token/ERC20/ERC20.sol\":6356:6896  if (from == address(0)) {... */\n      tag_268\n      swap1\n      pop\n      jump\n    tag_265:\n      sub(shl(0xa0, 0x01), 0x01)\n        /* \"@openzeppelin/contracts/token/ERC20/ERC20.sol\":6570:6585  _balances[from] */\n      dup4\n      and\n        /* \"@openzeppelin/contracts/token/ERC20/ERC20.sol\":6548:6567  uint256 fromBalance */\n      0x00\n        /* \"@openzeppelin/contracts/token/ERC20/ERC20.sol\":6570:6585  _balances[from] */\n      swap1\n      dup2\n      mstore\n      0x20\n      dup2\n      swap1\n      mstore\n      0x40\n      swap1\n      keccak256\n      sload\n        /* \"@openzeppelin/contracts/token/ERC20/ERC20.sol\":6603:6622  fromBalance < value */\n      dup2\n      dup2\n      lt\n        /* \"@openzeppelin/contracts/token/ERC20/ERC20.sol\":6599:6714  if (fromBalance < value) {... */\n      iszero\n      tag_269\n      jumpi\n        /* \"@openzeppelin/contracts/token/ERC20/ERC20.sol\":6649:6699  ERC20InsufficientBalance(from, fromBalance, value) */\n      mload(0x40)\n      shl(0xe2, 0x391434e3)\n      dup2\n      mstore\n      sub(shl(0xa0, 0x01), 0x01)\n        /* \"#utility.yul\":10528:10560   */\n      dup6\n      and\n        /* \"@openzeppelin/contracts/token/ERC20/ERC20.sol\":6649:6699  ERC20InsufficientBalance(from, fromBalance, value) */\n      0x04\n      dup3\n      add\n        /* \"#utility.yul\":10510:10561   */\n      mstore\n        /* \"#utility.yul\":10577:10595   */\n      0x24\n      dup2\n      add\n        /* \"#utility.yul\":10570:10604   */\n      dup3\n      swap1\n      mstore\n        /* \"#utility.yul\":10620:10638   */\n      0x44\n      dup2\n      add\n        /* \"#utility.yul\":10613:10647   */\n      dup4\n      swap1\n      mstore\n        /* \"#utility.yul\":10483:10501   */\n      0x64\n      add\n        /* \"@openzeppelin/contracts/token/ERC20/ERC20.sol\":6649:6699  ERC20InsufficientBalance(from, fromBalance, value) */\n      tag_134\n        /* \"#utility.yul\":10308:10653   */\n      jump\n        /* \"@openzeppelin/contracts/token/ERC20/ERC20.sol\":6599:6714  if (fromBalance < value) {... */\n    tag_269:\n      sub(shl(0xa0, 0x01), 0x01)\n        /* \"@openzeppelin/contracts/token/ERC20/ERC20.sol\":6834:6849  _balances[from] */\n      dup5\n      and\n        /* \"@openzeppelin/contracts/token/ERC20/ERC20.sol\":6834:6843  _balances */\n      0x00\n        /* \"@openzeppelin/contracts/token/ERC20/ERC20.sol\":6834:6849  _balances[from] */\n      swap1\n      dup2\n      mstore\n      0x20\n      dup2\n      swap1\n      mstore\n      0x40\n      swap1\n      keccak256\n        /* \"@openzeppelin/contracts/token/ERC20/ERC20.sol\":6852:6871  fromBalance - value */\n      swap1\n      dup3\n      swap1\n      sub\n        /* \"@openzeppelin/contracts/token/ERC20/ERC20.sol\":6834:6871  _balances[from] = fromBalance - value */\n      swap1\n      sstore\n        /* \"@openzeppelin/contracts/token/ERC20/ERC20.sol\":6356:6896  if (from == address(0)) {... */\n    tag_268:\n      sub(shl(0xa0, 0x01), 0x01)\n        /* \"@openzeppelin/contracts/token/ERC20/ERC20.sol\":6910:6926  to == address(0) */\n      dup3\n      and\n        /* \"@openzeppelin/contracts/token/ERC20/ERC20.sol\":6906:7331  if (to == address(0)) {... */\n      tag_271\n      jumpi\n        /* \"@openzeppelin/contracts/token/ERC20/ERC20.sol\":7073:7085  _totalSupply */\n      0x02\n        /* \"@openzeppelin/contracts/token/ERC20/ERC20.sol\":7073:7094  _totalSupply -= value */\n      dup1\n      sload\n      dup3\n      swap1\n      sub\n      swap1\n      sstore\n        /* \"@openzeppelin/contracts/token/ERC20/ERC20.sol\":6906:7331  if (to == address(0)) {... */\n      jump(tag_272)\n    tag_271:\n      sub(shl(0xa0, 0x01), 0x01)\n        /* \"@openzeppelin/contracts/token/ERC20/ERC20.sol\":7284:7297  _balances[to] */\n      dup3\n      and\n        /* \"@openzeppelin/contracts/token/ERC20/ERC20.sol\":7284:7293  _balances */\n      0x00\n        /* \"@openzeppelin/contracts/token/ERC20/ERC20.sol\":7284:7297  _balances[to] */\n      swap1\n      dup2\n      mstore\n      0x20\n      dup2\n      swap1\n      mstore\n      0x40\n      swap1\n      keccak256\n        /* \"@openzeppelin/contracts/token/ERC20/ERC20.sol\":7284:7306  _balances[to] += value */\n      dup1\n      sload\n      dup3\n      add\n      swap1\n      sstore\n        /* \"@openzeppelin/contracts/token/ERC20/ERC20.sol\":6906:7331  if (to == address(0)) {... */\n    tag_272:\n        /* \"@openzeppelin/contracts/token/ERC20/ERC20.sol\":7361:7363  to */\n      dup2\n      sub(shl(0xa0, 0x01), 0x01)\n        /* \"@openzeppelin/contracts/token/ERC20/ERC20.sol\":7346:7371  Transfer(from, to, value) */\n      and\n        /* \"@openzeppelin/contracts/token/ERC20/ERC20.sol\":7355:7359  from */\n      dup4\n      sub(shl(0xa0, 0x01), 0x01)\n        /* \"@openzeppelin/contracts/token/ERC20/ERC20.sol\":7346:7371  Transfer(from, to, value) */\n      and\n      0xddf252ad1be2c89b69c2b068fc378daa952ba7f163c4a11628f55a4df523b3ef\n        /* \"@openzeppelin/contracts/token/ERC20/ERC20.sol\":7365:7370  value */\n      dup4\n        /* \"@openzeppelin/contracts/token/ERC20/ERC20.sol\":7346:7371  Transfer(from, to, value) */\n      mload(0x40)\n      tag_273\n      swap2\n        /* \"#utility.yul\":1619:1644   */\n      dup2\n      mstore\n        /* \"#utility.yul\":1607:1609   */\n      0x20\n        /* \"#utility.yul\":1592:1610   */\n      add\n      swap1\n        /* \"#utility.yul\":1473:1650   */\n      jump\n        /* \"@openzeppelin/contracts/token/ERC20/ERC20.sol\":7346:7371  Transfer(from, to, value) */\n    tag_273:\n      mload(0x40)\n      dup1\n      swap2\n      sub\n      swap1\n      log3\n        /* \"@openzeppelin/contracts/token/ERC20/ERC20.sol\":6271:7378  function _update(address from, address to, uint256 value) internal virtual {... */\n      pop\n      pop\n      pop\n      jump\t// out\n        /* \"#utility.yul\":14:145   */\n    tag_274:\n      sub(shl(0xa0, 0x01), 0x01)\n        /* \"#utility.yul\":89:120   */\n      dup2\n      and\n        /* \"#utility.yul\":79:121   */\n      dup2\n      eq\n        /* \"#utility.yul\":69:139   */\n      tag_154\n      jumpi\n        /* \"#utility.yul\":135:136   */\n      0x00\n        /* \"#utility.yul\":132:133   */\n      dup1\n        /* \"#utility.yul\":125:137   */\n      revert\n        /* \"#utility.yul\":150:533   */\n    tag_30:\n        /* \"#utility.yul\":227:233   */\n      0x00\n        /* \"#utility.yul\":235:241   */\n      dup1\n        /* \"#utility.yul\":243:249   */\n      0x00\n        /* \"#utility.yul\":296:298   */\n      0x60\n        /* \"#utility.yul\":284:293   */\n      dup5\n        /* \"#utility.yul\":275:282   */\n      dup7\n        /* \"#utility.yul\":271:294   */\n      sub\n        /* \"#utility.yul\":267:299   */\n      slt\n        /* \"#utility.yul\":264:316   */\n      iszero\n      tag_284\n      jumpi\n        /* \"#utility.yul\":312:313   */\n      0x00\n        /* \"#utility.yul\":309:310   */\n      dup1\n        /* \"#utility.yul\":302:314   */\n      revert\n        /* \"#utility.yul\":264:316   */\n    tag_284:\n        /* \"#utility.yul\":348:357   */\n      dup4\n        /* \"#utility.yul\":335:358   */\n      calldataload\n        /* \"#utility.yul\":325:358   */\n      swap3\n      pop\n        /* \"#utility.yul\":408:410   */\n      0x20\n        /* \"#utility.yul\":397:406   */\n      dup5\n        /* \"#utility.yul\":393:411   */\n      add\n        /* \"#utility.yul\":380:412   */\n      calldataload\n        /* \"#utility.yul\":421:452   */\n      tag_285\n        /* \"#utility.yul\":446:451   */\n      dup2\n        /* \"#utility.yul\":421:452   */\n      tag_274\n      jump\t// in\n    tag_285:\n        /* \"#utility.yul\":150:533   */\n      swap3\n      swap6\n        /* \"#utility.yul\":471:476   */\n      swap3\n      swap5\n      pop\n      pop\n      pop\n        /* \"#utility.yul\":523:525   */\n      0x40\n        /* \"#utility.yul\":508:526   */\n      swap2\n      swap1\n      swap2\n      add\n        /* \"#utility.yul\":495:527   */\n      calldataload\n      swap1\n        /* \"#utility.yul\":150:533   */\n      jump\t// out\n        /* \"#utility.yul\":730:1148   */\n    tag_39:\n        /* \"#utility.yul\":879:881   */\n      0x20\n        /* \"#utility.yul\":868:877   */\n      dup2\n        /* \"#utility.yul\":861:882   */\n      mstore\n        /* \"#utility.yul\":842:846   */\n      0x00\n        /* \"#utility.yul\":911:917   */\n      dup3\n        /* \"#utility.yul\":905:918   */\n      mload\n        /* \"#utility.yul\":954:960   */\n      dup1\n        /* \"#utility.yul\":949:951   */\n      0x20\n        /* \"#utility.yul\":938:947   */\n      dup5\n        /* \"#utility.yul\":934:952   */\n      add\n        /* \"#utility.yul\":927:961   */\n      mstore\n        /* \"#utility.yul\":1013:1019   */\n      dup1\n        /* \"#utility.yul\":1008:1010   */\n      0x20\n        /* \"#utility.yul\":1000:1006   */\n      dup6\n        /* \"#utility.yul\":996:1011   */\n      add\n        /* \"#utility.yul\":991:993   */\n      0x40\n        /* \"#utility.yul\":980:989   */\n      dup6\n        /* \"#utility.yul\":976:994   */\n      add\n        /* \"#utility.yul\":970:1020   */\n      mcopy\n        /* \"#utility.yul\":1069:1070   */\n      0x00\n        /* \"#utility.yul\":1064:1066   */\n      0x40\n        /* \"#utility.yul\":1055:1061   */\n      dup3\n        /* \"#utility.yul\":1044:1053   */\n      dup6\n        /* \"#utility.yul\":1040:1062   */\n      add\n        /* \"#utility.yul\":1036:1067   */\n      add\n        /* \"#utility.yul\":1029:1071   */\n      mstore\n        /* \"#utility.yul\":1139:1141   */\n      0x40\n        /* \"#utility.yul\":1132:1134   */\n      0x1f\n        /* \"#utility.yul\":1128:1135   */\n      not\n        /* \"#utility.yul\":1123:1125   */\n      0x1f\n        /* \"#utility.yul\":1115:1121   */\n      dup4\n        /* \"#utility.yul\":1111:1126   */\n      add\n        /* \"#utility.yul\":1107:1136   */\n      and\n        /* \"#utility.yul\":1096:1105   */\n      dup5\n        /* \"#utility.yul\":1092:1137   */\n      add\n        /* \"#utility.yul\":1088:1142   */\n      add\n        /* \"#utility.yul\":1080:1142   */\n      swap2\n      pop\n      pop\n        /* \"#utility.yul\":730:1148   */\n      swap3\n      swap2\n      pop\n      pop\n      jump\t// out\n        /* \"#utility.yul\":1153:1468   */\n    tag_42:\n        /* \"#utility.yul\":1221:1227   */\n      0x00\n        /* \"#utility.yul\":1229:1235   */\n      dup1\n        /* \"#utility.yul\":1282:1284   */\n      0x40\n        /* \"#utility.yul\":1270:1279   */\n      dup4\n        /* \"#utility.yul\":1261:1268   */\n      dup6\n        /* \"#utility.yul\":1257:1280   */\n      sub\n        /* \"#utility.yul\":1253:1285   */\n      slt\n        /* \"#utility.yul\":1250:1302   */\n      iszero\n      tag_289\n      jumpi\n        /* \"#utility.yul\":1298:1299   */\n      0x00\n        /* \"#utility.yul\":1295:1296   */\n      dup1\n        /* \"#utility.yul\":1288:1300   */\n      revert\n        /* \"#utility.yul\":1250:1302   */\n    tag_289:\n        /* \"#utility.yul\":1337:1346   */\n      dup3\n        /* \"#utility.yul\":1324:1347   */\n      calldataload\n        /* \"#utility.yul\":1356:1387   */\n      tag_290\n        /* \"#utility.yul\":1381:1386   */\n      dup2\n        /* \"#utility.yul\":1356:1387   */\n      tag_274\n      jump\t// in\n    tag_290:\n        /* \"#utility.yul\":1406:1411   */\n      swap5\n        /* \"#utility.yul\":1458:1460   */\n      0x20\n        /* \"#utility.yul\":1443:1461   */\n      swap4\n      swap1\n      swap4\n      add\n        /* \"#utility.yul\":1430:1462   */\n      calldataload\n      swap4\n      pop\n      pop\n      pop\n        /* \"#utility.yul\":1153:1468   */\n      jump\t// out\n        /* \"#utility.yul\":1655:2591   */\n    tag_54:\n        /* \"#utility.yul\":1752:1758   */\n      0x00\n        /* \"#utility.yul\":1760:1766   */\n      dup1\n        /* \"#utility.yul\":1768:1774   */\n      0x00\n        /* \"#utility.yul\":1776:1782   */\n      dup1\n        /* \"#utility.yul\":1784:1790   */\n      0x00\n        /* \"#utility.yul\":1837:1840   */\n      0x80\n        /* \"#utility.yul\":1825:1834   */\n      dup7\n        /* \"#utility.yul\":1816:1823   */\n      dup9\n        /* \"#utility.yul\":1812:1835   */\n      sub\n        /* \"#utility.yul\":1808:1841   */\n      slt\n        /* \"#utility.yul\":1805:1858   */\n      iszero\n      tag_293\n      jumpi\n        /* \"#utility.yul\":1854:1855   */\n      0x00\n        /* \"#utility.yul\":1851:1852   */\n      dup1\n        /* \"#utility.yul\":1844:1856   */\n      revert\n        /* \"#utility.yul\":1805:1858   */\n    tag_293:\n        /* \"#utility.yul\":1893:1902   */\n      dup6\n        /* \"#utility.yul\":1880:1903   */\n      calldataload\n        /* \"#utility.yul\":1912:1943   */\n      tag_294\n        /* \"#utility.yul\":1937:1942   */\n      dup2\n        /* \"#utility.yul\":1912:1943   */\n      tag_274\n      jump\t// in\n    tag_294:\n        /* \"#utility.yul\":1962:1967   */\n      swap5\n      pop\n        /* \"#utility.yul\":2019:2021   */\n      0x20\n        /* \"#utility.yul\":2004:2022   */\n      dup7\n      add\n        /* \"#utility.yul\":1991:2023   */\n      calldataload\n        /* \"#utility.yul\":2032:2065   */\n      tag_295\n        /* \"#utility.yul\":1991:2023   */\n      dup2\n        /* \"#utility.yul\":2032:2065   */\n      tag_274\n      jump\t// in\n    tag_295:\n        /* \"#utility.yul\":2084:2091   */\n      swap4\n      pop\n        /* \"#utility.yul\":2138:2140   */\n      0x40\n        /* \"#utility.yul\":2123:2141   */\n      dup7\n      add\n        /* \"#utility.yul\":2110:2142   */\n      calldataload\n      swap3\n      pop\n        /* \"#utility.yul\":2193:2195   */\n      0x60\n        /* \"#utility.yul\":2178:2196   */\n      dup7\n      add\n        /* \"#utility.yul\":2165:2197   */\n      calldataload\n        /* \"#utility.yul\":2216:2234   */\n      0xffffffffffffffff\n        /* \"#utility.yul\":2246:2260   */\n      dup1\n      dup3\n      gt\n        /* \"#utility.yul\":2243:2277   */\n      iszero\n      tag_296\n      jumpi\n        /* \"#utility.yul\":2273:2274   */\n      0x00\n        /* \"#utility.yul\":2270:2271   */\n      dup1\n        /* \"#utility.yul\":2263:2275   */\n      revert\n        /* \"#utility.yul\":2243:2277   */\n    tag_296:\n        /* \"#utility.yul\":2311:2317   */\n      dup2\n        /* \"#utility.yul\":2300:2309   */\n      dup9\n        /* \"#utility.yul\":2296:2318   */\n      add\n        /* \"#utility.yul\":2286:2318   */\n      swap2\n      pop\n        /* \"#utility.yul\":2356:2363   */\n      dup9\n        /* \"#utility.yul\":2349:2353   */\n      0x1f\n        /* \"#utility.yul\":2345:2347   */\n      dup4\n        /* \"#utility.yul\":2341:2354   */\n      add\n        /* \"#utility.yul\":2337:2364   */\n      slt\n        /* \"#utility.yul\":2327:2382   */\n      tag_297\n      jumpi\n        /* \"#utility.yul\":2378:2379   */\n      0x00\n        /* \"#utility.yul\":2375:2376   */\n      dup1\n        /* \"#utility.yul\":2368:2380   */\n      revert\n        /* \"#utility.yul\":2327:2382   */\n    tag_297:\n        /* \"#utility.yul\":2418:2420   */\n      dup2\n        /* \"#utility.yul\":2405:2421   */\n      calldataload\n        /* \"#utility.yul\":2444:2446   */\n      dup2\n        /* \"#utility.yul\":2436:2442   */\n      dup2\n        /* \"#utility.yul\":2433:2447   */\n      gt\n        /* \"#utility.yul\":2430:2464   */\n      iszero\n      tag_298\n      jumpi\n        /* \"#utility.yul\":2460:2461   */\n      0x00\n        /* \"#utility.yul\":2457:2458   */\n      dup1\n        /* \"#utility.yul\":2450:2462   */\n      revert\n        /* \"#utility.yul\":2430:2464   */\n    tag_298:\n        /* \"#utility.yul\":2505:2512   */\n      dup10\n        /* \"#utility.yul\":2500:2502   */\n      0x20\n        /* \"#utility.yul\":2491:2497   */\n      dup3\n        /* \"#utility.yul\":2487:2489   */\n      dup6\n        /* \"#utility.yul\":2483:2498   */\n      add\n        /* \"#utility.yul\":2479:2503   */\n      add\n        /* \"#utility.yul\":2476:2513   */\n      gt\n        /* \"#utility.yul\":2473:2530   */\n      iszero\n      tag_299\n      jumpi\n        /* \"#utility.yul\":2526:2527   */\n      0x00\n        /* \"#utility.yul\":2523:2524   */\n      dup1\n        /* \"#utility.yul\":2516:2528   */\n      revert\n        /* \"#utility.yul\":2473:2530   */\n    tag_299:\n        /* \"#utility.yul\":1655:2591   */\n      swap7\n      swap10\n      swap6\n      swap9\n      pop\n      swap4\n      swap7\n      pop\n        /* \"#utility.yul\":2557:2559   */\n      0x20\n        /* \"#utility.yul\":2549:2560   */\n      add\n      swap5\n        /* \"#utility.yul\":2579:2585   */\n      swap4\n        /* \"#utility.yul\":1655:2591   */\n      swap3\n      pop\n      pop\n      pop\n      jump\t// out\n        /* \"#utility.yul\":2596:3052   */\n    tag_58:\n        /* \"#utility.yul\":2673:2679   */\n      0x00\n        /* \"#utility.yul\":2681:2687   */\n      dup1\n        /* \"#utility.yul\":2689:2695   */\n      0x00\n        /* \"#utility.yul\":2742:2744   */\n      0x60\n        /* \"#utility.yul\":2730:2739   */\n      dup5\n        /* \"#utility.yul\":2721:2728   */\n      dup7\n        /* \"#utility.yul\":2717:2740   */\n      sub\n        /* \"#utility.yul\":2713:2745   */\n      slt\n        /* \"#utility.yul\":2710:2762   */\n      iszero\n      tag_301\n      jumpi\n        /* \"#utility.yul\":2758:2759   */\n      0x00\n        /* \"#utility.yul\":2755:2756   */\n      dup1\n        /* \"#utility.yul\":2748:2760   */\n      revert\n        /* \"#utility.yul\":2710:2762   */\n    tag_301:\n        /* \"#utility.yul\":2797:2806   */\n      dup4\n        /* \"#utility.yul\":2784:2807   */\n      calldataload\n        /* \"#utility.yul\":2816:2847   */\n      tag_302\n        /* \"#utility.yul\":2841:2846   */\n      dup2\n        /* \"#utility.yul\":2816:2847   */\n      tag_274\n      jump\t// in\n    tag_302:\n        /* \"#utility.yul\":2866:2871   */\n      swap3\n      pop\n        /* \"#utility.yul\":2923:2925   */\n      0x20\n        /* \"#utility.yul\":2908:2926   */\n      dup5\n      add\n        /* \"#utility.yul\":2895:2927   */\n      calldataload\n        /* \"#utility.yul\":2936:2969   */\n      tag_285\n        /* \"#utility.yul\":2895:2927   */\n      dup2\n        /* \"#utility.yul\":2936:2969   */\n      tag_274\n      jump\t// in\n        /* \"#utility.yul\":3246:3426   */\n    tag_67:\n        /* \"#utility.yul\":3305:3311   */\n      0x00\n        /* \"#utility.yul\":3358:3360   */\n      0x20\n        /* \"#utility.yul\":3346:3355   */\n      dup3\n        /* \"#utility.yul\":3337:3344   */\n      dup5\n        /* \"#utility.yul\":3333:3356   */\n      sub\n        /* \"#utility.yul\":3329:3361   */\n      slt\n        /* \"#utility.yul\":3326:3378   */\n      iszero\n      tag_306\n      jumpi\n        /* \"#utility.yul\":3374:3375   */\n      0x00\n        /* \"#utility.yul\":3371:3372   */\n      dup1\n        /* \"#utility.yul\":3364:3376   */\n      revert\n        /* \"#utility.yul\":3326:3378   */\n    tag_306:\n      pop\n        /* \"#utility.yul\":3397:3420   */\n      calldataload\n      swap2\n        /* \"#utility.yul\":3246:3426   */\n      swap1\n      pop\n      jump\t// out\n        /* \"#utility.yul\":3431:3956   */\n    tag_71:\n        /* \"#utility.yul\":3517:3523   */\n      0x00\n        /* \"#utility.yul\":3525:3531   */\n      dup1\n        /* \"#utility.yul\":3533:3539   */\n      0x00\n        /* \"#utility.yul\":3541:3547   */\n      dup1\n        /* \"#utility.yul\":3594:3597   */\n      0x80\n        /* \"#utility.yul\":3582:3591   */\n      dup6\n        /* \"#utility.yul\":3573:3580   */\n      dup8\n        /* \"#utility.yul\":3569:3592   */\n      sub\n        /* \"#utility.yul\":3565:3598   */\n      slt\n        /* \"#utility.yul\":3562:3615   */\n      iszero\n      tag_308\n      jumpi\n        /* \"#utility.yul\":3611:3612   */\n      0x00\n        /* \"#utility.yul\":3608:3609   */\n      dup1\n        /* \"#utility.yul\":3601:3613   */\n      revert\n        /* \"#utility.yul\":3562:3615   */\n    tag_308:\n        /* \"#utility.yul\":3647:3656   */\n      dup5\n        /* \"#utility.yul\":3634:3657   */\n      calldataload\n        /* \"#utility.yul\":3624:3657   */\n      swap4\n      pop\n        /* \"#utility.yul\":3707:3709   */\n      0x20\n        /* \"#utility.yul\":3696:3705   */\n      dup6\n        /* \"#utility.yul\":3692:3710   */\n      add\n        /* \"#utility.yul\":3679:3711   */\n      calldataload\n        /* \"#utility.yul\":3720:3751   */\n      tag_309\n        /* \"#utility.yul\":3745:3750   */\n      dup2\n        /* \"#utility.yul\":3720:3751   */\n      tag_274\n      jump\t// in\n    tag_309:\n        /* \"#utility.yul\":3770:3775   */\n      swap3\n      pop\n        /* \"#utility.yul\":3827:3829   */\n      0x40\n        /* \"#utility.yul\":3812:3830   */\n      dup6\n      add\n        /* \"#utility.yul\":3799:3831   */\n      calldataload\n        /* \"#utility.yul\":3840:3873   */\n      tag_310\n        /* \"#utility.yul\":3799:3831   */\n      dup2\n        /* \"#utility.yul\":3840:3873   */\n      tag_274\n      jump\t// in\n    tag_310:\n        /* \"#utility.yul\":3431:3956   */\n      swap4\n      swap7\n      swap3\n      swap6\n      pop\n        /* \"#utility.yul\":3892:3899   */\n      swap3\n      swap4\n        /* \"#utility.yul\":3946:3948   */\n      0x60\n        /* \"#utility.yul\":3931:3949   */\n      add\n        /* \"#utility.yul\":3918:3950   */\n      calldataload\n      swap3\n      pop\n      pop\n        /* \"#utility.yul\":3431:3956   */\n      jump\t// out\n        /* \"#utility.yul\":3961:4208   */\n    tag_75:\n        /* \"#utility.yul\":4020:4026   */\n      0x00\n        /* \"#utility.yul\":4073:4075   */\n      0x20\n        /* \"#utility.yul\":4061:4070   */\n      dup3\n        /* \"#utility.yul\":4052:4059   */\n      dup5\n        /* \"#utility.yul\":4048:4071   */\n      sub\n        /* \"#utility.yul\":4044:4076   */\n      slt\n        /* \"#utility.yul\":4041:4093   */\n      iszero\n      tag_312\n      jumpi\n        /* \"#utility.yul\":4089:4090   */\n      0x00\n        /* \"#utility.yul\":4086:4087   */\n      dup1\n        /* \"#utility.yul\":4079:4091   */\n      revert\n        /* \"#utility.yul\":4041:4093   */\n    tag_312:\n        /* \"#utility.yul\":4128:4137   */\n      dup2\n        /* \"#utility.yul\":4115:4138   */\n      calldataload\n        /* \"#utility.yul\":4147:4178   */\n      tag_313\n        /* \"#utility.yul\":4172:4177   */\n      dup2\n        /* \"#utility.yul\":4147:4178   */\n      tag_274\n      jump\t// in\n    tag_313:\n        /* \"#utility.yul\":4197:4202   */\n      swap4\n        /* \"#utility.yul\":3961:4208   */\n      swap3\n      pop\n      pop\n      pop\n      jump\t// out\n        /* \"#utility.yul\":4421:4809   */\n    tag_105:\n        /* \"#utility.yul\":4489:4495   */\n      0x00\n        /* \"#utility.yul\":4497:4503   */\n      dup1\n        /* \"#utility.yul\":4550:4552   */\n      0x40\n        /* \"#utility.yul\":4538:4547   */\n      dup4\n        /* \"#utility.yul\":4529:4536   */\n      dup6\n        /* \"#utility.yul\":4525:4548   */\n      sub\n        /* \"#utility.yul\":4521:4553   */\n      slt\n        /* \"#utility.yul\":4518:4570   */\n      iszero\n      tag_316\n      jumpi\n        /* \"#utility.yul\":4566:4567   */\n      0x00\n        /* \"#utility.yul\":4563:4564   */\n      dup1\n        /* \"#utility.yul\":4556:4568   */\n      revert\n        /* \"#utility.yul\":4518:4570   */\n    tag_316:\n        /* \"#utility.yul\":4605:4614   */\n      dup3\n        /* \"#utility.yul\":4592:4615   */\n      calldataload\n        /* \"#utility.yul\":4624:4655   */\n      tag_317\n        /* \"#utility.yul\":4649:4654   */\n      dup2\n        /* \"#utility.yul\":4624:4655   */\n      tag_274\n      jump\t// in\n    tag_317:\n        /* \"#utility.yul\":4674:4679   */\n      swap2\n      pop\n        /* \"#utility.yul\":4731:4733   */\n      0x20\n        /* \"#utility.yul\":4716:4734   */\n      dup4\n      add\n        /* \"#utility.yul\":4703:4735   */\n      calldataload\n        /* \"#utility.yul\":4744:4777   */\n      tag_318\n        /* \"#utility.yul\":4703:4735   */\n      dup2\n        /* \"#utility.yul\":4744:4777   */\n      tag_274\n      jump\t// in\n    tag_318:\n        /* \"#utility.yul\":4796:4803   */\n      dup1\n        /* \"#utility.yul\":4786:4803   */\n      swap2\n      pop\n      pop\n        /* \"#utility.yul\":4421:4809   */\n      swap3\n      pop\n      swap3\n      swap1\n      pop\n      jump\t// out\n        /* \"#utility.yul\":4814:5194   */\n    tag_117:\n        /* \"#utility.yul\":4893:4894   */\n      0x01\n        /* \"#utility.yul\":4889:4901   */\n      dup2\n      dup2\n      shr\n      swap1\n        /* \"#utility.yul\":4936:4948   */\n      dup3\n      and\n      dup1\n        /* \"#utility.yul\":4957:5018   */\n      tag_320\n      jumpi\n        /* \"#utility.yul\":5011:5015   */\n      0x7f\n        /* \"#utility.yul\":5003:5009   */\n      dup3\n        /* \"#utility.yul\":4999:5016   */\n      and\n        /* \"#utility.yul\":4989:5016   */\n      swap2\n      pop\n        /* \"#utility.yul\":4957:5018   */\n    tag_320:\n        /* \"#utility.yul\":5064:5066   */\n      0x20\n        /* \"#utility.yul\":5056:5062   */\n      dup3\n        /* \"#utility.yul\":5053:5067   */\n      lt\n        /* \"#utility.yul\":5033:5051   */\n      dup2\n        /* \"#utility.yul\":5030:5068   */\n      sub\n        /* \"#utility.yul\":5027:5188   */\n      tag_321\n      jumpi\n        /* \"#utility.yul\":5110:5120   */\n      0x4e487b71\n        /* \"#utility.yul\":5105:5108   */\n      0xe0\n        /* \"#utility.yul\":5101:5121   */\n      shl\n        /* \"#utility.yul\":5098:5099   */\n      0x00\n        /* \"#utility.yul\":5091:5122   */\n      mstore\n        /* \"#utility.yul\":5145:5149   */\n      0x22\n        /* \"#utility.yul\":5142:5143   */\n      0x04\n        /* \"#utility.yul\":5135:5150   */\n      mstore\n        /* \"#utility.yul\":5173:5177   */\n      0x24\n        /* \"#utility.yul\":5170:5171   */\n      0x00\n        /* \"#utility.yul\":5163:5178   */\n      revert\n        /* \"#utility.yul\":5027:5188   */\n    tag_321:\n      pop\n        /* \"#utility.yul\":4814:5194   */\n      swap2\n      swap1\n      pop\n      jump\t// out\n        /* \"#utility.yul\":5542:6101   */\n    tag_137:\n      sub(shl(0xa0, 0x01), 0x01)\n        /* \"#utility.yul\":5755:5787   */\n      dup6\n      and\n        /* \"#utility.yul\":5737:5788   */\n      dup2\n      mstore\n        /* \"#utility.yul\":5819:5821   */\n      0x20\n        /* \"#utility.yul\":5804:5822   */\n      dup2\n      add\n        /* \"#utility.yul\":5797:5831   */\n      dup5\n      swap1\n      mstore\n        /* \"#utility.yul\":5867:5869   */\n      0x60\n        /* \"#utility.yul\":5862:5864   */\n      0x40\n        /* \"#utility.yul\":5847:5865   */\n      dup3\n      add\n        /* \"#utility.yul\":5840:5870   */\n      dup2\n      swap1\n      mstore\n        /* \"#utility.yul\":5886:5904   */\n      dup2\n      add\n        /* \"#utility.yul\":5879:5913   */\n      dup3\n      swap1\n      mstore\n        /* \"#utility.yul\":5906:5912   */\n      dup2\n        /* \"#utility.yul\":5956:5962   */\n      dup4\n        /* \"#utility.yul\":5950:5953   */\n      0x80\n        /* \"#utility.yul\":5935:5954   */\n      dup4\n      add\n        /* \"#utility.yul\":5922:5971   */\n      calldatacopy\n        /* \"#utility.yul\":6021:6022   */\n      0x00\n        /* \"#utility.yul\":5991:6013   */\n      dup2\n      dup4\n      add\n        /* \"#utility.yul\":6015:6018   */\n      0x80\n        /* \"#utility.yul\":5987:6019   */\n      swap1\n      dup2\n      add\n        /* \"#utility.yul\":5980:6023   */\n      swap2\n      swap1\n      swap2\n      mstore\n        /* \"#utility.yul\":6084:6086   */\n      0x1f\n        /* \"#utility.yul\":6063:6078   */\n      swap1\n      swap3\n      add\n      not(0x1f)\n        /* \"#utility.yul\":6059:6088   */\n      and\n        /* \"#utility.yul\":6044:6089   */\n      add\n        /* \"#utility.yul\":6040:6095   */\n      add\n      swap4\n        /* \"#utility.yul\":5542:6101   */\n      swap3\n      pop\n      pop\n      pop\n      jump\t// out\n        /* \"#utility.yul\":6106:6290   */\n    tag_141:\n        /* \"#utility.yul\":6176:6182   */\n      0x00\n        /* \"#utility.yul\":6229:6231   */\n      0x20\n        /* \"#utility.yul\":6217:6226   */\n      dup3\n        /* \"#utility.yul\":6208:6215   */\n      dup5\n        /* \"#utility.yul\":6204:6227   */\n      sub\n        /* \"#utility.yul\":6200:6232   */\n      slt\n        /* \"#utility.yul\":6197:6249   */\n      iszero\n      tag_325\n      jumpi\n        /* \"#utility.yul\":6245:6246   */\n      0x00\n        /* \"#utility.yul\":6242:6243   */\n      dup1\n        /* \"#utility.yul\":6235:6247   */\n      revert\n        /* \"#utility.yul\":6197:6249   */\n    tag_325:\n      pop\n        /* \"#utility.yul\":6268:6284   */\n      mload\n      swap2\n        /* \"#utility.yul\":6106:6290   */\n      swap1\n      pop\n      jump\t// out\n        /* \"#utility.yul\":6295:6422   */\n    tag_275:\n        /* \"#utility.yul\":6356:6366   */\n      0x4e487b71\n        /* \"#utility.yul\":6351:6354   */\n      0xe0\n        /* \"#utility.yul\":6347:6367   */\n      shl\n        /* \"#utility.yul\":6344:6345   */\n      0x00\n        /* \"#utility.yul\":6337:6368   */\n      mstore\n        /* \"#utility.yul\":6387:6391   */\n      0x11\n        /* \"#utility.yul\":6384:6385   */\n      0x04\n        /* \"#utility.yul\":6377:6392   */\n      mstore\n        /* \"#utility.yul\":6411:6415   */\n      0x24\n        /* \"#utility.yul\":6408:6409   */\n      0x00\n        /* \"#utility.yul\":6401:6416   */\n      revert\n        /* \"#utility.yul\":6427:6595   */\n    tag_143:\n        /* \"#utility.yul\":6500:6509   */\n      dup1\n      dup3\n      mul\n        /* \"#utility.yul\":6531:6540   */\n      dup2\n      iszero\n        /* \"#utility.yul\":6548:6563   */\n      dup3\n      dup3\n      div\n        /* \"#utility.yul\":6542:6564   */\n      dup5\n      eq\n        /* \"#utility.yul\":6528:6565   */\n      or\n        /* \"#utility.yul\":6518:6589   */\n      tag_126\n      jumpi\n        /* \"#utility.yul\":6569:6587   */\n      tag_126\n      tag_275\n      jump\t// in\n        /* \"#utility.yul\":6879:7043   */\n    tag_276:\n        /* \"#utility.yul\":6955:6968   */\n      dup1\n      mload\n        /* \"#utility.yul\":7004:7017   */\n      dup1\n      iszero\n        /* \"#utility.yul\":6997:7018   */\n      iszero\n        /* \"#utility.yul\":6987:7019   */\n      dup2\n      eq\n        /* \"#utility.yul\":6977:7037   */\n      tag_332\n      jumpi\n        /* \"#utility.yul\":7033:7034   */\n      0x00\n        /* \"#utility.yul\":7030:7031   */\n      dup1\n        /* \"#utility.yul\":7023:7035   */\n      revert\n        /* \"#utility.yul\":6977:7037   */\n    tag_332:\n        /* \"#utility.yul\":6879:7043   */\n      swap2\n      swap1\n      pop\n      jump\t// out\n        /* \"#utility.yul\":7048:7250   */\n    tag_188:\n        /* \"#utility.yul\":7115:7121   */\n      0x00\n        /* \"#utility.yul\":7168:7170   */\n      0x20\n        /* \"#utility.yul\":7156:7165   */\n      dup3\n        /* \"#utility.yul\":7147:7154   */\n      dup5\n        /* \"#utility.yul\":7143:7166   */\n      sub\n        /* \"#utility.yul\":7139:7171   */\n      slt\n        /* \"#utility.yul\":7136:7188   */\n      iszero\n      tag_334\n      jumpi\n        /* \"#utility.yul\":7184:7185   */\n      0x00\n        /* \"#utility.yul\":7181:7182   */\n      dup1\n        /* \"#utility.yul\":7174:7186   */\n      revert\n        /* \"#utility.yul\":7136:7188   */\n    tag_334:\n        /* \"#utility.yul\":7207:7244   */\n      tag_313\n        /* \"#utility.yul\":7234:7243   */\n      dup3\n        /* \"#utility.yul\":7207:7244   */\n      tag_276\n      jump\t// in\n        /* \"#utility.yul\":7255:7599   */\n    tag_277:\n        /* \"#utility.yul\":7322:7324   */\n      0x40\n        /* \"#utility.yul\":7316:7325   */\n      mload\n        /* \"#utility.yul\":7364:7367   */\n      0x01e0\n        /* \"#utility.yul\":7352:7368   */\n      dup2\n      add\n        /* \"#utility.yul\":7398:7416   */\n      0xffffffffffffffff\n        /* \"#utility.yul\":7383:7417   */\n      dup2\n      gt\n        /* \"#utility.yul\":7419:7441   */\n      dup3\n      dup3\n      lt\n        /* \"#utility.yul\":7380:7442   */\n      or\n        /* \"#utility.yul\":7377:7562   */\n      iszero\n      tag_337\n      jumpi\n        /* \"#utility.yul\":7484:7494   */\n      0x4e487b71\n        /* \"#utility.yul\":7479:7482   */\n      0xe0\n        /* \"#utility.yul\":7475:7495   */\n      shl\n        /* \"#utility.yul\":7472:7473   */\n      0x00\n        /* \"#utility.yul\":7465:7496   */\n      mstore\n        /* \"#utility.yul\":7519:7523   */\n      0x41\n        /* \"#utility.yul\":7516:7517   */\n      0x04\n        /* \"#utility.yul\":7509:7524   */\n      mstore\n        /* \"#utility.yul\":7547:7551   */\n      0x24\n        /* \"#utility.yul\":7544:7545   */\n      0x00\n        /* \"#utility.yul\":7537:7552   */\n      revert\n        /* \"#utility.yul\":7377:7562   */\n    tag_337:\n        /* \"#utility.yul\":7578:7580   */\n      0x40\n        /* \"#utility.yul\":7571:7593   */\n      mstore\n        /* \"#utility.yul\":7255:7599   */\n      swap1\n      jump\t// out\n        /* \"#utility.yul\":7604:7742   */\n    tag_278:\n        /* \"#utility.yul\":7683:7696   */\n      dup1\n      mload\n        /* \"#utility.yul\":7705:7736   */\n      tag_332\n        /* \"#utility.yul\":7683:7696   */\n      dup2\n        /* \"#utility.yul\":7705:7736   */\n      tag_274\n      jump\t// in\n        /* \"#utility.yul\":7747:7898   */\n    tag_279:\n        /* \"#utility.yul\":7830:7843   */\n      dup1\n      mload\n        /* \"#utility.yul\":7872:7873   */\n      0x04\n        /* \"#utility.yul\":7862:7874   */\n      dup2\n      lt\n        /* \"#utility.yul\":7852:7892   */\n      tag_332\n      jumpi\n        /* \"#utility.yul\":7888:7889   */\n      0x00\n        /* \"#utility.yul\":7885:7886   */\n      dup1\n        /* \"#utility.yul\":7878:7890   */\n      revert\n        /* \"#utility.yul\":7903:9256   */\n    tag_201:\n        /* \"#utility.yul\":8002:8008   */\n      0x00\n        /* \"#utility.yul\":8055:8058   */\n      0x01e0\n        /* \"#utility.yul\":8043:8052   */\n      dup3\n        /* \"#utility.yul\":8034:8041   */\n      dup5\n        /* \"#utility.yul\":8030:8053   */\n      sub\n        /* \"#utility.yul\":8026:8059   */\n      slt\n        /* \"#utility.yul\":8023:8076   */\n      iszero\n      tag_343\n      jumpi\n        /* \"#utility.yul\":8072:8073   */\n      0x00\n        /* \"#utility.yul\":8069:8070   */\n      dup1\n        /* \"#utility.yul\":8062:8074   */\n      revert\n        /* \"#utility.yul\":8023:8076   */\n    tag_343:\n        /* \"#utility.yul\":8098:8115   */\n      tag_344\n      tag_277\n      jump\t// in\n    tag_344:\n        /* \"#utility.yul\":8138:8178   */\n      tag_345\n        /* \"#utility.yul\":8168:8177   */\n      dup4\n        /* \"#utility.yul\":8138:8178   */\n      tag_278\n      jump\t// in\n    tag_345:\n        /* \"#utility.yul\":8131:8136   */\n      dup2\n        /* \"#utility.yul\":8124:8179   */\n      mstore\n        /* \"#utility.yul\":8211:8264   */\n      tag_346\n        /* \"#utility.yul\":8260:8262   */\n      0x20\n        /* \"#utility.yul\":8249:8258   */\n      dup5\n        /* \"#utility.yul\":8245:8263   */\n      add\n        /* \"#utility.yul\":8211:8264   */\n      tag_279\n      jump\t// in\n    tag_346:\n        /* \"#utility.yul\":8206:8208   */\n      0x20\n        /* \"#utility.yul\":8199:8204   */\n      dup3\n        /* \"#utility.yul\":8195:8209   */\n      add\n        /* \"#utility.yul\":8188:8265   */\n      mstore\n        /* \"#utility.yul\":8318:8320   */\n      0x40\n        /* \"#utility.yul\":8307:8316   */\n      dup4\n        /* \"#utility.yul\":8303:8321   */\n      add\n        /* \"#utility.yul\":8297:8322   */\n      mload\n        /* \"#utility.yul\":8292:8294   */\n      0x40\n        /* \"#utility.yul\":8285:8290   */\n      dup3\n        /* \"#utility.yul\":8281:8295   */\n      add\n        /* \"#utility.yul\":8274:8323   */\n      mstore\n        /* \"#utility.yul\":8376:8378   */\n      0x60\n        /* \"#utility.yul\":8365:8374   */\n      dup4\n        /* \"#utility.yul\":8361:8379   */\n      add\n        /* \"#utility.yul\":8355:8380   */\n      mload\n        /* \"#utility.yul\":8350:8352   */\n      0x60\n        /* \"#utility.yul\":8343:8348   */\n      dup3\n        /* \"#utility.yul\":8339:8353   */\n      add\n        /* \"#utility.yul\":8332:8381   */\n      mstore\n        /* \"#utility.yul\":8435:8438   */\n      0x80\n        /* \"#utility.yul\":8424:8433   */\n      dup4\n        /* \"#utility.yul\":8420:8439   */\n      add\n        /* \"#utility.yul\":8414:8440   */\n      mload\n        /* \"#utility.yul\":8408:8411   */\n      0x80\n        /* \"#utility.yul\":8401:8406   */\n      dup3\n        /* \"#utility.yul\":8397:8412   */\n      add\n        /* \"#utility.yul\":8390:8441   */\n      mstore\n        /* \"#utility.yul\":8495:8498   */\n      0xa0\n        /* \"#utility.yul\":8484:8493   */\n      dup4\n        /* \"#utility.yul\":8480:8499   */\n      add\n        /* \"#utility.yul\":8474:8500   */\n      mload\n        /* \"#utility.yul\":8468:8471   */\n      0xa0\n        /* \"#utility.yul\":8461:8466   */\n      dup3\n        /* \"#utility.yul\":8457:8472   */\n      add\n        /* \"#utility.yul\":8450:8501   */\n      mstore\n        /* \"#utility.yul\":8555:8558   */\n      0xc0\n        /* \"#utility.yul\":8544:8553   */\n      dup4\n        /* \"#utility.yul\":8540:8559   */\n      add\n        /* \"#utility.yul\":8534:8560   */\n      mload\n        /* \"#utility.yul\":8528:8531   */\n      0xc0\n        /* \"#utility.yul\":8521:8526   */\n      dup3\n        /* \"#utility.yul\":8517:8532   */\n      add\n        /* \"#utility.yul\":8510:8561   */\n      mstore\n        /* \"#utility.yul\":8615:8618   */\n      0xe0\n        /* \"#utility.yul\":8604:8613   */\n      dup4\n        /* \"#utility.yul\":8600:8619   */\n      add\n        /* \"#utility.yul\":8594:8620   */\n      mload\n        /* \"#utility.yul\":8588:8591   */\n      0xe0\n        /* \"#utility.yul\":8581:8586   */\n      dup3\n        /* \"#utility.yul\":8577:8592   */\n      add\n        /* \"#utility.yul\":8570:8621   */\n      mstore\n        /* \"#utility.yul\":8640:8643   */\n      0x0100\n        /* \"#utility.yul\":8696:8698   */\n      dup1\n        /* \"#utility.yul\":8685:8694   */\n      dup5\n        /* \"#utility.yul\":8681:8699   */\n      add\n        /* \"#utility.yul\":8675:8700   */\n      mload\n        /* \"#utility.yul\":8670:8672   */\n      dup2\n        /* \"#utility.yul\":8663:8668   */\n      dup4\n        /* \"#utility.yul\":8659:8673   */\n      add\n        /* \"#utility.yul\":8652:8701   */\n      mstore\n      pop\n        /* \"#utility.yul\":8720:8723   */\n      0x0120\n        /* \"#utility.yul\":8776:8778   */\n      dup1\n        /* \"#utility.yul\":8765:8774   */\n      dup5\n        /* \"#utility.yul\":8761:8779   */\n      add\n        /* \"#utility.yul\":8755:8780   */\n      mload\n        /* \"#utility.yul\":8750:8752   */\n      dup2\n        /* \"#utility.yul\":8743:8748   */\n      dup4\n        /* \"#utility.yul\":8739:8753   */\n      add\n        /* \"#utility.yul\":8732:8781   */\n      mstore\n      pop\n        /* \"#utility.yul\":8800:8803   */\n      0x0140\n        /* \"#utility.yul\":8856:8858   */\n      dup1\n        /* \"#utility.yul\":8845:8854   */\n      dup5\n        /* \"#utility.yul\":8841:8859   */\n      add\n        /* \"#utility.yul\":8835:8860   */\n      mload\n        /* \"#utility.yul\":8830:8832   */\n      dup2\n        /* \"#utility.yul\":8823:8828   */\n      dup4\n        /* \"#utility.yul\":8819:8833   */\n      add\n        /* \"#utility.yul\":8812:8861   */\n      mstore\n      pop\n        /* \"#utility.yul\":8880:8883   */\n      0x0160\n        /* \"#utility.yul\":8936:8938   */\n      dup1\n        /* \"#utility.yul\":8925:8934   */\n      dup5\n        /* \"#utility.yul\":8921:8939   */\n      add\n        /* \"#utility.yul\":8915:8940   */\n      mload\n        /* \"#utility.yul\":8910:8912   */\n      dup2\n        /* \"#utility.yul\":8903:8908   */\n      dup4\n        /* \"#utility.yul\":8899:8913   */\n      add\n        /* \"#utility.yul\":8892:8941   */\n      mstore\n      pop\n        /* \"#utility.yul\":8960:8963   */\n      0x0180\n        /* \"#utility.yul\":8995:9044   */\n      tag_347\n        /* \"#utility.yul\":9040:9042   */\n      dup2\n        /* \"#utility.yul\":9029:9038   */\n      dup6\n        /* \"#utility.yul\":9025:9043   */\n      add\n        /* \"#utility.yul\":8995:9044   */\n      tag_278\n      jump\t// in\n    tag_347:\n        /* \"#utility.yul\":8979:8993   */\n      swap1\n      dup3\n      add\n        /* \"#utility.yul\":8972:9045   */\n      mstore\n        /* \"#utility.yul\":9064:9067   */\n      0x01a0\n        /* \"#utility.yul\":9105:9123   */\n      dup4\n      dup2\n      add\n        /* \"#utility.yul\":9099:9124   */\n      mload\n        /* \"#utility.yul\":9083:9097   */\n      swap1\n      dup3\n      add\n        /* \"#utility.yul\":9076:9125   */\n      mstore\n        /* \"#utility.yul\":9144:9147   */\n      0x01c0\n        /* \"#utility.yul\":9179:9225   */\n      tag_348\n        /* \"#utility.yul\":9206:9224   */\n      dup2\n      dup6\n      add\n        /* \"#utility.yul\":9179:9225   */\n      tag_276\n      jump\t// in\n    tag_348:\n        /* \"#utility.yul\":9163:9177   */\n      swap1\n      dup3\n      add\n        /* \"#utility.yul\":9156:9226   */\n      mstore\n        /* \"#utility.yul\":9167:9172   */\n      swap4\n        /* \"#utility.yul\":7903:9256   */\n      swap3\n      pop\n      pop\n      pop\n      jump\t// out\n        /* \"#utility.yul\":10658:10783   */\n    tag_267:\n        /* \"#utility.yul\":10723:10732   */\n      dup1\n      dup3\n      add\n        /* \"#utility.yul\":10744:10754   */\n      dup1\n      dup3\n      gt\n        /* \"#utility.yul\":10741:10777   */\n      iszero\n      tag_126\n      jumpi\n        /* \"#utility.yul\":10757:10775   */\n      tag_126\n      tag_275\n      jump\t// in\n\n    auxdata: 0xa264697066735822122004500e6ba682d44097dbe501bd74e0e58fc375dad69f7e28461dfe3993b2b74264736f6c63430008190033\n}\n",
				"bytecode": {
					"linkReferences": {},
					"object": "608060405234801561000f575f80fd5b5060405161144b38038061144b83398101604081905261002e91610179565b336040518060400160405280600d81526020016c1b1bdd1d195c9e551a58dad95d609a1b81525060405180604001604052806006815260200165151a58dad95d60d21b8152508160039081610083919061025e565b506004610090828261025e565b5050506001600160a01b0381166100c057604051631e4fbdf760e01b81525f600482015260240160405180910390fd5b6100c981610114565b5060068054911515600160a81b0260ff60a81b19931515600160a01b026001600160a81b03199093166001600160a01b0390951694909417919091179190911691909117905561031d565b600580546001600160a01b038381166001600160a01b0319831681179093556040519116919082907f8be0079c531659141344cd1fd0a4f28419497f9722a3daafe3b4186f6b6457e0905f90a35050565b80518015158114610174575f80fd5b919050565b5f805f6060848603121561018b575f80fd5b83516001600160a01b03811681146101a1575f80fd5b92506101af60208501610165565b91506101bd60408501610165565b90509250925092565b634e487b7160e01b5f52604160045260245ffd5b600181811c908216806101ee57607f821691505b60208210810361020c57634e487b7160e01b5f52602260045260245ffd5b50919050565b601f82111561025957805f5260205f20601f840160051c810160208510156102375750805b601f840160051c820191505b81811015610256575f8155600101610243565b50505b505050565b81516001600160401b03811115610277576102776101c6565b61028b8161028584546101da565b84610212565b602080601f8311600181146102be575f84156102a75750858301515b5f19600386901b1c1916600185901b178555610315565b5f85815260208120601f198616915b828110156102ec578886015182559484019460019091019084016102cd565b508582101561030957878501515f19600388901b60f8161c191681555b505060018460011b0185555b505050505050565b6111218061032a5f395ff3fe608060405234801561000f575f80fd5b506004361061013d575f3560e01c806370a08231116100b4578063a9059cbb11610079578063a9059cbb14610296578063b4309a9c146102a9578063c7ff23bb146102bd578063d9caed12146102d0578063dd62ed3e146102e3578063f2fde38b1461031b575f80fd5b806370a0823114610226578063715018a61461024e57806379cc6790146102565780638da5cb5b1461026957806395d89b411461028e575f80fd5b806318160ddd1161010557806318160ddd146101ba5780631bf69970146101cc57806323b872dd146101df578063313ce567146101f257806342966c68146102005780636ebd327b14610213575f80fd5b8063012c911e1461014157806306e2a29a1461015657806306fdde031461017f578063082921a514610194578063095ea7b3146101a7575b5f80fd5b61015461014f366004610cb7565b61032e565b005b60065461016a90600160a81b900460ff1681565b60405190151581526020015b60405180910390f35b610187610347565b6040516101769190610cec565b6101546101a2366004610d21565b6103d7565b61016a6101b5366004610d21565b6103fa565b6002545b604051908152602001610176565b6101546101da366004610d4b565b610413565b61016a6101ed366004610de2565b610510565b6040515f8152602001610176565b61015461020e366004610e0f565b610533565b610154610221366004610e26565b610540565b6101be610234366004610e6b565b6001600160a01b03165f9081526020819052604090205490565b61015461055b565b610154610264366004610d21565b61056e565b6005546001600160a01b03165b6040516001600160a01b039091168152602001610176565b610187610587565b61016a6102a4366004610d21565b610596565b60065461016a90600160a01b900460ff1681565b600654610276906001600160a01b031681565b6101546102de366004610de2565b6105a3565b6101be6102f1366004610e8d565b6001600160a01b039182165f90815260016020908152604080832093909416825291909152205490565b610154610329366004610e6b565b61061b565b61033781610533565b610342838383610655565b505050565b60606003805461035690610ec4565b80601f016020809104026020016040519081016040528092919081815260200182805461038290610ec4565b80156103cd5780601f106103a4576101008083540402835291602001916103cd565b820191905f5260205f20905b8154815290600101906020018083116103b057829003601f168201915b5050505050905090565b6103df6108e6565b6001600160a01b039091165f90815260076020526040902055565b5f33610407818585610913565b60019150505b92915050565b6001600160a01b0385165f90815260076020526040812054900361046f5760405162461bcd60e51b815260206004820152600e60248201526d6e6f20736574206173207461736b60901b60448201526064015b60405180910390fd5b6001600160a01b0385165f81815260076020526040808220549051636e501eef60e01b815291929091636e501eef906104b2903390899089908990600401610efc565b6020604051808303815f875af11580156104ce573d5f803e3d5ffd5b505050506040513d601f19601f820116820180604052508101906104f29190610f43565b6104fc9190610f6e565b90506105088582610920565b505050505050565b5f3361051d858285610954565b6105288585856109c9565b506001949350505050565b61053d3382610a26565b50565b61054a838261056e565b610555848383610655565b50505050565b6105636108e6565b61056c5f610a5a565b565b610579823383610954565b6105838282610a26565b5050565b60606004805461035690610ec4565b5f336104078185856109c9565b6105ab6108e6565b60405163a9059cbb60e01b81526001600160a01b0383811660048301526024820183905284169063a9059cbb906044016020604051808303815f875af11580156105f7573d5f803e3d5ffd5b505050506040513d601f19601f820116820180604052508101906105559190610f99565b6106236108e6565b6001600160a01b03811661064c57604051631e4fbdf760e01b81525f6004820152602401610466565b61053d81610a5a565b600654604051638f91cd1760e01b8152600481018590525f916001600160a01b031690638f91cd17906024016101e060405180830381865afa15801561069d573d5f803e3d5ffd5b505050506040513d601f19601f820116820180604052508101906106c19190611001565b6101808101519091506001600160a01b031661082357600654600160a01b900460ff16151560011461072b5760405162461bcd60e51b8152602060048201526013602482015272627579207469636b6574206e6f20616c6c6f7760681b6044820152606401610466565b5f8282610160015161073d9190610f6e565b825160065460405163095ea7b360e01b81526001600160a01b03918216600482015260248101849052929350169063095ea7b3906044016020604051808303815f875af1158015610790573d5f803e3d5ffd5b505050506040513d601f19601f820116820180604052508101906107b49190610f99565b5060065460405163c5e7bb3360e01b8152600481018790526001600160a01b038681166024830152604482018690529091169063c5e7bb33906064015f604051808303815f87803b158015610807575f80fd5b505af1158015610819573d5f803e3d5ffd5b5050505050610555565b600654600160a81b900460ff1615156001146108785760405162461bcd60e51b815260206004820152601460248201527373656e64207469636b6574206e6f20616c6c6f7760601b6044820152606401610466565b600654604051635c42e0c560e01b8152600481018690526001600160a01b0385811660248301526044820185905290911690635c42e0c5906064015f604051808303815f87803b1580156108ca575f80fd5b505af11580156108dc573d5f803e3d5ffd5b5050505050505050565b6005546001600160a01b0316331461056c5760405163118cdaa760e01b8152336004820152602401610466565b6103428383836001610aab565b6001600160a01b0382166109495760405163ec442f0560e01b81525f6004820152602401610466565b6105835f8383610b7d565b6001600160a01b038381165f908152600160209081526040808320938616835292905220545f19811461055557818110156109bb57604051637dc7a0d960e11b81526001600160a01b03841660048201526024810182905260448101839052606401610466565b61055584848484035f610aab565b6001600160a01b0383166109f257604051634b637e8f60e11b81525f6004820152602401610466565b6001600160a01b038216610a1b5760405163ec442f0560e01b81525f6004820152602401610466565b610342838383610b7d565b6001600160a01b038216610a4f57604051634b637e8f60e11b81525f6004820152602401610466565b610583825f83610b7d565b600580546001600160a01b038381166001600160a01b0319831681179093556040519116919082907f8be0079c531659141344cd1fd0a4f28419497f9722a3daafe3b4186f6b6457e0905f90a35050565b6001600160a01b038416610ad45760405163e602df0560e01b81525f6004820152602401610466565b6001600160a01b038316610afd57604051634a1406b160e11b81525f6004820152602401610466565b6001600160a01b038085165f908152600160209081526040808320938716835292905220829055801561055557826001600160a01b0316846001600160a01b03167f8c5be1e5ebec7d5bd14f71427d1e84f3dd0314c0f7b2291e5b200ac8c7c3b92584604051610b6f91815260200190565b60405180910390a350505050565b6001600160a01b038316610ba7578060025f828254610b9c91906110d8565b90915550610c179050565b6001600160a01b0383165f9081526020819052604090205481811015610bf95760405163391434e360e21b81526001600160a01b03851660048201526024810182905260448101839052606401610466565b6001600160a01b0384165f9081526020819052604090209082900390555b6001600160a01b038216610c3357600280548290039055610c51565b6001600160a01b0382165f9081526020819052604090208054820190555b816001600160a01b0316836001600160a01b03167fddf252ad1be2c89b69c2b068fc378daa952ba7f163c4a11628f55a4df523b3ef83604051610c9691815260200190565b60405180910390a3505050565b6001600160a01b038116811461053d575f80fd5b5f805f60608486031215610cc9575f80fd5b833592506020840135610cdb81610ca3565b929592945050506040919091013590565b602081525f82518060208401528060208501604085015e5f604082850101526040601f19601f83011684010191505092915050565b5f8060408385031215610d32575f80fd5b8235610d3d81610ca3565b946020939093013593505050565b5f805f805f60808688031215610d5f575f80fd5b8535610d6a81610ca3565b94506020860135610d7a81610ca3565b935060408601359250606086013567ffffffffffffffff80821115610d9d575f80fd5b818801915088601f830112610db0575f80fd5b813581811115610dbe575f80fd5b896020828501011115610dcf575f80fd5b9699959850939650602001949392505050565b5f805f60608486031215610df4575f80fd5b8335610dff81610ca3565b92506020840135610cdb81610ca3565b5f60208284031215610e1f575f80fd5b5035919050565b5f805f8060808587031215610e39575f80fd5b843593506020850135610e4b81610ca3565b92506040850135610e5b81610ca3565b9396929550929360600135925050565b5f60208284031215610e7b575f80fd5b8135610e8681610ca3565b9392505050565b5f8060408385031215610e9e575f80fd5b8235610ea981610ca3565b91506020830135610eb981610ca3565b809150509250929050565b600181811c90821680610ed857607f821691505b602082108103610ef657634e487b7160e01b5f52602260045260245ffd5b50919050565b6001600160a01b0385168152602081018490526060604082018190528101829052818360808301375f818301608090810191909152601f909201601f191601019392505050565b5f60208284031215610f53575f80fd5b5051919050565b634e487b7160e01b5f52601160045260245ffd5b808202811582820484141761040d5761040d610f5a565b80518015158114610f94575f80fd5b919050565b5f60208284031215610fa9575f80fd5b610e8682610f85565b6040516101e0810167ffffffffffffffff81118282101715610fe257634e487b7160e01b5f52604160045260245ffd5b60405290565b8051610f9481610ca3565b805160048110610f94575f80fd5b5f6101e08284031215611012575f80fd5b61101a610fb2565b61102383610fe8565b815261103160208401610ff3565b602082015260408301516040820152606083015160608201526080830151608082015260a083015160a082015260c083015160c082015260e083015160e08201526101008084015181830152506101208084015181830152506101408084015181830152506101608084015181830152506101806110b0818501610fe8565b908201526101a083810151908201526101c06110cd818501610f85565b908201529392505050565b8082018082111561040d5761040d610f5a56fea264697066735822122004500e6ba682d44097dbe501bd74e0e58fc375dad69f7e28461dfe3993b2b74264736f6c63430008190033",
					"opcodes": "PUSH1 0x80 PUSH1 0x40 MSTORE CALLVALUE DUP1 ISZERO PUSH2 0xF JUMPI PUSH0 DUP1 REVERT JUMPDEST POP PUSH1 0x40 MLOAD PUSH2 0x144B CODESIZE SUB DUP1 PUSH2 0x144B DUP4 CODECOPY DUP2 ADD PUSH1 0x40 DUP2 SWAP1 MSTORE PUSH2 0x2E SWAP2 PUSH2 0x179 JUMP JUMPDEST CALLER PUSH1 0x40 MLOAD DUP1 PUSH1 0x40 ADD PUSH1 0x40 MSTORE DUP1 PUSH1 0xD DUP2 MSTORE PUSH1 0x20 ADD PUSH13 0x1B1BDD1D195C9E551A58DAD95D PUSH1 0x9A SHL DUP2 MSTORE POP PUSH1 0x40 MLOAD DUP1 PUSH1 0x40 ADD PUSH1 0x40 MSTORE DUP1 PUSH1 0x6 DUP2 MSTORE PUSH1 0x20 ADD PUSH6 0x151A58DAD95D PUSH1 0xD2 SHL DUP2 MSTORE POP DUP2 PUSH1 0x3 SWAP1 DUP2 PUSH2 0x83 SWAP2 SWAP1 PUSH2 0x25E JUMP JUMPDEST POP PUSH1 0x4 PUSH2 0x90 DUP3 DUP3 PUSH2 0x25E JUMP JUMPDEST POP POP POP PUSH1 0x1 PUSH1 0x1 PUSH1 0xA0 SHL SUB DUP2 AND PUSH2 0xC0 JUMPI PUSH1 0x40 MLOAD PUSH4 0x1E4FBDF7 PUSH1 0xE0 SHL DUP2 MSTORE PUSH0 PUSH1 0x4 DUP3 ADD MSTORE PUSH1 0x24 ADD PUSH1 0x40 MLOAD DUP1 SWAP2 SUB SWAP1 REVERT JUMPDEST PUSH2 0xC9 DUP2 PUSH2 0x114 JUMP JUMPDEST POP PUSH1 0x6 DUP1 SLOAD SWAP2 ISZERO ISZERO PUSH1 0x1 PUSH1 0xA8 SHL MUL PUSH1 0xFF PUSH1 0xA8 SHL NOT SWAP4 ISZERO ISZERO PUSH1 0x1 PUSH1 0xA0 SHL MUL PUSH1 0x1 PUSH1 0x1 PUSH1 0xA8 SHL SUB NOT SWAP1 SWAP4 AND PUSH1 0x1 PUSH1 0x1 PUSH1 0xA0 SHL SUB SWAP1 SWAP6 AND SWAP5 SWAP1 SWAP5 OR SWAP2 SWAP1 SWAP2 OR SWAP2 SWAP1 SWAP2 AND SWAP2 SWAP1 SWAP2 OR SWAP1 SSTORE PUSH2 0x31D JUMP JUMPDEST PUSH1 0x5 DUP1 SLOAD PUSH1 0x1 PUSH1 0x1 PUSH1 0xA0 SHL SUB DUP4 DUP2 AND PUSH1 0x1 PUSH1 0x1 PUSH1 0xA0 SHL SUB NOT DUP4 AND DUP2 OR SWAP1 SWAP4 SSTORE PUSH1 0x40 MLOAD SWAP2 AND SWAP2 SWAP1 DUP3 SWAP1 PUSH32 0x8BE0079C531659141344CD1FD0A4F28419497F9722A3DAAFE3B4186F6B6457E0 SWAP1 PUSH0 SWAP1 LOG3 POP POP JUMP JUMPDEST DUP1 MLOAD DUP1 ISZERO ISZERO DUP2 EQ PUSH2 0x174 JUMPI PUSH0 DUP1 REVERT JUMPDEST SWAP2 SWAP1 POP JUMP JUMPDEST PUSH0 DUP1 PUSH0 PUSH1 0x60 DUP5 DUP7 SUB SLT ISZERO PUSH2 0x18B JUMPI PUSH0 DUP1 REVERT JUMPDEST DUP4 MLOAD PUSH1 0x1 PUSH1 0x1 PUSH1 0xA0 SHL SUB DUP2 AND DUP2 EQ PUSH2 0x1A1 JUMPI PUSH0 DUP1 REVERT JUMPDEST SWAP3 POP PUSH2 0x1AF PUSH1 0x20 DUP6 ADD PUSH2 0x165 JUMP JUMPDEST SWAP2 POP PUSH2 0x1BD PUSH1 0x40 DUP6 ADD PUSH2 0x165 JUMP JUMPDEST SWAP1 POP SWAP3 POP SWAP3 POP SWAP3 JUMP JUMPDEST PUSH4 0x4E487B71 PUSH1 0xE0 SHL PUSH0 MSTORE PUSH1 0x41 PUSH1 0x4 MSTORE PUSH1 0x24 PUSH0 REVERT JUMPDEST PUSH1 0x1 DUP2 DUP2 SHR SWAP1 DUP3 AND DUP1 PUSH2 0x1EE JUMPI PUSH1 0x7F DUP3 AND SWAP2 POP JUMPDEST PUSH1 0x20 DUP3 LT DUP2 SUB PUSH2 0x20C JUMPI PUSH4 0x4E487B71 PUSH1 0xE0 SHL PUSH0 MSTORE PUSH1 0x22 PUSH1 0x4 MSTORE PUSH1 0x24 PUSH0 REVERT JUMPDEST POP SWAP2 SWAP1 POP JUMP JUMPDEST PUSH1 0x1F DUP3 GT ISZERO PUSH2 0x259 JUMPI DUP1 PUSH0 MSTORE PUSH1 0x20 PUSH0 KECCAK256 PUSH1 0x1F DUP5 ADD PUSH1 0x5 SHR DUP2 ADD PUSH1 0x20 DUP6 LT ISZERO PUSH2 0x237 JUMPI POP DUP1 JUMPDEST PUSH1 0x1F DUP5 ADD PUSH1 0x5 SHR DUP3 ADD SWAP2 POP JUMPDEST DUP2 DUP2 LT ISZERO PUSH2 0x256 JUMPI PUSH0 DUP2 SSTORE PUSH1 0x1 ADD PUSH2 0x243 JUMP JUMPDEST POP POP JUMPDEST POP POP POP JUMP JUMPDEST DUP2 MLOAD PUSH1 0x1 PUSH1 0x1 PUSH1 0x40 SHL SUB DUP2 GT ISZERO PUSH2 0x277 JUMPI PUSH2 0x277 PUSH2 0x1C6 JUMP JUMPDEST PUSH2 0x28B DUP2 PUSH2 0x285 DUP5 SLOAD PUSH2 0x1DA JUMP JUMPDEST DUP5 PUSH2 0x212 JUMP JUMPDEST PUSH1 0x20 DUP1 PUSH1 0x1F DUP4 GT PUSH1 0x1 DUP2 EQ PUSH2 0x2BE JUMPI PUSH0 DUP5 ISZERO PUSH2 0x2A7 JUMPI POP DUP6 DUP4 ADD MLOAD JUMPDEST PUSH0 NOT PUSH1 0x3 DUP7 SWAP1 SHL SHR NOT AND PUSH1 0x1 DUP6 SWAP1 SHL OR DUP6 SSTORE PUSH2 0x315 JUMP JUMPDEST PUSH0 DUP6 DUP2 MSTORE PUSH1 0x20 DUP2 KECCAK256 PUSH1 0x1F NOT DUP7 AND SWAP2 JUMPDEST DUP3 DUP2 LT ISZERO PUSH2 0x2EC JUMPI DUP9 DUP7 ADD MLOAD DUP3 SSTORE SWAP5 DUP5 ADD SWAP5 PUSH1 0x1 SWAP1 SWAP2 ADD SWAP1 DUP5 ADD PUSH2 0x2CD JUMP JUMPDEST POP DUP6 DUP3 LT ISZERO PUSH2 0x309 JUMPI DUP8 DUP6 ADD MLOAD PUSH0 NOT PUSH1 0x3 DUP9 SWAP1 SHL PUSH1 0xF8 AND SHR NOT AND DUP2 SSTORE JUMPDEST POP POP PUSH1 0x1 DUP5 PUSH1 0x1 SHL ADD DUP6 SSTORE JUMPDEST POP POP POP POP POP POP JUMP JUMPDEST PUSH2 0x1121 DUP1 PUSH2 0x32A PUSH0 CODECOPY PUSH0 RETURN INVALID PUSH1 0x80 PUSH1 0x40 MSTORE CALLVALUE DUP1 ISZERO PUSH2 0xF JUMPI PUSH0 DUP1 REVERT JUMPDEST POP PUSH1 0x4 CALLDATASIZE LT PUSH2 0x13D JUMPI PUSH0 CALLDATALOAD PUSH1 0xE0 SHR DUP1 PUSH4 0x70A08231 GT PUSH2 0xB4 JUMPI DUP1 PUSH4 0xA9059CBB GT PUSH2 0x79 JUMPI DUP1 PUSH4 0xA9059CBB EQ PUSH2 0x296 JUMPI DUP1 PUSH4 0xB4309A9C EQ PUSH2 0x2A9 JUMPI DUP1 PUSH4 0xC7FF23BB EQ PUSH2 0x2BD JUMPI DUP1 PUSH4 0xD9CAED12 EQ PUSH2 0x2D0 JUMPI DUP1 PUSH4 0xDD62ED3E EQ PUSH2 0x2E3 JUMPI DUP1 PUSH4 0xF2FDE38B EQ PUSH2 0x31B JUMPI PUSH0 DUP1 REVERT JUMPDEST DUP1 PUSH4 0x70A08231 EQ PUSH2 0x226 JUMPI DUP1 PUSH4 0x715018A6 EQ PUSH2 0x24E JUMPI DUP1 PUSH4 0x79CC6790 EQ PUSH2 0x256 JUMPI DUP1 PUSH4 0x8DA5CB5B EQ PUSH2 0x269 JUMPI DUP1 PUSH4 0x95D89B41 EQ PUSH2 0x28E JUMPI PUSH0 DUP1 REVERT JUMPDEST DUP1 PUSH4 0x18160DDD GT PUSH2 0x105 JUMPI DUP1 PUSH4 0x18160DDD EQ PUSH2 0x1BA JUMPI DUP1 PUSH4 0x1BF69970 EQ PUSH2 0x1CC JUMPI DUP1 PUSH4 0x23B872DD EQ PUSH2 0x1DF JUMPI DUP1 PUSH4 0x313CE567 EQ PUSH2 0x1F2 JUMPI DUP1 PUSH4 0x42966C68 EQ PUSH2 0x200 JUMPI DUP1 PUSH4 0x6EBD327B EQ PUSH2 0x213 JUMPI PUSH0 DUP1 REVERT JUMPDEST DUP1 PUSH4 0x12C911E EQ PUSH2 0x141 JUMPI DUP1 PUSH4 0x6E2A29A EQ PUSH2 0x156 JUMPI DUP1 PUSH4 0x6FDDE03 EQ PUSH2 0x17F JUMPI DUP1 PUSH4 0x82921A5 EQ PUSH2 0x194 JUMPI DUP1 PUSH4 0x95EA7B3 EQ PUSH2 0x1A7 JUMPI JUMPDEST PUSH0 DUP1 REVERT JUMPDEST PUSH2 0x154 PUSH2 0x14F CALLDATASIZE PUSH1 0x4 PUSH2 0xCB7 JUMP JUMPDEST PUSH2 0x32E JUMP JUMPDEST STOP JUMPDEST PUSH1 0x6 SLOAD PUSH2 0x16A SWAP1 PUSH1 0x1 PUSH1 0xA8 SHL SWAP1 DIV PUSH1 0xFF AND DUP2 JUMP JUMPDEST PUSH1 0x40 MLOAD SWAP1 ISZERO ISZERO DUP2 MSTORE PUSH1 0x20 ADD JUMPDEST PUSH1 0x40 MLOAD DUP1 SWAP2 SUB SWAP1 RETURN JUMPDEST PUSH2 0x187 PUSH2 0x347 JUMP JUMPDEST PUSH1 0x40 MLOAD PUSH2 0x176 SWAP2 SWAP1 PUSH2 0xCEC JUMP JUMPDEST PUSH2 0x154 PUSH2 0x1A2 CALLDATASIZE PUSH1 0x4 PUSH2 0xD21 JUMP JUMPDEST PUSH2 0x3D7 JUMP JUMPDEST PUSH2 0x16A PUSH2 0x1B5 CALLDATASIZE PUSH1 0x4 PUSH2 0xD21 JUMP JUMPDEST PUSH2 0x3FA JUMP JUMPDEST PUSH1 0x2 SLOAD JUMPDEST PUSH1 0x40 MLOAD SWAP1 DUP2 MSTORE PUSH1 0x20 ADD PUSH2 0x176 JUMP JUMPDEST PUSH2 0x154 PUSH2 0x1DA CALLDATASIZE PUSH1 0x4 PUSH2 0xD4B JUMP JUMPDEST PUSH2 0x413 JUMP JUMPDEST PUSH2 0x16A PUSH2 0x1ED CALLDATASIZE PUSH1 0x4 PUSH2 0xDE2 JUMP JUMPDEST PUSH2 0x510 JUMP JUMPDEST PUSH1 0x40 MLOAD PUSH0 DUP2 MSTORE PUSH1 0x20 ADD PUSH2 0x176 JUMP JUMPDEST PUSH2 0x154 PUSH2 0x20E CALLDATASIZE PUSH1 0x4 PUSH2 0xE0F JUMP JUMPDEST PUSH2 0x533 JUMP JUMPDEST PUSH2 0x154 PUSH2 0x221 CALLDATASIZE PUSH1 0x4 PUSH2 0xE26 JUMP JUMPDEST PUSH2 0x540 JUMP JUMPDEST PUSH2 0x1BE PUSH2 0x234 CALLDATASIZE PUSH1 0x4 PUSH2 0xE6B JUMP JUMPDEST PUSH1 0x1 PUSH1 0x1 PUSH1 0xA0 SHL SUB AND PUSH0 SWAP1 DUP2 MSTORE PUSH1 0x20 DUP2 SWAP1 MSTORE PUSH1 0x40 SWAP1 KECCAK256 SLOAD SWAP1 JUMP JUMPDEST PUSH2 0x154 PUSH2 0x55B JUMP JUMPDEST PUSH2 0x154 PUSH2 0x264 CALLDATASIZE PUSH1 0x4 PUSH2 0xD21 JUMP JUMPDEST PUSH2 0x56E JUMP JUMPDEST PUSH1 0x5 SLOAD PUSH1 0x1 PUSH1 0x1 PUSH1 0xA0 SHL SUB AND JUMPDEST PUSH1 0x40 MLOAD PUSH1 0x1 PUSH1 0x1 PUSH1 0xA0 SHL SUB SWAP1 SWAP2 AND DUP2 MSTORE PUSH1 0x20 ADD PUSH2 0x176 JUMP JUMPDEST PUSH2 0x187 PUSH2 0x587 JUMP JUMPDEST PUSH2 0x16A PUSH2 0x2A4 CALLDATASIZE PUSH1 0x4 PUSH2 0xD21 JUMP JUMPDEST PUSH2 0x596 JUMP JUMPDEST PUSH1 0x6 SLOAD PUSH2 0x16A SWAP1 PUSH1 0x1 PUSH1 0xA0 SHL SWAP1 DIV PUSH1 0xFF AND DUP2 JUMP JUMPDEST PUSH1 0x6 SLOAD PUSH2 0x276 SWAP1 PUSH1 0x1 PUSH1 0x1 PUSH1 0xA0 SHL SUB AND DUP2 JUMP JUMPDEST PUSH2 0x154 PUSH2 0x2DE CALLDATASIZE PUSH1 0x4 PUSH2 0xDE2 JUMP JUMPDEST PUSH2 0x5A3 JUMP JUMPDEST PUSH2 0x1BE PUSH2 0x2F1 CALLDATASIZE PUSH1 0x4 PUSH2 0xE8D JUMP JUMPDEST PUSH1 0x1 PUSH1 0x1 PUSH1 0xA0 SHL SUB SWAP2 DUP3 AND PUSH0 SWAP1 DUP2 MSTORE PUSH1 0x1 PUSH1 0x20 SWAP1 DUP2 MSTORE PUSH1 0x40 DUP1 DUP4 KECCAK256 SWAP4 SWAP1 SWAP5 AND DUP3 MSTORE SWAP2 SWAP1 SWAP2 MSTORE KECCAK256 SLOAD SWAP1 JUMP JUMPDEST PUSH2 0x154 PUSH2 0x329 CALLDATASIZE PUSH1 0x4 PUSH2 0xE6B JUMP JUMPDEST PUSH2 0x61B JUMP JUMPDEST PUSH2 0x337 DUP2 PUSH2 0x533 JUMP JUMPDEST PUSH2 0x342 DUP4 DUP4 DUP4 PUSH2 0x655 JUMP JUMPDEST POP POP POP JUMP JUMPDEST PUSH1 0x60 PUSH1 0x3 DUP1 SLOAD PUSH2 0x356 SWAP1 PUSH2 0xEC4 JUMP JUMPDEST DUP1 PUSH1 0x1F ADD PUSH1 0x20 DUP1 SWAP2 DIV MUL PUSH1 0x20 ADD PUSH1 0x40 MLOAD SWAP1 DUP2 ADD PUSH1 0x40 MSTORE DUP1 SWAP3 SWAP2 SWAP1 DUP2 DUP2 MSTORE PUSH1 0x20 ADD DUP3 DUP1 SLOAD PUSH2 0x382 SWAP1 PUSH2 0xEC4 JUMP JUMPDEST DUP1 ISZERO PUSH2 0x3CD JUMPI DUP1 PUSH1 0x1F LT PUSH2 0x3A4 JUMPI PUSH2 0x100 DUP1 DUP4 SLOAD DIV MUL DUP4 MSTORE SWAP2 PUSH1 0x20 ADD SWAP2 PUSH2 0x3CD JUMP JUMPDEST DUP3 ADD SWAP2 SWAP1 PUSH0 MSTORE PUSH1 0x20 PUSH0 KECCAK256 SWAP1 JUMPDEST DUP2 SLOAD DUP2 MSTORE SWAP1 PUSH1 0x1 ADD SWAP1 PUSH1 0x20 ADD DUP1 DUP4 GT PUSH2 0x3B0 JUMPI DUP3 SWAP1 SUB PUSH1 0x1F AND DUP3 ADD SWAP2 JUMPDEST POP POP POP POP POP SWAP1 POP SWAP1 JUMP JUMPDEST PUSH2 0x3DF PUSH2 0x8E6 JUMP JUMPDEST PUSH1 0x1 PUSH1 0x1 PUSH1 0xA0 SHL SUB SWAP1 SWAP2 AND PUSH0 SWAP1 DUP2 MSTORE PUSH1 0x7 PUSH1 0x20 MSTORE PUSH1 0x40 SWAP1 KECCAK256 SSTORE JUMP JUMPDEST PUSH0 CALLER PUSH2 0x407 DUP2 DUP6 DUP6 PUSH2 0x913 JUMP JUMPDEST PUSH1 0x1 SWAP2 POP POP JUMPDEST SWAP3 SWAP2 POP POP JUMP JUMPDEST PUSH1 0x1 PUSH1 0x1 PUSH1 0xA0 SHL SUB DUP6 AND PUSH0 SWAP1 DUP2 MSTORE PUSH1 0x7 PUSH1 0x20 MSTORE PUSH1 0x40 DUP2 KECCAK256 SLOAD SWAP1 SUB PUSH2 0x46F JUMPI PUSH1 0x40 MLOAD PUSH3 0x461BCD PUSH1 0xE5 SHL DUP2 MSTORE PUSH1 0x20 PUSH1 0x4 DUP3 ADD MSTORE PUSH1 0xE PUSH1 0x24 DUP3 ADD MSTORE PUSH14 0x6E6F20736574206173207461736B PUSH1 0x90 SHL PUSH1 0x44 DUP3 ADD MSTORE PUSH1 0x64 ADD JUMPDEST PUSH1 0x40 MLOAD DUP1 SWAP2 SUB SWAP1 REVERT JUMPDEST PUSH1 0x1 PUSH1 0x1 PUSH1 0xA0 SHL SUB DUP6 AND PUSH0 DUP2 DUP2 MSTORE PUSH1 0x7 PUSH1 0x20 MSTORE PUSH1 0x40 DUP1 DUP3 KECCAK256 SLOAD SWAP1 MLOAD PUSH4 0x6E501EEF PUSH1 0xE0 SHL DUP2 MSTORE SWAP2 SWAP3 SWAP1 SWAP2 PUSH4 0x6E501EEF SWAP1 PUSH2 0x4B2 SWAP1 CALLER SWAP1 DUP10 SWAP1 DUP10 SWAP1 DUP10 SWAP1 PUSH1 0x4 ADD PUSH2 0xEFC JUMP JUMPDEST PUSH1 0x20 PUSH1 0x40 MLOAD DUP1 DUP4 SUB DUP2 PUSH0 DUP8 GAS CALL ISZERO DUP1 ISZERO PUSH2 0x4CE JUMPI RETURNDATASIZE PUSH0 DUP1 RETURNDATACOPY RETURNDATASIZE PUSH0 REVERT JUMPDEST POP POP POP POP PUSH1 0x40 MLOAD RETURNDATASIZE PUSH1 0x1F NOT PUSH1 0x1F DUP3 ADD AND DUP3 ADD DUP1 PUSH1 0x40 MSTORE POP DUP2 ADD SWAP1 PUSH2 0x4F2 SWAP2 SWAP1 PUSH2 0xF43 JUMP JUMPDEST PUSH2 0x4FC SWAP2 SWAP1 PUSH2 0xF6E JUMP JUMPDEST SWAP1 POP PUSH2 0x508 DUP6 DUP3 PUSH2 0x920 JUMP JUMPDEST POP POP POP POP POP POP JUMP JUMPDEST PUSH0 CALLER PUSH2 0x51D DUP6 DUP3 DUP6 PUSH2 0x954 JUMP JUMPDEST PUSH2 0x528 DUP6 DUP6 DUP6 PUSH2 0x9C9 JUMP JUMPDEST POP PUSH1 0x1 SWAP5 SWAP4 POP POP POP POP JUMP JUMPDEST PUSH2 0x53D CALLER DUP3 PUSH2 0xA26 JUMP JUMPDEST POP JUMP JUMPDEST PUSH2 0x54A DUP4 DUP3 PUSH2 0x56E JUMP JUMPDEST PUSH2 0x555 DUP5 DUP4 DUP4 PUSH2 0x655 JUMP JUMPDEST POP POP POP POP JUMP JUMPDEST PUSH2 0x563 PUSH2 0x8E6 JUMP JUMPDEST PUSH2 0x56C PUSH0 PUSH2 0xA5A JUMP JUMPDEST JUMP JUMPDEST PUSH2 0x579 DUP3 CALLER DUP4 PUSH2 0x954 JUMP JUMPDEST PUSH2 0x583 DUP3 DUP3 PUSH2 0xA26 JUMP JUMPDEST POP POP JUMP JUMPDEST PUSH1 0x60 PUSH1 0x4 DUP1 SLOAD PUSH2 0x356 SWAP1 PUSH2 0xEC4 JUMP JUMPDEST PUSH0 CALLER PUSH2 0x407 DUP2 DUP6 DUP6 PUSH2 0x9C9 JUMP JUMPDEST PUSH2 0x5AB PUSH2 0x8E6 JUMP JUMPDEST PUSH1 0x40 MLOAD PUSH4 0xA9059CBB PUSH1 0xE0 SHL DUP2 MSTORE PUSH1 0x1 PUSH1 0x1 PUSH1 0xA0 SHL SUB DUP4 DUP2 AND PUSH1 0x4 DUP4 ADD MSTORE PUSH1 0x24 DUP3 ADD DUP4 SWAP1 MSTORE DUP5 AND SWAP1 PUSH4 0xA9059CBB SWAP1 PUSH1 0x44 ADD PUSH1 0x20 PUSH1 0x40 MLOAD DUP1 DUP4 SUB DUP2 PUSH0 DUP8 GAS CALL ISZERO DUP1 ISZERO PUSH2 0x5F7 JUMPI RETURNDATASIZE PUSH0 DUP1 RETURNDATACOPY RETURNDATASIZE PUSH0 REVERT JUMPDEST POP POP POP POP PUSH1 0x40 MLOAD RETURNDATASIZE PUSH1 0x1F NOT PUSH1 0x1F DUP3 ADD AND DUP3 ADD DUP1 PUSH1 0x40 MSTORE POP DUP2 ADD SWAP1 PUSH2 0x555 SWAP2 SWAP1 PUSH2 0xF99 JUMP JUMPDEST PUSH2 0x623 PUSH2 0x8E6 JUMP JUMPDEST PUSH1 0x1 PUSH1 0x1 PUSH1 0xA0 SHL SUB DUP2 AND PUSH2 0x64C JUMPI PUSH1 0x40 MLOAD PUSH4 0x1E4FBDF7 PUSH1 0xE0 SHL DUP2 MSTORE PUSH0 PUSH1 0x4 DUP3 ADD MSTORE PUSH1 0x24 ADD PUSH2 0x466 JUMP JUMPDEST PUSH2 0x53D DUP2 PUSH2 0xA5A JUMP JUMPDEST PUSH1 0x6 SLOAD PUSH1 0x40 MLOAD PUSH4 0x8F91CD17 PUSH1 0xE0 SHL DUP2 MSTORE PUSH1 0x4 DUP2 ADD DUP6 SWAP1 MSTORE PUSH0 SWAP2 PUSH1 0x1 PUSH1 0x1 PUSH1 0xA0 SHL SUB AND SWAP1 PUSH4 0x8F91CD17 SWAP1 PUSH1 0x24 ADD PUSH2 0x1E0 PUSH1 0x40 MLOAD DUP1 DUP4 SUB DUP2 DUP7 GAS STATICCALL ISZERO DUP1 ISZERO PUSH2 0x69D JUMPI RETURNDATASIZE PUSH0 DUP1 RETURNDATACOPY RETURNDATASIZE PUSH0 REVERT JUMPDEST POP POP POP POP PUSH1 0x40 MLOAD RETURNDATASIZE PUSH1 0x1F NOT PUSH1 0x1F DUP3 ADD AND DUP3 ADD DUP1 PUSH1 0x40 MSTORE POP DUP2 ADD SWAP1 PUSH2 0x6C1 SWAP2 SWAP1 PUSH2 0x1001 JUMP JUMPDEST PUSH2 0x180 DUP2 ADD MLOAD SWAP1 SWAP2 POP PUSH1 0x1 PUSH1 0x1 PUSH1 0xA0 SHL SUB AND PUSH2 0x823 JUMPI PUSH1 0x6 SLOAD PUSH1 0x1 PUSH1 0xA0 SHL SWAP1 DIV PUSH1 0xFF AND ISZERO ISZERO PUSH1 0x1 EQ PUSH2 0x72B JUMPI PUSH1 0x40 MLOAD PUSH3 0x461BCD PUSH1 0xE5 SHL DUP2 MSTORE PUSH1 0x20 PUSH1 0x4 DUP3 ADD MSTORE PUSH1 0x13 PUSH1 0x24 DUP3 ADD MSTORE PUSH19 0x627579207469636B6574206E6F20616C6C6F77 PUSH1 0x68 SHL PUSH1 0x44 DUP3 ADD MSTORE PUSH1 0x64 ADD PUSH2 0x466 JUMP JUMPDEST PUSH0 DUP3 DUP3 PUSH2 0x160 ADD MLOAD PUSH2 0x73D SWAP2 SWAP1 PUSH2 0xF6E JUMP JUMPDEST DUP3 MLOAD PUSH1 0x6 SLOAD PUSH1 0x40 MLOAD PUSH4 0x95EA7B3 PUSH1 0xE0 SHL DUP2 MSTORE PUSH1 0x1 PUSH1 0x1 PUSH1 0xA0 SHL SUB SWAP2 DUP3 AND PUSH1 0x4 DUP3 ADD MSTORE PUSH1 0x24 DUP2 ADD DUP5 SWAP1 MSTORE SWAP3 SWAP4 POP AND SWAP1 PUSH4 0x95EA7B3 SWAP1 PUSH1 0x44 ADD PUSH1 0x20 PUSH1 0x40 MLOAD DUP1 DUP4 SUB DUP2 PUSH0 DUP8 GAS CALL ISZERO DUP1 ISZERO PUSH2 0x790 JUMPI RETURNDATASIZE PUSH0 DUP1 RETURNDATACOPY RETURNDATASIZE PUSH0 REVERT JUMPDEST POP POP POP POP PUSH1 0x40 MLOAD RETURNDATASIZE PUSH1 0x1F NOT PUSH1 0x1F DUP3 ADD AND DUP3 ADD DUP1 PUSH1 0x40 MSTORE POP DUP2 ADD SWAP1 PUSH2 0x7B4 SWAP2 SWAP1 PUSH2 0xF99 JUMP JUMPDEST POP PUSH1 0x6 SLOAD PUSH1 0x40 MLOAD PUSH4 0xC5E7BB33 PUSH1 0xE0 SHL DUP2 MSTORE PUSH1 0x4 DUP2 ADD DUP8 SWAP1 MSTORE PUSH1 0x1 PUSH1 0x1 PUSH1 0xA0 SHL SUB DUP7 DUP2 AND PUSH1 0x24 DUP4 ADD MSTORE PUSH1 0x44 DUP3 ADD DUP7 SWAP1 MSTORE SWAP1 SWAP2 AND SWAP1 PUSH4 0xC5E7BB33 SWAP1 PUSH1 0x64 ADD PUSH0 PUSH1 0x40 MLOAD DUP1 DUP4 SUB DUP2 PUSH0 DUP8 DUP1 EXTCODESIZE ISZERO DUP1 ISZERO PUSH2 0x807 JUMPI PUSH0 DUP1 REVERT JUMPDEST POP GAS CALL ISZERO DUP1 ISZERO PUSH2 0x819 JUMPI RETURNDATASIZE PUSH0 DUP1 RETURNDATACOPY RETURNDATASIZE PUSH0 REVERT JUMPDEST POP POP POP POP POP PUSH2 0x555 JUMP JUMPDEST PUSH1 0x6 SLOAD PUSH1 0x1 PUSH1 0xA8 SHL SWAP1 DIV PUSH1 0xFF AND ISZERO ISZERO PUSH1 0x1 EQ PUSH2 0x878 JUMPI PUSH1 0x40 MLOAD PUSH3 0x461BCD PUSH1 0xE5 SHL DUP2 MSTORE PUSH1 0x20 PUSH1 0x4 DUP3 ADD MSTORE PUSH1 0x14 PUSH1 0x24 DUP3 ADD MSTORE PUSH20 0x73656E64207469636B6574206E6F20616C6C6F77 PUSH1 0x60 SHL PUSH1 0x44 DUP3 ADD MSTORE PUSH1 0x64 ADD PUSH2 0x466 JUMP JUMPDEST PUSH1 0x6 SLOAD PUSH1 0x40 MLOAD PUSH4 0x5C42E0C5 PUSH1 0xE0 SHL DUP2 MSTORE PUSH1 0x4 DUP2 ADD DUP7 SWAP1 MSTORE PUSH1 0x1 PUSH1 0x1 PUSH1 0xA0 SHL SUB DUP6 DUP2 AND PUSH1 0x24 DUP4 ADD MSTORE PUSH1 0x44 DUP3 ADD DUP6 SWAP1 MSTORE SWAP1 SWAP2 AND SWAP1 PUSH4 0x5C42E0C5 SWAP1 PUSH1 0x64 ADD PUSH0 PUSH1 0x40 MLOAD DUP1 DUP4 SUB DUP2 PUSH0 DUP8 DUP1 EXTCODESIZE ISZERO DUP1 ISZERO PUSH2 0x8CA JUMPI PUSH0 DUP1 REVERT JUMPDEST POP GAS CALL ISZERO DUP1 ISZERO PUSH2 0x8DC JUMPI RETURNDATASIZE PUSH0 DUP1 RETURNDATACOPY RETURNDATASIZE PUSH0 REVERT JUMPDEST POP POP POP POP POP POP POP POP JUMP JUMPDEST PUSH1 0x5 SLOAD PUSH1 0x1 PUSH1 0x1 PUSH1 0xA0 SHL SUB AND CALLER EQ PUSH2 0x56C JUMPI PUSH1 0x40 MLOAD PUSH4 0x118CDAA7 PUSH1 0xE0 SHL DUP2 MSTORE CALLER PUSH1 0x4 DUP3 ADD MSTORE PUSH1 0x24 ADD PUSH2 0x466 JUMP JUMPDEST PUSH2 0x342 DUP4 DUP4 DUP4 PUSH1 0x1 PUSH2 0xAAB JUMP JUMPDEST PUSH1 0x1 PUSH1 0x1 PUSH1 0xA0 SHL SUB DUP3 AND PUSH2 0x949 JUMPI PUSH1 0x40 MLOAD PUSH4 0xEC442F05 PUSH1 0xE0 SHL DUP2 MSTORE PUSH0 PUSH1 0x4 DUP3 ADD MSTORE PUSH1 0x24 ADD PUSH2 0x466 JUMP JUMPDEST PUSH2 0x583 PUSH0 DUP4 DUP4 PUSH2 0xB7D JUMP JUMPDEST PUSH1 0x1 PUSH1 0x1 PUSH1 0xA0 SHL SUB DUP4 DUP2 AND PUSH0 SWAP1 DUP2 MSTORE PUSH1 0x1 PUSH1 0x20 SWAP1 DUP2 MSTORE PUSH1 0x40 DUP1 DUP4 KECCAK256 SWAP4 DUP7 AND DUP4 MSTORE SWAP3 SWAP1 MSTORE KECCAK256 SLOAD PUSH0 NOT DUP2 EQ PUSH2 0x555 JUMPI DUP2 DUP2 LT ISZERO PUSH2 0x9BB JUMPI PUSH1 0x40 MLOAD PUSH4 0x7DC7A0D9 PUSH1 0xE1 SHL DUP2 MSTORE PUSH1 0x1 PUSH1 0x1 PUSH1 0xA0 SHL SUB DUP5 AND PUSH1 0x4 DUP3 ADD MSTORE PUSH1 0x24 DUP2 ADD DUP3 SWAP1 MSTORE PUSH1 0x44 DUP2 ADD DUP4 SWAP1 MSTORE PUSH1 0x64 ADD PUSH2 0x466 JUMP JUMPDEST PUSH2 0x555 DUP5 DUP5 DUP5 DUP5 SUB PUSH0 PUSH2 0xAAB JUMP JUMPDEST PUSH1 0x1 PUSH1 0x1 PUSH1 0xA0 SHL SUB DUP4 AND PUSH2 0x9F2 JUMPI PUSH1 0x40 MLOAD PUSH4 0x4B637E8F PUSH1 0xE1 SHL DUP2 MSTORE PUSH0 PUSH1 0x4 DUP3 ADD MSTORE PUSH1 0x24 ADD PUSH2 0x466 JUMP JUMPDEST PUSH1 0x1 PUSH1 0x1 PUSH1 0xA0 SHL SUB DUP3 AND PUSH2 0xA1B JUMPI PUSH1 0x40 MLOAD PUSH4 0xEC442F05 PUSH1 0xE0 SHL DUP2 MSTORE PUSH0 PUSH1 0x4 DUP3 ADD MSTORE PUSH1 0x24 ADD PUSH2 0x466 JUMP JUMPDEST PUSH2 0x342 DUP4 DUP4 DUP4 PUSH2 0xB7D JUMP JUMPDEST PUSH1 0x1 PUSH1 0x1 PUSH1 0xA0 SHL SUB DUP3 AND PUSH2 0xA4F JUMPI PUSH1 0x40 MLOAD PUSH4 0x4B637E8F PUSH1 0xE1 SHL DUP2 MSTORE PUSH0 PUSH1 0x4 DUP3 ADD MSTORE PUSH1 0x24 ADD PUSH2 0x466 JUMP JUMPDEST PUSH2 0x583 DUP3 PUSH0 DUP4 PUSH2 0xB7D JUMP JUMPDEST PUSH1 0x5 DUP1 SLOAD PUSH1 0x1 PUSH1 0x1 PUSH1 0xA0 SHL SUB DUP4 DUP2 AND PUSH1 0x1 PUSH1 0x1 PUSH1 0xA0 SHL SUB NOT DUP4 AND DUP2 OR SWAP1 SWAP4 SSTORE PUSH1 0x40 MLOAD SWAP2 AND SWAP2 SWAP1 DUP3 SWAP1 PUSH32 0x8BE0079C531659141344CD1FD0A4F28419497F9722A3DAAFE3B4186F6B6457E0 SWAP1 PUSH0 SWAP1 LOG3 POP POP JUMP JUMPDEST PUSH1 0x1 PUSH1 0x1 PUSH1 0xA0 SHL SUB DUP5 AND PUSH2 0xAD4 JUMPI PUSH1 0x40 MLOAD PUSH4 0xE602DF05 PUSH1 0xE0 SHL DUP2 MSTORE PUSH0 PUSH1 0x4 DUP3 ADD MSTORE PUSH1 0x24 ADD PUSH2 0x466 JUMP JUMPDEST PUSH1 0x1 PUSH1 0x1 PUSH1 0xA0 SHL SUB DUP4 AND PUSH2 0xAFD JUMPI PUSH1 0x40 MLOAD PUSH4 0x4A1406B1 PUSH1 0xE1 SHL DUP2 MSTORE PUSH0 PUSH1 0x4 DUP3 ADD MSTORE PUSH1 0x24 ADD PUSH2 0x466 JUMP JUMPDEST PUSH1 0x1 PUSH1 0x1 PUSH1 0xA0 SHL SUB DUP1 DUP6 AND PUSH0 SWAP1 DUP2 MSTORE PUSH1 0x1 PUSH1 0x20 SWAP1 DUP2 MSTORE PUSH1 0x40 DUP1 DUP4 KECCAK256 SWAP4 DUP8 AND DUP4 MSTORE SWAP3 SWAP1 MSTORE KECCAK256 DUP3 SWAP1 SSTORE DUP1 ISZERO PUSH2 0x555 JUMPI DUP3 PUSH1 0x1 PUSH1 0x1 PUSH1 0xA0 SHL SUB AND DUP5 PUSH1 0x1 PUSH1 0x1 PUSH1 0xA0 SHL SUB AND PUSH32 0x8C5BE1E5EBEC7D5BD14F71427D1E84F3DD0314C0F7B2291E5B200AC8C7C3B925 DUP5 PUSH1 0x40 MLOAD PUSH2 0xB6F SWAP2 DUP2 MSTORE PUSH1 0x20 ADD SWAP1 JUMP JUMPDEST PUSH1 0x40 MLOAD DUP1 SWAP2 SUB SWAP1 LOG3 POP POP POP POP JUMP JUMPDEST PUSH1 0x1 PUSH1 0x1 PUSH1 0xA0 SHL SUB DUP4 AND PUSH2 0xBA7 JUMPI DUP1 PUSH1 0x2 PUSH0 DUP3 DUP3 SLOAD PUSH2 0xB9C SWAP2 SWAP1 PUSH2 0x10D8 JUMP JUMPDEST SWAP1 SWAP2 SSTORE POP PUSH2 0xC17 SWAP1 POP JUMP JUMPDEST PUSH1 0x1 PUSH1 0x1 PUSH1 0xA0 SHL SUB DUP4 AND PUSH0 SWAP1 DUP2 MSTORE PUSH1 0x20 DUP2 SWAP1 MSTORE PUSH1 0x40 SWAP1 KECCAK256 SLOAD DUP2 DUP2 LT ISZERO PUSH2 0xBF9 JUMPI PUSH1 0x40 MLOAD PUSH4 0x391434E3 PUSH1 0xE2 SHL DUP2 MSTORE PUSH1 0x1 PUSH1 0x1 PUSH1 0xA0 SHL SUB DUP6 AND PUSH1 0x4 DUP3 ADD MSTORE PUSH1 0x24 DUP2 ADD DUP3 SWAP1 MSTORE PUSH1 0x44 DUP2 ADD DUP4 SWAP1 MSTORE PUSH1 0x64 ADD PUSH2 0x466 JUMP JUMPDEST PUSH1 0x1 PUSH1 0x1 PUSH1 0xA0 SHL SUB DUP5 AND PUSH0 SWAP1 DUP2 MSTORE PUSH1 0x20 DUP2 SWAP1 MSTORE PUSH1 0x40 SWAP1 KECCAK256 SWAP1 DUP3 SWAP1 SUB SWAP1 SSTORE JUMPDEST PUSH1 0x1 PUSH1 0x1 PUSH1 0xA0 SHL SUB DUP3 AND PUSH2 0xC33 JUMPI PUSH1 0x2 DUP1 SLOAD DUP3 SWAP1 SUB SWAP1 SSTORE PUSH2 0xC51 JUMP JUMPDEST PUSH1 0x1 PUSH1 0x1 PUSH1 0xA0 SHL SUB DUP3 AND PUSH0 SWAP1 DUP2 MSTORE PUSH1 0x20 DUP2 SWAP1 MSTORE PUSH1 0x40 SWAP1 KECCAK256 DUP1 SLOAD DUP3 ADD SWAP1 SSTORE JUMPDEST DUP2 PUSH1 0x1 PUSH1 0x1 PUSH1 0xA0 SHL SUB AND DUP4 PUSH1 0x1 PUSH1 0x1 PUSH1 0xA0 SHL SUB AND PUSH32 0xDDF252AD1BE2C89B69C2B068FC378DAA952BA7F163C4A11628F55A4DF523B3EF DUP4 PUSH1 0x40 MLOAD PUSH2 0xC96 SWAP2 DUP2 MSTORE PUSH1 0x20 ADD SWAP1 JUMP JUMPDEST PUSH1 0x40 MLOAD DUP1 SWAP2 SUB SWAP1 LOG3 POP POP POP JUMP JUMPDEST PUSH1 0x1 PUSH1 0x1 PUSH1 0xA0 SHL SUB DUP2 AND DUP2 EQ PUSH2 0x53D JUMPI PUSH0 DUP1 REVERT JUMPDEST PUSH0 DUP1 PUSH0 PUSH1 0x60 DUP5 DUP7 SUB SLT ISZERO PUSH2 0xCC9 JUMPI PUSH0 DUP1 REVERT JUMPDEST DUP4 CALLDATALOAD SWAP3 POP PUSH1 0x20 DUP5 ADD CALLDATALOAD PUSH2 0xCDB DUP2 PUSH2 0xCA3 JUMP JUMPDEST SWAP3 SWAP6 SWAP3 SWAP5 POP POP POP PUSH1 0x40 SWAP2 SWAP1 SWAP2 ADD CALLDATALOAD SWAP1 JUMP JUMPDEST PUSH1 0x20 DUP2 MSTORE PUSH0 DUP3 MLOAD DUP1 PUSH1 0x20 DUP5 ADD MSTORE DUP1 PUSH1 0x20 DUP6 ADD PUSH1 0x40 DUP6 ADD MCOPY PUSH0 PUSH1 0x40 DUP3 DUP6 ADD ADD MSTORE PUSH1 0x40 PUSH1 0x1F NOT PUSH1 0x1F DUP4 ADD AND DUP5 ADD ADD SWAP2 POP POP SWAP3 SWAP2 POP POP JUMP JUMPDEST PUSH0 DUP1 PUSH1 0x40 DUP4 DUP6 SUB SLT ISZERO PUSH2 0xD32 JUMPI PUSH0 DUP1 REVERT JUMPDEST DUP3 CALLDATALOAD PUSH2 0xD3D DUP2 PUSH2 0xCA3 JUMP JUMPDEST SWAP5 PUSH1 0x20 SWAP4 SWAP1 SWAP4 ADD CALLDATALOAD SWAP4 POP POP POP JUMP JUMPDEST PUSH0 DUP1 PUSH0 DUP1 PUSH0 PUSH1 0x80 DUP7 DUP9 SUB SLT ISZERO PUSH2 0xD5F JUMPI PUSH0 DUP1 REVERT JUMPDEST DUP6 CALLDATALOAD PUSH2 0xD6A DUP2 PUSH2 0xCA3 JUMP JUMPDEST SWAP5 POP PUSH1 0x20 DUP7 ADD CALLDATALOAD PUSH2 0xD7A DUP2 PUSH2 0xCA3 JUMP JUMPDEST SWAP4 POP PUSH1 0x40 DUP7 ADD CALLDATALOAD SWAP3 POP PUSH1 0x60 DUP7 ADD CALLDATALOAD PUSH8 0xFFFFFFFFFFFFFFFF DUP1 DUP3 GT ISZERO PUSH2 0xD9D JUMPI PUSH0 DUP1 REVERT JUMPDEST DUP2 DUP9 ADD SWAP2 POP DUP9 PUSH1 0x1F DUP4 ADD SLT PUSH2 0xDB0 JUMPI PUSH0 DUP1 REVERT JUMPDEST DUP2 CALLDATALOAD DUP2 DUP2 GT ISZERO PUSH2 0xDBE JUMPI PUSH0 DUP1 REVERT JUMPDEST DUP10 PUSH1 0x20 DUP3 DUP6 ADD ADD GT ISZERO PUSH2 0xDCF JUMPI PUSH0 DUP1 REVERT JUMPDEST SWAP7 SWAP10 SWAP6 SWAP9 POP SWAP4 SWAP7 POP PUSH1 0x20 ADD SWAP5 SWAP4 SWAP3 POP POP POP JUMP JUMPDEST PUSH0 DUP1 PUSH0 PUSH1 0x60 DUP5 DUP7 SUB SLT ISZERO PUSH2 0xDF4 JUMPI PUSH0 DUP1 REVERT JUMPDEST DUP4 CALLDATALOAD PUSH2 0xDFF DUP2 PUSH2 0xCA3 JUMP JUMPDEST SWAP3 POP PUSH1 0x20 DUP5 ADD CALLDATALOAD PUSH2 0xCDB DUP2 PUSH2 0xCA3 JUMP JUMPDEST PUSH0 PUSH1 0x20 DUP3 DUP5 SUB SLT ISZERO PUSH2 0xE1F JUMPI PUSH0 DUP1 REVERT JUMPDEST POP CALLDATALOAD SWAP2 SWAP1 POP JUMP JUMPDEST PUSH0 DUP1 PUSH0 DUP1 PUSH1 0x80 DUP6 DUP8 SUB SLT ISZERO PUSH2 0xE39 JUMPI PUSH0 DUP1 REVERT JUMPDEST DUP5 CALLDATALOAD SWAP4 POP PUSH1 0x20 DUP6 ADD CALLDATALOAD PUSH2 0xE4B DUP2 PUSH2 0xCA3 JUMP JUMPDEST SWAP3 POP PUSH1 0x40 DUP6 ADD CALLDATALOAD PUSH2 0xE5B DUP2 PUSH2 0xCA3 JUMP JUMPDEST SWAP4 SWAP7 SWAP3 SWAP6 POP SWAP3 SWAP4 PUSH1 0x60 ADD CALLDATALOAD SWAP3 POP POP JUMP JUMPDEST PUSH0 PUSH1 0x20 DUP3 DUP5 SUB SLT ISZERO PUSH2 0xE7B JUMPI PUSH0 DUP1 REVERT JUMPDEST DUP2 CALLDATALOAD PUSH2 0xE86 DUP2 PUSH2 0xCA3 JUMP JUMPDEST SWAP4 SWAP3 POP POP POP JUMP JUMPDEST PUSH0 DUP1 PUSH1 0x40 DUP4 DUP6 SUB SLT ISZERO PUSH2 0xE9E JUMPI PUSH0 DUP1 REVERT JUMPDEST DUP3 CALLDATALOAD PUSH2 0xEA9 DUP2 PUSH2 0xCA3 JUMP JUMPDEST SWAP2 POP PUSH1 0x20 DUP4 ADD CALLDATALOAD PUSH2 0xEB9 DUP2 PUSH2 0xCA3 JUMP JUMPDEST DUP1 SWAP2 POP POP SWAP3 POP SWAP3 SWAP1 POP JUMP JUMPDEST PUSH1 0x1 DUP2 DUP2 SHR SWAP1 DUP3 AND DUP1 PUSH2 0xED8 JUMPI PUSH1 0x7F DUP3 AND SWAP2 POP JUMPDEST PUSH1 0x20 DUP3 LT DUP2 SUB PUSH2 0xEF6 JUMPI PUSH4 0x4E487B71 PUSH1 0xE0 SHL PUSH0 MSTORE PUSH1 0x22 PUSH1 0x4 MSTORE PUSH1 0x24 PUSH0 REVERT JUMPDEST POP SWAP2 SWAP1 POP JUMP JUMPDEST PUSH1 0x1 PUSH1 0x1 PUSH1 0xA0 SHL SUB DUP6 AND DUP2 MSTORE PUSH1 0x20 DUP2 ADD DUP5 SWAP1 MSTORE PUSH1 0x60 PUSH1 0x40 DUP3 ADD DUP2 SWAP1 MSTORE DUP2 ADD DUP3 SWAP1 MSTORE DUP2 DUP4 PUSH1 0x80 DUP4 ADD CALLDATACOPY PUSH0 DUP2 DUP4 ADD PUSH1 0x80 SWAP1 DUP2 ADD SWAP2 SWAP1 SWAP2 MSTORE PUSH1 0x1F SWAP1 SWAP3 ADD PUSH1 0x1F NOT AND ADD ADD SWAP4 SWAP3 POP POP POP JUMP JUMPDEST PUSH0 PUSH1 0x20 DUP3 DUP5 SUB SLT ISZERO PUSH2 0xF53 JUMPI PUSH0 DUP1 REVERT JUMPDEST POP MLOAD SWAP2 SWAP1 POP JUMP JUMPDEST PUSH4 0x4E487B71 PUSH1 0xE0 SHL PUSH0 MSTORE PUSH1 0x11 PUSH1 0x4 MSTORE PUSH1 0x24 PUSH0 REVERT JUMPDEST DUP1 DUP3 MUL DUP2 ISZERO DUP3 DUP3 DIV DUP5 EQ OR PUSH2 0x40D JUMPI PUSH2 0x40D PUSH2 0xF5A JUMP JUMPDEST DUP1 MLOAD DUP1 ISZERO ISZERO DUP2 EQ PUSH2 0xF94 JUMPI PUSH0 DUP1 REVERT JUMPDEST SWAP2 SWAP1 POP JUMP JUMPDEST PUSH0 PUSH1 0x20 DUP3 DUP5 SUB SLT ISZERO PUSH2 0xFA9 JUMPI PUSH0 DUP1 REVERT JUMPDEST PUSH2 0xE86 DUP3 PUSH2 0xF85 JUMP JUMPDEST PUSH1 0x40 MLOAD PUSH2 0x1E0 DUP2 ADD PUSH8 0xFFFFFFFFFFFFFFFF DUP2 GT DUP3 DUP3 LT OR ISZERO PUSH2 0xFE2 JUMPI PUSH4 0x4E487B71 PUSH1 0xE0 SHL PUSH0 MSTORE PUSH1 0x41 PUSH1 0x4 MSTORE PUSH1 0x24 PUSH0 REVERT JUMPDEST PUSH1 0x40 MSTORE SWAP1 JUMP JUMPDEST DUP1 MLOAD PUSH2 0xF94 DUP2 PUSH2 0xCA3 JUMP JUMPDEST DUP1 MLOAD PUSH1 0x4 DUP2 LT PUSH2 0xF94 JUMPI PUSH0 DUP1 REVERT JUMPDEST PUSH0 PUSH2 0x1E0 DUP3 DUP5 SUB SLT ISZERO PUSH2 0x1012 JUMPI PUSH0 DUP1 REVERT JUMPDEST PUSH2 0x101A PUSH2 0xFB2 JUMP JUMPDEST PUSH2 0x1023 DUP4 PUSH2 0xFE8 JUMP JUMPDEST DUP2 MSTORE PUSH2 0x1031 PUSH1 0x20 DUP5 ADD PUSH2 0xFF3 JUMP JUMPDEST PUSH1 0x20 DUP3 ADD MSTORE PUSH1 0x40 DUP4 ADD MLOAD PUSH1 0x40 DUP3 ADD MSTORE PUSH1 0x60 DUP4 ADD MLOAD PUSH1 0x60 DUP3 ADD MSTORE PUSH1 0x80 DUP4 ADD MLOAD PUSH1 0x80 DUP3 ADD MSTORE PUSH1 0xA0 DUP4 ADD MLOAD PUSH1 0xA0 DUP3 ADD MSTORE PUSH1 0xC0 DUP4 ADD MLOAD PUSH1 0xC0 DUP3 ADD MSTORE PUSH1 0xE0 DUP4 ADD MLOAD PUSH1 0xE0 DUP3 ADD MSTORE PUSH2 0x100 DUP1 DUP5 ADD MLOAD DUP2 DUP4 ADD MSTORE POP PUSH2 0x120 DUP1 DUP5 ADD MLOAD DUP2 DUP4 ADD MSTORE POP PUSH2 0x140 DUP1 DUP5 ADD MLOAD DUP2 DUP4 ADD MSTORE POP PUSH2 0x160 DUP1 DUP5 ADD MLOAD DUP2 DUP4 ADD MSTORE POP PUSH2 0x180 PUSH2 0x10B0 DUP2 DUP6 ADD PUSH2 0xFE8 JUMP JUMPDEST SWAP1 DUP3 ADD MSTORE PUSH2 0x1A0 DUP4 DUP2 ADD MLOAD SWAP1 DUP3 ADD MSTORE PUSH2 0x1C0 PUSH2 0x10CD DUP2 DUP6 ADD PUSH2 0xF85 JUMP JUMPDEST SWAP1 DUP3 ADD MSTORE SWAP4 SWAP3 POP POP POP JUMP JUMPDEST DUP1 DUP3 ADD DUP1 DUP3 GT ISZERO PUSH2 0x40D JUMPI PUSH2 0x40D PUSH2 0xF5A JUMP INVALID LOG2 PUSH5 0x6970667358 0x22 SLT KECCAK256 DIV POP 0xE PUSH12 0xA682D44097DBE501BD74E0E5 DUP16 0xC3 PUSH22 0xDAD69F7E28461DFE3993B2B74264736F6C6343000819 STOP CALLER "
				},
				"gasEstimates": {
					"creation": {
						"codeDepositCost": "877000",
						"executionCost": "infinite",
						"totalCost": "infinite"
					},
					"external": {
						"allowBuyTicket()": "2359",
						"allowSendTicket()": "2361",
						"allowance(address,address)": "infinite",
						"approve(address,uint256)": "24807",
						"balanceOf(address)": "2554",
						"burn(uint256)": "51027",
						"burnFrom(address,uint256)": "infinite",
						"decimals()": "264",
						"getTicket(uint256,address,uint256)": "infinite",
						"getTicketFrom(uint256,address,address,uint256)": "infinite",
						"mintToken(address,address,uint256,bytes)": "infinite",
						"name()": "infinite",
						"owner()": "2408",
						"redEnvelopeAddr()": "2402",
						"renounceOwnership()": "infinite",
						"setTask(address,uint256)": "24761",
						"symbol()": "infinite",
						"totalSupply()": "2303",
						"transfer(address,uint256)": "51221",
						"transferFrom(address,address,uint256)": "infinite",
						"transferOwnership(address)": "infinite",
						"withdraw(address,address,uint256)": "infinite"
					},
					"internal": {
						"_getTicket(uint256,address,uint256)": "infinite"
					}
				},
				"methodIdentifiers": {
					"allowBuyTicket()": "b4309a9c",
					"allowSendTicket()": "06e2a29a",
					"allowance(address,address)": "dd62ed3e",
					"approve(address,uint256)": "095ea7b3",
					"balanceOf(address)": "70a08231",
					"burn(uint256)": "42966c68",
					"burnFrom(address,uint256)": "79cc6790",
					"decimals()": "313ce567",
					"getTicket(uint256,address,uint256)": "012c911e",
					"getTicketFrom(uint256,address,address,uint256)": "6ebd327b",
					"mintToken(address,address,uint256,bytes)": "1bf69970",
					"name()": "06fdde03",
					"owner()": "8da5cb5b",
					"redEnvelopeAddr()": "c7ff23bb",
					"renounceOwnership()": "715018a6",
					"setTask(address,uint256)": "082921a5",
					"symbol()": "95d89b41",
					"totalSupply()": "18160ddd",
					"transfer(address,uint256)": "a9059cbb",
					"transferFrom(address,address,uint256)": "23b872dd",
					"transferOwnership(address)": "f2fde38b",
					"withdraw(address,address,uint256)": "d9caed12"
				}
			},
			"storageLayout": {
				"storage": [
					{
						"astId": 307,
						"contract": "contracts/TaskControl.sol:TaskControl",
						"label": "_balances",
						"offset": 0,
						"slot": "0",
						"type": "t_mapping(t_address,t_uint256)"
					},
					{
						"astId": 313,
						"contract": "contracts/TaskControl.sol:TaskControl",
						"label": "_allowances",
						"offset": 0,
						"slot": "1",
						"type": "t_mapping(t_address,t_mapping(t_address,t_uint256))"
					},
					{
						"astId": 315,
						"contract": "contracts/TaskControl.sol:TaskControl",
						"label": "_totalSupply",
						"offset": 0,
						"slot": "2",
						"type": "t_uint256"
					},
					{
						"astId": 317,
						"contract": "contracts/TaskControl.sol:TaskControl",
						"label": "_name",
						"offset": 0,
						"slot": "3",
						"type": "t_string_storage"
					},
					{
						"astId": 319,
						"contract": "contracts/TaskControl.sol:TaskControl",
						"label": "_symbol",
						"offset": 0,
						"slot": "4",
						"type": "t_string_storage"
					},
					{
						"astId": 8,
						"contract": "contracts/TaskControl.sol:TaskControl",
						"label": "_owner",
						"offset": 0,
						"slot": "5",
						"type": "t_address"
					},
					{
						"astId": 997,
						"contract": "contracts/TaskControl.sol:TaskControl",
						"label": "redEnvelopeAddr",
						"offset": 0,
						"slot": "6",
						"type": "t_address"
					},
					{
						"astId": 999,
						"contract": "contracts/TaskControl.sol:TaskControl",
						"label": "allowBuyTicket",
						"offset": 20,
						"slot": "6",
						"type": "t_bool"
					},
					{
						"astId": 1001,
						"contract": "contracts/TaskControl.sol:TaskControl",
						"label": "allowSendTicket",
						"offset": 21,
						"slot": "6",
						"type": "t_bool"
					},
					{
						"astId": 1005,
						"contract": "contracts/TaskControl.sol:TaskControl",
						"label": "_tasks",
						"offset": 0,
						"slot": "7",
						"type": "t_mapping(t_address,t_uint256)"
					}
				],
				"types": {
					"t_address": {
						"encoding": "inplace",
						"label": "address",
						"numberOfBytes": "20"
					},
					"t_bool": {
						"encoding": "inplace",
						"label": "bool",
						"numberOfBytes": "1"
					},
					"t_mapping(t_address,t_mapping(t_address,t_uint256))": {
						"encoding": "mapping",
						"key": "t_address",
						"label": "mapping(address => mapping(address => uint256))",
						"numberOfBytes": "32",
						"value": "t_mapping(t_address,t_uint256)"
					},
					"t_mapping(t_address,t_uint256)": {
						"encoding": "mapping",
						"key": "t_address",
						"label": "mapping(address => uint256)",
						"numberOfBytes": "32",
						"value": "t_uint256"
					},
					"t_string_storage": {
						"encoding": "bytes",
						"label": "string",
						"numberOfBytes": "32"
					},
					"t_uint256": {
						"encoding": "inplace",
						"label": "uint256",
						"numberOfBytes": "32"
					}
				}
			},
			"userdoc": {
				"kind": "user",
				"methods": {},
				"version": 1
			}
		}
	}
}