{
	"contracts/TaskControl.sol": {
		"TaskControl": {
			"abi": [
				{
					"inputs": [
						{
							"internalType": "address",
							"name": "_redEnvelopeAddr",
							"type": "address"
						},
						{
							"internalType": "bool",
							"name": "_allowBuyTicket",
							"type": "bool"
						},
						{
							"internalType": "bool",
							"name": "_allowSendTicket",
							"type": "bool"
						}
					],
					"stateMutability": "nonpayable",
					"type": "constructor"
				},
				{
					"inputs": [
						{
							"internalType": "address",
							"name": "spender",
							"type": "address"
						},
						{
							"internalType": "uint256",
							"name": "allowance",
							"type": "uint256"
						},
						{
							"internalType": "uint256",
							"name": "needed",
							"type": "uint256"
						}
					],
					"name": "ERC20InsufficientAllowance",
					"type": "error"
				},
				{
					"inputs": [
						{
							"internalType": "address",
							"name": "sender",
							"type": "address"
						},
						{
							"internalType": "uint256",
							"name": "balance",
							"type": "uint256"
						},
						{
							"internalType": "uint256",
							"name": "needed",
							"type": "uint256"
						}
					],
					"name": "ERC20InsufficientBalance",
					"type": "error"
				},
				{
					"inputs": [
						{
							"internalType": "address",
							"name": "approver",
							"type": "address"
						}
					],
					"name": "ERC20InvalidApprover",
					"type": "error"
				},
				{
					"inputs": [
						{
							"internalType": "address",
							"name": "receiver",
							"type": "address"
						}
					],
					"name": "ERC20InvalidReceiver",
					"type": "error"
				},
				{
					"inputs": [
						{
							"internalType": "address",
							"name": "sender",
							"type": "address"
						}
					],
					"name": "ERC20InvalidSender",
					"type": "error"
				},
				{
					"inputs": [
						{
							"internalType": "address",
							"name": "spender",
							"type": "address"
						}
					],
					"name": "ERC20InvalidSpender",
					"type": "error"
				},
				{
					"inputs": [
						{
							"internalType": "address",
							"name": "owner",
							"type": "address"
						}
					],
					"name": "OwnableInvalidOwner",
					"type": "error"
				},
				{
					"inputs": [
						{
							"internalType": "address",
							"name": "account",
							"type": "address"
						}
					],
					"name": "OwnableUnauthorizedAccount",
					"type": "error"
				},
				{
					"anonymous": false,
					"inputs": [
						{
							"indexed": true,
							"internalType": "address",
							"name": "owner",
							"type": "address"
						},
						{
							"indexed": true,
							"internalType": "address",
							"name": "spender",
							"type": "address"
						},
						{
							"indexed": false,
							"internalType": "uint256",
							"name": "value",
							"type": "uint256"
						}
					],
					"name": "Approval",
					"type": "event"
				},
				{
					"anonymous": false,
					"inputs": [
						{
							"indexed": true,
							"internalType": "address",
							"name": "previousOwner",
							"type": "address"
						},
						{
							"indexed": true,
							"internalType": "address",
							"name": "newOwner",
							"type": "address"
						}
					],
					"name": "OwnershipTransferred",
					"type": "event"
				},
				{
					"anonymous": false,
					"inputs": [
						{
							"indexed": true,
							"internalType": "address",
							"name": "from",
							"type": "address"
						},
						{
							"indexed": true,
							"internalType": "address",
							"name": "to",
							"type": "address"
						},
						{
							"indexed": false,
							"internalType": "uint256",
							"name": "value",
							"type": "uint256"
						}
					],
					"name": "Transfer",
					"type": "event"
				},
				{
					"inputs": [],
					"name": "allowBuyTicket",
					"outputs": [
						{
							"internalType": "bool",
							"name": "",
							"type": "bool"
						}
					],
					"stateMutability": "view",
					"type": "function"
				},
				{
					"inputs": [],
					"name": "allowSendTicket",
					"outputs": [
						{
							"internalType": "bool",
							"name": "",
							"type": "bool"
						}
					],
					"stateMutability": "view",
					"type": "function"
				},
				{
					"inputs": [
						{
							"internalType": "address",
							"name": "owner",
							"type": "address"
						},
						{
							"internalType": "address",
							"name": "spender",
							"type": "address"
						}
					],
					"name": "allowance",
					"outputs": [
						{
							"internalType": "uint256",
							"name": "",
							"type": "uint256"
						}
					],
					"stateMutability": "view",
					"type": "function"
				},
				{
					"inputs": [
						{
							"internalType": "address",
							"name": "spender",
							"type": "address"
						},
						{
							"internalType": "uint256",
							"name": "value",
							"type": "uint256"
						}
					],
					"name": "approve",
					"outputs": [
						{
							"internalType": "bool",
							"name": "",
							"type": "bool"
						}
					],
					"stateMutability": "nonpayable",
					"type": "function"
				},
				{
					"inputs": [
						{
							"internalType": "address",
							"name": "account",
							"type": "address"
						}
					],
					"name": "balanceOf",
					"outputs": [
						{
							"internalType": "uint256",
							"name": "",
							"type": "uint256"
						}
					],
					"stateMutability": "view",
					"type": "function"
				},
				{
					"inputs": [
						{
							"internalType": "uint256",
							"name": "value",
							"type": "uint256"
						}
					],
					"name": "burn",
					"outputs": [],
					"stateMutability": "nonpayable",
					"type": "function"
				},
				{
					"inputs": [
						{
							"internalType": "address",
							"name": "account",
							"type": "address"
						},
						{
							"internalType": "uint256",
							"name": "value",
							"type": "uint256"
						}
					],
					"name": "burnFrom",
					"outputs": [],
					"stateMutability": "nonpayable",
					"type": "function"
				},
				{
					"inputs": [],
					"name": "decimals",
					"outputs": [
						{
							"internalType": "uint8",
							"name": "",
							"type": "uint8"
						}
					],
					"stateMutability": "view",
					"type": "function"
				},
				{
					"inputs": [
						{
							"internalType": "uint256",
							"name": "_id",
							"type": "uint256"
						},
						{
							"internalType": "address",
							"name": "_receiveAddress",
							"type": "address"
						},
						{
							"internalType": "uint256",
							"name": "_ticketNumbers",
							"type": "uint256"
						}
					],
					"name": "getTicket",
					"outputs": [],
					"stateMutability": "nonpayable",
					"type": "function"
				},
				{
					"inputs": [
						{
							"internalType": "uint256",
							"name": "_id",
							"type": "uint256"
						},
						{
							"internalType": "address",
							"name": "_fromAddress",
							"type": "address"
						},
						{
							"internalType": "address",
							"name": "_receiveAddress",
							"type": "address"
						},
						{
							"internalType": "uint256",
							"name": "_ticketNumbers",
							"type": "uint256"
						}
					],
					"name": "getTicketFrom",
					"outputs": [],
					"stateMutability": "nonpayable",
					"type": "function"
				},
				{
					"inputs": [],
					"name": "name",
					"outputs": [
						{
							"internalType": "string",
							"name": "",
							"type": "string"
						}
					],
					"stateMutability": "view",
					"type": "function"
				},
				{
					"inputs": [],
					"name": "owner",
					"outputs": [
						{
							"internalType": "address",
							"name": "",
							"type": "address"
						}
					],
					"stateMutability": "view",
					"type": "function"
				},
				{
					"inputs": [
						{
							"internalType": "address",
							"name": "_receiveAddress",
							"type": "address"
						}
					],
					"name": "receiveToken",
					"outputs": [],
					"stateMutability": "nonpayable",
					"type": "function"
				},
				{
					"inputs": [],
					"name": "redEnvelopeAddr",
					"outputs": [
						{
							"internalType": "address",
							"name": "",
							"type": "address"
						}
					],
					"stateMutability": "view",
					"type": "function"
				},
				{
					"inputs": [],
					"name": "renounceOwnership",
					"outputs": [],
					"stateMutability": "nonpayable",
					"type": "function"
				},
				{
					"inputs": [],
					"name": "symbol",
					"outputs": [
						{
							"internalType": "string",
							"name": "",
							"type": "string"
						}
					],
					"stateMutability": "view",
					"type": "function"
				},
				{
					"inputs": [],
					"name": "totalSupply",
					"outputs": [
						{
							"internalType": "uint256",
							"name": "",
							"type": "uint256"
						}
					],
					"stateMutability": "view",
					"type": "function"
				},
				{
					"inputs": [
						{
							"internalType": "address",
							"name": "to",
							"type": "address"
						},
						{
							"internalType": "uint256",
							"name": "value",
							"type": "uint256"
						}
					],
					"name": "transfer",
					"outputs": [
						{
							"internalType": "bool",
							"name": "",
							"type": "bool"
						}
					],
					"stateMutability": "nonpayable",
					"type": "function"
				},
				{
					"inputs": [
						{
							"internalType": "address",
							"name": "from",
							"type": "address"
						},
						{
							"internalType": "address",
							"name": "to",
							"type": "address"
						},
						{
							"internalType": "uint256",
							"name": "value",
							"type": "uint256"
						}
					],
					"name": "transferFrom",
					"outputs": [
						{
							"internalType": "bool",
							"name": "",
							"type": "bool"
						}
					],
					"stateMutability": "nonpayable",
					"type": "function"
				},
				{
					"inputs": [
						{
							"internalType": "address",
							"name": "newOwner",
							"type": "address"
						}
					],
					"name": "transferOwnership",
					"outputs": [],
					"stateMutability": "nonpayable",
					"type": "function"
				},
				{
					"inputs": [
						{
							"internalType": "address",
							"name": "_token",
							"type": "address"
						},
						{
							"internalType": "address",
							"name": "_to",
							"type": "address"
						},
						{
							"internalType": "uint256",
							"name": "_value",
							"type": "uint256"
						}
					],
					"name": "withdraw",
					"outputs": [],
					"stateMutability": "nonpayable",
					"type": "function"
				}
			],
			"devdoc": {
				"errors": {
					"ERC20InsufficientAllowance(address,uint256,uint256)": [
						{
							"details": "Indicates a failure with the `spender`’s `allowance`. Used in transfers.",
							"params": {
								"allowance": "Amount of tokens a `spender` is allowed to operate with.",
								"needed": "Minimum amount required to perform a transfer.",
								"spender": "Address that may be allowed to operate on tokens without being their owner."
							}
						}
					],
					"ERC20InsufficientBalance(address,uint256,uint256)": [
						{
							"details": "Indicates an error related to the current `balance` of a `sender`. Used in transfers.",
							"params": {
								"balance": "Current balance for the interacting account.",
								"needed": "Minimum amount required to perform a transfer.",
								"sender": "Address whose tokens are being transferred."
							}
						}
					],
					"ERC20InvalidApprover(address)": [
						{
							"details": "Indicates a failure with the `approver` of a token to be approved. Used in approvals.",
							"params": {
								"approver": "Address initiating an approval operation."
							}
						}
					],
					"ERC20InvalidReceiver(address)": [
						{
							"details": "Indicates a failure with the token `receiver`. Used in transfers.",
							"params": {
								"receiver": "Address to which tokens are being transferred."
							}
						}
					],
					"ERC20InvalidSender(address)": [
						{
							"details": "Indicates a failure with the token `sender`. Used in transfers.",
							"params": {
								"sender": "Address whose tokens are being transferred."
							}
						}
					],
					"ERC20InvalidSpender(address)": [
						{
							"details": "Indicates a failure with the `spender` to be approved. Used in approvals.",
							"params": {
								"spender": "Address that may be allowed to operate on tokens without being their owner."
							}
						}
					],
					"OwnableInvalidOwner(address)": [
						{
							"details": "The owner is not a valid owner account. (eg. `address(0)`)"
						}
					],
					"OwnableUnauthorizedAccount(address)": [
						{
							"details": "The caller account is not authorized to perform an operation."
						}
					]
				},
				"events": {
					"Approval(address,address,uint256)": {
						"details": "Emitted when the allowance of a `spender` for an `owner` is set by a call to {approve}. `value` is the new allowance."
					},
					"Transfer(address,address,uint256)": {
						"details": "Emitted when `value` tokens are moved from one account (`from`) to another (`to`). Note that `value` may be zero."
					}
				},
				"kind": "dev",
				"methods": {
					"allowance(address,address)": {
						"details": "See {IERC20-allowance}."
					},
					"approve(address,uint256)": {
						"details": "See {IERC20-approve}. NOTE: If `value` is the maximum `uint256`, the allowance is not updated on `transferFrom`. This is semantically equivalent to an infinite approval. Requirements: - `spender` cannot be the zero address."
					},
					"balanceOf(address)": {
						"details": "See {IERC20-balanceOf}."
					},
					"burn(uint256)": {
						"details": "Destroys a `value` amount of tokens from the caller. See {ERC20-_burn}."
					},
					"burnFrom(address,uint256)": {
						"details": "Destroys a `value` amount of tokens from `account`, deducting from the caller's allowance. See {ERC20-_burn} and {ERC20-allowance}. Requirements: - the caller must have allowance for ``accounts``'s tokens of at least `value`."
					},
					"decimals()": {
						"details": "Returns the number of decimals used to get its user representation. For example, if `decimals` equals `2`, a balance of `505` tokens should be displayed to a user as `5.05` (`505 / 10 ** 2`). Tokens usually opt for a value of 18, imitating the relationship between Ether and Wei. This is the default value returned by this function, unless it's overridden. NOTE: This information is only used for _display_ purposes: it in no way affects any of the arithmetic of the contract, including {IERC20-balanceOf} and {IERC20-transfer}."
					},
					"name()": {
						"details": "Returns the name of the token."
					},
					"owner()": {
						"details": "Returns the address of the current owner."
					},
					"renounceOwnership()": {
						"details": "Leaves the contract without owner. It will not be possible to call `onlyOwner` functions. Can only be called by the current owner. NOTE: Renouncing ownership will leave the contract without an owner, thereby disabling any functionality that is only available to the owner."
					},
					"symbol()": {
						"details": "Returns the symbol of the token, usually a shorter version of the name."
					},
					"totalSupply()": {
						"details": "See {IERC20-totalSupply}."
					},
					"transfer(address,uint256)": {
						"details": "See {IERC20-transfer}. Requirements: - `to` cannot be the zero address. - the caller must have a balance of at least `value`."
					},
					"transferFrom(address,address,uint256)": {
						"details": "See {IERC20-transferFrom}. Emits an {Approval} event indicating the updated allowance. This is not required by the EIP. See the note at the beginning of {ERC20}. NOTE: Does not update the allowance if the current allowance is the maximum `uint256`. Requirements: - `from` and `to` cannot be the zero address. - `from` must have a balance of at least `value`. - the caller must have allowance for ``from``'s tokens of at least `value`."
					},
					"transferOwnership(address)": {
						"details": "Transfers ownership of the contract to a new account (`newOwner`). Can only be called by the current owner."
					}
				},
				"version": 1
			},
			"evm": {
				"assembly": "    /* \"contracts/TaskControl.sol\":364:2716  contract TaskControl is ERC20, ERC20Burnable, Ownable {... */\n  mstore(0x40, 0x80)\n    /* \"contracts/TaskControl.sol\":542:929  constructor(address _redEnvelopeAddr,bool _allowBuyTicket,bool _allowSendTicket)... */\n  callvalue\n  dup1\n  iszero\n  tag_1\n  jumpi\n  0x00\n  dup1\n  revert\ntag_1:\n  pop\n  mload(0x40)\n  sub(codesize, bytecodeSize)\n  dup1\n  bytecodeSize\n  dup4\n  codecopy\n  dup2\n  add\n  0x40\n  dup2\n  swap1\n  mstore\n  tag_2\n  swap2\n  tag_3\n  jump\t// in\ntag_2:\n    /* \"contracts/TaskControl.sol\":696:706  msg.sender */\n  caller\n    /* \"@openzeppelin/contracts/token/ERC20/ERC20.sol\":1896:2009  constructor(string memory name_, string memory symbol_) {... */\n  mload(0x40)\n  dup1\n  0x40\n  add\n  0x40\n  mstore\n  dup1\n  0x0d\n  dup2\n  mstore\n  0x20\n  add\n  shl(0x9a, 0x1b1bdd1d195c9e551a58dad95d)\n  dup2\n  mstore\n  pop\n  mload(0x40)\n  dup1\n  0x40\n  add\n  0x40\n  mstore\n  dup1\n  0x06\n  dup2\n  mstore\n  0x20\n  add\n  shl(0xd2, 0x151a58dad95d)\n  dup2\n  mstore\n  pop\n    /* \"@openzeppelin/contracts/token/ERC20/ERC20.sol\":1970:1975  name_ */\n  dup2\n    /* \"@openzeppelin/contracts/token/ERC20/ERC20.sol\":1962:1967  _name */\n  0x03\n    /* \"@openzeppelin/contracts/token/ERC20/ERC20.sol\":1962:1975  _name = name_ */\n  swap1\n  dup2\n  tag_8\n  swap2\n  swap1\n  tag_9\n  jump\t// in\ntag_8:\n  pop\n    /* \"@openzeppelin/contracts/token/ERC20/ERC20.sol\":1985:1992  _symbol */\n  0x04\n    /* \"@openzeppelin/contracts/token/ERC20/ERC20.sol\":1985:2002  _symbol = symbol_ */\n  tag_10\n    /* \"@openzeppelin/contracts/token/ERC20/ERC20.sol\":1995:2002  symbol_ */\n  dup3\n    /* \"@openzeppelin/contracts/token/ERC20/ERC20.sol\":1985:1992  _symbol */\n  dup3\n    /* \"@openzeppelin/contracts/token/ERC20/ERC20.sol\":1985:2002  _symbol = symbol_ */\n  tag_9\n  jump\t// in\ntag_10:\n  pop\n  pop\n  pop\n  sub(shl(0xa0, 0x01), 0x01)\n    /* \"@openzeppelin/contracts/access/Ownable.sol\":1273:1299  initialOwner == address(0) */\n  dup2\n  and\n    /* \"@openzeppelin/contracts/access/Ownable.sol\":1269:1364  if (initialOwner == address(0)) {... */\n  tag_12\n  jumpi\n    /* \"@openzeppelin/contracts/access/Ownable.sol\":1322:1353  OwnableInvalidOwner(address(0)) */\n  mload(0x40)\n  shl(0xe0, 0x1e4fbdf7)\n  dup2\n  mstore\n    /* \"@openzeppelin/contracts/access/Ownable.sol\":1350:1351  0 */\n  0x00\n    /* \"@openzeppelin/contracts/access/Ownable.sol\":1322:1353  OwnableInvalidOwner(address(0)) */\n  0x04\n  dup3\n  add\n    /* \"#utility.yul\":3469:3520   */\n  mstore\n    /* \"#utility.yul\":3442:3460   */\n  0x24\n  add\n    /* \"@openzeppelin/contracts/access/Ownable.sol\":1322:1353  OwnableInvalidOwner(address(0)) */\n  mload(0x40)\n  dup1\n  swap2\n  sub\n  swap1\n  revert\n    /* \"@openzeppelin/contracts/access/Ownable.sol\":1269:1364  if (initialOwner == address(0)) {... */\ntag_12:\n    /* \"@openzeppelin/contracts/access/Ownable.sol\":1373:1405  _transferOwnership(initialOwner) */\n  tag_15\n    /* \"@openzeppelin/contracts/access/Ownable.sol\":1392:1404  initialOwner */\n  dup2\n    /* \"@openzeppelin/contracts/access/Ownable.sol\":1373:1391  _transferOwnership */\n  tag_16\n    /* \"@openzeppelin/contracts/access/Ownable.sol\":1373:1405  _transferOwnership(initialOwner) */\n  jump\t// in\ntag_15:\n  pop\n    /* \"contracts/TaskControl.sol\":790:805  redEnvelopeAddr */\n  0x06\n    /* \"contracts/TaskControl.sol\":790:824  redEnvelopeAddr = _redEnvelopeAddr */\n  dup1\n  sload\n    /* \"contracts/TaskControl.sol\":884:918  allowSendTicket = _allowSendTicket */\n  swap2\n  iszero\n  iszero\n  shl(0xa8, 0x01)\n  mul\n  not(shl(0xa8, 0xff))\n    /* \"contracts/TaskControl.sol\":838:870  allowBuyTicket = _allowBuyTicket */\n  swap4\n  iszero\n  iszero\n  shl(0xa0, 0x01)\n  mul\n  not(sub(shl(0xa8, 0x01), 0x01))\n  swap1\n  swap4\n  and\n  sub(shl(0xa0, 0x01), 0x01)\n    /* \"contracts/TaskControl.sol\":790:824  redEnvelopeAddr = _redEnvelopeAddr */\n  swap1\n  swap6\n  and\n    /* \"contracts/TaskControl.sol\":838:870  allowBuyTicket = _allowBuyTicket */\n  swap5\n  swap1\n  swap5\n  or\n  swap2\n  swap1\n  swap2\n  or\n    /* \"contracts/TaskControl.sol\":884:918  allowSendTicket = _allowSendTicket */\n  swap2\n  swap1\n  swap2\n  and\n  swap2\n  swap1\n  swap2\n  or\n  swap1\n  sstore\n    /* \"contracts/TaskControl.sol\":364:2716  contract TaskControl is ERC20, ERC20Burnable, Ownable {... */\n  jump(tag_26)\n    /* \"@openzeppelin/contracts/access/Ownable.sol\":2912:3099  function _transferOwnership(address newOwner) internal virtual {... */\ntag_16:\n    /* \"@openzeppelin/contracts/access/Ownable.sol\":3004:3010  _owner */\n  0x05\n  dup1\n  sload\n  sub(shl(0xa0, 0x01), 0x01)\n    /* \"@openzeppelin/contracts/access/Ownable.sol\":3020:3037  _owner = newOwner */\n  dup4\n  dup2\n  and\n  not(sub(shl(0xa0, 0x01), 0x01))\n  dup4\n  and\n  dup2\n  or\n  swap1\n  swap4\n  sstore\n    /* \"@openzeppelin/contracts/access/Ownable.sol\":3052:3092  OwnershipTransferred(oldOwner, newOwner) */\n  mload(0x40)\n    /* \"@openzeppelin/contracts/access/Ownable.sol\":3004:3010  _owner */\n  swap2\n  and\n  swap2\n    /* \"@openzeppelin/contracts/access/Ownable.sol\":3020:3037  _owner = newOwner */\n  swap1\n    /* \"@openzeppelin/contracts/access/Ownable.sol\":3004:3010  _owner */\n  dup3\n  swap1\n    /* \"@openzeppelin/contracts/access/Ownable.sol\":3052:3092  OwnershipTransferred(oldOwner, newOwner) */\n  0x8be0079c531659141344cd1fd0a4f28419497f9722a3daafe3b4186f6b6457e0\n  swap1\n    /* \"@openzeppelin/contracts/access/Ownable.sol\":2985:3001  address oldOwner */\n  0x00\n  swap1\n    /* \"@openzeppelin/contracts/access/Ownable.sol\":3052:3092  OwnershipTransferred(oldOwner, newOwner) */\n  log3\n    /* \"@openzeppelin/contracts/access/Ownable.sol\":2975:3099  {... */\n  pop\n    /* \"@openzeppelin/contracts/access/Ownable.sol\":2912:3099  function _transferOwnership(address newOwner) internal virtual {... */\n  pop\n  jump\t// out\n    /* \"#utility.yul\":14:178   */\ntag_20:\n    /* \"#utility.yul\":90:103   */\n  dup1\n  mload\n    /* \"#utility.yul\":139:152   */\n  dup1\n  iszero\n    /* \"#utility.yul\":132:153   */\n  iszero\n    /* \"#utility.yul\":122:154   */\n  dup2\n  eq\n    /* \"#utility.yul\":112:172   */\n  tag_28\n  jumpi\n    /* \"#utility.yul\":168:169   */\n  0x00\n    /* \"#utility.yul\":165:166   */\n  dup1\n    /* \"#utility.yul\":158:170   */\n  revert\n    /* \"#utility.yul\":112:172   */\ntag_28:\n    /* \"#utility.yul\":14:178   */\n  swap2\n  swap1\n  pop\n  jump\t// out\n    /* \"#utility.yul\":183:631   */\ntag_3:\n    /* \"#utility.yul\":265:271   */\n  0x00\n    /* \"#utility.yul\":273:279   */\n  dup1\n    /* \"#utility.yul\":281:287   */\n  0x00\n    /* \"#utility.yul\":334:336   */\n  0x60\n    /* \"#utility.yul\":322:331   */\n  dup5\n    /* \"#utility.yul\":313:320   */\n  dup7\n    /* \"#utility.yul\":309:332   */\n  sub\n    /* \"#utility.yul\":305:337   */\n  slt\n    /* \"#utility.yul\":302:354   */\n  iszero\n  tag_30\n  jumpi\n    /* \"#utility.yul\":350:351   */\n  0x00\n    /* \"#utility.yul\":347:348   */\n  dup1\n    /* \"#utility.yul\":340:352   */\n  revert\n    /* \"#utility.yul\":302:354   */\ntag_30:\n    /* \"#utility.yul\":376:392   */\n  dup4\n  mload\n  sub(shl(0xa0, 0x01), 0x01)\n    /* \"#utility.yul\":421:452   */\n  dup2\n  and\n    /* \"#utility.yul\":411:453   */\n  dup2\n  eq\n    /* \"#utility.yul\":401:471   */\n  tag_31\n  jumpi\n    /* \"#utility.yul\":467:468   */\n  0x00\n    /* \"#utility.yul\":464:465   */\n  dup1\n    /* \"#utility.yul\":457:469   */\n  revert\n    /* \"#utility.yul\":401:471   */\ntag_31:\n    /* \"#utility.yul\":490:495   */\n  swap3\n  pop\n    /* \"#utility.yul\":514:560   */\n  tag_32\n    /* \"#utility.yul\":556:558   */\n  0x20\n    /* \"#utility.yul\":541:559   */\n  dup6\n  add\n    /* \"#utility.yul\":514:560   */\n  tag_20\n  jump\t// in\ntag_32:\n    /* \"#utility.yul\":504:560   */\n  swap2\n  pop\n    /* \"#utility.yul\":579:625   */\n  tag_33\n    /* \"#utility.yul\":621:623   */\n  0x40\n    /* \"#utility.yul\":610:619   */\n  dup6\n    /* \"#utility.yul\":606:624   */\n  add\n    /* \"#utility.yul\":579:625   */\n  tag_20\n  jump\t// in\ntag_33:\n    /* \"#utility.yul\":569:625   */\n  swap1\n  pop\n    /* \"#utility.yul\":183:631   */\n  swap3\n  pop\n  swap3\n  pop\n  swap3\n  jump\t// out\n    /* \"#utility.yul\":636:763   */\ntag_21:\n    /* \"#utility.yul\":697:707   */\n  0x4e487b71\n    /* \"#utility.yul\":692:695   */\n  0xe0\n    /* \"#utility.yul\":688:708   */\n  shl\n    /* \"#utility.yul\":685:686   */\n  0x00\n    /* \"#utility.yul\":678:709   */\n  mstore\n    /* \"#utility.yul\":728:732   */\n  0x41\n    /* \"#utility.yul\":725:726   */\n  0x04\n    /* \"#utility.yul\":718:733   */\n  mstore\n    /* \"#utility.yul\":752:756   */\n  0x24\n    /* \"#utility.yul\":749:750   */\n  0x00\n    /* \"#utility.yul\":742:757   */\n  revert\n    /* \"#utility.yul\":768:1148   */\ntag_22:\n    /* \"#utility.yul\":847:848   */\n  0x01\n    /* \"#utility.yul\":843:855   */\n  dup2\n  dup2\n  shr\n  swap1\n    /* \"#utility.yul\":890:902   */\n  dup3\n  and\n  dup1\n    /* \"#utility.yul\":911:972   */\n  tag_36\n  jumpi\n    /* \"#utility.yul\":965:969   */\n  0x7f\n    /* \"#utility.yul\":957:963   */\n  dup3\n    /* \"#utility.yul\":953:970   */\n  and\n    /* \"#utility.yul\":943:970   */\n  swap2\n  pop\n    /* \"#utility.yul\":911:972   */\ntag_36:\n    /* \"#utility.yul\":1018:1020   */\n  0x20\n    /* \"#utility.yul\":1010:1016   */\n  dup3\n    /* \"#utility.yul\":1007:1021   */\n  lt\n    /* \"#utility.yul\":987:1005   */\n  dup2\n    /* \"#utility.yul\":984:1022   */\n  sub\n    /* \"#utility.yul\":981:1142   */\n  tag_37\n  jumpi\n    /* \"#utility.yul\":1064:1074   */\n  0x4e487b71\n    /* \"#utility.yul\":1059:1062   */\n  0xe0\n    /* \"#utility.yul\":1055:1075   */\n  shl\n    /* \"#utility.yul\":1052:1053   */\n  0x00\n    /* \"#utility.yul\":1045:1076   */\n  mstore\n    /* \"#utility.yul\":1099:1103   */\n  0x22\n    /* \"#utility.yul\":1096:1097   */\n  0x04\n    /* \"#utility.yul\":1089:1104   */\n  mstore\n    /* \"#utility.yul\":1127:1131   */\n  0x24\n    /* \"#utility.yul\":1124:1125   */\n  0x00\n    /* \"#utility.yul\":1117:1132   */\n  revert\n    /* \"#utility.yul\":981:1142   */\ntag_37:\n  pop\n    /* \"#utility.yul\":768:1148   */\n  swap2\n  swap1\n  pop\n  jump\t// out\n    /* \"#utility.yul\":1279:1797   */\ntag_24:\n    /* \"#utility.yul\":1381:1383   */\n  0x1f\n    /* \"#utility.yul\":1376:1379   */\n  dup3\n    /* \"#utility.yul\":1373:1384   */\n  gt\n    /* \"#utility.yul\":1370:1791   */\n  iszero\n  tag_40\n  jumpi\n    /* \"#utility.yul\":1417:1422   */\n  dup1\n    /* \"#utility.yul\":1414:1415   */\n  0x00\n    /* \"#utility.yul\":1407:1423   */\n  mstore\n    /* \"#utility.yul\":1461:1465   */\n  0x20\n    /* \"#utility.yul\":1458:1459   */\n  0x00\n    /* \"#utility.yul\":1448:1466   */\n  keccak256\n    /* \"#utility.yul\":1531:1533   */\n  0x1f\n    /* \"#utility.yul\":1519:1529   */\n  dup5\n    /* \"#utility.yul\":1515:1534   */\n  add\n    /* \"#utility.yul\":1512:1513   */\n  0x05\n    /* \"#utility.yul\":1508:1535   */\n  shr\n    /* \"#utility.yul\":1502:1506   */\n  dup2\n    /* \"#utility.yul\":1498:1536   */\n  add\n    /* \"#utility.yul\":1567:1571   */\n  0x20\n    /* \"#utility.yul\":1555:1565   */\n  dup6\n    /* \"#utility.yul\":1552:1572   */\n  lt\n    /* \"#utility.yul\":1549:1596   */\n  iszero\n  tag_41\n  jumpi\n  pop\n    /* \"#utility.yul\":1590:1594   */\n  dup1\n    /* \"#utility.yul\":1549:1596   */\ntag_41:\n    /* \"#utility.yul\":1645:1647   */\n  0x1f\n    /* \"#utility.yul\":1640:1643   */\n  dup5\n    /* \"#utility.yul\":1636:1648   */\n  add\n    /* \"#utility.yul\":1633:1634   */\n  0x05\n    /* \"#utility.yul\":1629:1649   */\n  shr\n    /* \"#utility.yul\":1623:1627   */\n  dup3\n    /* \"#utility.yul\":1619:1650   */\n  add\n    /* \"#utility.yul\":1609:1650   */\n  swap2\n  pop\n    /* \"#utility.yul\":1700:1781   */\ntag_42:\n    /* \"#utility.yul\":1718:1720   */\n  dup2\n    /* \"#utility.yul\":1711:1716   */\n  dup2\n    /* \"#utility.yul\":1708:1721   */\n  lt\n    /* \"#utility.yul\":1700:1781   */\n  iszero\n  tag_44\n  jumpi\n    /* \"#utility.yul\":1777:1778   */\n  0x00\n    /* \"#utility.yul\":1763:1779   */\n  dup2\n  sstore\n    /* \"#utility.yul\":1744:1745   */\n  0x01\n    /* \"#utility.yul\":1733:1746   */\n  add\n    /* \"#utility.yul\":1700:1781   */\n  jump(tag_42)\ntag_44:\n    /* \"#utility.yul\":1704:1707   */\n  pop\n  pop\n    /* \"#utility.yul\":1370:1791   */\ntag_40:\n    /* \"#utility.yul\":1279:1797   */\n  pop\n  pop\n  pop\n  jump\t// out\n    /* \"#utility.yul\":1973:3318   */\ntag_9:\n    /* \"#utility.yul\":2093:2103   */\n  dup2\n  mload\n  sub(shl(0x40, 0x01), 0x01)\n    /* \"#utility.yul\":2115:2145   */\n  dup2\n  gt\n    /* \"#utility.yul\":2112:2168   */\n  iszero\n  tag_48\n  jumpi\n    /* \"#utility.yul\":2148:2166   */\n  tag_48\n  tag_21\n  jump\t// in\ntag_48:\n    /* \"#utility.yul\":2177:2274   */\n  tag_49\n    /* \"#utility.yul\":2267:2273   */\n  dup2\n    /* \"#utility.yul\":2227:2265   */\n  tag_50\n    /* \"#utility.yul\":2259:2263   */\n  dup5\n    /* \"#utility.yul\":2253:2264   */\n  sload\n    /* \"#utility.yul\":2227:2265   */\n  tag_22\n  jump\t// in\ntag_50:\n    /* \"#utility.yul\":2221:2225   */\n  dup5\n    /* \"#utility.yul\":2177:2274   */\n  tag_24\n  jump\t// in\ntag_49:\n    /* \"#utility.yul\":2329:2333   */\n  0x20\n  dup1\n    /* \"#utility.yul\":2386:2388   */\n  0x1f\n    /* \"#utility.yul\":2375:2389   */\n  dup4\n  gt\n    /* \"#utility.yul\":2403:2404   */\n  0x01\n    /* \"#utility.yul\":2398:3061   */\n  dup2\n  eq\n  tag_52\n  jumpi\n    /* \"#utility.yul\":3105:3106   */\n  0x00\n    /* \"#utility.yul\":3122:3128   */\n  dup5\n    /* \"#utility.yul\":3119:3208   */\n  iszero\n  tag_53\n  jumpi\n  pop\n    /* \"#utility.yul\":3174:3193   */\n  dup6\n  dup4\n  add\n    /* \"#utility.yul\":3168:3194   */\n  mload\n    /* \"#utility.yul\":3119:3208   */\ntag_53:\n  not(0x00)\n    /* \"#utility.yul\":1930:1931   */\n  0x03\n    /* \"#utility.yul\":1926:1937   */\n  dup7\n  swap1\n  shl\n    /* \"#utility.yul\":1922:1946   */\n  shr\n    /* \"#utility.yul\":1918:1947   */\n  not\n    /* \"#utility.yul\":1908:1948   */\n  and\n    /* \"#utility.yul\":1954:1955   */\n  0x01\n    /* \"#utility.yul\":1950:1961   */\n  dup6\n  swap1\n  shl\n    /* \"#utility.yul\":1905:1962   */\n  or\n    /* \"#utility.yul\":3221:3302   */\n  dup6\n  sstore\n    /* \"#utility.yul\":2368:3312   */\n  jump(tag_51)\n    /* \"#utility.yul\":2398:3061   */\ntag_52:\n    /* \"#utility.yul\":1226:1227   */\n  0x00\n    /* \"#utility.yul\":1219:1233   */\n  dup6\n  dup2\n  mstore\n    /* \"#utility.yul\":1263:1267   */\n  0x20\n    /* \"#utility.yul\":1250:1268   */\n  dup2\n  keccak256\n  not(0x1f)\n    /* \"#utility.yul\":2434:2454   */\n  dup7\n  and\n  swap2\n    /* \"#utility.yul\":2552:2788   */\ntag_56:\n    /* \"#utility.yul\":2566:2573   */\n  dup3\n    /* \"#utility.yul\":2563:2564   */\n  dup2\n    /* \"#utility.yul\":2560:2574   */\n  lt\n    /* \"#utility.yul\":2552:2788   */\n  iszero\n  tag_58\n  jumpi\n    /* \"#utility.yul\":2655:2674   */\n  dup9\n  dup7\n  add\n    /* \"#utility.yul\":2649:2675   */\n  mload\n    /* \"#utility.yul\":2634:2676   */\n  dup3\n  sstore\n    /* \"#utility.yul\":2747:2774   */\n  swap5\n  dup5\n  add\n  swap5\n    /* \"#utility.yul\":2715:2716   */\n  0x01\n    /* \"#utility.yul\":2703:2717   */\n  swap1\n  swap2\n  add\n  swap1\n    /* \"#utility.yul\":2582:2601   */\n  dup5\n  add\n    /* \"#utility.yul\":2552:2788   */\n  jump(tag_56)\ntag_58:\n    /* \"#utility.yul\":2556:2559   */\n  pop\n    /* \"#utility.yul\":2816:2822   */\n  dup6\n    /* \"#utility.yul\":2807:2814   */\n  dup3\n    /* \"#utility.yul\":2804:2823   */\n  lt\n    /* \"#utility.yul\":2801:3002   */\n  iszero\n  tag_59\n  jumpi\n    /* \"#utility.yul\":2877:2896   */\n  dup8\n  dup6\n  add\n    /* \"#utility.yul\":2871:2897   */\n  mload\n  not(0x00)\n    /* \"#utility.yul\":2960:2961   */\n  0x03\n    /* \"#utility.yul\":2956:2970   */\n  dup9\n  swap1\n  shl\n    /* \"#utility.yul\":2972:2975   */\n  0xf8\n    /* \"#utility.yul\":2952:2976   */\n  and\n    /* \"#utility.yul\":2948:2985   */\n  shr\n    /* \"#utility.yul\":2944:2986   */\n  not\n    /* \"#utility.yul\":2929:2987   */\n  and\n    /* \"#utility.yul\":2914:2988   */\n  dup2\n  sstore\n    /* \"#utility.yul\":2801:3002   */\ntag_59:\n  pop\n  pop\n    /* \"#utility.yul\":3048:3049   */\n  0x01\n    /* \"#utility.yul\":3039:3045   */\n  dup5\n    /* \"#utility.yul\":3036:3037   */\n  0x01\n    /* \"#utility.yul\":3032:3046   */\n  shl\n    /* \"#utility.yul\":3028:3050   */\n  add\n    /* \"#utility.yul\":3022:3026   */\n  dup6\n    /* \"#utility.yul\":3015:3051   */\n  sstore\n    /* \"#utility.yul\":2368:3312   */\ntag_51:\n  pop\n  pop\n  pop\n  pop\n    /* \"#utility.yul\":1973:3318   */\n  pop\n  pop\n  jump\t// out\n    /* \"#utility.yul\":3323:3526   */\ntag_26:\n    /* \"contracts/TaskControl.sol\":364:2716  contract TaskControl is ERC20, ERC20Burnable, Ownable {... */\n  dataSize(sub_0)\n  dup1\n  dataOffset(sub_0)\n  0x00\n  codecopy\n  0x00\n  return\nstop\n\nsub_0: assembly {\n        /* \"contracts/TaskControl.sol\":364:2716  contract TaskControl is ERC20, ERC20Burnable, Ownable {... */\n      mstore(0x40, 0x80)\n      callvalue\n      dup1\n      iszero\n      tag_1\n      jumpi\n      0x00\n      dup1\n      revert\n    tag_1:\n      pop\n      jumpi(tag_2, lt(calldatasize, 0x04))\n      shr(0xe0, calldataload(0x00))\n      dup1\n      0x715018a6\n      gt\n      tag_24\n      jumpi\n      dup1\n      0xb4309a9c\n      gt\n      tag_25\n      jumpi\n      dup1\n      0xb4309a9c\n      eq\n      tag_18\n      jumpi\n      dup1\n      0xc7d1ac38\n      eq\n      tag_19\n      jumpi\n      dup1\n      0xc7ff23bb\n      eq\n      tag_20\n      jumpi\n      dup1\n      0xd9caed12\n      eq\n      tag_21\n      jumpi\n      dup1\n      0xdd62ed3e\n      eq\n      tag_22\n      jumpi\n      dup1\n      0xf2fde38b\n      eq\n      tag_23\n      jumpi\n      0x00\n      dup1\n      revert\n    tag_25:\n      dup1\n      0x715018a6\n      eq\n      tag_13\n      jumpi\n      dup1\n      0x79cc6790\n      eq\n      tag_14\n      jumpi\n      dup1\n      0x8da5cb5b\n      eq\n      tag_15\n      jumpi\n      dup1\n      0x95d89b41\n      eq\n      tag_16\n      jumpi\n      dup1\n      0xa9059cbb\n      eq\n      tag_17\n      jumpi\n      0x00\n      dup1\n      revert\n    tag_24:\n      dup1\n      0x23b872dd\n      gt\n      tag_26\n      jumpi\n      dup1\n      0x23b872dd\n      eq\n      tag_8\n      jumpi\n      dup1\n      0x313ce567\n      eq\n      tag_9\n      jumpi\n      dup1\n      0x42966c68\n      eq\n      tag_10\n      jumpi\n      dup1\n      0x6ebd327b\n      eq\n      tag_11\n      jumpi\n      dup1\n      0x70a08231\n      eq\n      tag_12\n      jumpi\n      0x00\n      dup1\n      revert\n    tag_26:\n      dup1\n      0x012c911e\n      eq\n      tag_3\n      jumpi\n      dup1\n      0x06e2a29a\n      eq\n      tag_4\n      jumpi\n      dup1\n      0x06fdde03\n      eq\n      tag_5\n      jumpi\n      dup1\n      0x095ea7b3\n      eq\n      tag_6\n      jumpi\n      dup1\n      0x18160ddd\n      eq\n      tag_7\n      jumpi\n    tag_2:\n      0x00\n      dup1\n      revert\n        /* \"contracts/TaskControl.sol\":2129:2320  function getTicket(uint256 _id,address _receiveAddress,uint256 _ticketNumbers)external{... */\n    tag_3:\n      tag_27\n      tag_28\n      calldatasize\n      0x04\n      tag_29\n      jump\t// in\n    tag_28:\n      tag_30\n      jump\t// in\n    tag_27:\n      stop\n        /* \"contracts/TaskControl.sol\":504:531  bool public allowSendTicket */\n    tag_4:\n      sload(0x06)\n      tag_31\n      swap1\n      shl(0xa8, 0x01)\n      swap1\n      div\n      0xff\n      and\n      dup2\n      jump\n    tag_31:\n      mload(0x40)\n        /* \"#utility.yul\":703:717   */\n      swap1\n      iszero\n        /* \"#utility.yul\":696:718   */\n      iszero\n        /* \"#utility.yul\":678:719   */\n      dup2\n      mstore\n        /* \"#utility.yul\":666:668   */\n      0x20\n        /* \"#utility.yul\":651:669   */\n      add\n        /* \"contracts/TaskControl.sol\":504:531  bool public allowSendTicket */\n    tag_33:\n      mload(0x40)\n      dup1\n      swap2\n      sub\n      swap1\n      return\n        /* \"@openzeppelin/contracts/token/ERC20/ERC20.sol\":2074:2163  function name() public view virtual returns (string memory) {... */\n    tag_5:\n      tag_35\n      tag_36\n      jump\t// in\n    tag_35:\n      mload(0x40)\n      tag_33\n      swap2\n      swap1\n      tag_38\n      jump\t// in\n        /* \"@openzeppelin/contracts/token/ERC20/ERC20.sol\":4293:4479  function approve(address spender, uint256 value) public virtual returns (bool) {... */\n    tag_6:\n      tag_31\n      tag_40\n      calldatasize\n      0x04\n      tag_41\n      jump\t// in\n    tag_40:\n      tag_42\n      jump\t// in\n        /* \"@openzeppelin/contracts/token/ERC20/ERC20.sol\":3144:3241  function totalSupply() public view virtual returns (uint256) {... */\n    tag_7:\n        /* \"@openzeppelin/contracts/token/ERC20/ERC20.sol\":3222:3234  _totalSupply */\n      sload(0x02)\n        /* \"@openzeppelin/contracts/token/ERC20/ERC20.sol\":3144:3241  function totalSupply() public view virtual returns (uint256) {... */\n    tag_44:\n      mload(0x40)\n        /* \"#utility.yul\":1619:1644   */\n      swap1\n      dup2\n      mstore\n        /* \"#utility.yul\":1607:1609   */\n      0x20\n        /* \"#utility.yul\":1592:1610   */\n      add\n        /* \"@openzeppelin/contracts/token/ERC20/ERC20.sol\":3144:3241  function totalSupply() public view virtual returns (uint256) {... */\n      tag_33\n        /* \"#utility.yul\":1473:1650   */\n      jump\n        /* \"@openzeppelin/contracts/token/ERC20/ERC20.sol\":5039:5283  function transferFrom(address from, address to, uint256 value) public virtual returns (bool) {... */\n    tag_8:\n      tag_31\n      tag_49\n      calldatasize\n      0x04\n      tag_50\n      jump\t// in\n    tag_49:\n      tag_51\n      jump\t// in\n        /* \"contracts/TaskControl.sol\":939:1037  function decimals() public view override virtual returns (uint8) {... */\n    tag_9:\n      mload(0x40)\n        /* \"contracts/TaskControl.sol\":997:1002  uint8 */\n      0x00\n        /* \"#utility.yul\":2258:2294   */\n      dup2\n      mstore\n        /* \"#utility.yul\":2246:2248   */\n      0x20\n        /* \"#utility.yul\":2231:2249   */\n      add\n        /* \"contracts/TaskControl.sol\":939:1037  function decimals() public view override virtual returns (uint8) {... */\n      tag_33\n        /* \"#utility.yul\":2116:2300   */\n      jump\n        /* \"@openzeppelin/contracts/token/ERC20/extensions/ERC20Burnable.sol\":618:705  function burn(uint256 value) public virtual {... */\n    tag_10:\n      tag_27\n      tag_58\n      calldatasize\n      0x04\n      tag_59\n      jump\t// in\n    tag_58:\n      tag_60\n      jump\t// in\n        /* \"contracts/TaskControl.sol\":2329:2562  function getTicketFrom(uint256 _id,address _fromAddress,address _receiveAddress,uint256 _ticketNumbers)external{... */\n    tag_11:\n      tag_27\n      tag_62\n      calldatasize\n      0x04\n      tag_63\n      jump\t// in\n    tag_62:\n      tag_64\n      jump\t// in\n        /* \"@openzeppelin/contracts/token/ERC20/ERC20.sol\":3299:3415  function balanceOf(address account) public view virtual returns (uint256) {... */\n    tag_12:\n      tag_44\n      tag_66\n      calldatasize\n      0x04\n      tag_67\n      jump\t// in\n    tag_66:\n      sub(shl(0xa0, 0x01), 0x01)\n        /* \"@openzeppelin/contracts/token/ERC20/ERC20.sol\":3390:3408  _balances[account] */\n      and\n        /* \"@openzeppelin/contracts/token/ERC20/ERC20.sol\":3364:3371  uint256 */\n      0x00\n        /* \"@openzeppelin/contracts/token/ERC20/ERC20.sol\":3390:3408  _balances[account] */\n      swap1\n      dup2\n      mstore\n      0x20\n      dup2\n      swap1\n      mstore\n      0x40\n      swap1\n      keccak256\n      sload\n      swap1\n        /* \"@openzeppelin/contracts/token/ERC20/ERC20.sol\":3299:3415  function balanceOf(address account) public view virtual returns (uint256) {... */\n      jump\n        /* \"@openzeppelin/contracts/access/Ownable.sol\":2293:2394  function renounceOwnership() public virtual onlyOwner {... */\n    tag_13:\n      tag_27\n      tag_71\n      jump\t// in\n        /* \"@openzeppelin/contracts/token/ERC20/extensions/ERC20Burnable.sol\":1021:1179  function burnFrom(address account, uint256 value) public virtual {... */\n    tag_14:\n      tag_27\n      tag_73\n      calldatasize\n      0x04\n      tag_41\n      jump\t// in\n    tag_73:\n      tag_74\n      jump\t// in\n        /* \"@openzeppelin/contracts/access/Ownable.sol\":1638:1723  function owner() public view virtual returns (address) {... */\n    tag_15:\n        /* \"@openzeppelin/contracts/access/Ownable.sol\":1710:1716  _owner */\n      and(sub(shl(0xa0, 0x01), 0x01), sload(0x05))\n        /* \"@openzeppelin/contracts/access/Ownable.sol\":1638:1723  function owner() public view virtual returns (address) {... */\n    tag_75:\n      mload(0x40)\n      sub(shl(0xa0, 0x01), 0x01)\n        /* \"#utility.yul\":3436:3468   */\n      swap1\n      swap2\n      and\n        /* \"#utility.yul\":3418:3469   */\n      dup2\n      mstore\n        /* \"#utility.yul\":3406:3408   */\n      0x20\n        /* \"#utility.yul\":3391:3409   */\n      add\n        /* \"@openzeppelin/contracts/access/Ownable.sol\":1638:1723  function owner() public view virtual returns (address) {... */\n      tag_33\n        /* \"#utility.yul\":3272:3475   */\n      jump\n        /* \"@openzeppelin/contracts/token/ERC20/ERC20.sol\":2276:2369  function symbol() public view virtual returns (string memory) {... */\n    tag_16:\n      tag_35\n      tag_80\n      jump\t// in\n        /* \"@openzeppelin/contracts/token/ERC20/ERC20.sol\":3610:3788  function transfer(address to, uint256 value) public virtual returns (bool) {... */\n    tag_17:\n      tag_31\n      tag_83\n      calldatasize\n      0x04\n      tag_41\n      jump\t// in\n    tag_83:\n      tag_84\n      jump\t// in\n        /* \"contracts/TaskControl.sol\":468:494  bool public allowBuyTicket */\n    tag_18:\n      sload(0x06)\n      tag_31\n      swap1\n      shl(0xa0, 0x01)\n      swap1\n      div\n      0xff\n      and\n      dup2\n      jump\n        /* \"contracts/TaskControl.sol\":1140:1290  function receiveToken(address _receiveAddress)  external {... */\n    tag_19:\n      tag_27\n      tag_90\n      calldatasize\n      0x04\n      tag_67\n      jump\t// in\n    tag_90:\n      tag_91\n      jump\t// in\n        /* \"contracts/TaskControl.sol\":428:458  address public redEnvelopeAddr */\n    tag_20:\n      sload(0x06)\n      tag_75\n      swap1\n      sub(shl(0xa0, 0x01), 0x01)\n      and\n      dup2\n      jump\n        /* \"contracts/TaskControl.sol\":2572:2710  function withdraw(address _token,address _to,uint256 _value)external onlyOwner{... */\n    tag_21:\n      tag_27\n      tag_96\n      calldatasize\n      0x04\n      tag_50\n      jump\t// in\n    tag_96:\n      tag_97\n      jump\t// in\n        /* \"@openzeppelin/contracts/token/ERC20/ERC20.sol\":3846:3986  function allowance(address owner, address spender) public view virtual returns (uint256) {... */\n    tag_22:\n      tag_44\n      tag_99\n      calldatasize\n      0x04\n      tag_100\n      jump\t// in\n    tag_99:\n      sub(shl(0xa0, 0x01), 0x01)\n        /* \"@openzeppelin/contracts/token/ERC20/ERC20.sol\":3952:3970  _allowances[owner] */\n      swap2\n      dup3\n      and\n        /* \"@openzeppelin/contracts/token/ERC20/ERC20.sol\":3926:3933  uint256 */\n      0x00\n        /* \"@openzeppelin/contracts/token/ERC20/ERC20.sol\":3952:3970  _allowances[owner] */\n      swap1\n      dup2\n      mstore\n        /* \"@openzeppelin/contracts/token/ERC20/ERC20.sol\":3952:3963  _allowances */\n      0x01\n        /* \"@openzeppelin/contracts/token/ERC20/ERC20.sol\":3952:3970  _allowances[owner] */\n      0x20\n      swap1\n      dup2\n      mstore\n      0x40\n      dup1\n      dup4\n      keccak256\n        /* \"@openzeppelin/contracts/token/ERC20/ERC20.sol\":3952:3979  _allowances[owner][spender] */\n      swap4\n      swap1\n      swap5\n      and\n      dup3\n      mstore\n      swap2\n      swap1\n      swap2\n      mstore\n      keccak256\n      sload\n      swap1\n        /* \"@openzeppelin/contracts/token/ERC20/ERC20.sol\":3846:3986  function allowance(address owner, address spender) public view virtual returns (uint256) {... */\n      jump\n        /* \"@openzeppelin/contracts/access/Ownable.sol\":2543:2758  function transferOwnership(address newOwner) public virtual onlyOwner {... */\n    tag_23:\n      tag_27\n      tag_104\n      calldatasize\n      0x04\n      tag_67\n      jump\t// in\n    tag_104:\n      tag_105\n      jump\t// in\n        /* \"contracts/TaskControl.sol\":2129:2320  function getTicket(uint256 _id,address _receiveAddress,uint256 _ticketNumbers)external{... */\n    tag_30:\n        /* \"contracts/TaskControl.sol\":2229:2249  burn(_ticketNumbers) */\n      tag_107\n        /* \"contracts/TaskControl.sol\":2234:2248  _ticketNumbers */\n      dup2\n        /* \"contracts/TaskControl.sol\":2229:2233  burn */\n      tag_60\n        /* \"contracts/TaskControl.sol\":2229:2249  burn(_ticketNumbers) */\n      jump\t// in\n    tag_107:\n        /* \"contracts/TaskControl.sol\":2263:2309  _getTicket(_id,_receiveAddress,_ticketNumbers) */\n      tag_108\n        /* \"contracts/TaskControl.sol\":2274:2277  _id */\n      dup4\n        /* \"contracts/TaskControl.sol\":2278:2293  _receiveAddress */\n      dup4\n        /* \"contracts/TaskControl.sol\":2294:2308  _ticketNumbers */\n      dup4\n        /* \"contracts/TaskControl.sol\":2263:2273  _getTicket */\n      tag_109\n        /* \"contracts/TaskControl.sol\":2263:2309  _getTicket(_id,_receiveAddress,_ticketNumbers) */\n      jump\t// in\n    tag_108:\n        /* \"contracts/TaskControl.sol\":2129:2320  function getTicket(uint256 _id,address _receiveAddress,uint256 _ticketNumbers)external{... */\n      pop\n      pop\n      pop\n      jump\t// out\n        /* \"@openzeppelin/contracts/token/ERC20/ERC20.sol\":2074:2163  function name() public view virtual returns (string memory) {... */\n    tag_36:\n        /* \"@openzeppelin/contracts/token/ERC20/ERC20.sol\":2119:2132  string memory */\n      0x60\n        /* \"@openzeppelin/contracts/token/ERC20/ERC20.sol\":2151:2156  _name */\n      0x03\n        /* \"@openzeppelin/contracts/token/ERC20/ERC20.sol\":2144:2156  return _name */\n      dup1\n      sload\n      tag_111\n      swap1\n      tag_112\n      jump\t// in\n    tag_111:\n      dup1\n      0x1f\n      add\n      0x20\n      dup1\n      swap2\n      div\n      mul\n      0x20\n      add\n      mload(0x40)\n      swap1\n      dup2\n      add\n      0x40\n      mstore\n      dup1\n      swap3\n      swap2\n      swap1\n      dup2\n      dup2\n      mstore\n      0x20\n      add\n      dup3\n      dup1\n      sload\n      tag_113\n      swap1\n      tag_112\n      jump\t// in\n    tag_113:\n      dup1\n      iszero\n      tag_114\n      jumpi\n      dup1\n      0x1f\n      lt\n      tag_115\n      jumpi\n      0x0100\n      dup1\n      dup4\n      sload\n      div\n      mul\n      dup4\n      mstore\n      swap2\n      0x20\n      add\n      swap2\n      jump(tag_114)\n    tag_115:\n      dup3\n      add\n      swap2\n      swap1\n      0x00\n      mstore\n      keccak256(0x00, 0x20)\n      swap1\n    tag_116:\n      dup2\n      sload\n      dup2\n      mstore\n      swap1\n      0x01\n      add\n      swap1\n      0x20\n      add\n      dup1\n      dup4\n      gt\n      tag_116\n      jumpi\n      dup3\n      swap1\n      sub\n      0x1f\n      and\n      dup3\n      add\n      swap2\n    tag_114:\n      pop\n      pop\n      pop\n      pop\n      pop\n      swap1\n      pop\n        /* \"@openzeppelin/contracts/token/ERC20/ERC20.sol\":2074:2163  function name() public view virtual returns (string memory) {... */\n      swap1\n      jump\t// out\n        /* \"@openzeppelin/contracts/token/ERC20/ERC20.sol\":4293:4479  function approve(address spender, uint256 value) public virtual returns (bool) {... */\n    tag_42:\n        /* \"@openzeppelin/contracts/token/ERC20/ERC20.sol\":4366:4370  bool */\n      0x00\n        /* \"@openzeppelin/contracts/utils/Context.sol\":735:745  msg.sender */\n      caller\n        /* \"@openzeppelin/contracts/token/ERC20/ERC20.sol\":4420:4451  _approve(owner, spender, value) */\n      tag_120\n        /* \"@openzeppelin/contracts/utils/Context.sol\":735:745  msg.sender */\n      dup2\n        /* \"@openzeppelin/contracts/token/ERC20/ERC20.sol\":4436:4443  spender */\n      dup6\n        /* \"@openzeppelin/contracts/token/ERC20/ERC20.sol\":4445:4450  value */\n      dup6\n        /* \"@openzeppelin/contracts/token/ERC20/ERC20.sol\":4420:4428  _approve */\n      tag_121\n        /* \"@openzeppelin/contracts/token/ERC20/ERC20.sol\":4420:4451  _approve(owner, spender, value) */\n      jump\t// in\n    tag_120:\n        /* \"@openzeppelin/contracts/token/ERC20/ERC20.sol\":4468:4472  true */\n      0x01\n        /* \"@openzeppelin/contracts/token/ERC20/ERC20.sol\":4461:4472  return true */\n      swap2\n      pop\n      pop\n        /* \"@openzeppelin/contracts/token/ERC20/ERC20.sol\":4293:4479  function approve(address spender, uint256 value) public virtual returns (bool) {... */\n    tag_117:\n      swap3\n      swap2\n      pop\n      pop\n      jump\t// out\n        /* \"@openzeppelin/contracts/token/ERC20/ERC20.sol\":5039:5283  function transferFrom(address from, address to, uint256 value) public virtual returns (bool) {... */\n    tag_51:\n        /* \"@openzeppelin/contracts/token/ERC20/ERC20.sol\":5126:5130  bool */\n      0x00\n        /* \"@openzeppelin/contracts/utils/Context.sol\":735:745  msg.sender */\n      caller\n        /* \"@openzeppelin/contracts/token/ERC20/ERC20.sol\":5182:5219  _spendAllowance(from, spender, value) */\n      tag_125\n        /* \"@openzeppelin/contracts/token/ERC20/ERC20.sol\":5198:5202  from */\n      dup6\n        /* \"@openzeppelin/contracts/utils/Context.sol\":735:745  msg.sender */\n      dup3\n        /* \"@openzeppelin/contracts/token/ERC20/ERC20.sol\":5213:5218  value */\n      dup6\n        /* \"@openzeppelin/contracts/token/ERC20/ERC20.sol\":5182:5197  _spendAllowance */\n      tag_126\n        /* \"@openzeppelin/contracts/token/ERC20/ERC20.sol\":5182:5219  _spendAllowance(from, spender, value) */\n      jump\t// in\n    tag_125:\n        /* \"@openzeppelin/contracts/token/ERC20/ERC20.sol\":5229:5255  _transfer(from, to, value) */\n      tag_127\n        /* \"@openzeppelin/contracts/token/ERC20/ERC20.sol\":5239:5243  from */\n      dup6\n        /* \"@openzeppelin/contracts/token/ERC20/ERC20.sol\":5245:5247  to */\n      dup6\n        /* \"@openzeppelin/contracts/token/ERC20/ERC20.sol\":5249:5254  value */\n      dup6\n        /* \"@openzeppelin/contracts/token/ERC20/ERC20.sol\":5229:5238  _transfer */\n      tag_128\n        /* \"@openzeppelin/contracts/token/ERC20/ERC20.sol\":5229:5255  _transfer(from, to, value) */\n      jump\t// in\n    tag_127:\n      pop\n        /* \"@openzeppelin/contracts/token/ERC20/ERC20.sol\":5272:5276  true */\n      0x01\n      swap5\n        /* \"@openzeppelin/contracts/token/ERC20/ERC20.sol\":5039:5283  function transferFrom(address from, address to, uint256 value) public virtual returns (bool) {... */\n      swap4\n      pop\n      pop\n      pop\n      pop\n      jump\t// out\n        /* \"@openzeppelin/contracts/token/ERC20/extensions/ERC20Burnable.sol\":618:705  function burn(uint256 value) public virtual {... */\n    tag_60:\n        /* \"@openzeppelin/contracts/token/ERC20/extensions/ERC20Burnable.sol\":672:698  _burn(_msgSender(), value) */\n      tag_131\n        /* \"@openzeppelin/contracts/utils/Context.sol\":735:745  msg.sender */\n      caller\n        /* \"@openzeppelin/contracts/token/ERC20/extensions/ERC20Burnable.sol\":692:697  value */\n      dup3\n        /* \"@openzeppelin/contracts/token/ERC20/extensions/ERC20Burnable.sol\":672:677  _burn */\n      tag_133\n        /* \"@openzeppelin/contracts/token/ERC20/extensions/ERC20Burnable.sol\":672:698  _burn(_msgSender(), value) */\n      jump\t// in\n    tag_131:\n        /* \"@openzeppelin/contracts/token/ERC20/extensions/ERC20Burnable.sol\":618:705  function burn(uint256 value) public virtual {... */\n      pop\n      jump\t// out\n        /* \"contracts/TaskControl.sol\":2329:2562  function getTicketFrom(uint256 _id,address _fromAddress,address _receiveAddress,uint256 _ticketNumbers)external{... */\n    tag_64:\n        /* \"contracts/TaskControl.sol\":2454:2491  burnFrom(_fromAddress,_ticketNumbers) */\n      tag_135\n        /* \"contracts/TaskControl.sol\":2463:2475  _fromAddress */\n      dup4\n        /* \"contracts/TaskControl.sol\":2476:2490  _ticketNumbers */\n      dup3\n        /* \"contracts/TaskControl.sol\":2454:2462  burnFrom */\n      tag_74\n        /* \"contracts/TaskControl.sol\":2454:2491  burnFrom(_fromAddress,_ticketNumbers) */\n      jump\t// in\n    tag_135:\n        /* \"contracts/TaskControl.sol\":2505:2551  _getTicket(_id,_receiveAddress,_ticketNumbers) */\n      tag_136\n        /* \"contracts/TaskControl.sol\":2516:2519  _id */\n      dup5\n        /* \"contracts/TaskControl.sol\":2520:2535  _receiveAddress */\n      dup4\n        /* \"contracts/TaskControl.sol\":2536:2550  _ticketNumbers */\n      dup4\n        /* \"contracts/TaskControl.sol\":2505:2515  _getTicket */\n      tag_109\n        /* \"contracts/TaskControl.sol\":2505:2551  _getTicket(_id,_receiveAddress,_ticketNumbers) */\n      jump\t// in\n    tag_136:\n        /* \"contracts/TaskControl.sol\":2329:2562  function getTicketFrom(uint256 _id,address _fromAddress,address _receiveAddress,uint256 _ticketNumbers)external{... */\n      pop\n      pop\n      pop\n      pop\n      jump\t// out\n        /* \"@openzeppelin/contracts/access/Ownable.sol\":2293:2394  function renounceOwnership() public virtual onlyOwner {... */\n    tag_71:\n        /* \"@openzeppelin/contracts/access/Ownable.sol\":1531:1544  _checkOwner() */\n      tag_139\n        /* \"@openzeppelin/contracts/access/Ownable.sol\":1531:1542  _checkOwner */\n      tag_140\n        /* \"@openzeppelin/contracts/access/Ownable.sol\":1531:1544  _checkOwner() */\n      jump\t// in\n    tag_139:\n        /* \"@openzeppelin/contracts/access/Ownable.sol\":2357:2387  _transferOwnership(address(0)) */\n      tag_142\n        /* \"@openzeppelin/contracts/access/Ownable.sol\":2384:2385  0 */\n      0x00\n        /* \"@openzeppelin/contracts/access/Ownable.sol\":2357:2375  _transferOwnership */\n      tag_143\n        /* \"@openzeppelin/contracts/access/Ownable.sol\":2357:2387  _transferOwnership(address(0)) */\n      jump\t// in\n    tag_142:\n        /* \"@openzeppelin/contracts/access/Ownable.sol\":2293:2394  function renounceOwnership() public virtual onlyOwner {... */\n      jump\t// out\n        /* \"@openzeppelin/contracts/token/ERC20/extensions/ERC20Burnable.sol\":1021:1179  function burnFrom(address account, uint256 value) public virtual {... */\n    tag_74:\n        /* \"@openzeppelin/contracts/token/ERC20/extensions/ERC20Burnable.sol\":1096:1141  _spendAllowance(account, _msgSender(), value) */\n      tag_145\n        /* \"@openzeppelin/contracts/token/ERC20/extensions/ERC20Burnable.sol\":1112:1119  account */\n      dup3\n        /* \"@openzeppelin/contracts/utils/Context.sol\":735:745  msg.sender */\n      caller\n        /* \"@openzeppelin/contracts/token/ERC20/extensions/ERC20Burnable.sol\":1135:1140  value */\n      dup4\n        /* \"@openzeppelin/contracts/token/ERC20/extensions/ERC20Burnable.sol\":1096:1111  _spendAllowance */\n      tag_126\n        /* \"@openzeppelin/contracts/token/ERC20/extensions/ERC20Burnable.sol\":1096:1141  _spendAllowance(account, _msgSender(), value) */\n      jump\t// in\n    tag_145:\n        /* \"@openzeppelin/contracts/token/ERC20/extensions/ERC20Burnable.sol\":1151:1172  _burn(account, value) */\n      tag_147\n        /* \"@openzeppelin/contracts/token/ERC20/extensions/ERC20Burnable.sol\":1157:1164  account */\n      dup3\n        /* \"@openzeppelin/contracts/token/ERC20/extensions/ERC20Burnable.sol\":1166:1171  value */\n      dup3\n        /* \"@openzeppelin/contracts/token/ERC20/extensions/ERC20Burnable.sol\":1151:1156  _burn */\n      tag_133\n        /* \"@openzeppelin/contracts/token/ERC20/extensions/ERC20Burnable.sol\":1151:1172  _burn(account, value) */\n      jump\t// in\n    tag_147:\n        /* \"@openzeppelin/contracts/token/ERC20/extensions/ERC20Burnable.sol\":1021:1179  function burnFrom(address account, uint256 value) public virtual {... */\n      pop\n      pop\n      jump\t// out\n        /* \"@openzeppelin/contracts/token/ERC20/ERC20.sol\":2276:2369  function symbol() public view virtual returns (string memory) {... */\n    tag_80:\n        /* \"@openzeppelin/contracts/token/ERC20/ERC20.sol\":2323:2336  string memory */\n      0x60\n        /* \"@openzeppelin/contracts/token/ERC20/ERC20.sol\":2355:2362  _symbol */\n      0x04\n        /* \"@openzeppelin/contracts/token/ERC20/ERC20.sol\":2348:2362  return _symbol */\n      dup1\n      sload\n      tag_111\n      swap1\n      tag_112\n      jump\t// in\n        /* \"@openzeppelin/contracts/token/ERC20/ERC20.sol\":3610:3788  function transfer(address to, uint256 value) public virtual returns (bool) {... */\n    tag_84:\n        /* \"@openzeppelin/contracts/token/ERC20/ERC20.sol\":3679:3683  bool */\n      0x00\n        /* \"@openzeppelin/contracts/utils/Context.sol\":735:745  msg.sender */\n      caller\n        /* \"@openzeppelin/contracts/token/ERC20/ERC20.sol\":3733:3760  _transfer(owner, to, value) */\n      tag_120\n        /* \"@openzeppelin/contracts/utils/Context.sol\":735:745  msg.sender */\n      dup2\n        /* \"@openzeppelin/contracts/token/ERC20/ERC20.sol\":3750:3752  to */\n      dup6\n        /* \"@openzeppelin/contracts/token/ERC20/ERC20.sol\":3754:3759  value */\n      dup6\n        /* \"@openzeppelin/contracts/token/ERC20/ERC20.sol\":3733:3742  _transfer */\n      tag_128\n        /* \"@openzeppelin/contracts/token/ERC20/ERC20.sol\":3733:3760  _transfer(owner, to, value) */\n      jump\t// in\n        /* \"contracts/TaskControl.sol\":1140:1290  function receiveToken(address _receiveAddress)  external {... */\n    tag_91:\n        /* \"contracts/TaskControl.sol\":1118:1119  1 */\n      0x01\n        /* \"contracts/TaskControl.sol\":1250:1279  _mint(_receiveAddress, value) */\n      tag_147\n        /* \"contracts/TaskControl.sol\":1256:1271  _receiveAddress */\n      dup3\n        /* \"contracts/TaskControl.sol\":1118:1119  1 */\n      dup3\n        /* \"contracts/TaskControl.sol\":1250:1255  _mint */\n      tag_162\n        /* \"contracts/TaskControl.sol\":1250:1279  _mint(_receiveAddress, value) */\n      jump\t// in\n        /* \"contracts/TaskControl.sol\":2572:2710  function withdraw(address _token,address _to,uint256 _value)external onlyOwner{... */\n    tag_97:\n        /* \"@openzeppelin/contracts/access/Ownable.sol\":1531:1544  _checkOwner() */\n      tag_164\n        /* \"@openzeppelin/contracts/access/Ownable.sol\":1531:1542  _checkOwner */\n      tag_140\n        /* \"@openzeppelin/contracts/access/Ownable.sol\":1531:1544  _checkOwner() */\n      jump\t// in\n    tag_164:\n        /* \"contracts/TaskControl.sol\":2664:2699  IERC20(_token).transfer(_to,_value) */\n      mload(0x40)\n      shl(0xe0, 0xa9059cbb)\n      dup2\n      mstore\n      sub(shl(0xa0, 0x01), 0x01)\n        /* \"#utility.yul\":4450:4482   */\n      dup4\n      dup2\n      and\n        /* \"contracts/TaskControl.sol\":2664:2699  IERC20(_token).transfer(_to,_value) */\n      0x04\n      dup4\n      add\n        /* \"#utility.yul\":4432:4483   */\n      mstore\n        /* \"#utility.yul\":4499:4517   */\n      0x24\n      dup3\n      add\n        /* \"#utility.yul\":4492:4526   */\n      dup4\n      swap1\n      mstore\n        /* \"contracts/TaskControl.sol\":2664:2687  IERC20(_token).transfer */\n      dup5\n      and\n      swap1\n      0xa9059cbb\n      swap1\n        /* \"#utility.yul\":4405:4423   */\n      0x44\n      add\n        /* \"contracts/TaskControl.sol\":2664:2699  IERC20(_token).transfer(_to,_value) */\n      0x20\n      mload(0x40)\n      dup1\n      dup4\n      sub\n      dup2\n      0x00\n      dup8\n      gas\n      call\n      iszero\n      dup1\n      iszero\n      tag_169\n      jumpi\n      returndatasize\n      0x00\n      dup1\n      returndatacopy\n      revert(0x00, returndatasize)\n    tag_169:\n      pop\n      pop\n      pop\n      pop\n      mload(0x40)\n      returndatasize\n      not(0x1f)\n      0x1f\n      dup3\n      add\n      and\n      dup3\n      add\n      dup1\n      0x40\n      mstore\n      pop\n      dup2\n      add\n      swap1\n      tag_136\n      swap2\n      swap1\n      tag_171\n      jump\t// in\n        /* \"@openzeppelin/contracts/access/Ownable.sol\":2543:2758  function transferOwnership(address newOwner) public virtual onlyOwner {... */\n    tag_105:\n        /* \"@openzeppelin/contracts/access/Ownable.sol\":1531:1544  _checkOwner() */\n      tag_174\n        /* \"@openzeppelin/contracts/access/Ownable.sol\":1531:1542  _checkOwner */\n      tag_140\n        /* \"@openzeppelin/contracts/access/Ownable.sol\":1531:1544  _checkOwner() */\n      jump\t// in\n    tag_174:\n      sub(shl(0xa0, 0x01), 0x01)\n        /* \"@openzeppelin/contracts/access/Ownable.sol\":2627:2649  newOwner == address(0) */\n      dup2\n      and\n        /* \"@openzeppelin/contracts/access/Ownable.sol\":2623:2714  if (newOwner == address(0)) {... */\n      tag_176\n      jumpi\n        /* \"@openzeppelin/contracts/access/Ownable.sol\":2672:2703  OwnableInvalidOwner(address(0)) */\n      mload(0x40)\n      shl(0xe0, 0x1e4fbdf7)\n      dup2\n      mstore\n        /* \"@openzeppelin/contracts/access/Ownable.sol\":2700:2701  0 */\n      0x00\n        /* \"@openzeppelin/contracts/access/Ownable.sol\":2672:2703  OwnableInvalidOwner(address(0)) */\n      0x04\n      dup3\n      add\n        /* \"#utility.yul\":3418:3469   */\n      mstore\n        /* \"#utility.yul\":3391:3409   */\n      0x24\n      add\n        /* \"@openzeppelin/contracts/access/Ownable.sol\":2672:2703  OwnableInvalidOwner(address(0)) */\n    tag_177:\n      mload(0x40)\n      dup1\n      swap2\n      sub\n      swap1\n      revert\n        /* \"@openzeppelin/contracts/access/Ownable.sol\":2623:2714  if (newOwner == address(0)) {... */\n    tag_176:\n        /* \"@openzeppelin/contracts/access/Ownable.sol\":2723:2751  _transferOwnership(newOwner) */\n      tag_131\n        /* \"@openzeppelin/contracts/access/Ownable.sol\":2742:2750  newOwner */\n      dup2\n        /* \"@openzeppelin/contracts/access/Ownable.sol\":2723:2741  _transferOwnership */\n      tag_143\n        /* \"@openzeppelin/contracts/access/Ownable.sol\":2723:2751  _transferOwnership(newOwner) */\n      jump\t// in\n        /* \"contracts/TaskControl.sol\":1299:2119  function _getTicket(uint256 _id,address _receiveAddress,uint256 _ticketNumbers)internal{... */\n    tag_109:\n        /* \"contracts/TaskControl.sol\":1446:1461  redEnvelopeAddr */\n      sload(0x06)\n        /* \"contracts/TaskControl.sol\":1433:1483  IRedEnvelope(redEnvelopeAddr).viewRedEnvelope(_id) */\n      mload(0x40)\n      shl(0xe0, 0x8f91cd17)\n      dup2\n      mstore\n      0x04\n      dup2\n      add\n        /* \"#utility.yul\":1619:1644   */\n      dup6\n      swap1\n      mstore\n        /* \"contracts/TaskControl.sol\":1400:1430  RedEnvelope memory redEnvelope */\n      0x00\n      swap2\n      sub(shl(0xa0, 0x01), 0x01)\n        /* \"contracts/TaskControl.sol\":1446:1461  redEnvelopeAddr */\n      and\n      swap1\n        /* \"contracts/TaskControl.sol\":1433:1478  IRedEnvelope(redEnvelopeAddr).viewRedEnvelope */\n      0x8f91cd17\n      swap1\n        /* \"#utility.yul\":1592:1610   */\n      0x24\n      add\n        /* \"contracts/TaskControl.sol\":1433:1483  IRedEnvelope(redEnvelopeAddr).viewRedEnvelope(_id) */\n      0x01e0\n      mload(0x40)\n      dup1\n      dup4\n      sub\n      dup2\n      dup7\n      gas\n      staticcall\n      iszero\n      dup1\n      iszero\n      tag_182\n      jumpi\n      returndatasize\n      0x00\n      dup1\n      returndatacopy\n      revert(0x00, returndatasize)\n    tag_182:\n      pop\n      pop\n      pop\n      pop\n      mload(0x40)\n      returndatasize\n      not(0x1f)\n      0x1f\n      dup3\n      add\n      and\n      dup3\n      add\n      dup1\n      0x40\n      mstore\n      pop\n      dup2\n      add\n      swap1\n      tag_183\n      swap2\n      swap1\n      tag_184\n      jump\t// in\n    tag_183:\n        /* \"contracts/TaskControl.sol\":1501:1526  redEnvelope.sendAllowAddr */\n      0x0180\n      dup2\n      add\n      mload\n        /* \"contracts/TaskControl.sol\":1400:1483  RedEnvelope memory redEnvelope = IRedEnvelope(redEnvelopeAddr).viewRedEnvelope(_id) */\n      swap1\n      swap2\n      pop\n      sub(shl(0xa0, 0x01), 0x01)\n        /* \"contracts/TaskControl.sol\":1501:1540  redEnvelope.sendAllowAddr == address(0) */\n      and\n        /* \"contracts/TaskControl.sol\":1497:2109  if (redEnvelope.sendAllowAddr == address(0)){      ... */\n      tag_185\n      jumpi\n        /* \"contracts/TaskControl.sol\":1573:1587  allowBuyTicket */\n      sload(0x06)\n      shl(0xa0, 0x01)\n      swap1\n      div\n      0xff\n      and\n        /* \"contracts/TaskControl.sol\":1573:1595  allowBuyTicket == true */\n      iszero\n      iszero\n        /* \"contracts/TaskControl.sol\":1591:1595  true */\n      0x01\n        /* \"contracts/TaskControl.sol\":1573:1595  allowBuyTicket == true */\n      eq\n        /* \"contracts/TaskControl.sol\":1565:1619  require(allowBuyTicket == true, \"buy ticket no allow\") */\n      tag_186\n      jumpi\n      mload(0x40)\n      shl(0xe5, 0x461bcd)\n      dup2\n      mstore\n        /* \"#utility.yul\":7121:7123   */\n      0x20\n        /* \"contracts/TaskControl.sol\":1565:1619  require(allowBuyTicket == true, \"buy ticket no allow\") */\n      0x04\n      dup3\n      add\n        /* \"#utility.yul\":7103:7124   */\n      mstore\n        /* \"#utility.yul\":7160:7162   */\n      0x13\n        /* \"#utility.yul\":7140:7158   */\n      0x24\n      dup3\n      add\n        /* \"#utility.yul\":7133:7163   */\n      mstore\n      shl(0x68, 0x627579207469636b6574206e6f20616c6c6f77)\n        /* \"#utility.yul\":7179:7197   */\n      0x44\n      dup3\n      add\n        /* \"#utility.yul\":7172:7221   */\n      mstore\n        /* \"#utility.yul\":7238:7256   */\n      0x64\n      add\n        /* \"contracts/TaskControl.sol\":1565:1619  require(allowBuyTicket == true, \"buy ticket no allow\") */\n      tag_177\n        /* \"#utility.yul\":6919:7262   */\n      jump\n        /* \"contracts/TaskControl.sol\":1565:1619  require(allowBuyTicket == true, \"buy ticket no allow\") */\n    tag_186:\n        /* \"contracts/TaskControl.sol\":1637:1658  uint256 approveAmount */\n      0x00\n        /* \"contracts/TaskControl.sol\":1687:1701  _ticketNumbers */\n      dup3\n        /* \"contracts/TaskControl.sol\":1661:1672  redEnvelope */\n      dup3\n        /* \"contracts/TaskControl.sol\":1661:1684  redEnvelope.ticketPirce */\n      0x0160\n      add\n      mload\n        /* \"contracts/TaskControl.sol\":1661:1701  redEnvelope.ticketPirce * _ticketNumbers */\n      tag_189\n      swap2\n      swap1\n      tag_190\n      jump\t// in\n    tag_189:\n        /* \"contracts/TaskControl.sol\":1726:1749  redEnvelope.ticketToken */\n      dup3\n      mload\n        /* \"contracts/TaskControl.sol\":1759:1774  redEnvelopeAddr */\n      sload(0x06)\n        /* \"contracts/TaskControl.sol\":1719:1789  IERC20(redEnvelope.ticketToken).approve(redEnvelopeAddr,approveAmount) */\n      mload(0x40)\n      shl(0xe0, 0x095ea7b3)\n      dup2\n      mstore\n      sub(shl(0xa0, 0x01), 0x01)\n        /* \"contracts/TaskControl.sol\":1759:1774  redEnvelopeAddr */\n      swap2\n      dup3\n      and\n        /* \"contracts/TaskControl.sol\":1719:1789  IERC20(redEnvelope.ticketToken).approve(redEnvelopeAddr,approveAmount) */\n      0x04\n      dup3\n      add\n        /* \"#utility.yul\":4432:4483   */\n      mstore\n        /* \"#utility.yul\":4499:4517   */\n      0x24\n      dup2\n      add\n        /* \"#utility.yul\":4492:4526   */\n      dup5\n      swap1\n      mstore\n        /* \"contracts/TaskControl.sol\":1637:1701  uint256 approveAmount = redEnvelope.ticketPirce * _ticketNumbers */\n      swap3\n      swap4\n      pop\n        /* \"contracts/TaskControl.sol\":1719:1758  IERC20(redEnvelope.ticketToken).approve */\n      and\n      swap1\n      0x095ea7b3\n      swap1\n        /* \"#utility.yul\":4405:4423   */\n      0x44\n      add\n        /* \"contracts/TaskControl.sol\":1719:1789  IERC20(redEnvelope.ticketToken).approve(redEnvelopeAddr,approveAmount) */\n      0x20\n      mload(0x40)\n      dup1\n      dup4\n      sub\n      dup2\n      0x00\n      dup8\n      gas\n      call\n      iszero\n      dup1\n      iszero\n      tag_193\n      jumpi\n      returndatasize\n      0x00\n      dup1\n      returndatacopy\n      revert(0x00, returndatasize)\n    tag_193:\n      pop\n      pop\n      pop\n      pop\n      mload(0x40)\n      returndatasize\n      not(0x1f)\n      0x1f\n      dup3\n      add\n      and\n      dup3\n      add\n      dup1\n      0x40\n      mstore\n      pop\n      dup2\n      add\n      swap1\n      tag_194\n      swap2\n      swap1\n      tag_171\n      jump\t// in\n    tag_194:\n      pop\n        /* \"contracts/TaskControl.sol\":1827:1842  redEnvelopeAddr */\n      sload(0x06)\n        /* \"contracts/TaskControl.sol\":1814:1890  IRedEnvelope(redEnvelopeAddr).buyTickets(_id,_receiveAddress,_ticketNumbers) */\n      mload(0x40)\n      shl(0xe0, 0xc5e7bb33)\n      dup2\n      mstore\n      0x04\n      dup2\n      add\n        /* \"#utility.yul\":7774:7799   */\n      dup8\n      swap1\n      mstore\n      sub(shl(0xa0, 0x01), 0x01)\n        /* \"#utility.yul\":7835:7867   */\n      dup7\n      dup2\n      and\n        /* \"#utility.yul\":7815:7833   */\n      0x24\n      dup4\n      add\n        /* \"#utility.yul\":7808:7868   */\n      mstore\n        /* \"#utility.yul\":7884:7902   */\n      0x44\n      dup3\n      add\n        /* \"#utility.yul\":7877:7911   */\n      dup7\n      swap1\n      mstore\n        /* \"contracts/TaskControl.sol\":1827:1842  redEnvelopeAddr */\n      swap1\n      swap2\n      and\n      swap1\n        /* \"contracts/TaskControl.sol\":1814:1854  IRedEnvelope(redEnvelopeAddr).buyTickets */\n      0xc5e7bb33\n      swap1\n        /* \"#utility.yul\":7747:7765   */\n      0x64\n      add\n        /* \"contracts/TaskControl.sol\":1814:1890  IRedEnvelope(redEnvelopeAddr).buyTickets(_id,_receiveAddress,_ticketNumbers) */\n      0x00\n      mload(0x40)\n      dup1\n      dup4\n      sub\n      dup2\n      0x00\n      dup8\n      dup1\n      extcodesize\n      iszero\n      dup1\n      iszero\n      tag_197\n      jumpi\n      0x00\n      dup1\n      revert\n    tag_197:\n      pop\n      gas\n      call\n      iszero\n      dup1\n      iszero\n      tag_199\n      jumpi\n      returndatasize\n      0x00\n      dup1\n      returndatacopy\n      revert(0x00, returndatasize)\n    tag_199:\n      pop\n      pop\n      pop\n      pop\n        /* \"contracts/TaskControl.sol\":1541:1905  {      ... */\n      pop\n        /* \"contracts/TaskControl.sol\":1497:2109  if (redEnvelope.sendAllowAddr == address(0)){      ... */\n      jump(tag_136)\n    tag_185:\n        /* \"contracts/TaskControl.sol\":1935:1950  allowSendTicket */\n      sload(0x06)\n      shl(0xa8, 0x01)\n      swap1\n      div\n      0xff\n      and\n        /* \"contracts/TaskControl.sol\":1935:1958  allowSendTicket == true */\n      iszero\n      iszero\n        /* \"contracts/TaskControl.sol\":1954:1958  true */\n      0x01\n        /* \"contracts/TaskControl.sol\":1935:1958  allowSendTicket == true */\n      eq\n        /* \"contracts/TaskControl.sol\":1927:1983  require(allowSendTicket == true, \"send ticket no allow\") */\n      tag_201\n      jumpi\n      mload(0x40)\n      shl(0xe5, 0x461bcd)\n      dup2\n      mstore\n        /* \"#utility.yul\":8124:8126   */\n      0x20\n        /* \"contracts/TaskControl.sol\":1927:1983  require(allowSendTicket == true, \"send ticket no allow\") */\n      0x04\n      dup3\n      add\n        /* \"#utility.yul\":8106:8127   */\n      mstore\n        /* \"#utility.yul\":8163:8165   */\n      0x14\n        /* \"#utility.yul\":8143:8161   */\n      0x24\n      dup3\n      add\n        /* \"#utility.yul\":8136:8166   */\n      mstore\n      shl(0x60, 0x73656e64207469636b6574206e6f20616c6c6f77)\n        /* \"#utility.yul\":8182:8200   */\n      0x44\n      dup3\n      add\n        /* \"#utility.yul\":8175:8225   */\n      mstore\n        /* \"#utility.yul\":8242:8260   */\n      0x64\n      add\n        /* \"contracts/TaskControl.sol\":1927:1983  require(allowSendTicket == true, \"send ticket no allow\") */\n      tag_177\n        /* \"#utility.yul\":7922:8266   */\n      jump\n        /* \"contracts/TaskControl.sol\":1927:1983  require(allowSendTicket == true, \"send ticket no allow\") */\n    tag_201:\n        /* \"contracts/TaskControl.sol\":2030:2045  redEnvelopeAddr */\n      sload(0x06)\n        /* \"contracts/TaskControl.sol\":2017:2094  IRedEnvelope(redEnvelopeAddr).sendTickets(_id,_receiveAddress,_ticketNumbers) */\n      mload(0x40)\n      shl(0xe0, 0x5c42e0c5)\n      dup2\n      mstore\n      0x04\n      dup2\n      add\n        /* \"#utility.yul\":7774:7799   */\n      dup7\n      swap1\n      mstore\n      sub(shl(0xa0, 0x01), 0x01)\n        /* \"#utility.yul\":7835:7867   */\n      dup6\n      dup2\n      and\n        /* \"#utility.yul\":7815:7833   */\n      0x24\n      dup4\n      add\n        /* \"#utility.yul\":7808:7868   */\n      mstore\n        /* \"#utility.yul\":7884:7902   */\n      0x44\n      dup3\n      add\n        /* \"#utility.yul\":7877:7911   */\n      dup6\n      swap1\n      mstore\n        /* \"contracts/TaskControl.sol\":2030:2045  redEnvelopeAddr */\n      swap1\n      swap2\n      and\n      swap1\n        /* \"contracts/TaskControl.sol\":2017:2058  IRedEnvelope(redEnvelopeAddr).sendTickets */\n      0x5c42e0c5\n      swap1\n        /* \"#utility.yul\":7747:7765   */\n      0x64\n      add\n        /* \"contracts/TaskControl.sol\":2017:2094  IRedEnvelope(redEnvelopeAddr).sendTickets(_id,_receiveAddress,_ticketNumbers) */\n      0x00\n      mload(0x40)\n      dup1\n      dup4\n      sub\n      dup2\n      0x00\n      dup8\n      dup1\n      extcodesize\n      iszero\n      dup1\n      iszero\n      tag_205\n      jumpi\n      0x00\n      dup1\n      revert\n    tag_205:\n      pop\n      gas\n      call\n      iszero\n      dup1\n      iszero\n      tag_207\n      jumpi\n      returndatasize\n      0x00\n      dup1\n      returndatacopy\n      revert(0x00, returndatasize)\n    tag_207:\n      pop\n      pop\n      pop\n      pop\n        /* \"contracts/TaskControl.sol\":1386:2119  {... */\n      pop\n        /* \"contracts/TaskControl.sol\":1299:2119  function _getTicket(uint256 _id,address _receiveAddress,uint256 _ticketNumbers)internal{... */\n      pop\n      pop\n      pop\n      jump\t// out\n        /* \"@openzeppelin/contracts/token/ERC20/ERC20.sol\":8989:9117  function _approve(address owner, address spender, uint256 value) internal {... */\n    tag_121:\n        /* \"@openzeppelin/contracts/token/ERC20/ERC20.sol\":9073:9110  _approve(owner, spender, value, true) */\n      tag_108\n        /* \"@openzeppelin/contracts/token/ERC20/ERC20.sol\":9082:9087  owner */\n      dup4\n        /* \"@openzeppelin/contracts/token/ERC20/ERC20.sol\":9089:9096  spender */\n      dup4\n        /* \"@openzeppelin/contracts/token/ERC20/ERC20.sol\":9098:9103  value */\n      dup4\n        /* \"@openzeppelin/contracts/token/ERC20/ERC20.sol\":9105:9109  true */\n      0x01\n        /* \"@openzeppelin/contracts/token/ERC20/ERC20.sol\":9073:9081  _approve */\n      tag_211\n        /* \"@openzeppelin/contracts/token/ERC20/ERC20.sol\":9073:9110  _approve(owner, spender, value, true) */\n      jump\t// in\n        /* \"@openzeppelin/contracts/token/ERC20/ERC20.sol\":10663:11140  function _spendAllowance(address owner, address spender, uint256 value) internal virtual {... */\n    tag_126:\n      sub(shl(0xa0, 0x01), 0x01)\n        /* \"@openzeppelin/contracts/token/ERC20/ERC20.sol\":3952:3970  _allowances[owner] */\n      dup4\n      dup2\n      and\n        /* \"@openzeppelin/contracts/token/ERC20/ERC20.sol\":10762:10786  uint256 currentAllowance */\n      0x00\n        /* \"@openzeppelin/contracts/token/ERC20/ERC20.sol\":3952:3970  _allowances[owner] */\n      swap1\n      dup2\n      mstore\n        /* \"@openzeppelin/contracts/token/ERC20/ERC20.sol\":3952:3963  _allowances */\n      0x01\n        /* \"@openzeppelin/contracts/token/ERC20/ERC20.sol\":3952:3970  _allowances[owner] */\n      0x20\n      swap1\n      dup2\n      mstore\n      0x40\n      dup1\n      dup4\n      keccak256\n        /* \"@openzeppelin/contracts/token/ERC20/ERC20.sol\":3952:3979  _allowances[owner][spender] */\n      swap4\n      dup7\n      and\n      dup4\n      mstore\n      swap3\n      swap1\n      mstore\n      keccak256\n      sload\n      not(0x00)\n        /* \"@openzeppelin/contracts/token/ERC20/ERC20.sol\":10828:10865  currentAllowance != type(uint256).max */\n      dup2\n      eq\n        /* \"@openzeppelin/contracts/token/ERC20/ERC20.sol\":10824:11134  if (currentAllowance != type(uint256).max) {... */\n      tag_136\n      jumpi\n        /* \"@openzeppelin/contracts/token/ERC20/ERC20.sol\":10904:10909  value */\n      dup2\n        /* \"@openzeppelin/contracts/token/ERC20/ERC20.sol\":10885:10901  currentAllowance */\n      dup2\n        /* \"@openzeppelin/contracts/token/ERC20/ERC20.sol\":10885:10909  currentAllowance < value */\n      lt\n        /* \"@openzeppelin/contracts/token/ERC20/ERC20.sol\":10881:11011  if (currentAllowance < value) {... */\n      iszero\n      tag_215\n      jumpi\n        /* \"@openzeppelin/contracts/token/ERC20/ERC20.sol\":10936:10996  ERC20InsufficientAllowance(spender, currentAllowance, value) */\n      mload(0x40)\n      shl(0xe1, 0x7dc7a0d9)\n      dup2\n      mstore\n      sub(shl(0xa0, 0x01), 0x01)\n        /* \"#utility.yul\":8491:8523   */\n      dup5\n      and\n        /* \"@openzeppelin/contracts/token/ERC20/ERC20.sol\":10936:10996  ERC20InsufficientAllowance(spender, currentAllowance, value) */\n      0x04\n      dup3\n      add\n        /* \"#utility.yul\":8473:8524   */\n      mstore\n        /* \"#utility.yul\":8540:8558   */\n      0x24\n      dup2\n      add\n        /* \"#utility.yul\":8533:8567   */\n      dup3\n      swap1\n      mstore\n        /* \"#utility.yul\":8583:8601   */\n      0x44\n      dup2\n      add\n        /* \"#utility.yul\":8576:8610   */\n      dup4\n      swap1\n      mstore\n        /* \"#utility.yul\":8446:8464   */\n      0x64\n      add\n        /* \"@openzeppelin/contracts/token/ERC20/ERC20.sol\":10936:10996  ERC20InsufficientAllowance(spender, currentAllowance, value) */\n      tag_177\n        /* \"#utility.yul\":8271:8616   */\n      jump\n        /* \"@openzeppelin/contracts/token/ERC20/ERC20.sol\":10881:11011  if (currentAllowance < value) {... */\n    tag_215:\n        /* \"@openzeppelin/contracts/token/ERC20/ERC20.sol\":11052:11109  _approve(owner, spender, currentAllowance - value, false) */\n      tag_136\n        /* \"@openzeppelin/contracts/token/ERC20/ERC20.sol\":11061:11066  owner */\n      dup5\n        /* \"@openzeppelin/contracts/token/ERC20/ERC20.sol\":11068:11075  spender */\n      dup5\n        /* \"@openzeppelin/contracts/token/ERC20/ERC20.sol\":11096:11101  value */\n      dup5\n        /* \"@openzeppelin/contracts/token/ERC20/ERC20.sol\":11077:11093  currentAllowance */\n      dup5\n        /* \"@openzeppelin/contracts/token/ERC20/ERC20.sol\":11077:11101  currentAllowance - value */\n      sub\n        /* \"@openzeppelin/contracts/token/ERC20/ERC20.sol\":11103:11108  false */\n      0x00\n        /* \"@openzeppelin/contracts/token/ERC20/ERC20.sol\":11052:11060  _approve */\n      tag_211\n        /* \"@openzeppelin/contracts/token/ERC20/ERC20.sol\":11052:11109  _approve(owner, spender, currentAllowance - value, false) */\n      jump\t// in\n        /* \"@openzeppelin/contracts/token/ERC20/ERC20.sol\":5656:5956  function _transfer(address from, address to, uint256 value) internal {... */\n    tag_128:\n      sub(shl(0xa0, 0x01), 0x01)\n        /* \"@openzeppelin/contracts/token/ERC20/ERC20.sol\":5739:5757  from == address(0) */\n      dup4\n      and\n        /* \"@openzeppelin/contracts/token/ERC20/ERC20.sol\":5735:5821  if (from == address(0)) {... */\n      tag_220\n      jumpi\n        /* \"@openzeppelin/contracts/token/ERC20/ERC20.sol\":5780:5810  ERC20InvalidSender(address(0)) */\n      mload(0x40)\n      shl(0xe1, 0x4b637e8f)\n      dup2\n      mstore\n        /* \"@openzeppelin/contracts/token/ERC20/ERC20.sol\":5807:5808  0 */\n      0x00\n        /* \"@openzeppelin/contracts/token/ERC20/ERC20.sol\":5780:5810  ERC20InvalidSender(address(0)) */\n      0x04\n      dup3\n      add\n        /* \"#utility.yul\":3418:3469   */\n      mstore\n        /* \"#utility.yul\":3391:3409   */\n      0x24\n      add\n        /* \"@openzeppelin/contracts/token/ERC20/ERC20.sol\":5780:5810  ERC20InvalidSender(address(0)) */\n      tag_177\n        /* \"#utility.yul\":3272:3475   */\n      jump\n        /* \"@openzeppelin/contracts/token/ERC20/ERC20.sol\":5735:5821  if (from == address(0)) {... */\n    tag_220:\n      sub(shl(0xa0, 0x01), 0x01)\n        /* \"@openzeppelin/contracts/token/ERC20/ERC20.sol\":5834:5850  to == address(0) */\n      dup3\n      and\n        /* \"@openzeppelin/contracts/token/ERC20/ERC20.sol\":5830:5916  if (to == address(0)) {... */\n      tag_222\n      jumpi\n        /* \"@openzeppelin/contracts/token/ERC20/ERC20.sol\":5873:5905  ERC20InvalidReceiver(address(0)) */\n      mload(0x40)\n      shl(0xe0, 0xec442f05)\n      dup2\n      mstore\n        /* \"@openzeppelin/contracts/token/ERC20/ERC20.sol\":5902:5903  0 */\n      0x00\n        /* \"@openzeppelin/contracts/token/ERC20/ERC20.sol\":5873:5905  ERC20InvalidReceiver(address(0)) */\n      0x04\n      dup3\n      add\n        /* \"#utility.yul\":3418:3469   */\n      mstore\n        /* \"#utility.yul\":3391:3409   */\n      0x24\n      add\n        /* \"@openzeppelin/contracts/token/ERC20/ERC20.sol\":5873:5905  ERC20InvalidReceiver(address(0)) */\n      tag_177\n        /* \"#utility.yul\":3272:3475   */\n      jump\n        /* \"@openzeppelin/contracts/token/ERC20/ERC20.sol\":5830:5916  if (to == address(0)) {... */\n    tag_222:\n        /* \"@openzeppelin/contracts/token/ERC20/ERC20.sol\":5925:5949  _update(from, to, value) */\n      tag_108\n        /* \"@openzeppelin/contracts/token/ERC20/ERC20.sol\":5933:5937  from */\n      dup4\n        /* \"@openzeppelin/contracts/token/ERC20/ERC20.sol\":5939:5941  to */\n      dup4\n        /* \"@openzeppelin/contracts/token/ERC20/ERC20.sol\":5943:5948  value */\n      dup4\n        /* \"@openzeppelin/contracts/token/ERC20/ERC20.sol\":5925:5932  _update */\n      tag_225\n        /* \"@openzeppelin/contracts/token/ERC20/ERC20.sol\":5925:5949  _update(from, to, value) */\n      jump\t// in\n        /* \"@openzeppelin/contracts/token/ERC20/ERC20.sol\":8247:8453  function _burn(address account, uint256 value) internal {... */\n    tag_133:\n      sub(shl(0xa0, 0x01), 0x01)\n        /* \"@openzeppelin/contracts/token/ERC20/ERC20.sol\":8317:8338  account == address(0) */\n      dup3\n      and\n        /* \"@openzeppelin/contracts/token/ERC20/ERC20.sol\":8313:8402  if (account == address(0)) {... */\n      tag_227\n      jumpi\n        /* \"@openzeppelin/contracts/token/ERC20/ERC20.sol\":8361:8391  ERC20InvalidSender(address(0)) */\n      mload(0x40)\n      shl(0xe1, 0x4b637e8f)\n      dup2\n      mstore\n        /* \"@openzeppelin/contracts/token/ERC20/ERC20.sol\":8388:8389  0 */\n      0x00\n        /* \"@openzeppelin/contracts/token/ERC20/ERC20.sol\":8361:8391  ERC20InvalidSender(address(0)) */\n      0x04\n      dup3\n      add\n        /* \"#utility.yul\":3418:3469   */\n      mstore\n        /* \"#utility.yul\":3391:3409   */\n      0x24\n      add\n        /* \"@openzeppelin/contracts/token/ERC20/ERC20.sol\":8361:8391  ERC20InvalidSender(address(0)) */\n      tag_177\n        /* \"#utility.yul\":3272:3475   */\n      jump\n        /* \"@openzeppelin/contracts/token/ERC20/ERC20.sol\":8313:8402  if (account == address(0)) {... */\n    tag_227:\n        /* \"@openzeppelin/contracts/token/ERC20/ERC20.sol\":8411:8446  _update(account, address(0), value) */\n      tag_147\n        /* \"@openzeppelin/contracts/token/ERC20/ERC20.sol\":8419:8426  account */\n      dup3\n        /* \"@openzeppelin/contracts/token/ERC20/ERC20.sol\":8436:8437  0 */\n      0x00\n        /* \"@openzeppelin/contracts/token/ERC20/ERC20.sol\":8440:8445  value */\n      dup4\n        /* \"@openzeppelin/contracts/token/ERC20/ERC20.sol\":8411:8418  _update */\n      tag_225\n        /* \"@openzeppelin/contracts/token/ERC20/ERC20.sol\":8411:8446  _update(account, address(0), value) */\n      jump\t// in\n        /* \"@openzeppelin/contracts/access/Ownable.sol\":1796:1958  function _checkOwner() internal view virtual {... */\n    tag_140:\n        /* \"@openzeppelin/contracts/access/Ownable.sol\":1710:1716  _owner */\n      and(sub(shl(0xa0, 0x01), 0x01), sload(0x05))\n        /* \"@openzeppelin/contracts/utils/Context.sol\":735:745  msg.sender */\n      caller\n        /* \"@openzeppelin/contracts/access/Ownable.sol\":1855:1878  owner() != _msgSender() */\n      eq\n        /* \"@openzeppelin/contracts/access/Ownable.sol\":1851:1952  if (owner() != _msgSender()) {... */\n      tag_142\n      jumpi\n        /* \"@openzeppelin/contracts/access/Ownable.sol\":1901:1941  OwnableUnauthorizedAccount(_msgSender()) */\n      mload(0x40)\n      shl(0xe0, 0x118cdaa7)\n      dup2\n      mstore\n        /* \"@openzeppelin/contracts/utils/Context.sol\":735:745  msg.sender */\n      caller\n        /* \"@openzeppelin/contracts/access/Ownable.sol\":1901:1941  OwnableUnauthorizedAccount(_msgSender()) */\n      0x04\n      dup3\n      add\n        /* \"#utility.yul\":3418:3469   */\n      mstore\n        /* \"#utility.yul\":3391:3409   */\n      0x24\n      add\n        /* \"@openzeppelin/contracts/access/Ownable.sol\":1901:1941  OwnableUnauthorizedAccount(_msgSender()) */\n      tag_177\n        /* \"#utility.yul\":3272:3475   */\n      jump\n        /* \"@openzeppelin/contracts/access/Ownable.sol\":2912:3099  function _transferOwnership(address newOwner) internal virtual {... */\n    tag_143:\n        /* \"@openzeppelin/contracts/access/Ownable.sol\":3004:3010  _owner */\n      0x05\n      dup1\n      sload\n      sub(shl(0xa0, 0x01), 0x01)\n        /* \"@openzeppelin/contracts/access/Ownable.sol\":3020:3037  _owner = newOwner */\n      dup4\n      dup2\n      and\n      not(sub(shl(0xa0, 0x01), 0x01))\n      dup4\n      and\n      dup2\n      or\n      swap1\n      swap4\n      sstore\n        /* \"@openzeppelin/contracts/access/Ownable.sol\":3052:3092  OwnershipTransferred(oldOwner, newOwner) */\n      mload(0x40)\n        /* \"@openzeppelin/contracts/access/Ownable.sol\":3004:3010  _owner */\n      swap2\n      and\n      swap2\n        /* \"@openzeppelin/contracts/access/Ownable.sol\":3020:3037  _owner = newOwner */\n      swap1\n        /* \"@openzeppelin/contracts/access/Ownable.sol\":3004:3010  _owner */\n      dup3\n      swap1\n        /* \"@openzeppelin/contracts/access/Ownable.sol\":3052:3092  OwnershipTransferred(oldOwner, newOwner) */\n      0x8be0079c531659141344cd1fd0a4f28419497f9722a3daafe3b4186f6b6457e0\n      swap1\n        /* \"@openzeppelin/contracts/access/Ownable.sol\":2985:3001  address oldOwner */\n      0x00\n      swap1\n        /* \"@openzeppelin/contracts/access/Ownable.sol\":3052:3092  OwnershipTransferred(oldOwner, newOwner) */\n      log3\n        /* \"@openzeppelin/contracts/access/Ownable.sol\":2975:3099  {... */\n      pop\n        /* \"@openzeppelin/contracts/access/Ownable.sol\":2912:3099  function _transferOwnership(address newOwner) internal virtual {... */\n      pop\n      jump\t// out\n        /* \"@openzeppelin/contracts/token/ERC20/ERC20.sol\":7721:7929  function _mint(address account, uint256 value) internal {... */\n    tag_162:\n      sub(shl(0xa0, 0x01), 0x01)\n        /* \"@openzeppelin/contracts/token/ERC20/ERC20.sol\":7791:7812  account == address(0) */\n      dup3\n      and\n        /* \"@openzeppelin/contracts/token/ERC20/ERC20.sol\":7787:7878  if (account == address(0)) {... */\n      tag_239\n      jumpi\n        /* \"@openzeppelin/contracts/token/ERC20/ERC20.sol\":7835:7867  ERC20InvalidReceiver(address(0)) */\n      mload(0x40)\n      shl(0xe0, 0xec442f05)\n      dup2\n      mstore\n        /* \"@openzeppelin/contracts/token/ERC20/ERC20.sol\":7864:7865  0 */\n      0x00\n        /* \"@openzeppelin/contracts/token/ERC20/ERC20.sol\":7835:7867  ERC20InvalidReceiver(address(0)) */\n      0x04\n      dup3\n      add\n        /* \"#utility.yul\":3418:3469   */\n      mstore\n        /* \"#utility.yul\":3391:3409   */\n      0x24\n      add\n        /* \"@openzeppelin/contracts/token/ERC20/ERC20.sol\":7835:7867  ERC20InvalidReceiver(address(0)) */\n      tag_177\n        /* \"#utility.yul\":3272:3475   */\n      jump\n        /* \"@openzeppelin/contracts/token/ERC20/ERC20.sol\":7787:7878  if (account == address(0)) {... */\n    tag_239:\n        /* \"@openzeppelin/contracts/token/ERC20/ERC20.sol\":7887:7922  _update(address(0), account, value) */\n      tag_147\n        /* \"@openzeppelin/contracts/token/ERC20/ERC20.sol\":7903:7904  0 */\n      0x00\n        /* \"@openzeppelin/contracts/token/ERC20/ERC20.sol\":7907:7914  account */\n      dup4\n        /* \"@openzeppelin/contracts/token/ERC20/ERC20.sol\":7916:7921  value */\n      dup4\n        /* \"@openzeppelin/contracts/token/ERC20/ERC20.sol\":7887:7894  _update */\n      tag_225\n        /* \"@openzeppelin/contracts/token/ERC20/ERC20.sol\":7887:7922  _update(address(0), account, value) */\n      jump\t// in\n        /* \"@openzeppelin/contracts/token/ERC20/ERC20.sol\":9949:10381  function _approve(address owner, address spender, uint256 value, bool emitEvent) internal virtual {... */\n    tag_211:\n      sub(shl(0xa0, 0x01), 0x01)\n        /* \"@openzeppelin/contracts/token/ERC20/ERC20.sol\":10061:10080  owner == address(0) */\n      dup5\n      and\n        /* \"@openzeppelin/contracts/token/ERC20/ERC20.sol\":10057:10146  if (owner == address(0)) {... */\n      tag_243\n      jumpi\n        /* \"@openzeppelin/contracts/token/ERC20/ERC20.sol\":10103:10135  ERC20InvalidApprover(address(0)) */\n      mload(0x40)\n      shl(0xe0, 0xe602df05)\n      dup2\n      mstore\n        /* \"@openzeppelin/contracts/token/ERC20/ERC20.sol\":10132:10133  0 */\n      0x00\n        /* \"@openzeppelin/contracts/token/ERC20/ERC20.sol\":10103:10135  ERC20InvalidApprover(address(0)) */\n      0x04\n      dup3\n      add\n        /* \"#utility.yul\":3418:3469   */\n      mstore\n        /* \"#utility.yul\":3391:3409   */\n      0x24\n      add\n        /* \"@openzeppelin/contracts/token/ERC20/ERC20.sol\":10103:10135  ERC20InvalidApprover(address(0)) */\n      tag_177\n        /* \"#utility.yul\":3272:3475   */\n      jump\n        /* \"@openzeppelin/contracts/token/ERC20/ERC20.sol\":10057:10146  if (owner == address(0)) {... */\n    tag_243:\n      sub(shl(0xa0, 0x01), 0x01)\n        /* \"@openzeppelin/contracts/token/ERC20/ERC20.sol\":10159:10180  spender == address(0) */\n      dup4\n      and\n        /* \"@openzeppelin/contracts/token/ERC20/ERC20.sol\":10155:10245  if (spender == address(0)) {... */\n      tag_245\n      jumpi\n        /* \"@openzeppelin/contracts/token/ERC20/ERC20.sol\":10203:10234  ERC20InvalidSpender(address(0)) */\n      mload(0x40)\n      shl(0xe1, 0x4a1406b1)\n      dup2\n      mstore\n        /* \"@openzeppelin/contracts/token/ERC20/ERC20.sol\":10231:10232  0 */\n      0x00\n        /* \"@openzeppelin/contracts/token/ERC20/ERC20.sol\":10203:10234  ERC20InvalidSpender(address(0)) */\n      0x04\n      dup3\n      add\n        /* \"#utility.yul\":3418:3469   */\n      mstore\n        /* \"#utility.yul\":3391:3409   */\n      0x24\n      add\n        /* \"@openzeppelin/contracts/token/ERC20/ERC20.sol\":10203:10234  ERC20InvalidSpender(address(0)) */\n      tag_177\n        /* \"#utility.yul\":3272:3475   */\n      jump\n        /* \"@openzeppelin/contracts/token/ERC20/ERC20.sol\":10155:10245  if (spender == address(0)) {... */\n    tag_245:\n      sub(shl(0xa0, 0x01), 0x01)\n        /* \"@openzeppelin/contracts/token/ERC20/ERC20.sol\":10254:10272  _allowances[owner] */\n      dup1\n      dup6\n      and\n      0x00\n      swap1\n      dup2\n      mstore\n        /* \"@openzeppelin/contracts/token/ERC20/ERC20.sol\":10254:10265  _allowances */\n      0x01\n        /* \"@openzeppelin/contracts/token/ERC20/ERC20.sol\":10254:10272  _allowances[owner] */\n      0x20\n      swap1\n      dup2\n      mstore\n      0x40\n      dup1\n      dup4\n      keccak256\n        /* \"@openzeppelin/contracts/token/ERC20/ERC20.sol\":10254:10281  _allowances[owner][spender] */\n      swap4\n      dup8\n      and\n      dup4\n      mstore\n      swap3\n      swap1\n      mstore\n      keccak256\n        /* \"@openzeppelin/contracts/token/ERC20/ERC20.sol\":10254:10289  _allowances[owner][spender] = value */\n      dup3\n      swap1\n      sstore\n        /* \"@openzeppelin/contracts/token/ERC20/ERC20.sol\":10299:10375  if (emitEvent) {... */\n      dup1\n      iszero\n      tag_136\n      jumpi\n        /* \"@openzeppelin/contracts/token/ERC20/ERC20.sol\":10349:10356  spender */\n      dup3\n      sub(shl(0xa0, 0x01), 0x01)\n        /* \"@openzeppelin/contracts/token/ERC20/ERC20.sol\":10333:10364  Approval(owner, spender, value) */\n      and\n        /* \"@openzeppelin/contracts/token/ERC20/ERC20.sol\":10342:10347  owner */\n      dup5\n      sub(shl(0xa0, 0x01), 0x01)\n        /* \"@openzeppelin/contracts/token/ERC20/ERC20.sol\":10333:10364  Approval(owner, spender, value) */\n      and\n      0x8c5be1e5ebec7d5bd14f71427d1e84f3dd0314c0f7b2291e5b200ac8c7c3b925\n        /* \"@openzeppelin/contracts/token/ERC20/ERC20.sol\":10358:10363  value */\n      dup5\n        /* \"@openzeppelin/contracts/token/ERC20/ERC20.sol\":10333:10364  Approval(owner, spender, value) */\n      mload(0x40)\n      tag_248\n      swap2\n        /* \"#utility.yul\":1619:1644   */\n      dup2\n      mstore\n        /* \"#utility.yul\":1607:1609   */\n      0x20\n        /* \"#utility.yul\":1592:1610   */\n      add\n      swap1\n        /* \"#utility.yul\":1473:1650   */\n      jump\n        /* \"@openzeppelin/contracts/token/ERC20/ERC20.sol\":10333:10364  Approval(owner, spender, value) */\n    tag_248:\n      mload(0x40)\n      dup1\n      swap2\n      sub\n      swap1\n      log3\n        /* \"@openzeppelin/contracts/token/ERC20/ERC20.sol\":9949:10381  function _approve(address owner, address spender, uint256 value, bool emitEvent) internal virtual {... */\n      pop\n      pop\n      pop\n      pop\n      jump\t// out\n        /* \"@openzeppelin/contracts/token/ERC20/ERC20.sol\":6271:7378  function _update(address from, address to, uint256 value) internal virtual {... */\n    tag_225:\n      sub(shl(0xa0, 0x01), 0x01)\n        /* \"@openzeppelin/contracts/token/ERC20/ERC20.sol\":6360:6378  from == address(0) */\n      dup4\n      and\n        /* \"@openzeppelin/contracts/token/ERC20/ERC20.sol\":6356:6896  if (from == address(0)) {... */\n      tag_250\n      jumpi\n        /* \"@openzeppelin/contracts/token/ERC20/ERC20.sol\":6512:6517  value */\n      dup1\n        /* \"@openzeppelin/contracts/token/ERC20/ERC20.sol\":6496:6508  _totalSupply */\n      0x02\n      0x00\n        /* \"@openzeppelin/contracts/token/ERC20/ERC20.sol\":6496:6517  _totalSupply += value */\n      dup3\n      dup3\n      sload\n      tag_251\n      swap2\n      swap1\n      tag_252\n      jump\t// in\n    tag_251:\n      swap1\n      swap2\n      sstore\n      pop\n        /* \"@openzeppelin/contracts/token/ERC20/ERC20.sol\":6356:6896  if (from == address(0)) {... */\n      tag_253\n      swap1\n      pop\n      jump\n    tag_250:\n      sub(shl(0xa0, 0x01), 0x01)\n        /* \"@openzeppelin/contracts/token/ERC20/ERC20.sol\":6570:6585  _balances[from] */\n      dup4\n      and\n        /* \"@openzeppelin/contracts/token/ERC20/ERC20.sol\":6548:6567  uint256 fromBalance */\n      0x00\n        /* \"@openzeppelin/contracts/token/ERC20/ERC20.sol\":6570:6585  _balances[from] */\n      swap1\n      dup2\n      mstore\n      0x20\n      dup2\n      swap1\n      mstore\n      0x40\n      swap1\n      keccak256\n      sload\n        /* \"@openzeppelin/contracts/token/ERC20/ERC20.sol\":6603:6622  fromBalance < value */\n      dup2\n      dup2\n      lt\n        /* \"@openzeppelin/contracts/token/ERC20/ERC20.sol\":6599:6714  if (fromBalance < value) {... */\n      iszero\n      tag_254\n      jumpi\n        /* \"@openzeppelin/contracts/token/ERC20/ERC20.sol\":6649:6699  ERC20InsufficientBalance(from, fromBalance, value) */\n      mload(0x40)\n      shl(0xe2, 0x391434e3)\n      dup2\n      mstore\n      sub(shl(0xa0, 0x01), 0x01)\n        /* \"#utility.yul\":8491:8523   */\n      dup6\n      and\n        /* \"@openzeppelin/contracts/token/ERC20/ERC20.sol\":6649:6699  ERC20InsufficientBalance(from, fromBalance, value) */\n      0x04\n      dup3\n      add\n        /* \"#utility.yul\":8473:8524   */\n      mstore\n        /* \"#utility.yul\":8540:8558   */\n      0x24\n      dup2\n      add\n        /* \"#utility.yul\":8533:8567   */\n      dup3\n      swap1\n      mstore\n        /* \"#utility.yul\":8583:8601   */\n      0x44\n      dup2\n      add\n        /* \"#utility.yul\":8576:8610   */\n      dup4\n      swap1\n      mstore\n        /* \"#utility.yul\":8446:8464   */\n      0x64\n      add\n        /* \"@openzeppelin/contracts/token/ERC20/ERC20.sol\":6649:6699  ERC20InsufficientBalance(from, fromBalance, value) */\n      tag_177\n        /* \"#utility.yul\":8271:8616   */\n      jump\n        /* \"@openzeppelin/contracts/token/ERC20/ERC20.sol\":6599:6714  if (fromBalance < value) {... */\n    tag_254:\n      sub(shl(0xa0, 0x01), 0x01)\n        /* \"@openzeppelin/contracts/token/ERC20/ERC20.sol\":6834:6849  _balances[from] */\n      dup5\n      and\n        /* \"@openzeppelin/contracts/token/ERC20/ERC20.sol\":6834:6843  _balances */\n      0x00\n        /* \"@openzeppelin/contracts/token/ERC20/ERC20.sol\":6834:6849  _balances[from] */\n      swap1\n      dup2\n      mstore\n      0x20\n      dup2\n      swap1\n      mstore\n      0x40\n      swap1\n      keccak256\n        /* \"@openzeppelin/contracts/token/ERC20/ERC20.sol\":6852:6871  fromBalance - value */\n      swap1\n      dup3\n      swap1\n      sub\n        /* \"@openzeppelin/contracts/token/ERC20/ERC20.sol\":6834:6871  _balances[from] = fromBalance - value */\n      swap1\n      sstore\n        /* \"@openzeppelin/contracts/token/ERC20/ERC20.sol\":6356:6896  if (from == address(0)) {... */\n    tag_253:\n      sub(shl(0xa0, 0x01), 0x01)\n        /* \"@openzeppelin/contracts/token/ERC20/ERC20.sol\":6910:6926  to == address(0) */\n      dup3\n      and\n        /* \"@openzeppelin/contracts/token/ERC20/ERC20.sol\":6906:7331  if (to == address(0)) {... */\n      tag_256\n      jumpi\n        /* \"@openzeppelin/contracts/token/ERC20/ERC20.sol\":7073:7085  _totalSupply */\n      0x02\n        /* \"@openzeppelin/contracts/token/ERC20/ERC20.sol\":7073:7094  _totalSupply -= value */\n      dup1\n      sload\n      dup3\n      swap1\n      sub\n      swap1\n      sstore\n        /* \"@openzeppelin/contracts/token/ERC20/ERC20.sol\":6906:7331  if (to == address(0)) {... */\n      jump(tag_257)\n    tag_256:\n      sub(shl(0xa0, 0x01), 0x01)\n        /* \"@openzeppelin/contracts/token/ERC20/ERC20.sol\":7284:7297  _balances[to] */\n      dup3\n      and\n        /* \"@openzeppelin/contracts/token/ERC20/ERC20.sol\":7284:7293  _balances */\n      0x00\n        /* \"@openzeppelin/contracts/token/ERC20/ERC20.sol\":7284:7297  _balances[to] */\n      swap1\n      dup2\n      mstore\n      0x20\n      dup2\n      swap1\n      mstore\n      0x40\n      swap1\n      keccak256\n        /* \"@openzeppelin/contracts/token/ERC20/ERC20.sol\":7284:7306  _balances[to] += value */\n      dup1\n      sload\n      dup3\n      add\n      swap1\n      sstore\n        /* \"@openzeppelin/contracts/token/ERC20/ERC20.sol\":6906:7331  if (to == address(0)) {... */\n    tag_257:\n        /* \"@openzeppelin/contracts/token/ERC20/ERC20.sol\":7361:7363  to */\n      dup2\n      sub(shl(0xa0, 0x01), 0x01)\n        /* \"@openzeppelin/contracts/token/ERC20/ERC20.sol\":7346:7371  Transfer(from, to, value) */\n      and\n        /* \"@openzeppelin/contracts/token/ERC20/ERC20.sol\":7355:7359  from */\n      dup4\n      sub(shl(0xa0, 0x01), 0x01)\n        /* \"@openzeppelin/contracts/token/ERC20/ERC20.sol\":7346:7371  Transfer(from, to, value) */\n      and\n      0xddf252ad1be2c89b69c2b068fc378daa952ba7f163c4a11628f55a4df523b3ef\n        /* \"@openzeppelin/contracts/token/ERC20/ERC20.sol\":7365:7370  value */\n      dup4\n        /* \"@openzeppelin/contracts/token/ERC20/ERC20.sol\":7346:7371  Transfer(from, to, value) */\n      mload(0x40)\n      tag_258\n      swap2\n        /* \"#utility.yul\":1619:1644   */\n      dup2\n      mstore\n        /* \"#utility.yul\":1607:1609   */\n      0x20\n        /* \"#utility.yul\":1592:1610   */\n      add\n      swap1\n        /* \"#utility.yul\":1473:1650   */\n      jump\n        /* \"@openzeppelin/contracts/token/ERC20/ERC20.sol\":7346:7371  Transfer(from, to, value) */\n    tag_258:\n      mload(0x40)\n      dup1\n      swap2\n      sub\n      swap1\n      log3\n        /* \"@openzeppelin/contracts/token/ERC20/ERC20.sol\":6271:7378  function _update(address from, address to, uint256 value) internal virtual {... */\n      pop\n      pop\n      pop\n      jump\t// out\n        /* \"#utility.yul\":14:145   */\n    tag_259:\n      sub(shl(0xa0, 0x01), 0x01)\n        /* \"#utility.yul\":89:120   */\n      dup2\n      and\n        /* \"#utility.yul\":79:121   */\n      dup2\n      eq\n        /* \"#utility.yul\":69:139   */\n      tag_131\n      jumpi\n        /* \"#utility.yul\":135:136   */\n      0x00\n        /* \"#utility.yul\":132:133   */\n      dup1\n        /* \"#utility.yul\":125:137   */\n      revert\n        /* \"#utility.yul\":150:533   */\n    tag_29:\n        /* \"#utility.yul\":227:233   */\n      0x00\n        /* \"#utility.yul\":235:241   */\n      dup1\n        /* \"#utility.yul\":243:249   */\n      0x00\n        /* \"#utility.yul\":296:298   */\n      0x60\n        /* \"#utility.yul\":284:293   */\n      dup5\n        /* \"#utility.yul\":275:282   */\n      dup7\n        /* \"#utility.yul\":271:294   */\n      sub\n        /* \"#utility.yul\":267:299   */\n      slt\n        /* \"#utility.yul\":264:316   */\n      iszero\n      tag_269\n      jumpi\n        /* \"#utility.yul\":312:313   */\n      0x00\n        /* \"#utility.yul\":309:310   */\n      dup1\n        /* \"#utility.yul\":302:314   */\n      revert\n        /* \"#utility.yul\":264:316   */\n    tag_269:\n        /* \"#utility.yul\":348:357   */\n      dup4\n        /* \"#utility.yul\":335:358   */\n      calldataload\n        /* \"#utility.yul\":325:358   */\n      swap3\n      pop\n        /* \"#utility.yul\":408:410   */\n      0x20\n        /* \"#utility.yul\":397:406   */\n      dup5\n        /* \"#utility.yul\":393:411   */\n      add\n        /* \"#utility.yul\":380:412   */\n      calldataload\n        /* \"#utility.yul\":421:452   */\n      tag_270\n        /* \"#utility.yul\":446:451   */\n      dup2\n        /* \"#utility.yul\":421:452   */\n      tag_259\n      jump\t// in\n    tag_270:\n        /* \"#utility.yul\":150:533   */\n      swap3\n      swap6\n        /* \"#utility.yul\":471:476   */\n      swap3\n      swap5\n      pop\n      pop\n      pop\n        /* \"#utility.yul\":523:525   */\n      0x40\n        /* \"#utility.yul\":508:526   */\n      swap2\n      swap1\n      swap2\n      add\n        /* \"#utility.yul\":495:527   */\n      calldataload\n      swap1\n        /* \"#utility.yul\":150:533   */\n      jump\t// out\n        /* \"#utility.yul\":730:1148   */\n    tag_38:\n        /* \"#utility.yul\":879:881   */\n      0x20\n        /* \"#utility.yul\":868:877   */\n      dup2\n        /* \"#utility.yul\":861:882   */\n      mstore\n        /* \"#utility.yul\":842:846   */\n      0x00\n        /* \"#utility.yul\":911:917   */\n      dup3\n        /* \"#utility.yul\":905:918   */\n      mload\n        /* \"#utility.yul\":954:960   */\n      dup1\n        /* \"#utility.yul\":949:951   */\n      0x20\n        /* \"#utility.yul\":938:947   */\n      dup5\n        /* \"#utility.yul\":934:952   */\n      add\n        /* \"#utility.yul\":927:961   */\n      mstore\n        /* \"#utility.yul\":1013:1019   */\n      dup1\n        /* \"#utility.yul\":1008:1010   */\n      0x20\n        /* \"#utility.yul\":1000:1006   */\n      dup6\n        /* \"#utility.yul\":996:1011   */\n      add\n        /* \"#utility.yul\":991:993   */\n      0x40\n        /* \"#utility.yul\":980:989   */\n      dup6\n        /* \"#utility.yul\":976:994   */\n      add\n        /* \"#utility.yul\":970:1020   */\n      mcopy\n        /* \"#utility.yul\":1069:1070   */\n      0x00\n        /* \"#utility.yul\":1064:1066   */\n      0x40\n        /* \"#utility.yul\":1055:1061   */\n      dup3\n        /* \"#utility.yul\":1044:1053   */\n      dup6\n        /* \"#utility.yul\":1040:1062   */\n      add\n        /* \"#utility.yul\":1036:1067   */\n      add\n        /* \"#utility.yul\":1029:1071   */\n      mstore\n        /* \"#utility.yul\":1139:1141   */\n      0x40\n        /* \"#utility.yul\":1132:1134   */\n      0x1f\n        /* \"#utility.yul\":1128:1135   */\n      not\n        /* \"#utility.yul\":1123:1125   */\n      0x1f\n        /* \"#utility.yul\":1115:1121   */\n      dup4\n        /* \"#utility.yul\":1111:1126   */\n      add\n        /* \"#utility.yul\":1107:1136   */\n      and\n        /* \"#utility.yul\":1096:1105   */\n      dup5\n        /* \"#utility.yul\":1092:1137   */\n      add\n        /* \"#utility.yul\":1088:1142   */\n      add\n        /* \"#utility.yul\":1080:1142   */\n      swap2\n      pop\n      pop\n        /* \"#utility.yul\":730:1148   */\n      swap3\n      swap2\n      pop\n      pop\n      jump\t// out\n        /* \"#utility.yul\":1153:1468   */\n    tag_41:\n        /* \"#utility.yul\":1221:1227   */\n      0x00\n        /* \"#utility.yul\":1229:1235   */\n      dup1\n        /* \"#utility.yul\":1282:1284   */\n      0x40\n        /* \"#utility.yul\":1270:1279   */\n      dup4\n        /* \"#utility.yul\":1261:1268   */\n      dup6\n        /* \"#utility.yul\":1257:1280   */\n      sub\n        /* \"#utility.yul\":1253:1285   */\n      slt\n        /* \"#utility.yul\":1250:1302   */\n      iszero\n      tag_274\n      jumpi\n        /* \"#utility.yul\":1298:1299   */\n      0x00\n        /* \"#utility.yul\":1295:1296   */\n      dup1\n        /* \"#utility.yul\":1288:1300   */\n      revert\n        /* \"#utility.yul\":1250:1302   */\n    tag_274:\n        /* \"#utility.yul\":1337:1346   */\n      dup3\n        /* \"#utility.yul\":1324:1347   */\n      calldataload\n        /* \"#utility.yul\":1356:1387   */\n      tag_275\n        /* \"#utility.yul\":1381:1386   */\n      dup2\n        /* \"#utility.yul\":1356:1387   */\n      tag_259\n      jump\t// in\n    tag_275:\n        /* \"#utility.yul\":1406:1411   */\n      swap5\n        /* \"#utility.yul\":1458:1460   */\n      0x20\n        /* \"#utility.yul\":1443:1461   */\n      swap4\n      swap1\n      swap4\n      add\n        /* \"#utility.yul\":1430:1462   */\n      calldataload\n      swap4\n      pop\n      pop\n      pop\n        /* \"#utility.yul\":1153:1468   */\n      jump\t// out\n        /* \"#utility.yul\":1655:2111   */\n    tag_50:\n        /* \"#utility.yul\":1732:1738   */\n      0x00\n        /* \"#utility.yul\":1740:1746   */\n      dup1\n        /* \"#utility.yul\":1748:1754   */\n      0x00\n        /* \"#utility.yul\":1801:1803   */\n      0x60\n        /* \"#utility.yul\":1789:1798   */\n      dup5\n        /* \"#utility.yul\":1780:1787   */\n      dup7\n        /* \"#utility.yul\":1776:1799   */\n      sub\n        /* \"#utility.yul\":1772:1804   */\n      slt\n        /* \"#utility.yul\":1769:1821   */\n      iszero\n      tag_278\n      jumpi\n        /* \"#utility.yul\":1817:1818   */\n      0x00\n        /* \"#utility.yul\":1814:1815   */\n      dup1\n        /* \"#utility.yul\":1807:1819   */\n      revert\n        /* \"#utility.yul\":1769:1821   */\n    tag_278:\n        /* \"#utility.yul\":1856:1865   */\n      dup4\n        /* \"#utility.yul\":1843:1866   */\n      calldataload\n        /* \"#utility.yul\":1875:1906   */\n      tag_279\n        /* \"#utility.yul\":1900:1905   */\n      dup2\n        /* \"#utility.yul\":1875:1906   */\n      tag_259\n      jump\t// in\n    tag_279:\n        /* \"#utility.yul\":1925:1930   */\n      swap3\n      pop\n        /* \"#utility.yul\":1982:1984   */\n      0x20\n        /* \"#utility.yul\":1967:1985   */\n      dup5\n      add\n        /* \"#utility.yul\":1954:1986   */\n      calldataload\n        /* \"#utility.yul\":1995:2028   */\n      tag_270\n        /* \"#utility.yul\":1954:1986   */\n      dup2\n        /* \"#utility.yul\":1995:2028   */\n      tag_259\n      jump\t// in\n        /* \"#utility.yul\":2305:2485   */\n    tag_59:\n        /* \"#utility.yul\":2364:2370   */\n      0x00\n        /* \"#utility.yul\":2417:2419   */\n      0x20\n        /* \"#utility.yul\":2405:2414   */\n      dup3\n        /* \"#utility.yul\":2396:2403   */\n      dup5\n        /* \"#utility.yul\":2392:2415   */\n      sub\n        /* \"#utility.yul\":2388:2420   */\n      slt\n        /* \"#utility.yul\":2385:2437   */\n      iszero\n      tag_283\n      jumpi\n        /* \"#utility.yul\":2433:2434   */\n      0x00\n        /* \"#utility.yul\":2430:2431   */\n      dup1\n        /* \"#utility.yul\":2423:2435   */\n      revert\n        /* \"#utility.yul\":2385:2437   */\n    tag_283:\n      pop\n        /* \"#utility.yul\":2456:2479   */\n      calldataload\n      swap2\n        /* \"#utility.yul\":2305:2485   */\n      swap1\n      pop\n      jump\t// out\n        /* \"#utility.yul\":2490:3015   */\n    tag_63:\n        /* \"#utility.yul\":2576:2582   */\n      0x00\n        /* \"#utility.yul\":2584:2590   */\n      dup1\n        /* \"#utility.yul\":2592:2598   */\n      0x00\n        /* \"#utility.yul\":2600:2606   */\n      dup1\n        /* \"#utility.yul\":2653:2656   */\n      0x80\n        /* \"#utility.yul\":2641:2650   */\n      dup6\n        /* \"#utility.yul\":2632:2639   */\n      dup8\n        /* \"#utility.yul\":2628:2651   */\n      sub\n        /* \"#utility.yul\":2624:2657   */\n      slt\n        /* \"#utility.yul\":2621:2674   */\n      iszero\n      tag_285\n      jumpi\n        /* \"#utility.yul\":2670:2671   */\n      0x00\n        /* \"#utility.yul\":2667:2668   */\n      dup1\n        /* \"#utility.yul\":2660:2672   */\n      revert\n        /* \"#utility.yul\":2621:2674   */\n    tag_285:\n        /* \"#utility.yul\":2706:2715   */\n      dup5\n        /* \"#utility.yul\":2693:2716   */\n      calldataload\n        /* \"#utility.yul\":2683:2716   */\n      swap4\n      pop\n        /* \"#utility.yul\":2766:2768   */\n      0x20\n        /* \"#utility.yul\":2755:2764   */\n      dup6\n        /* \"#utility.yul\":2751:2769   */\n      add\n        /* \"#utility.yul\":2738:2770   */\n      calldataload\n        /* \"#utility.yul\":2779:2810   */\n      tag_286\n        /* \"#utility.yul\":2804:2809   */\n      dup2\n        /* \"#utility.yul\":2779:2810   */\n      tag_259\n      jump\t// in\n    tag_286:\n        /* \"#utility.yul\":2829:2834   */\n      swap3\n      pop\n        /* \"#utility.yul\":2886:2888   */\n      0x40\n        /* \"#utility.yul\":2871:2889   */\n      dup6\n      add\n        /* \"#utility.yul\":2858:2890   */\n      calldataload\n        /* \"#utility.yul\":2899:2932   */\n      tag_287\n        /* \"#utility.yul\":2858:2890   */\n      dup2\n        /* \"#utility.yul\":2899:2932   */\n      tag_259\n      jump\t// in\n    tag_287:\n        /* \"#utility.yul\":2490:3015   */\n      swap4\n      swap7\n      swap3\n      swap6\n      pop\n        /* \"#utility.yul\":2951:2958   */\n      swap3\n      swap4\n        /* \"#utility.yul\":3005:3007   */\n      0x60\n        /* \"#utility.yul\":2990:3008   */\n      add\n        /* \"#utility.yul\":2977:3009   */\n      calldataload\n      swap3\n      pop\n      pop\n        /* \"#utility.yul\":2490:3015   */\n      jump\t// out\n        /* \"#utility.yul\":3020:3267   */\n    tag_67:\n        /* \"#utility.yul\":3079:3085   */\n      0x00\n        /* \"#utility.yul\":3132:3134   */\n      0x20\n        /* \"#utility.yul\":3120:3129   */\n      dup3\n        /* \"#utility.yul\":3111:3118   */\n      dup5\n        /* \"#utility.yul\":3107:3130   */\n      sub\n        /* \"#utility.yul\":3103:3135   */\n      slt\n        /* \"#utility.yul\":3100:3152   */\n      iszero\n      tag_289\n      jumpi\n        /* \"#utility.yul\":3148:3149   */\n      0x00\n        /* \"#utility.yul\":3145:3146   */\n      dup1\n        /* \"#utility.yul\":3138:3150   */\n      revert\n        /* \"#utility.yul\":3100:3152   */\n    tag_289:\n        /* \"#utility.yul\":3187:3196   */\n      dup2\n        /* \"#utility.yul\":3174:3197   */\n      calldataload\n        /* \"#utility.yul\":3206:3237   */\n      tag_290\n        /* \"#utility.yul\":3231:3236   */\n      dup2\n        /* \"#utility.yul\":3206:3237   */\n      tag_259\n      jump\t// in\n    tag_290:\n        /* \"#utility.yul\":3256:3261   */\n      swap4\n        /* \"#utility.yul\":3020:3267   */\n      swap3\n      pop\n      pop\n      pop\n      jump\t// out\n        /* \"#utility.yul\":3480:3868   */\n    tag_100:\n        /* \"#utility.yul\":3548:3554   */\n      0x00\n        /* \"#utility.yul\":3556:3562   */\n      dup1\n        /* \"#utility.yul\":3609:3611   */\n      0x40\n        /* \"#utility.yul\":3597:3606   */\n      dup4\n        /* \"#utility.yul\":3588:3595   */\n      dup6\n        /* \"#utility.yul\":3584:3607   */\n      sub\n        /* \"#utility.yul\":3580:3612   */\n      slt\n        /* \"#utility.yul\":3577:3629   */\n      iszero\n      tag_293\n      jumpi\n        /* \"#utility.yul\":3625:3626   */\n      0x00\n        /* \"#utility.yul\":3622:3623   */\n      dup1\n        /* \"#utility.yul\":3615:3627   */\n      revert\n        /* \"#utility.yul\":3577:3629   */\n    tag_293:\n        /* \"#utility.yul\":3664:3673   */\n      dup3\n        /* \"#utility.yul\":3651:3674   */\n      calldataload\n        /* \"#utility.yul\":3683:3714   */\n      tag_294\n        /* \"#utility.yul\":3708:3713   */\n      dup2\n        /* \"#utility.yul\":3683:3714   */\n      tag_259\n      jump\t// in\n    tag_294:\n        /* \"#utility.yul\":3733:3738   */\n      swap2\n      pop\n        /* \"#utility.yul\":3790:3792   */\n      0x20\n        /* \"#utility.yul\":3775:3793   */\n      dup4\n      add\n        /* \"#utility.yul\":3762:3794   */\n      calldataload\n        /* \"#utility.yul\":3803:3836   */\n      tag_295\n        /* \"#utility.yul\":3762:3794   */\n      dup2\n        /* \"#utility.yul\":3803:3836   */\n      tag_259\n      jump\t// in\n    tag_295:\n        /* \"#utility.yul\":3855:3862   */\n      dup1\n        /* \"#utility.yul\":3845:3862   */\n      swap2\n      pop\n      pop\n        /* \"#utility.yul\":3480:3868   */\n      swap3\n      pop\n      swap3\n      swap1\n      pop\n      jump\t// out\n        /* \"#utility.yul\":3873:4253   */\n    tag_112:\n        /* \"#utility.yul\":3952:3953   */\n      0x01\n        /* \"#utility.yul\":3948:3960   */\n      dup2\n      dup2\n      shr\n      swap1\n        /* \"#utility.yul\":3995:4007   */\n      dup3\n      and\n      dup1\n        /* \"#utility.yul\":4016:4077   */\n      tag_297\n      jumpi\n        /* \"#utility.yul\":4070:4074   */\n      0x7f\n        /* \"#utility.yul\":4062:4068   */\n      dup3\n        /* \"#utility.yul\":4058:4075   */\n      and\n        /* \"#utility.yul\":4048:4075   */\n      swap2\n      pop\n        /* \"#utility.yul\":4016:4077   */\n    tag_297:\n        /* \"#utility.yul\":4123:4125   */\n      0x20\n        /* \"#utility.yul\":4115:4121   */\n      dup3\n        /* \"#utility.yul\":4112:4126   */\n      lt\n        /* \"#utility.yul\":4092:4110   */\n      dup2\n        /* \"#utility.yul\":4089:4127   */\n      sub\n        /* \"#utility.yul\":4086:4247   */\n      tag_298\n      jumpi\n        /* \"#utility.yul\":4169:4179   */\n      0x4e487b71\n        /* \"#utility.yul\":4164:4167   */\n      0xe0\n        /* \"#utility.yul\":4160:4180   */\n      shl\n        /* \"#utility.yul\":4157:4158   */\n      0x00\n        /* \"#utility.yul\":4150:4181   */\n      mstore\n        /* \"#utility.yul\":4204:4208   */\n      0x22\n        /* \"#utility.yul\":4201:4202   */\n      0x04\n        /* \"#utility.yul\":4194:4209   */\n      mstore\n        /* \"#utility.yul\":4232:4236   */\n      0x24\n        /* \"#utility.yul\":4229:4230   */\n      0x00\n        /* \"#utility.yul\":4222:4237   */\n      revert\n        /* \"#utility.yul\":4086:4247   */\n    tag_298:\n      pop\n        /* \"#utility.yul\":3873:4253   */\n      swap2\n      swap1\n      pop\n      jump\t// out\n        /* \"#utility.yul\":4537:4701   */\n    tag_260:\n        /* \"#utility.yul\":4613:4626   */\n      dup1\n      mload\n        /* \"#utility.yul\":4662:4675   */\n      dup1\n      iszero\n        /* \"#utility.yul\":4655:4676   */\n      iszero\n        /* \"#utility.yul\":4645:4677   */\n      dup2\n      eq\n        /* \"#utility.yul\":4635:4695   */\n      tag_301\n      jumpi\n        /* \"#utility.yul\":4691:4692   */\n      0x00\n        /* \"#utility.yul\":4688:4689   */\n      dup1\n        /* \"#utility.yul\":4681:4693   */\n      revert\n        /* \"#utility.yul\":4635:4695   */\n    tag_301:\n        /* \"#utility.yul\":4537:4701   */\n      swap2\n      swap1\n      pop\n      jump\t// out\n        /* \"#utility.yul\":4706:4908   */\n    tag_171:\n        /* \"#utility.yul\":4773:4779   */\n      0x00\n        /* \"#utility.yul\":4826:4828   */\n      0x20\n        /* \"#utility.yul\":4814:4823   */\n      dup3\n        /* \"#utility.yul\":4805:4812   */\n      dup5\n        /* \"#utility.yul\":4801:4824   */\n      sub\n        /* \"#utility.yul\":4797:4829   */\n      slt\n        /* \"#utility.yul\":4794:4846   */\n      iszero\n      tag_303\n      jumpi\n        /* \"#utility.yul\":4842:4843   */\n      0x00\n        /* \"#utility.yul\":4839:4840   */\n      dup1\n        /* \"#utility.yul\":4832:4844   */\n      revert\n        /* \"#utility.yul\":4794:4846   */\n    tag_303:\n        /* \"#utility.yul\":4865:4902   */\n      tag_290\n        /* \"#utility.yul\":4892:4901   */\n      dup3\n        /* \"#utility.yul\":4865:4902   */\n      tag_260\n      jump\t// in\n        /* \"#utility.yul\":4913:5257   */\n    tag_261:\n        /* \"#utility.yul\":4980:4982   */\n      0x40\n        /* \"#utility.yul\":4974:4983   */\n      mload\n        /* \"#utility.yul\":5022:5025   */\n      0x01e0\n        /* \"#utility.yul\":5010:5026   */\n      dup2\n      add\n        /* \"#utility.yul\":5056:5074   */\n      0xffffffffffffffff\n        /* \"#utility.yul\":5041:5075   */\n      dup2\n      gt\n        /* \"#utility.yul\":5077:5099   */\n      dup3\n      dup3\n      lt\n        /* \"#utility.yul\":5038:5100   */\n      or\n        /* \"#utility.yul\":5035:5220   */\n      iszero\n      tag_306\n      jumpi\n        /* \"#utility.yul\":5142:5152   */\n      0x4e487b71\n        /* \"#utility.yul\":5137:5140   */\n      0xe0\n        /* \"#utility.yul\":5133:5153   */\n      shl\n        /* \"#utility.yul\":5130:5131   */\n      0x00\n        /* \"#utility.yul\":5123:5154   */\n      mstore\n        /* \"#utility.yul\":5177:5181   */\n      0x41\n        /* \"#utility.yul\":5174:5175   */\n      0x04\n        /* \"#utility.yul\":5167:5182   */\n      mstore\n        /* \"#utility.yul\":5205:5209   */\n      0x24\n        /* \"#utility.yul\":5202:5203   */\n      0x00\n        /* \"#utility.yul\":5195:5210   */\n      revert\n        /* \"#utility.yul\":5035:5220   */\n    tag_306:\n        /* \"#utility.yul\":5236:5238   */\n      0x40\n        /* \"#utility.yul\":5229:5251   */\n      mstore\n        /* \"#utility.yul\":4913:5257   */\n      swap1\n      jump\t// out\n        /* \"#utility.yul\":5262:5400   */\n    tag_262:\n        /* \"#utility.yul\":5341:5354   */\n      dup1\n      mload\n        /* \"#utility.yul\":5363:5394   */\n      tag_301\n        /* \"#utility.yul\":5341:5354   */\n      dup2\n        /* \"#utility.yul\":5363:5394   */\n      tag_259\n      jump\t// in\n        /* \"#utility.yul\":5405:5556   */\n    tag_263:\n        /* \"#utility.yul\":5488:5501   */\n      dup1\n      mload\n        /* \"#utility.yul\":5530:5531   */\n      0x04\n        /* \"#utility.yul\":5520:5532   */\n      dup2\n      lt\n        /* \"#utility.yul\":5510:5550   */\n      tag_301\n      jumpi\n        /* \"#utility.yul\":5546:5547   */\n      0x00\n        /* \"#utility.yul\":5543:5544   */\n      dup1\n        /* \"#utility.yul\":5536:5548   */\n      revert\n        /* \"#utility.yul\":5561:6914   */\n    tag_184:\n        /* \"#utility.yul\":5660:5666   */\n      0x00\n        /* \"#utility.yul\":5713:5716   */\n      0x01e0\n        /* \"#utility.yul\":5701:5710   */\n      dup3\n        /* \"#utility.yul\":5692:5699   */\n      dup5\n        /* \"#utility.yul\":5688:5711   */\n      sub\n        /* \"#utility.yul\":5684:5717   */\n      slt\n        /* \"#utility.yul\":5681:5734   */\n      iszero\n      tag_312\n      jumpi\n        /* \"#utility.yul\":5730:5731   */\n      0x00\n        /* \"#utility.yul\":5727:5728   */\n      dup1\n        /* \"#utility.yul\":5720:5732   */\n      revert\n        /* \"#utility.yul\":5681:5734   */\n    tag_312:\n        /* \"#utility.yul\":5756:5773   */\n      tag_313\n      tag_261\n      jump\t// in\n    tag_313:\n        /* \"#utility.yul\":5796:5836   */\n      tag_314\n        /* \"#utility.yul\":5826:5835   */\n      dup4\n        /* \"#utility.yul\":5796:5836   */\n      tag_262\n      jump\t// in\n    tag_314:\n        /* \"#utility.yul\":5789:5794   */\n      dup2\n        /* \"#utility.yul\":5782:5837   */\n      mstore\n        /* \"#utility.yul\":5869:5922   */\n      tag_315\n        /* \"#utility.yul\":5918:5920   */\n      0x20\n        /* \"#utility.yul\":5907:5916   */\n      dup5\n        /* \"#utility.yul\":5903:5921   */\n      add\n        /* \"#utility.yul\":5869:5922   */\n      tag_263\n      jump\t// in\n    tag_315:\n        /* \"#utility.yul\":5864:5866   */\n      0x20\n        /* \"#utility.yul\":5857:5862   */\n      dup3\n        /* \"#utility.yul\":5853:5867   */\n      add\n        /* \"#utility.yul\":5846:5923   */\n      mstore\n        /* \"#utility.yul\":5976:5978   */\n      0x40\n        /* \"#utility.yul\":5965:5974   */\n      dup4\n        /* \"#utility.yul\":5961:5979   */\n      add\n        /* \"#utility.yul\":5955:5980   */\n      mload\n        /* \"#utility.yul\":5950:5952   */\n      0x40\n        /* \"#utility.yul\":5943:5948   */\n      dup3\n        /* \"#utility.yul\":5939:5953   */\n      add\n        /* \"#utility.yul\":5932:5981   */\n      mstore\n        /* \"#utility.yul\":6034:6036   */\n      0x60\n        /* \"#utility.yul\":6023:6032   */\n      dup4\n        /* \"#utility.yul\":6019:6037   */\n      add\n        /* \"#utility.yul\":6013:6038   */\n      mload\n        /* \"#utility.yul\":6008:6010   */\n      0x60\n        /* \"#utility.yul\":6001:6006   */\n      dup3\n        /* \"#utility.yul\":5997:6011   */\n      add\n        /* \"#utility.yul\":5990:6039   */\n      mstore\n        /* \"#utility.yul\":6093:6096   */\n      0x80\n        /* \"#utility.yul\":6082:6091   */\n      dup4\n        /* \"#utility.yul\":6078:6097   */\n      add\n        /* \"#utility.yul\":6072:6098   */\n      mload\n        /* \"#utility.yul\":6066:6069   */\n      0x80\n        /* \"#utility.yul\":6059:6064   */\n      dup3\n        /* \"#utility.yul\":6055:6070   */\n      add\n        /* \"#utility.yul\":6048:6099   */\n      mstore\n        /* \"#utility.yul\":6153:6156   */\n      0xa0\n        /* \"#utility.yul\":6142:6151   */\n      dup4\n        /* \"#utility.yul\":6138:6157   */\n      add\n        /* \"#utility.yul\":6132:6158   */\n      mload\n        /* \"#utility.yul\":6126:6129   */\n      0xa0\n        /* \"#utility.yul\":6119:6124   */\n      dup3\n        /* \"#utility.yul\":6115:6130   */\n      add\n        /* \"#utility.yul\":6108:6159   */\n      mstore\n        /* \"#utility.yul\":6213:6216   */\n      0xc0\n        /* \"#utility.yul\":6202:6211   */\n      dup4\n        /* \"#utility.yul\":6198:6217   */\n      add\n        /* \"#utility.yul\":6192:6218   */\n      mload\n        /* \"#utility.yul\":6186:6189   */\n      0xc0\n        /* \"#utility.yul\":6179:6184   */\n      dup3\n        /* \"#utility.yul\":6175:6190   */\n      add\n        /* \"#utility.yul\":6168:6219   */\n      mstore\n        /* \"#utility.yul\":6273:6276   */\n      0xe0\n        /* \"#utility.yul\":6262:6271   */\n      dup4\n        /* \"#utility.yul\":6258:6277   */\n      add\n        /* \"#utility.yul\":6252:6278   */\n      mload\n        /* \"#utility.yul\":6246:6249   */\n      0xe0\n        /* \"#utility.yul\":6239:6244   */\n      dup3\n        /* \"#utility.yul\":6235:6250   */\n      add\n        /* \"#utility.yul\":6228:6279   */\n      mstore\n        /* \"#utility.yul\":6298:6301   */\n      0x0100\n        /* \"#utility.yul\":6354:6356   */\n      dup1\n        /* \"#utility.yul\":6343:6352   */\n      dup5\n        /* \"#utility.yul\":6339:6357   */\n      add\n        /* \"#utility.yul\":6333:6358   */\n      mload\n        /* \"#utility.yul\":6328:6330   */\n      dup2\n        /* \"#utility.yul\":6321:6326   */\n      dup4\n        /* \"#utility.yul\":6317:6331   */\n      add\n        /* \"#utility.yul\":6310:6359   */\n      mstore\n      pop\n        /* \"#utility.yul\":6378:6381   */\n      0x0120\n        /* \"#utility.yul\":6434:6436   */\n      dup1\n        /* \"#utility.yul\":6423:6432   */\n      dup5\n        /* \"#utility.yul\":6419:6437   */\n      add\n        /* \"#utility.yul\":6413:6438   */\n      mload\n        /* \"#utility.yul\":6408:6410   */\n      dup2\n        /* \"#utility.yul\":6401:6406   */\n      dup4\n        /* \"#utility.yul\":6397:6411   */\n      add\n        /* \"#utility.yul\":6390:6439   */\n      mstore\n      pop\n        /* \"#utility.yul\":6458:6461   */\n      0x0140\n        /* \"#utility.yul\":6514:6516   */\n      dup1\n        /* \"#utility.yul\":6503:6512   */\n      dup5\n        /* \"#utility.yul\":6499:6517   */\n      add\n        /* \"#utility.yul\":6493:6518   */\n      mload\n        /* \"#utility.yul\":6488:6490   */\n      dup2\n        /* \"#utility.yul\":6481:6486   */\n      dup4\n        /* \"#utility.yul\":6477:6491   */\n      add\n        /* \"#utility.yul\":6470:6519   */\n      mstore\n      pop\n        /* \"#utility.yul\":6538:6541   */\n      0x0160\n        /* \"#utility.yul\":6594:6596   */\n      dup1\n        /* \"#utility.yul\":6583:6592   */\n      dup5\n        /* \"#utility.yul\":6579:6597   */\n      add\n        /* \"#utility.yul\":6573:6598   */\n      mload\n        /* \"#utility.yul\":6568:6570   */\n      dup2\n        /* \"#utility.yul\":6561:6566   */\n      dup4\n        /* \"#utility.yul\":6557:6571   */\n      add\n        /* \"#utility.yul\":6550:6599   */\n      mstore\n      pop\n        /* \"#utility.yul\":6618:6621   */\n      0x0180\n        /* \"#utility.yul\":6653:6702   */\n      tag_316\n        /* \"#utility.yul\":6698:6700   */\n      dup2\n        /* \"#utility.yul\":6687:6696   */\n      dup6\n        /* \"#utility.yul\":6683:6701   */\n      add\n        /* \"#utility.yul\":6653:6702   */\n      tag_262\n      jump\t// in\n    tag_316:\n        /* \"#utility.yul\":6637:6651   */\n      swap1\n      dup3\n      add\n        /* \"#utility.yul\":6630:6703   */\n      mstore\n        /* \"#utility.yul\":6722:6725   */\n      0x01a0\n        /* \"#utility.yul\":6763:6781   */\n      dup4\n      dup2\n      add\n        /* \"#utility.yul\":6757:6782   */\n      mload\n        /* \"#utility.yul\":6741:6755   */\n      swap1\n      dup3\n      add\n        /* \"#utility.yul\":6734:6783   */\n      mstore\n        /* \"#utility.yul\":6802:6805   */\n      0x01c0\n        /* \"#utility.yul\":6837:6883   */\n      tag_317\n        /* \"#utility.yul\":6864:6882   */\n      dup2\n      dup6\n      add\n        /* \"#utility.yul\":6837:6883   */\n      tag_260\n      jump\t// in\n    tag_317:\n        /* \"#utility.yul\":6821:6835   */\n      swap1\n      dup3\n      add\n        /* \"#utility.yul\":6814:6884   */\n      mstore\n        /* \"#utility.yul\":6825:6830   */\n      swap4\n        /* \"#utility.yul\":5561:6914   */\n      swap3\n      pop\n      pop\n      pop\n      jump\t// out\n        /* \"#utility.yul\":7267:7394   */\n    tag_264:\n        /* \"#utility.yul\":7328:7338   */\n      0x4e487b71\n        /* \"#utility.yul\":7323:7326   */\n      0xe0\n        /* \"#utility.yul\":7319:7339   */\n      shl\n        /* \"#utility.yul\":7316:7317   */\n      0x00\n        /* \"#utility.yul\":7309:7340   */\n      mstore\n        /* \"#utility.yul\":7359:7363   */\n      0x11\n        /* \"#utility.yul\":7356:7357   */\n      0x04\n        /* \"#utility.yul\":7349:7364   */\n      mstore\n        /* \"#utility.yul\":7383:7387   */\n      0x24\n        /* \"#utility.yul\":7380:7381   */\n      0x00\n        /* \"#utility.yul\":7373:7388   */\n      revert\n        /* \"#utility.yul\":7399:7567   */\n    tag_190:\n        /* \"#utility.yul\":7472:7481   */\n      dup1\n      dup3\n      mul\n        /* \"#utility.yul\":7503:7512   */\n      dup2\n      iszero\n        /* \"#utility.yul\":7520:7535   */\n      dup3\n      dup3\n      div\n        /* \"#utility.yul\":7514:7536   */\n      dup5\n      eq\n        /* \"#utility.yul\":7500:7537   */\n      or\n        /* \"#utility.yul\":7490:7561   */\n      tag_117\n      jumpi\n        /* \"#utility.yul\":7541:7559   */\n      tag_117\n      tag_264\n      jump\t// in\n        /* \"#utility.yul\":8621:8746   */\n    tag_252:\n        /* \"#utility.yul\":8686:8695   */\n      dup1\n      dup3\n      add\n        /* \"#utility.yul\":8707:8717   */\n      dup1\n      dup3\n      gt\n        /* \"#utility.yul\":8704:8740   */\n      iszero\n      tag_117\n      jumpi\n        /* \"#utility.yul\":8720:8738   */\n      tag_117\n      tag_264\n      jump\t// in\n\n    auxdata: 0xa2646970667358221220546e99daaa3ef01304164234a31f56b673382305097a48c4f2152ccaaa0babbc64736f6c63430008190033\n}\n",
				"bytecode": {
					"linkReferences": {},
					"object": "608060405234801561000f575f80fd5b5060405161122938038061122983398101604081905261002e91610179565b336040518060400160405280600d81526020016c1b1bdd1d195c9e551a58dad95d609a1b81525060405180604001604052806006815260200165151a58dad95d60d21b8152508160039081610083919061025e565b506004610090828261025e565b5050506001600160a01b0381166100c057604051631e4fbdf760e01b81525f600482015260240160405180910390fd5b6100c981610114565b5060068054911515600160a81b0260ff60a81b19931515600160a01b026001600160a81b03199093166001600160a01b0390951694909417919091179190911691909117905561031d565b600580546001600160a01b038381166001600160a01b0319831681179093556040519116919082907f8be0079c531659141344cd1fd0a4f28419497f9722a3daafe3b4186f6b6457e0905f90a35050565b80518015158114610174575f80fd5b919050565b5f805f6060848603121561018b575f80fd5b83516001600160a01b03811681146101a1575f80fd5b92506101af60208501610165565b91506101bd60408501610165565b90509250925092565b634e487b7160e01b5f52604160045260245ffd5b600181811c908216806101ee57607f821691505b60208210810361020c57634e487b7160e01b5f52602260045260245ffd5b50919050565b601f82111561025957805f5260205f20601f840160051c810160208510156102375750805b601f840160051c820191505b81811015610256575f8155600101610243565b50505b505050565b81516001600160401b03811115610277576102776101c6565b61028b8161028584546101da565b84610212565b602080601f8311600181146102be575f84156102a75750858301515b5f19600386901b1c1916600185901b178555610315565b5f85815260208120601f198616915b828110156102ec578886015182559484019460019091019084016102cd565b508582101561030957878501515f19600388901b60f8161c191681555b505060018460011b0185555b505050505050565b610eff8061032a5f395ff3fe608060405234801561000f575f80fd5b5060043610610132575f3560e01c8063715018a6116100b4578063b4309a9c11610079578063b4309a9c14610278578063c7d1ac381461028c578063c7ff23bb1461029f578063d9caed12146102b2578063dd62ed3e146102c5578063f2fde38b146102fd575f80fd5b8063715018a61461021d57806379cc6790146102255780638da5cb5b1461023857806395d89b411461025d578063a9059cbb14610265575f80fd5b806323b872dd116100fa57806323b872dd146101ae578063313ce567146101c157806342966c68146101cf5780636ebd327b146101e257806370a08231146101f5575f80fd5b8063012c911e1461013657806306e2a29a1461014b57806306fdde0314610174578063095ea7b31461018957806318160ddd1461019c575b5f80fd5b610149610144366004610b8a565b610310565b005b60065461015f90600160a81b900460ff1681565b60405190151581526020015b60405180910390f35b61017c610329565b60405161016b9190610bbf565b61015f610197366004610bf4565b6103b9565b6002545b60405190815260200161016b565b61015f6101bc366004610c1e565b6103d2565b6040515f815260200161016b565b6101496101dd366004610c4b565b6103f5565b6101496101f0366004610c62565b610402565b6101a0610203366004610ca7565b6001600160a01b03165f9081526020819052604090205490565b61014961041d565b610149610233366004610bf4565b610430565b6005546001600160a01b03165b6040516001600160a01b03909116815260200161016b565b61017c610449565b61015f610273366004610bf4565b610458565b60065461015f90600160a01b900460ff1681565b61014961029a366004610ca7565b610465565b600654610245906001600160a01b031681565b6101496102c0366004610c1e565b610471565b6101a06102d3366004610cc9565b6001600160a01b039182165f90815260016020908152604080832093909416825291909152205490565b61014961030b366004610ca7565b6104e9565b610319816103f5565b610324838383610528565b505050565b60606003805461033890610d00565b80601f016020809104026020016040519081016040528092919081815260200182805461036490610d00565b80156103af5780601f10610386576101008083540402835291602001916103af565b820191905f5260205f20905b81548152906001019060200180831161039257829003601f168201915b5050505050905090565b5f336103c68185856107b9565b60019150505b92915050565b5f336103df8582856107c6565b6103ea85858561083b565b506001949350505050565b6103ff3382610898565b50565b61040c8382610430565b610417848383610528565b50505050565b6104256108cc565b61042e5f6108f9565b565b61043b8233836107c6565b6104458282610898565b5050565b60606004805461033890610d00565b5f336103c681858561083b565b6001610445828261094a565b6104796108cc565b60405163a9059cbb60e01b81526001600160a01b0383811660048301526024820183905284169063a9059cbb906044016020604051808303815f875af11580156104c5573d5f803e3d5ffd5b505050506040513d601f19601f820116820180604052508101906104179190610d4c565b6104f16108cc565b6001600160a01b03811661051f57604051631e4fbdf760e01b81525f60048201526024015b60405180910390fd5b6103ff816108f9565b600654604051638f91cd1760e01b8152600481018590525f916001600160a01b031690638f91cd17906024016101e060405180830381865afa158015610570573d5f803e3d5ffd5b505050506040513d601f19601f820116820180604052508101906105949190610db4565b6101808101519091506001600160a01b03166106f657600654600160a01b900460ff1615156001146105fe5760405162461bcd60e51b8152602060048201526013602482015272627579207469636b6574206e6f20616c6c6f7760681b6044820152606401610516565b5f828261016001516106109190610e9f565b825160065460405163095ea7b360e01b81526001600160a01b03918216600482015260248101849052929350169063095ea7b3906044016020604051808303815f875af1158015610663573d5f803e3d5ffd5b505050506040513d601f19601f820116820180604052508101906106879190610d4c565b5060065460405163c5e7bb3360e01b8152600481018790526001600160a01b038681166024830152604482018690529091169063c5e7bb33906064015f604051808303815f87803b1580156106da575f80fd5b505af11580156106ec573d5f803e3d5ffd5b5050505050610417565b600654600160a81b900460ff16151560011461074b5760405162461bcd60e51b815260206004820152601460248201527373656e64207469636b6574206e6f20616c6c6f7760601b6044820152606401610516565b600654604051635c42e0c560e01b8152600481018690526001600160a01b0385811660248301526044820185905290911690635c42e0c5906064015f604051808303815f87803b15801561079d575f80fd5b505af11580156107af573d5f803e3d5ffd5b5050505050505050565b610324838383600161097e565b6001600160a01b038381165f908152600160209081526040808320938616835292905220545f198114610417578181101561082d57604051637dc7a0d960e11b81526001600160a01b03841660048201526024810182905260448101839052606401610516565b61041784848484035f61097e565b6001600160a01b03831661086457604051634b637e8f60e11b81525f6004820152602401610516565b6001600160a01b03821661088d5760405163ec442f0560e01b81525f6004820152602401610516565b610324838383610a50565b6001600160a01b0382166108c157604051634b637e8f60e11b81525f6004820152602401610516565b610445825f83610a50565b6005546001600160a01b0316331461042e5760405163118cdaa760e01b8152336004820152602401610516565b600580546001600160a01b038381166001600160a01b0319831681179093556040519116919082907f8be0079c531659141344cd1fd0a4f28419497f9722a3daafe3b4186f6b6457e0905f90a35050565b6001600160a01b0382166109735760405163ec442f0560e01b81525f6004820152602401610516565b6104455f8383610a50565b6001600160a01b0384166109a75760405163e602df0560e01b81525f6004820152602401610516565b6001600160a01b0383166109d057604051634a1406b160e11b81525f6004820152602401610516565b6001600160a01b038085165f908152600160209081526040808320938716835292905220829055801561041757826001600160a01b0316846001600160a01b03167f8c5be1e5ebec7d5bd14f71427d1e84f3dd0314c0f7b2291e5b200ac8c7c3b92584604051610a4291815260200190565b60405180910390a350505050565b6001600160a01b038316610a7a578060025f828254610a6f9190610eb6565b90915550610aea9050565b6001600160a01b0383165f9081526020819052604090205481811015610acc5760405163391434e360e21b81526001600160a01b03851660048201526024810182905260448101839052606401610516565b6001600160a01b0384165f9081526020819052604090209082900390555b6001600160a01b038216610b0657600280548290039055610b24565b6001600160a01b0382165f9081526020819052604090208054820190555b816001600160a01b0316836001600160a01b03167fddf252ad1be2c89b69c2b068fc378daa952ba7f163c4a11628f55a4df523b3ef83604051610b6991815260200190565b60405180910390a3505050565b6001600160a01b03811681146103ff575f80fd5b5f805f60608486031215610b9c575f80fd5b833592506020840135610bae81610b76565b929592945050506040919091013590565b602081525f82518060208401528060208501604085015e5f604082850101526040601f19601f83011684010191505092915050565b5f8060408385031215610c05575f80fd5b8235610c1081610b76565b946020939093013593505050565b5f805f60608486031215610c30575f80fd5b8335610c3b81610b76565b92506020840135610bae81610b76565b5f60208284031215610c5b575f80fd5b5035919050565b5f805f8060808587031215610c75575f80fd5b843593506020850135610c8781610b76565b92506040850135610c9781610b76565b9396929550929360600135925050565b5f60208284031215610cb7575f80fd5b8135610cc281610b76565b9392505050565b5f8060408385031215610cda575f80fd5b8235610ce581610b76565b91506020830135610cf581610b76565b809150509250929050565b600181811c90821680610d1457607f821691505b602082108103610d3257634e487b7160e01b5f52602260045260245ffd5b50919050565b80518015158114610d47575f80fd5b919050565b5f60208284031215610d5c575f80fd5b610cc282610d38565b6040516101e0810167ffffffffffffffff81118282101715610d9557634e487b7160e01b5f52604160045260245ffd5b60405290565b8051610d4781610b76565b805160048110610d47575f80fd5b5f6101e08284031215610dc5575f80fd5b610dcd610d65565b610dd683610d9b565b8152610de460208401610da6565b602082015260408301516040820152606083015160608201526080830151608082015260a083015160a082015260c083015160c082015260e083015160e0820152610100808401518183015250610120808401518183015250610140808401518183015250610160808401518183015250610180610e63818501610d9b565b908201526101a083810151908201526101c0610e80818501610d38565b908201529392505050565b634e487b7160e01b5f52601160045260245ffd5b80820281158282048414176103cc576103cc610e8b565b808201808211156103cc576103cc610e8b56fea2646970667358221220546e99daaa3ef01304164234a31f56b673382305097a48c4f2152ccaaa0babbc64736f6c63430008190033",
					"opcodes": "PUSH1 0x80 PUSH1 0x40 MSTORE CALLVALUE DUP1 ISZERO PUSH2 0xF JUMPI PUSH0 DUP1 REVERT JUMPDEST POP PUSH1 0x40 MLOAD PUSH2 0x1229 CODESIZE SUB DUP1 PUSH2 0x1229 DUP4 CODECOPY DUP2 ADD PUSH1 0x40 DUP2 SWAP1 MSTORE PUSH2 0x2E SWAP2 PUSH2 0x179 JUMP JUMPDEST CALLER PUSH1 0x40 MLOAD DUP1 PUSH1 0x40 ADD PUSH1 0x40 MSTORE DUP1 PUSH1 0xD DUP2 MSTORE PUSH1 0x20 ADD PUSH13 0x1B1BDD1D195C9E551A58DAD95D PUSH1 0x9A SHL DUP2 MSTORE POP PUSH1 0x40 MLOAD DUP1 PUSH1 0x40 ADD PUSH1 0x40 MSTORE DUP1 PUSH1 0x6 DUP2 MSTORE PUSH1 0x20 ADD PUSH6 0x151A58DAD95D PUSH1 0xD2 SHL DUP2 MSTORE POP DUP2 PUSH1 0x3 SWAP1 DUP2 PUSH2 0x83 SWAP2 SWAP1 PUSH2 0x25E JUMP JUMPDEST POP PUSH1 0x4 PUSH2 0x90 DUP3 DUP3 PUSH2 0x25E JUMP JUMPDEST POP POP POP PUSH1 0x1 PUSH1 0x1 PUSH1 0xA0 SHL SUB DUP2 AND PUSH2 0xC0 JUMPI PUSH1 0x40 MLOAD PUSH4 0x1E4FBDF7 PUSH1 0xE0 SHL DUP2 MSTORE PUSH0 PUSH1 0x4 DUP3 ADD MSTORE PUSH1 0x24 ADD PUSH1 0x40 MLOAD DUP1 SWAP2 SUB SWAP1 REVERT JUMPDEST PUSH2 0xC9 DUP2 PUSH2 0x114 JUMP JUMPDEST POP PUSH1 0x6 DUP1 SLOAD SWAP2 ISZERO ISZERO PUSH1 0x1 PUSH1 0xA8 SHL MUL PUSH1 0xFF PUSH1 0xA8 SHL NOT SWAP4 ISZERO ISZERO PUSH1 0x1 PUSH1 0xA0 SHL MUL PUSH1 0x1 PUSH1 0x1 PUSH1 0xA8 SHL SUB NOT SWAP1 SWAP4 AND PUSH1 0x1 PUSH1 0x1 PUSH1 0xA0 SHL SUB SWAP1 SWAP6 AND SWAP5 SWAP1 SWAP5 OR SWAP2 SWAP1 SWAP2 OR SWAP2 SWAP1 SWAP2 AND SWAP2 SWAP1 SWAP2 OR SWAP1 SSTORE PUSH2 0x31D JUMP JUMPDEST PUSH1 0x5 DUP1 SLOAD PUSH1 0x1 PUSH1 0x1 PUSH1 0xA0 SHL SUB DUP4 DUP2 AND PUSH1 0x1 PUSH1 0x1 PUSH1 0xA0 SHL SUB NOT DUP4 AND DUP2 OR SWAP1 SWAP4 SSTORE PUSH1 0x40 MLOAD SWAP2 AND SWAP2 SWAP1 DUP3 SWAP1 PUSH32 0x8BE0079C531659141344CD1FD0A4F28419497F9722A3DAAFE3B4186F6B6457E0 SWAP1 PUSH0 SWAP1 LOG3 POP POP JUMP JUMPDEST DUP1 MLOAD DUP1 ISZERO ISZERO DUP2 EQ PUSH2 0x174 JUMPI PUSH0 DUP1 REVERT JUMPDEST SWAP2 SWAP1 POP JUMP JUMPDEST PUSH0 DUP1 PUSH0 PUSH1 0x60 DUP5 DUP7 SUB SLT ISZERO PUSH2 0x18B JUMPI PUSH0 DUP1 REVERT JUMPDEST DUP4 MLOAD PUSH1 0x1 PUSH1 0x1 PUSH1 0xA0 SHL SUB DUP2 AND DUP2 EQ PUSH2 0x1A1 JUMPI PUSH0 DUP1 REVERT JUMPDEST SWAP3 POP PUSH2 0x1AF PUSH1 0x20 DUP6 ADD PUSH2 0x165 JUMP JUMPDEST SWAP2 POP PUSH2 0x1BD PUSH1 0x40 DUP6 ADD PUSH2 0x165 JUMP JUMPDEST SWAP1 POP SWAP3 POP SWAP3 POP SWAP3 JUMP JUMPDEST PUSH4 0x4E487B71 PUSH1 0xE0 SHL PUSH0 MSTORE PUSH1 0x41 PUSH1 0x4 MSTORE PUSH1 0x24 PUSH0 REVERT JUMPDEST PUSH1 0x1 DUP2 DUP2 SHR SWAP1 DUP3 AND DUP1 PUSH2 0x1EE JUMPI PUSH1 0x7F DUP3 AND SWAP2 POP JUMPDEST PUSH1 0x20 DUP3 LT DUP2 SUB PUSH2 0x20C JUMPI PUSH4 0x4E487B71 PUSH1 0xE0 SHL PUSH0 MSTORE PUSH1 0x22 PUSH1 0x4 MSTORE PUSH1 0x24 PUSH0 REVERT JUMPDEST POP SWAP2 SWAP1 POP JUMP JUMPDEST PUSH1 0x1F DUP3 GT ISZERO PUSH2 0x259 JUMPI DUP1 PUSH0 MSTORE PUSH1 0x20 PUSH0 KECCAK256 PUSH1 0x1F DUP5 ADD PUSH1 0x5 SHR DUP2 ADD PUSH1 0x20 DUP6 LT ISZERO PUSH2 0x237 JUMPI POP DUP1 JUMPDEST PUSH1 0x1F DUP5 ADD PUSH1 0x5 SHR DUP3 ADD SWAP2 POP JUMPDEST DUP2 DUP2 LT ISZERO PUSH2 0x256 JUMPI PUSH0 DUP2 SSTORE PUSH1 0x1 ADD PUSH2 0x243 JUMP JUMPDEST POP POP JUMPDEST POP POP POP JUMP JUMPDEST DUP2 MLOAD PUSH1 0x1 PUSH1 0x1 PUSH1 0x40 SHL SUB DUP2 GT ISZERO PUSH2 0x277 JUMPI PUSH2 0x277 PUSH2 0x1C6 JUMP JUMPDEST PUSH2 0x28B DUP2 PUSH2 0x285 DUP5 SLOAD PUSH2 0x1DA JUMP JUMPDEST DUP5 PUSH2 0x212 JUMP JUMPDEST PUSH1 0x20 DUP1 PUSH1 0x1F DUP4 GT PUSH1 0x1 DUP2 EQ PUSH2 0x2BE JUMPI PUSH0 DUP5 ISZERO PUSH2 0x2A7 JUMPI POP DUP6 DUP4 ADD MLOAD JUMPDEST PUSH0 NOT PUSH1 0x3 DUP7 SWAP1 SHL SHR NOT AND PUSH1 0x1 DUP6 SWAP1 SHL OR DUP6 SSTORE PUSH2 0x315 JUMP JUMPDEST PUSH0 DUP6 DUP2 MSTORE PUSH1 0x20 DUP2 KECCAK256 PUSH1 0x1F NOT DUP7 AND SWAP2 JUMPDEST DUP3 DUP2 LT ISZERO PUSH2 0x2EC JUMPI DUP9 DUP7 ADD MLOAD DUP3 SSTORE SWAP5 DUP5 ADD SWAP5 PUSH1 0x1 SWAP1 SWAP2 ADD SWAP1 DUP5 ADD PUSH2 0x2CD JUMP JUMPDEST POP DUP6 DUP3 LT ISZERO PUSH2 0x309 JUMPI DUP8 DUP6 ADD MLOAD PUSH0 NOT PUSH1 0x3 DUP9 SWAP1 SHL PUSH1 0xF8 AND SHR NOT AND DUP2 SSTORE JUMPDEST POP POP PUSH1 0x1 DUP5 PUSH1 0x1 SHL ADD DUP6 SSTORE JUMPDEST POP POP POP POP POP POP JUMP JUMPDEST PUSH2 0xEFF DUP1 PUSH2 0x32A PUSH0 CODECOPY PUSH0 RETURN INVALID PUSH1 0x80 PUSH1 0x40 MSTORE CALLVALUE DUP1 ISZERO PUSH2 0xF JUMPI PUSH0 DUP1 REVERT JUMPDEST POP PUSH1 0x4 CALLDATASIZE LT PUSH2 0x132 JUMPI PUSH0 CALLDATALOAD PUSH1 0xE0 SHR DUP1 PUSH4 0x715018A6 GT PUSH2 0xB4 JUMPI DUP1 PUSH4 0xB4309A9C GT PUSH2 0x79 JUMPI DUP1 PUSH4 0xB4309A9C EQ PUSH2 0x278 JUMPI DUP1 PUSH4 0xC7D1AC38 EQ PUSH2 0x28C JUMPI DUP1 PUSH4 0xC7FF23BB EQ PUSH2 0x29F JUMPI DUP1 PUSH4 0xD9CAED12 EQ PUSH2 0x2B2 JUMPI DUP1 PUSH4 0xDD62ED3E EQ PUSH2 0x2C5 JUMPI DUP1 PUSH4 0xF2FDE38B EQ PUSH2 0x2FD JUMPI PUSH0 DUP1 REVERT JUMPDEST DUP1 PUSH4 0x715018A6 EQ PUSH2 0x21D JUMPI DUP1 PUSH4 0x79CC6790 EQ PUSH2 0x225 JUMPI DUP1 PUSH4 0x8DA5CB5B EQ PUSH2 0x238 JUMPI DUP1 PUSH4 0x95D89B41 EQ PUSH2 0x25D JUMPI DUP1 PUSH4 0xA9059CBB EQ PUSH2 0x265 JUMPI PUSH0 DUP1 REVERT JUMPDEST DUP1 PUSH4 0x23B872DD GT PUSH2 0xFA JUMPI DUP1 PUSH4 0x23B872DD EQ PUSH2 0x1AE JUMPI DUP1 PUSH4 0x313CE567 EQ PUSH2 0x1C1 JUMPI DUP1 PUSH4 0x42966C68 EQ PUSH2 0x1CF JUMPI DUP1 PUSH4 0x6EBD327B EQ PUSH2 0x1E2 JUMPI DUP1 PUSH4 0x70A08231 EQ PUSH2 0x1F5 JUMPI PUSH0 DUP1 REVERT JUMPDEST DUP1 PUSH4 0x12C911E EQ PUSH2 0x136 JUMPI DUP1 PUSH4 0x6E2A29A EQ PUSH2 0x14B JUMPI DUP1 PUSH4 0x6FDDE03 EQ PUSH2 0x174 JUMPI DUP1 PUSH4 0x95EA7B3 EQ PUSH2 0x189 JUMPI DUP1 PUSH4 0x18160DDD EQ PUSH2 0x19C JUMPI JUMPDEST PUSH0 DUP1 REVERT JUMPDEST PUSH2 0x149 PUSH2 0x144 CALLDATASIZE PUSH1 0x4 PUSH2 0xB8A JUMP JUMPDEST PUSH2 0x310 JUMP JUMPDEST STOP JUMPDEST PUSH1 0x6 SLOAD PUSH2 0x15F SWAP1 PUSH1 0x1 PUSH1 0xA8 SHL SWAP1 DIV PUSH1 0xFF AND DUP2 JUMP JUMPDEST PUSH1 0x40 MLOAD SWAP1 ISZERO ISZERO DUP2 MSTORE PUSH1 0x20 ADD JUMPDEST PUSH1 0x40 MLOAD DUP1 SWAP2 SUB SWAP1 RETURN JUMPDEST PUSH2 0x17C PUSH2 0x329 JUMP JUMPDEST PUSH1 0x40 MLOAD PUSH2 0x16B SWAP2 SWAP1 PUSH2 0xBBF JUMP JUMPDEST PUSH2 0x15F PUSH2 0x197 CALLDATASIZE PUSH1 0x4 PUSH2 0xBF4 JUMP JUMPDEST PUSH2 0x3B9 JUMP JUMPDEST PUSH1 0x2 SLOAD JUMPDEST PUSH1 0x40 MLOAD SWAP1 DUP2 MSTORE PUSH1 0x20 ADD PUSH2 0x16B JUMP JUMPDEST PUSH2 0x15F PUSH2 0x1BC CALLDATASIZE PUSH1 0x4 PUSH2 0xC1E JUMP JUMPDEST PUSH2 0x3D2 JUMP JUMPDEST PUSH1 0x40 MLOAD PUSH0 DUP2 MSTORE PUSH1 0x20 ADD PUSH2 0x16B JUMP JUMPDEST PUSH2 0x149 PUSH2 0x1DD CALLDATASIZE PUSH1 0x4 PUSH2 0xC4B JUMP JUMPDEST PUSH2 0x3F5 JUMP JUMPDEST PUSH2 0x149 PUSH2 0x1F0 CALLDATASIZE PUSH1 0x4 PUSH2 0xC62 JUMP JUMPDEST PUSH2 0x402 JUMP JUMPDEST PUSH2 0x1A0 PUSH2 0x203 CALLDATASIZE PUSH1 0x4 PUSH2 0xCA7 JUMP JUMPDEST PUSH1 0x1 PUSH1 0x1 PUSH1 0xA0 SHL SUB AND PUSH0 SWAP1 DUP2 MSTORE PUSH1 0x20 DUP2 SWAP1 MSTORE PUSH1 0x40 SWAP1 KECCAK256 SLOAD SWAP1 JUMP JUMPDEST PUSH2 0x149 PUSH2 0x41D JUMP JUMPDEST PUSH2 0x149 PUSH2 0x233 CALLDATASIZE PUSH1 0x4 PUSH2 0xBF4 JUMP JUMPDEST PUSH2 0x430 JUMP JUMPDEST PUSH1 0x5 SLOAD PUSH1 0x1 PUSH1 0x1 PUSH1 0xA0 SHL SUB AND JUMPDEST PUSH1 0x40 MLOAD PUSH1 0x1 PUSH1 0x1 PUSH1 0xA0 SHL SUB SWAP1 SWAP2 AND DUP2 MSTORE PUSH1 0x20 ADD PUSH2 0x16B JUMP JUMPDEST PUSH2 0x17C PUSH2 0x449 JUMP JUMPDEST PUSH2 0x15F PUSH2 0x273 CALLDATASIZE PUSH1 0x4 PUSH2 0xBF4 JUMP JUMPDEST PUSH2 0x458 JUMP JUMPDEST PUSH1 0x6 SLOAD PUSH2 0x15F SWAP1 PUSH1 0x1 PUSH1 0xA0 SHL SWAP1 DIV PUSH1 0xFF AND DUP2 JUMP JUMPDEST PUSH2 0x149 PUSH2 0x29A CALLDATASIZE PUSH1 0x4 PUSH2 0xCA7 JUMP JUMPDEST PUSH2 0x465 JUMP JUMPDEST PUSH1 0x6 SLOAD PUSH2 0x245 SWAP1 PUSH1 0x1 PUSH1 0x1 PUSH1 0xA0 SHL SUB AND DUP2 JUMP JUMPDEST PUSH2 0x149 PUSH2 0x2C0 CALLDATASIZE PUSH1 0x4 PUSH2 0xC1E JUMP JUMPDEST PUSH2 0x471 JUMP JUMPDEST PUSH2 0x1A0 PUSH2 0x2D3 CALLDATASIZE PUSH1 0x4 PUSH2 0xCC9 JUMP JUMPDEST PUSH1 0x1 PUSH1 0x1 PUSH1 0xA0 SHL SUB SWAP2 DUP3 AND PUSH0 SWAP1 DUP2 MSTORE PUSH1 0x1 PUSH1 0x20 SWAP1 DUP2 MSTORE PUSH1 0x40 DUP1 DUP4 KECCAK256 SWAP4 SWAP1 SWAP5 AND DUP3 MSTORE SWAP2 SWAP1 SWAP2 MSTORE KECCAK256 SLOAD SWAP1 JUMP JUMPDEST PUSH2 0x149 PUSH2 0x30B CALLDATASIZE PUSH1 0x4 PUSH2 0xCA7 JUMP JUMPDEST PUSH2 0x4E9 JUMP JUMPDEST PUSH2 0x319 DUP2 PUSH2 0x3F5 JUMP JUMPDEST PUSH2 0x324 DUP4 DUP4 DUP4 PUSH2 0x528 JUMP JUMPDEST POP POP POP JUMP JUMPDEST PUSH1 0x60 PUSH1 0x3 DUP1 SLOAD PUSH2 0x338 SWAP1 PUSH2 0xD00 JUMP JUMPDEST DUP1 PUSH1 0x1F ADD PUSH1 0x20 DUP1 SWAP2 DIV MUL PUSH1 0x20 ADD PUSH1 0x40 MLOAD SWAP1 DUP2 ADD PUSH1 0x40 MSTORE DUP1 SWAP3 SWAP2 SWAP1 DUP2 DUP2 MSTORE PUSH1 0x20 ADD DUP3 DUP1 SLOAD PUSH2 0x364 SWAP1 PUSH2 0xD00 JUMP JUMPDEST DUP1 ISZERO PUSH2 0x3AF JUMPI DUP1 PUSH1 0x1F LT PUSH2 0x386 JUMPI PUSH2 0x100 DUP1 DUP4 SLOAD DIV MUL DUP4 MSTORE SWAP2 PUSH1 0x20 ADD SWAP2 PUSH2 0x3AF JUMP JUMPDEST DUP3 ADD SWAP2 SWAP1 PUSH0 MSTORE PUSH1 0x20 PUSH0 KECCAK256 SWAP1 JUMPDEST DUP2 SLOAD DUP2 MSTORE SWAP1 PUSH1 0x1 ADD SWAP1 PUSH1 0x20 ADD DUP1 DUP4 GT PUSH2 0x392 JUMPI DUP3 SWAP1 SUB PUSH1 0x1F AND DUP3 ADD SWAP2 JUMPDEST POP POP POP POP POP SWAP1 POP SWAP1 JUMP JUMPDEST PUSH0 CALLER PUSH2 0x3C6 DUP2 DUP6 DUP6 PUSH2 0x7B9 JUMP JUMPDEST PUSH1 0x1 SWAP2 POP POP JUMPDEST SWAP3 SWAP2 POP POP JUMP JUMPDEST PUSH0 CALLER PUSH2 0x3DF DUP6 DUP3 DUP6 PUSH2 0x7C6 JUMP JUMPDEST PUSH2 0x3EA DUP6 DUP6 DUP6 PUSH2 0x83B JUMP JUMPDEST POP PUSH1 0x1 SWAP5 SWAP4 POP POP POP POP JUMP JUMPDEST PUSH2 0x3FF CALLER DUP3 PUSH2 0x898 JUMP JUMPDEST POP JUMP JUMPDEST PUSH2 0x40C DUP4 DUP3 PUSH2 0x430 JUMP JUMPDEST PUSH2 0x417 DUP5 DUP4 DUP4 PUSH2 0x528 JUMP JUMPDEST POP POP POP POP JUMP JUMPDEST PUSH2 0x425 PUSH2 0x8CC JUMP JUMPDEST PUSH2 0x42E PUSH0 PUSH2 0x8F9 JUMP JUMPDEST JUMP JUMPDEST PUSH2 0x43B DUP3 CALLER DUP4 PUSH2 0x7C6 JUMP JUMPDEST PUSH2 0x445 DUP3 DUP3 PUSH2 0x898 JUMP JUMPDEST POP POP JUMP JUMPDEST PUSH1 0x60 PUSH1 0x4 DUP1 SLOAD PUSH2 0x338 SWAP1 PUSH2 0xD00 JUMP JUMPDEST PUSH0 CALLER PUSH2 0x3C6 DUP2 DUP6 DUP6 PUSH2 0x83B JUMP JUMPDEST PUSH1 0x1 PUSH2 0x445 DUP3 DUP3 PUSH2 0x94A JUMP JUMPDEST PUSH2 0x479 PUSH2 0x8CC JUMP JUMPDEST PUSH1 0x40 MLOAD PUSH4 0xA9059CBB PUSH1 0xE0 SHL DUP2 MSTORE PUSH1 0x1 PUSH1 0x1 PUSH1 0xA0 SHL SUB DUP4 DUP2 AND PUSH1 0x4 DUP4 ADD MSTORE PUSH1 0x24 DUP3 ADD DUP4 SWAP1 MSTORE DUP5 AND SWAP1 PUSH4 0xA9059CBB SWAP1 PUSH1 0x44 ADD PUSH1 0x20 PUSH1 0x40 MLOAD DUP1 DUP4 SUB DUP2 PUSH0 DUP8 GAS CALL ISZERO DUP1 ISZERO PUSH2 0x4C5 JUMPI RETURNDATASIZE PUSH0 DUP1 RETURNDATACOPY RETURNDATASIZE PUSH0 REVERT JUMPDEST POP POP POP POP PUSH1 0x40 MLOAD RETURNDATASIZE PUSH1 0x1F NOT PUSH1 0x1F DUP3 ADD AND DUP3 ADD DUP1 PUSH1 0x40 MSTORE POP DUP2 ADD SWAP1 PUSH2 0x417 SWAP2 SWAP1 PUSH2 0xD4C JUMP JUMPDEST PUSH2 0x4F1 PUSH2 0x8CC JUMP JUMPDEST PUSH1 0x1 PUSH1 0x1 PUSH1 0xA0 SHL SUB DUP2 AND PUSH2 0x51F JUMPI PUSH1 0x40 MLOAD PUSH4 0x1E4FBDF7 PUSH1 0xE0 SHL DUP2 MSTORE PUSH0 PUSH1 0x4 DUP3 ADD MSTORE PUSH1 0x24 ADD JUMPDEST PUSH1 0x40 MLOAD DUP1 SWAP2 SUB SWAP1 REVERT JUMPDEST PUSH2 0x3FF DUP2 PUSH2 0x8F9 JUMP JUMPDEST PUSH1 0x6 SLOAD PUSH1 0x40 MLOAD PUSH4 0x8F91CD17 PUSH1 0xE0 SHL DUP2 MSTORE PUSH1 0x4 DUP2 ADD DUP6 SWAP1 MSTORE PUSH0 SWAP2 PUSH1 0x1 PUSH1 0x1 PUSH1 0xA0 SHL SUB AND SWAP1 PUSH4 0x8F91CD17 SWAP1 PUSH1 0x24 ADD PUSH2 0x1E0 PUSH1 0x40 MLOAD DUP1 DUP4 SUB DUP2 DUP7 GAS STATICCALL ISZERO DUP1 ISZERO PUSH2 0x570 JUMPI RETURNDATASIZE PUSH0 DUP1 RETURNDATACOPY RETURNDATASIZE PUSH0 REVERT JUMPDEST POP POP POP POP PUSH1 0x40 MLOAD RETURNDATASIZE PUSH1 0x1F NOT PUSH1 0x1F DUP3 ADD AND DUP3 ADD DUP1 PUSH1 0x40 MSTORE POP DUP2 ADD SWAP1 PUSH2 0x594 SWAP2 SWAP1 PUSH2 0xDB4 JUMP JUMPDEST PUSH2 0x180 DUP2 ADD MLOAD SWAP1 SWAP2 POP PUSH1 0x1 PUSH1 0x1 PUSH1 0xA0 SHL SUB AND PUSH2 0x6F6 JUMPI PUSH1 0x6 SLOAD PUSH1 0x1 PUSH1 0xA0 SHL SWAP1 DIV PUSH1 0xFF AND ISZERO ISZERO PUSH1 0x1 EQ PUSH2 0x5FE JUMPI PUSH1 0x40 MLOAD PUSH3 0x461BCD PUSH1 0xE5 SHL DUP2 MSTORE PUSH1 0x20 PUSH1 0x4 DUP3 ADD MSTORE PUSH1 0x13 PUSH1 0x24 DUP3 ADD MSTORE PUSH19 0x627579207469636B6574206E6F20616C6C6F77 PUSH1 0x68 SHL PUSH1 0x44 DUP3 ADD MSTORE PUSH1 0x64 ADD PUSH2 0x516 JUMP JUMPDEST PUSH0 DUP3 DUP3 PUSH2 0x160 ADD MLOAD PUSH2 0x610 SWAP2 SWAP1 PUSH2 0xE9F JUMP JUMPDEST DUP3 MLOAD PUSH1 0x6 SLOAD PUSH1 0x40 MLOAD PUSH4 0x95EA7B3 PUSH1 0xE0 SHL DUP2 MSTORE PUSH1 0x1 PUSH1 0x1 PUSH1 0xA0 SHL SUB SWAP2 DUP3 AND PUSH1 0x4 DUP3 ADD MSTORE PUSH1 0x24 DUP2 ADD DUP5 SWAP1 MSTORE SWAP3 SWAP4 POP AND SWAP1 PUSH4 0x95EA7B3 SWAP1 PUSH1 0x44 ADD PUSH1 0x20 PUSH1 0x40 MLOAD DUP1 DUP4 SUB DUP2 PUSH0 DUP8 GAS CALL ISZERO DUP1 ISZERO PUSH2 0x663 JUMPI RETURNDATASIZE PUSH0 DUP1 RETURNDATACOPY RETURNDATASIZE PUSH0 REVERT JUMPDEST POP POP POP POP PUSH1 0x40 MLOAD RETURNDATASIZE PUSH1 0x1F NOT PUSH1 0x1F DUP3 ADD AND DUP3 ADD DUP1 PUSH1 0x40 MSTORE POP DUP2 ADD SWAP1 PUSH2 0x687 SWAP2 SWAP1 PUSH2 0xD4C JUMP JUMPDEST POP PUSH1 0x6 SLOAD PUSH1 0x40 MLOAD PUSH4 0xC5E7BB33 PUSH1 0xE0 SHL DUP2 MSTORE PUSH1 0x4 DUP2 ADD DUP8 SWAP1 MSTORE PUSH1 0x1 PUSH1 0x1 PUSH1 0xA0 SHL SUB DUP7 DUP2 AND PUSH1 0x24 DUP4 ADD MSTORE PUSH1 0x44 DUP3 ADD DUP7 SWAP1 MSTORE SWAP1 SWAP2 AND SWAP1 PUSH4 0xC5E7BB33 SWAP1 PUSH1 0x64 ADD PUSH0 PUSH1 0x40 MLOAD DUP1 DUP4 SUB DUP2 PUSH0 DUP8 DUP1 EXTCODESIZE ISZERO DUP1 ISZERO PUSH2 0x6DA JUMPI PUSH0 DUP1 REVERT JUMPDEST POP GAS CALL ISZERO DUP1 ISZERO PUSH2 0x6EC JUMPI RETURNDATASIZE PUSH0 DUP1 RETURNDATACOPY RETURNDATASIZE PUSH0 REVERT JUMPDEST POP POP POP POP POP PUSH2 0x417 JUMP JUMPDEST PUSH1 0x6 SLOAD PUSH1 0x1 PUSH1 0xA8 SHL SWAP1 DIV PUSH1 0xFF AND ISZERO ISZERO PUSH1 0x1 EQ PUSH2 0x74B JUMPI PUSH1 0x40 MLOAD PUSH3 0x461BCD PUSH1 0xE5 SHL DUP2 MSTORE PUSH1 0x20 PUSH1 0x4 DUP3 ADD MSTORE PUSH1 0x14 PUSH1 0x24 DUP3 ADD MSTORE PUSH20 0x73656E64207469636B6574206E6F20616C6C6F77 PUSH1 0x60 SHL PUSH1 0x44 DUP3 ADD MSTORE PUSH1 0x64 ADD PUSH2 0x516 JUMP JUMPDEST PUSH1 0x6 SLOAD PUSH1 0x40 MLOAD PUSH4 0x5C42E0C5 PUSH1 0xE0 SHL DUP2 MSTORE PUSH1 0x4 DUP2 ADD DUP7 SWAP1 MSTORE PUSH1 0x1 PUSH1 0x1 PUSH1 0xA0 SHL SUB DUP6 DUP2 AND PUSH1 0x24 DUP4 ADD MSTORE PUSH1 0x44 DUP3 ADD DUP6 SWAP1 MSTORE SWAP1 SWAP2 AND SWAP1 PUSH4 0x5C42E0C5 SWAP1 PUSH1 0x64 ADD PUSH0 PUSH1 0x40 MLOAD DUP1 DUP4 SUB DUP2 PUSH0 DUP8 DUP1 EXTCODESIZE ISZERO DUP1 ISZERO PUSH2 0x79D JUMPI PUSH0 DUP1 REVERT JUMPDEST POP GAS CALL ISZERO DUP1 ISZERO PUSH2 0x7AF JUMPI RETURNDATASIZE PUSH0 DUP1 RETURNDATACOPY RETURNDATASIZE PUSH0 REVERT JUMPDEST POP POP POP POP POP POP POP POP JUMP JUMPDEST PUSH2 0x324 DUP4 DUP4 DUP4 PUSH1 0x1 PUSH2 0x97E JUMP JUMPDEST PUSH1 0x1 PUSH1 0x1 PUSH1 0xA0 SHL SUB DUP4 DUP2 AND PUSH0 SWAP1 DUP2 MSTORE PUSH1 0x1 PUSH1 0x20 SWAP1 DUP2 MSTORE PUSH1 0x40 DUP1 DUP4 KECCAK256 SWAP4 DUP7 AND DUP4 MSTORE SWAP3 SWAP1 MSTORE KECCAK256 SLOAD PUSH0 NOT DUP2 EQ PUSH2 0x417 JUMPI DUP2 DUP2 LT ISZERO PUSH2 0x82D JUMPI PUSH1 0x40 MLOAD PUSH4 0x7DC7A0D9 PUSH1 0xE1 SHL DUP2 MSTORE PUSH1 0x1 PUSH1 0x1 PUSH1 0xA0 SHL SUB DUP5 AND PUSH1 0x4 DUP3 ADD MSTORE PUSH1 0x24 DUP2 ADD DUP3 SWAP1 MSTORE PUSH1 0x44 DUP2 ADD DUP4 SWAP1 MSTORE PUSH1 0x64 ADD PUSH2 0x516 JUMP JUMPDEST PUSH2 0x417 DUP5 DUP5 DUP5 DUP5 SUB PUSH0 PUSH2 0x97E JUMP JUMPDEST PUSH1 0x1 PUSH1 0x1 PUSH1 0xA0 SHL SUB DUP4 AND PUSH2 0x864 JUMPI PUSH1 0x40 MLOAD PUSH4 0x4B637E8F PUSH1 0xE1 SHL DUP2 MSTORE PUSH0 PUSH1 0x4 DUP3 ADD MSTORE PUSH1 0x24 ADD PUSH2 0x516 JUMP JUMPDEST PUSH1 0x1 PUSH1 0x1 PUSH1 0xA0 SHL SUB DUP3 AND PUSH2 0x88D JUMPI PUSH1 0x40 MLOAD PUSH4 0xEC442F05 PUSH1 0xE0 SHL DUP2 MSTORE PUSH0 PUSH1 0x4 DUP3 ADD MSTORE PUSH1 0x24 ADD PUSH2 0x516 JUMP JUMPDEST PUSH2 0x324 DUP4 DUP4 DUP4 PUSH2 0xA50 JUMP JUMPDEST PUSH1 0x1 PUSH1 0x1 PUSH1 0xA0 SHL SUB DUP3 AND PUSH2 0x8C1 JUMPI PUSH1 0x40 MLOAD PUSH4 0x4B637E8F PUSH1 0xE1 SHL DUP2 MSTORE PUSH0 PUSH1 0x4 DUP3 ADD MSTORE PUSH1 0x24 ADD PUSH2 0x516 JUMP JUMPDEST PUSH2 0x445 DUP3 PUSH0 DUP4 PUSH2 0xA50 JUMP JUMPDEST PUSH1 0x5 SLOAD PUSH1 0x1 PUSH1 0x1 PUSH1 0xA0 SHL SUB AND CALLER EQ PUSH2 0x42E JUMPI PUSH1 0x40 MLOAD PUSH4 0x118CDAA7 PUSH1 0xE0 SHL DUP2 MSTORE CALLER PUSH1 0x4 DUP3 ADD MSTORE PUSH1 0x24 ADD PUSH2 0x516 JUMP JUMPDEST PUSH1 0x5 DUP1 SLOAD PUSH1 0x1 PUSH1 0x1 PUSH1 0xA0 SHL SUB DUP4 DUP2 AND PUSH1 0x1 PUSH1 0x1 PUSH1 0xA0 SHL SUB NOT DUP4 AND DUP2 OR SWAP1 SWAP4 SSTORE PUSH1 0x40 MLOAD SWAP2 AND SWAP2 SWAP1 DUP3 SWAP1 PUSH32 0x8BE0079C531659141344CD1FD0A4F28419497F9722A3DAAFE3B4186F6B6457E0 SWAP1 PUSH0 SWAP1 LOG3 POP POP JUMP JUMPDEST PUSH1 0x1 PUSH1 0x1 PUSH1 0xA0 SHL SUB DUP3 AND PUSH2 0x973 JUMPI PUSH1 0x40 MLOAD PUSH4 0xEC442F05 PUSH1 0xE0 SHL DUP2 MSTORE PUSH0 PUSH1 0x4 DUP3 ADD MSTORE PUSH1 0x24 ADD PUSH2 0x516 JUMP JUMPDEST PUSH2 0x445 PUSH0 DUP4 DUP4 PUSH2 0xA50 JUMP JUMPDEST PUSH1 0x1 PUSH1 0x1 PUSH1 0xA0 SHL SUB DUP5 AND PUSH2 0x9A7 JUMPI PUSH1 0x40 MLOAD PUSH4 0xE602DF05 PUSH1 0xE0 SHL DUP2 MSTORE PUSH0 PUSH1 0x4 DUP3 ADD MSTORE PUSH1 0x24 ADD PUSH2 0x516 JUMP JUMPDEST PUSH1 0x1 PUSH1 0x1 PUSH1 0xA0 SHL SUB DUP4 AND PUSH2 0x9D0 JUMPI PUSH1 0x40 MLOAD PUSH4 0x4A1406B1 PUSH1 0xE1 SHL DUP2 MSTORE PUSH0 PUSH1 0x4 DUP3 ADD MSTORE PUSH1 0x24 ADD PUSH2 0x516 JUMP JUMPDEST PUSH1 0x1 PUSH1 0x1 PUSH1 0xA0 SHL SUB DUP1 DUP6 AND PUSH0 SWAP1 DUP2 MSTORE PUSH1 0x1 PUSH1 0x20 SWAP1 DUP2 MSTORE PUSH1 0x40 DUP1 DUP4 KECCAK256 SWAP4 DUP8 AND DUP4 MSTORE SWAP3 SWAP1 MSTORE KECCAK256 DUP3 SWAP1 SSTORE DUP1 ISZERO PUSH2 0x417 JUMPI DUP3 PUSH1 0x1 PUSH1 0x1 PUSH1 0xA0 SHL SUB AND DUP5 PUSH1 0x1 PUSH1 0x1 PUSH1 0xA0 SHL SUB AND PUSH32 0x8C5BE1E5EBEC7D5BD14F71427D1E84F3DD0314C0F7B2291E5B200AC8C7C3B925 DUP5 PUSH1 0x40 MLOAD PUSH2 0xA42 SWAP2 DUP2 MSTORE PUSH1 0x20 ADD SWAP1 JUMP JUMPDEST PUSH1 0x40 MLOAD DUP1 SWAP2 SUB SWAP1 LOG3 POP POP POP POP JUMP JUMPDEST PUSH1 0x1 PUSH1 0x1 PUSH1 0xA0 SHL SUB DUP4 AND PUSH2 0xA7A JUMPI DUP1 PUSH1 0x2 PUSH0 DUP3 DUP3 SLOAD PUSH2 0xA6F SWAP2 SWAP1 PUSH2 0xEB6 JUMP JUMPDEST SWAP1 SWAP2 SSTORE POP PUSH2 0xAEA SWAP1 POP JUMP JUMPDEST PUSH1 0x1 PUSH1 0x1 PUSH1 0xA0 SHL SUB DUP4 AND PUSH0 SWAP1 DUP2 MSTORE PUSH1 0x20 DUP2 SWAP1 MSTORE PUSH1 0x40 SWAP1 KECCAK256 SLOAD DUP2 DUP2 LT ISZERO PUSH2 0xACC JUMPI PUSH1 0x40 MLOAD PUSH4 0x391434E3 PUSH1 0xE2 SHL DUP2 MSTORE PUSH1 0x1 PUSH1 0x1 PUSH1 0xA0 SHL SUB DUP6 AND PUSH1 0x4 DUP3 ADD MSTORE PUSH1 0x24 DUP2 ADD DUP3 SWAP1 MSTORE PUSH1 0x44 DUP2 ADD DUP4 SWAP1 MSTORE PUSH1 0x64 ADD PUSH2 0x516 JUMP JUMPDEST PUSH1 0x1 PUSH1 0x1 PUSH1 0xA0 SHL SUB DUP5 AND PUSH0 SWAP1 DUP2 MSTORE PUSH1 0x20 DUP2 SWAP1 MSTORE PUSH1 0x40 SWAP1 KECCAK256 SWAP1 DUP3 SWAP1 SUB SWAP1 SSTORE JUMPDEST PUSH1 0x1 PUSH1 0x1 PUSH1 0xA0 SHL SUB DUP3 AND PUSH2 0xB06 JUMPI PUSH1 0x2 DUP1 SLOAD DUP3 SWAP1 SUB SWAP1 SSTORE PUSH2 0xB24 JUMP JUMPDEST PUSH1 0x1 PUSH1 0x1 PUSH1 0xA0 SHL SUB DUP3 AND PUSH0 SWAP1 DUP2 MSTORE PUSH1 0x20 DUP2 SWAP1 MSTORE PUSH1 0x40 SWAP1 KECCAK256 DUP1 SLOAD DUP3 ADD SWAP1 SSTORE JUMPDEST DUP2 PUSH1 0x1 PUSH1 0x1 PUSH1 0xA0 SHL SUB AND DUP4 PUSH1 0x1 PUSH1 0x1 PUSH1 0xA0 SHL SUB AND PUSH32 0xDDF252AD1BE2C89B69C2B068FC378DAA952BA7F163C4A11628F55A4DF523B3EF DUP4 PUSH1 0x40 MLOAD PUSH2 0xB69 SWAP2 DUP2 MSTORE PUSH1 0x20 ADD SWAP1 JUMP JUMPDEST PUSH1 0x40 MLOAD DUP1 SWAP2 SUB SWAP1 LOG3 POP POP POP JUMP JUMPDEST PUSH1 0x1 PUSH1 0x1 PUSH1 0xA0 SHL SUB DUP2 AND DUP2 EQ PUSH2 0x3FF JUMPI PUSH0 DUP1 REVERT JUMPDEST PUSH0 DUP1 PUSH0 PUSH1 0x60 DUP5 DUP7 SUB SLT ISZERO PUSH2 0xB9C JUMPI PUSH0 DUP1 REVERT JUMPDEST DUP4 CALLDATALOAD SWAP3 POP PUSH1 0x20 DUP5 ADD CALLDATALOAD PUSH2 0xBAE DUP2 PUSH2 0xB76 JUMP JUMPDEST SWAP3 SWAP6 SWAP3 SWAP5 POP POP POP PUSH1 0x40 SWAP2 SWAP1 SWAP2 ADD CALLDATALOAD SWAP1 JUMP JUMPDEST PUSH1 0x20 DUP2 MSTORE PUSH0 DUP3 MLOAD DUP1 PUSH1 0x20 DUP5 ADD MSTORE DUP1 PUSH1 0x20 DUP6 ADD PUSH1 0x40 DUP6 ADD MCOPY PUSH0 PUSH1 0x40 DUP3 DUP6 ADD ADD MSTORE PUSH1 0x40 PUSH1 0x1F NOT PUSH1 0x1F DUP4 ADD AND DUP5 ADD ADD SWAP2 POP POP SWAP3 SWAP2 POP POP JUMP JUMPDEST PUSH0 DUP1 PUSH1 0x40 DUP4 DUP6 SUB SLT ISZERO PUSH2 0xC05 JUMPI PUSH0 DUP1 REVERT JUMPDEST DUP3 CALLDATALOAD PUSH2 0xC10 DUP2 PUSH2 0xB76 JUMP JUMPDEST SWAP5 PUSH1 0x20 SWAP4 SWAP1 SWAP4 ADD CALLDATALOAD SWAP4 POP POP POP JUMP JUMPDEST PUSH0 DUP1 PUSH0 PUSH1 0x60 DUP5 DUP7 SUB SLT ISZERO PUSH2 0xC30 JUMPI PUSH0 DUP1 REVERT JUMPDEST DUP4 CALLDATALOAD PUSH2 0xC3B DUP2 PUSH2 0xB76 JUMP JUMPDEST SWAP3 POP PUSH1 0x20 DUP5 ADD CALLDATALOAD PUSH2 0xBAE DUP2 PUSH2 0xB76 JUMP JUMPDEST PUSH0 PUSH1 0x20 DUP3 DUP5 SUB SLT ISZERO PUSH2 0xC5B JUMPI PUSH0 DUP1 REVERT JUMPDEST POP CALLDATALOAD SWAP2 SWAP1 POP JUMP JUMPDEST PUSH0 DUP1 PUSH0 DUP1 PUSH1 0x80 DUP6 DUP8 SUB SLT ISZERO PUSH2 0xC75 JUMPI PUSH0 DUP1 REVERT JUMPDEST DUP5 CALLDATALOAD SWAP4 POP PUSH1 0x20 DUP6 ADD CALLDATALOAD PUSH2 0xC87 DUP2 PUSH2 0xB76 JUMP JUMPDEST SWAP3 POP PUSH1 0x40 DUP6 ADD CALLDATALOAD PUSH2 0xC97 DUP2 PUSH2 0xB76 JUMP JUMPDEST SWAP4 SWAP7 SWAP3 SWAP6 POP SWAP3 SWAP4 PUSH1 0x60 ADD CALLDATALOAD SWAP3 POP POP JUMP JUMPDEST PUSH0 PUSH1 0x20 DUP3 DUP5 SUB SLT ISZERO PUSH2 0xCB7 JUMPI PUSH0 DUP1 REVERT JUMPDEST DUP2 CALLDATALOAD PUSH2 0xCC2 DUP2 PUSH2 0xB76 JUMP JUMPDEST SWAP4 SWAP3 POP POP POP JUMP JUMPDEST PUSH0 DUP1 PUSH1 0x40 DUP4 DUP6 SUB SLT ISZERO PUSH2 0xCDA JUMPI PUSH0 DUP1 REVERT JUMPDEST DUP3 CALLDATALOAD PUSH2 0xCE5 DUP2 PUSH2 0xB76 JUMP JUMPDEST SWAP2 POP PUSH1 0x20 DUP4 ADD CALLDATALOAD PUSH2 0xCF5 DUP2 PUSH2 0xB76 JUMP JUMPDEST DUP1 SWAP2 POP POP SWAP3 POP SWAP3 SWAP1 POP JUMP JUMPDEST PUSH1 0x1 DUP2 DUP2 SHR SWAP1 DUP3 AND DUP1 PUSH2 0xD14 JUMPI PUSH1 0x7F DUP3 AND SWAP2 POP JUMPDEST PUSH1 0x20 DUP3 LT DUP2 SUB PUSH2 0xD32 JUMPI PUSH4 0x4E487B71 PUSH1 0xE0 SHL PUSH0 MSTORE PUSH1 0x22 PUSH1 0x4 MSTORE PUSH1 0x24 PUSH0 REVERT JUMPDEST POP SWAP2 SWAP1 POP JUMP JUMPDEST DUP1 MLOAD DUP1 ISZERO ISZERO DUP2 EQ PUSH2 0xD47 JUMPI PUSH0 DUP1 REVERT JUMPDEST SWAP2 SWAP1 POP JUMP JUMPDEST PUSH0 PUSH1 0x20 DUP3 DUP5 SUB SLT ISZERO PUSH2 0xD5C JUMPI PUSH0 DUP1 REVERT JUMPDEST PUSH2 0xCC2 DUP3 PUSH2 0xD38 JUMP JUMPDEST PUSH1 0x40 MLOAD PUSH2 0x1E0 DUP2 ADD PUSH8 0xFFFFFFFFFFFFFFFF DUP2 GT DUP3 DUP3 LT OR ISZERO PUSH2 0xD95 JUMPI PUSH4 0x4E487B71 PUSH1 0xE0 SHL PUSH0 MSTORE PUSH1 0x41 PUSH1 0x4 MSTORE PUSH1 0x24 PUSH0 REVERT JUMPDEST PUSH1 0x40 MSTORE SWAP1 JUMP JUMPDEST DUP1 MLOAD PUSH2 0xD47 DUP2 PUSH2 0xB76 JUMP JUMPDEST DUP1 MLOAD PUSH1 0x4 DUP2 LT PUSH2 0xD47 JUMPI PUSH0 DUP1 REVERT JUMPDEST PUSH0 PUSH2 0x1E0 DUP3 DUP5 SUB SLT ISZERO PUSH2 0xDC5 JUMPI PUSH0 DUP1 REVERT JUMPDEST PUSH2 0xDCD PUSH2 0xD65 JUMP JUMPDEST PUSH2 0xDD6 DUP4 PUSH2 0xD9B JUMP JUMPDEST DUP2 MSTORE PUSH2 0xDE4 PUSH1 0x20 DUP5 ADD PUSH2 0xDA6 JUMP JUMPDEST PUSH1 0x20 DUP3 ADD MSTORE PUSH1 0x40 DUP4 ADD MLOAD PUSH1 0x40 DUP3 ADD MSTORE PUSH1 0x60 DUP4 ADD MLOAD PUSH1 0x60 DUP3 ADD MSTORE PUSH1 0x80 DUP4 ADD MLOAD PUSH1 0x80 DUP3 ADD MSTORE PUSH1 0xA0 DUP4 ADD MLOAD PUSH1 0xA0 DUP3 ADD MSTORE PUSH1 0xC0 DUP4 ADD MLOAD PUSH1 0xC0 DUP3 ADD MSTORE PUSH1 0xE0 DUP4 ADD MLOAD PUSH1 0xE0 DUP3 ADD MSTORE PUSH2 0x100 DUP1 DUP5 ADD MLOAD DUP2 DUP4 ADD MSTORE POP PUSH2 0x120 DUP1 DUP5 ADD MLOAD DUP2 DUP4 ADD MSTORE POP PUSH2 0x140 DUP1 DUP5 ADD MLOAD DUP2 DUP4 ADD MSTORE POP PUSH2 0x160 DUP1 DUP5 ADD MLOAD DUP2 DUP4 ADD MSTORE POP PUSH2 0x180 PUSH2 0xE63 DUP2 DUP6 ADD PUSH2 0xD9B JUMP JUMPDEST SWAP1 DUP3 ADD MSTORE PUSH2 0x1A0 DUP4 DUP2 ADD MLOAD SWAP1 DUP3 ADD MSTORE PUSH2 0x1C0 PUSH2 0xE80 DUP2 DUP6 ADD PUSH2 0xD38 JUMP JUMPDEST SWAP1 DUP3 ADD MSTORE SWAP4 SWAP3 POP POP POP JUMP JUMPDEST PUSH4 0x4E487B71 PUSH1 0xE0 SHL PUSH0 MSTORE PUSH1 0x11 PUSH1 0x4 MSTORE PUSH1 0x24 PUSH0 REVERT JUMPDEST DUP1 DUP3 MUL DUP2 ISZERO DUP3 DUP3 DIV DUP5 EQ OR PUSH2 0x3CC JUMPI PUSH2 0x3CC PUSH2 0xE8B JUMP JUMPDEST DUP1 DUP3 ADD DUP1 DUP3 GT ISZERO PUSH2 0x3CC JUMPI PUSH2 0x3CC PUSH2 0xE8B JUMP INVALID LOG2 PUSH5 0x6970667358 0x22 SLT KECCAK256 SLOAD PUSH15 0x99DAAA3EF01304164234A31F56B673 CODESIZE 0x23 SDIV MULMOD PUSH27 0x48C4F2152CCAAA0BABBC64736F6C63430008190033000000000000 "
				},
				"gasEstimates": {
					"creation": {
						"codeDepositCost": "767800",
						"executionCost": "infinite",
						"totalCost": "infinite"
					},
					"external": {
						"allowBuyTicket()": "2337",
						"allowSendTicket()": "2361",
						"allowance(address,address)": "infinite",
						"approve(address,uint256)": "24785",
						"balanceOf(address)": "2642",
						"burn(uint256)": "50983",
						"burnFrom(address,uint256)": "infinite",
						"decimals()": "220",
						"getTicket(uint256,address,uint256)": "infinite",
						"getTicketFrom(uint256,address,address,uint256)": "infinite",
						"name()": "infinite",
						"owner()": "2386",
						"receiveToken(address)": "infinite",
						"redEnvelopeAddr()": "2402",
						"renounceOwnership()": "infinite",
						"symbol()": "infinite",
						"totalSupply()": "2392",
						"transfer(address,uint256)": "51310",
						"transferFrom(address,address,uint256)": "infinite",
						"transferOwnership(address)": "infinite",
						"withdraw(address,address,uint256)": "infinite"
					},
					"internal": {
						"_getTicket(uint256,address,uint256)": "infinite",
						"runTask()": "infinite"
					}
				},
				"methodIdentifiers": {
					"allowBuyTicket()": "b4309a9c",
					"allowSendTicket()": "06e2a29a",
					"allowance(address,address)": "dd62ed3e",
					"approve(address,uint256)": "095ea7b3",
					"balanceOf(address)": "70a08231",
					"burn(uint256)": "42966c68",
					"burnFrom(address,uint256)": "79cc6790",
					"decimals()": "313ce567",
					"getTicket(uint256,address,uint256)": "012c911e",
					"getTicketFrom(uint256,address,address,uint256)": "6ebd327b",
					"name()": "06fdde03",
					"owner()": "8da5cb5b",
					"receiveToken(address)": "c7d1ac38",
					"redEnvelopeAddr()": "c7ff23bb",
					"renounceOwnership()": "715018a6",
					"symbol()": "95d89b41",
					"totalSupply()": "18160ddd",
					"transfer(address,uint256)": "a9059cbb",
					"transferFrom(address,address,uint256)": "23b872dd",
					"transferOwnership(address)": "f2fde38b",
					"withdraw(address,address,uint256)": "d9caed12"
				}
			},
			"storageLayout": {
				"storage": [
					{
						"astId": 307,
						"contract": "contracts/TaskControl.sol:TaskControl",
						"label": "_balances",
						"offset": 0,
						"slot": "0",
						"type": "t_mapping(t_address,t_uint256)"
					},
					{
						"astId": 313,
						"contract": "contracts/TaskControl.sol:TaskControl",
						"label": "_allowances",
						"offset": 0,
						"slot": "1",
						"type": "t_mapping(t_address,t_mapping(t_address,t_uint256))"
					},
					{
						"astId": 315,
						"contract": "contracts/TaskControl.sol:TaskControl",
						"label": "_totalSupply",
						"offset": 0,
						"slot": "2",
						"type": "t_uint256"
					},
					{
						"astId": 317,
						"contract": "contracts/TaskControl.sol:TaskControl",
						"label": "_name",
						"offset": 0,
						"slot": "3",
						"type": "t_string_storage"
					},
					{
						"astId": 319,
						"contract": "contracts/TaskControl.sol:TaskControl",
						"label": "_symbol",
						"offset": 0,
						"slot": "4",
						"type": "t_string_storage"
					},
					{
						"astId": 8,
						"contract": "contracts/TaskControl.sol:TaskControl",
						"label": "_owner",
						"offset": 0,
						"slot": "5",
						"type": "t_address"
					},
					{
						"astId": 993,
						"contract": "contracts/TaskControl.sol:TaskControl",
						"label": "redEnvelopeAddr",
						"offset": 0,
						"slot": "6",
						"type": "t_address"
					},
					{
						"astId": 995,
						"contract": "contracts/TaskControl.sol:TaskControl",
						"label": "allowBuyTicket",
						"offset": 20,
						"slot": "6",
						"type": "t_bool"
					},
					{
						"astId": 997,
						"contract": "contracts/TaskControl.sol:TaskControl",
						"label": "allowSendTicket",
						"offset": 21,
						"slot": "6",
						"type": "t_bool"
					}
				],
				"types": {
					"t_address": {
						"encoding": "inplace",
						"label": "address",
						"numberOfBytes": "20"
					},
					"t_bool": {
						"encoding": "inplace",
						"label": "bool",
						"numberOfBytes": "1"
					},
					"t_mapping(t_address,t_mapping(t_address,t_uint256))": {
						"encoding": "mapping",
						"key": "t_address",
						"label": "mapping(address => mapping(address => uint256))",
						"numberOfBytes": "32",
						"value": "t_mapping(t_address,t_uint256)"
					},
					"t_mapping(t_address,t_uint256)": {
						"encoding": "mapping",
						"key": "t_address",
						"label": "mapping(address => uint256)",
						"numberOfBytes": "32",
						"value": "t_uint256"
					},
					"t_string_storage": {
						"encoding": "bytes",
						"label": "string",
						"numberOfBytes": "32"
					},
					"t_uint256": {
						"encoding": "inplace",
						"label": "uint256",
						"numberOfBytes": "32"
					}
				}
			},
			"userdoc": {
				"kind": "user",
				"methods": {},
				"version": 1
			}
		}
	}
}