{
	"contracts/LuckyRedEnvelopeV2.sol": {
		"LuckyRedEnvelopeV2": {
			"abi": [
				{
					"inputs": [
						{
							"internalType": "address",
							"name": "_operatorAddress",
							"type": "address"
						},
						{
							"internalType": "address",
							"name": "_defaultTicketToken",
							"type": "address"
						},
						{
							"internalType": "uint256",
							"name": "_defaultTicketPirce",
							"type": "uint256"
						}
					],
					"stateMutability": "nonpayable",
					"type": "constructor"
				},
				{
					"inputs": [
						{
							"internalType": "address",
							"name": "target",
							"type": "address"
						}
					],
					"name": "AddressEmptyCode",
					"type": "error"
				},
				{
					"inputs": [
						{
							"internalType": "address",
							"name": "account",
							"type": "address"
						}
					],
					"name": "AddressInsufficientBalance",
					"type": "error"
				},
				{
					"inputs": [],
					"name": "FailedInnerCall",
					"type": "error"
				},
				{
					"inputs": [
						{
							"internalType": "address",
							"name": "owner",
							"type": "address"
						}
					],
					"name": "OwnableInvalidOwner",
					"type": "error"
				},
				{
					"inputs": [
						{
							"internalType": "address",
							"name": "account",
							"type": "address"
						}
					],
					"name": "OwnableUnauthorizedAccount",
					"type": "error"
				},
				{
					"inputs": [],
					"name": "ReentrancyGuardReentrantCall",
					"type": "error"
				},
				{
					"inputs": [
						{
							"internalType": "address",
							"name": "token",
							"type": "address"
						}
					],
					"name": "SafeERC20FailedOperation",
					"type": "error"
				},
				{
					"anonymous": false,
					"inputs": [
						{
							"indexed": true,
							"internalType": "uint256",
							"name": "id",
							"type": "uint256"
						},
						{
							"indexed": true,
							"internalType": "address",
							"name": "winner",
							"type": "address"
						},
						{
							"indexed": false,
							"internalType": "uint256",
							"name": "totalAmount",
							"type": "uint256"
						},
						{
							"indexed": false,
							"internalType": "bool",
							"name": "autoClaim",
							"type": "bool"
						}
					],
					"name": "ClaimPrize",
					"type": "event"
				},
				{
					"anonymous": false,
					"inputs": [
						{
							"indexed": false,
							"internalType": "bool",
							"name": "defaultAutoClaim",
							"type": "bool"
						}
					],
					"name": "DefaultAutoClaimChange",
					"type": "event"
				},
				{
					"anonymous": false,
					"inputs": [
						{
							"indexed": false,
							"internalType": "address",
							"name": "defaultTicketToken",
							"type": "address"
						},
						{
							"indexed": false,
							"internalType": "uint256",
							"name": "defaultTicketPirce",
							"type": "uint256"
						}
					],
					"name": "DefaultTokenChange",
					"type": "event"
				},
				{
					"anonymous": false,
					"inputs": [
						{
							"indexed": false,
							"internalType": "address",
							"name": "operatorAddress",
							"type": "address"
						},
						{
							"indexed": false,
							"internalType": "bool",
							"name": "opt",
							"type": "bool"
						}
					],
					"name": "OperatorAddress",
					"type": "event"
				},
				{
					"anonymous": false,
					"inputs": [
						{
							"indexed": true,
							"internalType": "address",
							"name": "previousOwner",
							"type": "address"
						},
						{
							"indexed": true,
							"internalType": "address",
							"name": "newOwner",
							"type": "address"
						}
					],
					"name": "OwnershipTransferred",
					"type": "event"
				},
				{
					"anonymous": false,
					"inputs": [
						{
							"indexed": true,
							"internalType": "uint256",
							"name": "id",
							"type": "uint256"
						},
						{
							"indexed": true,
							"internalType": "address",
							"name": "winner",
							"type": "address"
						},
						{
							"indexed": true,
							"internalType": "uint256",
							"name": "index",
							"type": "uint256"
						},
						{
							"indexed": false,
							"internalType": "uint256",
							"name": "amount",
							"type": "uint256"
						},
						{
							"indexed": false,
							"internalType": "bool",
							"name": "autoClaim",
							"type": "bool"
						}
					],
					"name": "PrizeDrawn",
					"type": "event"
				},
				{
					"anonymous": false,
					"inputs": [
						{
							"indexed": true,
							"internalType": "uint256",
							"name": "id",
							"type": "uint256"
						},
						{
							"indexed": false,
							"internalType": "uint256",
							"name": "endTime",
							"type": "uint256"
						}
					],
					"name": "RedEnvelopeClaimable",
					"type": "event"
				},
				{
					"anonymous": false,
					"inputs": [
						{
							"indexed": true,
							"internalType": "uint256",
							"name": "id",
							"type": "uint256"
						},
						{
							"indexed": false,
							"internalType": "uint256",
							"name": "endTime",
							"type": "uint256"
						},
						{
							"indexed": false,
							"internalType": "uint256",
							"name": "buyTickets",
							"type": "uint256"
						},
						{
							"indexed": false,
							"internalType": "uint256",
							"name": "getTickets",
							"type": "uint256"
						},
						{
							"indexed": false,
							"internalType": "uint256",
							"name": "injectTickets",
							"type": "uint256"
						}
					],
					"name": "RedEnvelopeClosed",
					"type": "event"
				},
				{
					"anonymous": false,
					"inputs": [
						{
							"indexed": true,
							"internalType": "uint256",
							"name": "id",
							"type": "uint256"
						},
						{
							"indexed": false,
							"internalType": "uint256",
							"name": "endTime",
							"type": "uint256"
						},
						{
							"indexed": false,
							"internalType": "uint256",
							"name": "maxTickets",
							"type": "uint256"
						},
						{
							"indexed": false,
							"internalType": "uint256",
							"name": "maxPrizeNum",
							"type": "uint256"
						},
						{
							"indexed": false,
							"internalType": "uint256",
							"name": "ticketPirce",
							"type": "uint256"
						},
						{
							"indexed": false,
							"internalType": "address",
							"name": "ticketToken",
							"type": "address"
						},
						{
							"indexed": false,
							"internalType": "address",
							"name": "getTicketAddr",
							"type": "address"
						},
						{
							"indexed": false,
							"internalType": "bool",
							"name": "autoClaim",
							"type": "bool"
						}
					],
					"name": "RedEnvelopeCreated",
					"type": "event"
				},
				{
					"anonymous": false,
					"inputs": [
						{
							"indexed": true,
							"internalType": "uint256",
							"name": "id",
							"type": "uint256"
						},
						{
							"indexed": true,
							"internalType": "address",
							"name": "sender",
							"type": "address"
						},
						{
							"indexed": true,
							"internalType": "address",
							"name": "receiveAddress",
							"type": "address"
						},
						{
							"indexed": false,
							"internalType": "uint256",
							"name": "ticketNumbers",
							"type": "uint256"
						}
					],
					"name": "TicketsGet",
					"type": "event"
				},
				{
					"anonymous": false,
					"inputs": [
						{
							"indexed": true,
							"internalType": "uint256",
							"name": "id",
							"type": "uint256"
						},
						{
							"indexed": true,
							"internalType": "address",
							"name": "sender",
							"type": "address"
						},
						{
							"indexed": false,
							"internalType": "uint256",
							"name": "ticketNumbers",
							"type": "uint256"
						}
					],
					"name": "TicketsInject",
					"type": "event"
				},
				{
					"anonymous": false,
					"inputs": [
						{
							"indexed": true,
							"internalType": "uint256",
							"name": "id",
							"type": "uint256"
						},
						{
							"indexed": true,
							"internalType": "address",
							"name": "sender",
							"type": "address"
						},
						{
							"indexed": true,
							"internalType": "address",
							"name": "receiveAddress",
							"type": "address"
						},
						{
							"indexed": false,
							"internalType": "uint256",
							"name": "ticketNumbers",
							"type": "uint256"
						}
					],
					"name": "TicketsPurchase",
					"type": "event"
				},
				{
					"inputs": [
						{
							"internalType": "uint256",
							"name": "_id",
							"type": "uint256"
						},
						{
							"internalType": "address",
							"name": "_receiveAddress",
							"type": "address"
						},
						{
							"internalType": "uint256",
							"name": "_ticketNumbers",
							"type": "uint256"
						}
					],
					"name": "buyTickets",
					"outputs": [],
					"stateMutability": "nonpayable",
					"type": "function"
				},
				{
					"inputs": [
						{
							"internalType": "uint256",
							"name": "_id",
							"type": "uint256"
						}
					],
					"name": "claimPrize",
					"outputs": [],
					"stateMutability": "nonpayable",
					"type": "function"
				},
				{
					"inputs": [
						{
							"internalType": "uint256",
							"name": "_endTime",
							"type": "uint256"
						},
						{
							"internalType": "uint256",
							"name": "_maxTickets",
							"type": "uint256"
						},
						{
							"internalType": "uint256",
							"name": "_maxPrizeNum",
							"type": "uint256"
						},
						{
							"internalType": "uint256",
							"name": "_secret",
							"type": "uint256"
						}
					],
					"name": "createRedEnvelope",
					"outputs": [],
					"stateMutability": "nonpayable",
					"type": "function"
				},
				{
					"inputs": [
						{
							"internalType": "address",
							"name": "_tokenAddress",
							"type": "address"
						},
						{
							"internalType": "uint256",
							"name": "_ticketPirce",
							"type": "uint256"
						},
						{
							"internalType": "uint256",
							"name": "_endTime",
							"type": "uint256"
						},
						{
							"internalType": "uint256",
							"name": "_maxTickets",
							"type": "uint256"
						},
						{
							"internalType": "uint256",
							"name": "_maxPrizeNum",
							"type": "uint256"
						},
						{
							"internalType": "address",
							"name": "_injectAddress",
							"type": "address"
						},
						{
							"internalType": "uint256",
							"name": "_injectTicketNum",
							"type": "uint256"
						},
						{
							"internalType": "address",
							"name": "_getTicketAddr",
							"type": "address"
						},
						{
							"internalType": "uint256",
							"name": "_secret",
							"type": "uint256"
						},
						{
							"internalType": "bool",
							"name": "_autoClaim",
							"type": "bool"
						}
					],
					"name": "createRedEnvelopeDetail",
					"outputs": [],
					"stateMutability": "nonpayable",
					"type": "function"
				},
				{
					"inputs": [],
					"name": "currentId",
					"outputs": [
						{
							"internalType": "uint256",
							"name": "",
							"type": "uint256"
						}
					],
					"stateMutability": "view",
					"type": "function"
				},
				{
					"inputs": [],
					"name": "defaultAutoClaim",
					"outputs": [
						{
							"internalType": "bool",
							"name": "",
							"type": "bool"
						}
					],
					"stateMutability": "view",
					"type": "function"
				},
				{
					"inputs": [],
					"name": "defaultTicketPirce",
					"outputs": [
						{
							"internalType": "uint256",
							"name": "",
							"type": "uint256"
						}
					],
					"stateMutability": "view",
					"type": "function"
				},
				{
					"inputs": [],
					"name": "defaultTicketToken",
					"outputs": [
						{
							"internalType": "address",
							"name": "",
							"type": "address"
						}
					],
					"stateMutability": "view",
					"type": "function"
				},
				{
					"inputs": [
						{
							"internalType": "uint256",
							"name": "_id",
							"type": "uint256"
						},
						{
							"internalType": "uint256",
							"name": "_nonce",
							"type": "uint256"
						}
					],
					"name": "drawPrize",
					"outputs": [],
					"stateMutability": "nonpayable",
					"type": "function"
				},
				{
					"inputs": [
						{
							"internalType": "uint256",
							"name": "_id",
							"type": "uint256"
						}
					],
					"name": "endRedEnvelope",
					"outputs": [],
					"stateMutability": "nonpayable",
					"type": "function"
				},
				{
					"inputs": [
						{
							"internalType": "uint256",
							"name": "_id",
							"type": "uint256"
						},
						{
							"internalType": "address",
							"name": "_receiveAddress",
							"type": "address"
						},
						{
							"internalType": "uint256",
							"name": "_ticketNumbers",
							"type": "uint256"
						}
					],
					"name": "getTickets",
					"outputs": [],
					"stateMutability": "nonpayable",
					"type": "function"
				},
				{
					"inputs": [
						{
							"internalType": "uint256",
							"name": "_id",
							"type": "uint256"
						},
						{
							"internalType": "uint256",
							"name": "_ticketNumbers",
							"type": "uint256"
						}
					],
					"name": "injectTickets",
					"outputs": [],
					"stateMutability": "nonpayable",
					"type": "function"
				},
				{
					"inputs": [
						{
							"internalType": "address",
							"name": "",
							"type": "address"
						}
					],
					"name": "operatorAddressList",
					"outputs": [
						{
							"internalType": "bool",
							"name": "",
							"type": "bool"
						}
					],
					"stateMutability": "view",
					"type": "function"
				},
				{
					"inputs": [],
					"name": "owner",
					"outputs": [
						{
							"internalType": "address",
							"name": "",
							"type": "address"
						}
					],
					"stateMutability": "view",
					"type": "function"
				},
				{
					"inputs": [],
					"name": "renounceOwnership",
					"outputs": [],
					"stateMutability": "nonpayable",
					"type": "function"
				},
				{
					"inputs": [
						{
							"internalType": "bool",
							"name": "_defaultAutoClaim",
							"type": "bool"
						}
					],
					"name": "setDefaultAutoClaim",
					"outputs": [],
					"stateMutability": "nonpayable",
					"type": "function"
				},
				{
					"inputs": [
						{
							"internalType": "address",
							"name": "_operatorAddress",
							"type": "address"
						},
						{
							"internalType": "bool",
							"name": "_opt",
							"type": "bool"
						}
					],
					"name": "setOperatorAddress",
					"outputs": [],
					"stateMutability": "nonpayable",
					"type": "function"
				},
				{
					"inputs": [
						{
							"internalType": "address",
							"name": "_defaultTicketToken",
							"type": "address"
						},
						{
							"internalType": "uint256",
							"name": "_defaultTicketPirce",
							"type": "uint256"
						}
					],
					"name": "setTicketToken",
					"outputs": [],
					"stateMutability": "nonpayable",
					"type": "function"
				},
				{
					"inputs": [
						{
							"internalType": "address",
							"name": "newOwner",
							"type": "address"
						}
					],
					"name": "transferOwnership",
					"outputs": [],
					"stateMutability": "nonpayable",
					"type": "function"
				},
				{
					"inputs": [],
					"name": "viewCurrentRedEnvelopeId",
					"outputs": [
						{
							"internalType": "uint256",
							"name": "",
							"type": "uint256"
						}
					],
					"stateMutability": "view",
					"type": "function"
				},
				{
					"inputs": [
						{
							"internalType": "uint256",
							"name": "_id",
							"type": "uint256"
						}
					],
					"name": "viewRedEnvelope",
					"outputs": [
						{
							"components": [
								{
									"internalType": "address",
									"name": "ticketToken",
									"type": "address"
								},
								{
									"internalType": "enum LuckyRedEnvelopeV2.Status",
									"name": "status",
									"type": "uint8"
								},
								{
									"internalType": "uint256",
									"name": "endTime",
									"type": "uint256"
								},
								{
									"internalType": "uint256",
									"name": "maxTickets",
									"type": "uint256"
								},
								{
									"internalType": "uint256",
									"name": "maxPrizeNum",
									"type": "uint256"
								},
								{
									"internalType": "uint256",
									"name": "buyTickets",
									"type": "uint256"
								},
								{
									"internalType": "uint256",
									"name": "getTickets",
									"type": "uint256"
								},
								{
									"internalType": "uint256",
									"name": "injectTickets",
									"type": "uint256"
								},
								{
									"internalType": "uint256",
									"name": "userAddrNum",
									"type": "uint256"
								},
								{
									"internalType": "uint256",
									"name": "userTxNum",
									"type": "uint256"
								},
								{
									"internalType": "uint256",
									"name": "injectAddrNum",
									"type": "uint256"
								},
								{
									"internalType": "uint256",
									"name": "ticketPirce",
									"type": "uint256"
								},
								{
									"internalType": "address",
									"name": "getTicketAddr",
									"type": "address"
								},
								{
									"internalType": "uint256",
									"name": "secret",
									"type": "uint256"
								},
								{
									"internalType": "bool",
									"name": "autoClaim",
									"type": "bool"
								}
							],
							"internalType": "struct LuckyRedEnvelopeV2.RedEnvelope",
							"name": "",
							"type": "tuple"
						}
					],
					"stateMutability": "view",
					"type": "function"
				},
				{
					"inputs": [
						{
							"internalType": "uint256",
							"name": "_id",
							"type": "uint256"
						},
						{
							"internalType": "address",
							"name": "_user",
							"type": "address"
						}
					],
					"name": "viewRedEnvelopeClaimPrize",
					"outputs": [
						{
							"internalType": "uint256",
							"name": "",
							"type": "uint256"
						}
					],
					"stateMutability": "view",
					"type": "function"
				},
				{
					"inputs": [
						{
							"internalType": "uint256",
							"name": "_id",
							"type": "uint256"
						}
					],
					"name": "viewRedEnvelopeStatus",
					"outputs": [
						{
							"internalType": "uint256",
							"name": "",
							"type": "uint256"
						}
					],
					"stateMutability": "view",
					"type": "function"
				}
			],
			"devdoc": {
				"errors": {
					"AddressEmptyCode(address)": [
						{
							"details": "There's no code at `target` (it is not a contract)."
						}
					],
					"AddressInsufficientBalance(address)": [
						{
							"details": "The ETH balance of the account is not enough to perform the operation."
						}
					],
					"FailedInnerCall()": [
						{
							"details": "A call to an address target failed. The target may have reverted."
						}
					],
					"OwnableInvalidOwner(address)": [
						{
							"details": "The owner is not a valid owner account. (eg. `address(0)`)"
						}
					],
					"OwnableUnauthorizedAccount(address)": [
						{
							"details": "The caller account is not authorized to perform an operation."
						}
					],
					"ReentrancyGuardReentrantCall()": [
						{
							"details": "Unauthorized reentrant call."
						}
					],
					"SafeERC20FailedOperation(address)": [
						{
							"details": "An operation with an ERC20 token failed."
						}
					]
				},
				"kind": "dev",
				"methods": {
					"createRedEnvelope(uint256,uint256,uint256,uint256)": {
						"details": "Callable by operator",
						"params": {
							"_endTime": ": endTime of the RedEnvelope，0 = no limit",
							"_maxPrizeNum": ": prize num of the RedEnvelope，0为100%中奖",
							"_maxTickets": ": max ticket of the RedEnvelope，0 = no limit",
							"_secret": ": "
						}
					},
					"createRedEnvelopeDetail(address,uint256,uint256,uint256,uint256,address,uint256,address,uint256,bool)": {
						"details": "Callable by operator",
						"params": {
							"_endTime": ": endTime of the RedEnvelope",
							"_maxTickets": ": max ticket of the RedEnvelope",
							"_secret": ": "
						}
					},
					"owner()": {
						"details": "Returns the address of the current owner."
					},
					"renounceOwnership()": {
						"details": "Leaves the contract without owner. It will not be possible to call `onlyOwner` functions. Can only be called by the current owner. NOTE: Renouncing ownership will leave the contract without an owner, thereby disabling any functionality that is only available to the owner."
					},
					"transferOwnership(address)": {
						"details": "Transfers ownership of the contract to a new account (`newOwner`). Can only be called by the current owner."
					}
				},
				"version": 1
			},
			"evm": {
				"assembly": "    /* \"contracts/LuckyRedEnvelopeV2.sol\":382:21166  contract LuckyRedEnvelopeV2 is IRedEnvelope,ReentrancyGuard, Ownable{... */\n  mstore(0x40, 0x80)\n    /* \"contracts/LuckyRedEnvelopeV2.sol\":4083:4586  constructor(address _operatorAddress,address _defaultTicketToken,uint256 _defaultTicketPirce)Ownable(address(msg.sender)){... */\n  callvalue\n  dup1\n  iszero\n  tag_1\n  jumpi\n  0x00\n  dup1\n  revert\ntag_1:\n  pop\n  mload(0x40)\n  sub(codesize, bytecodeSize)\n  dup1\n  bytecodeSize\n  dup4\n  codecopy\n  dup2\n  add\n  0x40\n  dup2\n  swap1\n  mstore\n  tag_2\n  swap2\n  tag_3\n  jump\t// in\ntag_2:\n    /* \"@openzeppelin/contracts/utils/ReentrancyGuard.sol\":1713:1714  1 */\n  0x01\n    /* \"@openzeppelin/contracts/utils/ReentrancyGuard.sol\":1917:1924  _status */\n  0x00\n    /* \"@openzeppelin/contracts/utils/ReentrancyGuard.sol\":1917:1938  _status = NOT_ENTERED */\n  sstore\n    /* \"contracts/LuckyRedEnvelopeV2.sol\":4192:4202  msg.sender */\n  caller\n  dup1\n    /* \"@openzeppelin/contracts/access/Ownable.sol\":1269:1364  if (initialOwner == address(0)) {... */\n  tag_9\n  jumpi\n    /* \"@openzeppelin/contracts/access/Ownable.sol\":1322:1353  OwnableInvalidOwner(address(0)) */\n  mload(0x40)\n  shl(0xe0, 0x1e4fbdf7)\n  dup2\n  mstore\n    /* \"@openzeppelin/contracts/access/Ownable.sol\":1350:1351  0 */\n  0x00\n    /* \"@openzeppelin/contracts/access/Ownable.sol\":1322:1353  OwnableInvalidOwner(address(0)) */\n  0x04\n  dup3\n  add\n    /* \"#utility.yul\":701:752   */\n  mstore\n    /* \"#utility.yul\":674:692   */\n  0x24\n  add\n    /* \"@openzeppelin/contracts/access/Ownable.sol\":1322:1353  OwnableInvalidOwner(address(0)) */\n  mload(0x40)\n  dup1\n  swap2\n  sub\n  swap1\n  revert\n    /* \"@openzeppelin/contracts/access/Ownable.sol\":1269:1364  if (initialOwner == address(0)) {... */\ntag_9:\n    /* \"@openzeppelin/contracts/access/Ownable.sol\":1373:1405  _transferOwnership(initialOwner) */\n  tag_12\n    /* \"@openzeppelin/contracts/access/Ownable.sol\":1392:1404  initialOwner */\n  dup2\n    /* \"@openzeppelin/contracts/access/Ownable.sol\":1373:1391  _transferOwnership */\n  tag_13\n    /* \"@openzeppelin/contracts/access/Ownable.sol\":1373:1405  _transferOwnership(initialOwner) */\n  jump\t// in\ntag_12:\n  pop\n  sub(shl(0xa0, 0x01), 0x01)\n    /* \"contracts/LuckyRedEnvelopeV2.sol\":4215:4252  operatorAddressList[_operatorAddress] */\n  dup4\n  dup2\n  and\n  0x00\n  dup2\n  dup2\n  mstore\n    /* \"contracts/LuckyRedEnvelopeV2.sol\":4215:4234  operatorAddressList */\n  0x06\n    /* \"contracts/LuckyRedEnvelopeV2.sol\":4215:4252  operatorAddressList[_operatorAddress] */\n  0x20\n  swap1\n  dup2\n  mstore\n  0x40\n  swap2\n  dup3\n  swap1\n  keccak256\n    /* \"contracts/LuckyRedEnvelopeV2.sol\":4215:4259  operatorAddressList[_operatorAddress] = true */\n  dup1\n  sload\n    /* \"contracts/LuckyRedEnvelopeV2.sol\":4255:4259  true */\n  0x01\n  not(0xff)\n    /* \"contracts/LuckyRedEnvelopeV2.sol\":4215:4259  operatorAddressList[_operatorAddress] = true */\n  swap2\n  dup3\n  and\n  dup2\n  or\n  swap1\n  swap3\n  sstore\n    /* \"contracts/LuckyRedEnvelopeV2.sol\":4270:4286  defaultAutoClaim */\n  0x05\n    /* \"contracts/LuckyRedEnvelopeV2.sol\":4270:4293  defaultAutoClaim = true */\n  dup1\n  sload\n  swap1\n  swap2\n  and\n  dup3\n  or\n  swap1\n  sstore\n    /* \"contracts/LuckyRedEnvelopeV2.sol\":4304:4322  defaultTicketToken */\n  0x02\n    /* \"contracts/LuckyRedEnvelopeV2.sol\":4304:4344  defaultTicketToken = _defaultTicketToken */\n  dup1\n  sload\n  not(sub(shl(0xa0, 0x01), 0x01))\n  and\n  swap6\n  dup9\n  and\n  swap6\n  swap1\n  swap6\n  or\n  swap1\n  swap5\n  sstore\n    /* \"contracts/LuckyRedEnvelopeV2.sol\":4355:4373  defaultTicketPirce */\n  0x04\n    /* \"contracts/LuckyRedEnvelopeV2.sol\":4355:4395  defaultTicketPirce = _defaultTicketPirce */\n  dup6\n  swap1\n  sstore\n    /* \"contracts/LuckyRedEnvelopeV2.sol\":4411:4449  OperatorAddress(_operatorAddress,true) */\n  dup2\n  mload\n    /* \"#utility.yul\":931:982   */\n  swap3\n  dup4\n  mstore\n    /* \"#utility.yul\":998:1016   */\n  dup3\n  add\n    /* \"#utility.yul\":991:1041   */\n  swap3\n  swap1\n  swap3\n  mstore\n    /* \"contracts/LuckyRedEnvelopeV2.sol\":4411:4449  OperatorAddress(_operatorAddress,true) */\n  0xedae46487653623e513ea3b3341c9e6b457a2ef687d0342d2507ccb63458b19f\n  swap2\n    /* \"#utility.yul\":904:922   */\n  add\n    /* \"contracts/LuckyRedEnvelopeV2.sol\":4411:4449  OperatorAddress(_operatorAddress,true) */\n  mload(0x40)\n  dup1\n  swap2\n  sub\n  swap1\n  log1\n    /* \"contracts/LuckyRedEnvelopeV2.sol\":4488:4504  defaultAutoClaim */\n  sload(0x05)\n    /* \"contracts/LuckyRedEnvelopeV2.sol\":4465:4505  DefaultAutoClaimChange(defaultAutoClaim) */\n  mload(0x40)\n    /* \"contracts/LuckyRedEnvelopeV2.sol\":4488:4504  defaultAutoClaim */\n  0xff\n  swap1\n  swap2\n  and\n    /* \"#utility.yul\":1217:1231   */\n  iszero\n    /* \"#utility.yul\":1210:1232   */\n  iszero\n    /* \"#utility.yul\":1192:1233   */\n  dup2\n  mstore\n    /* \"contracts/LuckyRedEnvelopeV2.sol\":4465:4505  DefaultAutoClaimChange(defaultAutoClaim) */\n  0x6fe9a4ab2e95e24b2be44989dc36a685149dfde9354d486a8da5cb4bbd01b010\n  swap1\n    /* \"#utility.yul\":1180:1182   */\n  0x20\n    /* \"#utility.yul\":1165:1183   */\n  add\n    /* \"contracts/LuckyRedEnvelopeV2.sol\":4465:4505  DefaultAutoClaimChange(defaultAutoClaim) */\n  mload(0x40)\n  dup1\n  swap2\n  sub\n  swap1\n  log1\n    /* \"contracts/LuckyRedEnvelopeV2.sol\":4540:4558  defaultTicketToken */\n  sload(0x02)\n    /* \"contracts/LuckyRedEnvelopeV2.sol\":4559:4577  defaultTicketPirce */\n  sload(0x04)\n    /* \"contracts/LuckyRedEnvelopeV2.sol\":4521:4578  DefaultTokenChange(defaultTicketToken,defaultTicketPirce) */\n  0x40\n  dup1\n  mload\n  sub(shl(0xa0, 0x01), 0x01)\n    /* \"contracts/LuckyRedEnvelopeV2.sol\":4540:4558  defaultTicketToken */\n  swap1\n  swap4\n  and\n    /* \"#utility.yul\":1418:1469   */\n  dup4\n  mstore\n    /* \"#utility.yul\":1500:1502   */\n  0x20\n    /* \"#utility.yul\":1485:1503   */\n  dup4\n  add\n    /* \"#utility.yul\":1478:1512   */\n  swap2\n  swap1\n  swap2\n  mstore\n    /* \"contracts/LuckyRedEnvelopeV2.sol\":4521:4578  DefaultTokenChange(defaultTicketToken,defaultTicketPirce) */\n  0xdc907cb17a7da8e1dffad2b7205a6ca1111cbb38a0f1f4b2b60a31eb673ca4a2\n  swap2\n    /* \"#utility.yul\":1391:1409   */\n  add\n    /* \"contracts/LuckyRedEnvelopeV2.sol\":4521:4578  DefaultTokenChange(defaultTicketToken,defaultTicketPirce) */\n  mload(0x40)\n  dup1\n  swap2\n  sub\n  swap1\n  log1\n    /* \"contracts/LuckyRedEnvelopeV2.sol\":4083:4586  constructor(address _operatorAddress,address _defaultTicketToken,uint256 _defaultTicketPirce)Ownable(address(msg.sender)){... */\n  pop\n  pop\n  pop\n    /* \"contracts/LuckyRedEnvelopeV2.sol\":382:21166  contract LuckyRedEnvelopeV2 is IRedEnvelope,ReentrancyGuard, Ownable{... */\n  jump(tag_24)\n    /* \"@openzeppelin/contracts/access/Ownable.sol\":2912:3099  function _transferOwnership(address newOwner) internal virtual {... */\ntag_13:\n    /* \"@openzeppelin/contracts/access/Ownable.sol\":3004:3010  _owner */\n  0x01\n  dup1\n  sload\n  sub(shl(0xa0, 0x01), 0x01)\n    /* \"@openzeppelin/contracts/access/Ownable.sol\":3020:3037  _owner = newOwner */\n  dup4\n  dup2\n  and\n  not(sub(shl(0xa0, 0x01), 0x01))\n  dup4\n  and\n  dup2\n  or\n  swap1\n  swap4\n  sstore\n    /* \"@openzeppelin/contracts/access/Ownable.sol\":3052:3092  OwnershipTransferred(oldOwner, newOwner) */\n  mload(0x40)\n    /* \"@openzeppelin/contracts/access/Ownable.sol\":3004:3010  _owner */\n  swap2\n  and\n  swap2\n    /* \"@openzeppelin/contracts/access/Ownable.sol\":3020:3037  _owner = newOwner */\n  swap1\n    /* \"@openzeppelin/contracts/access/Ownable.sol\":3004:3010  _owner */\n  dup3\n  swap1\n    /* \"@openzeppelin/contracts/access/Ownable.sol\":3052:3092  OwnershipTransferred(oldOwner, newOwner) */\n  0x8be0079c531659141344cd1fd0a4f28419497f9722a3daafe3b4186f6b6457e0\n  swap1\n    /* \"@openzeppelin/contracts/access/Ownable.sol\":2985:3001  address oldOwner */\n  0x00\n  swap1\n    /* \"@openzeppelin/contracts/access/Ownable.sol\":3052:3092  OwnershipTransferred(oldOwner, newOwner) */\n  log3\n    /* \"@openzeppelin/contracts/access/Ownable.sol\":2975:3099  {... */\n  pop\n    /* \"@openzeppelin/contracts/access/Ownable.sol\":2912:3099  function _transferOwnership(address newOwner) internal virtual {... */\n  pop\n  jump\t// out\n    /* \"#utility.yul\":14:191   */\ntag_23:\n    /* \"#utility.yul\":93:106   */\n  dup1\n  mload\n  sub(shl(0xa0, 0x01), 0x01)\n    /* \"#utility.yul\":135:166   */\n  dup2\n  and\n    /* \"#utility.yul\":125:167   */\n  dup2\n  eq\n    /* \"#utility.yul\":115:185   */\n  tag_26\n  jumpi\n    /* \"#utility.yul\":181:182   */\n  0x00\n    /* \"#utility.yul\":178:179   */\n  dup1\n    /* \"#utility.yul\":171:183   */\n  revert\n    /* \"#utility.yul\":115:185   */\ntag_26:\n    /* \"#utility.yul\":14:191   */\n  swap2\n  swap1\n  pop\n  jump\t// out\n    /* \"#utility.yul\":196:550   */\ntag_3:\n    /* \"#utility.yul\":284:290   */\n  0x00\n    /* \"#utility.yul\":292:298   */\n  dup1\n    /* \"#utility.yul\":300:306   */\n  0x00\n    /* \"#utility.yul\":353:355   */\n  0x60\n    /* \"#utility.yul\":341:350   */\n  dup5\n    /* \"#utility.yul\":332:339   */\n  dup7\n    /* \"#utility.yul\":328:351   */\n  sub\n    /* \"#utility.yul\":324:356   */\n  slt\n    /* \"#utility.yul\":321:373   */\n  iszero\n  tag_28\n  jumpi\n    /* \"#utility.yul\":369:370   */\n  0x00\n    /* \"#utility.yul\":366:367   */\n  dup1\n    /* \"#utility.yul\":359:371   */\n  revert\n    /* \"#utility.yul\":321:373   */\ntag_28:\n    /* \"#utility.yul\":392:432   */\n  tag_29\n    /* \"#utility.yul\":422:431   */\n  dup5\n    /* \"#utility.yul\":392:432   */\n  tag_23\n  jump\t// in\ntag_29:\n    /* \"#utility.yul\":382:432   */\n  swap3\n  pop\n    /* \"#utility.yul\":451:500   */\n  tag_30\n    /* \"#utility.yul\":496:498   */\n  0x20\n    /* \"#utility.yul\":485:494   */\n  dup6\n    /* \"#utility.yul\":481:499   */\n  add\n    /* \"#utility.yul\":451:500   */\n  tag_23\n  jump\t// in\ntag_30:\n    /* \"#utility.yul\":441:500   */\n  swap2\n  pop\n    /* \"#utility.yul\":540:542   */\n  0x40\n    /* \"#utility.yul\":529:538   */\n  dup5\n    /* \"#utility.yul\":525:543   */\n  add\n    /* \"#utility.yul\":519:544   */\n  mload\n    /* \"#utility.yul\":509:544   */\n  swap1\n  pop\n    /* \"#utility.yul\":196:550   */\n  swap3\n  pop\n  swap3\n  pop\n  swap3\n  jump\t// out\n    /* \"#utility.yul\":1244:1518   */\ntag_24:\n    /* \"contracts/LuckyRedEnvelopeV2.sol\":382:21166  contract LuckyRedEnvelopeV2 is IRedEnvelope,ReentrancyGuard, Ownable{... */\n  dataSize(sub_0)\n  dup1\n  dataOffset(sub_0)\n  0x00\n  codecopy\n  0x00\n  return\nstop\n\nsub_0: assembly {\n        /* \"contracts/LuckyRedEnvelopeV2.sol\":382:21166  contract LuckyRedEnvelopeV2 is IRedEnvelope,ReentrancyGuard, Ownable{... */\n      mstore(0x40, 0x80)\n      callvalue\n      dup1\n      iszero\n      tag_1\n      jumpi\n      0x00\n      dup1\n      revert\n    tag_1:\n      pop\n      jumpi(tag_2, lt(calldatasize, 0x04))\n      shr(0xe0, calldataload(0x00))\n      dup1\n      0x959acdaf\n      gt\n      tag_26\n      jumpi\n      dup1\n      0xd9828174\n      gt\n      tag_27\n      jumpi\n      dup1\n      0xd9828174\n      eq\n      tag_20\n      jumpi\n      dup1\n      0xdc912a81\n      eq\n      tag_21\n      jumpi\n      dup1\n      0xe00dd161\n      eq\n      tag_22\n      jumpi\n      dup1\n      0xf2fde38b\n      eq\n      tag_23\n      jumpi\n      dup1\n      0xf41188ed\n      eq\n      tag_24\n      jumpi\n      dup1\n      0xfe5c5976\n      eq\n      tag_25\n      jumpi\n      0x00\n      dup1\n      revert\n    tag_27:\n      dup1\n      0x959acdaf\n      eq\n      tag_14\n      jumpi\n      dup1\n      0xa210d5e0\n      eq\n      tag_15\n      jumpi\n      dup1\n      0xbc6bce91\n      eq\n      tag_16\n      jumpi\n      dup1\n      0xbce3468d\n      eq\n      tag_17\n      jumpi\n      dup1\n      0xc5e7bb33\n      eq\n      tag_18\n      jumpi\n      dup1\n      0xd7098154\n      eq\n      tag_19\n      jumpi\n      0x00\n      dup1\n      revert\n    tag_26:\n      dup1\n      0x559f24bc\n      gt\n      tag_28\n      jumpi\n      dup1\n      0x559f24bc\n      eq\n      tag_8\n      jumpi\n      dup1\n      0x715018a6\n      eq\n      tag_9\n      jumpi\n      dup1\n      0x8da5cb5b\n      eq\n      tag_10\n      jumpi\n      dup1\n      0x8f91cd17\n      eq\n      tag_11\n      jumpi\n      dup1\n      0x903606c5\n      eq\n      tag_12\n      jumpi\n      dup1\n      0x94456fa4\n      eq\n      tag_13\n      jumpi\n      0x00\n      dup1\n      revert\n    tag_28:\n      dup1\n      0x0e9e1262\n      eq\n      tag_3\n      jumpi\n      dup1\n      0x3834efe1\n      eq\n      tag_4\n      jumpi\n      dup1\n      0x3ddb7f19\n      eq\n      tag_5\n      jumpi\n      dup1\n      0x4a42c8f6\n      eq\n      tag_6\n      jumpi\n      dup1\n      0x4bfec3aa\n      eq\n      tag_7\n      jumpi\n    tag_2:\n      0x00\n      dup1\n      revert\n        /* \"contracts/LuckyRedEnvelopeV2.sol\":6112:6587  function createRedEnvelope(... */\n    tag_3:\n      tag_29\n      tag_30\n      calldatasize\n      0x04\n      tag_31\n      jump\t// in\n    tag_30:\n      tag_32\n      jump\t// in\n    tag_29:\n      stop\n        /* \"contracts/LuckyRedEnvelopeV2.sol\":12893:13429  function endRedEnvelope(... */\n    tag_4:\n      tag_29\n      tag_34\n      calldatasize\n      0x04\n      tag_35\n      jump\t// in\n    tag_34:\n      tag_36\n      jump\t// in\n        /* \"contracts/LuckyRedEnvelopeV2.sol\":10678:11665  function getTickets(... */\n    tag_5:\n      tag_29\n      tag_38\n      calldatasize\n      0x04\n      tag_39\n      jump\t// in\n    tag_38:\n      tag_40\n      jump\t// in\n        /* \"contracts/LuckyRedEnvelopeV2.sol\":6821:7708  function createRedEnvelopeDetail(... */\n    tag_6:\n      tag_29\n      tag_42\n      calldatasize\n      0x04\n      tag_43\n      jump\t// in\n    tag_42:\n      tag_44\n      jump\t// in\n        /* \"contracts/LuckyRedEnvelopeV2.sol\":569:602  uint256 public defaultTicketPirce */\n    tag_7:\n      tag_45\n      sload(0x04)\n      dup2\n      jump\n    tag_45:\n      mload(0x40)\n        /* \"#utility.yul\":2246:2271   */\n      swap1\n      dup2\n      mstore\n        /* \"#utility.yul\":2234:2236   */\n      0x20\n        /* \"#utility.yul\":2219:2237   */\n      add\n        /* \"contracts/LuckyRedEnvelopeV2.sol\":569:602  uint256 public defaultTicketPirce */\n    tag_47:\n      mload(0x40)\n      dup1\n      swap2\n      sub\n      swap1\n      return\n        /* \"contracts/LuckyRedEnvelopeV2.sol\":7716:8165  function injectTickets(uint256 _id,uint256 _ticketNumbers)external nonReentrant{... */\n    tag_8:\n      tag_29\n      tag_50\n      calldatasize\n      0x04\n      tag_51\n      jump\t// in\n    tag_50:\n      tag_52\n      jump\t// in\n        /* \"@openzeppelin/contracts/access/Ownable.sol\":2293:2394  function renounceOwnership() public virtual onlyOwner {... */\n    tag_9:\n      tag_29\n      tag_54\n      jump\t// in\n        /* \"@openzeppelin/contracts/access/Ownable.sol\":1638:1723  function owner() public view virtual returns (address) {... */\n    tag_10:\n        /* \"@openzeppelin/contracts/access/Ownable.sol\":1710:1716  _owner */\n      and(sub(shl(0xa0, 0x01), 0x01), sload(0x01))\n        /* \"@openzeppelin/contracts/access/Ownable.sol\":1638:1723  function owner() public view virtual returns (address) {... */\n    tag_55:\n      mload(0x40)\n      sub(shl(0xa0, 0x01), 0x01)\n        /* \"#utility.yul\":2808:2840   */\n      swap1\n      swap2\n      and\n        /* \"#utility.yul\":2790:2841   */\n      dup2\n      mstore\n        /* \"#utility.yul\":2778:2780   */\n      0x20\n        /* \"#utility.yul\":2763:2781   */\n      add\n        /* \"@openzeppelin/contracts/access/Ownable.sol\":1638:1723  function owner() public view virtual returns (address) {... */\n      tag_47\n        /* \"#utility.yul\":2644:2847   */\n      jump\n        /* \"contracts/LuckyRedEnvelopeV2.sol\":20838:20961  function viewRedEnvelope(uint256 _id)external view returns (RedEnvelope memory){... */\n    tag_11:\n      tag_59\n      tag_60\n      calldatasize\n      0x04\n      tag_35\n      jump\t// in\n    tag_60:\n      tag_61\n      jump\t// in\n    tag_59:\n      mload(0x40)\n      tag_47\n      swap2\n      swap1\n      tag_63\n      jump\t// in\n        /* \"contracts/LuckyRedEnvelopeV2.sol\":5098:5383  function setTicketToken(address _defaultTicketToken,uint256 _defaultTicketPirce) external onlyOperator{... */\n    tag_12:\n      tag_29\n      tag_65\n      calldatasize\n      0x04\n      tag_66\n      jump\t// in\n    tag_65:\n      tag_67\n      jump\t// in\n        /* \"contracts/LuckyRedEnvelopeV2.sol\":20699:20801  function  viewCurrentRedEnvelopeId() external view returns(uint256){... */\n    tag_13:\n        /* \"contracts/LuckyRedEnvelopeV2.sol\":20784:20793  currentId */\n      sload(0x03)\n        /* \"contracts/LuckyRedEnvelopeV2.sol\":20699:20801  function  viewCurrentRedEnvelopeId() external view returns(uint256){... */\n      jump(tag_45)\n        /* \"contracts/LuckyRedEnvelopeV2.sol\":492:525  address public defaultTicketToken */\n    tag_14:\n      sload(0x02)\n      tag_55\n      swap1\n      sub(shl(0xa0, 0x01), 0x01)\n      and\n      dup2\n      jump\n        /* \"contracts/LuckyRedEnvelopeV2.sol\":615:643  bool public defaultAutoClaim */\n    tag_15:\n      sload(0x05)\n      tag_74\n      swap1\n      0xff\n      and\n      dup2\n      jump\n    tag_74:\n      mload(0x40)\n        /* \"#utility.yul\":5198:5212   */\n      swap1\n      iszero\n        /* \"#utility.yul\":5191:5213   */\n      iszero\n        /* \"#utility.yul\":5173:5214   */\n      dup2\n      mstore\n        /* \"#utility.yul\":5161:5163   */\n      0x20\n        /* \"#utility.yul\":5146:5164   */\n      add\n        /* \"contracts/LuckyRedEnvelopeV2.sol\":615:643  bool public defaultAutoClaim */\n      tag_47\n        /* \"#utility.yul\":5033:5220   */\n      jump\n        /* \"contracts/LuckyRedEnvelopeV2.sol\":652:703  mapping(address => bool) public operatorAddressList */\n    tag_16:\n      tag_74\n      tag_79\n      calldatasize\n      0x04\n      tag_80\n      jump\t// in\n    tag_79:\n      mstore(0x20, 0x06)\n      0x00\n      swap1\n      dup2\n      mstore\n      0x40\n      swap1\n      keccak256\n      sload\n      0xff\n      and\n      dup2\n      jump\n        /* \"contracts/LuckyRedEnvelopeV2.sol\":15059:16813  function drawPrize(... */\n    tag_17:\n      tag_29\n      tag_84\n      calldatasize\n      0x04\n      tag_51\n      jump\t// in\n    tag_84:\n      tag_85\n      jump\t// in\n        /* \"contracts/LuckyRedEnvelopeV2.sol\":11673:12883  function buyTickets(... */\n    tag_18:\n      tag_29\n      tag_87\n      calldatasize\n      0x04\n      tag_39\n      jump\t// in\n    tag_87:\n      tag_88\n      jump\t// in\n        /* \"contracts/LuckyRedEnvelopeV2.sol\":19283:19568  function claimPrize(uint256 _id)external nonReentrant{... */\n    tag_19:\n      tag_29\n      tag_90\n      calldatasize\n      0x04\n      tag_35\n      jump\t// in\n    tag_90:\n      tag_91\n      jump\t// in\n        /* \"contracts/LuckyRedEnvelopeV2.sol\":4594:4896  function setOperatorAddress(... */\n    tag_20:\n      tag_29\n      tag_93\n      calldatasize\n      0x04\n      tag_94\n      jump\t// in\n    tag_93:\n      tag_95\n      jump\t// in\n        /* \"contracts/LuckyRedEnvelopeV2.sol\":21019:21163  function viewRedEnvelopeClaimPrize(uint256 _id,address _user)external view returns(uint256){... */\n    tag_21:\n      tag_45\n      tag_97\n      calldatasize\n      0x04\n      tag_98\n      jump\t// in\n    tag_97:\n      tag_99\n      jump\t// in\n        /* \"contracts/LuckyRedEnvelopeV2.sol\":538:562  uint256 public currentId */\n    tag_22:\n      tag_45\n      sload(0x03)\n      dup2\n      jump\n        /* \"@openzeppelin/contracts/access/Ownable.sol\":2543:2758  function transferOwnership(address newOwner) public virtual onlyOwner {... */\n    tag_23:\n      tag_29\n      tag_105\n      calldatasize\n      0x04\n      tag_80\n      jump\t// in\n    tag_105:\n      tag_106\n      jump\t// in\n        /* \"contracts/LuckyRedEnvelopeV2.sol\":4904:5089  function setDefaultAutoClaim(bool _defaultAutoClaim) external onlyOperator{... */\n    tag_24:\n      tag_29\n      tag_108\n      calldatasize\n      0x04\n      tag_109\n      jump\t// in\n    tag_108:\n      tag_110\n      jump\t// in\n        /* \"contracts/LuckyRedEnvelopeV2.sol\":20535:20663  function viewRedEnvelopeStatus(uint256 _id) public view  returns (uint){... */\n    tag_25:\n      tag_45\n      tag_112\n      calldatasize\n      0x04\n      tag_35\n      jump\t// in\n    tag_112:\n      tag_113\n      jump\t// in\n        /* \"contracts/LuckyRedEnvelopeV2.sol\":6112:6587  function createRedEnvelope(... */\n    tag_32:\n        /* \"contracts/LuckyRedEnvelopeV2.sol\":2462:2472  msg.sender */\n      caller\n        /* \"contracts/LuckyRedEnvelopeV2.sol\":2442:2473  operatorAddressList[msg.sender] */\n      0x00\n      swap1\n      dup2\n      mstore\n        /* \"contracts/LuckyRedEnvelopeV2.sol\":2442:2461  operatorAddressList */\n      0x06\n        /* \"contracts/LuckyRedEnvelopeV2.sol\":2442:2473  operatorAddressList[msg.sender] */\n      0x20\n      mstore\n      0x40\n      swap1\n      keccak256\n      sload\n      0xff\n      and\n        /* \"contracts/LuckyRedEnvelopeV2.sol\":2442:2481  operatorAddressList[msg.sender] == true */\n      iszero\n      iszero\n        /* \"contracts/LuckyRedEnvelopeV2.sol\":2442:2473  operatorAddressList[msg.sender] */\n      0x01\n        /* \"contracts/LuckyRedEnvelopeV2.sol\":2442:2481  operatorAddressList[msg.sender] == true */\n      eq\n        /* \"contracts/LuckyRedEnvelopeV2.sol\":2434:2498  require(operatorAddressList[msg.sender] == true, \"Not operator\") */\n      tag_116\n      jumpi\n      mload(0x40)\n      shl(0xe5, 0x461bcd)\n      dup2\n      mstore\n      0x04\n      add\n      tag_117\n      swap1\n      tag_118\n      jump\t// in\n    tag_117:\n      mload(0x40)\n      dup1\n      swap2\n      sub\n      swap1\n      revert\n    tag_116:\n        /* \"@openzeppelin/contracts/utils/ReentrancyGuard.sol\":2356:2377  _nonReentrantBefore() */\n      tag_120\n        /* \"@openzeppelin/contracts/utils/ReentrancyGuard.sol\":2356:2375  _nonReentrantBefore */\n      tag_121\n        /* \"@openzeppelin/contracts/utils/ReentrancyGuard.sol\":2356:2377  _nonReentrantBefore() */\n      jump\t// in\n    tag_120:\n        /* \"contracts/LuckyRedEnvelopeV2.sol\":6323:6341  defaultTicketToken */\n      sload(0x02)\n        /* \"contracts/LuckyRedEnvelopeV2.sol\":6342:6360  defaultTicketPirce */\n      sload(0x04)\n        /* \"contracts/LuckyRedEnvelopeV2.sol\":6417:6433  defaultAutoClaim */\n      sload(0x05)\n        /* \"contracts/LuckyRedEnvelopeV2.sol\":6304:6434  _createRedEnvelope(defaultTicketToken,defaultTicketPirce,_endTime,_maxTickets,... */\n      tag_123\n      swap3\n      sub(shl(0xa0, 0x01), 0x01)\n        /* \"contracts/LuckyRedEnvelopeV2.sol\":6323:6341  defaultTicketToken */\n      and\n      swap2\n        /* \"contracts/LuckyRedEnvelopeV2.sol\":6342:6360  defaultTicketPirce */\n      swap1\n        /* \"contracts/LuckyRedEnvelopeV2.sol\":6361:6369  _endTime */\n      dup8\n      swap1\n        /* \"contracts/LuckyRedEnvelopeV2.sol\":6370:6381  _maxTickets */\n      dup8\n      swap1\n        /* \"contracts/LuckyRedEnvelopeV2.sol\":6396:6408  _maxPrizeNum */\n      dup8\n      swap1\n        /* \"contracts/LuckyRedEnvelopeV2.sol\":6409:6416  _secret */\n      dup8\n      swap1\n        /* \"contracts/LuckyRedEnvelopeV2.sol\":6417:6433  defaultAutoClaim */\n      0xff\n      and\n        /* \"contracts/LuckyRedEnvelopeV2.sol\":6304:6322  _createRedEnvelope */\n      tag_124\n        /* \"contracts/LuckyRedEnvelopeV2.sol\":6304:6434  _createRedEnvelope(defaultTicketToken,defaultTicketPirce,_endTime,_maxTickets,... */\n      jump\t// in\n    tag_123:\n        /* \"contracts/LuckyRedEnvelopeV2.sol\":6469:6478  currentId */\n      sload(0x03)\n        /* \"contracts/LuckyRedEnvelopeV2.sol\":6513:6531  defaultTicketPirce */\n      sload(0x04)\n        /* \"contracts/LuckyRedEnvelopeV2.sol\":6532:6550  defaultTicketToken */\n      sload(0x02)\n        /* \"contracts/LuckyRedEnvelopeV2.sol\":6562:6578  defaultAutoClaim */\n      sload(0x05)\n        /* \"contracts/LuckyRedEnvelopeV2.sol\":6450:6579  RedEnvelopeCreated(currentId,_endTime,_maxTickets,_maxPrizeNum,defaultTicketPirce,defaultTicketToken,address(0),defaultAutoClaim) */\n      mload(0x40)\n      0xd1e3ee1889517a916aeecc9d0b214ca142fce1f8562cd5e9071876b998ec7eea\n      swap4\n      tag_125\n      swap4\n        /* \"contracts/LuckyRedEnvelopeV2.sol\":6479:6487  _endTime */\n      dup11\n      swap4\n        /* \"contracts/LuckyRedEnvelopeV2.sol\":6488:6499  _maxTickets */\n      dup11\n      swap4\n        /* \"contracts/LuckyRedEnvelopeV2.sol\":6500:6512  _maxPrizeNum */\n      dup11\n      swap4\n        /* \"contracts/LuckyRedEnvelopeV2.sol\":6513:6531  defaultTicketPirce */\n      swap3\n      sub(shl(0xa0, 0x01), 0x01)\n        /* \"contracts/LuckyRedEnvelopeV2.sol\":6532:6550  defaultTicketToken */\n      and\n      swap2\n      0x00\n      swap2\n        /* \"contracts/LuckyRedEnvelopeV2.sol\":6562:6578  defaultAutoClaim */\n      0xff\n      swap1\n      swap2\n      and\n      swap1\n        /* \"contracts/LuckyRedEnvelopeV2.sol\":6450:6579  RedEnvelopeCreated(currentId,_endTime,_maxTickets,_maxPrizeNum,defaultTicketPirce,defaultTicketToken,address(0),defaultAutoClaim) */\n      tag_126\n      jump\t// in\n    tag_125:\n      mload(0x40)\n      dup1\n      swap2\n      sub\n      swap1\n      log2\n        /* \"@openzeppelin/contracts/utils/ReentrancyGuard.sol\":2398:2418  _nonReentrantAfter() */\n      tag_127\n        /* \"@openzeppelin/contracts/utils/ReentrancyGuard.sol\":1713:1714  1 */\n      0x01\n        /* \"@openzeppelin/contracts/utils/ReentrancyGuard.sol\":2924:2931  _status */\n      0x00\n        /* \"@openzeppelin/contracts/utils/ReentrancyGuard.sol\":2924:2945  _status = NOT_ENTERED */\n      sstore\n        /* \"@openzeppelin/contracts/utils/ReentrancyGuard.sol\":2744:2952  function _nonReentrantAfter() private {... */\n      jump\n        /* \"@openzeppelin/contracts/utils/ReentrancyGuard.sol\":2398:2418  _nonReentrantAfter() */\n    tag_127:\n        /* \"contracts/LuckyRedEnvelopeV2.sol\":6112:6587  function createRedEnvelope(... */\n      pop\n      pop\n      pop\n      pop\n      jump\t// out\n        /* \"contracts/LuckyRedEnvelopeV2.sol\":12893:13429  function endRedEnvelope(... */\n    tag_36:\n        /* \"contracts/LuckyRedEnvelopeV2.sol\":2462:2472  msg.sender */\n      caller\n        /* \"contracts/LuckyRedEnvelopeV2.sol\":2442:2473  operatorAddressList[msg.sender] */\n      0x00\n      swap1\n      dup2\n      mstore\n        /* \"contracts/LuckyRedEnvelopeV2.sol\":2442:2461  operatorAddressList */\n      0x06\n        /* \"contracts/LuckyRedEnvelopeV2.sol\":2442:2473  operatorAddressList[msg.sender] */\n      0x20\n      mstore\n      0x40\n      swap1\n      keccak256\n      sload\n      0xff\n      and\n        /* \"contracts/LuckyRedEnvelopeV2.sol\":2442:2481  operatorAddressList[msg.sender] == true */\n      iszero\n      iszero\n        /* \"contracts/LuckyRedEnvelopeV2.sol\":2442:2473  operatorAddressList[msg.sender] */\n      0x01\n        /* \"contracts/LuckyRedEnvelopeV2.sol\":2442:2481  operatorAddressList[msg.sender] == true */\n      eq\n        /* \"contracts/LuckyRedEnvelopeV2.sol\":2434:2498  require(operatorAddressList[msg.sender] == true, \"Not operator\") */\n      tag_130\n      jumpi\n      mload(0x40)\n      shl(0xe5, 0x461bcd)\n      dup2\n      mstore\n      0x04\n      add\n      tag_117\n      swap1\n      tag_118\n      jump\t// in\n    tag_130:\n        /* \"@openzeppelin/contracts/utils/ReentrancyGuard.sol\":2356:2377  _nonReentrantBefore() */\n      tag_133\n        /* \"@openzeppelin/contracts/utils/ReentrancyGuard.sol\":2356:2375  _nonReentrantBefore */\n      tag_121\n        /* \"@openzeppelin/contracts/utils/ReentrancyGuard.sol\":2356:2377  _nonReentrantBefore() */\n      jump\t// in\n    tag_133:\n        /* \"contracts/LuckyRedEnvelopeV2.sol\":13027:13038  Status.Open */\n      0x01\n        /* \"contracts/LuckyRedEnvelopeV2.sol\":12998:13016  _redEnvelopes[_id] */\n      0x00\n      dup3\n      dup2\n      mstore\n        /* \"contracts/LuckyRedEnvelopeV2.sol\":12998:13011  _redEnvelopes */\n      0x07\n        /* \"contracts/LuckyRedEnvelopeV2.sol\":12998:13016  _redEnvelopes[_id] */\n      0x20\n      mstore\n      0x40\n      swap1\n      keccak256\n        /* \"contracts/LuckyRedEnvelopeV2.sol\":12998:13023  _redEnvelopes[_id].status */\n      sload\n      shl(0xa0, 0x01)\n      swap1\n      div\n      0xff\n      and\n        /* \"contracts/LuckyRedEnvelopeV2.sol\":12998:13038  _redEnvelopes[_id].status == Status.Open */\n      0x03\n      dup2\n      gt\n      iszero\n      tag_139\n      jumpi\n      tag_139\n      tag_137\n      jump\t// in\n    tag_139:\n      eq\n        /* \"contracts/LuckyRedEnvelopeV2.sol\":12990:13066  require(_redEnvelopes[_id].status == Status.Open, \"RedEnvelope is not open\") */\n      tag_140\n      jumpi\n      mload(0x40)\n      shl(0xe5, 0x461bcd)\n      dup2\n      mstore\n      0x04\n      add\n      tag_117\n      swap1\n      tag_142\n      jump\t// in\n    tag_140:\n        /* \"contracts/LuckyRedEnvelopeV2.sol\":13232:13250  _redEnvelopes[_id] */\n      0x00\n      dup2\n      dup2\n      mstore\n        /* \"contracts/LuckyRedEnvelopeV2.sol\":13232:13245  _redEnvelopes */\n      0x07\n        /* \"contracts/LuckyRedEnvelopeV2.sol\":13232:13250  _redEnvelopes[_id] */\n      0x20\n      swap1\n      dup2\n      mstore\n      0x40\n      swap2\n      dup3\n      swap1\n      keccak256\n        /* \"contracts/LuckyRedEnvelopeV2.sol\":13232:13272  _redEnvelopes[_id].status = Status.Close */\n      dup1\n      sload\n      not(shl(0xa0, 0xff))\n      and\n      shl(0xa1, 0x01)\n      or\n      dup2\n      sstore\n        /* \"contracts/LuckyRedEnvelopeV2.sol\":13328:13357  _redEnvelopes[_id].buyTickets */\n      0x04\n      dup2\n      add\n      sload\n        /* \"contracts/LuckyRedEnvelopeV2.sol\":13358:13387  _redEnvelopes[_id].getTickets */\n      0x05\n      dup3\n      add\n      sload\n        /* \"contracts/LuckyRedEnvelopeV2.sol\":13388:13420  _redEnvelopes[_id].injectTickets */\n      0x06\n      swap1\n      swap3\n      add\n      sload\n        /* \"contracts/LuckyRedEnvelopeV2.sol\":13290:13421  RedEnvelopeClosed(_id,block.timestamp,_redEnvelopes[_id].buyTickets,_redEnvelopes[_id].getTickets,_redEnvelopes[_id].injectTickets) */\n      dup5\n      mload\n        /* \"contracts/LuckyRedEnvelopeV2.sol\":13312:13327  block.timestamp */\n      timestamp\n        /* \"#utility.yul\":7843:7868   */\n      dup2\n      mstore\n        /* \"#utility.yul\":7884:7902   */\n      swap4\n      dup5\n      add\n        /* \"#utility.yul\":7877:7911   */\n      swap2\n      swap1\n      swap2\n      mstore\n        /* \"#utility.yul\":7927:7945   */\n      dup3\n      dup5\n      add\n        /* \"#utility.yul\":7920:7954   */\n      swap2\n      swap1\n      swap2\n      mstore\n        /* \"#utility.yul\":7985:7987   */\n      0x60\n        /* \"#utility.yul\":7970:7988   */\n      dup3\n      add\n        /* \"#utility.yul\":7963:7997   */\n      mstore\n        /* \"contracts/LuckyRedEnvelopeV2.sol\":13290:13421  RedEnvelopeClosed(_id,block.timestamp,_redEnvelopes[_id].buyTickets,_redEnvelopes[_id].getTickets,_redEnvelopes[_id].injectTickets) */\n      swap1\n      mload\n        /* \"contracts/LuckyRedEnvelopeV2.sol\":13232:13250  _redEnvelopes[_id] */\n      dup3\n      swap2\n        /* \"contracts/LuckyRedEnvelopeV2.sol\":13290:13421  RedEnvelopeClosed(_id,block.timestamp,_redEnvelopes[_id].buyTickets,_redEnvelopes[_id].getTickets,_redEnvelopes[_id].injectTickets) */\n      0x8e8517d306c35510333dea682099e81a1454bbf42be03c51d19d593ad811bb70\n      swap2\n      swap1\n      dup2\n      swap1\n      sub\n        /* \"#utility.yul\":7830:7833   */\n      0x80\n        /* \"contracts/LuckyRedEnvelopeV2.sol\":13290:13421  RedEnvelopeClosed(_id,block.timestamp,_redEnvelopes[_id].buyTickets,_redEnvelopes[_id].getTickets,_redEnvelopes[_id].injectTickets) */\n      add\n      swap1\n      log2\n        /* \"@openzeppelin/contracts/utils/ReentrancyGuard.sol\":2398:2418  _nonReentrantAfter() */\n      tag_147\n        /* \"@openzeppelin/contracts/utils/ReentrancyGuard.sol\":1713:1714  1 */\n      0x01\n        /* \"@openzeppelin/contracts/utils/ReentrancyGuard.sol\":2924:2931  _status */\n      0x00\n        /* \"@openzeppelin/contracts/utils/ReentrancyGuard.sol\":2924:2945  _status = NOT_ENTERED */\n      sstore\n        /* \"@openzeppelin/contracts/utils/ReentrancyGuard.sol\":2744:2952  function _nonReentrantAfter() private {... */\n      jump\n        /* \"@openzeppelin/contracts/utils/ReentrancyGuard.sol\":2398:2418  _nonReentrantAfter() */\n    tag_147:\n        /* \"contracts/LuckyRedEnvelopeV2.sol\":12893:13429  function endRedEnvelope(... */\n      pop\n      jump\t// out\n        /* \"contracts/LuckyRedEnvelopeV2.sol\":10678:11665  function getTickets(... */\n    tag_40:\n        /* \"@openzeppelin/contracts/utils/ReentrancyGuard.sol\":2356:2377  _nonReentrantBefore() */\n      tag_149\n        /* \"@openzeppelin/contracts/utils/ReentrancyGuard.sol\":2356:2375  _nonReentrantBefore */\n      tag_121\n        /* \"@openzeppelin/contracts/utils/ReentrancyGuard.sol\":2356:2377  _nonReentrantBefore() */\n      jump\t// in\n    tag_149:\n        /* \"contracts/LuckyRedEnvelopeV2.sol\":10862:10873  Status.Open */\n      0x01\n        /* \"contracts/LuckyRedEnvelopeV2.sol\":10833:10851  _redEnvelopes[_id] */\n      0x00\n      dup5\n      dup2\n      mstore\n        /* \"contracts/LuckyRedEnvelopeV2.sol\":10833:10846  _redEnvelopes */\n      0x07\n        /* \"contracts/LuckyRedEnvelopeV2.sol\":10833:10851  _redEnvelopes[_id] */\n      0x20\n      mstore\n      0x40\n      swap1\n      keccak256\n        /* \"contracts/LuckyRedEnvelopeV2.sol\":10833:10858  _redEnvelopes[_id].status */\n      sload\n      shl(0xa0, 0x01)\n      swap1\n      div\n      0xff\n      and\n        /* \"contracts/LuckyRedEnvelopeV2.sol\":10833:10873  _redEnvelopes[_id].status == Status.Open */\n      0x03\n      dup2\n      gt\n      iszero\n      tag_154\n      jumpi\n      tag_154\n      tag_137\n      jump\t// in\n    tag_154:\n      eq\n        /* \"contracts/LuckyRedEnvelopeV2.sol\":10825:10901  require(_redEnvelopes[_id].status == Status.Open, \"RedEnvelope is not open\") */\n      tag_155\n      jumpi\n      mload(0x40)\n      shl(0xe5, 0x461bcd)\n      dup2\n      mstore\n      0x04\n      add\n      tag_117\n      swap1\n      tag_142\n      jump\t// in\n    tag_155:\n        /* \"contracts/LuckyRedEnvelopeV2.sol\":10964:10965  0 */\n      0x00\n        /* \"contracts/LuckyRedEnvelopeV2.sol\":10920:10938  _redEnvelopes[_id] */\n      dup4\n      dup2\n      mstore\n        /* \"contracts/LuckyRedEnvelopeV2.sol\":10920:10933  _redEnvelopes */\n      0x07\n        /* \"contracts/LuckyRedEnvelopeV2.sol\":10920:10938  _redEnvelopes[_id] */\n      0x20\n      mstore\n      0x40\n      swap1\n      keccak256\n        /* \"contracts/LuckyRedEnvelopeV2.sol\":10920:10952  _redEnvelopes[_id].getTicketAddr */\n      0x0b\n      add\n      sload\n      sub(shl(0xa0, 0x01), 0x01)\n      and\n        /* \"contracts/LuckyRedEnvelopeV2.sol\":10912:10990  require(_redEnvelopes[_id].getTicketAddr != address(0), \"no get ticket model\") */\n      tag_157\n      jumpi\n      mload(0x40)\n      shl(0xe5, 0x461bcd)\n      dup2\n      mstore\n        /* \"#utility.yul\":8210:8212   */\n      0x20\n        /* \"contracts/LuckyRedEnvelopeV2.sol\":10912:10990  require(_redEnvelopes[_id].getTicketAddr != address(0), \"no get ticket model\") */\n      0x04\n      dup3\n      add\n        /* \"#utility.yul\":8192:8213   */\n      mstore\n        /* \"#utility.yul\":8249:8251   */\n      0x13\n        /* \"#utility.yul\":8229:8247   */\n      0x24\n      dup3\n      add\n        /* \"#utility.yul\":8222:8252   */\n      mstore\n      shl(0x6a, 0x1b9bc819d95d081d1a58dad95d081b5bd9195b)\n        /* \"#utility.yul\":8268:8286   */\n      0x44\n      dup3\n      add\n        /* \"#utility.yul\":8261:8310   */\n      mstore\n        /* \"#utility.yul\":8327:8345   */\n      0x64\n      add\n        /* \"contracts/LuckyRedEnvelopeV2.sol\":10912:10990  require(_redEnvelopes[_id].getTicketAddr != address(0), \"no get ticket model\") */\n      tag_117\n        /* \"#utility.yul\":8008:8351   */\n      jump\n        /* \"contracts/LuckyRedEnvelopeV2.sol\":10912:10990  require(_redEnvelopes[_id].getTicketAddr != address(0), \"no get ticket model\") */\n    tag_157:\n        /* \"contracts/LuckyRedEnvelopeV2.sol\":11009:11027  _redEnvelopes[_id] */\n      0x00\n      dup4\n      dup2\n      mstore\n        /* \"contracts/LuckyRedEnvelopeV2.sol\":11009:11022  _redEnvelopes */\n      0x07\n        /* \"contracts/LuckyRedEnvelopeV2.sol\":11009:11027  _redEnvelopes[_id] */\n      0x20\n      mstore\n      0x40\n      swap1\n      keccak256\n        /* \"contracts/LuckyRedEnvelopeV2.sol\":11009:11041  _redEnvelopes[_id].getTicketAddr */\n      0x0b\n      add\n      sload\n      sub(shl(0xa0, 0x01), 0x01)\n      and\n        /* \"contracts/LuckyRedEnvelopeV2.sol\":11053:11063  msg.sender */\n      caller\n        /* \"contracts/LuckyRedEnvelopeV2.sol\":11009:11064  _redEnvelopes[_id].getTicketAddr == address(msg.sender) */\n      eq\n        /* \"contracts/LuckyRedEnvelopeV2.sol\":11001:11089  require(_redEnvelopes[_id].getTicketAddr == address(msg.sender), \"not allow get ticket\") */\n      tag_160\n      jumpi\n      mload(0x40)\n      shl(0xe5, 0x461bcd)\n      dup2\n      mstore\n        /* \"#utility.yul\":8558:8560   */\n      0x20\n        /* \"contracts/LuckyRedEnvelopeV2.sol\":11001:11089  require(_redEnvelopes[_id].getTicketAddr == address(msg.sender), \"not allow get ticket\") */\n      0x04\n      dup3\n      add\n        /* \"#utility.yul\":8540:8561   */\n      mstore\n        /* \"#utility.yul\":8597:8599   */\n      0x14\n        /* \"#utility.yul\":8577:8595   */\n      0x24\n      dup3\n      add\n        /* \"#utility.yul\":8570:8600   */\n      mstore\n      shl(0x62, 0x1b9bdd08185b1b1bddc819d95d081d1a58dad95d)\n        /* \"#utility.yul\":8616:8634   */\n      0x44\n      dup3\n      add\n        /* \"#utility.yul\":8609:8659   */\n      mstore\n        /* \"#utility.yul\":8676:8694   */\n      0x64\n      add\n        /* \"contracts/LuckyRedEnvelopeV2.sol\":11001:11089  require(_redEnvelopes[_id].getTicketAddr == address(msg.sender), \"not allow get ticket\") */\n      tag_117\n        /* \"#utility.yul\":8356:8700   */\n      jump\n        /* \"contracts/LuckyRedEnvelopeV2.sol\":11001:11089  require(_redEnvelopes[_id].getTicketAddr == address(msg.sender), \"not allow get ticket\") */\n    tag_160:\n        /* \"contracts/LuckyRedEnvelopeV2.sol\":11108:11122  _ticketNumbers */\n      dup1\n        /* \"contracts/LuckyRedEnvelopeV2.sol\":11126:11127  0 */\n      0x00\n        /* \"contracts/LuckyRedEnvelopeV2.sol\":11108:11127  _ticketNumbers != 0 */\n      sub\n        /* \"contracts/LuckyRedEnvelopeV2.sol\":11100:11153  require(_ticketNumbers != 0 ,\"ticketNumbers no zero\") */\n      tag_163\n      jumpi\n      mload(0x40)\n      shl(0xe5, 0x461bcd)\n      dup2\n      mstore\n        /* \"#utility.yul\":8907:8909   */\n      0x20\n        /* \"contracts/LuckyRedEnvelopeV2.sol\":11100:11153  require(_ticketNumbers != 0 ,\"ticketNumbers no zero\") */\n      0x04\n      dup3\n      add\n        /* \"#utility.yul\":8889:8910   */\n      mstore\n        /* \"#utility.yul\":8946:8948   */\n      0x15\n        /* \"#utility.yul\":8926:8944   */\n      0x24\n      dup3\n      add\n        /* \"#utility.yul\":8919:8949   */\n      mstore\n      shl(0x58, 0x7469636b65744e756d62657273206e6f207a65726f)\n        /* \"#utility.yul\":8965:8983   */\n      0x44\n      dup3\n      add\n        /* \"#utility.yul\":8958:9009   */\n      mstore\n        /* \"#utility.yul\":9026:9044   */\n      0x64\n      add\n        /* \"contracts/LuckyRedEnvelopeV2.sol\":11100:11153  require(_ticketNumbers != 0 ,\"ticketNumbers no zero\") */\n      tag_117\n        /* \"#utility.yul\":8705:9050   */\n      jump\n        /* \"contracts/LuckyRedEnvelopeV2.sol\":11100:11153  require(_ticketNumbers != 0 ,\"ticketNumbers no zero\") */\n    tag_163:\n        /* \"contracts/LuckyRedEnvelopeV2.sol\":11168:11186  _redEnvelopes[_id] */\n      0x00\n      dup4\n      dup2\n      mstore\n        /* \"contracts/LuckyRedEnvelopeV2.sol\":11168:11181  _redEnvelopes */\n      0x07\n        /* \"contracts/LuckyRedEnvelopeV2.sol\":11168:11186  _redEnvelopes[_id] */\n      0x20\n      mstore\n      0x40\n      swap1\n      keccak256\n        /* \"contracts/LuckyRedEnvelopeV2.sol\":11168:11194  _redEnvelopes[_id].endTime */\n      0x01\n      add\n      sload\n        /* \"contracts/LuckyRedEnvelopeV2.sol\":11168:11199  _redEnvelopes[_id].endTime != 0 */\n      iszero\n        /* \"contracts/LuckyRedEnvelopeV2.sol\":11164:11308  if (_redEnvelopes[_id].endTime != 0){... */\n      tag_167\n      jumpi\n        /* \"contracts/LuckyRedEnvelopeV2.sol\":11241:11259  _redEnvelopes[_id] */\n      0x00\n      dup4\n      dup2\n      mstore\n        /* \"contracts/LuckyRedEnvelopeV2.sol\":11241:11254  _redEnvelopes */\n      0x07\n        /* \"contracts/LuckyRedEnvelopeV2.sol\":11241:11259  _redEnvelopes[_id] */\n      0x20\n      mstore\n      0x40\n      swap1\n      keccak256\n        /* \"contracts/LuckyRedEnvelopeV2.sol\":11241:11267  _redEnvelopes[_id].endTime */\n      0x01\n      add\n      sload\n        /* \"contracts/LuckyRedEnvelopeV2.sol\":11223:11238  block.timestamp */\n      timestamp\n        /* \"contracts/LuckyRedEnvelopeV2.sol\":11223:11267  block.timestamp < _redEnvelopes[_id].endTime */\n      lt\n        /* \"contracts/LuckyRedEnvelopeV2.sol\":11215:11296  require(block.timestamp < _redEnvelopes[_id].endTime, \"RedEnvelope is over time\") */\n      tag_167\n      jumpi\n      mload(0x40)\n      shl(0xe5, 0x461bcd)\n      dup2\n      mstore\n      0x04\n      add\n      tag_117\n      swap1\n      tag_169\n      jump\t// in\n    tag_167:\n        /* \"contracts/LuckyRedEnvelopeV2.sol\":11322:11340  _redEnvelopes[_id] */\n      0x00\n      dup4\n      dup2\n      mstore\n        /* \"contracts/LuckyRedEnvelopeV2.sol\":11322:11335  _redEnvelopes */\n      0x07\n        /* \"contracts/LuckyRedEnvelopeV2.sol\":11322:11340  _redEnvelopes[_id] */\n      0x20\n      mstore\n      0x40\n      swap1\n      keccak256\n        /* \"contracts/LuckyRedEnvelopeV2.sol\":11322:11351  _redEnvelopes[_id].maxTickets */\n      0x02\n      add\n      sload\n        /* \"contracts/LuckyRedEnvelopeV2.sol\":11322:11356  _redEnvelopes[_id].maxTickets != 0 */\n      iszero\n        /* \"contracts/LuckyRedEnvelopeV2.sol\":11318:11502  if (_redEnvelopes[_id].maxTickets != 0){... */\n      tag_173\n      jumpi\n        /* \"contracts/LuckyRedEnvelopeV2.sol\":11430:11448  _redEnvelopes[_id] */\n      0x00\n      dup4\n      dup2\n      mstore\n        /* \"contracts/LuckyRedEnvelopeV2.sol\":11430:11443  _redEnvelopes */\n      0x07\n        /* \"contracts/LuckyRedEnvelopeV2.sol\":11430:11448  _redEnvelopes[_id] */\n      0x20\n      mstore\n      0x40\n      swap1\n      keccak256\n        /* \"contracts/LuckyRedEnvelopeV2.sol\":11430:11459  _redEnvelopes[_id].maxTickets */\n      0x02\n      dup2\n      add\n      sload\n        /* \"contracts/LuckyRedEnvelopeV2.sol\":11380:11409  _redEnvelopes[_id].buyTickets */\n      0x04\n      swap1\n      swap2\n      add\n      sload\n        /* \"contracts/LuckyRedEnvelopeV2.sol\":11380:11426  _redEnvelopes[_id].buyTickets + _ticketNumbers */\n      tag_171\n      swap1\n        /* \"contracts/LuckyRedEnvelopeV2.sol\":11412:11426  _ticketNumbers */\n      dup4\n      swap1\n        /* \"contracts/LuckyRedEnvelopeV2.sol\":11380:11426  _redEnvelopes[_id].buyTickets + _ticketNumbers */\n      tag_172\n      jump\t// in\n    tag_171:\n        /* \"contracts/LuckyRedEnvelopeV2.sol\":11380:11459  _redEnvelopes[_id].buyTickets + _ticketNumbers <= _redEnvelopes[_id].maxTickets */\n      gt\n      iszero\n        /* \"contracts/LuckyRedEnvelopeV2.sol\":11372:11490  require(_redEnvelopes[_id].buyTickets + _ticketNumbers <= _redEnvelopes[_id].maxTickets, \"RedEnvelope is over ticket\") */\n      tag_173\n      jumpi\n      mload(0x40)\n      shl(0xe5, 0x461bcd)\n      dup2\n      mstore\n        /* \"#utility.yul\":9872:9874   */\n      0x20\n        /* \"contracts/LuckyRedEnvelopeV2.sol\":11372:11490  require(_redEnvelopes[_id].buyTickets + _ticketNumbers <= _redEnvelopes[_id].maxTickets, \"RedEnvelope is over ticket\") */\n      0x04\n      dup3\n      add\n        /* \"#utility.yul\":9854:9875   */\n      mstore\n        /* \"#utility.yul\":9911:9913   */\n      0x1a\n        /* \"#utility.yul\":9891:9909   */\n      0x24\n      dup3\n      add\n        /* \"#utility.yul\":9884:9914   */\n      mstore\n        /* \"#utility.yul\":9950:9978   */\n      0x526564456e76656c6f7065206973206f766572207469636b6574000000000000\n        /* \"#utility.yul\":9930:9948   */\n      0x44\n      dup3\n      add\n        /* \"#utility.yul\":9923:9979   */\n      mstore\n        /* \"#utility.yul\":9996:10014   */\n      0x64\n      add\n        /* \"contracts/LuckyRedEnvelopeV2.sol\":11372:11490  require(_redEnvelopes[_id].buyTickets + _ticketNumbers <= _redEnvelopes[_id].maxTickets, \"RedEnvelope is over ticket\") */\n      tag_117\n        /* \"#utility.yul\":9670:10020   */\n      jump\n        /* \"contracts/LuckyRedEnvelopeV2.sol\":11372:11490  require(_redEnvelopes[_id].buyTickets + _ticketNumbers <= _redEnvelopes[_id].maxTickets, \"RedEnvelope is over ticket\") */\n    tag_173:\n        /* \"contracts/LuckyRedEnvelopeV2.sol\":11512:11565  _fillTicket(_id,_receiveAddress,_ticketNumbers,false) */\n      tag_176\n        /* \"contracts/LuckyRedEnvelopeV2.sol\":11524:11527  _id */\n      dup4\n        /* \"contracts/LuckyRedEnvelopeV2.sol\":11528:11543  _receiveAddress */\n      dup4\n        /* \"contracts/LuckyRedEnvelopeV2.sol\":11544:11558  _ticketNumbers */\n      dup4\n        /* \"contracts/LuckyRedEnvelopeV2.sol\":11559:11564  false */\n      0x00\n        /* \"contracts/LuckyRedEnvelopeV2.sol\":11512:11523  _fillTicket */\n      tag_177\n        /* \"contracts/LuckyRedEnvelopeV2.sol\":11512:11565  _fillTicket(_id,_receiveAddress,_ticketNumbers,false) */\n      jump\t// in\n    tag_176:\n        /* \"contracts/LuckyRedEnvelopeV2.sol\":11626:11641  _receiveAddress */\n      dup2\n      sub(shl(0xa0, 0x01), 0x01)\n        /* \"contracts/LuckyRedEnvelopeV2.sol\":11591:11657  TicketsGet(_id,address(msg.sender),_receiveAddress,_ticketNumbers) */\n      and\n        /* \"contracts/LuckyRedEnvelopeV2.sol\":11614:11624  msg.sender */\n      caller\n      sub(shl(0xa0, 0x01), 0x01)\n        /* \"contracts/LuckyRedEnvelopeV2.sol\":11591:11657  TicketsGet(_id,address(msg.sender),_receiveAddress,_ticketNumbers) */\n      and\n        /* \"contracts/LuckyRedEnvelopeV2.sol\":11602:11605  _id */\n      dup5\n        /* \"contracts/LuckyRedEnvelopeV2.sol\":11591:11657  TicketsGet(_id,address(msg.sender),_receiveAddress,_ticketNumbers) */\n      0x0cdb228e331696a3755ff9db076df661228408ca1178178951e48ae952567c1f\n        /* \"contracts/LuckyRedEnvelopeV2.sol\":11642:11656  _ticketNumbers */\n      dup5\n        /* \"contracts/LuckyRedEnvelopeV2.sol\":11591:11657  TicketsGet(_id,address(msg.sender),_receiveAddress,_ticketNumbers) */\n      mload(0x40)\n      tag_178\n      swap2\n        /* \"#utility.yul\":2246:2271   */\n      dup2\n      mstore\n        /* \"#utility.yul\":2234:2236   */\n      0x20\n        /* \"#utility.yul\":2219:2237   */\n      add\n      swap1\n        /* \"#utility.yul\":2100:2277   */\n      jump\n        /* \"contracts/LuckyRedEnvelopeV2.sol\":11591:11657  TicketsGet(_id,address(msg.sender),_receiveAddress,_ticketNumbers) */\n    tag_178:\n      mload(0x40)\n      dup1\n      swap2\n      sub\n      swap1\n      log4\n        /* \"@openzeppelin/contracts/utils/ReentrancyGuard.sol\":2398:2418  _nonReentrantAfter() */\n      tag_179\n        /* \"@openzeppelin/contracts/utils/ReentrancyGuard.sol\":1713:1714  1 */\n      0x01\n        /* \"@openzeppelin/contracts/utils/ReentrancyGuard.sol\":2924:2931  _status */\n      0x00\n        /* \"@openzeppelin/contracts/utils/ReentrancyGuard.sol\":2924:2945  _status = NOT_ENTERED */\n      sstore\n        /* \"@openzeppelin/contracts/utils/ReentrancyGuard.sol\":2744:2952  function _nonReentrantAfter() private {... */\n      jump\n        /* \"@openzeppelin/contracts/utils/ReentrancyGuard.sol\":2398:2418  _nonReentrantAfter() */\n    tag_179:\n        /* \"contracts/LuckyRedEnvelopeV2.sol\":10678:11665  function getTickets(... */\n      pop\n      pop\n      pop\n      jump\t// out\n        /* \"contracts/LuckyRedEnvelopeV2.sol\":6821:7708  function createRedEnvelopeDetail(... */\n    tag_44:\n        /* \"contracts/LuckyRedEnvelopeV2.sol\":2462:2472  msg.sender */\n      caller\n        /* \"contracts/LuckyRedEnvelopeV2.sol\":2442:2473  operatorAddressList[msg.sender] */\n      0x00\n      swap1\n      dup2\n      mstore\n        /* \"contracts/LuckyRedEnvelopeV2.sol\":2442:2461  operatorAddressList */\n      0x06\n        /* \"contracts/LuckyRedEnvelopeV2.sol\":2442:2473  operatorAddressList[msg.sender] */\n      0x20\n      mstore\n      0x40\n      swap1\n      keccak256\n      sload\n      0xff\n      and\n        /* \"contracts/LuckyRedEnvelopeV2.sol\":2442:2481  operatorAddressList[msg.sender] == true */\n      iszero\n      iszero\n        /* \"contracts/LuckyRedEnvelopeV2.sol\":2442:2473  operatorAddressList[msg.sender] */\n      0x01\n        /* \"contracts/LuckyRedEnvelopeV2.sol\":2442:2481  operatorAddressList[msg.sender] == true */\n      eq\n        /* \"contracts/LuckyRedEnvelopeV2.sol\":2434:2498  require(operatorAddressList[msg.sender] == true, \"Not operator\") */\n      tag_181\n      jumpi\n      mload(0x40)\n      shl(0xe5, 0x461bcd)\n      dup2\n      mstore\n      0x04\n      add\n      tag_117\n      swap1\n      tag_118\n      jump\t// in\n    tag_181:\n        /* \"@openzeppelin/contracts/utils/ReentrancyGuard.sol\":2356:2377  _nonReentrantBefore() */\n      tag_184\n        /* \"@openzeppelin/contracts/utils/ReentrancyGuard.sol\":2356:2375  _nonReentrantBefore */\n      tag_121\n        /* \"@openzeppelin/contracts/utils/ReentrancyGuard.sol\":2356:2377  _nonReentrantBefore() */\n      jump\t// in\n    tag_184:\n        /* \"contracts/LuckyRedEnvelopeV2.sol\":7209:7322  _createRedEnvelope(_tokenAddress,_ticketPirce,_endTime,_maxTickets,... */\n      tag_186\n        /* \"contracts/LuckyRedEnvelopeV2.sol\":7228:7241  _tokenAddress */\n      dup11\n        /* \"contracts/LuckyRedEnvelopeV2.sol\":7242:7254  _ticketPirce */\n      dup11\n        /* \"contracts/LuckyRedEnvelopeV2.sol\":7255:7263  _endTime */\n      dup11\n        /* \"contracts/LuckyRedEnvelopeV2.sol\":7264:7275  _maxTickets */\n      dup11\n        /* \"contracts/LuckyRedEnvelopeV2.sol\":7290:7302  _maxPrizeNum */\n      dup11\n        /* \"contracts/LuckyRedEnvelopeV2.sol\":7303:7310  _secret */\n      dup8\n        /* \"contracts/LuckyRedEnvelopeV2.sol\":7311:7321  _autoClaim */\n      dup8\n        /* \"contracts/LuckyRedEnvelopeV2.sol\":7209:7227  _createRedEnvelope */\n      tag_124\n        /* \"contracts/LuckyRedEnvelopeV2.sol\":7209:7322  _createRedEnvelope(_tokenAddress,_ticketPirce,_endTime,_maxTickets,... */\n      jump\t// in\n    tag_186:\n        /* \"contracts/LuckyRedEnvelopeV2.sol\":7374:7388  _getTicketAddr */\n      dup3\n        /* \"contracts/LuckyRedEnvelopeV2.sol\":7333:7346  _redEnvelopes */\n      0x07\n        /* \"contracts/LuckyRedEnvelopeV2.sol\":7333:7357  _redEnvelopes[currentId] */\n      0x00\n        /* \"contracts/LuckyRedEnvelopeV2.sol\":7347:7356  currentId */\n      sload(0x03)\n        /* \"contracts/LuckyRedEnvelopeV2.sol\":7333:7357  _redEnvelopes[currentId] */\n      dup2\n      mstore\n      0x20\n      add\n      swap1\n      dup2\n      mstore\n      0x20\n      add\n      0x00\n      keccak256\n        /* \"contracts/LuckyRedEnvelopeV2.sol\":7333:7371  _redEnvelopes[currentId].getTicketAddr */\n      0x0b\n      add\n      0x00\n        /* \"contracts/LuckyRedEnvelopeV2.sol\":7333:7388  _redEnvelopes[currentId].getTicketAddr = _getTicketAddr */\n      0x0100\n      exp\n      dup2\n      sload\n      dup2\n      sub(shl(0xa0, 0x01), 0x01)\n      mul\n      not\n      and\n      swap1\n      dup4\n      sub(shl(0xa0, 0x01), 0x01)\n      and\n      mul\n      or\n      swap1\n      sstore\n      pop\n        /* \"contracts/LuckyRedEnvelopeV2.sol\":7425:7434  currentId */\n      sload(0x03)\n        /* \"contracts/LuckyRedEnvelopeV2.sol\":7406:7522  RedEnvelopeCreated(currentId,_endTime,_maxTickets,_maxPrizeNum,_ticketPirce,_tokenAddress,_getTicketAddr,_autoClaim) */\n      0xd1e3ee1889517a916aeecc9d0b214ca142fce1f8562cd5e9071876b998ec7eea\n        /* \"contracts/LuckyRedEnvelopeV2.sol\":7435:7443  _endTime */\n      dup10\n        /* \"contracts/LuckyRedEnvelopeV2.sol\":7444:7455  _maxTickets */\n      dup10\n        /* \"contracts/LuckyRedEnvelopeV2.sol\":7456:7468  _maxPrizeNum */\n      dup10\n        /* \"contracts/LuckyRedEnvelopeV2.sol\":7469:7481  _ticketPirce */\n      dup14\n        /* \"contracts/LuckyRedEnvelopeV2.sol\":7482:7495  _tokenAddress */\n      dup16\n        /* \"contracts/LuckyRedEnvelopeV2.sol\":7496:7510  _getTicketAddr */\n      dup10\n        /* \"contracts/LuckyRedEnvelopeV2.sol\":7511:7521  _autoClaim */\n      dup9\n        /* \"contracts/LuckyRedEnvelopeV2.sol\":7406:7522  RedEnvelopeCreated(currentId,_endTime,_maxTickets,_maxPrizeNum,_ticketPirce,_tokenAddress,_getTicketAddr,_autoClaim) */\n      mload(0x40)\n      tag_187\n      swap8\n      swap7\n      swap6\n      swap5\n      swap4\n      swap3\n      swap2\n      swap1\n      tag_126\n      jump\t// in\n    tag_187:\n      mload(0x40)\n      dup1\n      swap2\n      sub\n      swap1\n      log2\n        /* \"contracts/LuckyRedEnvelopeV2.sol\":7537:7557  _injectTicketNum > 0 */\n      dup4\n      iszero\n        /* \"contracts/LuckyRedEnvelopeV2.sol\":7533:7701  if (_injectTicketNum > 0){... */\n      tag_189\n      jumpi\n        /* \"contracts/LuckyRedEnvelopeV2.sol\":7632:7689  _injectTickets(currentId,_injectAddress,_injectTicketNum) */\n      tag_189\n        /* \"contracts/LuckyRedEnvelopeV2.sol\":7647:7656  currentId */\n      sload(0x03)\n        /* \"contracts/LuckyRedEnvelopeV2.sol\":7657:7671  _injectAddress */\n      dup7\n        /* \"contracts/LuckyRedEnvelopeV2.sol\":7672:7688  _injectTicketNum */\n      dup7\n        /* \"contracts/LuckyRedEnvelopeV2.sol\":7632:7646  _injectTickets */\n      tag_190\n        /* \"contracts/LuckyRedEnvelopeV2.sol\":7632:7689  _injectTickets(currentId,_injectAddress,_injectTicketNum) */\n      jump\t// in\n    tag_189:\n        /* \"@openzeppelin/contracts/utils/ReentrancyGuard.sol\":2398:2418  _nonReentrantAfter() */\n      tag_191\n        /* \"@openzeppelin/contracts/utils/ReentrancyGuard.sol\":1713:1714  1 */\n      0x01\n        /* \"@openzeppelin/contracts/utils/ReentrancyGuard.sol\":2924:2931  _status */\n      0x00\n        /* \"@openzeppelin/contracts/utils/ReentrancyGuard.sol\":2924:2945  _status = NOT_ENTERED */\n      sstore\n        /* \"@openzeppelin/contracts/utils/ReentrancyGuard.sol\":2744:2952  function _nonReentrantAfter() private {... */\n      jump\n        /* \"@openzeppelin/contracts/utils/ReentrancyGuard.sol\":2398:2418  _nonReentrantAfter() */\n    tag_191:\n        /* \"contracts/LuckyRedEnvelopeV2.sol\":6821:7708  function createRedEnvelopeDetail(... */\n      pop\n      pop\n      pop\n      pop\n      pop\n      pop\n      pop\n      pop\n      pop\n      pop\n      jump\t// out\n        /* \"contracts/LuckyRedEnvelopeV2.sol\":7716:8165  function injectTickets(uint256 _id,uint256 _ticketNumbers)external nonReentrant{... */\n    tag_52:\n        /* \"@openzeppelin/contracts/utils/ReentrancyGuard.sol\":2356:2377  _nonReentrantBefore() */\n      tag_193\n        /* \"@openzeppelin/contracts/utils/ReentrancyGuard.sol\":2356:2375  _nonReentrantBefore */\n      tag_121\n        /* \"@openzeppelin/contracts/utils/ReentrancyGuard.sol\":2356:2377  _nonReentrantBefore() */\n      jump\t// in\n    tag_193:\n        /* \"contracts/LuckyRedEnvelopeV2.sol\":7814:7828  _ticketNumbers */\n      dup1\n        /* \"contracts/LuckyRedEnvelopeV2.sol\":7832:7833  0 */\n      0x00\n        /* \"contracts/LuckyRedEnvelopeV2.sol\":7814:7833  _ticketNumbers != 0 */\n      sub\n        /* \"contracts/LuckyRedEnvelopeV2.sol\":7806:7851  require(_ticketNumbers != 0,\"inject no zero\") */\n      tag_195\n      jumpi\n      mload(0x40)\n      shl(0xe5, 0x461bcd)\n      dup2\n      mstore\n        /* \"#utility.yul\":10227:10229   */\n      0x20\n        /* \"contracts/LuckyRedEnvelopeV2.sol\":7806:7851  require(_ticketNumbers != 0,\"inject no zero\") */\n      0x04\n      dup3\n      add\n        /* \"#utility.yul\":10209:10230   */\n      mstore\n        /* \"#utility.yul\":10266:10268   */\n      0x0e\n        /* \"#utility.yul\":10246:10264   */\n      0x24\n      dup3\n      add\n        /* \"#utility.yul\":10239:10269   */\n      mstore\n      shl(0x90, 0x696e6a656374206e6f207a65726f)\n        /* \"#utility.yul\":10285:10303   */\n      0x44\n      dup3\n      add\n        /* \"#utility.yul\":10278:10322   */\n      mstore\n        /* \"#utility.yul\":10339:10357   */\n      0x64\n      add\n        /* \"contracts/LuckyRedEnvelopeV2.sol\":7806:7851  require(_ticketNumbers != 0,\"inject no zero\") */\n      tag_117\n        /* \"#utility.yul\":10025:10363   */\n      jump\n        /* \"contracts/LuckyRedEnvelopeV2.sol\":7806:7851  require(_ticketNumbers != 0,\"inject no zero\") */\n    tag_195:\n        /* \"contracts/LuckyRedEnvelopeV2.sol\":7899:7910  Status.Open */\n      0x01\n        /* \"contracts/LuckyRedEnvelopeV2.sol\":7870:7888  _redEnvelopes[_id] */\n      0x00\n      dup4\n      dup2\n      mstore\n        /* \"contracts/LuckyRedEnvelopeV2.sol\":7870:7883  _redEnvelopes */\n      0x07\n        /* \"contracts/LuckyRedEnvelopeV2.sol\":7870:7888  _redEnvelopes[_id] */\n      0x20\n      mstore\n      0x40\n      swap1\n      keccak256\n        /* \"contracts/LuckyRedEnvelopeV2.sol\":7870:7895  _redEnvelopes[_id].status */\n      sload\n      shl(0xa0, 0x01)\n      swap1\n      div\n      0xff\n      and\n        /* \"contracts/LuckyRedEnvelopeV2.sol\":7870:7910  _redEnvelopes[_id].status == Status.Open */\n      0x03\n      dup2\n      gt\n      iszero\n      tag_201\n      jumpi\n      tag_201\n      tag_137\n      jump\t// in\n    tag_201:\n      eq\n        /* \"contracts/LuckyRedEnvelopeV2.sol\":7862:7938  require(_redEnvelopes[_id].status == Status.Open, \"RedEnvelope is not open\") */\n      tag_202\n      jumpi\n      mload(0x40)\n      shl(0xe5, 0x461bcd)\n      dup2\n      mstore\n      0x04\n      add\n      tag_117\n      swap1\n      tag_142\n      jump\t// in\n    tag_202:\n        /* \"contracts/LuckyRedEnvelopeV2.sol\":7953:7971  _redEnvelopes[_id] */\n      0x00\n      dup3\n      dup2\n      mstore\n        /* \"contracts/LuckyRedEnvelopeV2.sol\":7953:7966  _redEnvelopes */\n      0x07\n        /* \"contracts/LuckyRedEnvelopeV2.sol\":7953:7971  _redEnvelopes[_id] */\n      0x20\n      mstore\n      0x40\n      swap1\n      keccak256\n        /* \"contracts/LuckyRedEnvelopeV2.sol\":7953:7979  _redEnvelopes[_id].endTime */\n      0x01\n      add\n      sload\n        /* \"contracts/LuckyRedEnvelopeV2.sol\":7953:7984  _redEnvelopes[_id].endTime != 0 */\n      iszero\n        /* \"contracts/LuckyRedEnvelopeV2.sol\":7949:8093  if (_redEnvelopes[_id].endTime != 0){... */\n      tag_205\n      jumpi\n        /* \"contracts/LuckyRedEnvelopeV2.sol\":8026:8044  _redEnvelopes[_id] */\n      0x00\n      dup3\n      dup2\n      mstore\n        /* \"contracts/LuckyRedEnvelopeV2.sol\":8026:8039  _redEnvelopes */\n      0x07\n        /* \"contracts/LuckyRedEnvelopeV2.sol\":8026:8044  _redEnvelopes[_id] */\n      0x20\n      mstore\n      0x40\n      swap1\n      keccak256\n        /* \"contracts/LuckyRedEnvelopeV2.sol\":8026:8052  _redEnvelopes[_id].endTime */\n      0x01\n      add\n      sload\n        /* \"contracts/LuckyRedEnvelopeV2.sol\":8008:8023  block.timestamp */\n      timestamp\n        /* \"contracts/LuckyRedEnvelopeV2.sol\":8008:8052  block.timestamp < _redEnvelopes[_id].endTime */\n      lt\n        /* \"contracts/LuckyRedEnvelopeV2.sol\":8000:8081  require(block.timestamp < _redEnvelopes[_id].endTime, \"RedEnvelope is over time\") */\n      tag_205\n      jumpi\n      mload(0x40)\n      shl(0xe5, 0x461bcd)\n      dup2\n      mstore\n      0x04\n      add\n      tag_117\n      swap1\n      tag_169\n      jump\t// in\n    tag_205:\n        /* \"contracts/LuckyRedEnvelopeV2.sol\":8103:8157  _injectTickets(_id,address(msg.sender),_ticketNumbers) */\n      tag_207\n        /* \"contracts/LuckyRedEnvelopeV2.sol\":8118:8121  _id */\n      dup3\n        /* \"contracts/LuckyRedEnvelopeV2.sol\":8130:8140  msg.sender */\n      caller\n        /* \"contracts/LuckyRedEnvelopeV2.sol\":8142:8156  _ticketNumbers */\n      dup4\n        /* \"contracts/LuckyRedEnvelopeV2.sol\":8103:8117  _injectTickets */\n      tag_190\n        /* \"contracts/LuckyRedEnvelopeV2.sol\":8103:8157  _injectTickets(_id,address(msg.sender),_ticketNumbers) */\n      jump\t// in\n    tag_207:\n        /* \"@openzeppelin/contracts/utils/ReentrancyGuard.sol\":2398:2418  _nonReentrantAfter() */\n      tag_208\n        /* \"@openzeppelin/contracts/utils/ReentrancyGuard.sol\":1713:1714  1 */\n      0x01\n        /* \"@openzeppelin/contracts/utils/ReentrancyGuard.sol\":2924:2931  _status */\n      0x00\n        /* \"@openzeppelin/contracts/utils/ReentrancyGuard.sol\":2924:2945  _status = NOT_ENTERED */\n      sstore\n        /* \"@openzeppelin/contracts/utils/ReentrancyGuard.sol\":2744:2952  function _nonReentrantAfter() private {... */\n      jump\n        /* \"@openzeppelin/contracts/utils/ReentrancyGuard.sol\":2398:2418  _nonReentrantAfter() */\n    tag_208:\n        /* \"contracts/LuckyRedEnvelopeV2.sol\":7716:8165  function injectTickets(uint256 _id,uint256 _ticketNumbers)external nonReentrant{... */\n      pop\n      pop\n      jump\t// out\n        /* \"@openzeppelin/contracts/access/Ownable.sol\":2293:2394  function renounceOwnership() public virtual onlyOwner {... */\n    tag_54:\n        /* \"@openzeppelin/contracts/access/Ownable.sol\":1531:1544  _checkOwner() */\n      tag_210\n        /* \"@openzeppelin/contracts/access/Ownable.sol\":1531:1542  _checkOwner */\n      tag_211\n        /* \"@openzeppelin/contracts/access/Ownable.sol\":1531:1544  _checkOwner() */\n      jump\t// in\n    tag_210:\n        /* \"@openzeppelin/contracts/access/Ownable.sol\":2357:2387  _transferOwnership(address(0)) */\n      tag_213\n        /* \"@openzeppelin/contracts/access/Ownable.sol\":2384:2385  0 */\n      0x00\n        /* \"@openzeppelin/contracts/access/Ownable.sol\":2357:2375  _transferOwnership */\n      tag_214\n        /* \"@openzeppelin/contracts/access/Ownable.sol\":2357:2387  _transferOwnership(address(0)) */\n      jump\t// in\n    tag_213:\n        /* \"@openzeppelin/contracts/access/Ownable.sol\":2293:2394  function renounceOwnership() public virtual onlyOwner {... */\n      jump\t// out\n        /* \"contracts/LuckyRedEnvelopeV2.sol\":20838:20961  function viewRedEnvelope(uint256 _id)external view returns (RedEnvelope memory){... */\n    tag_61:\n        /* \"contracts/LuckyRedEnvelopeV2.sol\":20898:20916  RedEnvelope memory */\n      tag_216\n      0x40\n      dup1\n      mload\n      0x01e0\n      dup2\n      add\n      swap1\n      swap2\n      mstore\n      0x00\n      dup1\n      dup3\n      mstore\n      0x20\n      dup3\n      add\n      swap1\n      dup2\n      mstore\n      0x20\n      add\n      0x00\n      dup2\n      mstore\n      0x20\n      add\n      0x00\n      dup2\n      mstore\n      0x20\n      add\n      0x00\n      dup2\n      mstore\n      0x20\n      add\n      0x00\n      dup2\n      mstore\n      0x20\n      add\n      0x00\n      dup2\n      mstore\n      0x20\n      add\n      0x00\n      dup2\n      mstore\n      0x20\n      add\n      0x00\n      dup2\n      mstore\n      0x20\n      add\n      0x00\n      dup2\n      mstore\n      0x20\n      add\n      0x00\n      dup2\n      mstore\n      0x20\n      add\n      0x00\n      dup2\n      mstore\n      0x20\n      add\n      and(sub(shl(0xa0, 0x01), 0x01), 0x00)\n      dup2\n      mstore\n      0x20\n      add\n      0x00\n      dup2\n      mstore\n      0x20\n      add\n      iszero(iszero(0x00))\n      dup2\n      mstore\n      pop\n      swap1\n      jump\n    tag_216:\n        /* \"contracts/LuckyRedEnvelopeV2.sol\":20935:20953  _redEnvelopes[_id] */\n      0x00\n      dup3\n      dup2\n      mstore\n        /* \"contracts/LuckyRedEnvelopeV2.sol\":20935:20948  _redEnvelopes */\n      0x07\n        /* \"contracts/LuckyRedEnvelopeV2.sol\":20935:20953  _redEnvelopes[_id] */\n      0x20\n      swap1\n      dup2\n      mstore\n      0x40\n      swap2\n      dup3\n      swap1\n      keccak256\n        /* \"contracts/LuckyRedEnvelopeV2.sol\":20928:20953  return _redEnvelopes[_id] */\n      dup3\n      mload\n      0x01e0\n      dup2\n      add\n      swap1\n      swap4\n      mstore\n      dup1\n      sload\n      sub(shl(0xa0, 0x01), 0x01)\n      dup2\n      and\n      dup5\n      mstore\n        /* \"contracts/LuckyRedEnvelopeV2.sol\":20935:20953  _redEnvelopes[_id] */\n      swap1\n      swap2\n        /* \"contracts/LuckyRedEnvelopeV2.sol\":20928:20953  return _redEnvelopes[_id] */\n      dup4\n      add\n      swap1\n      shl(0xa0, 0x01)\n      swap1\n      div\n      0xff\n      and\n      0x03\n      dup2\n      gt\n      iszero\n      tag_220\n      jumpi\n      tag_220\n      tag_137\n      jump\t// in\n    tag_220:\n      0x03\n      dup2\n      gt\n      iszero\n      tag_222\n      jumpi\n      tag_222\n      tag_137\n      jump\t// in\n    tag_222:\n      dup2\n      mstore\n      0x01\n      dup3\n      add\n      sload\n      0x20\n      dup3\n      add\n      mstore\n      0x02\n      dup3\n      add\n      sload\n      0x40\n      dup3\n      add\n      mstore\n      0x03\n      dup3\n      add\n      sload\n      0x60\n      dup3\n      add\n      mstore\n      0x04\n      dup3\n      add\n      sload\n      0x80\n      dup3\n      add\n      mstore\n      0x05\n      dup3\n      add\n      sload\n      0xa0\n      dup3\n      add\n      mstore\n      0x06\n      dup3\n      add\n      sload\n      0xc0\n      dup3\n      add\n      mstore\n      0x07\n      dup3\n      add\n      sload\n      0xe0\n      dup3\n      add\n      mstore\n      0x08\n      dup3\n      add\n      sload\n      0x0100\n      dup3\n      add\n      mstore\n      0x09\n      dup3\n      add\n      sload\n      0x0120\n      dup3\n      add\n      mstore\n      0x0a\n      dup3\n      add\n      sload\n      0x0140\n      dup3\n      add\n      mstore\n      0x0b\n      dup3\n      add\n      sload\n      sub(shl(0xa0, 0x01), 0x01)\n      and\n      0x0160\n      dup3\n      add\n      mstore\n      0x0c\n      dup3\n      add\n      sload\n      0x0180\n      dup3\n      add\n      mstore\n      0x0d\n      swap1\n      swap2\n      add\n      sload\n      0xff\n      and\n      iszero\n      iszero\n      0x01a0\n      swap1\n      swap2\n      add\n      mstore\n      swap3\n        /* \"contracts/LuckyRedEnvelopeV2.sol\":20838:20961  function viewRedEnvelope(uint256 _id)external view returns (RedEnvelope memory){... */\n      swap2\n      pop\n      pop\n      jump\t// out\n        /* \"contracts/LuckyRedEnvelopeV2.sol\":5098:5383  function setTicketToken(address _defaultTicketToken,uint256 _defaultTicketPirce) external onlyOperator{... */\n    tag_67:\n        /* \"contracts/LuckyRedEnvelopeV2.sol\":2462:2472  msg.sender */\n      caller\n        /* \"contracts/LuckyRedEnvelopeV2.sol\":2442:2473  operatorAddressList[msg.sender] */\n      0x00\n      swap1\n      dup2\n      mstore\n        /* \"contracts/LuckyRedEnvelopeV2.sol\":2442:2461  operatorAddressList */\n      0x06\n        /* \"contracts/LuckyRedEnvelopeV2.sol\":2442:2473  operatorAddressList[msg.sender] */\n      0x20\n      mstore\n      0x40\n      swap1\n      keccak256\n      sload\n      0xff\n      and\n        /* \"contracts/LuckyRedEnvelopeV2.sol\":2442:2481  operatorAddressList[msg.sender] == true */\n      iszero\n      iszero\n        /* \"contracts/LuckyRedEnvelopeV2.sol\":2442:2473  operatorAddressList[msg.sender] */\n      0x01\n        /* \"contracts/LuckyRedEnvelopeV2.sol\":2442:2481  operatorAddressList[msg.sender] == true */\n      eq\n        /* \"contracts/LuckyRedEnvelopeV2.sol\":2434:2498  require(operatorAddressList[msg.sender] == true, \"Not operator\") */\n      tag_224\n      jumpi\n      mload(0x40)\n      shl(0xe5, 0x461bcd)\n      dup2\n      mstore\n      0x04\n      add\n      tag_117\n      swap1\n      tag_118\n      jump\t// in\n    tag_224:\n        /* \"contracts/LuckyRedEnvelopeV2.sol\":5211:5229  defaultTicketToken */\n      0x02\n        /* \"contracts/LuckyRedEnvelopeV2.sol\":5211:5251  defaultTicketToken = _defaultTicketToken */\n      dup1\n      sload\n      not(sub(shl(0xa0, 0x01), 0x01))\n      and\n      sub(shl(0xa0, 0x01), 0x01)\n      dup5\n      and\n      swap1\n      dup2\n      or\n      swap1\n      swap2\n      sstore\n        /* \"contracts/LuckyRedEnvelopeV2.sol\":5262:5280  defaultTicketPirce */\n      0x04\n        /* \"contracts/LuckyRedEnvelopeV2.sol\":5262:5302  defaultTicketPirce = _defaultTicketPirce */\n      dup3\n      swap1\n      sstore\n        /* \"contracts/LuckyRedEnvelopeV2.sol\":5318:5375  DefaultTokenChange(defaultTicketToken,defaultTicketPirce) */\n      0x40\n      dup1\n      mload\n        /* \"#utility.yul\":10542:10593   */\n      swap2\n      dup3\n      mstore\n        /* \"#utility.yul\":10624:10626   */\n      0x20\n        /* \"#utility.yul\":10609:10627   */\n      dup3\n      add\n        /* \"#utility.yul\":10602:10636   */\n      dup4\n      swap1\n      mstore\n        /* \"contracts/LuckyRedEnvelopeV2.sol\":5318:5375  DefaultTokenChange(defaultTicketToken,defaultTicketPirce) */\n      0xdc907cb17a7da8e1dffad2b7205a6ca1111cbb38a0f1f4b2b60a31eb673ca4a2\n      swap2\n        /* \"#utility.yul\":10515:10533   */\n      add\n        /* \"contracts/LuckyRedEnvelopeV2.sol\":5318:5375  DefaultTokenChange(defaultTicketToken,defaultTicketPirce) */\n    tag_227:\n      mload(0x40)\n      dup1\n      swap2\n      sub\n      swap1\n      log1\n        /* \"contracts/LuckyRedEnvelopeV2.sol\":5098:5383  function setTicketToken(address _defaultTicketToken,uint256 _defaultTicketPirce) external onlyOperator{... */\n      pop\n      pop\n      jump\t// out\n        /* \"contracts/LuckyRedEnvelopeV2.sol\":15059:16813  function drawPrize(... */\n    tag_85:\n        /* \"contracts/LuckyRedEnvelopeV2.sol\":2462:2472  msg.sender */\n      caller\n        /* \"contracts/LuckyRedEnvelopeV2.sol\":2442:2473  operatorAddressList[msg.sender] */\n      0x00\n      swap1\n      dup2\n      mstore\n        /* \"contracts/LuckyRedEnvelopeV2.sol\":2442:2461  operatorAddressList */\n      0x06\n        /* \"contracts/LuckyRedEnvelopeV2.sol\":2442:2473  operatorAddressList[msg.sender] */\n      0x20\n      mstore\n      0x40\n      swap1\n      keccak256\n      sload\n      0xff\n      and\n        /* \"contracts/LuckyRedEnvelopeV2.sol\":2442:2481  operatorAddressList[msg.sender] == true */\n      iszero\n      iszero\n        /* \"contracts/LuckyRedEnvelopeV2.sol\":2442:2473  operatorAddressList[msg.sender] */\n      0x01\n        /* \"contracts/LuckyRedEnvelopeV2.sol\":2442:2481  operatorAddressList[msg.sender] == true */\n      eq\n        /* \"contracts/LuckyRedEnvelopeV2.sol\":2434:2498  require(operatorAddressList[msg.sender] == true, \"Not operator\") */\n      tag_231\n      jumpi\n      mload(0x40)\n      shl(0xe5, 0x461bcd)\n      dup2\n      mstore\n      0x04\n      add\n      tag_117\n      swap1\n      tag_118\n      jump\t// in\n    tag_231:\n        /* \"@openzeppelin/contracts/utils/ReentrancyGuard.sol\":2356:2377  _nonReentrantBefore() */\n      tag_234\n        /* \"@openzeppelin/contracts/utils/ReentrancyGuard.sol\":2356:2375  _nonReentrantBefore */\n      tag_121\n        /* \"@openzeppelin/contracts/utils/ReentrancyGuard.sol\":2356:2377  _nonReentrantBefore() */\n      jump\t// in\n    tag_234:\n        /* \"contracts/LuckyRedEnvelopeV2.sol\":15213:15225  Status.Close */\n      0x02\n        /* \"contracts/LuckyRedEnvelopeV2.sol\":15184:15202  _redEnvelopes[_id] */\n      0x00\n      dup4\n      dup2\n      mstore\n        /* \"contracts/LuckyRedEnvelopeV2.sol\":15184:15197  _redEnvelopes */\n      0x07\n        /* \"contracts/LuckyRedEnvelopeV2.sol\":15184:15202  _redEnvelopes[_id] */\n      0x20\n      mstore\n      0x40\n      swap1\n      keccak256\n        /* \"contracts/LuckyRedEnvelopeV2.sol\":15184:15209  _redEnvelopes[_id].status */\n      sload\n      shl(0xa0, 0x01)\n      swap1\n      div\n      0xff\n      and\n        /* \"contracts/LuckyRedEnvelopeV2.sol\":15184:15225  _redEnvelopes[_id].status == Status.Close */\n      0x03\n      dup2\n      gt\n      iszero\n      tag_239\n      jumpi\n      tag_239\n      tag_137\n      jump\t// in\n    tag_239:\n      eq\n        /* \"contracts/LuckyRedEnvelopeV2.sol\":15176:15251  require(_redEnvelopes[_id].status == Status.Close, \"RedEnvelope not close\") */\n      tag_240\n      jumpi\n      mload(0x40)\n      shl(0xe5, 0x461bcd)\n      dup2\n      mstore\n        /* \"#utility.yul\":10849:10851   */\n      0x20\n        /* \"contracts/LuckyRedEnvelopeV2.sol\":15176:15251  require(_redEnvelopes[_id].status == Status.Close, \"RedEnvelope not close\") */\n      0x04\n      dup3\n      add\n        /* \"#utility.yul\":10831:10852   */\n      mstore\n        /* \"#utility.yul\":10888:10890   */\n      0x15\n        /* \"#utility.yul\":10868:10886   */\n      0x24\n      dup3\n      add\n        /* \"#utility.yul\":10861:10891   */\n      mstore\n      shl(0x58, 0x526564456e76656c6f7065206e6f7420636c6f7365)\n        /* \"#utility.yul\":10907:10925   */\n      0x44\n      dup3\n      add\n        /* \"#utility.yul\":10900:10951   */\n      mstore\n        /* \"#utility.yul\":10968:10986   */\n      0x64\n      add\n        /* \"contracts/LuckyRedEnvelopeV2.sol\":15176:15251  require(_redEnvelopes[_id].status == Status.Close, \"RedEnvelope not close\") */\n      tag_117\n        /* \"#utility.yul\":10647:10992   */\n      jump\n        /* \"contracts/LuckyRedEnvelopeV2.sol\":15176:15251  require(_redEnvelopes[_id].status == Status.Close, \"RedEnvelope not close\") */\n    tag_240:\n        /* \"contracts/LuckyRedEnvelopeV2.sol\":15262:15280  _redEnvelopes[_id] */\n      0x00\n      dup3\n      dup2\n      mstore\n        /* \"contracts/LuckyRedEnvelopeV2.sol\":15262:15275  _redEnvelopes */\n      0x07\n        /* \"contracts/LuckyRedEnvelopeV2.sol\":15262:15280  _redEnvelopes[_id] */\n      0x20\n      swap1\n      dup2\n      mstore\n      0x40\n      swap2\n      dup3\n      swap1\n      keccak256\n        /* \"contracts/LuckyRedEnvelopeV2.sol\":15262:15306  _redEnvelopes[_id].status = Status.Claimable */\n      dup1\n      sload\n      not(shl(0xa0, 0xff))\n      and\n      shl(0xa0, 0x03)\n      or\n      swap1\n      sstore\n        /* \"contracts/LuckyRedEnvelopeV2.sol\":15322:15363  RedEnvelopeClaimable(_id,block.timestamp) */\n      swap1\n      mload\n        /* \"contracts/LuckyRedEnvelopeV2.sol\":15347:15362  block.timestamp */\n      timestamp\n        /* \"#utility.yul\":2246:2271   */\n      dup2\n      mstore\n        /* \"contracts/LuckyRedEnvelopeV2.sol\":15262:15280  _redEnvelopes[_id] */\n      dup4\n      swap2\n        /* \"contracts/LuckyRedEnvelopeV2.sol\":15322:15363  RedEnvelopeClaimable(_id,block.timestamp) */\n      0x66f6b4cd34444af165fb78bce3996496528b37af161c26f737b7341cc37063bb\n      swap2\n        /* \"#utility.yul\":2219:2237   */\n      add\n        /* \"contracts/LuckyRedEnvelopeV2.sol\":15322:15363  RedEnvelopeClaimable(_id,block.timestamp) */\n      mload(0x40)\n      dup1\n      swap2\n      sub\n      swap1\n      log2\n        /* \"contracts/LuckyRedEnvelopeV2.sol\":15374:15393  uint256 userTickets */\n      0x00\n        /* \"contracts/LuckyRedEnvelopeV2.sol\":15428:15446  _redEnvelopes[_id] */\n      dup3\n      dup2\n      mstore\n        /* \"contracts/LuckyRedEnvelopeV2.sol\":15428:15441  _redEnvelopes */\n      0x07\n        /* \"contracts/LuckyRedEnvelopeV2.sol\":15428:15446  _redEnvelopes[_id] */\n      0x20\n      mstore\n      0x40\n      dup2\n      keccak256\n        /* \"contracts/LuckyRedEnvelopeV2.sol\":15428:15457  _redEnvelopes[_id].getTickets */\n      0x05\n      dup2\n      add\n      sload\n        /* \"contracts/LuckyRedEnvelopeV2.sol\":15396:15425  _redEnvelopes[_id].buyTickets */\n      0x04\n      swap1\n      swap2\n      add\n      sload\n        /* \"contracts/LuckyRedEnvelopeV2.sol\":15396:15457  _redEnvelopes[_id].buyTickets + _redEnvelopes[_id].getTickets */\n      tag_246\n      swap2\n        /* \"contracts/LuckyRedEnvelopeV2.sol\":15428:15457  _redEnvelopes[_id].getTickets */\n      swap1\n        /* \"contracts/LuckyRedEnvelopeV2.sol\":15396:15457  _redEnvelopes[_id].buyTickets + _redEnvelopes[_id].getTickets */\n      tag_172\n      jump\t// in\n    tag_246:\n        /* \"contracts/LuckyRedEnvelopeV2.sol\":15374:15457  uint256 userTickets = _redEnvelopes[_id].buyTickets + _redEnvelopes[_id].getTickets */\n      swap1\n      pop\n        /* \"contracts/LuckyRedEnvelopeV2.sol\":15473:15484  userTickets */\n      dup1\n        /* \"contracts/LuckyRedEnvelopeV2.sol\":15488:15489  0 */\n      0x00\n        /* \"contracts/LuckyRedEnvelopeV2.sol\":15473:15489  userTickets == 0 */\n      sub\n        /* \"contracts/LuckyRedEnvelopeV2.sol\":15468:15628  if ( userTickets == 0){... */\n      tag_247\n      jumpi\n        /* \"contracts/LuckyRedEnvelopeV2.sol\":15539:15557  _returnInject(_id) */\n      tag_248\n        /* \"contracts/LuckyRedEnvelopeV2.sol\":15553:15556  _id */\n      dup4\n        /* \"contracts/LuckyRedEnvelopeV2.sol\":15539:15552  _returnInject */\n      tag_249\n        /* \"contracts/LuckyRedEnvelopeV2.sol\":15539:15557  _returnInject(_id) */\n      jump\t// in\n    tag_248:\n        /* \"contracts/LuckyRedEnvelopeV2.sol\":15609:15617  return ; */\n      pop\n      jump(tag_207)\n        /* \"contracts/LuckyRedEnvelopeV2.sol\":15468:15628  if ( userTickets == 0){... */\n    tag_247:\n        /* \"contracts/LuckyRedEnvelopeV2.sol\":15672:15690  uint256 randomWord */\n      0x00\n        /* \"contracts/LuckyRedEnvelopeV2.sol\":15774:15792  _redEnvelopes[_id] */\n      dup4\n      dup2\n      mstore\n        /* \"contracts/LuckyRedEnvelopeV2.sol\":15774:15787  _redEnvelopes */\n      0x07\n        /* \"contracts/LuckyRedEnvelopeV2.sol\":15774:15792  _redEnvelopes[_id] */\n      0x20\n      mstore\n      0x40\n      swap1\n      keccak256\n        /* \"contracts/LuckyRedEnvelopeV2.sol\":15774:15804  _redEnvelopes[_id].maxPrizeNum */\n      0x03\n      add\n      sload\n        /* \"contracts/LuckyRedEnvelopeV2.sol\":15693:15699  _nonce */\n      dup3\n      swap1\n        /* \"contracts/LuckyRedEnvelopeV2.sol\":15738:15749  userTickets */\n      dup3\n      swap1\n        /* \"contracts/LuckyRedEnvelopeV2.sol\":15764:15804  drawNum > _redEnvelopes[_id].maxPrizeNum */\n      dup2\n      gt\n        /* \"contracts/LuckyRedEnvelopeV2.sol\":15764:15843  drawNum > _redEnvelopes[_id].maxPrizeNum && _redEnvelopes[_id].maxPrizeNum != 0 */\n      dup1\n      iszero\n      tag_250\n      jumpi\n      pop\n        /* \"contracts/LuckyRedEnvelopeV2.sol\":15808:15826  _redEnvelopes[_id] */\n      0x00\n      dup6\n      dup2\n      mstore\n        /* \"contracts/LuckyRedEnvelopeV2.sol\":15808:15821  _redEnvelopes */\n      0x07\n        /* \"contracts/LuckyRedEnvelopeV2.sol\":15808:15826  _redEnvelopes[_id] */\n      0x20\n      mstore\n      0x40\n      swap1\n      keccak256\n        /* \"contracts/LuckyRedEnvelopeV2.sol\":15808:15838  _redEnvelopes[_id].maxPrizeNum */\n      0x03\n      add\n      sload\n        /* \"contracts/LuckyRedEnvelopeV2.sol\":15808:15843  _redEnvelopes[_id].maxPrizeNum != 0 */\n      iszero\n      iszero\n        /* \"contracts/LuckyRedEnvelopeV2.sol\":15764:15843  drawNum > _redEnvelopes[_id].maxPrizeNum && _redEnvelopes[_id].maxPrizeNum != 0 */\n    tag_250:\n        /* \"contracts/LuckyRedEnvelopeV2.sol\":15760:15911  if (drawNum > _redEnvelopes[_id].maxPrizeNum && _redEnvelopes[_id].maxPrizeNum != 0){... */\n      iszero\n      tag_251\n      jumpi\n      pop\n        /* \"contracts/LuckyRedEnvelopeV2.sol\":15869:15887  _redEnvelopes[_id] */\n      0x00\n      dup5\n      dup2\n      mstore\n        /* \"contracts/LuckyRedEnvelopeV2.sol\":15869:15882  _redEnvelopes */\n      0x07\n        /* \"contracts/LuckyRedEnvelopeV2.sol\":15869:15887  _redEnvelopes[_id] */\n      0x20\n      mstore\n      0x40\n      swap1\n      keccak256\n        /* \"contracts/LuckyRedEnvelopeV2.sol\":15869:15899  _redEnvelopes[_id].maxPrizeNum */\n      0x03\n      add\n      sload\n        /* \"contracts/LuckyRedEnvelopeV2.sol\":15760:15911  if (drawNum > _redEnvelopes[_id].maxPrizeNum && _redEnvelopes[_id].maxPrizeNum != 0){... */\n    tag_251:\n        /* \"contracts/LuckyRedEnvelopeV2.sol\":15950:15970  uint256 totalTickets */\n      0x00\n        /* \"contracts/LuckyRedEnvelopeV2.sol\":16008:16026  _redEnvelopes[_id] */\n      dup6\n      dup2\n      mstore\n        /* \"contracts/LuckyRedEnvelopeV2.sol\":16008:16021  _redEnvelopes */\n      0x07\n        /* \"contracts/LuckyRedEnvelopeV2.sol\":16008:16026  _redEnvelopes[_id] */\n      0x20\n      mstore\n      0x40\n      dup2\n      keccak256\n        /* \"contracts/LuckyRedEnvelopeV2.sol\":16008:16037  _redEnvelopes[_id].buyTickets */\n      0x04\n      dup2\n      add\n      sload\n        /* \"contracts/LuckyRedEnvelopeV2.sol\":15973:16005  _redEnvelopes[_id].injectTickets */\n      0x06\n      swap1\n      swap2\n      add\n      sload\n        /* \"contracts/LuckyRedEnvelopeV2.sol\":15973:16037  _redEnvelopes[_id].injectTickets + _redEnvelopes[_id].buyTickets */\n      tag_252\n      swap2\n        /* \"contracts/LuckyRedEnvelopeV2.sol\":16008:16037  _redEnvelopes[_id].buyTickets */\n      swap1\n        /* \"contracts/LuckyRedEnvelopeV2.sol\":15973:16037  _redEnvelopes[_id].injectTickets + _redEnvelopes[_id].buyTickets */\n      tag_172\n      jump\t// in\n    tag_252:\n        /* \"contracts/LuckyRedEnvelopeV2.sol\":16048:16067  uint256 amountToken */\n      0x00\n        /* \"contracts/LuckyRedEnvelopeV2.sol\":16071:16089  _redEnvelopes[_id] */\n      dup8\n      dup2\n      mstore\n        /* \"contracts/LuckyRedEnvelopeV2.sol\":16071:16084  _redEnvelopes */\n      0x07\n        /* \"contracts/LuckyRedEnvelopeV2.sol\":16071:16089  _redEnvelopes[_id] */\n      0x20\n      mstore\n      0x40\n      dup2\n      keccak256\n        /* \"contracts/LuckyRedEnvelopeV2.sol\":16071:16101  _redEnvelopes[_id].ticketPirce */\n      0x0a\n      add\n      sload\n        /* \"contracts/LuckyRedEnvelopeV2.sol\":15950:16037  uint256 totalTickets = _redEnvelopes[_id].injectTickets + _redEnvelopes[_id].buyTickets */\n      swap2\n      swap3\n      pop\n        /* \"contracts/LuckyRedEnvelopeV2.sol\":16048:16067  uint256 amountToken */\n      swap1\n        /* \"contracts/LuckyRedEnvelopeV2.sol\":16071:16116  _redEnvelopes[_id].ticketPirce * totalTickets */\n      tag_253\n      swap1\n        /* \"contracts/LuckyRedEnvelopeV2.sol\":15950:16037  uint256 totalTickets = _redEnvelopes[_id].injectTickets + _redEnvelopes[_id].buyTickets */\n      dup4\n      swap1\n        /* \"contracts/LuckyRedEnvelopeV2.sol\":16071:16116  _redEnvelopes[_id].ticketPirce * totalTickets */\n      tag_254\n      jump\t// in\n    tag_253:\n        /* \"contracts/LuckyRedEnvelopeV2.sol\":16048:16116  uint256 amountToken =  _redEnvelopes[_id].ticketPirce * totalTickets */\n      swap1\n      pop\n        /* \"contracts/LuckyRedEnvelopeV2.sol\":16128:16158  uint256[] memory randomsAmount */\n      0x00\n        /* \"contracts/LuckyRedEnvelopeV2.sol\":16161:16208  _getSortRandoms(randomWord,drawNum,amountToken) */\n      tag_255\n        /* \"contracts/LuckyRedEnvelopeV2.sol\":16177:16187  randomWord */\n      dup6\n        /* \"contracts/LuckyRedEnvelopeV2.sol\":16188:16195  drawNum */\n      dup6\n        /* \"contracts/LuckyRedEnvelopeV2.sol\":16196:16207  amountToken */\n      dup5\n        /* \"contracts/LuckyRedEnvelopeV2.sol\":16161:16176  _getSortRandoms */\n      tag_256\n        /* \"contracts/LuckyRedEnvelopeV2.sol\":16161:16208  _getSortRandoms(randomWord,drawNum,amountToken) */\n      jump\t// in\n    tag_255:\n        /* \"contracts/LuckyRedEnvelopeV2.sol\":16128:16208  uint256[] memory randomsAmount = _getSortRandoms(randomWord,drawNum,amountToken) */\n      swap1\n      pop\n        /* \"contracts/LuckyRedEnvelopeV2.sol\":16221:16263  _calculatePrize(_id,drawNum,randomsAmount) */\n      tag_257\n        /* \"contracts/LuckyRedEnvelopeV2.sol\":16237:16240  _id */\n      dup9\n        /* \"contracts/LuckyRedEnvelopeV2.sol\":16241:16248  drawNum */\n      dup6\n        /* \"contracts/LuckyRedEnvelopeV2.sol\":16249:16262  randomsAmount */\n      dup4\n        /* \"contracts/LuckyRedEnvelopeV2.sol\":16221:16236  _calculatePrize */\n      tag_258\n        /* \"contracts/LuckyRedEnvelopeV2.sol\":16221:16263  _calculatePrize(_id,drawNum,randomsAmount) */\n      jump\t// in\n    tag_257:\n        /* \"contracts/LuckyRedEnvelopeV2.sol\":16326:16344  _redEnvelopes[_id] */\n      0x00\n      dup9\n      dup2\n      mstore\n        /* \"contracts/LuckyRedEnvelopeV2.sol\":16326:16339  _redEnvelopes */\n      0x07\n        /* \"contracts/LuckyRedEnvelopeV2.sol\":16326:16344  _redEnvelopes[_id] */\n      0x20\n      mstore\n      0x40\n      swap1\n      keccak256\n        /* \"contracts/LuckyRedEnvelopeV2.sol\":16326:16354  _redEnvelopes[_id].autoClaim */\n      0x0d\n      add\n      sload\n      0xff\n      and\n        /* \"contracts/LuckyRedEnvelopeV2.sol\":16323:16773  if(_redEnvelopes[_id].autoClaim){... */\n      iszero\n      tag_259\n      jumpi\n        /* \"contracts/LuckyRedEnvelopeV2.sol\":16374:16383  uint256 i */\n      0x00\n        /* \"contracts/LuckyRedEnvelopeV2.sol\":16370:16762  for(uint256 i = 0;i < _redEnvelopes[_id].userAddrNum;i++){... */\n    tag_260:\n        /* \"contracts/LuckyRedEnvelopeV2.sol\":16392:16410  _redEnvelopes[_id] */\n      0x00\n      dup10\n      dup2\n      mstore\n        /* \"contracts/LuckyRedEnvelopeV2.sol\":16392:16405  _redEnvelopes */\n      0x07\n        /* \"contracts/LuckyRedEnvelopeV2.sol\":16392:16410  _redEnvelopes[_id] */\n      0x20\n      dup2\n      swap1\n      mstore\n      0x40\n      swap1\n      swap2\n      keccak256\n        /* \"contracts/LuckyRedEnvelopeV2.sol\":16392:16422  _redEnvelopes[_id].userAddrNum */\n      add\n      sload\n        /* \"contracts/LuckyRedEnvelopeV2.sol\":16388:16422  i < _redEnvelopes[_id].userAddrNum */\n      dup2\n      lt\n        /* \"contracts/LuckyRedEnvelopeV2.sol\":16370:16762  for(uint256 i = 0;i < _redEnvelopes[_id].userAddrNum;i++){... */\n      iszero\n      tag_261\n      jumpi\n        /* \"contracts/LuckyRedEnvelopeV2.sol\":16449:16469  _amount2claimed[_id] */\n      0x00\n      dup10\n      dup2\n      mstore\n        /* \"contracts/LuckyRedEnvelopeV2.sol\":16449:16464  _amount2claimed */\n      0x0c\n        /* \"contracts/LuckyRedEnvelopeV2.sol\":16449:16469  _amount2claimed[_id] */\n      0x20\n      swap1\n      dup2\n      mstore\n      0x40\n      dup1\n      dup4\n      keccak256\n        /* \"contracts/LuckyRedEnvelopeV2.sol\":16470:16484  _userAddrIndex */\n      0x0b\n        /* \"contracts/LuckyRedEnvelopeV2.sol\":16470:16489  _userAddrIndex[_id] */\n      dup4\n      mstore\n      dup2\n      dup5\n      keccak256\n        /* \"contracts/LuckyRedEnvelopeV2.sol\":16470:16492  _userAddrIndex[_id][i] */\n      dup6\n      dup6\n      mstore\n      dup4\n      mstore\n      dup2\n      dup5\n      keccak256\n      sload\n      sub(shl(0xa0, 0x01), 0x01)\n      and\n        /* \"contracts/LuckyRedEnvelopeV2.sol\":16449:16493  _amount2claimed[_id][_userAddrIndex[_id][i]] */\n      dup5\n      mstore\n      swap1\n      swap2\n      mstore\n      swap1\n      keccak256\n      sload\n        /* \"contracts/LuckyRedEnvelopeV2.sol\":16449:16498  _amount2claimed[_id][_userAddrIndex[_id][i]] != 0 */\n      iszero\n        /* \"contracts/LuckyRedEnvelopeV2.sol\":16446:16581  if(_amount2claimed[_id][_userAddrIndex[_id][i]] != 0){... */\n      tag_264\n      jumpi\n        /* \"contracts/LuckyRedEnvelopeV2.sol\":16538:16557  _userAddrIndex[_id] */\n      0x00\n      dup10\n      dup2\n      mstore\n        /* \"contracts/LuckyRedEnvelopeV2.sol\":16538:16552  _userAddrIndex */\n      0x0b\n        /* \"contracts/LuckyRedEnvelopeV2.sol\":16538:16557  _userAddrIndex[_id] */\n      0x20\n      swap1\n      dup2\n      mstore\n      0x40\n      dup1\n      dup4\n      keccak256\n        /* \"contracts/LuckyRedEnvelopeV2.sol\":16538:16560  _userAddrIndex[_id][i] */\n      dup5\n      dup5\n      mstore\n      swap1\n      swap2\n      mstore\n      swap1\n      keccak256\n      sload\n        /* \"contracts/LuckyRedEnvelopeV2.sol\":16522:16561  _claimPrize(_id,_userAddrIndex[_id][i]) */\n      tag_264\n      swap1\n        /* \"contracts/LuckyRedEnvelopeV2.sol\":16534:16537  _id */\n      dup11\n      swap1\n      sub(shl(0xa0, 0x01), 0x01)\n        /* \"contracts/LuckyRedEnvelopeV2.sol\":16538:16560  _userAddrIndex[_id][i] */\n      and\n        /* \"contracts/LuckyRedEnvelopeV2.sol\":16522:16533  _claimPrize */\n      tag_265\n        /* \"contracts/LuckyRedEnvelopeV2.sol\":16522:16561  _claimPrize(_id,_userAddrIndex[_id][i]) */\n      jump\t// in\n    tag_264:\n        /* \"contracts/LuckyRedEnvelopeV2.sol\":16423:16426  i++ */\n      0x01\n      add\n        /* \"contracts/LuckyRedEnvelopeV2.sol\":16370:16762  for(uint256 i = 0;i < _redEnvelopes[_id].userAddrNum;i++){... */\n      jump(tag_260)\n    tag_261:\n      pop\n        /* \"contracts/LuckyRedEnvelopeV2.sol\":16323:16773  if(_redEnvelopes[_id].autoClaim){... */\n    tag_259:\n        /* \"contracts/LuckyRedEnvelopeV2.sol\":15165:16813  {... */\n      pop\n      pop\n      pop\n      pop\n      pop\n      pop\n        /* \"@openzeppelin/contracts/utils/ReentrancyGuard.sol\":2398:2418  _nonReentrantAfter() */\n      tag_208\n        /* \"@openzeppelin/contracts/utils/ReentrancyGuard.sol\":1713:1714  1 */\n      0x01\n        /* \"@openzeppelin/contracts/utils/ReentrancyGuard.sol\":2924:2931  _status */\n      0x00\n        /* \"@openzeppelin/contracts/utils/ReentrancyGuard.sol\":2924:2945  _status = NOT_ENTERED */\n      sstore\n        /* \"@openzeppelin/contracts/utils/ReentrancyGuard.sol\":2744:2952  function _nonReentrantAfter() private {... */\n      jump\n        /* \"contracts/LuckyRedEnvelopeV2.sol\":11673:12883  function buyTickets(... */\n    tag_88:\n        /* \"@openzeppelin/contracts/utils/ReentrancyGuard.sol\":2356:2377  _nonReentrantBefore() */\n      tag_268\n        /* \"@openzeppelin/contracts/utils/ReentrancyGuard.sol\":2356:2375  _nonReentrantBefore */\n      tag_121\n        /* \"@openzeppelin/contracts/utils/ReentrancyGuard.sol\":2356:2377  _nonReentrantBefore() */\n      jump\t// in\n    tag_268:\n        /* \"contracts/LuckyRedEnvelopeV2.sol\":11857:11868  Status.Open */\n      0x01\n        /* \"contracts/LuckyRedEnvelopeV2.sol\":11828:11846  _redEnvelopes[_id] */\n      0x00\n      dup5\n      dup2\n      mstore\n        /* \"contracts/LuckyRedEnvelopeV2.sol\":11828:11841  _redEnvelopes */\n      0x07\n        /* \"contracts/LuckyRedEnvelopeV2.sol\":11828:11846  _redEnvelopes[_id] */\n      0x20\n      mstore\n      0x40\n      swap1\n      keccak256\n        /* \"contracts/LuckyRedEnvelopeV2.sol\":11828:11853  _redEnvelopes[_id].status */\n      sload\n      shl(0xa0, 0x01)\n      swap1\n      div\n      0xff\n      and\n        /* \"contracts/LuckyRedEnvelopeV2.sol\":11828:11868  _redEnvelopes[_id].status == Status.Open */\n      0x03\n      dup2\n      gt\n      iszero\n      tag_273\n      jumpi\n      tag_273\n      tag_137\n      jump\t// in\n    tag_273:\n      eq\n        /* \"contracts/LuckyRedEnvelopeV2.sol\":11820:11896  require(_redEnvelopes[_id].status == Status.Open, \"RedEnvelope is not open\") */\n      tag_274\n      jumpi\n      mload(0x40)\n      shl(0xe5, 0x461bcd)\n      dup2\n      mstore\n      0x04\n      add\n      tag_117\n      swap1\n      tag_142\n      jump\t// in\n    tag_274:\n        /* \"contracts/LuckyRedEnvelopeV2.sol\":11959:11960  0 */\n      0x00\n        /* \"contracts/LuckyRedEnvelopeV2.sol\":11915:11933  _redEnvelopes[_id] */\n      dup4\n      dup2\n      mstore\n        /* \"contracts/LuckyRedEnvelopeV2.sol\":11915:11928  _redEnvelopes */\n      0x07\n        /* \"contracts/LuckyRedEnvelopeV2.sol\":11915:11933  _redEnvelopes[_id] */\n      0x20\n      mstore\n      0x40\n      swap1\n      keccak256\n        /* \"contracts/LuckyRedEnvelopeV2.sol\":11915:11947  _redEnvelopes[_id].getTicketAddr */\n      0x0b\n      add\n      sload\n      sub(shl(0xa0, 0x01), 0x01)\n      and\n        /* \"contracts/LuckyRedEnvelopeV2.sol\":11915:11961  _redEnvelopes[_id].getTicketAddr == address(0) */\n      iszero\n        /* \"contracts/LuckyRedEnvelopeV2.sol\":11907:11985  require(_redEnvelopes[_id].getTicketAddr == address(0), \"no buy ticket model\") */\n      tag_276\n      jumpi\n      mload(0x40)\n      shl(0xe5, 0x461bcd)\n      dup2\n      mstore\n        /* \"#utility.yul\":11372:11374   */\n      0x20\n        /* \"contracts/LuckyRedEnvelopeV2.sol\":11907:11985  require(_redEnvelopes[_id].getTicketAddr == address(0), \"no buy ticket model\") */\n      0x04\n      dup3\n      add\n        /* \"#utility.yul\":11354:11375   */\n      mstore\n        /* \"#utility.yul\":11411:11413   */\n      0x13\n        /* \"#utility.yul\":11391:11409   */\n      0x24\n      dup3\n      add\n        /* \"#utility.yul\":11384:11414   */\n      mstore\n      shl(0x6a, 0x1b9bc8189d5e481d1a58dad95d081b5bd9195b)\n        /* \"#utility.yul\":11430:11448   */\n      0x44\n      dup3\n      add\n        /* \"#utility.yul\":11423:11472   */\n      mstore\n        /* \"#utility.yul\":11489:11507   */\n      0x64\n      add\n        /* \"contracts/LuckyRedEnvelopeV2.sol\":11907:11985  require(_redEnvelopes[_id].getTicketAddr == address(0), \"no buy ticket model\") */\n      tag_117\n        /* \"#utility.yul\":11170:11513   */\n      jump\n        /* \"contracts/LuckyRedEnvelopeV2.sol\":11907:11985  require(_redEnvelopes[_id].getTicketAddr == address(0), \"no buy ticket model\") */\n    tag_276:\n        /* \"contracts/LuckyRedEnvelopeV2.sol\":12004:12018  _ticketNumbers */\n      dup1\n        /* \"contracts/LuckyRedEnvelopeV2.sol\":12022:12023  0 */\n      0x00\n        /* \"contracts/LuckyRedEnvelopeV2.sol\":12004:12023  _ticketNumbers != 0 */\n      sub\n        /* \"contracts/LuckyRedEnvelopeV2.sol\":11996:12049  require(_ticketNumbers != 0 ,\"ticketNumbers no zero\") */\n      tag_279\n      jumpi\n      mload(0x40)\n      shl(0xe5, 0x461bcd)\n      dup2\n      mstore\n        /* \"#utility.yul\":8907:8909   */\n      0x20\n        /* \"contracts/LuckyRedEnvelopeV2.sol\":11996:12049  require(_ticketNumbers != 0 ,\"ticketNumbers no zero\") */\n      0x04\n      dup3\n      add\n        /* \"#utility.yul\":8889:8910   */\n      mstore\n        /* \"#utility.yul\":8946:8948   */\n      0x15\n        /* \"#utility.yul\":8926:8944   */\n      0x24\n      dup3\n      add\n        /* \"#utility.yul\":8919:8949   */\n      mstore\n      shl(0x58, 0x7469636b65744e756d62657273206e6f207a65726f)\n        /* \"#utility.yul\":8965:8983   */\n      0x44\n      dup3\n      add\n        /* \"#utility.yul\":8958:9009   */\n      mstore\n        /* \"#utility.yul\":9026:9044   */\n      0x64\n      add\n        /* \"contracts/LuckyRedEnvelopeV2.sol\":11996:12049  require(_ticketNumbers != 0 ,\"ticketNumbers no zero\") */\n      tag_117\n        /* \"#utility.yul\":8705:9050   */\n      jump\n        /* \"contracts/LuckyRedEnvelopeV2.sol\":11996:12049  require(_ticketNumbers != 0 ,\"ticketNumbers no zero\") */\n    tag_279:\n        /* \"contracts/LuckyRedEnvelopeV2.sol\":12064:12082  _redEnvelopes[_id] */\n      0x00\n      dup4\n      dup2\n      mstore\n        /* \"contracts/LuckyRedEnvelopeV2.sol\":12064:12077  _redEnvelopes */\n      0x07\n        /* \"contracts/LuckyRedEnvelopeV2.sol\":12064:12082  _redEnvelopes[_id] */\n      0x20\n      mstore\n      0x40\n      swap1\n      keccak256\n        /* \"contracts/LuckyRedEnvelopeV2.sol\":12064:12090  _redEnvelopes[_id].endTime */\n      0x01\n      add\n      sload\n        /* \"contracts/LuckyRedEnvelopeV2.sol\":12064:12095  _redEnvelopes[_id].endTime != 0 */\n      iszero\n        /* \"contracts/LuckyRedEnvelopeV2.sol\":12060:12204  if (_redEnvelopes[_id].endTime != 0){... */\n      tag_282\n      jumpi\n        /* \"contracts/LuckyRedEnvelopeV2.sol\":12137:12155  _redEnvelopes[_id] */\n      0x00\n      dup4\n      dup2\n      mstore\n        /* \"contracts/LuckyRedEnvelopeV2.sol\":12137:12150  _redEnvelopes */\n      0x07\n        /* \"contracts/LuckyRedEnvelopeV2.sol\":12137:12155  _redEnvelopes[_id] */\n      0x20\n      mstore\n      0x40\n      swap1\n      keccak256\n        /* \"contracts/LuckyRedEnvelopeV2.sol\":12137:12163  _redEnvelopes[_id].endTime */\n      0x01\n      add\n      sload\n        /* \"contracts/LuckyRedEnvelopeV2.sol\":12119:12134  block.timestamp */\n      timestamp\n        /* \"contracts/LuckyRedEnvelopeV2.sol\":12119:12163  block.timestamp < _redEnvelopes[_id].endTime */\n      lt\n        /* \"contracts/LuckyRedEnvelopeV2.sol\":12111:12192  require(block.timestamp < _redEnvelopes[_id].endTime, \"RedEnvelope is over time\") */\n      tag_282\n      jumpi\n      mload(0x40)\n      shl(0xe5, 0x461bcd)\n      dup2\n      mstore\n      0x04\n      add\n      tag_117\n      swap1\n      tag_169\n      jump\t// in\n    tag_282:\n        /* \"contracts/LuckyRedEnvelopeV2.sol\":12218:12236  _redEnvelopes[_id] */\n      0x00\n      dup4\n      dup2\n      mstore\n        /* \"contracts/LuckyRedEnvelopeV2.sol\":12218:12231  _redEnvelopes */\n      0x07\n        /* \"contracts/LuckyRedEnvelopeV2.sol\":12218:12236  _redEnvelopes[_id] */\n      0x20\n      mstore\n      0x40\n      swap1\n      keccak256\n        /* \"contracts/LuckyRedEnvelopeV2.sol\":12218:12247  _redEnvelopes[_id].maxTickets */\n      0x02\n      add\n      sload\n        /* \"contracts/LuckyRedEnvelopeV2.sol\":12218:12252  _redEnvelopes[_id].maxTickets != 0 */\n      iszero\n        /* \"contracts/LuckyRedEnvelopeV2.sol\":12214:12398  if (_redEnvelopes[_id].maxTickets != 0){... */\n      tag_286\n      jumpi\n        /* \"contracts/LuckyRedEnvelopeV2.sol\":12326:12344  _redEnvelopes[_id] */\n      0x00\n      dup4\n      dup2\n      mstore\n        /* \"contracts/LuckyRedEnvelopeV2.sol\":12326:12339  _redEnvelopes */\n      0x07\n        /* \"contracts/LuckyRedEnvelopeV2.sol\":12326:12344  _redEnvelopes[_id] */\n      0x20\n      mstore\n      0x40\n      swap1\n      keccak256\n        /* \"contracts/LuckyRedEnvelopeV2.sol\":12326:12355  _redEnvelopes[_id].maxTickets */\n      0x02\n      dup2\n      add\n      sload\n        /* \"contracts/LuckyRedEnvelopeV2.sol\":12276:12305  _redEnvelopes[_id].buyTickets */\n      0x04\n      swap1\n      swap2\n      add\n      sload\n        /* \"contracts/LuckyRedEnvelopeV2.sol\":12276:12322  _redEnvelopes[_id].buyTickets + _ticketNumbers */\n      tag_285\n      swap1\n        /* \"contracts/LuckyRedEnvelopeV2.sol\":12308:12322  _ticketNumbers */\n      dup4\n      swap1\n        /* \"contracts/LuckyRedEnvelopeV2.sol\":12276:12322  _redEnvelopes[_id].buyTickets + _ticketNumbers */\n      tag_172\n      jump\t// in\n    tag_285:\n        /* \"contracts/LuckyRedEnvelopeV2.sol\":12276:12355  _redEnvelopes[_id].buyTickets + _ticketNumbers <= _redEnvelopes[_id].maxTickets */\n      gt\n      iszero\n        /* \"contracts/LuckyRedEnvelopeV2.sol\":12268:12386  require(_redEnvelopes[_id].buyTickets + _ticketNumbers <= _redEnvelopes[_id].maxTickets, \"RedEnvelope is over ticket\") */\n      tag_286\n      jumpi\n      mload(0x40)\n      shl(0xe5, 0x461bcd)\n      dup2\n      mstore\n        /* \"#utility.yul\":9872:9874   */\n      0x20\n        /* \"contracts/LuckyRedEnvelopeV2.sol\":12268:12386  require(_redEnvelopes[_id].buyTickets + _ticketNumbers <= _redEnvelopes[_id].maxTickets, \"RedEnvelope is over ticket\") */\n      0x04\n      dup3\n      add\n        /* \"#utility.yul\":9854:9875   */\n      mstore\n        /* \"#utility.yul\":9911:9913   */\n      0x1a\n        /* \"#utility.yul\":9891:9909   */\n      0x24\n      dup3\n      add\n        /* \"#utility.yul\":9884:9914   */\n      mstore\n        /* \"#utility.yul\":9950:9978   */\n      0x526564456e76656c6f7065206973206f766572207469636b6574000000000000\n        /* \"#utility.yul\":9930:9948   */\n      0x44\n      dup3\n      add\n        /* \"#utility.yul\":9923:9979   */\n      mstore\n        /* \"#utility.yul\":9996:10014   */\n      0x64\n      add\n        /* \"contracts/LuckyRedEnvelopeV2.sol\":12268:12386  require(_redEnvelopes[_id].buyTickets + _ticketNumbers <= _redEnvelopes[_id].maxTickets, \"RedEnvelope is over ticket\") */\n      tag_117\n        /* \"#utility.yul\":9670:10020   */\n      jump\n        /* \"contracts/LuckyRedEnvelopeV2.sol\":12268:12386  require(_redEnvelopes[_id].buyTickets + _ticketNumbers <= _redEnvelopes[_id].maxTickets, \"RedEnvelope is over ticket\") */\n    tag_286:\n        /* \"contracts/LuckyRedEnvelopeV2.sol\":12465:12494  uint256 amountTokenToTransfer */\n      0x00\n        /* \"contracts/LuckyRedEnvelopeV2.sol\":12497:12515  _redEnvelopes[_id] */\n      dup4\n      dup2\n      mstore\n        /* \"contracts/LuckyRedEnvelopeV2.sol\":12497:12510  _redEnvelopes */\n      0x07\n        /* \"contracts/LuckyRedEnvelopeV2.sol\":12497:12515  _redEnvelopes[_id] */\n      0x20\n      mstore\n      0x40\n      dup2\n      keccak256\n        /* \"contracts/LuckyRedEnvelopeV2.sol\":12497:12527  _redEnvelopes[_id].ticketPirce */\n      0x0a\n      add\n      sload\n        /* \"contracts/LuckyRedEnvelopeV2.sol\":12497:12544  _redEnvelopes[_id].ticketPirce * _ticketNumbers */\n      tag_288\n      swap1\n        /* \"contracts/LuckyRedEnvelopeV2.sol\":12530:12544  _ticketNumbers */\n      dup4\n      swap1\n        /* \"contracts/LuckyRedEnvelopeV2.sol\":12497:12544  _redEnvelopes[_id].ticketPirce * _ticketNumbers */\n      tag_254\n      jump\t// in\n    tag_288:\n        /* \"contracts/LuckyRedEnvelopeV2.sol\":12614:12632  _redEnvelopes[_id] */\n      0x00\n      dup6\n      dup2\n      mstore\n        /* \"contracts/LuckyRedEnvelopeV2.sol\":12614:12627  _redEnvelopes */\n      0x07\n        /* \"contracts/LuckyRedEnvelopeV2.sol\":12614:12632  _redEnvelopes[_id] */\n      0x20\n      mstore\n      0x40\n      swap1\n      keccak256\n        /* \"contracts/LuckyRedEnvelopeV2.sol\":12614:12644  _redEnvelopes[_id].ticketToken */\n      sload\n        /* \"contracts/LuckyRedEnvelopeV2.sol\":12465:12544  uint256 amountTokenToTransfer = _redEnvelopes[_id].ticketPirce * _ticketNumbers */\n      swap1\n      swap2\n      pop\n        /* \"contracts/LuckyRedEnvelopeV2.sol\":12607:12721  IERC20(_redEnvelopes[_id].ticketToken).safeTransferFrom(address(msg.sender), address(this), amountTokenToTransfer) */\n      tag_289\n      swap1\n      sub(shl(0xa0, 0x01), 0x01)\n        /* \"contracts/LuckyRedEnvelopeV2.sol\":12614:12644  _redEnvelopes[_id].ticketToken */\n      and\n        /* \"contracts/LuckyRedEnvelopeV2.sol\":12671:12681  msg.sender */\n      caller\n        /* \"contracts/LuckyRedEnvelopeV2.sol\":12692:12696  this */\n      address\n        /* \"contracts/LuckyRedEnvelopeV2.sol\":12465:12544  uint256 amountTokenToTransfer = _redEnvelopes[_id].ticketPirce * _ticketNumbers */\n      dup5\n        /* \"contracts/LuckyRedEnvelopeV2.sol\":12607:12662  IERC20(_redEnvelopes[_id].ticketToken).safeTransferFrom */\n      tag_290\n        /* \"contracts/LuckyRedEnvelopeV2.sol\":12607:12721  IERC20(_redEnvelopes[_id].ticketToken).safeTransferFrom(address(msg.sender), address(this), amountTokenToTransfer) */\n      jump\t// in\n    tag_289:\n        /* \"contracts/LuckyRedEnvelopeV2.sol\":12734:12786  _fillTicket(_id,_receiveAddress,_ticketNumbers,true) */\n      tag_291\n        /* \"contracts/LuckyRedEnvelopeV2.sol\":12746:12749  _id */\n      dup5\n        /* \"contracts/LuckyRedEnvelopeV2.sol\":12750:12765  _receiveAddress */\n      dup5\n        /* \"contracts/LuckyRedEnvelopeV2.sol\":12766:12780  _ticketNumbers */\n      dup5\n        /* \"contracts/LuckyRedEnvelopeV2.sol\":12781:12785  true */\n      0x01\n        /* \"contracts/LuckyRedEnvelopeV2.sol\":12734:12745  _fillTicket */\n      tag_177\n        /* \"contracts/LuckyRedEnvelopeV2.sol\":12734:12786  _fillTicket(_id,_receiveAddress,_ticketNumbers,true) */\n      jump\t// in\n    tag_291:\n        /* \"contracts/LuckyRedEnvelopeV2.sol\":12844:12859  _receiveAddress */\n      dup3\n      sub(shl(0xa0, 0x01), 0x01)\n        /* \"contracts/LuckyRedEnvelopeV2.sol\":12804:12875  TicketsPurchase(_id,address(msg.sender),_receiveAddress,_ticketNumbers) */\n      and\n        /* \"contracts/LuckyRedEnvelopeV2.sol\":12832:12842  msg.sender */\n      caller\n      sub(shl(0xa0, 0x01), 0x01)\n        /* \"contracts/LuckyRedEnvelopeV2.sol\":12804:12875  TicketsPurchase(_id,address(msg.sender),_receiveAddress,_ticketNumbers) */\n      and\n        /* \"contracts/LuckyRedEnvelopeV2.sol\":12820:12823  _id */\n      dup6\n        /* \"contracts/LuckyRedEnvelopeV2.sol\":12804:12875  TicketsPurchase(_id,address(msg.sender),_receiveAddress,_ticketNumbers) */\n      0xc711bfbe9284c7d96adbb9ebad39767e13c00b6b5cd4ca300fec0d969309a407\n        /* \"contracts/LuckyRedEnvelopeV2.sol\":12860:12874  _ticketNumbers */\n      dup6\n        /* \"contracts/LuckyRedEnvelopeV2.sol\":12804:12875  TicketsPurchase(_id,address(msg.sender),_receiveAddress,_ticketNumbers) */\n      mload(0x40)\n      tag_292\n      swap2\n        /* \"#utility.yul\":2246:2271   */\n      dup2\n      mstore\n        /* \"#utility.yul\":2234:2236   */\n      0x20\n        /* \"#utility.yul\":2219:2237   */\n      add\n      swap1\n        /* \"#utility.yul\":2100:2277   */\n      jump\n        /* \"contracts/LuckyRedEnvelopeV2.sol\":12804:12875  TicketsPurchase(_id,address(msg.sender),_receiveAddress,_ticketNumbers) */\n    tag_292:\n      mload(0x40)\n      dup1\n      swap2\n      sub\n      swap1\n      log4\n        /* \"contracts/LuckyRedEnvelopeV2.sol\":11809:12883  {... */\n      pop\n        /* \"@openzeppelin/contracts/utils/ReentrancyGuard.sol\":2398:2418  _nonReentrantAfter() */\n      tag_179\n        /* \"@openzeppelin/contracts/utils/ReentrancyGuard.sol\":1713:1714  1 */\n      0x01\n        /* \"@openzeppelin/contracts/utils/ReentrancyGuard.sol\":2924:2931  _status */\n      0x00\n        /* \"@openzeppelin/contracts/utils/ReentrancyGuard.sol\":2924:2945  _status = NOT_ENTERED */\n      sstore\n        /* \"@openzeppelin/contracts/utils/ReentrancyGuard.sol\":2744:2952  function _nonReentrantAfter() private {... */\n      jump\n        /* \"contracts/LuckyRedEnvelopeV2.sol\":19283:19568  function claimPrize(uint256 _id)external nonReentrant{... */\n    tag_91:\n        /* \"@openzeppelin/contracts/utils/ReentrancyGuard.sol\":2356:2377  _nonReentrantBefore() */\n      tag_295\n        /* \"@openzeppelin/contracts/utils/ReentrancyGuard.sol\":2356:2375  _nonReentrantBefore */\n      tag_121\n        /* \"@openzeppelin/contracts/utils/ReentrancyGuard.sol\":2356:2377  _nonReentrantBefore() */\n      jump\t// in\n    tag_295:\n        /* \"contracts/LuckyRedEnvelopeV2.sol\":19384:19400  Status.Claimable */\n      0x03\n        /* \"contracts/LuckyRedEnvelopeV2.sol\":19355:19373  _redEnvelopes[_id] */\n      0x00\n      dup3\n      dup2\n      mstore\n        /* \"contracts/LuckyRedEnvelopeV2.sol\":19355:19368  _redEnvelopes */\n      0x07\n        /* \"contracts/LuckyRedEnvelopeV2.sol\":19355:19373  _redEnvelopes[_id] */\n      0x20\n      mstore\n      0x40\n      swap1\n      keccak256\n        /* \"contracts/LuckyRedEnvelopeV2.sol\":19355:19380  _redEnvelopes[_id].status */\n      sload\n      shl(0xa0, 0x01)\n      swap1\n      div\n      0xff\n      and\n        /* \"contracts/LuckyRedEnvelopeV2.sol\":19355:19400  _redEnvelopes[_id].status == Status.Claimable */\n      0x03\n      dup2\n      gt\n      iszero\n      tag_300\n      jumpi\n      tag_300\n      tag_137\n      jump\t// in\n    tag_300:\n      eq\n        /* \"contracts/LuckyRedEnvelopeV2.sol\":19347:19430  require(_redEnvelopes[_id].status == Status.Claimable, \"RedEnvelope not claimable\") */\n      tag_301\n      jumpi\n      mload(0x40)\n      shl(0xe5, 0x461bcd)\n      dup2\n      mstore\n        /* \"#utility.yul\":11720:11722   */\n      0x20\n        /* \"contracts/LuckyRedEnvelopeV2.sol\":19347:19430  require(_redEnvelopes[_id].status == Status.Claimable, \"RedEnvelope not claimable\") */\n      0x04\n      dup3\n      add\n        /* \"#utility.yul\":11702:11723   */\n      mstore\n        /* \"#utility.yul\":11759:11761   */\n      0x19\n        /* \"#utility.yul\":11739:11757   */\n      0x24\n      dup3\n      add\n        /* \"#utility.yul\":11732:11762   */\n      mstore\n        /* \"#utility.yul\":11798:11825   */\n      0x526564456e76656c6f7065206e6f7420636c61696d61626c6500000000000000\n        /* \"#utility.yul\":11778:11796   */\n      0x44\n      dup3\n      add\n        /* \"#utility.yul\":11771:11826   */\n      mstore\n        /* \"#utility.yul\":11843:11861   */\n      0x64\n      add\n        /* \"contracts/LuckyRedEnvelopeV2.sol\":19347:19430  require(_redEnvelopes[_id].status == Status.Claimable, \"RedEnvelope not claimable\") */\n      tag_117\n        /* \"#utility.yul\":11518:11867   */\n      jump\n        /* \"contracts/LuckyRedEnvelopeV2.sol\":19347:19430  require(_redEnvelopes[_id].status == Status.Claimable, \"RedEnvelope not claimable\") */\n    tag_301:\n        /* \"contracts/LuckyRedEnvelopeV2.sol\":19449:19467  _redEnvelopes[_id] */\n      0x00\n      dup2\n      dup2\n      mstore\n        /* \"contracts/LuckyRedEnvelopeV2.sol\":19449:19462  _redEnvelopes */\n      0x07\n        /* \"contracts/LuckyRedEnvelopeV2.sol\":19449:19467  _redEnvelopes[_id] */\n      0x20\n      mstore\n      0x40\n      swap1\n      keccak256\n        /* \"contracts/LuckyRedEnvelopeV2.sol\":19449:19477  _redEnvelopes[_id].autoClaim */\n      0x0d\n      add\n      sload\n      0xff\n      and\n        /* \"contracts/LuckyRedEnvelopeV2.sol\":19449:19486  _redEnvelopes[_id].autoClaim == false */\n      iszero\n        /* \"contracts/LuckyRedEnvelopeV2.sol\":19441:19513  require(_redEnvelopes[_id].autoClaim == false, \"RedEnvelope auto claim\") */\n      tag_304\n      jumpi\n      mload(0x40)\n      shl(0xe5, 0x461bcd)\n      dup2\n      mstore\n        /* \"#utility.yul\":12074:12076   */\n      0x20\n        /* \"contracts/LuckyRedEnvelopeV2.sol\":19441:19513  require(_redEnvelopes[_id].autoClaim == false, \"RedEnvelope auto claim\") */\n      0x04\n      dup3\n      add\n        /* \"#utility.yul\":12056:12077   */\n      mstore\n        /* \"#utility.yul\":12113:12115   */\n      0x16\n        /* \"#utility.yul\":12093:12111   */\n      0x24\n      dup3\n      add\n        /* \"#utility.yul\":12086:12116   */\n      mstore\n      shl(0x50, 0x526564456e76656c6f7065206175746f20636c61696d)\n        /* \"#utility.yul\":12132:12150   */\n      0x44\n      dup3\n      add\n        /* \"#utility.yul\":12125:12177   */\n      mstore\n        /* \"#utility.yul\":12194:12212   */\n      0x64\n      add\n        /* \"contracts/LuckyRedEnvelopeV2.sol\":19441:19513  require(_redEnvelopes[_id].autoClaim == false, \"RedEnvelope auto claim\") */\n      tag_117\n        /* \"#utility.yul\":11872:12218   */\n      jump\n        /* \"contracts/LuckyRedEnvelopeV2.sol\":19441:19513  require(_redEnvelopes[_id].autoClaim == false, \"RedEnvelope auto claim\") */\n    tag_304:\n        /* \"contracts/LuckyRedEnvelopeV2.sol\":19524:19560  _claimPrize(_id,address(msg.sender)) */\n      tag_307\n        /* \"contracts/LuckyRedEnvelopeV2.sol\":19536:19539  _id */\n      dup2\n        /* \"contracts/LuckyRedEnvelopeV2.sol\":19548:19558  msg.sender */\n      caller\n        /* \"contracts/LuckyRedEnvelopeV2.sol\":19524:19535  _claimPrize */\n      tag_265\n        /* \"contracts/LuckyRedEnvelopeV2.sol\":19524:19560  _claimPrize(_id,address(msg.sender)) */\n      jump\t// in\n    tag_307:\n        /* \"@openzeppelin/contracts/utils/ReentrancyGuard.sol\":2398:2418  _nonReentrantAfter() */\n      tag_147\n        /* \"@openzeppelin/contracts/utils/ReentrancyGuard.sol\":1713:1714  1 */\n      0x01\n        /* \"@openzeppelin/contracts/utils/ReentrancyGuard.sol\":2924:2931  _status */\n      0x00\n        /* \"@openzeppelin/contracts/utils/ReentrancyGuard.sol\":2924:2945  _status = NOT_ENTERED */\n      sstore\n        /* \"@openzeppelin/contracts/utils/ReentrancyGuard.sol\":2744:2952  function _nonReentrantAfter() private {... */\n      jump\n        /* \"contracts/LuckyRedEnvelopeV2.sol\":4594:4896  function setOperatorAddress(... */\n    tag_95:\n        /* \"@openzeppelin/contracts/access/Ownable.sol\":1531:1544  _checkOwner() */\n      tag_310\n        /* \"@openzeppelin/contracts/access/Ownable.sol\":1531:1542  _checkOwner */\n      tag_211\n        /* \"@openzeppelin/contracts/access/Ownable.sol\":1531:1544  _checkOwner() */\n      jump\t// in\n    tag_310:\n      sub(shl(0xa0, 0x01), 0x01)\n        /* \"contracts/LuckyRedEnvelopeV2.sol\":4720:4750  _operatorAddress != address(0) */\n      dup3\n      and\n        /* \"contracts/LuckyRedEnvelopeV2.sol\":4712:4777  require(_operatorAddress != address(0), \"Cannot be zero address\") */\n      tag_312\n      jumpi\n      mload(0x40)\n      shl(0xe5, 0x461bcd)\n      dup2\n      mstore\n        /* \"#utility.yul\":12425:12427   */\n      0x20\n        /* \"contracts/LuckyRedEnvelopeV2.sol\":4712:4777  require(_operatorAddress != address(0), \"Cannot be zero address\") */\n      0x04\n      dup3\n      add\n        /* \"#utility.yul\":12407:12428   */\n      mstore\n        /* \"#utility.yul\":12464:12466   */\n      0x16\n        /* \"#utility.yul\":12444:12462   */\n      0x24\n      dup3\n      add\n        /* \"#utility.yul\":12437:12467   */\n      mstore\n      shl(0x50, 0x43616e6e6f74206265207a65726f2061646472657373)\n        /* \"#utility.yul\":12483:12501   */\n      0x44\n      dup3\n      add\n        /* \"#utility.yul\":12476:12528   */\n      mstore\n        /* \"#utility.yul\":12545:12563   */\n      0x64\n      add\n        /* \"contracts/LuckyRedEnvelopeV2.sol\":4712:4777  require(_operatorAddress != address(0), \"Cannot be zero address\") */\n      tag_117\n        /* \"#utility.yul\":12223:12569   */\n      jump\n        /* \"contracts/LuckyRedEnvelopeV2.sol\":4712:4777  require(_operatorAddress != address(0), \"Cannot be zero address\") */\n    tag_312:\n      sub(shl(0xa0, 0x01), 0x01)\n        /* \"contracts/LuckyRedEnvelopeV2.sol\":4788:4825  operatorAddressList[_operatorAddress] */\n      dup3\n      and\n      0x00\n      dup2\n      dup2\n      mstore\n        /* \"contracts/LuckyRedEnvelopeV2.sol\":4788:4807  operatorAddressList */\n      0x06\n        /* \"contracts/LuckyRedEnvelopeV2.sol\":4788:4825  operatorAddressList[_operatorAddress] */\n      0x20\n      swap1\n      dup2\n      mstore\n      0x40\n      swap2\n      dup3\n      swap1\n      keccak256\n        /* \"contracts/LuckyRedEnvelopeV2.sol\":4788:4832  operatorAddressList[_operatorAddress] = _opt */\n      dup1\n      sload\n      not(0xff)\n      and\n      dup6\n      iszero\n      iszero\n      swap1\n      dup2\n      or\n      swap1\n      swap2\n      sstore\n        /* \"contracts/LuckyRedEnvelopeV2.sol\":4850:4888  OperatorAddress(_operatorAddress,_opt) */\n      dup3\n      mload\n        /* \"#utility.yul\":12742:12793   */\n      swap4\n      dup5\n      mstore\n        /* \"#utility.yul\":12809:12827   */\n      swap1\n      dup4\n      add\n        /* \"#utility.yul\":12802:12852   */\n      mstore\n        /* \"contracts/LuckyRedEnvelopeV2.sol\":4850:4888  OperatorAddress(_operatorAddress,_opt) */\n      0xedae46487653623e513ea3b3341c9e6b457a2ef687d0342d2507ccb63458b19f\n      swap2\n        /* \"#utility.yul\":12715:12733   */\n      add\n        /* \"contracts/LuckyRedEnvelopeV2.sol\":4850:4888  OperatorAddress(_operatorAddress,_opt) */\n      tag_227\n        /* \"#utility.yul\":12574:12858   */\n      jump\n        /* \"contracts/LuckyRedEnvelopeV2.sol\":21019:21163  function viewRedEnvelopeClaimPrize(uint256 _id,address _user)external view returns(uint256){... */\n    tag_99:\n        /* \"contracts/LuckyRedEnvelopeV2.sol\":21102:21109  uint256 */\n      0x00\n        /* \"contracts/LuckyRedEnvelopeV2.sol\":21128:21148  _amount2claimed[_id] */\n      dup3\n      dup2\n      mstore\n        /* \"contracts/LuckyRedEnvelopeV2.sol\":21128:21143  _amount2claimed */\n      0x0c\n        /* \"contracts/LuckyRedEnvelopeV2.sol\":21128:21148  _amount2claimed[_id] */\n      0x20\n      swap1\n      dup2\n      mstore\n      0x40\n      dup1\n      dup4\n      keccak256\n      sub(shl(0xa0, 0x01), 0x01)\n        /* \"contracts/LuckyRedEnvelopeV2.sol\":21128:21155  _amount2claimed[_id][_user] */\n      dup6\n      and\n      dup5\n      mstore\n      swap1\n      swap2\n      mstore\n      swap1\n      keccak256\n      sload\n        /* \"contracts/LuckyRedEnvelopeV2.sol\":21019:21163  function viewRedEnvelopeClaimPrize(uint256 _id,address _user)external view returns(uint256){... */\n    tag_317:\n      swap3\n      swap2\n      pop\n      pop\n      jump\t// out\n        /* \"@openzeppelin/contracts/access/Ownable.sol\":2543:2758  function transferOwnership(address newOwner) public virtual onlyOwner {... */\n    tag_106:\n        /* \"@openzeppelin/contracts/access/Ownable.sol\":1531:1544  _checkOwner() */\n      tag_319\n        /* \"@openzeppelin/contracts/access/Ownable.sol\":1531:1542  _checkOwner */\n      tag_211\n        /* \"@openzeppelin/contracts/access/Ownable.sol\":1531:1544  _checkOwner() */\n      jump\t// in\n    tag_319:\n      sub(shl(0xa0, 0x01), 0x01)\n        /* \"@openzeppelin/contracts/access/Ownable.sol\":2627:2649  newOwner == address(0) */\n      dup2\n      and\n        /* \"@openzeppelin/contracts/access/Ownable.sol\":2623:2714  if (newOwner == address(0)) {... */\n      tag_321\n      jumpi\n        /* \"@openzeppelin/contracts/access/Ownable.sol\":2672:2703  OwnableInvalidOwner(address(0)) */\n      mload(0x40)\n      shl(0xe0, 0x1e4fbdf7)\n      dup2\n      mstore\n        /* \"@openzeppelin/contracts/access/Ownable.sol\":2700:2701  0 */\n      0x00\n        /* \"@openzeppelin/contracts/access/Ownable.sol\":2672:2703  OwnableInvalidOwner(address(0)) */\n      0x04\n      dup3\n      add\n        /* \"#utility.yul\":2790:2841   */\n      mstore\n        /* \"#utility.yul\":2763:2781   */\n      0x24\n      add\n        /* \"@openzeppelin/contracts/access/Ownable.sol\":2672:2703  OwnableInvalidOwner(address(0)) */\n      tag_117\n        /* \"#utility.yul\":2644:2847   */\n      jump\n        /* \"@openzeppelin/contracts/access/Ownable.sol\":2623:2714  if (newOwner == address(0)) {... */\n    tag_321:\n        /* \"@openzeppelin/contracts/access/Ownable.sol\":2723:2751  _transferOwnership(newOwner) */\n      tag_147\n        /* \"@openzeppelin/contracts/access/Ownable.sol\":2742:2750  newOwner */\n      dup2\n        /* \"@openzeppelin/contracts/access/Ownable.sol\":2723:2741  _transferOwnership */\n      tag_214\n        /* \"@openzeppelin/contracts/access/Ownable.sol\":2723:2751  _transferOwnership(newOwner) */\n      jump\t// in\n        /* \"contracts/LuckyRedEnvelopeV2.sol\":4904:5089  function setDefaultAutoClaim(bool _defaultAutoClaim) external onlyOperator{... */\n    tag_110:\n        /* \"contracts/LuckyRedEnvelopeV2.sol\":2462:2472  msg.sender */\n      caller\n        /* \"contracts/LuckyRedEnvelopeV2.sol\":2442:2473  operatorAddressList[msg.sender] */\n      0x00\n      swap1\n      dup2\n      mstore\n        /* \"contracts/LuckyRedEnvelopeV2.sol\":2442:2461  operatorAddressList */\n      0x06\n        /* \"contracts/LuckyRedEnvelopeV2.sol\":2442:2473  operatorAddressList[msg.sender] */\n      0x20\n      mstore\n      0x40\n      swap1\n      keccak256\n      sload\n      0xff\n      and\n        /* \"contracts/LuckyRedEnvelopeV2.sol\":2442:2481  operatorAddressList[msg.sender] == true */\n      iszero\n      iszero\n        /* \"contracts/LuckyRedEnvelopeV2.sol\":2442:2473  operatorAddressList[msg.sender] */\n      0x01\n        /* \"contracts/LuckyRedEnvelopeV2.sol\":2442:2481  operatorAddressList[msg.sender] == true */\n      eq\n        /* \"contracts/LuckyRedEnvelopeV2.sol\":2434:2498  require(operatorAddressList[msg.sender] == true, \"Not operator\") */\n      tag_325\n      jumpi\n      mload(0x40)\n      shl(0xe5, 0x461bcd)\n      dup2\n      mstore\n      0x04\n      add\n      tag_117\n      swap1\n      tag_118\n      jump\t// in\n    tag_325:\n        /* \"contracts/LuckyRedEnvelopeV2.sol\":4989:5005  defaultAutoClaim */\n      0x05\n        /* \"contracts/LuckyRedEnvelopeV2.sol\":4989:5025  defaultAutoClaim = _defaultAutoClaim */\n      dup1\n      sload\n      not(0xff)\n      and\n      dup3\n      iszero\n      iszero\n      swap1\n      dup2\n      or\n      swap1\n      swap2\n      sstore\n        /* \"contracts/LuckyRedEnvelopeV2.sol\":5041:5081  DefaultAutoClaimChange(defaultAutoClaim) */\n      mload(0x40)\n        /* \"contracts/LuckyRedEnvelopeV2.sol\":4989:5025  defaultAutoClaim = _defaultAutoClaim */\n      0xff\n        /* \"contracts/LuckyRedEnvelopeV2.sol\":5064:5080  defaultAutoClaim */\n      swap1\n      swap2\n      and\n        /* \"#utility.yul\":5198:5212   */\n      iszero\n        /* \"#utility.yul\":5191:5213   */\n      iszero\n        /* \"#utility.yul\":5173:5214   */\n      dup2\n      mstore\n        /* \"contracts/LuckyRedEnvelopeV2.sol\":5041:5081  DefaultAutoClaimChange(defaultAutoClaim) */\n      0x6fe9a4ab2e95e24b2be44989dc36a685149dfde9354d486a8da5cb4bbd01b010\n      swap1\n        /* \"#utility.yul\":5161:5163   */\n      0x20\n        /* \"#utility.yul\":5146:5164   */\n      add\n        /* \"contracts/LuckyRedEnvelopeV2.sol\":5041:5081  DefaultAutoClaimChange(defaultAutoClaim) */\n      mload(0x40)\n      dup1\n      swap2\n      sub\n      swap1\n      log1\n        /* \"contracts/LuckyRedEnvelopeV2.sol\":4904:5089  function setDefaultAutoClaim(bool _defaultAutoClaim) external onlyOperator{... */\n      pop\n      jump\t// out\n        /* \"contracts/LuckyRedEnvelopeV2.sol\":20535:20663  function viewRedEnvelopeStatus(uint256 _id) public view  returns (uint){... */\n    tag_113:\n        /* \"contracts/LuckyRedEnvelopeV2.sol\":20601:20605  uint */\n      0x00\n        /* \"contracts/LuckyRedEnvelopeV2.sol\":20629:20647  _redEnvelopes[_id] */\n      dup2\n      dup2\n      mstore\n        /* \"contracts/LuckyRedEnvelopeV2.sol\":20629:20642  _redEnvelopes */\n      0x07\n        /* \"contracts/LuckyRedEnvelopeV2.sol\":20629:20647  _redEnvelopes[_id] */\n      0x20\n      mstore\n      0x40\n      dup2\n      keccak256\n        /* \"contracts/LuckyRedEnvelopeV2.sol\":20629:20654  _redEnvelopes[_id].status */\n      sload\n      shl(0xa0, 0x01)\n      swap1\n      div\n      0xff\n      and\n        /* \"contracts/LuckyRedEnvelopeV2.sol\":20624:20655  uint(_redEnvelopes[_id].status) */\n      0x03\n      dup2\n      gt\n      iszero\n      tag_317\n      jumpi\n      tag_317\n      tag_137\n      jump\t// in\n        /* \"@openzeppelin/contracts/utils/ReentrancyGuard.sol\":2431:2738  function _nonReentrantBefore() private {... */\n    tag_121:\n        /* \"@openzeppelin/contracts/utils/ReentrancyGuard.sol\":1755:1756  2 */\n      0x02\n        /* \"@openzeppelin/contracts/utils/ReentrancyGuard.sol\":2558:2565  _status */\n      sload(0x00)\n        /* \"@openzeppelin/contracts/utils/ReentrancyGuard.sol\":2558:2576  _status == ENTERED */\n      sub\n        /* \"@openzeppelin/contracts/utils/ReentrancyGuard.sol\":2554:2640  if (_status == ENTERED) {... */\n      tag_333\n      jumpi\n        /* \"@openzeppelin/contracts/utils/ReentrancyGuard.sol\":2599:2629  ReentrancyGuardReentrantCall() */\n      mload(0x40)\n      shl(0xe0, 0x3ee5aeb5)\n      dup2\n      mstore\n      0x04\n      add\n      mload(0x40)\n      dup1\n      swap2\n      sub\n      swap1\n      revert\n        /* \"@openzeppelin/contracts/utils/ReentrancyGuard.sol\":2554:2640  if (_status == ENTERED) {... */\n    tag_333:\n        /* \"@openzeppelin/contracts/utils/ReentrancyGuard.sol\":1755:1756  2 */\n      0x02\n        /* \"@openzeppelin/contracts/utils/ReentrancyGuard.sol\":2714:2721  _status */\n      0x00\n        /* \"@openzeppelin/contracts/utils/ReentrancyGuard.sol\":2714:2731  _status = ENTERED */\n      sstore\n        /* \"@openzeppelin/contracts/utils/ReentrancyGuard.sol\":2431:2738  function _nonReentrantBefore() private {... */\n      jump\t// out\n        /* \"contracts/LuckyRedEnvelopeV2.sol\":5397:6098  function _createRedEnvelope(address _tokenAddress,... */\n    tag_124:\n        /* \"contracts/LuckyRedEnvelopeV2.sol\":5647:5656  currentId */\n      0x03\n        /* \"contracts/LuckyRedEnvelopeV2.sol\":5647:5658  currentId++ */\n      dup1\n      sload\n      swap1\n        /* \"contracts/LuckyRedEnvelopeV2.sol\":5647:5656  currentId */\n      0x00\n        /* \"contracts/LuckyRedEnvelopeV2.sol\":5647:5658  currentId++ */\n      tag_335\n      dup4\n      tag_336\n      jump\t// in\n    tag_335:\n      swap1\n      swap2\n      sstore\n      pop\n      pop\n        /* \"contracts/LuckyRedEnvelopeV2.sol\":5717:5726  currentId */\n      0x03\n      dup1\n      sload\n        /* \"contracts/LuckyRedEnvelopeV2.sol\":5669:5700  RedEnvelope storage redEnvelope */\n      0x00\n        /* \"contracts/LuckyRedEnvelopeV2.sol\":5703:5727  _redEnvelopes[currentId] */\n      swap1\n      dup2\n      mstore\n        /* \"contracts/LuckyRedEnvelopeV2.sol\":5703:5716  _redEnvelopes */\n      0x07\n        /* \"contracts/LuckyRedEnvelopeV2.sol\":5703:5727  _redEnvelopes[currentId] */\n      0x20\n      mstore\n      0x40\n      swap1\n      keccak256\n        /* \"contracts/LuckyRedEnvelopeV2.sol\":5738:5777  redEnvelope.ticketToken = _tokenAddress */\n      dup1\n      sload\n      sub(shl(0xa0, 0x01), 0x01)\n      swap10\n      swap1\n      swap10\n      and\n      not(sub(shl(0xa8, 0x01), 0x01))\n        /* \"contracts/LuckyRedEnvelopeV2.sol\":5788:5820  redEnvelope.status = Status.Open */\n      swap1\n      swap10\n      and\n      swap9\n      swap1\n      swap9\n      or\n      shl(0xa0, 0x01)\n      or\n      dup9\n      sstore\n      0x01\n        /* \"contracts/LuckyRedEnvelopeV2.sol\":5831:5850  redEnvelope.endTime */\n      dup9\n      add\n        /* \"contracts/LuckyRedEnvelopeV2.sol\":5831:5861  redEnvelope.endTime = _endTime */\n      swap6\n      swap1\n      swap6\n      sstore\n        /* \"contracts/LuckyRedEnvelopeV2.sol\":5872:5894  redEnvelope.maxTickets */\n      0x02\n      dup8\n      add\n        /* \"contracts/LuckyRedEnvelopeV2.sol\":5872:5908  redEnvelope.maxTickets = _maxTickets */\n      swap4\n      swap1\n      swap4\n      sstore\n        /* \"contracts/LuckyRedEnvelopeV2.sol\":5919:5942  redEnvelope.maxPrizeNum */\n      swap3\n      dup6\n      add\n        /* \"contracts/LuckyRedEnvelopeV2.sol\":5919:5957  redEnvelope.maxPrizeNum = _maxPrizeNum */\n      sstore\n        /* \"contracts/LuckyRedEnvelopeV2.sol\":5968:5991  redEnvelope.ticketPirce */\n      0x0a\n      dup5\n      add\n        /* \"contracts/LuckyRedEnvelopeV2.sol\":5968:6006  redEnvelope.ticketPirce = _ticketPirce */\n      swap3\n      swap1\n      swap3\n      sstore\n        /* \"contracts/LuckyRedEnvelopeV2.sol\":6017:6035  redEnvelope.secret */\n      0x0c\n      dup4\n      add\n        /* \"contracts/LuckyRedEnvelopeV2.sol\":6017:6045  redEnvelope.secret = _secret */\n      sstore\n        /* \"contracts/LuckyRedEnvelopeV2.sol\":6056:6077  redEnvelope.autoClaim */\n      0x0d\n      swap1\n      swap2\n      add\n        /* \"contracts/LuckyRedEnvelopeV2.sol\":6056:6090  redEnvelope.autoClaim = _autoClaim */\n      dup1\n      sload\n      not(0xff)\n      and\n      swap2\n      iszero\n      iszero\n      swap2\n      swap1\n      swap2\n      or\n      swap1\n      sstore\n        /* \"contracts/LuckyRedEnvelopeV2.sol\":5397:6098  function _createRedEnvelope(address _tokenAddress,... */\n      jump\t// out\n        /* \"contracts/LuckyRedEnvelopeV2.sol\":9005:10670  function _fillTicket(uint256 _id,address _receiveAddress,uint256 _ticketNumbers,bool _buy)internal{... */\n    tag_177:\n        /* \"contracts/LuckyRedEnvelopeV2.sol\":9529:9549  uint256 totalNumbers */\n      0x00\n        /* \"contracts/LuckyRedEnvelopeV2.sol\":9572:9590  _redEnvelopes[_id] */\n      dup5\n      dup2\n      mstore\n        /* \"contracts/LuckyRedEnvelopeV2.sol\":9572:9585  _redEnvelopes */\n      0x07\n        /* \"contracts/LuckyRedEnvelopeV2.sol\":9572:9590  _redEnvelopes[_id] */\n      0x20\n      mstore\n      0x40\n      dup2\n      keccak256\n        /* \"contracts/LuckyRedEnvelopeV2.sol\":9572:9600  _redEnvelopes[_id].userTxNum */\n      0x08\n      add\n      sload\n        /* \"contracts/LuckyRedEnvelopeV2.sol\":9572:9605  _redEnvelopes[_id].userTxNum != 0 */\n      iszero\n        /* \"contracts/LuckyRedEnvelopeV2.sol\":9568:9716  if (_redEnvelopes[_id].userTxNum != 0){... */\n      tag_341\n      jumpi\n        /* \"contracts/LuckyRedEnvelopeV2.sol\":9640:9653  _tickets[_id] */\n      0x00\n      dup6\n      dup2\n      mstore\n        /* \"contracts/LuckyRedEnvelopeV2.sol\":9640:9648  _tickets */\n      0x08\n        /* \"contracts/LuckyRedEnvelopeV2.sol\":9640:9653  _tickets[_id] */\n      0x20\n      dup2\n      dup2\n      mstore\n      0x40\n      dup1\n      dup5\n      keccak256\n        /* \"contracts/LuckyRedEnvelopeV2.sol\":9654:9667  _redEnvelopes */\n      0x07\n        /* \"contracts/LuckyRedEnvelopeV2.sol\":9654:9672  _redEnvelopes[_id] */\n      swap1\n      swap3\n      mstore\n      dup4\n      keccak256\n        /* \"contracts/LuckyRedEnvelopeV2.sol\":9654:9682  _redEnvelopes[_id].userTxNum */\n      swap1\n      swap2\n      add\n      sload\n        /* \"contracts/LuckyRedEnvelopeV2.sol\":9640:9653  _tickets[_id] */\n      swap1\n      swap2\n      swap1\n        /* \"contracts/LuckyRedEnvelopeV2.sol\":9654:9686  _redEnvelopes[_id].userTxNum - 1 */\n      tag_342\n      swap1\n        /* \"contracts/LuckyRedEnvelopeV2.sol\":9685:9686  1 */\n      0x01\n      swap1\n        /* \"contracts/LuckyRedEnvelopeV2.sol\":9654:9686  _redEnvelopes[_id].userTxNum - 1 */\n      tag_343\n      jump\t// in\n    tag_342:\n        /* \"contracts/LuckyRedEnvelopeV2.sol\":9640:9687  _tickets[_id][_redEnvelopes[_id].userTxNum - 1] */\n      dup2\n      mstore\n      0x20\n      add\n      swap1\n      dup2\n      mstore\n      0x20\n      add\n      0x00\n      keccak256\n        /* \"contracts/LuckyRedEnvelopeV2.sol\":9640:9700  _tickets[_id][_redEnvelopes[_id].userTxNum - 1].totalNumbers */\n      0x00\n      add\n      sload\n        /* \"contracts/LuckyRedEnvelopeV2.sol\":9625:9700  totalNumbers = _tickets[_id][_redEnvelopes[_id].userTxNum - 1].totalNumbers */\n      swap1\n      pop\n        /* \"contracts/LuckyRedEnvelopeV2.sol\":9568:9716  if (_redEnvelopes[_id].userTxNum != 0){... */\n    tag_341:\n        /* \"contracts/LuckyRedEnvelopeV2.sol\":9776:10008  Ticket({... */\n      mload(0x40)\n      dup1\n      0x60\n      add\n      0x40\n      mstore\n      dup1\n        /* \"contracts/LuckyRedEnvelopeV2.sol\":9943:9957  _ticketNumbers */\n      dup5\n        /* \"contracts/LuckyRedEnvelopeV2.sol\":9928:9940  totalNumbers */\n      dup4\n        /* \"contracts/LuckyRedEnvelopeV2.sol\":9928:9957  totalNumbers + _ticketNumbers */\n      tag_344\n      swap2\n      swap1\n      tag_172\n      jump\t// in\n    tag_344:\n        /* \"contracts/LuckyRedEnvelopeV2.sol\":9776:10008  Ticket({... */\n      dup2\n      mstore\n      sub(shl(0xa0, 0x01), 0x01)\n      dup1\n      dup8\n      and\n      0x20\n      dup1\n      dup5\n      add\n      swap2\n      swap1\n      swap2\n      mstore\n      dup6\n      iszero\n      dup1\n      iszero\n      0x40\n      swap5\n      dup6\n      add\n      mstore\n      0x00\n        /* \"contracts/LuckyRedEnvelopeV2.sol\":9730:9743  _tickets[_id] */\n      dup11\n      dup2\n      mstore\n        /* \"contracts/LuckyRedEnvelopeV2.sol\":9730:9738  _tickets */\n      0x08\n        /* \"contracts/LuckyRedEnvelopeV2.sol\":9730:9743  _tickets[_id] */\n      dup1\n      dup5\n      mstore\n      dup6\n      dup3\n      keccak256\n        /* \"contracts/LuckyRedEnvelopeV2.sol\":9744:9757  _redEnvelopes */\n      0x07\n        /* \"contracts/LuckyRedEnvelopeV2.sol\":9744:9762  _redEnvelopes[_id] */\n      dup6\n      mstore\n      dup7\n      dup4\n      keccak256\n        /* \"contracts/LuckyRedEnvelopeV2.sol\":9744:9772  _redEnvelopes[_id].userTxNum */\n      swap1\n      swap2\n      add\n      sload\n        /* \"contracts/LuckyRedEnvelopeV2.sol\":9730:9773  _tickets[_id][_redEnvelopes[_id].userTxNum] */\n      dup3\n      mstore\n      dup4\n      mstore\n      dup5\n      swap1\n      keccak256\n        /* \"contracts/LuckyRedEnvelopeV2.sol\":9730:10008  _tickets[_id][_redEnvelopes[_id].userTxNum] = Ticket({... */\n      dup6\n      mload\n      dup2\n      sstore\n      swap2\n      dup6\n      add\n      mload\n      0x01\n      swap1\n      swap3\n      add\n      dup1\n      sload\n      swap6\n      swap1\n      swap5\n      add\n      mload\n      iszero\n      iszero\n      shl(0xa0, 0x01)\n      mul\n      not(sub(shl(0xa8, 0x01), 0x01))\n      swap1\n      swap6\n      and\n      swap2\n      swap1\n      swap3\n      and\n      or\n      swap3\n      swap1\n      swap3\n      or\n      swap1\n      sstore\n        /* \"contracts/LuckyRedEnvelopeV2.sol\":10025:10264  if (_buy){... */\n      tag_345\n      jumpi\n        /* \"contracts/LuckyRedEnvelopeV2.sol\":10085:10103  _redEnvelopes[_id] */\n      0x00\n      dup6\n      dup2\n      mstore\n        /* \"contracts/LuckyRedEnvelopeV2.sol\":10085:10098  _redEnvelopes */\n      0x07\n        /* \"contracts/LuckyRedEnvelopeV2.sol\":10085:10103  _redEnvelopes[_id] */\n      0x20\n      mstore\n      0x40\n      swap1\n      keccak256\n        /* \"contracts/LuckyRedEnvelopeV2.sol\":10085:10114  _redEnvelopes[_id].buyTickets */\n      0x04\n      add\n      sload\n        /* \"contracts/LuckyRedEnvelopeV2.sol\":10085:10131  _redEnvelopes[_id].buyTickets + _ticketNumbers */\n      tag_346\n      swap1\n        /* \"contracts/LuckyRedEnvelopeV2.sol\":10117:10131  _ticketNumbers */\n      dup5\n      swap1\n        /* \"contracts/LuckyRedEnvelopeV2.sol\":10085:10131  _redEnvelopes[_id].buyTickets + _ticketNumbers */\n      tag_172\n      jump\t// in\n    tag_346:\n        /* \"contracts/LuckyRedEnvelopeV2.sol\":10053:10071  _redEnvelopes[_id] */\n      0x00\n      dup7\n      dup2\n      mstore\n        /* \"contracts/LuckyRedEnvelopeV2.sol\":10053:10066  _redEnvelopes */\n      0x07\n        /* \"contracts/LuckyRedEnvelopeV2.sol\":10053:10071  _redEnvelopes[_id] */\n      0x20\n      mstore\n      0x40\n      swap1\n      keccak256\n        /* \"contracts/LuckyRedEnvelopeV2.sol\":10053:10082  _redEnvelopes[_id].buyTickets */\n      0x04\n      add\n        /* \"contracts/LuckyRedEnvelopeV2.sol\":10053:10131  _redEnvelopes[_id].buyTickets = _redEnvelopes[_id].buyTickets + _ticketNumbers */\n      sstore\n        /* \"contracts/LuckyRedEnvelopeV2.sol\":10025:10264  if (_buy){... */\n      jump(tag_347)\n    tag_345:\n        /* \"contracts/LuckyRedEnvelopeV2.sol\":10202:10220  _redEnvelopes[_id] */\n      0x00\n      dup6\n      dup2\n      mstore\n        /* \"contracts/LuckyRedEnvelopeV2.sol\":10202:10215  _redEnvelopes */\n      0x07\n        /* \"contracts/LuckyRedEnvelopeV2.sol\":10202:10220  _redEnvelopes[_id] */\n      0x20\n      mstore\n      0x40\n      swap1\n      keccak256\n        /* \"contracts/LuckyRedEnvelopeV2.sol\":10202:10231  _redEnvelopes[_id].getTickets */\n      0x05\n      add\n      sload\n        /* \"contracts/LuckyRedEnvelopeV2.sol\":10202:10248  _redEnvelopes[_id].getTickets + _ticketNumbers */\n      tag_348\n      swap1\n        /* \"contracts/LuckyRedEnvelopeV2.sol\":10234:10248  _ticketNumbers */\n      dup5\n      swap1\n        /* \"contracts/LuckyRedEnvelopeV2.sol\":10202:10248  _redEnvelopes[_id].getTickets + _ticketNumbers */\n      tag_172\n      jump\t// in\n    tag_348:\n        /* \"contracts/LuckyRedEnvelopeV2.sol\":10170:10188  _redEnvelopes[_id] */\n      0x00\n      dup7\n      dup2\n      mstore\n        /* \"contracts/LuckyRedEnvelopeV2.sol\":10170:10183  _redEnvelopes */\n      0x07\n        /* \"contracts/LuckyRedEnvelopeV2.sol\":10170:10188  _redEnvelopes[_id] */\n      0x20\n      mstore\n      0x40\n      swap1\n      keccak256\n        /* \"contracts/LuckyRedEnvelopeV2.sol\":10170:10199  _redEnvelopes[_id].getTickets */\n      0x05\n      add\n        /* \"contracts/LuckyRedEnvelopeV2.sol\":10170:10248  _redEnvelopes[_id].getTickets = _redEnvelopes[_id].getTickets + _ticketNumbers */\n      sstore\n        /* \"contracts/LuckyRedEnvelopeV2.sol\":10025:10264  if (_buy){... */\n    tag_347:\n        /* \"contracts/LuckyRedEnvelopeV2.sol\":10296:10319  _userAddrTicketNum[_id] */\n      0x00\n      dup6\n      dup2\n      mstore\n        /* \"contracts/LuckyRedEnvelopeV2.sol\":10296:10314  _userAddrTicketNum */\n      0x0a\n        /* \"contracts/LuckyRedEnvelopeV2.sol\":10296:10319  _userAddrTicketNum[_id] */\n      0x20\n      swap1\n      dup2\n      mstore\n      0x40\n      dup1\n      dup4\n      keccak256\n      sub(shl(0xa0, 0x01), 0x01)\n        /* \"contracts/LuckyRedEnvelopeV2.sol\":10296:10336  _userAddrTicketNum[_id][_receiveAddress] */\n      dup9\n      and\n      dup5\n      mstore\n      swap1\n      swap2\n      mstore\n      dup2\n      keccak256\n      sload\n        /* \"contracts/LuckyRedEnvelopeV2.sol\":10296:10341  _userAddrTicketNum[_id][_receiveAddress] == 0 */\n      swap1\n      sub\n        /* \"contracts/LuckyRedEnvelopeV2.sol\":10292:10500  if (_userAddrTicketNum[_id][_receiveAddress] == 0){... */\n      tag_349\n      jumpi\n        /* \"contracts/LuckyRedEnvelopeV2.sol\":10361:10380  _userAddrIndex[_id] */\n      0x00\n      dup6\n      dup2\n      mstore\n        /* \"contracts/LuckyRedEnvelopeV2.sol\":10361:10375  _userAddrIndex */\n      0x0b\n        /* \"contracts/LuckyRedEnvelopeV2.sol\":10361:10380  _userAddrIndex[_id] */\n      0x20\n      swap1\n      dup2\n      mstore\n      0x40\n      dup1\n      dup4\n      keccak256\n        /* \"contracts/LuckyRedEnvelopeV2.sol\":10381:10394  _redEnvelopes */\n      0x07\n        /* \"contracts/LuckyRedEnvelopeV2.sol\":10381:10399  _redEnvelopes[_id] */\n      dup1\n      dup5\n      mstore\n      dup3\n      dup6\n      keccak256\n        /* \"contracts/LuckyRedEnvelopeV2.sol\":10381:10411  _redEnvelopes[_id].userAddrNum */\n      dup2\n      add\n      dup1\n      sload\n        /* \"contracts/LuckyRedEnvelopeV2.sol\":10361:10412  _userAddrIndex[_id][_redEnvelopes[_id].userAddrNum] */\n      dup7\n      mstore\n      swap2\n      dup5\n      mstore\n      swap2\n      dup5\n      keccak256\n        /* \"contracts/LuckyRedEnvelopeV2.sol\":10361:10430  _userAddrIndex[_id][_redEnvelopes[_id].userAddrNum] = _receiveAddress */\n      dup1\n      sload\n      not(sub(shl(0xa0, 0x01), 0x01))\n      and\n      sub(shl(0xa0, 0x01), 0x01)\n      dup11\n      and\n      or\n      swap1\n      sstore\n        /* \"contracts/LuckyRedEnvelopeV2.sol\":10449:10467  _redEnvelopes[_id] */\n      dup9\n      dup5\n      mstore\n      swap2\n      mstore\n        /* \"contracts/LuckyRedEnvelopeV2.sol\":10449:10484  _redEnvelopes[_id].userAddrNum += 1 */\n      dup1\n      sload\n      0x01\n      swap3\n        /* \"contracts/LuckyRedEnvelopeV2.sol\":10361:10380  _userAddrIndex[_id] */\n      swap1\n        /* \"contracts/LuckyRedEnvelopeV2.sol\":10449:10484  _redEnvelopes[_id].userAddrNum += 1 */\n      tag_350\n      swap1\n      dup5\n      swap1\n      tag_172\n      jump\t// in\n    tag_350:\n      swap1\n      swap2\n      sstore\n      pop\n      pop\n        /* \"contracts/LuckyRedEnvelopeV2.sol\":10292:10500  if (_userAddrTicketNum[_id][_receiveAddress] == 0){... */\n    tag_349:\n        /* \"contracts/LuckyRedEnvelopeV2.sol\":10514:10532  _redEnvelopes[_id] */\n      0x00\n      dup6\n      dup2\n      mstore\n        /* \"contracts/LuckyRedEnvelopeV2.sol\":10514:10527  _redEnvelopes */\n      0x07\n        /* \"contracts/LuckyRedEnvelopeV2.sol\":10514:10532  _redEnvelopes[_id] */\n      0x20\n      mstore\n      0x40\n      dup2\n      keccak256\n        /* \"contracts/LuckyRedEnvelopeV2.sol\":10514:10542  _redEnvelopes[_id].userTxNum */\n      0x08\n      add\n        /* \"contracts/LuckyRedEnvelopeV2.sol\":10514:10547  _redEnvelopes[_id].userTxNum += 1 */\n      dup1\n      sload\n        /* \"contracts/LuckyRedEnvelopeV2.sol\":10546:10547  1 */\n      0x01\n      swap3\n        /* \"contracts/LuckyRedEnvelopeV2.sol\":10514:10532  _redEnvelopes[_id] */\n      swap1\n        /* \"contracts/LuckyRedEnvelopeV2.sol\":10514:10547  _redEnvelopes[_id].userTxNum += 1 */\n      tag_351\n      swap1\n        /* \"contracts/LuckyRedEnvelopeV2.sol\":10546:10547  1 */\n      dup5\n      swap1\n        /* \"contracts/LuckyRedEnvelopeV2.sol\":10514:10547  _redEnvelopes[_id].userTxNum += 1 */\n      tag_172\n      jump\t// in\n    tag_351:\n      swap1\n      swap2\n      sstore\n      pop\n      pop\n        /* \"contracts/LuckyRedEnvelopeV2.sol\":10605:10628  _userAddrTicketNum[_id] */\n      0x00\n      dup6\n      dup2\n      mstore\n        /* \"contracts/LuckyRedEnvelopeV2.sol\":10605:10623  _userAddrTicketNum */\n      0x0a\n        /* \"contracts/LuckyRedEnvelopeV2.sol\":10605:10628  _userAddrTicketNum[_id] */\n      0x20\n      swap1\n      dup2\n      mstore\n      0x40\n      dup1\n      dup4\n      keccak256\n      sub(shl(0xa0, 0x01), 0x01)\n        /* \"contracts/LuckyRedEnvelopeV2.sol\":10605:10645  _userAddrTicketNum[_id][_receiveAddress] */\n      dup9\n      and\n      dup5\n      mstore\n      swap1\n      swap2\n      mstore\n      swap1\n      keccak256\n      sload\n        /* \"contracts/LuckyRedEnvelopeV2.sol\":10605:10662  _userAddrTicketNum[_id][_receiveAddress] + _ticketNumbers */\n      tag_352\n      swap1\n        /* \"contracts/LuckyRedEnvelopeV2.sol\":10648:10662  _ticketNumbers */\n      dup5\n      swap1\n        /* \"contracts/LuckyRedEnvelopeV2.sol\":10605:10662  _userAddrTicketNum[_id][_receiveAddress] + _ticketNumbers */\n      tag_172\n      jump\t// in\n    tag_352:\n        /* \"contracts/LuckyRedEnvelopeV2.sol\":10562:10585  _userAddrTicketNum[_id] */\n      0x00\n      swap6\n      dup7\n      mstore\n        /* \"contracts/LuckyRedEnvelopeV2.sol\":10562:10580  _userAddrTicketNum */\n      0x0a\n        /* \"contracts/LuckyRedEnvelopeV2.sol\":10562:10585  _userAddrTicketNum[_id] */\n      0x20\n      swap1\n      dup2\n      mstore\n      0x40\n      dup1\n      dup9\n      keccak256\n      sub(shl(0xa0, 0x01), 0x01)\n        /* \"contracts/LuckyRedEnvelopeV2.sol\":10562:10602  _userAddrTicketNum[_id][_receiveAddress] */\n      swap1\n      swap8\n      and\n      dup9\n      mstore\n      swap6\n      swap1\n      mstore\n      swap4\n      swap1\n      swap5\n      keccak256\n        /* \"contracts/LuckyRedEnvelopeV2.sol\":10562:10662  _userAddrTicketNum[_id][_receiveAddress] = _userAddrTicketNum[_id][_receiveAddress] + _ticketNumbers */\n      swap3\n      swap1\n      swap3\n      sstore\n      pop\n      pop\n      pop\n        /* \"contracts/LuckyRedEnvelopeV2.sol\":9005:10670  function _fillTicket(uint256 _id,address _receiveAddress,uint256 _ticketNumbers,bool _buy)internal{... */\n      jump\t// out\n        /* \"contracts/LuckyRedEnvelopeV2.sol\":8173:8997  function _injectTickets(uint256 _id,address _injectAddress,uint256 _ticketNumbers)internal{... */\n    tag_190:\n        /* \"contracts/LuckyRedEnvelopeV2.sol\":8274:8303  uint256 amountTokenToTransfer */\n      0x00\n        /* \"contracts/LuckyRedEnvelopeV2.sol\":8306:8324  _redEnvelopes[_id] */\n      dup4\n      dup2\n      mstore\n        /* \"contracts/LuckyRedEnvelopeV2.sol\":8306:8319  _redEnvelopes */\n      0x07\n        /* \"contracts/LuckyRedEnvelopeV2.sol\":8306:8324  _redEnvelopes[_id] */\n      0x20\n      mstore\n      0x40\n      dup2\n      keccak256\n        /* \"contracts/LuckyRedEnvelopeV2.sol\":8306:8336  _redEnvelopes[_id].ticketPirce */\n      0x0a\n      add\n      sload\n        /* \"contracts/LuckyRedEnvelopeV2.sol\":8306:8353  _redEnvelopes[_id].ticketPirce * _ticketNumbers */\n      tag_354\n      swap1\n        /* \"contracts/LuckyRedEnvelopeV2.sol\":8339:8353  _ticketNumbers */\n      dup4\n      swap1\n        /* \"contracts/LuckyRedEnvelopeV2.sol\":8306:8353  _redEnvelopes[_id].ticketPirce * _ticketNumbers */\n      tag_254\n      jump\t// in\n    tag_354:\n        /* \"contracts/LuckyRedEnvelopeV2.sol\":8423:8441  _redEnvelopes[_id] */\n      0x00\n      dup6\n      dup2\n      mstore\n        /* \"contracts/LuckyRedEnvelopeV2.sol\":8423:8436  _redEnvelopes */\n      0x07\n        /* \"contracts/LuckyRedEnvelopeV2.sol\":8423:8441  _redEnvelopes[_id] */\n      0x20\n      mstore\n      0x40\n      swap1\n      keccak256\n        /* \"contracts/LuckyRedEnvelopeV2.sol\":8423:8453  _redEnvelopes[_id].ticketToken */\n      sload\n        /* \"contracts/LuckyRedEnvelopeV2.sol\":8274:8353  uint256 amountTokenToTransfer = _redEnvelopes[_id].ticketPirce * _ticketNumbers */\n      swap1\n      swap2\n      pop\n        /* \"contracts/LuckyRedEnvelopeV2.sol\":8416:8534  IERC20(_redEnvelopes[_id].ticketToken).safeTransferFrom(address(_injectAddress), address(this), amountTokenToTransfer) */\n      tag_355\n      swap1\n      sub(shl(0xa0, 0x01), 0x01)\n        /* \"contracts/LuckyRedEnvelopeV2.sol\":8423:8453  _redEnvelopes[_id].ticketToken */\n      and\n        /* \"contracts/LuckyRedEnvelopeV2.sol\":8480:8494  _injectAddress */\n      dup5\n        /* \"contracts/LuckyRedEnvelopeV2.sol\":8505:8509  this */\n      address\n        /* \"contracts/LuckyRedEnvelopeV2.sol\":8274:8353  uint256 amountTokenToTransfer = _redEnvelopes[_id].ticketPirce * _ticketNumbers */\n      dup5\n        /* \"contracts/LuckyRedEnvelopeV2.sol\":8416:8471  IERC20(_redEnvelopes[_id].ticketToken).safeTransferFrom */\n      tag_290\n        /* \"contracts/LuckyRedEnvelopeV2.sol\":8416:8534  IERC20(_redEnvelopes[_id].ticketToken).safeTransferFrom(address(_injectAddress), address(this), amountTokenToTransfer) */\n      jump\t// in\n    tag_355:\n        /* \"contracts/LuckyRedEnvelopeV2.sol\":8559:8568  currentId */\n      sload(0x03)\n        /* \"contracts/LuckyRedEnvelopeV2.sol\":8545:8569  _redEnvelopes[currentId] */\n      0x00\n      swap1\n      dup2\n      mstore\n        /* \"contracts/LuckyRedEnvelopeV2.sol\":8545:8558  _redEnvelopes */\n      0x07\n        /* \"contracts/LuckyRedEnvelopeV2.sol\":8545:8569  _redEnvelopes[currentId] */\n      0x20\n      mstore\n      0x40\n      dup2\n      keccak256\n        /* \"contracts/LuckyRedEnvelopeV2.sol\":8545:8583  _redEnvelopes[currentId].injectTickets */\n      0x06\n      add\n        /* \"contracts/LuckyRedEnvelopeV2.sol\":8545:8601  _redEnvelopes[currentId].injectTickets += _ticketNumbers */\n      dup1\n      sload\n        /* \"contracts/LuckyRedEnvelopeV2.sol\":8587:8601  _ticketNumbers */\n      dup5\n      swap3\n        /* \"contracts/LuckyRedEnvelopeV2.sol\":8545:8569  _redEnvelopes[currentId] */\n      swap1\n        /* \"contracts/LuckyRedEnvelopeV2.sol\":8545:8601  _redEnvelopes[currentId].injectTickets += _ticketNumbers */\n      tag_356\n      swap1\n        /* \"contracts/LuckyRedEnvelopeV2.sol\":8587:8601  _ticketNumbers */\n      dup5\n      swap1\n        /* \"contracts/LuckyRedEnvelopeV2.sol\":8545:8601  _redEnvelopes[currentId].injectTickets += _ticketNumbers */\n      tag_172\n      jump\t// in\n    tag_356:\n      swap1\n      swap2\n      sstore\n      pop\n      pop\n        /* \"contracts/LuckyRedEnvelopeV2.sol\":8636:8645  currentId */\n      sload(0x03)\n        /* \"contracts/LuckyRedEnvelopeV2.sol\":8619:8646  _injectTicketMap[currentId] */\n      0x00\n      swap1\n      dup2\n      mstore\n        /* \"contracts/LuckyRedEnvelopeV2.sol\":8619:8635  _injectTicketMap */\n      0x0e\n        /* \"contracts/LuckyRedEnvelopeV2.sol\":8619:8646  _injectTicketMap[currentId] */\n      0x20\n      swap1\n      dup2\n      mstore\n      0x40\n      dup1\n      dup4\n      keccak256\n      sub(shl(0xa0, 0x01), 0x01)\n        /* \"contracts/LuckyRedEnvelopeV2.sol\":8619:8662  _injectTicketMap[currentId][_injectAddress] */\n      dup8\n      and\n      dup5\n      mstore\n      swap1\n      swap2\n      mstore\n      dup2\n      keccak256\n      sload\n        /* \"contracts/LuckyRedEnvelopeV2.sol\":8619:8667  _injectTicketMap[currentId][_injectAddress] == 0 */\n      swap1\n      sub\n        /* \"contracts/LuckyRedEnvelopeV2.sol\":8614:8837  if ( _injectTicketMap[currentId][_injectAddress] == 0){... */\n      tag_357\n      jumpi\n        /* \"contracts/LuckyRedEnvelopeV2.sol\":8700:8709  currentId */\n      0x03\n      dup1\n      sload\n        /* \"contracts/LuckyRedEnvelopeV2.sol\":8683:8710  _injectAddrIndex[currentId] */\n      0x00\n      swap1\n      dup2\n      mstore\n        /* \"contracts/LuckyRedEnvelopeV2.sol\":8683:8699  _injectAddrIndex */\n      0x0d\n        /* \"contracts/LuckyRedEnvelopeV2.sol\":8683:8710  _injectAddrIndex[currentId] */\n      0x20\n      swap1\n      dup2\n      mstore\n      0x40\n      dup1\n      dup4\n      keccak256\n        /* \"contracts/LuckyRedEnvelopeV2.sol\":8711:8724  _redEnvelopes */\n      0x07\n        /* \"contracts/LuckyRedEnvelopeV2.sol\":8711:8735  _redEnvelopes[currentId] */\n      dup1\n      dup5\n      mstore\n      dup3\n      dup6\n      keccak256\n        /* \"contracts/LuckyRedEnvelopeV2.sol\":8711:8749  _redEnvelopes[currentId].injectAddrNum */\n      0x09\n      swap1\n      dup2\n      add\n      sload\n        /* \"contracts/LuckyRedEnvelopeV2.sol\":8683:8750  _injectAddrIndex[currentId][_redEnvelopes[currentId].injectAddrNum] */\n      dup7\n      mstore\n      swap2\n      dup5\n      mstore\n      dup3\n      dup6\n      keccak256\n        /* \"contracts/LuckyRedEnvelopeV2.sol\":8683:8767  _injectAddrIndex[currentId][_redEnvelopes[currentId].injectAddrNum] = _injectAddress */\n      dup1\n      sload\n      not(sub(shl(0xa0, 0x01), 0x01))\n      and\n      sub(shl(0xa0, 0x01), 0x01)\n      dup12\n      and\n      or\n      swap1\n      sstore\n        /* \"contracts/LuckyRedEnvelopeV2.sol\":8796:8805  currentId */\n      swap5\n      sload\n        /* \"contracts/LuckyRedEnvelopeV2.sol\":8782:8806  _redEnvelopes[currentId] */\n      dup5\n      mstore\n      swap4\n      swap1\n      swap2\n      mstore\n      dup2\n      keccak256\n        /* \"contracts/LuckyRedEnvelopeV2.sol\":8782:8820  _redEnvelopes[currentId].injectAddrNum */\n      swap1\n      swap2\n      add\n        /* \"contracts/LuckyRedEnvelopeV2.sol\":8782:8825  _redEnvelopes[currentId].injectAddrNum += 1 */\n      dup1\n      sload\n      0x01\n      swap3\n        /* \"contracts/LuckyRedEnvelopeV2.sol\":8683:8710  _injectAddrIndex[currentId] */\n      swap1\n        /* \"contracts/LuckyRedEnvelopeV2.sol\":8782:8825  _redEnvelopes[currentId].injectAddrNum += 1 */\n      tag_358\n      swap1\n      dup5\n      swap1\n      tag_172\n      jump\t// in\n    tag_358:\n      swap1\n      swap2\n      sstore\n      pop\n      pop\n        /* \"contracts/LuckyRedEnvelopeV2.sol\":8614:8837  if ( _injectTicketMap[currentId][_injectAddress] == 0){... */\n    tag_357:\n        /* \"contracts/LuckyRedEnvelopeV2.sol\":8864:8873  currentId */\n      sload(0x03)\n        /* \"contracts/LuckyRedEnvelopeV2.sol\":8847:8874  _injectTicketMap[currentId] */\n      0x00\n      swap1\n      dup2\n      mstore\n        /* \"contracts/LuckyRedEnvelopeV2.sol\":8847:8863  _injectTicketMap */\n      0x0e\n        /* \"contracts/LuckyRedEnvelopeV2.sol\":8847:8874  _injectTicketMap[currentId] */\n      0x20\n      swap1\n      dup2\n      mstore\n      0x40\n      dup1\n      dup4\n      keccak256\n      sub(shl(0xa0, 0x01), 0x01)\n        /* \"contracts/LuckyRedEnvelopeV2.sol\":8847:8890  _injectTicketMap[currentId][_injectAddress] */\n      dup8\n      and\n      dup5\n      mstore\n      swap1\n      swap2\n      mstore\n      dup2\n      keccak256\n        /* \"contracts/LuckyRedEnvelopeV2.sol\":8847:8908  _injectTicketMap[currentId][_injectAddress] += _ticketNumbers */\n      dup1\n      sload\n        /* \"contracts/LuckyRedEnvelopeV2.sol\":8894:8908  _ticketNumbers */\n      dup5\n      swap3\n        /* \"contracts/LuckyRedEnvelopeV2.sol\":8847:8874  _injectTicketMap[currentId] */\n      swap1\n        /* \"contracts/LuckyRedEnvelopeV2.sol\":8847:8908  _injectTicketMap[currentId][_injectAddress] += _ticketNumbers */\n      tag_359\n      swap1\n        /* \"contracts/LuckyRedEnvelopeV2.sol\":8894:8908  _ticketNumbers */\n      dup5\n      swap1\n        /* \"contracts/LuckyRedEnvelopeV2.sol\":8847:8908  _injectTicketMap[currentId][_injectAddress] += _ticketNumbers */\n      tag_172\n      jump\t// in\n    tag_359:\n      swap1\n      swap2\n      sstore\n      pop\n      pop\n        /* \"contracts/LuckyRedEnvelopeV2.sol\":8940:8949  currentId */\n      sload(0x03)\n        /* \"contracts/LuckyRedEnvelopeV2.sol\":8926:8989  TicketsInject(currentId,address(_injectAddress),_ticketNumbers) */\n      mload(0x40)\n        /* \"#utility.yul\":2246:2271   */\n      dup4\n      dup2\n      mstore\n      sub(shl(0xa0, 0x01), 0x01)\n        /* \"contracts/LuckyRedEnvelopeV2.sol\":8926:8989  TicketsInject(currentId,address(_injectAddress),_ticketNumbers) */\n      dup6\n      and\n      swap2\n        /* \"contracts/LuckyRedEnvelopeV2.sol\":8940:8949  currentId */\n      swap1\n        /* \"contracts/LuckyRedEnvelopeV2.sol\":8926:8989  TicketsInject(currentId,address(_injectAddress),_ticketNumbers) */\n      0xa95519638524dcea0d5d0102c719d77dc3d8b1ae68d2d1e37c79be21bc7b113b\n      swap1\n        /* \"#utility.yul\":2234:2236   */\n      0x20\n        /* \"#utility.yul\":2219:2237   */\n      add\n        /* \"contracts/LuckyRedEnvelopeV2.sol\":8926:8989  TicketsInject(currentId,address(_injectAddress),_ticketNumbers) */\n      mload(0x40)\n      dup1\n      swap2\n      sub\n      swap1\n      log3\n        /* \"contracts/LuckyRedEnvelopeV2.sol\":8263:8997  {... */\n      pop\n        /* \"contracts/LuckyRedEnvelopeV2.sol\":8173:8997  function _injectTickets(uint256 _id,address _injectAddress,uint256 _ticketNumbers)internal{... */\n      pop\n      pop\n      pop\n      jump\t// out\n        /* \"@openzeppelin/contracts/access/Ownable.sol\":1796:1958  function _checkOwner() internal view virtual {... */\n    tag_211:\n        /* \"@openzeppelin/contracts/access/Ownable.sol\":1710:1716  _owner */\n      and(sub(shl(0xa0, 0x01), 0x01), sload(0x01))\n        /* \"@openzeppelin/contracts/utils/Context.sol\":735:745  msg.sender */\n      caller\n        /* \"@openzeppelin/contracts/access/Ownable.sol\":1855:1878  owner() != _msgSender() */\n      eq\n        /* \"@openzeppelin/contracts/access/Ownable.sol\":1851:1952  if (owner() != _msgSender()) {... */\n      tag_213\n      jumpi\n        /* \"@openzeppelin/contracts/access/Ownable.sol\":1901:1941  OwnableUnauthorizedAccount(_msgSender()) */\n      mload(0x40)\n      shl(0xe0, 0x118cdaa7)\n      dup2\n      mstore\n        /* \"@openzeppelin/contracts/utils/Context.sol\":735:745  msg.sender */\n      caller\n        /* \"@openzeppelin/contracts/access/Ownable.sol\":1901:1941  OwnableUnauthorizedAccount(_msgSender()) */\n      0x04\n      dup3\n      add\n        /* \"#utility.yul\":2790:2841   */\n      mstore\n        /* \"#utility.yul\":2763:2781   */\n      0x24\n      add\n        /* \"@openzeppelin/contracts/access/Ownable.sol\":1901:1941  OwnableUnauthorizedAccount(_msgSender()) */\n      tag_117\n        /* \"#utility.yul\":2644:2847   */\n      jump\n        /* \"@openzeppelin/contracts/access/Ownable.sol\":2912:3099  function _transferOwnership(address newOwner) internal virtual {... */\n    tag_214:\n        /* \"@openzeppelin/contracts/access/Ownable.sol\":3004:3010  _owner */\n      0x01\n      dup1\n      sload\n      sub(shl(0xa0, 0x01), 0x01)\n        /* \"@openzeppelin/contracts/access/Ownable.sol\":3020:3037  _owner = newOwner */\n      dup4\n      dup2\n      and\n      not(sub(shl(0xa0, 0x01), 0x01))\n      dup4\n      and\n      dup2\n      or\n      swap1\n      swap4\n      sstore\n        /* \"@openzeppelin/contracts/access/Ownable.sol\":3052:3092  OwnershipTransferred(oldOwner, newOwner) */\n      mload(0x40)\n        /* \"@openzeppelin/contracts/access/Ownable.sol\":3004:3010  _owner */\n      swap2\n      and\n      swap2\n        /* \"@openzeppelin/contracts/access/Ownable.sol\":3020:3037  _owner = newOwner */\n      swap1\n        /* \"@openzeppelin/contracts/access/Ownable.sol\":3004:3010  _owner */\n      dup3\n      swap1\n        /* \"@openzeppelin/contracts/access/Ownable.sol\":3052:3092  OwnershipTransferred(oldOwner, newOwner) */\n      0x8be0079c531659141344cd1fd0a4f28419497f9722a3daafe3b4186f6b6457e0\n      swap1\n        /* \"@openzeppelin/contracts/access/Ownable.sol\":2985:3001  address oldOwner */\n      0x00\n      swap1\n        /* \"@openzeppelin/contracts/access/Ownable.sol\":3052:3092  OwnershipTransferred(oldOwner, newOwner) */\n      log3\n        /* \"@openzeppelin/contracts/access/Ownable.sol\":2975:3099  {... */\n      pop\n        /* \"@openzeppelin/contracts/access/Ownable.sol\":2912:3099  function _transferOwnership(address newOwner) internal virtual {... */\n      pop\n      jump\t// out\n        /* \"contracts/LuckyRedEnvelopeV2.sol\":13437:13814  function _returnInject(uint256 _id)internal{... */\n    tag_249:\n        /* \"contracts/LuckyRedEnvelopeV2.sol\":13496:13505  uint256 i */\n      0x00\n        /* \"contracts/LuckyRedEnvelopeV2.sol\":13491:13807  for (uint256 i = 0;i <  _redEnvelopes[_id].injectAddrNum;i ++){... */\n    tag_370:\n        /* \"contracts/LuckyRedEnvelopeV2.sol\":13515:13533  _redEnvelopes[_id] */\n      0x00\n      dup3\n      dup2\n      mstore\n        /* \"contracts/LuckyRedEnvelopeV2.sol\":13515:13528  _redEnvelopes */\n      0x07\n        /* \"contracts/LuckyRedEnvelopeV2.sol\":13515:13533  _redEnvelopes[_id] */\n      0x20\n      mstore\n      0x40\n      swap1\n      keccak256\n        /* \"contracts/LuckyRedEnvelopeV2.sol\":13515:13547  _redEnvelopes[_id].injectAddrNum */\n      0x09\n      add\n      sload\n        /* \"contracts/LuckyRedEnvelopeV2.sol\":13510:13547  i <  _redEnvelopes[_id].injectAddrNum */\n      dup2\n      lt\n        /* \"contracts/LuckyRedEnvelopeV2.sol\":13491:13807  for (uint256 i = 0;i <  _redEnvelopes[_id].injectAddrNum;i ++){... */\n      iszero\n      tag_208\n      jumpi\n        /* \"contracts/LuckyRedEnvelopeV2.sol\":13568:13597  uint256 amountTokenToTransfer */\n      0x00\n        /* \"contracts/LuckyRedEnvelopeV2.sol\":13633:13654  _injectTicketMap[_id] */\n      dup3\n      dup2\n      mstore\n        /* \"contracts/LuckyRedEnvelopeV2.sol\":13633:13649  _injectTicketMap */\n      0x0e\n        /* \"contracts/LuckyRedEnvelopeV2.sol\":13633:13654  _injectTicketMap[_id] */\n      0x20\n      swap1\n      dup2\n      mstore\n      0x40\n      dup1\n      dup4\n      keccak256\n        /* \"contracts/LuckyRedEnvelopeV2.sol\":13655:13671  _injectAddrIndex */\n      0x0d\n        /* \"contracts/LuckyRedEnvelopeV2.sol\":13655:13676  _injectAddrIndex[_id] */\n      dup4\n      mstore\n      dup2\n      dup5\n      keccak256\n        /* \"contracts/LuckyRedEnvelopeV2.sol\":13655:13679  _injectAddrIndex[_id][i] */\n      dup6\n      dup6\n      mstore\n      dup4\n      mstore\n      dup2\n      dup5\n      keccak256\n      sload\n      sub(shl(0xa0, 0x01), 0x01)\n      and\n        /* \"contracts/LuckyRedEnvelopeV2.sol\":13633:13680  _injectTicketMap[_id][_injectAddrIndex[_id][i]] */\n      dup5\n      mstore\n      dup3\n      mstore\n      dup1\n      dup4\n      keccak256\n      sload\n        /* \"contracts/LuckyRedEnvelopeV2.sol\":13600:13618  _redEnvelopes[_id] */\n      dup6\n      dup5\n      mstore\n        /* \"contracts/LuckyRedEnvelopeV2.sol\":13600:13613  _redEnvelopes */\n      0x07\n        /* \"contracts/LuckyRedEnvelopeV2.sol\":13600:13618  _redEnvelopes[_id] */\n      swap1\n      swap3\n      mstore\n      dup3\n      keccak256\n        /* \"contracts/LuckyRedEnvelopeV2.sol\":13600:13630  _redEnvelopes[_id].ticketPirce */\n      0x0a\n      add\n      sload\n        /* \"contracts/LuckyRedEnvelopeV2.sol\":13600:13680  _redEnvelopes[_id].ticketPirce * _injectTicketMap[_id][_injectAddrIndex[_id][i]] */\n      tag_373\n      swap2\n        /* \"contracts/LuckyRedEnvelopeV2.sol\":13633:13680  _injectTicketMap[_id][_injectAddrIndex[_id][i]] */\n      swap1\n        /* \"contracts/LuckyRedEnvelopeV2.sol\":13600:13680  _redEnvelopes[_id].ticketPirce * _injectTicketMap[_id][_injectAddrIndex[_id][i]] */\n      tag_254\n      jump\t// in\n    tag_373:\n        /* \"contracts/LuckyRedEnvelopeV2.sol\":13747:13768  _injectAddrIndex[_id] */\n      0x00\n      dup5\n      dup2\n      mstore\n        /* \"contracts/LuckyRedEnvelopeV2.sol\":13747:13763  _injectAddrIndex */\n      0x0d\n        /* \"contracts/LuckyRedEnvelopeV2.sol\":13747:13768  _injectAddrIndex[_id] */\n      0x20\n      swap1\n      dup2\n      mstore\n      0x40\n      dup1\n      dup4\n      keccak256\n        /* \"contracts/LuckyRedEnvelopeV2.sol\":13747:13771  _injectAddrIndex[_id][i] */\n      dup7\n      dup5\n      mstore\n      dup3\n      mstore\n      dup1\n      dup4\n      keccak256\n      sload\n        /* \"contracts/LuckyRedEnvelopeV2.sol\":13702:13720  _redEnvelopes[_id] */\n      dup8\n      dup5\n      mstore\n        /* \"contracts/LuckyRedEnvelopeV2.sol\":13702:13715  _redEnvelopes */\n      0x07\n        /* \"contracts/LuckyRedEnvelopeV2.sol\":13702:13720  _redEnvelopes[_id] */\n      swap1\n      swap3\n      mstore\n      swap1\n      swap2\n      keccak256\n        /* \"contracts/LuckyRedEnvelopeV2.sol\":13702:13732  _redEnvelopes[_id].ticketToken */\n      sload\n        /* \"contracts/LuckyRedEnvelopeV2.sol\":13568:13680  uint256 amountTokenToTransfer = _redEnvelopes[_id].ticketPirce * _injectTicketMap[_id][_injectAddrIndex[_id][i]] */\n      swap2\n      swap3\n      pop\n        /* \"contracts/LuckyRedEnvelopeV2.sol\":13695:13795  IERC20(_redEnvelopes[_id].ticketToken).safeTransfer(_injectAddrIndex[_id][i], amountTokenToTransfer) */\n      tag_374\n      swap2\n      sub(shl(0xa0, 0x01), 0x01)\n        /* \"contracts/LuckyRedEnvelopeV2.sol\":13702:13732  _redEnvelopes[_id].ticketToken */\n      swap1\n      dup2\n      and\n      swap2\n        /* \"contracts/LuckyRedEnvelopeV2.sol\":13747:13771  _injectAddrIndex[_id][i] */\n      and\n        /* \"contracts/LuckyRedEnvelopeV2.sol\":13568:13680  uint256 amountTokenToTransfer = _redEnvelopes[_id].ticketPirce * _injectTicketMap[_id][_injectAddrIndex[_id][i]] */\n      dup4\n        /* \"contracts/LuckyRedEnvelopeV2.sol\":13695:13746  IERC20(_redEnvelopes[_id].ticketToken).safeTransfer */\n      tag_375\n        /* \"contracts/LuckyRedEnvelopeV2.sol\":13695:13795  IERC20(_redEnvelopes[_id].ticketToken).safeTransfer(_injectAddrIndex[_id][i], amountTokenToTransfer) */\n      jump\t// in\n    tag_374:\n      pop\n        /* \"contracts/LuckyRedEnvelopeV2.sol\":13548:13552  i ++ */\n      0x01\n      add\n        /* \"contracts/LuckyRedEnvelopeV2.sol\":13491:13807  for (uint256 i = 0;i <  _redEnvelopes[_id].injectAddrNum;i ++){... */\n      jump(tag_370)\n        /* \"contracts/LuckyRedEnvelopeV2.sol\":18665:19273  function _getSortRandoms(uint256 _seed,uint256 _num,uint256 _range) internal pure returns(uint256[] memory){... */\n    tag_256:\n        /* \"contracts/LuckyRedEnvelopeV2.sol\":18755:18771  uint256[] memory */\n      0x60\n        /* \"contracts/LuckyRedEnvelopeV2.sol\":18783:18807  uint256[] memory randons */\n      0x00\n        /* \"contracts/LuckyRedEnvelopeV2.sol\":18824:18828  _num */\n      dup4\n        /* \"contracts/LuckyRedEnvelopeV2.sol\":18810:18829  new uint256[](_num) */\n      0xffffffffffffffff\n      dup2\n      gt\n      iszero\n      tag_378\n      jumpi\n      tag_378\n      tag_379\n      jump\t// in\n    tag_378:\n      mload(0x40)\n      swap1\n      dup1\n      dup3\n      mstore\n      dup1\n      0x20\n      mul\n      0x20\n      add\n      dup3\n      add\n      0x40\n      mstore\n      dup1\n      iszero\n      tag_380\n      jumpi\n      dup2\n      0x20\n      add\n      0x20\n      dup3\n      mul\n      dup1\n      calldatasize\n      dup4\n      calldatacopy\n      add\n      swap1\n      pop\n    tag_380:\n      pop\n        /* \"contracts/LuckyRedEnvelopeV2.sol\":18783:18829  uint256[] memory randons = new uint256[](_num) */\n      swap1\n      pop\n        /* \"contracts/LuckyRedEnvelopeV2.sol\":18855:18860  _seed */\n      dup5\n        /* \"contracts/LuckyRedEnvelopeV2.sol\":18840:18852  uint256 seed */\n      0x00\n        /* \"contracts/LuckyRedEnvelopeV2.sol\":18871:19206  for (uint256 i = 0; i < _num - 1; i++){... */\n    tag_381:\n        /* \"contracts/LuckyRedEnvelopeV2.sol\":18895:18903  _num - 1 */\n      tag_384\n        /* \"contracts/LuckyRedEnvelopeV2.sol\":18902:18903  1 */\n      0x01\n        /* \"contracts/LuckyRedEnvelopeV2.sol\":18895:18899  _num */\n      dup8\n        /* \"contracts/LuckyRedEnvelopeV2.sol\":18895:18903  _num - 1 */\n      tag_343\n      jump\t// in\n    tag_384:\n        /* \"contracts/LuckyRedEnvelopeV2.sol\":18891:18892  i */\n      dup2\n        /* \"contracts/LuckyRedEnvelopeV2.sol\":18891:18903  i < _num - 1 */\n      lt\n        /* \"contracts/LuckyRedEnvelopeV2.sol\":18871:19206  for (uint256 i = 0; i < _num - 1; i++){... */\n      iszero\n      tag_382\n      jumpi\n        /* \"contracts/LuckyRedEnvelopeV2.sol\":18931:18952  _deriveRandom(seed,i) */\n      tag_385\n        /* \"contracts/LuckyRedEnvelopeV2.sol\":18945:18949  seed */\n      dup3\n        /* \"contracts/LuckyRedEnvelopeV2.sol\":18950:18951  i */\n      dup3\n        /* \"contracts/LuckyRedEnvelopeV2.sol\":18931:18944  _deriveRandom */\n      tag_386\n        /* \"contracts/LuckyRedEnvelopeV2.sol\":18931:18952  _deriveRandom(seed,i) */\n      jump\t// in\n    tag_385:\n        /* \"contracts/LuckyRedEnvelopeV2.sol\":18924:18952  seed = _deriveRandom(seed,i) */\n      swap2\n      pop\n        /* \"contracts/LuckyRedEnvelopeV2.sol\":18967:18980  uint256 value */\n      0x00\n        /* \"contracts/LuckyRedEnvelopeV2.sol\":18983:18996  seed % _range */\n      tag_387\n        /* \"contracts/LuckyRedEnvelopeV2.sol\":18990:18996  _range */\n      dup7\n        /* \"contracts/LuckyRedEnvelopeV2.sol\":18924:18952  seed = _deriveRandom(seed,i) */\n      dup5\n        /* \"contracts/LuckyRedEnvelopeV2.sol\":18983:18996  seed % _range */\n      tag_388\n      jump\t// in\n    tag_387:\n        /* \"contracts/LuckyRedEnvelopeV2.sol\":18967:18996  uint256 value = seed % _range */\n      swap1\n      pop\n        /* \"contracts/LuckyRedEnvelopeV2.sol\":19023:19024  i */\n      dup2\n        /* \"contracts/LuckyRedEnvelopeV2.sol\":19039:19162  while((j >= 1) && value < randons[j - 1]){... */\n    tag_389:\n        /* \"contracts/LuckyRedEnvelopeV2.sol\":19051:19052  1 */\n      0x01\n        /* \"contracts/LuckyRedEnvelopeV2.sol\":19046:19047  j */\n      dup2\n        /* \"contracts/LuckyRedEnvelopeV2.sol\":19046:19052  j >= 1 */\n      lt\n      iszero\n        /* \"contracts/LuckyRedEnvelopeV2.sol\":19045:19079  (j >= 1) && value < randons[j - 1] */\n      dup1\n      iszero\n      tag_391\n      jumpi\n      pop\n        /* \"contracts/LuckyRedEnvelopeV2.sol\":19065:19072  randons */\n      dup5\n        /* \"contracts/LuckyRedEnvelopeV2.sol\":19073:19078  j - 1 */\n      tag_392\n        /* \"contracts/LuckyRedEnvelopeV2.sol\":19077:19078  1 */\n      0x01\n        /* \"contracts/LuckyRedEnvelopeV2.sol\":19073:19074  j */\n      dup4\n        /* \"contracts/LuckyRedEnvelopeV2.sol\":19073:19078  j - 1 */\n      tag_343\n      jump\t// in\n    tag_392:\n        /* \"contracts/LuckyRedEnvelopeV2.sol\":19065:19079  randons[j - 1] */\n      dup2\n      mload\n      dup2\n      lt\n      tag_394\n      jumpi\n      tag_394\n      tag_395\n      jump\t// in\n    tag_394:\n      0x20\n      mul\n      0x20\n      add\n      add\n      mload\n        /* \"contracts/LuckyRedEnvelopeV2.sol\":19057:19062  value */\n      dup3\n        /* \"contracts/LuckyRedEnvelopeV2.sol\":19057:19079  value < randons[j - 1] */\n      lt\n        /* \"contracts/LuckyRedEnvelopeV2.sol\":19045:19079  (j >= 1) && value < randons[j - 1] */\n    tag_391:\n        /* \"contracts/LuckyRedEnvelopeV2.sol\":19039:19162  while((j >= 1) && value < randons[j - 1]){... */\n      iszero\n      tag_390\n      jumpi\n        /* \"contracts/LuckyRedEnvelopeV2.sol\":19112:19119  randons */\n      dup5\n        /* \"contracts/LuckyRedEnvelopeV2.sol\":19120:19123  j-1 */\n      tag_396\n        /* \"contracts/LuckyRedEnvelopeV2.sol\":19122:19123  1 */\n      0x01\n        /* \"contracts/LuckyRedEnvelopeV2.sol\":19120:19121  j */\n      dup4\n        /* \"contracts/LuckyRedEnvelopeV2.sol\":19120:19123  j-1 */\n      tag_343\n      jump\t// in\n    tag_396:\n        /* \"contracts/LuckyRedEnvelopeV2.sol\":19112:19124  randons[j-1] */\n      dup2\n      mload\n      dup2\n      lt\n      tag_398\n      jumpi\n      tag_398\n      tag_395\n      jump\t// in\n    tag_398:\n      0x20\n      mul\n      0x20\n      add\n      add\n      mload\n        /* \"contracts/LuckyRedEnvelopeV2.sol\":19099:19106  randons */\n      dup6\n        /* \"contracts/LuckyRedEnvelopeV2.sol\":19107:19108  j */\n      dup3\n        /* \"contracts/LuckyRedEnvelopeV2.sol\":19099:19109  randons[j] */\n      dup2\n      mload\n      dup2\n      lt\n      tag_400\n      jumpi\n      tag_400\n      tag_395\n      jump\t// in\n    tag_400:\n      0x20\n      swap1\n      dup2\n      mul\n      swap2\n      swap1\n      swap2\n      add\n      add\n        /* \"contracts/LuckyRedEnvelopeV2.sol\":19099:19124  randons[j] = randons[j-1] */\n      mstore\n        /* \"contracts/LuckyRedEnvelopeV2.sol\":19143:19146  j-- */\n      dup1\n      tag_401\n      dup2\n      tag_402\n      jump\t// in\n    tag_401:\n      swap2\n      pop\n      pop\n        /* \"contracts/LuckyRedEnvelopeV2.sol\":19039:19162  while((j >= 1) && value < randons[j - 1]){... */\n      jump(tag_389)\n    tag_390:\n        /* \"contracts/LuckyRedEnvelopeV2.sol\":19189:19194  value */\n      dup2\n        /* \"contracts/LuckyRedEnvelopeV2.sol\":19176:19183  randons */\n      dup6\n        /* \"contracts/LuckyRedEnvelopeV2.sol\":19184:19185  j */\n      dup3\n        /* \"contracts/LuckyRedEnvelopeV2.sol\":19176:19186  randons[j] */\n      dup2\n      mload\n      dup2\n      lt\n      tag_404\n      jumpi\n      tag_404\n      tag_395\n      jump\t// in\n    tag_404:\n      0x20\n      swap1\n      dup2\n      mul\n      swap2\n      swap1\n      swap2\n      add\n      add\n        /* \"contracts/LuckyRedEnvelopeV2.sol\":19176:19194  randons[j] = value */\n      mstore\n      pop\n      pop\n        /* \"contracts/LuckyRedEnvelopeV2.sol\":18905:18908  i++ */\n      0x01\n      add\n        /* \"contracts/LuckyRedEnvelopeV2.sol\":18871:19206  for (uint256 i = 0; i < _num - 1; i++){... */\n      jump(tag_381)\n    tag_382:\n      pop\n        /* \"contracts/LuckyRedEnvelopeV2.sol\":19234:19240  _range */\n      dup4\n        /* \"contracts/LuckyRedEnvelopeV2.sol\":19216:19223  randons */\n      dup3\n        /* \"contracts/LuckyRedEnvelopeV2.sol\":19224:19230  _num-1 */\n      tag_405\n        /* \"contracts/LuckyRedEnvelopeV2.sol\":19229:19230  1 */\n      0x01\n        /* \"contracts/LuckyRedEnvelopeV2.sol\":19224:19228  _num */\n      dup9\n        /* \"contracts/LuckyRedEnvelopeV2.sol\":19224:19230  _num-1 */\n      tag_343\n      jump\t// in\n    tag_405:\n        /* \"contracts/LuckyRedEnvelopeV2.sol\":19216:19231  randons[_num-1] */\n      dup2\n      mload\n      dup2\n      lt\n      tag_407\n      jumpi\n      tag_407\n      tag_395\n      jump\t// in\n    tag_407:\n      0x20\n      swap1\n      dup2\n      mul\n      swap2\n      swap1\n      swap2\n      add\n      add\n        /* \"contracts/LuckyRedEnvelopeV2.sol\":19216:19240  randons[_num-1] = _range */\n      mstore\n      pop\n        /* \"contracts/LuckyRedEnvelopeV2.sol\":19258:19265  randons */\n      swap1\n      pop\n        /* \"contracts/LuckyRedEnvelopeV2.sol\":18665:19273  function _getSortRandoms(uint256 _seed,uint256 _num,uint256 _range) internal pure returns(uint256[] memory){... */\n    tag_376:\n      swap4\n      swap3\n      pop\n      pop\n      pop\n      jump\t// out\n        /* \"contracts/LuckyRedEnvelopeV2.sol\":16821:18031  function _calculatePrize(uint256 _id,uint256 _drawNum,uint256[] memory _randomsAmount)internal{... */\n    tag_258:\n        /* \"contracts/LuckyRedEnvelopeV2.sol\":16926:16949  uint256 totalSendAmount */\n      0x00\n        /* \"contracts/LuckyRedEnvelopeV2.sol\":17018:17036  _redEnvelopes[_id] */\n      dup4\n      dup2\n      mstore\n        /* \"contracts/LuckyRedEnvelopeV2.sol\":17018:17031  _redEnvelopes */\n      0x07\n        /* \"contracts/LuckyRedEnvelopeV2.sol\":17018:17036  _redEnvelopes[_id] */\n      0x20\n      mstore\n      0x40\n      dup2\n      keccak256\n        /* \"contracts/LuckyRedEnvelopeV2.sol\":17018:17047  _redEnvelopes[_id].getTickets */\n      0x05\n      dup2\n      add\n      sload\n        /* \"contracts/LuckyRedEnvelopeV2.sol\":16986:17015  _redEnvelopes[_id].buyTickets */\n      0x04\n      swap1\n      swap2\n      add\n      sload\n        /* \"contracts/LuckyRedEnvelopeV2.sol\":16926:16949  uint256 totalSendAmount */\n      dup3\n      swap2\n        /* \"contracts/LuckyRedEnvelopeV2.sol\":16986:17047  _redEnvelopes[_id].buyTickets + _redEnvelopes[_id].getTickets */\n      tag_409\n      swap2\n      tag_172\n      jump\t// in\n    tag_409:\n        /* \"contracts/LuckyRedEnvelopeV2.sol\":16964:17047  uint256 userTickets = _redEnvelopes[_id].buyTickets + _redEnvelopes[_id].getTickets */\n      swap1\n      pop\n        /* \"contracts/LuckyRedEnvelopeV2.sol\":17129:17138  uint256 i */\n      0x00\n        /* \"contracts/LuckyRedEnvelopeV2.sol\":17124:18016  for (uint256 i = 0; i < _drawNum; i++){... */\n    tag_410:\n        /* \"contracts/LuckyRedEnvelopeV2.sol\":17148:17156  _drawNum */\n      dup5\n        /* \"contracts/LuckyRedEnvelopeV2.sol\":17144:17145  i */\n      dup2\n        /* \"contracts/LuckyRedEnvelopeV2.sol\":17144:17156  i < _drawNum */\n      lt\n        /* \"contracts/LuckyRedEnvelopeV2.sol\":17124:18016  for (uint256 i = 0; i < _drawNum; i++){... */\n      iszero\n      tag_411\n      jumpi\n        /* \"contracts/LuckyRedEnvelopeV2.sol\":17177:17194  uint256 sendValue */\n      0x00\n        /* \"contracts/LuckyRedEnvelopeV2.sol\":17217:17232  totalSendAmount */\n      dup4\n        /* \"contracts/LuckyRedEnvelopeV2.sol\":17197:17211  _randomsAmount */\n      dup6\n        /* \"contracts/LuckyRedEnvelopeV2.sol\":17212:17213  i */\n      dup4\n        /* \"contracts/LuckyRedEnvelopeV2.sol\":17197:17214  _randomsAmount[i] */\n      dup2\n      mload\n      dup2\n      lt\n      tag_414\n      jumpi\n      tag_414\n      tag_395\n      jump\t// in\n    tag_414:\n      0x20\n      mul\n      0x20\n      add\n      add\n      mload\n        /* \"contracts/LuckyRedEnvelopeV2.sol\":17197:17232  _randomsAmount[i] - totalSendAmount */\n      tag_415\n      swap2\n      swap1\n      tag_343\n      jump\t// in\n    tag_415:\n        /* \"contracts/LuckyRedEnvelopeV2.sol\":17177:17232  uint256 sendValue = _randomsAmount[i] - totalSendAmount */\n      swap1\n      pop\n        /* \"contracts/LuckyRedEnvelopeV2.sol\":17263:17264  i */\n      dup2\n        /* \"contracts/LuckyRedEnvelopeV2.sol\":17283:17306  _drawNum != userTickets */\n      dup7\n      dup5\n      eq\n        /* \"contracts/LuckyRedEnvelopeV2.sol\":17279:17670  if (_drawNum != userTickets){... */\n      tag_422\n      jumpi\n        /* \"contracts/LuckyRedEnvelopeV2.sol\":17421:17432  userTickets */\n      dup4\n        /* \"contracts/LuckyRedEnvelopeV2.sol\":17384:17418  _deriveRandom(_randomsAmount[i],i) */\n      tag_417\n        /* \"contracts/LuckyRedEnvelopeV2.sol\":17398:17412  _randomsAmount */\n      dup8\n        /* \"contracts/LuckyRedEnvelopeV2.sol\":17413:17414  i */\n      dup6\n        /* \"contracts/LuckyRedEnvelopeV2.sol\":17398:17415  _randomsAmount[i] */\n      dup2\n      mload\n      dup2\n      lt\n      tag_419\n      jumpi\n      tag_419\n      tag_395\n      jump\t// in\n    tag_419:\n      0x20\n      mul\n      0x20\n      add\n      add\n      mload\n        /* \"contracts/LuckyRedEnvelopeV2.sol\":17416:17417  i */\n      dup6\n        /* \"contracts/LuckyRedEnvelopeV2.sol\":17384:17397  _deriveRandom */\n      tag_386\n        /* \"contracts/LuckyRedEnvelopeV2.sol\":17384:17418  _deriveRandom(_randomsAmount[i],i) */\n      jump\t// in\n    tag_417:\n        /* \"contracts/LuckyRedEnvelopeV2.sol\":17384:17432  _deriveRandom(_randomsAmount[i],i) % userTickets */\n      tag_420\n      swap2\n      swap1\n      tag_388\n      jump\t// in\n    tag_420:\n        /* \"contracts/LuckyRedEnvelopeV2.sol\":17376:17432  index = _deriveRandom(_randomsAmount[i],i) % userTickets */\n      swap1\n      pop\n        /* \"contracts/LuckyRedEnvelopeV2.sol\":17451:17655  for (;_prizedticketIndex[_id][index] != false;){... */\n    tag_421:\n        /* \"contracts/LuckyRedEnvelopeV2.sol\":17457:17480  _prizedticketIndex[_id] */\n      0x00\n      dup9\n      dup2\n      mstore\n        /* \"contracts/LuckyRedEnvelopeV2.sol\":17457:17475  _prizedticketIndex */\n      0x09\n        /* \"contracts/LuckyRedEnvelopeV2.sol\":17457:17480  _prizedticketIndex[_id] */\n      0x20\n      swap1\n      dup2\n      mstore\n      0x40\n      dup1\n      dup4\n      keccak256\n        /* \"contracts/LuckyRedEnvelopeV2.sol\":17457:17487  _prizedticketIndex[_id][index] */\n      dup5\n      dup5\n      mstore\n      swap1\n      swap2\n      mstore\n      swap1\n      keccak256\n      sload\n      0xff\n      and\n        /* \"contracts/LuckyRedEnvelopeV2.sol\":17457:17496  _prizedticketIndex[_id][index] != false */\n      iszero\n        /* \"contracts/LuckyRedEnvelopeV2.sol\":17451:17655  for (;_prizedticketIndex[_id][index] != false;){... */\n      tag_422\n      jumpi\n        /* \"contracts/LuckyRedEnvelopeV2.sol\":17521:17528  index++ */\n      dup1\n      tag_424\n      dup2\n      tag_336\n      jump\t// in\n    tag_424:\n      swap2\n      pop\n      pop\n        /* \"contracts/LuckyRedEnvelopeV2.sol\":17564:17575  userTickets */\n      dup4\n        /* \"contracts/LuckyRedEnvelopeV2.sol\":17555:17560  index */\n      dup2\n        /* \"contracts/LuckyRedEnvelopeV2.sol\":17555:17575  index == userTickets */\n      sub\n        /* \"contracts/LuckyRedEnvelopeV2.sol\":17551:17636  if (index == userTickets){... */\n      tag_425\n      jumpi\n      pop\n        /* \"contracts/LuckyRedEnvelopeV2.sol\":17611:17612  0 */\n      0x00\n        /* \"contracts/LuckyRedEnvelopeV2.sol\":17551:17636  if (index == userTickets){... */\n    tag_425:\n        /* \"contracts/LuckyRedEnvelopeV2.sol\":17451:17655  for (;_prizedticketIndex[_id][index] != false;){... */\n      jump(tag_421)\n    tag_422:\n        /* \"contracts/LuckyRedEnvelopeV2.sol\":17684:17707  _prizedticketIndex[_id] */\n      0x00\n      dup9\n      dup2\n      mstore\n        /* \"contracts/LuckyRedEnvelopeV2.sol\":17684:17702  _prizedticketIndex */\n      0x09\n        /* \"contracts/LuckyRedEnvelopeV2.sol\":17684:17707  _prizedticketIndex[_id] */\n      0x20\n      swap1\n      dup2\n      mstore\n      0x40\n      dup1\n      dup4\n      keccak256\n        /* \"contracts/LuckyRedEnvelopeV2.sol\":17684:17714  _prizedticketIndex[_id][index] */\n      dup5\n      dup5\n      mstore\n      swap1\n      swap2\n      mstore\n      dup2\n      keccak256\n        /* \"contracts/LuckyRedEnvelopeV2.sol\":17684:17721  _prizedticketIndex[_id][index] = true */\n      dup1\n      sload\n      not(0xff)\n      and\n        /* \"contracts/LuckyRedEnvelopeV2.sol\":17717:17721  true */\n      0x01\n        /* \"contracts/LuckyRedEnvelopeV2.sol\":17684:17721  _prizedticketIndex[_id][index] = true */\n      or\n      swap1\n      sstore\n        /* \"contracts/LuckyRedEnvelopeV2.sol\":17760:17788  _getTicketbyIndex(_id,index) */\n      tag_426\n        /* \"contracts/LuckyRedEnvelopeV2.sol\":17703:17706  _id */\n      dup10\n        /* \"contracts/LuckyRedEnvelopeV2.sol\":17708:17713  index */\n      dup4\n        /* \"contracts/LuckyRedEnvelopeV2.sol\":17760:17777  _getTicketbyIndex */\n      tag_427\n        /* \"contracts/LuckyRedEnvelopeV2.sol\":17760:17788  _getTicketbyIndex(_id,index) */\n      jump\t// in\n    tag_426:\n        /* \"contracts/LuckyRedEnvelopeV2.sol\":17823:17844  ticket.receiveAddress */\n      0x01\n      dup2\n      add\n      sload\n      0x00\n        /* \"contracts/LuckyRedEnvelopeV2.sol\":17861:17879  _redEnvelopes[_id] */\n      dup12\n      dup2\n      mstore\n        /* \"contracts/LuckyRedEnvelopeV2.sol\":17861:17874  _redEnvelopes */\n      0x07\n        /* \"contracts/LuckyRedEnvelopeV2.sol\":17861:17879  _redEnvelopes[_id] */\n      0x20\n      swap1\n      dup2\n      mstore\n      0x40\n      swap2\n      dup3\n      swap1\n      keccak256\n        /* \"contracts/LuckyRedEnvelopeV2.sol\":17861:17889  _redEnvelopes[_id].autoClaim */\n      0x0d\n      add\n      sload\n        /* \"contracts/LuckyRedEnvelopeV2.sol\":17808:17890  PrizeDrawn(_id,ticket.receiveAddress,index,sendValue,_redEnvelopes[_id].autoClaim) */\n      dup3\n      mload\n        /* \"#utility.yul\":13958:13983   */\n      dup9\n      dup2\n      mstore\n        /* \"contracts/LuckyRedEnvelopeV2.sol\":17861:17889  _redEnvelopes[_id].autoClaim */\n      0xff\n      swap1\n      swap2\n      and\n        /* \"#utility.yul\":14026:14040   */\n      iszero\n        /* \"#utility.yul\":14019:14041   */\n      iszero\n        /* \"#utility.yul\":13999:14017   */\n      swap2\n      dup2\n      add\n        /* \"#utility.yul\":13992:14042   */\n      swap2\n      swap1\n      swap2\n      mstore\n        /* \"contracts/LuckyRedEnvelopeV2.sol\":17823:17844  ticket.receiveAddress */\n      swap3\n      swap4\n      pop\n        /* \"contracts/LuckyRedEnvelopeV2.sol\":17845:17850  index */\n      dup5\n      swap3\n      sub(shl(0xa0, 0x01), 0x01)\n        /* \"contracts/LuckyRedEnvelopeV2.sol\":17823:17844  ticket.receiveAddress */\n      swap1\n      swap3\n      and\n      swap2\n        /* \"contracts/LuckyRedEnvelopeV2.sol\":17861:17879  _redEnvelopes[_id] */\n      dup13\n      swap2\n        /* \"contracts/LuckyRedEnvelopeV2.sol\":17808:17890  PrizeDrawn(_id,ticket.receiveAddress,index,sendValue,_redEnvelopes[_id].autoClaim) */\n      0x927546e38b674f5e5dff7edce9c7afdcf21a35ac03ba70fe8e341f61f2c73ded\n      swap2\n        /* \"#utility.yul\":13931:13949   */\n      add\n        /* \"contracts/LuckyRedEnvelopeV2.sol\":17808:17890  PrizeDrawn(_id,ticket.receiveAddress,index,sendValue,_redEnvelopes[_id].autoClaim) */\n      mload(0x40)\n      dup1\n      swap2\n      sub\n      swap1\n      log4\n        /* \"contracts/LuckyRedEnvelopeV2.sol\":17905:17925  _amount2claimed[_id] */\n      0x00\n      dup10\n      dup2\n      mstore\n        /* \"contracts/LuckyRedEnvelopeV2.sol\":17905:17920  _amount2claimed */\n      0x0c\n        /* \"contracts/LuckyRedEnvelopeV2.sol\":17905:17925  _amount2claimed[_id] */\n      0x20\n      swap1\n      dup2\n      mstore\n      0x40\n      dup1\n      dup4\n      keccak256\n        /* \"contracts/LuckyRedEnvelopeV2.sol\":17926:17947  ticket.receiveAddress */\n      0x01\n      dup6\n      add\n      sload\n      sub(shl(0xa0, 0x01), 0x01)\n      and\n        /* \"contracts/LuckyRedEnvelopeV2.sol\":17905:17948  _amount2claimed[_id][ticket.receiveAddress] */\n      dup5\n      mstore\n      swap1\n      swap2\n      mstore\n      dup2\n      keccak256\n        /* \"contracts/LuckyRedEnvelopeV2.sol\":17905:17961  _amount2claimed[_id][ticket.receiveAddress] += sendValue */\n      dup1\n      sload\n        /* \"contracts/LuckyRedEnvelopeV2.sol\":17952:17961  sendValue */\n      dup6\n      swap3\n        /* \"contracts/LuckyRedEnvelopeV2.sol\":17905:17925  _amount2claimed[_id] */\n      swap1\n        /* \"contracts/LuckyRedEnvelopeV2.sol\":17905:17961  _amount2claimed[_id][ticket.receiveAddress] += sendValue */\n      tag_430\n      swap1\n        /* \"contracts/LuckyRedEnvelopeV2.sol\":17952:17961  sendValue */\n      dup5\n      swap1\n        /* \"contracts/LuckyRedEnvelopeV2.sol\":17905:17961  _amount2claimed[_id][ticket.receiveAddress] += sendValue */\n      tag_172\n      jump\t// in\n    tag_430:\n      swap1\n      swap2\n      sstore\n      pop\n        /* \"contracts/LuckyRedEnvelopeV2.sol\":17976:18004  totalSendAmount += sendValue */\n      tag_431\n      swap1\n      pop\n        /* \"contracts/LuckyRedEnvelopeV2.sol\":17995:18004  sendValue */\n      dup4\n        /* \"contracts/LuckyRedEnvelopeV2.sol\":17976:18004  totalSendAmount += sendValue */\n      dup8\n      tag_172\n      jump\t// in\n    tag_431:\n      swap6\n      pop\n      pop\n        /* \"contracts/LuckyRedEnvelopeV2.sol\":17158:17161  i++ */\n      0x01\n      swap1\n      swap3\n      add\n      swap2\n      pop\n        /* \"contracts/LuckyRedEnvelopeV2.sol\":17124:18016  for (uint256 i = 0; i < _drawNum; i++){... */\n      tag_410\n      swap1\n      pop\n      jump\n    tag_411:\n      pop\n        /* \"contracts/LuckyRedEnvelopeV2.sol\":16915:18031  {... */\n      pop\n      pop\n        /* \"contracts/LuckyRedEnvelopeV2.sol\":16821:18031  function _calculatePrize(uint256 _id,uint256 _drawNum,uint256[] memory _randomsAmount)internal{... */\n      pop\n      pop\n      pop\n      jump\t// out\n        /* \"contracts/LuckyRedEnvelopeV2.sol\":19576:20070  function _claimPrize(uint256 _id,address _winner)internal {... */\n    tag_265:\n        /* \"contracts/LuckyRedEnvelopeV2.sol\":19653:19673  _amount2claimed[_id] */\n      0x00\n      dup3\n      dup2\n      mstore\n        /* \"contracts/LuckyRedEnvelopeV2.sol\":19653:19668  _amount2claimed */\n      0x0c\n        /* \"contracts/LuckyRedEnvelopeV2.sol\":19653:19673  _amount2claimed[_id] */\n      0x20\n      swap1\n      dup2\n      mstore\n      0x40\n      dup1\n      dup4\n      keccak256\n      sub(shl(0xa0, 0x01), 0x01)\n        /* \"contracts/LuckyRedEnvelopeV2.sol\":19653:19682  _amount2claimed[_id][_winner] */\n      dup6\n      and\n      dup5\n      mstore\n      swap1\n      swap2\n      mstore\n      dup2\n      keccak256\n      sload\n        /* \"contracts/LuckyRedEnvelopeV2.sol\":19653:19687  _amount2claimed[_id][_winner] != 0 */\n      swap1\n      sub\n        /* \"contracts/LuckyRedEnvelopeV2.sol\":19645:19700  require(_amount2claimed[_id][_winner] != 0, \"no prize\") */\n      tag_433\n      jumpi\n      mload(0x40)\n      shl(0xe5, 0x461bcd)\n      dup2\n      mstore\n        /* \"#utility.yul\":14255:14257   */\n      0x20\n        /* \"contracts/LuckyRedEnvelopeV2.sol\":19645:19700  require(_amount2claimed[_id][_winner] != 0, \"no prize\") */\n      0x04\n      dup3\n      add\n        /* \"#utility.yul\":14237:14258   */\n      mstore\n        /* \"#utility.yul\":14294:14295   */\n      0x08\n        /* \"#utility.yul\":14274:14292   */\n      0x24\n      dup3\n      add\n        /* \"#utility.yul\":14267:14296   */\n      mstore\n      shl(0xc0, 0x6e6f207072697a65)\n        /* \"#utility.yul\":14312:14330   */\n      0x44\n      dup3\n      add\n        /* \"#utility.yul\":14305:14343   */\n      mstore\n        /* \"#utility.yul\":14360:14378   */\n      0x64\n      add\n        /* \"contracts/LuckyRedEnvelopeV2.sol\":19645:19700  require(_amount2claimed[_id][_winner] != 0, \"no prize\") */\n      tag_117\n        /* \"#utility.yul\":14053:14384   */\n      jump\n        /* \"contracts/LuckyRedEnvelopeV2.sol\":19645:19700  require(_amount2claimed[_id][_winner] != 0, \"no prize\") */\n    tag_433:\n        /* \"contracts/LuckyRedEnvelopeV2.sol\":19768:19797  uint256 amountTokenToTransfer */\n      0x00\n        /* \"contracts/LuckyRedEnvelopeV2.sol\":19800:19820  _amount2claimed[_id] */\n      dup3\n      dup2\n      mstore\n        /* \"contracts/LuckyRedEnvelopeV2.sol\":19800:19815  _amount2claimed */\n      0x0c\n        /* \"contracts/LuckyRedEnvelopeV2.sol\":19800:19820  _amount2claimed[_id] */\n      0x20\n      swap1\n      dup2\n      mstore\n      0x40\n      dup1\n      dup4\n      keccak256\n      sub(shl(0xa0, 0x01), 0x01)\n        /* \"contracts/LuckyRedEnvelopeV2.sol\":19800:19829  _amount2claimed[_id][_winner] */\n      dup1\n      dup7\n      and\n      dup6\n      mstore\n      swap1\n      dup4\n      mstore\n      dup2\n      dup5\n      keccak256\n      sload\n        /* \"contracts/LuckyRedEnvelopeV2.sol\":19849:19867  _redEnvelopes[_id] */\n      dup7\n      dup6\n      mstore\n        /* \"contracts/LuckyRedEnvelopeV2.sol\":19849:19862  _redEnvelopes */\n      0x07\n        /* \"contracts/LuckyRedEnvelopeV2.sol\":19849:19867  _redEnvelopes[_id] */\n      swap1\n      swap4\n      mstore\n      swap3\n      keccak256\n        /* \"contracts/LuckyRedEnvelopeV2.sol\":19849:19879  _redEnvelopes[_id].ticketToken */\n      sload\n        /* \"contracts/LuckyRedEnvelopeV2.sol\":19800:19829  _amount2claimed[_id][_winner] */\n      swap1\n      swap2\n        /* \"contracts/LuckyRedEnvelopeV2.sol\":19842:19925  IERC20(_redEnvelopes[_id].ticketToken).safeTransfer(_winner, amountTokenToTransfer) */\n      tag_436\n      swap2\n        /* \"contracts/LuckyRedEnvelopeV2.sol\":19849:19879  _redEnvelopes[_id].ticketToken */\n      and\n        /* \"contracts/LuckyRedEnvelopeV2.sol\":19821:19828  _winner */\n      dup4\n        /* \"contracts/LuckyRedEnvelopeV2.sol\":19800:19829  _amount2claimed[_id][_winner] */\n      dup4\n        /* \"contracts/LuckyRedEnvelopeV2.sol\":19842:19893  IERC20(_redEnvelopes[_id].ticketToken).safeTransfer */\n      tag_375\n        /* \"contracts/LuckyRedEnvelopeV2.sol\":19842:19925  IERC20(_redEnvelopes[_id].ticketToken).safeTransfer(_winner, amountTokenToTransfer) */\n      jump\t// in\n    tag_436:\n        /* \"contracts/LuckyRedEnvelopeV2.sol\":19943:19963  _amount2claimed[_id] */\n      0x00\n      dup4\n      dup2\n      mstore\n        /* \"contracts/LuckyRedEnvelopeV2.sol\":19943:19958  _amount2claimed */\n      0x0c\n        /* \"contracts/LuckyRedEnvelopeV2.sol\":19943:19963  _amount2claimed[_id] */\n      0x20\n      swap1\n      dup2\n      mstore\n      0x40\n      dup1\n      dup4\n      keccak256\n      sub(shl(0xa0, 0x01), 0x01)\n        /* \"contracts/LuckyRedEnvelopeV2.sol\":19943:19972  _amount2claimed[_id][_winner] */\n      dup7\n      and\n      dup1\n      dup6\n      mstore\n      swap1\n      dup4\n      mstore\n      dup2\n      dup5\n      keccak256\n        /* \"contracts/LuckyRedEnvelopeV2.sol\":19936:19972  delete _amount2claimed[_id][_winner] */\n      dup5\n      swap1\n      sstore\n        /* \"contracts/LuckyRedEnvelopeV2.sol\":20033:20051  _redEnvelopes[_id] */\n      dup7\n      dup5\n      mstore\n        /* \"contracts/LuckyRedEnvelopeV2.sol\":20033:20046  _redEnvelopes */\n      0x07\n        /* \"contracts/LuckyRedEnvelopeV2.sol\":20033:20051  _redEnvelopes[_id] */\n      dup4\n      mstore\n      swap3\n      dup2\n      swap1\n      keccak256\n        /* \"contracts/LuckyRedEnvelopeV2.sol\":20033:20061  _redEnvelopes[_id].autoClaim */\n      0x0d\n      add\n      sload\n        /* \"contracts/LuckyRedEnvelopeV2.sol\":19988:20062  ClaimPrize(_id,_winner,amountTokenToTransfer,_redEnvelopes[_id].autoClaim) */\n      dup2\n      mload\n        /* \"#utility.yul\":13958:13983   */\n      dup6\n      dup2\n      mstore\n        /* \"contracts/LuckyRedEnvelopeV2.sol\":20033:20061  _redEnvelopes[_id].autoClaim */\n      0xff\n      swap1\n      swap2\n      and\n        /* \"#utility.yul\":14026:14040   */\n      iszero\n        /* \"#utility.yul\":14019:14041   */\n      iszero\n        /* \"#utility.yul\":13999:14017   */\n      swap3\n      dup2\n      add\n        /* \"#utility.yul\":13992:14042   */\n      swap3\n      swap1\n      swap3\n      mstore\n        /* \"contracts/LuckyRedEnvelopeV2.sol\":19943:19963  _amount2claimed[_id] */\n      dup6\n      swap2\n        /* \"contracts/LuckyRedEnvelopeV2.sol\":19988:20062  ClaimPrize(_id,_winner,amountTokenToTransfer,_redEnvelopes[_id].autoClaim) */\n      0x268ef67ed0490cc273925a4865e6fbdb4dcf7e0802aad957aa682a78c7618bef\n      swap2\n        /* \"#utility.yul\":13931:13949   */\n      add\n        /* \"contracts/LuckyRedEnvelopeV2.sol\":19988:20062  ClaimPrize(_id,_winner,amountTokenToTransfer,_redEnvelopes[_id].autoClaim) */\n      mload(0x40)\n      dup1\n      swap2\n      sub\n      swap1\n      log3\n        /* \"contracts/LuckyRedEnvelopeV2.sol\":19634:20070  {... */\n      pop\n        /* \"contracts/LuckyRedEnvelopeV2.sol\":19576:20070  function _claimPrize(uint256 _id,address _winner)internal {... */\n      pop\n      pop\n      jump\t// out\n        /* \"@openzeppelin/contracts/token/ERC20/utils/SafeERC20.sol\":1702:1890  function safeTransferFrom(IERC20 token, address from, address to, uint256 value) internal {... */\n    tag_290:\n        /* \"@openzeppelin/contracts/token/ERC20/utils/SafeERC20.sol\":1829:1882  abi.encodeCall(token.transferFrom, (from, to, value)) */\n      mload(0x40)\n      sub(shl(0xa0, 0x01), 0x01)\n        /* \"#utility.yul\":14647:14662   */\n      dup5\n      dup2\n      and\n        /* \"@openzeppelin/contracts/token/ERC20/utils/SafeERC20.sol\":1829:1882  abi.encodeCall(token.transferFrom, (from, to, value)) */\n      0x24\n      dup4\n      add\n        /* \"#utility.yul\":14629:14663   */\n      mstore\n        /* \"#utility.yul\":14699:14714   */\n      dup4\n      dup2\n      and\n        /* \"#utility.yul\":14679:14697   */\n      0x44\n      dup4\n      add\n        /* \"#utility.yul\":14672:14715   */\n      mstore\n        /* \"#utility.yul\":14731:14749   */\n      0x64\n      dup3\n      add\n        /* \"#utility.yul\":14724:14758   */\n      dup4\n      swap1\n      mstore\n        /* \"@openzeppelin/contracts/token/ERC20/utils/SafeERC20.sol\":1802:1883  _callOptionalReturn(token, abi.encodeCall(token.transferFrom, (from, to, value))) */\n      tag_127\n      swap2\n        /* \"@openzeppelin/contracts/token/ERC20/utils/SafeERC20.sol\":1822:1827  token */\n      dup7\n      swap2\n        /* \"@openzeppelin/contracts/token/ERC20/utils/SafeERC20.sol\":1844:1862  token.transferFrom */\n      dup3\n      and\n      swap1\n      0x23b872dd\n      swap1\n        /* \"#utility.yul\":14564:14582   */\n      0x84\n      add\n        /* \"@openzeppelin/contracts/token/ERC20/utils/SafeERC20.sol\":1829:1882  abi.encodeCall(token.transferFrom, (from, to, value)) */\n    tag_440:\n      mload(0x40)\n      0x20\n      dup2\n      dup4\n      sub\n      sub\n      dup2\n      mstore\n      swap1\n      0x40\n      mstore\n      swap2\n      pop\n      0xe0\n      shl\n      0x20\n      dup3\n      add\n      dup1\n      mload\n      sub(shl(0xe0, 0x01), 0x01)\n      dup4\n      dup2\n      dup4\n      and\n      or\n      dup4\n      mstore\n      pop\n      pop\n      pop\n      pop\n        /* \"@openzeppelin/contracts/token/ERC20/utils/SafeERC20.sol\":1802:1821  _callOptionalReturn */\n      tag_442\n        /* \"@openzeppelin/contracts/token/ERC20/utils/SafeERC20.sol\":1802:1883  _callOptionalReturn(token, abi.encodeCall(token.transferFrom, (from, to, value))) */\n      jump\t// in\n        /* \"@openzeppelin/contracts/token/ERC20/utils/SafeERC20.sol\":1303:1463  function safeTransfer(IERC20 token, address to, uint256 value) internal {... */\n    tag_375:\n        /* \"@openzeppelin/contracts/token/ERC20/utils/SafeERC20.sol\":1412:1455  abi.encodeCall(token.transfer, (to, value)) */\n      mload(0x40)\n      sub(shl(0xa0, 0x01), 0x01)\n        /* \"#utility.yul\":10560:10592   */\n      dup4\n      dup2\n      and\n        /* \"@openzeppelin/contracts/token/ERC20/utils/SafeERC20.sol\":1412:1455  abi.encodeCall(token.transfer, (to, value)) */\n      0x24\n      dup4\n      add\n        /* \"#utility.yul\":10542:10593   */\n      mstore\n        /* \"#utility.yul\":10609:10627   */\n      0x44\n      dup3\n      add\n        /* \"#utility.yul\":10602:10636   */\n      dup4\n      swap1\n      mstore\n        /* \"@openzeppelin/contracts/token/ERC20/utils/SafeERC20.sol\":1385:1456  _callOptionalReturn(token, abi.encodeCall(token.transfer, (to, value))) */\n      tag_179\n      swap2\n        /* \"@openzeppelin/contracts/token/ERC20/utils/SafeERC20.sol\":1405:1410  token */\n      dup6\n      swap2\n        /* \"@openzeppelin/contracts/token/ERC20/utils/SafeERC20.sol\":1427:1441  token.transfer */\n      dup3\n      and\n      swap1\n      0xa9059cbb\n      swap1\n        /* \"#utility.yul\":10515:10533   */\n      0x64\n      add\n        /* \"@openzeppelin/contracts/token/ERC20/utils/SafeERC20.sol\":1412:1455  abi.encodeCall(token.transfer, (to, value)) */\n      tag_440\n        /* \"#utility.yul\":10368:10642   */\n      jump\n        /* \"contracts/LuckyRedEnvelopeV2.sol\":18202:18431  function _deriveRandom(uint256 _seed,uint256 i)internal pure returns(uint256){... */\n    tag_386:\n        /* \"contracts/LuckyRedEnvelopeV2.sol\":18271:18278  uint256 */\n      0x00\n      dup1\n        /* \"contracts/LuckyRedEnvelopeV2.sol\":18329:18336  i % 256 */\n      tag_448\n        /* \"contracts/LuckyRedEnvelopeV2.sol\":18333:18336  256 */\n      0x0100\n        /* \"contracts/LuckyRedEnvelopeV2.sol\":18329:18330  i */\n      dup5\n        /* \"contracts/LuckyRedEnvelopeV2.sol\":18329:18336  i % 256 */\n      tag_388\n      jump\t// in\n    tag_448:\n        /* \"contracts/LuckyRedEnvelopeV2.sol\":18307:18337  uint32 shift = uint32(i % 256) */\n      swap1\n      pop\n        /* \"contracts/LuckyRedEnvelopeV2.sol\":18390:18395  _seed */\n      dup4\n        /* \"contracts/LuckyRedEnvelopeV2.sol\":18396:18420  _leftRotate(_seed,shift) */\n      tag_449\n        /* \"contracts/LuckyRedEnvelopeV2.sol\":18408:18413  _seed */\n      dup6\n        /* \"contracts/LuckyRedEnvelopeV2.sol\":18414:18419  shift */\n      dup4\n        /* \"contracts/LuckyRedEnvelopeV2.sol\":18396:18407  _leftRotate */\n      tag_450\n        /* \"contracts/LuckyRedEnvelopeV2.sol\":18396:18420  _leftRotate(_seed,shift) */\n      jump\t// in\n    tag_449:\n        /* \"contracts/LuckyRedEnvelopeV2.sol\":18373:18421  abi.encodePacked(_seed,_leftRotate(_seed,shift)) */\n      0x40\n      dup1\n      mload\n      0x20\n      dup2\n      add\n        /* \"#utility.yul\":14926:14945   */\n      swap4\n      swap1\n      swap4\n      mstore\n        /* \"#utility.yul\":14961:14973   */\n      dup3\n      add\n        /* \"#utility.yul\":14954:14982   */\n      mstore\n        /* \"#utility.yul\":14998:15010   */\n      0x60\n      add\n        /* \"contracts/LuckyRedEnvelopeV2.sol\":18373:18421  abi.encodePacked(_seed,_leftRotate(_seed,shift)) */\n      0x40\n      dup1\n      mload\n      not(0x1f)\n      dup2\n      dup5\n      sub\n      add\n      dup2\n      mstore\n      swap2\n      swap1\n      mstore\n        /* \"contracts/LuckyRedEnvelopeV2.sol\":18363:18422  keccak256(abi.encodePacked(_seed,_leftRotate(_seed,shift))) */\n      dup1\n      mload\n        /* \"contracts/LuckyRedEnvelopeV2.sol\":18373:18421  abi.encodePacked(_seed,_leftRotate(_seed,shift)) */\n      0x20\n        /* \"contracts/LuckyRedEnvelopeV2.sol\":18363:18422  keccak256(abi.encodePacked(_seed,_leftRotate(_seed,shift))) */\n      swap1\n      swap2\n      add\n      keccak256\n      swap5\n        /* \"contracts/LuckyRedEnvelopeV2.sol\":18202:18431  function _deriveRandom(uint256 _seed,uint256 i)internal pure returns(uint256){... */\n      swap4\n      pop\n      pop\n      pop\n      pop\n      jump\t// out\n        /* \"contracts/LuckyRedEnvelopeV2.sol\":14292:15051  function _getTicketbyIndex(uint256 _id,uint256 _index) internal view returns (Ticket storage){... */\n    tag_427:\n        /* \"contracts/LuckyRedEnvelopeV2.sol\":14370:14384  Ticket storage */\n      0x00\n        /* \"contracts/LuckyRedEnvelopeV2.sol\":14404:14417  _tickets[_id] */\n      dup3\n      dup2\n      mstore\n        /* \"contracts/LuckyRedEnvelopeV2.sol\":14404:14412  _tickets */\n      0x08\n        /* \"contracts/LuckyRedEnvelopeV2.sol\":14404:14417  _tickets[_id] */\n      0x20\n      dup2\n      dup2\n      mstore\n      0x40\n      dup1\n      dup5\n      keccak256\n        /* \"contracts/LuckyRedEnvelopeV2.sol\":14418:14431  _redEnvelopes */\n      0x07\n        /* \"contracts/LuckyRedEnvelopeV2.sol\":14418:14436  _redEnvelopes[_id] */\n      swap1\n      swap3\n      mstore\n      dup4\n      keccak256\n        /* \"contracts/LuckyRedEnvelopeV2.sol\":14418:14446  _redEnvelopes[_id].userTxNum */\n      swap1\n      swap2\n      add\n      sload\n        /* \"contracts/LuckyRedEnvelopeV2.sol\":14467:14473  _index */\n      dup4\n      swap2\n        /* \"contracts/LuckyRedEnvelopeV2.sol\":14404:14417  _tickets[_id] */\n      swap1\n        /* \"contracts/LuckyRedEnvelopeV2.sol\":14370:14384  Ticket storage */\n      dup4\n      swap1\n        /* \"contracts/LuckyRedEnvelopeV2.sol\":14418:14450  _redEnvelopes[_id].userTxNum - 1 */\n      tag_454\n      swap1\n        /* \"contracts/LuckyRedEnvelopeV2.sol\":14449:14450  1 */\n      0x01\n      swap1\n        /* \"contracts/LuckyRedEnvelopeV2.sol\":14418:14450  _redEnvelopes[_id].userTxNum - 1 */\n      tag_343\n      jump\t// in\n    tag_454:\n        /* \"contracts/LuckyRedEnvelopeV2.sol\":14404:14451  _tickets[_id][_redEnvelopes[_id].userTxNum - 1] */\n      dup2\n      mstore\n      0x20\n      add\n      swap1\n      dup2\n      mstore\n      0x20\n      add\n      0x00\n      keccak256\n        /* \"contracts/LuckyRedEnvelopeV2.sol\":14404:14464  _tickets[_id][_redEnvelopes[_id].userTxNum - 1].totalNumbers */\n      0x00\n      add\n      sload\n        /* \"contracts/LuckyRedEnvelopeV2.sol\":14404:14473  _tickets[_id][_redEnvelopes[_id].userTxNum - 1].totalNumbers > _index */\n      gt\n        /* \"contracts/LuckyRedEnvelopeV2.sol\":14396:14492  require(_tickets[_id][_redEnvelopes[_id].userTxNum - 1].totalNumbers > _index,\"index out range\") */\n      tag_455\n      jumpi\n      mload(0x40)\n      shl(0xe5, 0x461bcd)\n      dup2\n      mstore\n        /* \"#utility.yul\":15223:15225   */\n      0x20\n        /* \"contracts/LuckyRedEnvelopeV2.sol\":14396:14492  require(_tickets[_id][_redEnvelopes[_id].userTxNum - 1].totalNumbers > _index,\"index out range\") */\n      0x04\n      dup3\n      add\n        /* \"#utility.yul\":15205:15226   */\n      mstore\n        /* \"#utility.yul\":15262:15264   */\n      0x0f\n        /* \"#utility.yul\":15242:15260   */\n      0x24\n      dup3\n      add\n        /* \"#utility.yul\":15235:15265   */\n      mstore\n      shl(0x88, 0x696e646578206f75742072616e6765)\n        /* \"#utility.yul\":15281:15299   */\n      0x44\n      dup3\n      add\n        /* \"#utility.yul\":15274:15319   */\n      mstore\n        /* \"#utility.yul\":15336:15354   */\n      0x64\n      add\n        /* \"contracts/LuckyRedEnvelopeV2.sol\":14396:14492  require(_tickets[_id][_redEnvelopes[_id].userTxNum - 1].totalNumbers > _index,\"index out range\") */\n      tag_117\n        /* \"#utility.yul\":15021:15360   */\n      jump\n        /* \"contracts/LuckyRedEnvelopeV2.sol\":14396:14492  require(_tickets[_id][_redEnvelopes[_id].userTxNum - 1].totalNumbers > _index,\"index out range\") */\n    tag_455:\n        /* \"contracts/LuckyRedEnvelopeV2.sol\":14503:14515  uint256 left */\n      0x00\n        /* \"contracts/LuckyRedEnvelopeV2.sol\":14546:14564  _redEnvelopes[_id] */\n      dup4\n      dup2\n      mstore\n        /* \"contracts/LuckyRedEnvelopeV2.sol\":14546:14559  _redEnvelopes */\n      0x07\n        /* \"contracts/LuckyRedEnvelopeV2.sol\":14546:14564  _redEnvelopes[_id] */\n      0x20\n      mstore\n      0x40\n      dup2\n      keccak256\n        /* \"contracts/LuckyRedEnvelopeV2.sol\":14546:14574  _redEnvelopes[_id].userTxNum */\n      0x08\n      add\n      sload\n        /* \"contracts/LuckyRedEnvelopeV2.sol\":14503:14515  uint256 left */\n      dup2\n      swap1\n        /* \"contracts/LuckyRedEnvelopeV2.sol\":14546:14578  _redEnvelopes[_id].userTxNum - 1 */\n      tag_458\n      swap1\n        /* \"contracts/LuckyRedEnvelopeV2.sol\":14577:14578  1 */\n      0x01\n      swap1\n        /* \"contracts/LuckyRedEnvelopeV2.sol\":14546:14578  _redEnvelopes[_id].userTxNum - 1 */\n      tag_343\n      jump\t// in\n    tag_458:\n        /* \"contracts/LuckyRedEnvelopeV2.sol\":14530:14578  uint256 right = _redEnvelopes[_id].userTxNum - 1 */\n      swap1\n      pop\n        /* \"contracts/LuckyRedEnvelopeV2.sol\":14638:15010  do{... */\n    tag_459:\n        /* \"contracts/LuckyRedEnvelopeV2.sol\":14655:14666  uint256 mid */\n      0x00\n        /* \"contracts/LuckyRedEnvelopeV2.sol\":14686:14687  2 */\n      0x02\n        /* \"contracts/LuckyRedEnvelopeV2.sol\":14670:14682  left + right */\n      tag_462\n        /* \"contracts/LuckyRedEnvelopeV2.sol\":14677:14682  right */\n      dup4\n        /* \"contracts/LuckyRedEnvelopeV2.sol\":14670:14674  left */\n      dup6\n        /* \"contracts/LuckyRedEnvelopeV2.sol\":14670:14682  left + right */\n      tag_172\n      jump\t// in\n    tag_462:\n        /* \"contracts/LuckyRedEnvelopeV2.sol\":14669:14687  (left + right) / 2 */\n      tag_463\n      swap2\n      swap1\n      tag_464\n      jump\t// in\n    tag_463:\n        /* \"contracts/LuckyRedEnvelopeV2.sol\":14706:14719  _tickets[_id] */\n      0x00\n      dup8\n      dup2\n      mstore\n        /* \"contracts/LuckyRedEnvelopeV2.sol\":14706:14714  _tickets */\n      0x08\n        /* \"contracts/LuckyRedEnvelopeV2.sol\":14706:14719  _tickets[_id] */\n      0x20\n      swap1\n      dup2\n      mstore\n      0x40\n      dup1\n      dup4\n      keccak256\n        /* \"contracts/LuckyRedEnvelopeV2.sol\":14706:14724  _tickets[_id][mid] */\n      dup5\n      dup5\n      mstore\n      swap1\n      swap2\n      mstore\n      swap1\n      keccak256\n        /* \"contracts/LuckyRedEnvelopeV2.sol\":14706:14737  _tickets[_id][mid].totalNumbers */\n      sload\n        /* \"contracts/LuckyRedEnvelopeV2.sol\":14655:14687  uint256 mid = (left + right) / 2 */\n      swap1\n      swap2\n      pop\n        /* \"contracts/LuckyRedEnvelopeV2.sol\":14706:14746  _tickets[_id][mid].totalNumbers > _index */\n      dup6\n      lt\n        /* \"contracts/LuckyRedEnvelopeV2.sol\":14702:14893  if (_tickets[_id][mid].totalNumbers > _index){... */\n      iszero\n      tag_465\n      jumpi\n        /* \"contracts/LuckyRedEnvelopeV2.sol\":14774:14777  mid */\n      dup1\n        /* \"contracts/LuckyRedEnvelopeV2.sol\":14766:14777  right = mid */\n      swap2\n      pop\n        /* \"contracts/LuckyRedEnvelopeV2.sol\":14702:14893  if (_tickets[_id][mid].totalNumbers > _index){... */\n      jump(tag_467)\n    tag_465:\n        /* \"contracts/LuckyRedEnvelopeV2.sol\":14802:14815  _tickets[_id] */\n      0x00\n      dup7\n      dup2\n      mstore\n        /* \"contracts/LuckyRedEnvelopeV2.sol\":14802:14810  _tickets */\n      0x08\n        /* \"contracts/LuckyRedEnvelopeV2.sol\":14802:14815  _tickets[_id] */\n      0x20\n      swap1\n      dup2\n      mstore\n      0x40\n      dup1\n      dup4\n      keccak256\n        /* \"contracts/LuckyRedEnvelopeV2.sol\":14802:14820  _tickets[_id][mid] */\n      dup5\n      dup5\n      mstore\n      swap1\n      swap2\n      mstore\n      swap1\n      keccak256\n        /* \"contracts/LuckyRedEnvelopeV2.sol\":14802:14833  _tickets[_id][mid].totalNumbers */\n      sload\n        /* \"contracts/LuckyRedEnvelopeV2.sol\":14802:14843  _tickets[_id][mid].totalNumbers <= _index */\n      dup6\n      lt\n        /* \"contracts/LuckyRedEnvelopeV2.sol\":14799:14893  if(_tickets[_id][mid].totalNumbers <= _index){... */\n      tag_467\n      jumpi\n        /* \"contracts/LuckyRedEnvelopeV2.sol\":14870:14877  mid + 1 */\n      tag_468\n        /* \"contracts/LuckyRedEnvelopeV2.sol\":14870:14873  mid */\n      dup2\n        /* \"contracts/LuckyRedEnvelopeV2.sol\":14876:14877  1 */\n      0x01\n        /* \"contracts/LuckyRedEnvelopeV2.sol\":14870:14877  mid + 1 */\n      tag_172\n      jump\t// in\n    tag_468:\n        /* \"contracts/LuckyRedEnvelopeV2.sol\":14863:14877  left = mid + 1 */\n      swap3\n      pop\n        /* \"contracts/LuckyRedEnvelopeV2.sol\":14799:14893  if(_tickets[_id][mid].totalNumbers <= _index){... */\n    tag_467:\n        /* \"contracts/LuckyRedEnvelopeV2.sol\":14919:14924  right */\n      dup2\n        /* \"contracts/LuckyRedEnvelopeV2.sol\":14911:14915  left */\n      dup4\n        /* \"contracts/LuckyRedEnvelopeV2.sol\":14911:14924  left >= right */\n      lt\n        /* \"contracts/LuckyRedEnvelopeV2.sol\":14907:14987  if (left >= right){... */\n      tag_469\n      jumpi\n      pop\n        /* \"contracts/LuckyRedEnvelopeV2.sol\":14951:14964  _tickets[_id] */\n      0x00\n      dup6\n      dup2\n      mstore\n        /* \"contracts/LuckyRedEnvelopeV2.sol\":14951:14959  _tickets */\n      0x08\n        /* \"contracts/LuckyRedEnvelopeV2.sol\":14951:14964  _tickets[_id] */\n      0x20\n      swap1\n      dup2\n      mstore\n      0x40\n      dup1\n      dup4\n      keccak256\n        /* \"contracts/LuckyRedEnvelopeV2.sol\":14951:14971  _tickets[_id][right] */\n      swap4\n      dup4\n      mstore\n      swap3\n      swap1\n      mstore\n      keccak256\n      swap2\n      pop\n        /* \"contracts/LuckyRedEnvelopeV2.sol\":14944:14971  return _tickets[_id][right] */\n      tag_317\n      swap1\n      pop\n      jump\n        /* \"contracts/LuckyRedEnvelopeV2.sol\":14907:14987  if (left >= right){... */\n    tag_469:\n      pop\n        /* \"contracts/LuckyRedEnvelopeV2.sol\":14638:15010  do{... */\n      jump(tag_459)\n        /* \"@openzeppelin/contracts/token/ERC20/utils/SafeERC20.sol\":4059:4688  function _callOptionalReturn(IERC20 token, bytes memory data) private {... */\n    tag_442:\n        /* \"@openzeppelin/contracts/token/ERC20/utils/SafeERC20.sol\":4478:4501  bytes memory returndata */\n      0x00\n        /* \"@openzeppelin/contracts/token/ERC20/utils/SafeERC20.sol\":4504:4537  address(token).functionCall(data) */\n      tag_471\n      sub(shl(0xa0, 0x01), 0x01)\n        /* \"@openzeppelin/contracts/token/ERC20/utils/SafeERC20.sol\":4504:4531  address(token).functionCall */\n      dup5\n      and\n        /* \"@openzeppelin/contracts/token/ERC20/utils/SafeERC20.sol\":4532:4536  data */\n      dup4\n        /* \"@openzeppelin/contracts/token/ERC20/utils/SafeERC20.sol\":4504:4531  address(token).functionCall */\n      tag_472\n        /* \"@openzeppelin/contracts/token/ERC20/utils/SafeERC20.sol\":4504:4537  address(token).functionCall(data) */\n      jump\t// in\n    tag_471:\n        /* \"@openzeppelin/contracts/token/ERC20/utils/SafeERC20.sol\":4478:4537  bytes memory returndata = address(token).functionCall(data) */\n      swap1\n      pop\n        /* \"@openzeppelin/contracts/token/ERC20/utils/SafeERC20.sol\":4551:4561  returndata */\n      dup1\n        /* \"@openzeppelin/contracts/token/ERC20/utils/SafeERC20.sol\":4551:4568  returndata.length */\n      mload\n        /* \"@openzeppelin/contracts/token/ERC20/utils/SafeERC20.sol\":4572:4573  0 */\n      0x00\n        /* \"@openzeppelin/contracts/token/ERC20/utils/SafeERC20.sol\":4551:4573  returndata.length != 0 */\n      eq\n      iszero\n        /* \"@openzeppelin/contracts/token/ERC20/utils/SafeERC20.sol\":4551:4608  returndata.length != 0 && !abi.decode(returndata, (bool)) */\n      dup1\n      iszero\n      tag_473\n      jumpi\n      pop\n        /* \"@openzeppelin/contracts/token/ERC20/utils/SafeERC20.sol\":4589:4599  returndata */\n      dup1\n        /* \"@openzeppelin/contracts/token/ERC20/utils/SafeERC20.sol\":4578:4608  abi.decode(returndata, (bool)) */\n      dup1\n      0x20\n      add\n      swap1\n      mload\n      dup2\n      add\n      swap1\n      tag_474\n      swap2\n      swap1\n      tag_475\n      jump\t// in\n    tag_474:\n        /* \"@openzeppelin/contracts/token/ERC20/utils/SafeERC20.sol\":4577:4608  !abi.decode(returndata, (bool)) */\n      iszero\n        /* \"@openzeppelin/contracts/token/ERC20/utils/SafeERC20.sol\":4551:4608  returndata.length != 0 && !abi.decode(returndata, (bool)) */\n    tag_473:\n        /* \"@openzeppelin/contracts/token/ERC20/utils/SafeERC20.sol\":4547:4682  if (returndata.length != 0 && !abi.decode(returndata, (bool))) {... */\n      iszero\n      tag_179\n      jumpi\n        /* \"@openzeppelin/contracts/token/ERC20/utils/SafeERC20.sol\":4631:4671  SafeERC20FailedOperation(address(token)) */\n      mload(0x40)\n      shl(0xe0, 0x5274afe7)\n      dup2\n      mstore\n      sub(shl(0xa0, 0x01), 0x01)\n        /* \"#utility.yul\":2808:2840   */\n      dup5\n      and\n        /* \"@openzeppelin/contracts/token/ERC20/utils/SafeERC20.sol\":4631:4671  SafeERC20FailedOperation(address(token)) */\n      0x04\n      dup3\n      add\n        /* \"#utility.yul\":2790:2841   */\n      mstore\n        /* \"#utility.yul\":2763:2781   */\n      0x24\n      add\n        /* \"@openzeppelin/contracts/token/ERC20/utils/SafeERC20.sol\":4631:4671  SafeERC20FailedOperation(address(token)) */\n      tag_117\n        /* \"#utility.yul\":2644:2847   */\n      jump\n        /* \"contracts/LuckyRedEnvelopeV2.sol\":18041:18194  function _leftRotate(uint256 _value,uint32 _shift)internal pure returns(uint256){... */\n    tag_450:\n        /* \"contracts/LuckyRedEnvelopeV2.sol\":18113:18120  uint256 */\n      0x00\n        /* \"contracts/LuckyRedEnvelopeV2.sol\":18172:18184  256 - _shift */\n      tag_479\n        /* \"contracts/LuckyRedEnvelopeV2.sol\":18178:18184  _shift */\n      dup3\n        /* \"contracts/LuckyRedEnvelopeV2.sol\":18172:18175  256 */\n      0x0100\n        /* \"contracts/LuckyRedEnvelopeV2.sol\":18172:18184  256 - _shift */\n      tag_480\n      jump\t// in\n    tag_479:\n        /* \"contracts/LuckyRedEnvelopeV2.sol\":18161:18185  _value >> (256 - _shift) */\n      0xffffffff\n        /* \"contracts/LuckyRedEnvelopeV2.sol\":18140:18156  _value << _shift */\n      swap3\n      dup4\n      and\n      dup5\n      swap1\n      shl\n        /* \"contracts/LuckyRedEnvelopeV2.sol\":18161:18185  _value >> (256 - _shift) */\n      swap3\n      and\n      swap3\n      swap1\n      swap3\n      shr\n        /* \"contracts/LuckyRedEnvelopeV2.sol\":18139:18186  (_value << _shift) | (_value >> (256 - _shift)) */\n      or\n      swap2\n        /* \"contracts/LuckyRedEnvelopeV2.sol\":18041:18194  function _leftRotate(uint256 _value,uint32 _shift)internal pure returns(uint256){... */\n      swap1\n      pop\n      jump\t// out\n        /* \"@openzeppelin/contracts/utils/Address.sol\":2705:2856  function functionCall(address target, bytes memory data) internal returns (bytes memory) {... */\n    tag_472:\n        /* \"@openzeppelin/contracts/utils/Address.sol\":2780:2792  bytes memory */\n      0x60\n        /* \"@openzeppelin/contracts/utils/Address.sol\":2811:2849  functionCallWithValue(target, data, 0) */\n      tag_376\n        /* \"@openzeppelin/contracts/utils/Address.sol\":2833:2839  target */\n      dup4\n        /* \"@openzeppelin/contracts/utils/Address.sol\":2841:2845  data */\n      dup4\n        /* \"@openzeppelin/contracts/utils/Address.sol\":2847:2848  0 */\n      0x00\n        /* \"@openzeppelin/contracts/utils/Address.sol\":2780:2792  bytes memory */\n      dup5\n        /* \"@openzeppelin/contracts/utils/Address.sol\":3421:3433  bool success */\n      0x00\n        /* \"@openzeppelin/contracts/utils/Address.sol\":3435:3458  bytes memory returndata */\n      dup1\n        /* \"@openzeppelin/contracts/utils/Address.sol\":3462:3468  target */\n      dup6\n      sub(shl(0xa0, 0x01), 0x01)\n        /* \"@openzeppelin/contracts/utils/Address.sol\":3462:3473  target.call */\n      and\n        /* \"@openzeppelin/contracts/utils/Address.sol\":3481:3486  value */\n      dup5\n        /* \"@openzeppelin/contracts/utils/Address.sol\":3488:3492  data */\n      dup7\n        /* \"@openzeppelin/contracts/utils/Address.sol\":3462:3493  target.call{value: value}(data) */\n      mload(0x40)\n      tag_487\n      swap2\n      swap1\n      tag_488\n      jump\t// in\n    tag_487:\n      0x00\n      mload(0x40)\n      dup1\n      dup4\n      sub\n      dup2\n      dup6\n      dup8\n      gas\n      call\n      swap3\n      pop\n      pop\n      pop\n      returndatasize\n      dup1\n      0x00\n      dup2\n      eq\n      tag_491\n      jumpi\n      mload(0x40)\n      swap2\n      pop\n      and(add(returndatasize, 0x3f), not(0x1f))\n      dup3\n      add\n      0x40\n      mstore\n      returndatasize\n      dup3\n      mstore\n      returndatasize\n      0x00\n      0x20\n      dup5\n      add\n      returndatacopy\n      jump(tag_490)\n    tag_491:\n      0x60\n      swap2\n      pop\n    tag_490:\n      pop\n        /* \"@openzeppelin/contracts/utils/Address.sol\":3420:3493  (bool success, bytes memory returndata) = target.call{value: value}(data) */\n      swap2\n      pop\n      swap2\n      pop\n        /* \"@openzeppelin/contracts/utils/Address.sol\":3510:3565  verifyCallResultFromTarget(target, success, returndata) */\n      tag_492\n        /* \"@openzeppelin/contracts/utils/Address.sol\":3537:3543  target */\n      dup7\n        /* \"@openzeppelin/contracts/utils/Address.sol\":3545:3552  success */\n      dup4\n        /* \"@openzeppelin/contracts/utils/Address.sol\":3554:3564  returndata */\n      dup4\n        /* \"@openzeppelin/contracts/utils/Address.sol\":3510:3536  verifyCallResultFromTarget */\n      tag_493\n        /* \"@openzeppelin/contracts/utils/Address.sol\":3510:3565  verifyCallResultFromTarget(target, success, returndata) */\n      jump\t// in\n    tag_492:\n        /* \"@openzeppelin/contracts/utils/Address.sol\":3503:3565  return verifyCallResultFromTarget(target, success, returndata) */\n      swap7\n        /* \"@openzeppelin/contracts/utils/Address.sol\":3180:3572  function functionCallWithValue(address target, bytes memory data, uint256 value) internal returns (bytes memory) {... */\n      swap6\n      pop\n      pop\n      pop\n      pop\n      pop\n      pop\n      jump\t// out\n        /* \"@openzeppelin/contracts/utils/Address.sol\":4625:5207  function verifyCallResultFromTarget(... */\n    tag_493:\n        /* \"@openzeppelin/contracts/utils/Address.sol\":4769:4781  bytes memory */\n      0x60\n        /* \"@openzeppelin/contracts/utils/Address.sol\":4798:4805  success */\n      dup3\n        /* \"@openzeppelin/contracts/utils/Address.sol\":4793:5201  if (!success) {... */\n      tag_495\n      jumpi\n        /* \"@openzeppelin/contracts/utils/Address.sol\":4821:4840  _revert(returndata) */\n      tag_496\n        /* \"@openzeppelin/contracts/utils/Address.sol\":4829:4839  returndata */\n      dup3\n        /* \"@openzeppelin/contracts/utils/Address.sol\":4821:4828  _revert */\n      tag_497\n        /* \"@openzeppelin/contracts/utils/Address.sol\":4821:4840  _revert(returndata) */\n      jump\t// in\n    tag_496:\n        /* \"@openzeppelin/contracts/utils/Address.sol\":4793:5201  if (!success) {... */\n      jump(tag_376)\n    tag_495:\n        /* \"@openzeppelin/contracts/utils/Address.sol\":5045:5062  returndata.length */\n      dup2\n      mload\n        /* \"@openzeppelin/contracts/utils/Address.sol\":5045:5067  returndata.length == 0 */\n      iszero\n        /* \"@openzeppelin/contracts/utils/Address.sol\":5045:5094  returndata.length == 0 && target.code.length == 0 */\n      dup1\n      iszero\n      tag_499\n      jumpi\n      pop\n      sub(shl(0xa0, 0x01), 0x01)\n        /* \"@openzeppelin/contracts/utils/Address.sol\":5071:5089  target.code.length */\n      dup5\n      and\n      extcodesize\n        /* \"@openzeppelin/contracts/utils/Address.sol\":5071:5094  target.code.length == 0 */\n      iszero\n        /* \"@openzeppelin/contracts/utils/Address.sol\":5045:5094  returndata.length == 0 && target.code.length == 0 */\n    tag_499:\n        /* \"@openzeppelin/contracts/utils/Address.sol\":5041:5160  if (returndata.length == 0 && target.code.length == 0) {... */\n      iszero\n      tag_500\n      jumpi\n        /* \"@openzeppelin/contracts/utils/Address.sol\":5121:5145  AddressEmptyCode(target) */\n      mload(0x40)\n      shl(0xe0, 0x9996b315)\n      dup2\n      mstore\n      sub(shl(0xa0, 0x01), 0x01)\n        /* \"#utility.yul\":2808:2840   */\n      dup6\n      and\n        /* \"@openzeppelin/contracts/utils/Address.sol\":5121:5145  AddressEmptyCode(target) */\n      0x04\n      dup3\n      add\n        /* \"#utility.yul\":2790:2841   */\n      mstore\n        /* \"#utility.yul\":2763:2781   */\n      0x24\n      add\n        /* \"@openzeppelin/contracts/utils/Address.sol\":5121:5145  AddressEmptyCode(target) */\n      tag_117\n        /* \"#utility.yul\":2644:2847   */\n      jump\n        /* \"@openzeppelin/contracts/utils/Address.sol\":5041:5160  if (returndata.length == 0 && target.code.length == 0) {... */\n    tag_500:\n      pop\n        /* \"@openzeppelin/contracts/utils/Address.sol\":5180:5190  returndata */\n      dup1\n        /* \"@openzeppelin/contracts/utils/Address.sol\":5173:5190  return returndata */\n      jump(tag_376)\n        /* \"@openzeppelin/contracts/utils/Address.sol\":5743:6259  function _revert(bytes memory returndata) private pure {... */\n    tag_497:\n        /* \"@openzeppelin/contracts/utils/Address.sol\":5874:5891  returndata.length */\n      dup1\n      mload\n        /* \"@openzeppelin/contracts/utils/Address.sol\":5874:5895  returndata.length > 0 */\n      iszero\n        /* \"@openzeppelin/contracts/utils/Address.sol\":5870:6253  if (returndata.length > 0) {... */\n      tag_503\n      jumpi\n        /* \"@openzeppelin/contracts/utils/Address.sol\":6102:6112  returndata */\n      dup1\n        /* \"@openzeppelin/contracts/utils/Address.sol\":6096:6113  mload(returndata) */\n      mload\n        /* \"@openzeppelin/contracts/utils/Address.sol\":6158:6173  returndata_size */\n      dup1\n        /* \"@openzeppelin/contracts/utils/Address.sol\":6145:6155  returndata */\n      dup3\n        /* \"@openzeppelin/contracts/utils/Address.sol\":6141:6143  32 */\n      0x20\n        /* \"@openzeppelin/contracts/utils/Address.sol\":6137:6156  add(32, returndata) */\n      add\n        /* \"@openzeppelin/contracts/utils/Address.sol\":6130:6174  revert(add(32, returndata), returndata_size) */\n      revert\n        /* \"@openzeppelin/contracts/utils/Address.sol\":5870:6253  if (returndata.length > 0) {... */\n    tag_503:\n        /* \"@openzeppelin/contracts/utils/Address.sol\":6225:6242  FailedInnerCall() */\n      mload(0x40)\n      shl(0xe1, 0x0a12f521)\n      dup2\n      mstore\n      0x04\n      add\n      mload(0x40)\n      dup1\n      swap2\n      sub\n      swap1\n      revert\n        /* \"#utility.yul\":14:399   */\n    tag_31:\n        /* \"#utility.yul\":100:106   */\n      0x00\n        /* \"#utility.yul\":108:114   */\n      dup1\n        /* \"#utility.yul\":116:122   */\n      0x00\n        /* \"#utility.yul\":124:130   */\n      dup1\n        /* \"#utility.yul\":177:180   */\n      0x80\n        /* \"#utility.yul\":165:174   */\n      dup6\n        /* \"#utility.yul\":156:163   */\n      dup8\n        /* \"#utility.yul\":152:175   */\n      sub\n        /* \"#utility.yul\":148:181   */\n      slt\n        /* \"#utility.yul\":145:198   */\n      iszero\n      tag_516\n      jumpi\n        /* \"#utility.yul\":194:195   */\n      0x00\n        /* \"#utility.yul\":191:192   */\n      dup1\n        /* \"#utility.yul\":184:196   */\n      revert\n        /* \"#utility.yul\":145:198   */\n    tag_516:\n      pop\n      pop\n        /* \"#utility.yul\":217:240   */\n      dup3\n      calldataload\n      swap5\n        /* \"#utility.yul\":287:289   */\n      0x20\n        /* \"#utility.yul\":272:290   */\n      dup5\n      add\n        /* \"#utility.yul\":259:291   */\n      calldataload\n      swap5\n      pop\n        /* \"#utility.yul\":338:340   */\n      0x40\n        /* \"#utility.yul\":323:341   */\n      dup5\n      add\n        /* \"#utility.yul\":310:342   */\n      calldataload\n      swap4\n        /* \"#utility.yul\":389:391   */\n      0x60\n        /* \"#utility.yul\":374:392   */\n      add\n        /* \"#utility.yul\":361:393   */\n      calldataload\n      swap3\n      pop\n        /* \"#utility.yul\":14:399   */\n      swap1\n      pop\n      jump\t// out\n        /* \"#utility.yul\":404:584   */\n    tag_35:\n        /* \"#utility.yul\":463:469   */\n      0x00\n        /* \"#utility.yul\":516:518   */\n      0x20\n        /* \"#utility.yul\":504:513   */\n      dup3\n        /* \"#utility.yul\":495:502   */\n      dup5\n        /* \"#utility.yul\":491:514   */\n      sub\n        /* \"#utility.yul\":487:519   */\n      slt\n        /* \"#utility.yul\":484:536   */\n      iszero\n      tag_518\n      jumpi\n        /* \"#utility.yul\":532:533   */\n      0x00\n        /* \"#utility.yul\":529:530   */\n      dup1\n        /* \"#utility.yul\":522:534   */\n      revert\n        /* \"#utility.yul\":484:536   */\n    tag_518:\n      pop\n        /* \"#utility.yul\":555:578   */\n      calldataload\n      swap2\n        /* \"#utility.yul\":404:584   */\n      swap1\n      pop\n      jump\t// out\n        /* \"#utility.yul\":589:762   */\n    tag_507:\n        /* \"#utility.yul\":657:677   */\n      dup1\n      calldataload\n      sub(shl(0xa0, 0x01), 0x01)\n        /* \"#utility.yul\":706:737   */\n      dup2\n      and\n        /* \"#utility.yul\":696:738   */\n      dup2\n      eq\n        /* \"#utility.yul\":686:756   */\n      tag_520\n      jumpi\n        /* \"#utility.yul\":752:753   */\n      0x00\n        /* \"#utility.yul\":749:750   */\n      dup1\n        /* \"#utility.yul\":742:754   */\n      revert\n        /* \"#utility.yul\":686:756   */\n    tag_520:\n        /* \"#utility.yul\":589:762   */\n      swap2\n      swap1\n      pop\n      jump\t// out\n        /* \"#utility.yul\":767:1089   */\n    tag_39:\n        /* \"#utility.yul\":844:850   */\n      0x00\n        /* \"#utility.yul\":852:858   */\n      dup1\n        /* \"#utility.yul\":860:866   */\n      0x00\n        /* \"#utility.yul\":913:915   */\n      0x60\n        /* \"#utility.yul\":901:910   */\n      dup5\n        /* \"#utility.yul\":892:899   */\n      dup7\n        /* \"#utility.yul\":888:911   */\n      sub\n        /* \"#utility.yul\":884:916   */\n      slt\n        /* \"#utility.yul\":881:933   */\n      iszero\n      tag_522\n      jumpi\n        /* \"#utility.yul\":929:930   */\n      0x00\n        /* \"#utility.yul\":926:927   */\n      dup1\n        /* \"#utility.yul\":919:931   */\n      revert\n        /* \"#utility.yul\":881:933   */\n    tag_522:\n        /* \"#utility.yul\":965:974   */\n      dup4\n        /* \"#utility.yul\":952:975   */\n      calldataload\n        /* \"#utility.yul\":942:975   */\n      swap3\n      pop\n        /* \"#utility.yul\":994:1032   */\n      tag_523\n        /* \"#utility.yul\":1028:1030   */\n      0x20\n        /* \"#utility.yul\":1017:1026   */\n      dup6\n        /* \"#utility.yul\":1013:1031   */\n      add\n        /* \"#utility.yul\":994:1032   */\n      tag_507\n      jump\t// in\n    tag_523:\n        /* \"#utility.yul\":984:1032   */\n      swap2\n      pop\n        /* \"#utility.yul\":1079:1081   */\n      0x40\n        /* \"#utility.yul\":1068:1077   */\n      dup5\n        /* \"#utility.yul\":1064:1082   */\n      add\n        /* \"#utility.yul\":1051:1083   */\n      calldataload\n        /* \"#utility.yul\":1041:1083   */\n      swap1\n      pop\n        /* \"#utility.yul\":767:1089   */\n      swap3\n      pop\n      swap3\n      pop\n      swap3\n      jump\t// out\n        /* \"#utility.yul\":1094:1212   */\n    tag_508:\n        /* \"#utility.yul\":1180:1185   */\n      dup1\n        /* \"#utility.yul\":1173:1186   */\n      iszero\n        /* \"#utility.yul\":1166:1187   */\n      iszero\n        /* \"#utility.yul\":1159:1164   */\n      dup2\n        /* \"#utility.yul\":1156:1188   */\n      eq\n        /* \"#utility.yul\":1146:1206   */\n      tag_147\n      jumpi\n        /* \"#utility.yul\":1202:1203   */\n      0x00\n        /* \"#utility.yul\":1199:1200   */\n      dup1\n        /* \"#utility.yul\":1192:1204   */\n      revert\n        /* \"#utility.yul\":1217:2095   */\n    tag_43:\n        /* \"#utility.yul\":1354:1360   */\n      0x00\n        /* \"#utility.yul\":1362:1368   */\n      dup1\n        /* \"#utility.yul\":1370:1376   */\n      0x00\n        /* \"#utility.yul\":1378:1384   */\n      dup1\n        /* \"#utility.yul\":1386:1392   */\n      0x00\n        /* \"#utility.yul\":1394:1400   */\n      dup1\n        /* \"#utility.yul\":1402:1408   */\n      0x00\n        /* \"#utility.yul\":1410:1416   */\n      dup1\n        /* \"#utility.yul\":1418:1424   */\n      0x00\n        /* \"#utility.yul\":1426:1432   */\n      dup1\n        /* \"#utility.yul\":1479:1482   */\n      0x0140\n        /* \"#utility.yul\":1467:1476   */\n      dup12\n        /* \"#utility.yul\":1458:1465   */\n      dup14\n        /* \"#utility.yul\":1454:1477   */\n      sub\n        /* \"#utility.yul\":1450:1483   */\n      slt\n        /* \"#utility.yul\":1447:1500   */\n      iszero\n      tag_527\n      jumpi\n        /* \"#utility.yul\":1496:1497   */\n      0x00\n        /* \"#utility.yul\":1493:1494   */\n      dup1\n        /* \"#utility.yul\":1486:1498   */\n      revert\n        /* \"#utility.yul\":1447:1500   */\n    tag_527:\n        /* \"#utility.yul\":1519:1548   */\n      tag_528\n        /* \"#utility.yul\":1538:1547   */\n      dup12\n        /* \"#utility.yul\":1519:1548   */\n      tag_507\n      jump\t// in\n    tag_528:\n        /* \"#utility.yul\":1509:1548   */\n      swap10\n      pop\n        /* \"#utility.yul\":1595:1597   */\n      0x20\n        /* \"#utility.yul\":1584:1593   */\n      dup12\n        /* \"#utility.yul\":1580:1598   */\n      add\n        /* \"#utility.yul\":1567:1599   */\n      calldataload\n        /* \"#utility.yul\":1557:1599   */\n      swap9\n      pop\n        /* \"#utility.yul\":1646:1648   */\n      0x40\n        /* \"#utility.yul\":1635:1644   */\n      dup12\n        /* \"#utility.yul\":1631:1649   */\n      add\n        /* \"#utility.yul\":1618:1650   */\n      calldataload\n        /* \"#utility.yul\":1608:1650   */\n      swap8\n      pop\n        /* \"#utility.yul\":1697:1699   */\n      0x60\n        /* \"#utility.yul\":1686:1695   */\n      dup12\n        /* \"#utility.yul\":1682:1700   */\n      add\n        /* \"#utility.yul\":1669:1701   */\n      calldataload\n        /* \"#utility.yul\":1659:1701   */\n      swap7\n      pop\n        /* \"#utility.yul\":1748:1751   */\n      0x80\n        /* \"#utility.yul\":1737:1746   */\n      dup12\n        /* \"#utility.yul\":1733:1752   */\n      add\n        /* \"#utility.yul\":1720:1753   */\n      calldataload\n        /* \"#utility.yul\":1710:1753   */\n      swap6\n      pop\n        /* \"#utility.yul\":1772:1811   */\n      tag_529\n        /* \"#utility.yul\":1806:1809   */\n      0xa0\n        /* \"#utility.yul\":1795:1804   */\n      dup13\n        /* \"#utility.yul\":1791:1810   */\n      add\n        /* \"#utility.yul\":1772:1811   */\n      tag_507\n      jump\t// in\n    tag_529:\n        /* \"#utility.yul\":1762:1811   */\n      swap5\n      pop\n        /* \"#utility.yul\":1858:1861   */\n      0xc0\n        /* \"#utility.yul\":1847:1856   */\n      dup12\n        /* \"#utility.yul\":1843:1862   */\n      add\n        /* \"#utility.yul\":1830:1863   */\n      calldataload\n        /* \"#utility.yul\":1820:1863   */\n      swap4\n      pop\n        /* \"#utility.yul\":1882:1921   */\n      tag_530\n        /* \"#utility.yul\":1916:1919   */\n      0xe0\n        /* \"#utility.yul\":1905:1914   */\n      dup13\n        /* \"#utility.yul\":1901:1920   */\n      add\n        /* \"#utility.yul\":1882:1921   */\n      tag_507\n      jump\t// in\n    tag_530:\n        /* \"#utility.yul\":1872:1921   */\n      swap3\n      pop\n        /* \"#utility.yul\":1968:1971   */\n      0x0100\n        /* \"#utility.yul\":1957:1966   */\n      dup12\n        /* \"#utility.yul\":1953:1972   */\n      add\n        /* \"#utility.yul\":1940:1973   */\n      calldataload\n        /* \"#utility.yul\":1930:1973   */\n      swap2\n      pop\n        /* \"#utility.yul\":2023:2026   */\n      0x0120\n        /* \"#utility.yul\":2012:2021   */\n      dup12\n        /* \"#utility.yul\":2008:2027   */\n      add\n        /* \"#utility.yul\":1995:2028   */\n      calldataload\n        /* \"#utility.yul\":2037:2065   */\n      tag_531\n        /* \"#utility.yul\":2059:2064   */\n      dup2\n        /* \"#utility.yul\":2037:2065   */\n      tag_508\n      jump\t// in\n    tag_531:\n        /* \"#utility.yul\":2084:2089   */\n      dup1\n        /* \"#utility.yul\":2074:2089   */\n      swap2\n      pop\n      pop\n        /* \"#utility.yul\":1217:2095   */\n      swap3\n      swap6\n      swap9\n      swap12\n      swap2\n      swap5\n      swap8\n      swap11\n      pop\n      swap3\n      swap6\n      swap9\n      pop\n      jump\t// out\n        /* \"#utility.yul\":2282:2530   */\n    tag_51:\n        /* \"#utility.yul\":2350:2356   */\n      0x00\n        /* \"#utility.yul\":2358:2364   */\n      dup1\n        /* \"#utility.yul\":2411:2413   */\n      0x40\n        /* \"#utility.yul\":2399:2408   */\n      dup4\n        /* \"#utility.yul\":2390:2397   */\n      dup6\n        /* \"#utility.yul\":2386:2409   */\n      sub\n        /* \"#utility.yul\":2382:2414   */\n      slt\n        /* \"#utility.yul\":2379:2431   */\n      iszero\n      tag_534\n      jumpi\n        /* \"#utility.yul\":2427:2428   */\n      0x00\n        /* \"#utility.yul\":2424:2425   */\n      dup1\n        /* \"#utility.yul\":2417:2429   */\n      revert\n        /* \"#utility.yul\":2379:2431   */\n    tag_534:\n      pop\n      pop\n        /* \"#utility.yul\":2450:2473   */\n      dup1\n      calldataload\n      swap3\n        /* \"#utility.yul\":2520:2522   */\n      0x20\n        /* \"#utility.yul\":2505:2523   */\n      swap1\n      swap2\n      add\n        /* \"#utility.yul\":2492:2524   */\n      calldataload\n      swap2\n      pop\n        /* \"#utility.yul\":2282:2530   */\n      jump\t// out\n        /* \"#utility.yul\":2852:2979   */\n    tag_137:\n        /* \"#utility.yul\":2913:2923   */\n      0x4e487b71\n        /* \"#utility.yul\":2908:2911   */\n      0xe0\n        /* \"#utility.yul\":2904:2924   */\n      shl\n        /* \"#utility.yul\":2901:2902   */\n      0x00\n        /* \"#utility.yul\":2894:2925   */\n      mstore\n        /* \"#utility.yul\":2944:2948   */\n      0x21\n        /* \"#utility.yul\":2941:2942   */\n      0x04\n        /* \"#utility.yul\":2934:2949   */\n      mstore\n        /* \"#utility.yul\":2968:2972   */\n      0x24\n        /* \"#utility.yul\":2965:2966   */\n      0x00\n        /* \"#utility.yul\":2958:2973   */\n      revert\n        /* \"#utility.yul\":2984:3218   */\n    tag_510:\n        /* \"#utility.yul\":3062:3063   */\n      0x04\n        /* \"#utility.yul\":3055:3060   */\n      dup2\n        /* \"#utility.yul\":3052:3064   */\n      lt\n        /* \"#utility.yul\":3042:3185   */\n      tag_539\n      jumpi\n        /* \"#utility.yul\":3107:3117   */\n      0x4e487b71\n        /* \"#utility.yul\":3102:3105   */\n      0xe0\n        /* \"#utility.yul\":3098:3118   */\n      shl\n        /* \"#utility.yul\":3095:3096   */\n      0x00\n        /* \"#utility.yul\":3088:3119   */\n      mstore\n        /* \"#utility.yul\":3142:3146   */\n      0x21\n        /* \"#utility.yul\":3139:3140   */\n      0x04\n        /* \"#utility.yul\":3132:3147   */\n      mstore\n        /* \"#utility.yul\":3170:3174   */\n      0x24\n        /* \"#utility.yul\":3167:3168   */\n      0x00\n        /* \"#utility.yul\":3160:3175   */\n      revert\n        /* \"#utility.yul\":3042:3185   */\n    tag_539:\n        /* \"#utility.yul\":3194:3212   */\n      swap1\n      mstore\n        /* \"#utility.yul\":2984:3218   */\n      jump\t// out\n        /* \"#utility.yul\":3319:4769   */\n    tag_63:\n        /* \"#utility.yul\":3541:3554   */\n      dup2\n      mload\n      sub(shl(0xa0, 0x01), 0x01)\n        /* \"#utility.yul\":2601:2632   */\n      and\n        /* \"#utility.yul\":2589:2633   */\n      dup2\n      mstore\n        /* \"#utility.yul\":3509:3512   */\n      0x01e0\n        /* \"#utility.yul\":3494:3513   */\n      dup2\n      add\n        /* \"#utility.yul\":3613:3617   */\n      0x20\n        /* \"#utility.yul\":3605:3611   */\n      dup4\n        /* \"#utility.yul\":3601:3618   */\n      add\n        /* \"#utility.yul\":3595:3619   */\n      mload\n        /* \"#utility.yul\":3628:3686   */\n      tag_543\n        /* \"#utility.yul\":3680:3684   */\n      0x20\n        /* \"#utility.yul\":3669:3678   */\n      dup5\n        /* \"#utility.yul\":3665:3685   */\n      add\n        /* \"#utility.yul\":3651:3663   */\n      dup3\n        /* \"#utility.yul\":3628:3686   */\n      tag_510\n      jump\t// in\n    tag_543:\n      pop\n        /* \"#utility.yul\":3742:3746   */\n      0x40\n        /* \"#utility.yul\":3734:3740   */\n      dup4\n        /* \"#utility.yul\":3730:3747   */\n      add\n        /* \"#utility.yul\":3724:3748   */\n      mload\n        /* \"#utility.yul\":3717:3721   */\n      0x40\n        /* \"#utility.yul\":3706:3715   */\n      dup4\n        /* \"#utility.yul\":3702:3722   */\n      add\n        /* \"#utility.yul\":3695:3749   */\n      mstore\n        /* \"#utility.yul\":3805:3809   */\n      0x60\n        /* \"#utility.yul\":3797:3803   */\n      dup4\n        /* \"#utility.yul\":3793:3810   */\n      add\n        /* \"#utility.yul\":3787:3811   */\n      mload\n        /* \"#utility.yul\":3780:3784   */\n      0x60\n        /* \"#utility.yul\":3769:3778   */\n      dup4\n        /* \"#utility.yul\":3765:3785   */\n      add\n        /* \"#utility.yul\":3758:3812   */\n      mstore\n        /* \"#utility.yul\":3868:3872   */\n      0x80\n        /* \"#utility.yul\":3860:3866   */\n      dup4\n        /* \"#utility.yul\":3856:3873   */\n      add\n        /* \"#utility.yul\":3850:3874   */\n      mload\n        /* \"#utility.yul\":3843:3847   */\n      0x80\n        /* \"#utility.yul\":3832:3841   */\n      dup4\n        /* \"#utility.yul\":3828:3848   */\n      add\n        /* \"#utility.yul\":3821:3875   */\n      mstore\n        /* \"#utility.yul\":3931:3935   */\n      0xa0\n        /* \"#utility.yul\":3923:3929   */\n      dup4\n        /* \"#utility.yul\":3919:3936   */\n      add\n        /* \"#utility.yul\":3913:3937   */\n      mload\n        /* \"#utility.yul\":3906:3910   */\n      0xa0\n        /* \"#utility.yul\":3895:3904   */\n      dup4\n        /* \"#utility.yul\":3891:3911   */\n      add\n        /* \"#utility.yul\":3884:3938   */\n      mstore\n        /* \"#utility.yul\":3994:3998   */\n      0xc0\n        /* \"#utility.yul\":3986:3992   */\n      dup4\n        /* \"#utility.yul\":3982:3999   */\n      add\n        /* \"#utility.yul\":3976:4000   */\n      mload\n        /* \"#utility.yul\":3969:3973   */\n      0xc0\n        /* \"#utility.yul\":3958:3967   */\n      dup4\n        /* \"#utility.yul\":3954:3974   */\n      add\n        /* \"#utility.yul\":3947:4001   */\n      mstore\n        /* \"#utility.yul\":4057:4061   */\n      0xe0\n        /* \"#utility.yul\":4049:4055   */\n      dup4\n        /* \"#utility.yul\":4045:4062   */\n      add\n        /* \"#utility.yul\":4039:4063   */\n      mload\n        /* \"#utility.yul\":4032:4036   */\n      0xe0\n        /* \"#utility.yul\":4021:4030   */\n      dup4\n        /* \"#utility.yul\":4017:4037   */\n      add\n        /* \"#utility.yul\":4010:4064   */\n      mstore\n        /* \"#utility.yul\":4083:4089   */\n      0x0100\n        /* \"#utility.yul\":4143:4145   */\n      dup1\n        /* \"#utility.yul\":4135:4141   */\n      dup5\n        /* \"#utility.yul\":4131:4146   */\n      add\n        /* \"#utility.yul\":4125:4147   */\n      mload\n        /* \"#utility.yul\":4120:4122   */\n      dup2\n        /* \"#utility.yul\":4109:4118   */\n      dup5\n        /* \"#utility.yul\":4105:4123   */\n      add\n        /* \"#utility.yul\":4098:4148   */\n      mstore\n      pop\n        /* \"#utility.yul\":4167:4173   */\n      0x0120\n        /* \"#utility.yul\":4227:4229   */\n      dup1\n        /* \"#utility.yul\":4219:4225   */\n      dup5\n        /* \"#utility.yul\":4215:4230   */\n      add\n        /* \"#utility.yul\":4209:4231   */\n      mload\n        /* \"#utility.yul\":4204:4206   */\n      dup2\n        /* \"#utility.yul\":4193:4202   */\n      dup5\n        /* \"#utility.yul\":4189:4207   */\n      add\n        /* \"#utility.yul\":4182:4232   */\n      mstore\n      pop\n        /* \"#utility.yul\":4251:4257   */\n      0x0140\n        /* \"#utility.yul\":4311:4313   */\n      dup1\n        /* \"#utility.yul\":4303:4309   */\n      dup5\n        /* \"#utility.yul\":4299:4314   */\n      add\n        /* \"#utility.yul\":4293:4315   */\n      mload\n        /* \"#utility.yul\":4288:4290   */\n      dup2\n        /* \"#utility.yul\":4277:4286   */\n      dup5\n        /* \"#utility.yul\":4273:4291   */\n      add\n        /* \"#utility.yul\":4266:4316   */\n      mstore\n      pop\n        /* \"#utility.yul\":4335:4341   */\n      0x0160\n        /* \"#utility.yul\":4395:4397   */\n      dup1\n        /* \"#utility.yul\":4387:4393   */\n      dup5\n        /* \"#utility.yul\":4383:4398   */\n      add\n        /* \"#utility.yul\":4377:4399   */\n      mload\n        /* \"#utility.yul\":4372:4374   */\n      dup2\n        /* \"#utility.yul\":4361:4370   */\n      dup5\n        /* \"#utility.yul\":4357:4375   */\n      add\n        /* \"#utility.yul\":4350:4400   */\n      mstore\n      pop\n        /* \"#utility.yul\":4419:4425   */\n      0x0180\n        /* \"#utility.yul\":4474:4476   */\n      dup1\n        /* \"#utility.yul\":4466:4472   */\n      dup5\n        /* \"#utility.yul\":4462:4477   */\n      add\n        /* \"#utility.yul\":4456:4478   */\n      mload\n        /* \"#utility.yul\":4487:4541   */\n      tag_544\n        /* \"#utility.yul\":4537:4539   */\n      dup3\n        /* \"#utility.yul\":4526:4535   */\n      dup6\n        /* \"#utility.yul\":4522:4540   */\n      add\n        /* \"#utility.yul\":4506:4520   */\n      dup3\n      sub(shl(0xa0, 0x01), 0x01)\n        /* \"#utility.yul\":2601:2632   */\n      and\n        /* \"#utility.yul\":2589:2633   */\n      swap1\n      mstore\n        /* \"#utility.yul\":2535:2639   */\n      jump\n        /* \"#utility.yul\":4487:4541   */\n    tag_544:\n      pop\n      pop\n        /* \"#utility.yul\":4560:4566   */\n      0x01a0\n        /* \"#utility.yul\":4608:4623   */\n      dup4\n      dup2\n      add\n        /* \"#utility.yul\":4602:4624   */\n      mload\n        /* \"#utility.yul\":4582:4600   */\n      swap1\n      dup4\n      add\n        /* \"#utility.yul\":4575:4625   */\n      mstore\n        /* \"#utility.yul\":4644:4650   */\n      0x01c0\n        /* \"#utility.yul\":4687:4702   */\n      swap3\n      dup4\n      add\n        /* \"#utility.yul\":4681:4703   */\n      mload\n        /* \"#utility.yul\":3293:3306   */\n      iszero\n        /* \"#utility.yul\":3286:3307   */\n      iszero\n        /* \"#utility.yul\":4744:4762   */\n      swap3\n      swap1\n      swap2\n      add\n        /* \"#utility.yul\":3274:3308   */\n      swap2\n      swap1\n      swap2\n      mstore\n        /* \"#utility.yul\":3319:4769   */\n      swap1\n      jump\t// out\n        /* \"#utility.yul\":4774:5028   */\n    tag_66:\n        /* \"#utility.yul\":4842:4848   */\n      0x00\n        /* \"#utility.yul\":4850:4856   */\n      dup1\n        /* \"#utility.yul\":4903:4905   */\n      0x40\n        /* \"#utility.yul\":4891:4900   */\n      dup4\n        /* \"#utility.yul\":4882:4889   */\n      dup6\n        /* \"#utility.yul\":4878:4901   */\n      sub\n        /* \"#utility.yul\":4874:4906   */\n      slt\n        /* \"#utility.yul\":4871:4923   */\n      iszero\n      tag_547\n      jumpi\n        /* \"#utility.yul\":4919:4920   */\n      0x00\n        /* \"#utility.yul\":4916:4917   */\n      dup1\n        /* \"#utility.yul\":4909:4921   */\n      revert\n        /* \"#utility.yul\":4871:4923   */\n    tag_547:\n        /* \"#utility.yul\":4942:4971   */\n      tag_548\n        /* \"#utility.yul\":4961:4970   */\n      dup4\n        /* \"#utility.yul\":4942:4971   */\n      tag_507\n      jump\t// in\n    tag_548:\n        /* \"#utility.yul\":4932:4971   */\n      swap5\n        /* \"#utility.yul\":5018:5020   */\n      0x20\n        /* \"#utility.yul\":5003:5021   */\n      swap4\n      swap1\n      swap4\n      add\n        /* \"#utility.yul\":4990:5022   */\n      calldataload\n      swap4\n      pop\n      pop\n      pop\n        /* \"#utility.yul\":4774:5028   */\n      jump\t// out\n        /* \"#utility.yul\":5225:5411   */\n    tag_80:\n        /* \"#utility.yul\":5284:5290   */\n      0x00\n        /* \"#utility.yul\":5337:5339   */\n      0x20\n        /* \"#utility.yul\":5325:5334   */\n      dup3\n        /* \"#utility.yul\":5316:5323   */\n      dup5\n        /* \"#utility.yul\":5312:5335   */\n      sub\n        /* \"#utility.yul\":5308:5340   */\n      slt\n        /* \"#utility.yul\":5305:5357   */\n      iszero\n      tag_551\n      jumpi\n        /* \"#utility.yul\":5353:5354   */\n      0x00\n        /* \"#utility.yul\":5350:5351   */\n      dup1\n        /* \"#utility.yul\":5343:5355   */\n      revert\n        /* \"#utility.yul\":5305:5357   */\n    tag_551:\n        /* \"#utility.yul\":5376:5405   */\n      tag_376\n        /* \"#utility.yul\":5395:5404   */\n      dup3\n        /* \"#utility.yul\":5376:5405   */\n      tag_507\n      jump\t// in\n        /* \"#utility.yul\":5416:5731   */\n    tag_94:\n        /* \"#utility.yul\":5481:5487   */\n      0x00\n        /* \"#utility.yul\":5489:5495   */\n      dup1\n        /* \"#utility.yul\":5542:5544   */\n      0x40\n        /* \"#utility.yul\":5530:5539   */\n      dup4\n        /* \"#utility.yul\":5521:5528   */\n      dup6\n        /* \"#utility.yul\":5517:5540   */\n      sub\n        /* \"#utility.yul\":5513:5545   */\n      slt\n        /* \"#utility.yul\":5510:5562   */\n      iszero\n      tag_554\n      jumpi\n        /* \"#utility.yul\":5558:5559   */\n      0x00\n        /* \"#utility.yul\":5555:5556   */\n      dup1\n        /* \"#utility.yul\":5548:5560   */\n      revert\n        /* \"#utility.yul\":5510:5562   */\n    tag_554:\n        /* \"#utility.yul\":5581:5610   */\n      tag_555\n        /* \"#utility.yul\":5600:5609   */\n      dup4\n        /* \"#utility.yul\":5581:5610   */\n      tag_507\n      jump\t// in\n    tag_555:\n        /* \"#utility.yul\":5571:5610   */\n      swap2\n      pop\n        /* \"#utility.yul\":5660:5662   */\n      0x20\n        /* \"#utility.yul\":5649:5658   */\n      dup4\n        /* \"#utility.yul\":5645:5663   */\n      add\n        /* \"#utility.yul\":5632:5664   */\n      calldataload\n        /* \"#utility.yul\":5673:5701   */\n      tag_556\n        /* \"#utility.yul\":5695:5700   */\n      dup2\n        /* \"#utility.yul\":5673:5701   */\n      tag_508\n      jump\t// in\n    tag_556:\n        /* \"#utility.yul\":5720:5725   */\n      dup1\n        /* \"#utility.yul\":5710:5725   */\n      swap2\n      pop\n      pop\n        /* \"#utility.yul\":5416:5731   */\n      swap3\n      pop\n      swap3\n      swap1\n      pop\n      jump\t// out\n        /* \"#utility.yul\":5736:5990   */\n    tag_98:\n        /* \"#utility.yul\":5804:5810   */\n      0x00\n        /* \"#utility.yul\":5812:5818   */\n      dup1\n        /* \"#utility.yul\":5865:5867   */\n      0x40\n        /* \"#utility.yul\":5853:5862   */\n      dup4\n        /* \"#utility.yul\":5844:5851   */\n      dup6\n        /* \"#utility.yul\":5840:5863   */\n      sub\n        /* \"#utility.yul\":5836:5868   */\n      slt\n        /* \"#utility.yul\":5833:5885   */\n      iszero\n      tag_558\n      jumpi\n        /* \"#utility.yul\":5881:5882   */\n      0x00\n        /* \"#utility.yul\":5878:5879   */\n      dup1\n        /* \"#utility.yul\":5871:5883   */\n      revert\n        /* \"#utility.yul\":5833:5885   */\n    tag_558:\n        /* \"#utility.yul\":5917:5926   */\n      dup3\n        /* \"#utility.yul\":5904:5927   */\n      calldataload\n        /* \"#utility.yul\":5894:5927   */\n      swap2\n      pop\n        /* \"#utility.yul\":5946:5984   */\n      tag_559\n        /* \"#utility.yul\":5980:5982   */\n      0x20\n        /* \"#utility.yul\":5969:5978   */\n      dup5\n        /* \"#utility.yul\":5965:5983   */\n      add\n        /* \"#utility.yul\":5946:5984   */\n      tag_507\n      jump\t// in\n    tag_559:\n        /* \"#utility.yul\":5936:5984   */\n      swap1\n      pop\n        /* \"#utility.yul\":5736:5990   */\n      swap3\n      pop\n      swap3\n      swap1\n      pop\n      jump\t// out\n        /* \"#utility.yul\":5995:6236   */\n    tag_109:\n        /* \"#utility.yul\":6051:6057   */\n      0x00\n        /* \"#utility.yul\":6104:6106   */\n      0x20\n        /* \"#utility.yul\":6092:6101   */\n      dup3\n        /* \"#utility.yul\":6083:6090   */\n      dup5\n        /* \"#utility.yul\":6079:6102   */\n      sub\n        /* \"#utility.yul\":6075:6107   */\n      slt\n        /* \"#utility.yul\":6072:6124   */\n      iszero\n      tag_561\n      jumpi\n        /* \"#utility.yul\":6120:6121   */\n      0x00\n        /* \"#utility.yul\":6117:6118   */\n      dup1\n        /* \"#utility.yul\":6110:6122   */\n      revert\n        /* \"#utility.yul\":6072:6124   */\n    tag_561:\n        /* \"#utility.yul\":6159:6168   */\n      dup2\n        /* \"#utility.yul\":6146:6169   */\n      calldataload\n        /* \"#utility.yul\":6178:6206   */\n      tag_376\n        /* \"#utility.yul\":6200:6205   */\n      dup2\n        /* \"#utility.yul\":6178:6206   */\n      tag_508\n      jump\t// in\n        /* \"#utility.yul\":6241:6577   */\n    tag_118:\n        /* \"#utility.yul\":6443:6445   */\n      0x20\n        /* \"#utility.yul\":6425:6446   */\n      dup1\n      dup3\n      mstore\n        /* \"#utility.yul\":6482:6484   */\n      0x0c\n        /* \"#utility.yul\":6462:6480   */\n      swap1\n      dup3\n      add\n        /* \"#utility.yul\":6455:6485   */\n      mstore\n      shl(0xa1, 0x2737ba1037b832b930ba37b9)\n        /* \"#utility.yul\":6516:6518   */\n      0x40\n        /* \"#utility.yul\":6501:6519   */\n      dup3\n      add\n        /* \"#utility.yul\":6494:6536   */\n      mstore\n        /* \"#utility.yul\":6568:6570   */\n      0x60\n        /* \"#utility.yul\":6553:6571   */\n      add\n      swap1\n        /* \"#utility.yul\":6241:6577   */\n      jump\t// out\n        /* \"#utility.yul\":6582:7255   */\n    tag_126:\n        /* \"#utility.yul\":6891:6916   */\n      swap7\n      dup8\n      mstore\n        /* \"#utility.yul\":6947:6949   */\n      0x20\n        /* \"#utility.yul\":6932:6950   */\n      dup8\n      add\n        /* \"#utility.yul\":6925:6959   */\n      swap6\n      swap1\n      swap6\n      mstore\n        /* \"#utility.yul\":6990:6992   */\n      0x40\n        /* \"#utility.yul\":6975:6993   */\n      dup7\n      add\n        /* \"#utility.yul\":6968:7002   */\n      swap4\n      swap1\n      swap4\n      mstore\n        /* \"#utility.yul\":7033:7035   */\n      0x60\n        /* \"#utility.yul\":7018:7036   */\n      dup6\n      add\n        /* \"#utility.yul\":7011:7045   */\n      swap2\n      swap1\n      swap2\n      mstore\n      sub(shl(0xa0, 0x01), 0x01)\n        /* \"#utility.yul\":7120:7135   */\n      swap1\n      dup2\n      and\n        /* \"#utility.yul\":7114:7117   */\n      0x80\n        /* \"#utility.yul\":7099:7118   */\n      dup6\n      add\n        /* \"#utility.yul\":7092:7136   */\n      mstore\n        /* \"#utility.yul\":7173:7188   */\n      and\n        /* \"#utility.yul\":7072:7075   */\n      0xa0\n        /* \"#utility.yul\":7152:7171   */\n      dup4\n      add\n        /* \"#utility.yul\":7145:7189   */\n      mstore\n        /* \"#utility.yul\":7233:7247   */\n      iszero\n        /* \"#utility.yul\":7226:7248   */\n      iszero\n        /* \"#utility.yul\":7220:7223   */\n      0xc0\n        /* \"#utility.yul\":7205:7224   */\n      dup3\n      add\n        /* \"#utility.yul\":7198:7249   */\n      mstore\n        /* \"#utility.yul\":6878:6881   */\n      0xe0\n        /* \"#utility.yul\":6863:6882   */\n      add\n      swap1\n        /* \"#utility.yul\":6582:7255   */\n      jump\t// out\n        /* \"#utility.yul\":7260:7607   */\n    tag_142:\n        /* \"#utility.yul\":7462:7464   */\n      0x20\n        /* \"#utility.yul\":7444:7465   */\n      dup1\n      dup3\n      mstore\n        /* \"#utility.yul\":7501:7503   */\n      0x17\n        /* \"#utility.yul\":7481:7499   */\n      swap1\n      dup3\n      add\n        /* \"#utility.yul\":7474:7504   */\n      mstore\n        /* \"#utility.yul\":7540:7565   */\n      0x526564456e76656c6f7065206973206e6f74206f70656e000000000000000000\n        /* \"#utility.yul\":7535:7537   */\n      0x40\n        /* \"#utility.yul\":7520:7538   */\n      dup3\n      add\n        /* \"#utility.yul\":7513:7566   */\n      mstore\n        /* \"#utility.yul\":7598:7600   */\n      0x60\n        /* \"#utility.yul\":7583:7601   */\n      add\n      swap1\n        /* \"#utility.yul\":7260:7607   */\n      jump\t// out\n        /* \"#utility.yul\":9055:9403   */\n    tag_169:\n        /* \"#utility.yul\":9257:9259   */\n      0x20\n        /* \"#utility.yul\":9239:9260   */\n      dup1\n      dup3\n      mstore\n        /* \"#utility.yul\":9296:9298   */\n      0x18\n        /* \"#utility.yul\":9276:9294   */\n      swap1\n      dup3\n      add\n        /* \"#utility.yul\":9269:9299   */\n      mstore\n        /* \"#utility.yul\":9335:9361   */\n      0x526564456e76656c6f7065206973206f7665722074696d650000000000000000\n        /* \"#utility.yul\":9330:9332   */\n      0x40\n        /* \"#utility.yul\":9315:9333   */\n      dup3\n      add\n        /* \"#utility.yul\":9308:9362   */\n      mstore\n        /* \"#utility.yul\":9394:9396   */\n      0x60\n        /* \"#utility.yul\":9379:9397   */\n      add\n      swap1\n        /* \"#utility.yul\":9055:9403   */\n      jump\t// out\n        /* \"#utility.yul\":9408:9535   */\n    tag_512:\n        /* \"#utility.yul\":9469:9479   */\n      0x4e487b71\n        /* \"#utility.yul\":9464:9467   */\n      0xe0\n        /* \"#utility.yul\":9460:9480   */\n      shl\n        /* \"#utility.yul\":9457:9458   */\n      0x00\n        /* \"#utility.yul\":9450:9481   */\n      mstore\n        /* \"#utility.yul\":9500:9504   */\n      0x11\n        /* \"#utility.yul\":9497:9498   */\n      0x04\n        /* \"#utility.yul\":9490:9505   */\n      mstore\n        /* \"#utility.yul\":9524:9528   */\n      0x24\n        /* \"#utility.yul\":9521:9522   */\n      0x00\n        /* \"#utility.yul\":9514:9529   */\n      revert\n        /* \"#utility.yul\":9540:9665   */\n    tag_172:\n        /* \"#utility.yul\":9605:9614   */\n      dup1\n      dup3\n      add\n        /* \"#utility.yul\":9626:9636   */\n      dup1\n      dup3\n      gt\n        /* \"#utility.yul\":9623:9659   */\n      iszero\n      tag_317\n      jumpi\n        /* \"#utility.yul\":9639:9657   */\n      tag_317\n      tag_512\n      jump\t// in\n        /* \"#utility.yul\":10997:11165   */\n    tag_254:\n        /* \"#utility.yul\":11070:11079   */\n      dup1\n      dup3\n      mul\n        /* \"#utility.yul\":11101:11110   */\n      dup2\n      iszero\n        /* \"#utility.yul\":11118:11133   */\n      dup3\n      dup3\n      div\n        /* \"#utility.yul\":11112:11134   */\n      dup5\n      eq\n        /* \"#utility.yul\":11098:11135   */\n      or\n        /* \"#utility.yul\":11088:11159   */\n      tag_317\n      jumpi\n        /* \"#utility.yul\":11139:11157   */\n      tag_317\n      tag_512\n      jump\t// in\n        /* \"#utility.yul\":12863:12998   */\n    tag_336:\n        /* \"#utility.yul\":12902:12905   */\n      0x00\n        /* \"#utility.yul\":12923:12940   */\n      0x01\n      dup3\n      add\n        /* \"#utility.yul\":12920:12963   */\n      tag_589\n      jumpi\n        /* \"#utility.yul\":12943:12961   */\n      tag_589\n      tag_512\n      jump\t// in\n    tag_589:\n      pop\n        /* \"#utility.yul\":12990:12991   */\n      0x01\n        /* \"#utility.yul\":12979:12992   */\n      add\n      swap1\n        /* \"#utility.yul\":12863:12998   */\n      jump\t// out\n        /* \"#utility.yul\":13003:13131   */\n    tag_343:\n        /* \"#utility.yul\":13070:13079   */\n      dup2\n      dup2\n      sub\n        /* \"#utility.yul\":13091:13102   */\n      dup2\n      dup2\n      gt\n        /* \"#utility.yul\":13088:13125   */\n      iszero\n      tag_317\n      jumpi\n        /* \"#utility.yul\":13105:13123   */\n      tag_317\n      tag_512\n      jump\t// in\n        /* \"#utility.yul\":13136:13263   */\n    tag_379:\n        /* \"#utility.yul\":13197:13207   */\n      0x4e487b71\n        /* \"#utility.yul\":13192:13195   */\n      0xe0\n        /* \"#utility.yul\":13188:13208   */\n      shl\n        /* \"#utility.yul\":13185:13186   */\n      0x00\n        /* \"#utility.yul\":13178:13209   */\n      mstore\n        /* \"#utility.yul\":13228:13232   */\n      0x41\n        /* \"#utility.yul\":13225:13226   */\n      0x04\n        /* \"#utility.yul\":13218:13233   */\n      mstore\n        /* \"#utility.yul\":13252:13256   */\n      0x24\n        /* \"#utility.yul\":13249:13250   */\n      0x00\n        /* \"#utility.yul\":13242:13257   */\n      revert\n        /* \"#utility.yul\":13268:13395   */\n    tag_513:\n        /* \"#utility.yul\":13329:13339   */\n      0x4e487b71\n        /* \"#utility.yul\":13324:13327   */\n      0xe0\n        /* \"#utility.yul\":13320:13340   */\n      shl\n        /* \"#utility.yul\":13317:13318   */\n      0x00\n        /* \"#utility.yul\":13310:13341   */\n      mstore\n        /* \"#utility.yul\":13360:13364   */\n      0x12\n        /* \"#utility.yul\":13357:13358   */\n      0x04\n        /* \"#utility.yul\":13350:13365   */\n      mstore\n        /* \"#utility.yul\":13384:13388   */\n      0x24\n        /* \"#utility.yul\":13381:13382   */\n      0x00\n        /* \"#utility.yul\":13374:13389   */\n      revert\n        /* \"#utility.yul\":13400:13512   */\n    tag_388:\n        /* \"#utility.yul\":13432:13433   */\n      0x00\n        /* \"#utility.yul\":13458:13459   */\n      dup3\n        /* \"#utility.yul\":13448:13483   */\n      tag_597\n      jumpi\n        /* \"#utility.yul\":13463:13481   */\n      tag_597\n      tag_513\n      jump\t// in\n    tag_597:\n      pop\n        /* \"#utility.yul\":13497:13506   */\n      mod\n      swap1\n        /* \"#utility.yul\":13400:13512   */\n      jump\t// out\n        /* \"#utility.yul\":13517:13644   */\n    tag_395:\n        /* \"#utility.yul\":13578:13588   */\n      0x4e487b71\n        /* \"#utility.yul\":13573:13576   */\n      0xe0\n        /* \"#utility.yul\":13569:13589   */\n      shl\n        /* \"#utility.yul\":13566:13567   */\n      0x00\n        /* \"#utility.yul\":13559:13590   */\n      mstore\n        /* \"#utility.yul\":13609:13613   */\n      0x32\n        /* \"#utility.yul\":13606:13607   */\n      0x04\n        /* \"#utility.yul\":13599:13614   */\n      mstore\n        /* \"#utility.yul\":13633:13637   */\n      0x24\n        /* \"#utility.yul\":13630:13631   */\n      0x00\n        /* \"#utility.yul\":13623:13638   */\n      revert\n        /* \"#utility.yul\":13649:13785   */\n    tag_402:\n        /* \"#utility.yul\":13688:13691   */\n      0x00\n        /* \"#utility.yul\":13716:13721   */\n      dup2\n        /* \"#utility.yul\":13706:13745   */\n      tag_601\n      jumpi\n        /* \"#utility.yul\":13725:13743   */\n      tag_601\n      tag_512\n      jump\t// in\n    tag_601:\n      pop\n      not(0x00)\n        /* \"#utility.yul\":13761:13779   */\n      add\n      swap1\n        /* \"#utility.yul\":13649:13785   */\n      jump\t// out\n        /* \"#utility.yul\":15365:15485   */\n    tag_464:\n        /* \"#utility.yul\":15405:15406   */\n      0x00\n        /* \"#utility.yul\":15431:15432   */\n      dup3\n        /* \"#utility.yul\":15421:15456   */\n      tag_609\n      jumpi\n        /* \"#utility.yul\":15436:15454   */\n      tag_609\n      tag_513\n      jump\t// in\n    tag_609:\n      pop\n        /* \"#utility.yul\":15470:15479   */\n      div\n      swap1\n        /* \"#utility.yul\":15365:15485   */\n      jump\t// out\n        /* \"#utility.yul\":15490:15735   */\n    tag_475:\n        /* \"#utility.yul\":15557:15563   */\n      0x00\n        /* \"#utility.yul\":15610:15612   */\n      0x20\n        /* \"#utility.yul\":15598:15607   */\n      dup3\n        /* \"#utility.yul\":15589:15596   */\n      dup5\n        /* \"#utility.yul\":15585:15608   */\n      sub\n        /* \"#utility.yul\":15581:15613   */\n      slt\n        /* \"#utility.yul\":15578:15630   */\n      iszero\n      tag_611\n      jumpi\n        /* \"#utility.yul\":15626:15627   */\n      0x00\n        /* \"#utility.yul\":15623:15624   */\n      dup1\n        /* \"#utility.yul\":15616:15628   */\n      revert\n        /* \"#utility.yul\":15578:15630   */\n    tag_611:\n        /* \"#utility.yul\":15658:15667   */\n      dup2\n        /* \"#utility.yul\":15652:15668   */\n      mload\n        /* \"#utility.yul\":15677:15705   */\n      tag_376\n        /* \"#utility.yul\":15699:15704   */\n      dup2\n        /* \"#utility.yul\":15677:15705   */\n      tag_508\n      jump\t// in\n        /* \"#utility.yul\":15740:15915   */\n    tag_480:\n        /* \"#utility.yul\":15808:15818   */\n      0xffffffff\n        /* \"#utility.yul\":15851:15861   */\n      dup3\n      dup2\n      and\n        /* \"#utility.yul\":15839:15849   */\n      dup3\n      dup3\n      and\n        /* \"#utility.yul\":15835:15862   */\n      sub\n      swap1\n        /* \"#utility.yul\":15874:15886   */\n      dup1\n      dup3\n      gt\n        /* \"#utility.yul\":15871:15909   */\n      iszero\n      tag_615\n      jumpi\n        /* \"#utility.yul\":15889:15907   */\n      tag_615\n      tag_512\n      jump\t// in\n    tag_615:\n        /* \"#utility.yul\":15871:15909   */\n      pop\n        /* \"#utility.yul\":15740:15915   */\n      swap3\n      swap2\n      pop\n      pop\n      jump\t// out\n        /* \"#utility.yul\":15920:16221   */\n    tag_488:\n        /* \"#utility.yul\":16049:16052   */\n      0x00\n        /* \"#utility.yul\":16087:16093   */\n      dup3\n        /* \"#utility.yul\":16081:16094   */\n      mload\n        /* \"#utility.yul\":16133:16139   */\n      dup1\n        /* \"#utility.yul\":16126:16130   */\n      0x20\n        /* \"#utility.yul\":16118:16124   */\n      dup6\n        /* \"#utility.yul\":16114:16131   */\n      add\n        /* \"#utility.yul\":16109:16112   */\n      dup5\n        /* \"#utility.yul\":16103:16140   */\n      mcopy\n        /* \"#utility.yul\":16195:16196   */\n      0x00\n        /* \"#utility.yul\":16159:16175   */\n      swap3\n      add\n        /* \"#utility.yul\":16184:16197   */\n      swap2\n      dup3\n      mstore\n      pop\n        /* \"#utility.yul\":16159:16175   */\n      swap2\n        /* \"#utility.yul\":15920:16221   */\n      swap1\n      pop\n      jump\t// out\n\n    auxdata: 0xa26469706673582212205cc765b1c69ed47328b4ba8463184afaf6221989729a7ac17ddf5548b66f15a964736f6c63430008190033\n}\n",
				"bytecode": {
					"linkReferences": {},
					"object": "608060405234801561000f575f80fd5b506040516127fc3803806127fc83398101604081905261002e916101e4565b60015f55338061005757604051631e4fbdf760e01b81525f600482015260240160405180910390fd5b61006081610178565b506001600160a01b038381165f818152600660209081526040918290208054600160ff1991821681179092556005805490911682179055600280546001600160a01b03191695881695909517909455600485905581519283528201929092527fedae46487653623e513ea3b3341c9e6b457a2ef687d0342d2507ccb63458b19f910160405180910390a160055460405160ff909116151581527f6fe9a4ab2e95e24b2be44989dc36a685149dfde9354d486a8da5cb4bbd01b0109060200160405180910390a1600254600454604080516001600160a01b03909316835260208301919091527fdc907cb17a7da8e1dffad2b7205a6ca1111cbb38a0f1f4b2b60a31eb673ca4a2910160405180910390a150505061021d565b600180546001600160a01b038381166001600160a01b0319831681179093556040519116919082907f8be0079c531659141344cd1fd0a4f28419497f9722a3daafe3b4186f6b6457e0905f90a35050565b80516001600160a01b03811681146101df575f80fd5b919050565b5f805f606084860312156101f6575f80fd5b6101ff846101c9565b925061020d602085016101c9565b9150604084015190509250925092565b6125d28061022a5f395ff3fe608060405234801561000f575f80fd5b5060043610610148575f3560e01c8063959acdaf116100bf578063d982817411610079578063d9828174146102bc578063dc912a81146102cf578063e00dd161146102e2578063f2fde38b146102eb578063f41188ed146102fe578063fe5c597614610311575f80fd5b8063959acdaf14610231578063a210d5e014610244578063bc6bce9114610261578063bce3468d14610283578063c5e7bb3314610296578063d7098154146102a9575f80fd5b8063559f24bc11610110578063559f24bc146101b6578063715018a6146101c95780638da5cb5b146101d15780638f91cd17146101f6578063903606c51461021657806394456fa414610229575f80fd5b80630e9e12621461014c5780633834efe1146101615780633ddb7f19146101745780634a42c8f6146101875780634bfec3aa1461019a575b5f80fd5b61015f61015a36600461208b565b610324565b005b61015f61016f3660046120ba565b6103fa565b61015f6101823660046120ec565b610502565b61015f61019536600461212b565b610788565b6101a360045481565b6040519081526020015b60405180910390f35b61015f6101c43660046121b9565b61087a565b61015f610967565b6001546001600160a01b03165b6040516001600160a01b0390911681526020016101ad565b6102096102043660046120ba565b61097a565b6040516101ad919061220d565b61015f6102243660046122da565b610aeb565b6003546101a3565b6002546101de906001600160a01b031681565b6005546102519060ff1681565b60405190151581526020016101ad565b61025161026f366004612302565b60066020525f908152604090205460ff1681565b61015f6102913660046121b9565b610b7f565b61015f6102a43660046120ec565b610e0f565b61015f6102b73660046120ba565b611076565b61015f6102ca36600461231b565b611163565b6101a36102dd366004612350565b611215565b6101a360035481565b61015f6102f9366004612302565b61123e565b61015f61030c36600461237a565b611278565b6101a361031f3660046120ba565b6112f8565b335f9081526006602052604090205460ff1615156001146103605760405162461bcd60e51b815260040161035790612395565b60405180910390fd5b610368611321565b600254600454600554610390926001600160a01b03169190879087908790879060ff16611349565b6003546004546002546005546040517fd1e3ee1889517a916aeecc9d0b214ca142fce1f8562cd5e9071876b998ec7eea936103e3938a938a938a93926001600160a01b0316915f9160ff909116906123bb565b60405180910390a26103f460015f55565b50505050565b335f9081526006602052604090205460ff16151560011461042d5760405162461bcd60e51b815260040161035790612395565b610435611321565b60015f82815260076020526040902054600160a01b900460ff166003811115610460576104606121d9565b1461047d5760405162461bcd60e51b8152600401610357906123f9565b5f81815260076020908152604091829020805460ff60a01b1916600160a11b17815560048101546005820154600690920154845142815293840191909152828401919091526060820152905182917f8e8517d306c35510333dea682099e81a1454bbf42be03c51d19d593ad811bb70919081900360800190a26104ff60015f55565b50565b61050a611321565b60015f84815260076020526040902054600160a01b900460ff166003811115610535576105356121d9565b146105525760405162461bcd60e51b8152600401610357906123f9565b5f838152600760205260409020600b01546001600160a01b03166105ae5760405162461bcd60e51b81526020600482015260136024820152721b9bc819d95d081d1a58dad95d081b5bd9195b606a1b6044820152606401610357565b5f838152600760205260409020600b01546001600160a01b0316331461060d5760405162461bcd60e51b81526020600482015260146024820152731b9bdd08185b1b1bddc819d95d081d1a58dad95d60621b6044820152606401610357565b805f036106545760405162461bcd60e51b81526020600482015260156024820152747469636b65744e756d62657273206e6f207a65726f60581b6044820152606401610357565b5f8381526007602052604090206001015415610699575f8381526007602052604090206001015442106106995760405162461bcd60e51b815260040161035790612430565b5f8381526007602052604090206002015415610720575f83815260076020526040902060028101546004909101546106d290839061247b565b11156107205760405162461bcd60e51b815260206004820152601a60248201527f526564456e76656c6f7065206973206f766572207469636b65740000000000006044820152606401610357565b61072c8383835f6113cb565b816001600160a01b0316336001600160a01b0316847f0cdb228e331696a3755ff9db076df661228408ca1178178951e48ae952567c1f8460405161077291815260200190565b60405180910390a461078360015f55565b505050565b335f9081526006602052604090205460ff1615156001146107bb5760405162461bcd60e51b815260040161035790612395565b6107c3611321565b6107d28a8a8a8a8a8787611349565b8260075f60035481526020019081526020015f20600b015f6101000a8154816001600160a01b0302191690836001600160a01b031602179055506003547fd1e3ee1889517a916aeecc9d0b214ca142fce1f8562cd5e9071876b998ec7eea8989898d8f898860405161084a97969594939291906123bb565b60405180910390a2831561086557610865600354868661160b565b61086e60015f55565b50505050505050505050565b610882611321565b805f036108c25760405162461bcd60e51b815260206004820152600e60248201526d696e6a656374206e6f207a65726f60901b6044820152606401610357565b60015f83815260076020526040902054600160a01b900460ff1660038111156108ed576108ed6121d9565b1461090a5760405162461bcd60e51b8152600401610357906123f9565b5f828152600760205260409020600101541561094f575f82815260076020526040902060010154421061094f5760405162461bcd60e51b815260040161035790612430565b61095a82338361160b565b61096360015f55565b5050565b61096f611788565b6109785f6117b5565b565b6109f1604080516101e081019091525f808252602082019081526020015f81526020015f81526020015f81526020015f81526020015f81526020015f81526020015f81526020015f81526020015f81526020015f81526020015f6001600160a01b031681526020015f81526020015f151581525090565b5f8281526007602090815260409182902082516101e0810190935280546001600160a01b03811684529091830190600160a01b900460ff166003811115610a3a57610a3a6121d9565b6003811115610a4b57610a4b6121d9565b815260018201546020820152600282015460408201526003820154606082015260048201546080820152600582015460a0820152600682015460c0820152600782015460e082015260088201546101008201526009820154610120820152600a820154610140820152600b8201546001600160a01b0316610160820152600c820154610180820152600d9091015460ff1615156101a09091015292915050565b335f9081526006602052604090205460ff161515600114610b1e5760405162461bcd60e51b815260040161035790612395565b600280546001600160a01b0319166001600160a01b038416908117909155600482905560408051918252602082018390527fdc907cb17a7da8e1dffad2b7205a6ca1111cbb38a0f1f4b2b60a31eb673ca4a291015b60405180910390a15050565b335f9081526006602052604090205460ff161515600114610bb25760405162461bcd60e51b815260040161035790612395565b610bba611321565b60025f83815260076020526040902054600160a01b900460ff166003811115610be557610be56121d9565b14610c2a5760405162461bcd60e51b8152602060048201526015602482015274526564456e76656c6f7065206e6f7420636c6f736560581b6044820152606401610357565b5f82815260076020908152604091829020805460ff60a01b1916600360a01b179055905142815283917f66f6b4cd34444af165fb78bce3996496528b37af161c26f737b7341cc37063bb910160405180910390a25f8281526007602052604081206005810154600490910154610ca0919061247b565b9050805f03610cb857610cb283611806565b5061095a565b5f838152600760205260409020600301548290829081118015610cea57505f8581526007602052604090206003015415155b15610d0257505f848152600760205260409020600301545b5f8581526007602052604081206004810154600690910154610d24919061247b565b5f878152600760205260408120600a015491925090610d4490839061248e565b90505f610d528585846118b1565b9050610d5f888583611a10565b5f888152600760205260409020600d015460ff1615610e00575f5b5f8981526007602081905260409091200154811015610dfe575f898152600c60209081526040808320600b83528184208585528352818420546001600160a01b0316845290915290205415610df6575f898152600b60209081526040808320848452909152902054610df6908a906001600160a01b0316611bd3565b600101610d7a565b505b50505050505061096360015f55565b610e17611321565b60015f84815260076020526040902054600160a01b900460ff166003811115610e4257610e426121d9565b14610e5f5760405162461bcd60e51b8152600401610357906123f9565b5f838152600760205260409020600b01546001600160a01b031615610ebc5760405162461bcd60e51b81526020600482015260136024820152721b9bc8189d5e481d1a58dad95d081b5bd9195b606a1b6044820152606401610357565b805f03610f035760405162461bcd60e51b81526020600482015260156024820152747469636b65744e756d62657273206e6f207a65726f60581b6044820152606401610357565b5f8381526007602052604090206001015415610f48575f838152600760205260409020600101544210610f485760405162461bcd60e51b815260040161035790612430565b5f8381526007602052604090206002015415610fcf575f8381526007602052604090206002810154600490910154610f8190839061247b565b1115610fcf5760405162461bcd60e51b815260206004820152601a60248201527f526564456e76656c6f7065206973206f766572207469636b65740000000000006044820152606401610357565b5f838152600760205260408120600a0154610feb90839061248e565b5f85815260076020526040902054909150611011906001600160a01b0316333084611ce5565b61101e84848460016113cb565b826001600160a01b0316336001600160a01b0316857fc711bfbe9284c7d96adbb9ebad39767e13c00b6b5cd4ca300fec0d969309a4078560405161106491815260200190565b60405180910390a45061078360015f55565b61107e611321565b60035f82815260076020526040902054600160a01b900460ff1660038111156110a9576110a96121d9565b146110f65760405162461bcd60e51b815260206004820152601960248201527f526564456e76656c6f7065206e6f7420636c61696d61626c65000000000000006044820152606401610357565b5f818152600760205260409020600d015460ff16156111505760405162461bcd60e51b8152602060048201526016602482015275526564456e76656c6f7065206175746f20636c61696d60501b6044820152606401610357565b61115a8133611bd3565b6104ff60015f55565b61116b611788565b6001600160a01b0382166111ba5760405162461bcd60e51b815260206004820152601660248201527543616e6e6f74206265207a65726f206164647265737360501b6044820152606401610357565b6001600160a01b0382165f81815260066020908152604091829020805460ff19168515159081179091558251938452908301527fedae46487653623e513ea3b3341c9e6b457a2ef687d0342d2507ccb63458b19f9101610b73565b5f828152600c602090815260408083206001600160a01b03851684529091529020545b92915050565b611246611788565b6001600160a01b03811661126f57604051631e4fbdf760e01b81525f6004820152602401610357565b6104ff816117b5565b335f9081526006602052604090205460ff1615156001146112ab5760405162461bcd60e51b815260040161035790612395565b6005805460ff191682151590811790915560405160ff909116151581527f6fe9a4ab2e95e24b2be44989dc36a685149dfde9354d486a8da5cb4bbd01b0109060200160405180910390a150565b5f81815260076020526040812054600160a01b900460ff166003811115611238576112386121d9565b60025f540361134357604051633ee5aeb560e01b815260040160405180910390fd5b60025f55565b60038054905f611358836124a5565b9091555050600380545f90815260076020526040902080546001600160a01b03999099166001600160a81b031990991698909817600160a01b1788556001880195909555600287019390935592850155600a840192909255600c830155600d909101805460ff1916911515919091179055565b5f848152600760205260408120600801541561141e575f858152600860208181526040808420600790925283209091015490919061140b906001906124bd565b81526020019081526020015f205f015490505b60405180606001604052808483611435919061247b565b81526001600160a01b03808716602080840191909152851580156040948501525f8a8152600880845285822060078552868320909101548252835284902085518155918501516001909201805495909401511515600160a01b026001600160a81b031990951691909216179290921790556114dc575f858152600760205260409020600401546114c690849061247b565b5f8681526007602052604090206004015561150a565b5f858152600760205260409020600501546114f890849061247b565b5f868152600760205260409020600501555b5f858152600a602090815260408083206001600160a01b0388168452909152812054900361158b575f858152600b60209081526040808320600780845282852081018054865291845291842080546001600160a01b0319166001600160a01b038a16179055888452915280546001929061158590849061247b565b90915550505b5f8581526007602052604081206008018054600192906115ac90849061247b565b90915550505f858152600a602090815260408083206001600160a01b03881684529091529020546115de90849061247b565b5f958652600a602090815260408088206001600160a01b0390971688529590529390942092909255505050565b5f838152600760205260408120600a015461162790839061248e565b5f8581526007602052604090205490915061164d906001600160a01b0316843084611ce5565b6003545f908152600760205260408120600601805484929061167090849061247b565b90915550506003545f908152600e602090815260408083206001600160a01b0387168452909152812054900361170757600380545f908152600d602090815260408083206007808452828520600990810154865291845282852080546001600160a01b0319166001600160a01b038b161790559454845293909152812090910180546001929061170190849061247b565b90915550505b6003545f908152600e602090815260408083206001600160a01b03871684529091528120805484929061173b90849061247b565b90915550506003546040518381526001600160a01b03851691907fa95519638524dcea0d5d0102c719d77dc3d8b1ae68d2d1e37c79be21bc7b113b9060200160405180910390a350505050565b6001546001600160a01b031633146109785760405163118cdaa760e01b8152336004820152602401610357565b600180546001600160a01b038381166001600160a01b0319831681179093556040519116919082907f8be0079c531659141344cd1fd0a4f28419497f9722a3daafe3b4186f6b6457e0905f90a35050565b5f5b5f82815260076020526040902060090154811015610963575f828152600e60209081526040808320600d83528184208585528352818420546001600160a01b0316845282528083205485845260079092528220600a0154611869919061248e565b5f848152600d602090815260408083208684528252808320548784526007909252909120549192506118a8916001600160a01b03908116911683611d4c565b50600101611808565b60605f8367ffffffffffffffff8111156118cd576118cd6124d0565b6040519080825280602002602001820160405280156118f6578160200160208202803683370190505b509050845f5b6119076001876124bd565b8110156119dc576119188282611d7d565b91505f61192586846124f8565b9050815b6001811015801561195c5750846119416001836124bd565b815181106119515761195161250b565b602002602001015182105b156119b4578461196d6001836124bd565b8151811061197d5761197d61250b565b60200260200101518582815181106119975761199761250b565b6020908102919091010152806119ac8161251f565b915050611929565b818582815181106119c7576119c761250b565b602090810291909101015250506001016118fc565b5083826119ea6001886124bd565b815181106119fa576119fa61250b565b60209081029190910101525090505b9392505050565b5f83815260076020526040812060058101546004909101548291611a339161247b565b90505f5b84811015611bcb575f83858381518110611a5357611a5361250b565b6020026020010151611a6591906124bd565b905081868414611add5783611a93878581518110611a8557611a8561250b565b602002602001015185611d7d565b611a9d91906124f8565b90505b5f88815260096020908152604080832084845290915290205460ff1615611add5780611acb816124a5565b915050838103611ad857505f5b611aa0565b5f8881526009602090815260408083208484529091528120805460ff19166001179055611b0a8983611dca565b60018101545f8b815260076020908152604091829020600d0154825188815260ff90911615159181019190915292935084926001600160a01b03909216918c917f927546e38b674f5e5dff7edce9c7afdcf21a35ac03ba70fe8e341f61f2c73ded910160405180910390a45f898152600c6020908152604080832060018501546001600160a01b0316845290915281208054859290611baa90849061247b565b90915550611bba9050838761247b565b95505060019092019150611a379050565b505050505050565b5f828152600c602090815260408083206001600160a01b03851684529091528120549003611c2e5760405162461bcd60e51b81526020600482015260086024820152676e6f207072697a6560c01b6044820152606401610357565b5f828152600c602090815260408083206001600160a01b0380861685529083528184205486855260079093529220549091611c6b91168383611d4c565b5f838152600c602090815260408083206001600160a01b0386168085529083528184208490558684526007835292819020600d0154815185815260ff90911615159281019290925285917f268ef67ed0490cc273925a4865e6fbdb4dcf7e0802aad957aa682a78c7618bef910160405180910390a3505050565b6040516001600160a01b0384811660248301528381166044830152606482018390526103f49186918216906323b872dd906084015b604051602081830303815290604052915060e01b6020820180516001600160e01b038381831617835250505050611f04565b6040516001600160a01b0383811660248301526044820183905261078391859182169063a9059cbb90606401611d1a565b5f80611d8b610100846124f8565b905083611d988583611f65565b60408051602081019390935282015260600160408051601f198184030181529190528051602090910120949350505050565b5f82815260086020818152604080842060079092528320909101548391908390611df6906001906124bd565b81526020019081526020015f205f015411611e455760405162461bcd60e51b815260206004820152600f60248201526e696e646578206f75742072616e676560881b6044820152606401610357565b5f838152600760205260408120600801548190611e64906001906124bd565b90505b5f6002611e74838561247b565b611e7e9190612534565b5f878152600860209081526040808320848452909152902054909150851015611ea957809150611ed6565b5f8681526008602090815260408083208484529091529020548510611ed657611ed381600161247b565b92505b818310611efe57505f8581526008602090815260408083209383529290522091506112389050565b50611e67565b5f611f186001600160a01b03841683611f89565b905080515f14158015611f3c575080806020019051810190611f3a9190612547565b155b1561078357604051635274afe760e01b81526001600160a01b0384166004820152602401610357565b5f611f7282610100612562565b63ffffffff92831684901b92169290921c17919050565b6060611a0983835f845f80856001600160a01b03168486604051611fad9190612586565b5f6040518083038185875af1925050503d805f8114611fe7576040519150601f19603f3d011682016040523d82523d5f602084013e611fec565b606091505b5091509150611ffc868383612006565b9695505050505050565b60608261201b5761201682612062565b611a09565b815115801561203257506001600160a01b0384163b155b1561205b57604051639996b31560e01b81526001600160a01b0385166004820152602401610357565b5080611a09565b8051156120725780518082602001fd5b604051630a12f52160e11b815260040160405180910390fd5b5f805f806080858703121561209e575f80fd5b5050823594602084013594506040840135936060013592509050565b5f602082840312156120ca575f80fd5b5035919050565b80356001600160a01b03811681146120e7575f80fd5b919050565b5f805f606084860312156120fe575f80fd5b8335925061210e602085016120d1565b9150604084013590509250925092565b80151581146104ff575f80fd5b5f805f805f805f805f806101408b8d031215612145575f80fd5b61214e8b6120d1565b995060208b0135985060408b0135975060608b0135965060808b0135955061217860a08c016120d1565b945060c08b0135935061218d60e08c016120d1565b92506101008b013591506101208b01356121a68161211e565b809150509295989b9194979a5092959850565b5f80604083850312156121ca575f80fd5b50508035926020909101359150565b634e487b7160e01b5f52602160045260245ffd5b6004811061220957634e487b7160e01b5f52602160045260245ffd5b9052565b81516001600160a01b031681526101e08101602083015161223160208401826121ed565b5060408301516040830152606083015160608301526080830151608083015260a083015160a083015260c083015160c083015260e083015160e0830152610100808401518184015250610120808401518184015250610140808401518184015250610160808401518184015250610180808401516122b9828501826001600160a01b03169052565b50506101a083810151908301526101c0928301511515929091019190915290565b5f80604083850312156122eb575f80fd5b6122f4836120d1565b946020939093013593505050565b5f60208284031215612312575f80fd5b611a09826120d1565b5f806040838503121561232c575f80fd5b612335836120d1565b915060208301356123458161211e565b809150509250929050565b5f8060408385031215612361575f80fd5b82359150612371602084016120d1565b90509250929050565b5f6020828403121561238a575f80fd5b8135611a098161211e565b6020808252600c908201526b2737ba1037b832b930ba37b960a11b604082015260600190565b9687526020870195909552604086019390935260608501919091526001600160a01b0390811660808501521660a0830152151560c082015260e00190565b60208082526017908201527f526564456e76656c6f7065206973206e6f74206f70656e000000000000000000604082015260600190565b60208082526018908201527f526564456e76656c6f7065206973206f7665722074696d650000000000000000604082015260600190565b634e487b7160e01b5f52601160045260245ffd5b8082018082111561123857611238612467565b808202811582820484141761123857611238612467565b5f600182016124b6576124b6612467565b5060010190565b8181038181111561123857611238612467565b634e487b7160e01b5f52604160045260245ffd5b634e487b7160e01b5f52601260045260245ffd5b5f82612506576125066124e4565b500690565b634e487b7160e01b5f52603260045260245ffd5b5f8161252d5761252d612467565b505f190190565b5f82612542576125426124e4565b500490565b5f60208284031215612557575f80fd5b8151611a098161211e565b63ffffffff82811682821603908082111561257f5761257f612467565b5092915050565b5f82518060208501845e5f92019182525091905056fea26469706673582212205cc765b1c69ed47328b4ba8463184afaf6221989729a7ac17ddf5548b66f15a964736f6c63430008190033",
					"opcodes": "PUSH1 0x80 PUSH1 0x40 MSTORE CALLVALUE DUP1 ISZERO PUSH2 0xF JUMPI PUSH0 DUP1 REVERT JUMPDEST POP PUSH1 0x40 MLOAD PUSH2 0x27FC CODESIZE SUB DUP1 PUSH2 0x27FC DUP4 CODECOPY DUP2 ADD PUSH1 0x40 DUP2 SWAP1 MSTORE PUSH2 0x2E SWAP2 PUSH2 0x1E4 JUMP JUMPDEST PUSH1 0x1 PUSH0 SSTORE CALLER DUP1 PUSH2 0x57 JUMPI PUSH1 0x40 MLOAD PUSH4 0x1E4FBDF7 PUSH1 0xE0 SHL DUP2 MSTORE PUSH0 PUSH1 0x4 DUP3 ADD MSTORE PUSH1 0x24 ADD PUSH1 0x40 MLOAD DUP1 SWAP2 SUB SWAP1 REVERT JUMPDEST PUSH2 0x60 DUP2 PUSH2 0x178 JUMP JUMPDEST POP PUSH1 0x1 PUSH1 0x1 PUSH1 0xA0 SHL SUB DUP4 DUP2 AND PUSH0 DUP2 DUP2 MSTORE PUSH1 0x6 PUSH1 0x20 SWAP1 DUP2 MSTORE PUSH1 0x40 SWAP2 DUP3 SWAP1 KECCAK256 DUP1 SLOAD PUSH1 0x1 PUSH1 0xFF NOT SWAP2 DUP3 AND DUP2 OR SWAP1 SWAP3 SSTORE PUSH1 0x5 DUP1 SLOAD SWAP1 SWAP2 AND DUP3 OR SWAP1 SSTORE PUSH1 0x2 DUP1 SLOAD PUSH1 0x1 PUSH1 0x1 PUSH1 0xA0 SHL SUB NOT AND SWAP6 DUP9 AND SWAP6 SWAP1 SWAP6 OR SWAP1 SWAP5 SSTORE PUSH1 0x4 DUP6 SWAP1 SSTORE DUP2 MLOAD SWAP3 DUP4 MSTORE DUP3 ADD SWAP3 SWAP1 SWAP3 MSTORE PUSH32 0xEDAE46487653623E513EA3B3341C9E6B457A2EF687D0342D2507CCB63458B19F SWAP2 ADD PUSH1 0x40 MLOAD DUP1 SWAP2 SUB SWAP1 LOG1 PUSH1 0x5 SLOAD PUSH1 0x40 MLOAD PUSH1 0xFF SWAP1 SWAP2 AND ISZERO ISZERO DUP2 MSTORE PUSH32 0x6FE9A4AB2E95E24B2BE44989DC36A685149DFDE9354D486A8DA5CB4BBD01B010 SWAP1 PUSH1 0x20 ADD PUSH1 0x40 MLOAD DUP1 SWAP2 SUB SWAP1 LOG1 PUSH1 0x2 SLOAD PUSH1 0x4 SLOAD PUSH1 0x40 DUP1 MLOAD PUSH1 0x1 PUSH1 0x1 PUSH1 0xA0 SHL SUB SWAP1 SWAP4 AND DUP4 MSTORE PUSH1 0x20 DUP4 ADD SWAP2 SWAP1 SWAP2 MSTORE PUSH32 0xDC907CB17A7DA8E1DFFAD2B7205A6CA1111CBB38A0F1F4B2B60A31EB673CA4A2 SWAP2 ADD PUSH1 0x40 MLOAD DUP1 SWAP2 SUB SWAP1 LOG1 POP POP POP PUSH2 0x21D JUMP JUMPDEST PUSH1 0x1 DUP1 SLOAD PUSH1 0x1 PUSH1 0x1 PUSH1 0xA0 SHL SUB DUP4 DUP2 AND PUSH1 0x1 PUSH1 0x1 PUSH1 0xA0 SHL SUB NOT DUP4 AND DUP2 OR SWAP1 SWAP4 SSTORE PUSH1 0x40 MLOAD SWAP2 AND SWAP2 SWAP1 DUP3 SWAP1 PUSH32 0x8BE0079C531659141344CD1FD0A4F28419497F9722A3DAAFE3B4186F6B6457E0 SWAP1 PUSH0 SWAP1 LOG3 POP POP JUMP JUMPDEST DUP1 MLOAD PUSH1 0x1 PUSH1 0x1 PUSH1 0xA0 SHL SUB DUP2 AND DUP2 EQ PUSH2 0x1DF JUMPI PUSH0 DUP1 REVERT JUMPDEST SWAP2 SWAP1 POP JUMP JUMPDEST PUSH0 DUP1 PUSH0 PUSH1 0x60 DUP5 DUP7 SUB SLT ISZERO PUSH2 0x1F6 JUMPI PUSH0 DUP1 REVERT JUMPDEST PUSH2 0x1FF DUP5 PUSH2 0x1C9 JUMP JUMPDEST SWAP3 POP PUSH2 0x20D PUSH1 0x20 DUP6 ADD PUSH2 0x1C9 JUMP JUMPDEST SWAP2 POP PUSH1 0x40 DUP5 ADD MLOAD SWAP1 POP SWAP3 POP SWAP3 POP SWAP3 JUMP JUMPDEST PUSH2 0x25D2 DUP1 PUSH2 0x22A PUSH0 CODECOPY PUSH0 RETURN INVALID PUSH1 0x80 PUSH1 0x40 MSTORE CALLVALUE DUP1 ISZERO PUSH2 0xF JUMPI PUSH0 DUP1 REVERT JUMPDEST POP PUSH1 0x4 CALLDATASIZE LT PUSH2 0x148 JUMPI PUSH0 CALLDATALOAD PUSH1 0xE0 SHR DUP1 PUSH4 0x959ACDAF GT PUSH2 0xBF JUMPI DUP1 PUSH4 0xD9828174 GT PUSH2 0x79 JUMPI DUP1 PUSH4 0xD9828174 EQ PUSH2 0x2BC JUMPI DUP1 PUSH4 0xDC912A81 EQ PUSH2 0x2CF JUMPI DUP1 PUSH4 0xE00DD161 EQ PUSH2 0x2E2 JUMPI DUP1 PUSH4 0xF2FDE38B EQ PUSH2 0x2EB JUMPI DUP1 PUSH4 0xF41188ED EQ PUSH2 0x2FE JUMPI DUP1 PUSH4 0xFE5C5976 EQ PUSH2 0x311 JUMPI PUSH0 DUP1 REVERT JUMPDEST DUP1 PUSH4 0x959ACDAF EQ PUSH2 0x231 JUMPI DUP1 PUSH4 0xA210D5E0 EQ PUSH2 0x244 JUMPI DUP1 PUSH4 0xBC6BCE91 EQ PUSH2 0x261 JUMPI DUP1 PUSH4 0xBCE3468D EQ PUSH2 0x283 JUMPI DUP1 PUSH4 0xC5E7BB33 EQ PUSH2 0x296 JUMPI DUP1 PUSH4 0xD7098154 EQ PUSH2 0x2A9 JUMPI PUSH0 DUP1 REVERT JUMPDEST DUP1 PUSH4 0x559F24BC GT PUSH2 0x110 JUMPI DUP1 PUSH4 0x559F24BC EQ PUSH2 0x1B6 JUMPI DUP1 PUSH4 0x715018A6 EQ PUSH2 0x1C9 JUMPI DUP1 PUSH4 0x8DA5CB5B EQ PUSH2 0x1D1 JUMPI DUP1 PUSH4 0x8F91CD17 EQ PUSH2 0x1F6 JUMPI DUP1 PUSH4 0x903606C5 EQ PUSH2 0x216 JUMPI DUP1 PUSH4 0x94456FA4 EQ PUSH2 0x229 JUMPI PUSH0 DUP1 REVERT JUMPDEST DUP1 PUSH4 0xE9E1262 EQ PUSH2 0x14C JUMPI DUP1 PUSH4 0x3834EFE1 EQ PUSH2 0x161 JUMPI DUP1 PUSH4 0x3DDB7F19 EQ PUSH2 0x174 JUMPI DUP1 PUSH4 0x4A42C8F6 EQ PUSH2 0x187 JUMPI DUP1 PUSH4 0x4BFEC3AA EQ PUSH2 0x19A JUMPI JUMPDEST PUSH0 DUP1 REVERT JUMPDEST PUSH2 0x15F PUSH2 0x15A CALLDATASIZE PUSH1 0x4 PUSH2 0x208B JUMP JUMPDEST PUSH2 0x324 JUMP JUMPDEST STOP JUMPDEST PUSH2 0x15F PUSH2 0x16F CALLDATASIZE PUSH1 0x4 PUSH2 0x20BA JUMP JUMPDEST PUSH2 0x3FA JUMP JUMPDEST PUSH2 0x15F PUSH2 0x182 CALLDATASIZE PUSH1 0x4 PUSH2 0x20EC JUMP JUMPDEST PUSH2 0x502 JUMP JUMPDEST PUSH2 0x15F PUSH2 0x195 CALLDATASIZE PUSH1 0x4 PUSH2 0x212B JUMP JUMPDEST PUSH2 0x788 JUMP JUMPDEST PUSH2 0x1A3 PUSH1 0x4 SLOAD DUP2 JUMP JUMPDEST PUSH1 0x40 MLOAD SWAP1 DUP2 MSTORE PUSH1 0x20 ADD JUMPDEST PUSH1 0x40 MLOAD DUP1 SWAP2 SUB SWAP1 RETURN JUMPDEST PUSH2 0x15F PUSH2 0x1C4 CALLDATASIZE PUSH1 0x4 PUSH2 0x21B9 JUMP JUMPDEST PUSH2 0x87A JUMP JUMPDEST PUSH2 0x15F PUSH2 0x967 JUMP JUMPDEST PUSH1 0x1 SLOAD PUSH1 0x1 PUSH1 0x1 PUSH1 0xA0 SHL SUB AND JUMPDEST PUSH1 0x40 MLOAD PUSH1 0x1 PUSH1 0x1 PUSH1 0xA0 SHL SUB SWAP1 SWAP2 AND DUP2 MSTORE PUSH1 0x20 ADD PUSH2 0x1AD JUMP JUMPDEST PUSH2 0x209 PUSH2 0x204 CALLDATASIZE PUSH1 0x4 PUSH2 0x20BA JUMP JUMPDEST PUSH2 0x97A JUMP JUMPDEST PUSH1 0x40 MLOAD PUSH2 0x1AD SWAP2 SWAP1 PUSH2 0x220D JUMP JUMPDEST PUSH2 0x15F PUSH2 0x224 CALLDATASIZE PUSH1 0x4 PUSH2 0x22DA JUMP JUMPDEST PUSH2 0xAEB JUMP JUMPDEST PUSH1 0x3 SLOAD PUSH2 0x1A3 JUMP JUMPDEST PUSH1 0x2 SLOAD PUSH2 0x1DE SWAP1 PUSH1 0x1 PUSH1 0x1 PUSH1 0xA0 SHL SUB AND DUP2 JUMP JUMPDEST PUSH1 0x5 SLOAD PUSH2 0x251 SWAP1 PUSH1 0xFF AND DUP2 JUMP JUMPDEST PUSH1 0x40 MLOAD SWAP1 ISZERO ISZERO DUP2 MSTORE PUSH1 0x20 ADD PUSH2 0x1AD JUMP JUMPDEST PUSH2 0x251 PUSH2 0x26F CALLDATASIZE PUSH1 0x4 PUSH2 0x2302 JUMP JUMPDEST PUSH1 0x6 PUSH1 0x20 MSTORE PUSH0 SWAP1 DUP2 MSTORE PUSH1 0x40 SWAP1 KECCAK256 SLOAD PUSH1 0xFF AND DUP2 JUMP JUMPDEST PUSH2 0x15F PUSH2 0x291 CALLDATASIZE PUSH1 0x4 PUSH2 0x21B9 JUMP JUMPDEST PUSH2 0xB7F JUMP JUMPDEST PUSH2 0x15F PUSH2 0x2A4 CALLDATASIZE PUSH1 0x4 PUSH2 0x20EC JUMP JUMPDEST PUSH2 0xE0F JUMP JUMPDEST PUSH2 0x15F PUSH2 0x2B7 CALLDATASIZE PUSH1 0x4 PUSH2 0x20BA JUMP JUMPDEST PUSH2 0x1076 JUMP JUMPDEST PUSH2 0x15F PUSH2 0x2CA CALLDATASIZE PUSH1 0x4 PUSH2 0x231B JUMP JUMPDEST PUSH2 0x1163 JUMP JUMPDEST PUSH2 0x1A3 PUSH2 0x2DD CALLDATASIZE PUSH1 0x4 PUSH2 0x2350 JUMP JUMPDEST PUSH2 0x1215 JUMP JUMPDEST PUSH2 0x1A3 PUSH1 0x3 SLOAD DUP2 JUMP JUMPDEST PUSH2 0x15F PUSH2 0x2F9 CALLDATASIZE PUSH1 0x4 PUSH2 0x2302 JUMP JUMPDEST PUSH2 0x123E JUMP JUMPDEST PUSH2 0x15F PUSH2 0x30C CALLDATASIZE PUSH1 0x4 PUSH2 0x237A JUMP JUMPDEST PUSH2 0x1278 JUMP JUMPDEST PUSH2 0x1A3 PUSH2 0x31F CALLDATASIZE PUSH1 0x4 PUSH2 0x20BA JUMP JUMPDEST PUSH2 0x12F8 JUMP JUMPDEST CALLER PUSH0 SWAP1 DUP2 MSTORE PUSH1 0x6 PUSH1 0x20 MSTORE PUSH1 0x40 SWAP1 KECCAK256 SLOAD PUSH1 0xFF AND ISZERO ISZERO PUSH1 0x1 EQ PUSH2 0x360 JUMPI PUSH1 0x40 MLOAD PUSH3 0x461BCD PUSH1 0xE5 SHL DUP2 MSTORE PUSH1 0x4 ADD PUSH2 0x357 SWAP1 PUSH2 0x2395 JUMP JUMPDEST PUSH1 0x40 MLOAD DUP1 SWAP2 SUB SWAP1 REVERT JUMPDEST PUSH2 0x368 PUSH2 0x1321 JUMP JUMPDEST PUSH1 0x2 SLOAD PUSH1 0x4 SLOAD PUSH1 0x5 SLOAD PUSH2 0x390 SWAP3 PUSH1 0x1 PUSH1 0x1 PUSH1 0xA0 SHL SUB AND SWAP2 SWAP1 DUP8 SWAP1 DUP8 SWAP1 DUP8 SWAP1 DUP8 SWAP1 PUSH1 0xFF AND PUSH2 0x1349 JUMP JUMPDEST PUSH1 0x3 SLOAD PUSH1 0x4 SLOAD PUSH1 0x2 SLOAD PUSH1 0x5 SLOAD PUSH1 0x40 MLOAD PUSH32 0xD1E3EE1889517A916AEECC9D0B214CA142FCE1F8562CD5E9071876B998EC7EEA SWAP4 PUSH2 0x3E3 SWAP4 DUP11 SWAP4 DUP11 SWAP4 DUP11 SWAP4 SWAP3 PUSH1 0x1 PUSH1 0x1 PUSH1 0xA0 SHL SUB AND SWAP2 PUSH0 SWAP2 PUSH1 0xFF SWAP1 SWAP2 AND SWAP1 PUSH2 0x23BB JUMP JUMPDEST PUSH1 0x40 MLOAD DUP1 SWAP2 SUB SWAP1 LOG2 PUSH2 0x3F4 PUSH1 0x1 PUSH0 SSTORE JUMP JUMPDEST POP POP POP POP JUMP JUMPDEST CALLER PUSH0 SWAP1 DUP2 MSTORE PUSH1 0x6 PUSH1 0x20 MSTORE PUSH1 0x40 SWAP1 KECCAK256 SLOAD PUSH1 0xFF AND ISZERO ISZERO PUSH1 0x1 EQ PUSH2 0x42D JUMPI PUSH1 0x40 MLOAD PUSH3 0x461BCD PUSH1 0xE5 SHL DUP2 MSTORE PUSH1 0x4 ADD PUSH2 0x357 SWAP1 PUSH2 0x2395 JUMP JUMPDEST PUSH2 0x435 PUSH2 0x1321 JUMP JUMPDEST PUSH1 0x1 PUSH0 DUP3 DUP2 MSTORE PUSH1 0x7 PUSH1 0x20 MSTORE PUSH1 0x40 SWAP1 KECCAK256 SLOAD PUSH1 0x1 PUSH1 0xA0 SHL SWAP1 DIV PUSH1 0xFF AND PUSH1 0x3 DUP2 GT ISZERO PUSH2 0x460 JUMPI PUSH2 0x460 PUSH2 0x21D9 JUMP JUMPDEST EQ PUSH2 0x47D JUMPI PUSH1 0x40 MLOAD PUSH3 0x461BCD PUSH1 0xE5 SHL DUP2 MSTORE PUSH1 0x4 ADD PUSH2 0x357 SWAP1 PUSH2 0x23F9 JUMP JUMPDEST PUSH0 DUP2 DUP2 MSTORE PUSH1 0x7 PUSH1 0x20 SWAP1 DUP2 MSTORE PUSH1 0x40 SWAP2 DUP3 SWAP1 KECCAK256 DUP1 SLOAD PUSH1 0xFF PUSH1 0xA0 SHL NOT AND PUSH1 0x1 PUSH1 0xA1 SHL OR DUP2 SSTORE PUSH1 0x4 DUP2 ADD SLOAD PUSH1 0x5 DUP3 ADD SLOAD PUSH1 0x6 SWAP1 SWAP3 ADD SLOAD DUP5 MLOAD TIMESTAMP DUP2 MSTORE SWAP4 DUP5 ADD SWAP2 SWAP1 SWAP2 MSTORE DUP3 DUP5 ADD SWAP2 SWAP1 SWAP2 MSTORE PUSH1 0x60 DUP3 ADD MSTORE SWAP1 MLOAD DUP3 SWAP2 PUSH32 0x8E8517D306C35510333DEA682099E81A1454BBF42BE03C51D19D593AD811BB70 SWAP2 SWAP1 DUP2 SWAP1 SUB PUSH1 0x80 ADD SWAP1 LOG2 PUSH2 0x4FF PUSH1 0x1 PUSH0 SSTORE JUMP JUMPDEST POP JUMP JUMPDEST PUSH2 0x50A PUSH2 0x1321 JUMP JUMPDEST PUSH1 0x1 PUSH0 DUP5 DUP2 MSTORE PUSH1 0x7 PUSH1 0x20 MSTORE PUSH1 0x40 SWAP1 KECCAK256 SLOAD PUSH1 0x1 PUSH1 0xA0 SHL SWAP1 DIV PUSH1 0xFF AND PUSH1 0x3 DUP2 GT ISZERO PUSH2 0x535 JUMPI PUSH2 0x535 PUSH2 0x21D9 JUMP JUMPDEST EQ PUSH2 0x552 JUMPI PUSH1 0x40 MLOAD PUSH3 0x461BCD PUSH1 0xE5 SHL DUP2 MSTORE PUSH1 0x4 ADD PUSH2 0x357 SWAP1 PUSH2 0x23F9 JUMP JUMPDEST PUSH0 DUP4 DUP2 MSTORE PUSH1 0x7 PUSH1 0x20 MSTORE PUSH1 0x40 SWAP1 KECCAK256 PUSH1 0xB ADD SLOAD PUSH1 0x1 PUSH1 0x1 PUSH1 0xA0 SHL SUB AND PUSH2 0x5AE JUMPI PUSH1 0x40 MLOAD PUSH3 0x461BCD PUSH1 0xE5 SHL DUP2 MSTORE PUSH1 0x20 PUSH1 0x4 DUP3 ADD MSTORE PUSH1 0x13 PUSH1 0x24 DUP3 ADD MSTORE PUSH19 0x1B9BC819D95D081D1A58DAD95D081B5BD9195B PUSH1 0x6A SHL PUSH1 0x44 DUP3 ADD MSTORE PUSH1 0x64 ADD PUSH2 0x357 JUMP JUMPDEST PUSH0 DUP4 DUP2 MSTORE PUSH1 0x7 PUSH1 0x20 MSTORE PUSH1 0x40 SWAP1 KECCAK256 PUSH1 0xB ADD SLOAD PUSH1 0x1 PUSH1 0x1 PUSH1 0xA0 SHL SUB AND CALLER EQ PUSH2 0x60D JUMPI PUSH1 0x40 MLOAD PUSH3 0x461BCD PUSH1 0xE5 SHL DUP2 MSTORE PUSH1 0x20 PUSH1 0x4 DUP3 ADD MSTORE PUSH1 0x14 PUSH1 0x24 DUP3 ADD MSTORE PUSH20 0x1B9BDD08185B1B1BDDC819D95D081D1A58DAD95D PUSH1 0x62 SHL PUSH1 0x44 DUP3 ADD MSTORE PUSH1 0x64 ADD PUSH2 0x357 JUMP JUMPDEST DUP1 PUSH0 SUB PUSH2 0x654 JUMPI PUSH1 0x40 MLOAD PUSH3 0x461BCD PUSH1 0xE5 SHL DUP2 MSTORE PUSH1 0x20 PUSH1 0x4 DUP3 ADD MSTORE PUSH1 0x15 PUSH1 0x24 DUP3 ADD MSTORE PUSH21 0x7469636B65744E756D62657273206E6F207A65726F PUSH1 0x58 SHL PUSH1 0x44 DUP3 ADD MSTORE PUSH1 0x64 ADD PUSH2 0x357 JUMP JUMPDEST PUSH0 DUP4 DUP2 MSTORE PUSH1 0x7 PUSH1 0x20 MSTORE PUSH1 0x40 SWAP1 KECCAK256 PUSH1 0x1 ADD SLOAD ISZERO PUSH2 0x699 JUMPI PUSH0 DUP4 DUP2 MSTORE PUSH1 0x7 PUSH1 0x20 MSTORE PUSH1 0x40 SWAP1 KECCAK256 PUSH1 0x1 ADD SLOAD TIMESTAMP LT PUSH2 0x699 JUMPI PUSH1 0x40 MLOAD PUSH3 0x461BCD PUSH1 0xE5 SHL DUP2 MSTORE PUSH1 0x4 ADD PUSH2 0x357 SWAP1 PUSH2 0x2430 JUMP JUMPDEST PUSH0 DUP4 DUP2 MSTORE PUSH1 0x7 PUSH1 0x20 MSTORE PUSH1 0x40 SWAP1 KECCAK256 PUSH1 0x2 ADD SLOAD ISZERO PUSH2 0x720 JUMPI PUSH0 DUP4 DUP2 MSTORE PUSH1 0x7 PUSH1 0x20 MSTORE PUSH1 0x40 SWAP1 KECCAK256 PUSH1 0x2 DUP2 ADD SLOAD PUSH1 0x4 SWAP1 SWAP2 ADD SLOAD PUSH2 0x6D2 SWAP1 DUP4 SWAP1 PUSH2 0x247B JUMP JUMPDEST GT ISZERO PUSH2 0x720 JUMPI PUSH1 0x40 MLOAD PUSH3 0x461BCD PUSH1 0xE5 SHL DUP2 MSTORE PUSH1 0x20 PUSH1 0x4 DUP3 ADD MSTORE PUSH1 0x1A PUSH1 0x24 DUP3 ADD MSTORE PUSH32 0x526564456E76656C6F7065206973206F766572207469636B6574000000000000 PUSH1 0x44 DUP3 ADD MSTORE PUSH1 0x64 ADD PUSH2 0x357 JUMP JUMPDEST PUSH2 0x72C DUP4 DUP4 DUP4 PUSH0 PUSH2 0x13CB JUMP JUMPDEST DUP2 PUSH1 0x1 PUSH1 0x1 PUSH1 0xA0 SHL SUB AND CALLER PUSH1 0x1 PUSH1 0x1 PUSH1 0xA0 SHL SUB AND DUP5 PUSH32 0xCDB228E331696A3755FF9DB076DF661228408CA1178178951E48AE952567C1F DUP5 PUSH1 0x40 MLOAD PUSH2 0x772 SWAP2 DUP2 MSTORE PUSH1 0x20 ADD SWAP1 JUMP JUMPDEST PUSH1 0x40 MLOAD DUP1 SWAP2 SUB SWAP1 LOG4 PUSH2 0x783 PUSH1 0x1 PUSH0 SSTORE JUMP JUMPDEST POP POP POP JUMP JUMPDEST CALLER PUSH0 SWAP1 DUP2 MSTORE PUSH1 0x6 PUSH1 0x20 MSTORE PUSH1 0x40 SWAP1 KECCAK256 SLOAD PUSH1 0xFF AND ISZERO ISZERO PUSH1 0x1 EQ PUSH2 0x7BB JUMPI PUSH1 0x40 MLOAD PUSH3 0x461BCD PUSH1 0xE5 SHL DUP2 MSTORE PUSH1 0x4 ADD PUSH2 0x357 SWAP1 PUSH2 0x2395 JUMP JUMPDEST PUSH2 0x7C3 PUSH2 0x1321 JUMP JUMPDEST PUSH2 0x7D2 DUP11 DUP11 DUP11 DUP11 DUP11 DUP8 DUP8 PUSH2 0x1349 JUMP JUMPDEST DUP3 PUSH1 0x7 PUSH0 PUSH1 0x3 SLOAD DUP2 MSTORE PUSH1 0x20 ADD SWAP1 DUP2 MSTORE PUSH1 0x20 ADD PUSH0 KECCAK256 PUSH1 0xB ADD PUSH0 PUSH2 0x100 EXP DUP2 SLOAD DUP2 PUSH1 0x1 PUSH1 0x1 PUSH1 0xA0 SHL SUB MUL NOT AND SWAP1 DUP4 PUSH1 0x1 PUSH1 0x1 PUSH1 0xA0 SHL SUB AND MUL OR SWAP1 SSTORE POP PUSH1 0x3 SLOAD PUSH32 0xD1E3EE1889517A916AEECC9D0B214CA142FCE1F8562CD5E9071876B998EC7EEA DUP10 DUP10 DUP10 DUP14 DUP16 DUP10 DUP9 PUSH1 0x40 MLOAD PUSH2 0x84A SWAP8 SWAP7 SWAP6 SWAP5 SWAP4 SWAP3 SWAP2 SWAP1 PUSH2 0x23BB JUMP JUMPDEST PUSH1 0x40 MLOAD DUP1 SWAP2 SUB SWAP1 LOG2 DUP4 ISZERO PUSH2 0x865 JUMPI PUSH2 0x865 PUSH1 0x3 SLOAD DUP7 DUP7 PUSH2 0x160B JUMP JUMPDEST PUSH2 0x86E PUSH1 0x1 PUSH0 SSTORE JUMP JUMPDEST POP POP POP POP POP POP POP POP POP POP JUMP JUMPDEST PUSH2 0x882 PUSH2 0x1321 JUMP JUMPDEST DUP1 PUSH0 SUB PUSH2 0x8C2 JUMPI PUSH1 0x40 MLOAD PUSH3 0x461BCD PUSH1 0xE5 SHL DUP2 MSTORE PUSH1 0x20 PUSH1 0x4 DUP3 ADD MSTORE PUSH1 0xE PUSH1 0x24 DUP3 ADD MSTORE PUSH14 0x696E6A656374206E6F207A65726F PUSH1 0x90 SHL PUSH1 0x44 DUP3 ADD MSTORE PUSH1 0x64 ADD PUSH2 0x357 JUMP JUMPDEST PUSH1 0x1 PUSH0 DUP4 DUP2 MSTORE PUSH1 0x7 PUSH1 0x20 MSTORE PUSH1 0x40 SWAP1 KECCAK256 SLOAD PUSH1 0x1 PUSH1 0xA0 SHL SWAP1 DIV PUSH1 0xFF AND PUSH1 0x3 DUP2 GT ISZERO PUSH2 0x8ED JUMPI PUSH2 0x8ED PUSH2 0x21D9 JUMP JUMPDEST EQ PUSH2 0x90A JUMPI PUSH1 0x40 MLOAD PUSH3 0x461BCD PUSH1 0xE5 SHL DUP2 MSTORE PUSH1 0x4 ADD PUSH2 0x357 SWAP1 PUSH2 0x23F9 JUMP JUMPDEST PUSH0 DUP3 DUP2 MSTORE PUSH1 0x7 PUSH1 0x20 MSTORE PUSH1 0x40 SWAP1 KECCAK256 PUSH1 0x1 ADD SLOAD ISZERO PUSH2 0x94F JUMPI PUSH0 DUP3 DUP2 MSTORE PUSH1 0x7 PUSH1 0x20 MSTORE PUSH1 0x40 SWAP1 KECCAK256 PUSH1 0x1 ADD SLOAD TIMESTAMP LT PUSH2 0x94F JUMPI PUSH1 0x40 MLOAD PUSH3 0x461BCD PUSH1 0xE5 SHL DUP2 MSTORE PUSH1 0x4 ADD PUSH2 0x357 SWAP1 PUSH2 0x2430 JUMP JUMPDEST PUSH2 0x95A DUP3 CALLER DUP4 PUSH2 0x160B JUMP JUMPDEST PUSH2 0x963 PUSH1 0x1 PUSH0 SSTORE JUMP JUMPDEST POP POP JUMP JUMPDEST PUSH2 0x96F PUSH2 0x1788 JUMP JUMPDEST PUSH2 0x978 PUSH0 PUSH2 0x17B5 JUMP JUMPDEST JUMP JUMPDEST PUSH2 0x9F1 PUSH1 0x40 DUP1 MLOAD PUSH2 0x1E0 DUP2 ADD SWAP1 SWAP2 MSTORE PUSH0 DUP1 DUP3 MSTORE PUSH1 0x20 DUP3 ADD SWAP1 DUP2 MSTORE PUSH1 0x20 ADD PUSH0 DUP2 MSTORE PUSH1 0x20 ADD PUSH0 DUP2 MSTORE PUSH1 0x20 ADD PUSH0 DUP2 MSTORE PUSH1 0x20 ADD PUSH0 DUP2 MSTORE PUSH1 0x20 ADD PUSH0 DUP2 MSTORE PUSH1 0x20 ADD PUSH0 DUP2 MSTORE PUSH1 0x20 ADD PUSH0 DUP2 MSTORE PUSH1 0x20 ADD PUSH0 DUP2 MSTORE PUSH1 0x20 ADD PUSH0 DUP2 MSTORE PUSH1 0x20 ADD PUSH0 DUP2 MSTORE PUSH1 0x20 ADD PUSH0 PUSH1 0x1 PUSH1 0x1 PUSH1 0xA0 SHL SUB AND DUP2 MSTORE PUSH1 0x20 ADD PUSH0 DUP2 MSTORE PUSH1 0x20 ADD PUSH0 ISZERO ISZERO DUP2 MSTORE POP SWAP1 JUMP JUMPDEST PUSH0 DUP3 DUP2 MSTORE PUSH1 0x7 PUSH1 0x20 SWAP1 DUP2 MSTORE PUSH1 0x40 SWAP2 DUP3 SWAP1 KECCAK256 DUP3 MLOAD PUSH2 0x1E0 DUP2 ADD SWAP1 SWAP4 MSTORE DUP1 SLOAD PUSH1 0x1 PUSH1 0x1 PUSH1 0xA0 SHL SUB DUP2 AND DUP5 MSTORE SWAP1 SWAP2 DUP4 ADD SWAP1 PUSH1 0x1 PUSH1 0xA0 SHL SWAP1 DIV PUSH1 0xFF AND PUSH1 0x3 DUP2 GT ISZERO PUSH2 0xA3A JUMPI PUSH2 0xA3A PUSH2 0x21D9 JUMP JUMPDEST PUSH1 0x3 DUP2 GT ISZERO PUSH2 0xA4B JUMPI PUSH2 0xA4B PUSH2 0x21D9 JUMP JUMPDEST DUP2 MSTORE PUSH1 0x1 DUP3 ADD SLOAD PUSH1 0x20 DUP3 ADD MSTORE PUSH1 0x2 DUP3 ADD SLOAD PUSH1 0x40 DUP3 ADD MSTORE PUSH1 0x3 DUP3 ADD SLOAD PUSH1 0x60 DUP3 ADD MSTORE PUSH1 0x4 DUP3 ADD SLOAD PUSH1 0x80 DUP3 ADD MSTORE PUSH1 0x5 DUP3 ADD SLOAD PUSH1 0xA0 DUP3 ADD MSTORE PUSH1 0x6 DUP3 ADD SLOAD PUSH1 0xC0 DUP3 ADD MSTORE PUSH1 0x7 DUP3 ADD SLOAD PUSH1 0xE0 DUP3 ADD MSTORE PUSH1 0x8 DUP3 ADD SLOAD PUSH2 0x100 DUP3 ADD MSTORE PUSH1 0x9 DUP3 ADD SLOAD PUSH2 0x120 DUP3 ADD MSTORE PUSH1 0xA DUP3 ADD SLOAD PUSH2 0x140 DUP3 ADD MSTORE PUSH1 0xB DUP3 ADD SLOAD PUSH1 0x1 PUSH1 0x1 PUSH1 0xA0 SHL SUB AND PUSH2 0x160 DUP3 ADD MSTORE PUSH1 0xC DUP3 ADD SLOAD PUSH2 0x180 DUP3 ADD MSTORE PUSH1 0xD SWAP1 SWAP2 ADD SLOAD PUSH1 0xFF AND ISZERO ISZERO PUSH2 0x1A0 SWAP1 SWAP2 ADD MSTORE SWAP3 SWAP2 POP POP JUMP JUMPDEST CALLER PUSH0 SWAP1 DUP2 MSTORE PUSH1 0x6 PUSH1 0x20 MSTORE PUSH1 0x40 SWAP1 KECCAK256 SLOAD PUSH1 0xFF AND ISZERO ISZERO PUSH1 0x1 EQ PUSH2 0xB1E JUMPI PUSH1 0x40 MLOAD PUSH3 0x461BCD PUSH1 0xE5 SHL DUP2 MSTORE PUSH1 0x4 ADD PUSH2 0x357 SWAP1 PUSH2 0x2395 JUMP JUMPDEST PUSH1 0x2 DUP1 SLOAD PUSH1 0x1 PUSH1 0x1 PUSH1 0xA0 SHL SUB NOT AND PUSH1 0x1 PUSH1 0x1 PUSH1 0xA0 SHL SUB DUP5 AND SWAP1 DUP2 OR SWAP1 SWAP2 SSTORE PUSH1 0x4 DUP3 SWAP1 SSTORE PUSH1 0x40 DUP1 MLOAD SWAP2 DUP3 MSTORE PUSH1 0x20 DUP3 ADD DUP4 SWAP1 MSTORE PUSH32 0xDC907CB17A7DA8E1DFFAD2B7205A6CA1111CBB38A0F1F4B2B60A31EB673CA4A2 SWAP2 ADD JUMPDEST PUSH1 0x40 MLOAD DUP1 SWAP2 SUB SWAP1 LOG1 POP POP JUMP JUMPDEST CALLER PUSH0 SWAP1 DUP2 MSTORE PUSH1 0x6 PUSH1 0x20 MSTORE PUSH1 0x40 SWAP1 KECCAK256 SLOAD PUSH1 0xFF AND ISZERO ISZERO PUSH1 0x1 EQ PUSH2 0xBB2 JUMPI PUSH1 0x40 MLOAD PUSH3 0x461BCD PUSH1 0xE5 SHL DUP2 MSTORE PUSH1 0x4 ADD PUSH2 0x357 SWAP1 PUSH2 0x2395 JUMP JUMPDEST PUSH2 0xBBA PUSH2 0x1321 JUMP JUMPDEST PUSH1 0x2 PUSH0 DUP4 DUP2 MSTORE PUSH1 0x7 PUSH1 0x20 MSTORE PUSH1 0x40 SWAP1 KECCAK256 SLOAD PUSH1 0x1 PUSH1 0xA0 SHL SWAP1 DIV PUSH1 0xFF AND PUSH1 0x3 DUP2 GT ISZERO PUSH2 0xBE5 JUMPI PUSH2 0xBE5 PUSH2 0x21D9 JUMP JUMPDEST EQ PUSH2 0xC2A JUMPI PUSH1 0x40 MLOAD PUSH3 0x461BCD PUSH1 0xE5 SHL DUP2 MSTORE PUSH1 0x20 PUSH1 0x4 DUP3 ADD MSTORE PUSH1 0x15 PUSH1 0x24 DUP3 ADD MSTORE PUSH21 0x526564456E76656C6F7065206E6F7420636C6F7365 PUSH1 0x58 SHL PUSH1 0x44 DUP3 ADD MSTORE PUSH1 0x64 ADD PUSH2 0x357 JUMP JUMPDEST PUSH0 DUP3 DUP2 MSTORE PUSH1 0x7 PUSH1 0x20 SWAP1 DUP2 MSTORE PUSH1 0x40 SWAP2 DUP3 SWAP1 KECCAK256 DUP1 SLOAD PUSH1 0xFF PUSH1 0xA0 SHL NOT AND PUSH1 0x3 PUSH1 0xA0 SHL OR SWAP1 SSTORE SWAP1 MLOAD TIMESTAMP DUP2 MSTORE DUP4 SWAP2 PUSH32 0x66F6B4CD34444AF165FB78BCE3996496528B37AF161C26F737B7341CC37063BB SWAP2 ADD PUSH1 0x40 MLOAD DUP1 SWAP2 SUB SWAP1 LOG2 PUSH0 DUP3 DUP2 MSTORE PUSH1 0x7 PUSH1 0x20 MSTORE PUSH1 0x40 DUP2 KECCAK256 PUSH1 0x5 DUP2 ADD SLOAD PUSH1 0x4 SWAP1 SWAP2 ADD SLOAD PUSH2 0xCA0 SWAP2 SWAP1 PUSH2 0x247B JUMP JUMPDEST SWAP1 POP DUP1 PUSH0 SUB PUSH2 0xCB8 JUMPI PUSH2 0xCB2 DUP4 PUSH2 0x1806 JUMP JUMPDEST POP PUSH2 0x95A JUMP JUMPDEST PUSH0 DUP4 DUP2 MSTORE PUSH1 0x7 PUSH1 0x20 MSTORE PUSH1 0x40 SWAP1 KECCAK256 PUSH1 0x3 ADD SLOAD DUP3 SWAP1 DUP3 SWAP1 DUP2 GT DUP1 ISZERO PUSH2 0xCEA JUMPI POP PUSH0 DUP6 DUP2 MSTORE PUSH1 0x7 PUSH1 0x20 MSTORE PUSH1 0x40 SWAP1 KECCAK256 PUSH1 0x3 ADD SLOAD ISZERO ISZERO JUMPDEST ISZERO PUSH2 0xD02 JUMPI POP PUSH0 DUP5 DUP2 MSTORE PUSH1 0x7 PUSH1 0x20 MSTORE PUSH1 0x40 SWAP1 KECCAK256 PUSH1 0x3 ADD SLOAD JUMPDEST PUSH0 DUP6 DUP2 MSTORE PUSH1 0x7 PUSH1 0x20 MSTORE PUSH1 0x40 DUP2 KECCAK256 PUSH1 0x4 DUP2 ADD SLOAD PUSH1 0x6 SWAP1 SWAP2 ADD SLOAD PUSH2 0xD24 SWAP2 SWAP1 PUSH2 0x247B JUMP JUMPDEST PUSH0 DUP8 DUP2 MSTORE PUSH1 0x7 PUSH1 0x20 MSTORE PUSH1 0x40 DUP2 KECCAK256 PUSH1 0xA ADD SLOAD SWAP2 SWAP3 POP SWAP1 PUSH2 0xD44 SWAP1 DUP4 SWAP1 PUSH2 0x248E JUMP JUMPDEST SWAP1 POP PUSH0 PUSH2 0xD52 DUP6 DUP6 DUP5 PUSH2 0x18B1 JUMP JUMPDEST SWAP1 POP PUSH2 0xD5F DUP9 DUP6 DUP4 PUSH2 0x1A10 JUMP JUMPDEST PUSH0 DUP9 DUP2 MSTORE PUSH1 0x7 PUSH1 0x20 MSTORE PUSH1 0x40 SWAP1 KECCAK256 PUSH1 0xD ADD SLOAD PUSH1 0xFF AND ISZERO PUSH2 0xE00 JUMPI PUSH0 JUMPDEST PUSH0 DUP10 DUP2 MSTORE PUSH1 0x7 PUSH1 0x20 DUP2 SWAP1 MSTORE PUSH1 0x40 SWAP1 SWAP2 KECCAK256 ADD SLOAD DUP2 LT ISZERO PUSH2 0xDFE JUMPI PUSH0 DUP10 DUP2 MSTORE PUSH1 0xC PUSH1 0x20 SWAP1 DUP2 MSTORE PUSH1 0x40 DUP1 DUP4 KECCAK256 PUSH1 0xB DUP4 MSTORE DUP2 DUP5 KECCAK256 DUP6 DUP6 MSTORE DUP4 MSTORE DUP2 DUP5 KECCAK256 SLOAD PUSH1 0x1 PUSH1 0x1 PUSH1 0xA0 SHL SUB AND DUP5 MSTORE SWAP1 SWAP2 MSTORE SWAP1 KECCAK256 SLOAD ISZERO PUSH2 0xDF6 JUMPI PUSH0 DUP10 DUP2 MSTORE PUSH1 0xB PUSH1 0x20 SWAP1 DUP2 MSTORE PUSH1 0x40 DUP1 DUP4 KECCAK256 DUP5 DUP5 MSTORE SWAP1 SWAP2 MSTORE SWAP1 KECCAK256 SLOAD PUSH2 0xDF6 SWAP1 DUP11 SWAP1 PUSH1 0x1 PUSH1 0x1 PUSH1 0xA0 SHL SUB AND PUSH2 0x1BD3 JUMP JUMPDEST PUSH1 0x1 ADD PUSH2 0xD7A JUMP JUMPDEST POP JUMPDEST POP POP POP POP POP POP PUSH2 0x963 PUSH1 0x1 PUSH0 SSTORE JUMP JUMPDEST PUSH2 0xE17 PUSH2 0x1321 JUMP JUMPDEST PUSH1 0x1 PUSH0 DUP5 DUP2 MSTORE PUSH1 0x7 PUSH1 0x20 MSTORE PUSH1 0x40 SWAP1 KECCAK256 SLOAD PUSH1 0x1 PUSH1 0xA0 SHL SWAP1 DIV PUSH1 0xFF AND PUSH1 0x3 DUP2 GT ISZERO PUSH2 0xE42 JUMPI PUSH2 0xE42 PUSH2 0x21D9 JUMP JUMPDEST EQ PUSH2 0xE5F JUMPI PUSH1 0x40 MLOAD PUSH3 0x461BCD PUSH1 0xE5 SHL DUP2 MSTORE PUSH1 0x4 ADD PUSH2 0x357 SWAP1 PUSH2 0x23F9 JUMP JUMPDEST PUSH0 DUP4 DUP2 MSTORE PUSH1 0x7 PUSH1 0x20 MSTORE PUSH1 0x40 SWAP1 KECCAK256 PUSH1 0xB ADD SLOAD PUSH1 0x1 PUSH1 0x1 PUSH1 0xA0 SHL SUB AND ISZERO PUSH2 0xEBC JUMPI PUSH1 0x40 MLOAD PUSH3 0x461BCD PUSH1 0xE5 SHL DUP2 MSTORE PUSH1 0x20 PUSH1 0x4 DUP3 ADD MSTORE PUSH1 0x13 PUSH1 0x24 DUP3 ADD MSTORE PUSH19 0x1B9BC8189D5E481D1A58DAD95D081B5BD9195B PUSH1 0x6A SHL PUSH1 0x44 DUP3 ADD MSTORE PUSH1 0x64 ADD PUSH2 0x357 JUMP JUMPDEST DUP1 PUSH0 SUB PUSH2 0xF03 JUMPI PUSH1 0x40 MLOAD PUSH3 0x461BCD PUSH1 0xE5 SHL DUP2 MSTORE PUSH1 0x20 PUSH1 0x4 DUP3 ADD MSTORE PUSH1 0x15 PUSH1 0x24 DUP3 ADD MSTORE PUSH21 0x7469636B65744E756D62657273206E6F207A65726F PUSH1 0x58 SHL PUSH1 0x44 DUP3 ADD MSTORE PUSH1 0x64 ADD PUSH2 0x357 JUMP JUMPDEST PUSH0 DUP4 DUP2 MSTORE PUSH1 0x7 PUSH1 0x20 MSTORE PUSH1 0x40 SWAP1 KECCAK256 PUSH1 0x1 ADD SLOAD ISZERO PUSH2 0xF48 JUMPI PUSH0 DUP4 DUP2 MSTORE PUSH1 0x7 PUSH1 0x20 MSTORE PUSH1 0x40 SWAP1 KECCAK256 PUSH1 0x1 ADD SLOAD TIMESTAMP LT PUSH2 0xF48 JUMPI PUSH1 0x40 MLOAD PUSH3 0x461BCD PUSH1 0xE5 SHL DUP2 MSTORE PUSH1 0x4 ADD PUSH2 0x357 SWAP1 PUSH2 0x2430 JUMP JUMPDEST PUSH0 DUP4 DUP2 MSTORE PUSH1 0x7 PUSH1 0x20 MSTORE PUSH1 0x40 SWAP1 KECCAK256 PUSH1 0x2 ADD SLOAD ISZERO PUSH2 0xFCF JUMPI PUSH0 DUP4 DUP2 MSTORE PUSH1 0x7 PUSH1 0x20 MSTORE PUSH1 0x40 SWAP1 KECCAK256 PUSH1 0x2 DUP2 ADD SLOAD PUSH1 0x4 SWAP1 SWAP2 ADD SLOAD PUSH2 0xF81 SWAP1 DUP4 SWAP1 PUSH2 0x247B JUMP JUMPDEST GT ISZERO PUSH2 0xFCF JUMPI PUSH1 0x40 MLOAD PUSH3 0x461BCD PUSH1 0xE5 SHL DUP2 MSTORE PUSH1 0x20 PUSH1 0x4 DUP3 ADD MSTORE PUSH1 0x1A PUSH1 0x24 DUP3 ADD MSTORE PUSH32 0x526564456E76656C6F7065206973206F766572207469636B6574000000000000 PUSH1 0x44 DUP3 ADD MSTORE PUSH1 0x64 ADD PUSH2 0x357 JUMP JUMPDEST PUSH0 DUP4 DUP2 MSTORE PUSH1 0x7 PUSH1 0x20 MSTORE PUSH1 0x40 DUP2 KECCAK256 PUSH1 0xA ADD SLOAD PUSH2 0xFEB SWAP1 DUP4 SWAP1 PUSH2 0x248E JUMP JUMPDEST PUSH0 DUP6 DUP2 MSTORE PUSH1 0x7 PUSH1 0x20 MSTORE PUSH1 0x40 SWAP1 KECCAK256 SLOAD SWAP1 SWAP2 POP PUSH2 0x1011 SWAP1 PUSH1 0x1 PUSH1 0x1 PUSH1 0xA0 SHL SUB AND CALLER ADDRESS DUP5 PUSH2 0x1CE5 JUMP JUMPDEST PUSH2 0x101E DUP5 DUP5 DUP5 PUSH1 0x1 PUSH2 0x13CB JUMP JUMPDEST DUP3 PUSH1 0x1 PUSH1 0x1 PUSH1 0xA0 SHL SUB AND CALLER PUSH1 0x1 PUSH1 0x1 PUSH1 0xA0 SHL SUB AND DUP6 PUSH32 0xC711BFBE9284C7D96ADBB9EBAD39767E13C00B6B5CD4CA300FEC0D969309A407 DUP6 PUSH1 0x40 MLOAD PUSH2 0x1064 SWAP2 DUP2 MSTORE PUSH1 0x20 ADD SWAP1 JUMP JUMPDEST PUSH1 0x40 MLOAD DUP1 SWAP2 SUB SWAP1 LOG4 POP PUSH2 0x783 PUSH1 0x1 PUSH0 SSTORE JUMP JUMPDEST PUSH2 0x107E PUSH2 0x1321 JUMP JUMPDEST PUSH1 0x3 PUSH0 DUP3 DUP2 MSTORE PUSH1 0x7 PUSH1 0x20 MSTORE PUSH1 0x40 SWAP1 KECCAK256 SLOAD PUSH1 0x1 PUSH1 0xA0 SHL SWAP1 DIV PUSH1 0xFF AND PUSH1 0x3 DUP2 GT ISZERO PUSH2 0x10A9 JUMPI PUSH2 0x10A9 PUSH2 0x21D9 JUMP JUMPDEST EQ PUSH2 0x10F6 JUMPI PUSH1 0x40 MLOAD PUSH3 0x461BCD PUSH1 0xE5 SHL DUP2 MSTORE PUSH1 0x20 PUSH1 0x4 DUP3 ADD MSTORE PUSH1 0x19 PUSH1 0x24 DUP3 ADD MSTORE PUSH32 0x526564456E76656C6F7065206E6F7420636C61696D61626C6500000000000000 PUSH1 0x44 DUP3 ADD MSTORE PUSH1 0x64 ADD PUSH2 0x357 JUMP JUMPDEST PUSH0 DUP2 DUP2 MSTORE PUSH1 0x7 PUSH1 0x20 MSTORE PUSH1 0x40 SWAP1 KECCAK256 PUSH1 0xD ADD SLOAD PUSH1 0xFF AND ISZERO PUSH2 0x1150 JUMPI PUSH1 0x40 MLOAD PUSH3 0x461BCD PUSH1 0xE5 SHL DUP2 MSTORE PUSH1 0x20 PUSH1 0x4 DUP3 ADD MSTORE PUSH1 0x16 PUSH1 0x24 DUP3 ADD MSTORE PUSH22 0x526564456E76656C6F7065206175746F20636C61696D PUSH1 0x50 SHL PUSH1 0x44 DUP3 ADD MSTORE PUSH1 0x64 ADD PUSH2 0x357 JUMP JUMPDEST PUSH2 0x115A DUP2 CALLER PUSH2 0x1BD3 JUMP JUMPDEST PUSH2 0x4FF PUSH1 0x1 PUSH0 SSTORE JUMP JUMPDEST PUSH2 0x116B PUSH2 0x1788 JUMP JUMPDEST PUSH1 0x1 PUSH1 0x1 PUSH1 0xA0 SHL SUB DUP3 AND PUSH2 0x11BA JUMPI PUSH1 0x40 MLOAD PUSH3 0x461BCD PUSH1 0xE5 SHL DUP2 MSTORE PUSH1 0x20 PUSH1 0x4 DUP3 ADD MSTORE PUSH1 0x16 PUSH1 0x24 DUP3 ADD MSTORE PUSH22 0x43616E6E6F74206265207A65726F2061646472657373 PUSH1 0x50 SHL PUSH1 0x44 DUP3 ADD MSTORE PUSH1 0x64 ADD PUSH2 0x357 JUMP JUMPDEST PUSH1 0x1 PUSH1 0x1 PUSH1 0xA0 SHL SUB DUP3 AND PUSH0 DUP2 DUP2 MSTORE PUSH1 0x6 PUSH1 0x20 SWAP1 DUP2 MSTORE PUSH1 0x40 SWAP2 DUP3 SWAP1 KECCAK256 DUP1 SLOAD PUSH1 0xFF NOT AND DUP6 ISZERO ISZERO SWAP1 DUP2 OR SWAP1 SWAP2 SSTORE DUP3 MLOAD SWAP4 DUP5 MSTORE SWAP1 DUP4 ADD MSTORE PUSH32 0xEDAE46487653623E513EA3B3341C9E6B457A2EF687D0342D2507CCB63458B19F SWAP2 ADD PUSH2 0xB73 JUMP JUMPDEST PUSH0 DUP3 DUP2 MSTORE PUSH1 0xC PUSH1 0x20 SWAP1 DUP2 MSTORE PUSH1 0x40 DUP1 DUP4 KECCAK256 PUSH1 0x1 PUSH1 0x1 PUSH1 0xA0 SHL SUB DUP6 AND DUP5 MSTORE SWAP1 SWAP2 MSTORE SWAP1 KECCAK256 SLOAD JUMPDEST SWAP3 SWAP2 POP POP JUMP JUMPDEST PUSH2 0x1246 PUSH2 0x1788 JUMP JUMPDEST PUSH1 0x1 PUSH1 0x1 PUSH1 0xA0 SHL SUB DUP2 AND PUSH2 0x126F JUMPI PUSH1 0x40 MLOAD PUSH4 0x1E4FBDF7 PUSH1 0xE0 SHL DUP2 MSTORE PUSH0 PUSH1 0x4 DUP3 ADD MSTORE PUSH1 0x24 ADD PUSH2 0x357 JUMP JUMPDEST PUSH2 0x4FF DUP2 PUSH2 0x17B5 JUMP JUMPDEST CALLER PUSH0 SWAP1 DUP2 MSTORE PUSH1 0x6 PUSH1 0x20 MSTORE PUSH1 0x40 SWAP1 KECCAK256 SLOAD PUSH1 0xFF AND ISZERO ISZERO PUSH1 0x1 EQ PUSH2 0x12AB JUMPI PUSH1 0x40 MLOAD PUSH3 0x461BCD PUSH1 0xE5 SHL DUP2 MSTORE PUSH1 0x4 ADD PUSH2 0x357 SWAP1 PUSH2 0x2395 JUMP JUMPDEST PUSH1 0x5 DUP1 SLOAD PUSH1 0xFF NOT AND DUP3 ISZERO ISZERO SWAP1 DUP2 OR SWAP1 SWAP2 SSTORE PUSH1 0x40 MLOAD PUSH1 0xFF SWAP1 SWAP2 AND ISZERO ISZERO DUP2 MSTORE PUSH32 0x6FE9A4AB2E95E24B2BE44989DC36A685149DFDE9354D486A8DA5CB4BBD01B010 SWAP1 PUSH1 0x20 ADD PUSH1 0x40 MLOAD DUP1 SWAP2 SUB SWAP1 LOG1 POP JUMP JUMPDEST PUSH0 DUP2 DUP2 MSTORE PUSH1 0x7 PUSH1 0x20 MSTORE PUSH1 0x40 DUP2 KECCAK256 SLOAD PUSH1 0x1 PUSH1 0xA0 SHL SWAP1 DIV PUSH1 0xFF AND PUSH1 0x3 DUP2 GT ISZERO PUSH2 0x1238 JUMPI PUSH2 0x1238 PUSH2 0x21D9 JUMP JUMPDEST PUSH1 0x2 PUSH0 SLOAD SUB PUSH2 0x1343 JUMPI PUSH1 0x40 MLOAD PUSH4 0x3EE5AEB5 PUSH1 0xE0 SHL DUP2 MSTORE PUSH1 0x4 ADD PUSH1 0x40 MLOAD DUP1 SWAP2 SUB SWAP1 REVERT JUMPDEST PUSH1 0x2 PUSH0 SSTORE JUMP JUMPDEST PUSH1 0x3 DUP1 SLOAD SWAP1 PUSH0 PUSH2 0x1358 DUP4 PUSH2 0x24A5 JUMP JUMPDEST SWAP1 SWAP2 SSTORE POP POP PUSH1 0x3 DUP1 SLOAD PUSH0 SWAP1 DUP2 MSTORE PUSH1 0x7 PUSH1 0x20 MSTORE PUSH1 0x40 SWAP1 KECCAK256 DUP1 SLOAD PUSH1 0x1 PUSH1 0x1 PUSH1 0xA0 SHL SUB SWAP10 SWAP1 SWAP10 AND PUSH1 0x1 PUSH1 0x1 PUSH1 0xA8 SHL SUB NOT SWAP1 SWAP10 AND SWAP9 SWAP1 SWAP9 OR PUSH1 0x1 PUSH1 0xA0 SHL OR DUP9 SSTORE PUSH1 0x1 DUP9 ADD SWAP6 SWAP1 SWAP6 SSTORE PUSH1 0x2 DUP8 ADD SWAP4 SWAP1 SWAP4 SSTORE SWAP3 DUP6 ADD SSTORE PUSH1 0xA DUP5 ADD SWAP3 SWAP1 SWAP3 SSTORE PUSH1 0xC DUP4 ADD SSTORE PUSH1 0xD SWAP1 SWAP2 ADD DUP1 SLOAD PUSH1 0xFF NOT AND SWAP2 ISZERO ISZERO SWAP2 SWAP1 SWAP2 OR SWAP1 SSTORE JUMP JUMPDEST PUSH0 DUP5 DUP2 MSTORE PUSH1 0x7 PUSH1 0x20 MSTORE PUSH1 0x40 DUP2 KECCAK256 PUSH1 0x8 ADD SLOAD ISZERO PUSH2 0x141E JUMPI PUSH0 DUP6 DUP2 MSTORE PUSH1 0x8 PUSH1 0x20 DUP2 DUP2 MSTORE PUSH1 0x40 DUP1 DUP5 KECCAK256 PUSH1 0x7 SWAP1 SWAP3 MSTORE DUP4 KECCAK256 SWAP1 SWAP2 ADD SLOAD SWAP1 SWAP2 SWAP1 PUSH2 0x140B SWAP1 PUSH1 0x1 SWAP1 PUSH2 0x24BD JUMP JUMPDEST DUP2 MSTORE PUSH1 0x20 ADD SWAP1 DUP2 MSTORE PUSH1 0x20 ADD PUSH0 KECCAK256 PUSH0 ADD SLOAD SWAP1 POP JUMPDEST PUSH1 0x40 MLOAD DUP1 PUSH1 0x60 ADD PUSH1 0x40 MSTORE DUP1 DUP5 DUP4 PUSH2 0x1435 SWAP2 SWAP1 PUSH2 0x247B JUMP JUMPDEST DUP2 MSTORE PUSH1 0x1 PUSH1 0x1 PUSH1 0xA0 SHL SUB DUP1 DUP8 AND PUSH1 0x20 DUP1 DUP5 ADD SWAP2 SWAP1 SWAP2 MSTORE DUP6 ISZERO DUP1 ISZERO PUSH1 0x40 SWAP5 DUP6 ADD MSTORE PUSH0 DUP11 DUP2 MSTORE PUSH1 0x8 DUP1 DUP5 MSTORE DUP6 DUP3 KECCAK256 PUSH1 0x7 DUP6 MSTORE DUP7 DUP4 KECCAK256 SWAP1 SWAP2 ADD SLOAD DUP3 MSTORE DUP4 MSTORE DUP5 SWAP1 KECCAK256 DUP6 MLOAD DUP2 SSTORE SWAP2 DUP6 ADD MLOAD PUSH1 0x1 SWAP1 SWAP3 ADD DUP1 SLOAD SWAP6 SWAP1 SWAP5 ADD MLOAD ISZERO ISZERO PUSH1 0x1 PUSH1 0xA0 SHL MUL PUSH1 0x1 PUSH1 0x1 PUSH1 0xA8 SHL SUB NOT SWAP1 SWAP6 AND SWAP2 SWAP1 SWAP3 AND OR SWAP3 SWAP1 SWAP3 OR SWAP1 SSTORE PUSH2 0x14DC JUMPI PUSH0 DUP6 DUP2 MSTORE PUSH1 0x7 PUSH1 0x20 MSTORE PUSH1 0x40 SWAP1 KECCAK256 PUSH1 0x4 ADD SLOAD PUSH2 0x14C6 SWAP1 DUP5 SWAP1 PUSH2 0x247B JUMP JUMPDEST PUSH0 DUP7 DUP2 MSTORE PUSH1 0x7 PUSH1 0x20 MSTORE PUSH1 0x40 SWAP1 KECCAK256 PUSH1 0x4 ADD SSTORE PUSH2 0x150A JUMP JUMPDEST PUSH0 DUP6 DUP2 MSTORE PUSH1 0x7 PUSH1 0x20 MSTORE PUSH1 0x40 SWAP1 KECCAK256 PUSH1 0x5 ADD SLOAD PUSH2 0x14F8 SWAP1 DUP5 SWAP1 PUSH2 0x247B JUMP JUMPDEST PUSH0 DUP7 DUP2 MSTORE PUSH1 0x7 PUSH1 0x20 MSTORE PUSH1 0x40 SWAP1 KECCAK256 PUSH1 0x5 ADD SSTORE JUMPDEST PUSH0 DUP6 DUP2 MSTORE PUSH1 0xA PUSH1 0x20 SWAP1 DUP2 MSTORE PUSH1 0x40 DUP1 DUP4 KECCAK256 PUSH1 0x1 PUSH1 0x1 PUSH1 0xA0 SHL SUB DUP9 AND DUP5 MSTORE SWAP1 SWAP2 MSTORE DUP2 KECCAK256 SLOAD SWAP1 SUB PUSH2 0x158B JUMPI PUSH0 DUP6 DUP2 MSTORE PUSH1 0xB PUSH1 0x20 SWAP1 DUP2 MSTORE PUSH1 0x40 DUP1 DUP4 KECCAK256 PUSH1 0x7 DUP1 DUP5 MSTORE DUP3 DUP6 KECCAK256 DUP2 ADD DUP1 SLOAD DUP7 MSTORE SWAP2 DUP5 MSTORE SWAP2 DUP5 KECCAK256 DUP1 SLOAD PUSH1 0x1 PUSH1 0x1 PUSH1 0xA0 SHL SUB NOT AND PUSH1 0x1 PUSH1 0x1 PUSH1 0xA0 SHL SUB DUP11 AND OR SWAP1 SSTORE DUP9 DUP5 MSTORE SWAP2 MSTORE DUP1 SLOAD PUSH1 0x1 SWAP3 SWAP1 PUSH2 0x1585 SWAP1 DUP5 SWAP1 PUSH2 0x247B JUMP JUMPDEST SWAP1 SWAP2 SSTORE POP POP JUMPDEST PUSH0 DUP6 DUP2 MSTORE PUSH1 0x7 PUSH1 0x20 MSTORE PUSH1 0x40 DUP2 KECCAK256 PUSH1 0x8 ADD DUP1 SLOAD PUSH1 0x1 SWAP3 SWAP1 PUSH2 0x15AC SWAP1 DUP5 SWAP1 PUSH2 0x247B JUMP JUMPDEST SWAP1 SWAP2 SSTORE POP POP PUSH0 DUP6 DUP2 MSTORE PUSH1 0xA PUSH1 0x20 SWAP1 DUP2 MSTORE PUSH1 0x40 DUP1 DUP4 KECCAK256 PUSH1 0x1 PUSH1 0x1 PUSH1 0xA0 SHL SUB DUP9 AND DUP5 MSTORE SWAP1 SWAP2 MSTORE SWAP1 KECCAK256 SLOAD PUSH2 0x15DE SWAP1 DUP5 SWAP1 PUSH2 0x247B JUMP JUMPDEST PUSH0 SWAP6 DUP7 MSTORE PUSH1 0xA PUSH1 0x20 SWAP1 DUP2 MSTORE PUSH1 0x40 DUP1 DUP9 KECCAK256 PUSH1 0x1 PUSH1 0x1 PUSH1 0xA0 SHL SUB SWAP1 SWAP8 AND DUP9 MSTORE SWAP6 SWAP1 MSTORE SWAP4 SWAP1 SWAP5 KECCAK256 SWAP3 SWAP1 SWAP3 SSTORE POP POP POP JUMP JUMPDEST PUSH0 DUP4 DUP2 MSTORE PUSH1 0x7 PUSH1 0x20 MSTORE PUSH1 0x40 DUP2 KECCAK256 PUSH1 0xA ADD SLOAD PUSH2 0x1627 SWAP1 DUP4 SWAP1 PUSH2 0x248E JUMP JUMPDEST PUSH0 DUP6 DUP2 MSTORE PUSH1 0x7 PUSH1 0x20 MSTORE PUSH1 0x40 SWAP1 KECCAK256 SLOAD SWAP1 SWAP2 POP PUSH2 0x164D SWAP1 PUSH1 0x1 PUSH1 0x1 PUSH1 0xA0 SHL SUB AND DUP5 ADDRESS DUP5 PUSH2 0x1CE5 JUMP JUMPDEST PUSH1 0x3 SLOAD PUSH0 SWAP1 DUP2 MSTORE PUSH1 0x7 PUSH1 0x20 MSTORE PUSH1 0x40 DUP2 KECCAK256 PUSH1 0x6 ADD DUP1 SLOAD DUP5 SWAP3 SWAP1 PUSH2 0x1670 SWAP1 DUP5 SWAP1 PUSH2 0x247B JUMP JUMPDEST SWAP1 SWAP2 SSTORE POP POP PUSH1 0x3 SLOAD PUSH0 SWAP1 DUP2 MSTORE PUSH1 0xE PUSH1 0x20 SWAP1 DUP2 MSTORE PUSH1 0x40 DUP1 DUP4 KECCAK256 PUSH1 0x1 PUSH1 0x1 PUSH1 0xA0 SHL SUB DUP8 AND DUP5 MSTORE SWAP1 SWAP2 MSTORE DUP2 KECCAK256 SLOAD SWAP1 SUB PUSH2 0x1707 JUMPI PUSH1 0x3 DUP1 SLOAD PUSH0 SWAP1 DUP2 MSTORE PUSH1 0xD PUSH1 0x20 SWAP1 DUP2 MSTORE PUSH1 0x40 DUP1 DUP4 KECCAK256 PUSH1 0x7 DUP1 DUP5 MSTORE DUP3 DUP6 KECCAK256 PUSH1 0x9 SWAP1 DUP2 ADD SLOAD DUP7 MSTORE SWAP2 DUP5 MSTORE DUP3 DUP6 KECCAK256 DUP1 SLOAD PUSH1 0x1 PUSH1 0x1 PUSH1 0xA0 SHL SUB NOT AND PUSH1 0x1 PUSH1 0x1 PUSH1 0xA0 SHL SUB DUP12 AND OR SWAP1 SSTORE SWAP5 SLOAD DUP5 MSTORE SWAP4 SWAP1 SWAP2 MSTORE DUP2 KECCAK256 SWAP1 SWAP2 ADD DUP1 SLOAD PUSH1 0x1 SWAP3 SWAP1 PUSH2 0x1701 SWAP1 DUP5 SWAP1 PUSH2 0x247B JUMP JUMPDEST SWAP1 SWAP2 SSTORE POP POP JUMPDEST PUSH1 0x3 SLOAD PUSH0 SWAP1 DUP2 MSTORE PUSH1 0xE PUSH1 0x20 SWAP1 DUP2 MSTORE PUSH1 0x40 DUP1 DUP4 KECCAK256 PUSH1 0x1 PUSH1 0x1 PUSH1 0xA0 SHL SUB DUP8 AND DUP5 MSTORE SWAP1 SWAP2 MSTORE DUP2 KECCAK256 DUP1 SLOAD DUP5 SWAP3 SWAP1 PUSH2 0x173B SWAP1 DUP5 SWAP1 PUSH2 0x247B JUMP JUMPDEST SWAP1 SWAP2 SSTORE POP POP PUSH1 0x3 SLOAD PUSH1 0x40 MLOAD DUP4 DUP2 MSTORE PUSH1 0x1 PUSH1 0x1 PUSH1 0xA0 SHL SUB DUP6 AND SWAP2 SWAP1 PUSH32 0xA95519638524DCEA0D5D0102C719D77DC3D8B1AE68D2D1E37C79BE21BC7B113B SWAP1 PUSH1 0x20 ADD PUSH1 0x40 MLOAD DUP1 SWAP2 SUB SWAP1 LOG3 POP POP POP POP JUMP JUMPDEST PUSH1 0x1 SLOAD PUSH1 0x1 PUSH1 0x1 PUSH1 0xA0 SHL SUB AND CALLER EQ PUSH2 0x978 JUMPI PUSH1 0x40 MLOAD PUSH4 0x118CDAA7 PUSH1 0xE0 SHL DUP2 MSTORE CALLER PUSH1 0x4 DUP3 ADD MSTORE PUSH1 0x24 ADD PUSH2 0x357 JUMP JUMPDEST PUSH1 0x1 DUP1 SLOAD PUSH1 0x1 PUSH1 0x1 PUSH1 0xA0 SHL SUB DUP4 DUP2 AND PUSH1 0x1 PUSH1 0x1 PUSH1 0xA0 SHL SUB NOT DUP4 AND DUP2 OR SWAP1 SWAP4 SSTORE PUSH1 0x40 MLOAD SWAP2 AND SWAP2 SWAP1 DUP3 SWAP1 PUSH32 0x8BE0079C531659141344CD1FD0A4F28419497F9722A3DAAFE3B4186F6B6457E0 SWAP1 PUSH0 SWAP1 LOG3 POP POP JUMP JUMPDEST PUSH0 JUMPDEST PUSH0 DUP3 DUP2 MSTORE PUSH1 0x7 PUSH1 0x20 MSTORE PUSH1 0x40 SWAP1 KECCAK256 PUSH1 0x9 ADD SLOAD DUP2 LT ISZERO PUSH2 0x963 JUMPI PUSH0 DUP3 DUP2 MSTORE PUSH1 0xE PUSH1 0x20 SWAP1 DUP2 MSTORE PUSH1 0x40 DUP1 DUP4 KECCAK256 PUSH1 0xD DUP4 MSTORE DUP2 DUP5 KECCAK256 DUP6 DUP6 MSTORE DUP4 MSTORE DUP2 DUP5 KECCAK256 SLOAD PUSH1 0x1 PUSH1 0x1 PUSH1 0xA0 SHL SUB AND DUP5 MSTORE DUP3 MSTORE DUP1 DUP4 KECCAK256 SLOAD DUP6 DUP5 MSTORE PUSH1 0x7 SWAP1 SWAP3 MSTORE DUP3 KECCAK256 PUSH1 0xA ADD SLOAD PUSH2 0x1869 SWAP2 SWAP1 PUSH2 0x248E JUMP JUMPDEST PUSH0 DUP5 DUP2 MSTORE PUSH1 0xD PUSH1 0x20 SWAP1 DUP2 MSTORE PUSH1 0x40 DUP1 DUP4 KECCAK256 DUP7 DUP5 MSTORE DUP3 MSTORE DUP1 DUP4 KECCAK256 SLOAD DUP8 DUP5 MSTORE PUSH1 0x7 SWAP1 SWAP3 MSTORE SWAP1 SWAP2 KECCAK256 SLOAD SWAP2 SWAP3 POP PUSH2 0x18A8 SWAP2 PUSH1 0x1 PUSH1 0x1 PUSH1 0xA0 SHL SUB SWAP1 DUP2 AND SWAP2 AND DUP4 PUSH2 0x1D4C JUMP JUMPDEST POP PUSH1 0x1 ADD PUSH2 0x1808 JUMP JUMPDEST PUSH1 0x60 PUSH0 DUP4 PUSH8 0xFFFFFFFFFFFFFFFF DUP2 GT ISZERO PUSH2 0x18CD JUMPI PUSH2 0x18CD PUSH2 0x24D0 JUMP JUMPDEST PUSH1 0x40 MLOAD SWAP1 DUP1 DUP3 MSTORE DUP1 PUSH1 0x20 MUL PUSH1 0x20 ADD DUP3 ADD PUSH1 0x40 MSTORE DUP1 ISZERO PUSH2 0x18F6 JUMPI DUP2 PUSH1 0x20 ADD PUSH1 0x20 DUP3 MUL DUP1 CALLDATASIZE DUP4 CALLDATACOPY ADD SWAP1 POP JUMPDEST POP SWAP1 POP DUP5 PUSH0 JUMPDEST PUSH2 0x1907 PUSH1 0x1 DUP8 PUSH2 0x24BD JUMP JUMPDEST DUP2 LT ISZERO PUSH2 0x19DC JUMPI PUSH2 0x1918 DUP3 DUP3 PUSH2 0x1D7D JUMP JUMPDEST SWAP2 POP PUSH0 PUSH2 0x1925 DUP7 DUP5 PUSH2 0x24F8 JUMP JUMPDEST SWAP1 POP DUP2 JUMPDEST PUSH1 0x1 DUP2 LT ISZERO DUP1 ISZERO PUSH2 0x195C JUMPI POP DUP5 PUSH2 0x1941 PUSH1 0x1 DUP4 PUSH2 0x24BD JUMP JUMPDEST DUP2 MLOAD DUP2 LT PUSH2 0x1951 JUMPI PUSH2 0x1951 PUSH2 0x250B JUMP JUMPDEST PUSH1 0x20 MUL PUSH1 0x20 ADD ADD MLOAD DUP3 LT JUMPDEST ISZERO PUSH2 0x19B4 JUMPI DUP5 PUSH2 0x196D PUSH1 0x1 DUP4 PUSH2 0x24BD JUMP JUMPDEST DUP2 MLOAD DUP2 LT PUSH2 0x197D JUMPI PUSH2 0x197D PUSH2 0x250B JUMP JUMPDEST PUSH1 0x20 MUL PUSH1 0x20 ADD ADD MLOAD DUP6 DUP3 DUP2 MLOAD DUP2 LT PUSH2 0x1997 JUMPI PUSH2 0x1997 PUSH2 0x250B JUMP JUMPDEST PUSH1 0x20 SWAP1 DUP2 MUL SWAP2 SWAP1 SWAP2 ADD ADD MSTORE DUP1 PUSH2 0x19AC DUP2 PUSH2 0x251F JUMP JUMPDEST SWAP2 POP POP PUSH2 0x1929 JUMP JUMPDEST DUP2 DUP6 DUP3 DUP2 MLOAD DUP2 LT PUSH2 0x19C7 JUMPI PUSH2 0x19C7 PUSH2 0x250B JUMP JUMPDEST PUSH1 0x20 SWAP1 DUP2 MUL SWAP2 SWAP1 SWAP2 ADD ADD MSTORE POP POP PUSH1 0x1 ADD PUSH2 0x18FC JUMP JUMPDEST POP DUP4 DUP3 PUSH2 0x19EA PUSH1 0x1 DUP9 PUSH2 0x24BD JUMP JUMPDEST DUP2 MLOAD DUP2 LT PUSH2 0x19FA JUMPI PUSH2 0x19FA PUSH2 0x250B JUMP JUMPDEST PUSH1 0x20 SWAP1 DUP2 MUL SWAP2 SWAP1 SWAP2 ADD ADD MSTORE POP SWAP1 POP JUMPDEST SWAP4 SWAP3 POP POP POP JUMP JUMPDEST PUSH0 DUP4 DUP2 MSTORE PUSH1 0x7 PUSH1 0x20 MSTORE PUSH1 0x40 DUP2 KECCAK256 PUSH1 0x5 DUP2 ADD SLOAD PUSH1 0x4 SWAP1 SWAP2 ADD SLOAD DUP3 SWAP2 PUSH2 0x1A33 SWAP2 PUSH2 0x247B JUMP JUMPDEST SWAP1 POP PUSH0 JUMPDEST DUP5 DUP2 LT ISZERO PUSH2 0x1BCB JUMPI PUSH0 DUP4 DUP6 DUP4 DUP2 MLOAD DUP2 LT PUSH2 0x1A53 JUMPI PUSH2 0x1A53 PUSH2 0x250B JUMP JUMPDEST PUSH1 0x20 MUL PUSH1 0x20 ADD ADD MLOAD PUSH2 0x1A65 SWAP2 SWAP1 PUSH2 0x24BD JUMP JUMPDEST SWAP1 POP DUP2 DUP7 DUP5 EQ PUSH2 0x1ADD JUMPI DUP4 PUSH2 0x1A93 DUP8 DUP6 DUP2 MLOAD DUP2 LT PUSH2 0x1A85 JUMPI PUSH2 0x1A85 PUSH2 0x250B JUMP JUMPDEST PUSH1 0x20 MUL PUSH1 0x20 ADD ADD MLOAD DUP6 PUSH2 0x1D7D JUMP JUMPDEST PUSH2 0x1A9D SWAP2 SWAP1 PUSH2 0x24F8 JUMP JUMPDEST SWAP1 POP JUMPDEST PUSH0 DUP9 DUP2 MSTORE PUSH1 0x9 PUSH1 0x20 SWAP1 DUP2 MSTORE PUSH1 0x40 DUP1 DUP4 KECCAK256 DUP5 DUP5 MSTORE SWAP1 SWAP2 MSTORE SWAP1 KECCAK256 SLOAD PUSH1 0xFF AND ISZERO PUSH2 0x1ADD JUMPI DUP1 PUSH2 0x1ACB DUP2 PUSH2 0x24A5 JUMP JUMPDEST SWAP2 POP POP DUP4 DUP2 SUB PUSH2 0x1AD8 JUMPI POP PUSH0 JUMPDEST PUSH2 0x1AA0 JUMP JUMPDEST PUSH0 DUP9 DUP2 MSTORE PUSH1 0x9 PUSH1 0x20 SWAP1 DUP2 MSTORE PUSH1 0x40 DUP1 DUP4 KECCAK256 DUP5 DUP5 MSTORE SWAP1 SWAP2 MSTORE DUP2 KECCAK256 DUP1 SLOAD PUSH1 0xFF NOT AND PUSH1 0x1 OR SWAP1 SSTORE PUSH2 0x1B0A DUP10 DUP4 PUSH2 0x1DCA JUMP JUMPDEST PUSH1 0x1 DUP2 ADD SLOAD PUSH0 DUP12 DUP2 MSTORE PUSH1 0x7 PUSH1 0x20 SWAP1 DUP2 MSTORE PUSH1 0x40 SWAP2 DUP3 SWAP1 KECCAK256 PUSH1 0xD ADD SLOAD DUP3 MLOAD DUP9 DUP2 MSTORE PUSH1 0xFF SWAP1 SWAP2 AND ISZERO ISZERO SWAP2 DUP2 ADD SWAP2 SWAP1 SWAP2 MSTORE SWAP3 SWAP4 POP DUP5 SWAP3 PUSH1 0x1 PUSH1 0x1 PUSH1 0xA0 SHL SUB SWAP1 SWAP3 AND SWAP2 DUP13 SWAP2 PUSH32 0x927546E38B674F5E5DFF7EDCE9C7AFDCF21A35AC03BA70FE8E341F61F2C73DED SWAP2 ADD PUSH1 0x40 MLOAD DUP1 SWAP2 SUB SWAP1 LOG4 PUSH0 DUP10 DUP2 MSTORE PUSH1 0xC PUSH1 0x20 SWAP1 DUP2 MSTORE PUSH1 0x40 DUP1 DUP4 KECCAK256 PUSH1 0x1 DUP6 ADD SLOAD PUSH1 0x1 PUSH1 0x1 PUSH1 0xA0 SHL SUB AND DUP5 MSTORE SWAP1 SWAP2 MSTORE DUP2 KECCAK256 DUP1 SLOAD DUP6 SWAP3 SWAP1 PUSH2 0x1BAA SWAP1 DUP5 SWAP1 PUSH2 0x247B JUMP JUMPDEST SWAP1 SWAP2 SSTORE POP PUSH2 0x1BBA SWAP1 POP DUP4 DUP8 PUSH2 0x247B JUMP JUMPDEST SWAP6 POP POP PUSH1 0x1 SWAP1 SWAP3 ADD SWAP2 POP PUSH2 0x1A37 SWAP1 POP JUMP JUMPDEST POP POP POP POP POP POP JUMP JUMPDEST PUSH0 DUP3 DUP2 MSTORE PUSH1 0xC PUSH1 0x20 SWAP1 DUP2 MSTORE PUSH1 0x40 DUP1 DUP4 KECCAK256 PUSH1 0x1 PUSH1 0x1 PUSH1 0xA0 SHL SUB DUP6 AND DUP5 MSTORE SWAP1 SWAP2 MSTORE DUP2 KECCAK256 SLOAD SWAP1 SUB PUSH2 0x1C2E JUMPI PUSH1 0x40 MLOAD PUSH3 0x461BCD PUSH1 0xE5 SHL DUP2 MSTORE PUSH1 0x20 PUSH1 0x4 DUP3 ADD MSTORE PUSH1 0x8 PUSH1 0x24 DUP3 ADD MSTORE PUSH8 0x6E6F207072697A65 PUSH1 0xC0 SHL PUSH1 0x44 DUP3 ADD MSTORE PUSH1 0x64 ADD PUSH2 0x357 JUMP JUMPDEST PUSH0 DUP3 DUP2 MSTORE PUSH1 0xC PUSH1 0x20 SWAP1 DUP2 MSTORE PUSH1 0x40 DUP1 DUP4 KECCAK256 PUSH1 0x1 PUSH1 0x1 PUSH1 0xA0 SHL SUB DUP1 DUP7 AND DUP6 MSTORE SWAP1 DUP4 MSTORE DUP2 DUP5 KECCAK256 SLOAD DUP7 DUP6 MSTORE PUSH1 0x7 SWAP1 SWAP4 MSTORE SWAP3 KECCAK256 SLOAD SWAP1 SWAP2 PUSH2 0x1C6B SWAP2 AND DUP4 DUP4 PUSH2 0x1D4C JUMP JUMPDEST PUSH0 DUP4 DUP2 MSTORE PUSH1 0xC PUSH1 0x20 SWAP1 DUP2 MSTORE PUSH1 0x40 DUP1 DUP4 KECCAK256 PUSH1 0x1 PUSH1 0x1 PUSH1 0xA0 SHL SUB DUP7 AND DUP1 DUP6 MSTORE SWAP1 DUP4 MSTORE DUP2 DUP5 KECCAK256 DUP5 SWAP1 SSTORE DUP7 DUP5 MSTORE PUSH1 0x7 DUP4 MSTORE SWAP3 DUP2 SWAP1 KECCAK256 PUSH1 0xD ADD SLOAD DUP2 MLOAD DUP6 DUP2 MSTORE PUSH1 0xFF SWAP1 SWAP2 AND ISZERO ISZERO SWAP3 DUP2 ADD SWAP3 SWAP1 SWAP3 MSTORE DUP6 SWAP2 PUSH32 0x268EF67ED0490CC273925A4865E6FBDB4DCF7E0802AAD957AA682A78C7618BEF SWAP2 ADD PUSH1 0x40 MLOAD DUP1 SWAP2 SUB SWAP1 LOG3 POP POP POP JUMP JUMPDEST PUSH1 0x40 MLOAD PUSH1 0x1 PUSH1 0x1 PUSH1 0xA0 SHL SUB DUP5 DUP2 AND PUSH1 0x24 DUP4 ADD MSTORE DUP4 DUP2 AND PUSH1 0x44 DUP4 ADD MSTORE PUSH1 0x64 DUP3 ADD DUP4 SWAP1 MSTORE PUSH2 0x3F4 SWAP2 DUP7 SWAP2 DUP3 AND SWAP1 PUSH4 0x23B872DD SWAP1 PUSH1 0x84 ADD JUMPDEST PUSH1 0x40 MLOAD PUSH1 0x20 DUP2 DUP4 SUB SUB DUP2 MSTORE SWAP1 PUSH1 0x40 MSTORE SWAP2 POP PUSH1 0xE0 SHL PUSH1 0x20 DUP3 ADD DUP1 MLOAD PUSH1 0x1 PUSH1 0x1 PUSH1 0xE0 SHL SUB DUP4 DUP2 DUP4 AND OR DUP4 MSTORE POP POP POP POP PUSH2 0x1F04 JUMP JUMPDEST PUSH1 0x40 MLOAD PUSH1 0x1 PUSH1 0x1 PUSH1 0xA0 SHL SUB DUP4 DUP2 AND PUSH1 0x24 DUP4 ADD MSTORE PUSH1 0x44 DUP3 ADD DUP4 SWAP1 MSTORE PUSH2 0x783 SWAP2 DUP6 SWAP2 DUP3 AND SWAP1 PUSH4 0xA9059CBB SWAP1 PUSH1 0x64 ADD PUSH2 0x1D1A JUMP JUMPDEST PUSH0 DUP1 PUSH2 0x1D8B PUSH2 0x100 DUP5 PUSH2 0x24F8 JUMP JUMPDEST SWAP1 POP DUP4 PUSH2 0x1D98 DUP6 DUP4 PUSH2 0x1F65 JUMP JUMPDEST PUSH1 0x40 DUP1 MLOAD PUSH1 0x20 DUP2 ADD SWAP4 SWAP1 SWAP4 MSTORE DUP3 ADD MSTORE PUSH1 0x60 ADD PUSH1 0x40 DUP1 MLOAD PUSH1 0x1F NOT DUP2 DUP5 SUB ADD DUP2 MSTORE SWAP2 SWAP1 MSTORE DUP1 MLOAD PUSH1 0x20 SWAP1 SWAP2 ADD KECCAK256 SWAP5 SWAP4 POP POP POP POP JUMP JUMPDEST PUSH0 DUP3 DUP2 MSTORE PUSH1 0x8 PUSH1 0x20 DUP2 DUP2 MSTORE PUSH1 0x40 DUP1 DUP5 KECCAK256 PUSH1 0x7 SWAP1 SWAP3 MSTORE DUP4 KECCAK256 SWAP1 SWAP2 ADD SLOAD DUP4 SWAP2 SWAP1 DUP4 SWAP1 PUSH2 0x1DF6 SWAP1 PUSH1 0x1 SWAP1 PUSH2 0x24BD JUMP JUMPDEST DUP2 MSTORE PUSH1 0x20 ADD SWAP1 DUP2 MSTORE PUSH1 0x20 ADD PUSH0 KECCAK256 PUSH0 ADD SLOAD GT PUSH2 0x1E45 JUMPI PUSH1 0x40 MLOAD PUSH3 0x461BCD PUSH1 0xE5 SHL DUP2 MSTORE PUSH1 0x20 PUSH1 0x4 DUP3 ADD MSTORE PUSH1 0xF PUSH1 0x24 DUP3 ADD MSTORE PUSH15 0x696E646578206F75742072616E6765 PUSH1 0x88 SHL PUSH1 0x44 DUP3 ADD MSTORE PUSH1 0x64 ADD PUSH2 0x357 JUMP JUMPDEST PUSH0 DUP4 DUP2 MSTORE PUSH1 0x7 PUSH1 0x20 MSTORE PUSH1 0x40 DUP2 KECCAK256 PUSH1 0x8 ADD SLOAD DUP2 SWAP1 PUSH2 0x1E64 SWAP1 PUSH1 0x1 SWAP1 PUSH2 0x24BD JUMP JUMPDEST SWAP1 POP JUMPDEST PUSH0 PUSH1 0x2 PUSH2 0x1E74 DUP4 DUP6 PUSH2 0x247B JUMP JUMPDEST PUSH2 0x1E7E SWAP2 SWAP1 PUSH2 0x2534 JUMP JUMPDEST PUSH0 DUP8 DUP2 MSTORE PUSH1 0x8 PUSH1 0x20 SWAP1 DUP2 MSTORE PUSH1 0x40 DUP1 DUP4 KECCAK256 DUP5 DUP5 MSTORE SWAP1 SWAP2 MSTORE SWAP1 KECCAK256 SLOAD SWAP1 SWAP2 POP DUP6 LT ISZERO PUSH2 0x1EA9 JUMPI DUP1 SWAP2 POP PUSH2 0x1ED6 JUMP JUMPDEST PUSH0 DUP7 DUP2 MSTORE PUSH1 0x8 PUSH1 0x20 SWAP1 DUP2 MSTORE PUSH1 0x40 DUP1 DUP4 KECCAK256 DUP5 DUP5 MSTORE SWAP1 SWAP2 MSTORE SWAP1 KECCAK256 SLOAD DUP6 LT PUSH2 0x1ED6 JUMPI PUSH2 0x1ED3 DUP2 PUSH1 0x1 PUSH2 0x247B JUMP JUMPDEST SWAP3 POP JUMPDEST DUP2 DUP4 LT PUSH2 0x1EFE JUMPI POP PUSH0 DUP6 DUP2 MSTORE PUSH1 0x8 PUSH1 0x20 SWAP1 DUP2 MSTORE PUSH1 0x40 DUP1 DUP4 KECCAK256 SWAP4 DUP4 MSTORE SWAP3 SWAP1 MSTORE KECCAK256 SWAP2 POP PUSH2 0x1238 SWAP1 POP JUMP JUMPDEST POP PUSH2 0x1E67 JUMP JUMPDEST PUSH0 PUSH2 0x1F18 PUSH1 0x1 PUSH1 0x1 PUSH1 0xA0 SHL SUB DUP5 AND DUP4 PUSH2 0x1F89 JUMP JUMPDEST SWAP1 POP DUP1 MLOAD PUSH0 EQ ISZERO DUP1 ISZERO PUSH2 0x1F3C JUMPI POP DUP1 DUP1 PUSH1 0x20 ADD SWAP1 MLOAD DUP2 ADD SWAP1 PUSH2 0x1F3A SWAP2 SWAP1 PUSH2 0x2547 JUMP JUMPDEST ISZERO JUMPDEST ISZERO PUSH2 0x783 JUMPI PUSH1 0x40 MLOAD PUSH4 0x5274AFE7 PUSH1 0xE0 SHL DUP2 MSTORE PUSH1 0x1 PUSH1 0x1 PUSH1 0xA0 SHL SUB DUP5 AND PUSH1 0x4 DUP3 ADD MSTORE PUSH1 0x24 ADD PUSH2 0x357 JUMP JUMPDEST PUSH0 PUSH2 0x1F72 DUP3 PUSH2 0x100 PUSH2 0x2562 JUMP JUMPDEST PUSH4 0xFFFFFFFF SWAP3 DUP4 AND DUP5 SWAP1 SHL SWAP3 AND SWAP3 SWAP1 SWAP3 SHR OR SWAP2 SWAP1 POP JUMP JUMPDEST PUSH1 0x60 PUSH2 0x1A09 DUP4 DUP4 PUSH0 DUP5 PUSH0 DUP1 DUP6 PUSH1 0x1 PUSH1 0x1 PUSH1 0xA0 SHL SUB AND DUP5 DUP7 PUSH1 0x40 MLOAD PUSH2 0x1FAD SWAP2 SWAP1 PUSH2 0x2586 JUMP JUMPDEST PUSH0 PUSH1 0x40 MLOAD DUP1 DUP4 SUB DUP2 DUP6 DUP8 GAS CALL SWAP3 POP POP POP RETURNDATASIZE DUP1 PUSH0 DUP2 EQ PUSH2 0x1FE7 JUMPI PUSH1 0x40 MLOAD SWAP2 POP PUSH1 0x1F NOT PUSH1 0x3F RETURNDATASIZE ADD AND DUP3 ADD PUSH1 0x40 MSTORE RETURNDATASIZE DUP3 MSTORE RETURNDATASIZE PUSH0 PUSH1 0x20 DUP5 ADD RETURNDATACOPY PUSH2 0x1FEC JUMP JUMPDEST PUSH1 0x60 SWAP2 POP JUMPDEST POP SWAP2 POP SWAP2 POP PUSH2 0x1FFC DUP7 DUP4 DUP4 PUSH2 0x2006 JUMP JUMPDEST SWAP7 SWAP6 POP POP POP POP POP POP JUMP JUMPDEST PUSH1 0x60 DUP3 PUSH2 0x201B JUMPI PUSH2 0x2016 DUP3 PUSH2 0x2062 JUMP JUMPDEST PUSH2 0x1A09 JUMP JUMPDEST DUP2 MLOAD ISZERO DUP1 ISZERO PUSH2 0x2032 JUMPI POP PUSH1 0x1 PUSH1 0x1 PUSH1 0xA0 SHL SUB DUP5 AND EXTCODESIZE ISZERO JUMPDEST ISZERO PUSH2 0x205B JUMPI PUSH1 0x40 MLOAD PUSH4 0x9996B315 PUSH1 0xE0 SHL DUP2 MSTORE PUSH1 0x1 PUSH1 0x1 PUSH1 0xA0 SHL SUB DUP6 AND PUSH1 0x4 DUP3 ADD MSTORE PUSH1 0x24 ADD PUSH2 0x357 JUMP JUMPDEST POP DUP1 PUSH2 0x1A09 JUMP JUMPDEST DUP1 MLOAD ISZERO PUSH2 0x2072 JUMPI DUP1 MLOAD DUP1 DUP3 PUSH1 0x20 ADD REVERT JUMPDEST PUSH1 0x40 MLOAD PUSH4 0xA12F521 PUSH1 0xE1 SHL DUP2 MSTORE PUSH1 0x4 ADD PUSH1 0x40 MLOAD DUP1 SWAP2 SUB SWAP1 REVERT JUMPDEST PUSH0 DUP1 PUSH0 DUP1 PUSH1 0x80 DUP6 DUP8 SUB SLT ISZERO PUSH2 0x209E JUMPI PUSH0 DUP1 REVERT JUMPDEST POP POP DUP3 CALLDATALOAD SWAP5 PUSH1 0x20 DUP5 ADD CALLDATALOAD SWAP5 POP PUSH1 0x40 DUP5 ADD CALLDATALOAD SWAP4 PUSH1 0x60 ADD CALLDATALOAD SWAP3 POP SWAP1 POP JUMP JUMPDEST PUSH0 PUSH1 0x20 DUP3 DUP5 SUB SLT ISZERO PUSH2 0x20CA JUMPI PUSH0 DUP1 REVERT JUMPDEST POP CALLDATALOAD SWAP2 SWAP1 POP JUMP JUMPDEST DUP1 CALLDATALOAD PUSH1 0x1 PUSH1 0x1 PUSH1 0xA0 SHL SUB DUP2 AND DUP2 EQ PUSH2 0x20E7 JUMPI PUSH0 DUP1 REVERT JUMPDEST SWAP2 SWAP1 POP JUMP JUMPDEST PUSH0 DUP1 PUSH0 PUSH1 0x60 DUP5 DUP7 SUB SLT ISZERO PUSH2 0x20FE JUMPI PUSH0 DUP1 REVERT JUMPDEST DUP4 CALLDATALOAD SWAP3 POP PUSH2 0x210E PUSH1 0x20 DUP6 ADD PUSH2 0x20D1 JUMP JUMPDEST SWAP2 POP PUSH1 0x40 DUP5 ADD CALLDATALOAD SWAP1 POP SWAP3 POP SWAP3 POP SWAP3 JUMP JUMPDEST DUP1 ISZERO ISZERO DUP2 EQ PUSH2 0x4FF JUMPI PUSH0 DUP1 REVERT JUMPDEST PUSH0 DUP1 PUSH0 DUP1 PUSH0 DUP1 PUSH0 DUP1 PUSH0 DUP1 PUSH2 0x140 DUP12 DUP14 SUB SLT ISZERO PUSH2 0x2145 JUMPI PUSH0 DUP1 REVERT JUMPDEST PUSH2 0x214E DUP12 PUSH2 0x20D1 JUMP JUMPDEST SWAP10 POP PUSH1 0x20 DUP12 ADD CALLDATALOAD SWAP9 POP PUSH1 0x40 DUP12 ADD CALLDATALOAD SWAP8 POP PUSH1 0x60 DUP12 ADD CALLDATALOAD SWAP7 POP PUSH1 0x80 DUP12 ADD CALLDATALOAD SWAP6 POP PUSH2 0x2178 PUSH1 0xA0 DUP13 ADD PUSH2 0x20D1 JUMP JUMPDEST SWAP5 POP PUSH1 0xC0 DUP12 ADD CALLDATALOAD SWAP4 POP PUSH2 0x218D PUSH1 0xE0 DUP13 ADD PUSH2 0x20D1 JUMP JUMPDEST SWAP3 POP PUSH2 0x100 DUP12 ADD CALLDATALOAD SWAP2 POP PUSH2 0x120 DUP12 ADD CALLDATALOAD PUSH2 0x21A6 DUP2 PUSH2 0x211E JUMP JUMPDEST DUP1 SWAP2 POP POP SWAP3 SWAP6 SWAP9 SWAP12 SWAP2 SWAP5 SWAP8 SWAP11 POP SWAP3 SWAP6 SWAP9 POP JUMP JUMPDEST PUSH0 DUP1 PUSH1 0x40 DUP4 DUP6 SUB SLT ISZERO PUSH2 0x21CA JUMPI PUSH0 DUP1 REVERT JUMPDEST POP POP DUP1 CALLDATALOAD SWAP3 PUSH1 0x20 SWAP1 SWAP2 ADD CALLDATALOAD SWAP2 POP JUMP JUMPDEST PUSH4 0x4E487B71 PUSH1 0xE0 SHL PUSH0 MSTORE PUSH1 0x21 PUSH1 0x4 MSTORE PUSH1 0x24 PUSH0 REVERT JUMPDEST PUSH1 0x4 DUP2 LT PUSH2 0x2209 JUMPI PUSH4 0x4E487B71 PUSH1 0xE0 SHL PUSH0 MSTORE PUSH1 0x21 PUSH1 0x4 MSTORE PUSH1 0x24 PUSH0 REVERT JUMPDEST SWAP1 MSTORE JUMP JUMPDEST DUP2 MLOAD PUSH1 0x1 PUSH1 0x1 PUSH1 0xA0 SHL SUB AND DUP2 MSTORE PUSH2 0x1E0 DUP2 ADD PUSH1 0x20 DUP4 ADD MLOAD PUSH2 0x2231 PUSH1 0x20 DUP5 ADD DUP3 PUSH2 0x21ED JUMP JUMPDEST POP PUSH1 0x40 DUP4 ADD MLOAD PUSH1 0x40 DUP4 ADD MSTORE PUSH1 0x60 DUP4 ADD MLOAD PUSH1 0x60 DUP4 ADD MSTORE PUSH1 0x80 DUP4 ADD MLOAD PUSH1 0x80 DUP4 ADD MSTORE PUSH1 0xA0 DUP4 ADD MLOAD PUSH1 0xA0 DUP4 ADD MSTORE PUSH1 0xC0 DUP4 ADD MLOAD PUSH1 0xC0 DUP4 ADD MSTORE PUSH1 0xE0 DUP4 ADD MLOAD PUSH1 0xE0 DUP4 ADD MSTORE PUSH2 0x100 DUP1 DUP5 ADD MLOAD DUP2 DUP5 ADD MSTORE POP PUSH2 0x120 DUP1 DUP5 ADD MLOAD DUP2 DUP5 ADD MSTORE POP PUSH2 0x140 DUP1 DUP5 ADD MLOAD DUP2 DUP5 ADD MSTORE POP PUSH2 0x160 DUP1 DUP5 ADD MLOAD DUP2 DUP5 ADD MSTORE POP PUSH2 0x180 DUP1 DUP5 ADD MLOAD PUSH2 0x22B9 DUP3 DUP6 ADD DUP3 PUSH1 0x1 PUSH1 0x1 PUSH1 0xA0 SHL SUB AND SWAP1 MSTORE JUMP JUMPDEST POP POP PUSH2 0x1A0 DUP4 DUP2 ADD MLOAD SWAP1 DUP4 ADD MSTORE PUSH2 0x1C0 SWAP3 DUP4 ADD MLOAD ISZERO ISZERO SWAP3 SWAP1 SWAP2 ADD SWAP2 SWAP1 SWAP2 MSTORE SWAP1 JUMP JUMPDEST PUSH0 DUP1 PUSH1 0x40 DUP4 DUP6 SUB SLT ISZERO PUSH2 0x22EB JUMPI PUSH0 DUP1 REVERT JUMPDEST PUSH2 0x22F4 DUP4 PUSH2 0x20D1 JUMP JUMPDEST SWAP5 PUSH1 0x20 SWAP4 SWAP1 SWAP4 ADD CALLDATALOAD SWAP4 POP POP POP JUMP JUMPDEST PUSH0 PUSH1 0x20 DUP3 DUP5 SUB SLT ISZERO PUSH2 0x2312 JUMPI PUSH0 DUP1 REVERT JUMPDEST PUSH2 0x1A09 DUP3 PUSH2 0x20D1 JUMP JUMPDEST PUSH0 DUP1 PUSH1 0x40 DUP4 DUP6 SUB SLT ISZERO PUSH2 0x232C JUMPI PUSH0 DUP1 REVERT JUMPDEST PUSH2 0x2335 DUP4 PUSH2 0x20D1 JUMP JUMPDEST SWAP2 POP PUSH1 0x20 DUP4 ADD CALLDATALOAD PUSH2 0x2345 DUP2 PUSH2 0x211E JUMP JUMPDEST DUP1 SWAP2 POP POP SWAP3 POP SWAP3 SWAP1 POP JUMP JUMPDEST PUSH0 DUP1 PUSH1 0x40 DUP4 DUP6 SUB SLT ISZERO PUSH2 0x2361 JUMPI PUSH0 DUP1 REVERT JUMPDEST DUP3 CALLDATALOAD SWAP2 POP PUSH2 0x2371 PUSH1 0x20 DUP5 ADD PUSH2 0x20D1 JUMP JUMPDEST SWAP1 POP SWAP3 POP SWAP3 SWAP1 POP JUMP JUMPDEST PUSH0 PUSH1 0x20 DUP3 DUP5 SUB SLT ISZERO PUSH2 0x238A JUMPI PUSH0 DUP1 REVERT JUMPDEST DUP2 CALLDATALOAD PUSH2 0x1A09 DUP2 PUSH2 0x211E JUMP JUMPDEST PUSH1 0x20 DUP1 DUP3 MSTORE PUSH1 0xC SWAP1 DUP3 ADD MSTORE PUSH12 0x2737BA1037B832B930BA37B9 PUSH1 0xA1 SHL PUSH1 0x40 DUP3 ADD MSTORE PUSH1 0x60 ADD SWAP1 JUMP JUMPDEST SWAP7 DUP8 MSTORE PUSH1 0x20 DUP8 ADD SWAP6 SWAP1 SWAP6 MSTORE PUSH1 0x40 DUP7 ADD SWAP4 SWAP1 SWAP4 MSTORE PUSH1 0x60 DUP6 ADD SWAP2 SWAP1 SWAP2 MSTORE PUSH1 0x1 PUSH1 0x1 PUSH1 0xA0 SHL SUB SWAP1 DUP2 AND PUSH1 0x80 DUP6 ADD MSTORE AND PUSH1 0xA0 DUP4 ADD MSTORE ISZERO ISZERO PUSH1 0xC0 DUP3 ADD MSTORE PUSH1 0xE0 ADD SWAP1 JUMP JUMPDEST PUSH1 0x20 DUP1 DUP3 MSTORE PUSH1 0x17 SWAP1 DUP3 ADD MSTORE PUSH32 0x526564456E76656C6F7065206973206E6F74206F70656E000000000000000000 PUSH1 0x40 DUP3 ADD MSTORE PUSH1 0x60 ADD SWAP1 JUMP JUMPDEST PUSH1 0x20 DUP1 DUP3 MSTORE PUSH1 0x18 SWAP1 DUP3 ADD MSTORE PUSH32 0x526564456E76656C6F7065206973206F7665722074696D650000000000000000 PUSH1 0x40 DUP3 ADD MSTORE PUSH1 0x60 ADD SWAP1 JUMP JUMPDEST PUSH4 0x4E487B71 PUSH1 0xE0 SHL PUSH0 MSTORE PUSH1 0x11 PUSH1 0x4 MSTORE PUSH1 0x24 PUSH0 REVERT JUMPDEST DUP1 DUP3 ADD DUP1 DUP3 GT ISZERO PUSH2 0x1238 JUMPI PUSH2 0x1238 PUSH2 0x2467 JUMP JUMPDEST DUP1 DUP3 MUL DUP2 ISZERO DUP3 DUP3 DIV DUP5 EQ OR PUSH2 0x1238 JUMPI PUSH2 0x1238 PUSH2 0x2467 JUMP JUMPDEST PUSH0 PUSH1 0x1 DUP3 ADD PUSH2 0x24B6 JUMPI PUSH2 0x24B6 PUSH2 0x2467 JUMP JUMPDEST POP PUSH1 0x1 ADD SWAP1 JUMP JUMPDEST DUP2 DUP2 SUB DUP2 DUP2 GT ISZERO PUSH2 0x1238 JUMPI PUSH2 0x1238 PUSH2 0x2467 JUMP JUMPDEST PUSH4 0x4E487B71 PUSH1 0xE0 SHL PUSH0 MSTORE PUSH1 0x41 PUSH1 0x4 MSTORE PUSH1 0x24 PUSH0 REVERT JUMPDEST PUSH4 0x4E487B71 PUSH1 0xE0 SHL PUSH0 MSTORE PUSH1 0x12 PUSH1 0x4 MSTORE PUSH1 0x24 PUSH0 REVERT JUMPDEST PUSH0 DUP3 PUSH2 0x2506 JUMPI PUSH2 0x2506 PUSH2 0x24E4 JUMP JUMPDEST POP MOD SWAP1 JUMP JUMPDEST PUSH4 0x4E487B71 PUSH1 0xE0 SHL PUSH0 MSTORE PUSH1 0x32 PUSH1 0x4 MSTORE PUSH1 0x24 PUSH0 REVERT JUMPDEST PUSH0 DUP2 PUSH2 0x252D JUMPI PUSH2 0x252D PUSH2 0x2467 JUMP JUMPDEST POP PUSH0 NOT ADD SWAP1 JUMP JUMPDEST PUSH0 DUP3 PUSH2 0x2542 JUMPI PUSH2 0x2542 PUSH2 0x24E4 JUMP JUMPDEST POP DIV SWAP1 JUMP JUMPDEST PUSH0 PUSH1 0x20 DUP3 DUP5 SUB SLT ISZERO PUSH2 0x2557 JUMPI PUSH0 DUP1 REVERT JUMPDEST DUP2 MLOAD PUSH2 0x1A09 DUP2 PUSH2 0x211E JUMP JUMPDEST PUSH4 0xFFFFFFFF DUP3 DUP2 AND DUP3 DUP3 AND SUB SWAP1 DUP1 DUP3 GT ISZERO PUSH2 0x257F JUMPI PUSH2 0x257F PUSH2 0x2467 JUMP JUMPDEST POP SWAP3 SWAP2 POP POP JUMP JUMPDEST PUSH0 DUP3 MLOAD DUP1 PUSH1 0x20 DUP6 ADD DUP5 MCOPY PUSH0 SWAP3 ADD SWAP2 DUP3 MSTORE POP SWAP2 SWAP1 POP JUMP INVALID LOG2 PUSH5 0x6970667358 0x22 SLT KECCAK256 TLOAD 0xC7 PUSH6 0xB1C69ED47328 0xB4 0xBA DUP5 PUSH4 0x184AFAF6 0x22 NOT DUP10 PUSH19 0x9A7AC17DDF5548B66F15A964736F6C63430008 NOT STOP CALLER "
				},
				"gasEstimates": {
					"creation": {
						"codeDepositCost": "1936400",
						"executionCost": "infinite",
						"totalCost": "infinite"
					},
					"external": {
						"buyTickets(uint256,address,uint256)": "infinite",
						"claimPrize(uint256)": "infinite",
						"createRedEnvelope(uint256,uint256,uint256,uint256)": "252454",
						"createRedEnvelopeDetail(address,uint256,uint256,uint256,uint256,address,uint256,address,uint256,bool)": "infinite",
						"currentId()": "2349",
						"defaultAutoClaim()": "2354",
						"defaultTicketPirce()": "2395",
						"defaultTicketToken()": "2359",
						"drawPrize(uint256,uint256)": "infinite",
						"endRedEnvelope(uint256)": "83988",
						"getTickets(uint256,address,uint256)": "infinite",
						"injectTickets(uint256,uint256)": "infinite",
						"operatorAddressList(address)": "2595",
						"owner()": "2386",
						"renounceOwnership()": "infinite",
						"setDefaultAutoClaim(bool)": "27907",
						"setOperatorAddress(address,bool)": "28288",
						"setTicketToken(address,uint256)": "50345",
						"transferOwnership(address)": "28421",
						"viewCurrentRedEnvelopeId()": "2413",
						"viewRedEnvelope(uint256)": "31252",
						"viewRedEnvelopeClaimPrize(uint256,address)": "2685",
						"viewRedEnvelopeStatus(uint256)": "2624"
					},
					"internal": {
						"_calculatePrize(uint256,uint256,uint256[] memory)": "infinite",
						"_claimPrize(uint256,address)": "infinite",
						"_createRedEnvelope(address,uint256,uint256,uint256,uint256,uint256,bool)": "185577",
						"_deriveRandom(uint256,uint256)": "infinite",
						"_fillTicket(uint256,address,uint256,bool)": "infinite",
						"_getSortRandoms(uint256,uint256,uint256)": "infinite",
						"_getTicketbyIndex(uint256,uint256)": "infinite",
						"_injectTickets(uint256,address,uint256)": "infinite",
						"_leftRotate(uint256,uint32)": "156",
						"_returnInject(uint256)": "infinite"
					}
				},
				"methodIdentifiers": {
					"buyTickets(uint256,address,uint256)": "c5e7bb33",
					"claimPrize(uint256)": "d7098154",
					"createRedEnvelope(uint256,uint256,uint256,uint256)": "0e9e1262",
					"createRedEnvelopeDetail(address,uint256,uint256,uint256,uint256,address,uint256,address,uint256,bool)": "4a42c8f6",
					"currentId()": "e00dd161",
					"defaultAutoClaim()": "a210d5e0",
					"defaultTicketPirce()": "4bfec3aa",
					"defaultTicketToken()": "959acdaf",
					"drawPrize(uint256,uint256)": "bce3468d",
					"endRedEnvelope(uint256)": "3834efe1",
					"getTickets(uint256,address,uint256)": "3ddb7f19",
					"injectTickets(uint256,uint256)": "559f24bc",
					"operatorAddressList(address)": "bc6bce91",
					"owner()": "8da5cb5b",
					"renounceOwnership()": "715018a6",
					"setDefaultAutoClaim(bool)": "f41188ed",
					"setOperatorAddress(address,bool)": "d9828174",
					"setTicketToken(address,uint256)": "903606c5",
					"transferOwnership(address)": "f2fde38b",
					"viewCurrentRedEnvelopeId()": "94456fa4",
					"viewRedEnvelope(uint256)": "8f91cd17",
					"viewRedEnvelopeClaimPrize(uint256,address)": "dc912a81",
					"viewRedEnvelopeStatus(uint256)": "fe5c5976"
				}
			},
			"storageLayout": {
				"storage": [
					{
						"astId": 845,
						"contract": "contracts/LuckyRedEnvelopeV2.sol:LuckyRedEnvelopeV2",
						"label": "_status",
						"offset": 0,
						"slot": "0",
						"type": "t_uint256"
					},
					{
						"astId": 8,
						"contract": "contracts/LuckyRedEnvelopeV2.sol:LuckyRedEnvelopeV2",
						"label": "_owner",
						"offset": 0,
						"slot": "1",
						"type": "t_address"
					},
					{
						"astId": 922,
						"contract": "contracts/LuckyRedEnvelopeV2.sol:LuckyRedEnvelopeV2",
						"label": "defaultTicketToken",
						"offset": 0,
						"slot": "2",
						"type": "t_address"
					},
					{
						"astId": 924,
						"contract": "contracts/LuckyRedEnvelopeV2.sol:LuckyRedEnvelopeV2",
						"label": "currentId",
						"offset": 0,
						"slot": "3",
						"type": "t_uint256"
					},
					{
						"astId": 926,
						"contract": "contracts/LuckyRedEnvelopeV2.sol:LuckyRedEnvelopeV2",
						"label": "defaultTicketPirce",
						"offset": 0,
						"slot": "4",
						"type": "t_uint256"
					},
					{
						"astId": 928,
						"contract": "contracts/LuckyRedEnvelopeV2.sol:LuckyRedEnvelopeV2",
						"label": "defaultAutoClaim",
						"offset": 0,
						"slot": "5",
						"type": "t_bool"
					},
					{
						"astId": 932,
						"contract": "contracts/LuckyRedEnvelopeV2.sol:LuckyRedEnvelopeV2",
						"label": "operatorAddressList",
						"offset": 0,
						"slot": "6",
						"type": "t_mapping(t_address,t_bool)"
					},
					{
						"astId": 981,
						"contract": "contracts/LuckyRedEnvelopeV2.sol:LuckyRedEnvelopeV2",
						"label": "_redEnvelopes",
						"offset": 0,
						"slot": "7",
						"type": "t_mapping(t_uint256,t_struct(RedEnvelope)969_storage)"
					},
					{
						"astId": 988,
						"contract": "contracts/LuckyRedEnvelopeV2.sol:LuckyRedEnvelopeV2",
						"label": "_tickets",
						"offset": 0,
						"slot": "8",
						"type": "t_mapping(t_uint256,t_mapping(t_uint256,t_struct(Ticket)976_storage))"
					},
					{
						"astId": 994,
						"contract": "contracts/LuckyRedEnvelopeV2.sol:LuckyRedEnvelopeV2",
						"label": "_prizedticketIndex",
						"offset": 0,
						"slot": "9",
						"type": "t_mapping(t_uint256,t_mapping(t_uint256,t_bool))"
					},
					{
						"astId": 1000,
						"contract": "contracts/LuckyRedEnvelopeV2.sol:LuckyRedEnvelopeV2",
						"label": "_userAddrTicketNum",
						"offset": 0,
						"slot": "10",
						"type": "t_mapping(t_uint256,t_mapping(t_address,t_uint256))"
					},
					{
						"astId": 1006,
						"contract": "contracts/LuckyRedEnvelopeV2.sol:LuckyRedEnvelopeV2",
						"label": "_userAddrIndex",
						"offset": 0,
						"slot": "11",
						"type": "t_mapping(t_uint256,t_mapping(t_uint256,t_address))"
					},
					{
						"astId": 1012,
						"contract": "contracts/LuckyRedEnvelopeV2.sol:LuckyRedEnvelopeV2",
						"label": "_amount2claimed",
						"offset": 0,
						"slot": "12",
						"type": "t_mapping(t_uint256,t_mapping(t_address,t_uint256))"
					},
					{
						"astId": 1018,
						"contract": "contracts/LuckyRedEnvelopeV2.sol:LuckyRedEnvelopeV2",
						"label": "_injectAddrIndex",
						"offset": 0,
						"slot": "13",
						"type": "t_mapping(t_uint256,t_mapping(t_uint256,t_address))"
					},
					{
						"astId": 1024,
						"contract": "contracts/LuckyRedEnvelopeV2.sol:LuckyRedEnvelopeV2",
						"label": "_injectTicketMap",
						"offset": 0,
						"slot": "14",
						"type": "t_mapping(t_uint256,t_mapping(t_address,t_uint256))"
					}
				],
				"types": {
					"t_address": {
						"encoding": "inplace",
						"label": "address",
						"numberOfBytes": "20"
					},
					"t_bool": {
						"encoding": "inplace",
						"label": "bool",
						"numberOfBytes": "1"
					},
					"t_enum(Status)937": {
						"encoding": "inplace",
						"label": "enum LuckyRedEnvelopeV2.Status",
						"numberOfBytes": "1"
					},
					"t_mapping(t_address,t_bool)": {
						"encoding": "mapping",
						"key": "t_address",
						"label": "mapping(address => bool)",
						"numberOfBytes": "32",
						"value": "t_bool"
					},
					"t_mapping(t_address,t_uint256)": {
						"encoding": "mapping",
						"key": "t_address",
						"label": "mapping(address => uint256)",
						"numberOfBytes": "32",
						"value": "t_uint256"
					},
					"t_mapping(t_uint256,t_address)": {
						"encoding": "mapping",
						"key": "t_uint256",
						"label": "mapping(uint256 => address)",
						"numberOfBytes": "32",
						"value": "t_address"
					},
					"t_mapping(t_uint256,t_bool)": {
						"encoding": "mapping",
						"key": "t_uint256",
						"label": "mapping(uint256 => bool)",
						"numberOfBytes": "32",
						"value": "t_bool"
					},
					"t_mapping(t_uint256,t_mapping(t_address,t_uint256))": {
						"encoding": "mapping",
						"key": "t_uint256",
						"label": "mapping(uint256 => mapping(address => uint256))",
						"numberOfBytes": "32",
						"value": "t_mapping(t_address,t_uint256)"
					},
					"t_mapping(t_uint256,t_mapping(t_uint256,t_address))": {
						"encoding": "mapping",
						"key": "t_uint256",
						"label": "mapping(uint256 => mapping(uint256 => address))",
						"numberOfBytes": "32",
						"value": "t_mapping(t_uint256,t_address)"
					},
					"t_mapping(t_uint256,t_mapping(t_uint256,t_bool))": {
						"encoding": "mapping",
						"key": "t_uint256",
						"label": "mapping(uint256 => mapping(uint256 => bool))",
						"numberOfBytes": "32",
						"value": "t_mapping(t_uint256,t_bool)"
					},
					"t_mapping(t_uint256,t_mapping(t_uint256,t_struct(Ticket)976_storage))": {
						"encoding": "mapping",
						"key": "t_uint256",
						"label": "mapping(uint256 => mapping(uint256 => struct LuckyRedEnvelopeV2.Ticket))",
						"numberOfBytes": "32",
						"value": "t_mapping(t_uint256,t_struct(Ticket)976_storage)"
					},
					"t_mapping(t_uint256,t_struct(RedEnvelope)969_storage)": {
						"encoding": "mapping",
						"key": "t_uint256",
						"label": "mapping(uint256 => struct LuckyRedEnvelopeV2.RedEnvelope)",
						"numberOfBytes": "32",
						"value": "t_struct(RedEnvelope)969_storage"
					},
					"t_mapping(t_uint256,t_struct(Ticket)976_storage)": {
						"encoding": "mapping",
						"key": "t_uint256",
						"label": "mapping(uint256 => struct LuckyRedEnvelopeV2.Ticket)",
						"numberOfBytes": "32",
						"value": "t_struct(Ticket)976_storage"
					},
					"t_struct(RedEnvelope)969_storage": {
						"encoding": "inplace",
						"label": "struct LuckyRedEnvelopeV2.RedEnvelope",
						"members": [
							{
								"astId": 939,
								"contract": "contracts/LuckyRedEnvelopeV2.sol:LuckyRedEnvelopeV2",
								"label": "ticketToken",
								"offset": 0,
								"slot": "0",
								"type": "t_address"
							},
							{
								"astId": 942,
								"contract": "contracts/LuckyRedEnvelopeV2.sol:LuckyRedEnvelopeV2",
								"label": "status",
								"offset": 20,
								"slot": "0",
								"type": "t_enum(Status)937"
							},
							{
								"astId": 944,
								"contract": "contracts/LuckyRedEnvelopeV2.sol:LuckyRedEnvelopeV2",
								"label": "endTime",
								"offset": 0,
								"slot": "1",
								"type": "t_uint256"
							},
							{
								"astId": 946,
								"contract": "contracts/LuckyRedEnvelopeV2.sol:LuckyRedEnvelopeV2",
								"label": "maxTickets",
								"offset": 0,
								"slot": "2",
								"type": "t_uint256"
							},
							{
								"astId": 948,
								"contract": "contracts/LuckyRedEnvelopeV2.sol:LuckyRedEnvelopeV2",
								"label": "maxPrizeNum",
								"offset": 0,
								"slot": "3",
								"type": "t_uint256"
							},
							{
								"astId": 950,
								"contract": "contracts/LuckyRedEnvelopeV2.sol:LuckyRedEnvelopeV2",
								"label": "buyTickets",
								"offset": 0,
								"slot": "4",
								"type": "t_uint256"
							},
							{
								"astId": 952,
								"contract": "contracts/LuckyRedEnvelopeV2.sol:LuckyRedEnvelopeV2",
								"label": "getTickets",
								"offset": 0,
								"slot": "5",
								"type": "t_uint256"
							},
							{
								"astId": 954,
								"contract": "contracts/LuckyRedEnvelopeV2.sol:LuckyRedEnvelopeV2",
								"label": "injectTickets",
								"offset": 0,
								"slot": "6",
								"type": "t_uint256"
							},
							{
								"astId": 956,
								"contract": "contracts/LuckyRedEnvelopeV2.sol:LuckyRedEnvelopeV2",
								"label": "userAddrNum",
								"offset": 0,
								"slot": "7",
								"type": "t_uint256"
							},
							{
								"astId": 958,
								"contract": "contracts/LuckyRedEnvelopeV2.sol:LuckyRedEnvelopeV2",
								"label": "userTxNum",
								"offset": 0,
								"slot": "8",
								"type": "t_uint256"
							},
							{
								"astId": 960,
								"contract": "contracts/LuckyRedEnvelopeV2.sol:LuckyRedEnvelopeV2",
								"label": "injectAddrNum",
								"offset": 0,
								"slot": "9",
								"type": "t_uint256"
							},
							{
								"astId": 962,
								"contract": "contracts/LuckyRedEnvelopeV2.sol:LuckyRedEnvelopeV2",
								"label": "ticketPirce",
								"offset": 0,
								"slot": "10",
								"type": "t_uint256"
							},
							{
								"astId": 964,
								"contract": "contracts/LuckyRedEnvelopeV2.sol:LuckyRedEnvelopeV2",
								"label": "getTicketAddr",
								"offset": 0,
								"slot": "11",
								"type": "t_address"
							},
							{
								"astId": 966,
								"contract": "contracts/LuckyRedEnvelopeV2.sol:LuckyRedEnvelopeV2",
								"label": "secret",
								"offset": 0,
								"slot": "12",
								"type": "t_uint256"
							},
							{
								"astId": 968,
								"contract": "contracts/LuckyRedEnvelopeV2.sol:LuckyRedEnvelopeV2",
								"label": "autoClaim",
								"offset": 0,
								"slot": "13",
								"type": "t_bool"
							}
						],
						"numberOfBytes": "448"
					},
					"t_struct(Ticket)976_storage": {
						"encoding": "inplace",
						"label": "struct LuckyRedEnvelopeV2.Ticket",
						"members": [
							{
								"astId": 971,
								"contract": "contracts/LuckyRedEnvelopeV2.sol:LuckyRedEnvelopeV2",
								"label": "totalNumbers",
								"offset": 0,
								"slot": "0",
								"type": "t_uint256"
							},
							{
								"astId": 973,
								"contract": "contracts/LuckyRedEnvelopeV2.sol:LuckyRedEnvelopeV2",
								"label": "receiveAddress",
								"offset": 0,
								"slot": "1",
								"type": "t_address"
							},
							{
								"astId": 975,
								"contract": "contracts/LuckyRedEnvelopeV2.sol:LuckyRedEnvelopeV2",
								"label": "buy",
								"offset": 20,
								"slot": "1",
								"type": "t_bool"
							}
						],
						"numberOfBytes": "64"
					},
					"t_uint256": {
						"encoding": "inplace",
						"label": "uint256",
						"numberOfBytes": "32"
					}
				}
			},
			"userdoc": {
				"kind": "user",
				"methods": {
					"createRedEnvelope(uint256,uint256,uint256,uint256)": {
						"notice": "create the RedEnvelope，采用默认代币地址及配置，默认为仅支持buyTickets模式"
					},
					"createRedEnvelopeDetail(address,uint256,uint256,uint256,uint256,address,uint256,address,uint256,bool)": {
						"notice": "create the RedEnvelope"
					}
				},
				"version": 1
			}
		}
	}
}