{
	"contracts/DefaultTaskControl.sol": {
		"DefaultTaskControl": {
			"abi": [
				{
					"inputs": [
						{
							"internalType": "address",
							"name": "_redEnvelopeAddr",
							"type": "address"
						},
						{
							"internalType": "bool",
							"name": "_allowBuyTicket",
							"type": "bool"
						},
						{
							"internalType": "bool",
							"name": "_allowSendTicket",
							"type": "bool"
						}
					],
					"stateMutability": "nonpayable",
					"type": "constructor"
				},
				{
					"inputs": [
						{
							"internalType": "address",
							"name": "spender",
							"type": "address"
						},
						{
							"internalType": "uint256",
							"name": "allowance",
							"type": "uint256"
						},
						{
							"internalType": "uint256",
							"name": "needed",
							"type": "uint256"
						}
					],
					"name": "ERC20InsufficientAllowance",
					"type": "error"
				},
				{
					"inputs": [
						{
							"internalType": "address",
							"name": "sender",
							"type": "address"
						},
						{
							"internalType": "uint256",
							"name": "balance",
							"type": "uint256"
						},
						{
							"internalType": "uint256",
							"name": "needed",
							"type": "uint256"
						}
					],
					"name": "ERC20InsufficientBalance",
					"type": "error"
				},
				{
					"inputs": [
						{
							"internalType": "address",
							"name": "approver",
							"type": "address"
						}
					],
					"name": "ERC20InvalidApprover",
					"type": "error"
				},
				{
					"inputs": [
						{
							"internalType": "address",
							"name": "receiver",
							"type": "address"
						}
					],
					"name": "ERC20InvalidReceiver",
					"type": "error"
				},
				{
					"inputs": [
						{
							"internalType": "address",
							"name": "sender",
							"type": "address"
						}
					],
					"name": "ERC20InvalidSender",
					"type": "error"
				},
				{
					"inputs": [
						{
							"internalType": "address",
							"name": "spender",
							"type": "address"
						}
					],
					"name": "ERC20InvalidSpender",
					"type": "error"
				},
				{
					"inputs": [
						{
							"internalType": "address",
							"name": "owner",
							"type": "address"
						}
					],
					"name": "OwnableInvalidOwner",
					"type": "error"
				},
				{
					"inputs": [
						{
							"internalType": "address",
							"name": "account",
							"type": "address"
						}
					],
					"name": "OwnableUnauthorizedAccount",
					"type": "error"
				},
				{
					"inputs": [],
					"name": "ReentrancyGuardReentrantCall",
					"type": "error"
				},
				{
					"anonymous": false,
					"inputs": [
						{
							"indexed": true,
							"internalType": "address",
							"name": "owner",
							"type": "address"
						},
						{
							"indexed": true,
							"internalType": "address",
							"name": "spender",
							"type": "address"
						},
						{
							"indexed": false,
							"internalType": "uint256",
							"name": "value",
							"type": "uint256"
						}
					],
					"name": "Approval",
					"type": "event"
				},
				{
					"anonymous": false,
					"inputs": [
						{
							"indexed": true,
							"internalType": "address",
							"name": "previousOwner",
							"type": "address"
						},
						{
							"indexed": true,
							"internalType": "address",
							"name": "newOwner",
							"type": "address"
						}
					],
					"name": "OwnershipTransferred",
					"type": "event"
				},
				{
					"anonymous": false,
					"inputs": [
						{
							"indexed": false,
							"internalType": "address",
							"name": "taskAddr",
							"type": "address"
						},
						{
							"indexed": false,
							"internalType": "uint256",
							"name": "weight",
							"type": "uint256"
						}
					],
					"name": "TaskAdd",
					"type": "event"
				},
				{
					"anonymous": false,
					"inputs": [
						{
							"indexed": false,
							"internalType": "uint256",
							"name": "id",
							"type": "uint256"
						},
						{
							"indexed": false,
							"internalType": "address",
							"name": "fromAddress",
							"type": "address"
						},
						{
							"indexed": false,
							"internalType": "address",
							"name": "receiveAddress",
							"type": "address"
						},
						{
							"indexed": false,
							"internalType": "uint256",
							"name": "amount",
							"type": "uint256"
						},
						{
							"indexed": false,
							"internalType": "uint256",
							"name": "ticketNumbers",
							"type": "uint256"
						},
						{
							"indexed": false,
							"internalType": "bool",
							"name": "buy",
							"type": "bool"
						}
					],
					"name": "TicketGet",
					"type": "event"
				},
				{
					"anonymous": false,
					"inputs": [
						{
							"indexed": false,
							"internalType": "address",
							"name": "sender",
							"type": "address"
						},
						{
							"indexed": false,
							"internalType": "address",
							"name": "taskAddr",
							"type": "address"
						},
						{
							"indexed": false,
							"internalType": "address",
							"name": "receiveAddress",
							"type": "address"
						},
						{
							"indexed": false,
							"internalType": "uint256",
							"name": "amount",
							"type": "uint256"
						}
					],
					"name": "TokenMint",
					"type": "event"
				},
				{
					"anonymous": false,
					"inputs": [
						{
							"indexed": true,
							"internalType": "address",
							"name": "from",
							"type": "address"
						},
						{
							"indexed": true,
							"internalType": "address",
							"name": "to",
							"type": "address"
						},
						{
							"indexed": false,
							"internalType": "uint256",
							"name": "value",
							"type": "uint256"
						}
					],
					"name": "Transfer",
					"type": "event"
				},
				{
					"inputs": [],
					"name": "allowBuyTicket",
					"outputs": [
						{
							"internalType": "bool",
							"name": "",
							"type": "bool"
						}
					],
					"stateMutability": "view",
					"type": "function"
				},
				{
					"inputs": [],
					"name": "allowSendTicket",
					"outputs": [
						{
							"internalType": "bool",
							"name": "",
							"type": "bool"
						}
					],
					"stateMutability": "view",
					"type": "function"
				},
				{
					"inputs": [
						{
							"internalType": "address",
							"name": "owner",
							"type": "address"
						},
						{
							"internalType": "address",
							"name": "spender",
							"type": "address"
						}
					],
					"name": "allowance",
					"outputs": [
						{
							"internalType": "uint256",
							"name": "",
							"type": "uint256"
						}
					],
					"stateMutability": "view",
					"type": "function"
				},
				{
					"inputs": [
						{
							"internalType": "address",
							"name": "spender",
							"type": "address"
						},
						{
							"internalType": "uint256",
							"name": "value",
							"type": "uint256"
						}
					],
					"name": "approve",
					"outputs": [
						{
							"internalType": "bool",
							"name": "",
							"type": "bool"
						}
					],
					"stateMutability": "nonpayable",
					"type": "function"
				},
				{
					"inputs": [
						{
							"internalType": "address",
							"name": "account",
							"type": "address"
						}
					],
					"name": "balanceOf",
					"outputs": [
						{
							"internalType": "uint256",
							"name": "",
							"type": "uint256"
						}
					],
					"stateMutability": "view",
					"type": "function"
				},
				{
					"inputs": [
						{
							"internalType": "uint256",
							"name": "value",
							"type": "uint256"
						}
					],
					"name": "burn",
					"outputs": [],
					"stateMutability": "nonpayable",
					"type": "function"
				},
				{
					"inputs": [
						{
							"internalType": "address",
							"name": "account",
							"type": "address"
						},
						{
							"internalType": "uint256",
							"name": "value",
							"type": "uint256"
						}
					],
					"name": "burnFrom",
					"outputs": [],
					"stateMutability": "nonpayable",
					"type": "function"
				},
				{
					"inputs": [],
					"name": "decimals",
					"outputs": [
						{
							"internalType": "uint8",
							"name": "",
							"type": "uint8"
						}
					],
					"stateMutability": "view",
					"type": "function"
				},
				{
					"inputs": [
						{
							"internalType": "uint256",
							"name": "_id",
							"type": "uint256"
						},
						{
							"internalType": "address",
							"name": "_receiveAddress",
							"type": "address"
						},
						{
							"internalType": "uint256",
							"name": "_ticketNumbers",
							"type": "uint256"
						}
					],
					"name": "getTicket",
					"outputs": [],
					"stateMutability": "nonpayable",
					"type": "function"
				},
				{
					"inputs": [
						{
							"internalType": "uint256",
							"name": "_id",
							"type": "uint256"
						},
						{
							"internalType": "address",
							"name": "_fromAddress",
							"type": "address"
						},
						{
							"internalType": "address",
							"name": "_receiveAddress",
							"type": "address"
						},
						{
							"internalType": "uint256",
							"name": "_ticketNumbers",
							"type": "uint256"
						}
					],
					"name": "getTicketFrom",
					"outputs": [],
					"stateMutability": "nonpayable",
					"type": "function"
				},
				{
					"inputs": [
						{
							"internalType": "address",
							"name": "_taskAddr",
							"type": "address"
						},
						{
							"internalType": "address",
							"name": "_receiveAddress",
							"type": "address"
						},
						{
							"internalType": "bytes",
							"name": "_data",
							"type": "bytes"
						}
					],
					"name": "mintToken",
					"outputs": [],
					"stateMutability": "nonpayable",
					"type": "function"
				},
				{
					"inputs": [],
					"name": "name",
					"outputs": [
						{
							"internalType": "string",
							"name": "",
							"type": "string"
						}
					],
					"stateMutability": "view",
					"type": "function"
				},
				{
					"inputs": [],
					"name": "owner",
					"outputs": [
						{
							"internalType": "address",
							"name": "",
							"type": "address"
						}
					],
					"stateMutability": "view",
					"type": "function"
				},
				{
					"inputs": [],
					"name": "redEnvelopeAddr",
					"outputs": [
						{
							"internalType": "address",
							"name": "",
							"type": "address"
						}
					],
					"stateMutability": "view",
					"type": "function"
				},
				{
					"inputs": [],
					"name": "renounceOwnership",
					"outputs": [],
					"stateMutability": "nonpayable",
					"type": "function"
				},
				{
					"inputs": [
						{
							"internalType": "address",
							"name": "_taskAddr",
							"type": "address"
						},
						{
							"internalType": "uint256",
							"name": "_weight",
							"type": "uint256"
						}
					],
					"name": "setTask",
					"outputs": [],
					"stateMutability": "nonpayable",
					"type": "function"
				},
				{
					"inputs": [],
					"name": "symbol",
					"outputs": [
						{
							"internalType": "string",
							"name": "",
							"type": "string"
						}
					],
					"stateMutability": "view",
					"type": "function"
				},
				{
					"inputs": [],
					"name": "totalSupply",
					"outputs": [
						{
							"internalType": "uint256",
							"name": "",
							"type": "uint256"
						}
					],
					"stateMutability": "view",
					"type": "function"
				},
				{
					"inputs": [
						{
							"internalType": "address",
							"name": "to",
							"type": "address"
						},
						{
							"internalType": "uint256",
							"name": "value",
							"type": "uint256"
						}
					],
					"name": "transfer",
					"outputs": [
						{
							"internalType": "bool",
							"name": "",
							"type": "bool"
						}
					],
					"stateMutability": "nonpayable",
					"type": "function"
				},
				{
					"inputs": [
						{
							"internalType": "address",
							"name": "from",
							"type": "address"
						},
						{
							"internalType": "address",
							"name": "to",
							"type": "address"
						},
						{
							"internalType": "uint256",
							"name": "value",
							"type": "uint256"
						}
					],
					"name": "transferFrom",
					"outputs": [
						{
							"internalType": "bool",
							"name": "",
							"type": "bool"
						}
					],
					"stateMutability": "nonpayable",
					"type": "function"
				},
				{
					"inputs": [
						{
							"internalType": "address",
							"name": "newOwner",
							"type": "address"
						}
					],
					"name": "transferOwnership",
					"outputs": [],
					"stateMutability": "nonpayable",
					"type": "function"
				},
				{
					"inputs": [
						{
							"internalType": "address",
							"name": "_token",
							"type": "address"
						},
						{
							"internalType": "address",
							"name": "_to",
							"type": "address"
						},
						{
							"internalType": "uint256",
							"name": "_value",
							"type": "uint256"
						}
					],
					"name": "withdraw",
					"outputs": [],
					"stateMutability": "nonpayable",
					"type": "function"
				}
			],
			"devdoc": {
				"errors": {
					"ERC20InsufficientAllowance(address,uint256,uint256)": [
						{
							"details": "Indicates a failure with the `spender`’s `allowance`. Used in transfers.",
							"params": {
								"allowance": "Amount of tokens a `spender` is allowed to operate with.",
								"needed": "Minimum amount required to perform a transfer.",
								"spender": "Address that may be allowed to operate on tokens without being their owner."
							}
						}
					],
					"ERC20InsufficientBalance(address,uint256,uint256)": [
						{
							"details": "Indicates an error related to the current `balance` of a `sender`. Used in transfers.",
							"params": {
								"balance": "Current balance for the interacting account.",
								"needed": "Minimum amount required to perform a transfer.",
								"sender": "Address whose tokens are being transferred."
							}
						}
					],
					"ERC20InvalidApprover(address)": [
						{
							"details": "Indicates a failure with the `approver` of a token to be approved. Used in approvals.",
							"params": {
								"approver": "Address initiating an approval operation."
							}
						}
					],
					"ERC20InvalidReceiver(address)": [
						{
							"details": "Indicates a failure with the token `receiver`. Used in transfers.",
							"params": {
								"receiver": "Address to which tokens are being transferred."
							}
						}
					],
					"ERC20InvalidSender(address)": [
						{
							"details": "Indicates a failure with the token `sender`. Used in transfers.",
							"params": {
								"sender": "Address whose tokens are being transferred."
							}
						}
					],
					"ERC20InvalidSpender(address)": [
						{
							"details": "Indicates a failure with the `spender` to be approved. Used in approvals.",
							"params": {
								"spender": "Address that may be allowed to operate on tokens without being their owner."
							}
						}
					],
					"OwnableInvalidOwner(address)": [
						{
							"details": "The owner is not a valid owner account. (eg. `address(0)`)"
						}
					],
					"OwnableUnauthorizedAccount(address)": [
						{
							"details": "The caller account is not authorized to perform an operation."
						}
					],
					"ReentrancyGuardReentrantCall()": [
						{
							"details": "Unauthorized reentrant call."
						}
					]
				},
				"events": {
					"Approval(address,address,uint256)": {
						"details": "Emitted when the allowance of a `spender` for an `owner` is set by a call to {approve}. `value` is the new allowance."
					},
					"Transfer(address,address,uint256)": {
						"details": "Emitted when `value` tokens are moved from one account (`from`) to another (`to`). Note that `value` may be zero."
					}
				},
				"kind": "dev",
				"methods": {
					"allowance(address,address)": {
						"details": "See {IERC20-allowance}."
					},
					"approve(address,uint256)": {
						"details": "See {IERC20-approve}. NOTE: If `value` is the maximum `uint256`, the allowance is not updated on `transferFrom`. This is semantically equivalent to an infinite approval. Requirements: - `spender` cannot be the zero address."
					},
					"balanceOf(address)": {
						"details": "See {IERC20-balanceOf}."
					},
					"burn(uint256)": {
						"details": "Destroys a `value` amount of tokens from the caller. See {ERC20-_burn}."
					},
					"burnFrom(address,uint256)": {
						"details": "Destroys a `value` amount of tokens from `account`, deducting from the caller's allowance. See {ERC20-_burn} and {ERC20-allowance}. Requirements: - the caller must have allowance for ``accounts``'s tokens of at least `value`."
					},
					"decimals()": {
						"details": "Returns the number of decimals used to get its user representation. For example, if `decimals` equals `2`, a balance of `505` tokens should be displayed to a user as `5.05` (`505 / 10 ** 2`). Tokens usually opt for a value of 18, imitating the relationship between Ether and Wei. This is the default value returned by this function, unless it's overridden. NOTE: This information is only used for _display_ purposes: it in no way affects any of the arithmetic of the contract, including {IERC20-balanceOf} and {IERC20-transfer}."
					},
					"name()": {
						"details": "Returns the name of the token."
					},
					"owner()": {
						"details": "Returns the address of the current owner."
					},
					"renounceOwnership()": {
						"details": "Leaves the contract without owner. It will not be possible to call `onlyOwner` functions. Can only be called by the current owner. NOTE: Renouncing ownership will leave the contract without an owner, thereby disabling any functionality that is only available to the owner."
					},
					"symbol()": {
						"details": "Returns the symbol of the token, usually a shorter version of the name."
					},
					"totalSupply()": {
						"details": "See {IERC20-totalSupply}."
					},
					"transfer(address,uint256)": {
						"details": "See {IERC20-transfer}. Requirements: - `to` cannot be the zero address. - the caller must have a balance of at least `value`."
					},
					"transferFrom(address,address,uint256)": {
						"details": "See {IERC20-transferFrom}. Emits an {Approval} event indicating the updated allowance. This is not required by the EIP. See the note at the beginning of {ERC20}. NOTE: Does not update the allowance if the current allowance is the maximum `uint256`. Requirements: - `from` and `to` cannot be the zero address. - `from` must have a balance of at least `value`. - the caller must have allowance for ``from``'s tokens of at least `value`."
					},
					"transferOwnership(address)": {
						"details": "Transfers ownership of the contract to a new account (`newOwner`). Can only be called by the current owner."
					}
				},
				"version": 1
			},
			"evm": {
				"assembly": "    /* \"contracts/DefaultTaskControl.sol\":515:3996  contract DefaultTaskControl is ITaskControl,ERC20,ReentrancyGuard, ERC20Burnable, Ownable {... */\n  mstore(0x40, 0x80)\n    /* \"contracts/DefaultTaskControl.sol\":867:1267  constructor(address _redEnvelopeAddr,bool _allowBuyTicket,bool _allowSendTicket)... */\n  callvalue\n  dup1\n  iszero\n  tag_1\n  jumpi\n  0x00\n  dup1\n  revert\ntag_1:\n  pop\n  mload(0x40)\n  sub(codesize, bytecodeSize)\n  dup1\n  bytecodeSize\n  dup4\n  codecopy\n  dup2\n  add\n  0x40\n  dup2\n  swap1\n  mstore\n  tag_2\n  swap2\n  tag_3\n  jump\t// in\ntag_2:\n    /* \"contracts/DefaultTaskControl.sol\":1021:1031  msg.sender */\n  caller\n    /* \"@openzeppelin/contracts/token/ERC20/ERC20.sol\":1896:2009  constructor(string memory name_, string memory symbol_) {... */\n  mload(0x40)\n  dup1\n  0x40\n  add\n  0x40\n  mstore\n  dup1\n  0x0d\n  dup2\n  mstore\n  0x20\n  add\n  shl(0x9a, 0x1b1bdd1d195c9e551a58dad95d)\n  dup2\n  mstore\n  pop\n  mload(0x40)\n  dup1\n  0x40\n  add\n  0x40\n  mstore\n  dup1\n  0x06\n  dup2\n  mstore\n  0x20\n  add\n  shl(0xd2, 0x151a58dad95d)\n  dup2\n  mstore\n  pop\n    /* \"@openzeppelin/contracts/token/ERC20/ERC20.sol\":1970:1975  name_ */\n  dup2\n    /* \"@openzeppelin/contracts/token/ERC20/ERC20.sol\":1962:1967  _name */\n  0x03\n    /* \"@openzeppelin/contracts/token/ERC20/ERC20.sol\":1962:1975  _name = name_ */\n  swap1\n  dup2\n  tag_9\n  swap2\n  swap1\n  tag_10\n  jump\t// in\ntag_9:\n  pop\n    /* \"@openzeppelin/contracts/token/ERC20/ERC20.sol\":1985:1992  _symbol */\n  0x04\n    /* \"@openzeppelin/contracts/token/ERC20/ERC20.sol\":1985:2002  _symbol = symbol_ */\n  tag_11\n    /* \"@openzeppelin/contracts/token/ERC20/ERC20.sol\":1995:2002  symbol_ */\n  dup3\n    /* \"@openzeppelin/contracts/token/ERC20/ERC20.sol\":1985:1992  _symbol */\n  dup3\n    /* \"@openzeppelin/contracts/token/ERC20/ERC20.sol\":1985:2002  _symbol = symbol_ */\n  tag_10\n  jump\t// in\ntag_11:\n  pop\n  pop\n    /* \"@openzeppelin/contracts/utils/ReentrancyGuard.sol\":1713:1714  1 */\n  0x01\n    /* \"@openzeppelin/contracts/utils/ReentrancyGuard.sol\":1917:1924  _status */\n  0x05\n    /* \"@openzeppelin/contracts/utils/ReentrancyGuard.sol\":1917:1938  _status = NOT_ENTERED */\n  sstore\n  pop\n  sub(shl(0xa0, 0x01), 0x01)\n    /* \"@openzeppelin/contracts/access/Ownable.sol\":1273:1299  initialOwner == address(0) */\n  dup2\n  and\n    /* \"@openzeppelin/contracts/access/Ownable.sol\":1269:1364  if (initialOwner == address(0)) {... */\n  tag_14\n  jumpi\n    /* \"@openzeppelin/contracts/access/Ownable.sol\":1322:1353  OwnableInvalidOwner(address(0)) */\n  mload(0x40)\n  shl(0xe0, 0x1e4fbdf7)\n  dup2\n  mstore\n    /* \"@openzeppelin/contracts/access/Ownable.sol\":1350:1351  0 */\n  0x00\n    /* \"@openzeppelin/contracts/access/Ownable.sol\":1322:1353  OwnableInvalidOwner(address(0)) */\n  0x04\n  dup3\n  add\n    /* \"#utility.yul\":3469:3520   */\n  mstore\n    /* \"#utility.yul\":3442:3460   */\n  0x24\n  add\n    /* \"@openzeppelin/contracts/access/Ownable.sol\":1322:1353  OwnableInvalidOwner(address(0)) */\n  mload(0x40)\n  dup1\n  swap2\n  sub\n  swap1\n  revert\n    /* \"@openzeppelin/contracts/access/Ownable.sol\":1269:1364  if (initialOwner == address(0)) {... */\ntag_14:\n    /* \"@openzeppelin/contracts/access/Ownable.sol\":1373:1405  _transferOwnership(initialOwner) */\n  tag_17\n    /* \"@openzeppelin/contracts/access/Ownable.sol\":1392:1404  initialOwner */\n  dup2\n    /* \"@openzeppelin/contracts/access/Ownable.sol\":1373:1391  _transferOwnership */\n  tag_18\n    /* \"@openzeppelin/contracts/access/Ownable.sol\":1373:1405  _transferOwnership(initialOwner) */\n  jump\t// in\ntag_17:\n  pop\n    /* \"contracts/DefaultTaskControl.sol\":1115:1130  redEnvelopeAddr */\n  0x07\n    /* \"contracts/DefaultTaskControl.sol\":1115:1149  redEnvelopeAddr = _redEnvelopeAddr */\n  dup1\n  sload\n    /* \"contracts/DefaultTaskControl.sol\":1209:1243  allowSendTicket = _allowSendTicket */\n  swap2\n  iszero\n  iszero\n  shl(0xa8, 0x01)\n  mul\n  not(shl(0xa8, 0xff))\n    /* \"contracts/DefaultTaskControl.sol\":1163:1195  allowBuyTicket = _allowBuyTicket */\n  swap4\n  iszero\n  iszero\n  shl(0xa0, 0x01)\n  mul\n  not(sub(shl(0xa8, 0x01), 0x01))\n  swap1\n  swap4\n  and\n  sub(shl(0xa0, 0x01), 0x01)\n    /* \"contracts/DefaultTaskControl.sol\":1115:1149  redEnvelopeAddr = _redEnvelopeAddr */\n  swap1\n  swap6\n  and\n    /* \"contracts/DefaultTaskControl.sol\":1163:1195  allowBuyTicket = _allowBuyTicket */\n  swap5\n  swap1\n  swap5\n  or\n  swap2\n  swap1\n  swap2\n  or\n    /* \"contracts/DefaultTaskControl.sol\":1209:1243  allowSendTicket = _allowSendTicket */\n  swap2\n  swap1\n  swap2\n  and\n  swap2\n  swap1\n  swap2\n  or\n  swap1\n  sstore\n    /* \"contracts/DefaultTaskControl.sol\":515:3996  contract DefaultTaskControl is ITaskControl,ERC20,ReentrancyGuard, ERC20Burnable, Ownable {... */\n  jump(tag_28)\n    /* \"@openzeppelin/contracts/access/Ownable.sol\":2912:3099  function _transferOwnership(address newOwner) internal virtual {... */\ntag_18:\n    /* \"@openzeppelin/contracts/access/Ownable.sol\":3004:3010  _owner */\n  0x06\n  dup1\n  sload\n  sub(shl(0xa0, 0x01), 0x01)\n    /* \"@openzeppelin/contracts/access/Ownable.sol\":3020:3037  _owner = newOwner */\n  dup4\n  dup2\n  and\n  not(sub(shl(0xa0, 0x01), 0x01))\n  dup4\n  and\n  dup2\n  or\n  swap1\n  swap4\n  sstore\n    /* \"@openzeppelin/contracts/access/Ownable.sol\":3052:3092  OwnershipTransferred(oldOwner, newOwner) */\n  mload(0x40)\n    /* \"@openzeppelin/contracts/access/Ownable.sol\":3004:3010  _owner */\n  swap2\n  and\n  swap2\n    /* \"@openzeppelin/contracts/access/Ownable.sol\":3020:3037  _owner = newOwner */\n  swap1\n    /* \"@openzeppelin/contracts/access/Ownable.sol\":3004:3010  _owner */\n  dup3\n  swap1\n    /* \"@openzeppelin/contracts/access/Ownable.sol\":3052:3092  OwnershipTransferred(oldOwner, newOwner) */\n  0x8be0079c531659141344cd1fd0a4f28419497f9722a3daafe3b4186f6b6457e0\n  swap1\n    /* \"@openzeppelin/contracts/access/Ownable.sol\":2985:3001  address oldOwner */\n  0x00\n  swap1\n    /* \"@openzeppelin/contracts/access/Ownable.sol\":3052:3092  OwnershipTransferred(oldOwner, newOwner) */\n  log3\n    /* \"@openzeppelin/contracts/access/Ownable.sol\":2975:3099  {... */\n  pop\n    /* \"@openzeppelin/contracts/access/Ownable.sol\":2912:3099  function _transferOwnership(address newOwner) internal virtual {... */\n  pop\n  jump\t// out\n    /* \"#utility.yul\":14:178   */\ntag_22:\n    /* \"#utility.yul\":90:103   */\n  dup1\n  mload\n    /* \"#utility.yul\":139:152   */\n  dup1\n  iszero\n    /* \"#utility.yul\":132:153   */\n  iszero\n    /* \"#utility.yul\":122:154   */\n  dup2\n  eq\n    /* \"#utility.yul\":112:172   */\n  tag_30\n  jumpi\n    /* \"#utility.yul\":168:169   */\n  0x00\n    /* \"#utility.yul\":165:166   */\n  dup1\n    /* \"#utility.yul\":158:170   */\n  revert\n    /* \"#utility.yul\":112:172   */\ntag_30:\n    /* \"#utility.yul\":14:178   */\n  swap2\n  swap1\n  pop\n  jump\t// out\n    /* \"#utility.yul\":183:631   */\ntag_3:\n    /* \"#utility.yul\":265:271   */\n  0x00\n    /* \"#utility.yul\":273:279   */\n  dup1\n    /* \"#utility.yul\":281:287   */\n  0x00\n    /* \"#utility.yul\":334:336   */\n  0x60\n    /* \"#utility.yul\":322:331   */\n  dup5\n    /* \"#utility.yul\":313:320   */\n  dup7\n    /* \"#utility.yul\":309:332   */\n  sub\n    /* \"#utility.yul\":305:337   */\n  slt\n    /* \"#utility.yul\":302:354   */\n  iszero\n  tag_32\n  jumpi\n    /* \"#utility.yul\":350:351   */\n  0x00\n    /* \"#utility.yul\":347:348   */\n  dup1\n    /* \"#utility.yul\":340:352   */\n  revert\n    /* \"#utility.yul\":302:354   */\ntag_32:\n    /* \"#utility.yul\":376:392   */\n  dup4\n  mload\n  sub(shl(0xa0, 0x01), 0x01)\n    /* \"#utility.yul\":421:452   */\n  dup2\n  and\n    /* \"#utility.yul\":411:453   */\n  dup2\n  eq\n    /* \"#utility.yul\":401:471   */\n  tag_33\n  jumpi\n    /* \"#utility.yul\":467:468   */\n  0x00\n    /* \"#utility.yul\":464:465   */\n  dup1\n    /* \"#utility.yul\":457:469   */\n  revert\n    /* \"#utility.yul\":401:471   */\ntag_33:\n    /* \"#utility.yul\":490:495   */\n  swap3\n  pop\n    /* \"#utility.yul\":514:560   */\n  tag_34\n    /* \"#utility.yul\":556:558   */\n  0x20\n    /* \"#utility.yul\":541:559   */\n  dup6\n  add\n    /* \"#utility.yul\":514:560   */\n  tag_22\n  jump\t// in\ntag_34:\n    /* \"#utility.yul\":504:560   */\n  swap2\n  pop\n    /* \"#utility.yul\":579:625   */\n  tag_35\n    /* \"#utility.yul\":621:623   */\n  0x40\n    /* \"#utility.yul\":610:619   */\n  dup6\n    /* \"#utility.yul\":606:624   */\n  add\n    /* \"#utility.yul\":579:625   */\n  tag_22\n  jump\t// in\ntag_35:\n    /* \"#utility.yul\":569:625   */\n  swap1\n  pop\n    /* \"#utility.yul\":183:631   */\n  swap3\n  pop\n  swap3\n  pop\n  swap3\n  jump\t// out\n    /* \"#utility.yul\":636:763   */\ntag_23:\n    /* \"#utility.yul\":697:707   */\n  0x4e487b71\n    /* \"#utility.yul\":692:695   */\n  0xe0\n    /* \"#utility.yul\":688:708   */\n  shl\n    /* \"#utility.yul\":685:686   */\n  0x00\n    /* \"#utility.yul\":678:709   */\n  mstore\n    /* \"#utility.yul\":728:732   */\n  0x41\n    /* \"#utility.yul\":725:726   */\n  0x04\n    /* \"#utility.yul\":718:733   */\n  mstore\n    /* \"#utility.yul\":752:756   */\n  0x24\n    /* \"#utility.yul\":749:750   */\n  0x00\n    /* \"#utility.yul\":742:757   */\n  revert\n    /* \"#utility.yul\":768:1148   */\ntag_24:\n    /* \"#utility.yul\":847:848   */\n  0x01\n    /* \"#utility.yul\":843:855   */\n  dup2\n  dup2\n  shr\n  swap1\n    /* \"#utility.yul\":890:902   */\n  dup3\n  and\n  dup1\n    /* \"#utility.yul\":911:972   */\n  tag_38\n  jumpi\n    /* \"#utility.yul\":965:969   */\n  0x7f\n    /* \"#utility.yul\":957:963   */\n  dup3\n    /* \"#utility.yul\":953:970   */\n  and\n    /* \"#utility.yul\":943:970   */\n  swap2\n  pop\n    /* \"#utility.yul\":911:972   */\ntag_38:\n    /* \"#utility.yul\":1018:1020   */\n  0x20\n    /* \"#utility.yul\":1010:1016   */\n  dup3\n    /* \"#utility.yul\":1007:1021   */\n  lt\n    /* \"#utility.yul\":987:1005   */\n  dup2\n    /* \"#utility.yul\":984:1022   */\n  sub\n    /* \"#utility.yul\":981:1142   */\n  tag_39\n  jumpi\n    /* \"#utility.yul\":1064:1074   */\n  0x4e487b71\n    /* \"#utility.yul\":1059:1062   */\n  0xe0\n    /* \"#utility.yul\":1055:1075   */\n  shl\n    /* \"#utility.yul\":1052:1053   */\n  0x00\n    /* \"#utility.yul\":1045:1076   */\n  mstore\n    /* \"#utility.yul\":1099:1103   */\n  0x22\n    /* \"#utility.yul\":1096:1097   */\n  0x04\n    /* \"#utility.yul\":1089:1104   */\n  mstore\n    /* \"#utility.yul\":1127:1131   */\n  0x24\n    /* \"#utility.yul\":1124:1125   */\n  0x00\n    /* \"#utility.yul\":1117:1132   */\n  revert\n    /* \"#utility.yul\":981:1142   */\ntag_39:\n  pop\n    /* \"#utility.yul\":768:1148   */\n  swap2\n  swap1\n  pop\n  jump\t// out\n    /* \"#utility.yul\":1279:1797   */\ntag_26:\n    /* \"#utility.yul\":1381:1383   */\n  0x1f\n    /* \"#utility.yul\":1376:1379   */\n  dup3\n    /* \"#utility.yul\":1373:1384   */\n  gt\n    /* \"#utility.yul\":1370:1791   */\n  iszero\n  tag_42\n  jumpi\n    /* \"#utility.yul\":1417:1422   */\n  dup1\n    /* \"#utility.yul\":1414:1415   */\n  0x00\n    /* \"#utility.yul\":1407:1423   */\n  mstore\n    /* \"#utility.yul\":1461:1465   */\n  0x20\n    /* \"#utility.yul\":1458:1459   */\n  0x00\n    /* \"#utility.yul\":1448:1466   */\n  keccak256\n    /* \"#utility.yul\":1531:1533   */\n  0x1f\n    /* \"#utility.yul\":1519:1529   */\n  dup5\n    /* \"#utility.yul\":1515:1534   */\n  add\n    /* \"#utility.yul\":1512:1513   */\n  0x05\n    /* \"#utility.yul\":1508:1535   */\n  shr\n    /* \"#utility.yul\":1502:1506   */\n  dup2\n    /* \"#utility.yul\":1498:1536   */\n  add\n    /* \"#utility.yul\":1567:1571   */\n  0x20\n    /* \"#utility.yul\":1555:1565   */\n  dup6\n    /* \"#utility.yul\":1552:1572   */\n  lt\n    /* \"#utility.yul\":1549:1596   */\n  iszero\n  tag_43\n  jumpi\n  pop\n    /* \"#utility.yul\":1590:1594   */\n  dup1\n    /* \"#utility.yul\":1549:1596   */\ntag_43:\n    /* \"#utility.yul\":1645:1647   */\n  0x1f\n    /* \"#utility.yul\":1640:1643   */\n  dup5\n    /* \"#utility.yul\":1636:1648   */\n  add\n    /* \"#utility.yul\":1633:1634   */\n  0x05\n    /* \"#utility.yul\":1629:1649   */\n  shr\n    /* \"#utility.yul\":1623:1627   */\n  dup3\n    /* \"#utility.yul\":1619:1650   */\n  add\n    /* \"#utility.yul\":1609:1650   */\n  swap2\n  pop\n    /* \"#utility.yul\":1700:1781   */\ntag_44:\n    /* \"#utility.yul\":1718:1720   */\n  dup2\n    /* \"#utility.yul\":1711:1716   */\n  dup2\n    /* \"#utility.yul\":1708:1721   */\n  lt\n    /* \"#utility.yul\":1700:1781   */\n  iszero\n  tag_46\n  jumpi\n    /* \"#utility.yul\":1777:1778   */\n  0x00\n    /* \"#utility.yul\":1763:1779   */\n  dup2\n  sstore\n    /* \"#utility.yul\":1744:1745   */\n  0x01\n    /* \"#utility.yul\":1733:1746   */\n  add\n    /* \"#utility.yul\":1700:1781   */\n  jump(tag_44)\ntag_46:\n    /* \"#utility.yul\":1704:1707   */\n  pop\n  pop\n    /* \"#utility.yul\":1370:1791   */\ntag_42:\n    /* \"#utility.yul\":1279:1797   */\n  pop\n  pop\n  pop\n  jump\t// out\n    /* \"#utility.yul\":1973:3318   */\ntag_10:\n    /* \"#utility.yul\":2093:2103   */\n  dup2\n  mload\n  sub(shl(0x40, 0x01), 0x01)\n    /* \"#utility.yul\":2115:2145   */\n  dup2\n  gt\n    /* \"#utility.yul\":2112:2168   */\n  iszero\n  tag_50\n  jumpi\n    /* \"#utility.yul\":2148:2166   */\n  tag_50\n  tag_23\n  jump\t// in\ntag_50:\n    /* \"#utility.yul\":2177:2274   */\n  tag_51\n    /* \"#utility.yul\":2267:2273   */\n  dup2\n    /* \"#utility.yul\":2227:2265   */\n  tag_52\n    /* \"#utility.yul\":2259:2263   */\n  dup5\n    /* \"#utility.yul\":2253:2264   */\n  sload\n    /* \"#utility.yul\":2227:2265   */\n  tag_24\n  jump\t// in\ntag_52:\n    /* \"#utility.yul\":2221:2225   */\n  dup5\n    /* \"#utility.yul\":2177:2274   */\n  tag_26\n  jump\t// in\ntag_51:\n    /* \"#utility.yul\":2329:2333   */\n  0x20\n  dup1\n    /* \"#utility.yul\":2386:2388   */\n  0x1f\n    /* \"#utility.yul\":2375:2389   */\n  dup4\n  gt\n    /* \"#utility.yul\":2403:2404   */\n  0x01\n    /* \"#utility.yul\":2398:3061   */\n  dup2\n  eq\n  tag_54\n  jumpi\n    /* \"#utility.yul\":3105:3106   */\n  0x00\n    /* \"#utility.yul\":3122:3128   */\n  dup5\n    /* \"#utility.yul\":3119:3208   */\n  iszero\n  tag_55\n  jumpi\n  pop\n    /* \"#utility.yul\":3174:3193   */\n  dup6\n  dup4\n  add\n    /* \"#utility.yul\":3168:3194   */\n  mload\n    /* \"#utility.yul\":3119:3208   */\ntag_55:\n  not(0x00)\n    /* \"#utility.yul\":1930:1931   */\n  0x03\n    /* \"#utility.yul\":1926:1937   */\n  dup7\n  swap1\n  shl\n    /* \"#utility.yul\":1922:1946   */\n  shr\n    /* \"#utility.yul\":1918:1947   */\n  not\n    /* \"#utility.yul\":1908:1948   */\n  and\n    /* \"#utility.yul\":1954:1955   */\n  0x01\n    /* \"#utility.yul\":1950:1961   */\n  dup6\n  swap1\n  shl\n    /* \"#utility.yul\":1905:1962   */\n  or\n    /* \"#utility.yul\":3221:3302   */\n  dup6\n  sstore\n    /* \"#utility.yul\":2368:3312   */\n  jump(tag_53)\n    /* \"#utility.yul\":2398:3061   */\ntag_54:\n    /* \"#utility.yul\":1226:1227   */\n  0x00\n    /* \"#utility.yul\":1219:1233   */\n  dup6\n  dup2\n  mstore\n    /* \"#utility.yul\":1263:1267   */\n  0x20\n    /* \"#utility.yul\":1250:1268   */\n  dup2\n  keccak256\n  not(0x1f)\n    /* \"#utility.yul\":2434:2454   */\n  dup7\n  and\n  swap2\n    /* \"#utility.yul\":2552:2788   */\ntag_58:\n    /* \"#utility.yul\":2566:2573   */\n  dup3\n    /* \"#utility.yul\":2563:2564   */\n  dup2\n    /* \"#utility.yul\":2560:2574   */\n  lt\n    /* \"#utility.yul\":2552:2788   */\n  iszero\n  tag_60\n  jumpi\n    /* \"#utility.yul\":2655:2674   */\n  dup9\n  dup7\n  add\n    /* \"#utility.yul\":2649:2675   */\n  mload\n    /* \"#utility.yul\":2634:2676   */\n  dup3\n  sstore\n    /* \"#utility.yul\":2747:2774   */\n  swap5\n  dup5\n  add\n  swap5\n    /* \"#utility.yul\":2715:2716   */\n  0x01\n    /* \"#utility.yul\":2703:2717   */\n  swap1\n  swap2\n  add\n  swap1\n    /* \"#utility.yul\":2582:2601   */\n  dup5\n  add\n    /* \"#utility.yul\":2552:2788   */\n  jump(tag_58)\ntag_60:\n    /* \"#utility.yul\":2556:2559   */\n  pop\n    /* \"#utility.yul\":2816:2822   */\n  dup6\n    /* \"#utility.yul\":2807:2814   */\n  dup3\n    /* \"#utility.yul\":2804:2823   */\n  lt\n    /* \"#utility.yul\":2801:3002   */\n  iszero\n  tag_61\n  jumpi\n    /* \"#utility.yul\":2877:2896   */\n  dup8\n  dup6\n  add\n    /* \"#utility.yul\":2871:2897   */\n  mload\n  not(0x00)\n    /* \"#utility.yul\":2960:2961   */\n  0x03\n    /* \"#utility.yul\":2956:2970   */\n  dup9\n  swap1\n  shl\n    /* \"#utility.yul\":2972:2975   */\n  0xf8\n    /* \"#utility.yul\":2952:2976   */\n  and\n    /* \"#utility.yul\":2948:2985   */\n  shr\n    /* \"#utility.yul\":2944:2986   */\n  not\n    /* \"#utility.yul\":2929:2987   */\n  and\n    /* \"#utility.yul\":2914:2988   */\n  dup2\n  sstore\n    /* \"#utility.yul\":2801:3002   */\ntag_61:\n  pop\n  pop\n    /* \"#utility.yul\":3048:3049   */\n  0x01\n    /* \"#utility.yul\":3039:3045   */\n  dup5\n    /* \"#utility.yul\":3036:3037   */\n  0x01\n    /* \"#utility.yul\":3032:3046   */\n  shl\n    /* \"#utility.yul\":3028:3050   */\n  add\n    /* \"#utility.yul\":3022:3026   */\n  dup6\n    /* \"#utility.yul\":3015:3051   */\n  sstore\n    /* \"#utility.yul\":2368:3312   */\ntag_53:\n  pop\n  pop\n  pop\n  pop\n    /* \"#utility.yul\":1973:3318   */\n  pop\n  pop\n  jump\t// out\n    /* \"#utility.yul\":3323:3526   */\ntag_28:\n    /* \"contracts/DefaultTaskControl.sol\":515:3996  contract DefaultTaskControl is ITaskControl,ERC20,ReentrancyGuard, ERC20Burnable, Ownable {... */\n  dataSize(sub_0)\n  dup1\n  dataOffset(sub_0)\n  0x00\n  codecopy\n  0x00\n  return\nstop\n\nsub_0: assembly {\n        /* \"contracts/DefaultTaskControl.sol\":515:3996  contract DefaultTaskControl is ITaskControl,ERC20,ReentrancyGuard, ERC20Burnable, Ownable {... */\n      mstore(0x40, 0x80)\n      callvalue\n      dup1\n      iszero\n      tag_1\n      jumpi\n      0x00\n      dup1\n      revert\n    tag_1:\n      pop\n      jumpi(tag_2, lt(calldatasize, 0x04))\n      shr(0xe0, calldataload(0x00))\n      dup1\n      0x715018a6\n      gt\n      tag_25\n      jumpi\n      dup1\n      0xb4309a9c\n      gt\n      tag_26\n      jumpi\n      dup1\n      0xb4309a9c\n      eq\n      tag_19\n      jumpi\n      dup1\n      0xc7ff23bb\n      eq\n      tag_20\n      jumpi\n      dup1\n      0xd896fc10\n      eq\n      tag_21\n      jumpi\n      dup1\n      0xd9caed12\n      eq\n      tag_22\n      jumpi\n      dup1\n      0xdd62ed3e\n      eq\n      tag_23\n      jumpi\n      dup1\n      0xf2fde38b\n      eq\n      tag_24\n      jumpi\n      0x00\n      dup1\n      revert\n    tag_26:\n      dup1\n      0x715018a6\n      eq\n      tag_14\n      jumpi\n      dup1\n      0x79cc6790\n      eq\n      tag_15\n      jumpi\n      dup1\n      0x8da5cb5b\n      eq\n      tag_16\n      jumpi\n      dup1\n      0x95d89b41\n      eq\n      tag_17\n      jumpi\n      dup1\n      0xa9059cbb\n      eq\n      tag_18\n      jumpi\n      0x00\n      dup1\n      revert\n    tag_25:\n      dup1\n      0x18160ddd\n      gt\n      tag_27\n      jumpi\n      dup1\n      0x18160ddd\n      eq\n      tag_8\n      jumpi\n      dup1\n      0x23b872dd\n      eq\n      tag_9\n      jumpi\n      dup1\n      0x313ce567\n      eq\n      tag_10\n      jumpi\n      dup1\n      0x42966c68\n      eq\n      tag_11\n      jumpi\n      dup1\n      0x6ebd327b\n      eq\n      tag_12\n      jumpi\n      dup1\n      0x70a08231\n      eq\n      tag_13\n      jumpi\n      0x00\n      dup1\n      revert\n    tag_27:\n      dup1\n      0x012c911e\n      eq\n      tag_3\n      jumpi\n      dup1\n      0x06e2a29a\n      eq\n      tag_4\n      jumpi\n      dup1\n      0x06fdde03\n      eq\n      tag_5\n      jumpi\n      dup1\n      0x082921a5\n      eq\n      tag_6\n      jumpi\n      dup1\n      0x095ea7b3\n      eq\n      tag_7\n      jumpi\n    tag_2:\n      0x00\n      dup1\n      revert\n        /* \"contracts/DefaultTaskControl.sol\":3058:3412  function getTicket(uint256 _id,address _receiveAddress,uint256 _ticketNumbers)external{... */\n    tag_3:\n      tag_28\n      tag_29\n      calldatasize\n      0x04\n      tag_30\n      jump\t// in\n    tag_29:\n      tag_31\n      jump\t// in\n    tag_28:\n      stop\n        /* \"contracts/DefaultTaskControl.sol\":691:718  bool public allowSendTicket */\n    tag_4:\n      sload(0x07)\n      tag_32\n      swap1\n      shl(0xa8, 0x01)\n      swap1\n      div\n      0xff\n      and\n      dup2\n      jump\n    tag_32:\n      mload(0x40)\n        /* \"#utility.yul\":703:717   */\n      swap1\n      iszero\n        /* \"#utility.yul\":696:718   */\n      iszero\n        /* \"#utility.yul\":678:719   */\n      dup2\n      mstore\n        /* \"#utility.yul\":666:668   */\n      0x20\n        /* \"#utility.yul\":651:669   */\n      add\n        /* \"contracts/DefaultTaskControl.sol\":691:718  bool public allowSendTicket */\n    tag_34:\n      mload(0x40)\n      dup1\n      swap2\n      sub\n      swap1\n      return\n        /* \"@openzeppelin/contracts/token/ERC20/ERC20.sol\":2074:2163  function name() public view virtual returns (string memory) {... */\n    tag_5:\n      tag_36\n      tag_37\n      jump\t// in\n    tag_36:\n      mload(0x40)\n      tag_34\n      swap2\n      swap1\n      tag_39\n      jump\t// in\n        /* \"contracts/DefaultTaskControl.sol\":1470:1637  function setTask(address _taskAddr,uint256 _weight)external onlyOwner{... */\n    tag_6:\n      tag_28\n      tag_41\n      calldatasize\n      0x04\n      tag_42\n      jump\t// in\n    tag_41:\n      tag_43\n      jump\t// in\n        /* \"@openzeppelin/contracts/token/ERC20/ERC20.sol\":4293:4479  function approve(address spender, uint256 value) public virtual returns (bool) {... */\n    tag_7:\n      tag_32\n      tag_45\n      calldatasize\n      0x04\n      tag_42\n      jump\t// in\n    tag_45:\n      tag_46\n      jump\t// in\n        /* \"@openzeppelin/contracts/token/ERC20/ERC20.sol\":3144:3241  function totalSupply() public view virtual returns (uint256) {... */\n    tag_8:\n        /* \"@openzeppelin/contracts/token/ERC20/ERC20.sol\":3222:3234  _totalSupply */\n      sload(0x02)\n        /* \"@openzeppelin/contracts/token/ERC20/ERC20.sol\":3144:3241  function totalSupply() public view virtual returns (uint256) {... */\n    tag_48:\n      mload(0x40)\n        /* \"#utility.yul\":1619:1644   */\n      swap1\n      dup2\n      mstore\n        /* \"#utility.yul\":1607:1609   */\n      0x20\n        /* \"#utility.yul\":1592:1610   */\n      add\n        /* \"@openzeppelin/contracts/token/ERC20/ERC20.sol\":3144:3241  function totalSupply() public view virtual returns (uint256) {... */\n      tag_34\n        /* \"#utility.yul\":1473:1650   */\n      jump\n        /* \"@openzeppelin/contracts/token/ERC20/ERC20.sol\":5039:5283  function transferFrom(address from, address to, uint256 value) public virtual returns (bool) {... */\n    tag_9:\n      tag_32\n      tag_53\n      calldatasize\n      0x04\n      tag_54\n      jump\t// in\n    tag_53:\n      tag_55\n      jump\t// in\n        /* \"@openzeppelin/contracts/token/ERC20/ERC20.sol\":3002:3084  function decimals() public view virtual returns (uint8) {... */\n    tag_10:\n      mload(0x40)\n        /* \"@openzeppelin/contracts/token/ERC20/ERC20.sol\":3075:3077  18 */\n      0x12\n        /* \"#utility.yul\":2258:2294   */\n      dup2\n      mstore\n        /* \"#utility.yul\":2246:2248   */\n      0x20\n        /* \"#utility.yul\":2231:2249   */\n      add\n        /* \"@openzeppelin/contracts/token/ERC20/ERC20.sol\":3002:3084  function decimals() public view virtual returns (uint8) {... */\n      tag_34\n        /* \"#utility.yul\":2116:2300   */\n      jump\n        /* \"@openzeppelin/contracts/token/ERC20/extensions/ERC20Burnable.sol\":618:705  function burn(uint256 value) public virtual {... */\n    tag_11:\n      tag_28\n      tag_62\n      calldatasize\n      0x04\n      tag_63\n      jump\t// in\n    tag_62:\n      tag_64\n      jump\t// in\n        /* \"contracts/DefaultTaskControl.sol\":3421:3810  function getTicketFrom(uint256 _id,address _fromAddress,address _receiveAddress,uint256 _ticketNumbers)external{... */\n    tag_12:\n      tag_28\n      tag_66\n      calldatasize\n      0x04\n      tag_67\n      jump\t// in\n    tag_66:\n      tag_68\n      jump\t// in\n        /* \"@openzeppelin/contracts/token/ERC20/ERC20.sol\":3299:3415  function balanceOf(address account) public view virtual returns (uint256) {... */\n    tag_13:\n      tag_48\n      tag_70\n      calldatasize\n      0x04\n      tag_71\n      jump\t// in\n    tag_70:\n      sub(shl(0xa0, 0x01), 0x01)\n        /* \"@openzeppelin/contracts/token/ERC20/ERC20.sol\":3390:3408  _balances[account] */\n      and\n        /* \"@openzeppelin/contracts/token/ERC20/ERC20.sol\":3364:3371  uint256 */\n      0x00\n        /* \"@openzeppelin/contracts/token/ERC20/ERC20.sol\":3390:3408  _balances[account] */\n      swap1\n      dup2\n      mstore\n      0x20\n      dup2\n      swap1\n      mstore\n      0x40\n      swap1\n      keccak256\n      sload\n      swap1\n        /* \"@openzeppelin/contracts/token/ERC20/ERC20.sol\":3299:3415  function balanceOf(address account) public view virtual returns (uint256) {... */\n      jump\n        /* \"@openzeppelin/contracts/access/Ownable.sol\":2293:2394  function renounceOwnership() public virtual onlyOwner {... */\n    tag_14:\n      tag_28\n      tag_75\n      jump\t// in\n        /* \"@openzeppelin/contracts/token/ERC20/extensions/ERC20Burnable.sol\":1021:1179  function burnFrom(address account, uint256 value) public virtual {... */\n    tag_15:\n      tag_28\n      tag_77\n      calldatasize\n      0x04\n      tag_42\n      jump\t// in\n    tag_77:\n      tag_78\n      jump\t// in\n        /* \"@openzeppelin/contracts/access/Ownable.sol\":1638:1723  function owner() public view virtual returns (address) {... */\n    tag_16:\n        /* \"@openzeppelin/contracts/access/Ownable.sol\":1710:1716  _owner */\n      and(sub(shl(0xa0, 0x01), 0x01), sload(0x06))\n        /* \"@openzeppelin/contracts/access/Ownable.sol\":1638:1723  function owner() public view virtual returns (address) {... */\n    tag_79:\n      mload(0x40)\n      sub(shl(0xa0, 0x01), 0x01)\n        /* \"#utility.yul\":3436:3468   */\n      swap1\n      swap2\n      and\n        /* \"#utility.yul\":3418:3469   */\n      dup2\n      mstore\n        /* \"#utility.yul\":3406:3408   */\n      0x20\n        /* \"#utility.yul\":3391:3409   */\n      add\n        /* \"@openzeppelin/contracts/access/Ownable.sol\":1638:1723  function owner() public view virtual returns (address) {... */\n      tag_34\n        /* \"#utility.yul\":3272:3475   */\n      jump\n        /* \"@openzeppelin/contracts/token/ERC20/ERC20.sol\":2276:2369  function symbol() public view virtual returns (string memory) {... */\n    tag_17:\n      tag_36\n      tag_84\n      jump\t// in\n        /* \"@openzeppelin/contracts/token/ERC20/ERC20.sol\":3610:3788  function transfer(address to, uint256 value) public virtual returns (bool) {... */\n    tag_18:\n      tag_32\n      tag_87\n      calldatasize\n      0x04\n      tag_42\n      jump\t// in\n    tag_87:\n      tag_88\n      jump\t// in\n        /* \"contracts/DefaultTaskControl.sol\":655:681  bool public allowBuyTicket */\n    tag_19:\n      sload(0x07)\n      tag_32\n      swap1\n      shl(0xa0, 0x01)\n      swap1\n      div\n      0xff\n      and\n      dup2\n      jump\n        /* \"contracts/DefaultTaskControl.sol\":615:645  address public redEnvelopeAddr */\n    tag_20:\n      sload(0x07)\n      tag_79\n      swap1\n      sub(shl(0xa0, 0x01), 0x01)\n      and\n      dup2\n      jump\n        /* \"contracts/DefaultTaskControl.sol\":1648:2122  function mintToken(address _taskAddr,address _receiveAddress,bytes calldata _data) external nonReentrant{... */\n    tag_21:\n      tag_28\n      tag_97\n      calldatasize\n      0x04\n      tag_98\n      jump\t// in\n    tag_97:\n      tag_99\n      jump\t// in\n        /* \"contracts/DefaultTaskControl.sol\":3852:3990  function withdraw(address _token,address _to,uint256 _value)external onlyOwner{... */\n    tag_22:\n      tag_28\n      tag_101\n      calldatasize\n      0x04\n      tag_54\n      jump\t// in\n    tag_101:\n      tag_102\n      jump\t// in\n        /* \"@openzeppelin/contracts/token/ERC20/ERC20.sol\":3846:3986  function allowance(address owner, address spender) public view virtual returns (uint256) {... */\n    tag_23:\n      tag_48\n      tag_104\n      calldatasize\n      0x04\n      tag_105\n      jump\t// in\n    tag_104:\n      sub(shl(0xa0, 0x01), 0x01)\n        /* \"@openzeppelin/contracts/token/ERC20/ERC20.sol\":3952:3970  _allowances[owner] */\n      swap2\n      dup3\n      and\n        /* \"@openzeppelin/contracts/token/ERC20/ERC20.sol\":3926:3933  uint256 */\n      0x00\n        /* \"@openzeppelin/contracts/token/ERC20/ERC20.sol\":3952:3970  _allowances[owner] */\n      swap1\n      dup2\n      mstore\n        /* \"@openzeppelin/contracts/token/ERC20/ERC20.sol\":3952:3963  _allowances */\n      0x01\n        /* \"@openzeppelin/contracts/token/ERC20/ERC20.sol\":3952:3970  _allowances[owner] */\n      0x20\n      swap1\n      dup2\n      mstore\n      0x40\n      dup1\n      dup4\n      keccak256\n        /* \"@openzeppelin/contracts/token/ERC20/ERC20.sol\":3952:3979  _allowances[owner][spender] */\n      swap4\n      swap1\n      swap5\n      and\n      dup3\n      mstore\n      swap2\n      swap1\n      swap2\n      mstore\n      keccak256\n      sload\n      swap1\n        /* \"@openzeppelin/contracts/token/ERC20/ERC20.sol\":3846:3986  function allowance(address owner, address spender) public view virtual returns (uint256) {... */\n      jump\n        /* \"@openzeppelin/contracts/access/Ownable.sol\":2543:2758  function transferOwnership(address newOwner) public virtual onlyOwner {... */\n    tag_24:\n      tag_28\n      tag_109\n      calldatasize\n      0x04\n      tag_71\n      jump\t// in\n    tag_109:\n      tag_110\n      jump\t// in\n        /* \"contracts/DefaultTaskControl.sol\":3058:3412  function getTicket(uint256 _id,address _receiveAddress,uint256 _ticketNumbers)external{... */\n    tag_31:\n        /* \"contracts/DefaultTaskControl.sol\":3158:3172  uint256 amount */\n      0x00\n        /* \"contracts/DefaultTaskControl.sol\":3192:3208  10 ** decimals() */\n      tag_113\n        /* \"@openzeppelin/contracts/token/ERC20/ERC20.sol\":3075:3077  18 */\n      0x12\n        /* \"contracts/DefaultTaskControl.sol\":3192:3194  10 */\n      0x0a\n        /* \"contracts/DefaultTaskControl.sol\":3192:3208  10 ** decimals() */\n      tag_114\n      jump\t// in\n    tag_113:\n        /* \"contracts/DefaultTaskControl.sol\":3175:3208  _ticketNumbers * 10 ** decimals() */\n      tag_115\n      swap1\n        /* \"contracts/DefaultTaskControl.sol\":3175:3189  _ticketNumbers */\n      dup4\n        /* \"contracts/DefaultTaskControl.sol\":3175:3208  _ticketNumbers * 10 ** decimals() */\n      tag_116\n      jump\t// in\n    tag_115:\n        /* \"contracts/DefaultTaskControl.sol\":3158:3208  uint256 amount = _ticketNumbers * 10 ** decimals() */\n      swap1\n      pop\n        /* \"contracts/DefaultTaskControl.sol\":3222:3234  burn(amount) */\n      tag_117\n        /* \"contracts/DefaultTaskControl.sol\":3227:3233  amount */\n      dup2\n        /* \"contracts/DefaultTaskControl.sol\":3222:3226  burn */\n      tag_64\n        /* \"contracts/DefaultTaskControl.sol\":3222:3234  burn(amount) */\n      jump\t// in\n    tag_117:\n        /* \"contracts/DefaultTaskControl.sol\":3248:3256  bool buy */\n      0x00\n        /* \"contracts/DefaultTaskControl.sol\":3259:3305  _getTicket(_id,_receiveAddress,_ticketNumbers) */\n      tag_118\n        /* \"contracts/DefaultTaskControl.sol\":3270:3273  _id */\n      dup6\n        /* \"contracts/DefaultTaskControl.sol\":3274:3289  _receiveAddress */\n      dup6\n        /* \"contracts/DefaultTaskControl.sol\":3290:3304  _ticketNumbers */\n      dup6\n        /* \"contracts/DefaultTaskControl.sol\":3259:3269  _getTicket */\n      tag_119\n        /* \"contracts/DefaultTaskControl.sol\":3259:3305  _getTicket(_id,_receiveAddress,_ticketNumbers) */\n      jump\t// in\n    tag_118:\n        /* \"contracts/DefaultTaskControl.sol\":3325:3401  TicketGet(_id,address(msg.sender),_receiveAddress,amount,_ticketNumbers,buy) */\n      0x40\n      dup1\n      mload\n        /* \"#utility.yul\":6708:6733   */\n      dup8\n      dup2\n      mstore\n        /* \"contracts/DefaultTaskControl.sol\":3347:3357  msg.sender */\n      caller\n        /* \"#utility.yul\":6802:6804   */\n      0x20\n        /* \"#utility.yul\":6787:6805   */\n      dup3\n      add\n        /* \"#utility.yul\":6780:6823   */\n      mstore\n      sub(shl(0xa0, 0x01), 0x01)\n        /* \"#utility.yul\":6859:6874   */\n      dup8\n      and\n        /* \"#utility.yul\":6839:6857   */\n      dup2\n      dup4\n      add\n        /* \"#utility.yul\":6832:6875   */\n      mstore\n        /* \"#utility.yul\":6906:6908   */\n      0x60\n        /* \"#utility.yul\":6891:6909   */\n      dup2\n      add\n        /* \"#utility.yul\":6884:6918   */\n      dup6\n      swap1\n      mstore\n        /* \"#utility.yul\":6949:6952   */\n      0x80\n        /* \"#utility.yul\":6934:6953   */\n      dup2\n      add\n        /* \"#utility.yul\":6927:6962   */\n      dup7\n      swap1\n      mstore\n        /* \"#utility.yul\":7006:7020   */\n      dup3\n      iszero\n        /* \"#utility.yul\":6999:7021   */\n      iszero\n        /* \"#utility.yul\":6760:6763   */\n      0xa0\n        /* \"#utility.yul\":6978:6997   */\n      dup3\n      add\n        /* \"#utility.yul\":6971:7022   */\n      mstore\n        /* \"contracts/DefaultTaskControl.sol\":3325:3401  TicketGet(_id,address(msg.sender),_receiveAddress,amount,_ticketNumbers,buy) */\n      swap1\n      mload\n        /* \"#utility.yul\":7006:7020   */\n      swap2\n      swap3\n      pop\n        /* \"contracts/DefaultTaskControl.sol\":3325:3401  TicketGet(_id,address(msg.sender),_receiveAddress,amount,_ticketNumbers,buy) */\n      0xebc14ddbdd1e1ebc5a287d8957bd1ca84faef18f192f27829b8459fd15f5195d\n      swap2\n      swap1\n      dup2\n      swap1\n      sub\n        /* \"#utility.yul\":6695:6698   */\n      0xc0\n        /* \"contracts/DefaultTaskControl.sol\":3325:3401  TicketGet(_id,address(msg.sender),_receiveAddress,amount,_ticketNumbers,buy) */\n      add\n      swap1\n      log1\n        /* \"contracts/DefaultTaskControl.sol\":3144:3412  {... */\n      pop\n      pop\n        /* \"contracts/DefaultTaskControl.sol\":3058:3412  function getTicket(uint256 _id,address _receiveAddress,uint256 _ticketNumbers)external{... */\n      pop\n      pop\n      pop\n      jump\t// out\n        /* \"@openzeppelin/contracts/token/ERC20/ERC20.sol\":2074:2163  function name() public view virtual returns (string memory) {... */\n    tag_37:\n        /* \"@openzeppelin/contracts/token/ERC20/ERC20.sol\":2119:2132  string memory */\n      0x60\n        /* \"@openzeppelin/contracts/token/ERC20/ERC20.sol\":2151:2156  _name */\n      0x03\n        /* \"@openzeppelin/contracts/token/ERC20/ERC20.sol\":2144:2156  return _name */\n      dup1\n      sload\n      tag_123\n      swap1\n      tag_124\n      jump\t// in\n    tag_123:\n      dup1\n      0x1f\n      add\n      0x20\n      dup1\n      swap2\n      div\n      mul\n      0x20\n      add\n      mload(0x40)\n      swap1\n      dup2\n      add\n      0x40\n      mstore\n      dup1\n      swap3\n      swap2\n      swap1\n      dup2\n      dup2\n      mstore\n      0x20\n      add\n      dup3\n      dup1\n      sload\n      tag_125\n      swap1\n      tag_124\n      jump\t// in\n    tag_125:\n      dup1\n      iszero\n      tag_126\n      jumpi\n      dup1\n      0x1f\n      lt\n      tag_127\n      jumpi\n      0x0100\n      dup1\n      dup4\n      sload\n      div\n      mul\n      dup4\n      mstore\n      swap2\n      0x20\n      add\n      swap2\n      jump(tag_126)\n    tag_127:\n      dup3\n      add\n      swap2\n      swap1\n      0x00\n      mstore\n      keccak256(0x00, 0x20)\n      swap1\n    tag_128:\n      dup2\n      sload\n      dup2\n      mstore\n      swap1\n      0x01\n      add\n      swap1\n      0x20\n      add\n      dup1\n      dup4\n      gt\n      tag_128\n      jumpi\n      dup3\n      swap1\n      sub\n      0x1f\n      and\n      dup3\n      add\n      swap2\n    tag_126:\n      pop\n      pop\n      pop\n      pop\n      pop\n      swap1\n      pop\n        /* \"@openzeppelin/contracts/token/ERC20/ERC20.sol\":2074:2163  function name() public view virtual returns (string memory) {... */\n      swap1\n      jump\t// out\n        /* \"contracts/DefaultTaskControl.sol\":1470:1637  function setTask(address _taskAddr,uint256 _weight)external onlyOwner{... */\n    tag_43:\n        /* \"@openzeppelin/contracts/access/Ownable.sol\":1531:1544  _checkOwner() */\n      tag_130\n        /* \"@openzeppelin/contracts/access/Ownable.sol\":1531:1542  _checkOwner */\n      tag_131\n        /* \"@openzeppelin/contracts/access/Ownable.sol\":1531:1544  _checkOwner() */\n      jump\t// in\n    tag_130:\n      sub(shl(0xa0, 0x01), 0x01)\n        /* \"contracts/DefaultTaskControl.sol\":1553:1570  _tasks[_taskAddr] */\n      dup3\n      and\n      0x00\n      dup2\n      dup2\n      mstore\n        /* \"contracts/DefaultTaskControl.sol\":1553:1559  _tasks */\n      0x08\n        /* \"contracts/DefaultTaskControl.sol\":1553:1570  _tasks[_taskAddr] */\n      0x20\n      swap1\n      dup2\n      mstore\n      0x40\n      swap2\n      dup3\n      swap1\n      keccak256\n        /* \"contracts/DefaultTaskControl.sol\":1553:1580  _tasks[_taskAddr] = _weight */\n      dup5\n      swap1\n      sstore\n        /* \"contracts/DefaultTaskControl.sol\":1599:1626  TaskAdd(_taskAddr, _weight) */\n      dup2\n      mload\n        /* \"#utility.yul\":7592:7643   */\n      swap3\n      dup4\n      mstore\n        /* \"#utility.yul\":7659:7677   */\n      dup3\n      add\n        /* \"#utility.yul\":7652:7686   */\n      dup4\n      swap1\n      mstore\n        /* \"contracts/DefaultTaskControl.sol\":1599:1626  TaskAdd(_taskAddr, _weight) */\n      0xd7d0cdf0b13669cab92566615f9093d52f6d2c34cc92561e500dddd3ae918de8\n      swap2\n        /* \"#utility.yul\":7565:7583   */\n      add\n        /* \"contracts/DefaultTaskControl.sol\":1599:1626  TaskAdd(_taskAddr, _weight) */\n      mload(0x40)\n      dup1\n      swap2\n      sub\n      swap1\n      log1\n        /* \"contracts/DefaultTaskControl.sol\":1470:1637  function setTask(address _taskAddr,uint256 _weight)external onlyOwner{... */\n      pop\n      pop\n      jump\t// out\n        /* \"@openzeppelin/contracts/token/ERC20/ERC20.sol\":4293:4479  function approve(address spender, uint256 value) public virtual returns (bool) {... */\n    tag_46:\n        /* \"@openzeppelin/contracts/token/ERC20/ERC20.sol\":4366:4370  bool */\n      0x00\n        /* \"@openzeppelin/contracts/utils/Context.sol\":735:745  msg.sender */\n      caller\n        /* \"@openzeppelin/contracts/token/ERC20/ERC20.sol\":4420:4451  _approve(owner, spender, value) */\n      tag_138\n        /* \"@openzeppelin/contracts/utils/Context.sol\":735:745  msg.sender */\n      dup2\n        /* \"@openzeppelin/contracts/token/ERC20/ERC20.sol\":4436:4443  spender */\n      dup6\n        /* \"@openzeppelin/contracts/token/ERC20/ERC20.sol\":4445:4450  value */\n      dup6\n        /* \"@openzeppelin/contracts/token/ERC20/ERC20.sol\":4420:4428  _approve */\n      tag_139\n        /* \"@openzeppelin/contracts/token/ERC20/ERC20.sol\":4420:4451  _approve(owner, spender, value) */\n      jump\t// in\n    tag_138:\n        /* \"@openzeppelin/contracts/token/ERC20/ERC20.sol\":4468:4472  true */\n      0x01\n        /* \"@openzeppelin/contracts/token/ERC20/ERC20.sol\":4461:4472  return true */\n      swap2\n      pop\n      pop\n        /* \"@openzeppelin/contracts/token/ERC20/ERC20.sol\":4293:4479  function approve(address spender, uint256 value) public virtual returns (bool) {... */\n    tag_135:\n      swap3\n      swap2\n      pop\n      pop\n      jump\t// out\n        /* \"@openzeppelin/contracts/token/ERC20/ERC20.sol\":5039:5283  function transferFrom(address from, address to, uint256 value) public virtual returns (bool) {... */\n    tag_55:\n        /* \"@openzeppelin/contracts/token/ERC20/ERC20.sol\":5126:5130  bool */\n      0x00\n        /* \"@openzeppelin/contracts/utils/Context.sol\":735:745  msg.sender */\n      caller\n        /* \"@openzeppelin/contracts/token/ERC20/ERC20.sol\":5182:5219  _spendAllowance(from, spender, value) */\n      tag_143\n        /* \"@openzeppelin/contracts/token/ERC20/ERC20.sol\":5198:5202  from */\n      dup6\n        /* \"@openzeppelin/contracts/utils/Context.sol\":735:745  msg.sender */\n      dup3\n        /* \"@openzeppelin/contracts/token/ERC20/ERC20.sol\":5213:5218  value */\n      dup6\n        /* \"@openzeppelin/contracts/token/ERC20/ERC20.sol\":5182:5197  _spendAllowance */\n      tag_144\n        /* \"@openzeppelin/contracts/token/ERC20/ERC20.sol\":5182:5219  _spendAllowance(from, spender, value) */\n      jump\t// in\n    tag_143:\n        /* \"@openzeppelin/contracts/token/ERC20/ERC20.sol\":5229:5255  _transfer(from, to, value) */\n      tag_145\n        /* \"@openzeppelin/contracts/token/ERC20/ERC20.sol\":5239:5243  from */\n      dup6\n        /* \"@openzeppelin/contracts/token/ERC20/ERC20.sol\":5245:5247  to */\n      dup6\n        /* \"@openzeppelin/contracts/token/ERC20/ERC20.sol\":5249:5254  value */\n      dup6\n        /* \"@openzeppelin/contracts/token/ERC20/ERC20.sol\":5229:5238  _transfer */\n      tag_146\n        /* \"@openzeppelin/contracts/token/ERC20/ERC20.sol\":5229:5255  _transfer(from, to, value) */\n      jump\t// in\n    tag_145:\n      pop\n        /* \"@openzeppelin/contracts/token/ERC20/ERC20.sol\":5272:5276  true */\n      0x01\n      swap5\n        /* \"@openzeppelin/contracts/token/ERC20/ERC20.sol\":5039:5283  function transferFrom(address from, address to, uint256 value) public virtual returns (bool) {... */\n      swap4\n      pop\n      pop\n      pop\n      pop\n      jump\t// out\n        /* \"@openzeppelin/contracts/token/ERC20/extensions/ERC20Burnable.sol\":618:705  function burn(uint256 value) public virtual {... */\n    tag_64:\n        /* \"@openzeppelin/contracts/token/ERC20/extensions/ERC20Burnable.sol\":672:698  _burn(_msgSender(), value) */\n      tag_149\n        /* \"@openzeppelin/contracts/utils/Context.sol\":735:745  msg.sender */\n      caller\n        /* \"@openzeppelin/contracts/token/ERC20/extensions/ERC20Burnable.sol\":692:697  value */\n      dup3\n        /* \"@openzeppelin/contracts/token/ERC20/extensions/ERC20Burnable.sol\":672:677  _burn */\n      tag_151\n        /* \"@openzeppelin/contracts/token/ERC20/extensions/ERC20Burnable.sol\":672:698  _burn(_msgSender(), value) */\n      jump\t// in\n    tag_149:\n        /* \"@openzeppelin/contracts/token/ERC20/extensions/ERC20Burnable.sol\":618:705  function burn(uint256 value) public virtual {... */\n      pop\n      jump\t// out\n        /* \"contracts/DefaultTaskControl.sol\":3421:3810  function getTicketFrom(uint256 _id,address _fromAddress,address _receiveAddress,uint256 _ticketNumbers)external{... */\n    tag_68:\n        /* \"contracts/DefaultTaskControl.sol\":3546:3560  uint256 amount */\n      0x00\n        /* \"contracts/DefaultTaskControl.sol\":3580:3596  10 ** decimals() */\n      tag_154\n        /* \"@openzeppelin/contracts/token/ERC20/ERC20.sol\":3075:3077  18 */\n      0x12\n        /* \"contracts/DefaultTaskControl.sol\":3580:3582  10 */\n      0x0a\n        /* \"contracts/DefaultTaskControl.sol\":3580:3596  10 ** decimals() */\n      tag_114\n      jump\t// in\n    tag_154:\n        /* \"contracts/DefaultTaskControl.sol\":3563:3596  _ticketNumbers * 10 ** decimals() */\n      tag_155\n      swap1\n        /* \"contracts/DefaultTaskControl.sol\":3563:3577  _ticketNumbers */\n      dup4\n        /* \"contracts/DefaultTaskControl.sol\":3563:3596  _ticketNumbers * 10 ** decimals() */\n      tag_116\n      jump\t// in\n    tag_155:\n        /* \"contracts/DefaultTaskControl.sol\":3546:3596  uint256 amount = _ticketNumbers * 10 ** decimals() */\n      swap1\n      pop\n        /* \"contracts/DefaultTaskControl.sol\":3610:3639  burnFrom(_fromAddress,amount) */\n      tag_156\n        /* \"contracts/DefaultTaskControl.sol\":3619:3631  _fromAddress */\n      dup5\n        /* \"contracts/DefaultTaskControl.sol\":3632:3638  amount */\n      dup3\n        /* \"contracts/DefaultTaskControl.sol\":3610:3618  burnFrom */\n      tag_78\n        /* \"contracts/DefaultTaskControl.sol\":3610:3639  burnFrom(_fromAddress,amount) */\n      jump\t// in\n    tag_156:\n        /* \"contracts/DefaultTaskControl.sol\":3653:3661  bool buy */\n      0x00\n        /* \"contracts/DefaultTaskControl.sol\":3664:3710  _getTicket(_id,_receiveAddress,_ticketNumbers) */\n      tag_157\n        /* \"contracts/DefaultTaskControl.sol\":3675:3678  _id */\n      dup7\n        /* \"contracts/DefaultTaskControl.sol\":3679:3694  _receiveAddress */\n      dup6\n        /* \"contracts/DefaultTaskControl.sol\":3695:3709  _ticketNumbers */\n      dup6\n        /* \"contracts/DefaultTaskControl.sol\":3664:3674  _getTicket */\n      tag_119\n        /* \"contracts/DefaultTaskControl.sol\":3664:3710  _getTicket(_id,_receiveAddress,_ticketNumbers) */\n      jump\t// in\n    tag_157:\n        /* \"contracts/DefaultTaskControl.sol\":3730:3799  TicketGet(_id,_fromAddress,_receiveAddress,amount,_ticketNumbers,buy) */\n      0x40\n      dup1\n      mload\n        /* \"#utility.yul\":6708:6733   */\n      dup9\n      dup2\n      mstore\n      sub(shl(0xa0, 0x01), 0x01)\n        /* \"#utility.yul\":6807:6822   */\n      dup9\n      dup2\n      and\n        /* \"#utility.yul\":6802:6804   */\n      0x20\n        /* \"#utility.yul\":6787:6805   */\n      dup4\n      add\n        /* \"#utility.yul\":6780:6823   */\n      mstore\n        /* \"#utility.yul\":6859:6874   */\n      dup8\n      and\n        /* \"#utility.yul\":6839:6857   */\n      dup2\n      dup4\n      add\n        /* \"#utility.yul\":6832:6875   */\n      mstore\n        /* \"#utility.yul\":6906:6908   */\n      0x60\n        /* \"#utility.yul\":6891:6909   */\n      dup2\n      add\n        /* \"#utility.yul\":6884:6918   */\n      dup6\n      swap1\n      mstore\n        /* \"#utility.yul\":6949:6952   */\n      0x80\n        /* \"#utility.yul\":6934:6953   */\n      dup2\n      add\n        /* \"#utility.yul\":6927:6962   */\n      dup7\n      swap1\n      mstore\n        /* \"#utility.yul\":7006:7020   */\n      dup3\n      iszero\n        /* \"#utility.yul\":6999:7021   */\n      iszero\n        /* \"#utility.yul\":6760:6763   */\n      0xa0\n        /* \"#utility.yul\":6978:6997   */\n      dup3\n      add\n        /* \"#utility.yul\":6971:7022   */\n      mstore\n        /* \"contracts/DefaultTaskControl.sol\":3730:3799  TicketGet(_id,_fromAddress,_receiveAddress,amount,_ticketNumbers,buy) */\n      swap1\n      mload\n        /* \"#utility.yul\":7006:7020   */\n      swap2\n      swap3\n      pop\n        /* \"contracts/DefaultTaskControl.sol\":3730:3799  TicketGet(_id,_fromAddress,_receiveAddress,amount,_ticketNumbers,buy) */\n      0xebc14ddbdd1e1ebc5a287d8957bd1ca84faef18f192f27829b8459fd15f5195d\n      swap2\n      swap1\n      dup2\n      swap1\n      sub\n        /* \"#utility.yul\":6695:6698   */\n      0xc0\n        /* \"contracts/DefaultTaskControl.sol\":3730:3799  TicketGet(_id,_fromAddress,_receiveAddress,amount,_ticketNumbers,buy) */\n      add\n      swap1\n      log1\n        /* \"contracts/DefaultTaskControl.sol\":3532:3810  {... */\n      pop\n      pop\n        /* \"contracts/DefaultTaskControl.sol\":3421:3810  function getTicketFrom(uint256 _id,address _fromAddress,address _receiveAddress,uint256 _ticketNumbers)external{... */\n      pop\n      pop\n      pop\n      pop\n      jump\t// out\n        /* \"@openzeppelin/contracts/access/Ownable.sol\":2293:2394  function renounceOwnership() public virtual onlyOwner {... */\n    tag_75:\n        /* \"@openzeppelin/contracts/access/Ownable.sol\":1531:1544  _checkOwner() */\n      tag_161\n        /* \"@openzeppelin/contracts/access/Ownable.sol\":1531:1542  _checkOwner */\n      tag_131\n        /* \"@openzeppelin/contracts/access/Ownable.sol\":1531:1544  _checkOwner() */\n      jump\t// in\n    tag_161:\n        /* \"@openzeppelin/contracts/access/Ownable.sol\":2357:2387  _transferOwnership(address(0)) */\n      tag_163\n        /* \"@openzeppelin/contracts/access/Ownable.sol\":2384:2385  0 */\n      0x00\n        /* \"@openzeppelin/contracts/access/Ownable.sol\":2357:2375  _transferOwnership */\n      tag_164\n        /* \"@openzeppelin/contracts/access/Ownable.sol\":2357:2387  _transferOwnership(address(0)) */\n      jump\t// in\n    tag_163:\n        /* \"@openzeppelin/contracts/access/Ownable.sol\":2293:2394  function renounceOwnership() public virtual onlyOwner {... */\n      jump\t// out\n        /* \"@openzeppelin/contracts/token/ERC20/extensions/ERC20Burnable.sol\":1021:1179  function burnFrom(address account, uint256 value) public virtual {... */\n    tag_78:\n        /* \"@openzeppelin/contracts/token/ERC20/extensions/ERC20Burnable.sol\":1096:1141  _spendAllowance(account, _msgSender(), value) */\n      tag_166\n        /* \"@openzeppelin/contracts/token/ERC20/extensions/ERC20Burnable.sol\":1112:1119  account */\n      dup3\n        /* \"@openzeppelin/contracts/utils/Context.sol\":735:745  msg.sender */\n      caller\n        /* \"@openzeppelin/contracts/token/ERC20/extensions/ERC20Burnable.sol\":1135:1140  value */\n      dup4\n        /* \"@openzeppelin/contracts/token/ERC20/extensions/ERC20Burnable.sol\":1096:1111  _spendAllowance */\n      tag_144\n        /* \"@openzeppelin/contracts/token/ERC20/extensions/ERC20Burnable.sol\":1096:1141  _spendAllowance(account, _msgSender(), value) */\n      jump\t// in\n    tag_166:\n        /* \"@openzeppelin/contracts/token/ERC20/extensions/ERC20Burnable.sol\":1151:1172  _burn(account, value) */\n      tag_168\n        /* \"@openzeppelin/contracts/token/ERC20/extensions/ERC20Burnable.sol\":1157:1164  account */\n      dup3\n        /* \"@openzeppelin/contracts/token/ERC20/extensions/ERC20Burnable.sol\":1166:1171  value */\n      dup3\n        /* \"@openzeppelin/contracts/token/ERC20/extensions/ERC20Burnable.sol\":1151:1156  _burn */\n      tag_151\n        /* \"@openzeppelin/contracts/token/ERC20/extensions/ERC20Burnable.sol\":1151:1172  _burn(account, value) */\n      jump\t// in\n    tag_168:\n        /* \"@openzeppelin/contracts/token/ERC20/extensions/ERC20Burnable.sol\":1021:1179  function burnFrom(address account, uint256 value) public virtual {... */\n      pop\n      pop\n      jump\t// out\n        /* \"@openzeppelin/contracts/token/ERC20/ERC20.sol\":2276:2369  function symbol() public view virtual returns (string memory) {... */\n    tag_84:\n        /* \"@openzeppelin/contracts/token/ERC20/ERC20.sol\":2323:2336  string memory */\n      0x60\n        /* \"@openzeppelin/contracts/token/ERC20/ERC20.sol\":2355:2362  _symbol */\n      0x04\n        /* \"@openzeppelin/contracts/token/ERC20/ERC20.sol\":2348:2362  return _symbol */\n      dup1\n      sload\n      tag_123\n      swap1\n      tag_124\n      jump\t// in\n        /* \"@openzeppelin/contracts/token/ERC20/ERC20.sol\":3610:3788  function transfer(address to, uint256 value) public virtual returns (bool) {... */\n    tag_88:\n        /* \"@openzeppelin/contracts/token/ERC20/ERC20.sol\":3679:3683  bool */\n      0x00\n        /* \"@openzeppelin/contracts/utils/Context.sol\":735:745  msg.sender */\n      caller\n        /* \"@openzeppelin/contracts/token/ERC20/ERC20.sol\":3733:3760  _transfer(owner, to, value) */\n      tag_138\n        /* \"@openzeppelin/contracts/utils/Context.sol\":735:745  msg.sender */\n      dup2\n        /* \"@openzeppelin/contracts/token/ERC20/ERC20.sol\":3750:3752  to */\n      dup6\n        /* \"@openzeppelin/contracts/token/ERC20/ERC20.sol\":3754:3759  value */\n      dup6\n        /* \"@openzeppelin/contracts/token/ERC20/ERC20.sol\":3733:3742  _transfer */\n      tag_146\n        /* \"@openzeppelin/contracts/token/ERC20/ERC20.sol\":3733:3760  _transfer(owner, to, value) */\n      jump\t// in\n        /* \"contracts/DefaultTaskControl.sol\":1648:2122  function mintToken(address _taskAddr,address _receiveAddress,bytes calldata _data) external nonReentrant{... */\n    tag_99:\n        /* \"@openzeppelin/contracts/utils/ReentrancyGuard.sol\":2356:2377  _nonReentrantBefore() */\n      tag_180\n        /* \"@openzeppelin/contracts/utils/ReentrancyGuard.sol\":2356:2375  _nonReentrantBefore */\n      tag_181\n        /* \"@openzeppelin/contracts/utils/ReentrancyGuard.sol\":2356:2377  _nonReentrantBefore() */\n      jump\t// in\n    tag_180:\n      sub(shl(0xa0, 0x01), 0x01)\n        /* \"contracts/DefaultTaskControl.sol\":1774:1791  _tasks[_taskAddr] */\n      dup5\n      and\n      0x00\n      swap1\n      dup2\n      mstore\n        /* \"contracts/DefaultTaskControl.sol\":1774:1780  _tasks */\n      0x08\n        /* \"contracts/DefaultTaskControl.sol\":1774:1791  _tasks[_taskAddr] */\n      0x20\n      mstore\n      0x40\n      dup2\n      keccak256\n      sload\n        /* \"contracts/DefaultTaskControl.sol\":1774:1796  _tasks[_taskAddr] != 0 */\n      swap1\n      sub\n        /* \"contracts/DefaultTaskControl.sol\":1766:1814  require(_tasks[_taskAddr] != 0,\"no set as task\") */\n      tag_183\n      jumpi\n      mload(0x40)\n      shl(0xe5, 0x461bcd)\n      dup2\n      mstore\n        /* \"#utility.yul\":7899:7901   */\n      0x20\n        /* \"contracts/DefaultTaskControl.sol\":1766:1814  require(_tasks[_taskAddr] != 0,\"no set as task\") */\n      0x04\n      dup3\n      add\n        /* \"#utility.yul\":7881:7902   */\n      mstore\n        /* \"#utility.yul\":7938:7940   */\n      0x0e\n        /* \"#utility.yul\":7918:7936   */\n      0x24\n      dup3\n      add\n        /* \"#utility.yul\":7911:7941   */\n      mstore\n      shl(0x90, 0x6e6f20736574206173207461736b)\n        /* \"#utility.yul\":7957:7975   */\n      0x44\n      dup3\n      add\n        /* \"#utility.yul\":7950:7994   */\n      mstore\n        /* \"#utility.yul\":8011:8029   */\n      0x64\n      add\n        /* \"contracts/DefaultTaskControl.sol\":1766:1814  require(_tasks[_taskAddr] != 0,\"no set as task\") */\n    tag_184:\n      mload(0x40)\n      dup1\n      swap2\n      sub\n      swap1\n      revert\n    tag_183:\n      sub(shl(0xa0, 0x01), 0x01)\n        /* \"contracts/DefaultTaskControl.sol\":1968:1985  _tasks[_taskAddr] */\n      dup5\n      and\n        /* \"contracts/DefaultTaskControl.sol\":1890:1904  uint256 amount */\n      0x00\n        /* \"contracts/DefaultTaskControl.sol\":1968:1985  _tasks[_taskAddr] */\n      dup2\n      dup2\n      mstore\n        /* \"contracts/DefaultTaskControl.sol\":1968:1974  _tasks */\n      0x08\n        /* \"contracts/DefaultTaskControl.sol\":1968:1985  _tasks[_taskAddr] */\n      0x20\n      mstore\n      0x40\n      dup1\n      dup3\n      keccak256\n      sload\n        /* \"contracts/DefaultTaskControl.sol\":1907:1965  ItaskCallee(_taskAddr).taskCall(address(msg.sender),_data) */\n      swap1\n      mload\n      shl(0xe1, 0x70d64693)\n      dup2\n      mstore\n        /* \"contracts/DefaultTaskControl.sol\":1890:1904  uint256 amount */\n      swap2\n      swap3\n        /* \"contracts/DefaultTaskControl.sol\":1968:1985  _tasks[_taskAddr] */\n      swap1\n      swap2\n        /* \"contracts/DefaultTaskControl.sol\":1907:1938  ItaskCallee(_taskAddr).taskCall */\n      0xe1ac8d26\n      swap1\n        /* \"contracts/DefaultTaskControl.sol\":1907:1965  ItaskCallee(_taskAddr).taskCall(address(msg.sender),_data) */\n      tag_186\n      swap1\n        /* \"contracts/DefaultTaskControl.sol\":1947:1957  msg.sender */\n      caller\n      swap1\n        /* \"contracts/DefaultTaskControl.sol\":1959:1964  _data */\n      dup9\n      swap1\n      dup9\n      swap1\n        /* \"contracts/DefaultTaskControl.sol\":1907:1965  ItaskCallee(_taskAddr).taskCall(address(msg.sender),_data) */\n      0x04\n      add\n      tag_187\n      jump\t// in\n    tag_186:\n      0x20\n      mload(0x40)\n      dup1\n      dup4\n      sub\n      dup2\n      0x00\n      dup8\n      gas\n      call\n      iszero\n      dup1\n      iszero\n      tag_189\n      jumpi\n      returndatasize\n      0x00\n      dup1\n      returndatacopy\n      revert(0x00, returndatasize)\n    tag_189:\n      pop\n      pop\n      pop\n      pop\n      mload(0x40)\n      returndatasize\n      not(0x1f)\n      0x1f\n      dup3\n      add\n      and\n      dup3\n      add\n      dup1\n      0x40\n      mstore\n      pop\n      dup2\n      add\n      swap1\n      tag_190\n      swap2\n      swap1\n      tag_191\n      jump\t// in\n    tag_190:\n        /* \"contracts/DefaultTaskControl.sol\":1907:1985  ItaskCallee(_taskAddr).taskCall(address(msg.sender),_data) * _tasks[_taskAddr] */\n      tag_192\n      swap2\n      swap1\n      tag_116\n      jump\t// in\n    tag_192:\n        /* \"contracts/DefaultTaskControl.sol\":1890:1985  uint256 amount = ItaskCallee(_taskAddr).taskCall(address(msg.sender),_data) * _tasks[_taskAddr] */\n      swap1\n      pop\n        /* \"contracts/DefaultTaskControl.sol\":1999:2029  _mint(_receiveAddress, amount) */\n      tag_193\n        /* \"contracts/DefaultTaskControl.sol\":2005:2020  _receiveAddress */\n      dup5\n        /* \"contracts/DefaultTaskControl.sol\":2022:2028  amount */\n      dup3\n        /* \"contracts/DefaultTaskControl.sol\":1999:2004  _mint */\n      tag_194\n        /* \"contracts/DefaultTaskControl.sol\":1999:2029  _mint(_receiveAddress, amount) */\n      jump\t// in\n    tag_193:\n        /* \"contracts/DefaultTaskControl.sol\":2048:2111  TokenMint(address(msg.sender),_taskAddr,_receiveAddress,amount) */\n      0x40\n      dup1\n      mload\n        /* \"contracts/DefaultTaskControl.sol\":2066:2076  msg.sender */\n      caller\n        /* \"#utility.yul\":8988:9022   */\n      dup2\n      mstore\n      sub(shl(0xa0, 0x01), 0x01)\n        /* \"#utility.yul\":9058:9073   */\n      dup8\n      dup2\n      and\n        /* \"#utility.yul\":9053:9055   */\n      0x20\n        /* \"#utility.yul\":9038:9056   */\n      dup4\n      add\n        /* \"#utility.yul\":9031:9074   */\n      mstore\n        /* \"#utility.yul\":9110:9125   */\n      dup7\n      and\n        /* \"#utility.yul\":9090:9108   */\n      dup2\n      dup4\n      add\n        /* \"#utility.yul\":9083:9126   */\n      mstore\n        /* \"#utility.yul\":9157:9159   */\n      0x60\n        /* \"#utility.yul\":9142:9160   */\n      dup2\n      add\n        /* \"#utility.yul\":9135:9169   */\n      dup4\n      swap1\n      mstore\n        /* \"contracts/DefaultTaskControl.sol\":2048:2111  TokenMint(address(msg.sender),_taskAddr,_receiveAddress,amount) */\n      swap1\n      mload\n      0x4d914fbdb28a885441bb0f6e06bb01dfdfe8a8b6902391853b46eb747ae136ef\n      swap2\n      dup2\n      swap1\n      sub\n        /* \"#utility.yul\":8937:8940   */\n      0x80\n        /* \"contracts/DefaultTaskControl.sol\":2048:2111  TokenMint(address(msg.sender),_taskAddr,_receiveAddress,amount) */\n      add\n      swap1\n      log1\n        /* \"contracts/DefaultTaskControl.sol\":1752:2122  {... */\n      pop\n        /* \"@openzeppelin/contracts/utils/ReentrancyGuard.sol\":2398:2418  _nonReentrantAfter() */\n      tag_197\n        /* \"@openzeppelin/contracts/utils/ReentrancyGuard.sol\":1713:1714  1 */\n      0x01\n        /* \"@openzeppelin/contracts/utils/ReentrancyGuard.sol\":2924:2931  _status */\n      0x05\n        /* \"@openzeppelin/contracts/utils/ReentrancyGuard.sol\":2924:2945  _status = NOT_ENTERED */\n      sstore\n        /* \"@openzeppelin/contracts/utils/ReentrancyGuard.sol\":2744:2952  function _nonReentrantAfter() private {... */\n      jump\n        /* \"@openzeppelin/contracts/utils/ReentrancyGuard.sol\":2398:2418  _nonReentrantAfter() */\n    tag_197:\n        /* \"contracts/DefaultTaskControl.sol\":1648:2122  function mintToken(address _taskAddr,address _receiveAddress,bytes calldata _data) external nonReentrant{... */\n      pop\n      pop\n      pop\n      pop\n      jump\t// out\n        /* \"contracts/DefaultTaskControl.sol\":3852:3990  function withdraw(address _token,address _to,uint256 _value)external onlyOwner{... */\n    tag_102:\n        /* \"@openzeppelin/contracts/access/Ownable.sol\":1531:1544  _checkOwner() */\n      tag_200\n        /* \"@openzeppelin/contracts/access/Ownable.sol\":1531:1542  _checkOwner */\n      tag_131\n        /* \"@openzeppelin/contracts/access/Ownable.sol\":1531:1544  _checkOwner() */\n      jump\t// in\n    tag_200:\n        /* \"contracts/DefaultTaskControl.sol\":3944:3979  IERC20(_token).transfer(_to,_value) */\n      mload(0x40)\n      shl(0xe0, 0xa9059cbb)\n      dup2\n      mstore\n      sub(shl(0xa0, 0x01), 0x01)\n        /* \"#utility.yul\":7610:7642   */\n      dup4\n      dup2\n      and\n        /* \"contracts/DefaultTaskControl.sol\":3944:3979  IERC20(_token).transfer(_to,_value) */\n      0x04\n      dup4\n      add\n        /* \"#utility.yul\":7592:7643   */\n      mstore\n        /* \"#utility.yul\":7659:7677   */\n      0x24\n      dup3\n      add\n        /* \"#utility.yul\":7652:7686   */\n      dup4\n      swap1\n      mstore\n        /* \"contracts/DefaultTaskControl.sol\":3944:3967  IERC20(_token).transfer */\n      dup5\n      and\n      swap1\n      0xa9059cbb\n      swap1\n        /* \"#utility.yul\":7565:7583   */\n      0x44\n      add\n        /* \"contracts/DefaultTaskControl.sol\":3944:3979  IERC20(_token).transfer(_to,_value) */\n      0x20\n      mload(0x40)\n      dup1\n      dup4\n      sub\n      dup2\n      0x00\n      dup8\n      gas\n      call\n      iszero\n      dup1\n      iszero\n      tag_204\n      jumpi\n      returndatasize\n      0x00\n      dup1\n      returndatacopy\n      revert(0x00, returndatasize)\n    tag_204:\n      pop\n      pop\n      pop\n      pop\n      mload(0x40)\n      returndatasize\n      not(0x1f)\n      0x1f\n      dup3\n      add\n      and\n      dup3\n      add\n      dup1\n      0x40\n      mstore\n      pop\n      dup2\n      add\n      swap1\n      tag_197\n      swap2\n      swap1\n      tag_206\n      jump\t// in\n        /* \"@openzeppelin/contracts/access/Ownable.sol\":2543:2758  function transferOwnership(address newOwner) public virtual onlyOwner {... */\n    tag_110:\n        /* \"@openzeppelin/contracts/access/Ownable.sol\":1531:1544  _checkOwner() */\n      tag_209\n        /* \"@openzeppelin/contracts/access/Ownable.sol\":1531:1542  _checkOwner */\n      tag_131\n        /* \"@openzeppelin/contracts/access/Ownable.sol\":1531:1544  _checkOwner() */\n      jump\t// in\n    tag_209:\n      sub(shl(0xa0, 0x01), 0x01)\n        /* \"@openzeppelin/contracts/access/Ownable.sol\":2627:2649  newOwner == address(0) */\n      dup2\n      and\n        /* \"@openzeppelin/contracts/access/Ownable.sol\":2623:2714  if (newOwner == address(0)) {... */\n      tag_211\n      jumpi\n        /* \"@openzeppelin/contracts/access/Ownable.sol\":2672:2703  OwnableInvalidOwner(address(0)) */\n      mload(0x40)\n      shl(0xe0, 0x1e4fbdf7)\n      dup2\n      mstore\n        /* \"@openzeppelin/contracts/access/Ownable.sol\":2700:2701  0 */\n      0x00\n        /* \"@openzeppelin/contracts/access/Ownable.sol\":2672:2703  OwnableInvalidOwner(address(0)) */\n      0x04\n      dup3\n      add\n        /* \"#utility.yul\":3418:3469   */\n      mstore\n        /* \"#utility.yul\":3391:3409   */\n      0x24\n      add\n        /* \"@openzeppelin/contracts/access/Ownable.sol\":2672:2703  OwnableInvalidOwner(address(0)) */\n      tag_184\n        /* \"#utility.yul\":3272:3475   */\n      jump\n        /* \"@openzeppelin/contracts/access/Ownable.sol\":2623:2714  if (newOwner == address(0)) {... */\n    tag_211:\n        /* \"@openzeppelin/contracts/access/Ownable.sol\":2723:2751  _transferOwnership(newOwner) */\n      tag_149\n        /* \"@openzeppelin/contracts/access/Ownable.sol\":2742:2750  newOwner */\n      dup2\n        /* \"@openzeppelin/contracts/access/Ownable.sol\":2723:2741  _transferOwnership */\n      tag_164\n        /* \"@openzeppelin/contracts/access/Ownable.sol\":2723:2751  _transferOwnership(newOwner) */\n      jump\t// in\n        /* \"contracts/DefaultTaskControl.sol\":2132:3048  function _getTicket(uint256 _id,address _receiveAddress,uint256 _ticketNumbers)internal returns(bool){... */\n    tag_119:\n        /* \"contracts/DefaultTaskControl.sol\":2322:2337  redEnvelopeAddr */\n      sload(0x07)\n        /* \"contracts/DefaultTaskControl.sol\":2309:2359  IRedEnvelope(redEnvelopeAddr).viewRedEnvelope(_id) */\n      mload(0x40)\n      shl(0xe0, 0x8f91cd17)\n      dup2\n      mstore\n      0x04\n      dup2\n      add\n        /* \"#utility.yul\":1619:1644   */\n      dup6\n      swap1\n      mstore\n        /* \"contracts/DefaultTaskControl.sol\":2228:2232  bool */\n      0x00\n      swap2\n        /* \"contracts/DefaultTaskControl.sol\":2258:2262  true */\n      0x01\n      swap2\n        /* \"contracts/DefaultTaskControl.sol\":2228:2232  bool */\n      dup4\n      swap2\n      sub(shl(0xa0, 0x01), 0x01)\n        /* \"contracts/DefaultTaskControl.sol\":2322:2337  redEnvelopeAddr */\n      and\n      swap1\n        /* \"contracts/DefaultTaskControl.sol\":2309:2354  IRedEnvelope(redEnvelopeAddr).viewRedEnvelope */\n      0x8f91cd17\n      swap1\n        /* \"#utility.yul\":1592:1610   */\n      0x24\n      add\n        /* \"contracts/DefaultTaskControl.sol\":2309:2359  IRedEnvelope(redEnvelopeAddr).viewRedEnvelope(_id) */\n      0x01e0\n      mload(0x40)\n      dup1\n      dup4\n      sub\n      dup2\n      dup7\n      gas\n      staticcall\n      iszero\n      dup1\n      iszero\n      tag_217\n      jumpi\n      returndatasize\n      0x00\n      dup1\n      returndatacopy\n      revert(0x00, returndatasize)\n    tag_217:\n      pop\n      pop\n      pop\n      pop\n      mload(0x40)\n      returndatasize\n      not(0x1f)\n      0x1f\n      dup3\n      add\n      and\n      dup3\n      add\n      dup1\n      0x40\n      mstore\n      pop\n      dup2\n      add\n      swap1\n      tag_218\n      swap2\n      swap1\n      tag_219\n      jump\t// in\n    tag_218:\n        /* \"contracts/DefaultTaskControl.sol\":2377:2402  redEnvelope.sendAllowAddr */\n      0x0180\n      dup2\n      add\n      mload\n        /* \"contracts/DefaultTaskControl.sol\":2276:2359  RedEnvelope memory redEnvelope = IRedEnvelope(redEnvelopeAddr).viewRedEnvelope(_id) */\n      swap1\n      swap2\n      pop\n      sub(shl(0xa0, 0x01), 0x01)\n        /* \"contracts/DefaultTaskControl.sol\":2377:2416  redEnvelope.sendAllowAddr == address(0) */\n      and\n        /* \"contracts/DefaultTaskControl.sol\":2373:3014  if (redEnvelope.sendAllowAddr == address(0)){      ... */\n      tag_220\n      jumpi\n        /* \"contracts/DefaultTaskControl.sol\":2449:2463  allowBuyTicket */\n      sload(0x07)\n      shl(0xa0, 0x01)\n      swap1\n      div\n      0xff\n      and\n        /* \"contracts/DefaultTaskControl.sol\":2449:2471  allowBuyTicket == true */\n      iszero\n      iszero\n        /* \"contracts/DefaultTaskControl.sol\":2467:2471  true */\n      0x01\n        /* \"contracts/DefaultTaskControl.sol\":2449:2471  allowBuyTicket == true */\n      eq\n        /* \"contracts/DefaultTaskControl.sol\":2441:2495  require(allowBuyTicket == true, \"buy ticket no allow\") */\n      tag_221\n      jumpi\n      mload(0x40)\n      shl(0xe5, 0x461bcd)\n      dup2\n      mstore\n        /* \"#utility.yul\":11764:11766   */\n      0x20\n        /* \"contracts/DefaultTaskControl.sol\":2441:2495  require(allowBuyTicket == true, \"buy ticket no allow\") */\n      0x04\n      dup3\n      add\n        /* \"#utility.yul\":11746:11767   */\n      mstore\n        /* \"#utility.yul\":11803:11805   */\n      0x13\n        /* \"#utility.yul\":11783:11801   */\n      0x24\n      dup3\n      add\n        /* \"#utility.yul\":11776:11806   */\n      mstore\n      shl(0x68, 0x627579207469636b6574206e6f20616c6c6f77)\n        /* \"#utility.yul\":11822:11840   */\n      0x44\n      dup3\n      add\n        /* \"#utility.yul\":11815:11864   */\n      mstore\n        /* \"#utility.yul\":11881:11899   */\n      0x64\n      add\n        /* \"contracts/DefaultTaskControl.sol\":2441:2495  require(allowBuyTicket == true, \"buy ticket no allow\") */\n      tag_184\n        /* \"#utility.yul\":11562:11905   */\n      jump\n        /* \"contracts/DefaultTaskControl.sol\":2441:2495  require(allowBuyTicket == true, \"buy ticket no allow\") */\n    tag_221:\n        /* \"contracts/DefaultTaskControl.sol\":2513:2534  uint256 approveAmount */\n      0x00\n        /* \"contracts/DefaultTaskControl.sol\":2563:2577  _ticketNumbers */\n      dup5\n        /* \"contracts/DefaultTaskControl.sol\":2537:2548  redEnvelope */\n      dup3\n        /* \"contracts/DefaultTaskControl.sol\":2537:2560  redEnvelope.ticketPirce */\n      0x0160\n      add\n      mload\n        /* \"contracts/DefaultTaskControl.sol\":2537:2577  redEnvelope.ticketPirce * _ticketNumbers */\n      tag_224\n      swap2\n      swap1\n      tag_116\n      jump\t// in\n    tag_224:\n        /* \"contracts/DefaultTaskControl.sol\":2602:2625  redEnvelope.ticketToken */\n      dup3\n      mload\n        /* \"contracts/DefaultTaskControl.sol\":2635:2650  redEnvelopeAddr */\n      sload(0x07)\n        /* \"contracts/DefaultTaskControl.sol\":2595:2665  IERC20(redEnvelope.ticketToken).approve(redEnvelopeAddr,approveAmount) */\n      mload(0x40)\n      shl(0xe0, 0x095ea7b3)\n      dup2\n      mstore\n      sub(shl(0xa0, 0x01), 0x01)\n        /* \"contracts/DefaultTaskControl.sol\":2635:2650  redEnvelopeAddr */\n      swap2\n      dup3\n      and\n        /* \"contracts/DefaultTaskControl.sol\":2595:2665  IERC20(redEnvelope.ticketToken).approve(redEnvelopeAddr,approveAmount) */\n      0x04\n      dup3\n      add\n        /* \"#utility.yul\":7592:7643   */\n      mstore\n        /* \"#utility.yul\":7659:7677   */\n      0x24\n      dup2\n      add\n        /* \"#utility.yul\":7652:7686   */\n      dup5\n      swap1\n      mstore\n        /* \"contracts/DefaultTaskControl.sol\":2513:2577  uint256 approveAmount = redEnvelope.ticketPirce * _ticketNumbers */\n      swap3\n      swap4\n      pop\n        /* \"contracts/DefaultTaskControl.sol\":2595:2634  IERC20(redEnvelope.ticketToken).approve */\n      and\n      swap1\n      0x095ea7b3\n      swap1\n        /* \"#utility.yul\":7565:7583   */\n      0x44\n      add\n        /* \"contracts/DefaultTaskControl.sol\":2595:2665  IERC20(redEnvelope.ticketToken).approve(redEnvelopeAddr,approveAmount) */\n      0x20\n      mload(0x40)\n      dup1\n      dup4\n      sub\n      dup2\n      0x00\n      dup8\n      gas\n      call\n      iszero\n      dup1\n      iszero\n      tag_227\n      jumpi\n      returndatasize\n      0x00\n      dup1\n      returndatacopy\n      revert(0x00, returndatasize)\n    tag_227:\n      pop\n      pop\n      pop\n      pop\n      mload(0x40)\n      returndatasize\n      not(0x1f)\n      0x1f\n      dup3\n      add\n      and\n      dup3\n      add\n      dup1\n      0x40\n      mstore\n      pop\n      dup2\n      add\n      swap1\n      tag_228\n      swap2\n      swap1\n      tag_206\n      jump\t// in\n    tag_228:\n      pop\n        /* \"contracts/DefaultTaskControl.sol\":2703:2718  redEnvelopeAddr */\n      sload(0x07)\n        /* \"contracts/DefaultTaskControl.sol\":2690:2766  IRedEnvelope(redEnvelopeAddr).buyTickets(_id,_receiveAddress,_ticketNumbers) */\n      mload(0x40)\n      shl(0xe0, 0xc5e7bb33)\n      dup2\n      mstore\n      0x04\n      dup2\n      add\n        /* \"#utility.yul\":12112:12137   */\n      dup10\n      swap1\n      mstore\n      sub(shl(0xa0, 0x01), 0x01)\n        /* \"#utility.yul\":12173:12205   */\n      dup9\n      dup2\n      and\n        /* \"#utility.yul\":12153:12171   */\n      0x24\n      dup4\n      add\n        /* \"#utility.yul\":12146:12206   */\n      mstore\n        /* \"#utility.yul\":12222:12240   */\n      0x44\n      dup3\n      add\n        /* \"#utility.yul\":12215:12249   */\n      dup9\n      swap1\n      mstore\n        /* \"contracts/DefaultTaskControl.sol\":2703:2718  redEnvelopeAddr */\n      swap1\n      swap2\n      and\n      swap1\n        /* \"contracts/DefaultTaskControl.sol\":2690:2730  IRedEnvelope(redEnvelopeAddr).buyTickets */\n      0xc5e7bb33\n      swap1\n        /* \"#utility.yul\":12085:12103   */\n      0x64\n      add\n        /* \"contracts/DefaultTaskControl.sol\":2690:2766  IRedEnvelope(redEnvelopeAddr).buyTickets(_id,_receiveAddress,_ticketNumbers) */\n      0x00\n      mload(0x40)\n      dup1\n      dup4\n      sub\n      dup2\n      0x00\n      dup8\n      dup1\n      extcodesize\n      iszero\n      dup1\n      iszero\n      tag_231\n      jumpi\n      0x00\n      dup1\n      revert\n    tag_231:\n      pop\n      gas\n      call\n      iszero\n      dup1\n      iszero\n      tag_233\n      jumpi\n      returndatasize\n      0x00\n      dup1\n      returndatacopy\n      revert(0x00, returndatasize)\n    tag_233:\n      pop\n      pop\n      pop\n      pop\n        /* \"contracts/DefaultTaskControl.sol\":2417:2781  {      ... */\n      pop\n        /* \"contracts/DefaultTaskControl.sol\":2373:3014  if (redEnvelope.sendAllowAddr == address(0)){      ... */\n      jump(tag_234)\n    tag_220:\n        /* \"contracts/DefaultTaskControl.sol\":2811:2826  allowSendTicket */\n      sload(0x07)\n      shl(0xa8, 0x01)\n      swap1\n      div\n      0xff\n      and\n        /* \"contracts/DefaultTaskControl.sol\":2811:2834  allowSendTicket == true */\n      iszero\n      iszero\n        /* \"contracts/DefaultTaskControl.sol\":2830:2834  true */\n      0x01\n        /* \"contracts/DefaultTaskControl.sol\":2811:2834  allowSendTicket == true */\n      eq\n        /* \"contracts/DefaultTaskControl.sol\":2803:2859  require(allowSendTicket == true, \"send ticket no allow\") */\n      tag_235\n      jumpi\n      mload(0x40)\n      shl(0xe5, 0x461bcd)\n      dup2\n      mstore\n        /* \"#utility.yul\":12462:12464   */\n      0x20\n        /* \"contracts/DefaultTaskControl.sol\":2803:2859  require(allowSendTicket == true, \"send ticket no allow\") */\n      0x04\n      dup3\n      add\n        /* \"#utility.yul\":12444:12465   */\n      mstore\n        /* \"#utility.yul\":12501:12503   */\n      0x14\n        /* \"#utility.yul\":12481:12499   */\n      0x24\n      dup3\n      add\n        /* \"#utility.yul\":12474:12504   */\n      mstore\n      shl(0x60, 0x73656e64207469636b6574206e6f20616c6c6f77)\n        /* \"#utility.yul\":12520:12538   */\n      0x44\n      dup3\n      add\n        /* \"#utility.yul\":12513:12563   */\n      mstore\n        /* \"#utility.yul\":12580:12598   */\n      0x64\n      add\n        /* \"contracts/DefaultTaskControl.sol\":2803:2859  require(allowSendTicket == true, \"send ticket no allow\") */\n      tag_184\n        /* \"#utility.yul\":12260:12604   */\n      jump\n        /* \"contracts/DefaultTaskControl.sol\":2803:2859  require(allowSendTicket == true, \"send ticket no allow\") */\n    tag_235:\n        /* \"contracts/DefaultTaskControl.sol\":2906:2921  redEnvelopeAddr */\n      sload(0x07)\n        /* \"contracts/DefaultTaskControl.sol\":2893:2970  IRedEnvelope(redEnvelopeAddr).sendTickets(_id,_receiveAddress,_ticketNumbers) */\n      mload(0x40)\n      shl(0xe0, 0x5c42e0c5)\n      dup2\n      mstore\n      0x04\n      dup2\n      add\n        /* \"#utility.yul\":12112:12137   */\n      dup9\n      swap1\n      mstore\n      sub(shl(0xa0, 0x01), 0x01)\n        /* \"#utility.yul\":12173:12205   */\n      dup8\n      dup2\n      and\n        /* \"#utility.yul\":12153:12171   */\n      0x24\n      dup4\n      add\n        /* \"#utility.yul\":12146:12206   */\n      mstore\n        /* \"#utility.yul\":12222:12240   */\n      0x44\n      dup3\n      add\n        /* \"#utility.yul\":12215:12249   */\n      dup8\n      swap1\n      mstore\n        /* \"contracts/DefaultTaskControl.sol\":2906:2921  redEnvelopeAddr */\n      swap1\n      swap2\n      and\n      swap1\n        /* \"contracts/DefaultTaskControl.sol\":2893:2934  IRedEnvelope(redEnvelopeAddr).sendTickets */\n      0x5c42e0c5\n      swap1\n        /* \"#utility.yul\":12085:12103   */\n      0x64\n      add\n        /* \"contracts/DefaultTaskControl.sol\":2893:2970  IRedEnvelope(redEnvelopeAddr).sendTickets(_id,_receiveAddress,_ticketNumbers) */\n      0x00\n      mload(0x40)\n      dup1\n      dup4\n      sub\n      dup2\n      0x00\n      dup8\n      dup1\n      extcodesize\n      iszero\n      dup1\n      iszero\n      tag_239\n      jumpi\n      0x00\n      dup1\n      revert\n    tag_239:\n      pop\n      gas\n      call\n      iszero\n      dup1\n      iszero\n      tag_241\n      jumpi\n      returndatasize\n      0x00\n      dup1\n      returndatacopy\n      revert(0x00, returndatasize)\n    tag_241:\n      pop\n      pop\n      pop\n      pop\n        /* \"contracts/DefaultTaskControl.sol\":2994:2999  false */\n      0x00\n        /* \"contracts/DefaultTaskControl.sol\":2988:2999  buy = false */\n      swap2\n      pop\n        /* \"contracts/DefaultTaskControl.sol\":2373:3014  if (redEnvelope.sendAllowAddr == address(0)){      ... */\n    tag_234:\n      pop\n        /* \"contracts/DefaultTaskControl.sol\":3034:3037  buy */\n      swap5\n        /* \"contracts/DefaultTaskControl.sol\":2132:3048  function _getTicket(uint256 _id,address _receiveAddress,uint256 _ticketNumbers)internal returns(bool){... */\n      swap4\n      pop\n      pop\n      pop\n      pop\n      jump\t// out\n        /* \"@openzeppelin/contracts/access/Ownable.sol\":1796:1958  function _checkOwner() internal view virtual {... */\n    tag_131:\n        /* \"@openzeppelin/contracts/access/Ownable.sol\":1710:1716  _owner */\n      and(sub(shl(0xa0, 0x01), 0x01), sload(0x06))\n        /* \"@openzeppelin/contracts/utils/Context.sol\":735:745  msg.sender */\n      caller\n        /* \"@openzeppelin/contracts/access/Ownable.sol\":1855:1878  owner() != _msgSender() */\n      eq\n        /* \"@openzeppelin/contracts/access/Ownable.sol\":1851:1952  if (owner() != _msgSender()) {... */\n      tag_163\n      jumpi\n        /* \"@openzeppelin/contracts/access/Ownable.sol\":1901:1941  OwnableUnauthorizedAccount(_msgSender()) */\n      mload(0x40)\n      shl(0xe0, 0x118cdaa7)\n      dup2\n      mstore\n        /* \"@openzeppelin/contracts/utils/Context.sol\":735:745  msg.sender */\n      caller\n        /* \"@openzeppelin/contracts/access/Ownable.sol\":1901:1941  OwnableUnauthorizedAccount(_msgSender()) */\n      0x04\n      dup3\n      add\n        /* \"#utility.yul\":3418:3469   */\n      mstore\n        /* \"#utility.yul\":3391:3409   */\n      0x24\n      add\n        /* \"@openzeppelin/contracts/access/Ownable.sol\":1901:1941  OwnableUnauthorizedAccount(_msgSender()) */\n      tag_184\n        /* \"#utility.yul\":3272:3475   */\n      jump\n        /* \"@openzeppelin/contracts/token/ERC20/ERC20.sol\":8989:9117  function _approve(address owner, address spender, uint256 value) internal {... */\n    tag_139:\n        /* \"@openzeppelin/contracts/token/ERC20/ERC20.sol\":9073:9110  _approve(owner, spender, value, true) */\n      tag_250\n        /* \"@openzeppelin/contracts/token/ERC20/ERC20.sol\":9082:9087  owner */\n      dup4\n        /* \"@openzeppelin/contracts/token/ERC20/ERC20.sol\":9089:9096  spender */\n      dup4\n        /* \"@openzeppelin/contracts/token/ERC20/ERC20.sol\":9098:9103  value */\n      dup4\n        /* \"@openzeppelin/contracts/token/ERC20/ERC20.sol\":9105:9109  true */\n      0x01\n        /* \"@openzeppelin/contracts/token/ERC20/ERC20.sol\":9073:9081  _approve */\n      tag_251\n        /* \"@openzeppelin/contracts/token/ERC20/ERC20.sol\":9073:9110  _approve(owner, spender, value, true) */\n      jump\t// in\n    tag_250:\n        /* \"@openzeppelin/contracts/token/ERC20/ERC20.sol\":8989:9117  function _approve(address owner, address spender, uint256 value) internal {... */\n      pop\n      pop\n      pop\n      jump\t// out\n        /* \"@openzeppelin/contracts/token/ERC20/ERC20.sol\":10663:11140  function _spendAllowance(address owner, address spender, uint256 value) internal virtual {... */\n    tag_144:\n      sub(shl(0xa0, 0x01), 0x01)\n        /* \"@openzeppelin/contracts/token/ERC20/ERC20.sol\":3952:3970  _allowances[owner] */\n      dup4\n      dup2\n      and\n        /* \"@openzeppelin/contracts/token/ERC20/ERC20.sol\":10762:10786  uint256 currentAllowance */\n      0x00\n        /* \"@openzeppelin/contracts/token/ERC20/ERC20.sol\":3952:3970  _allowances[owner] */\n      swap1\n      dup2\n      mstore\n        /* \"@openzeppelin/contracts/token/ERC20/ERC20.sol\":3952:3963  _allowances */\n      0x01\n        /* \"@openzeppelin/contracts/token/ERC20/ERC20.sol\":3952:3970  _allowances[owner] */\n      0x20\n      swap1\n      dup2\n      mstore\n      0x40\n      dup1\n      dup4\n      keccak256\n        /* \"@openzeppelin/contracts/token/ERC20/ERC20.sol\":3952:3979  _allowances[owner][spender] */\n      swap4\n      dup7\n      and\n      dup4\n      mstore\n      swap3\n      swap1\n      mstore\n      keccak256\n      sload\n      not(0x00)\n        /* \"@openzeppelin/contracts/token/ERC20/ERC20.sol\":10828:10865  currentAllowance != type(uint256).max */\n      dup2\n      eq\n        /* \"@openzeppelin/contracts/token/ERC20/ERC20.sol\":10824:11134  if (currentAllowance != type(uint256).max) {... */\n      tag_197\n      jumpi\n        /* \"@openzeppelin/contracts/token/ERC20/ERC20.sol\":10904:10909  value */\n      dup2\n        /* \"@openzeppelin/contracts/token/ERC20/ERC20.sol\":10885:10901  currentAllowance */\n      dup2\n        /* \"@openzeppelin/contracts/token/ERC20/ERC20.sol\":10885:10909  currentAllowance < value */\n      lt\n        /* \"@openzeppelin/contracts/token/ERC20/ERC20.sol\":10881:11011  if (currentAllowance < value) {... */\n      iszero\n      tag_255\n      jumpi\n        /* \"@openzeppelin/contracts/token/ERC20/ERC20.sol\":10936:10996  ERC20InsufficientAllowance(spender, currentAllowance, value) */\n      mload(0x40)\n      shl(0xe1, 0x7dc7a0d9)\n      dup2\n      mstore\n      sub(shl(0xa0, 0x01), 0x01)\n        /* \"#utility.yul\":12829:12861   */\n      dup5\n      and\n        /* \"@openzeppelin/contracts/token/ERC20/ERC20.sol\":10936:10996  ERC20InsufficientAllowance(spender, currentAllowance, value) */\n      0x04\n      dup3\n      add\n        /* \"#utility.yul\":12811:12862   */\n      mstore\n        /* \"#utility.yul\":12878:12896   */\n      0x24\n      dup2\n      add\n        /* \"#utility.yul\":12871:12905   */\n      dup3\n      swap1\n      mstore\n        /* \"#utility.yul\":12921:12939   */\n      0x44\n      dup2\n      add\n        /* \"#utility.yul\":12914:12948   */\n      dup4\n      swap1\n      mstore\n        /* \"#utility.yul\":12784:12802   */\n      0x64\n      add\n        /* \"@openzeppelin/contracts/token/ERC20/ERC20.sol\":10936:10996  ERC20InsufficientAllowance(spender, currentAllowance, value) */\n      tag_184\n        /* \"#utility.yul\":12609:12954   */\n      jump\n        /* \"@openzeppelin/contracts/token/ERC20/ERC20.sol\":10881:11011  if (currentAllowance < value) {... */\n    tag_255:\n        /* \"@openzeppelin/contracts/token/ERC20/ERC20.sol\":11052:11109  _approve(owner, spender, currentAllowance - value, false) */\n      tag_197\n        /* \"@openzeppelin/contracts/token/ERC20/ERC20.sol\":11061:11066  owner */\n      dup5\n        /* \"@openzeppelin/contracts/token/ERC20/ERC20.sol\":11068:11075  spender */\n      dup5\n        /* \"@openzeppelin/contracts/token/ERC20/ERC20.sol\":11096:11101  value */\n      dup5\n        /* \"@openzeppelin/contracts/token/ERC20/ERC20.sol\":11077:11093  currentAllowance */\n      dup5\n        /* \"@openzeppelin/contracts/token/ERC20/ERC20.sol\":11077:11101  currentAllowance - value */\n      sub\n        /* \"@openzeppelin/contracts/token/ERC20/ERC20.sol\":11103:11108  false */\n      0x00\n        /* \"@openzeppelin/contracts/token/ERC20/ERC20.sol\":11052:11060  _approve */\n      tag_251\n        /* \"@openzeppelin/contracts/token/ERC20/ERC20.sol\":11052:11109  _approve(owner, spender, currentAllowance - value, false) */\n      jump\t// in\n        /* \"@openzeppelin/contracts/token/ERC20/ERC20.sol\":5656:5956  function _transfer(address from, address to, uint256 value) internal {... */\n    tag_146:\n      sub(shl(0xa0, 0x01), 0x01)\n        /* \"@openzeppelin/contracts/token/ERC20/ERC20.sol\":5739:5757  from == address(0) */\n      dup4\n      and\n        /* \"@openzeppelin/contracts/token/ERC20/ERC20.sol\":5735:5821  if (from == address(0)) {... */\n      tag_260\n      jumpi\n        /* \"@openzeppelin/contracts/token/ERC20/ERC20.sol\":5780:5810  ERC20InvalidSender(address(0)) */\n      mload(0x40)\n      shl(0xe1, 0x4b637e8f)\n      dup2\n      mstore\n        /* \"@openzeppelin/contracts/token/ERC20/ERC20.sol\":5807:5808  0 */\n      0x00\n        /* \"@openzeppelin/contracts/token/ERC20/ERC20.sol\":5780:5810  ERC20InvalidSender(address(0)) */\n      0x04\n      dup3\n      add\n        /* \"#utility.yul\":3418:3469   */\n      mstore\n        /* \"#utility.yul\":3391:3409   */\n      0x24\n      add\n        /* \"@openzeppelin/contracts/token/ERC20/ERC20.sol\":5780:5810  ERC20InvalidSender(address(0)) */\n      tag_184\n        /* \"#utility.yul\":3272:3475   */\n      jump\n        /* \"@openzeppelin/contracts/token/ERC20/ERC20.sol\":5735:5821  if (from == address(0)) {... */\n    tag_260:\n      sub(shl(0xa0, 0x01), 0x01)\n        /* \"@openzeppelin/contracts/token/ERC20/ERC20.sol\":5834:5850  to == address(0) */\n      dup3\n      and\n        /* \"@openzeppelin/contracts/token/ERC20/ERC20.sol\":5830:5916  if (to == address(0)) {... */\n      tag_262\n      jumpi\n        /* \"@openzeppelin/contracts/token/ERC20/ERC20.sol\":5873:5905  ERC20InvalidReceiver(address(0)) */\n      mload(0x40)\n      shl(0xe0, 0xec442f05)\n      dup2\n      mstore\n        /* \"@openzeppelin/contracts/token/ERC20/ERC20.sol\":5902:5903  0 */\n      0x00\n        /* \"@openzeppelin/contracts/token/ERC20/ERC20.sol\":5873:5905  ERC20InvalidReceiver(address(0)) */\n      0x04\n      dup3\n      add\n        /* \"#utility.yul\":3418:3469   */\n      mstore\n        /* \"#utility.yul\":3391:3409   */\n      0x24\n      add\n        /* \"@openzeppelin/contracts/token/ERC20/ERC20.sol\":5873:5905  ERC20InvalidReceiver(address(0)) */\n      tag_184\n        /* \"#utility.yul\":3272:3475   */\n      jump\n        /* \"@openzeppelin/contracts/token/ERC20/ERC20.sol\":5830:5916  if (to == address(0)) {... */\n    tag_262:\n        /* \"@openzeppelin/contracts/token/ERC20/ERC20.sol\":5925:5949  _update(from, to, value) */\n      tag_250\n        /* \"@openzeppelin/contracts/token/ERC20/ERC20.sol\":5933:5937  from */\n      dup4\n        /* \"@openzeppelin/contracts/token/ERC20/ERC20.sol\":5939:5941  to */\n      dup4\n        /* \"@openzeppelin/contracts/token/ERC20/ERC20.sol\":5943:5948  value */\n      dup4\n        /* \"@openzeppelin/contracts/token/ERC20/ERC20.sol\":5925:5932  _update */\n      tag_265\n        /* \"@openzeppelin/contracts/token/ERC20/ERC20.sol\":5925:5949  _update(from, to, value) */\n      jump\t// in\n        /* \"@openzeppelin/contracts/token/ERC20/ERC20.sol\":8247:8453  function _burn(address account, uint256 value) internal {... */\n    tag_151:\n      sub(shl(0xa0, 0x01), 0x01)\n        /* \"@openzeppelin/contracts/token/ERC20/ERC20.sol\":8317:8338  account == address(0) */\n      dup3\n      and\n        /* \"@openzeppelin/contracts/token/ERC20/ERC20.sol\":8313:8402  if (account == address(0)) {... */\n      tag_267\n      jumpi\n        /* \"@openzeppelin/contracts/token/ERC20/ERC20.sol\":8361:8391  ERC20InvalidSender(address(0)) */\n      mload(0x40)\n      shl(0xe1, 0x4b637e8f)\n      dup2\n      mstore\n        /* \"@openzeppelin/contracts/token/ERC20/ERC20.sol\":8388:8389  0 */\n      0x00\n        /* \"@openzeppelin/contracts/token/ERC20/ERC20.sol\":8361:8391  ERC20InvalidSender(address(0)) */\n      0x04\n      dup3\n      add\n        /* \"#utility.yul\":3418:3469   */\n      mstore\n        /* \"#utility.yul\":3391:3409   */\n      0x24\n      add\n        /* \"@openzeppelin/contracts/token/ERC20/ERC20.sol\":8361:8391  ERC20InvalidSender(address(0)) */\n      tag_184\n        /* \"#utility.yul\":3272:3475   */\n      jump\n        /* \"@openzeppelin/contracts/token/ERC20/ERC20.sol\":8313:8402  if (account == address(0)) {... */\n    tag_267:\n        /* \"@openzeppelin/contracts/token/ERC20/ERC20.sol\":8411:8446  _update(account, address(0), value) */\n      tag_168\n        /* \"@openzeppelin/contracts/token/ERC20/ERC20.sol\":8419:8426  account */\n      dup3\n        /* \"@openzeppelin/contracts/token/ERC20/ERC20.sol\":8436:8437  0 */\n      0x00\n        /* \"@openzeppelin/contracts/token/ERC20/ERC20.sol\":8440:8445  value */\n      dup4\n        /* \"@openzeppelin/contracts/token/ERC20/ERC20.sol\":8411:8418  _update */\n      tag_265\n        /* \"@openzeppelin/contracts/token/ERC20/ERC20.sol\":8411:8446  _update(account, address(0), value) */\n      jump\t// in\n        /* \"@openzeppelin/contracts/access/Ownable.sol\":2912:3099  function _transferOwnership(address newOwner) internal virtual {... */\n    tag_164:\n        /* \"@openzeppelin/contracts/access/Ownable.sol\":3004:3010  _owner */\n      0x06\n      dup1\n      sload\n      sub(shl(0xa0, 0x01), 0x01)\n        /* \"@openzeppelin/contracts/access/Ownable.sol\":3020:3037  _owner = newOwner */\n      dup4\n      dup2\n      and\n      not(sub(shl(0xa0, 0x01), 0x01))\n      dup4\n      and\n      dup2\n      or\n      swap1\n      swap4\n      sstore\n        /* \"@openzeppelin/contracts/access/Ownable.sol\":3052:3092  OwnershipTransferred(oldOwner, newOwner) */\n      mload(0x40)\n        /* \"@openzeppelin/contracts/access/Ownable.sol\":3004:3010  _owner */\n      swap2\n      and\n      swap2\n        /* \"@openzeppelin/contracts/access/Ownable.sol\":3020:3037  _owner = newOwner */\n      swap1\n        /* \"@openzeppelin/contracts/access/Ownable.sol\":3004:3010  _owner */\n      dup3\n      swap1\n        /* \"@openzeppelin/contracts/access/Ownable.sol\":3052:3092  OwnershipTransferred(oldOwner, newOwner) */\n      0x8be0079c531659141344cd1fd0a4f28419497f9722a3daafe3b4186f6b6457e0\n      swap1\n        /* \"@openzeppelin/contracts/access/Ownable.sol\":2985:3001  address oldOwner */\n      0x00\n      swap1\n        /* \"@openzeppelin/contracts/access/Ownable.sol\":3052:3092  OwnershipTransferred(oldOwner, newOwner) */\n      log3\n        /* \"@openzeppelin/contracts/access/Ownable.sol\":2975:3099  {... */\n      pop\n        /* \"@openzeppelin/contracts/access/Ownable.sol\":2912:3099  function _transferOwnership(address newOwner) internal virtual {... */\n      pop\n      jump\t// out\n        /* \"@openzeppelin/contracts/utils/ReentrancyGuard.sol\":2431:2738  function _nonReentrantBefore() private {... */\n    tag_181:\n        /* \"@openzeppelin/contracts/utils/ReentrancyGuard.sol\":1755:1756  2 */\n      0x02\n        /* \"@openzeppelin/contracts/utils/ReentrancyGuard.sol\":2558:2565  _status */\n      sload(0x05)\n        /* \"@openzeppelin/contracts/utils/ReentrancyGuard.sol\":2558:2576  _status == ENTERED */\n      sub\n        /* \"@openzeppelin/contracts/utils/ReentrancyGuard.sol\":2554:2640  if (_status == ENTERED) {... */\n      tag_272\n      jumpi\n        /* \"@openzeppelin/contracts/utils/ReentrancyGuard.sol\":2599:2629  ReentrancyGuardReentrantCall() */\n      mload(0x40)\n      shl(0xe0, 0x3ee5aeb5)\n      dup2\n      mstore\n      0x04\n      add\n      mload(0x40)\n      dup1\n      swap2\n      sub\n      swap1\n      revert\n        /* \"@openzeppelin/contracts/utils/ReentrancyGuard.sol\":2554:2640  if (_status == ENTERED) {... */\n    tag_272:\n        /* \"@openzeppelin/contracts/utils/ReentrancyGuard.sol\":1755:1756  2 */\n      0x02\n        /* \"@openzeppelin/contracts/utils/ReentrancyGuard.sol\":2714:2721  _status */\n      0x05\n        /* \"@openzeppelin/contracts/utils/ReentrancyGuard.sol\":2714:2731  _status = ENTERED */\n      sstore\n        /* \"@openzeppelin/contracts/utils/ReentrancyGuard.sol\":2431:2738  function _nonReentrantBefore() private {... */\n      jump\t// out\n        /* \"@openzeppelin/contracts/token/ERC20/ERC20.sol\":7721:7929  function _mint(address account, uint256 value) internal {... */\n    tag_194:\n      sub(shl(0xa0, 0x01), 0x01)\n        /* \"@openzeppelin/contracts/token/ERC20/ERC20.sol\":7791:7812  account == address(0) */\n      dup3\n      and\n        /* \"@openzeppelin/contracts/token/ERC20/ERC20.sol\":7787:7878  if (account == address(0)) {... */\n      tag_274\n      jumpi\n        /* \"@openzeppelin/contracts/token/ERC20/ERC20.sol\":7835:7867  ERC20InvalidReceiver(address(0)) */\n      mload(0x40)\n      shl(0xe0, 0xec442f05)\n      dup2\n      mstore\n        /* \"@openzeppelin/contracts/token/ERC20/ERC20.sol\":7864:7865  0 */\n      0x00\n        /* \"@openzeppelin/contracts/token/ERC20/ERC20.sol\":7835:7867  ERC20InvalidReceiver(address(0)) */\n      0x04\n      dup3\n      add\n        /* \"#utility.yul\":3418:3469   */\n      mstore\n        /* \"#utility.yul\":3391:3409   */\n      0x24\n      add\n        /* \"@openzeppelin/contracts/token/ERC20/ERC20.sol\":7835:7867  ERC20InvalidReceiver(address(0)) */\n      tag_184\n        /* \"#utility.yul\":3272:3475   */\n      jump\n        /* \"@openzeppelin/contracts/token/ERC20/ERC20.sol\":7787:7878  if (account == address(0)) {... */\n    tag_274:\n        /* \"@openzeppelin/contracts/token/ERC20/ERC20.sol\":7887:7922  _update(address(0), account, value) */\n      tag_168\n        /* \"@openzeppelin/contracts/token/ERC20/ERC20.sol\":7903:7904  0 */\n      0x00\n        /* \"@openzeppelin/contracts/token/ERC20/ERC20.sol\":7907:7914  account */\n      dup4\n        /* \"@openzeppelin/contracts/token/ERC20/ERC20.sol\":7916:7921  value */\n      dup4\n        /* \"@openzeppelin/contracts/token/ERC20/ERC20.sol\":7887:7894  _update */\n      tag_265\n        /* \"@openzeppelin/contracts/token/ERC20/ERC20.sol\":7887:7922  _update(address(0), account, value) */\n      jump\t// in\n        /* \"@openzeppelin/contracts/token/ERC20/ERC20.sol\":9949:10381  function _approve(address owner, address spender, uint256 value, bool emitEvent) internal virtual {... */\n    tag_251:\n      sub(shl(0xa0, 0x01), 0x01)\n        /* \"@openzeppelin/contracts/token/ERC20/ERC20.sol\":10061:10080  owner == address(0) */\n      dup5\n      and\n        /* \"@openzeppelin/contracts/token/ERC20/ERC20.sol\":10057:10146  if (owner == address(0)) {... */\n      tag_279\n      jumpi\n        /* \"@openzeppelin/contracts/token/ERC20/ERC20.sol\":10103:10135  ERC20InvalidApprover(address(0)) */\n      mload(0x40)\n      shl(0xe0, 0xe602df05)\n      dup2\n      mstore\n        /* \"@openzeppelin/contracts/token/ERC20/ERC20.sol\":10132:10133  0 */\n      0x00\n        /* \"@openzeppelin/contracts/token/ERC20/ERC20.sol\":10103:10135  ERC20InvalidApprover(address(0)) */\n      0x04\n      dup3\n      add\n        /* \"#utility.yul\":3418:3469   */\n      mstore\n        /* \"#utility.yul\":3391:3409   */\n      0x24\n      add\n        /* \"@openzeppelin/contracts/token/ERC20/ERC20.sol\":10103:10135  ERC20InvalidApprover(address(0)) */\n      tag_184\n        /* \"#utility.yul\":3272:3475   */\n      jump\n        /* \"@openzeppelin/contracts/token/ERC20/ERC20.sol\":10057:10146  if (owner == address(0)) {... */\n    tag_279:\n      sub(shl(0xa0, 0x01), 0x01)\n        /* \"@openzeppelin/contracts/token/ERC20/ERC20.sol\":10159:10180  spender == address(0) */\n      dup4\n      and\n        /* \"@openzeppelin/contracts/token/ERC20/ERC20.sol\":10155:10245  if (spender == address(0)) {... */\n      tag_281\n      jumpi\n        /* \"@openzeppelin/contracts/token/ERC20/ERC20.sol\":10203:10234  ERC20InvalidSpender(address(0)) */\n      mload(0x40)\n      shl(0xe1, 0x4a1406b1)\n      dup2\n      mstore\n        /* \"@openzeppelin/contracts/token/ERC20/ERC20.sol\":10231:10232  0 */\n      0x00\n        /* \"@openzeppelin/contracts/token/ERC20/ERC20.sol\":10203:10234  ERC20InvalidSpender(address(0)) */\n      0x04\n      dup3\n      add\n        /* \"#utility.yul\":3418:3469   */\n      mstore\n        /* \"#utility.yul\":3391:3409   */\n      0x24\n      add\n        /* \"@openzeppelin/contracts/token/ERC20/ERC20.sol\":10203:10234  ERC20InvalidSpender(address(0)) */\n      tag_184\n        /* \"#utility.yul\":3272:3475   */\n      jump\n        /* \"@openzeppelin/contracts/token/ERC20/ERC20.sol\":10155:10245  if (spender == address(0)) {... */\n    tag_281:\n      sub(shl(0xa0, 0x01), 0x01)\n        /* \"@openzeppelin/contracts/token/ERC20/ERC20.sol\":10254:10272  _allowances[owner] */\n      dup1\n      dup6\n      and\n      0x00\n      swap1\n      dup2\n      mstore\n        /* \"@openzeppelin/contracts/token/ERC20/ERC20.sol\":10254:10265  _allowances */\n      0x01\n        /* \"@openzeppelin/contracts/token/ERC20/ERC20.sol\":10254:10272  _allowances[owner] */\n      0x20\n      swap1\n      dup2\n      mstore\n      0x40\n      dup1\n      dup4\n      keccak256\n        /* \"@openzeppelin/contracts/token/ERC20/ERC20.sol\":10254:10281  _allowances[owner][spender] */\n      swap4\n      dup8\n      and\n      dup4\n      mstore\n      swap3\n      swap1\n      mstore\n      keccak256\n        /* \"@openzeppelin/contracts/token/ERC20/ERC20.sol\":10254:10289  _allowances[owner][spender] = value */\n      dup3\n      swap1\n      sstore\n        /* \"@openzeppelin/contracts/token/ERC20/ERC20.sol\":10299:10375  if (emitEvent) {... */\n      dup1\n      iszero\n      tag_197\n      jumpi\n        /* \"@openzeppelin/contracts/token/ERC20/ERC20.sol\":10349:10356  spender */\n      dup3\n      sub(shl(0xa0, 0x01), 0x01)\n        /* \"@openzeppelin/contracts/token/ERC20/ERC20.sol\":10333:10364  Approval(owner, spender, value) */\n      and\n        /* \"@openzeppelin/contracts/token/ERC20/ERC20.sol\":10342:10347  owner */\n      dup5\n      sub(shl(0xa0, 0x01), 0x01)\n        /* \"@openzeppelin/contracts/token/ERC20/ERC20.sol\":10333:10364  Approval(owner, spender, value) */\n      and\n      0x8c5be1e5ebec7d5bd14f71427d1e84f3dd0314c0f7b2291e5b200ac8c7c3b925\n        /* \"@openzeppelin/contracts/token/ERC20/ERC20.sol\":10358:10363  value */\n      dup5\n        /* \"@openzeppelin/contracts/token/ERC20/ERC20.sol\":10333:10364  Approval(owner, spender, value) */\n      mload(0x40)\n      tag_284\n      swap2\n        /* \"#utility.yul\":1619:1644   */\n      dup2\n      mstore\n        /* \"#utility.yul\":1607:1609   */\n      0x20\n        /* \"#utility.yul\":1592:1610   */\n      add\n      swap1\n        /* \"#utility.yul\":1473:1650   */\n      jump\n        /* \"@openzeppelin/contracts/token/ERC20/ERC20.sol\":10333:10364  Approval(owner, spender, value) */\n    tag_284:\n      mload(0x40)\n      dup1\n      swap2\n      sub\n      swap1\n      log3\n        /* \"@openzeppelin/contracts/token/ERC20/ERC20.sol\":9949:10381  function _approve(address owner, address spender, uint256 value, bool emitEvent) internal virtual {... */\n      pop\n      pop\n      pop\n      pop\n      jump\t// out\n        /* \"@openzeppelin/contracts/token/ERC20/ERC20.sol\":6271:7378  function _update(address from, address to, uint256 value) internal virtual {... */\n    tag_265:\n      sub(shl(0xa0, 0x01), 0x01)\n        /* \"@openzeppelin/contracts/token/ERC20/ERC20.sol\":6360:6378  from == address(0) */\n      dup4\n      and\n        /* \"@openzeppelin/contracts/token/ERC20/ERC20.sol\":6356:6896  if (from == address(0)) {... */\n      tag_286\n      jumpi\n        /* \"@openzeppelin/contracts/token/ERC20/ERC20.sol\":6512:6517  value */\n      dup1\n        /* \"@openzeppelin/contracts/token/ERC20/ERC20.sol\":6496:6508  _totalSupply */\n      0x02\n      0x00\n        /* \"@openzeppelin/contracts/token/ERC20/ERC20.sol\":6496:6517  _totalSupply += value */\n      dup3\n      dup3\n      sload\n      tag_287\n      swap2\n      swap1\n      tag_288\n      jump\t// in\n    tag_287:\n      swap1\n      swap2\n      sstore\n      pop\n        /* \"@openzeppelin/contracts/token/ERC20/ERC20.sol\":6356:6896  if (from == address(0)) {... */\n      tag_289\n      swap1\n      pop\n      jump\n    tag_286:\n      sub(shl(0xa0, 0x01), 0x01)\n        /* \"@openzeppelin/contracts/token/ERC20/ERC20.sol\":6570:6585  _balances[from] */\n      dup4\n      and\n        /* \"@openzeppelin/contracts/token/ERC20/ERC20.sol\":6548:6567  uint256 fromBalance */\n      0x00\n        /* \"@openzeppelin/contracts/token/ERC20/ERC20.sol\":6570:6585  _balances[from] */\n      swap1\n      dup2\n      mstore\n      0x20\n      dup2\n      swap1\n      mstore\n      0x40\n      swap1\n      keccak256\n      sload\n        /* \"@openzeppelin/contracts/token/ERC20/ERC20.sol\":6603:6622  fromBalance < value */\n      dup2\n      dup2\n      lt\n        /* \"@openzeppelin/contracts/token/ERC20/ERC20.sol\":6599:6714  if (fromBalance < value) {... */\n      iszero\n      tag_290\n      jumpi\n        /* \"@openzeppelin/contracts/token/ERC20/ERC20.sol\":6649:6699  ERC20InsufficientBalance(from, fromBalance, value) */\n      mload(0x40)\n      shl(0xe2, 0x391434e3)\n      dup2\n      mstore\n      sub(shl(0xa0, 0x01), 0x01)\n        /* \"#utility.yul\":12829:12861   */\n      dup6\n      and\n        /* \"@openzeppelin/contracts/token/ERC20/ERC20.sol\":6649:6699  ERC20InsufficientBalance(from, fromBalance, value) */\n      0x04\n      dup3\n      add\n        /* \"#utility.yul\":12811:12862   */\n      mstore\n        /* \"#utility.yul\":12878:12896   */\n      0x24\n      dup2\n      add\n        /* \"#utility.yul\":12871:12905   */\n      dup3\n      swap1\n      mstore\n        /* \"#utility.yul\":12921:12939   */\n      0x44\n      dup2\n      add\n        /* \"#utility.yul\":12914:12948   */\n      dup4\n      swap1\n      mstore\n        /* \"#utility.yul\":12784:12802   */\n      0x64\n      add\n        /* \"@openzeppelin/contracts/token/ERC20/ERC20.sol\":6649:6699  ERC20InsufficientBalance(from, fromBalance, value) */\n      tag_184\n        /* \"#utility.yul\":12609:12954   */\n      jump\n        /* \"@openzeppelin/contracts/token/ERC20/ERC20.sol\":6599:6714  if (fromBalance < value) {... */\n    tag_290:\n      sub(shl(0xa0, 0x01), 0x01)\n        /* \"@openzeppelin/contracts/token/ERC20/ERC20.sol\":6834:6849  _balances[from] */\n      dup5\n      and\n        /* \"@openzeppelin/contracts/token/ERC20/ERC20.sol\":6834:6843  _balances */\n      0x00\n        /* \"@openzeppelin/contracts/token/ERC20/ERC20.sol\":6834:6849  _balances[from] */\n      swap1\n      dup2\n      mstore\n      0x20\n      dup2\n      swap1\n      mstore\n      0x40\n      swap1\n      keccak256\n        /* \"@openzeppelin/contracts/token/ERC20/ERC20.sol\":6852:6871  fromBalance - value */\n      swap1\n      dup3\n      swap1\n      sub\n        /* \"@openzeppelin/contracts/token/ERC20/ERC20.sol\":6834:6871  _balances[from] = fromBalance - value */\n      swap1\n      sstore\n        /* \"@openzeppelin/contracts/token/ERC20/ERC20.sol\":6356:6896  if (from == address(0)) {... */\n    tag_289:\n      sub(shl(0xa0, 0x01), 0x01)\n        /* \"@openzeppelin/contracts/token/ERC20/ERC20.sol\":6910:6926  to == address(0) */\n      dup3\n      and\n        /* \"@openzeppelin/contracts/token/ERC20/ERC20.sol\":6906:7331  if (to == address(0)) {... */\n      tag_292\n      jumpi\n        /* \"@openzeppelin/contracts/token/ERC20/ERC20.sol\":7073:7085  _totalSupply */\n      0x02\n        /* \"@openzeppelin/contracts/token/ERC20/ERC20.sol\":7073:7094  _totalSupply -= value */\n      dup1\n      sload\n      dup3\n      swap1\n      sub\n      swap1\n      sstore\n        /* \"@openzeppelin/contracts/token/ERC20/ERC20.sol\":6906:7331  if (to == address(0)) {... */\n      jump(tag_293)\n    tag_292:\n      sub(shl(0xa0, 0x01), 0x01)\n        /* \"@openzeppelin/contracts/token/ERC20/ERC20.sol\":7284:7297  _balances[to] */\n      dup3\n      and\n        /* \"@openzeppelin/contracts/token/ERC20/ERC20.sol\":7284:7293  _balances */\n      0x00\n        /* \"@openzeppelin/contracts/token/ERC20/ERC20.sol\":7284:7297  _balances[to] */\n      swap1\n      dup2\n      mstore\n      0x20\n      dup2\n      swap1\n      mstore\n      0x40\n      swap1\n      keccak256\n        /* \"@openzeppelin/contracts/token/ERC20/ERC20.sol\":7284:7306  _balances[to] += value */\n      dup1\n      sload\n      dup3\n      add\n      swap1\n      sstore\n        /* \"@openzeppelin/contracts/token/ERC20/ERC20.sol\":6906:7331  if (to == address(0)) {... */\n    tag_293:\n        /* \"@openzeppelin/contracts/token/ERC20/ERC20.sol\":7361:7363  to */\n      dup2\n      sub(shl(0xa0, 0x01), 0x01)\n        /* \"@openzeppelin/contracts/token/ERC20/ERC20.sol\":7346:7371  Transfer(from, to, value) */\n      and\n        /* \"@openzeppelin/contracts/token/ERC20/ERC20.sol\":7355:7359  from */\n      dup4\n      sub(shl(0xa0, 0x01), 0x01)\n        /* \"@openzeppelin/contracts/token/ERC20/ERC20.sol\":7346:7371  Transfer(from, to, value) */\n      and\n      0xddf252ad1be2c89b69c2b068fc378daa952ba7f163c4a11628f55a4df523b3ef\n        /* \"@openzeppelin/contracts/token/ERC20/ERC20.sol\":7365:7370  value */\n      dup4\n        /* \"@openzeppelin/contracts/token/ERC20/ERC20.sol\":7346:7371  Transfer(from, to, value) */\n      mload(0x40)\n      tag_294\n      swap2\n        /* \"#utility.yul\":1619:1644   */\n      dup2\n      mstore\n        /* \"#utility.yul\":1607:1609   */\n      0x20\n        /* \"#utility.yul\":1592:1610   */\n      add\n      swap1\n        /* \"#utility.yul\":1473:1650   */\n      jump\n        /* \"@openzeppelin/contracts/token/ERC20/ERC20.sol\":7346:7371  Transfer(from, to, value) */\n    tag_294:\n      mload(0x40)\n      dup1\n      swap2\n      sub\n      swap1\n      log3\n        /* \"@openzeppelin/contracts/token/ERC20/ERC20.sol\":6271:7378  function _update(address from, address to, uint256 value) internal virtual {... */\n      pop\n      pop\n      pop\n      jump\t// out\n        /* \"#utility.yul\":14:145   */\n    tag_295:\n      sub(shl(0xa0, 0x01), 0x01)\n        /* \"#utility.yul\":89:120   */\n      dup2\n      and\n        /* \"#utility.yul\":79:121   */\n      dup2\n      eq\n        /* \"#utility.yul\":69:139   */\n      tag_149\n      jumpi\n        /* \"#utility.yul\":135:136   */\n      0x00\n        /* \"#utility.yul\":132:133   */\n      dup1\n        /* \"#utility.yul\":125:137   */\n      revert\n        /* \"#utility.yul\":150:533   */\n    tag_30:\n        /* \"#utility.yul\":227:233   */\n      0x00\n        /* \"#utility.yul\":235:241   */\n      dup1\n        /* \"#utility.yul\":243:249   */\n      0x00\n        /* \"#utility.yul\":296:298   */\n      0x60\n        /* \"#utility.yul\":284:293   */\n      dup5\n        /* \"#utility.yul\":275:282   */\n      dup7\n        /* \"#utility.yul\":271:294   */\n      sub\n        /* \"#utility.yul\":267:299   */\n      slt\n        /* \"#utility.yul\":264:316   */\n      iszero\n      tag_307\n      jumpi\n        /* \"#utility.yul\":312:313   */\n      0x00\n        /* \"#utility.yul\":309:310   */\n      dup1\n        /* \"#utility.yul\":302:314   */\n      revert\n        /* \"#utility.yul\":264:316   */\n    tag_307:\n        /* \"#utility.yul\":348:357   */\n      dup4\n        /* \"#utility.yul\":335:358   */\n      calldataload\n        /* \"#utility.yul\":325:358   */\n      swap3\n      pop\n        /* \"#utility.yul\":408:410   */\n      0x20\n        /* \"#utility.yul\":397:406   */\n      dup5\n        /* \"#utility.yul\":393:411   */\n      add\n        /* \"#utility.yul\":380:412   */\n      calldataload\n        /* \"#utility.yul\":421:452   */\n      tag_308\n        /* \"#utility.yul\":446:451   */\n      dup2\n        /* \"#utility.yul\":421:452   */\n      tag_295\n      jump\t// in\n    tag_308:\n        /* \"#utility.yul\":150:533   */\n      swap3\n      swap6\n        /* \"#utility.yul\":471:476   */\n      swap3\n      swap5\n      pop\n      pop\n      pop\n        /* \"#utility.yul\":523:525   */\n      0x40\n        /* \"#utility.yul\":508:526   */\n      swap2\n      swap1\n      swap2\n      add\n        /* \"#utility.yul\":495:527   */\n      calldataload\n      swap1\n        /* \"#utility.yul\":150:533   */\n      jump\t// out\n        /* \"#utility.yul\":730:1148   */\n    tag_39:\n        /* \"#utility.yul\":879:881   */\n      0x20\n        /* \"#utility.yul\":868:877   */\n      dup2\n        /* \"#utility.yul\":861:882   */\n      mstore\n        /* \"#utility.yul\":842:846   */\n      0x00\n        /* \"#utility.yul\":911:917   */\n      dup3\n        /* \"#utility.yul\":905:918   */\n      mload\n        /* \"#utility.yul\":954:960   */\n      dup1\n        /* \"#utility.yul\":949:951   */\n      0x20\n        /* \"#utility.yul\":938:947   */\n      dup5\n        /* \"#utility.yul\":934:952   */\n      add\n        /* \"#utility.yul\":927:961   */\n      mstore\n        /* \"#utility.yul\":1013:1019   */\n      dup1\n        /* \"#utility.yul\":1008:1010   */\n      0x20\n        /* \"#utility.yul\":1000:1006   */\n      dup6\n        /* \"#utility.yul\":996:1011   */\n      add\n        /* \"#utility.yul\":991:993   */\n      0x40\n        /* \"#utility.yul\":980:989   */\n      dup6\n        /* \"#utility.yul\":976:994   */\n      add\n        /* \"#utility.yul\":970:1020   */\n      mcopy\n        /* \"#utility.yul\":1069:1070   */\n      0x00\n        /* \"#utility.yul\":1064:1066   */\n      0x40\n        /* \"#utility.yul\":1055:1061   */\n      dup3\n        /* \"#utility.yul\":1044:1053   */\n      dup6\n        /* \"#utility.yul\":1040:1062   */\n      add\n        /* \"#utility.yul\":1036:1067   */\n      add\n        /* \"#utility.yul\":1029:1071   */\n      mstore\n        /* \"#utility.yul\":1139:1141   */\n      0x40\n        /* \"#utility.yul\":1132:1134   */\n      0x1f\n        /* \"#utility.yul\":1128:1135   */\n      not\n        /* \"#utility.yul\":1123:1125   */\n      0x1f\n        /* \"#utility.yul\":1115:1121   */\n      dup4\n        /* \"#utility.yul\":1111:1126   */\n      add\n        /* \"#utility.yul\":1107:1136   */\n      and\n        /* \"#utility.yul\":1096:1105   */\n      dup5\n        /* \"#utility.yul\":1092:1137   */\n      add\n        /* \"#utility.yul\":1088:1142   */\n      add\n        /* \"#utility.yul\":1080:1142   */\n      swap2\n      pop\n      pop\n        /* \"#utility.yul\":730:1148   */\n      swap3\n      swap2\n      pop\n      pop\n      jump\t// out\n        /* \"#utility.yul\":1153:1468   */\n    tag_42:\n        /* \"#utility.yul\":1221:1227   */\n      0x00\n        /* \"#utility.yul\":1229:1235   */\n      dup1\n        /* \"#utility.yul\":1282:1284   */\n      0x40\n        /* \"#utility.yul\":1270:1279   */\n      dup4\n        /* \"#utility.yul\":1261:1268   */\n      dup6\n        /* \"#utility.yul\":1257:1280   */\n      sub\n        /* \"#utility.yul\":1253:1285   */\n      slt\n        /* \"#utility.yul\":1250:1302   */\n      iszero\n      tag_312\n      jumpi\n        /* \"#utility.yul\":1298:1299   */\n      0x00\n        /* \"#utility.yul\":1295:1296   */\n      dup1\n        /* \"#utility.yul\":1288:1300   */\n      revert\n        /* \"#utility.yul\":1250:1302   */\n    tag_312:\n        /* \"#utility.yul\":1337:1346   */\n      dup3\n        /* \"#utility.yul\":1324:1347   */\n      calldataload\n        /* \"#utility.yul\":1356:1387   */\n      tag_313\n        /* \"#utility.yul\":1381:1386   */\n      dup2\n        /* \"#utility.yul\":1356:1387   */\n      tag_295\n      jump\t// in\n    tag_313:\n        /* \"#utility.yul\":1406:1411   */\n      swap5\n        /* \"#utility.yul\":1458:1460   */\n      0x20\n        /* \"#utility.yul\":1443:1461   */\n      swap4\n      swap1\n      swap4\n      add\n        /* \"#utility.yul\":1430:1462   */\n      calldataload\n      swap4\n      pop\n      pop\n      pop\n        /* \"#utility.yul\":1153:1468   */\n      jump\t// out\n        /* \"#utility.yul\":1655:2111   */\n    tag_54:\n        /* \"#utility.yul\":1732:1738   */\n      0x00\n        /* \"#utility.yul\":1740:1746   */\n      dup1\n        /* \"#utility.yul\":1748:1754   */\n      0x00\n        /* \"#utility.yul\":1801:1803   */\n      0x60\n        /* \"#utility.yul\":1789:1798   */\n      dup5\n        /* \"#utility.yul\":1780:1787   */\n      dup7\n        /* \"#utility.yul\":1776:1799   */\n      sub\n        /* \"#utility.yul\":1772:1804   */\n      slt\n        /* \"#utility.yul\":1769:1821   */\n      iszero\n      tag_316\n      jumpi\n        /* \"#utility.yul\":1817:1818   */\n      0x00\n        /* \"#utility.yul\":1814:1815   */\n      dup1\n        /* \"#utility.yul\":1807:1819   */\n      revert\n        /* \"#utility.yul\":1769:1821   */\n    tag_316:\n        /* \"#utility.yul\":1856:1865   */\n      dup4\n        /* \"#utility.yul\":1843:1866   */\n      calldataload\n        /* \"#utility.yul\":1875:1906   */\n      tag_317\n        /* \"#utility.yul\":1900:1905   */\n      dup2\n        /* \"#utility.yul\":1875:1906   */\n      tag_295\n      jump\t// in\n    tag_317:\n        /* \"#utility.yul\":1925:1930   */\n      swap3\n      pop\n        /* \"#utility.yul\":1982:1984   */\n      0x20\n        /* \"#utility.yul\":1967:1985   */\n      dup5\n      add\n        /* \"#utility.yul\":1954:1986   */\n      calldataload\n        /* \"#utility.yul\":1995:2028   */\n      tag_308\n        /* \"#utility.yul\":1954:1986   */\n      dup2\n        /* \"#utility.yul\":1995:2028   */\n      tag_295\n      jump\t// in\n        /* \"#utility.yul\":2305:2485   */\n    tag_63:\n        /* \"#utility.yul\":2364:2370   */\n      0x00\n        /* \"#utility.yul\":2417:2419   */\n      0x20\n        /* \"#utility.yul\":2405:2414   */\n      dup3\n        /* \"#utility.yul\":2396:2403   */\n      dup5\n        /* \"#utility.yul\":2392:2415   */\n      sub\n        /* \"#utility.yul\":2388:2420   */\n      slt\n        /* \"#utility.yul\":2385:2437   */\n      iszero\n      tag_321\n      jumpi\n        /* \"#utility.yul\":2433:2434   */\n      0x00\n        /* \"#utility.yul\":2430:2431   */\n      dup1\n        /* \"#utility.yul\":2423:2435   */\n      revert\n        /* \"#utility.yul\":2385:2437   */\n    tag_321:\n      pop\n        /* \"#utility.yul\":2456:2479   */\n      calldataload\n      swap2\n        /* \"#utility.yul\":2305:2485   */\n      swap1\n      pop\n      jump\t// out\n        /* \"#utility.yul\":2490:3015   */\n    tag_67:\n        /* \"#utility.yul\":2576:2582   */\n      0x00\n        /* \"#utility.yul\":2584:2590   */\n      dup1\n        /* \"#utility.yul\":2592:2598   */\n      0x00\n        /* \"#utility.yul\":2600:2606   */\n      dup1\n        /* \"#utility.yul\":2653:2656   */\n      0x80\n        /* \"#utility.yul\":2641:2650   */\n      dup6\n        /* \"#utility.yul\":2632:2639   */\n      dup8\n        /* \"#utility.yul\":2628:2651   */\n      sub\n        /* \"#utility.yul\":2624:2657   */\n      slt\n        /* \"#utility.yul\":2621:2674   */\n      iszero\n      tag_323\n      jumpi\n        /* \"#utility.yul\":2670:2671   */\n      0x00\n        /* \"#utility.yul\":2667:2668   */\n      dup1\n        /* \"#utility.yul\":2660:2672   */\n      revert\n        /* \"#utility.yul\":2621:2674   */\n    tag_323:\n        /* \"#utility.yul\":2706:2715   */\n      dup5\n        /* \"#utility.yul\":2693:2716   */\n      calldataload\n        /* \"#utility.yul\":2683:2716   */\n      swap4\n      pop\n        /* \"#utility.yul\":2766:2768   */\n      0x20\n        /* \"#utility.yul\":2755:2764   */\n      dup6\n        /* \"#utility.yul\":2751:2769   */\n      add\n        /* \"#utility.yul\":2738:2770   */\n      calldataload\n        /* \"#utility.yul\":2779:2810   */\n      tag_324\n        /* \"#utility.yul\":2804:2809   */\n      dup2\n        /* \"#utility.yul\":2779:2810   */\n      tag_295\n      jump\t// in\n    tag_324:\n        /* \"#utility.yul\":2829:2834   */\n      swap3\n      pop\n        /* \"#utility.yul\":2886:2888   */\n      0x40\n        /* \"#utility.yul\":2871:2889   */\n      dup6\n      add\n        /* \"#utility.yul\":2858:2890   */\n      calldataload\n        /* \"#utility.yul\":2899:2932   */\n      tag_325\n        /* \"#utility.yul\":2858:2890   */\n      dup2\n        /* \"#utility.yul\":2899:2932   */\n      tag_295\n      jump\t// in\n    tag_325:\n        /* \"#utility.yul\":2490:3015   */\n      swap4\n      swap7\n      swap3\n      swap6\n      pop\n        /* \"#utility.yul\":2951:2958   */\n      swap3\n      swap4\n        /* \"#utility.yul\":3005:3007   */\n      0x60\n        /* \"#utility.yul\":2990:3008   */\n      add\n        /* \"#utility.yul\":2977:3009   */\n      calldataload\n      swap3\n      pop\n      pop\n        /* \"#utility.yul\":2490:3015   */\n      jump\t// out\n        /* \"#utility.yul\":3020:3267   */\n    tag_71:\n        /* \"#utility.yul\":3079:3085   */\n      0x00\n        /* \"#utility.yul\":3132:3134   */\n      0x20\n        /* \"#utility.yul\":3120:3129   */\n      dup3\n        /* \"#utility.yul\":3111:3118   */\n      dup5\n        /* \"#utility.yul\":3107:3130   */\n      sub\n        /* \"#utility.yul\":3103:3135   */\n      slt\n        /* \"#utility.yul\":3100:3152   */\n      iszero\n      tag_327\n      jumpi\n        /* \"#utility.yul\":3148:3149   */\n      0x00\n        /* \"#utility.yul\":3145:3146   */\n      dup1\n        /* \"#utility.yul\":3138:3150   */\n      revert\n        /* \"#utility.yul\":3100:3152   */\n    tag_327:\n        /* \"#utility.yul\":3187:3196   */\n      dup2\n        /* \"#utility.yul\":3174:3197   */\n      calldataload\n        /* \"#utility.yul\":3206:3237   */\n      tag_328\n        /* \"#utility.yul\":3231:3236   */\n      dup2\n        /* \"#utility.yul\":3206:3237   */\n      tag_295\n      jump\t// in\n    tag_328:\n        /* \"#utility.yul\":3256:3261   */\n      swap4\n        /* \"#utility.yul\":3020:3267   */\n      swap3\n      pop\n      pop\n      pop\n      jump\t// out\n        /* \"#utility.yul\":3480:4347   */\n    tag_98:\n        /* \"#utility.yul\":3568:3574   */\n      0x00\n        /* \"#utility.yul\":3576:3582   */\n      dup1\n        /* \"#utility.yul\":3584:3590   */\n      0x00\n        /* \"#utility.yul\":3592:3598   */\n      dup1\n        /* \"#utility.yul\":3645:3647   */\n      0x60\n        /* \"#utility.yul\":3633:3642   */\n      dup6\n        /* \"#utility.yul\":3624:3631   */\n      dup8\n        /* \"#utility.yul\":3620:3643   */\n      sub\n        /* \"#utility.yul\":3616:3648   */\n      slt\n        /* \"#utility.yul\":3613:3665   */\n      iszero\n      tag_331\n      jumpi\n        /* \"#utility.yul\":3661:3662   */\n      0x00\n        /* \"#utility.yul\":3658:3659   */\n      dup1\n        /* \"#utility.yul\":3651:3663   */\n      revert\n        /* \"#utility.yul\":3613:3665   */\n    tag_331:\n        /* \"#utility.yul\":3700:3709   */\n      dup5\n        /* \"#utility.yul\":3687:3710   */\n      calldataload\n        /* \"#utility.yul\":3719:3750   */\n      tag_332\n        /* \"#utility.yul\":3744:3749   */\n      dup2\n        /* \"#utility.yul\":3719:3750   */\n      tag_295\n      jump\t// in\n    tag_332:\n        /* \"#utility.yul\":3769:3774   */\n      swap4\n      pop\n        /* \"#utility.yul\":3826:3828   */\n      0x20\n        /* \"#utility.yul\":3811:3829   */\n      dup6\n      add\n        /* \"#utility.yul\":3798:3830   */\n      calldataload\n        /* \"#utility.yul\":3839:3872   */\n      tag_333\n        /* \"#utility.yul\":3798:3830   */\n      dup2\n        /* \"#utility.yul\":3839:3872   */\n      tag_295\n      jump\t// in\n    tag_333:\n        /* \"#utility.yul\":3891:3898   */\n      swap3\n      pop\n        /* \"#utility.yul\":3949:3951   */\n      0x40\n        /* \"#utility.yul\":3934:3952   */\n      dup6\n      add\n        /* \"#utility.yul\":3921:3953   */\n      calldataload\n        /* \"#utility.yul\":3972:3990   */\n      0xffffffffffffffff\n        /* \"#utility.yul\":4002:4016   */\n      dup1\n      dup3\n      gt\n        /* \"#utility.yul\":3999:4033   */\n      iszero\n      tag_334\n      jumpi\n        /* \"#utility.yul\":4029:4030   */\n      0x00\n        /* \"#utility.yul\":4026:4027   */\n      dup1\n        /* \"#utility.yul\":4019:4031   */\n      revert\n        /* \"#utility.yul\":3999:4033   */\n    tag_334:\n        /* \"#utility.yul\":4067:4073   */\n      dup2\n        /* \"#utility.yul\":4056:4065   */\n      dup8\n        /* \"#utility.yul\":4052:4074   */\n      add\n        /* \"#utility.yul\":4042:4074   */\n      swap2\n      pop\n        /* \"#utility.yul\":4112:4119   */\n      dup8\n        /* \"#utility.yul\":4105:4109   */\n      0x1f\n        /* \"#utility.yul\":4101:4103   */\n      dup4\n        /* \"#utility.yul\":4097:4110   */\n      add\n        /* \"#utility.yul\":4093:4120   */\n      slt\n        /* \"#utility.yul\":4083:4138   */\n      tag_335\n      jumpi\n        /* \"#utility.yul\":4134:4135   */\n      0x00\n        /* \"#utility.yul\":4131:4132   */\n      dup1\n        /* \"#utility.yul\":4124:4136   */\n      revert\n        /* \"#utility.yul\":4083:4138   */\n    tag_335:\n        /* \"#utility.yul\":4174:4176   */\n      dup2\n        /* \"#utility.yul\":4161:4177   */\n      calldataload\n        /* \"#utility.yul\":4200:4202   */\n      dup2\n        /* \"#utility.yul\":4192:4198   */\n      dup2\n        /* \"#utility.yul\":4189:4203   */\n      gt\n        /* \"#utility.yul\":4186:4220   */\n      iszero\n      tag_336\n      jumpi\n        /* \"#utility.yul\":4216:4217   */\n      0x00\n        /* \"#utility.yul\":4213:4214   */\n      dup1\n        /* \"#utility.yul\":4206:4218   */\n      revert\n        /* \"#utility.yul\":4186:4220   */\n    tag_336:\n        /* \"#utility.yul\":4261:4268   */\n      dup9\n        /* \"#utility.yul\":4256:4258   */\n      0x20\n        /* \"#utility.yul\":4247:4253   */\n      dup3\n        /* \"#utility.yul\":4243:4245   */\n      dup6\n        /* \"#utility.yul\":4239:4254   */\n      add\n        /* \"#utility.yul\":4235:4259   */\n      add\n        /* \"#utility.yul\":4232:4269   */\n      gt\n        /* \"#utility.yul\":4229:4286   */\n      iszero\n      tag_337\n      jumpi\n        /* \"#utility.yul\":4282:4283   */\n      0x00\n        /* \"#utility.yul\":4279:4280   */\n      dup1\n        /* \"#utility.yul\":4272:4284   */\n      revert\n        /* \"#utility.yul\":4229:4286   */\n    tag_337:\n        /* \"#utility.yul\":3480:4347   */\n      swap6\n      swap9\n      swap5\n      swap8\n      pop\n      pop\n        /* \"#utility.yul\":4313:4315   */\n      0x20\n        /* \"#utility.yul\":4305:4316   */\n      add\n      swap5\n      pop\n      pop\n      pop\n        /* \"#utility.yul\":3480:4347   */\n      jump\t// out\n        /* \"#utility.yul\":4352:4740   */\n    tag_105:\n        /* \"#utility.yul\":4420:4426   */\n      0x00\n        /* \"#utility.yul\":4428:4434   */\n      dup1\n        /* \"#utility.yul\":4481:4483   */\n      0x40\n        /* \"#utility.yul\":4469:4478   */\n      dup4\n        /* \"#utility.yul\":4460:4467   */\n      dup6\n        /* \"#utility.yul\":4456:4479   */\n      sub\n        /* \"#utility.yul\":4452:4484   */\n      slt\n        /* \"#utility.yul\":4449:4501   */\n      iszero\n      tag_339\n      jumpi\n        /* \"#utility.yul\":4497:4498   */\n      0x00\n        /* \"#utility.yul\":4494:4495   */\n      dup1\n        /* \"#utility.yul\":4487:4499   */\n      revert\n        /* \"#utility.yul\":4449:4501   */\n    tag_339:\n        /* \"#utility.yul\":4536:4545   */\n      dup3\n        /* \"#utility.yul\":4523:4546   */\n      calldataload\n        /* \"#utility.yul\":4555:4586   */\n      tag_340\n        /* \"#utility.yul\":4580:4585   */\n      dup2\n        /* \"#utility.yul\":4555:4586   */\n      tag_295\n      jump\t// in\n    tag_340:\n        /* \"#utility.yul\":4605:4610   */\n      swap2\n      pop\n        /* \"#utility.yul\":4662:4664   */\n      0x20\n        /* \"#utility.yul\":4647:4665   */\n      dup4\n      add\n        /* \"#utility.yul\":4634:4666   */\n      calldataload\n        /* \"#utility.yul\":4675:4708   */\n      tag_341\n        /* \"#utility.yul\":4634:4666   */\n      dup2\n        /* \"#utility.yul\":4675:4708   */\n      tag_295\n      jump\t// in\n    tag_341:\n        /* \"#utility.yul\":4727:4734   */\n      dup1\n        /* \"#utility.yul\":4717:4734   */\n      swap2\n      pop\n      pop\n        /* \"#utility.yul\":4352:4740   */\n      swap3\n      pop\n      swap3\n      swap1\n      pop\n      jump\t// out\n        /* \"#utility.yul\":4745:4872   */\n    tag_296:\n        /* \"#utility.yul\":4806:4816   */\n      0x4e487b71\n        /* \"#utility.yul\":4801:4804   */\n      0xe0\n        /* \"#utility.yul\":4797:4817   */\n      shl\n        /* \"#utility.yul\":4794:4795   */\n      0x00\n        /* \"#utility.yul\":4787:4818   */\n      mstore\n        /* \"#utility.yul\":4837:4841   */\n      0x11\n        /* \"#utility.yul\":4834:4835   */\n      0x04\n        /* \"#utility.yul\":4827:4842   */\n      mstore\n        /* \"#utility.yul\":4861:4865   */\n      0x24\n        /* \"#utility.yul\":4858:4859   */\n      0x00\n        /* \"#utility.yul\":4851:4866   */\n      revert\n        /* \"#utility.yul\":4877:5293   */\n    tag_297:\n        /* \"#utility.yul\":4966:4967   */\n      0x01\n        /* \"#utility.yul\":5003:5008   */\n      dup2\n        /* \"#utility.yul\":4966:4967   */\n      dup2\n        /* \"#utility.yul\":5017:5287   */\n    tag_344:\n        /* \"#utility.yul\":5038:5045   */\n      dup1\n        /* \"#utility.yul\":5028:5036   */\n      dup6\n        /* \"#utility.yul\":5025:5046   */\n      gt\n        /* \"#utility.yul\":5017:5287   */\n      iszero\n      tag_346\n      jumpi\n        /* \"#utility.yul\":5097:5101   */\n      dup2\n        /* \"#utility.yul\":5093:5094   */\n      0x00\n        /* \"#utility.yul\":5089:5095   */\n      not\n        /* \"#utility.yul\":5085:5102   */\n      div\n        /* \"#utility.yul\":5079:5083   */\n      dup3\n        /* \"#utility.yul\":5076:5103   */\n      gt\n        /* \"#utility.yul\":5073:5126   */\n      iszero\n      tag_348\n      jumpi\n        /* \"#utility.yul\":5106:5124   */\n      tag_348\n      tag_296\n      jump\t// in\n    tag_348:\n        /* \"#utility.yul\":5156:5163   */\n      dup1\n        /* \"#utility.yul\":5146:5154   */\n      dup6\n        /* \"#utility.yul\":5142:5164   */\n      and\n        /* \"#utility.yul\":5139:5194   */\n      iszero\n      tag_349\n      jumpi\n        /* \"#utility.yul\":5176:5192   */\n      swap2\n      dup2\n      mul\n      swap2\n        /* \"#utility.yul\":5139:5194   */\n    tag_349:\n        /* \"#utility.yul\":5255:5277   */\n      swap4\n      dup5\n      shr\n      swap4\n        /* \"#utility.yul\":5215:5230   */\n      swap1\n      dup1\n      mul\n      swap1\n        /* \"#utility.yul\":5017:5287   */\n      jump(tag_344)\n    tag_346:\n        /* \"#utility.yul\":5021:5024   */\n      pop\n        /* \"#utility.yul\":4877:5293   */\n      swap3\n      pop\n      swap3\n      swap1\n      pop\n      jump\t// out\n        /* \"#utility.yul\":5298:6104   */\n    tag_298:\n        /* \"#utility.yul\":5347:5352   */\n      0x00\n        /* \"#utility.yul\":5377:5385   */\n      dup3\n        /* \"#utility.yul\":5367:5447   */\n      tag_351\n      jumpi\n      pop\n        /* \"#utility.yul\":5418:5419   */\n      0x01\n        /* \"#utility.yul\":5432:5437   */\n      jump(tag_135)\n        /* \"#utility.yul\":5367:5447   */\n    tag_351:\n        /* \"#utility.yul\":5466:5470   */\n      dup2\n        /* \"#utility.yul\":5456:5532   */\n      tag_352\n      jumpi\n      pop\n        /* \"#utility.yul\":5503:5504   */\n      0x00\n        /* \"#utility.yul\":5517:5522   */\n      jump(tag_135)\n        /* \"#utility.yul\":5456:5532   */\n    tag_352:\n        /* \"#utility.yul\":5548:5552   */\n      dup2\n        /* \"#utility.yul\":5566:5567   */\n      0x01\n        /* \"#utility.yul\":5561:5620   */\n      dup2\n      eq\n      tag_354\n      jumpi\n        /* \"#utility.yul\":5634:5635   */\n      0x02\n        /* \"#utility.yul\":5629:5759   */\n      dup2\n      eq\n      tag_355\n      jumpi\n        /* \"#utility.yul\":5541:5759   */\n      jump(tag_353)\n        /* \"#utility.yul\":5561:5620   */\n    tag_354:\n        /* \"#utility.yul\":5591:5592   */\n      0x01\n        /* \"#utility.yul\":5582:5592   */\n      swap2\n      pop\n        /* \"#utility.yul\":5605:5610   */\n      pop\n      jump(tag_135)\n        /* \"#utility.yul\":5629:5759   */\n    tag_355:\n        /* \"#utility.yul\":5666:5669   */\n      0xff\n        /* \"#utility.yul\":5656:5664   */\n      dup5\n        /* \"#utility.yul\":5653:5670   */\n      gt\n        /* \"#utility.yul\":5650:5693   */\n      iszero\n      tag_357\n      jumpi\n        /* \"#utility.yul\":5673:5691   */\n      tag_357\n      tag_296\n      jump\t// in\n    tag_357:\n      pop\n      pop\n        /* \"#utility.yul\":5729:5730   */\n      0x01\n        /* \"#utility.yul\":5715:5731   */\n      dup3\n      shl\n        /* \"#utility.yul\":5744:5749   */\n      jump(tag_135)\n        /* \"#utility.yul\":5541:5759   */\n    tag_353:\n      pop\n        /* \"#utility.yul\":5843:5845   */\n      0x20\n        /* \"#utility.yul\":5833:5841   */\n      dup4\n        /* \"#utility.yul\":5830:5846   */\n      lt\n        /* \"#utility.yul\":5824:5827   */\n      0x0133\n        /* \"#utility.yul\":5818:5822   */\n      dup4\n        /* \"#utility.yul\":5815:5828   */\n      lt\n        /* \"#utility.yul\":5811:5847   */\n      and\n        /* \"#utility.yul\":5805:5807   */\n      0x4e\n        /* \"#utility.yul\":5795:5803   */\n      dup5\n        /* \"#utility.yul\":5792:5808   */\n      lt\n        /* \"#utility.yul\":5787:5789   */\n      0x0b\n        /* \"#utility.yul\":5781:5785   */\n      dup5\n        /* \"#utility.yul\":5778:5790   */\n      lt\n        /* \"#utility.yul\":5774:5809   */\n      and\n        /* \"#utility.yul\":5771:5848   */\n      or\n        /* \"#utility.yul\":5768:5927   */\n      iszero\n      tag_358\n      jumpi\n      pop\n        /* \"#utility.yul\":5880:5899   */\n      dup2\n      dup2\n      exp\n        /* \"#utility.yul\":5912:5917   */\n      jump(tag_135)\n        /* \"#utility.yul\":5768:5927   */\n    tag_358:\n        /* \"#utility.yul\":5959:5993   */\n      tag_359\n        /* \"#utility.yul\":5984:5992   */\n      dup4\n        /* \"#utility.yul\":5978:5982   */\n      dup4\n        /* \"#utility.yul\":5959:5993   */\n      tag_297\n      jump\t// in\n    tag_359:\n        /* \"#utility.yul\":6029:6035   */\n      dup1\n        /* \"#utility.yul\":6025:6026   */\n      0x00\n        /* \"#utility.yul\":6021:6027   */\n      not\n        /* \"#utility.yul\":6017:6036   */\n      div\n        /* \"#utility.yul\":6008:6015   */\n      dup3\n        /* \"#utility.yul\":6005:6037   */\n      gt\n        /* \"#utility.yul\":6002:6060   */\n      iszero\n      tag_361\n      jumpi\n        /* \"#utility.yul\":6040:6058   */\n      tag_361\n      tag_296\n      jump\t// in\n    tag_361:\n        /* \"#utility.yul\":6078:6098   */\n      mul\n      swap4\n        /* \"#utility.yul\":5298:6104   */\n      swap3\n      pop\n      pop\n      pop\n      jump\t// out\n        /* \"#utility.yul\":6109:6249   */\n    tag_114:\n        /* \"#utility.yul\":6167:6172   */\n      0x00\n        /* \"#utility.yul\":6196:6243   */\n      tag_328\n        /* \"#utility.yul\":6237:6241   */\n      0xff\n        /* \"#utility.yul\":6227:6235   */\n      dup5\n        /* \"#utility.yul\":6223:6242   */\n      and\n        /* \"#utility.yul\":6217:6221   */\n      dup4\n        /* \"#utility.yul\":6196:6243   */\n      tag_298\n      jump\t// in\n        /* \"#utility.yul\":6254:6422   */\n    tag_116:\n        /* \"#utility.yul\":6327:6336   */\n      dup1\n      dup3\n      mul\n        /* \"#utility.yul\":6358:6367   */\n      dup2\n      iszero\n        /* \"#utility.yul\":6375:6390   */\n      dup3\n      dup3\n      div\n        /* \"#utility.yul\":6369:6391   */\n      dup5\n      eq\n        /* \"#utility.yul\":6355:6392   */\n      or\n        /* \"#utility.yul\":6345:6416   */\n      tag_135\n      jumpi\n        /* \"#utility.yul\":6396:6414   */\n      tag_135\n      tag_296\n      jump\t// in\n        /* \"#utility.yul\":7033:7413   */\n    tag_124:\n        /* \"#utility.yul\":7112:7113   */\n      0x01\n        /* \"#utility.yul\":7108:7120   */\n      dup2\n      dup2\n      shr\n      swap1\n        /* \"#utility.yul\":7155:7167   */\n      dup3\n      and\n      dup1\n        /* \"#utility.yul\":7176:7237   */\n      tag_369\n      jumpi\n        /* \"#utility.yul\":7230:7234   */\n      0x7f\n        /* \"#utility.yul\":7222:7228   */\n      dup3\n        /* \"#utility.yul\":7218:7235   */\n      and\n        /* \"#utility.yul\":7208:7235   */\n      swap2\n      pop\n        /* \"#utility.yul\":7176:7237   */\n    tag_369:\n        /* \"#utility.yul\":7283:7285   */\n      0x20\n        /* \"#utility.yul\":7275:7281   */\n      dup3\n        /* \"#utility.yul\":7272:7286   */\n      lt\n        /* \"#utility.yul\":7252:7270   */\n      dup2\n        /* \"#utility.yul\":7249:7287   */\n      sub\n        /* \"#utility.yul\":7246:7407   */\n      tag_370\n      jumpi\n        /* \"#utility.yul\":7329:7339   */\n      0x4e487b71\n        /* \"#utility.yul\":7324:7327   */\n      0xe0\n        /* \"#utility.yul\":7320:7340   */\n      shl\n        /* \"#utility.yul\":7317:7318   */\n      0x00\n        /* \"#utility.yul\":7310:7341   */\n      mstore\n        /* \"#utility.yul\":7364:7368   */\n      0x22\n        /* \"#utility.yul\":7361:7362   */\n      0x04\n        /* \"#utility.yul\":7354:7369   */\n      mstore\n        /* \"#utility.yul\":7392:7396   */\n      0x24\n        /* \"#utility.yul\":7389:7390   */\n      0x00\n        /* \"#utility.yul\":7382:7397   */\n      revert\n        /* \"#utility.yul\":7246:7407   */\n    tag_370:\n      pop\n        /* \"#utility.yul\":7033:7413   */\n      swap2\n      swap1\n      pop\n      jump\t// out\n        /* \"#utility.yul\":8040:8525   */\n    tag_187:\n      sub(shl(0xa0, 0x01), 0x01)\n        /* \"#utility.yul\":8225:8257   */\n      dup5\n      and\n        /* \"#utility.yul\":8207:8258   */\n      dup2\n      mstore\n        /* \"#utility.yul\":8294:8296   */\n      0x40\n        /* \"#utility.yul\":8289:8291   */\n      0x20\n        /* \"#utility.yul\":8274:8292   */\n      dup3\n      add\n        /* \"#utility.yul\":8267:8297   */\n      dup2\n      swap1\n      mstore\n        /* \"#utility.yul\":8313:8331   */\n      dup2\n      add\n        /* \"#utility.yul\":8306:8340   */\n      dup3\n      swap1\n      mstore\n        /* \"#utility.yul\":8333:8339   */\n      dup2\n        /* \"#utility.yul\":8382:8388   */\n      dup4\n        /* \"#utility.yul\":8377:8379   */\n      0x60\n        /* \"#utility.yul\":8362:8380   */\n      dup4\n      add\n        /* \"#utility.yul\":8349:8397   */\n      calldatacopy\n        /* \"#utility.yul\":8446:8447   */\n      0x00\n        /* \"#utility.yul\":8417:8439   */\n      dup2\n      dup4\n      add\n        /* \"#utility.yul\":8441:8443   */\n      0x60\n        /* \"#utility.yul\":8413:8444   */\n      swap1\n      dup2\n      add\n        /* \"#utility.yul\":8406:8448   */\n      swap2\n      swap1\n      swap2\n      mstore\n        /* \"#utility.yul\":8509:8511   */\n      0x1f\n        /* \"#utility.yul\":8488:8503   */\n      swap1\n      swap3\n      add\n      not(0x1f)\n        /* \"#utility.yul\":8484:8513   */\n      and\n        /* \"#utility.yul\":8469:8514   */\n      add\n        /* \"#utility.yul\":8465:8519   */\n      add\n      swap3\n        /* \"#utility.yul\":8040:8525   */\n      swap2\n      pop\n      pop\n      jump\t// out\n        /* \"#utility.yul\":8530:8714   */\n    tag_191:\n        /* \"#utility.yul\":8600:8606   */\n      0x00\n        /* \"#utility.yul\":8653:8655   */\n      0x20\n        /* \"#utility.yul\":8641:8650   */\n      dup3\n        /* \"#utility.yul\":8632:8639   */\n      dup5\n        /* \"#utility.yul\":8628:8651   */\n      sub\n        /* \"#utility.yul\":8624:8656   */\n      slt\n        /* \"#utility.yul\":8621:8673   */\n      iszero\n      tag_375\n      jumpi\n        /* \"#utility.yul\":8669:8670   */\n      0x00\n        /* \"#utility.yul\":8666:8667   */\n      dup1\n        /* \"#utility.yul\":8659:8671   */\n      revert\n        /* \"#utility.yul\":8621:8673   */\n    tag_375:\n      pop\n        /* \"#utility.yul\":8692:8708   */\n      mload\n      swap2\n        /* \"#utility.yul\":8530:8714   */\n      swap1\n      pop\n      jump\t// out\n        /* \"#utility.yul\":9180:9344   */\n    tag_299:\n        /* \"#utility.yul\":9256:9269   */\n      dup1\n      mload\n        /* \"#utility.yul\":9305:9318   */\n      dup1\n      iszero\n        /* \"#utility.yul\":9298:9319   */\n      iszero\n        /* \"#utility.yul\":9288:9320   */\n      dup2\n      eq\n        /* \"#utility.yul\":9278:9338   */\n      tag_378\n      jumpi\n        /* \"#utility.yul\":9334:9335   */\n      0x00\n        /* \"#utility.yul\":9331:9332   */\n      dup1\n        /* \"#utility.yul\":9324:9336   */\n      revert\n        /* \"#utility.yul\":9278:9338   */\n    tag_378:\n        /* \"#utility.yul\":9180:9344   */\n      swap2\n      swap1\n      pop\n      jump\t// out\n        /* \"#utility.yul\":9349:9551   */\n    tag_206:\n        /* \"#utility.yul\":9416:9422   */\n      0x00\n        /* \"#utility.yul\":9469:9471   */\n      0x20\n        /* \"#utility.yul\":9457:9466   */\n      dup3\n        /* \"#utility.yul\":9448:9455   */\n      dup5\n        /* \"#utility.yul\":9444:9467   */\n      sub\n        /* \"#utility.yul\":9440:9472   */\n      slt\n        /* \"#utility.yul\":9437:9489   */\n      iszero\n      tag_380\n      jumpi\n        /* \"#utility.yul\":9485:9486   */\n      0x00\n        /* \"#utility.yul\":9482:9483   */\n      dup1\n        /* \"#utility.yul\":9475:9487   */\n      revert\n        /* \"#utility.yul\":9437:9489   */\n    tag_380:\n        /* \"#utility.yul\":9508:9545   */\n      tag_328\n        /* \"#utility.yul\":9535:9544   */\n      dup3\n        /* \"#utility.yul\":9508:9545   */\n      tag_299\n      jump\t// in\n        /* \"#utility.yul\":9556:9900   */\n    tag_300:\n        /* \"#utility.yul\":9623:9625   */\n      0x40\n        /* \"#utility.yul\":9617:9626   */\n      mload\n        /* \"#utility.yul\":9665:9668   */\n      0x01e0\n        /* \"#utility.yul\":9653:9669   */\n      dup2\n      add\n        /* \"#utility.yul\":9699:9717   */\n      0xffffffffffffffff\n        /* \"#utility.yul\":9684:9718   */\n      dup2\n      gt\n        /* \"#utility.yul\":9720:9742   */\n      dup3\n      dup3\n      lt\n        /* \"#utility.yul\":9681:9743   */\n      or\n        /* \"#utility.yul\":9678:9863   */\n      iszero\n      tag_383\n      jumpi\n        /* \"#utility.yul\":9785:9795   */\n      0x4e487b71\n        /* \"#utility.yul\":9780:9783   */\n      0xe0\n        /* \"#utility.yul\":9776:9796   */\n      shl\n        /* \"#utility.yul\":9773:9774   */\n      0x00\n        /* \"#utility.yul\":9766:9797   */\n      mstore\n        /* \"#utility.yul\":9820:9824   */\n      0x41\n        /* \"#utility.yul\":9817:9818   */\n      0x04\n        /* \"#utility.yul\":9810:9825   */\n      mstore\n        /* \"#utility.yul\":9848:9852   */\n      0x24\n        /* \"#utility.yul\":9845:9846   */\n      0x00\n        /* \"#utility.yul\":9838:9853   */\n      revert\n        /* \"#utility.yul\":9678:9863   */\n    tag_383:\n        /* \"#utility.yul\":9879:9881   */\n      0x40\n        /* \"#utility.yul\":9872:9894   */\n      mstore\n        /* \"#utility.yul\":9556:9900   */\n      swap1\n      jump\t// out\n        /* \"#utility.yul\":9905:10043   */\n    tag_301:\n        /* \"#utility.yul\":9984:9997   */\n      dup1\n      mload\n        /* \"#utility.yul\":10006:10037   */\n      tag_378\n        /* \"#utility.yul\":9984:9997   */\n      dup2\n        /* \"#utility.yul\":10006:10037   */\n      tag_295\n      jump\t// in\n        /* \"#utility.yul\":10048:10199   */\n    tag_302:\n        /* \"#utility.yul\":10131:10144   */\n      dup1\n      mload\n        /* \"#utility.yul\":10173:10174   */\n      0x04\n        /* \"#utility.yul\":10163:10175   */\n      dup2\n      lt\n        /* \"#utility.yul\":10153:10193   */\n      tag_378\n      jumpi\n        /* \"#utility.yul\":10189:10190   */\n      0x00\n        /* \"#utility.yul\":10186:10187   */\n      dup1\n        /* \"#utility.yul\":10179:10191   */\n      revert\n        /* \"#utility.yul\":10204:11557   */\n    tag_219:\n        /* \"#utility.yul\":10303:10309   */\n      0x00\n        /* \"#utility.yul\":10356:10359   */\n      0x01e0\n        /* \"#utility.yul\":10344:10353   */\n      dup3\n        /* \"#utility.yul\":10335:10342   */\n      dup5\n        /* \"#utility.yul\":10331:10354   */\n      sub\n        /* \"#utility.yul\":10327:10360   */\n      slt\n        /* \"#utility.yul\":10324:10377   */\n      iszero\n      tag_389\n      jumpi\n        /* \"#utility.yul\":10373:10374   */\n      0x00\n        /* \"#utility.yul\":10370:10371   */\n      dup1\n        /* \"#utility.yul\":10363:10375   */\n      revert\n        /* \"#utility.yul\":10324:10377   */\n    tag_389:\n        /* \"#utility.yul\":10399:10416   */\n      tag_390\n      tag_300\n      jump\t// in\n    tag_390:\n        /* \"#utility.yul\":10439:10479   */\n      tag_391\n        /* \"#utility.yul\":10469:10478   */\n      dup4\n        /* \"#utility.yul\":10439:10479   */\n      tag_301\n      jump\t// in\n    tag_391:\n        /* \"#utility.yul\":10432:10437   */\n      dup2\n        /* \"#utility.yul\":10425:10480   */\n      mstore\n        /* \"#utility.yul\":10512:10565   */\n      tag_392\n        /* \"#utility.yul\":10561:10563   */\n      0x20\n        /* \"#utility.yul\":10550:10559   */\n      dup5\n        /* \"#utility.yul\":10546:10564   */\n      add\n        /* \"#utility.yul\":10512:10565   */\n      tag_302\n      jump\t// in\n    tag_392:\n        /* \"#utility.yul\":10507:10509   */\n      0x20\n        /* \"#utility.yul\":10500:10505   */\n      dup3\n        /* \"#utility.yul\":10496:10510   */\n      add\n        /* \"#utility.yul\":10489:10566   */\n      mstore\n        /* \"#utility.yul\":10619:10621   */\n      0x40\n        /* \"#utility.yul\":10608:10617   */\n      dup4\n        /* \"#utility.yul\":10604:10622   */\n      add\n        /* \"#utility.yul\":10598:10623   */\n      mload\n        /* \"#utility.yul\":10593:10595   */\n      0x40\n        /* \"#utility.yul\":10586:10591   */\n      dup3\n        /* \"#utility.yul\":10582:10596   */\n      add\n        /* \"#utility.yul\":10575:10624   */\n      mstore\n        /* \"#utility.yul\":10677:10679   */\n      0x60\n        /* \"#utility.yul\":10666:10675   */\n      dup4\n        /* \"#utility.yul\":10662:10680   */\n      add\n        /* \"#utility.yul\":10656:10681   */\n      mload\n        /* \"#utility.yul\":10651:10653   */\n      0x60\n        /* \"#utility.yul\":10644:10649   */\n      dup3\n        /* \"#utility.yul\":10640:10654   */\n      add\n        /* \"#utility.yul\":10633:10682   */\n      mstore\n        /* \"#utility.yul\":10736:10739   */\n      0x80\n        /* \"#utility.yul\":10725:10734   */\n      dup4\n        /* \"#utility.yul\":10721:10740   */\n      add\n        /* \"#utility.yul\":10715:10741   */\n      mload\n        /* \"#utility.yul\":10709:10712   */\n      0x80\n        /* \"#utility.yul\":10702:10707   */\n      dup3\n        /* \"#utility.yul\":10698:10713   */\n      add\n        /* \"#utility.yul\":10691:10742   */\n      mstore\n        /* \"#utility.yul\":10796:10799   */\n      0xa0\n        /* \"#utility.yul\":10785:10794   */\n      dup4\n        /* \"#utility.yul\":10781:10800   */\n      add\n        /* \"#utility.yul\":10775:10801   */\n      mload\n        /* \"#utility.yul\":10769:10772   */\n      0xa0\n        /* \"#utility.yul\":10762:10767   */\n      dup3\n        /* \"#utility.yul\":10758:10773   */\n      add\n        /* \"#utility.yul\":10751:10802   */\n      mstore\n        /* \"#utility.yul\":10856:10859   */\n      0xc0\n        /* \"#utility.yul\":10845:10854   */\n      dup4\n        /* \"#utility.yul\":10841:10860   */\n      add\n        /* \"#utility.yul\":10835:10861   */\n      mload\n        /* \"#utility.yul\":10829:10832   */\n      0xc0\n        /* \"#utility.yul\":10822:10827   */\n      dup3\n        /* \"#utility.yul\":10818:10833   */\n      add\n        /* \"#utility.yul\":10811:10862   */\n      mstore\n        /* \"#utility.yul\":10916:10919   */\n      0xe0\n        /* \"#utility.yul\":10905:10914   */\n      dup4\n        /* \"#utility.yul\":10901:10920   */\n      add\n        /* \"#utility.yul\":10895:10921   */\n      mload\n        /* \"#utility.yul\":10889:10892   */\n      0xe0\n        /* \"#utility.yul\":10882:10887   */\n      dup3\n        /* \"#utility.yul\":10878:10893   */\n      add\n        /* \"#utility.yul\":10871:10922   */\n      mstore\n        /* \"#utility.yul\":10941:10944   */\n      0x0100\n        /* \"#utility.yul\":10997:10999   */\n      dup1\n        /* \"#utility.yul\":10986:10995   */\n      dup5\n        /* \"#utility.yul\":10982:11000   */\n      add\n        /* \"#utility.yul\":10976:11001   */\n      mload\n        /* \"#utility.yul\":10971:10973   */\n      dup2\n        /* \"#utility.yul\":10964:10969   */\n      dup4\n        /* \"#utility.yul\":10960:10974   */\n      add\n        /* \"#utility.yul\":10953:11002   */\n      mstore\n      pop\n        /* \"#utility.yul\":11021:11024   */\n      0x0120\n        /* \"#utility.yul\":11077:11079   */\n      dup1\n        /* \"#utility.yul\":11066:11075   */\n      dup5\n        /* \"#utility.yul\":11062:11080   */\n      add\n        /* \"#utility.yul\":11056:11081   */\n      mload\n        /* \"#utility.yul\":11051:11053   */\n      dup2\n        /* \"#utility.yul\":11044:11049   */\n      dup4\n        /* \"#utility.yul\":11040:11054   */\n      add\n        /* \"#utility.yul\":11033:11082   */\n      mstore\n      pop\n        /* \"#utility.yul\":11101:11104   */\n      0x0140\n        /* \"#utility.yul\":11157:11159   */\n      dup1\n        /* \"#utility.yul\":11146:11155   */\n      dup5\n        /* \"#utility.yul\":11142:11160   */\n      add\n        /* \"#utility.yul\":11136:11161   */\n      mload\n        /* \"#utility.yul\":11131:11133   */\n      dup2\n        /* \"#utility.yul\":11124:11129   */\n      dup4\n        /* \"#utility.yul\":11120:11134   */\n      add\n        /* \"#utility.yul\":11113:11162   */\n      mstore\n      pop\n        /* \"#utility.yul\":11181:11184   */\n      0x0160\n        /* \"#utility.yul\":11237:11239   */\n      dup1\n        /* \"#utility.yul\":11226:11235   */\n      dup5\n        /* \"#utility.yul\":11222:11240   */\n      add\n        /* \"#utility.yul\":11216:11241   */\n      mload\n        /* \"#utility.yul\":11211:11213   */\n      dup2\n        /* \"#utility.yul\":11204:11209   */\n      dup4\n        /* \"#utility.yul\":11200:11214   */\n      add\n        /* \"#utility.yul\":11193:11242   */\n      mstore\n      pop\n        /* \"#utility.yul\":11261:11264   */\n      0x0180\n        /* \"#utility.yul\":11296:11345   */\n      tag_393\n        /* \"#utility.yul\":11341:11343   */\n      dup2\n        /* \"#utility.yul\":11330:11339   */\n      dup6\n        /* \"#utility.yul\":11326:11344   */\n      add\n        /* \"#utility.yul\":11296:11345   */\n      tag_301\n      jump\t// in\n    tag_393:\n        /* \"#utility.yul\":11280:11294   */\n      swap1\n      dup3\n      add\n        /* \"#utility.yul\":11273:11346   */\n      mstore\n        /* \"#utility.yul\":11365:11368   */\n      0x01a0\n        /* \"#utility.yul\":11406:11424   */\n      dup4\n      dup2\n      add\n        /* \"#utility.yul\":11400:11425   */\n      mload\n        /* \"#utility.yul\":11384:11398   */\n      swap1\n      dup3\n      add\n        /* \"#utility.yul\":11377:11426   */\n      mstore\n        /* \"#utility.yul\":11445:11448   */\n      0x01c0\n        /* \"#utility.yul\":11480:11526   */\n      tag_394\n        /* \"#utility.yul\":11507:11525   */\n      dup2\n      dup6\n      add\n        /* \"#utility.yul\":11480:11526   */\n      tag_299\n      jump\t// in\n    tag_394:\n        /* \"#utility.yul\":11464:11478   */\n      swap1\n      dup3\n      add\n        /* \"#utility.yul\":11457:11527   */\n      mstore\n        /* \"#utility.yul\":11468:11473   */\n      swap4\n        /* \"#utility.yul\":10204:11557   */\n      swap3\n      pop\n      pop\n      pop\n      jump\t// out\n        /* \"#utility.yul\":12959:13084   */\n    tag_288:\n        /* \"#utility.yul\":13024:13033   */\n      dup1\n      dup3\n      add\n        /* \"#utility.yul\":13045:13055   */\n      dup1\n      dup3\n      gt\n        /* \"#utility.yul\":13042:13078   */\n      iszero\n      tag_135\n      jumpi\n        /* \"#utility.yul\":13058:13076   */\n      tag_135\n      tag_296\n      jump\t// in\n\n    auxdata: 0xa264697066735822122060738b03002327869dbd97fd1a4daebd42488587a3d8622b079e869bbeaeb19e64736f6c63430008190033\n}\n",
				"bytecode": {
					"linkReferences": {},
					"object": "608060405234801561000f575f80fd5b506040516116fd3803806116fd83398101604081905261002e9161017e565b336040518060400160405280600d81526020016c1b1bdd1d195c9e551a58dad95d609a1b81525060405180604001604052806006815260200165151a58dad95d60d21b81525081600390816100839190610263565b5060046100908282610263565b50506001600555506001600160a01b0381166100c557604051631e4fbdf760e01b81525f600482015260240160405180910390fd5b6100ce81610119565b5060078054911515600160a81b0260ff60a81b19931515600160a01b026001600160a81b03199093166001600160a01b03909516949094179190911791909116919091179055610322565b600680546001600160a01b038381166001600160a01b0319831681179093556040519116919082907f8be0079c531659141344cd1fd0a4f28419497f9722a3daafe3b4186f6b6457e0905f90a35050565b80518015158114610179575f80fd5b919050565b5f805f60608486031215610190575f80fd5b83516001600160a01b03811681146101a6575f80fd5b92506101b46020850161016a565b91506101c26040850161016a565b90509250925092565b634e487b7160e01b5f52604160045260245ffd5b600181811c908216806101f357607f821691505b60208210810361021157634e487b7160e01b5f52602260045260245ffd5b50919050565b601f82111561025e57805f5260205f20601f840160051c8101602085101561023c5750805b601f840160051c820191505b8181101561025b575f8155600101610248565b50505b505050565b81516001600160401b0381111561027c5761027c6101cb565b6102908161028a84546101df565b84610217565b602080601f8311600181146102c3575f84156102ac5750858301515b5f19600386901b1c1916600185901b17855561031a565b5f85815260208120601f198616915b828110156102f1578886015182559484019460019091019084016102d2565b508582101561030e57878501515f19600388901b60f8161c191681555b505060018460011b0185555b505050505050565b6113ce8061032f5f395ff3fe608060405234801561000f575f80fd5b506004361061013d575f3560e01c8063715018a6116100b4578063b4309a9c11610079578063b4309a9c14610297578063c7ff23bb146102ab578063d896fc10146102be578063d9caed12146102d1578063dd62ed3e146102e4578063f2fde38b1461031c575f80fd5b8063715018a61461023c57806379cc6790146102445780638da5cb5b1461025757806395d89b411461027c578063a9059cbb14610284575f80fd5b806318160ddd1161010557806318160ddd146101ba57806323b872dd146101cc578063313ce567146101df57806342966c68146101ee5780636ebd327b1461020157806370a0823114610214575f80fd5b8063012c911e1461014157806306e2a29a1461015657806306fdde031461017f578063082921a514610194578063095ea7b3146101a7575b5f80fd5b61015461014f366004610e8a565b61032f565b005b60075461016a90600160a81b900460ff1681565b60405190151581526020015b60405180910390f35b6101876103c5565b6040516101769190610ebf565b6101546101a2366004610ef4565b610455565b61016a6101b5366004610ef4565b6104b4565b6002545b604051908152602001610176565b61016a6101da366004610f1e565b6104cd565b60405160128152602001610176565b6101546101fc366004610f4b565b6104f0565b61015461020f366004610f62565b6104fd565b6101be610222366004610fa7565b6001600160a01b03165f9081526020819052604090205490565b610154610597565b610154610252366004610ef4565b6105aa565b6006546001600160a01b03165b6040516001600160a01b039091168152602001610176565b6101876105c3565b61016a610292366004610ef4565b6105d2565b60075461016a90600160a01b900460ff1681565b600754610264906001600160a01b031681565b6101546102cc366004610fc9565b6105df565b6101546102df366004610f1e565b61073b565b6101be6102f2366004611054565b6001600160a01b039182165f90815260016020908152604080832093909416825291909152205490565b61015461032a366004610fa7565b6107b3565b5f61033c6012600a61117f565b610346908361118d565b9050610351816104f0565b5f61035d8585856107ed565b604080518781523360208201526001600160a01b03871681830152606081018590526080810186905282151560a082015290519192507febc14ddbdd1e1ebc5a287d8957bd1ca84faef18f192f27829b8459fd15f5195d919081900360c00190a15050505050565b6060600380546103d4906111a4565b80601f0160208091040260200160405190810160405280929190818152602001828054610400906111a4565b801561044b5780601f106104225761010080835404028352916020019161044b565b820191905f5260205f20905b81548152906001019060200180831161042e57829003601f168201915b5050505050905090565b61045d610a8a565b6001600160a01b0382165f81815260086020908152604091829020849055815192835282018390527fd7d0cdf0b13669cab92566615f9093d52f6d2c34cc92561e500dddd3ae918de8910160405180910390a15050565b5f336104c1818585610ab7565b60019150505b92915050565b5f336104da858285610ac9565b6104e5858585610b3e565b506001949350505050565b6104fa3382610b9b565b50565b5f61050a6012600a61117f565b610514908361118d565b905061052084826105aa565b5f61052c8685856107ed565b604080518881526001600160a01b038881166020830152871681830152606081018590526080810186905282151560a082015290519192507febc14ddbdd1e1ebc5a287d8957bd1ca84faef18f192f27829b8459fd15f5195d919081900360c00190a1505050505050565b61059f610a8a565b6105a85f610bcf565b565b6105b5823383610ac9565b6105bf8282610b9b565b5050565b6060600480546103d4906111a4565b5f336104c1818585610b3e565b6105e7610c20565b6001600160a01b0384165f9081526008602052604081205490036106435760405162461bcd60e51b815260206004820152600e60248201526d6e6f20736574206173207461736b60901b60448201526064015b60405180910390fd5b6001600160a01b0384165f818152600860205260408082205490516370d6469360e11b81529192909163e1ac8d2690610684903390889088906004016111dc565b6020604051808303815f875af11580156106a0573d5f803e3d5ffd5b505050506040513d601f19601f820116820180604052508101906106c4919061121b565b6106ce919061118d565b90506106da8482610c4a565b604080513381526001600160a01b0387811660208301528616818301526060810183905290517f4d914fbdb28a885441bb0f6e06bb01dfdfe8a8b6902391853b46eb747ae136ef9181900360800190a1506107356001600555565b50505050565b610743610a8a565b60405163a9059cbb60e01b81526001600160a01b0383811660048301526024820183905284169063a9059cbb906044016020604051808303815f875af115801561078f573d5f803e3d5ffd5b505050506040513d601f19601f820116820180604052508101906107359190611246565b6107bb610a8a565b6001600160a01b0381166107e457604051631e4fbdf760e01b81525f600482015260240161063a565b6104fa81610bcf565b600754604051638f91cd1760e01b8152600481018590525f9160019183916001600160a01b031690638f91cd17906024016101e060405180830381865afa15801561083a573d5f803e3d5ffd5b505050506040513d601f19601f8201168201806040525081019061085e91906112ae565b6101808101519091506001600160a01b03166109c057600754600160a01b900460ff1615156001146108c85760405162461bcd60e51b8152602060048201526013602482015272627579207469636b6574206e6f20616c6c6f7760681b604482015260640161063a565b5f848261016001516108da919061118d565b825160075460405163095ea7b360e01b81526001600160a01b03918216600482015260248101849052929350169063095ea7b3906044016020604051808303815f875af115801561092d573d5f803e3d5ffd5b505050506040513d601f19601f820116820180604052508101906109519190611246565b5060075460405163c5e7bb3360e01b8152600481018990526001600160a01b038881166024830152604482018890529091169063c5e7bb33906064015f604051808303815f87803b1580156109a4575f80fd5b505af11580156109b6573d5f803e3d5ffd5b5050505050610a81565b600754600160a81b900460ff161515600114610a155760405162461bcd60e51b815260206004820152601460248201527373656e64207469636b6574206e6f20616c6c6f7760601b604482015260640161063a565b600754604051635c42e0c560e01b8152600481018890526001600160a01b0387811660248301526044820187905290911690635c42e0c5906064015f604051808303815f87803b158015610a67575f80fd5b505af1158015610a79573d5f803e3d5ffd5b505050505f91505b50949350505050565b6006546001600160a01b031633146105a85760405163118cdaa760e01b815233600482015260240161063a565b610ac48383836001610c7e565b505050565b6001600160a01b038381165f908152600160209081526040808320938616835292905220545f1981146107355781811015610b3057604051637dc7a0d960e11b81526001600160a01b0384166004820152602481018290526044810183905260640161063a565b61073584848484035f610c7e565b6001600160a01b038316610b6757604051634b637e8f60e11b81525f600482015260240161063a565b6001600160a01b038216610b905760405163ec442f0560e01b81525f600482015260240161063a565b610ac4838383610d50565b6001600160a01b038216610bc457604051634b637e8f60e11b81525f600482015260240161063a565b6105bf825f83610d50565b600680546001600160a01b038381166001600160a01b0319831681179093556040519116919082907f8be0079c531659141344cd1fd0a4f28419497f9722a3daafe3b4186f6b6457e0905f90a35050565b600260055403610c4357604051633ee5aeb560e01b815260040160405180910390fd5b6002600555565b6001600160a01b038216610c735760405163ec442f0560e01b81525f600482015260240161063a565b6105bf5f8383610d50565b6001600160a01b038416610ca75760405163e602df0560e01b81525f600482015260240161063a565b6001600160a01b038316610cd057604051634a1406b160e11b81525f600482015260240161063a565b6001600160a01b038085165f908152600160209081526040808320938716835292905220829055801561073557826001600160a01b0316846001600160a01b03167f8c5be1e5ebec7d5bd14f71427d1e84f3dd0314c0f7b2291e5b200ac8c7c3b92584604051610d4291815260200190565b60405180910390a350505050565b6001600160a01b038316610d7a578060025f828254610d6f9190611385565b90915550610dea9050565b6001600160a01b0383165f9081526020819052604090205481811015610dcc5760405163391434e360e21b81526001600160a01b0385166004820152602481018290526044810183905260640161063a565b6001600160a01b0384165f9081526020819052604090209082900390555b6001600160a01b038216610e0657600280548290039055610e24565b6001600160a01b0382165f9081526020819052604090208054820190555b816001600160a01b0316836001600160a01b03167fddf252ad1be2c89b69c2b068fc378daa952ba7f163c4a11628f55a4df523b3ef83604051610e6991815260200190565b60405180910390a3505050565b6001600160a01b03811681146104fa575f80fd5b5f805f60608486031215610e9c575f80fd5b833592506020840135610eae81610e76565b929592945050506040919091013590565b602081525f82518060208401528060208501604085015e5f604082850101526040601f19601f83011684010191505092915050565b5f8060408385031215610f05575f80fd5b8235610f1081610e76565b946020939093013593505050565b5f805f60608486031215610f30575f80fd5b8335610f3b81610e76565b92506020840135610eae81610e76565b5f60208284031215610f5b575f80fd5b5035919050565b5f805f8060808587031215610f75575f80fd5b843593506020850135610f8781610e76565b92506040850135610f9781610e76565b9396929550929360600135925050565b5f60208284031215610fb7575f80fd5b8135610fc281610e76565b9392505050565b5f805f8060608587031215610fdc575f80fd5b8435610fe781610e76565b93506020850135610ff781610e76565b9250604085013567ffffffffffffffff80821115611013575f80fd5b818701915087601f830112611026575f80fd5b813581811115611034575f80fd5b886020828501011115611045575f80fd5b95989497505060200194505050565b5f8060408385031215611065575f80fd5b823561107081610e76565b9150602083013561108081610e76565b809150509250929050565b634e487b7160e01b5f52601160045260245ffd5b600181815b808511156110d957815f19048211156110bf576110bf61108b565b808516156110cc57918102915b93841c93908002906110a4565b509250929050565b5f826110ef575060016104c7565b816110fb57505f6104c7565b8160018114611111576002811461111b57611137565b60019150506104c7565b60ff84111561112c5761112c61108b565b50506001821b6104c7565b5060208310610133831016604e8410600b841016171561115a575081810a6104c7565b611164838361109f565b805f19048211156111775761117761108b565b029392505050565b5f610fc260ff8416836110e1565b80820281158282048414176104c7576104c761108b565b600181811c908216806111b857607f821691505b6020821081036111d657634e487b7160e01b5f52602260045260245ffd5b50919050565b6001600160a01b03841681526040602082018190528101829052818360608301375f818301606090810191909152601f909201601f1916010192915050565b5f6020828403121561122b575f80fd5b5051919050565b80518015158114611241575f80fd5b919050565b5f60208284031215611256575f80fd5b610fc282611232565b6040516101e0810167ffffffffffffffff8111828210171561128f57634e487b7160e01b5f52604160045260245ffd5b60405290565b805161124181610e76565b805160048110611241575f80fd5b5f6101e082840312156112bf575f80fd5b6112c761125f565b6112d083611295565b81526112de602084016112a0565b602082015260408301516040820152606083015160608201526080830151608082015260a083015160a082015260c083015160c082015260e083015160e082015261010080840151818301525061012080840151818301525061014080840151818301525061016080840151818301525061018061135d818501611295565b908201526101a083810151908201526101c061137a818501611232565b908201529392505050565b808201808211156104c7576104c761108b56fea264697066735822122060738b03002327869dbd97fd1a4daebd42488587a3d8622b079e869bbeaeb19e64736f6c63430008190033",
					"opcodes": "PUSH1 0x80 PUSH1 0x40 MSTORE CALLVALUE DUP1 ISZERO PUSH2 0xF JUMPI PUSH0 DUP1 REVERT JUMPDEST POP PUSH1 0x40 MLOAD PUSH2 0x16FD CODESIZE SUB DUP1 PUSH2 0x16FD DUP4 CODECOPY DUP2 ADD PUSH1 0x40 DUP2 SWAP1 MSTORE PUSH2 0x2E SWAP2 PUSH2 0x17E JUMP JUMPDEST CALLER PUSH1 0x40 MLOAD DUP1 PUSH1 0x40 ADD PUSH1 0x40 MSTORE DUP1 PUSH1 0xD DUP2 MSTORE PUSH1 0x20 ADD PUSH13 0x1B1BDD1D195C9E551A58DAD95D PUSH1 0x9A SHL DUP2 MSTORE POP PUSH1 0x40 MLOAD DUP1 PUSH1 0x40 ADD PUSH1 0x40 MSTORE DUP1 PUSH1 0x6 DUP2 MSTORE PUSH1 0x20 ADD PUSH6 0x151A58DAD95D PUSH1 0xD2 SHL DUP2 MSTORE POP DUP2 PUSH1 0x3 SWAP1 DUP2 PUSH2 0x83 SWAP2 SWAP1 PUSH2 0x263 JUMP JUMPDEST POP PUSH1 0x4 PUSH2 0x90 DUP3 DUP3 PUSH2 0x263 JUMP JUMPDEST POP POP PUSH1 0x1 PUSH1 0x5 SSTORE POP PUSH1 0x1 PUSH1 0x1 PUSH1 0xA0 SHL SUB DUP2 AND PUSH2 0xC5 JUMPI PUSH1 0x40 MLOAD PUSH4 0x1E4FBDF7 PUSH1 0xE0 SHL DUP2 MSTORE PUSH0 PUSH1 0x4 DUP3 ADD MSTORE PUSH1 0x24 ADD PUSH1 0x40 MLOAD DUP1 SWAP2 SUB SWAP1 REVERT JUMPDEST PUSH2 0xCE DUP2 PUSH2 0x119 JUMP JUMPDEST POP PUSH1 0x7 DUP1 SLOAD SWAP2 ISZERO ISZERO PUSH1 0x1 PUSH1 0xA8 SHL MUL PUSH1 0xFF PUSH1 0xA8 SHL NOT SWAP4 ISZERO ISZERO PUSH1 0x1 PUSH1 0xA0 SHL MUL PUSH1 0x1 PUSH1 0x1 PUSH1 0xA8 SHL SUB NOT SWAP1 SWAP4 AND PUSH1 0x1 PUSH1 0x1 PUSH1 0xA0 SHL SUB SWAP1 SWAP6 AND SWAP5 SWAP1 SWAP5 OR SWAP2 SWAP1 SWAP2 OR SWAP2 SWAP1 SWAP2 AND SWAP2 SWAP1 SWAP2 OR SWAP1 SSTORE PUSH2 0x322 JUMP JUMPDEST PUSH1 0x6 DUP1 SLOAD PUSH1 0x1 PUSH1 0x1 PUSH1 0xA0 SHL SUB DUP4 DUP2 AND PUSH1 0x1 PUSH1 0x1 PUSH1 0xA0 SHL SUB NOT DUP4 AND DUP2 OR SWAP1 SWAP4 SSTORE PUSH1 0x40 MLOAD SWAP2 AND SWAP2 SWAP1 DUP3 SWAP1 PUSH32 0x8BE0079C531659141344CD1FD0A4F28419497F9722A3DAAFE3B4186F6B6457E0 SWAP1 PUSH0 SWAP1 LOG3 POP POP JUMP JUMPDEST DUP1 MLOAD DUP1 ISZERO ISZERO DUP2 EQ PUSH2 0x179 JUMPI PUSH0 DUP1 REVERT JUMPDEST SWAP2 SWAP1 POP JUMP JUMPDEST PUSH0 DUP1 PUSH0 PUSH1 0x60 DUP5 DUP7 SUB SLT ISZERO PUSH2 0x190 JUMPI PUSH0 DUP1 REVERT JUMPDEST DUP4 MLOAD PUSH1 0x1 PUSH1 0x1 PUSH1 0xA0 SHL SUB DUP2 AND DUP2 EQ PUSH2 0x1A6 JUMPI PUSH0 DUP1 REVERT JUMPDEST SWAP3 POP PUSH2 0x1B4 PUSH1 0x20 DUP6 ADD PUSH2 0x16A JUMP JUMPDEST SWAP2 POP PUSH2 0x1C2 PUSH1 0x40 DUP6 ADD PUSH2 0x16A JUMP JUMPDEST SWAP1 POP SWAP3 POP SWAP3 POP SWAP3 JUMP JUMPDEST PUSH4 0x4E487B71 PUSH1 0xE0 SHL PUSH0 MSTORE PUSH1 0x41 PUSH1 0x4 MSTORE PUSH1 0x24 PUSH0 REVERT JUMPDEST PUSH1 0x1 DUP2 DUP2 SHR SWAP1 DUP3 AND DUP1 PUSH2 0x1F3 JUMPI PUSH1 0x7F DUP3 AND SWAP2 POP JUMPDEST PUSH1 0x20 DUP3 LT DUP2 SUB PUSH2 0x211 JUMPI PUSH4 0x4E487B71 PUSH1 0xE0 SHL PUSH0 MSTORE PUSH1 0x22 PUSH1 0x4 MSTORE PUSH1 0x24 PUSH0 REVERT JUMPDEST POP SWAP2 SWAP1 POP JUMP JUMPDEST PUSH1 0x1F DUP3 GT ISZERO PUSH2 0x25E JUMPI DUP1 PUSH0 MSTORE PUSH1 0x20 PUSH0 KECCAK256 PUSH1 0x1F DUP5 ADD PUSH1 0x5 SHR DUP2 ADD PUSH1 0x20 DUP6 LT ISZERO PUSH2 0x23C JUMPI POP DUP1 JUMPDEST PUSH1 0x1F DUP5 ADD PUSH1 0x5 SHR DUP3 ADD SWAP2 POP JUMPDEST DUP2 DUP2 LT ISZERO PUSH2 0x25B JUMPI PUSH0 DUP2 SSTORE PUSH1 0x1 ADD PUSH2 0x248 JUMP JUMPDEST POP POP JUMPDEST POP POP POP JUMP JUMPDEST DUP2 MLOAD PUSH1 0x1 PUSH1 0x1 PUSH1 0x40 SHL SUB DUP2 GT ISZERO PUSH2 0x27C JUMPI PUSH2 0x27C PUSH2 0x1CB JUMP JUMPDEST PUSH2 0x290 DUP2 PUSH2 0x28A DUP5 SLOAD PUSH2 0x1DF JUMP JUMPDEST DUP5 PUSH2 0x217 JUMP JUMPDEST PUSH1 0x20 DUP1 PUSH1 0x1F DUP4 GT PUSH1 0x1 DUP2 EQ PUSH2 0x2C3 JUMPI PUSH0 DUP5 ISZERO PUSH2 0x2AC JUMPI POP DUP6 DUP4 ADD MLOAD JUMPDEST PUSH0 NOT PUSH1 0x3 DUP7 SWAP1 SHL SHR NOT AND PUSH1 0x1 DUP6 SWAP1 SHL OR DUP6 SSTORE PUSH2 0x31A JUMP JUMPDEST PUSH0 DUP6 DUP2 MSTORE PUSH1 0x20 DUP2 KECCAK256 PUSH1 0x1F NOT DUP7 AND SWAP2 JUMPDEST DUP3 DUP2 LT ISZERO PUSH2 0x2F1 JUMPI DUP9 DUP7 ADD MLOAD DUP3 SSTORE SWAP5 DUP5 ADD SWAP5 PUSH1 0x1 SWAP1 SWAP2 ADD SWAP1 DUP5 ADD PUSH2 0x2D2 JUMP JUMPDEST POP DUP6 DUP3 LT ISZERO PUSH2 0x30E JUMPI DUP8 DUP6 ADD MLOAD PUSH0 NOT PUSH1 0x3 DUP9 SWAP1 SHL PUSH1 0xF8 AND SHR NOT AND DUP2 SSTORE JUMPDEST POP POP PUSH1 0x1 DUP5 PUSH1 0x1 SHL ADD DUP6 SSTORE JUMPDEST POP POP POP POP POP POP JUMP JUMPDEST PUSH2 0x13CE DUP1 PUSH2 0x32F PUSH0 CODECOPY PUSH0 RETURN INVALID PUSH1 0x80 PUSH1 0x40 MSTORE CALLVALUE DUP1 ISZERO PUSH2 0xF JUMPI PUSH0 DUP1 REVERT JUMPDEST POP PUSH1 0x4 CALLDATASIZE LT PUSH2 0x13D JUMPI PUSH0 CALLDATALOAD PUSH1 0xE0 SHR DUP1 PUSH4 0x715018A6 GT PUSH2 0xB4 JUMPI DUP1 PUSH4 0xB4309A9C GT PUSH2 0x79 JUMPI DUP1 PUSH4 0xB4309A9C EQ PUSH2 0x297 JUMPI DUP1 PUSH4 0xC7FF23BB EQ PUSH2 0x2AB JUMPI DUP1 PUSH4 0xD896FC10 EQ PUSH2 0x2BE JUMPI DUP1 PUSH4 0xD9CAED12 EQ PUSH2 0x2D1 JUMPI DUP1 PUSH4 0xDD62ED3E EQ PUSH2 0x2E4 JUMPI DUP1 PUSH4 0xF2FDE38B EQ PUSH2 0x31C JUMPI PUSH0 DUP1 REVERT JUMPDEST DUP1 PUSH4 0x715018A6 EQ PUSH2 0x23C JUMPI DUP1 PUSH4 0x79CC6790 EQ PUSH2 0x244 JUMPI DUP1 PUSH4 0x8DA5CB5B EQ PUSH2 0x257 JUMPI DUP1 PUSH4 0x95D89B41 EQ PUSH2 0x27C JUMPI DUP1 PUSH4 0xA9059CBB EQ PUSH2 0x284 JUMPI PUSH0 DUP1 REVERT JUMPDEST DUP1 PUSH4 0x18160DDD GT PUSH2 0x105 JUMPI DUP1 PUSH4 0x18160DDD EQ PUSH2 0x1BA JUMPI DUP1 PUSH4 0x23B872DD EQ PUSH2 0x1CC JUMPI DUP1 PUSH4 0x313CE567 EQ PUSH2 0x1DF JUMPI DUP1 PUSH4 0x42966C68 EQ PUSH2 0x1EE JUMPI DUP1 PUSH4 0x6EBD327B EQ PUSH2 0x201 JUMPI DUP1 PUSH4 0x70A08231 EQ PUSH2 0x214 JUMPI PUSH0 DUP1 REVERT JUMPDEST DUP1 PUSH4 0x12C911E EQ PUSH2 0x141 JUMPI DUP1 PUSH4 0x6E2A29A EQ PUSH2 0x156 JUMPI DUP1 PUSH4 0x6FDDE03 EQ PUSH2 0x17F JUMPI DUP1 PUSH4 0x82921A5 EQ PUSH2 0x194 JUMPI DUP1 PUSH4 0x95EA7B3 EQ PUSH2 0x1A7 JUMPI JUMPDEST PUSH0 DUP1 REVERT JUMPDEST PUSH2 0x154 PUSH2 0x14F CALLDATASIZE PUSH1 0x4 PUSH2 0xE8A JUMP JUMPDEST PUSH2 0x32F JUMP JUMPDEST STOP JUMPDEST PUSH1 0x7 SLOAD PUSH2 0x16A SWAP1 PUSH1 0x1 PUSH1 0xA8 SHL SWAP1 DIV PUSH1 0xFF AND DUP2 JUMP JUMPDEST PUSH1 0x40 MLOAD SWAP1 ISZERO ISZERO DUP2 MSTORE PUSH1 0x20 ADD JUMPDEST PUSH1 0x40 MLOAD DUP1 SWAP2 SUB SWAP1 RETURN JUMPDEST PUSH2 0x187 PUSH2 0x3C5 JUMP JUMPDEST PUSH1 0x40 MLOAD PUSH2 0x176 SWAP2 SWAP1 PUSH2 0xEBF JUMP JUMPDEST PUSH2 0x154 PUSH2 0x1A2 CALLDATASIZE PUSH1 0x4 PUSH2 0xEF4 JUMP JUMPDEST PUSH2 0x455 JUMP JUMPDEST PUSH2 0x16A PUSH2 0x1B5 CALLDATASIZE PUSH1 0x4 PUSH2 0xEF4 JUMP JUMPDEST PUSH2 0x4B4 JUMP JUMPDEST PUSH1 0x2 SLOAD JUMPDEST PUSH1 0x40 MLOAD SWAP1 DUP2 MSTORE PUSH1 0x20 ADD PUSH2 0x176 JUMP JUMPDEST PUSH2 0x16A PUSH2 0x1DA CALLDATASIZE PUSH1 0x4 PUSH2 0xF1E JUMP JUMPDEST PUSH2 0x4CD JUMP JUMPDEST PUSH1 0x40 MLOAD PUSH1 0x12 DUP2 MSTORE PUSH1 0x20 ADD PUSH2 0x176 JUMP JUMPDEST PUSH2 0x154 PUSH2 0x1FC CALLDATASIZE PUSH1 0x4 PUSH2 0xF4B JUMP JUMPDEST PUSH2 0x4F0 JUMP JUMPDEST PUSH2 0x154 PUSH2 0x20F CALLDATASIZE PUSH1 0x4 PUSH2 0xF62 JUMP JUMPDEST PUSH2 0x4FD JUMP JUMPDEST PUSH2 0x1BE PUSH2 0x222 CALLDATASIZE PUSH1 0x4 PUSH2 0xFA7 JUMP JUMPDEST PUSH1 0x1 PUSH1 0x1 PUSH1 0xA0 SHL SUB AND PUSH0 SWAP1 DUP2 MSTORE PUSH1 0x20 DUP2 SWAP1 MSTORE PUSH1 0x40 SWAP1 KECCAK256 SLOAD SWAP1 JUMP JUMPDEST PUSH2 0x154 PUSH2 0x597 JUMP JUMPDEST PUSH2 0x154 PUSH2 0x252 CALLDATASIZE PUSH1 0x4 PUSH2 0xEF4 JUMP JUMPDEST PUSH2 0x5AA JUMP JUMPDEST PUSH1 0x6 SLOAD PUSH1 0x1 PUSH1 0x1 PUSH1 0xA0 SHL SUB AND JUMPDEST PUSH1 0x40 MLOAD PUSH1 0x1 PUSH1 0x1 PUSH1 0xA0 SHL SUB SWAP1 SWAP2 AND DUP2 MSTORE PUSH1 0x20 ADD PUSH2 0x176 JUMP JUMPDEST PUSH2 0x187 PUSH2 0x5C3 JUMP JUMPDEST PUSH2 0x16A PUSH2 0x292 CALLDATASIZE PUSH1 0x4 PUSH2 0xEF4 JUMP JUMPDEST PUSH2 0x5D2 JUMP JUMPDEST PUSH1 0x7 SLOAD PUSH2 0x16A SWAP1 PUSH1 0x1 PUSH1 0xA0 SHL SWAP1 DIV PUSH1 0xFF AND DUP2 JUMP JUMPDEST PUSH1 0x7 SLOAD PUSH2 0x264 SWAP1 PUSH1 0x1 PUSH1 0x1 PUSH1 0xA0 SHL SUB AND DUP2 JUMP JUMPDEST PUSH2 0x154 PUSH2 0x2CC CALLDATASIZE PUSH1 0x4 PUSH2 0xFC9 JUMP JUMPDEST PUSH2 0x5DF JUMP JUMPDEST PUSH2 0x154 PUSH2 0x2DF CALLDATASIZE PUSH1 0x4 PUSH2 0xF1E JUMP JUMPDEST PUSH2 0x73B JUMP JUMPDEST PUSH2 0x1BE PUSH2 0x2F2 CALLDATASIZE PUSH1 0x4 PUSH2 0x1054 JUMP JUMPDEST PUSH1 0x1 PUSH1 0x1 PUSH1 0xA0 SHL SUB SWAP2 DUP3 AND PUSH0 SWAP1 DUP2 MSTORE PUSH1 0x1 PUSH1 0x20 SWAP1 DUP2 MSTORE PUSH1 0x40 DUP1 DUP4 KECCAK256 SWAP4 SWAP1 SWAP5 AND DUP3 MSTORE SWAP2 SWAP1 SWAP2 MSTORE KECCAK256 SLOAD SWAP1 JUMP JUMPDEST PUSH2 0x154 PUSH2 0x32A CALLDATASIZE PUSH1 0x4 PUSH2 0xFA7 JUMP JUMPDEST PUSH2 0x7B3 JUMP JUMPDEST PUSH0 PUSH2 0x33C PUSH1 0x12 PUSH1 0xA PUSH2 0x117F JUMP JUMPDEST PUSH2 0x346 SWAP1 DUP4 PUSH2 0x118D JUMP JUMPDEST SWAP1 POP PUSH2 0x351 DUP2 PUSH2 0x4F0 JUMP JUMPDEST PUSH0 PUSH2 0x35D DUP6 DUP6 DUP6 PUSH2 0x7ED JUMP JUMPDEST PUSH1 0x40 DUP1 MLOAD DUP8 DUP2 MSTORE CALLER PUSH1 0x20 DUP3 ADD MSTORE PUSH1 0x1 PUSH1 0x1 PUSH1 0xA0 SHL SUB DUP8 AND DUP2 DUP4 ADD MSTORE PUSH1 0x60 DUP2 ADD DUP6 SWAP1 MSTORE PUSH1 0x80 DUP2 ADD DUP7 SWAP1 MSTORE DUP3 ISZERO ISZERO PUSH1 0xA0 DUP3 ADD MSTORE SWAP1 MLOAD SWAP2 SWAP3 POP PUSH32 0xEBC14DDBDD1E1EBC5A287D8957BD1CA84FAEF18F192F27829B8459FD15F5195D SWAP2 SWAP1 DUP2 SWAP1 SUB PUSH1 0xC0 ADD SWAP1 LOG1 POP POP POP POP POP JUMP JUMPDEST PUSH1 0x60 PUSH1 0x3 DUP1 SLOAD PUSH2 0x3D4 SWAP1 PUSH2 0x11A4 JUMP JUMPDEST DUP1 PUSH1 0x1F ADD PUSH1 0x20 DUP1 SWAP2 DIV MUL PUSH1 0x20 ADD PUSH1 0x40 MLOAD SWAP1 DUP2 ADD PUSH1 0x40 MSTORE DUP1 SWAP3 SWAP2 SWAP1 DUP2 DUP2 MSTORE PUSH1 0x20 ADD DUP3 DUP1 SLOAD PUSH2 0x400 SWAP1 PUSH2 0x11A4 JUMP JUMPDEST DUP1 ISZERO PUSH2 0x44B JUMPI DUP1 PUSH1 0x1F LT PUSH2 0x422 JUMPI PUSH2 0x100 DUP1 DUP4 SLOAD DIV MUL DUP4 MSTORE SWAP2 PUSH1 0x20 ADD SWAP2 PUSH2 0x44B JUMP JUMPDEST DUP3 ADD SWAP2 SWAP1 PUSH0 MSTORE PUSH1 0x20 PUSH0 KECCAK256 SWAP1 JUMPDEST DUP2 SLOAD DUP2 MSTORE SWAP1 PUSH1 0x1 ADD SWAP1 PUSH1 0x20 ADD DUP1 DUP4 GT PUSH2 0x42E JUMPI DUP3 SWAP1 SUB PUSH1 0x1F AND DUP3 ADD SWAP2 JUMPDEST POP POP POP POP POP SWAP1 POP SWAP1 JUMP JUMPDEST PUSH2 0x45D PUSH2 0xA8A JUMP JUMPDEST PUSH1 0x1 PUSH1 0x1 PUSH1 0xA0 SHL SUB DUP3 AND PUSH0 DUP2 DUP2 MSTORE PUSH1 0x8 PUSH1 0x20 SWAP1 DUP2 MSTORE PUSH1 0x40 SWAP2 DUP3 SWAP1 KECCAK256 DUP5 SWAP1 SSTORE DUP2 MLOAD SWAP3 DUP4 MSTORE DUP3 ADD DUP4 SWAP1 MSTORE PUSH32 0xD7D0CDF0B13669CAB92566615F9093D52F6D2C34CC92561E500DDDD3AE918DE8 SWAP2 ADD PUSH1 0x40 MLOAD DUP1 SWAP2 SUB SWAP1 LOG1 POP POP JUMP JUMPDEST PUSH0 CALLER PUSH2 0x4C1 DUP2 DUP6 DUP6 PUSH2 0xAB7 JUMP JUMPDEST PUSH1 0x1 SWAP2 POP POP JUMPDEST SWAP3 SWAP2 POP POP JUMP JUMPDEST PUSH0 CALLER PUSH2 0x4DA DUP6 DUP3 DUP6 PUSH2 0xAC9 JUMP JUMPDEST PUSH2 0x4E5 DUP6 DUP6 DUP6 PUSH2 0xB3E JUMP JUMPDEST POP PUSH1 0x1 SWAP5 SWAP4 POP POP POP POP JUMP JUMPDEST PUSH2 0x4FA CALLER DUP3 PUSH2 0xB9B JUMP JUMPDEST POP JUMP JUMPDEST PUSH0 PUSH2 0x50A PUSH1 0x12 PUSH1 0xA PUSH2 0x117F JUMP JUMPDEST PUSH2 0x514 SWAP1 DUP4 PUSH2 0x118D JUMP JUMPDEST SWAP1 POP PUSH2 0x520 DUP5 DUP3 PUSH2 0x5AA JUMP JUMPDEST PUSH0 PUSH2 0x52C DUP7 DUP6 DUP6 PUSH2 0x7ED JUMP JUMPDEST PUSH1 0x40 DUP1 MLOAD DUP9 DUP2 MSTORE PUSH1 0x1 PUSH1 0x1 PUSH1 0xA0 SHL SUB DUP9 DUP2 AND PUSH1 0x20 DUP4 ADD MSTORE DUP8 AND DUP2 DUP4 ADD MSTORE PUSH1 0x60 DUP2 ADD DUP6 SWAP1 MSTORE PUSH1 0x80 DUP2 ADD DUP7 SWAP1 MSTORE DUP3 ISZERO ISZERO PUSH1 0xA0 DUP3 ADD MSTORE SWAP1 MLOAD SWAP2 SWAP3 POP PUSH32 0xEBC14DDBDD1E1EBC5A287D8957BD1CA84FAEF18F192F27829B8459FD15F5195D SWAP2 SWAP1 DUP2 SWAP1 SUB PUSH1 0xC0 ADD SWAP1 LOG1 POP POP POP POP POP POP JUMP JUMPDEST PUSH2 0x59F PUSH2 0xA8A JUMP JUMPDEST PUSH2 0x5A8 PUSH0 PUSH2 0xBCF JUMP JUMPDEST JUMP JUMPDEST PUSH2 0x5B5 DUP3 CALLER DUP4 PUSH2 0xAC9 JUMP JUMPDEST PUSH2 0x5BF DUP3 DUP3 PUSH2 0xB9B JUMP JUMPDEST POP POP JUMP JUMPDEST PUSH1 0x60 PUSH1 0x4 DUP1 SLOAD PUSH2 0x3D4 SWAP1 PUSH2 0x11A4 JUMP JUMPDEST PUSH0 CALLER PUSH2 0x4C1 DUP2 DUP6 DUP6 PUSH2 0xB3E JUMP JUMPDEST PUSH2 0x5E7 PUSH2 0xC20 JUMP JUMPDEST PUSH1 0x1 PUSH1 0x1 PUSH1 0xA0 SHL SUB DUP5 AND PUSH0 SWAP1 DUP2 MSTORE PUSH1 0x8 PUSH1 0x20 MSTORE PUSH1 0x40 DUP2 KECCAK256 SLOAD SWAP1 SUB PUSH2 0x643 JUMPI PUSH1 0x40 MLOAD PUSH3 0x461BCD PUSH1 0xE5 SHL DUP2 MSTORE PUSH1 0x20 PUSH1 0x4 DUP3 ADD MSTORE PUSH1 0xE PUSH1 0x24 DUP3 ADD MSTORE PUSH14 0x6E6F20736574206173207461736B PUSH1 0x90 SHL PUSH1 0x44 DUP3 ADD MSTORE PUSH1 0x64 ADD JUMPDEST PUSH1 0x40 MLOAD DUP1 SWAP2 SUB SWAP1 REVERT JUMPDEST PUSH1 0x1 PUSH1 0x1 PUSH1 0xA0 SHL SUB DUP5 AND PUSH0 DUP2 DUP2 MSTORE PUSH1 0x8 PUSH1 0x20 MSTORE PUSH1 0x40 DUP1 DUP3 KECCAK256 SLOAD SWAP1 MLOAD PUSH4 0x70D64693 PUSH1 0xE1 SHL DUP2 MSTORE SWAP2 SWAP3 SWAP1 SWAP2 PUSH4 0xE1AC8D26 SWAP1 PUSH2 0x684 SWAP1 CALLER SWAP1 DUP9 SWAP1 DUP9 SWAP1 PUSH1 0x4 ADD PUSH2 0x11DC JUMP JUMPDEST PUSH1 0x20 PUSH1 0x40 MLOAD DUP1 DUP4 SUB DUP2 PUSH0 DUP8 GAS CALL ISZERO DUP1 ISZERO PUSH2 0x6A0 JUMPI RETURNDATASIZE PUSH0 DUP1 RETURNDATACOPY RETURNDATASIZE PUSH0 REVERT JUMPDEST POP POP POP POP PUSH1 0x40 MLOAD RETURNDATASIZE PUSH1 0x1F NOT PUSH1 0x1F DUP3 ADD AND DUP3 ADD DUP1 PUSH1 0x40 MSTORE POP DUP2 ADD SWAP1 PUSH2 0x6C4 SWAP2 SWAP1 PUSH2 0x121B JUMP JUMPDEST PUSH2 0x6CE SWAP2 SWAP1 PUSH2 0x118D JUMP JUMPDEST SWAP1 POP PUSH2 0x6DA DUP5 DUP3 PUSH2 0xC4A JUMP JUMPDEST PUSH1 0x40 DUP1 MLOAD CALLER DUP2 MSTORE PUSH1 0x1 PUSH1 0x1 PUSH1 0xA0 SHL SUB DUP8 DUP2 AND PUSH1 0x20 DUP4 ADD MSTORE DUP7 AND DUP2 DUP4 ADD MSTORE PUSH1 0x60 DUP2 ADD DUP4 SWAP1 MSTORE SWAP1 MLOAD PUSH32 0x4D914FBDB28A885441BB0F6E06BB01DFDFE8A8B6902391853B46EB747AE136EF SWAP2 DUP2 SWAP1 SUB PUSH1 0x80 ADD SWAP1 LOG1 POP PUSH2 0x735 PUSH1 0x1 PUSH1 0x5 SSTORE JUMP JUMPDEST POP POP POP POP JUMP JUMPDEST PUSH2 0x743 PUSH2 0xA8A JUMP JUMPDEST PUSH1 0x40 MLOAD PUSH4 0xA9059CBB PUSH1 0xE0 SHL DUP2 MSTORE PUSH1 0x1 PUSH1 0x1 PUSH1 0xA0 SHL SUB DUP4 DUP2 AND PUSH1 0x4 DUP4 ADD MSTORE PUSH1 0x24 DUP3 ADD DUP4 SWAP1 MSTORE DUP5 AND SWAP1 PUSH4 0xA9059CBB SWAP1 PUSH1 0x44 ADD PUSH1 0x20 PUSH1 0x40 MLOAD DUP1 DUP4 SUB DUP2 PUSH0 DUP8 GAS CALL ISZERO DUP1 ISZERO PUSH2 0x78F JUMPI RETURNDATASIZE PUSH0 DUP1 RETURNDATACOPY RETURNDATASIZE PUSH0 REVERT JUMPDEST POP POP POP POP PUSH1 0x40 MLOAD RETURNDATASIZE PUSH1 0x1F NOT PUSH1 0x1F DUP3 ADD AND DUP3 ADD DUP1 PUSH1 0x40 MSTORE POP DUP2 ADD SWAP1 PUSH2 0x735 SWAP2 SWAP1 PUSH2 0x1246 JUMP JUMPDEST PUSH2 0x7BB PUSH2 0xA8A JUMP JUMPDEST PUSH1 0x1 PUSH1 0x1 PUSH1 0xA0 SHL SUB DUP2 AND PUSH2 0x7E4 JUMPI PUSH1 0x40 MLOAD PUSH4 0x1E4FBDF7 PUSH1 0xE0 SHL DUP2 MSTORE PUSH0 PUSH1 0x4 DUP3 ADD MSTORE PUSH1 0x24 ADD PUSH2 0x63A JUMP JUMPDEST PUSH2 0x4FA DUP2 PUSH2 0xBCF JUMP JUMPDEST PUSH1 0x7 SLOAD PUSH1 0x40 MLOAD PUSH4 0x8F91CD17 PUSH1 0xE0 SHL DUP2 MSTORE PUSH1 0x4 DUP2 ADD DUP6 SWAP1 MSTORE PUSH0 SWAP2 PUSH1 0x1 SWAP2 DUP4 SWAP2 PUSH1 0x1 PUSH1 0x1 PUSH1 0xA0 SHL SUB AND SWAP1 PUSH4 0x8F91CD17 SWAP1 PUSH1 0x24 ADD PUSH2 0x1E0 PUSH1 0x40 MLOAD DUP1 DUP4 SUB DUP2 DUP7 GAS STATICCALL ISZERO DUP1 ISZERO PUSH2 0x83A JUMPI RETURNDATASIZE PUSH0 DUP1 RETURNDATACOPY RETURNDATASIZE PUSH0 REVERT JUMPDEST POP POP POP POP PUSH1 0x40 MLOAD RETURNDATASIZE PUSH1 0x1F NOT PUSH1 0x1F DUP3 ADD AND DUP3 ADD DUP1 PUSH1 0x40 MSTORE POP DUP2 ADD SWAP1 PUSH2 0x85E SWAP2 SWAP1 PUSH2 0x12AE JUMP JUMPDEST PUSH2 0x180 DUP2 ADD MLOAD SWAP1 SWAP2 POP PUSH1 0x1 PUSH1 0x1 PUSH1 0xA0 SHL SUB AND PUSH2 0x9C0 JUMPI PUSH1 0x7 SLOAD PUSH1 0x1 PUSH1 0xA0 SHL SWAP1 DIV PUSH1 0xFF AND ISZERO ISZERO PUSH1 0x1 EQ PUSH2 0x8C8 JUMPI PUSH1 0x40 MLOAD PUSH3 0x461BCD PUSH1 0xE5 SHL DUP2 MSTORE PUSH1 0x20 PUSH1 0x4 DUP3 ADD MSTORE PUSH1 0x13 PUSH1 0x24 DUP3 ADD MSTORE PUSH19 0x627579207469636B6574206E6F20616C6C6F77 PUSH1 0x68 SHL PUSH1 0x44 DUP3 ADD MSTORE PUSH1 0x64 ADD PUSH2 0x63A JUMP JUMPDEST PUSH0 DUP5 DUP3 PUSH2 0x160 ADD MLOAD PUSH2 0x8DA SWAP2 SWAP1 PUSH2 0x118D JUMP JUMPDEST DUP3 MLOAD PUSH1 0x7 SLOAD PUSH1 0x40 MLOAD PUSH4 0x95EA7B3 PUSH1 0xE0 SHL DUP2 MSTORE PUSH1 0x1 PUSH1 0x1 PUSH1 0xA0 SHL SUB SWAP2 DUP3 AND PUSH1 0x4 DUP3 ADD MSTORE PUSH1 0x24 DUP2 ADD DUP5 SWAP1 MSTORE SWAP3 SWAP4 POP AND SWAP1 PUSH4 0x95EA7B3 SWAP1 PUSH1 0x44 ADD PUSH1 0x20 PUSH1 0x40 MLOAD DUP1 DUP4 SUB DUP2 PUSH0 DUP8 GAS CALL ISZERO DUP1 ISZERO PUSH2 0x92D JUMPI RETURNDATASIZE PUSH0 DUP1 RETURNDATACOPY RETURNDATASIZE PUSH0 REVERT JUMPDEST POP POP POP POP PUSH1 0x40 MLOAD RETURNDATASIZE PUSH1 0x1F NOT PUSH1 0x1F DUP3 ADD AND DUP3 ADD DUP1 PUSH1 0x40 MSTORE POP DUP2 ADD SWAP1 PUSH2 0x951 SWAP2 SWAP1 PUSH2 0x1246 JUMP JUMPDEST POP PUSH1 0x7 SLOAD PUSH1 0x40 MLOAD PUSH4 0xC5E7BB33 PUSH1 0xE0 SHL DUP2 MSTORE PUSH1 0x4 DUP2 ADD DUP10 SWAP1 MSTORE PUSH1 0x1 PUSH1 0x1 PUSH1 0xA0 SHL SUB DUP9 DUP2 AND PUSH1 0x24 DUP4 ADD MSTORE PUSH1 0x44 DUP3 ADD DUP9 SWAP1 MSTORE SWAP1 SWAP2 AND SWAP1 PUSH4 0xC5E7BB33 SWAP1 PUSH1 0x64 ADD PUSH0 PUSH1 0x40 MLOAD DUP1 DUP4 SUB DUP2 PUSH0 DUP8 DUP1 EXTCODESIZE ISZERO DUP1 ISZERO PUSH2 0x9A4 JUMPI PUSH0 DUP1 REVERT JUMPDEST POP GAS CALL ISZERO DUP1 ISZERO PUSH2 0x9B6 JUMPI RETURNDATASIZE PUSH0 DUP1 RETURNDATACOPY RETURNDATASIZE PUSH0 REVERT JUMPDEST POP POP POP POP POP PUSH2 0xA81 JUMP JUMPDEST PUSH1 0x7 SLOAD PUSH1 0x1 PUSH1 0xA8 SHL SWAP1 DIV PUSH1 0xFF AND ISZERO ISZERO PUSH1 0x1 EQ PUSH2 0xA15 JUMPI PUSH1 0x40 MLOAD PUSH3 0x461BCD PUSH1 0xE5 SHL DUP2 MSTORE PUSH1 0x20 PUSH1 0x4 DUP3 ADD MSTORE PUSH1 0x14 PUSH1 0x24 DUP3 ADD MSTORE PUSH20 0x73656E64207469636B6574206E6F20616C6C6F77 PUSH1 0x60 SHL PUSH1 0x44 DUP3 ADD MSTORE PUSH1 0x64 ADD PUSH2 0x63A JUMP JUMPDEST PUSH1 0x7 SLOAD PUSH1 0x40 MLOAD PUSH4 0x5C42E0C5 PUSH1 0xE0 SHL DUP2 MSTORE PUSH1 0x4 DUP2 ADD DUP9 SWAP1 MSTORE PUSH1 0x1 PUSH1 0x1 PUSH1 0xA0 SHL SUB DUP8 DUP2 AND PUSH1 0x24 DUP4 ADD MSTORE PUSH1 0x44 DUP3 ADD DUP8 SWAP1 MSTORE SWAP1 SWAP2 AND SWAP1 PUSH4 0x5C42E0C5 SWAP1 PUSH1 0x64 ADD PUSH0 PUSH1 0x40 MLOAD DUP1 DUP4 SUB DUP2 PUSH0 DUP8 DUP1 EXTCODESIZE ISZERO DUP1 ISZERO PUSH2 0xA67 JUMPI PUSH0 DUP1 REVERT JUMPDEST POP GAS CALL ISZERO DUP1 ISZERO PUSH2 0xA79 JUMPI RETURNDATASIZE PUSH0 DUP1 RETURNDATACOPY RETURNDATASIZE PUSH0 REVERT JUMPDEST POP POP POP POP PUSH0 SWAP2 POP JUMPDEST POP SWAP5 SWAP4 POP POP POP POP JUMP JUMPDEST PUSH1 0x6 SLOAD PUSH1 0x1 PUSH1 0x1 PUSH1 0xA0 SHL SUB AND CALLER EQ PUSH2 0x5A8 JUMPI PUSH1 0x40 MLOAD PUSH4 0x118CDAA7 PUSH1 0xE0 SHL DUP2 MSTORE CALLER PUSH1 0x4 DUP3 ADD MSTORE PUSH1 0x24 ADD PUSH2 0x63A JUMP JUMPDEST PUSH2 0xAC4 DUP4 DUP4 DUP4 PUSH1 0x1 PUSH2 0xC7E JUMP JUMPDEST POP POP POP JUMP JUMPDEST PUSH1 0x1 PUSH1 0x1 PUSH1 0xA0 SHL SUB DUP4 DUP2 AND PUSH0 SWAP1 DUP2 MSTORE PUSH1 0x1 PUSH1 0x20 SWAP1 DUP2 MSTORE PUSH1 0x40 DUP1 DUP4 KECCAK256 SWAP4 DUP7 AND DUP4 MSTORE SWAP3 SWAP1 MSTORE KECCAK256 SLOAD PUSH0 NOT DUP2 EQ PUSH2 0x735 JUMPI DUP2 DUP2 LT ISZERO PUSH2 0xB30 JUMPI PUSH1 0x40 MLOAD PUSH4 0x7DC7A0D9 PUSH1 0xE1 SHL DUP2 MSTORE PUSH1 0x1 PUSH1 0x1 PUSH1 0xA0 SHL SUB DUP5 AND PUSH1 0x4 DUP3 ADD MSTORE PUSH1 0x24 DUP2 ADD DUP3 SWAP1 MSTORE PUSH1 0x44 DUP2 ADD DUP4 SWAP1 MSTORE PUSH1 0x64 ADD PUSH2 0x63A JUMP JUMPDEST PUSH2 0x735 DUP5 DUP5 DUP5 DUP5 SUB PUSH0 PUSH2 0xC7E JUMP JUMPDEST PUSH1 0x1 PUSH1 0x1 PUSH1 0xA0 SHL SUB DUP4 AND PUSH2 0xB67 JUMPI PUSH1 0x40 MLOAD PUSH4 0x4B637E8F PUSH1 0xE1 SHL DUP2 MSTORE PUSH0 PUSH1 0x4 DUP3 ADD MSTORE PUSH1 0x24 ADD PUSH2 0x63A JUMP JUMPDEST PUSH1 0x1 PUSH1 0x1 PUSH1 0xA0 SHL SUB DUP3 AND PUSH2 0xB90 JUMPI PUSH1 0x40 MLOAD PUSH4 0xEC442F05 PUSH1 0xE0 SHL DUP2 MSTORE PUSH0 PUSH1 0x4 DUP3 ADD MSTORE PUSH1 0x24 ADD PUSH2 0x63A JUMP JUMPDEST PUSH2 0xAC4 DUP4 DUP4 DUP4 PUSH2 0xD50 JUMP JUMPDEST PUSH1 0x1 PUSH1 0x1 PUSH1 0xA0 SHL SUB DUP3 AND PUSH2 0xBC4 JUMPI PUSH1 0x40 MLOAD PUSH4 0x4B637E8F PUSH1 0xE1 SHL DUP2 MSTORE PUSH0 PUSH1 0x4 DUP3 ADD MSTORE PUSH1 0x24 ADD PUSH2 0x63A JUMP JUMPDEST PUSH2 0x5BF DUP3 PUSH0 DUP4 PUSH2 0xD50 JUMP JUMPDEST PUSH1 0x6 DUP1 SLOAD PUSH1 0x1 PUSH1 0x1 PUSH1 0xA0 SHL SUB DUP4 DUP2 AND PUSH1 0x1 PUSH1 0x1 PUSH1 0xA0 SHL SUB NOT DUP4 AND DUP2 OR SWAP1 SWAP4 SSTORE PUSH1 0x40 MLOAD SWAP2 AND SWAP2 SWAP1 DUP3 SWAP1 PUSH32 0x8BE0079C531659141344CD1FD0A4F28419497F9722A3DAAFE3B4186F6B6457E0 SWAP1 PUSH0 SWAP1 LOG3 POP POP JUMP JUMPDEST PUSH1 0x2 PUSH1 0x5 SLOAD SUB PUSH2 0xC43 JUMPI PUSH1 0x40 MLOAD PUSH4 0x3EE5AEB5 PUSH1 0xE0 SHL DUP2 MSTORE PUSH1 0x4 ADD PUSH1 0x40 MLOAD DUP1 SWAP2 SUB SWAP1 REVERT JUMPDEST PUSH1 0x2 PUSH1 0x5 SSTORE JUMP JUMPDEST PUSH1 0x1 PUSH1 0x1 PUSH1 0xA0 SHL SUB DUP3 AND PUSH2 0xC73 JUMPI PUSH1 0x40 MLOAD PUSH4 0xEC442F05 PUSH1 0xE0 SHL DUP2 MSTORE PUSH0 PUSH1 0x4 DUP3 ADD MSTORE PUSH1 0x24 ADD PUSH2 0x63A JUMP JUMPDEST PUSH2 0x5BF PUSH0 DUP4 DUP4 PUSH2 0xD50 JUMP JUMPDEST PUSH1 0x1 PUSH1 0x1 PUSH1 0xA0 SHL SUB DUP5 AND PUSH2 0xCA7 JUMPI PUSH1 0x40 MLOAD PUSH4 0xE602DF05 PUSH1 0xE0 SHL DUP2 MSTORE PUSH0 PUSH1 0x4 DUP3 ADD MSTORE PUSH1 0x24 ADD PUSH2 0x63A JUMP JUMPDEST PUSH1 0x1 PUSH1 0x1 PUSH1 0xA0 SHL SUB DUP4 AND PUSH2 0xCD0 JUMPI PUSH1 0x40 MLOAD PUSH4 0x4A1406B1 PUSH1 0xE1 SHL DUP2 MSTORE PUSH0 PUSH1 0x4 DUP3 ADD MSTORE PUSH1 0x24 ADD PUSH2 0x63A JUMP JUMPDEST PUSH1 0x1 PUSH1 0x1 PUSH1 0xA0 SHL SUB DUP1 DUP6 AND PUSH0 SWAP1 DUP2 MSTORE PUSH1 0x1 PUSH1 0x20 SWAP1 DUP2 MSTORE PUSH1 0x40 DUP1 DUP4 KECCAK256 SWAP4 DUP8 AND DUP4 MSTORE SWAP3 SWAP1 MSTORE KECCAK256 DUP3 SWAP1 SSTORE DUP1 ISZERO PUSH2 0x735 JUMPI DUP3 PUSH1 0x1 PUSH1 0x1 PUSH1 0xA0 SHL SUB AND DUP5 PUSH1 0x1 PUSH1 0x1 PUSH1 0xA0 SHL SUB AND PUSH32 0x8C5BE1E5EBEC7D5BD14F71427D1E84F3DD0314C0F7B2291E5B200AC8C7C3B925 DUP5 PUSH1 0x40 MLOAD PUSH2 0xD42 SWAP2 DUP2 MSTORE PUSH1 0x20 ADD SWAP1 JUMP JUMPDEST PUSH1 0x40 MLOAD DUP1 SWAP2 SUB SWAP1 LOG3 POP POP POP POP JUMP JUMPDEST PUSH1 0x1 PUSH1 0x1 PUSH1 0xA0 SHL SUB DUP4 AND PUSH2 0xD7A JUMPI DUP1 PUSH1 0x2 PUSH0 DUP3 DUP3 SLOAD PUSH2 0xD6F SWAP2 SWAP1 PUSH2 0x1385 JUMP JUMPDEST SWAP1 SWAP2 SSTORE POP PUSH2 0xDEA SWAP1 POP JUMP JUMPDEST PUSH1 0x1 PUSH1 0x1 PUSH1 0xA0 SHL SUB DUP4 AND PUSH0 SWAP1 DUP2 MSTORE PUSH1 0x20 DUP2 SWAP1 MSTORE PUSH1 0x40 SWAP1 KECCAK256 SLOAD DUP2 DUP2 LT ISZERO PUSH2 0xDCC JUMPI PUSH1 0x40 MLOAD PUSH4 0x391434E3 PUSH1 0xE2 SHL DUP2 MSTORE PUSH1 0x1 PUSH1 0x1 PUSH1 0xA0 SHL SUB DUP6 AND PUSH1 0x4 DUP3 ADD MSTORE PUSH1 0x24 DUP2 ADD DUP3 SWAP1 MSTORE PUSH1 0x44 DUP2 ADD DUP4 SWAP1 MSTORE PUSH1 0x64 ADD PUSH2 0x63A JUMP JUMPDEST PUSH1 0x1 PUSH1 0x1 PUSH1 0xA0 SHL SUB DUP5 AND PUSH0 SWAP1 DUP2 MSTORE PUSH1 0x20 DUP2 SWAP1 MSTORE PUSH1 0x40 SWAP1 KECCAK256 SWAP1 DUP3 SWAP1 SUB SWAP1 SSTORE JUMPDEST PUSH1 0x1 PUSH1 0x1 PUSH1 0xA0 SHL SUB DUP3 AND PUSH2 0xE06 JUMPI PUSH1 0x2 DUP1 SLOAD DUP3 SWAP1 SUB SWAP1 SSTORE PUSH2 0xE24 JUMP JUMPDEST PUSH1 0x1 PUSH1 0x1 PUSH1 0xA0 SHL SUB DUP3 AND PUSH0 SWAP1 DUP2 MSTORE PUSH1 0x20 DUP2 SWAP1 MSTORE PUSH1 0x40 SWAP1 KECCAK256 DUP1 SLOAD DUP3 ADD SWAP1 SSTORE JUMPDEST DUP2 PUSH1 0x1 PUSH1 0x1 PUSH1 0xA0 SHL SUB AND DUP4 PUSH1 0x1 PUSH1 0x1 PUSH1 0xA0 SHL SUB AND PUSH32 0xDDF252AD1BE2C89B69C2B068FC378DAA952BA7F163C4A11628F55A4DF523B3EF DUP4 PUSH1 0x40 MLOAD PUSH2 0xE69 SWAP2 DUP2 MSTORE PUSH1 0x20 ADD SWAP1 JUMP JUMPDEST PUSH1 0x40 MLOAD DUP1 SWAP2 SUB SWAP1 LOG3 POP POP POP JUMP JUMPDEST PUSH1 0x1 PUSH1 0x1 PUSH1 0xA0 SHL SUB DUP2 AND DUP2 EQ PUSH2 0x4FA JUMPI PUSH0 DUP1 REVERT JUMPDEST PUSH0 DUP1 PUSH0 PUSH1 0x60 DUP5 DUP7 SUB SLT ISZERO PUSH2 0xE9C JUMPI PUSH0 DUP1 REVERT JUMPDEST DUP4 CALLDATALOAD SWAP3 POP PUSH1 0x20 DUP5 ADD CALLDATALOAD PUSH2 0xEAE DUP2 PUSH2 0xE76 JUMP JUMPDEST SWAP3 SWAP6 SWAP3 SWAP5 POP POP POP PUSH1 0x40 SWAP2 SWAP1 SWAP2 ADD CALLDATALOAD SWAP1 JUMP JUMPDEST PUSH1 0x20 DUP2 MSTORE PUSH0 DUP3 MLOAD DUP1 PUSH1 0x20 DUP5 ADD MSTORE DUP1 PUSH1 0x20 DUP6 ADD PUSH1 0x40 DUP6 ADD MCOPY PUSH0 PUSH1 0x40 DUP3 DUP6 ADD ADD MSTORE PUSH1 0x40 PUSH1 0x1F NOT PUSH1 0x1F DUP4 ADD AND DUP5 ADD ADD SWAP2 POP POP SWAP3 SWAP2 POP POP JUMP JUMPDEST PUSH0 DUP1 PUSH1 0x40 DUP4 DUP6 SUB SLT ISZERO PUSH2 0xF05 JUMPI PUSH0 DUP1 REVERT JUMPDEST DUP3 CALLDATALOAD PUSH2 0xF10 DUP2 PUSH2 0xE76 JUMP JUMPDEST SWAP5 PUSH1 0x20 SWAP4 SWAP1 SWAP4 ADD CALLDATALOAD SWAP4 POP POP POP JUMP JUMPDEST PUSH0 DUP1 PUSH0 PUSH1 0x60 DUP5 DUP7 SUB SLT ISZERO PUSH2 0xF30 JUMPI PUSH0 DUP1 REVERT JUMPDEST DUP4 CALLDATALOAD PUSH2 0xF3B DUP2 PUSH2 0xE76 JUMP JUMPDEST SWAP3 POP PUSH1 0x20 DUP5 ADD CALLDATALOAD PUSH2 0xEAE DUP2 PUSH2 0xE76 JUMP JUMPDEST PUSH0 PUSH1 0x20 DUP3 DUP5 SUB SLT ISZERO PUSH2 0xF5B JUMPI PUSH0 DUP1 REVERT JUMPDEST POP CALLDATALOAD SWAP2 SWAP1 POP JUMP JUMPDEST PUSH0 DUP1 PUSH0 DUP1 PUSH1 0x80 DUP6 DUP8 SUB SLT ISZERO PUSH2 0xF75 JUMPI PUSH0 DUP1 REVERT JUMPDEST DUP5 CALLDATALOAD SWAP4 POP PUSH1 0x20 DUP6 ADD CALLDATALOAD PUSH2 0xF87 DUP2 PUSH2 0xE76 JUMP JUMPDEST SWAP3 POP PUSH1 0x40 DUP6 ADD CALLDATALOAD PUSH2 0xF97 DUP2 PUSH2 0xE76 JUMP JUMPDEST SWAP4 SWAP7 SWAP3 SWAP6 POP SWAP3 SWAP4 PUSH1 0x60 ADD CALLDATALOAD SWAP3 POP POP JUMP JUMPDEST PUSH0 PUSH1 0x20 DUP3 DUP5 SUB SLT ISZERO PUSH2 0xFB7 JUMPI PUSH0 DUP1 REVERT JUMPDEST DUP2 CALLDATALOAD PUSH2 0xFC2 DUP2 PUSH2 0xE76 JUMP JUMPDEST SWAP4 SWAP3 POP POP POP JUMP JUMPDEST PUSH0 DUP1 PUSH0 DUP1 PUSH1 0x60 DUP6 DUP8 SUB SLT ISZERO PUSH2 0xFDC JUMPI PUSH0 DUP1 REVERT JUMPDEST DUP5 CALLDATALOAD PUSH2 0xFE7 DUP2 PUSH2 0xE76 JUMP JUMPDEST SWAP4 POP PUSH1 0x20 DUP6 ADD CALLDATALOAD PUSH2 0xFF7 DUP2 PUSH2 0xE76 JUMP JUMPDEST SWAP3 POP PUSH1 0x40 DUP6 ADD CALLDATALOAD PUSH8 0xFFFFFFFFFFFFFFFF DUP1 DUP3 GT ISZERO PUSH2 0x1013 JUMPI PUSH0 DUP1 REVERT JUMPDEST DUP2 DUP8 ADD SWAP2 POP DUP8 PUSH1 0x1F DUP4 ADD SLT PUSH2 0x1026 JUMPI PUSH0 DUP1 REVERT JUMPDEST DUP2 CALLDATALOAD DUP2 DUP2 GT ISZERO PUSH2 0x1034 JUMPI PUSH0 DUP1 REVERT JUMPDEST DUP9 PUSH1 0x20 DUP3 DUP6 ADD ADD GT ISZERO PUSH2 0x1045 JUMPI PUSH0 DUP1 REVERT JUMPDEST SWAP6 SWAP9 SWAP5 SWAP8 POP POP PUSH1 0x20 ADD SWAP5 POP POP POP JUMP JUMPDEST PUSH0 DUP1 PUSH1 0x40 DUP4 DUP6 SUB SLT ISZERO PUSH2 0x1065 JUMPI PUSH0 DUP1 REVERT JUMPDEST DUP3 CALLDATALOAD PUSH2 0x1070 DUP2 PUSH2 0xE76 JUMP JUMPDEST SWAP2 POP PUSH1 0x20 DUP4 ADD CALLDATALOAD PUSH2 0x1080 DUP2 PUSH2 0xE76 JUMP JUMPDEST DUP1 SWAP2 POP POP SWAP3 POP SWAP3 SWAP1 POP JUMP JUMPDEST PUSH4 0x4E487B71 PUSH1 0xE0 SHL PUSH0 MSTORE PUSH1 0x11 PUSH1 0x4 MSTORE PUSH1 0x24 PUSH0 REVERT JUMPDEST PUSH1 0x1 DUP2 DUP2 JUMPDEST DUP1 DUP6 GT ISZERO PUSH2 0x10D9 JUMPI DUP2 PUSH0 NOT DIV DUP3 GT ISZERO PUSH2 0x10BF JUMPI PUSH2 0x10BF PUSH2 0x108B JUMP JUMPDEST DUP1 DUP6 AND ISZERO PUSH2 0x10CC JUMPI SWAP2 DUP2 MUL SWAP2 JUMPDEST SWAP4 DUP5 SHR SWAP4 SWAP1 DUP1 MUL SWAP1 PUSH2 0x10A4 JUMP JUMPDEST POP SWAP3 POP SWAP3 SWAP1 POP JUMP JUMPDEST PUSH0 DUP3 PUSH2 0x10EF JUMPI POP PUSH1 0x1 PUSH2 0x4C7 JUMP JUMPDEST DUP2 PUSH2 0x10FB JUMPI POP PUSH0 PUSH2 0x4C7 JUMP JUMPDEST DUP2 PUSH1 0x1 DUP2 EQ PUSH2 0x1111 JUMPI PUSH1 0x2 DUP2 EQ PUSH2 0x111B JUMPI PUSH2 0x1137 JUMP JUMPDEST PUSH1 0x1 SWAP2 POP POP PUSH2 0x4C7 JUMP JUMPDEST PUSH1 0xFF DUP5 GT ISZERO PUSH2 0x112C JUMPI PUSH2 0x112C PUSH2 0x108B JUMP JUMPDEST POP POP PUSH1 0x1 DUP3 SHL PUSH2 0x4C7 JUMP JUMPDEST POP PUSH1 0x20 DUP4 LT PUSH2 0x133 DUP4 LT AND PUSH1 0x4E DUP5 LT PUSH1 0xB DUP5 LT AND OR ISZERO PUSH2 0x115A JUMPI POP DUP2 DUP2 EXP PUSH2 0x4C7 JUMP JUMPDEST PUSH2 0x1164 DUP4 DUP4 PUSH2 0x109F JUMP JUMPDEST DUP1 PUSH0 NOT DIV DUP3 GT ISZERO PUSH2 0x1177 JUMPI PUSH2 0x1177 PUSH2 0x108B JUMP JUMPDEST MUL SWAP4 SWAP3 POP POP POP JUMP JUMPDEST PUSH0 PUSH2 0xFC2 PUSH1 0xFF DUP5 AND DUP4 PUSH2 0x10E1 JUMP JUMPDEST DUP1 DUP3 MUL DUP2 ISZERO DUP3 DUP3 DIV DUP5 EQ OR PUSH2 0x4C7 JUMPI PUSH2 0x4C7 PUSH2 0x108B JUMP JUMPDEST PUSH1 0x1 DUP2 DUP2 SHR SWAP1 DUP3 AND DUP1 PUSH2 0x11B8 JUMPI PUSH1 0x7F DUP3 AND SWAP2 POP JUMPDEST PUSH1 0x20 DUP3 LT DUP2 SUB PUSH2 0x11D6 JUMPI PUSH4 0x4E487B71 PUSH1 0xE0 SHL PUSH0 MSTORE PUSH1 0x22 PUSH1 0x4 MSTORE PUSH1 0x24 PUSH0 REVERT JUMPDEST POP SWAP2 SWAP1 POP JUMP JUMPDEST PUSH1 0x1 PUSH1 0x1 PUSH1 0xA0 SHL SUB DUP5 AND DUP2 MSTORE PUSH1 0x40 PUSH1 0x20 DUP3 ADD DUP2 SWAP1 MSTORE DUP2 ADD DUP3 SWAP1 MSTORE DUP2 DUP4 PUSH1 0x60 DUP4 ADD CALLDATACOPY PUSH0 DUP2 DUP4 ADD PUSH1 0x60 SWAP1 DUP2 ADD SWAP2 SWAP1 SWAP2 MSTORE PUSH1 0x1F SWAP1 SWAP3 ADD PUSH1 0x1F NOT AND ADD ADD SWAP3 SWAP2 POP POP JUMP JUMPDEST PUSH0 PUSH1 0x20 DUP3 DUP5 SUB SLT ISZERO PUSH2 0x122B JUMPI PUSH0 DUP1 REVERT JUMPDEST POP MLOAD SWAP2 SWAP1 POP JUMP JUMPDEST DUP1 MLOAD DUP1 ISZERO ISZERO DUP2 EQ PUSH2 0x1241 JUMPI PUSH0 DUP1 REVERT JUMPDEST SWAP2 SWAP1 POP JUMP JUMPDEST PUSH0 PUSH1 0x20 DUP3 DUP5 SUB SLT ISZERO PUSH2 0x1256 JUMPI PUSH0 DUP1 REVERT JUMPDEST PUSH2 0xFC2 DUP3 PUSH2 0x1232 JUMP JUMPDEST PUSH1 0x40 MLOAD PUSH2 0x1E0 DUP2 ADD PUSH8 0xFFFFFFFFFFFFFFFF DUP2 GT DUP3 DUP3 LT OR ISZERO PUSH2 0x128F JUMPI PUSH4 0x4E487B71 PUSH1 0xE0 SHL PUSH0 MSTORE PUSH1 0x41 PUSH1 0x4 MSTORE PUSH1 0x24 PUSH0 REVERT JUMPDEST PUSH1 0x40 MSTORE SWAP1 JUMP JUMPDEST DUP1 MLOAD PUSH2 0x1241 DUP2 PUSH2 0xE76 JUMP JUMPDEST DUP1 MLOAD PUSH1 0x4 DUP2 LT PUSH2 0x1241 JUMPI PUSH0 DUP1 REVERT JUMPDEST PUSH0 PUSH2 0x1E0 DUP3 DUP5 SUB SLT ISZERO PUSH2 0x12BF JUMPI PUSH0 DUP1 REVERT JUMPDEST PUSH2 0x12C7 PUSH2 0x125F JUMP JUMPDEST PUSH2 0x12D0 DUP4 PUSH2 0x1295 JUMP JUMPDEST DUP2 MSTORE PUSH2 0x12DE PUSH1 0x20 DUP5 ADD PUSH2 0x12A0 JUMP JUMPDEST PUSH1 0x20 DUP3 ADD MSTORE PUSH1 0x40 DUP4 ADD MLOAD PUSH1 0x40 DUP3 ADD MSTORE PUSH1 0x60 DUP4 ADD MLOAD PUSH1 0x60 DUP3 ADD MSTORE PUSH1 0x80 DUP4 ADD MLOAD PUSH1 0x80 DUP3 ADD MSTORE PUSH1 0xA0 DUP4 ADD MLOAD PUSH1 0xA0 DUP3 ADD MSTORE PUSH1 0xC0 DUP4 ADD MLOAD PUSH1 0xC0 DUP3 ADD MSTORE PUSH1 0xE0 DUP4 ADD MLOAD PUSH1 0xE0 DUP3 ADD MSTORE PUSH2 0x100 DUP1 DUP5 ADD MLOAD DUP2 DUP4 ADD MSTORE POP PUSH2 0x120 DUP1 DUP5 ADD MLOAD DUP2 DUP4 ADD MSTORE POP PUSH2 0x140 DUP1 DUP5 ADD MLOAD DUP2 DUP4 ADD MSTORE POP PUSH2 0x160 DUP1 DUP5 ADD MLOAD DUP2 DUP4 ADD MSTORE POP PUSH2 0x180 PUSH2 0x135D DUP2 DUP6 ADD PUSH2 0x1295 JUMP JUMPDEST SWAP1 DUP3 ADD MSTORE PUSH2 0x1A0 DUP4 DUP2 ADD MLOAD SWAP1 DUP3 ADD MSTORE PUSH2 0x1C0 PUSH2 0x137A DUP2 DUP6 ADD PUSH2 0x1232 JUMP JUMPDEST SWAP1 DUP3 ADD MSTORE SWAP4 SWAP3 POP POP POP JUMP JUMPDEST DUP1 DUP3 ADD DUP1 DUP3 GT ISZERO PUSH2 0x4C7 JUMPI PUSH2 0x4C7 PUSH2 0x108B JUMP INVALID LOG2 PUSH5 0x6970667358 0x22 SLT KECCAK256 PUSH1 0x73 DUP12 SUB STOP 0x23 0x27 DUP7 SWAP14 0xBD SWAP8 REVERT BYTE 0x4D 0xAE 0xBD TIMESTAMP BASEFEE DUP6 DUP8 LOG3 0xD8 PUSH3 0x2B079E DUP7 SWAP12 0xBE 0xAE 0xB1 SWAP15 PUSH5 0x736F6C6343 STOP ADDMOD NOT STOP CALLER "
				},
				"gasEstimates": {
					"creation": {
						"codeDepositCost": "1014000",
						"executionCost": "infinite",
						"totalCost": "infinite"
					},
					"external": {
						"allowBuyTicket()": "2337",
						"allowSendTicket()": "2361",
						"allowance(address,address)": "infinite",
						"approve(address,uint256)": "24807",
						"balanceOf(address)": "2664",
						"burn(uint256)": "51005",
						"burnFrom(address,uint256)": "infinite",
						"decimals()": "243",
						"getTicket(uint256,address,uint256)": "infinite",
						"getTicketFrom(uint256,address,address,uint256)": "infinite",
						"mintToken(address,address,bytes)": "infinite",
						"name()": "infinite",
						"owner()": "2386",
						"redEnvelopeAddr()": "2380",
						"renounceOwnership()": "infinite",
						"setTask(address,uint256)": "26108",
						"symbol()": "infinite",
						"totalSupply()": "2303",
						"transfer(address,uint256)": "51310",
						"transferFrom(address,address,uint256)": "infinite",
						"transferOwnership(address)": "infinite",
						"withdraw(address,address,uint256)": "infinite"
					},
					"internal": {
						"_getTicket(uint256,address,uint256)": "infinite"
					}
				},
				"methodIdentifiers": {
					"allowBuyTicket()": "b4309a9c",
					"allowSendTicket()": "06e2a29a",
					"allowance(address,address)": "dd62ed3e",
					"approve(address,uint256)": "095ea7b3",
					"balanceOf(address)": "70a08231",
					"burn(uint256)": "42966c68",
					"burnFrom(address,uint256)": "79cc6790",
					"decimals()": "313ce567",
					"getTicket(uint256,address,uint256)": "012c911e",
					"getTicketFrom(uint256,address,address,uint256)": "6ebd327b",
					"mintToken(address,address,bytes)": "d896fc10",
					"name()": "06fdde03",
					"owner()": "8da5cb5b",
					"redEnvelopeAddr()": "c7ff23bb",
					"renounceOwnership()": "715018a6",
					"setTask(address,uint256)": "082921a5",
					"symbol()": "95d89b41",
					"totalSupply()": "18160ddd",
					"transfer(address,uint256)": "a9059cbb",
					"transferFrom(address,address,uint256)": "23b872dd",
					"transferOwnership(address)": "f2fde38b",
					"withdraw(address,address,uint256)": "d9caed12"
				}
			},
			"storageLayout": {
				"storage": [
					{
						"astId": 307,
						"contract": "contracts/DefaultTaskControl.sol:DefaultTaskControl",
						"label": "_balances",
						"offset": 0,
						"slot": "0",
						"type": "t_mapping(t_address,t_uint256)"
					},
					{
						"astId": 313,
						"contract": "contracts/DefaultTaskControl.sol:DefaultTaskControl",
						"label": "_allowances",
						"offset": 0,
						"slot": "1",
						"type": "t_mapping(t_address,t_mapping(t_address,t_uint256))"
					},
					{
						"astId": 315,
						"contract": "contracts/DefaultTaskControl.sol:DefaultTaskControl",
						"label": "_totalSupply",
						"offset": 0,
						"slot": "2",
						"type": "t_uint256"
					},
					{
						"astId": 317,
						"contract": "contracts/DefaultTaskControl.sol:DefaultTaskControl",
						"label": "_name",
						"offset": 0,
						"slot": "3",
						"type": "t_string_storage"
					},
					{
						"astId": 319,
						"contract": "contracts/DefaultTaskControl.sol:DefaultTaskControl",
						"label": "_symbol",
						"offset": 0,
						"slot": "4",
						"type": "t_string_storage"
					},
					{
						"astId": 990,
						"contract": "contracts/DefaultTaskControl.sol:DefaultTaskControl",
						"label": "_status",
						"offset": 0,
						"slot": "5",
						"type": "t_uint256"
					},
					{
						"astId": 8,
						"contract": "contracts/DefaultTaskControl.sol:DefaultTaskControl",
						"label": "_owner",
						"offset": 0,
						"slot": "6",
						"type": "t_address"
					},
					{
						"astId": 1069,
						"contract": "contracts/DefaultTaskControl.sol:DefaultTaskControl",
						"label": "redEnvelopeAddr",
						"offset": 0,
						"slot": "7",
						"type": "t_address"
					},
					{
						"astId": 1071,
						"contract": "contracts/DefaultTaskControl.sol:DefaultTaskControl",
						"label": "allowBuyTicket",
						"offset": 20,
						"slot": "7",
						"type": "t_bool"
					},
					{
						"astId": 1073,
						"contract": "contracts/DefaultTaskControl.sol:DefaultTaskControl",
						"label": "allowSendTicket",
						"offset": 21,
						"slot": "7",
						"type": "t_bool"
					},
					{
						"astId": 1077,
						"contract": "contracts/DefaultTaskControl.sol:DefaultTaskControl",
						"label": "_tasks",
						"offset": 0,
						"slot": "8",
						"type": "t_mapping(t_address,t_uint256)"
					}
				],
				"types": {
					"t_address": {
						"encoding": "inplace",
						"label": "address",
						"numberOfBytes": "20"
					},
					"t_bool": {
						"encoding": "inplace",
						"label": "bool",
						"numberOfBytes": "1"
					},
					"t_mapping(t_address,t_mapping(t_address,t_uint256))": {
						"encoding": "mapping",
						"key": "t_address",
						"label": "mapping(address => mapping(address => uint256))",
						"numberOfBytes": "32",
						"value": "t_mapping(t_address,t_uint256)"
					},
					"t_mapping(t_address,t_uint256)": {
						"encoding": "mapping",
						"key": "t_address",
						"label": "mapping(address => uint256)",
						"numberOfBytes": "32",
						"value": "t_uint256"
					},
					"t_string_storage": {
						"encoding": "bytes",
						"label": "string",
						"numberOfBytes": "32"
					},
					"t_uint256": {
						"encoding": "inplace",
						"label": "uint256",
						"numberOfBytes": "32"
					}
				}
			},
			"userdoc": {
				"kind": "user",
				"methods": {},
				"version": 1
			}
		}
	}
}