{
	"contracts/LuckyRedEnvelope.sol": {
		"LuckyRedEnvelope": {
			"abi": [
				{
					"inputs": [
						{
							"internalType": "address",
							"name": "_tokenAddress",
							"type": "address"
						},
						{
							"internalType": "uint256",
							"name": "_defaultTicketPirce",
							"type": "uint256"
						},
						{
							"internalType": "address",
							"name": "_operatorAddress",
							"type": "address"
						}
					],
					"stateMutability": "nonpayable",
					"type": "constructor"
				},
				{
					"inputs": [
						{
							"internalType": "address",
							"name": "target",
							"type": "address"
						}
					],
					"name": "AddressEmptyCode",
					"type": "error"
				},
				{
					"inputs": [
						{
							"internalType": "address",
							"name": "account",
							"type": "address"
						}
					],
					"name": "AddressInsufficientBalance",
					"type": "error"
				},
				{
					"inputs": [],
					"name": "FailedInnerCall",
					"type": "error"
				},
				{
					"inputs": [
						{
							"internalType": "address",
							"name": "owner",
							"type": "address"
						}
					],
					"name": "OwnableInvalidOwner",
					"type": "error"
				},
				{
					"inputs": [
						{
							"internalType": "address",
							"name": "account",
							"type": "address"
						}
					],
					"name": "OwnableUnauthorizedAccount",
					"type": "error"
				},
				{
					"inputs": [],
					"name": "ReentrancyGuardReentrantCall",
					"type": "error"
				},
				{
					"inputs": [
						{
							"internalType": "address",
							"name": "token",
							"type": "address"
						}
					],
					"name": "SafeERC20FailedOperation",
					"type": "error"
				},
				{
					"anonymous": false,
					"inputs": [
						{
							"indexed": true,
							"internalType": "uint256",
							"name": "id",
							"type": "uint256"
						},
						{
							"indexed": true,
							"internalType": "address",
							"name": "winner",
							"type": "address"
						},
						{
							"indexed": false,
							"internalType": "uint256",
							"name": "totalAmount",
							"type": "uint256"
						},
						{
							"indexed": false,
							"internalType": "bool",
							"name": "autoClaim",
							"type": "bool"
						}
					],
					"name": "ClaimPrize",
					"type": "event"
				},
				{
					"anonymous": false,
					"inputs": [
						{
							"indexed": false,
							"internalType": "uint256",
							"name": "defaultTicketPirce",
							"type": "uint256"
						},
						{
							"indexed": false,
							"internalType": "bool",
							"name": "defaultAutoClaim",
							"type": "bool"
						}
					],
					"name": "DefaultChange",
					"type": "event"
				},
				{
					"anonymous": false,
					"inputs": [
						{
							"indexed": false,
							"internalType": "address",
							"name": "operatorAddress",
							"type": "address"
						}
					],
					"name": "NewOperatorAddress",
					"type": "event"
				},
				{
					"anonymous": false,
					"inputs": [
						{
							"indexed": true,
							"internalType": "address",
							"name": "previousOwner",
							"type": "address"
						},
						{
							"indexed": true,
							"internalType": "address",
							"name": "newOwner",
							"type": "address"
						}
					],
					"name": "OwnershipTransferred",
					"type": "event"
				},
				{
					"anonymous": false,
					"inputs": [
						{
							"indexed": true,
							"internalType": "uint256",
							"name": "id",
							"type": "uint256"
						},
						{
							"indexed": true,
							"internalType": "address",
							"name": "winner",
							"type": "address"
						},
						{
							"indexed": true,
							"internalType": "uint256",
							"name": "index",
							"type": "uint256"
						},
						{
							"indexed": false,
							"internalType": "uint256",
							"name": "amount",
							"type": "uint256"
						},
						{
							"indexed": false,
							"internalType": "bool",
							"name": "autoClaim",
							"type": "bool"
						}
					],
					"name": "PrizeDrawn",
					"type": "event"
				},
				{
					"anonymous": false,
					"inputs": [
						{
							"indexed": true,
							"internalType": "uint256",
							"name": "id",
							"type": "uint256"
						},
						{
							"indexed": false,
							"internalType": "uint256",
							"name": "endTime",
							"type": "uint256"
						}
					],
					"name": "RedEnvelopeClaimable",
					"type": "event"
				},
				{
					"anonymous": false,
					"inputs": [
						{
							"indexed": true,
							"internalType": "uint256",
							"name": "id",
							"type": "uint256"
						},
						{
							"indexed": false,
							"internalType": "uint256",
							"name": "endTime",
							"type": "uint256"
						},
						{
							"indexed": false,
							"internalType": "uint256",
							"name": "userTickets",
							"type": "uint256"
						},
						{
							"indexed": false,
							"internalType": "uint256",
							"name": "injectTickets",
							"type": "uint256"
						}
					],
					"name": "RedEnvelopeClosed",
					"type": "event"
				},
				{
					"anonymous": false,
					"inputs": [
						{
							"indexed": true,
							"internalType": "uint256",
							"name": "id",
							"type": "uint256"
						},
						{
							"indexed": false,
							"internalType": "uint256",
							"name": "startTime",
							"type": "uint256"
						},
						{
							"indexed": false,
							"internalType": "uint256",
							"name": "endTime",
							"type": "uint256"
						},
						{
							"indexed": false,
							"internalType": "uint256",
							"name": "maxTickets",
							"type": "uint256"
						},
						{
							"indexed": false,
							"internalType": "uint256",
							"name": "ticketPirce",
							"type": "uint256"
						},
						{
							"indexed": false,
							"internalType": "bool",
							"name": "autoClaim",
							"type": "bool"
						}
					],
					"name": "RedEnvelopeCreated",
					"type": "event"
				},
				{
					"anonymous": false,
					"inputs": [
						{
							"indexed": true,
							"internalType": "uint256",
							"name": "id",
							"type": "uint256"
						},
						{
							"indexed": true,
							"internalType": "address",
							"name": "sender",
							"type": "address"
						},
						{
							"indexed": false,
							"internalType": "uint256",
							"name": "ticketNumbers",
							"type": "uint256"
						}
					],
					"name": "TicketsInject",
					"type": "event"
				},
				{
					"anonymous": false,
					"inputs": [
						{
							"indexed": true,
							"internalType": "uint256",
							"name": "id",
							"type": "uint256"
						},
						{
							"indexed": true,
							"internalType": "address",
							"name": "sender",
							"type": "address"
						},
						{
							"indexed": true,
							"internalType": "address",
							"name": "receiveAddress",
							"type": "address"
						},
						{
							"indexed": false,
							"internalType": "uint256",
							"name": "ticketNumbers",
							"type": "uint256"
						}
					],
					"name": "TicketsPurchase",
					"type": "event"
				},
				{
					"inputs": [
						{
							"internalType": "uint256",
							"name": "_id",
							"type": "uint256"
						},
						{
							"internalType": "address",
							"name": "_receiveAddress",
							"type": "address"
						},
						{
							"internalType": "uint256",
							"name": "_ticketNumbers",
							"type": "uint256"
						}
					],
					"name": "buyTickets",
					"outputs": [],
					"stateMutability": "nonpayable",
					"type": "function"
				},
				{
					"inputs": [
						{
							"internalType": "uint256",
							"name": "_id",
							"type": "uint256"
						}
					],
					"name": "claimPrize",
					"outputs": [],
					"stateMutability": "nonpayable",
					"type": "function"
				},
				{
					"inputs": [
						{
							"internalType": "uint256",
							"name": "_endTime",
							"type": "uint256"
						},
						{
							"internalType": "uint256",
							"name": "_maxTickets",
							"type": "uint256"
						},
						{
							"internalType": "uint256",
							"name": "_injectTickets",
							"type": "uint256"
						},
						{
							"internalType": "uint256",
							"name": "_secret",
							"type": "uint256"
						}
					],
					"name": "createRedEnvelope",
					"outputs": [],
					"stateMutability": "nonpayable",
					"type": "function"
				},
				{
					"inputs": [],
					"name": "currentId",
					"outputs": [
						{
							"internalType": "uint256",
							"name": "",
							"type": "uint256"
						}
					],
					"stateMutability": "view",
					"type": "function"
				},
				{
					"inputs": [],
					"name": "defaultAutoClaim",
					"outputs": [
						{
							"internalType": "bool",
							"name": "",
							"type": "bool"
						}
					],
					"stateMutability": "view",
					"type": "function"
				},
				{
					"inputs": [],
					"name": "defaultTicketPirce",
					"outputs": [
						{
							"internalType": "uint256",
							"name": "",
							"type": "uint256"
						}
					],
					"stateMutability": "view",
					"type": "function"
				},
				{
					"inputs": [
						{
							"internalType": "uint256",
							"name": "_id",
							"type": "uint256"
						},
						{
							"internalType": "uint256",
							"name": "_nonce",
							"type": "uint256"
						}
					],
					"name": "drawPrize",
					"outputs": [],
					"stateMutability": "nonpayable",
					"type": "function"
				},
				{
					"inputs": [
						{
							"internalType": "uint256",
							"name": "_id",
							"type": "uint256"
						}
					],
					"name": "endRedEnvelope",
					"outputs": [],
					"stateMutability": "nonpayable",
					"type": "function"
				},
				{
					"inputs": [],
					"name": "operatorAddress",
					"outputs": [
						{
							"internalType": "address",
							"name": "",
							"type": "address"
						}
					],
					"stateMutability": "view",
					"type": "function"
				},
				{
					"inputs": [],
					"name": "owner",
					"outputs": [
						{
							"internalType": "address",
							"name": "",
							"type": "address"
						}
					],
					"stateMutability": "view",
					"type": "function"
				},
				{
					"inputs": [
						{
							"internalType": "uint256",
							"name": "_id",
							"type": "uint256"
						}
					],
					"name": "redEnvelopeStatus",
					"outputs": [
						{
							"internalType": "enum LuckyRedEnvelope.Status",
							"name": "",
							"type": "uint8"
						}
					],
					"stateMutability": "view",
					"type": "function"
				},
				{
					"inputs": [],
					"name": "renounceOwnership",
					"outputs": [],
					"stateMutability": "nonpayable",
					"type": "function"
				},
				{
					"inputs": [
						{
							"internalType": "bool",
							"name": "_defaultAutoClaim",
							"type": "bool"
						}
					],
					"name": "setDefaultAutoClaim",
					"outputs": [],
					"stateMutability": "nonpayable",
					"type": "function"
				},
				{
					"inputs": [
						{
							"internalType": "uint256",
							"name": "_defaultTicketPirce",
							"type": "uint256"
						}
					],
					"name": "setDefaultTicketPirce",
					"outputs": [],
					"stateMutability": "nonpayable",
					"type": "function"
				},
				{
					"inputs": [
						{
							"internalType": "address",
							"name": "_operatorAddress",
							"type": "address"
						}
					],
					"name": "setOperatorAddress",
					"outputs": [],
					"stateMutability": "nonpayable",
					"type": "function"
				},
				{
					"inputs": [],
					"name": "ticketToken",
					"outputs": [
						{
							"internalType": "contract IERC20",
							"name": "",
							"type": "address"
						}
					],
					"stateMutability": "view",
					"type": "function"
				},
				{
					"inputs": [
						{
							"internalType": "address",
							"name": "newOwner",
							"type": "address"
						}
					],
					"name": "transferOwnership",
					"outputs": [],
					"stateMutability": "nonpayable",
					"type": "function"
				}
			],
			"devdoc": {
				"errors": {
					"AddressEmptyCode(address)": [
						{
							"details": "There's no code at `target` (it is not a contract)."
						}
					],
					"AddressInsufficientBalance(address)": [
						{
							"details": "The ETH balance of the account is not enough to perform the operation."
						}
					],
					"FailedInnerCall()": [
						{
							"details": "A call to an address target failed. The target may have reverted."
						}
					],
					"OwnableInvalidOwner(address)": [
						{
							"details": "The owner is not a valid owner account. (eg. `address(0)`)"
						}
					],
					"OwnableUnauthorizedAccount(address)": [
						{
							"details": "The caller account is not authorized to perform an operation."
						}
					],
					"ReentrancyGuardReentrantCall()": [
						{
							"details": "Unauthorized reentrant call."
						}
					],
					"SafeERC20FailedOperation(address)": [
						{
							"details": "An operation with an ERC20 token failed."
						}
					]
				},
				"kind": "dev",
				"methods": {
					"createRedEnvelope(uint256,uint256,uint256,uint256)": {
						"details": "Callable by operator",
						"params": {
							"_endTime": ": endTime of the RedEnvelope",
							"_maxTickets": ": max ticket of the RedEnvelope",
							"_secret": ": "
						}
					},
					"owner()": {
						"details": "Returns the address of the current owner."
					},
					"renounceOwnership()": {
						"details": "Leaves the contract without owner. It will not be possible to call `onlyOwner` functions. Can only be called by the current owner. NOTE: Renouncing ownership will leave the contract without an owner, thereby disabling any functionality that is only available to the owner."
					},
					"transferOwnership(address)": {
						"details": "Transfers ownership of the contract to a new account (`newOwner`). Can only be called by the current owner."
					}
				},
				"version": 1
			},
			"evm": {
				"assembly": "    /* \"contracts/LuckyRedEnvelope.sol\":307:11324  contract LuckyRedEnvelope is ReentrancyGuard, Ownable{... */\n  mstore(0x40, 0x80)\n    /* \"contracts/LuckyRedEnvelope.sol\":2832:3131  constructor(address _tokenAddress,uint256 _defaultTicketPirce,address _operatorAddress)Ownable(address(msg.sender)){... */\n  callvalue\n  dup1\n  iszero\n  tag_1\n  jumpi\n  0x00\n  dup1\n  revert\ntag_1:\n  pop\n  mload(0x40)\n  sub(codesize, bytecodeSize)\n  dup1\n  bytecodeSize\n  dup4\n  codecopy\n  dup2\n  dup2\n  add\n  0x40\n  mstore\n  dup2\n  add\n  swap1\n  tag_2\n  swap2\n  swap1\n  tag_3\n  jump\t// in\ntag_2:\n    /* \"contracts/LuckyRedEnvelope.sol\":2935:2945  msg.sender */\n  caller\n    /* \"@openzeppelin/contracts/utils/ReentrancyGuard.sol\":1713:1714  1 */\n  0x01\n    /* \"@openzeppelin/contracts/utils/ReentrancyGuard.sol\":1917:1924  _status */\n  0x00\n    /* \"@openzeppelin/contracts/utils/ReentrancyGuard.sol\":1917:1938  _status = NOT_ENTERED */\n  dup2\n  swap1\n  sstore\n  pop\n    /* \"@openzeppelin/contracts/access/Ownable.sol\":1297:1298  0 */\n  0x00\n    /* \"@openzeppelin/contracts/access/Ownable.sol\":1273:1299  initialOwner == address(0) */\n  0xffffffffffffffffffffffffffffffffffffffff\n  and\n    /* \"@openzeppelin/contracts/access/Ownable.sol\":1273:1285  initialOwner */\n  dup2\n    /* \"@openzeppelin/contracts/access/Ownable.sol\":1273:1299  initialOwner == address(0) */\n  0xffffffffffffffffffffffffffffffffffffffff\n  and\n  sub\n    /* \"@openzeppelin/contracts/access/Ownable.sol\":1269:1364  if (initialOwner == address(0)) {... */\n  tag_9\n  jumpi\n    /* \"@openzeppelin/contracts/access/Ownable.sol\":1350:1351  0 */\n  0x00\n    /* \"@openzeppelin/contracts/access/Ownable.sol\":1322:1353  OwnableInvalidOwner(address(0)) */\n  mload(0x40)\n  0x1e4fbdf700000000000000000000000000000000000000000000000000000000\n  dup2\n  mstore\n  0x04\n  add\n  tag_10\n  swap2\n  swap1\n  tag_11\n  jump\t// in\ntag_10:\n  mload(0x40)\n  dup1\n  swap2\n  sub\n  swap1\n  revert\n    /* \"@openzeppelin/contracts/access/Ownable.sol\":1269:1364  if (initialOwner == address(0)) {... */\ntag_9:\n    /* \"@openzeppelin/contracts/access/Ownable.sol\":1373:1405  _transferOwnership(initialOwner) */\n  tag_12\n    /* \"@openzeppelin/contracts/access/Ownable.sol\":1392:1404  initialOwner */\n  dup2\n    /* \"@openzeppelin/contracts/access/Ownable.sol\":1373:1391  _transferOwnership */\n  shl(0x20, tag_13)\n    /* \"@openzeppelin/contracts/access/Ownable.sol\":1373:1405  _transferOwnership(initialOwner) */\n  0x20\n  shr\n  jump\t// in\ntag_12:\n    /* \"@openzeppelin/contracts/access/Ownable.sol\":1225:1412  constructor(address initialOwner) {... */\n  pop\n    /* \"contracts/LuckyRedEnvelope.sol\":2979:2992  _tokenAddress */\n  dup3\n    /* \"contracts/LuckyRedEnvelope.sol\":2958:2969  ticketToken */\n  0x02\n  0x00\n    /* \"contracts/LuckyRedEnvelope.sol\":2958:2993  ticketToken = IERC20(_tokenAddress) */\n  0x0100\n  exp\n  dup2\n  sload\n  dup2\n  0xffffffffffffffffffffffffffffffffffffffff\n  mul\n  not\n  and\n  swap1\n  dup4\n  0xffffffffffffffffffffffffffffffffffffffff\n  and\n  mul\n  or\n  swap1\n  sstore\n  pop\n    /* \"contracts/LuckyRedEnvelope.sol\":3022:3038  _operatorAddress */\n  dup1\n    /* \"contracts/LuckyRedEnvelope.sol\":3004:3019  operatorAddress */\n  0x03\n  0x00\n    /* \"contracts/LuckyRedEnvelope.sol\":3004:3038  operatorAddress = _operatorAddress */\n  0x0100\n  exp\n  dup2\n  sload\n  dup2\n  0xffffffffffffffffffffffffffffffffffffffff\n  mul\n  not\n  and\n  swap1\n  dup4\n  0xffffffffffffffffffffffffffffffffffffffff\n  and\n  mul\n  or\n  swap1\n  sstore\n  pop\n    /* \"contracts/LuckyRedEnvelope.sol\":3068:3072  true */\n  0x01\n    /* \"contracts/LuckyRedEnvelope.sol\":3049:3065  defaultAutoClaim */\n  0x05\n  0x00\n    /* \"contracts/LuckyRedEnvelope.sol\":3049:3072  defaultAutoClaim = true */\n  0x0100\n  exp\n  dup2\n  sload\n  dup2\n  0xff\n  mul\n  not\n  and\n  swap1\n  dup4\n  iszero\n  iszero\n  mul\n  or\n  swap1\n  sstore\n  pop\n    /* \"contracts/LuckyRedEnvelope.sol\":3104:3123  _defaultTicketPirce */\n  dup2\n    /* \"contracts/LuckyRedEnvelope.sol\":3083:3101  defaultTicketPirce */\n  0x06\n    /* \"contracts/LuckyRedEnvelope.sol\":3083:3123  defaultTicketPirce = _defaultTicketPirce */\n  dup2\n  swap1\n  sstore\n  pop\n    /* \"contracts/LuckyRedEnvelope.sol\":2832:3131  constructor(address _tokenAddress,uint256 _defaultTicketPirce,address _operatorAddress)Ownable(address(msg.sender)){... */\n  pop\n  pop\n  pop\n    /* \"contracts/LuckyRedEnvelope.sol\":307:11324  contract LuckyRedEnvelope is ReentrancyGuard, Ownable{... */\n  jump(tag_15)\n    /* \"@openzeppelin/contracts/access/Ownable.sol\":2912:3099  function _transferOwnership(address newOwner) internal virtual {... */\ntag_13:\n    /* \"@openzeppelin/contracts/access/Ownable.sol\":2985:3001  address oldOwner */\n  0x00\n    /* \"@openzeppelin/contracts/access/Ownable.sol\":3004:3010  _owner */\n  0x01\n  0x00\n  swap1\n  sload\n  swap1\n  0x0100\n  exp\n  swap1\n  div\n  0xffffffffffffffffffffffffffffffffffffffff\n  and\n    /* \"@openzeppelin/contracts/access/Ownable.sol\":2985:3010  address oldOwner = _owner */\n  swap1\n  pop\n    /* \"@openzeppelin/contracts/access/Ownable.sol\":3029:3037  newOwner */\n  dup2\n    /* \"@openzeppelin/contracts/access/Ownable.sol\":3020:3026  _owner */\n  0x01\n  0x00\n    /* \"@openzeppelin/contracts/access/Ownable.sol\":3020:3037  _owner = newOwner */\n  0x0100\n  exp\n  dup2\n  sload\n  dup2\n  0xffffffffffffffffffffffffffffffffffffffff\n  mul\n  not\n  and\n  swap1\n  dup4\n  0xffffffffffffffffffffffffffffffffffffffff\n  and\n  mul\n  or\n  swap1\n  sstore\n  pop\n    /* \"@openzeppelin/contracts/access/Ownable.sol\":3083:3091  newOwner */\n  dup2\n    /* \"@openzeppelin/contracts/access/Ownable.sol\":3052:3092  OwnershipTransferred(oldOwner, newOwner) */\n  0xffffffffffffffffffffffffffffffffffffffff\n  and\n    /* \"@openzeppelin/contracts/access/Ownable.sol\":3073:3081  oldOwner */\n  dup2\n    /* \"@openzeppelin/contracts/access/Ownable.sol\":3052:3092  OwnershipTransferred(oldOwner, newOwner) */\n  0xffffffffffffffffffffffffffffffffffffffff\n  and\n  0x8be0079c531659141344cd1fd0a4f28419497f9722a3daafe3b4186f6b6457e0\n  mload(0x40)\n  mload(0x40)\n  dup1\n  swap2\n  sub\n  swap1\n  log3\n    /* \"@openzeppelin/contracts/access/Ownable.sol\":2975:3099  {... */\n  pop\n    /* \"@openzeppelin/contracts/access/Ownable.sol\":2912:3099  function _transferOwnership(address newOwner) internal virtual {... */\n  pop\n  jump\t// out\n    /* \"#utility.yul\":88:205   */\ntag_18:\n    /* \"#utility.yul\":197:198   */\n  0x00\n    /* \"#utility.yul\":194:195   */\n  dup1\n    /* \"#utility.yul\":187:199   */\n  revert\n    /* \"#utility.yul\":334:460   */\ntag_20:\n    /* \"#utility.yul\":371:378   */\n  0x00\n    /* \"#utility.yul\":411:453   */\n  0xffffffffffffffffffffffffffffffffffffffff\n    /* \"#utility.yul\":404:409   */\n  dup3\n    /* \"#utility.yul\":400:454   */\n  and\n    /* \"#utility.yul\":389:454   */\n  swap1\n  pop\n    /* \"#utility.yul\":334:460   */\n  swap2\n  swap1\n  pop\n  jump\t// out\n    /* \"#utility.yul\":466:562   */\ntag_21:\n    /* \"#utility.yul\":503:510   */\n  0x00\n    /* \"#utility.yul\":532:556   */\n  tag_34\n    /* \"#utility.yul\":550:555   */\n  dup3\n    /* \"#utility.yul\":532:556   */\n  tag_20\n  jump\t// in\ntag_34:\n    /* \"#utility.yul\":521:556   */\n  swap1\n  pop\n    /* \"#utility.yul\":466:562   */\n  swap2\n  swap1\n  pop\n  jump\t// out\n    /* \"#utility.yul\":568:690   */\ntag_22:\n    /* \"#utility.yul\":641:665   */\n  tag_36\n    /* \"#utility.yul\":659:664   */\n  dup2\n    /* \"#utility.yul\":641:665   */\n  tag_21\n  jump\t// in\ntag_36:\n    /* \"#utility.yul\":634:639   */\n  dup2\n    /* \"#utility.yul\":631:666   */\n  eq\n    /* \"#utility.yul\":621:684   */\n  tag_37\n  jumpi\n    /* \"#utility.yul\":680:681   */\n  0x00\n    /* \"#utility.yul\":677:678   */\n  dup1\n    /* \"#utility.yul\":670:682   */\n  revert\n    /* \"#utility.yul\":621:684   */\ntag_37:\n    /* \"#utility.yul\":568:690   */\n  pop\n  jump\t// out\n    /* \"#utility.yul\":696:839   */\ntag_23:\n    /* \"#utility.yul\":753:758   */\n  0x00\n    /* \"#utility.yul\":784:790   */\n  dup2\n    /* \"#utility.yul\":778:791   */\n  mload\n    /* \"#utility.yul\":769:791   */\n  swap1\n  pop\n    /* \"#utility.yul\":800:833   */\n  tag_39\n    /* \"#utility.yul\":827:832   */\n  dup2\n    /* \"#utility.yul\":800:833   */\n  tag_22\n  jump\t// in\ntag_39:\n    /* \"#utility.yul\":696:839   */\n  swap3\n  swap2\n  pop\n  pop\n  jump\t// out\n    /* \"#utility.yul\":845:922   */\ntag_24:\n    /* \"#utility.yul\":882:889   */\n  0x00\n    /* \"#utility.yul\":911:916   */\n  dup2\n    /* \"#utility.yul\":900:916   */\n  swap1\n  pop\n    /* \"#utility.yul\":845:922   */\n  swap2\n  swap1\n  pop\n  jump\t// out\n    /* \"#utility.yul\":928:1050   */\ntag_25:\n    /* \"#utility.yul\":1001:1025   */\n  tag_42\n    /* \"#utility.yul\":1019:1024   */\n  dup2\n    /* \"#utility.yul\":1001:1025   */\n  tag_24\n  jump\t// in\ntag_42:\n    /* \"#utility.yul\":994:999   */\n  dup2\n    /* \"#utility.yul\":991:1026   */\n  eq\n    /* \"#utility.yul\":981:1044   */\n  tag_43\n  jumpi\n    /* \"#utility.yul\":1040:1041   */\n  0x00\n    /* \"#utility.yul\":1037:1038   */\n  dup1\n    /* \"#utility.yul\":1030:1042   */\n  revert\n    /* \"#utility.yul\":981:1044   */\ntag_43:\n    /* \"#utility.yul\":928:1050   */\n  pop\n  jump\t// out\n    /* \"#utility.yul\":1056:1199   */\ntag_26:\n    /* \"#utility.yul\":1113:1118   */\n  0x00\n    /* \"#utility.yul\":1144:1150   */\n  dup2\n    /* \"#utility.yul\":1138:1151   */\n  mload\n    /* \"#utility.yul\":1129:1151   */\n  swap1\n  pop\n    /* \"#utility.yul\":1160:1193   */\n  tag_45\n    /* \"#utility.yul\":1187:1192   */\n  dup2\n    /* \"#utility.yul\":1160:1193   */\n  tag_25\n  jump\t// in\ntag_45:\n    /* \"#utility.yul\":1056:1199   */\n  swap3\n  swap2\n  pop\n  pop\n  jump\t// out\n    /* \"#utility.yul\":1205:1868   */\ntag_3:\n    /* \"#utility.yul\":1293:1299   */\n  0x00\n    /* \"#utility.yul\":1301:1307   */\n  dup1\n    /* \"#utility.yul\":1309:1315   */\n  0x00\n    /* \"#utility.yul\":1358:1360   */\n  0x60\n    /* \"#utility.yul\":1346:1355   */\n  dup5\n    /* \"#utility.yul\":1337:1344   */\n  dup7\n    /* \"#utility.yul\":1333:1356   */\n  sub\n    /* \"#utility.yul\":1329:1361   */\n  slt\n    /* \"#utility.yul\":1326:1445   */\n  iszero\n  tag_47\n  jumpi\n    /* \"#utility.yul\":1364:1443   */\n  tag_48\n  tag_18\n  jump\t// in\ntag_48:\n    /* \"#utility.yul\":1326:1445   */\ntag_47:\n    /* \"#utility.yul\":1484:1485   */\n  0x00\n    /* \"#utility.yul\":1509:1573   */\n  tag_49\n    /* \"#utility.yul\":1565:1572   */\n  dup7\n    /* \"#utility.yul\":1556:1562   */\n  dup3\n    /* \"#utility.yul\":1545:1554   */\n  dup8\n    /* \"#utility.yul\":1541:1563   */\n  add\n    /* \"#utility.yul\":1509:1573   */\n  tag_23\n  jump\t// in\ntag_49:\n    /* \"#utility.yul\":1499:1573   */\n  swap4\n  pop\n    /* \"#utility.yul\":1455:1583   */\n  pop\n    /* \"#utility.yul\":1622:1624   */\n  0x20\n    /* \"#utility.yul\":1648:1712   */\n  tag_50\n    /* \"#utility.yul\":1704:1711   */\n  dup7\n    /* \"#utility.yul\":1695:1701   */\n  dup3\n    /* \"#utility.yul\":1684:1693   */\n  dup8\n    /* \"#utility.yul\":1680:1702   */\n  add\n    /* \"#utility.yul\":1648:1712   */\n  tag_26\n  jump\t// in\ntag_50:\n    /* \"#utility.yul\":1638:1712   */\n  swap3\n  pop\n    /* \"#utility.yul\":1593:1722   */\n  pop\n    /* \"#utility.yul\":1761:1763   */\n  0x40\n    /* \"#utility.yul\":1787:1851   */\n  tag_51\n    /* \"#utility.yul\":1843:1850   */\n  dup7\n    /* \"#utility.yul\":1834:1840   */\n  dup3\n    /* \"#utility.yul\":1823:1832   */\n  dup8\n    /* \"#utility.yul\":1819:1841   */\n  add\n    /* \"#utility.yul\":1787:1851   */\n  tag_23\n  jump\t// in\ntag_51:\n    /* \"#utility.yul\":1777:1851   */\n  swap2\n  pop\n    /* \"#utility.yul\":1732:1861   */\n  pop\n    /* \"#utility.yul\":1205:1868   */\n  swap3\n  pop\n  swap3\n  pop\n  swap3\n  jump\t// out\n    /* \"#utility.yul\":1874:1992   */\ntag_27:\n    /* \"#utility.yul\":1961:1985   */\n  tag_53\n    /* \"#utility.yul\":1979:1984   */\n  dup2\n    /* \"#utility.yul\":1961:1985   */\n  tag_21\n  jump\t// in\ntag_53:\n    /* \"#utility.yul\":1956:1959   */\n  dup3\n    /* \"#utility.yul\":1949:1986   */\n  mstore\n    /* \"#utility.yul\":1874:1992   */\n  pop\n  pop\n  jump\t// out\n    /* \"#utility.yul\":1998:2220   */\ntag_11:\n    /* \"#utility.yul\":2091:2095   */\n  0x00\n    /* \"#utility.yul\":2129:2131   */\n  0x20\n    /* \"#utility.yul\":2118:2127   */\n  dup3\n    /* \"#utility.yul\":2114:2132   */\n  add\n    /* \"#utility.yul\":2106:2132   */\n  swap1\n  pop\n    /* \"#utility.yul\":2142:2213   */\n  tag_55\n    /* \"#utility.yul\":2210:2211   */\n  0x00\n    /* \"#utility.yul\":2199:2208   */\n  dup4\n    /* \"#utility.yul\":2195:2212   */\n  add\n    /* \"#utility.yul\":2186:2192   */\n  dup5\n    /* \"#utility.yul\":2142:2213   */\n  tag_27\n  jump\t// in\ntag_55:\n    /* \"#utility.yul\":1998:2220   */\n  swap3\n  swap2\n  pop\n  pop\n  jump\t// out\n    /* \"contracts/LuckyRedEnvelope.sol\":307:11324  contract LuckyRedEnvelope is ReentrancyGuard, Ownable{... */\ntag_15:\n  dataSize(sub_0)\n  dup1\n  dataOffset(sub_0)\n  0x00\n  codecopy\n  0x00\n  return\nstop\n\nsub_0: assembly {\n        /* \"contracts/LuckyRedEnvelope.sol\":307:11324  contract LuckyRedEnvelope is ReentrancyGuard, Ownable{... */\n      mstore(0x40, 0x80)\n      callvalue\n      dup1\n      iszero\n      tag_1\n      jumpi\n      0x00\n      dup1\n      revert\n    tag_1:\n      pop\n      jumpi(tag_2, lt(calldatasize, 0x04))\n      shr(0xe0, calldataload(0x00))\n      dup1\n      0x8da5cb5b\n      gt\n      tag_20\n      jumpi\n      dup1\n      0xd5ed4d5a\n      gt\n      tag_21\n      jumpi\n      dup1\n      0xd5ed4d5a\n      eq\n      tag_15\n      jumpi\n      dup1\n      0xd7098154\n      eq\n      tag_16\n      jumpi\n      dup1\n      0xe00dd161\n      eq\n      tag_17\n      jumpi\n      dup1\n      0xf2fde38b\n      eq\n      tag_18\n      jumpi\n      dup1\n      0xf41188ed\n      eq\n      tag_19\n      jumpi\n      jump(tag_2)\n    tag_21:\n      dup1\n      0x8da5cb5b\n      eq\n      tag_11\n      jumpi\n      dup1\n      0xa210d5e0\n      eq\n      tag_12\n      jumpi\n      dup1\n      0xbce3468d\n      eq\n      tag_13\n      jumpi\n      dup1\n      0xc5e7bb33\n      eq\n      tag_14\n      jumpi\n      jump(tag_2)\n    tag_20:\n      dup1\n      0x4bfec3aa\n      gt\n      tag_22\n      jumpi\n      dup1\n      0x4bfec3aa\n      eq\n      tag_7\n      jumpi\n      dup1\n      0x4f2fccb0\n      eq\n      tag_8\n      jumpi\n      dup1\n      0x5bacbab9\n      eq\n      tag_9\n      jumpi\n      dup1\n      0x715018a6\n      eq\n      tag_10\n      jumpi\n      jump(tag_2)\n    tag_22:\n      dup1\n      0x0e9e1262\n      eq\n      tag_3\n      jumpi\n      dup1\n      0x127effb2\n      eq\n      tag_4\n      jumpi\n      dup1\n      0x2f1d5a60\n      eq\n      tag_5\n      jumpi\n      dup1\n      0x3834efe1\n      eq\n      tag_6\n      jumpi\n    tag_2:\n      0x00\n      dup1\n      revert\n        /* \"contracts/LuckyRedEnvelope.sol\":4062:5292  function createRedEnvelope(... */\n    tag_3:\n      tag_23\n      0x04\n      dup1\n      calldatasize\n      sub\n      dup2\n      add\n      swap1\n      tag_24\n      swap2\n      swap1\n      tag_25\n      jump\t// in\n    tag_24:\n      tag_26\n      jump\t// in\n    tag_23:\n      stop\n        /* \"contracts/LuckyRedEnvelope.sol\":432:462  address public operatorAddress */\n    tag_4:\n      tag_27\n      tag_28\n      jump\t// in\n    tag_27:\n      mload(0x40)\n      tag_29\n      swap2\n      swap1\n      tag_30\n      jump\t// in\n    tag_29:\n      mload(0x40)\n      dup1\n      swap2\n      sub\n      swap1\n      return\n        /* \"contracts/LuckyRedEnvelope.sol\":3139:3409  function setOperatorAddress(... */\n    tag_5:\n      tag_31\n      0x04\n      dup1\n      calldatasize\n      sub\n      dup2\n      add\n      swap1\n      tag_32\n      swap2\n      swap1\n      tag_33\n      jump\t// in\n    tag_32:\n      tag_34\n      jump\t// in\n    tag_31:\n      stop\n        /* \"contracts/LuckyRedEnvelope.sol\":7027:7535  function endRedEnvelope(... */\n    tag_6:\n      tag_35\n      0x04\n      dup1\n      calldatasize\n      sub\n      dup2\n      add\n      swap1\n      tag_36\n      swap2\n      swap1\n      tag_37\n      jump\t// in\n    tag_36:\n      tag_38\n      jump\t// in\n    tag_35:\n      stop\n        /* \"contracts/LuckyRedEnvelope.sol\":539:572  uint256 public defaultTicketPirce */\n    tag_7:\n      tag_39\n      tag_40\n      jump\t// in\n    tag_39:\n      mload(0x40)\n      tag_41\n      swap2\n      swap1\n      tag_42\n      jump\t// in\n    tag_41:\n      mload(0x40)\n      dup1\n      swap2\n      sub\n      swap1\n      return\n        /* \"contracts/LuckyRedEnvelope.sol\":11201:11321  function redEnvelopeStatus(uint256 _id) public view  returns (Status){... */\n    tag_8:\n      tag_43\n      0x04\n      dup1\n      calldatasize\n      sub\n      dup2\n      add\n      swap1\n      tag_44\n      swap2\n      swap1\n      tag_37\n      jump\t// in\n    tag_44:\n      tag_45\n      jump\t// in\n    tag_43:\n      mload(0x40)\n      tag_46\n      swap2\n      swap1\n      tag_47\n      jump\t// in\n    tag_46:\n      mload(0x40)\n      dup1\n      swap2\n      sub\n      swap1\n      return\n        /* \"contracts/LuckyRedEnvelope.sol\":3417:3623  function setDefaultTicketPirce(uint256 _defaultTicketPirce) external onlyOperator{... */\n    tag_9:\n      tag_48\n      0x04\n      dup1\n      calldatasize\n      sub\n      dup2\n      add\n      swap1\n      tag_49\n      swap2\n      swap1\n      tag_37\n      jump\t// in\n    tag_49:\n      tag_50\n      jump\t// in\n    tag_48:\n      stop\n        /* \"@openzeppelin/contracts/access/Ownable.sol\":2293:2394  function renounceOwnership() public virtual onlyOwner {... */\n    tag_10:\n      tag_51\n      tag_52\n      jump\t// in\n    tag_51:\n      stop\n        /* \"@openzeppelin/contracts/access/Ownable.sol\":1638:1723  function owner() public view virtual returns (address) {... */\n    tag_11:\n      tag_53\n      tag_54\n      jump\t// in\n    tag_53:\n      mload(0x40)\n      tag_55\n      swap2\n      swap1\n      tag_30\n      jump\t// in\n    tag_55:\n      mload(0x40)\n      dup1\n      swap2\n      sub\n      swap1\n      return\n        /* \"contracts/LuckyRedEnvelope.sol\":504:532  bool public defaultAutoClaim */\n    tag_12:\n      tag_56\n      tag_57\n      jump\t// in\n    tag_56:\n      mload(0x40)\n      tag_58\n      swap2\n      swap1\n      tag_59\n      jump\t// in\n    tag_58:\n      mload(0x40)\n      dup1\n      swap2\n      sub\n      swap1\n      return\n        /* \"contracts/LuckyRedEnvelope.sol\":7543:8670  function drawPrize(... */\n    tag_13:\n      tag_60\n      0x04\n      dup1\n      calldatasize\n      sub\n      dup2\n      add\n      swap1\n      tag_61\n      swap2\n      swap1\n      tag_62\n      jump\t// in\n    tag_61:\n      tag_63\n      jump\t// in\n    tag_60:\n      stop\n        /* \"contracts/LuckyRedEnvelope.sol\":5300:7017  function buyTickets(... */\n    tag_14:\n      tag_64\n      0x04\n      dup1\n      calldatasize\n      sub\n      dup2\n      add\n      swap1\n      tag_65\n      swap2\n      swap1\n      tag_66\n      jump\t// in\n    tag_65:\n      tag_67\n      jump\t// in\n    tag_64:\n      stop\n        /* \"contracts/LuckyRedEnvelope.sol\":400:425  IERC20 public ticketToken */\n    tag_15:\n      tag_68\n      tag_69\n      jump\t// in\n    tag_68:\n      mload(0x40)\n      tag_70\n      swap2\n      swap1\n      tag_71\n      jump\t// in\n    tag_70:\n      mload(0x40)\n      dup1\n      swap2\n      sub\n      swap1\n      return\n        /* \"contracts/LuckyRedEnvelope.sol\":10436:10721  function claimPrize(uint256 _id)external nonReentrant{... */\n    tag_16:\n      tag_72\n      0x04\n      dup1\n      calldatasize\n      sub\n      dup2\n      add\n      swap1\n      tag_73\n      swap2\n      swap1\n      tag_37\n      jump\t// in\n    tag_73:\n      tag_74\n      jump\t// in\n    tag_72:\n      stop\n        /* \"contracts/LuckyRedEnvelope.sol\":471:495  uint256 public currentId */\n    tag_17:\n      tag_75\n      tag_76\n      jump\t// in\n    tag_75:\n      mload(0x40)\n      tag_77\n      swap2\n      swap1\n      tag_42\n      jump\t// in\n    tag_77:\n      mload(0x40)\n      dup1\n      swap2\n      sub\n      swap1\n      return\n        /* \"@openzeppelin/contracts/access/Ownable.sol\":2543:2758  function transferOwnership(address newOwner) public virtual onlyOwner {... */\n    tag_18:\n      tag_78\n      0x04\n      dup1\n      calldatasize\n      sub\n      dup2\n      add\n      swap1\n      tag_79\n      swap2\n      swap1\n      tag_33\n      jump\t// in\n    tag_79:\n      tag_80\n      jump\t// in\n    tag_78:\n      stop\n        /* \"contracts/LuckyRedEnvelope.sol\":3631:3826  function setDefaultAutoClaim(bool _defaultAutoClaim) external onlyOperator{... */\n    tag_19:\n      tag_81\n      0x04\n      dup1\n      calldatasize\n      sub\n      dup2\n      add\n      swap1\n      tag_82\n      swap2\n      swap1\n      tag_83\n      jump\t// in\n    tag_82:\n      tag_84\n      jump\t// in\n    tag_81:\n      stop\n        /* \"contracts/LuckyRedEnvelope.sol\":4062:5292  function createRedEnvelope(... */\n    tag_26:\n        /* \"contracts/LuckyRedEnvelope.sol\":1550:1565  operatorAddress */\n      0x03\n      0x00\n      swap1\n      sload\n      swap1\n      0x0100\n      exp\n      swap1\n      div\n      0xffffffffffffffffffffffffffffffffffffffff\n      and\n        /* \"contracts/LuckyRedEnvelope.sol\":1536:1565  msg.sender == operatorAddress */\n      0xffffffffffffffffffffffffffffffffffffffff\n      and\n        /* \"contracts/LuckyRedEnvelope.sol\":1536:1546  msg.sender */\n      caller\n        /* \"contracts/LuckyRedEnvelope.sol\":1536:1565  msg.sender == operatorAddress */\n      0xffffffffffffffffffffffffffffffffffffffff\n      and\n      eq\n        /* \"contracts/LuckyRedEnvelope.sol\":1528:1582  require(msg.sender == operatorAddress, \"Not operator\") */\n      tag_86\n      jumpi\n      mload(0x40)\n      0x08c379a000000000000000000000000000000000000000000000000000000000\n      dup2\n      mstore\n      0x04\n      add\n      tag_87\n      swap1\n      tag_88\n      jump\t// in\n    tag_87:\n      mload(0x40)\n      dup1\n      swap2\n      sub\n      swap1\n      revert\n    tag_86:\n        /* \"@openzeppelin/contracts/utils/ReentrancyGuard.sol\":2356:2377  _nonReentrantBefore() */\n      tag_90\n        /* \"@openzeppelin/contracts/utils/ReentrancyGuard.sol\":2356:2375  _nonReentrantBefore */\n      tag_91\n        /* \"@openzeppelin/contracts/utils/ReentrancyGuard.sol\":2356:2377  _nonReentrantBefore() */\n      jump\t// in\n    tag_90:\n        /* \"contracts/LuckyRedEnvelope.sol\":4280:4289  currentId */\n      0x04\n      0x00\n        /* \"contracts/LuckyRedEnvelope.sol\":4280:4291  currentId++ */\n      dup2\n      sload\n      dup1\n      swap3\n      swap2\n      swap1\n      tag_93\n      swap1\n      tag_94\n      jump\t// in\n    tag_93:\n      swap2\n      swap1\n      pop\n      sstore\n      pop\n        /* \"contracts/LuckyRedEnvelope.sol\":4329:4669  RedEnvelope({... */\n      mload(0x40)\n      dup1\n      0x0120\n      add\n      0x40\n      mstore\n      dup1\n        /* \"contracts/LuckyRedEnvelope.sol\":4364:4375  Status.Open */\n      0x01\n        /* \"contracts/LuckyRedEnvelope.sol\":4329:4669  RedEnvelope({... */\n      0x03\n      dup2\n      gt\n      iszero\n      tag_95\n      jumpi\n      tag_96\n      tag_97\n      jump\t// in\n    tag_96:\n    tag_95:\n      dup2\n      mstore\n      0x20\n      add\n        /* \"contracts/LuckyRedEnvelope.sol\":4401:4416  block.timestamp */\n      timestamp\n        /* \"contracts/LuckyRedEnvelope.sol\":4329:4669  RedEnvelope({... */\n      dup2\n      mstore\n      0x20\n      add\n        /* \"contracts/LuckyRedEnvelope.sol\":4440:4448  _endTime */\n      dup6\n        /* \"contracts/LuckyRedEnvelope.sol\":4329:4669  RedEnvelope({... */\n      dup2\n      mstore\n      0x20\n      add\n        /* \"contracts/LuckyRedEnvelope.sol\":4474:4485  _maxTickets */\n      dup5\n        /* \"contracts/LuckyRedEnvelope.sol\":4329:4669  RedEnvelope({... */\n      dup2\n      mstore\n      0x20\n      add\n        /* \"contracts/LuckyRedEnvelope.sol\":4512:4513  0 */\n      0x00\n        /* \"contracts/LuckyRedEnvelope.sol\":4329:4669  RedEnvelope({... */\n      dup2\n      mstore\n      0x20\n      add\n        /* \"contracts/LuckyRedEnvelope.sol\":4542:4543  0 */\n      0x00\n        /* \"contracts/LuckyRedEnvelope.sol\":4329:4669  RedEnvelope({... */\n      dup2\n      mstore\n      0x20\n      add\n        /* \"contracts/LuckyRedEnvelope.sol\":4570:4571  0 */\n      0x00\n        /* \"contracts/LuckyRedEnvelope.sol\":4329:4669  RedEnvelope({... */\n      dup2\n      mstore\n      0x20\n      add\n        /* \"contracts/LuckyRedEnvelope.sol\":4598:4616  defaultTicketPirce */\n      sload(0x06)\n        /* \"contracts/LuckyRedEnvelope.sol\":4329:4669  RedEnvelope({... */\n      dup2\n      mstore\n      0x20\n      add\n        /* \"contracts/LuckyRedEnvelope.sol\":4641:4657  defaultAutoClaim */\n      0x05\n      0x00\n      swap1\n      sload\n      swap1\n      0x0100\n      exp\n      swap1\n      div\n      0xff\n      and\n        /* \"contracts/LuckyRedEnvelope.sol\":4329:4669  RedEnvelope({... */\n      iszero\n      iszero\n      dup2\n      mstore\n      pop\n        /* \"contracts/LuckyRedEnvelope.sol\":4302:4315  _redEnvelopes */\n      0x07\n        /* \"contracts/LuckyRedEnvelope.sol\":4302:4326  _redEnvelopes[currentId] */\n      0x00\n        /* \"contracts/LuckyRedEnvelope.sol\":4316:4325  currentId */\n      sload(0x04)\n        /* \"contracts/LuckyRedEnvelope.sol\":4302:4326  _redEnvelopes[currentId] */\n      dup2\n      mstore\n      0x20\n      add\n      swap1\n      dup2\n      mstore\n      0x20\n      add\n      0x00\n      keccak256\n        /* \"contracts/LuckyRedEnvelope.sol\":4302:4669  _redEnvelopes[currentId] = RedEnvelope({... */\n      0x00\n      dup3\n      add\n      mload\n      dup2\n      0x00\n      add\n      exp(0x0100, 0x00)\n      dup2\n      sload\n      dup2\n      0xff\n      mul\n      not\n      and\n      swap1\n      dup4\n      0x03\n      dup2\n      gt\n      iszero\n      tag_98\n      jumpi\n      tag_99\n      tag_97\n      jump\t// in\n    tag_99:\n    tag_98:\n      mul\n      or\n      swap1\n      sstore\n      pop\n      0x20\n      dup3\n      add\n      mload\n      dup2\n      0x01\n      add\n      sstore\n      0x40\n      dup3\n      add\n      mload\n      dup2\n      0x02\n      add\n      sstore\n      0x60\n      dup3\n      add\n      mload\n      dup2\n      0x03\n      add\n      sstore\n      0x80\n      dup3\n      add\n      mload\n      dup2\n      0x04\n      add\n      sstore\n      0xa0\n      dup3\n      add\n      mload\n      dup2\n      0x05\n      add\n      sstore\n      0xc0\n      dup3\n      add\n      mload\n      dup2\n      0x06\n      add\n      sstore\n      0xe0\n      dup3\n      add\n      mload\n      dup2\n      0x07\n      add\n      sstore\n      0x0100\n      dup3\n      add\n      mload\n      dup2\n      0x08\n      add\n      exp(0x0100, 0x00)\n      dup2\n      sload\n      dup2\n      0xff\n      mul\n      not\n      and\n      swap1\n      dup4\n      iszero\n      iszero\n      mul\n      or\n      swap1\n      sstore\n      pop\n      swap1\n      pop\n      pop\n        /* \"contracts/LuckyRedEnvelope.sol\":4704:4713  currentId */\n      sload(0x04)\n        /* \"contracts/LuckyRedEnvelope.sol\":4685:4787  RedEnvelopeCreated(currentId,block.timestamp,_endTime,_maxTickets,defaultTicketPirce,defaultAutoClaim) */\n      0xc048fb84fda80e25f0fefc7a7d2ecc12b63298aa81ba993895368d62553478ed\n        /* \"contracts/LuckyRedEnvelope.sol\":4714:4729  block.timestamp */\n      timestamp\n        /* \"contracts/LuckyRedEnvelope.sol\":4730:4738  _endTime */\n      dup7\n        /* \"contracts/LuckyRedEnvelope.sol\":4739:4750  _maxTickets */\n      dup7\n        /* \"contracts/LuckyRedEnvelope.sol\":4751:4769  defaultTicketPirce */\n      sload(0x06)\n        /* \"contracts/LuckyRedEnvelope.sol\":4770:4786  defaultAutoClaim */\n      0x05\n      0x00\n      swap1\n      sload\n      swap1\n      0x0100\n      exp\n      swap1\n      div\n      0xff\n      and\n        /* \"contracts/LuckyRedEnvelope.sol\":4685:4787  RedEnvelopeCreated(currentId,block.timestamp,_endTime,_maxTickets,defaultTicketPirce,defaultAutoClaim) */\n      mload(0x40)\n      tag_100\n      swap6\n      swap5\n      swap4\n      swap3\n      swap2\n      swap1\n      tag_101\n      jump\t// in\n    tag_100:\n      mload(0x40)\n      dup1\n      swap2\n      sub\n      swap1\n      log2\n        /* \"contracts/LuckyRedEnvelope.sol\":4821:4822  0 */\n      0x00\n        /* \"contracts/LuckyRedEnvelope.sol\":4804:4818  _injectTickets */\n      dup3\n        /* \"contracts/LuckyRedEnvelope.sol\":4804:4822  _injectTickets > 0 */\n      gt\n        /* \"contracts/LuckyRedEnvelope.sol\":4800:5283  if (_injectTickets > 0){... */\n      iszero\n      tag_102\n      jumpi\n        /* \"contracts/LuckyRedEnvelope.sol\":4897:4926  uint256 amountTokenToTransfer */\n      0x00\n        /* \"contracts/LuckyRedEnvelope.sol\":4950:4964  _injectTickets */\n      dup3\n        /* \"contracts/LuckyRedEnvelope.sol\":4929:4947  defaultTicketPirce */\n      sload(0x06)\n        /* \"contracts/LuckyRedEnvelope.sol\":4929:4964  defaultTicketPirce * _injectTickets */\n      tag_103\n      swap2\n      swap1\n      tag_104\n      jump\t// in\n    tag_103:\n        /* \"contracts/LuckyRedEnvelope.sol\":4897:4964  uint256 amountTokenToTransfer = defaultTicketPirce * _injectTickets */\n      swap1\n      pop\n        /* \"contracts/LuckyRedEnvelope.sol\":5035:5122  ticketToken.safeTransferFrom(address(msg.sender), address(this), amountTokenToTransfer) */\n      tag_105\n        /* \"contracts/LuckyRedEnvelope.sol\":5072:5082  msg.sender */\n      caller\n        /* \"contracts/LuckyRedEnvelope.sol\":5093:5097  this */\n      address\n        /* \"contracts/LuckyRedEnvelope.sol\":5100:5121  amountTokenToTransfer */\n      dup4\n        /* \"contracts/LuckyRedEnvelope.sol\":5035:5046  ticketToken */\n      0x02\n      0x00\n      swap1\n      sload\n      swap1\n      0x0100\n      exp\n      swap1\n      div\n      0xffffffffffffffffffffffffffffffffffffffff\n      and\n        /* \"contracts/LuckyRedEnvelope.sol\":5035:5063  ticketToken.safeTransferFrom */\n      0xffffffffffffffffffffffffffffffffffffffff\n      and\n      tag_106\n      swap1\n        /* \"contracts/LuckyRedEnvelope.sol\":5035:5122  ticketToken.safeTransferFrom(address(msg.sender), address(this), amountTokenToTransfer) */\n      swap4\n      swap3\n      swap2\n      swap1\n      0xffffffff\n      and\n      jump\t// in\n    tag_105:\n        /* \"contracts/LuckyRedEnvelope.sol\":5179:5193  _injectTickets */\n      dup3\n        /* \"contracts/LuckyRedEnvelope.sol\":5137:5150  _redEnvelopes */\n      0x07\n        /* \"contracts/LuckyRedEnvelope.sol\":5137:5161  _redEnvelopes[currentId] */\n      0x00\n        /* \"contracts/LuckyRedEnvelope.sol\":5151:5160  currentId */\n      sload(0x04)\n        /* \"contracts/LuckyRedEnvelope.sol\":5137:5161  _redEnvelopes[currentId] */\n      dup2\n      mstore\n      0x20\n      add\n      swap1\n      dup2\n      mstore\n      0x20\n      add\n      0x00\n      keccak256\n        /* \"contracts/LuckyRedEnvelope.sol\":5137:5175  _redEnvelopes[currentId].injectTickets */\n      0x05\n      add\n      0x00\n        /* \"contracts/LuckyRedEnvelope.sol\":5137:5193  _redEnvelopes[currentId].injectTickets += _injectTickets */\n      dup3\n      dup3\n      sload\n      tag_107\n      swap2\n      swap1\n      tag_108\n      jump\t// in\n    tag_107:\n      swap3\n      pop\n      pop\n      dup2\n      swap1\n      sstore\n      pop\n        /* \"contracts/LuckyRedEnvelope.sol\":5245:5255  msg.sender */\n      caller\n        /* \"contracts/LuckyRedEnvelope.sol\":5213:5272  TicketsInject(currentId,address(msg.sender),_injectTickets) */\n      0xffffffffffffffffffffffffffffffffffffffff\n      and\n        /* \"contracts/LuckyRedEnvelope.sol\":5227:5236  currentId */\n      sload(0x04)\n        /* \"contracts/LuckyRedEnvelope.sol\":5213:5272  TicketsInject(currentId,address(msg.sender),_injectTickets) */\n      0xa95519638524dcea0d5d0102c719d77dc3d8b1ae68d2d1e37c79be21bc7b113b\n        /* \"contracts/LuckyRedEnvelope.sol\":5257:5271  _injectTickets */\n      dup6\n        /* \"contracts/LuckyRedEnvelope.sol\":5213:5272  TicketsInject(currentId,address(msg.sender),_injectTickets) */\n      mload(0x40)\n      tag_109\n      swap2\n      swap1\n      tag_42\n      jump\t// in\n    tag_109:\n      mload(0x40)\n      dup1\n      swap2\n      sub\n      swap1\n      log3\n        /* \"contracts/LuckyRedEnvelope.sol\":4823:5283  {... */\n      pop\n        /* \"contracts/LuckyRedEnvelope.sol\":4800:5283  if (_injectTickets > 0){... */\n    tag_102:\n        /* \"@openzeppelin/contracts/utils/ReentrancyGuard.sol\":2398:2418  _nonReentrantAfter() */\n      tag_110\n        /* \"@openzeppelin/contracts/utils/ReentrancyGuard.sol\":2398:2416  _nonReentrantAfter */\n      tag_111\n        /* \"@openzeppelin/contracts/utils/ReentrancyGuard.sol\":2398:2418  _nonReentrantAfter() */\n      jump\t// in\n    tag_110:\n        /* \"contracts/LuckyRedEnvelope.sol\":4062:5292  function createRedEnvelope(... */\n      pop\n      pop\n      pop\n      pop\n      jump\t// out\n        /* \"contracts/LuckyRedEnvelope.sol\":432:462  address public operatorAddress */\n    tag_28:\n      0x03\n      0x00\n      swap1\n      sload\n      swap1\n      0x0100\n      exp\n      swap1\n      div\n      0xffffffffffffffffffffffffffffffffffffffff\n      and\n      dup2\n      jump\t// out\n        /* \"contracts/LuckyRedEnvelope.sol\":3139:3409  function setOperatorAddress(... */\n    tag_34:\n        /* \"@openzeppelin/contracts/access/Ownable.sol\":1531:1544  _checkOwner() */\n      tag_113\n        /* \"@openzeppelin/contracts/access/Ownable.sol\":1531:1542  _checkOwner */\n      tag_114\n        /* \"@openzeppelin/contracts/access/Ownable.sol\":1531:1544  _checkOwner() */\n      jump\t// in\n    tag_113:\n        /* \"contracts/LuckyRedEnvelope.sol\":3273:3274  0 */\n      0x00\n        /* \"contracts/LuckyRedEnvelope.sol\":3245:3275  _operatorAddress != address(0) */\n      0xffffffffffffffffffffffffffffffffffffffff\n      and\n        /* \"contracts/LuckyRedEnvelope.sol\":3245:3261  _operatorAddress */\n      dup2\n        /* \"contracts/LuckyRedEnvelope.sol\":3245:3275  _operatorAddress != address(0) */\n      0xffffffffffffffffffffffffffffffffffffffff\n      and\n      sub\n        /* \"contracts/LuckyRedEnvelope.sol\":3237:3302  require(_operatorAddress != address(0), \"Cannot be zero address\") */\n      tag_116\n      jumpi\n      mload(0x40)\n      0x08c379a000000000000000000000000000000000000000000000000000000000\n      dup2\n      mstore\n      0x04\n      add\n      tag_117\n      swap1\n      tag_118\n      jump\t// in\n    tag_117:\n      mload(0x40)\n      dup1\n      swap2\n      sub\n      swap1\n      revert\n    tag_116:\n        /* \"contracts/LuckyRedEnvelope.sol\":3331:3347  _operatorAddress */\n      dup1\n        /* \"contracts/LuckyRedEnvelope.sol\":3313:3328  operatorAddress */\n      0x03\n      0x00\n        /* \"contracts/LuckyRedEnvelope.sol\":3313:3347  operatorAddress = _operatorAddress */\n      0x0100\n      exp\n      dup2\n      sload\n      dup2\n      0xffffffffffffffffffffffffffffffffffffffff\n      mul\n      not\n      and\n      swap1\n      dup4\n      0xffffffffffffffffffffffffffffffffffffffff\n      and\n      mul\n      or\n      swap1\n      sstore\n      pop\n        /* \"contracts/LuckyRedEnvelope.sol\":3365:3401  NewOperatorAddress(_operatorAddress) */\n      0xc47d127c07bdd56c5ccba00463ce3bd3c1bca71b4670eea6e5d0c02e4aa156e2\n        /* \"contracts/LuckyRedEnvelope.sol\":3384:3400  _operatorAddress */\n      dup2\n        /* \"contracts/LuckyRedEnvelope.sol\":3365:3401  NewOperatorAddress(_operatorAddress) */\n      mload(0x40)\n      tag_119\n      swap2\n      swap1\n      tag_30\n      jump\t// in\n    tag_119:\n      mload(0x40)\n      dup1\n      swap2\n      sub\n      swap1\n      log1\n        /* \"contracts/LuckyRedEnvelope.sol\":3139:3409  function setOperatorAddress(... */\n      pop\n      jump\t// out\n        /* \"contracts/LuckyRedEnvelope.sol\":7027:7535  function endRedEnvelope(... */\n    tag_38:\n        /* \"contracts/LuckyRedEnvelope.sol\":1550:1565  operatorAddress */\n      0x03\n      0x00\n      swap1\n      sload\n      swap1\n      0x0100\n      exp\n      swap1\n      div\n      0xffffffffffffffffffffffffffffffffffffffff\n      and\n        /* \"contracts/LuckyRedEnvelope.sol\":1536:1565  msg.sender == operatorAddress */\n      0xffffffffffffffffffffffffffffffffffffffff\n      and\n        /* \"contracts/LuckyRedEnvelope.sol\":1536:1546  msg.sender */\n      caller\n        /* \"contracts/LuckyRedEnvelope.sol\":1536:1565  msg.sender == operatorAddress */\n      0xffffffffffffffffffffffffffffffffffffffff\n      and\n      eq\n        /* \"contracts/LuckyRedEnvelope.sol\":1528:1582  require(msg.sender == operatorAddress, \"Not operator\") */\n      tag_121\n      jumpi\n      mload(0x40)\n      0x08c379a000000000000000000000000000000000000000000000000000000000\n      dup2\n      mstore\n      0x04\n      add\n      tag_122\n      swap1\n      tag_88\n      jump\t// in\n    tag_122:\n      mload(0x40)\n      dup1\n      swap2\n      sub\n      swap1\n      revert\n    tag_121:\n        /* \"@openzeppelin/contracts/utils/ReentrancyGuard.sol\":2356:2377  _nonReentrantBefore() */\n      tag_124\n        /* \"@openzeppelin/contracts/utils/ReentrancyGuard.sol\":2356:2375  _nonReentrantBefore */\n      tag_91\n        /* \"@openzeppelin/contracts/utils/ReentrancyGuard.sol\":2356:2377  _nonReentrantBefore() */\n      jump\t// in\n    tag_124:\n        /* \"contracts/LuckyRedEnvelope.sol\":7161:7172  Status.Open */\n      0x01\n        /* \"contracts/LuckyRedEnvelope.sol\":7132:7172  _redEnvelopes[_id].status == Status.Open */\n      0x03\n      dup2\n      gt\n      iszero\n      tag_126\n      jumpi\n      tag_127\n      tag_97\n      jump\t// in\n    tag_127:\n    tag_126:\n        /* \"contracts/LuckyRedEnvelope.sol\":7132:7145  _redEnvelopes */\n      0x07\n        /* \"contracts/LuckyRedEnvelope.sol\":7132:7150  _redEnvelopes[_id] */\n      0x00\n        /* \"contracts/LuckyRedEnvelope.sol\":7146:7149  _id */\n      dup4\n        /* \"contracts/LuckyRedEnvelope.sol\":7132:7150  _redEnvelopes[_id] */\n      dup2\n      mstore\n      0x20\n      add\n      swap1\n      dup2\n      mstore\n      0x20\n      add\n      0x00\n      keccak256\n        /* \"contracts/LuckyRedEnvelope.sol\":7132:7157  _redEnvelopes[_id].status */\n      0x00\n      add\n      0x00\n      swap1\n      sload\n      swap1\n      0x0100\n      exp\n      swap1\n      div\n      0xff\n      and\n        /* \"contracts/LuckyRedEnvelope.sol\":7132:7172  _redEnvelopes[_id].status == Status.Open */\n      0x03\n      dup2\n      gt\n      iszero\n      tag_128\n      jumpi\n      tag_129\n      tag_97\n      jump\t// in\n    tag_129:\n    tag_128:\n      eq\n        /* \"contracts/LuckyRedEnvelope.sol\":7124:7200  require(_redEnvelopes[_id].status == Status.Open, \"RedEnvelope is not open\") */\n      tag_130\n      jumpi\n      mload(0x40)\n      0x08c379a000000000000000000000000000000000000000000000000000000000\n      dup2\n      mstore\n      0x04\n      add\n      tag_131\n      swap1\n      tag_132\n      jump\t// in\n    tag_131:\n      mload(0x40)\n      dup1\n      swap2\n      sub\n      swap1\n      revert\n    tag_130:\n        /* \"contracts/LuckyRedEnvelope.sol\":7395:7407  Status.Close */\n      0x02\n        /* \"contracts/LuckyRedEnvelope.sol\":7367:7380  _redEnvelopes */\n      0x07\n        /* \"contracts/LuckyRedEnvelope.sol\":7367:7385  _redEnvelopes[_id] */\n      0x00\n        /* \"contracts/LuckyRedEnvelope.sol\":7381:7384  _id */\n      dup4\n        /* \"contracts/LuckyRedEnvelope.sol\":7367:7385  _redEnvelopes[_id] */\n      dup2\n      mstore\n      0x20\n      add\n      swap1\n      dup2\n      mstore\n      0x20\n      add\n      0x00\n      keccak256\n        /* \"contracts/LuckyRedEnvelope.sol\":7367:7392  _redEnvelopes[_id].status */\n      0x00\n      add\n      0x00\n        /* \"contracts/LuckyRedEnvelope.sol\":7367:7407  _redEnvelopes[_id].status = Status.Close */\n      0x0100\n      exp\n      dup2\n      sload\n      dup2\n      0xff\n      mul\n      not\n      and\n      swap1\n      dup4\n      0x03\n      dup2\n      gt\n      iszero\n      tag_133\n      jumpi\n      tag_134\n      tag_97\n      jump\t// in\n    tag_134:\n    tag_133:\n      mul\n      or\n      swap1\n      sstore\n      pop\n        /* \"contracts/LuckyRedEnvelope.sol\":7443:7446  _id */\n      dup1\n        /* \"contracts/LuckyRedEnvelope.sol\":7425:7527  RedEnvelopeClosed(_id,block.timestamp,_redEnvelopes[_id].userTickets,_redEnvelopes[_id].injectTickets) */\n      0x4e7abaf6039e145cbdc465859479a7f979153a7c1a4e5662c425afe2a794c785\n        /* \"contracts/LuckyRedEnvelope.sol\":7447:7462  block.timestamp */\n      timestamp\n        /* \"contracts/LuckyRedEnvelope.sol\":7463:7476  _redEnvelopes */\n      0x07\n        /* \"contracts/LuckyRedEnvelope.sol\":7463:7481  _redEnvelopes[_id] */\n      0x00\n        /* \"contracts/LuckyRedEnvelope.sol\":7477:7480  _id */\n      dup6\n        /* \"contracts/LuckyRedEnvelope.sol\":7463:7481  _redEnvelopes[_id] */\n      dup2\n      mstore\n      0x20\n      add\n      swap1\n      dup2\n      mstore\n      0x20\n      add\n      0x00\n      keccak256\n        /* \"contracts/LuckyRedEnvelope.sol\":7463:7493  _redEnvelopes[_id].userTickets */\n      0x04\n      add\n      sload\n        /* \"contracts/LuckyRedEnvelope.sol\":7494:7507  _redEnvelopes */\n      0x07\n        /* \"contracts/LuckyRedEnvelope.sol\":7494:7512  _redEnvelopes[_id] */\n      0x00\n        /* \"contracts/LuckyRedEnvelope.sol\":7508:7511  _id */\n      dup7\n        /* \"contracts/LuckyRedEnvelope.sol\":7494:7512  _redEnvelopes[_id] */\n      dup2\n      mstore\n      0x20\n      add\n      swap1\n      dup2\n      mstore\n      0x20\n      add\n      0x00\n      keccak256\n        /* \"contracts/LuckyRedEnvelope.sol\":7494:7526  _redEnvelopes[_id].injectTickets */\n      0x05\n      add\n      sload\n        /* \"contracts/LuckyRedEnvelope.sol\":7425:7527  RedEnvelopeClosed(_id,block.timestamp,_redEnvelopes[_id].userTickets,_redEnvelopes[_id].injectTickets) */\n      mload(0x40)\n      tag_135\n      swap4\n      swap3\n      swap2\n      swap1\n      tag_136\n      jump\t// in\n    tag_135:\n      mload(0x40)\n      dup1\n      swap2\n      sub\n      swap1\n      log2\n        /* \"@openzeppelin/contracts/utils/ReentrancyGuard.sol\":2398:2418  _nonReentrantAfter() */\n      tag_137\n        /* \"@openzeppelin/contracts/utils/ReentrancyGuard.sol\":2398:2416  _nonReentrantAfter */\n      tag_111\n        /* \"@openzeppelin/contracts/utils/ReentrancyGuard.sol\":2398:2418  _nonReentrantAfter() */\n      jump\t// in\n    tag_137:\n        /* \"contracts/LuckyRedEnvelope.sol\":7027:7535  function endRedEnvelope(... */\n      pop\n      jump\t// out\n        /* \"contracts/LuckyRedEnvelope.sol\":539:572  uint256 public defaultTicketPirce */\n    tag_40:\n      sload(0x06)\n      dup2\n      jump\t// out\n        /* \"contracts/LuckyRedEnvelope.sol\":11201:11321  function redEnvelopeStatus(uint256 _id) public view  returns (Status){... */\n    tag_45:\n        /* \"contracts/LuckyRedEnvelope.sol\":11263:11269  Status */\n      0x00\n        /* \"contracts/LuckyRedEnvelope.sol\":11288:11301  _redEnvelopes */\n      0x07\n        /* \"contracts/LuckyRedEnvelope.sol\":11288:11306  _redEnvelopes[_id] */\n      0x00\n        /* \"contracts/LuckyRedEnvelope.sol\":11302:11305  _id */\n      dup4\n        /* \"contracts/LuckyRedEnvelope.sol\":11288:11306  _redEnvelopes[_id] */\n      dup2\n      mstore\n      0x20\n      add\n      swap1\n      dup2\n      mstore\n      0x20\n      add\n      0x00\n      keccak256\n        /* \"contracts/LuckyRedEnvelope.sol\":11288:11313  _redEnvelopes[_id].status */\n      0x00\n      add\n      0x00\n      swap1\n      sload\n      swap1\n      0x0100\n      exp\n      swap1\n      div\n      0xff\n      and\n        /* \"contracts/LuckyRedEnvelope.sol\":11281:11313  return _redEnvelopes[_id].status */\n      swap1\n      pop\n        /* \"contracts/LuckyRedEnvelope.sol\":11201:11321  function redEnvelopeStatus(uint256 _id) public view  returns (Status){... */\n      swap2\n      swap1\n      pop\n      jump\t// out\n        /* \"contracts/LuckyRedEnvelope.sol\":3417:3623  function setDefaultTicketPirce(uint256 _defaultTicketPirce) external onlyOperator{... */\n    tag_50:\n        /* \"contracts/LuckyRedEnvelope.sol\":1550:1565  operatorAddress */\n      0x03\n      0x00\n      swap1\n      sload\n      swap1\n      0x0100\n      exp\n      swap1\n      div\n      0xffffffffffffffffffffffffffffffffffffffff\n      and\n        /* \"contracts/LuckyRedEnvelope.sol\":1536:1565  msg.sender == operatorAddress */\n      0xffffffffffffffffffffffffffffffffffffffff\n      and\n        /* \"contracts/LuckyRedEnvelope.sol\":1536:1546  msg.sender */\n      caller\n        /* \"contracts/LuckyRedEnvelope.sol\":1536:1565  msg.sender == operatorAddress */\n      0xffffffffffffffffffffffffffffffffffffffff\n      and\n      eq\n        /* \"contracts/LuckyRedEnvelope.sol\":1528:1582  require(msg.sender == operatorAddress, \"Not operator\") */\n      tag_140\n      jumpi\n      mload(0x40)\n      0x08c379a000000000000000000000000000000000000000000000000000000000\n      dup2\n      mstore\n      0x04\n      add\n      tag_141\n      swap1\n      tag_88\n      jump\t// in\n    tag_141:\n      mload(0x40)\n      dup1\n      swap2\n      sub\n      swap1\n      revert\n    tag_140:\n        /* \"contracts/LuckyRedEnvelope.sol\":3530:3549  _defaultTicketPirce */\n      dup1\n        /* \"contracts/LuckyRedEnvelope.sol\":3509:3527  defaultTicketPirce */\n      0x06\n        /* \"contracts/LuckyRedEnvelope.sol\":3509:3549  defaultTicketPirce = _defaultTicketPirce */\n      dup2\n      swap1\n      sstore\n      pop\n        /* \"contracts/LuckyRedEnvelope.sol\":3565:3615  DefaultChange(defaultTicketPirce,defaultAutoClaim) */\n      0xc3435e6f125b97d066c02f1f15acf6cf069a6c49878698d84841ef11288e1d79\n        /* \"contracts/LuckyRedEnvelope.sol\":3579:3597  defaultTicketPirce */\n      sload(0x06)\n        /* \"contracts/LuckyRedEnvelope.sol\":3598:3614  defaultAutoClaim */\n      0x05\n      0x00\n      swap1\n      sload\n      swap1\n      0x0100\n      exp\n      swap1\n      div\n      0xff\n      and\n        /* \"contracts/LuckyRedEnvelope.sol\":3565:3615  DefaultChange(defaultTicketPirce,defaultAutoClaim) */\n      mload(0x40)\n      tag_143\n      swap3\n      swap2\n      swap1\n      tag_144\n      jump\t// in\n    tag_143:\n      mload(0x40)\n      dup1\n      swap2\n      sub\n      swap1\n      log1\n        /* \"contracts/LuckyRedEnvelope.sol\":3417:3623  function setDefaultTicketPirce(uint256 _defaultTicketPirce) external onlyOperator{... */\n      pop\n      jump\t// out\n        /* \"@openzeppelin/contracts/access/Ownable.sol\":2293:2394  function renounceOwnership() public virtual onlyOwner {... */\n    tag_52:\n        /* \"@openzeppelin/contracts/access/Ownable.sol\":1531:1544  _checkOwner() */\n      tag_146\n        /* \"@openzeppelin/contracts/access/Ownable.sol\":1531:1542  _checkOwner */\n      tag_114\n        /* \"@openzeppelin/contracts/access/Ownable.sol\":1531:1544  _checkOwner() */\n      jump\t// in\n    tag_146:\n        /* \"@openzeppelin/contracts/access/Ownable.sol\":2357:2387  _transferOwnership(address(0)) */\n      tag_148\n        /* \"@openzeppelin/contracts/access/Ownable.sol\":2384:2385  0 */\n      0x00\n        /* \"@openzeppelin/contracts/access/Ownable.sol\":2357:2375  _transferOwnership */\n      tag_149\n        /* \"@openzeppelin/contracts/access/Ownable.sol\":2357:2387  _transferOwnership(address(0)) */\n      jump\t// in\n    tag_148:\n        /* \"@openzeppelin/contracts/access/Ownable.sol\":2293:2394  function renounceOwnership() public virtual onlyOwner {... */\n      jump\t// out\n        /* \"@openzeppelin/contracts/access/Ownable.sol\":1638:1723  function owner() public view virtual returns (address) {... */\n    tag_54:\n        /* \"@openzeppelin/contracts/access/Ownable.sol\":1684:1691  address */\n      0x00\n        /* \"@openzeppelin/contracts/access/Ownable.sol\":1710:1716  _owner */\n      0x01\n      0x00\n      swap1\n      sload\n      swap1\n      0x0100\n      exp\n      swap1\n      div\n      0xffffffffffffffffffffffffffffffffffffffff\n      and\n        /* \"@openzeppelin/contracts/access/Ownable.sol\":1703:1716  return _owner */\n      swap1\n      pop\n        /* \"@openzeppelin/contracts/access/Ownable.sol\":1638:1723  function owner() public view virtual returns (address) {... */\n      swap1\n      jump\t// out\n        /* \"contracts/LuckyRedEnvelope.sol\":504:532  bool public defaultAutoClaim */\n    tag_57:\n      0x05\n      0x00\n      swap1\n      sload\n      swap1\n      0x0100\n      exp\n      swap1\n      div\n      0xff\n      and\n      dup2\n      jump\t// out\n        /* \"contracts/LuckyRedEnvelope.sol\":7543:8670  function drawPrize(... */\n    tag_63:\n        /* \"contracts/LuckyRedEnvelope.sol\":1550:1565  operatorAddress */\n      0x03\n      0x00\n      swap1\n      sload\n      swap1\n      0x0100\n      exp\n      swap1\n      div\n      0xffffffffffffffffffffffffffffffffffffffff\n      and\n        /* \"contracts/LuckyRedEnvelope.sol\":1536:1565  msg.sender == operatorAddress */\n      0xffffffffffffffffffffffffffffffffffffffff\n      and\n        /* \"contracts/LuckyRedEnvelope.sol\":1536:1546  msg.sender */\n      caller\n        /* \"contracts/LuckyRedEnvelope.sol\":1536:1565  msg.sender == operatorAddress */\n      0xffffffffffffffffffffffffffffffffffffffff\n      and\n      eq\n        /* \"contracts/LuckyRedEnvelope.sol\":1528:1582  require(msg.sender == operatorAddress, \"Not operator\") */\n      tag_152\n      jumpi\n      mload(0x40)\n      0x08c379a000000000000000000000000000000000000000000000000000000000\n      dup2\n      mstore\n      0x04\n      add\n      tag_153\n      swap1\n      tag_88\n      jump\t// in\n    tag_153:\n      mload(0x40)\n      dup1\n      swap2\n      sub\n      swap1\n      revert\n    tag_152:\n        /* \"@openzeppelin/contracts/utils/ReentrancyGuard.sol\":2356:2377  _nonReentrantBefore() */\n      tag_155\n        /* \"@openzeppelin/contracts/utils/ReentrancyGuard.sol\":2356:2375  _nonReentrantBefore */\n      tag_91\n        /* \"@openzeppelin/contracts/utils/ReentrancyGuard.sol\":2356:2377  _nonReentrantBefore() */\n      jump\t// in\n    tag_155:\n        /* \"contracts/LuckyRedEnvelope.sol\":7697:7709  Status.Close */\n      0x02\n        /* \"contracts/LuckyRedEnvelope.sol\":7668:7709  _redEnvelopes[_id].status == Status.Close */\n      0x03\n      dup2\n      gt\n      iszero\n      tag_157\n      jumpi\n      tag_158\n      tag_97\n      jump\t// in\n    tag_158:\n    tag_157:\n        /* \"contracts/LuckyRedEnvelope.sol\":7668:7681  _redEnvelopes */\n      0x07\n        /* \"contracts/LuckyRedEnvelope.sol\":7668:7686  _redEnvelopes[_id] */\n      0x00\n        /* \"contracts/LuckyRedEnvelope.sol\":7682:7685  _id */\n      dup5\n        /* \"contracts/LuckyRedEnvelope.sol\":7668:7686  _redEnvelopes[_id] */\n      dup2\n      mstore\n      0x20\n      add\n      swap1\n      dup2\n      mstore\n      0x20\n      add\n      0x00\n      keccak256\n        /* \"contracts/LuckyRedEnvelope.sol\":7668:7693  _redEnvelopes[_id].status */\n      0x00\n      add\n      0x00\n      swap1\n      sload\n      swap1\n      0x0100\n      exp\n      swap1\n      div\n      0xff\n      and\n        /* \"contracts/LuckyRedEnvelope.sol\":7668:7709  _redEnvelopes[_id].status == Status.Close */\n      0x03\n      dup2\n      gt\n      iszero\n      tag_159\n      jumpi\n      tag_160\n      tag_97\n      jump\t// in\n    tag_160:\n    tag_159:\n      eq\n        /* \"contracts/LuckyRedEnvelope.sol\":7660:7735  require(_redEnvelopes[_id].status == Status.Close, \"RedEnvelope not close\") */\n      tag_161\n      jumpi\n      mload(0x40)\n      0x08c379a000000000000000000000000000000000000000000000000000000000\n      dup2\n      mstore\n      0x04\n      add\n      tag_162\n      swap1\n      tag_163\n      jump\t// in\n    tag_162:\n      mload(0x40)\n      dup1\n      swap2\n      sub\n      swap1\n      revert\n    tag_161:\n        /* \"contracts/LuckyRedEnvelope.sol\":7774:7790  Status.Claimable */\n      0x03\n        /* \"contracts/LuckyRedEnvelope.sol\":7746:7759  _redEnvelopes */\n      0x07\n        /* \"contracts/LuckyRedEnvelope.sol\":7746:7764  _redEnvelopes[_id] */\n      0x00\n        /* \"contracts/LuckyRedEnvelope.sol\":7760:7763  _id */\n      dup5\n        /* \"contracts/LuckyRedEnvelope.sol\":7746:7764  _redEnvelopes[_id] */\n      dup2\n      mstore\n      0x20\n      add\n      swap1\n      dup2\n      mstore\n      0x20\n      add\n      0x00\n      keccak256\n        /* \"contracts/LuckyRedEnvelope.sol\":7746:7771  _redEnvelopes[_id].status */\n      0x00\n      add\n      0x00\n        /* \"contracts/LuckyRedEnvelope.sol\":7746:7790  _redEnvelopes[_id].status = Status.Claimable */\n      0x0100\n      exp\n      dup2\n      sload\n      dup2\n      0xff\n      mul\n      not\n      and\n      swap1\n      dup4\n      0x03\n      dup2\n      gt\n      iszero\n      tag_164\n      jumpi\n      tag_165\n      tag_97\n      jump\t// in\n    tag_165:\n    tag_164:\n      mul\n      or\n      swap1\n      sstore\n      pop\n        /* \"contracts/LuckyRedEnvelope.sol\":7801:7821  uint256 totalTickets */\n      0x00\n        /* \"contracts/LuckyRedEnvelope.sol\":7857:7870  _redEnvelopes */\n      0x07\n        /* \"contracts/LuckyRedEnvelope.sol\":7857:7875  _redEnvelopes[_id] */\n      0x00\n        /* \"contracts/LuckyRedEnvelope.sol\":7871:7874  _id */\n      dup5\n        /* \"contracts/LuckyRedEnvelope.sol\":7857:7875  _redEnvelopes[_id] */\n      dup2\n      mstore\n      0x20\n      add\n      swap1\n      dup2\n      mstore\n      0x20\n      add\n      0x00\n      keccak256\n        /* \"contracts/LuckyRedEnvelope.sol\":7857:7889  _redEnvelopes[_id].injectTickets */\n      0x05\n      add\n      sload\n        /* \"contracts/LuckyRedEnvelope.sol\":7824:7837  _redEnvelopes */\n      0x07\n        /* \"contracts/LuckyRedEnvelope.sol\":7824:7842  _redEnvelopes[_id] */\n      0x00\n        /* \"contracts/LuckyRedEnvelope.sol\":7838:7841  _id */\n      dup6\n        /* \"contracts/LuckyRedEnvelope.sol\":7824:7842  _redEnvelopes[_id] */\n      dup2\n      mstore\n      0x20\n      add\n      swap1\n      dup2\n      mstore\n      0x20\n      add\n      0x00\n      keccak256\n        /* \"contracts/LuckyRedEnvelope.sol\":7824:7854  _redEnvelopes[_id].userTickets */\n      0x04\n      add\n      sload\n        /* \"contracts/LuckyRedEnvelope.sol\":7824:7889  _redEnvelopes[_id].userTickets + _redEnvelopes[_id].injectTickets */\n      tag_166\n      swap2\n      swap1\n      tag_108\n      jump\t// in\n    tag_166:\n        /* \"contracts/LuckyRedEnvelope.sol\":7801:7889  uint256 totalTickets = _redEnvelopes[_id].userTickets + _redEnvelopes[_id].injectTickets */\n      swap1\n      pop\n        /* \"contracts/LuckyRedEnvelope.sol\":7926:7929  _id */\n      dup3\n        /* \"contracts/LuckyRedEnvelope.sol\":7905:7946  RedEnvelopeClaimable(_id,block.timestamp) */\n      0x66f6b4cd34444af165fb78bce3996496528b37af161c26f737b7341cc37063bb\n        /* \"contracts/LuckyRedEnvelope.sol\":7930:7945  block.timestamp */\n      timestamp\n        /* \"contracts/LuckyRedEnvelope.sol\":7905:7946  RedEnvelopeClaimable(_id,block.timestamp) */\n      mload(0x40)\n      tag_167\n      swap2\n      swap1\n      tag_42\n      jump\t// in\n    tag_167:\n      mload(0x40)\n      dup1\n      swap2\n      sub\n      swap1\n      log2\n        /* \"contracts/LuckyRedEnvelope.sol\":7979:7980  0 */\n      0x00\n        /* \"contracts/LuckyRedEnvelope.sol\":7963:7975  totalTickets */\n      dup2\n        /* \"contracts/LuckyRedEnvelope.sol\":7963:7980  totalTickets == 0 */\n      sub\n        /* \"contracts/LuckyRedEnvelope.sol\":7959:8015  if (totalTickets == 0){... */\n      tag_168\n      jumpi\n        /* \"contracts/LuckyRedEnvelope.sol\":7996:8004  return ; */\n      pop\n      jump(tag_156)\n        /* \"contracts/LuckyRedEnvelope.sol\":7959:8015  if (totalTickets == 0){... */\n    tag_168:\n        /* \"contracts/LuckyRedEnvelope.sol\":8059:8077  uint256 randomWord */\n      0x00\n        /* \"contracts/LuckyRedEnvelope.sol\":8080:8086  _nonce */\n      dup3\n        /* \"contracts/LuckyRedEnvelope.sol\":8059:8086  uint256 randomWord = _nonce */\n      swap1\n      pop\n        /* \"contracts/LuckyRedEnvelope.sol\":8097:8116  uint256 amountToken */\n      0x00\n        /* \"contracts/LuckyRedEnvelope.sol\":8153:8165  totalTickets */\n      dup3\n        /* \"contracts/LuckyRedEnvelope.sol\":8120:8133  _redEnvelopes */\n      0x07\n        /* \"contracts/LuckyRedEnvelope.sol\":8120:8138  _redEnvelopes[_id] */\n      0x00\n        /* \"contracts/LuckyRedEnvelope.sol\":8134:8137  _id */\n      dup8\n        /* \"contracts/LuckyRedEnvelope.sol\":8120:8138  _redEnvelopes[_id] */\n      dup2\n      mstore\n      0x20\n      add\n      swap1\n      dup2\n      mstore\n      0x20\n      add\n      0x00\n      keccak256\n        /* \"contracts/LuckyRedEnvelope.sol\":8120:8150  _redEnvelopes[_id].ticketPirce */\n      0x07\n      add\n      sload\n        /* \"contracts/LuckyRedEnvelope.sol\":8120:8165  _redEnvelopes[_id].ticketPirce * totalTickets */\n      tag_169\n      swap2\n      swap1\n      tag_104\n      jump\t// in\n    tag_169:\n        /* \"contracts/LuckyRedEnvelope.sol\":8097:8165  uint256 amountToken =  _redEnvelopes[_id].ticketPirce * totalTickets */\n      swap1\n      pop\n        /* \"contracts/LuckyRedEnvelope.sol\":8179:8204  uint256[] memory _randoms */\n      0x00\n        /* \"contracts/LuckyRedEnvelope.sol\":8207:8277  _getSortRandoms(randomWord,_redEnvelopes[_id].userTickets,amountToken) */\n      tag_170\n        /* \"contracts/LuckyRedEnvelope.sol\":8223:8233  randomWord */\n      dup4\n        /* \"contracts/LuckyRedEnvelope.sol\":8234:8247  _redEnvelopes */\n      0x07\n        /* \"contracts/LuckyRedEnvelope.sol\":8234:8252  _redEnvelopes[_id] */\n      0x00\n        /* \"contracts/LuckyRedEnvelope.sol\":8248:8251  _id */\n      dup10\n        /* \"contracts/LuckyRedEnvelope.sol\":8234:8252  _redEnvelopes[_id] */\n      dup2\n      mstore\n      0x20\n      add\n      swap1\n      dup2\n      mstore\n      0x20\n      add\n      0x00\n      keccak256\n        /* \"contracts/LuckyRedEnvelope.sol\":8234:8264  _redEnvelopes[_id].userTickets */\n      0x04\n      add\n      sload\n        /* \"contracts/LuckyRedEnvelope.sol\":8265:8276  amountToken */\n      dup5\n        /* \"contracts/LuckyRedEnvelope.sol\":8207:8222  _getSortRandoms */\n      tag_171\n        /* \"contracts/LuckyRedEnvelope.sol\":8207:8277  _getSortRandoms(randomWord,_redEnvelopes[_id].userTickets,amountToken) */\n      jump\t// in\n    tag_170:\n        /* \"contracts/LuckyRedEnvelope.sol\":8179:8277  uint256[] memory _randoms = _getSortRandoms(randomWord,_redEnvelopes[_id].userTickets,amountToken) */\n      swap1\n      pop\n        /* \"contracts/LuckyRedEnvelope.sol\":8290:8319  _calculatePrize(_id,_randoms) */\n      tag_172\n        /* \"contracts/LuckyRedEnvelope.sol\":8306:8309  _id */\n      dup7\n        /* \"contracts/LuckyRedEnvelope.sol\":8310:8318  _randoms */\n      dup3\n        /* \"contracts/LuckyRedEnvelope.sol\":8290:8305  _calculatePrize */\n      tag_173\n        /* \"contracts/LuckyRedEnvelope.sol\":8290:8319  _calculatePrize(_id,_randoms) */\n      jump\t// in\n    tag_172:\n        /* \"contracts/LuckyRedEnvelope.sol\":8382:8395  _redEnvelopes */\n      0x07\n        /* \"contracts/LuckyRedEnvelope.sol\":8382:8400  _redEnvelopes[_id] */\n      0x00\n        /* \"contracts/LuckyRedEnvelope.sol\":8396:8399  _id */\n      dup8\n        /* \"contracts/LuckyRedEnvelope.sol\":8382:8400  _redEnvelopes[_id] */\n      dup2\n      mstore\n      0x20\n      add\n      swap1\n      dup2\n      mstore\n      0x20\n      add\n      0x00\n      keccak256\n        /* \"contracts/LuckyRedEnvelope.sol\":8382:8410  _redEnvelopes[_id].autoClaim */\n      0x08\n      add\n      0x00\n      swap1\n      sload\n      swap1\n      0x0100\n      exp\n      swap1\n      div\n      0xff\n      and\n        /* \"contracts/LuckyRedEnvelope.sol\":8379:8663  if(_redEnvelopes[_id].autoClaim){... */\n      iszero\n      tag_174\n      jumpi\n        /* \"contracts/LuckyRedEnvelope.sol\":8430:8439  uint256 i */\n      0x00\n        /* \"contracts/LuckyRedEnvelope.sol\":8426:8652  for(uint256 i = 0;i < _redEnvelopes[_id].userAddrNum;i++){... */\n    tag_175:\n        /* \"contracts/LuckyRedEnvelope.sol\":8448:8461  _redEnvelopes */\n      0x07\n        /* \"contracts/LuckyRedEnvelope.sol\":8448:8466  _redEnvelopes[_id] */\n      0x00\n        /* \"contracts/LuckyRedEnvelope.sol\":8462:8465  _id */\n      dup9\n        /* \"contracts/LuckyRedEnvelope.sol\":8448:8466  _redEnvelopes[_id] */\n      dup2\n      mstore\n      0x20\n      add\n      swap1\n      dup2\n      mstore\n      0x20\n      add\n      0x00\n      keccak256\n        /* \"contracts/LuckyRedEnvelope.sol\":8448:8478  _redEnvelopes[_id].userAddrNum */\n      0x06\n      add\n      sload\n        /* \"contracts/LuckyRedEnvelope.sol\":8444:8445  i */\n      dup2\n        /* \"contracts/LuckyRedEnvelope.sol\":8444:8478  i < _redEnvelopes[_id].userAddrNum */\n      lt\n        /* \"contracts/LuckyRedEnvelope.sol\":8426:8652  for(uint256 i = 0;i < _redEnvelopes[_id].userAddrNum;i++){... */\n      iszero\n      tag_176\n      jumpi\n        /* \"contracts/LuckyRedEnvelope.sol\":8553:8554  0 */\n      0x00\n        /* \"contracts/LuckyRedEnvelope.sol\":8505:8520  _amount2claimed */\n      0x0b\n        /* \"contracts/LuckyRedEnvelope.sol\":8505:8525  _amount2claimed[_id] */\n      0x00\n        /* \"contracts/LuckyRedEnvelope.sol\":8521:8524  _id */\n      dup10\n        /* \"contracts/LuckyRedEnvelope.sol\":8505:8525  _amount2claimed[_id] */\n      dup2\n      mstore\n      0x20\n      add\n      swap1\n      dup2\n      mstore\n      0x20\n      add\n      0x00\n      keccak256\n        /* \"contracts/LuckyRedEnvelope.sol\":8505:8549  _amount2claimed[_id][_userAddrIndex[_id][i]] */\n      0x00\n        /* \"contracts/LuckyRedEnvelope.sol\":8526:8540  _userAddrIndex */\n      0x0a\n        /* \"contracts/LuckyRedEnvelope.sol\":8526:8545  _userAddrIndex[_id] */\n      0x00\n        /* \"contracts/LuckyRedEnvelope.sol\":8541:8544  _id */\n      dup12\n        /* \"contracts/LuckyRedEnvelope.sol\":8526:8545  _userAddrIndex[_id] */\n      dup2\n      mstore\n      0x20\n      add\n      swap1\n      dup2\n      mstore\n      0x20\n      add\n      0x00\n      keccak256\n        /* \"contracts/LuckyRedEnvelope.sol\":8526:8548  _userAddrIndex[_id][i] */\n      0x00\n        /* \"contracts/LuckyRedEnvelope.sol\":8546:8547  i */\n      dup6\n        /* \"contracts/LuckyRedEnvelope.sol\":8526:8548  _userAddrIndex[_id][i] */\n      dup2\n      mstore\n      0x20\n      add\n      swap1\n      dup2\n      mstore\n      0x20\n      add\n      0x00\n      keccak256\n      0x00\n      swap1\n      sload\n      swap1\n      0x0100\n      exp\n      swap1\n      div\n      0xffffffffffffffffffffffffffffffffffffffff\n      and\n        /* \"contracts/LuckyRedEnvelope.sol\":8505:8549  _amount2claimed[_id][_userAddrIndex[_id][i]] */\n      0xffffffffffffffffffffffffffffffffffffffff\n      and\n      0xffffffffffffffffffffffffffffffffffffffff\n      and\n      dup2\n      mstore\n      0x20\n      add\n      swap1\n      dup2\n      mstore\n      0x20\n      add\n      0x00\n      keccak256\n      sload\n        /* \"contracts/LuckyRedEnvelope.sol\":8505:8554  _amount2claimed[_id][_userAddrIndex[_id][i]] != 0 */\n      eq\n        /* \"contracts/LuckyRedEnvelope.sol\":8502:8637  if(_amount2claimed[_id][_userAddrIndex[_id][i]] != 0){... */\n      tag_178\n      jumpi\n        /* \"contracts/LuckyRedEnvelope.sol\":8578:8617  _claimPrize(_id,_userAddrIndex[_id][i]) */\n      tag_179\n        /* \"contracts/LuckyRedEnvelope.sol\":8590:8593  _id */\n      dup8\n        /* \"contracts/LuckyRedEnvelope.sol\":8594:8608  _userAddrIndex */\n      0x0a\n        /* \"contracts/LuckyRedEnvelope.sol\":8594:8613  _userAddrIndex[_id] */\n      0x00\n        /* \"contracts/LuckyRedEnvelope.sol\":8609:8612  _id */\n      dup11\n        /* \"contracts/LuckyRedEnvelope.sol\":8594:8613  _userAddrIndex[_id] */\n      dup2\n      mstore\n      0x20\n      add\n      swap1\n      dup2\n      mstore\n      0x20\n      add\n      0x00\n      keccak256\n        /* \"contracts/LuckyRedEnvelope.sol\":8594:8616  _userAddrIndex[_id][i] */\n      0x00\n        /* \"contracts/LuckyRedEnvelope.sol\":8614:8615  i */\n      dup5\n        /* \"contracts/LuckyRedEnvelope.sol\":8594:8616  _userAddrIndex[_id][i] */\n      dup2\n      mstore\n      0x20\n      add\n      swap1\n      dup2\n      mstore\n      0x20\n      add\n      0x00\n      keccak256\n      0x00\n      swap1\n      sload\n      swap1\n      0x0100\n      exp\n      swap1\n      div\n      0xffffffffffffffffffffffffffffffffffffffff\n      and\n        /* \"contracts/LuckyRedEnvelope.sol\":8578:8589  _claimPrize */\n      tag_180\n        /* \"contracts/LuckyRedEnvelope.sol\":8578:8617  _claimPrize(_id,_userAddrIndex[_id][i]) */\n      jump\t// in\n    tag_179:\n        /* \"contracts/LuckyRedEnvelope.sol\":8502:8637  if(_amount2claimed[_id][_userAddrIndex[_id][i]] != 0){... */\n    tag_178:\n        /* \"contracts/LuckyRedEnvelope.sol\":8479:8482  i++ */\n      dup1\n      dup1\n      0x01\n      add\n      swap2\n      pop\n      pop\n        /* \"contracts/LuckyRedEnvelope.sol\":8426:8652  for(uint256 i = 0;i < _redEnvelopes[_id].userAddrNum;i++){... */\n      jump(tag_175)\n    tag_176:\n      pop\n        /* \"contracts/LuckyRedEnvelope.sol\":8379:8663  if(_redEnvelopes[_id].autoClaim){... */\n    tag_174:\n        /* \"contracts/LuckyRedEnvelope.sol\":7649:8670  {... */\n      pop\n      pop\n      pop\n      pop\n        /* \"@openzeppelin/contracts/utils/ReentrancyGuard.sol\":2387:2388  _ */\n    tag_156:\n        /* \"@openzeppelin/contracts/utils/ReentrancyGuard.sol\":2398:2418  _nonReentrantAfter() */\n      tag_181\n        /* \"@openzeppelin/contracts/utils/ReentrancyGuard.sol\":2398:2416  _nonReentrantAfter */\n      tag_111\n        /* \"@openzeppelin/contracts/utils/ReentrancyGuard.sol\":2398:2418  _nonReentrantAfter() */\n      jump\t// in\n    tag_181:\n        /* \"contracts/LuckyRedEnvelope.sol\":7543:8670  function drawPrize(... */\n      pop\n      pop\n      jump\t// out\n        /* \"contracts/LuckyRedEnvelope.sol\":5300:7017  function buyTickets(... */\n    tag_67:\n        /* \"@openzeppelin/contracts/utils/ReentrancyGuard.sol\":2356:2377  _nonReentrantBefore() */\n      tag_183\n        /* \"@openzeppelin/contracts/utils/ReentrancyGuard.sol\":2356:2375  _nonReentrantBefore */\n      tag_91\n        /* \"@openzeppelin/contracts/utils/ReentrancyGuard.sol\":2356:2377  _nonReentrantBefore() */\n      jump\t// in\n    tag_183:\n        /* \"contracts/LuckyRedEnvelope.sol\":5484:5495  Status.Open */\n      0x01\n        /* \"contracts/LuckyRedEnvelope.sol\":5455:5495  _redEnvelopes[_id].status == Status.Open */\n      0x03\n      dup2\n      gt\n      iszero\n      tag_185\n      jumpi\n      tag_186\n      tag_97\n      jump\t// in\n    tag_186:\n    tag_185:\n        /* \"contracts/LuckyRedEnvelope.sol\":5455:5468  _redEnvelopes */\n      0x07\n        /* \"contracts/LuckyRedEnvelope.sol\":5455:5473  _redEnvelopes[_id] */\n      0x00\n        /* \"contracts/LuckyRedEnvelope.sol\":5469:5472  _id */\n      dup6\n        /* \"contracts/LuckyRedEnvelope.sol\":5455:5473  _redEnvelopes[_id] */\n      dup2\n      mstore\n      0x20\n      add\n      swap1\n      dup2\n      mstore\n      0x20\n      add\n      0x00\n      keccak256\n        /* \"contracts/LuckyRedEnvelope.sol\":5455:5480  _redEnvelopes[_id].status */\n      0x00\n      add\n      0x00\n      swap1\n      sload\n      swap1\n      0x0100\n      exp\n      swap1\n      div\n      0xff\n      and\n        /* \"contracts/LuckyRedEnvelope.sol\":5455:5495  _redEnvelopes[_id].status == Status.Open */\n      0x03\n      dup2\n      gt\n      iszero\n      tag_187\n      jumpi\n      tag_188\n      tag_97\n      jump\t// in\n    tag_188:\n    tag_187:\n      eq\n        /* \"contracts/LuckyRedEnvelope.sol\":5447:5523  require(_redEnvelopes[_id].status == Status.Open, \"RedEnvelope is not open\") */\n      tag_189\n      jumpi\n      mload(0x40)\n      0x08c379a000000000000000000000000000000000000000000000000000000000\n      dup2\n      mstore\n      0x04\n      add\n      tag_190\n      swap1\n      tag_132\n      jump\t// in\n    tag_190:\n      mload(0x40)\n      dup1\n      swap2\n      sub\n      swap1\n      revert\n    tag_189:\n        /* \"contracts/LuckyRedEnvelope.sol\":5568:5569  0 */\n      0x00\n        /* \"contracts/LuckyRedEnvelope.sol\":5538:5551  _redEnvelopes */\n      0x07\n        /* \"contracts/LuckyRedEnvelope.sol\":5538:5556  _redEnvelopes[_id] */\n      0x00\n        /* \"contracts/LuckyRedEnvelope.sol\":5552:5555  _id */\n      dup6\n        /* \"contracts/LuckyRedEnvelope.sol\":5538:5556  _redEnvelopes[_id] */\n      dup2\n      mstore\n      0x20\n      add\n      swap1\n      dup2\n      mstore\n      0x20\n      add\n      0x00\n      keccak256\n        /* \"contracts/LuckyRedEnvelope.sol\":5538:5564  _redEnvelopes[_id].endTime */\n      0x02\n      add\n      sload\n        /* \"contracts/LuckyRedEnvelope.sol\":5538:5569  _redEnvelopes[_id].endTime != 0 */\n      eq\n        /* \"contracts/LuckyRedEnvelope.sol\":5534:5678  if (_redEnvelopes[_id].endTime != 0){... */\n      tag_191\n      jumpi\n        /* \"contracts/LuckyRedEnvelope.sol\":5611:5624  _redEnvelopes */\n      0x07\n        /* \"contracts/LuckyRedEnvelope.sol\":5611:5629  _redEnvelopes[_id] */\n      0x00\n        /* \"contracts/LuckyRedEnvelope.sol\":5625:5628  _id */\n      dup5\n        /* \"contracts/LuckyRedEnvelope.sol\":5611:5629  _redEnvelopes[_id] */\n      dup2\n      mstore\n      0x20\n      add\n      swap1\n      dup2\n      mstore\n      0x20\n      add\n      0x00\n      keccak256\n        /* \"contracts/LuckyRedEnvelope.sol\":5611:5637  _redEnvelopes[_id].endTime */\n      0x02\n      add\n      sload\n        /* \"contracts/LuckyRedEnvelope.sol\":5593:5608  block.timestamp */\n      timestamp\n        /* \"contracts/LuckyRedEnvelope.sol\":5593:5637  block.timestamp < _redEnvelopes[_id].endTime */\n      lt\n        /* \"contracts/LuckyRedEnvelope.sol\":5585:5666  require(block.timestamp < _redEnvelopes[_id].endTime, \"RedEnvelope is over time\") */\n      tag_192\n      jumpi\n      mload(0x40)\n      0x08c379a000000000000000000000000000000000000000000000000000000000\n      dup2\n      mstore\n      0x04\n      add\n      tag_193\n      swap1\n      tag_194\n      jump\t// in\n    tag_193:\n      mload(0x40)\n      dup1\n      swap2\n      sub\n      swap1\n      revert\n    tag_192:\n        /* \"contracts/LuckyRedEnvelope.sol\":5534:5678  if (_redEnvelopes[_id].endTime != 0){... */\n    tag_191:\n        /* \"contracts/LuckyRedEnvelope.sol\":5725:5726  0 */\n      0x00\n        /* \"contracts/LuckyRedEnvelope.sol\":5692:5705  _redEnvelopes */\n      0x07\n        /* \"contracts/LuckyRedEnvelope.sol\":5692:5710  _redEnvelopes[_id] */\n      0x00\n        /* \"contracts/LuckyRedEnvelope.sol\":5706:5709  _id */\n      dup6\n        /* \"contracts/LuckyRedEnvelope.sol\":5692:5710  _redEnvelopes[_id] */\n      dup2\n      mstore\n      0x20\n      add\n      swap1\n      dup2\n      mstore\n      0x20\n      add\n      0x00\n      keccak256\n        /* \"contracts/LuckyRedEnvelope.sol\":5692:5721  _redEnvelopes[_id].maxTickets */\n      0x03\n      add\n      sload\n        /* \"contracts/LuckyRedEnvelope.sol\":5692:5726  _redEnvelopes[_id].maxTickets != 0 */\n      eq\n        /* \"contracts/LuckyRedEnvelope.sol\":5688:5873  if (_redEnvelopes[_id].maxTickets != 0){... */\n      tag_195\n      jumpi\n        /* \"contracts/LuckyRedEnvelope.sol\":5801:5814  _redEnvelopes */\n      0x07\n        /* \"contracts/LuckyRedEnvelope.sol\":5801:5819  _redEnvelopes[_id] */\n      0x00\n        /* \"contracts/LuckyRedEnvelope.sol\":5815:5818  _id */\n      dup5\n        /* \"contracts/LuckyRedEnvelope.sol\":5801:5819  _redEnvelopes[_id] */\n      dup2\n      mstore\n      0x20\n      add\n      swap1\n      dup2\n      mstore\n      0x20\n      add\n      0x00\n      keccak256\n        /* \"contracts/LuckyRedEnvelope.sol\":5801:5830  _redEnvelopes[_id].maxTickets */\n      0x03\n      add\n      sload\n        /* \"contracts/LuckyRedEnvelope.sol\":5783:5797  _ticketNumbers */\n      dup2\n        /* \"contracts/LuckyRedEnvelope.sol\":5750:5763  _redEnvelopes */\n      0x07\n        /* \"contracts/LuckyRedEnvelope.sol\":5750:5768  _redEnvelopes[_id] */\n      0x00\n        /* \"contracts/LuckyRedEnvelope.sol\":5764:5767  _id */\n      dup7\n        /* \"contracts/LuckyRedEnvelope.sol\":5750:5768  _redEnvelopes[_id] */\n      dup2\n      mstore\n      0x20\n      add\n      swap1\n      dup2\n      mstore\n      0x20\n      add\n      0x00\n      keccak256\n        /* \"contracts/LuckyRedEnvelope.sol\":5750:5780  _redEnvelopes[_id].userTickets */\n      0x04\n      add\n      sload\n        /* \"contracts/LuckyRedEnvelope.sol\":5750:5797  _redEnvelopes[_id].userTickets + _ticketNumbers */\n      tag_196\n      swap2\n      swap1\n      tag_108\n      jump\t// in\n    tag_196:\n        /* \"contracts/LuckyRedEnvelope.sol\":5750:5830  _redEnvelopes[_id].userTickets + _ticketNumbers <= _redEnvelopes[_id].maxTickets */\n      gt\n      iszero\n        /* \"contracts/LuckyRedEnvelope.sol\":5742:5861  require(_redEnvelopes[_id].userTickets + _ticketNumbers <= _redEnvelopes[_id].maxTickets, \"RedEnvelope is over ticket\") */\n      tag_197\n      jumpi\n      mload(0x40)\n      0x08c379a000000000000000000000000000000000000000000000000000000000\n      dup2\n      mstore\n      0x04\n      add\n      tag_198\n      swap1\n      tag_199\n      jump\t// in\n    tag_198:\n      mload(0x40)\n      dup1\n      swap2\n      sub\n      swap1\n      revert\n    tag_197:\n        /* \"contracts/LuckyRedEnvelope.sol\":5688:5873  if (_redEnvelopes[_id].maxTickets != 0){... */\n    tag_195:\n        /* \"contracts/LuckyRedEnvelope.sol\":5940:5969  uint256 amountTokenToTransfer */\n      0x00\n        /* \"contracts/LuckyRedEnvelope.sol\":6005:6019  _ticketNumbers */\n      dup2\n        /* \"contracts/LuckyRedEnvelope.sol\":5972:5985  _redEnvelopes */\n      0x07\n        /* \"contracts/LuckyRedEnvelope.sol\":5972:5990  _redEnvelopes[_id] */\n      0x00\n        /* \"contracts/LuckyRedEnvelope.sol\":5986:5989  _id */\n      dup7\n        /* \"contracts/LuckyRedEnvelope.sol\":5972:5990  _redEnvelopes[_id] */\n      dup2\n      mstore\n      0x20\n      add\n      swap1\n      dup2\n      mstore\n      0x20\n      add\n      0x00\n      keccak256\n        /* \"contracts/LuckyRedEnvelope.sol\":5972:6002  _redEnvelopes[_id].ticketPirce */\n      0x07\n      add\n      sload\n        /* \"contracts/LuckyRedEnvelope.sol\":5972:6019  _redEnvelopes[_id].ticketPirce * _ticketNumbers */\n      tag_200\n      swap2\n      swap1\n      tag_104\n      jump\t// in\n    tag_200:\n        /* \"contracts/LuckyRedEnvelope.sol\":5940:6019  uint256 amountTokenToTransfer = _redEnvelopes[_id].ticketPirce * _ticketNumbers */\n      swap1\n      pop\n        /* \"contracts/LuckyRedEnvelope.sol\":6082:6169  ticketToken.safeTransferFrom(address(msg.sender), address(this), amountTokenToTransfer) */\n      tag_201\n        /* \"contracts/LuckyRedEnvelope.sol\":6119:6129  msg.sender */\n      caller\n        /* \"contracts/LuckyRedEnvelope.sol\":6140:6144  this */\n      address\n        /* \"contracts/LuckyRedEnvelope.sol\":6147:6168  amountTokenToTransfer */\n      dup4\n        /* \"contracts/LuckyRedEnvelope.sol\":6082:6093  ticketToken */\n      0x02\n      0x00\n      swap1\n      sload\n      swap1\n      0x0100\n      exp\n      swap1\n      div\n      0xffffffffffffffffffffffffffffffffffffffff\n      and\n        /* \"contracts/LuckyRedEnvelope.sol\":6082:6110  ticketToken.safeTransferFrom */\n      0xffffffffffffffffffffffffffffffffffffffff\n      and\n      tag_106\n      swap1\n        /* \"contracts/LuckyRedEnvelope.sol\":6082:6169  ticketToken.safeTransferFrom(address(msg.sender), address(this), amountTokenToTransfer) */\n      swap4\n      swap3\n      swap2\n      swap1\n      0xffffffff\n      and\n      jump\t// in\n    tag_201:\n        /* \"contracts/LuckyRedEnvelope.sol\":6182:6206  uint256 curUserTicketNum */\n      0x00\n        /* \"contracts/LuckyRedEnvelope.sol\":6209:6222  _redEnvelopes */\n      0x07\n        /* \"contracts/LuckyRedEnvelope.sol\":6209:6227  _redEnvelopes[_id] */\n      0x00\n        /* \"contracts/LuckyRedEnvelope.sol\":6223:6226  _id */\n      dup7\n        /* \"contracts/LuckyRedEnvelope.sol\":6209:6227  _redEnvelopes[_id] */\n      dup2\n      mstore\n      0x20\n      add\n      swap1\n      dup2\n      mstore\n      0x20\n      add\n      0x00\n      keccak256\n        /* \"contracts/LuckyRedEnvelope.sol\":6209:6239  _redEnvelopes[_id].userTickets */\n      0x04\n      add\n      sload\n        /* \"contracts/LuckyRedEnvelope.sol\":6182:6239  uint256 curUserTicketNum = _redEnvelopes[_id].userTickets */\n      swap1\n      pop\n        /* \"contracts/LuckyRedEnvelope.sol\":6255:6264  uint256 i */\n      0x00\n        /* \"contracts/LuckyRedEnvelope.sol\":6250:6480  for (uint256 i = 0; i < _ticketNumbers; i++){... */\n    tag_202:\n        /* \"contracts/LuckyRedEnvelope.sol\":6274:6288  _ticketNumbers */\n      dup4\n        /* \"contracts/LuckyRedEnvelope.sol\":6270:6271  i */\n      dup2\n        /* \"contracts/LuckyRedEnvelope.sol\":6270:6288  i < _ticketNumbers */\n      lt\n        /* \"contracts/LuckyRedEnvelope.sol\":6250:6480  for (uint256 i = 0; i < _ticketNumbers; i++){... */\n      iszero\n      tag_203\n      jumpi\n        /* \"contracts/LuckyRedEnvelope.sol\":6347:6468  Ticket({... */\n      mload(0x40)\n      dup1\n      0x40\n      add\n      0x40\n      mstore\n      dup1\n        /* \"contracts/LuckyRedEnvelope.sol\":6388:6402  _ticketNumbers */\n      dup6\n        /* \"contracts/LuckyRedEnvelope.sol\":6347:6468  Ticket({... */\n      dup2\n      mstore\n      0x20\n      add\n        /* \"contracts/LuckyRedEnvelope.sol\":6437:6452  _receiveAddress */\n      dup7\n        /* \"contracts/LuckyRedEnvelope.sol\":6347:6468  Ticket({... */\n      0xffffffffffffffffffffffffffffffffffffffff\n      and\n      dup2\n      mstore\n      pop\n        /* \"contracts/LuckyRedEnvelope.sol\":6309:6317  _tickets */\n      0x08\n        /* \"contracts/LuckyRedEnvelope.sol\":6309:6322  _tickets[_id] */\n      0x00\n        /* \"contracts/LuckyRedEnvelope.sol\":6318:6321  _id */\n      dup9\n        /* \"contracts/LuckyRedEnvelope.sol\":6309:6322  _tickets[_id] */\n      dup2\n      mstore\n      0x20\n      add\n      swap1\n      dup2\n      mstore\n      0x20\n      add\n      0x00\n      keccak256\n        /* \"contracts/LuckyRedEnvelope.sol\":6309:6344  _tickets[_id][curUserTicketNum + i] */\n      0x00\n        /* \"contracts/LuckyRedEnvelope.sol\":6342:6343  i */\n      dup4\n        /* \"contracts/LuckyRedEnvelope.sol\":6323:6339  curUserTicketNum */\n      dup6\n        /* \"contracts/LuckyRedEnvelope.sol\":6323:6343  curUserTicketNum + i */\n      tag_205\n      swap2\n      swap1\n      tag_108\n      jump\t// in\n    tag_205:\n        /* \"contracts/LuckyRedEnvelope.sol\":6309:6344  _tickets[_id][curUserTicketNum + i] */\n      dup2\n      mstore\n      0x20\n      add\n      swap1\n      dup2\n      mstore\n      0x20\n      add\n      0x00\n      keccak256\n        /* \"contracts/LuckyRedEnvelope.sol\":6309:6468  _tickets[_id][curUserTicketNum + i] = Ticket({... */\n      0x00\n      dup3\n      add\n      mload\n      dup2\n      0x00\n      add\n      sstore\n      0x20\n      dup3\n      add\n      mload\n      dup2\n      0x01\n      add\n      exp(0x0100, 0x00)\n      dup2\n      sload\n      dup2\n      0xffffffffffffffffffffffffffffffffffffffff\n      mul\n      not\n      and\n      swap1\n      dup4\n      0xffffffffffffffffffffffffffffffffffffffff\n      and\n      mul\n      or\n      swap1\n      sstore\n      pop\n      swap1\n      pop\n      pop\n        /* \"contracts/LuckyRedEnvelope.sol\":6290:6293  i++ */\n      dup1\n      dup1\n      0x01\n      add\n      swap2\n      pop\n      pop\n        /* \"contracts/LuckyRedEnvelope.sol\":6250:6480  for (uint256 i = 0; i < _ticketNumbers; i++){... */\n      jump(tag_202)\n    tag_203:\n      pop\n        /* \"contracts/LuckyRedEnvelope.sol\":6557:6571  _ticketNumbers */\n      dup3\n        /* \"contracts/LuckyRedEnvelope.sol\":6524:6537  _redEnvelopes */\n      0x07\n        /* \"contracts/LuckyRedEnvelope.sol\":6524:6542  _redEnvelopes[_id] */\n      0x00\n        /* \"contracts/LuckyRedEnvelope.sol\":6538:6541  _id */\n      dup8\n        /* \"contracts/LuckyRedEnvelope.sol\":6524:6542  _redEnvelopes[_id] */\n      dup2\n      mstore\n      0x20\n      add\n      swap1\n      dup2\n      mstore\n      0x20\n      add\n      0x00\n      keccak256\n        /* \"contracts/LuckyRedEnvelope.sol\":6524:6554  _redEnvelopes[_id].userTickets */\n      0x04\n      add\n      sload\n        /* \"contracts/LuckyRedEnvelope.sol\":6524:6571  _redEnvelopes[_id].userTickets + _ticketNumbers */\n      tag_206\n      swap2\n      swap1\n      tag_108\n      jump\t// in\n    tag_206:\n        /* \"contracts/LuckyRedEnvelope.sol\":6491:6504  _redEnvelopes */\n      0x07\n        /* \"contracts/LuckyRedEnvelope.sol\":6491:6509  _redEnvelopes[_id] */\n      0x00\n        /* \"contracts/LuckyRedEnvelope.sol\":6505:6508  _id */\n      dup8\n        /* \"contracts/LuckyRedEnvelope.sol\":6491:6509  _redEnvelopes[_id] */\n      dup2\n      mstore\n      0x20\n      add\n      swap1\n      dup2\n      mstore\n      0x20\n      add\n      0x00\n      keccak256\n        /* \"contracts/LuckyRedEnvelope.sol\":6491:6521  _redEnvelopes[_id].userTickets */\n      0x04\n      add\n        /* \"contracts/LuckyRedEnvelope.sol\":6491:6571  _redEnvelopes[_id].userTickets = _redEnvelopes[_id].userTickets + _ticketNumbers */\n      dup2\n      swap1\n      sstore\n      pop\n        /* \"contracts/LuckyRedEnvelope.sol\":6630:6631  0 */\n      0x00\n        /* \"contracts/LuckyRedEnvelope.sol\":6586:6604  _userAddrTicketNum */\n      0x09\n        /* \"contracts/LuckyRedEnvelope.sol\":6586:6609  _userAddrTicketNum[_id] */\n      0x00\n        /* \"contracts/LuckyRedEnvelope.sol\":6605:6608  _id */\n      dup8\n        /* \"contracts/LuckyRedEnvelope.sol\":6586:6609  _userAddrTicketNum[_id] */\n      dup2\n      mstore\n      0x20\n      add\n      swap1\n      dup2\n      mstore\n      0x20\n      add\n      0x00\n      keccak256\n        /* \"contracts/LuckyRedEnvelope.sol\":6586:6626  _userAddrTicketNum[_id][_receiveAddress] */\n      0x00\n        /* \"contracts/LuckyRedEnvelope.sol\":6610:6625  _receiveAddress */\n      dup7\n        /* \"contracts/LuckyRedEnvelope.sol\":6586:6626  _userAddrTicketNum[_id][_receiveAddress] */\n      0xffffffffffffffffffffffffffffffffffffffff\n      and\n      0xffffffffffffffffffffffffffffffffffffffff\n      and\n      dup2\n      mstore\n      0x20\n      add\n      swap1\n      dup2\n      mstore\n      0x20\n      add\n      0x00\n      keccak256\n      sload\n        /* \"contracts/LuckyRedEnvelope.sol\":6586:6631  _userAddrTicketNum[_id][_receiveAddress] == 0 */\n      sub\n        /* \"contracts/LuckyRedEnvelope.sol\":6582:6810  if (_userAddrTicketNum[_id][_receiveAddress] == 0){... */\n      tag_207\n      jumpi\n        /* \"contracts/LuckyRedEnvelope.sol\":6701:6716  _receiveAddress */\n      dup4\n        /* \"contracts/LuckyRedEnvelope.sol\":6647:6661  _userAddrIndex */\n      0x0a\n        /* \"contracts/LuckyRedEnvelope.sol\":6647:6666  _userAddrIndex[_id] */\n      0x00\n        /* \"contracts/LuckyRedEnvelope.sol\":6662:6665  _id */\n      dup8\n        /* \"contracts/LuckyRedEnvelope.sol\":6647:6666  _userAddrIndex[_id] */\n      dup2\n      mstore\n      0x20\n      add\n      swap1\n      dup2\n      mstore\n      0x20\n      add\n      0x00\n      keccak256\n        /* \"contracts/LuckyRedEnvelope.sol\":6647:6698  _userAddrIndex[_id][_redEnvelopes[_id].userAddrNum] */\n      0x00\n        /* \"contracts/LuckyRedEnvelope.sol\":6667:6680  _redEnvelopes */\n      0x07\n        /* \"contracts/LuckyRedEnvelope.sol\":6667:6685  _redEnvelopes[_id] */\n      0x00\n        /* \"contracts/LuckyRedEnvelope.sol\":6681:6684  _id */\n      dup10\n        /* \"contracts/LuckyRedEnvelope.sol\":6667:6685  _redEnvelopes[_id] */\n      dup2\n      mstore\n      0x20\n      add\n      swap1\n      dup2\n      mstore\n      0x20\n      add\n      0x00\n      keccak256\n        /* \"contracts/LuckyRedEnvelope.sol\":6667:6697  _redEnvelopes[_id].userAddrNum */\n      0x06\n      add\n      sload\n        /* \"contracts/LuckyRedEnvelope.sol\":6647:6698  _userAddrIndex[_id][_redEnvelopes[_id].userAddrNum] */\n      dup2\n      mstore\n      0x20\n      add\n      swap1\n      dup2\n      mstore\n      0x20\n      add\n      0x00\n      keccak256\n      0x00\n        /* \"contracts/LuckyRedEnvelope.sol\":6647:6716  _userAddrIndex[_id][_redEnvelopes[_id].userAddrNum] = _receiveAddress */\n      0x0100\n      exp\n      dup2\n      sload\n      dup2\n      0xffffffffffffffffffffffffffffffffffffffff\n      mul\n      not\n      and\n      swap1\n      dup4\n      0xffffffffffffffffffffffffffffffffffffffff\n      and\n      mul\n      or\n      swap1\n      sstore\n      pop\n        /* \"contracts/LuckyRedEnvelope.sol\":6797:6798  1 */\n      0x01\n        /* \"contracts/LuckyRedEnvelope.sol\":6764:6777  _redEnvelopes */\n      0x07\n        /* \"contracts/LuckyRedEnvelope.sol\":6764:6782  _redEnvelopes[_id] */\n      0x00\n        /* \"contracts/LuckyRedEnvelope.sol\":6778:6781  _id */\n      dup8\n        /* \"contracts/LuckyRedEnvelope.sol\":6764:6782  _redEnvelopes[_id] */\n      dup2\n      mstore\n      0x20\n      add\n      swap1\n      dup2\n      mstore\n      0x20\n      add\n      0x00\n      keccak256\n        /* \"contracts/LuckyRedEnvelope.sol\":6764:6794  _redEnvelopes[_id].userAddrNum */\n      0x06\n      add\n      sload\n        /* \"contracts/LuckyRedEnvelope.sol\":6764:6798  _redEnvelopes[_id].userAddrNum + 1 */\n      tag_208\n      swap2\n      swap1\n      tag_108\n      jump\t// in\n    tag_208:\n        /* \"contracts/LuckyRedEnvelope.sol\":6731:6744  _redEnvelopes */\n      0x07\n        /* \"contracts/LuckyRedEnvelope.sol\":6731:6749  _redEnvelopes[_id] */\n      0x00\n        /* \"contracts/LuckyRedEnvelope.sol\":6745:6748  _id */\n      dup8\n        /* \"contracts/LuckyRedEnvelope.sol\":6731:6749  _redEnvelopes[_id] */\n      dup2\n      mstore\n      0x20\n      add\n      swap1\n      dup2\n      mstore\n      0x20\n      add\n      0x00\n      keccak256\n        /* \"contracts/LuckyRedEnvelope.sol\":6731:6761  _redEnvelopes[_id].userAddrNum */\n      0x06\n      add\n        /* \"contracts/LuckyRedEnvelope.sol\":6731:6798  _redEnvelopes[_id].userAddrNum = _redEnvelopes[_id].userAddrNum + 1 */\n      dup2\n      swap1\n      sstore\n      pop\n        /* \"contracts/LuckyRedEnvelope.sol\":6582:6810  if (_userAddrTicketNum[_id][_receiveAddress] == 0){... */\n    tag_207:\n        /* \"contracts/LuckyRedEnvelope.sol\":6906:6920  _ticketNumbers */\n      dup3\n        /* \"contracts/LuckyRedEnvelope.sol\":6863:6881  _userAddrTicketNum */\n      0x09\n        /* \"contracts/LuckyRedEnvelope.sol\":6863:6886  _userAddrTicketNum[_id] */\n      0x00\n        /* \"contracts/LuckyRedEnvelope.sol\":6882:6885  _id */\n      dup8\n        /* \"contracts/LuckyRedEnvelope.sol\":6863:6886  _userAddrTicketNum[_id] */\n      dup2\n      mstore\n      0x20\n      add\n      swap1\n      dup2\n      mstore\n      0x20\n      add\n      0x00\n      keccak256\n        /* \"contracts/LuckyRedEnvelope.sol\":6863:6903  _userAddrTicketNum[_id][_receiveAddress] */\n      0x00\n        /* \"contracts/LuckyRedEnvelope.sol\":6887:6902  _receiveAddress */\n      dup7\n        /* \"contracts/LuckyRedEnvelope.sol\":6863:6903  _userAddrTicketNum[_id][_receiveAddress] */\n      0xffffffffffffffffffffffffffffffffffffffff\n      and\n      0xffffffffffffffffffffffffffffffffffffffff\n      and\n      dup2\n      mstore\n      0x20\n      add\n      swap1\n      dup2\n      mstore\n      0x20\n      add\n      0x00\n      keccak256\n      sload\n        /* \"contracts/LuckyRedEnvelope.sol\":6863:6920  _userAddrTicketNum[_id][_receiveAddress] + _ticketNumbers */\n      tag_209\n      swap2\n      swap1\n      tag_108\n      jump\t// in\n    tag_209:\n        /* \"contracts/LuckyRedEnvelope.sol\":6820:6838  _userAddrTicketNum */\n      0x09\n        /* \"contracts/LuckyRedEnvelope.sol\":6820:6843  _userAddrTicketNum[_id] */\n      0x00\n        /* \"contracts/LuckyRedEnvelope.sol\":6839:6842  _id */\n      dup8\n        /* \"contracts/LuckyRedEnvelope.sol\":6820:6843  _userAddrTicketNum[_id] */\n      dup2\n      mstore\n      0x20\n      add\n      swap1\n      dup2\n      mstore\n      0x20\n      add\n      0x00\n      keccak256\n        /* \"contracts/LuckyRedEnvelope.sol\":6820:6860  _userAddrTicketNum[_id][_receiveAddress] */\n      0x00\n        /* \"contracts/LuckyRedEnvelope.sol\":6844:6859  _receiveAddress */\n      dup7\n        /* \"contracts/LuckyRedEnvelope.sol\":6820:6860  _userAddrTicketNum[_id][_receiveAddress] */\n      0xffffffffffffffffffffffffffffffffffffffff\n      and\n      0xffffffffffffffffffffffffffffffffffffffff\n      and\n      dup2\n      mstore\n      0x20\n      add\n      swap1\n      dup2\n      mstore\n      0x20\n      add\n      0x00\n      keccak256\n        /* \"contracts/LuckyRedEnvelope.sol\":6820:6920  _userAddrTicketNum[_id][_receiveAddress] = _userAddrTicketNum[_id][_receiveAddress] + _ticketNumbers */\n      dup2\n      swap1\n      sstore\n      pop\n        /* \"contracts/LuckyRedEnvelope.sol\":6978:6993  _receiveAddress */\n      dup4\n        /* \"contracts/LuckyRedEnvelope.sol\":6938:7009  TicketsPurchase(_id,address(msg.sender),_receiveAddress,_ticketNumbers) */\n      0xffffffffffffffffffffffffffffffffffffffff\n      and\n        /* \"contracts/LuckyRedEnvelope.sol\":6966:6976  msg.sender */\n      caller\n        /* \"contracts/LuckyRedEnvelope.sol\":6938:7009  TicketsPurchase(_id,address(msg.sender),_receiveAddress,_ticketNumbers) */\n      0xffffffffffffffffffffffffffffffffffffffff\n      and\n        /* \"contracts/LuckyRedEnvelope.sol\":6954:6957  _id */\n      dup7\n        /* \"contracts/LuckyRedEnvelope.sol\":6938:7009  TicketsPurchase(_id,address(msg.sender),_receiveAddress,_ticketNumbers) */\n      0xc711bfbe9284c7d96adbb9ebad39767e13c00b6b5cd4ca300fec0d969309a407\n        /* \"contracts/LuckyRedEnvelope.sol\":6994:7008  _ticketNumbers */\n      dup7\n        /* \"contracts/LuckyRedEnvelope.sol\":6938:7009  TicketsPurchase(_id,address(msg.sender),_receiveAddress,_ticketNumbers) */\n      mload(0x40)\n      tag_210\n      swap2\n      swap1\n      tag_42\n      jump\t// in\n    tag_210:\n      mload(0x40)\n      dup1\n      swap2\n      sub\n      swap1\n      log4\n        /* \"contracts/LuckyRedEnvelope.sol\":5436:7017  {... */\n      pop\n      pop\n        /* \"@openzeppelin/contracts/utils/ReentrancyGuard.sol\":2398:2418  _nonReentrantAfter() */\n      tag_211\n        /* \"@openzeppelin/contracts/utils/ReentrancyGuard.sol\":2398:2416  _nonReentrantAfter */\n      tag_111\n        /* \"@openzeppelin/contracts/utils/ReentrancyGuard.sol\":2398:2418  _nonReentrantAfter() */\n      jump\t// in\n    tag_211:\n        /* \"contracts/LuckyRedEnvelope.sol\":5300:7017  function buyTickets(... */\n      pop\n      pop\n      pop\n      jump\t// out\n        /* \"contracts/LuckyRedEnvelope.sol\":400:425  IERC20 public ticketToken */\n    tag_69:\n      0x02\n      0x00\n      swap1\n      sload\n      swap1\n      0x0100\n      exp\n      swap1\n      div\n      0xffffffffffffffffffffffffffffffffffffffff\n      and\n      dup2\n      jump\t// out\n        /* \"contracts/LuckyRedEnvelope.sol\":10436:10721  function claimPrize(uint256 _id)external nonReentrant{... */\n    tag_74:\n        /* \"@openzeppelin/contracts/utils/ReentrancyGuard.sol\":2356:2377  _nonReentrantBefore() */\n      tag_213\n        /* \"@openzeppelin/contracts/utils/ReentrancyGuard.sol\":2356:2375  _nonReentrantBefore */\n      tag_91\n        /* \"@openzeppelin/contracts/utils/ReentrancyGuard.sol\":2356:2377  _nonReentrantBefore() */\n      jump\t// in\n    tag_213:\n        /* \"contracts/LuckyRedEnvelope.sol\":10537:10553  Status.Claimable */\n      0x03\n        /* \"contracts/LuckyRedEnvelope.sol\":10508:10553  _redEnvelopes[_id].status == Status.Claimable */\n      dup1\n      dup2\n      gt\n      iszero\n      tag_215\n      jumpi\n      tag_216\n      tag_97\n      jump\t// in\n    tag_216:\n    tag_215:\n        /* \"contracts/LuckyRedEnvelope.sol\":10508:10521  _redEnvelopes */\n      0x07\n        /* \"contracts/LuckyRedEnvelope.sol\":10508:10526  _redEnvelopes[_id] */\n      0x00\n        /* \"contracts/LuckyRedEnvelope.sol\":10522:10525  _id */\n      dup4\n        /* \"contracts/LuckyRedEnvelope.sol\":10508:10526  _redEnvelopes[_id] */\n      dup2\n      mstore\n      0x20\n      add\n      swap1\n      dup2\n      mstore\n      0x20\n      add\n      0x00\n      keccak256\n        /* \"contracts/LuckyRedEnvelope.sol\":10508:10533  _redEnvelopes[_id].status */\n      0x00\n      add\n      0x00\n      swap1\n      sload\n      swap1\n      0x0100\n      exp\n      swap1\n      div\n      0xff\n      and\n        /* \"contracts/LuckyRedEnvelope.sol\":10508:10553  _redEnvelopes[_id].status == Status.Claimable */\n      0x03\n      dup2\n      gt\n      iszero\n      tag_217\n      jumpi\n      tag_218\n      tag_97\n      jump\t// in\n    tag_218:\n    tag_217:\n      eq\n        /* \"contracts/LuckyRedEnvelope.sol\":10500:10583  require(_redEnvelopes[_id].status == Status.Claimable, \"RedEnvelope not claimable\") */\n      tag_219\n      jumpi\n      mload(0x40)\n      0x08c379a000000000000000000000000000000000000000000000000000000000\n      dup2\n      mstore\n      0x04\n      add\n      tag_220\n      swap1\n      tag_221\n      jump\t// in\n    tag_220:\n      mload(0x40)\n      dup1\n      swap2\n      sub\n      swap1\n      revert\n    tag_219:\n        /* \"contracts/LuckyRedEnvelope.sol\":10634:10639  false */\n      0x00\n        /* \"contracts/LuckyRedEnvelope.sol\":10602:10639  _redEnvelopes[_id].autoClaim == false */\n      iszero\n      iszero\n        /* \"contracts/LuckyRedEnvelope.sol\":10602:10615  _redEnvelopes */\n      0x07\n        /* \"contracts/LuckyRedEnvelope.sol\":10602:10620  _redEnvelopes[_id] */\n      0x00\n        /* \"contracts/LuckyRedEnvelope.sol\":10616:10619  _id */\n      dup4\n        /* \"contracts/LuckyRedEnvelope.sol\":10602:10620  _redEnvelopes[_id] */\n      dup2\n      mstore\n      0x20\n      add\n      swap1\n      dup2\n      mstore\n      0x20\n      add\n      0x00\n      keccak256\n        /* \"contracts/LuckyRedEnvelope.sol\":10602:10630  _redEnvelopes[_id].autoClaim */\n      0x08\n      add\n      0x00\n      swap1\n      sload\n      swap1\n      0x0100\n      exp\n      swap1\n      div\n      0xff\n      and\n        /* \"contracts/LuckyRedEnvelope.sol\":10602:10639  _redEnvelopes[_id].autoClaim == false */\n      iszero\n      iszero\n      eq\n        /* \"contracts/LuckyRedEnvelope.sol\":10594:10666  require(_redEnvelopes[_id].autoClaim == false, \"RedEnvelope auto claim\") */\n      tag_222\n      jumpi\n      mload(0x40)\n      0x08c379a000000000000000000000000000000000000000000000000000000000\n      dup2\n      mstore\n      0x04\n      add\n      tag_223\n      swap1\n      tag_224\n      jump\t// in\n    tag_223:\n      mload(0x40)\n      dup1\n      swap2\n      sub\n      swap1\n      revert\n    tag_222:\n        /* \"contracts/LuckyRedEnvelope.sol\":10677:10713  _claimPrize(_id,address(msg.sender)) */\n      tag_225\n        /* \"contracts/LuckyRedEnvelope.sol\":10689:10692  _id */\n      dup2\n        /* \"contracts/LuckyRedEnvelope.sol\":10701:10711  msg.sender */\n      caller\n        /* \"contracts/LuckyRedEnvelope.sol\":10677:10688  _claimPrize */\n      tag_180\n        /* \"contracts/LuckyRedEnvelope.sol\":10677:10713  _claimPrize(_id,address(msg.sender)) */\n      jump\t// in\n    tag_225:\n        /* \"@openzeppelin/contracts/utils/ReentrancyGuard.sol\":2398:2418  _nonReentrantAfter() */\n      tag_226\n        /* \"@openzeppelin/contracts/utils/ReentrancyGuard.sol\":2398:2416  _nonReentrantAfter */\n      tag_111\n        /* \"@openzeppelin/contracts/utils/ReentrancyGuard.sol\":2398:2418  _nonReentrantAfter() */\n      jump\t// in\n    tag_226:\n        /* \"contracts/LuckyRedEnvelope.sol\":10436:10721  function claimPrize(uint256 _id)external nonReentrant{... */\n      pop\n      jump\t// out\n        /* \"contracts/LuckyRedEnvelope.sol\":471:495  uint256 public currentId */\n    tag_76:\n      sload(0x04)\n      dup2\n      jump\t// out\n        /* \"@openzeppelin/contracts/access/Ownable.sol\":2543:2758  function transferOwnership(address newOwner) public virtual onlyOwner {... */\n    tag_80:\n        /* \"@openzeppelin/contracts/access/Ownable.sol\":1531:1544  _checkOwner() */\n      tag_228\n        /* \"@openzeppelin/contracts/access/Ownable.sol\":1531:1542  _checkOwner */\n      tag_114\n        /* \"@openzeppelin/contracts/access/Ownable.sol\":1531:1544  _checkOwner() */\n      jump\t// in\n    tag_228:\n        /* \"@openzeppelin/contracts/access/Ownable.sol\":2647:2648  0 */\n      0x00\n        /* \"@openzeppelin/contracts/access/Ownable.sol\":2627:2649  newOwner == address(0) */\n      0xffffffffffffffffffffffffffffffffffffffff\n      and\n        /* \"@openzeppelin/contracts/access/Ownable.sol\":2627:2635  newOwner */\n      dup2\n        /* \"@openzeppelin/contracts/access/Ownable.sol\":2627:2649  newOwner == address(0) */\n      0xffffffffffffffffffffffffffffffffffffffff\n      and\n      sub\n        /* \"@openzeppelin/contracts/access/Ownable.sol\":2623:2714  if (newOwner == address(0)) {... */\n      tag_230\n      jumpi\n        /* \"@openzeppelin/contracts/access/Ownable.sol\":2700:2701  0 */\n      0x00\n        /* \"@openzeppelin/contracts/access/Ownable.sol\":2672:2703  OwnableInvalidOwner(address(0)) */\n      mload(0x40)\n      0x1e4fbdf700000000000000000000000000000000000000000000000000000000\n      dup2\n      mstore\n      0x04\n      add\n      tag_231\n      swap2\n      swap1\n      tag_30\n      jump\t// in\n    tag_231:\n      mload(0x40)\n      dup1\n      swap2\n      sub\n      swap1\n      revert\n        /* \"@openzeppelin/contracts/access/Ownable.sol\":2623:2714  if (newOwner == address(0)) {... */\n    tag_230:\n        /* \"@openzeppelin/contracts/access/Ownable.sol\":2723:2751  _transferOwnership(newOwner) */\n      tag_232\n        /* \"@openzeppelin/contracts/access/Ownable.sol\":2742:2750  newOwner */\n      dup2\n        /* \"@openzeppelin/contracts/access/Ownable.sol\":2723:2741  _transferOwnership */\n      tag_149\n        /* \"@openzeppelin/contracts/access/Ownable.sol\":2723:2751  _transferOwnership(newOwner) */\n      jump\t// in\n    tag_232:\n        /* \"@openzeppelin/contracts/access/Ownable.sol\":2543:2758  function transferOwnership(address newOwner) public virtual onlyOwner {... */\n      pop\n      jump\t// out\n        /* \"contracts/LuckyRedEnvelope.sol\":3631:3826  function setDefaultAutoClaim(bool _defaultAutoClaim) external onlyOperator{... */\n    tag_84:\n        /* \"contracts/LuckyRedEnvelope.sol\":1550:1565  operatorAddress */\n      0x03\n      0x00\n      swap1\n      sload\n      swap1\n      0x0100\n      exp\n      swap1\n      div\n      0xffffffffffffffffffffffffffffffffffffffff\n      and\n        /* \"contracts/LuckyRedEnvelope.sol\":1536:1565  msg.sender == operatorAddress */\n      0xffffffffffffffffffffffffffffffffffffffff\n      and\n        /* \"contracts/LuckyRedEnvelope.sol\":1536:1546  msg.sender */\n      caller\n        /* \"contracts/LuckyRedEnvelope.sol\":1536:1565  msg.sender == operatorAddress */\n      0xffffffffffffffffffffffffffffffffffffffff\n      and\n      eq\n        /* \"contracts/LuckyRedEnvelope.sol\":1528:1582  require(msg.sender == operatorAddress, \"Not operator\") */\n      tag_234\n      jumpi\n      mload(0x40)\n      0x08c379a000000000000000000000000000000000000000000000000000000000\n      dup2\n      mstore\n      0x04\n      add\n      tag_235\n      swap1\n      tag_88\n      jump\t// in\n    tag_235:\n      mload(0x40)\n      dup1\n      swap2\n      sub\n      swap1\n      revert\n    tag_234:\n        /* \"contracts/LuckyRedEnvelope.sol\":3735:3752  _defaultAutoClaim */\n      dup1\n        /* \"contracts/LuckyRedEnvelope.sol\":3716:3732  defaultAutoClaim */\n      0x05\n      0x00\n        /* \"contracts/LuckyRedEnvelope.sol\":3716:3752  defaultAutoClaim = _defaultAutoClaim */\n      0x0100\n      exp\n      dup2\n      sload\n      dup2\n      0xff\n      mul\n      not\n      and\n      swap1\n      dup4\n      iszero\n      iszero\n      mul\n      or\n      swap1\n      sstore\n      pop\n        /* \"contracts/LuckyRedEnvelope.sol\":3768:3818  DefaultChange(defaultTicketPirce,defaultAutoClaim) */\n      0xc3435e6f125b97d066c02f1f15acf6cf069a6c49878698d84841ef11288e1d79\n        /* \"contracts/LuckyRedEnvelope.sol\":3782:3800  defaultTicketPirce */\n      sload(0x06)\n        /* \"contracts/LuckyRedEnvelope.sol\":3801:3817  defaultAutoClaim */\n      0x05\n      0x00\n      swap1\n      sload\n      swap1\n      0x0100\n      exp\n      swap1\n      div\n      0xff\n      and\n        /* \"contracts/LuckyRedEnvelope.sol\":3768:3818  DefaultChange(defaultTicketPirce,defaultAutoClaim) */\n      mload(0x40)\n      tag_237\n      swap3\n      swap2\n      swap1\n      tag_144\n      jump\t// in\n    tag_237:\n      mload(0x40)\n      dup1\n      swap2\n      sub\n      swap1\n      log1\n        /* \"contracts/LuckyRedEnvelope.sol\":3631:3826  function setDefaultAutoClaim(bool _defaultAutoClaim) external onlyOperator{... */\n      pop\n      jump\t// out\n        /* \"@openzeppelin/contracts/utils/ReentrancyGuard.sol\":2431:2738  function _nonReentrantBefore() private {... */\n    tag_91:\n        /* \"@openzeppelin/contracts/utils/ReentrancyGuard.sol\":1755:1756  2 */\n      0x02\n        /* \"@openzeppelin/contracts/utils/ReentrancyGuard.sol\":2558:2565  _status */\n      sload(0x00)\n        /* \"@openzeppelin/contracts/utils/ReentrancyGuard.sol\":2558:2576  _status == ENTERED */\n      sub\n        /* \"@openzeppelin/contracts/utils/ReentrancyGuard.sol\":2554:2640  if (_status == ENTERED) {... */\n      tag_239\n      jumpi\n        /* \"@openzeppelin/contracts/utils/ReentrancyGuard.sol\":2599:2629  ReentrancyGuardReentrantCall() */\n      mload(0x40)\n      0x3ee5aeb500000000000000000000000000000000000000000000000000000000\n      dup2\n      mstore\n      0x04\n      add\n      mload(0x40)\n      dup1\n      swap2\n      sub\n      swap1\n      revert\n        /* \"@openzeppelin/contracts/utils/ReentrancyGuard.sol\":2554:2640  if (_status == ENTERED) {... */\n    tag_239:\n        /* \"@openzeppelin/contracts/utils/ReentrancyGuard.sol\":1755:1756  2 */\n      0x02\n        /* \"@openzeppelin/contracts/utils/ReentrancyGuard.sol\":2714:2721  _status */\n      0x00\n        /* \"@openzeppelin/contracts/utils/ReentrancyGuard.sol\":2714:2731  _status = ENTERED */\n      dup2\n      swap1\n      sstore\n      pop\n        /* \"@openzeppelin/contracts/utils/ReentrancyGuard.sol\":2431:2738  function _nonReentrantBefore() private {... */\n      jump\t// out\n        /* \"@openzeppelin/contracts/token/ERC20/utils/SafeERC20.sol\":1702:1890  function safeTransferFrom(IERC20 token, address from, address to, uint256 value) internal {... */\n    tag_106:\n        /* \"@openzeppelin/contracts/token/ERC20/utils/SafeERC20.sol\":1802:1883  _callOptionalReturn(token, abi.encodeCall(token.transferFrom, (from, to, value))) */\n      tag_241\n        /* \"@openzeppelin/contracts/token/ERC20/utils/SafeERC20.sol\":1822:1827  token */\n      dup5\n        /* \"@openzeppelin/contracts/token/ERC20/utils/SafeERC20.sol\":1844:1849  token */\n      dup6\n        /* \"@openzeppelin/contracts/token/ERC20/utils/SafeERC20.sol\":1844:1862  token.transferFrom */\n      0xffffffffffffffffffffffffffffffffffffffff\n      and\n      0x23b872dd\n        /* \"@openzeppelin/contracts/token/ERC20/utils/SafeERC20.sol\":1865:1869  from */\n      dup7\n        /* \"@openzeppelin/contracts/token/ERC20/utils/SafeERC20.sol\":1871:1873  to */\n      dup7\n        /* \"@openzeppelin/contracts/token/ERC20/utils/SafeERC20.sol\":1875:1880  value */\n      dup7\n        /* \"@openzeppelin/contracts/token/ERC20/utils/SafeERC20.sol\":1829:1882  abi.encodeCall(token.transferFrom, (from, to, value)) */\n      add(0x24, mload(0x40))\n      tag_242\n      swap4\n      swap3\n      swap2\n      swap1\n      tag_243\n      jump\t// in\n    tag_242:\n      mload(0x40)\n      0x20\n      dup2\n      dup4\n      sub\n      sub\n      dup2\n      mstore\n      swap1\n      0x40\n      mstore\n      swap2\n      pop\n      0xe0\n      shl\n      0x20\n      dup3\n      add\n      dup1\n      mload\n      0xffffffffffffffffffffffffffffffffffffffffffffffffffffffff\n      dup4\n      dup2\n      dup4\n      and\n      or\n      dup4\n      mstore\n      pop\n      pop\n      pop\n      pop\n        /* \"@openzeppelin/contracts/token/ERC20/utils/SafeERC20.sol\":1802:1821  _callOptionalReturn */\n      tag_244\n        /* \"@openzeppelin/contracts/token/ERC20/utils/SafeERC20.sol\":1802:1883  _callOptionalReturn(token, abi.encodeCall(token.transferFrom, (from, to, value))) */\n      jump\t// in\n    tag_241:\n        /* \"@openzeppelin/contracts/token/ERC20/utils/SafeERC20.sol\":1702:1890  function safeTransferFrom(IERC20 token, address from, address to, uint256 value) internal {... */\n      pop\n      pop\n      pop\n      pop\n      jump\t// out\n        /* \"@openzeppelin/contracts/utils/ReentrancyGuard.sol\":2744:2952  function _nonReentrantAfter() private {... */\n    tag_111:\n        /* \"@openzeppelin/contracts/utils/ReentrancyGuard.sol\":1713:1714  1 */\n      0x01\n        /* \"@openzeppelin/contracts/utils/ReentrancyGuard.sol\":2924:2931  _status */\n      0x00\n        /* \"@openzeppelin/contracts/utils/ReentrancyGuard.sol\":2924:2945  _status = NOT_ENTERED */\n      dup2\n      swap1\n      sstore\n      pop\n        /* \"@openzeppelin/contracts/utils/ReentrancyGuard.sol\":2744:2952  function _nonReentrantAfter() private {... */\n      jump\t// out\n        /* \"@openzeppelin/contracts/access/Ownable.sol\":1796:1958  function _checkOwner() internal view virtual {... */\n    tag_114:\n        /* \"@openzeppelin/contracts/access/Ownable.sol\":1866:1878  _msgSender() */\n      tag_247\n        /* \"@openzeppelin/contracts/access/Ownable.sol\":1866:1876  _msgSender */\n      tag_248\n        /* \"@openzeppelin/contracts/access/Ownable.sol\":1866:1878  _msgSender() */\n      jump\t// in\n    tag_247:\n        /* \"@openzeppelin/contracts/access/Ownable.sol\":1855:1878  owner() != _msgSender() */\n      0xffffffffffffffffffffffffffffffffffffffff\n      and\n        /* \"@openzeppelin/contracts/access/Ownable.sol\":1855:1862  owner() */\n      tag_249\n        /* \"@openzeppelin/contracts/access/Ownable.sol\":1855:1860  owner */\n      tag_54\n        /* \"@openzeppelin/contracts/access/Ownable.sol\":1855:1862  owner() */\n      jump\t// in\n    tag_249:\n        /* \"@openzeppelin/contracts/access/Ownable.sol\":1855:1878  owner() != _msgSender() */\n      0xffffffffffffffffffffffffffffffffffffffff\n      and\n      eq\n        /* \"@openzeppelin/contracts/access/Ownable.sol\":1851:1952  if (owner() != _msgSender()) {... */\n      tag_250\n      jumpi\n        /* \"@openzeppelin/contracts/access/Ownable.sol\":1928:1940  _msgSender() */\n      tag_251\n        /* \"@openzeppelin/contracts/access/Ownable.sol\":1928:1938  _msgSender */\n      tag_248\n        /* \"@openzeppelin/contracts/access/Ownable.sol\":1928:1940  _msgSender() */\n      jump\t// in\n    tag_251:\n        /* \"@openzeppelin/contracts/access/Ownable.sol\":1901:1941  OwnableUnauthorizedAccount(_msgSender()) */\n      mload(0x40)\n      0x118cdaa700000000000000000000000000000000000000000000000000000000\n      dup2\n      mstore\n      0x04\n      add\n      tag_252\n      swap2\n      swap1\n      tag_30\n      jump\t// in\n    tag_252:\n      mload(0x40)\n      dup1\n      swap2\n      sub\n      swap1\n      revert\n        /* \"@openzeppelin/contracts/access/Ownable.sol\":1851:1952  if (owner() != _msgSender()) {... */\n    tag_250:\n        /* \"@openzeppelin/contracts/access/Ownable.sol\":1796:1958  function _checkOwner() internal view virtual {... */\n      jump\t// out\n        /* \"@openzeppelin/contracts/access/Ownable.sol\":2912:3099  function _transferOwnership(address newOwner) internal virtual {... */\n    tag_149:\n        /* \"@openzeppelin/contracts/access/Ownable.sol\":2985:3001  address oldOwner */\n      0x00\n        /* \"@openzeppelin/contracts/access/Ownable.sol\":3004:3010  _owner */\n      0x01\n      0x00\n      swap1\n      sload\n      swap1\n      0x0100\n      exp\n      swap1\n      div\n      0xffffffffffffffffffffffffffffffffffffffff\n      and\n        /* \"@openzeppelin/contracts/access/Ownable.sol\":2985:3010  address oldOwner = _owner */\n      swap1\n      pop\n        /* \"@openzeppelin/contracts/access/Ownable.sol\":3029:3037  newOwner */\n      dup2\n        /* \"@openzeppelin/contracts/access/Ownable.sol\":3020:3026  _owner */\n      0x01\n      0x00\n        /* \"@openzeppelin/contracts/access/Ownable.sol\":3020:3037  _owner = newOwner */\n      0x0100\n      exp\n      dup2\n      sload\n      dup2\n      0xffffffffffffffffffffffffffffffffffffffff\n      mul\n      not\n      and\n      swap1\n      dup4\n      0xffffffffffffffffffffffffffffffffffffffff\n      and\n      mul\n      or\n      swap1\n      sstore\n      pop\n        /* \"@openzeppelin/contracts/access/Ownable.sol\":3083:3091  newOwner */\n      dup2\n        /* \"@openzeppelin/contracts/access/Ownable.sol\":3052:3092  OwnershipTransferred(oldOwner, newOwner) */\n      0xffffffffffffffffffffffffffffffffffffffff\n      and\n        /* \"@openzeppelin/contracts/access/Ownable.sol\":3073:3081  oldOwner */\n      dup2\n        /* \"@openzeppelin/contracts/access/Ownable.sol\":3052:3092  OwnershipTransferred(oldOwner, newOwner) */\n      0xffffffffffffffffffffffffffffffffffffffff\n      and\n      0x8be0079c531659141344cd1fd0a4f28419497f9722a3daafe3b4186f6b6457e0\n      mload(0x40)\n      mload(0x40)\n      dup1\n      swap2\n      sub\n      swap1\n      log3\n        /* \"@openzeppelin/contracts/access/Ownable.sol\":2975:3099  {... */\n      pop\n        /* \"@openzeppelin/contracts/access/Ownable.sol\":2912:3099  function _transferOwnership(address newOwner) internal virtual {... */\n      pop\n      jump\t// out\n        /* \"contracts/LuckyRedEnvelope.sol\":9820:10428  function _getSortRandoms(uint256 _seed,uint256 _num,uint256 _range) internal pure returns(uint256[] memory){... */\n    tag_171:\n        /* \"contracts/LuckyRedEnvelope.sol\":9910:9926  uint256[] memory */\n      0x60\n        /* \"contracts/LuckyRedEnvelope.sol\":9938:9962  uint256[] memory randons */\n      0x00\n        /* \"contracts/LuckyRedEnvelope.sol\":9979:9983  _num */\n      dup4\n        /* \"contracts/LuckyRedEnvelope.sol\":9965:9984  new uint256[](_num) */\n      0xffffffffffffffff\n      dup2\n      gt\n      iszero\n      tag_255\n      jumpi\n      tag_256\n      tag_257\n      jump\t// in\n    tag_256:\n    tag_255:\n      mload(0x40)\n      swap1\n      dup1\n      dup3\n      mstore\n      dup1\n      0x20\n      mul\n      0x20\n      add\n      dup3\n      add\n      0x40\n      mstore\n      dup1\n      iszero\n      tag_258\n      jumpi\n      dup2\n      0x20\n      add\n      0x20\n      dup3\n      mul\n      dup1\n      calldatasize\n      dup4\n      calldatacopy\n      dup1\n      dup3\n      add\n      swap2\n      pop\n      pop\n      swap1\n      pop\n    tag_258:\n      pop\n        /* \"contracts/LuckyRedEnvelope.sol\":9938:9984  uint256[] memory randons = new uint256[](_num) */\n      swap1\n      pop\n        /* \"contracts/LuckyRedEnvelope.sol\":9995:10007  uint256 seed */\n      0x00\n        /* \"contracts/LuckyRedEnvelope.sol\":10010:10015  _seed */\n      dup6\n        /* \"contracts/LuckyRedEnvelope.sol\":9995:10015  uint256 seed = _seed */\n      swap1\n      pop\n        /* \"contracts/LuckyRedEnvelope.sol\":10031:10040  uint256 i */\n      0x00\n        /* \"contracts/LuckyRedEnvelope.sol\":10026:10361  for (uint256 i = 0; i < _num - 1; i++){... */\n    tag_259:\n        /* \"contracts/LuckyRedEnvelope.sol\":10057:10058  1 */\n      0x01\n        /* \"contracts/LuckyRedEnvelope.sol\":10050:10054  _num */\n      dup7\n        /* \"contracts/LuckyRedEnvelope.sol\":10050:10058  _num - 1 */\n      tag_262\n      swap2\n      swap1\n      tag_263\n      jump\t// in\n    tag_262:\n        /* \"contracts/LuckyRedEnvelope.sol\":10046:10047  i */\n      dup2\n        /* \"contracts/LuckyRedEnvelope.sol\":10046:10058  i < _num - 1 */\n      lt\n        /* \"contracts/LuckyRedEnvelope.sol\":10026:10361  for (uint256 i = 0; i < _num - 1; i++){... */\n      iszero\n      tag_260\n      jumpi\n        /* \"contracts/LuckyRedEnvelope.sol\":10086:10107  _deriveRandom(seed,i) */\n      tag_264\n        /* \"contracts/LuckyRedEnvelope.sol\":10100:10104  seed */\n      dup3\n        /* \"contracts/LuckyRedEnvelope.sol\":10105:10106  i */\n      dup3\n        /* \"contracts/LuckyRedEnvelope.sol\":10086:10099  _deriveRandom */\n      tag_265\n        /* \"contracts/LuckyRedEnvelope.sol\":10086:10107  _deriveRandom(seed,i) */\n      jump\t// in\n    tag_264:\n        /* \"contracts/LuckyRedEnvelope.sol\":10079:10107  seed = _deriveRandom(seed,i) */\n      swap2\n      pop\n        /* \"contracts/LuckyRedEnvelope.sol\":10122:10135  uint256 value */\n      0x00\n        /* \"contracts/LuckyRedEnvelope.sol\":10145:10151  _range */\n      dup6\n        /* \"contracts/LuckyRedEnvelope.sol\":10138:10142  seed */\n      dup4\n        /* \"contracts/LuckyRedEnvelope.sol\":10138:10151  seed % _range */\n      tag_266\n      swap2\n      swap1\n      tag_267\n      jump\t// in\n    tag_266:\n        /* \"contracts/LuckyRedEnvelope.sol\":10122:10151  uint256 value = seed % _range */\n      swap1\n      pop\n        /* \"contracts/LuckyRedEnvelope.sol\":10166:10175  uint256 j */\n      0x00\n        /* \"contracts/LuckyRedEnvelope.sol\":10178:10179  i */\n      dup3\n        /* \"contracts/LuckyRedEnvelope.sol\":10166:10179  uint256 j = i */\n      swap1\n      pop\n        /* \"contracts/LuckyRedEnvelope.sol\":10194:10317  while((j >= 1) && value < randons[j - 1]){... */\n    tag_268:\n        /* \"contracts/LuckyRedEnvelope.sol\":10206:10207  1 */\n      0x01\n        /* \"contracts/LuckyRedEnvelope.sol\":10201:10202  j */\n      dup2\n        /* \"contracts/LuckyRedEnvelope.sol\":10201:10207  j >= 1 */\n      lt\n      iszero\n        /* \"contracts/LuckyRedEnvelope.sol\":10200:10234  (j >= 1) && value < randons[j - 1] */\n      dup1\n      iszero\n      tag_270\n      jumpi\n      pop\n        /* \"contracts/LuckyRedEnvelope.sol\":10220:10227  randons */\n      dup5\n        /* \"contracts/LuckyRedEnvelope.sol\":10232:10233  1 */\n      0x01\n        /* \"contracts/LuckyRedEnvelope.sol\":10228:10229  j */\n      dup3\n        /* \"contracts/LuckyRedEnvelope.sol\":10228:10233  j - 1 */\n      tag_271\n      swap2\n      swap1\n      tag_263\n      jump\t// in\n    tag_271:\n        /* \"contracts/LuckyRedEnvelope.sol\":10220:10234  randons[j - 1] */\n      dup2\n      mload\n      dup2\n      lt\n      tag_272\n      jumpi\n      tag_273\n      tag_274\n      jump\t// in\n    tag_273:\n    tag_272:\n      0x20\n      mul\n      0x20\n      add\n      add\n      mload\n        /* \"contracts/LuckyRedEnvelope.sol\":10212:10217  value */\n      dup3\n        /* \"contracts/LuckyRedEnvelope.sol\":10212:10234  value < randons[j - 1] */\n      lt\n        /* \"contracts/LuckyRedEnvelope.sol\":10200:10234  (j >= 1) && value < randons[j - 1] */\n    tag_270:\n        /* \"contracts/LuckyRedEnvelope.sol\":10194:10317  while((j >= 1) && value < randons[j - 1]){... */\n      iszero\n      tag_269\n      jumpi\n        /* \"contracts/LuckyRedEnvelope.sol\":10267:10274  randons */\n      dup5\n        /* \"contracts/LuckyRedEnvelope.sol\":10277:10278  1 */\n      0x01\n        /* \"contracts/LuckyRedEnvelope.sol\":10275:10276  j */\n      dup3\n        /* \"contracts/LuckyRedEnvelope.sol\":10275:10278  j-1 */\n      tag_275\n      swap2\n      swap1\n      tag_263\n      jump\t// in\n    tag_275:\n        /* \"contracts/LuckyRedEnvelope.sol\":10267:10279  randons[j-1] */\n      dup2\n      mload\n      dup2\n      lt\n      tag_276\n      jumpi\n      tag_277\n      tag_274\n      jump\t// in\n    tag_277:\n    tag_276:\n      0x20\n      mul\n      0x20\n      add\n      add\n      mload\n        /* \"contracts/LuckyRedEnvelope.sol\":10254:10261  randons */\n      dup6\n        /* \"contracts/LuckyRedEnvelope.sol\":10262:10263  j */\n      dup3\n        /* \"contracts/LuckyRedEnvelope.sol\":10254:10264  randons[j] */\n      dup2\n      mload\n      dup2\n      lt\n      tag_278\n      jumpi\n      tag_279\n      tag_274\n      jump\t// in\n    tag_279:\n    tag_278:\n      0x20\n      mul\n      0x20\n      add\n      add\n        /* \"contracts/LuckyRedEnvelope.sol\":10254:10279  randons[j] = randons[j-1] */\n      dup2\n      dup2\n      mstore\n      pop\n      pop\n        /* \"contracts/LuckyRedEnvelope.sol\":10298:10301  j-- */\n      dup1\n      dup1\n      tag_280\n      swap1\n      tag_281\n      jump\t// in\n    tag_280:\n      swap2\n      pop\n      pop\n        /* \"contracts/LuckyRedEnvelope.sol\":10194:10317  while((j >= 1) && value < randons[j - 1]){... */\n      jump(tag_268)\n    tag_269:\n        /* \"contracts/LuckyRedEnvelope.sol\":10344:10349  value */\n      dup2\n        /* \"contracts/LuckyRedEnvelope.sol\":10331:10338  randons */\n      dup6\n        /* \"contracts/LuckyRedEnvelope.sol\":10339:10340  j */\n      dup3\n        /* \"contracts/LuckyRedEnvelope.sol\":10331:10341  randons[j] */\n      dup2\n      mload\n      dup2\n      lt\n      tag_282\n      jumpi\n      tag_283\n      tag_274\n      jump\t// in\n    tag_283:\n    tag_282:\n      0x20\n      mul\n      0x20\n      add\n      add\n        /* \"contracts/LuckyRedEnvelope.sol\":10331:10349  randons[j] = value */\n      dup2\n      dup2\n      mstore\n      pop\n      pop\n        /* \"contracts/LuckyRedEnvelope.sol\":10064:10361  {... */\n      pop\n      pop\n        /* \"contracts/LuckyRedEnvelope.sol\":10060:10063  i++ */\n      dup1\n      dup1\n      0x01\n      add\n      swap2\n      pop\n      pop\n        /* \"contracts/LuckyRedEnvelope.sol\":10026:10361  for (uint256 i = 0; i < _num - 1; i++){... */\n      jump(tag_259)\n    tag_260:\n      pop\n        /* \"contracts/LuckyRedEnvelope.sol\":10389:10395  _range */\n      dup4\n        /* \"contracts/LuckyRedEnvelope.sol\":10371:10378  randons */\n      dup3\n        /* \"contracts/LuckyRedEnvelope.sol\":10384:10385  1 */\n      0x01\n        /* \"contracts/LuckyRedEnvelope.sol\":10379:10383  _num */\n      dup8\n        /* \"contracts/LuckyRedEnvelope.sol\":10379:10385  _num-1 */\n      tag_284\n      swap2\n      swap1\n      tag_263\n      jump\t// in\n    tag_284:\n        /* \"contracts/LuckyRedEnvelope.sol\":10371:10386  randons[_num-1] */\n      dup2\n      mload\n      dup2\n      lt\n      tag_285\n      jumpi\n      tag_286\n      tag_274\n      jump\t// in\n    tag_286:\n    tag_285:\n      0x20\n      mul\n      0x20\n      add\n      add\n        /* \"contracts/LuckyRedEnvelope.sol\":10371:10395  randons[_num-1] = _range */\n      dup2\n      dup2\n      mstore\n      pop\n      pop\n        /* \"contracts/LuckyRedEnvelope.sol\":10413:10420  randons */\n      dup2\n        /* \"contracts/LuckyRedEnvelope.sol\":10406:10420  return randons */\n      swap3\n      pop\n      pop\n      pop\n        /* \"contracts/LuckyRedEnvelope.sol\":9820:10428  function _getSortRandoms(uint256 _seed,uint256 _num,uint256 _range) internal pure returns(uint256[] memory){... */\n      swap4\n      swap3\n      pop\n      pop\n      pop\n      jump\t// out\n        /* \"contracts/LuckyRedEnvelope.sol\":8678:9275  function _calculatePrize(uint256 _id,uint256[] memory _randoms)internal{... */\n    tag_173:\n        /* \"contracts/LuckyRedEnvelope.sol\":8808:8831  uint256 totalSendAmount */\n      0x00\n        /* \"contracts/LuckyRedEnvelope.sol\":8851:8860  uint256 i */\n      dup1\n        /* \"contracts/LuckyRedEnvelope.sol\":8846:9268  for (uint256 i = 0; i < _redEnvelopes[_id].userTickets; i++){... */\n    tag_288:\n        /* \"contracts/LuckyRedEnvelope.sol\":8870:8883  _redEnvelopes */\n      0x07\n        /* \"contracts/LuckyRedEnvelope.sol\":8870:8888  _redEnvelopes[_id] */\n      0x00\n        /* \"contracts/LuckyRedEnvelope.sol\":8884:8887  _id */\n      dup6\n        /* \"contracts/LuckyRedEnvelope.sol\":8870:8888  _redEnvelopes[_id] */\n      dup2\n      mstore\n      0x20\n      add\n      swap1\n      dup2\n      mstore\n      0x20\n      add\n      0x00\n      keccak256\n        /* \"contracts/LuckyRedEnvelope.sol\":8870:8900  _redEnvelopes[_id].userTickets */\n      0x04\n      add\n      sload\n        /* \"contracts/LuckyRedEnvelope.sol\":8866:8867  i */\n      dup2\n        /* \"contracts/LuckyRedEnvelope.sol\":8866:8900  i < _redEnvelopes[_id].userTickets */\n      lt\n        /* \"contracts/LuckyRedEnvelope.sol\":8846:9268  for (uint256 i = 0; i < _redEnvelopes[_id].userTickets; i++){... */\n      iszero\n      tag_289\n      jumpi\n        /* \"contracts/LuckyRedEnvelope.sol\":8921:8938  uint256 sendValue */\n      0x00\n        /* \"contracts/LuckyRedEnvelope.sol\":8955:8970  totalSendAmount */\n      dup3\n        /* \"contracts/LuckyRedEnvelope.sol\":8941:8949  _randoms */\n      dup5\n        /* \"contracts/LuckyRedEnvelope.sol\":8950:8951  i */\n      dup4\n        /* \"contracts/LuckyRedEnvelope.sol\":8941:8952  _randoms[i] */\n      dup2\n      mload\n      dup2\n      lt\n      tag_291\n      jumpi\n      tag_292\n      tag_274\n      jump\t// in\n    tag_292:\n    tag_291:\n      0x20\n      mul\n      0x20\n      add\n      add\n      mload\n        /* \"contracts/LuckyRedEnvelope.sol\":8941:8970  _randoms[i] - totalSendAmount */\n      tag_293\n      swap2\n      swap1\n      tag_263\n      jump\t// in\n    tag_293:\n        /* \"contracts/LuckyRedEnvelope.sol\":8921:8970  uint256 sendValue = _randoms[i] - totalSendAmount */\n      swap1\n      pop\n        /* \"contracts/LuckyRedEnvelope.sol\":8999:9022  address _receiveAddress */\n      0x00\n        /* \"contracts/LuckyRedEnvelope.sol\":9025:9033  _tickets */\n      0x08\n        /* \"contracts/LuckyRedEnvelope.sol\":9025:9038  _tickets[_id] */\n      0x00\n        /* \"contracts/LuckyRedEnvelope.sol\":9034:9037  _id */\n      dup8\n        /* \"contracts/LuckyRedEnvelope.sol\":9025:9038  _tickets[_id] */\n      dup2\n      mstore\n      0x20\n      add\n      swap1\n      dup2\n      mstore\n      0x20\n      add\n      0x00\n      keccak256\n        /* \"contracts/LuckyRedEnvelope.sol\":9025:9041  _tickets[_id][i] */\n      0x00\n        /* \"contracts/LuckyRedEnvelope.sol\":9039:9040  i */\n      dup5\n        /* \"contracts/LuckyRedEnvelope.sol\":9025:9041  _tickets[_id][i] */\n      dup2\n      mstore\n      0x20\n      add\n      swap1\n      dup2\n      mstore\n      0x20\n      add\n      0x00\n      keccak256\n        /* \"contracts/LuckyRedEnvelope.sol\":9025:9056  _tickets[_id][i].receiveAddress */\n      0x01\n      add\n      0x00\n      swap1\n      sload\n      swap1\n      0x0100\n      exp\n      swap1\n      div\n      0xffffffffffffffffffffffffffffffffffffffff\n      and\n        /* \"contracts/LuckyRedEnvelope.sol\":8999:9056  address _receiveAddress = _tickets[_id][i].receiveAddress */\n      swap1\n      pop\n        /* \"contracts/LuckyRedEnvelope.sol\":9107:9108  i */\n      dup3\n        /* \"contracts/LuckyRedEnvelope.sol\":9091:9106  _receiveAddress */\n      dup2\n        /* \"contracts/LuckyRedEnvelope.sol\":9076:9148  PrizeDrawn(_id,_receiveAddress,i,sendValue,_redEnvelopes[_id].autoClaim) */\n      0xffffffffffffffffffffffffffffffffffffffff\n      and\n        /* \"contracts/LuckyRedEnvelope.sol\":9087:9090  _id */\n      dup8\n        /* \"contracts/LuckyRedEnvelope.sol\":9076:9148  PrizeDrawn(_id,_receiveAddress,i,sendValue,_redEnvelopes[_id].autoClaim) */\n      0x927546e38b674f5e5dff7edce9c7afdcf21a35ac03ba70fe8e341f61f2c73ded\n        /* \"contracts/LuckyRedEnvelope.sol\":9109:9118  sendValue */\n      dup6\n        /* \"contracts/LuckyRedEnvelope.sol\":9119:9132  _redEnvelopes */\n      0x07\n        /* \"contracts/LuckyRedEnvelope.sol\":9119:9137  _redEnvelopes[_id] */\n      0x00\n        /* \"contracts/LuckyRedEnvelope.sol\":9133:9136  _id */\n      dup13\n        /* \"contracts/LuckyRedEnvelope.sol\":9119:9137  _redEnvelopes[_id] */\n      dup2\n      mstore\n      0x20\n      add\n      swap1\n      dup2\n      mstore\n      0x20\n      add\n      0x00\n      keccak256\n        /* \"contracts/LuckyRedEnvelope.sol\":9119:9147  _redEnvelopes[_id].autoClaim */\n      0x08\n      add\n      0x00\n      swap1\n      sload\n      swap1\n      0x0100\n      exp\n      swap1\n      div\n      0xff\n      and\n        /* \"contracts/LuckyRedEnvelope.sol\":9076:9148  PrizeDrawn(_id,_receiveAddress,i,sendValue,_redEnvelopes[_id].autoClaim) */\n      mload(0x40)\n      tag_294\n      swap3\n      swap2\n      swap1\n      tag_144\n      jump\t// in\n    tag_294:\n      mload(0x40)\n      dup1\n      swap2\n      sub\n      swap1\n      log4\n        /* \"contracts/LuckyRedEnvelope.sol\":9204:9213  sendValue */\n      dup2\n        /* \"contracts/LuckyRedEnvelope.sol\":9163:9178  _amount2claimed */\n      0x0b\n        /* \"contracts/LuckyRedEnvelope.sol\":9163:9183  _amount2claimed[_id] */\n      0x00\n        /* \"contracts/LuckyRedEnvelope.sol\":9179:9182  _id */\n      dup9\n        /* \"contracts/LuckyRedEnvelope.sol\":9163:9183  _amount2claimed[_id] */\n      dup2\n      mstore\n      0x20\n      add\n      swap1\n      dup2\n      mstore\n      0x20\n      add\n      0x00\n      keccak256\n        /* \"contracts/LuckyRedEnvelope.sol\":9163:9200  _amount2claimed[_id][_receiveAddress] */\n      0x00\n        /* \"contracts/LuckyRedEnvelope.sol\":9184:9199  _receiveAddress */\n      dup4\n        /* \"contracts/LuckyRedEnvelope.sol\":9163:9200  _amount2claimed[_id][_receiveAddress] */\n      0xffffffffffffffffffffffffffffffffffffffff\n      and\n      0xffffffffffffffffffffffffffffffffffffffff\n      and\n      dup2\n      mstore\n      0x20\n      add\n      swap1\n      dup2\n      mstore\n      0x20\n      add\n      0x00\n      keccak256\n      0x00\n        /* \"contracts/LuckyRedEnvelope.sol\":9163:9213  _amount2claimed[_id][_receiveAddress] += sendValue */\n      dup3\n      dup3\n      sload\n      tag_295\n      swap2\n      swap1\n      tag_108\n      jump\t// in\n    tag_295:\n      swap3\n      pop\n      pop\n      dup2\n      swap1\n      sstore\n      pop\n        /* \"contracts/LuckyRedEnvelope.sol\":9247:9256  sendValue */\n      dup2\n        /* \"contracts/LuckyRedEnvelope.sol\":9228:9256  totalSendAmount += sendValue */\n      dup5\n      tag_296\n      swap2\n      swap1\n      tag_108\n      jump\t// in\n    tag_296:\n      swap4\n      pop\n        /* \"contracts/LuckyRedEnvelope.sol\":8906:9268  {... */\n      pop\n      pop\n        /* \"contracts/LuckyRedEnvelope.sol\":8902:8905  i++ */\n      dup1\n      dup1\n      0x01\n      add\n      swap2\n      pop\n      pop\n        /* \"contracts/LuckyRedEnvelope.sol\":8846:9268  for (uint256 i = 0; i < _redEnvelopes[_id].userTickets; i++){... */\n      jump(tag_288)\n    tag_289:\n      pop\n        /* \"contracts/LuckyRedEnvelope.sol\":8749:9275  {... */\n      pop\n        /* \"contracts/LuckyRedEnvelope.sol\":8678:9275  function _calculatePrize(uint256 _id,uint256[] memory _randoms)internal{... */\n      pop\n      pop\n      jump\t// out\n        /* \"contracts/LuckyRedEnvelope.sol\":10729:11193  function _claimPrize(uint256 _id,address _winner)internal {... */\n    tag_180:\n        /* \"contracts/LuckyRedEnvelope.sol\":10839:10840  0 */\n      0x00\n        /* \"contracts/LuckyRedEnvelope.sol\":10806:10821  _amount2claimed */\n      0x0b\n        /* \"contracts/LuckyRedEnvelope.sol\":10806:10826  _amount2claimed[_id] */\n      0x00\n        /* \"contracts/LuckyRedEnvelope.sol\":10822:10825  _id */\n      dup5\n        /* \"contracts/LuckyRedEnvelope.sol\":10806:10826  _amount2claimed[_id] */\n      dup2\n      mstore\n      0x20\n      add\n      swap1\n      dup2\n      mstore\n      0x20\n      add\n      0x00\n      keccak256\n        /* \"contracts/LuckyRedEnvelope.sol\":10806:10835  _amount2claimed[_id][_winner] */\n      0x00\n        /* \"contracts/LuckyRedEnvelope.sol\":10827:10834  _winner */\n      dup4\n        /* \"contracts/LuckyRedEnvelope.sol\":10806:10835  _amount2claimed[_id][_winner] */\n      0xffffffffffffffffffffffffffffffffffffffff\n      and\n      0xffffffffffffffffffffffffffffffffffffffff\n      and\n      dup2\n      mstore\n      0x20\n      add\n      swap1\n      dup2\n      mstore\n      0x20\n      add\n      0x00\n      keccak256\n      sload\n        /* \"contracts/LuckyRedEnvelope.sol\":10806:10840  _amount2claimed[_id][_winner] != 0 */\n      sub\n        /* \"contracts/LuckyRedEnvelope.sol\":10798:10853  require(_amount2claimed[_id][_winner] != 0, \"no prize\") */\n      tag_298\n      jumpi\n      mload(0x40)\n      0x08c379a000000000000000000000000000000000000000000000000000000000\n      dup2\n      mstore\n      0x04\n      add\n      tag_299\n      swap1\n      tag_300\n      jump\t// in\n    tag_299:\n      mload(0x40)\n      dup1\n      swap2\n      sub\n      swap1\n      revert\n    tag_298:\n        /* \"contracts/LuckyRedEnvelope.sol\":10921:10950  uint256 amountTokenToTransfer */\n      0x00\n        /* \"contracts/LuckyRedEnvelope.sol\":10953:10968  _amount2claimed */\n      0x0b\n        /* \"contracts/LuckyRedEnvelope.sol\":10953:10973  _amount2claimed[_id] */\n      0x00\n        /* \"contracts/LuckyRedEnvelope.sol\":10969:10972  _id */\n      dup5\n        /* \"contracts/LuckyRedEnvelope.sol\":10953:10973  _amount2claimed[_id] */\n      dup2\n      mstore\n      0x20\n      add\n      swap1\n      dup2\n      mstore\n      0x20\n      add\n      0x00\n      keccak256\n        /* \"contracts/LuckyRedEnvelope.sol\":10953:10982  _amount2claimed[_id][_winner] */\n      0x00\n        /* \"contracts/LuckyRedEnvelope.sol\":10974:10981  _winner */\n      dup4\n        /* \"contracts/LuckyRedEnvelope.sol\":10953:10982  _amount2claimed[_id][_winner] */\n      0xffffffffffffffffffffffffffffffffffffffff\n      and\n      0xffffffffffffffffffffffffffffffffffffffff\n      and\n      dup2\n      mstore\n      0x20\n      add\n      swap1\n      dup2\n      mstore\n      0x20\n      add\n      0x00\n      keccak256\n      sload\n        /* \"contracts/LuckyRedEnvelope.sol\":10921:10982  uint256 amountTokenToTransfer = _amount2claimed[_id][_winner] */\n      swap1\n      pop\n        /* \"contracts/LuckyRedEnvelope.sol\":10995:11051  ticketToken.safeTransfer(_winner, amountTokenToTransfer) */\n      tag_301\n        /* \"contracts/LuckyRedEnvelope.sol\":11020:11027  _winner */\n      dup3\n        /* \"contracts/LuckyRedEnvelope.sol\":11029:11050  amountTokenToTransfer */\n      dup3\n        /* \"contracts/LuckyRedEnvelope.sol\":10995:11006  ticketToken */\n      0x02\n      0x00\n      swap1\n      sload\n      swap1\n      0x0100\n      exp\n      swap1\n      div\n      0xffffffffffffffffffffffffffffffffffffffff\n      and\n        /* \"contracts/LuckyRedEnvelope.sol\":10995:11019  ticketToken.safeTransfer */\n      0xffffffffffffffffffffffffffffffffffffffff\n      and\n      tag_302\n      swap1\n        /* \"contracts/LuckyRedEnvelope.sol\":10995:11051  ticketToken.safeTransfer(_winner, amountTokenToTransfer) */\n      swap3\n      swap2\n      swap1\n      0xffffffff\n      and\n      jump\t// in\n    tag_301:\n        /* \"contracts/LuckyRedEnvelope.sol\":11094:11095  0 */\n      0x00\n        /* \"contracts/LuckyRedEnvelope.sol\":11062:11077  _amount2claimed */\n      0x0b\n        /* \"contracts/LuckyRedEnvelope.sol\":11062:11082  _amount2claimed[_id] */\n      0x00\n        /* \"contracts/LuckyRedEnvelope.sol\":11078:11081  _id */\n      dup6\n        /* \"contracts/LuckyRedEnvelope.sol\":11062:11082  _amount2claimed[_id] */\n      dup2\n      mstore\n      0x20\n      add\n      swap1\n      dup2\n      mstore\n      0x20\n      add\n      0x00\n      keccak256\n        /* \"contracts/LuckyRedEnvelope.sol\":11062:11091  _amount2claimed[_id][_winner] */\n      0x00\n        /* \"contracts/LuckyRedEnvelope.sol\":11083:11090  _winner */\n      dup5\n        /* \"contracts/LuckyRedEnvelope.sol\":11062:11091  _amount2claimed[_id][_winner] */\n      0xffffffffffffffffffffffffffffffffffffffff\n      and\n      0xffffffffffffffffffffffffffffffffffffffff\n      and\n      dup2\n      mstore\n      0x20\n      add\n      swap1\n      dup2\n      mstore\n      0x20\n      add\n      0x00\n      keccak256\n        /* \"contracts/LuckyRedEnvelope.sol\":11062:11095  _amount2claimed[_id][_winner] = 0 */\n      dup2\n      swap1\n      sstore\n      pop\n        /* \"contracts/LuckyRedEnvelope.sol\":11126:11133  _winner */\n      dup2\n        /* \"contracts/LuckyRedEnvelope.sol\":11111:11185  ClaimPrize(_id,_winner,amountTokenToTransfer,_redEnvelopes[_id].autoClaim) */\n      0xffffffffffffffffffffffffffffffffffffffff\n      and\n        /* \"contracts/LuckyRedEnvelope.sol\":11122:11125  _id */\n      dup4\n        /* \"contracts/LuckyRedEnvelope.sol\":11111:11185  ClaimPrize(_id,_winner,amountTokenToTransfer,_redEnvelopes[_id].autoClaim) */\n      0x268ef67ed0490cc273925a4865e6fbdb4dcf7e0802aad957aa682a78c7618bef\n        /* \"contracts/LuckyRedEnvelope.sol\":11134:11155  amountTokenToTransfer */\n      dup4\n        /* \"contracts/LuckyRedEnvelope.sol\":11156:11169  _redEnvelopes */\n      0x07\n        /* \"contracts/LuckyRedEnvelope.sol\":11156:11174  _redEnvelopes[_id] */\n      0x00\n        /* \"contracts/LuckyRedEnvelope.sol\":11170:11173  _id */\n      dup9\n        /* \"contracts/LuckyRedEnvelope.sol\":11156:11174  _redEnvelopes[_id] */\n      dup2\n      mstore\n      0x20\n      add\n      swap1\n      dup2\n      mstore\n      0x20\n      add\n      0x00\n      keccak256\n        /* \"contracts/LuckyRedEnvelope.sol\":11156:11184  _redEnvelopes[_id].autoClaim */\n      0x08\n      add\n      0x00\n      swap1\n      sload\n      swap1\n      0x0100\n      exp\n      swap1\n      div\n      0xff\n      and\n        /* \"contracts/LuckyRedEnvelope.sol\":11111:11185  ClaimPrize(_id,_winner,amountTokenToTransfer,_redEnvelopes[_id].autoClaim) */\n      mload(0x40)\n      tag_303\n      swap3\n      swap2\n      swap1\n      tag_144\n      jump\t// in\n    tag_303:\n      mload(0x40)\n      dup1\n      swap2\n      sub\n      swap1\n      log3\n        /* \"contracts/LuckyRedEnvelope.sol\":10787:11193  {... */\n      pop\n        /* \"contracts/LuckyRedEnvelope.sol\":10729:11193  function _claimPrize(uint256 _id,address _winner)internal {... */\n      pop\n      pop\n      jump\t// out\n        /* \"@openzeppelin/contracts/token/ERC20/utils/SafeERC20.sol\":4059:4688  function _callOptionalReturn(IERC20 token, bytes memory data) private {... */\n    tag_244:\n        /* \"@openzeppelin/contracts/token/ERC20/utils/SafeERC20.sol\":4478:4501  bytes memory returndata */\n      0x00\n        /* \"@openzeppelin/contracts/token/ERC20/utils/SafeERC20.sol\":4504:4537  address(token).functionCall(data) */\n      tag_305\n        /* \"@openzeppelin/contracts/token/ERC20/utils/SafeERC20.sol\":4532:4536  data */\n      dup3\n        /* \"@openzeppelin/contracts/token/ERC20/utils/SafeERC20.sol\":4512:4517  token */\n      dup5\n        /* \"@openzeppelin/contracts/token/ERC20/utils/SafeERC20.sol\":4504:4531  address(token).functionCall */\n      0xffffffffffffffffffffffffffffffffffffffff\n      and\n      tag_306\n      swap1\n        /* \"@openzeppelin/contracts/token/ERC20/utils/SafeERC20.sol\":4504:4537  address(token).functionCall(data) */\n      swap2\n      swap1\n      0xffffffff\n      and\n      jump\t// in\n    tag_305:\n        /* \"@openzeppelin/contracts/token/ERC20/utils/SafeERC20.sol\":4478:4537  bytes memory returndata = address(token).functionCall(data) */\n      swap1\n      pop\n        /* \"@openzeppelin/contracts/token/ERC20/utils/SafeERC20.sol\":4572:4573  0 */\n      0x00\n        /* \"@openzeppelin/contracts/token/ERC20/utils/SafeERC20.sol\":4551:4561  returndata */\n      dup2\n        /* \"@openzeppelin/contracts/token/ERC20/utils/SafeERC20.sol\":4551:4568  returndata.length */\n      mload\n        /* \"@openzeppelin/contracts/token/ERC20/utils/SafeERC20.sol\":4551:4573  returndata.length != 0 */\n      eq\n      iszero\n        /* \"@openzeppelin/contracts/token/ERC20/utils/SafeERC20.sol\":4551:4608  returndata.length != 0 && !abi.decode(returndata, (bool)) */\n      dup1\n      iszero\n      tag_307\n      jumpi\n      pop\n        /* \"@openzeppelin/contracts/token/ERC20/utils/SafeERC20.sol\":4589:4599  returndata */\n      dup1\n        /* \"@openzeppelin/contracts/token/ERC20/utils/SafeERC20.sol\":4578:4608  abi.decode(returndata, (bool)) */\n      dup1\n      0x20\n      add\n      swap1\n      mload\n      dup2\n      add\n      swap1\n      tag_308\n      swap2\n      swap1\n      tag_309\n      jump\t// in\n    tag_308:\n        /* \"@openzeppelin/contracts/token/ERC20/utils/SafeERC20.sol\":4577:4608  !abi.decode(returndata, (bool)) */\n      iszero\n        /* \"@openzeppelin/contracts/token/ERC20/utils/SafeERC20.sol\":4551:4608  returndata.length != 0 && !abi.decode(returndata, (bool)) */\n    tag_307:\n        /* \"@openzeppelin/contracts/token/ERC20/utils/SafeERC20.sol\":4547:4682  if (returndata.length != 0 && !abi.decode(returndata, (bool))) {... */\n      iszero\n      tag_310\n      jumpi\n        /* \"@openzeppelin/contracts/token/ERC20/utils/SafeERC20.sol\":4664:4669  token */\n      dup3\n        /* \"@openzeppelin/contracts/token/ERC20/utils/SafeERC20.sol\":4631:4671  SafeERC20FailedOperation(address(token)) */\n      mload(0x40)\n      0x5274afe700000000000000000000000000000000000000000000000000000000\n      dup2\n      mstore\n      0x04\n      add\n      tag_311\n      swap2\n      swap1\n      tag_30\n      jump\t// in\n    tag_311:\n      mload(0x40)\n      dup1\n      swap2\n      sub\n      swap1\n      revert\n        /* \"@openzeppelin/contracts/token/ERC20/utils/SafeERC20.sol\":4547:4682  if (returndata.length != 0 && !abi.decode(returndata, (bool))) {... */\n    tag_310:\n        /* \"@openzeppelin/contracts/token/ERC20/utils/SafeERC20.sol\":4129:4688  {... */\n      pop\n        /* \"@openzeppelin/contracts/token/ERC20/utils/SafeERC20.sol\":4059:4688  function _callOptionalReturn(IERC20 token, bytes memory data) private {... */\n      pop\n      pop\n      jump\t// out\n        /* \"@openzeppelin/contracts/utils/Context.sol\":656:752  function _msgSender() internal view virtual returns (address) {... */\n    tag_248:\n        /* \"@openzeppelin/contracts/utils/Context.sol\":709:716  address */\n      0x00\n        /* \"@openzeppelin/contracts/utils/Context.sol\":735:745  msg.sender */\n      caller\n        /* \"@openzeppelin/contracts/utils/Context.sol\":728:745  return msg.sender */\n      swap1\n      pop\n        /* \"@openzeppelin/contracts/utils/Context.sol\":656:752  function _msgSender() internal view virtual returns (address) {... */\n      swap1\n      jump\t// out\n        /* \"contracts/LuckyRedEnvelope.sol\":9446:9671  function _deriveRandom(uint256 _seed,uint256 i)internal pure returns(uint256){... */\n    tag_265:\n        /* \"contracts/LuckyRedEnvelope.sol\":9515:9522  uint256 */\n      0x00\n        /* \"contracts/LuckyRedEnvelope.sol\":9551:9563  uint32 shift */\n      dup1\n        /* \"contracts/LuckyRedEnvelope.sol\":9577:9580  256 */\n      0x0100\n        /* \"contracts/LuckyRedEnvelope.sol\":9573:9574  i */\n      dup4\n        /* \"contracts/LuckyRedEnvelope.sol\":9573:9580  i % 256 */\n      tag_314\n      swap2\n      swap1\n      tag_267\n      jump\t// in\n    tag_314:\n        /* \"contracts/LuckyRedEnvelope.sol\":9551:9581  uint32 shift = uint32(i % 256) */\n      swap1\n      pop\n        /* \"contracts/LuckyRedEnvelope.sol\":9634:9635  i */\n      dup3\n        /* \"contracts/LuckyRedEnvelope.sol\":9636:9660  _leftRotate(_seed,shift) */\n      tag_315\n        /* \"contracts/LuckyRedEnvelope.sol\":9648:9653  _seed */\n      dup6\n        /* \"contracts/LuckyRedEnvelope.sol\":9654:9659  shift */\n      dup4\n        /* \"contracts/LuckyRedEnvelope.sol\":9636:9647  _leftRotate */\n      tag_316\n        /* \"contracts/LuckyRedEnvelope.sol\":9636:9660  _leftRotate(_seed,shift) */\n      jump\t// in\n    tag_315:\n        /* \"contracts/LuckyRedEnvelope.sol\":9617:9661  abi.encodePacked(i,_leftRotate(_seed,shift)) */\n      add(0x20, mload(0x40))\n      tag_317\n      swap3\n      swap2\n      swap1\n      tag_318\n      jump\t// in\n    tag_317:\n      mload(0x40)\n      0x20\n      dup2\n      dup4\n      sub\n      sub\n      dup2\n      mstore\n      swap1\n      0x40\n      mstore\n        /* \"contracts/LuckyRedEnvelope.sol\":9607:9662  keccak256(abi.encodePacked(i,_leftRotate(_seed,shift))) */\n      dup1\n      mload\n      swap1\n      0x20\n      add\n      keccak256\n        /* \"contracts/LuckyRedEnvelope.sol\":9599:9663  uint256(keccak256(abi.encodePacked(i,_leftRotate(_seed,shift)))) */\n      0x00\n      shr\n        /* \"contracts/LuckyRedEnvelope.sol\":9592:9663  return uint256(keccak256(abi.encodePacked(i,_leftRotate(_seed,shift)))) */\n      swap2\n      pop\n      pop\n        /* \"contracts/LuckyRedEnvelope.sol\":9446:9671  function _deriveRandom(uint256 _seed,uint256 i)internal pure returns(uint256){... */\n      swap3\n      swap2\n      pop\n      pop\n      jump\t// out\n        /* \"@openzeppelin/contracts/token/ERC20/utils/SafeERC20.sol\":1303:1463  function safeTransfer(IERC20 token, address to, uint256 value) internal {... */\n    tag_302:\n        /* \"@openzeppelin/contracts/token/ERC20/utils/SafeERC20.sol\":1385:1456  _callOptionalReturn(token, abi.encodeCall(token.transfer, (to, value))) */\n      tag_320\n        /* \"@openzeppelin/contracts/token/ERC20/utils/SafeERC20.sol\":1405:1410  token */\n      dup4\n        /* \"@openzeppelin/contracts/token/ERC20/utils/SafeERC20.sol\":1427:1432  token */\n      dup5\n        /* \"@openzeppelin/contracts/token/ERC20/utils/SafeERC20.sol\":1427:1441  token.transfer */\n      0xffffffffffffffffffffffffffffffffffffffff\n      and\n      0xa9059cbb\n        /* \"@openzeppelin/contracts/token/ERC20/utils/SafeERC20.sol\":1444:1446  to */\n      dup6\n        /* \"@openzeppelin/contracts/token/ERC20/utils/SafeERC20.sol\":1448:1453  value */\n      dup6\n        /* \"@openzeppelin/contracts/token/ERC20/utils/SafeERC20.sol\":1412:1455  abi.encodeCall(token.transfer, (to, value)) */\n      add(0x24, mload(0x40))\n      tag_321\n      swap3\n      swap2\n      swap1\n      tag_322\n      jump\t// in\n    tag_321:\n      mload(0x40)\n      0x20\n      dup2\n      dup4\n      sub\n      sub\n      dup2\n      mstore\n      swap1\n      0x40\n      mstore\n      swap2\n      pop\n      0xe0\n      shl\n      0x20\n      dup3\n      add\n      dup1\n      mload\n      0xffffffffffffffffffffffffffffffffffffffffffffffffffffffff\n      dup4\n      dup2\n      dup4\n      and\n      or\n      dup4\n      mstore\n      pop\n      pop\n      pop\n      pop\n        /* \"@openzeppelin/contracts/token/ERC20/utils/SafeERC20.sol\":1385:1404  _callOptionalReturn */\n      tag_244\n        /* \"@openzeppelin/contracts/token/ERC20/utils/SafeERC20.sol\":1385:1456  _callOptionalReturn(token, abi.encodeCall(token.transfer, (to, value))) */\n      jump\t// in\n    tag_320:\n        /* \"@openzeppelin/contracts/token/ERC20/utils/SafeERC20.sol\":1303:1463  function safeTransfer(IERC20 token, address to, uint256 value) internal {... */\n      pop\n      pop\n      pop\n      jump\t// out\n        /* \"@openzeppelin/contracts/utils/Address.sol\":2705:2856  function functionCall(address target, bytes memory data) internal returns (bytes memory) {... */\n    tag_306:\n        /* \"@openzeppelin/contracts/utils/Address.sol\":2780:2792  bytes memory */\n      0x60\n        /* \"@openzeppelin/contracts/utils/Address.sol\":2811:2849  functionCallWithValue(target, data, 0) */\n      tag_324\n        /* \"@openzeppelin/contracts/utils/Address.sol\":2833:2839  target */\n      dup4\n        /* \"@openzeppelin/contracts/utils/Address.sol\":2841:2845  data */\n      dup4\n        /* \"@openzeppelin/contracts/utils/Address.sol\":2847:2848  0 */\n      0x00\n        /* \"@openzeppelin/contracts/utils/Address.sol\":2811:2832  functionCallWithValue */\n      tag_325\n        /* \"@openzeppelin/contracts/utils/Address.sol\":2811:2849  functionCallWithValue(target, data, 0) */\n      jump\t// in\n    tag_324:\n        /* \"@openzeppelin/contracts/utils/Address.sol\":2804:2849  return functionCallWithValue(target, data, 0) */\n      swap1\n      pop\n        /* \"@openzeppelin/contracts/utils/Address.sol\":2705:2856  function functionCall(address target, bytes memory data) internal returns (bytes memory) {... */\n      swap3\n      swap2\n      pop\n      pop\n      jump\t// out\n        /* \"contracts/LuckyRedEnvelope.sol\":9285:9438  function _leftRotate(uint256 _value,uint32 _shift)internal pure returns(uint256){... */\n    tag_316:\n        /* \"contracts/LuckyRedEnvelope.sol\":9357:9364  uint256 */\n      0x00\n        /* \"contracts/LuckyRedEnvelope.sol\":9422:9428  _shift */\n      dup2\n        /* \"contracts/LuckyRedEnvelope.sol\":9416:9419  256 */\n      0x0100\n        /* \"contracts/LuckyRedEnvelope.sol\":9416:9428  256 - _shift */\n      tag_327\n      swap2\n      swap1\n      tag_328\n      jump\t// in\n    tag_327:\n        /* \"contracts/LuckyRedEnvelope.sol\":9405:9429  _value >> (256 - _shift) */\n      0xffffffff\n      and\n        /* \"contracts/LuckyRedEnvelope.sol\":9405:9411  _value */\n      dup4\n        /* \"contracts/LuckyRedEnvelope.sol\":9405:9429  _value >> (256 - _shift) */\n      swap1\n      shr\n        /* \"contracts/LuckyRedEnvelope.sol\":9394:9400  _shift */\n      dup3\n        /* \"contracts/LuckyRedEnvelope.sol\":9384:9400  _value << _shift */\n      0xffffffff\n      and\n        /* \"contracts/LuckyRedEnvelope.sol\":9384:9390  _value */\n      dup5\n        /* \"contracts/LuckyRedEnvelope.sol\":9384:9400  _value << _shift */\n      swap1\n      shl\n        /* \"contracts/LuckyRedEnvelope.sol\":9383:9430  (_value << _shift) | (_value >> (256 - _shift)) */\n      or\n        /* \"contracts/LuckyRedEnvelope.sol\":9376:9430  return (_value << _shift) | (_value >> (256 - _shift)) */\n      swap1\n      pop\n        /* \"contracts/LuckyRedEnvelope.sol\":9285:9438  function _leftRotate(uint256 _value,uint32 _shift)internal pure returns(uint256){... */\n      swap3\n      swap2\n      pop\n      pop\n      jump\t// out\n        /* \"@openzeppelin/contracts/utils/Address.sol\":3180:3572  function functionCallWithValue(address target, bytes memory data, uint256 value) internal returns (bytes memory) {... */\n    tag_325:\n        /* \"@openzeppelin/contracts/utils/Address.sol\":3279:3291  bytes memory */\n      0x60\n        /* \"@openzeppelin/contracts/utils/Address.sol\":3331:3336  value */\n      dup2\n        /* \"@openzeppelin/contracts/utils/Address.sol\":3307:3328  address(this).balance */\n      selfbalance\n        /* \"@openzeppelin/contracts/utils/Address.sol\":3307:3336  address(this).balance < value */\n      lt\n        /* \"@openzeppelin/contracts/utils/Address.sol\":3303:3411  if (address(this).balance < value) {... */\n      iszero\n      tag_330\n      jumpi\n        /* \"@openzeppelin/contracts/utils/Address.sol\":3394:3398  this */\n      address\n        /* \"@openzeppelin/contracts/utils/Address.sol\":3359:3400  AddressInsufficientBalance(address(this)) */\n      mload(0x40)\n      0xcd78605900000000000000000000000000000000000000000000000000000000\n      dup2\n      mstore\n      0x04\n      add\n      tag_331\n      swap2\n      swap1\n      tag_30\n      jump\t// in\n    tag_331:\n      mload(0x40)\n      dup1\n      swap2\n      sub\n      swap1\n      revert\n        /* \"@openzeppelin/contracts/utils/Address.sol\":3303:3411  if (address(this).balance < value) {... */\n    tag_330:\n        /* \"@openzeppelin/contracts/utils/Address.sol\":3421:3433  bool success */\n      0x00\n        /* \"@openzeppelin/contracts/utils/Address.sol\":3435:3458  bytes memory returndata */\n      dup1\n        /* \"@openzeppelin/contracts/utils/Address.sol\":3462:3468  target */\n      dup6\n        /* \"@openzeppelin/contracts/utils/Address.sol\":3462:3473  target.call */\n      0xffffffffffffffffffffffffffffffffffffffff\n      and\n        /* \"@openzeppelin/contracts/utils/Address.sol\":3481:3486  value */\n      dup5\n        /* \"@openzeppelin/contracts/utils/Address.sol\":3488:3492  data */\n      dup7\n        /* \"@openzeppelin/contracts/utils/Address.sol\":3462:3493  target.call{value: value}(data) */\n      mload(0x40)\n      tag_332\n      swap2\n      swap1\n      tag_333\n      jump\t// in\n    tag_332:\n      0x00\n      mload(0x40)\n      dup1\n      dup4\n      sub\n      dup2\n      dup6\n      dup8\n      gas\n      call\n      swap3\n      pop\n      pop\n      pop\n      returndatasize\n      dup1\n      0x00\n      dup2\n      eq\n      tag_336\n      jumpi\n      mload(0x40)\n      swap2\n      pop\n      and(add(returndatasize, 0x3f), not(0x1f))\n      dup3\n      add\n      0x40\n      mstore\n      returndatasize\n      dup3\n      mstore\n      returndatasize\n      0x00\n      0x20\n      dup5\n      add\n      returndatacopy\n      jump(tag_335)\n    tag_336:\n      0x60\n      swap2\n      pop\n    tag_335:\n      pop\n        /* \"@openzeppelin/contracts/utils/Address.sol\":3420:3493  (bool success, bytes memory returndata) = target.call{value: value}(data) */\n      swap2\n      pop\n      swap2\n      pop\n        /* \"@openzeppelin/contracts/utils/Address.sol\":3510:3565  verifyCallResultFromTarget(target, success, returndata) */\n      tag_337\n        /* \"@openzeppelin/contracts/utils/Address.sol\":3537:3543  target */\n      dup7\n        /* \"@openzeppelin/contracts/utils/Address.sol\":3545:3552  success */\n      dup4\n        /* \"@openzeppelin/contracts/utils/Address.sol\":3554:3564  returndata */\n      dup4\n        /* \"@openzeppelin/contracts/utils/Address.sol\":3510:3536  verifyCallResultFromTarget */\n      tag_338\n        /* \"@openzeppelin/contracts/utils/Address.sol\":3510:3565  verifyCallResultFromTarget(target, success, returndata) */\n      jump\t// in\n    tag_337:\n        /* \"@openzeppelin/contracts/utils/Address.sol\":3503:3565  return verifyCallResultFromTarget(target, success, returndata) */\n      swap3\n      pop\n      pop\n      pop\n        /* \"@openzeppelin/contracts/utils/Address.sol\":3180:3572  function functionCallWithValue(address target, bytes memory data, uint256 value) internal returns (bytes memory) {... */\n      swap4\n      swap3\n      pop\n      pop\n      pop\n      jump\t// out\n        /* \"@openzeppelin/contracts/utils/Address.sol\":4625:5207  function verifyCallResultFromTarget(... */\n    tag_338:\n        /* \"@openzeppelin/contracts/utils/Address.sol\":4769:4781  bytes memory */\n      0x60\n        /* \"@openzeppelin/contracts/utils/Address.sol\":4798:4805  success */\n      dup3\n        /* \"@openzeppelin/contracts/utils/Address.sol\":4793:5201  if (!success) {... */\n      tag_340\n      jumpi\n        /* \"@openzeppelin/contracts/utils/Address.sol\":4821:4840  _revert(returndata) */\n      tag_341\n        /* \"@openzeppelin/contracts/utils/Address.sol\":4829:4839  returndata */\n      dup3\n        /* \"@openzeppelin/contracts/utils/Address.sol\":4821:4828  _revert */\n      tag_342\n        /* \"@openzeppelin/contracts/utils/Address.sol\":4821:4840  _revert(returndata) */\n      jump\t// in\n    tag_341:\n        /* \"@openzeppelin/contracts/utils/Address.sol\":4793:5201  if (!success) {... */\n      jump(tag_343)\n    tag_340:\n        /* \"@openzeppelin/contracts/utils/Address.sol\":5066:5067  0 */\n      0x00\n        /* \"@openzeppelin/contracts/utils/Address.sol\":5045:5055  returndata */\n      dup3\n        /* \"@openzeppelin/contracts/utils/Address.sol\":5045:5062  returndata.length */\n      mload\n        /* \"@openzeppelin/contracts/utils/Address.sol\":5045:5067  returndata.length == 0 */\n      eq\n        /* \"@openzeppelin/contracts/utils/Address.sol\":5045:5094  returndata.length == 0 && target.code.length == 0 */\n      dup1\n      iszero\n      tag_344\n      jumpi\n      pop\n        /* \"@openzeppelin/contracts/utils/Address.sol\":5093:5094  0 */\n      0x00\n        /* \"@openzeppelin/contracts/utils/Address.sol\":5071:5077  target */\n      dup5\n        /* \"@openzeppelin/contracts/utils/Address.sol\":5071:5089  target.code.length */\n      0xffffffffffffffffffffffffffffffffffffffff\n      and\n      extcodesize\n        /* \"@openzeppelin/contracts/utils/Address.sol\":5071:5094  target.code.length == 0 */\n      eq\n        /* \"@openzeppelin/contracts/utils/Address.sol\":5045:5094  returndata.length == 0 && target.code.length == 0 */\n    tag_344:\n        /* \"@openzeppelin/contracts/utils/Address.sol\":5041:5160  if (returndata.length == 0 && target.code.length == 0) {... */\n      iszero\n      tag_345\n      jumpi\n        /* \"@openzeppelin/contracts/utils/Address.sol\":5138:5144  target */\n      dup4\n        /* \"@openzeppelin/contracts/utils/Address.sol\":5121:5145  AddressEmptyCode(target) */\n      mload(0x40)\n      0x9996b31500000000000000000000000000000000000000000000000000000000\n      dup2\n      mstore\n      0x04\n      add\n      tag_346\n      swap2\n      swap1\n      tag_30\n      jump\t// in\n    tag_346:\n      mload(0x40)\n      dup1\n      swap2\n      sub\n      swap1\n      revert\n        /* \"@openzeppelin/contracts/utils/Address.sol\":5041:5160  if (returndata.length == 0 && target.code.length == 0) {... */\n    tag_345:\n        /* \"@openzeppelin/contracts/utils/Address.sol\":5180:5190  returndata */\n      dup2\n        /* \"@openzeppelin/contracts/utils/Address.sol\":5173:5190  return returndata */\n      swap1\n      pop\n      jump(tag_339)\n        /* \"@openzeppelin/contracts/utils/Address.sol\":4793:5201  if (!success) {... */\n    tag_343:\n        /* \"@openzeppelin/contracts/utils/Address.sol\":4625:5207  function verifyCallResultFromTarget(... */\n    tag_339:\n      swap4\n      swap3\n      pop\n      pop\n      pop\n      jump\t// out\n        /* \"@openzeppelin/contracts/utils/Address.sol\":5743:6259  function _revert(bytes memory returndata) private pure {... */\n    tag_342:\n        /* \"@openzeppelin/contracts/utils/Address.sol\":5894:5895  0 */\n      0x00\n        /* \"@openzeppelin/contracts/utils/Address.sol\":5874:5884  returndata */\n      dup2\n        /* \"@openzeppelin/contracts/utils/Address.sol\":5874:5891  returndata.length */\n      mload\n        /* \"@openzeppelin/contracts/utils/Address.sol\":5874:5895  returndata.length > 0 */\n      gt\n        /* \"@openzeppelin/contracts/utils/Address.sol\":5870:6253  if (returndata.length > 0) {... */\n      iszero\n      tag_348\n      jumpi\n        /* \"@openzeppelin/contracts/utils/Address.sol\":6102:6112  returndata */\n      dup1\n        /* \"@openzeppelin/contracts/utils/Address.sol\":6096:6113  mload(returndata) */\n      mload\n        /* \"@openzeppelin/contracts/utils/Address.sol\":6158:6173  returndata_size */\n      dup1\n        /* \"@openzeppelin/contracts/utils/Address.sol\":6145:6155  returndata */\n      dup3\n        /* \"@openzeppelin/contracts/utils/Address.sol\":6141:6143  32 */\n      0x20\n        /* \"@openzeppelin/contracts/utils/Address.sol\":6137:6156  add(32, returndata) */\n      add\n        /* \"@openzeppelin/contracts/utils/Address.sol\":6130:6174  revert(add(32, returndata), returndata_size) */\n      revert\n        /* \"@openzeppelin/contracts/utils/Address.sol\":5870:6253  if (returndata.length > 0) {... */\n    tag_348:\n        /* \"@openzeppelin/contracts/utils/Address.sol\":6225:6242  FailedInnerCall() */\n      mload(0x40)\n      0x1425ea4200000000000000000000000000000000000000000000000000000000\n      dup2\n      mstore\n      0x04\n      add\n      mload(0x40)\n      dup1\n      swap2\n      sub\n      swap1\n      revert\n        /* \"#utility.yul\":88:205   */\n    tag_351:\n        /* \"#utility.yul\":197:198   */\n      0x00\n        /* \"#utility.yul\":194:195   */\n      dup1\n        /* \"#utility.yul\":187:199   */\n      revert\n        /* \"#utility.yul\":334:411   */\n    tag_353:\n        /* \"#utility.yul\":371:378   */\n      0x00\n        /* \"#utility.yul\":400:405   */\n      dup2\n        /* \"#utility.yul\":389:405   */\n      swap1\n      pop\n        /* \"#utility.yul\":334:411   */\n      swap2\n      swap1\n      pop\n      jump\t// out\n        /* \"#utility.yul\":417:539   */\n    tag_354:\n        /* \"#utility.yul\":490:514   */\n      tag_410\n        /* \"#utility.yul\":508:513   */\n      dup2\n        /* \"#utility.yul\":490:514   */\n      tag_353\n      jump\t// in\n    tag_410:\n        /* \"#utility.yul\":483:488   */\n      dup2\n        /* \"#utility.yul\":480:515   */\n      eq\n        /* \"#utility.yul\":470:533   */\n      tag_411\n      jumpi\n        /* \"#utility.yul\":529:530   */\n      0x00\n        /* \"#utility.yul\":526:527   */\n      dup1\n        /* \"#utility.yul\":519:531   */\n      revert\n        /* \"#utility.yul\":470:533   */\n    tag_411:\n        /* \"#utility.yul\":417:539   */\n      pop\n      jump\t// out\n        /* \"#utility.yul\":545:684   */\n    tag_355:\n        /* \"#utility.yul\":591:596   */\n      0x00\n        /* \"#utility.yul\":629:635   */\n      dup2\n        /* \"#utility.yul\":616:636   */\n      calldataload\n        /* \"#utility.yul\":607:636   */\n      swap1\n      pop\n        /* \"#utility.yul\":645:678   */\n      tag_413\n        /* \"#utility.yul\":672:677   */\n      dup2\n        /* \"#utility.yul\":645:678   */\n      tag_354\n      jump\t// in\n    tag_413:\n        /* \"#utility.yul\":545:684   */\n      swap3\n      swap2\n      pop\n      pop\n      jump\t// out\n        /* \"#utility.yul\":690:1455   */\n    tag_25:\n        /* \"#utility.yul\":776:782   */\n      0x00\n        /* \"#utility.yul\":784:790   */\n      dup1\n        /* \"#utility.yul\":792:798   */\n      0x00\n        /* \"#utility.yul\":800:806   */\n      dup1\n        /* \"#utility.yul\":849:852   */\n      0x80\n        /* \"#utility.yul\":837:846   */\n      dup6\n        /* \"#utility.yul\":828:835   */\n      dup8\n        /* \"#utility.yul\":824:847   */\n      sub\n        /* \"#utility.yul\":820:853   */\n      slt\n        /* \"#utility.yul\":817:937   */\n      iszero\n      tag_415\n      jumpi\n        /* \"#utility.yul\":856:935   */\n      tag_416\n      tag_351\n      jump\t// in\n    tag_416:\n        /* \"#utility.yul\":817:937   */\n    tag_415:\n        /* \"#utility.yul\":976:977   */\n      0x00\n        /* \"#utility.yul\":1001:1054   */\n      tag_417\n        /* \"#utility.yul\":1046:1053   */\n      dup8\n        /* \"#utility.yul\":1037:1043   */\n      dup3\n        /* \"#utility.yul\":1026:1035   */\n      dup9\n        /* \"#utility.yul\":1022:1044   */\n      add\n        /* \"#utility.yul\":1001:1054   */\n      tag_355\n      jump\t// in\n    tag_417:\n        /* \"#utility.yul\":991:1054   */\n      swap5\n      pop\n        /* \"#utility.yul\":947:1064   */\n      pop\n        /* \"#utility.yul\":1103:1105   */\n      0x20\n        /* \"#utility.yul\":1129:1182   */\n      tag_418\n        /* \"#utility.yul\":1174:1181   */\n      dup8\n        /* \"#utility.yul\":1165:1171   */\n      dup3\n        /* \"#utility.yul\":1154:1163   */\n      dup9\n        /* \"#utility.yul\":1150:1172   */\n      add\n        /* \"#utility.yul\":1129:1182   */\n      tag_355\n      jump\t// in\n    tag_418:\n        /* \"#utility.yul\":1119:1182   */\n      swap4\n      pop\n        /* \"#utility.yul\":1074:1192   */\n      pop\n        /* \"#utility.yul\":1231:1233   */\n      0x40\n        /* \"#utility.yul\":1257:1310   */\n      tag_419\n        /* \"#utility.yul\":1302:1309   */\n      dup8\n        /* \"#utility.yul\":1293:1299   */\n      dup3\n        /* \"#utility.yul\":1282:1291   */\n      dup9\n        /* \"#utility.yul\":1278:1300   */\n      add\n        /* \"#utility.yul\":1257:1310   */\n      tag_355\n      jump\t// in\n    tag_419:\n        /* \"#utility.yul\":1247:1310   */\n      swap3\n      pop\n        /* \"#utility.yul\":1202:1320   */\n      pop\n        /* \"#utility.yul\":1359:1361   */\n      0x60\n        /* \"#utility.yul\":1385:1438   */\n      tag_420\n        /* \"#utility.yul\":1430:1437   */\n      dup8\n        /* \"#utility.yul\":1421:1427   */\n      dup3\n        /* \"#utility.yul\":1410:1419   */\n      dup9\n        /* \"#utility.yul\":1406:1428   */\n      add\n        /* \"#utility.yul\":1385:1438   */\n      tag_355\n      jump\t// in\n    tag_420:\n        /* \"#utility.yul\":1375:1438   */\n      swap2\n      pop\n        /* \"#utility.yul\":1330:1448   */\n      pop\n        /* \"#utility.yul\":690:1455   */\n      swap3\n      swap6\n      swap2\n      swap5\n      pop\n      swap3\n      pop\n      jump\t// out\n        /* \"#utility.yul\":1461:1587   */\n    tag_356:\n        /* \"#utility.yul\":1498:1505   */\n      0x00\n        /* \"#utility.yul\":1538:1580   */\n      0xffffffffffffffffffffffffffffffffffffffff\n        /* \"#utility.yul\":1531:1536   */\n      dup3\n        /* \"#utility.yul\":1527:1581   */\n      and\n        /* \"#utility.yul\":1516:1581   */\n      swap1\n      pop\n        /* \"#utility.yul\":1461:1587   */\n      swap2\n      swap1\n      pop\n      jump\t// out\n        /* \"#utility.yul\":1593:1689   */\n    tag_357:\n        /* \"#utility.yul\":1630:1637   */\n      0x00\n        /* \"#utility.yul\":1659:1683   */\n      tag_423\n        /* \"#utility.yul\":1677:1682   */\n      dup3\n        /* \"#utility.yul\":1659:1683   */\n      tag_356\n      jump\t// in\n    tag_423:\n        /* \"#utility.yul\":1648:1683   */\n      swap1\n      pop\n        /* \"#utility.yul\":1593:1689   */\n      swap2\n      swap1\n      pop\n      jump\t// out\n        /* \"#utility.yul\":1695:1813   */\n    tag_358:\n        /* \"#utility.yul\":1782:1806   */\n      tag_425\n        /* \"#utility.yul\":1800:1805   */\n      dup2\n        /* \"#utility.yul\":1782:1806   */\n      tag_357\n      jump\t// in\n    tag_425:\n        /* \"#utility.yul\":1777:1780   */\n      dup3\n        /* \"#utility.yul\":1770:1807   */\n      mstore\n        /* \"#utility.yul\":1695:1813   */\n      pop\n      pop\n      jump\t// out\n        /* \"#utility.yul\":1819:2041   */\n    tag_30:\n        /* \"#utility.yul\":1912:1916   */\n      0x00\n        /* \"#utility.yul\":1950:1952   */\n      0x20\n        /* \"#utility.yul\":1939:1948   */\n      dup3\n        /* \"#utility.yul\":1935:1953   */\n      add\n        /* \"#utility.yul\":1927:1953   */\n      swap1\n      pop\n        /* \"#utility.yul\":1963:2034   */\n      tag_427\n        /* \"#utility.yul\":2031:2032   */\n      0x00\n        /* \"#utility.yul\":2020:2029   */\n      dup4\n        /* \"#utility.yul\":2016:2033   */\n      add\n        /* \"#utility.yul\":2007:2013   */\n      dup5\n        /* \"#utility.yul\":1963:2034   */\n      tag_358\n      jump\t// in\n    tag_427:\n        /* \"#utility.yul\":1819:2041   */\n      swap3\n      swap2\n      pop\n      pop\n      jump\t// out\n        /* \"#utility.yul\":2047:2169   */\n    tag_359:\n        /* \"#utility.yul\":2120:2144   */\n      tag_429\n        /* \"#utility.yul\":2138:2143   */\n      dup2\n        /* \"#utility.yul\":2120:2144   */\n      tag_357\n      jump\t// in\n    tag_429:\n        /* \"#utility.yul\":2113:2118   */\n      dup2\n        /* \"#utility.yul\":2110:2145   */\n      eq\n        /* \"#utility.yul\":2100:2163   */\n      tag_430\n      jumpi\n        /* \"#utility.yul\":2159:2160   */\n      0x00\n        /* \"#utility.yul\":2156:2157   */\n      dup1\n        /* \"#utility.yul\":2149:2161   */\n      revert\n        /* \"#utility.yul\":2100:2163   */\n    tag_430:\n        /* \"#utility.yul\":2047:2169   */\n      pop\n      jump\t// out\n        /* \"#utility.yul\":2175:2314   */\n    tag_360:\n        /* \"#utility.yul\":2221:2226   */\n      0x00\n        /* \"#utility.yul\":2259:2265   */\n      dup2\n        /* \"#utility.yul\":2246:2266   */\n      calldataload\n        /* \"#utility.yul\":2237:2266   */\n      swap1\n      pop\n        /* \"#utility.yul\":2275:2308   */\n      tag_432\n        /* \"#utility.yul\":2302:2307   */\n      dup2\n        /* \"#utility.yul\":2275:2308   */\n      tag_359\n      jump\t// in\n    tag_432:\n        /* \"#utility.yul\":2175:2314   */\n      swap3\n      swap2\n      pop\n      pop\n      jump\t// out\n        /* \"#utility.yul\":2320:2649   */\n    tag_33:\n        /* \"#utility.yul\":2379:2385   */\n      0x00\n        /* \"#utility.yul\":2428:2430   */\n      0x20\n        /* \"#utility.yul\":2416:2425   */\n      dup3\n        /* \"#utility.yul\":2407:2414   */\n      dup5\n        /* \"#utility.yul\":2403:2426   */\n      sub\n        /* \"#utility.yul\":2399:2431   */\n      slt\n        /* \"#utility.yul\":2396:2515   */\n      iszero\n      tag_434\n      jumpi\n        /* \"#utility.yul\":2434:2513   */\n      tag_435\n      tag_351\n      jump\t// in\n    tag_435:\n        /* \"#utility.yul\":2396:2515   */\n    tag_434:\n        /* \"#utility.yul\":2554:2555   */\n      0x00\n        /* \"#utility.yul\":2579:2632   */\n      tag_436\n        /* \"#utility.yul\":2624:2631   */\n      dup5\n        /* \"#utility.yul\":2615:2621   */\n      dup3\n        /* \"#utility.yul\":2604:2613   */\n      dup6\n        /* \"#utility.yul\":2600:2622   */\n      add\n        /* \"#utility.yul\":2579:2632   */\n      tag_360\n      jump\t// in\n    tag_436:\n        /* \"#utility.yul\":2569:2632   */\n      swap2\n      pop\n        /* \"#utility.yul\":2525:2642   */\n      pop\n        /* \"#utility.yul\":2320:2649   */\n      swap3\n      swap2\n      pop\n      pop\n      jump\t// out\n        /* \"#utility.yul\":2655:2984   */\n    tag_37:\n        /* \"#utility.yul\":2714:2720   */\n      0x00\n        /* \"#utility.yul\":2763:2765   */\n      0x20\n        /* \"#utility.yul\":2751:2760   */\n      dup3\n        /* \"#utility.yul\":2742:2749   */\n      dup5\n        /* \"#utility.yul\":2738:2761   */\n      sub\n        /* \"#utility.yul\":2734:2766   */\n      slt\n        /* \"#utility.yul\":2731:2850   */\n      iszero\n      tag_438\n      jumpi\n        /* \"#utility.yul\":2769:2848   */\n      tag_439\n      tag_351\n      jump\t// in\n    tag_439:\n        /* \"#utility.yul\":2731:2850   */\n    tag_438:\n        /* \"#utility.yul\":2889:2890   */\n      0x00\n        /* \"#utility.yul\":2914:2967   */\n      tag_440\n        /* \"#utility.yul\":2959:2966   */\n      dup5\n        /* \"#utility.yul\":2950:2956   */\n      dup3\n        /* \"#utility.yul\":2939:2948   */\n      dup6\n        /* \"#utility.yul\":2935:2957   */\n      add\n        /* \"#utility.yul\":2914:2967   */\n      tag_355\n      jump\t// in\n    tag_440:\n        /* \"#utility.yul\":2904:2967   */\n      swap2\n      pop\n        /* \"#utility.yul\":2860:2977   */\n      pop\n        /* \"#utility.yul\":2655:2984   */\n      swap3\n      swap2\n      pop\n      pop\n      jump\t// out\n        /* \"#utility.yul\":2990:3108   */\n    tag_361:\n        /* \"#utility.yul\":3077:3101   */\n      tag_442\n        /* \"#utility.yul\":3095:3100   */\n      dup2\n        /* \"#utility.yul\":3077:3101   */\n      tag_353\n      jump\t// in\n    tag_442:\n        /* \"#utility.yul\":3072:3075   */\n      dup3\n        /* \"#utility.yul\":3065:3102   */\n      mstore\n        /* \"#utility.yul\":2990:3108   */\n      pop\n      pop\n      jump\t// out\n        /* \"#utility.yul\":3114:3336   */\n    tag_42:\n        /* \"#utility.yul\":3207:3211   */\n      0x00\n        /* \"#utility.yul\":3245:3247   */\n      0x20\n        /* \"#utility.yul\":3234:3243   */\n      dup3\n        /* \"#utility.yul\":3230:3248   */\n      add\n        /* \"#utility.yul\":3222:3248   */\n      swap1\n      pop\n        /* \"#utility.yul\":3258:3329   */\n      tag_444\n        /* \"#utility.yul\":3326:3327   */\n      0x00\n        /* \"#utility.yul\":3315:3324   */\n      dup4\n        /* \"#utility.yul\":3311:3328   */\n      add\n        /* \"#utility.yul\":3302:3308   */\n      dup5\n        /* \"#utility.yul\":3258:3329   */\n      tag_361\n      jump\t// in\n    tag_444:\n        /* \"#utility.yul\":3114:3336   */\n      swap3\n      swap2\n      pop\n      pop\n      jump\t// out\n        /* \"#utility.yul\":3342:3522   */\n    tag_97:\n        /* \"#utility.yul\":3390:3467   */\n      0x4e487b7100000000000000000000000000000000000000000000000000000000\n        /* \"#utility.yul\":3387:3388   */\n      0x00\n        /* \"#utility.yul\":3380:3468   */\n      mstore\n        /* \"#utility.yul\":3487:3491   */\n      0x21\n        /* \"#utility.yul\":3484:3485   */\n      0x04\n        /* \"#utility.yul\":3477:3492   */\n      mstore\n        /* \"#utility.yul\":3511:3515   */\n      0x24\n        /* \"#utility.yul\":3508:3509   */\n      0x00\n        /* \"#utility.yul\":3501:3516   */\n      revert\n        /* \"#utility.yul\":3528:3643   */\n    tag_362:\n        /* \"#utility.yul\":3611:3612   */\n      0x04\n        /* \"#utility.yul\":3604:3609   */\n      dup2\n        /* \"#utility.yul\":3601:3613   */\n      lt\n        /* \"#utility.yul\":3591:3637   */\n      tag_447\n      jumpi\n        /* \"#utility.yul\":3617:3635   */\n      tag_448\n      tag_97\n      jump\t// in\n    tag_448:\n        /* \"#utility.yul\":3591:3637   */\n    tag_447:\n        /* \"#utility.yul\":3528:3643   */\n      pop\n      jump\t// out\n        /* \"#utility.yul\":3649:3780   */\n    tag_363:\n        /* \"#utility.yul\":3696:3703   */\n      0x00\n        /* \"#utility.yul\":3725:3730   */\n      dup2\n        /* \"#utility.yul\":3714:3730   */\n      swap1\n      pop\n        /* \"#utility.yul\":3731:3774   */\n      tag_450\n        /* \"#utility.yul\":3768:3773   */\n      dup3\n        /* \"#utility.yul\":3731:3774   */\n      tag_362\n      jump\t// in\n    tag_450:\n        /* \"#utility.yul\":3649:3780   */\n      swap2\n      swap1\n      pop\n      jump\t// out\n        /* \"#utility.yul\":3786:3917   */\n    tag_364:\n        /* \"#utility.yul\":3844:3853   */\n      0x00\n        /* \"#utility.yul\":3877:3911   */\n      tag_452\n        /* \"#utility.yul\":3905:3910   */\n      dup3\n        /* \"#utility.yul\":3877:3911   */\n      tag_363\n      jump\t// in\n    tag_452:\n        /* \"#utility.yul\":3864:3911   */\n      swap1\n      pop\n        /* \"#utility.yul\":3786:3917   */\n      swap2\n      swap1\n      pop\n      jump\t// out\n        /* \"#utility.yul\":3923:4070   */\n    tag_365:\n        /* \"#utility.yul\":4018:4063   */\n      tag_454\n        /* \"#utility.yul\":4057:4062   */\n      dup2\n        /* \"#utility.yul\":4018:4063   */\n      tag_364\n      jump\t// in\n    tag_454:\n        /* \"#utility.yul\":4013:4016   */\n      dup3\n        /* \"#utility.yul\":4006:4064   */\n      mstore\n        /* \"#utility.yul\":3923:4070   */\n      pop\n      pop\n      jump\t// out\n        /* \"#utility.yul\":4076:4314   */\n    tag_47:\n        /* \"#utility.yul\":4177:4181   */\n      0x00\n        /* \"#utility.yul\":4215:4217   */\n      0x20\n        /* \"#utility.yul\":4204:4213   */\n      dup3\n        /* \"#utility.yul\":4200:4218   */\n      add\n        /* \"#utility.yul\":4192:4218   */\n      swap1\n      pop\n        /* \"#utility.yul\":4228:4307   */\n      tag_456\n        /* \"#utility.yul\":4304:4305   */\n      0x00\n        /* \"#utility.yul\":4293:4302   */\n      dup4\n        /* \"#utility.yul\":4289:4306   */\n      add\n        /* \"#utility.yul\":4280:4286   */\n      dup5\n        /* \"#utility.yul\":4228:4307   */\n      tag_365\n      jump\t// in\n    tag_456:\n        /* \"#utility.yul\":4076:4314   */\n      swap3\n      swap2\n      pop\n      pop\n      jump\t// out\n        /* \"#utility.yul\":4320:4410   */\n    tag_366:\n        /* \"#utility.yul\":4354:4361   */\n      0x00\n        /* \"#utility.yul\":4397:4402   */\n      dup2\n        /* \"#utility.yul\":4390:4403   */\n      iszero\n        /* \"#utility.yul\":4383:4404   */\n      iszero\n        /* \"#utility.yul\":4372:4404   */\n      swap1\n      pop\n        /* \"#utility.yul\":4320:4410   */\n      swap2\n      swap1\n      pop\n      jump\t// out\n        /* \"#utility.yul\":4416:4525   */\n    tag_367:\n        /* \"#utility.yul\":4497:4518   */\n      tag_459\n        /* \"#utility.yul\":4512:4517   */\n      dup2\n        /* \"#utility.yul\":4497:4518   */\n      tag_366\n      jump\t// in\n    tag_459:\n        /* \"#utility.yul\":4492:4495   */\n      dup3\n        /* \"#utility.yul\":4485:4519   */\n      mstore\n        /* \"#utility.yul\":4416:4525   */\n      pop\n      pop\n      jump\t// out\n        /* \"#utility.yul\":4531:4741   */\n    tag_59:\n        /* \"#utility.yul\":4618:4622   */\n      0x00\n        /* \"#utility.yul\":4656:4658   */\n      0x20\n        /* \"#utility.yul\":4645:4654   */\n      dup3\n        /* \"#utility.yul\":4641:4659   */\n      add\n        /* \"#utility.yul\":4633:4659   */\n      swap1\n      pop\n        /* \"#utility.yul\":4669:4734   */\n      tag_461\n        /* \"#utility.yul\":4731:4732   */\n      0x00\n        /* \"#utility.yul\":4720:4729   */\n      dup4\n        /* \"#utility.yul\":4716:4733   */\n      add\n        /* \"#utility.yul\":4707:4713   */\n      dup5\n        /* \"#utility.yul\":4669:4734   */\n      tag_367\n      jump\t// in\n    tag_461:\n        /* \"#utility.yul\":4531:4741   */\n      swap3\n      swap2\n      pop\n      pop\n      jump\t// out\n        /* \"#utility.yul\":4747:5221   */\n    tag_62:\n        /* \"#utility.yul\":4815:4821   */\n      0x00\n        /* \"#utility.yul\":4823:4829   */\n      dup1\n        /* \"#utility.yul\":4872:4874   */\n      0x40\n        /* \"#utility.yul\":4860:4869   */\n      dup4\n        /* \"#utility.yul\":4851:4858   */\n      dup6\n        /* \"#utility.yul\":4847:4870   */\n      sub\n        /* \"#utility.yul\":4843:4875   */\n      slt\n        /* \"#utility.yul\":4840:4959   */\n      iszero\n      tag_463\n      jumpi\n        /* \"#utility.yul\":4878:4957   */\n      tag_464\n      tag_351\n      jump\t// in\n    tag_464:\n        /* \"#utility.yul\":4840:4959   */\n    tag_463:\n        /* \"#utility.yul\":4998:4999   */\n      0x00\n        /* \"#utility.yul\":5023:5076   */\n      tag_465\n        /* \"#utility.yul\":5068:5075   */\n      dup6\n        /* \"#utility.yul\":5059:5065   */\n      dup3\n        /* \"#utility.yul\":5048:5057   */\n      dup7\n        /* \"#utility.yul\":5044:5066   */\n      add\n        /* \"#utility.yul\":5023:5076   */\n      tag_355\n      jump\t// in\n    tag_465:\n        /* \"#utility.yul\":5013:5076   */\n      swap3\n      pop\n        /* \"#utility.yul\":4969:5086   */\n      pop\n        /* \"#utility.yul\":5125:5127   */\n      0x20\n        /* \"#utility.yul\":5151:5204   */\n      tag_466\n        /* \"#utility.yul\":5196:5203   */\n      dup6\n        /* \"#utility.yul\":5187:5193   */\n      dup3\n        /* \"#utility.yul\":5176:5185   */\n      dup7\n        /* \"#utility.yul\":5172:5194   */\n      add\n        /* \"#utility.yul\":5151:5204   */\n      tag_355\n      jump\t// in\n    tag_466:\n        /* \"#utility.yul\":5141:5204   */\n      swap2\n      pop\n        /* \"#utility.yul\":5096:5214   */\n      pop\n        /* \"#utility.yul\":4747:5221   */\n      swap3\n      pop\n      swap3\n      swap1\n      pop\n      jump\t// out\n        /* \"#utility.yul\":5227:5846   */\n    tag_66:\n        /* \"#utility.yul\":5304:5310   */\n      0x00\n        /* \"#utility.yul\":5312:5318   */\n      dup1\n        /* \"#utility.yul\":5320:5326   */\n      0x00\n        /* \"#utility.yul\":5369:5371   */\n      0x60\n        /* \"#utility.yul\":5357:5366   */\n      dup5\n        /* \"#utility.yul\":5348:5355   */\n      dup7\n        /* \"#utility.yul\":5344:5367   */\n      sub\n        /* \"#utility.yul\":5340:5372   */\n      slt\n        /* \"#utility.yul\":5337:5456   */\n      iszero\n      tag_468\n      jumpi\n        /* \"#utility.yul\":5375:5454   */\n      tag_469\n      tag_351\n      jump\t// in\n    tag_469:\n        /* \"#utility.yul\":5337:5456   */\n    tag_468:\n        /* \"#utility.yul\":5495:5496   */\n      0x00\n        /* \"#utility.yul\":5520:5573   */\n      tag_470\n        /* \"#utility.yul\":5565:5572   */\n      dup7\n        /* \"#utility.yul\":5556:5562   */\n      dup3\n        /* \"#utility.yul\":5545:5554   */\n      dup8\n        /* \"#utility.yul\":5541:5563   */\n      add\n        /* \"#utility.yul\":5520:5573   */\n      tag_355\n      jump\t// in\n    tag_470:\n        /* \"#utility.yul\":5510:5573   */\n      swap4\n      pop\n        /* \"#utility.yul\":5466:5583   */\n      pop\n        /* \"#utility.yul\":5622:5624   */\n      0x20\n        /* \"#utility.yul\":5648:5701   */\n      tag_471\n        /* \"#utility.yul\":5693:5700   */\n      dup7\n        /* \"#utility.yul\":5684:5690   */\n      dup3\n        /* \"#utility.yul\":5673:5682   */\n      dup8\n        /* \"#utility.yul\":5669:5691   */\n      add\n        /* \"#utility.yul\":5648:5701   */\n      tag_360\n      jump\t// in\n    tag_471:\n        /* \"#utility.yul\":5638:5701   */\n      swap3\n      pop\n        /* \"#utility.yul\":5593:5711   */\n      pop\n        /* \"#utility.yul\":5750:5752   */\n      0x40\n        /* \"#utility.yul\":5776:5829   */\n      tag_472\n        /* \"#utility.yul\":5821:5828   */\n      dup7\n        /* \"#utility.yul\":5812:5818   */\n      dup3\n        /* \"#utility.yul\":5801:5810   */\n      dup8\n        /* \"#utility.yul\":5797:5819   */\n      add\n        /* \"#utility.yul\":5776:5829   */\n      tag_355\n      jump\t// in\n    tag_472:\n        /* \"#utility.yul\":5766:5829   */\n      swap2\n      pop\n        /* \"#utility.yul\":5721:5839   */\n      pop\n        /* \"#utility.yul\":5227:5846   */\n      swap3\n      pop\n      swap3\n      pop\n      swap3\n      jump\t// out\n        /* \"#utility.yul\":5852:5912   */\n    tag_368:\n        /* \"#utility.yul\":5880:5883   */\n      0x00\n        /* \"#utility.yul\":5901:5906   */\n      dup2\n        /* \"#utility.yul\":5894:5906   */\n      swap1\n      pop\n        /* \"#utility.yul\":5852:5912   */\n      swap2\n      swap1\n      pop\n      jump\t// out\n        /* \"#utility.yul\":5918:6060   */\n    tag_369:\n        /* \"#utility.yul\":5968:5977   */\n      0x00\n        /* \"#utility.yul\":6001:6054   */\n      tag_475\n        /* \"#utility.yul\":6019:6053   */\n      tag_476\n        /* \"#utility.yul\":6028:6052   */\n      tag_477\n        /* \"#utility.yul\":6046:6051   */\n      dup5\n        /* \"#utility.yul\":6028:6052   */\n      tag_356\n      jump\t// in\n    tag_477:\n        /* \"#utility.yul\":6019:6053   */\n      tag_368\n      jump\t// in\n    tag_476:\n        /* \"#utility.yul\":6001:6054   */\n      tag_356\n      jump\t// in\n    tag_475:\n        /* \"#utility.yul\":5988:6054   */\n      swap1\n      pop\n        /* \"#utility.yul\":5918:6060   */\n      swap2\n      swap1\n      pop\n      jump\t// out\n        /* \"#utility.yul\":6066:6192   */\n    tag_370:\n        /* \"#utility.yul\":6116:6125   */\n      0x00\n        /* \"#utility.yul\":6149:6186   */\n      tag_479\n        /* \"#utility.yul\":6180:6185   */\n      dup3\n        /* \"#utility.yul\":6149:6186   */\n      tag_369\n      jump\t// in\n    tag_479:\n        /* \"#utility.yul\":6136:6186   */\n      swap1\n      pop\n        /* \"#utility.yul\":6066:6192   */\n      swap2\n      swap1\n      pop\n      jump\t// out\n        /* \"#utility.yul\":6198:6338   */\n    tag_371:\n        /* \"#utility.yul\":6262:6271   */\n      0x00\n        /* \"#utility.yul\":6295:6332   */\n      tag_481\n        /* \"#utility.yul\":6326:6331   */\n      dup3\n        /* \"#utility.yul\":6295:6332   */\n      tag_370\n      jump\t// in\n    tag_481:\n        /* \"#utility.yul\":6282:6332   */\n      swap1\n      pop\n        /* \"#utility.yul\":6198:6338   */\n      swap2\n      swap1\n      pop\n      jump\t// out\n        /* \"#utility.yul\":6344:6503   */\n    tag_372:\n        /* \"#utility.yul\":6445:6496   */\n      tag_483\n        /* \"#utility.yul\":6490:6495   */\n      dup2\n        /* \"#utility.yul\":6445:6496   */\n      tag_371\n      jump\t// in\n    tag_483:\n        /* \"#utility.yul\":6440:6443   */\n      dup3\n        /* \"#utility.yul\":6433:6497   */\n      mstore\n        /* \"#utility.yul\":6344:6503   */\n      pop\n      pop\n      jump\t// out\n        /* \"#utility.yul\":6509:6759   */\n    tag_71:\n        /* \"#utility.yul\":6616:6620   */\n      0x00\n        /* \"#utility.yul\":6654:6656   */\n      0x20\n        /* \"#utility.yul\":6643:6652   */\n      dup3\n        /* \"#utility.yul\":6639:6657   */\n      add\n        /* \"#utility.yul\":6631:6657   */\n      swap1\n      pop\n        /* \"#utility.yul\":6667:6752   */\n      tag_485\n        /* \"#utility.yul\":6749:6750   */\n      0x00\n        /* \"#utility.yul\":6738:6747   */\n      dup4\n        /* \"#utility.yul\":6734:6751   */\n      add\n        /* \"#utility.yul\":6725:6731   */\n      dup5\n        /* \"#utility.yul\":6667:6752   */\n      tag_372\n      jump\t// in\n    tag_485:\n        /* \"#utility.yul\":6509:6759   */\n      swap3\n      swap2\n      pop\n      pop\n      jump\t// out\n        /* \"#utility.yul\":6765:6881   */\n    tag_373:\n        /* \"#utility.yul\":6835:6856   */\n      tag_487\n        /* \"#utility.yul\":6850:6855   */\n      dup2\n        /* \"#utility.yul\":6835:6856   */\n      tag_366\n      jump\t// in\n    tag_487:\n        /* \"#utility.yul\":6828:6833   */\n      dup2\n        /* \"#utility.yul\":6825:6857   */\n      eq\n        /* \"#utility.yul\":6815:6875   */\n      tag_488\n      jumpi\n        /* \"#utility.yul\":6871:6872   */\n      0x00\n        /* \"#utility.yul\":6868:6869   */\n      dup1\n        /* \"#utility.yul\":6861:6873   */\n      revert\n        /* \"#utility.yul\":6815:6875   */\n    tag_488:\n        /* \"#utility.yul\":6765:6881   */\n      pop\n      jump\t// out\n        /* \"#utility.yul\":6887:7020   */\n    tag_374:\n        /* \"#utility.yul\":6930:6935   */\n      0x00\n        /* \"#utility.yul\":6968:6974   */\n      dup2\n        /* \"#utility.yul\":6955:6975   */\n      calldataload\n        /* \"#utility.yul\":6946:6975   */\n      swap1\n      pop\n        /* \"#utility.yul\":6984:7014   */\n      tag_490\n        /* \"#utility.yul\":7008:7013   */\n      dup2\n        /* \"#utility.yul\":6984:7014   */\n      tag_373\n      jump\t// in\n    tag_490:\n        /* \"#utility.yul\":6887:7020   */\n      swap3\n      swap2\n      pop\n      pop\n      jump\t// out\n        /* \"#utility.yul\":7026:7349   */\n    tag_83:\n        /* \"#utility.yul\":7082:7088   */\n      0x00\n        /* \"#utility.yul\":7131:7133   */\n      0x20\n        /* \"#utility.yul\":7119:7128   */\n      dup3\n        /* \"#utility.yul\":7110:7117   */\n      dup5\n        /* \"#utility.yul\":7106:7129   */\n      sub\n        /* \"#utility.yul\":7102:7134   */\n      slt\n        /* \"#utility.yul\":7099:7218   */\n      iszero\n      tag_492\n      jumpi\n        /* \"#utility.yul\":7137:7216   */\n      tag_493\n      tag_351\n      jump\t// in\n    tag_493:\n        /* \"#utility.yul\":7099:7218   */\n    tag_492:\n        /* \"#utility.yul\":7257:7258   */\n      0x00\n        /* \"#utility.yul\":7282:7332   */\n      tag_494\n        /* \"#utility.yul\":7324:7331   */\n      dup5\n        /* \"#utility.yul\":7315:7321   */\n      dup3\n        /* \"#utility.yul\":7304:7313   */\n      dup6\n        /* \"#utility.yul\":7300:7322   */\n      add\n        /* \"#utility.yul\":7282:7332   */\n      tag_374\n      jump\t// in\n    tag_494:\n        /* \"#utility.yul\":7272:7332   */\n      swap2\n      pop\n        /* \"#utility.yul\":7228:7342   */\n      pop\n        /* \"#utility.yul\":7026:7349   */\n      swap3\n      swap2\n      pop\n      pop\n      jump\t// out\n        /* \"#utility.yul\":7355:7524   */\n    tag_375:\n        /* \"#utility.yul\":7439:7450   */\n      0x00\n        /* \"#utility.yul\":7473:7479   */\n      dup3\n        /* \"#utility.yul\":7468:7471   */\n      dup3\n        /* \"#utility.yul\":7461:7480   */\n      mstore\n        /* \"#utility.yul\":7513:7517   */\n      0x20\n        /* \"#utility.yul\":7508:7511   */\n      dup3\n        /* \"#utility.yul\":7504:7518   */\n      add\n        /* \"#utility.yul\":7489:7518   */\n      swap1\n      pop\n        /* \"#utility.yul\":7355:7524   */\n      swap3\n      swap2\n      pop\n      pop\n      jump\t// out\n        /* \"#utility.yul\":7530:7692   */\n    tag_376:\n        /* \"#utility.yul\":7670:7684   */\n      0x4e6f74206f70657261746f720000000000000000000000000000000000000000\n        /* \"#utility.yul\":7666:7667   */\n      0x00\n        /* \"#utility.yul\":7658:7664   */\n      dup3\n        /* \"#utility.yul\":7654:7668   */\n      add\n        /* \"#utility.yul\":7647:7685   */\n      mstore\n        /* \"#utility.yul\":7530:7692   */\n      pop\n      jump\t// out\n        /* \"#utility.yul\":7698:8064   */\n    tag_377:\n        /* \"#utility.yul\":7840:7843   */\n      0x00\n        /* \"#utility.yul\":7861:7928   */\n      tag_498\n        /* \"#utility.yul\":7925:7927   */\n      0x0c\n        /* \"#utility.yul\":7920:7923   */\n      dup4\n        /* \"#utility.yul\":7861:7928   */\n      tag_375\n      jump\t// in\n    tag_498:\n        /* \"#utility.yul\":7854:7928   */\n      swap2\n      pop\n        /* \"#utility.yul\":7937:8030   */\n      tag_499\n        /* \"#utility.yul\":8026:8029   */\n      dup3\n        /* \"#utility.yul\":7937:8030   */\n      tag_376\n      jump\t// in\n    tag_499:\n        /* \"#utility.yul\":8055:8057   */\n      0x20\n        /* \"#utility.yul\":8050:8053   */\n      dup3\n        /* \"#utility.yul\":8046:8058   */\n      add\n        /* \"#utility.yul\":8039:8058   */\n      swap1\n      pop\n        /* \"#utility.yul\":7698:8064   */\n      swap2\n      swap1\n      pop\n      jump\t// out\n        /* \"#utility.yul\":8070:8489   */\n    tag_88:\n        /* \"#utility.yul\":8236:8240   */\n      0x00\n        /* \"#utility.yul\":8274:8276   */\n      0x20\n        /* \"#utility.yul\":8263:8272   */\n      dup3\n        /* \"#utility.yul\":8259:8277   */\n      add\n        /* \"#utility.yul\":8251:8277   */\n      swap1\n      pop\n        /* \"#utility.yul\":8323:8332   */\n      dup2\n        /* \"#utility.yul\":8317:8321   */\n      dup2\n        /* \"#utility.yul\":8313:8333   */\n      sub\n        /* \"#utility.yul\":8309:8310   */\n      0x00\n        /* \"#utility.yul\":8298:8307   */\n      dup4\n        /* \"#utility.yul\":8294:8311   */\n      add\n        /* \"#utility.yul\":8287:8334   */\n      mstore\n        /* \"#utility.yul\":8351:8482   */\n      tag_501\n        /* \"#utility.yul\":8477:8481   */\n      dup2\n        /* \"#utility.yul\":8351:8482   */\n      tag_377\n      jump\t// in\n    tag_501:\n        /* \"#utility.yul\":8343:8482   */\n      swap1\n      pop\n        /* \"#utility.yul\":8070:8489   */\n      swap2\n      swap1\n      pop\n      jump\t// out\n        /* \"#utility.yul\":8495:8675   */\n    tag_378:\n        /* \"#utility.yul\":8543:8620   */\n      0x4e487b7100000000000000000000000000000000000000000000000000000000\n        /* \"#utility.yul\":8540:8541   */\n      0x00\n        /* \"#utility.yul\":8533:8621   */\n      mstore\n        /* \"#utility.yul\":8640:8644   */\n      0x11\n        /* \"#utility.yul\":8637:8638   */\n      0x04\n        /* \"#utility.yul\":8630:8645   */\n      mstore\n        /* \"#utility.yul\":8664:8668   */\n      0x24\n        /* \"#utility.yul\":8661:8662   */\n      0x00\n        /* \"#utility.yul\":8654:8669   */\n      revert\n        /* \"#utility.yul\":8681:8914   */\n    tag_94:\n        /* \"#utility.yul\":8720:8723   */\n      0x00\n        /* \"#utility.yul\":8743:8767   */\n      tag_504\n        /* \"#utility.yul\":8761:8766   */\n      dup3\n        /* \"#utility.yul\":8743:8767   */\n      tag_353\n      jump\t// in\n    tag_504:\n        /* \"#utility.yul\":8734:8767   */\n      swap2\n      pop\n        /* \"#utility.yul\":8789:8855   */\n      0xffffffffffffffffffffffffffffffffffffffffffffffffffffffffffffffff\n        /* \"#utility.yul\":8782:8787   */\n      dup3\n        /* \"#utility.yul\":8779:8856   */\n      sub\n        /* \"#utility.yul\":8776:8879   */\n      tag_505\n      jumpi\n        /* \"#utility.yul\":8859:8877   */\n      tag_506\n      tag_378\n      jump\t// in\n    tag_506:\n        /* \"#utility.yul\":8776:8879   */\n    tag_505:\n        /* \"#utility.yul\":8906:8907   */\n      0x01\n        /* \"#utility.yul\":8899:8904   */\n      dup3\n        /* \"#utility.yul\":8895:8908   */\n      add\n        /* \"#utility.yul\":8888:8908   */\n      swap1\n      pop\n        /* \"#utility.yul\":8681:8914   */\n      swap2\n      swap1\n      pop\n      jump\t// out\n        /* \"#utility.yul\":8920:9572   */\n    tag_101:\n        /* \"#utility.yul\":9119:9123   */\n      0x00\n        /* \"#utility.yul\":9157:9160   */\n      0xa0\n        /* \"#utility.yul\":9146:9155   */\n      dup3\n        /* \"#utility.yul\":9142:9161   */\n      add\n        /* \"#utility.yul\":9134:9161   */\n      swap1\n      pop\n        /* \"#utility.yul\":9171:9242   */\n      tag_508\n        /* \"#utility.yul\":9239:9240   */\n      0x00\n        /* \"#utility.yul\":9228:9237   */\n      dup4\n        /* \"#utility.yul\":9224:9241   */\n      add\n        /* \"#utility.yul\":9215:9221   */\n      dup9\n        /* \"#utility.yul\":9171:9242   */\n      tag_361\n      jump\t// in\n    tag_508:\n        /* \"#utility.yul\":9252:9324   */\n      tag_509\n        /* \"#utility.yul\":9320:9322   */\n      0x20\n        /* \"#utility.yul\":9309:9318   */\n      dup4\n        /* \"#utility.yul\":9305:9323   */\n      add\n        /* \"#utility.yul\":9296:9302   */\n      dup8\n        /* \"#utility.yul\":9252:9324   */\n      tag_361\n      jump\t// in\n    tag_509:\n        /* \"#utility.yul\":9334:9406   */\n      tag_510\n        /* \"#utility.yul\":9402:9404   */\n      0x40\n        /* \"#utility.yul\":9391:9400   */\n      dup4\n        /* \"#utility.yul\":9387:9405   */\n      add\n        /* \"#utility.yul\":9378:9384   */\n      dup7\n        /* \"#utility.yul\":9334:9406   */\n      tag_361\n      jump\t// in\n    tag_510:\n        /* \"#utility.yul\":9416:9488   */\n      tag_511\n        /* \"#utility.yul\":9484:9486   */\n      0x60\n        /* \"#utility.yul\":9473:9482   */\n      dup4\n        /* \"#utility.yul\":9469:9487   */\n      add\n        /* \"#utility.yul\":9460:9466   */\n      dup6\n        /* \"#utility.yul\":9416:9488   */\n      tag_361\n      jump\t// in\n    tag_511:\n        /* \"#utility.yul\":9498:9565   */\n      tag_512\n        /* \"#utility.yul\":9560:9563   */\n      0x80\n        /* \"#utility.yul\":9549:9558   */\n      dup4\n        /* \"#utility.yul\":9545:9564   */\n      add\n        /* \"#utility.yul\":9536:9542   */\n      dup5\n        /* \"#utility.yul\":9498:9565   */\n      tag_367\n      jump\t// in\n    tag_512:\n        /* \"#utility.yul\":8920:9572   */\n      swap7\n      swap6\n      pop\n      pop\n      pop\n      pop\n      pop\n      pop\n      jump\t// out\n        /* \"#utility.yul\":9578:9988   */\n    tag_104:\n        /* \"#utility.yul\":9618:9625   */\n      0x00\n        /* \"#utility.yul\":9641:9661   */\n      tag_514\n        /* \"#utility.yul\":9659:9660   */\n      dup3\n        /* \"#utility.yul\":9641:9661   */\n      tag_353\n      jump\t// in\n    tag_514:\n        /* \"#utility.yul\":9636:9661   */\n      swap2\n      pop\n        /* \"#utility.yul\":9675:9695   */\n      tag_515\n        /* \"#utility.yul\":9693:9694   */\n      dup4\n        /* \"#utility.yul\":9675:9695   */\n      tag_353\n      jump\t// in\n    tag_515:\n        /* \"#utility.yul\":9670:9695   */\n      swap3\n      pop\n        /* \"#utility.yul\":9730:9731   */\n      dup3\n        /* \"#utility.yul\":9727:9728   */\n      dup3\n        /* \"#utility.yul\":9723:9732   */\n      mul\n        /* \"#utility.yul\":9752:9782   */\n      tag_516\n        /* \"#utility.yul\":9770:9781   */\n      dup2\n        /* \"#utility.yul\":9752:9782   */\n      tag_353\n      jump\t// in\n    tag_516:\n        /* \"#utility.yul\":9741:9782   */\n      swap2\n      pop\n        /* \"#utility.yul\":9931:9932   */\n      dup3\n        /* \"#utility.yul\":9922:9929   */\n      dup3\n        /* \"#utility.yul\":9918:9933   */\n      div\n        /* \"#utility.yul\":9915:9916   */\n      dup5\n        /* \"#utility.yul\":9912:9934   */\n      eq\n        /* \"#utility.yul\":9892:9893   */\n      dup4\n        /* \"#utility.yul\":9885:9894   */\n      iszero\n        /* \"#utility.yul\":9865:9948   */\n      or\n        /* \"#utility.yul\":9842:9981   */\n      tag_517\n      jumpi\n        /* \"#utility.yul\":9961:9979   */\n      tag_518\n      tag_378\n      jump\t// in\n    tag_518:\n        /* \"#utility.yul\":9842:9981   */\n    tag_517:\n        /* \"#utility.yul\":9626:9988   */\n      pop\n        /* \"#utility.yul\":9578:9988   */\n      swap3\n      swap2\n      pop\n      pop\n      jump\t// out\n        /* \"#utility.yul\":9994:10185   */\n    tag_108:\n        /* \"#utility.yul\":10034:10037   */\n      0x00\n        /* \"#utility.yul\":10053:10073   */\n      tag_520\n        /* \"#utility.yul\":10071:10072   */\n      dup3\n        /* \"#utility.yul\":10053:10073   */\n      tag_353\n      jump\t// in\n    tag_520:\n        /* \"#utility.yul\":10048:10073   */\n      swap2\n      pop\n        /* \"#utility.yul\":10087:10107   */\n      tag_521\n        /* \"#utility.yul\":10105:10106   */\n      dup4\n        /* \"#utility.yul\":10087:10107   */\n      tag_353\n      jump\t// in\n    tag_521:\n        /* \"#utility.yul\":10082:10107   */\n      swap3\n      pop\n        /* \"#utility.yul\":10130:10131   */\n      dup3\n        /* \"#utility.yul\":10127:10128   */\n      dup3\n        /* \"#utility.yul\":10123:10132   */\n      add\n        /* \"#utility.yul\":10116:10132   */\n      swap1\n      pop\n        /* \"#utility.yul\":10151:10154   */\n      dup1\n        /* \"#utility.yul\":10148:10149   */\n      dup3\n        /* \"#utility.yul\":10145:10155   */\n      gt\n        /* \"#utility.yul\":10142:10178   */\n      iszero\n      tag_522\n      jumpi\n        /* \"#utility.yul\":10158:10176   */\n      tag_523\n      tag_378\n      jump\t// in\n    tag_523:\n        /* \"#utility.yul\":10142:10178   */\n    tag_522:\n        /* \"#utility.yul\":9994:10185   */\n      swap3\n      swap2\n      pop\n      pop\n      jump\t// out\n        /* \"#utility.yul\":10191:10363   */\n    tag_379:\n        /* \"#utility.yul\":10331:10355   */\n      0x43616e6e6f74206265207a65726f206164647265737300000000000000000000\n        /* \"#utility.yul\":10327:10328   */\n      0x00\n        /* \"#utility.yul\":10319:10325   */\n      dup3\n        /* \"#utility.yul\":10315:10329   */\n      add\n        /* \"#utility.yul\":10308:10356   */\n      mstore\n        /* \"#utility.yul\":10191:10363   */\n      pop\n      jump\t// out\n        /* \"#utility.yul\":10369:10735   */\n    tag_380:\n        /* \"#utility.yul\":10511:10514   */\n      0x00\n        /* \"#utility.yul\":10532:10599   */\n      tag_526\n        /* \"#utility.yul\":10596:10598   */\n      0x16\n        /* \"#utility.yul\":10591:10594   */\n      dup4\n        /* \"#utility.yul\":10532:10599   */\n      tag_375\n      jump\t// in\n    tag_526:\n        /* \"#utility.yul\":10525:10599   */\n      swap2\n      pop\n        /* \"#utility.yul\":10608:10701   */\n      tag_527\n        /* \"#utility.yul\":10697:10700   */\n      dup3\n        /* \"#utility.yul\":10608:10701   */\n      tag_379\n      jump\t// in\n    tag_527:\n        /* \"#utility.yul\":10726:10728   */\n      0x20\n        /* \"#utility.yul\":10721:10724   */\n      dup3\n        /* \"#utility.yul\":10717:10729   */\n      add\n        /* \"#utility.yul\":10710:10729   */\n      swap1\n      pop\n        /* \"#utility.yul\":10369:10735   */\n      swap2\n      swap1\n      pop\n      jump\t// out\n        /* \"#utility.yul\":10741:11160   */\n    tag_118:\n        /* \"#utility.yul\":10907:10911   */\n      0x00\n        /* \"#utility.yul\":10945:10947   */\n      0x20\n        /* \"#utility.yul\":10934:10943   */\n      dup3\n        /* \"#utility.yul\":10930:10948   */\n      add\n        /* \"#utility.yul\":10922:10948   */\n      swap1\n      pop\n        /* \"#utility.yul\":10994:11003   */\n      dup2\n        /* \"#utility.yul\":10988:10992   */\n      dup2\n        /* \"#utility.yul\":10984:11004   */\n      sub\n        /* \"#utility.yul\":10980:10981   */\n      0x00\n        /* \"#utility.yul\":10969:10978   */\n      dup4\n        /* \"#utility.yul\":10965:10982   */\n      add\n        /* \"#utility.yul\":10958:11005   */\n      mstore\n        /* \"#utility.yul\":11022:11153   */\n      tag_529\n        /* \"#utility.yul\":11148:11152   */\n      dup2\n        /* \"#utility.yul\":11022:11153   */\n      tag_380\n      jump\t// in\n    tag_529:\n        /* \"#utility.yul\":11014:11153   */\n      swap1\n      pop\n        /* \"#utility.yul\":10741:11160   */\n      swap2\n      swap1\n      pop\n      jump\t// out\n        /* \"#utility.yul\":11166:11339   */\n    tag_381:\n        /* \"#utility.yul\":11306:11331   */\n      0x526564456e76656c6f7065206973206e6f74206f70656e000000000000000000\n        /* \"#utility.yul\":11302:11303   */\n      0x00\n        /* \"#utility.yul\":11294:11300   */\n      dup3\n        /* \"#utility.yul\":11290:11304   */\n      add\n        /* \"#utility.yul\":11283:11332   */\n      mstore\n        /* \"#utility.yul\":11166:11339   */\n      pop\n      jump\t// out\n        /* \"#utility.yul\":11345:11711   */\n    tag_382:\n        /* \"#utility.yul\":11487:11490   */\n      0x00\n        /* \"#utility.yul\":11508:11575   */\n      tag_532\n        /* \"#utility.yul\":11572:11574   */\n      0x17\n        /* \"#utility.yul\":11567:11570   */\n      dup4\n        /* \"#utility.yul\":11508:11575   */\n      tag_375\n      jump\t// in\n    tag_532:\n        /* \"#utility.yul\":11501:11575   */\n      swap2\n      pop\n        /* \"#utility.yul\":11584:11677   */\n      tag_533\n        /* \"#utility.yul\":11673:11676   */\n      dup3\n        /* \"#utility.yul\":11584:11677   */\n      tag_381\n      jump\t// in\n    tag_533:\n        /* \"#utility.yul\":11702:11704   */\n      0x20\n        /* \"#utility.yul\":11697:11700   */\n      dup3\n        /* \"#utility.yul\":11693:11705   */\n      add\n        /* \"#utility.yul\":11686:11705   */\n      swap1\n      pop\n        /* \"#utility.yul\":11345:11711   */\n      swap2\n      swap1\n      pop\n      jump\t// out\n        /* \"#utility.yul\":11717:12136   */\n    tag_132:\n        /* \"#utility.yul\":11883:11887   */\n      0x00\n        /* \"#utility.yul\":11921:11923   */\n      0x20\n        /* \"#utility.yul\":11910:11919   */\n      dup3\n        /* \"#utility.yul\":11906:11924   */\n      add\n        /* \"#utility.yul\":11898:11924   */\n      swap1\n      pop\n        /* \"#utility.yul\":11970:11979   */\n      dup2\n        /* \"#utility.yul\":11964:11968   */\n      dup2\n        /* \"#utility.yul\":11960:11980   */\n      sub\n        /* \"#utility.yul\":11956:11957   */\n      0x00\n        /* \"#utility.yul\":11945:11954   */\n      dup4\n        /* \"#utility.yul\":11941:11958   */\n      add\n        /* \"#utility.yul\":11934:11981   */\n      mstore\n        /* \"#utility.yul\":11998:12129   */\n      tag_535\n        /* \"#utility.yul\":12124:12128   */\n      dup2\n        /* \"#utility.yul\":11998:12129   */\n      tag_382\n      jump\t// in\n    tag_535:\n        /* \"#utility.yul\":11990:12129   */\n      swap1\n      pop\n        /* \"#utility.yul\":11717:12136   */\n      swap2\n      swap1\n      pop\n      jump\t// out\n        /* \"#utility.yul\":12142:12584   */\n    tag_136:\n        /* \"#utility.yul\":12291:12295   */\n      0x00\n        /* \"#utility.yul\":12329:12331   */\n      0x60\n        /* \"#utility.yul\":12318:12327   */\n      dup3\n        /* \"#utility.yul\":12314:12332   */\n      add\n        /* \"#utility.yul\":12306:12332   */\n      swap1\n      pop\n        /* \"#utility.yul\":12342:12413   */\n      tag_537\n        /* \"#utility.yul\":12410:12411   */\n      0x00\n        /* \"#utility.yul\":12399:12408   */\n      dup4\n        /* \"#utility.yul\":12395:12412   */\n      add\n        /* \"#utility.yul\":12386:12392   */\n      dup7\n        /* \"#utility.yul\":12342:12413   */\n      tag_361\n      jump\t// in\n    tag_537:\n        /* \"#utility.yul\":12423:12495   */\n      tag_538\n        /* \"#utility.yul\":12491:12493   */\n      0x20\n        /* \"#utility.yul\":12480:12489   */\n      dup4\n        /* \"#utility.yul\":12476:12494   */\n      add\n        /* \"#utility.yul\":12467:12473   */\n      dup6\n        /* \"#utility.yul\":12423:12495   */\n      tag_361\n      jump\t// in\n    tag_538:\n        /* \"#utility.yul\":12505:12577   */\n      tag_539\n        /* \"#utility.yul\":12573:12575   */\n      0x40\n        /* \"#utility.yul\":12562:12571   */\n      dup4\n        /* \"#utility.yul\":12558:12576   */\n      add\n        /* \"#utility.yul\":12549:12555   */\n      dup5\n        /* \"#utility.yul\":12505:12577   */\n      tag_361\n      jump\t// in\n    tag_539:\n        /* \"#utility.yul\":12142:12584   */\n      swap5\n      swap4\n      pop\n      pop\n      pop\n      pop\n      jump\t// out\n        /* \"#utility.yul\":12590:12910   */\n    tag_144:\n        /* \"#utility.yul\":12705:12709   */\n      0x00\n        /* \"#utility.yul\":12743:12745   */\n      0x40\n        /* \"#utility.yul\":12732:12741   */\n      dup3\n        /* \"#utility.yul\":12728:12746   */\n      add\n        /* \"#utility.yul\":12720:12746   */\n      swap1\n      pop\n        /* \"#utility.yul\":12756:12827   */\n      tag_541\n        /* \"#utility.yul\":12824:12825   */\n      0x00\n        /* \"#utility.yul\":12813:12822   */\n      dup4\n        /* \"#utility.yul\":12809:12826   */\n      add\n        /* \"#utility.yul\":12800:12806   */\n      dup6\n        /* \"#utility.yul\":12756:12827   */\n      tag_361\n      jump\t// in\n    tag_541:\n        /* \"#utility.yul\":12837:12903   */\n      tag_542\n        /* \"#utility.yul\":12899:12901   */\n      0x20\n        /* \"#utility.yul\":12888:12897   */\n      dup4\n        /* \"#utility.yul\":12884:12902   */\n      add\n        /* \"#utility.yul\":12875:12881   */\n      dup5\n        /* \"#utility.yul\":12837:12903   */\n      tag_367\n      jump\t// in\n    tag_542:\n        /* \"#utility.yul\":12590:12910   */\n      swap4\n      swap3\n      pop\n      pop\n      pop\n      jump\t// out\n        /* \"#utility.yul\":12916:13087   */\n    tag_383:\n        /* \"#utility.yul\":13056:13079   */\n      0x526564456e76656c6f7065206e6f7420636c6f73650000000000000000000000\n        /* \"#utility.yul\":13052:13053   */\n      0x00\n        /* \"#utility.yul\":13044:13050   */\n      dup3\n        /* \"#utility.yul\":13040:13054   */\n      add\n        /* \"#utility.yul\":13033:13080   */\n      mstore\n        /* \"#utility.yul\":12916:13087   */\n      pop\n      jump\t// out\n        /* \"#utility.yul\":13093:13459   */\n    tag_384:\n        /* \"#utility.yul\":13235:13238   */\n      0x00\n        /* \"#utility.yul\":13256:13323   */\n      tag_545\n        /* \"#utility.yul\":13320:13322   */\n      0x15\n        /* \"#utility.yul\":13315:13318   */\n      dup4\n        /* \"#utility.yul\":13256:13323   */\n      tag_375\n      jump\t// in\n    tag_545:\n        /* \"#utility.yul\":13249:13323   */\n      swap2\n      pop\n        /* \"#utility.yul\":13332:13425   */\n      tag_546\n        /* \"#utility.yul\":13421:13424   */\n      dup3\n        /* \"#utility.yul\":13332:13425   */\n      tag_383\n      jump\t// in\n    tag_546:\n        /* \"#utility.yul\":13450:13452   */\n      0x20\n        /* \"#utility.yul\":13445:13448   */\n      dup3\n        /* \"#utility.yul\":13441:13453   */\n      add\n        /* \"#utility.yul\":13434:13453   */\n      swap1\n      pop\n        /* \"#utility.yul\":13093:13459   */\n      swap2\n      swap1\n      pop\n      jump\t// out\n        /* \"#utility.yul\":13465:13884   */\n    tag_163:\n        /* \"#utility.yul\":13631:13635   */\n      0x00\n        /* \"#utility.yul\":13669:13671   */\n      0x20\n        /* \"#utility.yul\":13658:13667   */\n      dup3\n        /* \"#utility.yul\":13654:13672   */\n      add\n        /* \"#utility.yul\":13646:13672   */\n      swap1\n      pop\n        /* \"#utility.yul\":13718:13727   */\n      dup2\n        /* \"#utility.yul\":13712:13716   */\n      dup2\n        /* \"#utility.yul\":13708:13728   */\n      sub\n        /* \"#utility.yul\":13704:13705   */\n      0x00\n        /* \"#utility.yul\":13693:13702   */\n      dup4\n        /* \"#utility.yul\":13689:13706   */\n      add\n        /* \"#utility.yul\":13682:13729   */\n      mstore\n        /* \"#utility.yul\":13746:13877   */\n      tag_548\n        /* \"#utility.yul\":13872:13876   */\n      dup2\n        /* \"#utility.yul\":13746:13877   */\n      tag_384\n      jump\t// in\n    tag_548:\n        /* \"#utility.yul\":13738:13877   */\n      swap1\n      pop\n        /* \"#utility.yul\":13465:13884   */\n      swap2\n      swap1\n      pop\n      jump\t// out\n        /* \"#utility.yul\":13890:14064   */\n    tag_385:\n        /* \"#utility.yul\":14030:14056   */\n      0x526564456e76656c6f7065206973206f7665722074696d650000000000000000\n        /* \"#utility.yul\":14026:14027   */\n      0x00\n        /* \"#utility.yul\":14018:14024   */\n      dup3\n        /* \"#utility.yul\":14014:14028   */\n      add\n        /* \"#utility.yul\":14007:14057   */\n      mstore\n        /* \"#utility.yul\":13890:14064   */\n      pop\n      jump\t// out\n        /* \"#utility.yul\":14070:14436   */\n    tag_386:\n        /* \"#utility.yul\":14212:14215   */\n      0x00\n        /* \"#utility.yul\":14233:14300   */\n      tag_551\n        /* \"#utility.yul\":14297:14299   */\n      0x18\n        /* \"#utility.yul\":14292:14295   */\n      dup4\n        /* \"#utility.yul\":14233:14300   */\n      tag_375\n      jump\t// in\n    tag_551:\n        /* \"#utility.yul\":14226:14300   */\n      swap2\n      pop\n        /* \"#utility.yul\":14309:14402   */\n      tag_552\n        /* \"#utility.yul\":14398:14401   */\n      dup3\n        /* \"#utility.yul\":14309:14402   */\n      tag_385\n      jump\t// in\n    tag_552:\n        /* \"#utility.yul\":14427:14429   */\n      0x20\n        /* \"#utility.yul\":14422:14425   */\n      dup3\n        /* \"#utility.yul\":14418:14430   */\n      add\n        /* \"#utility.yul\":14411:14430   */\n      swap1\n      pop\n        /* \"#utility.yul\":14070:14436   */\n      swap2\n      swap1\n      pop\n      jump\t// out\n        /* \"#utility.yul\":14442:14861   */\n    tag_194:\n        /* \"#utility.yul\":14608:14612   */\n      0x00\n        /* \"#utility.yul\":14646:14648   */\n      0x20\n        /* \"#utility.yul\":14635:14644   */\n      dup3\n        /* \"#utility.yul\":14631:14649   */\n      add\n        /* \"#utility.yul\":14623:14649   */\n      swap1\n      pop\n        /* \"#utility.yul\":14695:14704   */\n      dup2\n        /* \"#utility.yul\":14689:14693   */\n      dup2\n        /* \"#utility.yul\":14685:14705   */\n      sub\n        /* \"#utility.yul\":14681:14682   */\n      0x00\n        /* \"#utility.yul\":14670:14679   */\n      dup4\n        /* \"#utility.yul\":14666:14683   */\n      add\n        /* \"#utility.yul\":14659:14706   */\n      mstore\n        /* \"#utility.yul\":14723:14854   */\n      tag_554\n        /* \"#utility.yul\":14849:14853   */\n      dup2\n        /* \"#utility.yul\":14723:14854   */\n      tag_386\n      jump\t// in\n    tag_554:\n        /* \"#utility.yul\":14715:14854   */\n      swap1\n      pop\n        /* \"#utility.yul\":14442:14861   */\n      swap2\n      swap1\n      pop\n      jump\t// out\n        /* \"#utility.yul\":14867:15043   */\n    tag_387:\n        /* \"#utility.yul\":15007:15035   */\n      0x526564456e76656c6f7065206973206f766572207469636b6574000000000000\n        /* \"#utility.yul\":15003:15004   */\n      0x00\n        /* \"#utility.yul\":14995:15001   */\n      dup3\n        /* \"#utility.yul\":14991:15005   */\n      add\n        /* \"#utility.yul\":14984:15036   */\n      mstore\n        /* \"#utility.yul\":14867:15043   */\n      pop\n      jump\t// out\n        /* \"#utility.yul\":15049:15415   */\n    tag_388:\n        /* \"#utility.yul\":15191:15194   */\n      0x00\n        /* \"#utility.yul\":15212:15279   */\n      tag_557\n        /* \"#utility.yul\":15276:15278   */\n      0x1a\n        /* \"#utility.yul\":15271:15274   */\n      dup4\n        /* \"#utility.yul\":15212:15279   */\n      tag_375\n      jump\t// in\n    tag_557:\n        /* \"#utility.yul\":15205:15279   */\n      swap2\n      pop\n        /* \"#utility.yul\":15288:15381   */\n      tag_558\n        /* \"#utility.yul\":15377:15380   */\n      dup3\n        /* \"#utility.yul\":15288:15381   */\n      tag_387\n      jump\t// in\n    tag_558:\n        /* \"#utility.yul\":15406:15408   */\n      0x20\n        /* \"#utility.yul\":15401:15404   */\n      dup3\n        /* \"#utility.yul\":15397:15409   */\n      add\n        /* \"#utility.yul\":15390:15409   */\n      swap1\n      pop\n        /* \"#utility.yul\":15049:15415   */\n      swap2\n      swap1\n      pop\n      jump\t// out\n        /* \"#utility.yul\":15421:15840   */\n    tag_199:\n        /* \"#utility.yul\":15587:15591   */\n      0x00\n        /* \"#utility.yul\":15625:15627   */\n      0x20\n        /* \"#utility.yul\":15614:15623   */\n      dup3\n        /* \"#utility.yul\":15610:15628   */\n      add\n        /* \"#utility.yul\":15602:15628   */\n      swap1\n      pop\n        /* \"#utility.yul\":15674:15683   */\n      dup2\n        /* \"#utility.yul\":15668:15672   */\n      dup2\n        /* \"#utility.yul\":15664:15684   */\n      sub\n        /* \"#utility.yul\":15660:15661   */\n      0x00\n        /* \"#utility.yul\":15649:15658   */\n      dup4\n        /* \"#utility.yul\":15645:15662   */\n      add\n        /* \"#utility.yul\":15638:15685   */\n      mstore\n        /* \"#utility.yul\":15702:15833   */\n      tag_560\n        /* \"#utility.yul\":15828:15832   */\n      dup2\n        /* \"#utility.yul\":15702:15833   */\n      tag_388\n      jump\t// in\n    tag_560:\n        /* \"#utility.yul\":15694:15833   */\n      swap1\n      pop\n        /* \"#utility.yul\":15421:15840   */\n      swap2\n      swap1\n      pop\n      jump\t// out\n        /* \"#utility.yul\":15846:16021   */\n    tag_389:\n        /* \"#utility.yul\":15986:16013   */\n      0x526564456e76656c6f7065206e6f7420636c61696d61626c6500000000000000\n        /* \"#utility.yul\":15982:15983   */\n      0x00\n        /* \"#utility.yul\":15974:15980   */\n      dup3\n        /* \"#utility.yul\":15970:15984   */\n      add\n        /* \"#utility.yul\":15963:16014   */\n      mstore\n        /* \"#utility.yul\":15846:16021   */\n      pop\n      jump\t// out\n        /* \"#utility.yul\":16027:16393   */\n    tag_390:\n        /* \"#utility.yul\":16169:16172   */\n      0x00\n        /* \"#utility.yul\":16190:16257   */\n      tag_563\n        /* \"#utility.yul\":16254:16256   */\n      0x19\n        /* \"#utility.yul\":16249:16252   */\n      dup4\n        /* \"#utility.yul\":16190:16257   */\n      tag_375\n      jump\t// in\n    tag_563:\n        /* \"#utility.yul\":16183:16257   */\n      swap2\n      pop\n        /* \"#utility.yul\":16266:16359   */\n      tag_564\n        /* \"#utility.yul\":16355:16358   */\n      dup3\n        /* \"#utility.yul\":16266:16359   */\n      tag_389\n      jump\t// in\n    tag_564:\n        /* \"#utility.yul\":16384:16386   */\n      0x20\n        /* \"#utility.yul\":16379:16382   */\n      dup3\n        /* \"#utility.yul\":16375:16387   */\n      add\n        /* \"#utility.yul\":16368:16387   */\n      swap1\n      pop\n        /* \"#utility.yul\":16027:16393   */\n      swap2\n      swap1\n      pop\n      jump\t// out\n        /* \"#utility.yul\":16399:16818   */\n    tag_221:\n        /* \"#utility.yul\":16565:16569   */\n      0x00\n        /* \"#utility.yul\":16603:16605   */\n      0x20\n        /* \"#utility.yul\":16592:16601   */\n      dup3\n        /* \"#utility.yul\":16588:16606   */\n      add\n        /* \"#utility.yul\":16580:16606   */\n      swap1\n      pop\n        /* \"#utility.yul\":16652:16661   */\n      dup2\n        /* \"#utility.yul\":16646:16650   */\n      dup2\n        /* \"#utility.yul\":16642:16662   */\n      sub\n        /* \"#utility.yul\":16638:16639   */\n      0x00\n        /* \"#utility.yul\":16627:16636   */\n      dup4\n        /* \"#utility.yul\":16623:16640   */\n      add\n        /* \"#utility.yul\":16616:16663   */\n      mstore\n        /* \"#utility.yul\":16680:16811   */\n      tag_566\n        /* \"#utility.yul\":16806:16810   */\n      dup2\n        /* \"#utility.yul\":16680:16811   */\n      tag_390\n      jump\t// in\n    tag_566:\n        /* \"#utility.yul\":16672:16811   */\n      swap1\n      pop\n        /* \"#utility.yul\":16399:16818   */\n      swap2\n      swap1\n      pop\n      jump\t// out\n        /* \"#utility.yul\":16824:16996   */\n    tag_391:\n        /* \"#utility.yul\":16964:16988   */\n      0x526564456e76656c6f7065206175746f20636c61696d00000000000000000000\n        /* \"#utility.yul\":16960:16961   */\n      0x00\n        /* \"#utility.yul\":16952:16958   */\n      dup3\n        /* \"#utility.yul\":16948:16962   */\n      add\n        /* \"#utility.yul\":16941:16989   */\n      mstore\n        /* \"#utility.yul\":16824:16996   */\n      pop\n      jump\t// out\n        /* \"#utility.yul\":17002:17368   */\n    tag_392:\n        /* \"#utility.yul\":17144:17147   */\n      0x00\n        /* \"#utility.yul\":17165:17232   */\n      tag_569\n        /* \"#utility.yul\":17229:17231   */\n      0x16\n        /* \"#utility.yul\":17224:17227   */\n      dup4\n        /* \"#utility.yul\":17165:17232   */\n      tag_375\n      jump\t// in\n    tag_569:\n        /* \"#utility.yul\":17158:17232   */\n      swap2\n      pop\n        /* \"#utility.yul\":17241:17334   */\n      tag_570\n        /* \"#utility.yul\":17330:17333   */\n      dup3\n        /* \"#utility.yul\":17241:17334   */\n      tag_391\n      jump\t// in\n    tag_570:\n        /* \"#utility.yul\":17359:17361   */\n      0x20\n        /* \"#utility.yul\":17354:17357   */\n      dup3\n        /* \"#utility.yul\":17350:17362   */\n      add\n        /* \"#utility.yul\":17343:17362   */\n      swap1\n      pop\n        /* \"#utility.yul\":17002:17368   */\n      swap2\n      swap1\n      pop\n      jump\t// out\n        /* \"#utility.yul\":17374:17793   */\n    tag_224:\n        /* \"#utility.yul\":17540:17544   */\n      0x00\n        /* \"#utility.yul\":17578:17580   */\n      0x20\n        /* \"#utility.yul\":17567:17576   */\n      dup3\n        /* \"#utility.yul\":17563:17581   */\n      add\n        /* \"#utility.yul\":17555:17581   */\n      swap1\n      pop\n        /* \"#utility.yul\":17627:17636   */\n      dup2\n        /* \"#utility.yul\":17621:17625   */\n      dup2\n        /* \"#utility.yul\":17617:17637   */\n      sub\n        /* \"#utility.yul\":17613:17614   */\n      0x00\n        /* \"#utility.yul\":17602:17611   */\n      dup4\n        /* \"#utility.yul\":17598:17615   */\n      add\n        /* \"#utility.yul\":17591:17638   */\n      mstore\n        /* \"#utility.yul\":17655:17786   */\n      tag_572\n        /* \"#utility.yul\":17781:17785   */\n      dup2\n        /* \"#utility.yul\":17655:17786   */\n      tag_392\n      jump\t// in\n    tag_572:\n        /* \"#utility.yul\":17647:17786   */\n      swap1\n      pop\n        /* \"#utility.yul\":17374:17793   */\n      swap2\n      swap1\n      pop\n      jump\t// out\n        /* \"#utility.yul\":17799:18241   */\n    tag_243:\n        /* \"#utility.yul\":17948:17952   */\n      0x00\n        /* \"#utility.yul\":17986:17988   */\n      0x60\n        /* \"#utility.yul\":17975:17984   */\n      dup3\n        /* \"#utility.yul\":17971:17989   */\n      add\n        /* \"#utility.yul\":17963:17989   */\n      swap1\n      pop\n        /* \"#utility.yul\":17999:18070   */\n      tag_574\n        /* \"#utility.yul\":18067:18068   */\n      0x00\n        /* \"#utility.yul\":18056:18065   */\n      dup4\n        /* \"#utility.yul\":18052:18069   */\n      add\n        /* \"#utility.yul\":18043:18049   */\n      dup7\n        /* \"#utility.yul\":17999:18070   */\n      tag_358\n      jump\t// in\n    tag_574:\n        /* \"#utility.yul\":18080:18152   */\n      tag_575\n        /* \"#utility.yul\":18148:18150   */\n      0x20\n        /* \"#utility.yul\":18137:18146   */\n      dup4\n        /* \"#utility.yul\":18133:18151   */\n      add\n        /* \"#utility.yul\":18124:18130   */\n      dup6\n        /* \"#utility.yul\":18080:18152   */\n      tag_358\n      jump\t// in\n    tag_575:\n        /* \"#utility.yul\":18162:18234   */\n      tag_576\n        /* \"#utility.yul\":18230:18232   */\n      0x40\n        /* \"#utility.yul\":18219:18228   */\n      dup4\n        /* \"#utility.yul\":18215:18233   */\n      add\n        /* \"#utility.yul\":18206:18212   */\n      dup5\n        /* \"#utility.yul\":18162:18234   */\n      tag_361\n      jump\t// in\n    tag_576:\n        /* \"#utility.yul\":17799:18241   */\n      swap5\n      swap4\n      pop\n      pop\n      pop\n      pop\n      jump\t// out\n        /* \"#utility.yul\":18247:18427   */\n    tag_257:\n        /* \"#utility.yul\":18295:18372   */\n      0x4e487b7100000000000000000000000000000000000000000000000000000000\n        /* \"#utility.yul\":18292:18293   */\n      0x00\n        /* \"#utility.yul\":18285:18373   */\n      mstore\n        /* \"#utility.yul\":18392:18396   */\n      0x41\n        /* \"#utility.yul\":18389:18390   */\n      0x04\n        /* \"#utility.yul\":18382:18397   */\n      mstore\n        /* \"#utility.yul\":18416:18420   */\n      0x24\n        /* \"#utility.yul\":18413:18414   */\n      0x00\n        /* \"#utility.yul\":18406:18421   */\n      revert\n        /* \"#utility.yul\":18433:18627   */\n    tag_263:\n        /* \"#utility.yul\":18473:18477   */\n      0x00\n        /* \"#utility.yul\":18493:18513   */\n      tag_579\n        /* \"#utility.yul\":18511:18512   */\n      dup3\n        /* \"#utility.yul\":18493:18513   */\n      tag_353\n      jump\t// in\n    tag_579:\n        /* \"#utility.yul\":18488:18513   */\n      swap2\n      pop\n        /* \"#utility.yul\":18527:18547   */\n      tag_580\n        /* \"#utility.yul\":18545:18546   */\n      dup4\n        /* \"#utility.yul\":18527:18547   */\n      tag_353\n      jump\t// in\n    tag_580:\n        /* \"#utility.yul\":18522:18547   */\n      swap3\n      pop\n        /* \"#utility.yul\":18571:18572   */\n      dup3\n        /* \"#utility.yul\":18568:18569   */\n      dup3\n        /* \"#utility.yul\":18564:18573   */\n      sub\n        /* \"#utility.yul\":18556:18573   */\n      swap1\n      pop\n        /* \"#utility.yul\":18595:18596   */\n      dup2\n        /* \"#utility.yul\":18589:18593   */\n      dup2\n        /* \"#utility.yul\":18586:18597   */\n      gt\n        /* \"#utility.yul\":18583:18620   */\n      iszero\n      tag_581\n      jumpi\n        /* \"#utility.yul\":18600:18618   */\n      tag_582\n      tag_378\n      jump\t// in\n    tag_582:\n        /* \"#utility.yul\":18583:18620   */\n    tag_581:\n        /* \"#utility.yul\":18433:18627   */\n      swap3\n      swap2\n      pop\n      pop\n      jump\t// out\n        /* \"#utility.yul\":18633:18813   */\n    tag_393:\n        /* \"#utility.yul\":18681:18758   */\n      0x4e487b7100000000000000000000000000000000000000000000000000000000\n        /* \"#utility.yul\":18678:18679   */\n      0x00\n        /* \"#utility.yul\":18671:18759   */\n      mstore\n        /* \"#utility.yul\":18778:18782   */\n      0x12\n        /* \"#utility.yul\":18775:18776   */\n      0x04\n        /* \"#utility.yul\":18768:18783   */\n      mstore\n        /* \"#utility.yul\":18802:18806   */\n      0x24\n        /* \"#utility.yul\":18799:18800   */\n      0x00\n        /* \"#utility.yul\":18792:18807   */\n      revert\n        /* \"#utility.yul\":18819:18995   */\n    tag_267:\n        /* \"#utility.yul\":18851:18852   */\n      0x00\n        /* \"#utility.yul\":18868:18888   */\n      tag_585\n        /* \"#utility.yul\":18886:18887   */\n      dup3\n        /* \"#utility.yul\":18868:18888   */\n      tag_353\n      jump\t// in\n    tag_585:\n        /* \"#utility.yul\":18863:18888   */\n      swap2\n      pop\n        /* \"#utility.yul\":18902:18922   */\n      tag_586\n        /* \"#utility.yul\":18920:18921   */\n      dup4\n        /* \"#utility.yul\":18902:18922   */\n      tag_353\n      jump\t// in\n    tag_586:\n        /* \"#utility.yul\":18897:18922   */\n      swap3\n      pop\n        /* \"#utility.yul\":18941:18942   */\n      dup3\n        /* \"#utility.yul\":18931:18966   */\n      tag_587\n      jumpi\n        /* \"#utility.yul\":18946:18964   */\n      tag_588\n      tag_393\n      jump\t// in\n    tag_588:\n        /* \"#utility.yul\":18931:18966   */\n    tag_587:\n        /* \"#utility.yul\":18987:18988   */\n      dup3\n        /* \"#utility.yul\":18984:18985   */\n      dup3\n        /* \"#utility.yul\":18980:18989   */\n      mod\n        /* \"#utility.yul\":18975:18989   */\n      swap1\n      pop\n        /* \"#utility.yul\":18819:18995   */\n      swap3\n      swap2\n      pop\n      pop\n      jump\t// out\n        /* \"#utility.yul\":19001:19181   */\n    tag_274:\n        /* \"#utility.yul\":19049:19126   */\n      0x4e487b7100000000000000000000000000000000000000000000000000000000\n        /* \"#utility.yul\":19046:19047   */\n      0x00\n        /* \"#utility.yul\":19039:19127   */\n      mstore\n        /* \"#utility.yul\":19146:19150   */\n      0x32\n        /* \"#utility.yul\":19143:19144   */\n      0x04\n        /* \"#utility.yul\":19136:19151   */\n      mstore\n        /* \"#utility.yul\":19170:19174   */\n      0x24\n        /* \"#utility.yul\":19167:19168   */\n      0x00\n        /* \"#utility.yul\":19160:19175   */\n      revert\n        /* \"#utility.yul\":19187:19358   */\n    tag_281:\n        /* \"#utility.yul\":19226:19229   */\n      0x00\n        /* \"#utility.yul\":19249:19273   */\n      tag_591\n        /* \"#utility.yul\":19267:19272   */\n      dup3\n        /* \"#utility.yul\":19249:19273   */\n      tag_353\n      jump\t// in\n    tag_591:\n        /* \"#utility.yul\":19240:19273   */\n      swap2\n      pop\n        /* \"#utility.yul\":19295:19299   */\n      0x00\n        /* \"#utility.yul\":19288:19293   */\n      dup3\n        /* \"#utility.yul\":19285:19300   */\n      sub\n        /* \"#utility.yul\":19282:19323   */\n      tag_592\n      jumpi\n        /* \"#utility.yul\":19303:19321   */\n      tag_593\n      tag_378\n      jump\t// in\n    tag_593:\n        /* \"#utility.yul\":19282:19323   */\n    tag_592:\n        /* \"#utility.yul\":19350:19351   */\n      0x01\n        /* \"#utility.yul\":19343:19348   */\n      dup3\n        /* \"#utility.yul\":19339:19352   */\n      sub\n        /* \"#utility.yul\":19332:19352   */\n      swap1\n      pop\n        /* \"#utility.yul\":19187:19358   */\n      swap2\n      swap1\n      pop\n      jump\t// out\n        /* \"#utility.yul\":19364:19522   */\n    tag_394:\n        /* \"#utility.yul\":19504:19514   */\n      0x6e6f207072697a65000000000000000000000000000000000000000000000000\n        /* \"#utility.yul\":19500:19501   */\n      0x00\n        /* \"#utility.yul\":19492:19498   */\n      dup3\n        /* \"#utility.yul\":19488:19502   */\n      add\n        /* \"#utility.yul\":19481:19515   */\n      mstore\n        /* \"#utility.yul\":19364:19522   */\n      pop\n      jump\t// out\n        /* \"#utility.yul\":19528:19893   */\n    tag_395:\n        /* \"#utility.yul\":19670:19673   */\n      0x00\n        /* \"#utility.yul\":19691:19757   */\n      tag_596\n        /* \"#utility.yul\":19755:19756   */\n      0x08\n        /* \"#utility.yul\":19750:19753   */\n      dup4\n        /* \"#utility.yul\":19691:19757   */\n      tag_375\n      jump\t// in\n    tag_596:\n        /* \"#utility.yul\":19684:19757   */\n      swap2\n      pop\n        /* \"#utility.yul\":19766:19859   */\n      tag_597\n        /* \"#utility.yul\":19855:19858   */\n      dup3\n        /* \"#utility.yul\":19766:19859   */\n      tag_394\n      jump\t// in\n    tag_597:\n        /* \"#utility.yul\":19884:19886   */\n      0x20\n        /* \"#utility.yul\":19879:19882   */\n      dup3\n        /* \"#utility.yul\":19875:19887   */\n      add\n        /* \"#utility.yul\":19868:19887   */\n      swap1\n      pop\n        /* \"#utility.yul\":19528:19893   */\n      swap2\n      swap1\n      pop\n      jump\t// out\n        /* \"#utility.yul\":19899:20318   */\n    tag_300:\n        /* \"#utility.yul\":20065:20069   */\n      0x00\n        /* \"#utility.yul\":20103:20105   */\n      0x20\n        /* \"#utility.yul\":20092:20101   */\n      dup3\n        /* \"#utility.yul\":20088:20106   */\n      add\n        /* \"#utility.yul\":20080:20106   */\n      swap1\n      pop\n        /* \"#utility.yul\":20152:20161   */\n      dup2\n        /* \"#utility.yul\":20146:20150   */\n      dup2\n        /* \"#utility.yul\":20142:20162   */\n      sub\n        /* \"#utility.yul\":20138:20139   */\n      0x00\n        /* \"#utility.yul\":20127:20136   */\n      dup4\n        /* \"#utility.yul\":20123:20140   */\n      add\n        /* \"#utility.yul\":20116:20163   */\n      mstore\n        /* \"#utility.yul\":20180:20311   */\n      tag_599\n        /* \"#utility.yul\":20306:20310   */\n      dup2\n        /* \"#utility.yul\":20180:20311   */\n      tag_395\n      jump\t// in\n    tag_599:\n        /* \"#utility.yul\":20172:20311   */\n      swap1\n      pop\n        /* \"#utility.yul\":19899:20318   */\n      swap2\n      swap1\n      pop\n      jump\t// out\n        /* \"#utility.yul\":20324:20461   */\n    tag_396:\n        /* \"#utility.yul\":20378:20383   */\n      0x00\n        /* \"#utility.yul\":20409:20415   */\n      dup2\n        /* \"#utility.yul\":20403:20416   */\n      mload\n        /* \"#utility.yul\":20394:20416   */\n      swap1\n      pop\n        /* \"#utility.yul\":20425:20455   */\n      tag_601\n        /* \"#utility.yul\":20449:20454   */\n      dup2\n        /* \"#utility.yul\":20425:20455   */\n      tag_373\n      jump\t// in\n    tag_601:\n        /* \"#utility.yul\":20324:20461   */\n      swap3\n      swap2\n      pop\n      pop\n      jump\t// out\n        /* \"#utility.yul\":20467:20812   */\n    tag_309:\n        /* \"#utility.yul\":20534:20540   */\n      0x00\n        /* \"#utility.yul\":20583:20585   */\n      0x20\n        /* \"#utility.yul\":20571:20580   */\n      dup3\n        /* \"#utility.yul\":20562:20569   */\n      dup5\n        /* \"#utility.yul\":20558:20581   */\n      sub\n        /* \"#utility.yul\":20554:20586   */\n      slt\n        /* \"#utility.yul\":20551:20670   */\n      iszero\n      tag_603\n      jumpi\n        /* \"#utility.yul\":20589:20668   */\n      tag_604\n      tag_351\n      jump\t// in\n    tag_604:\n        /* \"#utility.yul\":20551:20670   */\n    tag_603:\n        /* \"#utility.yul\":20709:20710   */\n      0x00\n        /* \"#utility.yul\":20734:20795   */\n      tag_605\n        /* \"#utility.yul\":20787:20794   */\n      dup5\n        /* \"#utility.yul\":20778:20784   */\n      dup3\n        /* \"#utility.yul\":20767:20776   */\n      dup6\n        /* \"#utility.yul\":20763:20785   */\n      add\n        /* \"#utility.yul\":20734:20795   */\n      tag_396\n      jump\t// in\n    tag_605:\n        /* \"#utility.yul\":20724:20795   */\n      swap2\n      pop\n        /* \"#utility.yul\":20680:20805   */\n      pop\n        /* \"#utility.yul\":20467:20812   */\n      swap3\n      swap2\n      pop\n      pop\n      jump\t// out\n        /* \"#utility.yul\":20818:20897   */\n    tag_397:\n        /* \"#utility.yul\":20857:20864   */\n      0x00\n        /* \"#utility.yul\":20886:20891   */\n      dup2\n        /* \"#utility.yul\":20875:20891   */\n      swap1\n      pop\n        /* \"#utility.yul\":20818:20897   */\n      swap2\n      swap1\n      pop\n      jump\t// out\n        /* \"#utility.yul\":20903:21060   */\n    tag_398:\n        /* \"#utility.yul\":21008:21053   */\n      tag_608\n        /* \"#utility.yul\":21028:21052   */\n      tag_609\n        /* \"#utility.yul\":21046:21051   */\n      dup3\n        /* \"#utility.yul\":21028:21052   */\n      tag_353\n      jump\t// in\n    tag_609:\n        /* \"#utility.yul\":21008:21053   */\n      tag_397\n      jump\t// in\n    tag_608:\n        /* \"#utility.yul\":21003:21006   */\n      dup3\n        /* \"#utility.yul\":20996:21054   */\n      mstore\n        /* \"#utility.yul\":20903:21060   */\n      pop\n      pop\n      jump\t// out\n        /* \"#utility.yul\":21066:21463   */\n    tag_318:\n        /* \"#utility.yul\":21206:21209   */\n      0x00\n        /* \"#utility.yul\":21221:21296   */\n      tag_611\n        /* \"#utility.yul\":21292:21295   */\n      dup3\n        /* \"#utility.yul\":21283:21289   */\n      dup6\n        /* \"#utility.yul\":21221:21296   */\n      tag_398\n      jump\t// in\n    tag_611:\n        /* \"#utility.yul\":21321:21323   */\n      0x20\n        /* \"#utility.yul\":21316:21319   */\n      dup3\n        /* \"#utility.yul\":21312:21324   */\n      add\n        /* \"#utility.yul\":21305:21324   */\n      swap2\n      pop\n        /* \"#utility.yul\":21334:21409   */\n      tag_612\n        /* \"#utility.yul\":21405:21408   */\n      dup3\n        /* \"#utility.yul\":21396:21402   */\n      dup5\n        /* \"#utility.yul\":21334:21409   */\n      tag_398\n      jump\t// in\n    tag_612:\n        /* \"#utility.yul\":21434:21436   */\n      0x20\n        /* \"#utility.yul\":21429:21432   */\n      dup3\n        /* \"#utility.yul\":21425:21437   */\n      add\n        /* \"#utility.yul\":21418:21437   */\n      swap2\n      pop\n        /* \"#utility.yul\":21454:21457   */\n      dup2\n        /* \"#utility.yul\":21447:21457   */\n      swap1\n      pop\n        /* \"#utility.yul\":21066:21463   */\n      swap4\n      swap3\n      pop\n      pop\n      pop\n      jump\t// out\n        /* \"#utility.yul\":21469:21801   */\n    tag_322:\n        /* \"#utility.yul\":21590:21594   */\n      0x00\n        /* \"#utility.yul\":21628:21630   */\n      0x40\n        /* \"#utility.yul\":21617:21626   */\n      dup3\n        /* \"#utility.yul\":21613:21631   */\n      add\n        /* \"#utility.yul\":21605:21631   */\n      swap1\n      pop\n        /* \"#utility.yul\":21641:21712   */\n      tag_614\n        /* \"#utility.yul\":21709:21710   */\n      0x00\n        /* \"#utility.yul\":21698:21707   */\n      dup4\n        /* \"#utility.yul\":21694:21711   */\n      add\n        /* \"#utility.yul\":21685:21691   */\n      dup6\n        /* \"#utility.yul\":21641:21712   */\n      tag_358\n      jump\t// in\n    tag_614:\n        /* \"#utility.yul\":21722:21794   */\n      tag_615\n        /* \"#utility.yul\":21790:21792   */\n      0x20\n        /* \"#utility.yul\":21779:21788   */\n      dup4\n        /* \"#utility.yul\":21775:21793   */\n      add\n        /* \"#utility.yul\":21766:21772   */\n      dup5\n        /* \"#utility.yul\":21722:21794   */\n      tag_361\n      jump\t// in\n    tag_615:\n        /* \"#utility.yul\":21469:21801   */\n      swap4\n      swap3\n      pop\n      pop\n      pop\n      jump\t// out\n        /* \"#utility.yul\":21807:21900   */\n    tag_399:\n        /* \"#utility.yul\":21843:21850   */\n      0x00\n        /* \"#utility.yul\":21883:21893   */\n      0xffffffff\n        /* \"#utility.yul\":21876:21881   */\n      dup3\n        /* \"#utility.yul\":21872:21894   */\n      and\n        /* \"#utility.yul\":21861:21894   */\n      swap1\n      pop\n        /* \"#utility.yul\":21807:21900   */\n      swap2\n      swap1\n      pop\n      jump\t// out\n        /* \"#utility.yul\":21906:22106   */\n    tag_328:\n        /* \"#utility.yul\":21945:21949   */\n      0x00\n        /* \"#utility.yul\":21965:21984   */\n      tag_618\n        /* \"#utility.yul\":21982:21983   */\n      dup3\n        /* \"#utility.yul\":21965:21984   */\n      tag_399\n      jump\t// in\n    tag_618:\n        /* \"#utility.yul\":21960:21984   */\n      swap2\n      pop\n        /* \"#utility.yul\":21998:22017   */\n      tag_619\n        /* \"#utility.yul\":22015:22016   */\n      dup4\n        /* \"#utility.yul\":21998:22017   */\n      tag_399\n      jump\t// in\n    tag_619:\n        /* \"#utility.yul\":21993:22017   */\n      swap3\n      pop\n        /* \"#utility.yul\":22041:22042   */\n      dup3\n        /* \"#utility.yul\":22038:22039   */\n      dup3\n        /* \"#utility.yul\":22034:22043   */\n      sub\n        /* \"#utility.yul\":22026:22043   */\n      swap1\n      pop\n        /* \"#utility.yul\":22065:22075   */\n      0xffffffff\n        /* \"#utility.yul\":22059:22063   */\n      dup2\n        /* \"#utility.yul\":22056:22076   */\n      gt\n        /* \"#utility.yul\":22053:22099   */\n      iszero\n      tag_620\n      jumpi\n        /* \"#utility.yul\":22079:22097   */\n      tag_621\n      tag_378\n      jump\t// in\n    tag_621:\n        /* \"#utility.yul\":22053:22099   */\n    tag_620:\n        /* \"#utility.yul\":21906:22106   */\n      swap3\n      swap2\n      pop\n      pop\n      jump\t// out\n        /* \"#utility.yul\":22112:22210   */\n    tag_400:\n        /* \"#utility.yul\":22163:22169   */\n      0x00\n        /* \"#utility.yul\":22197:22202   */\n      dup2\n        /* \"#utility.yul\":22191:22203   */\n      mload\n        /* \"#utility.yul\":22181:22203   */\n      swap1\n      pop\n        /* \"#utility.yul\":22112:22210   */\n      swap2\n      swap1\n      pop\n      jump\t// out\n        /* \"#utility.yul\":22216:22363   */\n    tag_401:\n        /* \"#utility.yul\":22317:22328   */\n      0x00\n        /* \"#utility.yul\":22354:22357   */\n      dup2\n        /* \"#utility.yul\":22339:22357   */\n      swap1\n      pop\n        /* \"#utility.yul\":22216:22363   */\n      swap3\n      swap2\n      pop\n      pop\n      jump\t// out\n        /* \"#utility.yul\":22369:22508   */\n    tag_402:\n        /* \"#utility.yul\":22458:22464   */\n      dup3\n        /* \"#utility.yul\":22453:22456   */\n      dup2\n        /* \"#utility.yul\":22448:22451   */\n      dup4\n        /* \"#utility.yul\":22442:22465   */\n      mcopy\n        /* \"#utility.yul\":22499:22500   */\n      0x00\n        /* \"#utility.yul\":22490:22496   */\n      dup4\n        /* \"#utility.yul\":22485:22488   */\n      dup4\n        /* \"#utility.yul\":22481:22497   */\n      add\n        /* \"#utility.yul\":22474:22501   */\n      mstore\n        /* \"#utility.yul\":22369:22508   */\n      pop\n      pop\n      pop\n      jump\t// out\n        /* \"#utility.yul\":22514:22900   */\n    tag_403:\n        /* \"#utility.yul\":22618:22621   */\n      0x00\n        /* \"#utility.yul\":22646:22684   */\n      tag_626\n        /* \"#utility.yul\":22678:22683   */\n      dup3\n        /* \"#utility.yul\":22646:22684   */\n      tag_400\n      jump\t// in\n    tag_626:\n        /* \"#utility.yul\":22700:22788   */\n      tag_627\n        /* \"#utility.yul\":22781:22787   */\n      dup2\n        /* \"#utility.yul\":22776:22779   */\n      dup6\n        /* \"#utility.yul\":22700:22788   */\n      tag_401\n      jump\t// in\n    tag_627:\n        /* \"#utility.yul\":22693:22788   */\n      swap4\n      pop\n        /* \"#utility.yul\":22797:22862   */\n      tag_628\n        /* \"#utility.yul\":22855:22861   */\n      dup2\n        /* \"#utility.yul\":22850:22853   */\n      dup6\n        /* \"#utility.yul\":22843:22847   */\n      0x20\n        /* \"#utility.yul\":22836:22841   */\n      dup7\n        /* \"#utility.yul\":22832:22848   */\n      add\n        /* \"#utility.yul\":22797:22862   */\n      tag_402\n      jump\t// in\n    tag_628:\n        /* \"#utility.yul\":22887:22893   */\n      dup1\n        /* \"#utility.yul\":22882:22885   */\n      dup5\n        /* \"#utility.yul\":22878:22894   */\n      add\n        /* \"#utility.yul\":22871:22894   */\n      swap2\n      pop\n        /* \"#utility.yul\":22622:22900   */\n      pop\n        /* \"#utility.yul\":22514:22900   */\n      swap3\n      swap2\n      pop\n      pop\n      jump\t// out\n        /* \"#utility.yul\":22906:23177   */\n    tag_333:\n        /* \"#utility.yul\":23036:23039   */\n      0x00\n        /* \"#utility.yul\":23058:23151   */\n      tag_630\n        /* \"#utility.yul\":23147:23150   */\n      dup3\n        /* \"#utility.yul\":23138:23144   */\n      dup5\n        /* \"#utility.yul\":23058:23151   */\n      tag_403\n      jump\t// in\n    tag_630:\n        /* \"#utility.yul\":23051:23151   */\n      swap2\n      pop\n        /* \"#utility.yul\":23168:23171   */\n      dup2\n        /* \"#utility.yul\":23161:23171   */\n      swap1\n      pop\n        /* \"#utility.yul\":22906:23177   */\n      swap3\n      swap2\n      pop\n      pop\n      jump\t// out\n\n    auxdata: 0xa2646970667358221220002c6f146f3dd66d91586ebcb027fdf201e93b46e5e04cb94c5b794a58e3a6f164736f6c63430008190033\n}\n",
				"bytecode": {
					"linkReferences": {},
					"object": "608060405234801561000f575f80fd5b50604051612edd380380612edd833981810160405281019061003191906102b6565b3360015f819055505f73ffffffffffffffffffffffffffffffffffffffff168173ffffffffffffffffffffffffffffffffffffffff16036100a9575f6040517f1e4fbdf70000000000000000000000000000000000000000000000000000000081526004016100a09190610315565b60405180910390fd5b6100b88161016260201b60201c565b508260025f6101000a81548173ffffffffffffffffffffffffffffffffffffffff021916908373ffffffffffffffffffffffffffffffffffffffff1602179055508060035f6101000a81548173ffffffffffffffffffffffffffffffffffffffff021916908373ffffffffffffffffffffffffffffffffffffffff160217905550600160055f6101000a81548160ff0219169083151502179055508160068190555050505061032e565b5f60015f9054906101000a900473ffffffffffffffffffffffffffffffffffffffff1690508160015f6101000a81548173ffffffffffffffffffffffffffffffffffffffff021916908373ffffffffffffffffffffffffffffffffffffffff1602179055508173ffffffffffffffffffffffffffffffffffffffff168173ffffffffffffffffffffffffffffffffffffffff167f8be0079c531659141344cd1fd0a4f28419497f9722a3daafe3b4186f6b6457e060405160405180910390a35050565b5f80fd5b5f73ffffffffffffffffffffffffffffffffffffffff82169050919050565b5f61025282610229565b9050919050565b61026281610248565b811461026c575f80fd5b50565b5f8151905061027d81610259565b92915050565b5f819050919050565b61029581610283565b811461029f575f80fd5b50565b5f815190506102b08161028c565b92915050565b5f805f606084860312156102cd576102cc610225565b5b5f6102da8682870161026f565b93505060206102eb868287016102a2565b92505060406102fc8682870161026f565b9150509250925092565b61030f81610248565b82525050565b5f6020820190506103285f830184610306565b92915050565b612ba28061033b5f395ff3fe608060405234801561000f575f80fd5b5060043610610109575f3560e01c80638da5cb5b116100a0578063d5ed4d5a1161006f578063d5ed4d5a14610267578063d709815414610285578063e00dd161146102a1578063f2fde38b146102bf578063f41188ed146102db57610109565b80638da5cb5b146101f3578063a210d5e014610211578063bce3468d1461022f578063c5e7bb331461024b57610109565b80634bfec3aa116100dc5780634bfec3aa1461017f5780634f2fccb01461019d5780635bacbab9146101cd578063715018a6146101e957610109565b80630e9e12621461010d578063127effb2146101295780632f1d5a60146101475780633834efe114610163575b5f80fd5b61012760048036038101906101229190612000565b6102f7565b005b6101316105f9565b60405161013e91906120a3565b60405180910390f35b610161600480360381019061015c91906120e6565b61061e565b005b61017d60048036038101906101789190612111565b61070e565b005b6101876108d5565b604051610194919061214b565b60405180910390f35b6101b760048036038101906101b29190612111565b6108db565b6040516101c491906121d7565b60405180910390f35b6101e760048036038101906101e29190612111565b610903565b005b6101f16109e5565b005b6101fb6109f8565b60405161020891906120a3565b60405180910390f35b610219610a20565b604051610226919061220a565b60405180910390f35b61024960048036038101906102449190612223565b610a32565b005b61026560048036038101906102609190612261565b610d99565b005b61026f6112c7565b60405161027c919061230c565b60405180910390f35b61029f600480360381019061029a9190612111565b6112ec565b005b6102a96113f4565b6040516102b6919061214b565b60405180910390f35b6102d960048036038101906102d491906120e6565b6113fa565b005b6102f560048036038101906102f0919061234f565b61147e565b005b60035f9054906101000a900473ffffffffffffffffffffffffffffffffffffffff1673ffffffffffffffffffffffffffffffffffffffff163373ffffffffffffffffffffffffffffffffffffffff1614610386576040517f08c379a000000000000000000000000000000000000000000000000000000000815260040161037d906123d4565b60405180910390fd5b61038e611572565b60045f8154809291906103a09061241f565b9190505550604051806101200160405280600160038111156103c5576103c4612164565b5b81526020014281526020018581526020018481526020015f81526020015f81526020015f8152602001600654815260200160055f9054906101000a900460ff16151581525060075f60045481526020019081526020015f205f820151815f015f6101000a81548160ff0219169083600381111561044557610444612164565b5b02179055506020820151816001015560408201518160020155606082015181600301556080820151816004015560a0820151816005015560c0820151816006015560e08201518160070155610100820151816008015f6101000a81548160ff0219169083151502179055509050506004547fc048fb84fda80e25f0fefc7a7d2ecc12b63298aa81ba993895368d62553478ed42868660065460055f9054906101000a900460ff166040516104fd959493929190612466565b60405180910390a25f8211156105eb575f8260065461051c91906124b7565b905061056c33308360025f9054906101000a900473ffffffffffffffffffffffffffffffffffffffff1673ffffffffffffffffffffffffffffffffffffffff166115b6909392919063ffffffff16565b8260075f60045481526020019081526020015f206005015f82825461059191906124f8565b925050819055503373ffffffffffffffffffffffffffffffffffffffff166004547fa95519638524dcea0d5d0102c719d77dc3d8b1ae68d2d1e37c79be21bc7b113b856040516105e1919061214b565b60405180910390a3505b6105f3611638565b50505050565b60035f9054906101000a900473ffffffffffffffffffffffffffffffffffffffff1681565b610626611641565b5f73ffffffffffffffffffffffffffffffffffffffff168173ffffffffffffffffffffffffffffffffffffffff1603610694576040517f08c379a000000000000000000000000000000000000000000000000000000000815260040161068b90612575565b60405180910390fd5b8060035f6101000a81548173ffffffffffffffffffffffffffffffffffffffff021916908373ffffffffffffffffffffffffffffffffffffffff1602179055507fc47d127c07bdd56c5ccba00463ce3bd3c1bca71b4670eea6e5d0c02e4aa156e28160405161070391906120a3565b60405180910390a150565b60035f9054906101000a900473ffffffffffffffffffffffffffffffffffffffff1673ffffffffffffffffffffffffffffffffffffffff163373ffffffffffffffffffffffffffffffffffffffff161461079d576040517f08c379a0000000000000000000000000000000000000000000000000000000008152600401610794906123d4565b60405180910390fd5b6107a5611572565b600160038111156107b9576107b8612164565b5b60075f8381526020019081526020015f205f015f9054906101000a900460ff1660038111156107eb576107ea612164565b5b1461082b576040517f08c379a0000000000000000000000000000000000000000000000000000000008152600401610822906125dd565b60405180910390fd5b600260075f8381526020019081526020015f205f015f6101000a81548160ff0219169083600381111561086157610860612164565b5b0217905550807f4e7abaf6039e145cbdc465859479a7f979153a7c1a4e5662c425afe2a794c7854260075f8581526020019081526020015f206004015460075f8681526020019081526020015f20600501546040516108c2939291906125fb565b60405180910390a26108d2611638565b50565b60065481565b5f60075f8381526020019081526020015f205f015f9054906101000a900460ff169050919050565b60035f9054906101000a900473ffffffffffffffffffffffffffffffffffffffff1673ffffffffffffffffffffffffffffffffffffffff163373ffffffffffffffffffffffffffffffffffffffff1614610992576040517f08c379a0000000000000000000000000000000000000000000000000000000008152600401610989906123d4565b60405180910390fd5b806006819055507fc3435e6f125b97d066c02f1f15acf6cf069a6c49878698d84841ef11288e1d7960065460055f9054906101000a900460ff166040516109da929190612630565b60405180910390a150565b6109ed611641565b6109f65f6116c8565b565b5f60015f9054906101000a900473ffffffffffffffffffffffffffffffffffffffff16905090565b60055f9054906101000a900460ff1681565b60035f9054906101000a900473ffffffffffffffffffffffffffffffffffffffff1673ffffffffffffffffffffffffffffffffffffffff163373ffffffffffffffffffffffffffffffffffffffff1614610ac1576040517f08c379a0000000000000000000000000000000000000000000000000000000008152600401610ab8906123d4565b60405180910390fd5b610ac9611572565b60026003811115610add57610adc612164565b5b60075f8481526020019081526020015f205f015f9054906101000a900460ff166003811115610b0f57610b0e612164565b5b14610b4f576040517f08c379a0000000000000000000000000000000000000000000000000000000008152600401610b46906126a1565b60405180910390fd5b600360075f8481526020019081526020015f205f015f6101000a81548160ff02191690836003811115610b8557610b84612164565b5b02179055505f60075f8481526020019081526020015f206005015460075f8581526020019081526020015f2060040154610bbf91906124f8565b9050827f66f6b4cd34444af165fb78bce3996496528b37af161c26f737b7341cc37063bb42604051610bf1919061214b565b60405180910390a25f8103610c065750610d8d565b5f8290505f8260075f8781526020019081526020015f2060070154610c2b91906124b7565b90505f610c4d8360075f8981526020019081526020015f20600401548461178b565b9050610c59868261190f565b60075f8781526020019081526020015f206008015f9054906101000a900460ff1615610d88575f5b60075f8881526020019081526020015f2060060154811015610d86575f600b5f8981526020019081526020015f205f600a5f8b81526020019081526020015f205f8581526020019081526020015f205f9054906101000a900473ffffffffffffffffffffffffffffffffffffffff1673ffffffffffffffffffffffffffffffffffffffff1673ffffffffffffffffffffffffffffffffffffffff1681526020019081526020015f205414610d7957610d7887600a5f8a81526020019081526020015f205f8481526020019081526020015f205f9054906101000a900473ffffffffffffffffffffffffffffffffffffffff16611a94565b5b8080600101915050610c81565b505b505050505b610d95611638565b5050565b610da1611572565b60016003811115610db557610db4612164565b5b60075f8581526020019081526020015f205f015f9054906101000a900460ff166003811115610de757610de6612164565b5b14610e27576040517f08c379a0000000000000000000000000000000000000000000000000000000008152600401610e1e906125dd565b60405180910390fd5b5f60075f8581526020019081526020015f206002015414610e995760075f8481526020019081526020015f20600201544210610e98576040517f08c379a0000000000000000000000000000000000000000000000000000000008152600401610e8f90612709565b60405180910390fd5b5b5f60075f8581526020019081526020015f206003015414610f2b5760075f8481526020019081526020015f20600301548160075f8681526020019081526020015f2060040154610ee991906124f8565b1115610f2a576040517f08c379a0000000000000000000000000000000000000000000000000000000008152600401610f2190612771565b60405180910390fd5b5b5f8160075f8681526020019081526020015f2060070154610f4c91906124b7565b9050610f9c33308360025f9054906101000a900473ffffffffffffffffffffffffffffffffffffffff1673ffffffffffffffffffffffffffffffffffffffff166115b6909392919063ffffffff16565b5f60075f8681526020019081526020015f206004015490505f5b838110156110725760405180604001604052808581526020018673ffffffffffffffffffffffffffffffffffffffff1681525060085f8881526020019081526020015f205f838561100791906124f8565b81526020019081526020015f205f820151815f01556020820151816001015f6101000a81548173ffffffffffffffffffffffffffffffffffffffff021916908373ffffffffffffffffffffffffffffffffffffffff1602179055509050508080600101915050610fb6565b508260075f8781526020019081526020015f206004015461109391906124f8565b60075f8781526020019081526020015f20600401819055505f60095f8781526020019081526020015f205f8673ffffffffffffffffffffffffffffffffffffffff1673ffffffffffffffffffffffffffffffffffffffff1681526020019081526020015f2054036111aa5783600a5f8781526020019081526020015f205f60075f8981526020019081526020015f206006015481526020019081526020015f205f6101000a81548173ffffffffffffffffffffffffffffffffffffffff021916908373ffffffffffffffffffffffffffffffffffffffff160217905550600160075f8781526020019081526020015f206006015461119191906124f8565b60075f8781526020019081526020015f20600601819055505b8260095f8781526020019081526020015f205f8673ffffffffffffffffffffffffffffffffffffffff1673ffffffffffffffffffffffffffffffffffffffff1681526020019081526020015f205461120291906124f8565b60095f8781526020019081526020015f205f8673ffffffffffffffffffffffffffffffffffffffff1673ffffffffffffffffffffffffffffffffffffffff1681526020019081526020015f20819055508373ffffffffffffffffffffffffffffffffffffffff163373ffffffffffffffffffffffffffffffffffffffff16867fc711bfbe9284c7d96adbb9ebad39767e13c00b6b5cd4ca300fec0d969309a407866040516112b0919061214b565b60405180910390a450506112c2611638565b505050565b60025f9054906101000a900473ffffffffffffffffffffffffffffffffffffffff1681565b6112f4611572565b60038081111561130757611306612164565b5b60075f8381526020019081526020015f205f015f9054906101000a900460ff16600381111561133957611338612164565b5b14611379576040517f08c379a0000000000000000000000000000000000000000000000000000000008152600401611370906127d9565b60405180910390fd5b5f151560075f8381526020019081526020015f206008015f9054906101000a900460ff161515146113df576040517f08c379a00000000000000000000000000000000000000000000000000000000081526004016113d690612841565b60405180910390fd5b6113e98133611a94565b6113f1611638565b50565b60045481565b611402611641565b5f73ffffffffffffffffffffffffffffffffffffffff168173ffffffffffffffffffffffffffffffffffffffff1603611472575f6040517f1e4fbdf700000000000000000000000000000000000000000000000000000000815260040161146991906120a3565b60405180910390fd5b61147b816116c8565b50565b60035f9054906101000a900473ffffffffffffffffffffffffffffffffffffffff1673ffffffffffffffffffffffffffffffffffffffff163373ffffffffffffffffffffffffffffffffffffffff161461150d576040517f08c379a0000000000000000000000000000000000000000000000000000000008152600401611504906123d4565b60405180910390fd5b8060055f6101000a81548160ff0219169083151502179055507fc3435e6f125b97d066c02f1f15acf6cf069a6c49878698d84841ef11288e1d7960065460055f9054906101000a900460ff16604051611567929190612630565b60405180910390a150565b60025f54036115ad576040517f3ee5aeb500000000000000000000000000000000000000000000000000000000815260040160405180910390fd5b60025f81905550565b611632848573ffffffffffffffffffffffffffffffffffffffff166323b872dd8686866040516024016115eb9392919061285f565b604051602081830303815290604052915060e01b6020820180517bffffffffffffffffffffffffffffffffffffffffffffffffffffffff8381831617835250505050611c85565b50505050565b60015f81905550565b611649611d1a565b73ffffffffffffffffffffffffffffffffffffffff166116676109f8565b73ffffffffffffffffffffffffffffffffffffffff16146116c65761168a611d1a565b6040517f118cdaa70000000000000000000000000000000000000000000000000000000081526004016116bd91906120a3565b60405180910390fd5b565b5f60015f9054906101000a900473ffffffffffffffffffffffffffffffffffffffff1690508160015f6101000a81548173ffffffffffffffffffffffffffffffffffffffff021916908373ffffffffffffffffffffffffffffffffffffffff1602179055508173ffffffffffffffffffffffffffffffffffffffff168173ffffffffffffffffffffffffffffffffffffffff167f8be0079c531659141344cd1fd0a4f28419497f9722a3daafe3b4186f6b6457e060405160405180910390a35050565b60605f8367ffffffffffffffff8111156117a8576117a7612894565b5b6040519080825280602002602001820160405280156117d65781602001602082028036833780820191505090505b5090505f8590505f5b6001866117ec91906128c1565b8110156118d6576117fd8282611d21565b91505f858361180c9190612921565b90505f8290505b6001811015801561184957508460018261182d91906128c1565b8151811061183e5761183d612951565b5b602002602001015182105b156118a7578460018261185c91906128c1565b8151811061186d5761186c612951565b5b602002602001015185828151811061188857611887612951565b5b602002602001018181525050808061189f9061297e565b915050611813565b818582815181106118bb576118ba612951565b5b602002602001018181525050505080806001019150506117df565b5083826001876118e691906128c1565b815181106118f7576118f6612951565b5b60200260200101818152505081925050509392505050565b5f805b60075f8581526020019081526020015f2060040154811015611a8e575f8284838151811061194357611942612951565b5b602002602001015161195591906128c1565b90505f60085f8781526020019081526020015f205f8481526020019081526020015f206001015f9054906101000a900473ffffffffffffffffffffffffffffffffffffffff169050828173ffffffffffffffffffffffffffffffffffffffff16877f927546e38b674f5e5dff7edce9c7afdcf21a35ac03ba70fe8e341f61f2c73ded8560075f8c81526020019081526020015f206008015f9054906101000a900460ff16604051611a07929190612630565b60405180910390a481600b5f8881526020019081526020015f205f8373ffffffffffffffffffffffffffffffffffffffff1673ffffffffffffffffffffffffffffffffffffffff1681526020019081526020015f205f828254611a6a91906124f8565b925050819055508184611a7d91906124f8565b935050508080600101915050611912565b50505050565b5f600b5f8481526020019081526020015f205f8373ffffffffffffffffffffffffffffffffffffffff1673ffffffffffffffffffffffffffffffffffffffff1681526020019081526020015f205403611b22576040517f08c379a0000000000000000000000000000000000000000000000000000000008152600401611b19906129ef565b60405180910390fd5b5f600b5f8481526020019081526020015f205f8373ffffffffffffffffffffffffffffffffffffffff1673ffffffffffffffffffffffffffffffffffffffff1681526020019081526020015f20549050611bbe828260025f9054906101000a900473ffffffffffffffffffffffffffffffffffffffff1673ffffffffffffffffffffffffffffffffffffffff16611d709092919063ffffffff16565b5f600b5f8581526020019081526020015f205f8473ffffffffffffffffffffffffffffffffffffffff1673ffffffffffffffffffffffffffffffffffffffff1681526020019081526020015f20819055508173ffffffffffffffffffffffffffffffffffffffff16837f268ef67ed0490cc273925a4865e6fbdb4dcf7e0802aad957aa682a78c7618bef8360075f8881526020019081526020015f206008015f9054906101000a900460ff16604051611c78929190612630565b60405180910390a3505050565b5f611caf828473ffffffffffffffffffffffffffffffffffffffff16611def90919063ffffffff16565b90505f815114158015611cd3575080806020019051810190611cd19190612a21565b155b15611d1557826040517f5274afe7000000000000000000000000000000000000000000000000000000008152600401611d0c91906120a3565b60405180910390fd5b505050565b5f33905090565b5f8061010083611d319190612921565b905082611d3e8583611e04565b604051602001611d4f929190612a6c565b604051602081830303815290604052805190602001205f1c91505092915050565b611dea838473ffffffffffffffffffffffffffffffffffffffff1663a9059cbb8585604051602401611da3929190612a97565b604051602081830303815290604052915060e01b6020820180517bffffffffffffffffffffffffffffffffffffffffffffffffffffffff8381831617835250505050611c85565b505050565b6060611dfc83835f611e2f565b905092915050565b5f81610100611e139190612acd565b63ffffffff1683901c8263ffffffff1684901b17905092915050565b606081471015611e7657306040517fcd786059000000000000000000000000000000000000000000000000000000008152600401611e6d91906120a3565b60405180910390fd5b5f808573ffffffffffffffffffffffffffffffffffffffff168486604051611e9e9190612b56565b5f6040518083038185875af1925050503d805f8114611ed8576040519150601f19603f3d011682016040523d82523d5f602084013e611edd565b606091505b5091509150611eed868383611ef8565b925050509392505050565b606082611f0d57611f0882611f85565b611f7d565b5f8251148015611f3357505f8473ffffffffffffffffffffffffffffffffffffffff163b145b15611f7557836040517f9996b315000000000000000000000000000000000000000000000000000000008152600401611f6c91906120a3565b60405180910390fd5b819050611f7e565b5b9392505050565b5f81511115611f975780518082602001fd5b6040517f1425ea4200000000000000000000000000000000000000000000000000000000815260040160405180910390fd5b5f80fd5b5f819050919050565b611fdf81611fcd565b8114611fe9575f80fd5b50565b5f81359050611ffa81611fd6565b92915050565b5f805f806080858703121561201857612017611fc9565b5b5f61202587828801611fec565b945050602061203687828801611fec565b935050604061204787828801611fec565b925050606061205887828801611fec565b91505092959194509250565b5f73ffffffffffffffffffffffffffffffffffffffff82169050919050565b5f61208d82612064565b9050919050565b61209d81612083565b82525050565b5f6020820190506120b65f830184612094565b92915050565b6120c581612083565b81146120cf575f80fd5b50565b5f813590506120e0816120bc565b92915050565b5f602082840312156120fb576120fa611fc9565b5b5f612108848285016120d2565b91505092915050565b5f6020828403121561212657612125611fc9565b5b5f61213384828501611fec565b91505092915050565b61214581611fcd565b82525050565b5f60208201905061215e5f83018461213c565b92915050565b7f4e487b71000000000000000000000000000000000000000000000000000000005f52602160045260245ffd5b600481106121a2576121a1612164565b5b50565b5f8190506121b282612191565b919050565b5f6121c1826121a5565b9050919050565b6121d1816121b7565b82525050565b5f6020820190506121ea5f8301846121c8565b92915050565b5f8115159050919050565b612204816121f0565b82525050565b5f60208201905061221d5f8301846121fb565b92915050565b5f806040838503121561223957612238611fc9565b5b5f61224685828601611fec565b925050602061225785828601611fec565b9150509250929050565b5f805f6060848603121561227857612277611fc9565b5b5f61228586828701611fec565b9350506020612296868287016120d2565b92505060406122a786828701611fec565b9150509250925092565b5f819050919050565b5f6122d46122cf6122ca84612064565b6122b1565b612064565b9050919050565b5f6122e5826122ba565b9050919050565b5f6122f6826122db565b9050919050565b612306816122ec565b82525050565b5f60208201905061231f5f8301846122fd565b92915050565b61232e816121f0565b8114612338575f80fd5b50565b5f8135905061234981612325565b92915050565b5f6020828403121561236457612363611fc9565b5b5f6123718482850161233b565b91505092915050565b5f82825260208201905092915050565b7f4e6f74206f70657261746f7200000000000000000000000000000000000000005f82015250565b5f6123be600c8361237a565b91506123c98261238a565b602082019050919050565b5f6020820190508181035f8301526123eb816123b2565b9050919050565b7f4e487b71000000000000000000000000000000000000000000000000000000005f52601160045260245ffd5b5f61242982611fcd565b91507fffffffffffffffffffffffffffffffffffffffffffffffffffffffffffffffff820361245b5761245a6123f2565b5b600182019050919050565b5f60a0820190506124795f83018861213c565b612486602083018761213c565b612493604083018661213c565b6124a0606083018561213c565b6124ad60808301846121fb565b9695505050505050565b5f6124c182611fcd565b91506124cc83611fcd565b92508282026124da81611fcd565b915082820484148315176124f1576124f06123f2565b5b5092915050565b5f61250282611fcd565b915061250d83611fcd565b9250828201905080821115612525576125246123f2565b5b92915050565b7f43616e6e6f74206265207a65726f2061646472657373000000000000000000005f82015250565b5f61255f60168361237a565b915061256a8261252b565b602082019050919050565b5f6020820190508181035f83015261258c81612553565b9050919050565b7f526564456e76656c6f7065206973206e6f74206f70656e0000000000000000005f82015250565b5f6125c760178361237a565b91506125d282612593565b602082019050919050565b5f6020820190508181035f8301526125f4816125bb565b9050919050565b5f60608201905061260e5f83018661213c565b61261b602083018561213c565b612628604083018461213c565b949350505050565b5f6040820190506126435f83018561213c565b61265060208301846121fb565b9392505050565b7f526564456e76656c6f7065206e6f7420636c6f736500000000000000000000005f82015250565b5f61268b60158361237a565b915061269682612657565b602082019050919050565b5f6020820190508181035f8301526126b88161267f565b9050919050565b7f526564456e76656c6f7065206973206f7665722074696d6500000000000000005f82015250565b5f6126f360188361237a565b91506126fe826126bf565b602082019050919050565b5f6020820190508181035f830152612720816126e7565b9050919050565b7f526564456e76656c6f7065206973206f766572207469636b65740000000000005f82015250565b5f61275b601a8361237a565b915061276682612727565b602082019050919050565b5f6020820190508181035f8301526127888161274f565b9050919050565b7f526564456e76656c6f7065206e6f7420636c61696d61626c65000000000000005f82015250565b5f6127c360198361237a565b91506127ce8261278f565b602082019050919050565b5f6020820190508181035f8301526127f0816127b7565b9050919050565b7f526564456e76656c6f7065206175746f20636c61696d000000000000000000005f82015250565b5f61282b60168361237a565b9150612836826127f7565b602082019050919050565b5f6020820190508181035f8301526128588161281f565b9050919050565b5f6060820190506128725f830186612094565b61287f6020830185612094565b61288c604083018461213c565b949350505050565b7f4e487b71000000000000000000000000000000000000000000000000000000005f52604160045260245ffd5b5f6128cb82611fcd565b91506128d683611fcd565b92508282039050818111156128ee576128ed6123f2565b5b92915050565b7f4e487b71000000000000000000000000000000000000000000000000000000005f52601260045260245ffd5b5f61292b82611fcd565b915061293683611fcd565b925082612946576129456128f4565b5b828206905092915050565b7f4e487b71000000000000000000000000000000000000000000000000000000005f52603260045260245ffd5b5f61298882611fcd565b91505f820361299a576129996123f2565b5b600182039050919050565b7f6e6f207072697a650000000000000000000000000000000000000000000000005f82015250565b5f6129d960088361237a565b91506129e4826129a5565b602082019050919050565b5f6020820190508181035f830152612a06816129cd565b9050919050565b5f81519050612a1b81612325565b92915050565b5f60208284031215612a3657612a35611fc9565b5b5f612a4384828501612a0d565b91505092915050565b5f819050919050565b612a66612a6182611fcd565b612a4c565b82525050565b5f612a778285612a55565b602082019150612a878284612a55565b6020820191508190509392505050565b5f604082019050612aaa5f830185612094565b612ab7602083018461213c565b9392505050565b5f63ffffffff82169050919050565b5f612ad782612abe565b9150612ae283612abe565b9250828203905063ffffffff811115612afe57612afd6123f2565b5b92915050565b5f81519050919050565b5f81905092915050565b8281835e5f83830152505050565b5f612b3082612b04565b612b3a8185612b0e565b9350612b4a818560208601612b18565b80840191505092915050565b5f612b618284612b26565b91508190509291505056fea2646970667358221220002c6f146f3dd66d91586ebcb027fdf201e93b46e5e04cb94c5b794a58e3a6f164736f6c63430008190033",
					"opcodes": "PUSH1 0x80 PUSH1 0x40 MSTORE CALLVALUE DUP1 ISZERO PUSH2 0xF JUMPI PUSH0 DUP1 REVERT JUMPDEST POP PUSH1 0x40 MLOAD PUSH2 0x2EDD CODESIZE SUB DUP1 PUSH2 0x2EDD DUP4 CODECOPY DUP2 DUP2 ADD PUSH1 0x40 MSTORE DUP2 ADD SWAP1 PUSH2 0x31 SWAP2 SWAP1 PUSH2 0x2B6 JUMP JUMPDEST CALLER PUSH1 0x1 PUSH0 DUP2 SWAP1 SSTORE POP PUSH0 PUSH20 0xFFFFFFFFFFFFFFFFFFFFFFFFFFFFFFFFFFFFFFFF AND DUP2 PUSH20 0xFFFFFFFFFFFFFFFFFFFFFFFFFFFFFFFFFFFFFFFF AND SUB PUSH2 0xA9 JUMPI PUSH0 PUSH1 0x40 MLOAD PUSH32 0x1E4FBDF700000000000000000000000000000000000000000000000000000000 DUP2 MSTORE PUSH1 0x4 ADD PUSH2 0xA0 SWAP2 SWAP1 PUSH2 0x315 JUMP JUMPDEST PUSH1 0x40 MLOAD DUP1 SWAP2 SUB SWAP1 REVERT JUMPDEST PUSH2 0xB8 DUP2 PUSH2 0x162 PUSH1 0x20 SHL PUSH1 0x20 SHR JUMP JUMPDEST POP DUP3 PUSH1 0x2 PUSH0 PUSH2 0x100 EXP DUP2 SLOAD DUP2 PUSH20 0xFFFFFFFFFFFFFFFFFFFFFFFFFFFFFFFFFFFFFFFF MUL NOT AND SWAP1 DUP4 PUSH20 0xFFFFFFFFFFFFFFFFFFFFFFFFFFFFFFFFFFFFFFFF AND MUL OR SWAP1 SSTORE POP DUP1 PUSH1 0x3 PUSH0 PUSH2 0x100 EXP DUP2 SLOAD DUP2 PUSH20 0xFFFFFFFFFFFFFFFFFFFFFFFFFFFFFFFFFFFFFFFF MUL NOT AND SWAP1 DUP4 PUSH20 0xFFFFFFFFFFFFFFFFFFFFFFFFFFFFFFFFFFFFFFFF AND MUL OR SWAP1 SSTORE POP PUSH1 0x1 PUSH1 0x5 PUSH0 PUSH2 0x100 EXP DUP2 SLOAD DUP2 PUSH1 0xFF MUL NOT AND SWAP1 DUP4 ISZERO ISZERO MUL OR SWAP1 SSTORE POP DUP2 PUSH1 0x6 DUP2 SWAP1 SSTORE POP POP POP POP PUSH2 0x32E JUMP JUMPDEST PUSH0 PUSH1 0x1 PUSH0 SWAP1 SLOAD SWAP1 PUSH2 0x100 EXP SWAP1 DIV PUSH20 0xFFFFFFFFFFFFFFFFFFFFFFFFFFFFFFFFFFFFFFFF AND SWAP1 POP DUP2 PUSH1 0x1 PUSH0 PUSH2 0x100 EXP DUP2 SLOAD DUP2 PUSH20 0xFFFFFFFFFFFFFFFFFFFFFFFFFFFFFFFFFFFFFFFF MUL NOT AND SWAP1 DUP4 PUSH20 0xFFFFFFFFFFFFFFFFFFFFFFFFFFFFFFFFFFFFFFFF AND MUL OR SWAP1 SSTORE POP DUP2 PUSH20 0xFFFFFFFFFFFFFFFFFFFFFFFFFFFFFFFFFFFFFFFF AND DUP2 PUSH20 0xFFFFFFFFFFFFFFFFFFFFFFFFFFFFFFFFFFFFFFFF AND PUSH32 0x8BE0079C531659141344CD1FD0A4F28419497F9722A3DAAFE3B4186F6B6457E0 PUSH1 0x40 MLOAD PUSH1 0x40 MLOAD DUP1 SWAP2 SUB SWAP1 LOG3 POP POP JUMP JUMPDEST PUSH0 DUP1 REVERT JUMPDEST PUSH0 PUSH20 0xFFFFFFFFFFFFFFFFFFFFFFFFFFFFFFFFFFFFFFFF DUP3 AND SWAP1 POP SWAP2 SWAP1 POP JUMP JUMPDEST PUSH0 PUSH2 0x252 DUP3 PUSH2 0x229 JUMP JUMPDEST SWAP1 POP SWAP2 SWAP1 POP JUMP JUMPDEST PUSH2 0x262 DUP2 PUSH2 0x248 JUMP JUMPDEST DUP2 EQ PUSH2 0x26C JUMPI PUSH0 DUP1 REVERT JUMPDEST POP JUMP JUMPDEST PUSH0 DUP2 MLOAD SWAP1 POP PUSH2 0x27D DUP2 PUSH2 0x259 JUMP JUMPDEST SWAP3 SWAP2 POP POP JUMP JUMPDEST PUSH0 DUP2 SWAP1 POP SWAP2 SWAP1 POP JUMP JUMPDEST PUSH2 0x295 DUP2 PUSH2 0x283 JUMP JUMPDEST DUP2 EQ PUSH2 0x29F JUMPI PUSH0 DUP1 REVERT JUMPDEST POP JUMP JUMPDEST PUSH0 DUP2 MLOAD SWAP1 POP PUSH2 0x2B0 DUP2 PUSH2 0x28C JUMP JUMPDEST SWAP3 SWAP2 POP POP JUMP JUMPDEST PUSH0 DUP1 PUSH0 PUSH1 0x60 DUP5 DUP7 SUB SLT ISZERO PUSH2 0x2CD JUMPI PUSH2 0x2CC PUSH2 0x225 JUMP JUMPDEST JUMPDEST PUSH0 PUSH2 0x2DA DUP7 DUP3 DUP8 ADD PUSH2 0x26F JUMP JUMPDEST SWAP4 POP POP PUSH1 0x20 PUSH2 0x2EB DUP7 DUP3 DUP8 ADD PUSH2 0x2A2 JUMP JUMPDEST SWAP3 POP POP PUSH1 0x40 PUSH2 0x2FC DUP7 DUP3 DUP8 ADD PUSH2 0x26F JUMP JUMPDEST SWAP2 POP POP SWAP3 POP SWAP3 POP SWAP3 JUMP JUMPDEST PUSH2 0x30F DUP2 PUSH2 0x248 JUMP JUMPDEST DUP3 MSTORE POP POP JUMP JUMPDEST PUSH0 PUSH1 0x20 DUP3 ADD SWAP1 POP PUSH2 0x328 PUSH0 DUP4 ADD DUP5 PUSH2 0x306 JUMP JUMPDEST SWAP3 SWAP2 POP POP JUMP JUMPDEST PUSH2 0x2BA2 DUP1 PUSH2 0x33B PUSH0 CODECOPY PUSH0 RETURN INVALID PUSH1 0x80 PUSH1 0x40 MSTORE CALLVALUE DUP1 ISZERO PUSH2 0xF JUMPI PUSH0 DUP1 REVERT JUMPDEST POP PUSH1 0x4 CALLDATASIZE LT PUSH2 0x109 JUMPI PUSH0 CALLDATALOAD PUSH1 0xE0 SHR DUP1 PUSH4 0x8DA5CB5B GT PUSH2 0xA0 JUMPI DUP1 PUSH4 0xD5ED4D5A GT PUSH2 0x6F JUMPI DUP1 PUSH4 0xD5ED4D5A EQ PUSH2 0x267 JUMPI DUP1 PUSH4 0xD7098154 EQ PUSH2 0x285 JUMPI DUP1 PUSH4 0xE00DD161 EQ PUSH2 0x2A1 JUMPI DUP1 PUSH4 0xF2FDE38B EQ PUSH2 0x2BF JUMPI DUP1 PUSH4 0xF41188ED EQ PUSH2 0x2DB JUMPI PUSH2 0x109 JUMP JUMPDEST DUP1 PUSH4 0x8DA5CB5B EQ PUSH2 0x1F3 JUMPI DUP1 PUSH4 0xA210D5E0 EQ PUSH2 0x211 JUMPI DUP1 PUSH4 0xBCE3468D EQ PUSH2 0x22F JUMPI DUP1 PUSH4 0xC5E7BB33 EQ PUSH2 0x24B JUMPI PUSH2 0x109 JUMP JUMPDEST DUP1 PUSH4 0x4BFEC3AA GT PUSH2 0xDC JUMPI DUP1 PUSH4 0x4BFEC3AA EQ PUSH2 0x17F JUMPI DUP1 PUSH4 0x4F2FCCB0 EQ PUSH2 0x19D JUMPI DUP1 PUSH4 0x5BACBAB9 EQ PUSH2 0x1CD JUMPI DUP1 PUSH4 0x715018A6 EQ PUSH2 0x1E9 JUMPI PUSH2 0x109 JUMP JUMPDEST DUP1 PUSH4 0xE9E1262 EQ PUSH2 0x10D JUMPI DUP1 PUSH4 0x127EFFB2 EQ PUSH2 0x129 JUMPI DUP1 PUSH4 0x2F1D5A60 EQ PUSH2 0x147 JUMPI DUP1 PUSH4 0x3834EFE1 EQ PUSH2 0x163 JUMPI JUMPDEST PUSH0 DUP1 REVERT JUMPDEST PUSH2 0x127 PUSH1 0x4 DUP1 CALLDATASIZE SUB DUP2 ADD SWAP1 PUSH2 0x122 SWAP2 SWAP1 PUSH2 0x2000 JUMP JUMPDEST PUSH2 0x2F7 JUMP JUMPDEST STOP JUMPDEST PUSH2 0x131 PUSH2 0x5F9 JUMP JUMPDEST PUSH1 0x40 MLOAD PUSH2 0x13E SWAP2 SWAP1 PUSH2 0x20A3 JUMP JUMPDEST PUSH1 0x40 MLOAD DUP1 SWAP2 SUB SWAP1 RETURN JUMPDEST PUSH2 0x161 PUSH1 0x4 DUP1 CALLDATASIZE SUB DUP2 ADD SWAP1 PUSH2 0x15C SWAP2 SWAP1 PUSH2 0x20E6 JUMP JUMPDEST PUSH2 0x61E JUMP JUMPDEST STOP JUMPDEST PUSH2 0x17D PUSH1 0x4 DUP1 CALLDATASIZE SUB DUP2 ADD SWAP1 PUSH2 0x178 SWAP2 SWAP1 PUSH2 0x2111 JUMP JUMPDEST PUSH2 0x70E JUMP JUMPDEST STOP JUMPDEST PUSH2 0x187 PUSH2 0x8D5 JUMP JUMPDEST PUSH1 0x40 MLOAD PUSH2 0x194 SWAP2 SWAP1 PUSH2 0x214B JUMP JUMPDEST PUSH1 0x40 MLOAD DUP1 SWAP2 SUB SWAP1 RETURN JUMPDEST PUSH2 0x1B7 PUSH1 0x4 DUP1 CALLDATASIZE SUB DUP2 ADD SWAP1 PUSH2 0x1B2 SWAP2 SWAP1 PUSH2 0x2111 JUMP JUMPDEST PUSH2 0x8DB JUMP JUMPDEST PUSH1 0x40 MLOAD PUSH2 0x1C4 SWAP2 SWAP1 PUSH2 0x21D7 JUMP JUMPDEST PUSH1 0x40 MLOAD DUP1 SWAP2 SUB SWAP1 RETURN JUMPDEST PUSH2 0x1E7 PUSH1 0x4 DUP1 CALLDATASIZE SUB DUP2 ADD SWAP1 PUSH2 0x1E2 SWAP2 SWAP1 PUSH2 0x2111 JUMP JUMPDEST PUSH2 0x903 JUMP JUMPDEST STOP JUMPDEST PUSH2 0x1F1 PUSH2 0x9E5 JUMP JUMPDEST STOP JUMPDEST PUSH2 0x1FB PUSH2 0x9F8 JUMP JUMPDEST PUSH1 0x40 MLOAD PUSH2 0x208 SWAP2 SWAP1 PUSH2 0x20A3 JUMP JUMPDEST PUSH1 0x40 MLOAD DUP1 SWAP2 SUB SWAP1 RETURN JUMPDEST PUSH2 0x219 PUSH2 0xA20 JUMP JUMPDEST PUSH1 0x40 MLOAD PUSH2 0x226 SWAP2 SWAP1 PUSH2 0x220A JUMP JUMPDEST PUSH1 0x40 MLOAD DUP1 SWAP2 SUB SWAP1 RETURN JUMPDEST PUSH2 0x249 PUSH1 0x4 DUP1 CALLDATASIZE SUB DUP2 ADD SWAP1 PUSH2 0x244 SWAP2 SWAP1 PUSH2 0x2223 JUMP JUMPDEST PUSH2 0xA32 JUMP JUMPDEST STOP JUMPDEST PUSH2 0x265 PUSH1 0x4 DUP1 CALLDATASIZE SUB DUP2 ADD SWAP1 PUSH2 0x260 SWAP2 SWAP1 PUSH2 0x2261 JUMP JUMPDEST PUSH2 0xD99 JUMP JUMPDEST STOP JUMPDEST PUSH2 0x26F PUSH2 0x12C7 JUMP JUMPDEST PUSH1 0x40 MLOAD PUSH2 0x27C SWAP2 SWAP1 PUSH2 0x230C JUMP JUMPDEST PUSH1 0x40 MLOAD DUP1 SWAP2 SUB SWAP1 RETURN JUMPDEST PUSH2 0x29F PUSH1 0x4 DUP1 CALLDATASIZE SUB DUP2 ADD SWAP1 PUSH2 0x29A SWAP2 SWAP1 PUSH2 0x2111 JUMP JUMPDEST PUSH2 0x12EC JUMP JUMPDEST STOP JUMPDEST PUSH2 0x2A9 PUSH2 0x13F4 JUMP JUMPDEST PUSH1 0x40 MLOAD PUSH2 0x2B6 SWAP2 SWAP1 PUSH2 0x214B JUMP JUMPDEST PUSH1 0x40 MLOAD DUP1 SWAP2 SUB SWAP1 RETURN JUMPDEST PUSH2 0x2D9 PUSH1 0x4 DUP1 CALLDATASIZE SUB DUP2 ADD SWAP1 PUSH2 0x2D4 SWAP2 SWAP1 PUSH2 0x20E6 JUMP JUMPDEST PUSH2 0x13FA JUMP JUMPDEST STOP JUMPDEST PUSH2 0x2F5 PUSH1 0x4 DUP1 CALLDATASIZE SUB DUP2 ADD SWAP1 PUSH2 0x2F0 SWAP2 SWAP1 PUSH2 0x234F JUMP JUMPDEST PUSH2 0x147E JUMP JUMPDEST STOP JUMPDEST PUSH1 0x3 PUSH0 SWAP1 SLOAD SWAP1 PUSH2 0x100 EXP SWAP1 DIV PUSH20 0xFFFFFFFFFFFFFFFFFFFFFFFFFFFFFFFFFFFFFFFF AND PUSH20 0xFFFFFFFFFFFFFFFFFFFFFFFFFFFFFFFFFFFFFFFF AND CALLER PUSH20 0xFFFFFFFFFFFFFFFFFFFFFFFFFFFFFFFFFFFFFFFF AND EQ PUSH2 0x386 JUMPI PUSH1 0x40 MLOAD PUSH32 0x8C379A000000000000000000000000000000000000000000000000000000000 DUP2 MSTORE PUSH1 0x4 ADD PUSH2 0x37D SWAP1 PUSH2 0x23D4 JUMP JUMPDEST PUSH1 0x40 MLOAD DUP1 SWAP2 SUB SWAP1 REVERT JUMPDEST PUSH2 0x38E PUSH2 0x1572 JUMP JUMPDEST PUSH1 0x4 PUSH0 DUP2 SLOAD DUP1 SWAP3 SWAP2 SWAP1 PUSH2 0x3A0 SWAP1 PUSH2 0x241F JUMP JUMPDEST SWAP2 SWAP1 POP SSTORE POP PUSH1 0x40 MLOAD DUP1 PUSH2 0x120 ADD PUSH1 0x40 MSTORE DUP1 PUSH1 0x1 PUSH1 0x3 DUP2 GT ISZERO PUSH2 0x3C5 JUMPI PUSH2 0x3C4 PUSH2 0x2164 JUMP JUMPDEST JUMPDEST DUP2 MSTORE PUSH1 0x20 ADD TIMESTAMP DUP2 MSTORE PUSH1 0x20 ADD DUP6 DUP2 MSTORE PUSH1 0x20 ADD DUP5 DUP2 MSTORE PUSH1 0x20 ADD PUSH0 DUP2 MSTORE PUSH1 0x20 ADD PUSH0 DUP2 MSTORE PUSH1 0x20 ADD PUSH0 DUP2 MSTORE PUSH1 0x20 ADD PUSH1 0x6 SLOAD DUP2 MSTORE PUSH1 0x20 ADD PUSH1 0x5 PUSH0 SWAP1 SLOAD SWAP1 PUSH2 0x100 EXP SWAP1 DIV PUSH1 0xFF AND ISZERO ISZERO DUP2 MSTORE POP PUSH1 0x7 PUSH0 PUSH1 0x4 SLOAD DUP2 MSTORE PUSH1 0x20 ADD SWAP1 DUP2 MSTORE PUSH1 0x20 ADD PUSH0 KECCAK256 PUSH0 DUP3 ADD MLOAD DUP2 PUSH0 ADD PUSH0 PUSH2 0x100 EXP DUP2 SLOAD DUP2 PUSH1 0xFF MUL NOT AND SWAP1 DUP4 PUSH1 0x3 DUP2 GT ISZERO PUSH2 0x445 JUMPI PUSH2 0x444 PUSH2 0x2164 JUMP JUMPDEST JUMPDEST MUL OR SWAP1 SSTORE POP PUSH1 0x20 DUP3 ADD MLOAD DUP2 PUSH1 0x1 ADD SSTORE PUSH1 0x40 DUP3 ADD MLOAD DUP2 PUSH1 0x2 ADD SSTORE PUSH1 0x60 DUP3 ADD MLOAD DUP2 PUSH1 0x3 ADD SSTORE PUSH1 0x80 DUP3 ADD MLOAD DUP2 PUSH1 0x4 ADD SSTORE PUSH1 0xA0 DUP3 ADD MLOAD DUP2 PUSH1 0x5 ADD SSTORE PUSH1 0xC0 DUP3 ADD MLOAD DUP2 PUSH1 0x6 ADD SSTORE PUSH1 0xE0 DUP3 ADD MLOAD DUP2 PUSH1 0x7 ADD SSTORE PUSH2 0x100 DUP3 ADD MLOAD DUP2 PUSH1 0x8 ADD PUSH0 PUSH2 0x100 EXP DUP2 SLOAD DUP2 PUSH1 0xFF MUL NOT AND SWAP1 DUP4 ISZERO ISZERO MUL OR SWAP1 SSTORE POP SWAP1 POP POP PUSH1 0x4 SLOAD PUSH32 0xC048FB84FDA80E25F0FEFC7A7D2ECC12B63298AA81BA993895368D62553478ED TIMESTAMP DUP7 DUP7 PUSH1 0x6 SLOAD PUSH1 0x5 PUSH0 SWAP1 SLOAD SWAP1 PUSH2 0x100 EXP SWAP1 DIV PUSH1 0xFF AND PUSH1 0x40 MLOAD PUSH2 0x4FD SWAP6 SWAP5 SWAP4 SWAP3 SWAP2 SWAP1 PUSH2 0x2466 JUMP JUMPDEST PUSH1 0x40 MLOAD DUP1 SWAP2 SUB SWAP1 LOG2 PUSH0 DUP3 GT ISZERO PUSH2 0x5EB JUMPI PUSH0 DUP3 PUSH1 0x6 SLOAD PUSH2 0x51C SWAP2 SWAP1 PUSH2 0x24B7 JUMP JUMPDEST SWAP1 POP PUSH2 0x56C CALLER ADDRESS DUP4 PUSH1 0x2 PUSH0 SWAP1 SLOAD SWAP1 PUSH2 0x100 EXP SWAP1 DIV PUSH20 0xFFFFFFFFFFFFFFFFFFFFFFFFFFFFFFFFFFFFFFFF AND PUSH20 0xFFFFFFFFFFFFFFFFFFFFFFFFFFFFFFFFFFFFFFFF AND PUSH2 0x15B6 SWAP1 SWAP4 SWAP3 SWAP2 SWAP1 PUSH4 0xFFFFFFFF AND JUMP JUMPDEST DUP3 PUSH1 0x7 PUSH0 PUSH1 0x4 SLOAD DUP2 MSTORE PUSH1 0x20 ADD SWAP1 DUP2 MSTORE PUSH1 0x20 ADD PUSH0 KECCAK256 PUSH1 0x5 ADD PUSH0 DUP3 DUP3 SLOAD PUSH2 0x591 SWAP2 SWAP1 PUSH2 0x24F8 JUMP JUMPDEST SWAP3 POP POP DUP2 SWAP1 SSTORE POP CALLER PUSH20 0xFFFFFFFFFFFFFFFFFFFFFFFFFFFFFFFFFFFFFFFF AND PUSH1 0x4 SLOAD PUSH32 0xA95519638524DCEA0D5D0102C719D77DC3D8B1AE68D2D1E37C79BE21BC7B113B DUP6 PUSH1 0x40 MLOAD PUSH2 0x5E1 SWAP2 SWAP1 PUSH2 0x214B JUMP JUMPDEST PUSH1 0x40 MLOAD DUP1 SWAP2 SUB SWAP1 LOG3 POP JUMPDEST PUSH2 0x5F3 PUSH2 0x1638 JUMP JUMPDEST POP POP POP POP JUMP JUMPDEST PUSH1 0x3 PUSH0 SWAP1 SLOAD SWAP1 PUSH2 0x100 EXP SWAP1 DIV PUSH20 0xFFFFFFFFFFFFFFFFFFFFFFFFFFFFFFFFFFFFFFFF AND DUP2 JUMP JUMPDEST PUSH2 0x626 PUSH2 0x1641 JUMP JUMPDEST PUSH0 PUSH20 0xFFFFFFFFFFFFFFFFFFFFFFFFFFFFFFFFFFFFFFFF AND DUP2 PUSH20 0xFFFFFFFFFFFFFFFFFFFFFFFFFFFFFFFFFFFFFFFF AND SUB PUSH2 0x694 JUMPI PUSH1 0x40 MLOAD PUSH32 0x8C379A000000000000000000000000000000000000000000000000000000000 DUP2 MSTORE PUSH1 0x4 ADD PUSH2 0x68B SWAP1 PUSH2 0x2575 JUMP JUMPDEST PUSH1 0x40 MLOAD DUP1 SWAP2 SUB SWAP1 REVERT JUMPDEST DUP1 PUSH1 0x3 PUSH0 PUSH2 0x100 EXP DUP2 SLOAD DUP2 PUSH20 0xFFFFFFFFFFFFFFFFFFFFFFFFFFFFFFFFFFFFFFFF MUL NOT AND SWAP1 DUP4 PUSH20 0xFFFFFFFFFFFFFFFFFFFFFFFFFFFFFFFFFFFFFFFF AND MUL OR SWAP1 SSTORE POP PUSH32 0xC47D127C07BDD56C5CCBA00463CE3BD3C1BCA71B4670EEA6E5D0C02E4AA156E2 DUP2 PUSH1 0x40 MLOAD PUSH2 0x703 SWAP2 SWAP1 PUSH2 0x20A3 JUMP JUMPDEST PUSH1 0x40 MLOAD DUP1 SWAP2 SUB SWAP1 LOG1 POP JUMP JUMPDEST PUSH1 0x3 PUSH0 SWAP1 SLOAD SWAP1 PUSH2 0x100 EXP SWAP1 DIV PUSH20 0xFFFFFFFFFFFFFFFFFFFFFFFFFFFFFFFFFFFFFFFF AND PUSH20 0xFFFFFFFFFFFFFFFFFFFFFFFFFFFFFFFFFFFFFFFF AND CALLER PUSH20 0xFFFFFFFFFFFFFFFFFFFFFFFFFFFFFFFFFFFFFFFF AND EQ PUSH2 0x79D JUMPI PUSH1 0x40 MLOAD PUSH32 0x8C379A000000000000000000000000000000000000000000000000000000000 DUP2 MSTORE PUSH1 0x4 ADD PUSH2 0x794 SWAP1 PUSH2 0x23D4 JUMP JUMPDEST PUSH1 0x40 MLOAD DUP1 SWAP2 SUB SWAP1 REVERT JUMPDEST PUSH2 0x7A5 PUSH2 0x1572 JUMP JUMPDEST PUSH1 0x1 PUSH1 0x3 DUP2 GT ISZERO PUSH2 0x7B9 JUMPI PUSH2 0x7B8 PUSH2 0x2164 JUMP JUMPDEST JUMPDEST PUSH1 0x7 PUSH0 DUP4 DUP2 MSTORE PUSH1 0x20 ADD SWAP1 DUP2 MSTORE PUSH1 0x20 ADD PUSH0 KECCAK256 PUSH0 ADD PUSH0 SWAP1 SLOAD SWAP1 PUSH2 0x100 EXP SWAP1 DIV PUSH1 0xFF AND PUSH1 0x3 DUP2 GT ISZERO PUSH2 0x7EB JUMPI PUSH2 0x7EA PUSH2 0x2164 JUMP JUMPDEST JUMPDEST EQ PUSH2 0x82B JUMPI PUSH1 0x40 MLOAD PUSH32 0x8C379A000000000000000000000000000000000000000000000000000000000 DUP2 MSTORE PUSH1 0x4 ADD PUSH2 0x822 SWAP1 PUSH2 0x25DD JUMP JUMPDEST PUSH1 0x40 MLOAD DUP1 SWAP2 SUB SWAP1 REVERT JUMPDEST PUSH1 0x2 PUSH1 0x7 PUSH0 DUP4 DUP2 MSTORE PUSH1 0x20 ADD SWAP1 DUP2 MSTORE PUSH1 0x20 ADD PUSH0 KECCAK256 PUSH0 ADD PUSH0 PUSH2 0x100 EXP DUP2 SLOAD DUP2 PUSH1 0xFF MUL NOT AND SWAP1 DUP4 PUSH1 0x3 DUP2 GT ISZERO PUSH2 0x861 JUMPI PUSH2 0x860 PUSH2 0x2164 JUMP JUMPDEST JUMPDEST MUL OR SWAP1 SSTORE POP DUP1 PUSH32 0x4E7ABAF6039E145CBDC465859479A7F979153A7C1A4E5662C425AFE2A794C785 TIMESTAMP PUSH1 0x7 PUSH0 DUP6 DUP2 MSTORE PUSH1 0x20 ADD SWAP1 DUP2 MSTORE PUSH1 0x20 ADD PUSH0 KECCAK256 PUSH1 0x4 ADD SLOAD PUSH1 0x7 PUSH0 DUP7 DUP2 MSTORE PUSH1 0x20 ADD SWAP1 DUP2 MSTORE PUSH1 0x20 ADD PUSH0 KECCAK256 PUSH1 0x5 ADD SLOAD PUSH1 0x40 MLOAD PUSH2 0x8C2 SWAP4 SWAP3 SWAP2 SWAP1 PUSH2 0x25FB JUMP JUMPDEST PUSH1 0x40 MLOAD DUP1 SWAP2 SUB SWAP1 LOG2 PUSH2 0x8D2 PUSH2 0x1638 JUMP JUMPDEST POP JUMP JUMPDEST PUSH1 0x6 SLOAD DUP2 JUMP JUMPDEST PUSH0 PUSH1 0x7 PUSH0 DUP4 DUP2 MSTORE PUSH1 0x20 ADD SWAP1 DUP2 MSTORE PUSH1 0x20 ADD PUSH0 KECCAK256 PUSH0 ADD PUSH0 SWAP1 SLOAD SWAP1 PUSH2 0x100 EXP SWAP1 DIV PUSH1 0xFF AND SWAP1 POP SWAP2 SWAP1 POP JUMP JUMPDEST PUSH1 0x3 PUSH0 SWAP1 SLOAD SWAP1 PUSH2 0x100 EXP SWAP1 DIV PUSH20 0xFFFFFFFFFFFFFFFFFFFFFFFFFFFFFFFFFFFFFFFF AND PUSH20 0xFFFFFFFFFFFFFFFFFFFFFFFFFFFFFFFFFFFFFFFF AND CALLER PUSH20 0xFFFFFFFFFFFFFFFFFFFFFFFFFFFFFFFFFFFFFFFF AND EQ PUSH2 0x992 JUMPI PUSH1 0x40 MLOAD PUSH32 0x8C379A000000000000000000000000000000000000000000000000000000000 DUP2 MSTORE PUSH1 0x4 ADD PUSH2 0x989 SWAP1 PUSH2 0x23D4 JUMP JUMPDEST PUSH1 0x40 MLOAD DUP1 SWAP2 SUB SWAP1 REVERT JUMPDEST DUP1 PUSH1 0x6 DUP2 SWAP1 SSTORE POP PUSH32 0xC3435E6F125B97D066C02F1F15ACF6CF069A6C49878698D84841EF11288E1D79 PUSH1 0x6 SLOAD PUSH1 0x5 PUSH0 SWAP1 SLOAD SWAP1 PUSH2 0x100 EXP SWAP1 DIV PUSH1 0xFF AND PUSH1 0x40 MLOAD PUSH2 0x9DA SWAP3 SWAP2 SWAP1 PUSH2 0x2630 JUMP JUMPDEST PUSH1 0x40 MLOAD DUP1 SWAP2 SUB SWAP1 LOG1 POP JUMP JUMPDEST PUSH2 0x9ED PUSH2 0x1641 JUMP JUMPDEST PUSH2 0x9F6 PUSH0 PUSH2 0x16C8 JUMP JUMPDEST JUMP JUMPDEST PUSH0 PUSH1 0x1 PUSH0 SWAP1 SLOAD SWAP1 PUSH2 0x100 EXP SWAP1 DIV PUSH20 0xFFFFFFFFFFFFFFFFFFFFFFFFFFFFFFFFFFFFFFFF AND SWAP1 POP SWAP1 JUMP JUMPDEST PUSH1 0x5 PUSH0 SWAP1 SLOAD SWAP1 PUSH2 0x100 EXP SWAP1 DIV PUSH1 0xFF AND DUP2 JUMP JUMPDEST PUSH1 0x3 PUSH0 SWAP1 SLOAD SWAP1 PUSH2 0x100 EXP SWAP1 DIV PUSH20 0xFFFFFFFFFFFFFFFFFFFFFFFFFFFFFFFFFFFFFFFF AND PUSH20 0xFFFFFFFFFFFFFFFFFFFFFFFFFFFFFFFFFFFFFFFF AND CALLER PUSH20 0xFFFFFFFFFFFFFFFFFFFFFFFFFFFFFFFFFFFFFFFF AND EQ PUSH2 0xAC1 JUMPI PUSH1 0x40 MLOAD PUSH32 0x8C379A000000000000000000000000000000000000000000000000000000000 DUP2 MSTORE PUSH1 0x4 ADD PUSH2 0xAB8 SWAP1 PUSH2 0x23D4 JUMP JUMPDEST PUSH1 0x40 MLOAD DUP1 SWAP2 SUB SWAP1 REVERT JUMPDEST PUSH2 0xAC9 PUSH2 0x1572 JUMP JUMPDEST PUSH1 0x2 PUSH1 0x3 DUP2 GT ISZERO PUSH2 0xADD JUMPI PUSH2 0xADC PUSH2 0x2164 JUMP JUMPDEST JUMPDEST PUSH1 0x7 PUSH0 DUP5 DUP2 MSTORE PUSH1 0x20 ADD SWAP1 DUP2 MSTORE PUSH1 0x20 ADD PUSH0 KECCAK256 PUSH0 ADD PUSH0 SWAP1 SLOAD SWAP1 PUSH2 0x100 EXP SWAP1 DIV PUSH1 0xFF AND PUSH1 0x3 DUP2 GT ISZERO PUSH2 0xB0F JUMPI PUSH2 0xB0E PUSH2 0x2164 JUMP JUMPDEST JUMPDEST EQ PUSH2 0xB4F JUMPI PUSH1 0x40 MLOAD PUSH32 0x8C379A000000000000000000000000000000000000000000000000000000000 DUP2 MSTORE PUSH1 0x4 ADD PUSH2 0xB46 SWAP1 PUSH2 0x26A1 JUMP JUMPDEST PUSH1 0x40 MLOAD DUP1 SWAP2 SUB SWAP1 REVERT JUMPDEST PUSH1 0x3 PUSH1 0x7 PUSH0 DUP5 DUP2 MSTORE PUSH1 0x20 ADD SWAP1 DUP2 MSTORE PUSH1 0x20 ADD PUSH0 KECCAK256 PUSH0 ADD PUSH0 PUSH2 0x100 EXP DUP2 SLOAD DUP2 PUSH1 0xFF MUL NOT AND SWAP1 DUP4 PUSH1 0x3 DUP2 GT ISZERO PUSH2 0xB85 JUMPI PUSH2 0xB84 PUSH2 0x2164 JUMP JUMPDEST JUMPDEST MUL OR SWAP1 SSTORE POP PUSH0 PUSH1 0x7 PUSH0 DUP5 DUP2 MSTORE PUSH1 0x20 ADD SWAP1 DUP2 MSTORE PUSH1 0x20 ADD PUSH0 KECCAK256 PUSH1 0x5 ADD SLOAD PUSH1 0x7 PUSH0 DUP6 DUP2 MSTORE PUSH1 0x20 ADD SWAP1 DUP2 MSTORE PUSH1 0x20 ADD PUSH0 KECCAK256 PUSH1 0x4 ADD SLOAD PUSH2 0xBBF SWAP2 SWAP1 PUSH2 0x24F8 JUMP JUMPDEST SWAP1 POP DUP3 PUSH32 0x66F6B4CD34444AF165FB78BCE3996496528B37AF161C26F737B7341CC37063BB TIMESTAMP PUSH1 0x40 MLOAD PUSH2 0xBF1 SWAP2 SWAP1 PUSH2 0x214B JUMP JUMPDEST PUSH1 0x40 MLOAD DUP1 SWAP2 SUB SWAP1 LOG2 PUSH0 DUP2 SUB PUSH2 0xC06 JUMPI POP PUSH2 0xD8D JUMP JUMPDEST PUSH0 DUP3 SWAP1 POP PUSH0 DUP3 PUSH1 0x7 PUSH0 DUP8 DUP2 MSTORE PUSH1 0x20 ADD SWAP1 DUP2 MSTORE PUSH1 0x20 ADD PUSH0 KECCAK256 PUSH1 0x7 ADD SLOAD PUSH2 0xC2B SWAP2 SWAP1 PUSH2 0x24B7 JUMP JUMPDEST SWAP1 POP PUSH0 PUSH2 0xC4D DUP4 PUSH1 0x7 PUSH0 DUP10 DUP2 MSTORE PUSH1 0x20 ADD SWAP1 DUP2 MSTORE PUSH1 0x20 ADD PUSH0 KECCAK256 PUSH1 0x4 ADD SLOAD DUP5 PUSH2 0x178B JUMP JUMPDEST SWAP1 POP PUSH2 0xC59 DUP7 DUP3 PUSH2 0x190F JUMP JUMPDEST PUSH1 0x7 PUSH0 DUP8 DUP2 MSTORE PUSH1 0x20 ADD SWAP1 DUP2 MSTORE PUSH1 0x20 ADD PUSH0 KECCAK256 PUSH1 0x8 ADD PUSH0 SWAP1 SLOAD SWAP1 PUSH2 0x100 EXP SWAP1 DIV PUSH1 0xFF AND ISZERO PUSH2 0xD88 JUMPI PUSH0 JUMPDEST PUSH1 0x7 PUSH0 DUP9 DUP2 MSTORE PUSH1 0x20 ADD SWAP1 DUP2 MSTORE PUSH1 0x20 ADD PUSH0 KECCAK256 PUSH1 0x6 ADD SLOAD DUP2 LT ISZERO PUSH2 0xD86 JUMPI PUSH0 PUSH1 0xB PUSH0 DUP10 DUP2 MSTORE PUSH1 0x20 ADD SWAP1 DUP2 MSTORE PUSH1 0x20 ADD PUSH0 KECCAK256 PUSH0 PUSH1 0xA PUSH0 DUP12 DUP2 MSTORE PUSH1 0x20 ADD SWAP1 DUP2 MSTORE PUSH1 0x20 ADD PUSH0 KECCAK256 PUSH0 DUP6 DUP2 MSTORE PUSH1 0x20 ADD SWAP1 DUP2 MSTORE PUSH1 0x20 ADD PUSH0 KECCAK256 PUSH0 SWAP1 SLOAD SWAP1 PUSH2 0x100 EXP SWAP1 DIV PUSH20 0xFFFFFFFFFFFFFFFFFFFFFFFFFFFFFFFFFFFFFFFF AND PUSH20 0xFFFFFFFFFFFFFFFFFFFFFFFFFFFFFFFFFFFFFFFF AND PUSH20 0xFFFFFFFFFFFFFFFFFFFFFFFFFFFFFFFFFFFFFFFF AND DUP2 MSTORE PUSH1 0x20 ADD SWAP1 DUP2 MSTORE PUSH1 0x20 ADD PUSH0 KECCAK256 SLOAD EQ PUSH2 0xD79 JUMPI PUSH2 0xD78 DUP8 PUSH1 0xA PUSH0 DUP11 DUP2 MSTORE PUSH1 0x20 ADD SWAP1 DUP2 MSTORE PUSH1 0x20 ADD PUSH0 KECCAK256 PUSH0 DUP5 DUP2 MSTORE PUSH1 0x20 ADD SWAP1 DUP2 MSTORE PUSH1 0x20 ADD PUSH0 KECCAK256 PUSH0 SWAP1 SLOAD SWAP1 PUSH2 0x100 EXP SWAP1 DIV PUSH20 0xFFFFFFFFFFFFFFFFFFFFFFFFFFFFFFFFFFFFFFFF AND PUSH2 0x1A94 JUMP JUMPDEST JUMPDEST DUP1 DUP1 PUSH1 0x1 ADD SWAP2 POP POP PUSH2 0xC81 JUMP JUMPDEST POP JUMPDEST POP POP POP POP JUMPDEST PUSH2 0xD95 PUSH2 0x1638 JUMP JUMPDEST POP POP JUMP JUMPDEST PUSH2 0xDA1 PUSH2 0x1572 JUMP JUMPDEST PUSH1 0x1 PUSH1 0x3 DUP2 GT ISZERO PUSH2 0xDB5 JUMPI PUSH2 0xDB4 PUSH2 0x2164 JUMP JUMPDEST JUMPDEST PUSH1 0x7 PUSH0 DUP6 DUP2 MSTORE PUSH1 0x20 ADD SWAP1 DUP2 MSTORE PUSH1 0x20 ADD PUSH0 KECCAK256 PUSH0 ADD PUSH0 SWAP1 SLOAD SWAP1 PUSH2 0x100 EXP SWAP1 DIV PUSH1 0xFF AND PUSH1 0x3 DUP2 GT ISZERO PUSH2 0xDE7 JUMPI PUSH2 0xDE6 PUSH2 0x2164 JUMP JUMPDEST JUMPDEST EQ PUSH2 0xE27 JUMPI PUSH1 0x40 MLOAD PUSH32 0x8C379A000000000000000000000000000000000000000000000000000000000 DUP2 MSTORE PUSH1 0x4 ADD PUSH2 0xE1E SWAP1 PUSH2 0x25DD JUMP JUMPDEST PUSH1 0x40 MLOAD DUP1 SWAP2 SUB SWAP1 REVERT JUMPDEST PUSH0 PUSH1 0x7 PUSH0 DUP6 DUP2 MSTORE PUSH1 0x20 ADD SWAP1 DUP2 MSTORE PUSH1 0x20 ADD PUSH0 KECCAK256 PUSH1 0x2 ADD SLOAD EQ PUSH2 0xE99 JUMPI PUSH1 0x7 PUSH0 DUP5 DUP2 MSTORE PUSH1 0x20 ADD SWAP1 DUP2 MSTORE PUSH1 0x20 ADD PUSH0 KECCAK256 PUSH1 0x2 ADD SLOAD TIMESTAMP LT PUSH2 0xE98 JUMPI PUSH1 0x40 MLOAD PUSH32 0x8C379A000000000000000000000000000000000000000000000000000000000 DUP2 MSTORE PUSH1 0x4 ADD PUSH2 0xE8F SWAP1 PUSH2 0x2709 JUMP JUMPDEST PUSH1 0x40 MLOAD DUP1 SWAP2 SUB SWAP1 REVERT JUMPDEST JUMPDEST PUSH0 PUSH1 0x7 PUSH0 DUP6 DUP2 MSTORE PUSH1 0x20 ADD SWAP1 DUP2 MSTORE PUSH1 0x20 ADD PUSH0 KECCAK256 PUSH1 0x3 ADD SLOAD EQ PUSH2 0xF2B JUMPI PUSH1 0x7 PUSH0 DUP5 DUP2 MSTORE PUSH1 0x20 ADD SWAP1 DUP2 MSTORE PUSH1 0x20 ADD PUSH0 KECCAK256 PUSH1 0x3 ADD SLOAD DUP2 PUSH1 0x7 PUSH0 DUP7 DUP2 MSTORE PUSH1 0x20 ADD SWAP1 DUP2 MSTORE PUSH1 0x20 ADD PUSH0 KECCAK256 PUSH1 0x4 ADD SLOAD PUSH2 0xEE9 SWAP2 SWAP1 PUSH2 0x24F8 JUMP JUMPDEST GT ISZERO PUSH2 0xF2A JUMPI PUSH1 0x40 MLOAD PUSH32 0x8C379A000000000000000000000000000000000000000000000000000000000 DUP2 MSTORE PUSH1 0x4 ADD PUSH2 0xF21 SWAP1 PUSH2 0x2771 JUMP JUMPDEST PUSH1 0x40 MLOAD DUP1 SWAP2 SUB SWAP1 REVERT JUMPDEST JUMPDEST PUSH0 DUP2 PUSH1 0x7 PUSH0 DUP7 DUP2 MSTORE PUSH1 0x20 ADD SWAP1 DUP2 MSTORE PUSH1 0x20 ADD PUSH0 KECCAK256 PUSH1 0x7 ADD SLOAD PUSH2 0xF4C SWAP2 SWAP1 PUSH2 0x24B7 JUMP JUMPDEST SWAP1 POP PUSH2 0xF9C CALLER ADDRESS DUP4 PUSH1 0x2 PUSH0 SWAP1 SLOAD SWAP1 PUSH2 0x100 EXP SWAP1 DIV PUSH20 0xFFFFFFFFFFFFFFFFFFFFFFFFFFFFFFFFFFFFFFFF AND PUSH20 0xFFFFFFFFFFFFFFFFFFFFFFFFFFFFFFFFFFFFFFFF AND PUSH2 0x15B6 SWAP1 SWAP4 SWAP3 SWAP2 SWAP1 PUSH4 0xFFFFFFFF AND JUMP JUMPDEST PUSH0 PUSH1 0x7 PUSH0 DUP7 DUP2 MSTORE PUSH1 0x20 ADD SWAP1 DUP2 MSTORE PUSH1 0x20 ADD PUSH0 KECCAK256 PUSH1 0x4 ADD SLOAD SWAP1 POP PUSH0 JUMPDEST DUP4 DUP2 LT ISZERO PUSH2 0x1072 JUMPI PUSH1 0x40 MLOAD DUP1 PUSH1 0x40 ADD PUSH1 0x40 MSTORE DUP1 DUP6 DUP2 MSTORE PUSH1 0x20 ADD DUP7 PUSH20 0xFFFFFFFFFFFFFFFFFFFFFFFFFFFFFFFFFFFFFFFF AND DUP2 MSTORE POP PUSH1 0x8 PUSH0 DUP9 DUP2 MSTORE PUSH1 0x20 ADD SWAP1 DUP2 MSTORE PUSH1 0x20 ADD PUSH0 KECCAK256 PUSH0 DUP4 DUP6 PUSH2 0x1007 SWAP2 SWAP1 PUSH2 0x24F8 JUMP JUMPDEST DUP2 MSTORE PUSH1 0x20 ADD SWAP1 DUP2 MSTORE PUSH1 0x20 ADD PUSH0 KECCAK256 PUSH0 DUP3 ADD MLOAD DUP2 PUSH0 ADD SSTORE PUSH1 0x20 DUP3 ADD MLOAD DUP2 PUSH1 0x1 ADD PUSH0 PUSH2 0x100 EXP DUP2 SLOAD DUP2 PUSH20 0xFFFFFFFFFFFFFFFFFFFFFFFFFFFFFFFFFFFFFFFF MUL NOT AND SWAP1 DUP4 PUSH20 0xFFFFFFFFFFFFFFFFFFFFFFFFFFFFFFFFFFFFFFFF AND MUL OR SWAP1 SSTORE POP SWAP1 POP POP DUP1 DUP1 PUSH1 0x1 ADD SWAP2 POP POP PUSH2 0xFB6 JUMP JUMPDEST POP DUP3 PUSH1 0x7 PUSH0 DUP8 DUP2 MSTORE PUSH1 0x20 ADD SWAP1 DUP2 MSTORE PUSH1 0x20 ADD PUSH0 KECCAK256 PUSH1 0x4 ADD SLOAD PUSH2 0x1093 SWAP2 SWAP1 PUSH2 0x24F8 JUMP JUMPDEST PUSH1 0x7 PUSH0 DUP8 DUP2 MSTORE PUSH1 0x20 ADD SWAP1 DUP2 MSTORE PUSH1 0x20 ADD PUSH0 KECCAK256 PUSH1 0x4 ADD DUP2 SWAP1 SSTORE POP PUSH0 PUSH1 0x9 PUSH0 DUP8 DUP2 MSTORE PUSH1 0x20 ADD SWAP1 DUP2 MSTORE PUSH1 0x20 ADD PUSH0 KECCAK256 PUSH0 DUP7 PUSH20 0xFFFFFFFFFFFFFFFFFFFFFFFFFFFFFFFFFFFFFFFF AND PUSH20 0xFFFFFFFFFFFFFFFFFFFFFFFFFFFFFFFFFFFFFFFF AND DUP2 MSTORE PUSH1 0x20 ADD SWAP1 DUP2 MSTORE PUSH1 0x20 ADD PUSH0 KECCAK256 SLOAD SUB PUSH2 0x11AA JUMPI DUP4 PUSH1 0xA PUSH0 DUP8 DUP2 MSTORE PUSH1 0x20 ADD SWAP1 DUP2 MSTORE PUSH1 0x20 ADD PUSH0 KECCAK256 PUSH0 PUSH1 0x7 PUSH0 DUP10 DUP2 MSTORE PUSH1 0x20 ADD SWAP1 DUP2 MSTORE PUSH1 0x20 ADD PUSH0 KECCAK256 PUSH1 0x6 ADD SLOAD DUP2 MSTORE PUSH1 0x20 ADD SWAP1 DUP2 MSTORE PUSH1 0x20 ADD PUSH0 KECCAK256 PUSH0 PUSH2 0x100 EXP DUP2 SLOAD DUP2 PUSH20 0xFFFFFFFFFFFFFFFFFFFFFFFFFFFFFFFFFFFFFFFF MUL NOT AND SWAP1 DUP4 PUSH20 0xFFFFFFFFFFFFFFFFFFFFFFFFFFFFFFFFFFFFFFFF AND MUL OR SWAP1 SSTORE POP PUSH1 0x1 PUSH1 0x7 PUSH0 DUP8 DUP2 MSTORE PUSH1 0x20 ADD SWAP1 DUP2 MSTORE PUSH1 0x20 ADD PUSH0 KECCAK256 PUSH1 0x6 ADD SLOAD PUSH2 0x1191 SWAP2 SWAP1 PUSH2 0x24F8 JUMP JUMPDEST PUSH1 0x7 PUSH0 DUP8 DUP2 MSTORE PUSH1 0x20 ADD SWAP1 DUP2 MSTORE PUSH1 0x20 ADD PUSH0 KECCAK256 PUSH1 0x6 ADD DUP2 SWAP1 SSTORE POP JUMPDEST DUP3 PUSH1 0x9 PUSH0 DUP8 DUP2 MSTORE PUSH1 0x20 ADD SWAP1 DUP2 MSTORE PUSH1 0x20 ADD PUSH0 KECCAK256 PUSH0 DUP7 PUSH20 0xFFFFFFFFFFFFFFFFFFFFFFFFFFFFFFFFFFFFFFFF AND PUSH20 0xFFFFFFFFFFFFFFFFFFFFFFFFFFFFFFFFFFFFFFFF AND DUP2 MSTORE PUSH1 0x20 ADD SWAP1 DUP2 MSTORE PUSH1 0x20 ADD PUSH0 KECCAK256 SLOAD PUSH2 0x1202 SWAP2 SWAP1 PUSH2 0x24F8 JUMP JUMPDEST PUSH1 0x9 PUSH0 DUP8 DUP2 MSTORE PUSH1 0x20 ADD SWAP1 DUP2 MSTORE PUSH1 0x20 ADD PUSH0 KECCAK256 PUSH0 DUP7 PUSH20 0xFFFFFFFFFFFFFFFFFFFFFFFFFFFFFFFFFFFFFFFF AND PUSH20 0xFFFFFFFFFFFFFFFFFFFFFFFFFFFFFFFFFFFFFFFF AND DUP2 MSTORE PUSH1 0x20 ADD SWAP1 DUP2 MSTORE PUSH1 0x20 ADD PUSH0 KECCAK256 DUP2 SWAP1 SSTORE POP DUP4 PUSH20 0xFFFFFFFFFFFFFFFFFFFFFFFFFFFFFFFFFFFFFFFF AND CALLER PUSH20 0xFFFFFFFFFFFFFFFFFFFFFFFFFFFFFFFFFFFFFFFF AND DUP7 PUSH32 0xC711BFBE9284C7D96ADBB9EBAD39767E13C00B6B5CD4CA300FEC0D969309A407 DUP7 PUSH1 0x40 MLOAD PUSH2 0x12B0 SWAP2 SWAP1 PUSH2 0x214B JUMP JUMPDEST PUSH1 0x40 MLOAD DUP1 SWAP2 SUB SWAP1 LOG4 POP POP PUSH2 0x12C2 PUSH2 0x1638 JUMP JUMPDEST POP POP POP JUMP JUMPDEST PUSH1 0x2 PUSH0 SWAP1 SLOAD SWAP1 PUSH2 0x100 EXP SWAP1 DIV PUSH20 0xFFFFFFFFFFFFFFFFFFFFFFFFFFFFFFFFFFFFFFFF AND DUP2 JUMP JUMPDEST PUSH2 0x12F4 PUSH2 0x1572 JUMP JUMPDEST PUSH1 0x3 DUP1 DUP2 GT ISZERO PUSH2 0x1307 JUMPI PUSH2 0x1306 PUSH2 0x2164 JUMP JUMPDEST JUMPDEST PUSH1 0x7 PUSH0 DUP4 DUP2 MSTORE PUSH1 0x20 ADD SWAP1 DUP2 MSTORE PUSH1 0x20 ADD PUSH0 KECCAK256 PUSH0 ADD PUSH0 SWAP1 SLOAD SWAP1 PUSH2 0x100 EXP SWAP1 DIV PUSH1 0xFF AND PUSH1 0x3 DUP2 GT ISZERO PUSH2 0x1339 JUMPI PUSH2 0x1338 PUSH2 0x2164 JUMP JUMPDEST JUMPDEST EQ PUSH2 0x1379 JUMPI PUSH1 0x40 MLOAD PUSH32 0x8C379A000000000000000000000000000000000000000000000000000000000 DUP2 MSTORE PUSH1 0x4 ADD PUSH2 0x1370 SWAP1 PUSH2 0x27D9 JUMP JUMPDEST PUSH1 0x40 MLOAD DUP1 SWAP2 SUB SWAP1 REVERT JUMPDEST PUSH0 ISZERO ISZERO PUSH1 0x7 PUSH0 DUP4 DUP2 MSTORE PUSH1 0x20 ADD SWAP1 DUP2 MSTORE PUSH1 0x20 ADD PUSH0 KECCAK256 PUSH1 0x8 ADD PUSH0 SWAP1 SLOAD SWAP1 PUSH2 0x100 EXP SWAP1 DIV PUSH1 0xFF AND ISZERO ISZERO EQ PUSH2 0x13DF JUMPI PUSH1 0x40 MLOAD PUSH32 0x8C379A000000000000000000000000000000000000000000000000000000000 DUP2 MSTORE PUSH1 0x4 ADD PUSH2 0x13D6 SWAP1 PUSH2 0x2841 JUMP JUMPDEST PUSH1 0x40 MLOAD DUP1 SWAP2 SUB SWAP1 REVERT JUMPDEST PUSH2 0x13E9 DUP2 CALLER PUSH2 0x1A94 JUMP JUMPDEST PUSH2 0x13F1 PUSH2 0x1638 JUMP JUMPDEST POP JUMP JUMPDEST PUSH1 0x4 SLOAD DUP2 JUMP JUMPDEST PUSH2 0x1402 PUSH2 0x1641 JUMP JUMPDEST PUSH0 PUSH20 0xFFFFFFFFFFFFFFFFFFFFFFFFFFFFFFFFFFFFFFFF AND DUP2 PUSH20 0xFFFFFFFFFFFFFFFFFFFFFFFFFFFFFFFFFFFFFFFF AND SUB PUSH2 0x1472 JUMPI PUSH0 PUSH1 0x40 MLOAD PUSH32 0x1E4FBDF700000000000000000000000000000000000000000000000000000000 DUP2 MSTORE PUSH1 0x4 ADD PUSH2 0x1469 SWAP2 SWAP1 PUSH2 0x20A3 JUMP JUMPDEST PUSH1 0x40 MLOAD DUP1 SWAP2 SUB SWAP1 REVERT JUMPDEST PUSH2 0x147B DUP2 PUSH2 0x16C8 JUMP JUMPDEST POP JUMP JUMPDEST PUSH1 0x3 PUSH0 SWAP1 SLOAD SWAP1 PUSH2 0x100 EXP SWAP1 DIV PUSH20 0xFFFFFFFFFFFFFFFFFFFFFFFFFFFFFFFFFFFFFFFF AND PUSH20 0xFFFFFFFFFFFFFFFFFFFFFFFFFFFFFFFFFFFFFFFF AND CALLER PUSH20 0xFFFFFFFFFFFFFFFFFFFFFFFFFFFFFFFFFFFFFFFF AND EQ PUSH2 0x150D JUMPI PUSH1 0x40 MLOAD PUSH32 0x8C379A000000000000000000000000000000000000000000000000000000000 DUP2 MSTORE PUSH1 0x4 ADD PUSH2 0x1504 SWAP1 PUSH2 0x23D4 JUMP JUMPDEST PUSH1 0x40 MLOAD DUP1 SWAP2 SUB SWAP1 REVERT JUMPDEST DUP1 PUSH1 0x5 PUSH0 PUSH2 0x100 EXP DUP2 SLOAD DUP2 PUSH1 0xFF MUL NOT AND SWAP1 DUP4 ISZERO ISZERO MUL OR SWAP1 SSTORE POP PUSH32 0xC3435E6F125B97D066C02F1F15ACF6CF069A6C49878698D84841EF11288E1D79 PUSH1 0x6 SLOAD PUSH1 0x5 PUSH0 SWAP1 SLOAD SWAP1 PUSH2 0x100 EXP SWAP1 DIV PUSH1 0xFF AND PUSH1 0x40 MLOAD PUSH2 0x1567 SWAP3 SWAP2 SWAP1 PUSH2 0x2630 JUMP JUMPDEST PUSH1 0x40 MLOAD DUP1 SWAP2 SUB SWAP1 LOG1 POP JUMP JUMPDEST PUSH1 0x2 PUSH0 SLOAD SUB PUSH2 0x15AD JUMPI PUSH1 0x40 MLOAD PUSH32 0x3EE5AEB500000000000000000000000000000000000000000000000000000000 DUP2 MSTORE PUSH1 0x4 ADD PUSH1 0x40 MLOAD DUP1 SWAP2 SUB SWAP1 REVERT JUMPDEST PUSH1 0x2 PUSH0 DUP2 SWAP1 SSTORE POP JUMP JUMPDEST PUSH2 0x1632 DUP5 DUP6 PUSH20 0xFFFFFFFFFFFFFFFFFFFFFFFFFFFFFFFFFFFFFFFF AND PUSH4 0x23B872DD DUP7 DUP7 DUP7 PUSH1 0x40 MLOAD PUSH1 0x24 ADD PUSH2 0x15EB SWAP4 SWAP3 SWAP2 SWAP1 PUSH2 0x285F JUMP JUMPDEST PUSH1 0x40 MLOAD PUSH1 0x20 DUP2 DUP4 SUB SUB DUP2 MSTORE SWAP1 PUSH1 0x40 MSTORE SWAP2 POP PUSH1 0xE0 SHL PUSH1 0x20 DUP3 ADD DUP1 MLOAD PUSH28 0xFFFFFFFFFFFFFFFFFFFFFFFFFFFFFFFFFFFFFFFFFFFFFFFFFFFFFFFF DUP4 DUP2 DUP4 AND OR DUP4 MSTORE POP POP POP POP PUSH2 0x1C85 JUMP JUMPDEST POP POP POP POP JUMP JUMPDEST PUSH1 0x1 PUSH0 DUP2 SWAP1 SSTORE POP JUMP JUMPDEST PUSH2 0x1649 PUSH2 0x1D1A JUMP JUMPDEST PUSH20 0xFFFFFFFFFFFFFFFFFFFFFFFFFFFFFFFFFFFFFFFF AND PUSH2 0x1667 PUSH2 0x9F8 JUMP JUMPDEST PUSH20 0xFFFFFFFFFFFFFFFFFFFFFFFFFFFFFFFFFFFFFFFF AND EQ PUSH2 0x16C6 JUMPI PUSH2 0x168A PUSH2 0x1D1A JUMP JUMPDEST PUSH1 0x40 MLOAD PUSH32 0x118CDAA700000000000000000000000000000000000000000000000000000000 DUP2 MSTORE PUSH1 0x4 ADD PUSH2 0x16BD SWAP2 SWAP1 PUSH2 0x20A3 JUMP JUMPDEST PUSH1 0x40 MLOAD DUP1 SWAP2 SUB SWAP1 REVERT JUMPDEST JUMP JUMPDEST PUSH0 PUSH1 0x1 PUSH0 SWAP1 SLOAD SWAP1 PUSH2 0x100 EXP SWAP1 DIV PUSH20 0xFFFFFFFFFFFFFFFFFFFFFFFFFFFFFFFFFFFFFFFF AND SWAP1 POP DUP2 PUSH1 0x1 PUSH0 PUSH2 0x100 EXP DUP2 SLOAD DUP2 PUSH20 0xFFFFFFFFFFFFFFFFFFFFFFFFFFFFFFFFFFFFFFFF MUL NOT AND SWAP1 DUP4 PUSH20 0xFFFFFFFFFFFFFFFFFFFFFFFFFFFFFFFFFFFFFFFF AND MUL OR SWAP1 SSTORE POP DUP2 PUSH20 0xFFFFFFFFFFFFFFFFFFFFFFFFFFFFFFFFFFFFFFFF AND DUP2 PUSH20 0xFFFFFFFFFFFFFFFFFFFFFFFFFFFFFFFFFFFFFFFF AND PUSH32 0x8BE0079C531659141344CD1FD0A4F28419497F9722A3DAAFE3B4186F6B6457E0 PUSH1 0x40 MLOAD PUSH1 0x40 MLOAD DUP1 SWAP2 SUB SWAP1 LOG3 POP POP JUMP JUMPDEST PUSH1 0x60 PUSH0 DUP4 PUSH8 0xFFFFFFFFFFFFFFFF DUP2 GT ISZERO PUSH2 0x17A8 JUMPI PUSH2 0x17A7 PUSH2 0x2894 JUMP JUMPDEST JUMPDEST PUSH1 0x40 MLOAD SWAP1 DUP1 DUP3 MSTORE DUP1 PUSH1 0x20 MUL PUSH1 0x20 ADD DUP3 ADD PUSH1 0x40 MSTORE DUP1 ISZERO PUSH2 0x17D6 JUMPI DUP2 PUSH1 0x20 ADD PUSH1 0x20 DUP3 MUL DUP1 CALLDATASIZE DUP4 CALLDATACOPY DUP1 DUP3 ADD SWAP2 POP POP SWAP1 POP JUMPDEST POP SWAP1 POP PUSH0 DUP6 SWAP1 POP PUSH0 JUMPDEST PUSH1 0x1 DUP7 PUSH2 0x17EC SWAP2 SWAP1 PUSH2 0x28C1 JUMP JUMPDEST DUP2 LT ISZERO PUSH2 0x18D6 JUMPI PUSH2 0x17FD DUP3 DUP3 PUSH2 0x1D21 JUMP JUMPDEST SWAP2 POP PUSH0 DUP6 DUP4 PUSH2 0x180C SWAP2 SWAP1 PUSH2 0x2921 JUMP JUMPDEST SWAP1 POP PUSH0 DUP3 SWAP1 POP JUMPDEST PUSH1 0x1 DUP2 LT ISZERO DUP1 ISZERO PUSH2 0x1849 JUMPI POP DUP5 PUSH1 0x1 DUP3 PUSH2 0x182D SWAP2 SWAP1 PUSH2 0x28C1 JUMP JUMPDEST DUP2 MLOAD DUP2 LT PUSH2 0x183E JUMPI PUSH2 0x183D PUSH2 0x2951 JUMP JUMPDEST JUMPDEST PUSH1 0x20 MUL PUSH1 0x20 ADD ADD MLOAD DUP3 LT JUMPDEST ISZERO PUSH2 0x18A7 JUMPI DUP5 PUSH1 0x1 DUP3 PUSH2 0x185C SWAP2 SWAP1 PUSH2 0x28C1 JUMP JUMPDEST DUP2 MLOAD DUP2 LT PUSH2 0x186D JUMPI PUSH2 0x186C PUSH2 0x2951 JUMP JUMPDEST JUMPDEST PUSH1 0x20 MUL PUSH1 0x20 ADD ADD MLOAD DUP6 DUP3 DUP2 MLOAD DUP2 LT PUSH2 0x1888 JUMPI PUSH2 0x1887 PUSH2 0x2951 JUMP JUMPDEST JUMPDEST PUSH1 0x20 MUL PUSH1 0x20 ADD ADD DUP2 DUP2 MSTORE POP POP DUP1 DUP1 PUSH2 0x189F SWAP1 PUSH2 0x297E JUMP JUMPDEST SWAP2 POP POP PUSH2 0x1813 JUMP JUMPDEST DUP2 DUP6 DUP3 DUP2 MLOAD DUP2 LT PUSH2 0x18BB JUMPI PUSH2 0x18BA PUSH2 0x2951 JUMP JUMPDEST JUMPDEST PUSH1 0x20 MUL PUSH1 0x20 ADD ADD DUP2 DUP2 MSTORE POP POP POP POP DUP1 DUP1 PUSH1 0x1 ADD SWAP2 POP POP PUSH2 0x17DF JUMP JUMPDEST POP DUP4 DUP3 PUSH1 0x1 DUP8 PUSH2 0x18E6 SWAP2 SWAP1 PUSH2 0x28C1 JUMP JUMPDEST DUP2 MLOAD DUP2 LT PUSH2 0x18F7 JUMPI PUSH2 0x18F6 PUSH2 0x2951 JUMP JUMPDEST JUMPDEST PUSH1 0x20 MUL PUSH1 0x20 ADD ADD DUP2 DUP2 MSTORE POP POP DUP2 SWAP3 POP POP POP SWAP4 SWAP3 POP POP POP JUMP JUMPDEST PUSH0 DUP1 JUMPDEST PUSH1 0x7 PUSH0 DUP6 DUP2 MSTORE PUSH1 0x20 ADD SWAP1 DUP2 MSTORE PUSH1 0x20 ADD PUSH0 KECCAK256 PUSH1 0x4 ADD SLOAD DUP2 LT ISZERO PUSH2 0x1A8E JUMPI PUSH0 DUP3 DUP5 DUP4 DUP2 MLOAD DUP2 LT PUSH2 0x1943 JUMPI PUSH2 0x1942 PUSH2 0x2951 JUMP JUMPDEST JUMPDEST PUSH1 0x20 MUL PUSH1 0x20 ADD ADD MLOAD PUSH2 0x1955 SWAP2 SWAP1 PUSH2 0x28C1 JUMP JUMPDEST SWAP1 POP PUSH0 PUSH1 0x8 PUSH0 DUP8 DUP2 MSTORE PUSH1 0x20 ADD SWAP1 DUP2 MSTORE PUSH1 0x20 ADD PUSH0 KECCAK256 PUSH0 DUP5 DUP2 MSTORE PUSH1 0x20 ADD SWAP1 DUP2 MSTORE PUSH1 0x20 ADD PUSH0 KECCAK256 PUSH1 0x1 ADD PUSH0 SWAP1 SLOAD SWAP1 PUSH2 0x100 EXP SWAP1 DIV PUSH20 0xFFFFFFFFFFFFFFFFFFFFFFFFFFFFFFFFFFFFFFFF AND SWAP1 POP DUP3 DUP2 PUSH20 0xFFFFFFFFFFFFFFFFFFFFFFFFFFFFFFFFFFFFFFFF AND DUP8 PUSH32 0x927546E38B674F5E5DFF7EDCE9C7AFDCF21A35AC03BA70FE8E341F61F2C73DED DUP6 PUSH1 0x7 PUSH0 DUP13 DUP2 MSTORE PUSH1 0x20 ADD SWAP1 DUP2 MSTORE PUSH1 0x20 ADD PUSH0 KECCAK256 PUSH1 0x8 ADD PUSH0 SWAP1 SLOAD SWAP1 PUSH2 0x100 EXP SWAP1 DIV PUSH1 0xFF AND PUSH1 0x40 MLOAD PUSH2 0x1A07 SWAP3 SWAP2 SWAP1 PUSH2 0x2630 JUMP JUMPDEST PUSH1 0x40 MLOAD DUP1 SWAP2 SUB SWAP1 LOG4 DUP2 PUSH1 0xB PUSH0 DUP9 DUP2 MSTORE PUSH1 0x20 ADD SWAP1 DUP2 MSTORE PUSH1 0x20 ADD PUSH0 KECCAK256 PUSH0 DUP4 PUSH20 0xFFFFFFFFFFFFFFFFFFFFFFFFFFFFFFFFFFFFFFFF AND PUSH20 0xFFFFFFFFFFFFFFFFFFFFFFFFFFFFFFFFFFFFFFFF AND DUP2 MSTORE PUSH1 0x20 ADD SWAP1 DUP2 MSTORE PUSH1 0x20 ADD PUSH0 KECCAK256 PUSH0 DUP3 DUP3 SLOAD PUSH2 0x1A6A SWAP2 SWAP1 PUSH2 0x24F8 JUMP JUMPDEST SWAP3 POP POP DUP2 SWAP1 SSTORE POP DUP2 DUP5 PUSH2 0x1A7D SWAP2 SWAP1 PUSH2 0x24F8 JUMP JUMPDEST SWAP4 POP POP POP DUP1 DUP1 PUSH1 0x1 ADD SWAP2 POP POP PUSH2 0x1912 JUMP JUMPDEST POP POP POP POP JUMP JUMPDEST PUSH0 PUSH1 0xB PUSH0 DUP5 DUP2 MSTORE PUSH1 0x20 ADD SWAP1 DUP2 MSTORE PUSH1 0x20 ADD PUSH0 KECCAK256 PUSH0 DUP4 PUSH20 0xFFFFFFFFFFFFFFFFFFFFFFFFFFFFFFFFFFFFFFFF AND PUSH20 0xFFFFFFFFFFFFFFFFFFFFFFFFFFFFFFFFFFFFFFFF AND DUP2 MSTORE PUSH1 0x20 ADD SWAP1 DUP2 MSTORE PUSH1 0x20 ADD PUSH0 KECCAK256 SLOAD SUB PUSH2 0x1B22 JUMPI PUSH1 0x40 MLOAD PUSH32 0x8C379A000000000000000000000000000000000000000000000000000000000 DUP2 MSTORE PUSH1 0x4 ADD PUSH2 0x1B19 SWAP1 PUSH2 0x29EF JUMP JUMPDEST PUSH1 0x40 MLOAD DUP1 SWAP2 SUB SWAP1 REVERT JUMPDEST PUSH0 PUSH1 0xB PUSH0 DUP5 DUP2 MSTORE PUSH1 0x20 ADD SWAP1 DUP2 MSTORE PUSH1 0x20 ADD PUSH0 KECCAK256 PUSH0 DUP4 PUSH20 0xFFFFFFFFFFFFFFFFFFFFFFFFFFFFFFFFFFFFFFFF AND PUSH20 0xFFFFFFFFFFFFFFFFFFFFFFFFFFFFFFFFFFFFFFFF AND DUP2 MSTORE PUSH1 0x20 ADD SWAP1 DUP2 MSTORE PUSH1 0x20 ADD PUSH0 KECCAK256 SLOAD SWAP1 POP PUSH2 0x1BBE DUP3 DUP3 PUSH1 0x2 PUSH0 SWAP1 SLOAD SWAP1 PUSH2 0x100 EXP SWAP1 DIV PUSH20 0xFFFFFFFFFFFFFFFFFFFFFFFFFFFFFFFFFFFFFFFF AND PUSH20 0xFFFFFFFFFFFFFFFFFFFFFFFFFFFFFFFFFFFFFFFF AND PUSH2 0x1D70 SWAP1 SWAP3 SWAP2 SWAP1 PUSH4 0xFFFFFFFF AND JUMP JUMPDEST PUSH0 PUSH1 0xB PUSH0 DUP6 DUP2 MSTORE PUSH1 0x20 ADD SWAP1 DUP2 MSTORE PUSH1 0x20 ADD PUSH0 KECCAK256 PUSH0 DUP5 PUSH20 0xFFFFFFFFFFFFFFFFFFFFFFFFFFFFFFFFFFFFFFFF AND PUSH20 0xFFFFFFFFFFFFFFFFFFFFFFFFFFFFFFFFFFFFFFFF AND DUP2 MSTORE PUSH1 0x20 ADD SWAP1 DUP2 MSTORE PUSH1 0x20 ADD PUSH0 KECCAK256 DUP2 SWAP1 SSTORE POP DUP2 PUSH20 0xFFFFFFFFFFFFFFFFFFFFFFFFFFFFFFFFFFFFFFFF AND DUP4 PUSH32 0x268EF67ED0490CC273925A4865E6FBDB4DCF7E0802AAD957AA682A78C7618BEF DUP4 PUSH1 0x7 PUSH0 DUP9 DUP2 MSTORE PUSH1 0x20 ADD SWAP1 DUP2 MSTORE PUSH1 0x20 ADD PUSH0 KECCAK256 PUSH1 0x8 ADD PUSH0 SWAP1 SLOAD SWAP1 PUSH2 0x100 EXP SWAP1 DIV PUSH1 0xFF AND PUSH1 0x40 MLOAD PUSH2 0x1C78 SWAP3 SWAP2 SWAP1 PUSH2 0x2630 JUMP JUMPDEST PUSH1 0x40 MLOAD DUP1 SWAP2 SUB SWAP1 LOG3 POP POP POP JUMP JUMPDEST PUSH0 PUSH2 0x1CAF DUP3 DUP5 PUSH20 0xFFFFFFFFFFFFFFFFFFFFFFFFFFFFFFFFFFFFFFFF AND PUSH2 0x1DEF SWAP1 SWAP2 SWAP1 PUSH4 0xFFFFFFFF AND JUMP JUMPDEST SWAP1 POP PUSH0 DUP2 MLOAD EQ ISZERO DUP1 ISZERO PUSH2 0x1CD3 JUMPI POP DUP1 DUP1 PUSH1 0x20 ADD SWAP1 MLOAD DUP2 ADD SWAP1 PUSH2 0x1CD1 SWAP2 SWAP1 PUSH2 0x2A21 JUMP JUMPDEST ISZERO JUMPDEST ISZERO PUSH2 0x1D15 JUMPI DUP3 PUSH1 0x40 MLOAD PUSH32 0x5274AFE700000000000000000000000000000000000000000000000000000000 DUP2 MSTORE PUSH1 0x4 ADD PUSH2 0x1D0C SWAP2 SWAP1 PUSH2 0x20A3 JUMP JUMPDEST PUSH1 0x40 MLOAD DUP1 SWAP2 SUB SWAP1 REVERT JUMPDEST POP POP POP JUMP JUMPDEST PUSH0 CALLER SWAP1 POP SWAP1 JUMP JUMPDEST PUSH0 DUP1 PUSH2 0x100 DUP4 PUSH2 0x1D31 SWAP2 SWAP1 PUSH2 0x2921 JUMP JUMPDEST SWAP1 POP DUP3 PUSH2 0x1D3E DUP6 DUP4 PUSH2 0x1E04 JUMP JUMPDEST PUSH1 0x40 MLOAD PUSH1 0x20 ADD PUSH2 0x1D4F SWAP3 SWAP2 SWAP1 PUSH2 0x2A6C JUMP JUMPDEST PUSH1 0x40 MLOAD PUSH1 0x20 DUP2 DUP4 SUB SUB DUP2 MSTORE SWAP1 PUSH1 0x40 MSTORE DUP1 MLOAD SWAP1 PUSH1 0x20 ADD KECCAK256 PUSH0 SHR SWAP2 POP POP SWAP3 SWAP2 POP POP JUMP JUMPDEST PUSH2 0x1DEA DUP4 DUP5 PUSH20 0xFFFFFFFFFFFFFFFFFFFFFFFFFFFFFFFFFFFFFFFF AND PUSH4 0xA9059CBB DUP6 DUP6 PUSH1 0x40 MLOAD PUSH1 0x24 ADD PUSH2 0x1DA3 SWAP3 SWAP2 SWAP1 PUSH2 0x2A97 JUMP JUMPDEST PUSH1 0x40 MLOAD PUSH1 0x20 DUP2 DUP4 SUB SUB DUP2 MSTORE SWAP1 PUSH1 0x40 MSTORE SWAP2 POP PUSH1 0xE0 SHL PUSH1 0x20 DUP3 ADD DUP1 MLOAD PUSH28 0xFFFFFFFFFFFFFFFFFFFFFFFFFFFFFFFFFFFFFFFFFFFFFFFFFFFFFFFF DUP4 DUP2 DUP4 AND OR DUP4 MSTORE POP POP POP POP PUSH2 0x1C85 JUMP JUMPDEST POP POP POP JUMP JUMPDEST PUSH1 0x60 PUSH2 0x1DFC DUP4 DUP4 PUSH0 PUSH2 0x1E2F JUMP JUMPDEST SWAP1 POP SWAP3 SWAP2 POP POP JUMP JUMPDEST PUSH0 DUP2 PUSH2 0x100 PUSH2 0x1E13 SWAP2 SWAP1 PUSH2 0x2ACD JUMP JUMPDEST PUSH4 0xFFFFFFFF AND DUP4 SWAP1 SHR DUP3 PUSH4 0xFFFFFFFF AND DUP5 SWAP1 SHL OR SWAP1 POP SWAP3 SWAP2 POP POP JUMP JUMPDEST PUSH1 0x60 DUP2 SELFBALANCE LT ISZERO PUSH2 0x1E76 JUMPI ADDRESS PUSH1 0x40 MLOAD PUSH32 0xCD78605900000000000000000000000000000000000000000000000000000000 DUP2 MSTORE PUSH1 0x4 ADD PUSH2 0x1E6D SWAP2 SWAP1 PUSH2 0x20A3 JUMP JUMPDEST PUSH1 0x40 MLOAD DUP1 SWAP2 SUB SWAP1 REVERT JUMPDEST PUSH0 DUP1 DUP6 PUSH20 0xFFFFFFFFFFFFFFFFFFFFFFFFFFFFFFFFFFFFFFFF AND DUP5 DUP7 PUSH1 0x40 MLOAD PUSH2 0x1E9E SWAP2 SWAP1 PUSH2 0x2B56 JUMP JUMPDEST PUSH0 PUSH1 0x40 MLOAD DUP1 DUP4 SUB DUP2 DUP6 DUP8 GAS CALL SWAP3 POP POP POP RETURNDATASIZE DUP1 PUSH0 DUP2 EQ PUSH2 0x1ED8 JUMPI PUSH1 0x40 MLOAD SWAP2 POP PUSH1 0x1F NOT PUSH1 0x3F RETURNDATASIZE ADD AND DUP3 ADD PUSH1 0x40 MSTORE RETURNDATASIZE DUP3 MSTORE RETURNDATASIZE PUSH0 PUSH1 0x20 DUP5 ADD RETURNDATACOPY PUSH2 0x1EDD JUMP JUMPDEST PUSH1 0x60 SWAP2 POP JUMPDEST POP SWAP2 POP SWAP2 POP PUSH2 0x1EED DUP7 DUP4 DUP4 PUSH2 0x1EF8 JUMP JUMPDEST SWAP3 POP POP POP SWAP4 SWAP3 POP POP POP JUMP JUMPDEST PUSH1 0x60 DUP3 PUSH2 0x1F0D JUMPI PUSH2 0x1F08 DUP3 PUSH2 0x1F85 JUMP JUMPDEST PUSH2 0x1F7D JUMP JUMPDEST PUSH0 DUP3 MLOAD EQ DUP1 ISZERO PUSH2 0x1F33 JUMPI POP PUSH0 DUP5 PUSH20 0xFFFFFFFFFFFFFFFFFFFFFFFFFFFFFFFFFFFFFFFF AND EXTCODESIZE EQ JUMPDEST ISZERO PUSH2 0x1F75 JUMPI DUP4 PUSH1 0x40 MLOAD PUSH32 0x9996B31500000000000000000000000000000000000000000000000000000000 DUP2 MSTORE PUSH1 0x4 ADD PUSH2 0x1F6C SWAP2 SWAP1 PUSH2 0x20A3 JUMP JUMPDEST PUSH1 0x40 MLOAD DUP1 SWAP2 SUB SWAP1 REVERT JUMPDEST DUP2 SWAP1 POP PUSH2 0x1F7E JUMP JUMPDEST JUMPDEST SWAP4 SWAP3 POP POP POP JUMP JUMPDEST PUSH0 DUP2 MLOAD GT ISZERO PUSH2 0x1F97 JUMPI DUP1 MLOAD DUP1 DUP3 PUSH1 0x20 ADD REVERT JUMPDEST PUSH1 0x40 MLOAD PUSH32 0x1425EA4200000000000000000000000000000000000000000000000000000000 DUP2 MSTORE PUSH1 0x4 ADD PUSH1 0x40 MLOAD DUP1 SWAP2 SUB SWAP1 REVERT JUMPDEST PUSH0 DUP1 REVERT JUMPDEST PUSH0 DUP2 SWAP1 POP SWAP2 SWAP1 POP JUMP JUMPDEST PUSH2 0x1FDF DUP2 PUSH2 0x1FCD JUMP JUMPDEST DUP2 EQ PUSH2 0x1FE9 JUMPI PUSH0 DUP1 REVERT JUMPDEST POP JUMP JUMPDEST PUSH0 DUP2 CALLDATALOAD SWAP1 POP PUSH2 0x1FFA DUP2 PUSH2 0x1FD6 JUMP JUMPDEST SWAP3 SWAP2 POP POP JUMP JUMPDEST PUSH0 DUP1 PUSH0 DUP1 PUSH1 0x80 DUP6 DUP8 SUB SLT ISZERO PUSH2 0x2018 JUMPI PUSH2 0x2017 PUSH2 0x1FC9 JUMP JUMPDEST JUMPDEST PUSH0 PUSH2 0x2025 DUP8 DUP3 DUP9 ADD PUSH2 0x1FEC JUMP JUMPDEST SWAP5 POP POP PUSH1 0x20 PUSH2 0x2036 DUP8 DUP3 DUP9 ADD PUSH2 0x1FEC JUMP JUMPDEST SWAP4 POP POP PUSH1 0x40 PUSH2 0x2047 DUP8 DUP3 DUP9 ADD PUSH2 0x1FEC JUMP JUMPDEST SWAP3 POP POP PUSH1 0x60 PUSH2 0x2058 DUP8 DUP3 DUP9 ADD PUSH2 0x1FEC JUMP JUMPDEST SWAP2 POP POP SWAP3 SWAP6 SWAP2 SWAP5 POP SWAP3 POP JUMP JUMPDEST PUSH0 PUSH20 0xFFFFFFFFFFFFFFFFFFFFFFFFFFFFFFFFFFFFFFFF DUP3 AND SWAP1 POP SWAP2 SWAP1 POP JUMP JUMPDEST PUSH0 PUSH2 0x208D DUP3 PUSH2 0x2064 JUMP JUMPDEST SWAP1 POP SWAP2 SWAP1 POP JUMP JUMPDEST PUSH2 0x209D DUP2 PUSH2 0x2083 JUMP JUMPDEST DUP3 MSTORE POP POP JUMP JUMPDEST PUSH0 PUSH1 0x20 DUP3 ADD SWAP1 POP PUSH2 0x20B6 PUSH0 DUP4 ADD DUP5 PUSH2 0x2094 JUMP JUMPDEST SWAP3 SWAP2 POP POP JUMP JUMPDEST PUSH2 0x20C5 DUP2 PUSH2 0x2083 JUMP JUMPDEST DUP2 EQ PUSH2 0x20CF JUMPI PUSH0 DUP1 REVERT JUMPDEST POP JUMP JUMPDEST PUSH0 DUP2 CALLDATALOAD SWAP1 POP PUSH2 0x20E0 DUP2 PUSH2 0x20BC JUMP JUMPDEST SWAP3 SWAP2 POP POP JUMP JUMPDEST PUSH0 PUSH1 0x20 DUP3 DUP5 SUB SLT ISZERO PUSH2 0x20FB JUMPI PUSH2 0x20FA PUSH2 0x1FC9 JUMP JUMPDEST JUMPDEST PUSH0 PUSH2 0x2108 DUP5 DUP3 DUP6 ADD PUSH2 0x20D2 JUMP JUMPDEST SWAP2 POP POP SWAP3 SWAP2 POP POP JUMP JUMPDEST PUSH0 PUSH1 0x20 DUP3 DUP5 SUB SLT ISZERO PUSH2 0x2126 JUMPI PUSH2 0x2125 PUSH2 0x1FC9 JUMP JUMPDEST JUMPDEST PUSH0 PUSH2 0x2133 DUP5 DUP3 DUP6 ADD PUSH2 0x1FEC JUMP JUMPDEST SWAP2 POP POP SWAP3 SWAP2 POP POP JUMP JUMPDEST PUSH2 0x2145 DUP2 PUSH2 0x1FCD JUMP JUMPDEST DUP3 MSTORE POP POP JUMP JUMPDEST PUSH0 PUSH1 0x20 DUP3 ADD SWAP1 POP PUSH2 0x215E PUSH0 DUP4 ADD DUP5 PUSH2 0x213C JUMP JUMPDEST SWAP3 SWAP2 POP POP JUMP JUMPDEST PUSH32 0x4E487B7100000000000000000000000000000000000000000000000000000000 PUSH0 MSTORE PUSH1 0x21 PUSH1 0x4 MSTORE PUSH1 0x24 PUSH0 REVERT JUMPDEST PUSH1 0x4 DUP2 LT PUSH2 0x21A2 JUMPI PUSH2 0x21A1 PUSH2 0x2164 JUMP JUMPDEST JUMPDEST POP JUMP JUMPDEST PUSH0 DUP2 SWAP1 POP PUSH2 0x21B2 DUP3 PUSH2 0x2191 JUMP JUMPDEST SWAP2 SWAP1 POP JUMP JUMPDEST PUSH0 PUSH2 0x21C1 DUP3 PUSH2 0x21A5 JUMP JUMPDEST SWAP1 POP SWAP2 SWAP1 POP JUMP JUMPDEST PUSH2 0x21D1 DUP2 PUSH2 0x21B7 JUMP JUMPDEST DUP3 MSTORE POP POP JUMP JUMPDEST PUSH0 PUSH1 0x20 DUP3 ADD SWAP1 POP PUSH2 0x21EA PUSH0 DUP4 ADD DUP5 PUSH2 0x21C8 JUMP JUMPDEST SWAP3 SWAP2 POP POP JUMP JUMPDEST PUSH0 DUP2 ISZERO ISZERO SWAP1 POP SWAP2 SWAP1 POP JUMP JUMPDEST PUSH2 0x2204 DUP2 PUSH2 0x21F0 JUMP JUMPDEST DUP3 MSTORE POP POP JUMP JUMPDEST PUSH0 PUSH1 0x20 DUP3 ADD SWAP1 POP PUSH2 0x221D PUSH0 DUP4 ADD DUP5 PUSH2 0x21FB JUMP JUMPDEST SWAP3 SWAP2 POP POP JUMP JUMPDEST PUSH0 DUP1 PUSH1 0x40 DUP4 DUP6 SUB SLT ISZERO PUSH2 0x2239 JUMPI PUSH2 0x2238 PUSH2 0x1FC9 JUMP JUMPDEST JUMPDEST PUSH0 PUSH2 0x2246 DUP6 DUP3 DUP7 ADD PUSH2 0x1FEC JUMP JUMPDEST SWAP3 POP POP PUSH1 0x20 PUSH2 0x2257 DUP6 DUP3 DUP7 ADD PUSH2 0x1FEC JUMP JUMPDEST SWAP2 POP POP SWAP3 POP SWAP3 SWAP1 POP JUMP JUMPDEST PUSH0 DUP1 PUSH0 PUSH1 0x60 DUP5 DUP7 SUB SLT ISZERO PUSH2 0x2278 JUMPI PUSH2 0x2277 PUSH2 0x1FC9 JUMP JUMPDEST JUMPDEST PUSH0 PUSH2 0x2285 DUP7 DUP3 DUP8 ADD PUSH2 0x1FEC JUMP JUMPDEST SWAP4 POP POP PUSH1 0x20 PUSH2 0x2296 DUP7 DUP3 DUP8 ADD PUSH2 0x20D2 JUMP JUMPDEST SWAP3 POP POP PUSH1 0x40 PUSH2 0x22A7 DUP7 DUP3 DUP8 ADD PUSH2 0x1FEC JUMP JUMPDEST SWAP2 POP POP SWAP3 POP SWAP3 POP SWAP3 JUMP JUMPDEST PUSH0 DUP2 SWAP1 POP SWAP2 SWAP1 POP JUMP JUMPDEST PUSH0 PUSH2 0x22D4 PUSH2 0x22CF PUSH2 0x22CA DUP5 PUSH2 0x2064 JUMP JUMPDEST PUSH2 0x22B1 JUMP JUMPDEST PUSH2 0x2064 JUMP JUMPDEST SWAP1 POP SWAP2 SWAP1 POP JUMP JUMPDEST PUSH0 PUSH2 0x22E5 DUP3 PUSH2 0x22BA JUMP JUMPDEST SWAP1 POP SWAP2 SWAP1 POP JUMP JUMPDEST PUSH0 PUSH2 0x22F6 DUP3 PUSH2 0x22DB JUMP JUMPDEST SWAP1 POP SWAP2 SWAP1 POP JUMP JUMPDEST PUSH2 0x2306 DUP2 PUSH2 0x22EC JUMP JUMPDEST DUP3 MSTORE POP POP JUMP JUMPDEST PUSH0 PUSH1 0x20 DUP3 ADD SWAP1 POP PUSH2 0x231F PUSH0 DUP4 ADD DUP5 PUSH2 0x22FD JUMP JUMPDEST SWAP3 SWAP2 POP POP JUMP JUMPDEST PUSH2 0x232E DUP2 PUSH2 0x21F0 JUMP JUMPDEST DUP2 EQ PUSH2 0x2338 JUMPI PUSH0 DUP1 REVERT JUMPDEST POP JUMP JUMPDEST PUSH0 DUP2 CALLDATALOAD SWAP1 POP PUSH2 0x2349 DUP2 PUSH2 0x2325 JUMP JUMPDEST SWAP3 SWAP2 POP POP JUMP JUMPDEST PUSH0 PUSH1 0x20 DUP3 DUP5 SUB SLT ISZERO PUSH2 0x2364 JUMPI PUSH2 0x2363 PUSH2 0x1FC9 JUMP JUMPDEST JUMPDEST PUSH0 PUSH2 0x2371 DUP5 DUP3 DUP6 ADD PUSH2 0x233B JUMP JUMPDEST SWAP2 POP POP SWAP3 SWAP2 POP POP JUMP JUMPDEST PUSH0 DUP3 DUP3 MSTORE PUSH1 0x20 DUP3 ADD SWAP1 POP SWAP3 SWAP2 POP POP JUMP JUMPDEST PUSH32 0x4E6F74206F70657261746F720000000000000000000000000000000000000000 PUSH0 DUP3 ADD MSTORE POP JUMP JUMPDEST PUSH0 PUSH2 0x23BE PUSH1 0xC DUP4 PUSH2 0x237A JUMP JUMPDEST SWAP2 POP PUSH2 0x23C9 DUP3 PUSH2 0x238A JUMP JUMPDEST PUSH1 0x20 DUP3 ADD SWAP1 POP SWAP2 SWAP1 POP JUMP JUMPDEST PUSH0 PUSH1 0x20 DUP3 ADD SWAP1 POP DUP2 DUP2 SUB PUSH0 DUP4 ADD MSTORE PUSH2 0x23EB DUP2 PUSH2 0x23B2 JUMP JUMPDEST SWAP1 POP SWAP2 SWAP1 POP JUMP JUMPDEST PUSH32 0x4E487B7100000000000000000000000000000000000000000000000000000000 PUSH0 MSTORE PUSH1 0x11 PUSH1 0x4 MSTORE PUSH1 0x24 PUSH0 REVERT JUMPDEST PUSH0 PUSH2 0x2429 DUP3 PUSH2 0x1FCD JUMP JUMPDEST SWAP2 POP PUSH32 0xFFFFFFFFFFFFFFFFFFFFFFFFFFFFFFFFFFFFFFFFFFFFFFFFFFFFFFFFFFFFFFFF DUP3 SUB PUSH2 0x245B JUMPI PUSH2 0x245A PUSH2 0x23F2 JUMP JUMPDEST JUMPDEST PUSH1 0x1 DUP3 ADD SWAP1 POP SWAP2 SWAP1 POP JUMP JUMPDEST PUSH0 PUSH1 0xA0 DUP3 ADD SWAP1 POP PUSH2 0x2479 PUSH0 DUP4 ADD DUP9 PUSH2 0x213C JUMP JUMPDEST PUSH2 0x2486 PUSH1 0x20 DUP4 ADD DUP8 PUSH2 0x213C JUMP JUMPDEST PUSH2 0x2493 PUSH1 0x40 DUP4 ADD DUP7 PUSH2 0x213C JUMP JUMPDEST PUSH2 0x24A0 PUSH1 0x60 DUP4 ADD DUP6 PUSH2 0x213C JUMP JUMPDEST PUSH2 0x24AD PUSH1 0x80 DUP4 ADD DUP5 PUSH2 0x21FB JUMP JUMPDEST SWAP7 SWAP6 POP POP POP POP POP POP JUMP JUMPDEST PUSH0 PUSH2 0x24C1 DUP3 PUSH2 0x1FCD JUMP JUMPDEST SWAP2 POP PUSH2 0x24CC DUP4 PUSH2 0x1FCD JUMP JUMPDEST SWAP3 POP DUP3 DUP3 MUL PUSH2 0x24DA DUP2 PUSH2 0x1FCD JUMP JUMPDEST SWAP2 POP DUP3 DUP3 DIV DUP5 EQ DUP4 ISZERO OR PUSH2 0x24F1 JUMPI PUSH2 0x24F0 PUSH2 0x23F2 JUMP JUMPDEST JUMPDEST POP SWAP3 SWAP2 POP POP JUMP JUMPDEST PUSH0 PUSH2 0x2502 DUP3 PUSH2 0x1FCD JUMP JUMPDEST SWAP2 POP PUSH2 0x250D DUP4 PUSH2 0x1FCD JUMP JUMPDEST SWAP3 POP DUP3 DUP3 ADD SWAP1 POP DUP1 DUP3 GT ISZERO PUSH2 0x2525 JUMPI PUSH2 0x2524 PUSH2 0x23F2 JUMP JUMPDEST JUMPDEST SWAP3 SWAP2 POP POP JUMP JUMPDEST PUSH32 0x43616E6E6F74206265207A65726F206164647265737300000000000000000000 PUSH0 DUP3 ADD MSTORE POP JUMP JUMPDEST PUSH0 PUSH2 0x255F PUSH1 0x16 DUP4 PUSH2 0x237A JUMP JUMPDEST SWAP2 POP PUSH2 0x256A DUP3 PUSH2 0x252B JUMP JUMPDEST PUSH1 0x20 DUP3 ADD SWAP1 POP SWAP2 SWAP1 POP JUMP JUMPDEST PUSH0 PUSH1 0x20 DUP3 ADD SWAP1 POP DUP2 DUP2 SUB PUSH0 DUP4 ADD MSTORE PUSH2 0x258C DUP2 PUSH2 0x2553 JUMP JUMPDEST SWAP1 POP SWAP2 SWAP1 POP JUMP JUMPDEST PUSH32 0x526564456E76656C6F7065206973206E6F74206F70656E000000000000000000 PUSH0 DUP3 ADD MSTORE POP JUMP JUMPDEST PUSH0 PUSH2 0x25C7 PUSH1 0x17 DUP4 PUSH2 0x237A JUMP JUMPDEST SWAP2 POP PUSH2 0x25D2 DUP3 PUSH2 0x2593 JUMP JUMPDEST PUSH1 0x20 DUP3 ADD SWAP1 POP SWAP2 SWAP1 POP JUMP JUMPDEST PUSH0 PUSH1 0x20 DUP3 ADD SWAP1 POP DUP2 DUP2 SUB PUSH0 DUP4 ADD MSTORE PUSH2 0x25F4 DUP2 PUSH2 0x25BB JUMP JUMPDEST SWAP1 POP SWAP2 SWAP1 POP JUMP JUMPDEST PUSH0 PUSH1 0x60 DUP3 ADD SWAP1 POP PUSH2 0x260E PUSH0 DUP4 ADD DUP7 PUSH2 0x213C JUMP JUMPDEST PUSH2 0x261B PUSH1 0x20 DUP4 ADD DUP6 PUSH2 0x213C JUMP JUMPDEST PUSH2 0x2628 PUSH1 0x40 DUP4 ADD DUP5 PUSH2 0x213C JUMP JUMPDEST SWAP5 SWAP4 POP POP POP POP JUMP JUMPDEST PUSH0 PUSH1 0x40 DUP3 ADD SWAP1 POP PUSH2 0x2643 PUSH0 DUP4 ADD DUP6 PUSH2 0x213C JUMP JUMPDEST PUSH2 0x2650 PUSH1 0x20 DUP4 ADD DUP5 PUSH2 0x21FB JUMP JUMPDEST SWAP4 SWAP3 POP POP POP JUMP JUMPDEST PUSH32 0x526564456E76656C6F7065206E6F7420636C6F73650000000000000000000000 PUSH0 DUP3 ADD MSTORE POP JUMP JUMPDEST PUSH0 PUSH2 0x268B PUSH1 0x15 DUP4 PUSH2 0x237A JUMP JUMPDEST SWAP2 POP PUSH2 0x2696 DUP3 PUSH2 0x2657 JUMP JUMPDEST PUSH1 0x20 DUP3 ADD SWAP1 POP SWAP2 SWAP1 POP JUMP JUMPDEST PUSH0 PUSH1 0x20 DUP3 ADD SWAP1 POP DUP2 DUP2 SUB PUSH0 DUP4 ADD MSTORE PUSH2 0x26B8 DUP2 PUSH2 0x267F JUMP JUMPDEST SWAP1 POP SWAP2 SWAP1 POP JUMP JUMPDEST PUSH32 0x526564456E76656C6F7065206973206F7665722074696D650000000000000000 PUSH0 DUP3 ADD MSTORE POP JUMP JUMPDEST PUSH0 PUSH2 0x26F3 PUSH1 0x18 DUP4 PUSH2 0x237A JUMP JUMPDEST SWAP2 POP PUSH2 0x26FE DUP3 PUSH2 0x26BF JUMP JUMPDEST PUSH1 0x20 DUP3 ADD SWAP1 POP SWAP2 SWAP1 POP JUMP JUMPDEST PUSH0 PUSH1 0x20 DUP3 ADD SWAP1 POP DUP2 DUP2 SUB PUSH0 DUP4 ADD MSTORE PUSH2 0x2720 DUP2 PUSH2 0x26E7 JUMP JUMPDEST SWAP1 POP SWAP2 SWAP1 POP JUMP JUMPDEST PUSH32 0x526564456E76656C6F7065206973206F766572207469636B6574000000000000 PUSH0 DUP3 ADD MSTORE POP JUMP JUMPDEST PUSH0 PUSH2 0x275B PUSH1 0x1A DUP4 PUSH2 0x237A JUMP JUMPDEST SWAP2 POP PUSH2 0x2766 DUP3 PUSH2 0x2727 JUMP JUMPDEST PUSH1 0x20 DUP3 ADD SWAP1 POP SWAP2 SWAP1 POP JUMP JUMPDEST PUSH0 PUSH1 0x20 DUP3 ADD SWAP1 POP DUP2 DUP2 SUB PUSH0 DUP4 ADD MSTORE PUSH2 0x2788 DUP2 PUSH2 0x274F JUMP JUMPDEST SWAP1 POP SWAP2 SWAP1 POP JUMP JUMPDEST PUSH32 0x526564456E76656C6F7065206E6F7420636C61696D61626C6500000000000000 PUSH0 DUP3 ADD MSTORE POP JUMP JUMPDEST PUSH0 PUSH2 0x27C3 PUSH1 0x19 DUP4 PUSH2 0x237A JUMP JUMPDEST SWAP2 POP PUSH2 0x27CE DUP3 PUSH2 0x278F JUMP JUMPDEST PUSH1 0x20 DUP3 ADD SWAP1 POP SWAP2 SWAP1 POP JUMP JUMPDEST PUSH0 PUSH1 0x20 DUP3 ADD SWAP1 POP DUP2 DUP2 SUB PUSH0 DUP4 ADD MSTORE PUSH2 0x27F0 DUP2 PUSH2 0x27B7 JUMP JUMPDEST SWAP1 POP SWAP2 SWAP1 POP JUMP JUMPDEST PUSH32 0x526564456E76656C6F7065206175746F20636C61696D00000000000000000000 PUSH0 DUP3 ADD MSTORE POP JUMP JUMPDEST PUSH0 PUSH2 0x282B PUSH1 0x16 DUP4 PUSH2 0x237A JUMP JUMPDEST SWAP2 POP PUSH2 0x2836 DUP3 PUSH2 0x27F7 JUMP JUMPDEST PUSH1 0x20 DUP3 ADD SWAP1 POP SWAP2 SWAP1 POP JUMP JUMPDEST PUSH0 PUSH1 0x20 DUP3 ADD SWAP1 POP DUP2 DUP2 SUB PUSH0 DUP4 ADD MSTORE PUSH2 0x2858 DUP2 PUSH2 0x281F JUMP JUMPDEST SWAP1 POP SWAP2 SWAP1 POP JUMP JUMPDEST PUSH0 PUSH1 0x60 DUP3 ADD SWAP1 POP PUSH2 0x2872 PUSH0 DUP4 ADD DUP7 PUSH2 0x2094 JUMP JUMPDEST PUSH2 0x287F PUSH1 0x20 DUP4 ADD DUP6 PUSH2 0x2094 JUMP JUMPDEST PUSH2 0x288C PUSH1 0x40 DUP4 ADD DUP5 PUSH2 0x213C JUMP JUMPDEST SWAP5 SWAP4 POP POP POP POP JUMP JUMPDEST PUSH32 0x4E487B7100000000000000000000000000000000000000000000000000000000 PUSH0 MSTORE PUSH1 0x41 PUSH1 0x4 MSTORE PUSH1 0x24 PUSH0 REVERT JUMPDEST PUSH0 PUSH2 0x28CB DUP3 PUSH2 0x1FCD JUMP JUMPDEST SWAP2 POP PUSH2 0x28D6 DUP4 PUSH2 0x1FCD JUMP JUMPDEST SWAP3 POP DUP3 DUP3 SUB SWAP1 POP DUP2 DUP2 GT ISZERO PUSH2 0x28EE JUMPI PUSH2 0x28ED PUSH2 0x23F2 JUMP JUMPDEST JUMPDEST SWAP3 SWAP2 POP POP JUMP JUMPDEST PUSH32 0x4E487B7100000000000000000000000000000000000000000000000000000000 PUSH0 MSTORE PUSH1 0x12 PUSH1 0x4 MSTORE PUSH1 0x24 PUSH0 REVERT JUMPDEST PUSH0 PUSH2 0x292B DUP3 PUSH2 0x1FCD JUMP JUMPDEST SWAP2 POP PUSH2 0x2936 DUP4 PUSH2 0x1FCD JUMP JUMPDEST SWAP3 POP DUP3 PUSH2 0x2946 JUMPI PUSH2 0x2945 PUSH2 0x28F4 JUMP JUMPDEST JUMPDEST DUP3 DUP3 MOD SWAP1 POP SWAP3 SWAP2 POP POP JUMP JUMPDEST PUSH32 0x4E487B7100000000000000000000000000000000000000000000000000000000 PUSH0 MSTORE PUSH1 0x32 PUSH1 0x4 MSTORE PUSH1 0x24 PUSH0 REVERT JUMPDEST PUSH0 PUSH2 0x2988 DUP3 PUSH2 0x1FCD JUMP JUMPDEST SWAP2 POP PUSH0 DUP3 SUB PUSH2 0x299A JUMPI PUSH2 0x2999 PUSH2 0x23F2 JUMP JUMPDEST JUMPDEST PUSH1 0x1 DUP3 SUB SWAP1 POP SWAP2 SWAP1 POP JUMP JUMPDEST PUSH32 0x6E6F207072697A65000000000000000000000000000000000000000000000000 PUSH0 DUP3 ADD MSTORE POP JUMP JUMPDEST PUSH0 PUSH2 0x29D9 PUSH1 0x8 DUP4 PUSH2 0x237A JUMP JUMPDEST SWAP2 POP PUSH2 0x29E4 DUP3 PUSH2 0x29A5 JUMP JUMPDEST PUSH1 0x20 DUP3 ADD SWAP1 POP SWAP2 SWAP1 POP JUMP JUMPDEST PUSH0 PUSH1 0x20 DUP3 ADD SWAP1 POP DUP2 DUP2 SUB PUSH0 DUP4 ADD MSTORE PUSH2 0x2A06 DUP2 PUSH2 0x29CD JUMP JUMPDEST SWAP1 POP SWAP2 SWAP1 POP JUMP JUMPDEST PUSH0 DUP2 MLOAD SWAP1 POP PUSH2 0x2A1B DUP2 PUSH2 0x2325 JUMP JUMPDEST SWAP3 SWAP2 POP POP JUMP JUMPDEST PUSH0 PUSH1 0x20 DUP3 DUP5 SUB SLT ISZERO PUSH2 0x2A36 JUMPI PUSH2 0x2A35 PUSH2 0x1FC9 JUMP JUMPDEST JUMPDEST PUSH0 PUSH2 0x2A43 DUP5 DUP3 DUP6 ADD PUSH2 0x2A0D JUMP JUMPDEST SWAP2 POP POP SWAP3 SWAP2 POP POP JUMP JUMPDEST PUSH0 DUP2 SWAP1 POP SWAP2 SWAP1 POP JUMP JUMPDEST PUSH2 0x2A66 PUSH2 0x2A61 DUP3 PUSH2 0x1FCD JUMP JUMPDEST PUSH2 0x2A4C JUMP JUMPDEST DUP3 MSTORE POP POP JUMP JUMPDEST PUSH0 PUSH2 0x2A77 DUP3 DUP6 PUSH2 0x2A55 JUMP JUMPDEST PUSH1 0x20 DUP3 ADD SWAP2 POP PUSH2 0x2A87 DUP3 DUP5 PUSH2 0x2A55 JUMP JUMPDEST PUSH1 0x20 DUP3 ADD SWAP2 POP DUP2 SWAP1 POP SWAP4 SWAP3 POP POP POP JUMP JUMPDEST PUSH0 PUSH1 0x40 DUP3 ADD SWAP1 POP PUSH2 0x2AAA PUSH0 DUP4 ADD DUP6 PUSH2 0x2094 JUMP JUMPDEST PUSH2 0x2AB7 PUSH1 0x20 DUP4 ADD DUP5 PUSH2 0x213C JUMP JUMPDEST SWAP4 SWAP3 POP POP POP JUMP JUMPDEST PUSH0 PUSH4 0xFFFFFFFF DUP3 AND SWAP1 POP SWAP2 SWAP1 POP JUMP JUMPDEST PUSH0 PUSH2 0x2AD7 DUP3 PUSH2 0x2ABE JUMP JUMPDEST SWAP2 POP PUSH2 0x2AE2 DUP4 PUSH2 0x2ABE JUMP JUMPDEST SWAP3 POP DUP3 DUP3 SUB SWAP1 POP PUSH4 0xFFFFFFFF DUP2 GT ISZERO PUSH2 0x2AFE JUMPI PUSH2 0x2AFD PUSH2 0x23F2 JUMP JUMPDEST JUMPDEST SWAP3 SWAP2 POP POP JUMP JUMPDEST PUSH0 DUP2 MLOAD SWAP1 POP SWAP2 SWAP1 POP JUMP JUMPDEST PUSH0 DUP2 SWAP1 POP SWAP3 SWAP2 POP POP JUMP JUMPDEST DUP3 DUP2 DUP4 MCOPY PUSH0 DUP4 DUP4 ADD MSTORE POP POP POP JUMP JUMPDEST PUSH0 PUSH2 0x2B30 DUP3 PUSH2 0x2B04 JUMP JUMPDEST PUSH2 0x2B3A DUP2 DUP6 PUSH2 0x2B0E JUMP JUMPDEST SWAP4 POP PUSH2 0x2B4A DUP2 DUP6 PUSH1 0x20 DUP7 ADD PUSH2 0x2B18 JUMP JUMPDEST DUP1 DUP5 ADD SWAP2 POP POP SWAP3 SWAP2 POP POP JUMP JUMPDEST PUSH0 PUSH2 0x2B61 DUP3 DUP5 PUSH2 0x2B26 JUMP JUMPDEST SWAP2 POP DUP2 SWAP1 POP SWAP3 SWAP2 POP POP JUMP INVALID LOG2 PUSH5 0x6970667358 0x22 SLT KECCAK256 STOP 0x2C PUSH16 0x146F3DD66D91586EBCB027FDF201E93B CHAINID 0xE5 0xE0 0x4C 0xB9 0x4C JUMPDEST PUSH26 0x4A58E3A6F164736F6C6343000819003300000000000000000000 "
				},
				"gasEstimates": {
					"creation": {
						"codeDepositCost": "2234000",
						"executionCost": "infinite",
						"totalCost": "infinite"
					},
					"external": {
						"buyTickets(uint256,address,uint256)": "infinite",
						"claimPrize(uint256)": "infinite",
						"createRedEnvelope(uint256,uint256,uint256,uint256)": "infinite",
						"currentId()": "2491",
						"defaultAutoClaim()": "2511",
						"defaultTicketPirce()": "2448",
						"drawPrize(uint256,uint256)": "infinite",
						"endRedEnvelope(uint256)": "infinite",
						"operatorAddress()": "2554",
						"owner()": "2538",
						"redEnvelopeStatus(uint256)": "2948",
						"renounceOwnership()": "infinite",
						"setDefaultAutoClaim(bool)": "infinite",
						"setDefaultTicketPirce(uint256)": "infinite",
						"setOperatorAddress(address)": "infinite",
						"ticketToken()": "infinite",
						"transferOwnership(address)": "infinite"
					},
					"internal": {
						"_calculatePrize(uint256,uint256[] memory)": "infinite",
						"_claimPrize(uint256,address)": "infinite",
						"_deriveRandom(uint256,uint256)": "infinite",
						"_getSortRandoms(uint256,uint256,uint256)": "infinite",
						"_leftRotate(uint256,uint32)": "infinite"
					}
				},
				"methodIdentifiers": {
					"buyTickets(uint256,address,uint256)": "c5e7bb33",
					"claimPrize(uint256)": "d7098154",
					"createRedEnvelope(uint256,uint256,uint256,uint256)": "0e9e1262",
					"currentId()": "e00dd161",
					"defaultAutoClaim()": "a210d5e0",
					"defaultTicketPirce()": "4bfec3aa",
					"drawPrize(uint256,uint256)": "bce3468d",
					"endRedEnvelope(uint256)": "3834efe1",
					"operatorAddress()": "127effb2",
					"owner()": "8da5cb5b",
					"redEnvelopeStatus(uint256)": "4f2fccb0",
					"renounceOwnership()": "715018a6",
					"setDefaultAutoClaim(bool)": "f41188ed",
					"setDefaultTicketPirce(uint256)": "5bacbab9",
					"setOperatorAddress(address)": "2f1d5a60",
					"ticketToken()": "d5ed4d5a",
					"transferOwnership(address)": "f2fde38b"
				}
			},
			"storageLayout": {
				"storage": [
					{
						"astId": 845,
						"contract": "contracts/LuckyRedEnvelope.sol:LuckyRedEnvelope",
						"label": "_status",
						"offset": 0,
						"slot": "0",
						"type": "t_uint256"
					},
					{
						"astId": 8,
						"contract": "contracts/LuckyRedEnvelope.sol:LuckyRedEnvelope",
						"label": "_owner",
						"offset": 0,
						"slot": "1",
						"type": "t_address"
					},
					{
						"astId": 920,
						"contract": "contracts/LuckyRedEnvelope.sol:LuckyRedEnvelope",
						"label": "ticketToken",
						"offset": 0,
						"slot": "2",
						"type": "t_contract(IERC20)225"
					},
					{
						"astId": 922,
						"contract": "contracts/LuckyRedEnvelope.sol:LuckyRedEnvelope",
						"label": "operatorAddress",
						"offset": 0,
						"slot": "3",
						"type": "t_address"
					},
					{
						"astId": 924,
						"contract": "contracts/LuckyRedEnvelope.sol:LuckyRedEnvelope",
						"label": "currentId",
						"offset": 0,
						"slot": "4",
						"type": "t_uint256"
					},
					{
						"astId": 926,
						"contract": "contracts/LuckyRedEnvelope.sol:LuckyRedEnvelope",
						"label": "defaultAutoClaim",
						"offset": 0,
						"slot": "5",
						"type": "t_bool"
					},
					{
						"astId": 928,
						"contract": "contracts/LuckyRedEnvelope.sol:LuckyRedEnvelope",
						"label": "defaultTicketPirce",
						"offset": 0,
						"slot": "6",
						"type": "t_uint256"
					},
					{
						"astId": 963,
						"contract": "contracts/LuckyRedEnvelope.sol:LuckyRedEnvelope",
						"label": "_redEnvelopes",
						"offset": 0,
						"slot": "7",
						"type": "t_mapping(t_uint256,t_struct(RedEnvelope)953_storage)"
					},
					{
						"astId": 970,
						"contract": "contracts/LuckyRedEnvelope.sol:LuckyRedEnvelope",
						"label": "_tickets",
						"offset": 0,
						"slot": "8",
						"type": "t_mapping(t_uint256,t_mapping(t_uint256,t_struct(Ticket)958_storage))"
					},
					{
						"astId": 976,
						"contract": "contracts/LuckyRedEnvelope.sol:LuckyRedEnvelope",
						"label": "_userAddrTicketNum",
						"offset": 0,
						"slot": "9",
						"type": "t_mapping(t_uint256,t_mapping(t_address,t_uint256))"
					},
					{
						"astId": 982,
						"contract": "contracts/LuckyRedEnvelope.sol:LuckyRedEnvelope",
						"label": "_userAddrIndex",
						"offset": 0,
						"slot": "10",
						"type": "t_mapping(t_uint256,t_mapping(t_uint256,t_address))"
					},
					{
						"astId": 988,
						"contract": "contracts/LuckyRedEnvelope.sol:LuckyRedEnvelope",
						"label": "_amount2claimed",
						"offset": 0,
						"slot": "11",
						"type": "t_mapping(t_uint256,t_mapping(t_address,t_uint256))"
					}
				],
				"types": {
					"t_address": {
						"encoding": "inplace",
						"label": "address",
						"numberOfBytes": "20"
					},
					"t_bool": {
						"encoding": "inplace",
						"label": "bool",
						"numberOfBytes": "1"
					},
					"t_contract(IERC20)225": {
						"encoding": "inplace",
						"label": "contract IERC20",
						"numberOfBytes": "20"
					},
					"t_enum(Status)933": {
						"encoding": "inplace",
						"label": "enum LuckyRedEnvelope.Status",
						"numberOfBytes": "1"
					},
					"t_mapping(t_address,t_uint256)": {
						"encoding": "mapping",
						"key": "t_address",
						"label": "mapping(address => uint256)",
						"numberOfBytes": "32",
						"value": "t_uint256"
					},
					"t_mapping(t_uint256,t_address)": {
						"encoding": "mapping",
						"key": "t_uint256",
						"label": "mapping(uint256 => address)",
						"numberOfBytes": "32",
						"value": "t_address"
					},
					"t_mapping(t_uint256,t_mapping(t_address,t_uint256))": {
						"encoding": "mapping",
						"key": "t_uint256",
						"label": "mapping(uint256 => mapping(address => uint256))",
						"numberOfBytes": "32",
						"value": "t_mapping(t_address,t_uint256)"
					},
					"t_mapping(t_uint256,t_mapping(t_uint256,t_address))": {
						"encoding": "mapping",
						"key": "t_uint256",
						"label": "mapping(uint256 => mapping(uint256 => address))",
						"numberOfBytes": "32",
						"value": "t_mapping(t_uint256,t_address)"
					},
					"t_mapping(t_uint256,t_mapping(t_uint256,t_struct(Ticket)958_storage))": {
						"encoding": "mapping",
						"key": "t_uint256",
						"label": "mapping(uint256 => mapping(uint256 => struct LuckyRedEnvelope.Ticket))",
						"numberOfBytes": "32",
						"value": "t_mapping(t_uint256,t_struct(Ticket)958_storage)"
					},
					"t_mapping(t_uint256,t_struct(RedEnvelope)953_storage)": {
						"encoding": "mapping",
						"key": "t_uint256",
						"label": "mapping(uint256 => struct LuckyRedEnvelope.RedEnvelope)",
						"numberOfBytes": "32",
						"value": "t_struct(RedEnvelope)953_storage"
					},
					"t_mapping(t_uint256,t_struct(Ticket)958_storage)": {
						"encoding": "mapping",
						"key": "t_uint256",
						"label": "mapping(uint256 => struct LuckyRedEnvelope.Ticket)",
						"numberOfBytes": "32",
						"value": "t_struct(Ticket)958_storage"
					},
					"t_struct(RedEnvelope)953_storage": {
						"encoding": "inplace",
						"label": "struct LuckyRedEnvelope.RedEnvelope",
						"members": [
							{
								"astId": 936,
								"contract": "contracts/LuckyRedEnvelope.sol:LuckyRedEnvelope",
								"label": "status",
								"offset": 0,
								"slot": "0",
								"type": "t_enum(Status)933"
							},
							{
								"astId": 938,
								"contract": "contracts/LuckyRedEnvelope.sol:LuckyRedEnvelope",
								"label": "startTime",
								"offset": 0,
								"slot": "1",
								"type": "t_uint256"
							},
							{
								"astId": 940,
								"contract": "contracts/LuckyRedEnvelope.sol:LuckyRedEnvelope",
								"label": "endTime",
								"offset": 0,
								"slot": "2",
								"type": "t_uint256"
							},
							{
								"astId": 942,
								"contract": "contracts/LuckyRedEnvelope.sol:LuckyRedEnvelope",
								"label": "maxTickets",
								"offset": 0,
								"slot": "3",
								"type": "t_uint256"
							},
							{
								"astId": 944,
								"contract": "contracts/LuckyRedEnvelope.sol:LuckyRedEnvelope",
								"label": "userTickets",
								"offset": 0,
								"slot": "4",
								"type": "t_uint256"
							},
							{
								"astId": 946,
								"contract": "contracts/LuckyRedEnvelope.sol:LuckyRedEnvelope",
								"label": "injectTickets",
								"offset": 0,
								"slot": "5",
								"type": "t_uint256"
							},
							{
								"astId": 948,
								"contract": "contracts/LuckyRedEnvelope.sol:LuckyRedEnvelope",
								"label": "userAddrNum",
								"offset": 0,
								"slot": "6",
								"type": "t_uint256"
							},
							{
								"astId": 950,
								"contract": "contracts/LuckyRedEnvelope.sol:LuckyRedEnvelope",
								"label": "ticketPirce",
								"offset": 0,
								"slot": "7",
								"type": "t_uint256"
							},
							{
								"astId": 952,
								"contract": "contracts/LuckyRedEnvelope.sol:LuckyRedEnvelope",
								"label": "autoClaim",
								"offset": 0,
								"slot": "8",
								"type": "t_bool"
							}
						],
						"numberOfBytes": "288"
					},
					"t_struct(Ticket)958_storage": {
						"encoding": "inplace",
						"label": "struct LuckyRedEnvelope.Ticket",
						"members": [
							{
								"astId": 955,
								"contract": "contracts/LuckyRedEnvelope.sol:LuckyRedEnvelope",
								"label": "ticketNumbers",
								"offset": 0,
								"slot": "0",
								"type": "t_uint256"
							},
							{
								"astId": 957,
								"contract": "contracts/LuckyRedEnvelope.sol:LuckyRedEnvelope",
								"label": "receiveAddress",
								"offset": 0,
								"slot": "1",
								"type": "t_address"
							}
						],
						"numberOfBytes": "64"
					},
					"t_uint256": {
						"encoding": "inplace",
						"label": "uint256",
						"numberOfBytes": "32"
					}
				}
			},
			"userdoc": {
				"kind": "user",
				"methods": {
					"createRedEnvelope(uint256,uint256,uint256,uint256)": {
						"notice": "create the RedEnvelope"
					}
				},
				"version": 1
			}
		}
	}
}