{
	"contracts/taskControl/TaskControlWithToken.sol": {
		"TaskControlWithToken": {
			"abi": [
				{
					"inputs": [
						{
							"internalType": "address",
							"name": "_redEnvelopeAddr",
							"type": "address"
						},
						{
							"internalType": "bool",
							"name": "_allowBuyTicket",
							"type": "bool"
						},
						{
							"internalType": "bool",
							"name": "_allowSendTicket",
							"type": "bool"
						}
					],
					"stateMutability": "nonpayable",
					"type": "constructor"
				},
				{
					"inputs": [
						{
							"internalType": "address",
							"name": "spender",
							"type": "address"
						},
						{
							"internalType": "uint256",
							"name": "allowance",
							"type": "uint256"
						},
						{
							"internalType": "uint256",
							"name": "needed",
							"type": "uint256"
						}
					],
					"name": "ERC20InsufficientAllowance",
					"type": "error"
				},
				{
					"inputs": [
						{
							"internalType": "address",
							"name": "sender",
							"type": "address"
						},
						{
							"internalType": "uint256",
							"name": "balance",
							"type": "uint256"
						},
						{
							"internalType": "uint256",
							"name": "needed",
							"type": "uint256"
						}
					],
					"name": "ERC20InsufficientBalance",
					"type": "error"
				},
				{
					"inputs": [
						{
							"internalType": "address",
							"name": "approver",
							"type": "address"
						}
					],
					"name": "ERC20InvalidApprover",
					"type": "error"
				},
				{
					"inputs": [
						{
							"internalType": "address",
							"name": "receiver",
							"type": "address"
						}
					],
					"name": "ERC20InvalidReceiver",
					"type": "error"
				},
				{
					"inputs": [
						{
							"internalType": "address",
							"name": "sender",
							"type": "address"
						}
					],
					"name": "ERC20InvalidSender",
					"type": "error"
				},
				{
					"inputs": [
						{
							"internalType": "address",
							"name": "spender",
							"type": "address"
						}
					],
					"name": "ERC20InvalidSpender",
					"type": "error"
				},
				{
					"inputs": [
						{
							"internalType": "address",
							"name": "owner",
							"type": "address"
						}
					],
					"name": "OwnableInvalidOwner",
					"type": "error"
				},
				{
					"inputs": [
						{
							"internalType": "address",
							"name": "account",
							"type": "address"
						}
					],
					"name": "OwnableUnauthorizedAccount",
					"type": "error"
				},
				{
					"inputs": [],
					"name": "ReentrancyGuardReentrantCall",
					"type": "error"
				},
				{
					"anonymous": false,
					"inputs": [
						{
							"indexed": true,
							"internalType": "address",
							"name": "owner",
							"type": "address"
						},
						{
							"indexed": true,
							"internalType": "address",
							"name": "spender",
							"type": "address"
						},
						{
							"indexed": false,
							"internalType": "uint256",
							"name": "value",
							"type": "uint256"
						}
					],
					"name": "Approval",
					"type": "event"
				},
				{
					"anonymous": false,
					"inputs": [
						{
							"indexed": true,
							"internalType": "address",
							"name": "previousOwner",
							"type": "address"
						},
						{
							"indexed": true,
							"internalType": "address",
							"name": "newOwner",
							"type": "address"
						}
					],
					"name": "OwnershipTransferred",
					"type": "event"
				},
				{
					"anonymous": false,
					"inputs": [
						{
							"indexed": false,
							"internalType": "address",
							"name": "taskAddr",
							"type": "address"
						},
						{
							"indexed": false,
							"internalType": "uint256",
							"name": "weight",
							"type": "uint256"
						}
					],
					"name": "TaskAdd",
					"type": "event"
				},
				{
					"anonymous": false,
					"inputs": [
						{
							"indexed": false,
							"internalType": "uint256",
							"name": "id",
							"type": "uint256"
						},
						{
							"indexed": false,
							"internalType": "address",
							"name": "fromAddress",
							"type": "address"
						},
						{
							"indexed": false,
							"internalType": "address",
							"name": "receiveAddress",
							"type": "address"
						},
						{
							"indexed": false,
							"internalType": "uint256",
							"name": "amount",
							"type": "uint256"
						},
						{
							"indexed": false,
							"internalType": "uint256",
							"name": "ticketNumbers",
							"type": "uint256"
						},
						{
							"indexed": false,
							"internalType": "bool",
							"name": "buy",
							"type": "bool"
						}
					],
					"name": "TicketGet",
					"type": "event"
				},
				{
					"anonymous": false,
					"inputs": [
						{
							"indexed": false,
							"internalType": "address",
							"name": "sender",
							"type": "address"
						},
						{
							"indexed": false,
							"internalType": "address",
							"name": "taskAddr",
							"type": "address"
						},
						{
							"indexed": false,
							"internalType": "address",
							"name": "receiveAddress",
							"type": "address"
						},
						{
							"indexed": false,
							"internalType": "uint256",
							"name": "amount",
							"type": "uint256"
						}
					],
					"name": "TokenMint",
					"type": "event"
				},
				{
					"anonymous": false,
					"inputs": [
						{
							"indexed": true,
							"internalType": "address",
							"name": "from",
							"type": "address"
						},
						{
							"indexed": true,
							"internalType": "address",
							"name": "to",
							"type": "address"
						},
						{
							"indexed": false,
							"internalType": "uint256",
							"name": "value",
							"type": "uint256"
						}
					],
					"name": "Transfer",
					"type": "event"
				},
				{
					"inputs": [
						{
							"internalType": "address",
							"name": "",
							"type": "address"
						}
					],
					"name": "_tasks",
					"outputs": [
						{
							"internalType": "uint256",
							"name": "",
							"type": "uint256"
						}
					],
					"stateMutability": "view",
					"type": "function"
				},
				{
					"inputs": [],
					"name": "allowBuyTicket",
					"outputs": [
						{
							"internalType": "bool",
							"name": "",
							"type": "bool"
						}
					],
					"stateMutability": "view",
					"type": "function"
				},
				{
					"inputs": [],
					"name": "allowSendTicket",
					"outputs": [
						{
							"internalType": "bool",
							"name": "",
							"type": "bool"
						}
					],
					"stateMutability": "view",
					"type": "function"
				},
				{
					"inputs": [
						{
							"internalType": "address",
							"name": "owner",
							"type": "address"
						},
						{
							"internalType": "address",
							"name": "spender",
							"type": "address"
						}
					],
					"name": "allowance",
					"outputs": [
						{
							"internalType": "uint256",
							"name": "",
							"type": "uint256"
						}
					],
					"stateMutability": "view",
					"type": "function"
				},
				{
					"inputs": [
						{
							"internalType": "address",
							"name": "spender",
							"type": "address"
						},
						{
							"internalType": "uint256",
							"name": "value",
							"type": "uint256"
						}
					],
					"name": "approve",
					"outputs": [
						{
							"internalType": "bool",
							"name": "",
							"type": "bool"
						}
					],
					"stateMutability": "nonpayable",
					"type": "function"
				},
				{
					"inputs": [
						{
							"internalType": "address",
							"name": "account",
							"type": "address"
						}
					],
					"name": "balanceOf",
					"outputs": [
						{
							"internalType": "uint256",
							"name": "",
							"type": "uint256"
						}
					],
					"stateMutability": "view",
					"type": "function"
				},
				{
					"inputs": [
						{
							"internalType": "uint256",
							"name": "value",
							"type": "uint256"
						}
					],
					"name": "burn",
					"outputs": [],
					"stateMutability": "nonpayable",
					"type": "function"
				},
				{
					"inputs": [
						{
							"internalType": "address",
							"name": "account",
							"type": "address"
						},
						{
							"internalType": "uint256",
							"name": "value",
							"type": "uint256"
						}
					],
					"name": "burnFrom",
					"outputs": [],
					"stateMutability": "nonpayable",
					"type": "function"
				},
				{
					"inputs": [],
					"name": "decimals",
					"outputs": [
						{
							"internalType": "uint8",
							"name": "",
							"type": "uint8"
						}
					],
					"stateMutability": "view",
					"type": "function"
				},
				{
					"inputs": [
						{
							"internalType": "address",
							"name": "_taskAddr",
							"type": "address"
						}
					],
					"name": "getTask",
					"outputs": [
						{
							"internalType": "uint256",
							"name": "",
							"type": "uint256"
						}
					],
					"stateMutability": "view",
					"type": "function"
				},
				{
					"inputs": [
						{
							"internalType": "uint256",
							"name": "_id",
							"type": "uint256"
						},
						{
							"internalType": "address",
							"name": "_receiveAddress",
							"type": "address"
						},
						{
							"internalType": "uint256",
							"name": "_ticketNumbers",
							"type": "uint256"
						}
					],
					"name": "getTicket",
					"outputs": [],
					"stateMutability": "nonpayable",
					"type": "function"
				},
				{
					"inputs": [
						{
							"internalType": "uint256",
							"name": "_id",
							"type": "uint256"
						},
						{
							"internalType": "address",
							"name": "_fromAddress",
							"type": "address"
						},
						{
							"internalType": "address",
							"name": "_receiveAddress",
							"type": "address"
						},
						{
							"internalType": "uint256",
							"name": "_ticketNumbers",
							"type": "uint256"
						}
					],
					"name": "getTicketFrom",
					"outputs": [],
					"stateMutability": "nonpayable",
					"type": "function"
				},
				{
					"inputs": [
						{
							"internalType": "address",
							"name": "_taskAddr",
							"type": "address"
						},
						{
							"internalType": "address",
							"name": "_receiveAddress",
							"type": "address"
						},
						{
							"internalType": "bytes",
							"name": "_data",
							"type": "bytes"
						}
					],
					"name": "mintToken",
					"outputs": [],
					"stateMutability": "nonpayable",
					"type": "function"
				},
				{
					"inputs": [],
					"name": "name",
					"outputs": [
						{
							"internalType": "string",
							"name": "",
							"type": "string"
						}
					],
					"stateMutability": "view",
					"type": "function"
				},
				{
					"inputs": [],
					"name": "owner",
					"outputs": [
						{
							"internalType": "address",
							"name": "",
							"type": "address"
						}
					],
					"stateMutability": "view",
					"type": "function"
				},
				{
					"inputs": [],
					"name": "redEnvelopeAddr",
					"outputs": [
						{
							"internalType": "address",
							"name": "",
							"type": "address"
						}
					],
					"stateMutability": "view",
					"type": "function"
				},
				{
					"inputs": [],
					"name": "renounceOwnership",
					"outputs": [],
					"stateMutability": "nonpayable",
					"type": "function"
				},
				{
					"inputs": [
						{
							"internalType": "address",
							"name": "_taskAddr",
							"type": "address"
						},
						{
							"internalType": "uint256",
							"name": "_weight",
							"type": "uint256"
						}
					],
					"name": "setTask",
					"outputs": [],
					"stateMutability": "nonpayable",
					"type": "function"
				},
				{
					"inputs": [],
					"name": "symbol",
					"outputs": [
						{
							"internalType": "string",
							"name": "",
							"type": "string"
						}
					],
					"stateMutability": "view",
					"type": "function"
				},
				{
					"inputs": [],
					"name": "totalSupply",
					"outputs": [
						{
							"internalType": "uint256",
							"name": "",
							"type": "uint256"
						}
					],
					"stateMutability": "view",
					"type": "function"
				},
				{
					"inputs": [
						{
							"internalType": "address",
							"name": "to",
							"type": "address"
						},
						{
							"internalType": "uint256",
							"name": "value",
							"type": "uint256"
						}
					],
					"name": "transfer",
					"outputs": [
						{
							"internalType": "bool",
							"name": "",
							"type": "bool"
						}
					],
					"stateMutability": "nonpayable",
					"type": "function"
				},
				{
					"inputs": [
						{
							"internalType": "address",
							"name": "from",
							"type": "address"
						},
						{
							"internalType": "address",
							"name": "to",
							"type": "address"
						},
						{
							"internalType": "uint256",
							"name": "value",
							"type": "uint256"
						}
					],
					"name": "transferFrom",
					"outputs": [
						{
							"internalType": "bool",
							"name": "",
							"type": "bool"
						}
					],
					"stateMutability": "nonpayable",
					"type": "function"
				},
				{
					"inputs": [
						{
							"internalType": "address",
							"name": "newOwner",
							"type": "address"
						}
					],
					"name": "transferOwnership",
					"outputs": [],
					"stateMutability": "nonpayable",
					"type": "function"
				},
				{
					"inputs": [
						{
							"internalType": "address",
							"name": "_token",
							"type": "address"
						},
						{
							"internalType": "address",
							"name": "_to",
							"type": "address"
						},
						{
							"internalType": "uint256",
							"name": "_value",
							"type": "uint256"
						}
					],
					"name": "withdraw",
					"outputs": [],
					"stateMutability": "nonpayable",
					"type": "function"
				}
			],
			"devdoc": {
				"errors": {
					"ERC20InsufficientAllowance(address,uint256,uint256)": [
						{
							"details": "Indicates a failure with the `spender`’s `allowance`. Used in transfers.",
							"params": {
								"allowance": "Amount of tokens a `spender` is allowed to operate with.",
								"needed": "Minimum amount required to perform a transfer.",
								"spender": "Address that may be allowed to operate on tokens without being their owner."
							}
						}
					],
					"ERC20InsufficientBalance(address,uint256,uint256)": [
						{
							"details": "Indicates an error related to the current `balance` of a `sender`. Used in transfers.",
							"params": {
								"balance": "Current balance for the interacting account.",
								"needed": "Minimum amount required to perform a transfer.",
								"sender": "Address whose tokens are being transferred."
							}
						}
					],
					"ERC20InvalidApprover(address)": [
						{
							"details": "Indicates a failure with the `approver` of a token to be approved. Used in approvals.",
							"params": {
								"approver": "Address initiating an approval operation."
							}
						}
					],
					"ERC20InvalidReceiver(address)": [
						{
							"details": "Indicates a failure with the token `receiver`. Used in transfers.",
							"params": {
								"receiver": "Address to which tokens are being transferred."
							}
						}
					],
					"ERC20InvalidSender(address)": [
						{
							"details": "Indicates a failure with the token `sender`. Used in transfers.",
							"params": {
								"sender": "Address whose tokens are being transferred."
							}
						}
					],
					"ERC20InvalidSpender(address)": [
						{
							"details": "Indicates a failure with the `spender` to be approved. Used in approvals.",
							"params": {
								"spender": "Address that may be allowed to operate on tokens without being their owner."
							}
						}
					],
					"OwnableInvalidOwner(address)": [
						{
							"details": "The owner is not a valid owner account. (eg. `address(0)`)"
						}
					],
					"OwnableUnauthorizedAccount(address)": [
						{
							"details": "The caller account is not authorized to perform an operation."
						}
					],
					"ReentrancyGuardReentrantCall()": [
						{
							"details": "Unauthorized reentrant call."
						}
					]
				},
				"events": {
					"Approval(address,address,uint256)": {
						"details": "Emitted when the allowance of a `spender` for an `owner` is set by a call to {approve}. `value` is the new allowance."
					},
					"Transfer(address,address,uint256)": {
						"details": "Emitted when `value` tokens are moved from one account (`from`) to another (`to`). Note that `value` may be zero."
					}
				},
				"kind": "dev",
				"methods": {
					"allowance(address,address)": {
						"details": "See {IERC20-allowance}."
					},
					"approve(address,uint256)": {
						"details": "See {IERC20-approve}. NOTE: If `value` is the maximum `uint256`, the allowance is not updated on `transferFrom`. This is semantically equivalent to an infinite approval. Requirements: - `spender` cannot be the zero address."
					},
					"balanceOf(address)": {
						"details": "See {IERC20-balanceOf}."
					},
					"burn(uint256)": {
						"details": "Destroys a `value` amount of tokens from the caller. See {ERC20-_burn}."
					},
					"burnFrom(address,uint256)": {
						"details": "Destroys a `value` amount of tokens from `account`, deducting from the caller's allowance. See {ERC20-_burn} and {ERC20-allowance}. Requirements: - the caller must have allowance for ``accounts``'s tokens of at least `value`."
					},
					"decimals()": {
						"details": "Returns the number of decimals used to get its user representation. For example, if `decimals` equals `2`, a balance of `505` tokens should be displayed to a user as `5.05` (`505 / 10 ** 2`). Tokens usually opt for a value of 18, imitating the relationship between Ether and Wei. This is the default value returned by this function, unless it's overridden. NOTE: This information is only used for _display_ purposes: it in no way affects any of the arithmetic of the contract, including {IERC20-balanceOf} and {IERC20-transfer}."
					},
					"name()": {
						"details": "Returns the name of the token."
					},
					"owner()": {
						"details": "Returns the address of the current owner."
					},
					"renounceOwnership()": {
						"details": "Leaves the contract without owner. It will not be possible to call `onlyOwner` functions. Can only be called by the current owner. NOTE: Renouncing ownership will leave the contract without an owner, thereby disabling any functionality that is only available to the owner."
					},
					"symbol()": {
						"details": "Returns the symbol of the token, usually a shorter version of the name."
					},
					"totalSupply()": {
						"details": "See {IERC20-totalSupply}."
					},
					"transfer(address,uint256)": {
						"details": "See {IERC20-transfer}. Requirements: - `to` cannot be the zero address. - the caller must have a balance of at least `value`."
					},
					"transferFrom(address,address,uint256)": {
						"details": "See {IERC20-transferFrom}. Emits an {Approval} event indicating the updated allowance. This is not required by the EIP. See the note at the beginning of {ERC20}. NOTE: Does not update the allowance if the current allowance is the maximum `uint256`. Requirements: - `from` and `to` cannot be the zero address. - `from` must have a balance of at least `value`. - the caller must have allowance for ``from``'s tokens of at least `value`."
					},
					"transferOwnership(address)": {
						"details": "Transfers ownership of the contract to a new account (`newOwner`). Can only be called by the current owner."
					}
				},
				"version": 1
			},
			"evm": {
				"assembly": "    /* \"contracts/taskControl/TaskControlWithToken.sol\":597:4310  contract TaskControlWithToken is ITaskControlWithToken,ERC20,ReentrancyGuard, ERC20Burnable, Ownable {... */\n  mstore(0x40, 0x80)\n    /* \"contracts/taskControl/TaskControlWithToken.sol\":995:1395  constructor(address _redEnvelopeAddr,bool _allowBuyTicket,bool _allowSendTicket)... */\n  callvalue\n  dup1\n  iszero\n  tag_1\n  jumpi\n  0x00\n  dup1\n  revert\ntag_1:\n  pop\n  mload(0x40)\n  sub(codesize, bytecodeSize)\n  dup1\n  bytecodeSize\n  dup4\n  codecopy\n  dup2\n  add\n  0x40\n  dup2\n  swap1\n  mstore\n  tag_2\n  swap2\n  tag_3\n  jump\t// in\ntag_2:\n    /* \"contracts/taskControl/TaskControlWithToken.sol\":1149:1159  msg.sender */\n  caller\n    /* \"@openzeppelin/contracts/token/ERC20/ERC20.sol\":1896:2009  constructor(string memory name_, string memory symbol_) {... */\n  mload(0x40)\n  dup1\n  0x40\n  add\n  0x40\n  mstore\n  dup1\n  0x0d\n  dup2\n  mstore\n  0x20\n  add\n  shl(0x9a, 0x1b1bdd1d195c9e551a58dad95d)\n  dup2\n  mstore\n  pop\n  mload(0x40)\n  dup1\n  0x40\n  add\n  0x40\n  mstore\n  dup1\n  0x06\n  dup2\n  mstore\n  0x20\n  add\n  shl(0xd2, 0x151a58dad95d)\n  dup2\n  mstore\n  pop\n    /* \"@openzeppelin/contracts/token/ERC20/ERC20.sol\":1970:1975  name_ */\n  dup2\n    /* \"@openzeppelin/contracts/token/ERC20/ERC20.sol\":1962:1967  _name */\n  0x03\n    /* \"@openzeppelin/contracts/token/ERC20/ERC20.sol\":1962:1975  _name = name_ */\n  swap1\n  dup2\n  tag_9\n  swap2\n  swap1\n  tag_10\n  jump\t// in\ntag_9:\n  pop\n    /* \"@openzeppelin/contracts/token/ERC20/ERC20.sol\":1985:1992  _symbol */\n  0x04\n    /* \"@openzeppelin/contracts/token/ERC20/ERC20.sol\":1985:2002  _symbol = symbol_ */\n  tag_11\n    /* \"@openzeppelin/contracts/token/ERC20/ERC20.sol\":1995:2002  symbol_ */\n  dup3\n    /* \"@openzeppelin/contracts/token/ERC20/ERC20.sol\":1985:1992  _symbol */\n  dup3\n    /* \"@openzeppelin/contracts/token/ERC20/ERC20.sol\":1985:2002  _symbol = symbol_ */\n  tag_10\n  jump\t// in\ntag_11:\n  pop\n  pop\n    /* \"@openzeppelin/contracts/utils/ReentrancyGuard.sol\":1713:1714  1 */\n  0x01\n    /* \"@openzeppelin/contracts/utils/ReentrancyGuard.sol\":1917:1924  _status */\n  0x05\n    /* \"@openzeppelin/contracts/utils/ReentrancyGuard.sol\":1917:1938  _status = NOT_ENTERED */\n  sstore\n  pop\n  sub(shl(0xa0, 0x01), 0x01)\n    /* \"@openzeppelin/contracts/access/Ownable.sol\":1273:1299  initialOwner == address(0) */\n  dup2\n  and\n    /* \"@openzeppelin/contracts/access/Ownable.sol\":1269:1364  if (initialOwner == address(0)) {... */\n  tag_14\n  jumpi\n    /* \"@openzeppelin/contracts/access/Ownable.sol\":1322:1353  OwnableInvalidOwner(address(0)) */\n  mload(0x40)\n  shl(0xe0, 0x1e4fbdf7)\n  dup2\n  mstore\n    /* \"@openzeppelin/contracts/access/Ownable.sol\":1350:1351  0 */\n  0x00\n    /* \"@openzeppelin/contracts/access/Ownable.sol\":1322:1353  OwnableInvalidOwner(address(0)) */\n  0x04\n  dup3\n  add\n    /* \"#utility.yul\":3469:3520   */\n  mstore\n    /* \"#utility.yul\":3442:3460   */\n  0x24\n  add\n    /* \"@openzeppelin/contracts/access/Ownable.sol\":1322:1353  OwnableInvalidOwner(address(0)) */\n  mload(0x40)\n  dup1\n  swap2\n  sub\n  swap1\n  revert\n    /* \"@openzeppelin/contracts/access/Ownable.sol\":1269:1364  if (initialOwner == address(0)) {... */\ntag_14:\n    /* \"@openzeppelin/contracts/access/Ownable.sol\":1373:1405  _transferOwnership(initialOwner) */\n  tag_17\n    /* \"@openzeppelin/contracts/access/Ownable.sol\":1392:1404  initialOwner */\n  dup2\n    /* \"@openzeppelin/contracts/access/Ownable.sol\":1373:1391  _transferOwnership */\n  tag_18\n    /* \"@openzeppelin/contracts/access/Ownable.sol\":1373:1405  _transferOwnership(initialOwner) */\n  jump\t// in\ntag_17:\n  pop\n    /* \"contracts/taskControl/TaskControlWithToken.sol\":1243:1258  redEnvelopeAddr */\n  0x07\n    /* \"contracts/taskControl/TaskControlWithToken.sol\":1243:1277  redEnvelopeAddr = _redEnvelopeAddr */\n  dup1\n  sload\n    /* \"contracts/taskControl/TaskControlWithToken.sol\":1337:1371  allowSendTicket = _allowSendTicket */\n  swap2\n  iszero\n  iszero\n  shl(0xa8, 0x01)\n  mul\n  not(shl(0xa8, 0xff))\n    /* \"contracts/taskControl/TaskControlWithToken.sol\":1291:1323  allowBuyTicket = _allowBuyTicket */\n  swap4\n  iszero\n  iszero\n  shl(0xa0, 0x01)\n  mul\n  not(sub(shl(0xa8, 0x01), 0x01))\n  swap1\n  swap4\n  and\n  sub(shl(0xa0, 0x01), 0x01)\n    /* \"contracts/taskControl/TaskControlWithToken.sol\":1243:1277  redEnvelopeAddr = _redEnvelopeAddr */\n  swap1\n  swap6\n  and\n    /* \"contracts/taskControl/TaskControlWithToken.sol\":1291:1323  allowBuyTicket = _allowBuyTicket */\n  swap5\n  swap1\n  swap5\n  or\n  swap2\n  swap1\n  swap2\n  or\n    /* \"contracts/taskControl/TaskControlWithToken.sol\":1337:1371  allowSendTicket = _allowSendTicket */\n  swap2\n  swap1\n  swap2\n  and\n  swap2\n  swap1\n  swap2\n  or\n  swap1\n  sstore\n    /* \"contracts/taskControl/TaskControlWithToken.sol\":597:4310  contract TaskControlWithToken is ITaskControlWithToken,ERC20,ReentrancyGuard, ERC20Burnable, Ownable {... */\n  jump(tag_28)\n    /* \"@openzeppelin/contracts/access/Ownable.sol\":2912:3099  function _transferOwnership(address newOwner) internal virtual {... */\ntag_18:\n    /* \"@openzeppelin/contracts/access/Ownable.sol\":3004:3010  _owner */\n  0x06\n  dup1\n  sload\n  sub(shl(0xa0, 0x01), 0x01)\n    /* \"@openzeppelin/contracts/access/Ownable.sol\":3020:3037  _owner = newOwner */\n  dup4\n  dup2\n  and\n  not(sub(shl(0xa0, 0x01), 0x01))\n  dup4\n  and\n  dup2\n  or\n  swap1\n  swap4\n  sstore\n    /* \"@openzeppelin/contracts/access/Ownable.sol\":3052:3092  OwnershipTransferred(oldOwner, newOwner) */\n  mload(0x40)\n    /* \"@openzeppelin/contracts/access/Ownable.sol\":3004:3010  _owner */\n  swap2\n  and\n  swap2\n    /* \"@openzeppelin/contracts/access/Ownable.sol\":3020:3037  _owner = newOwner */\n  swap1\n    /* \"@openzeppelin/contracts/access/Ownable.sol\":3004:3010  _owner */\n  dup3\n  swap1\n    /* \"@openzeppelin/contracts/access/Ownable.sol\":3052:3092  OwnershipTransferred(oldOwner, newOwner) */\n  0x8be0079c531659141344cd1fd0a4f28419497f9722a3daafe3b4186f6b6457e0\n  swap1\n    /* \"@openzeppelin/contracts/access/Ownable.sol\":2985:3001  address oldOwner */\n  0x00\n  swap1\n    /* \"@openzeppelin/contracts/access/Ownable.sol\":3052:3092  OwnershipTransferred(oldOwner, newOwner) */\n  log3\n    /* \"@openzeppelin/contracts/access/Ownable.sol\":2975:3099  {... */\n  pop\n    /* \"@openzeppelin/contracts/access/Ownable.sol\":2912:3099  function _transferOwnership(address newOwner) internal virtual {... */\n  pop\n  jump\t// out\n    /* \"#utility.yul\":14:178   */\ntag_22:\n    /* \"#utility.yul\":90:103   */\n  dup1\n  mload\n    /* \"#utility.yul\":139:152   */\n  dup1\n  iszero\n    /* \"#utility.yul\":132:153   */\n  iszero\n    /* \"#utility.yul\":122:154   */\n  dup2\n  eq\n    /* \"#utility.yul\":112:172   */\n  tag_30\n  jumpi\n    /* \"#utility.yul\":168:169   */\n  0x00\n    /* \"#utility.yul\":165:166   */\n  dup1\n    /* \"#utility.yul\":158:170   */\n  revert\n    /* \"#utility.yul\":112:172   */\ntag_30:\n    /* \"#utility.yul\":14:178   */\n  swap2\n  swap1\n  pop\n  jump\t// out\n    /* \"#utility.yul\":183:631   */\ntag_3:\n    /* \"#utility.yul\":265:271   */\n  0x00\n    /* \"#utility.yul\":273:279   */\n  dup1\n    /* \"#utility.yul\":281:287   */\n  0x00\n    /* \"#utility.yul\":334:336   */\n  0x60\n    /* \"#utility.yul\":322:331   */\n  dup5\n    /* \"#utility.yul\":313:320   */\n  dup7\n    /* \"#utility.yul\":309:332   */\n  sub\n    /* \"#utility.yul\":305:337   */\n  slt\n    /* \"#utility.yul\":302:354   */\n  iszero\n  tag_32\n  jumpi\n    /* \"#utility.yul\":350:351   */\n  0x00\n    /* \"#utility.yul\":347:348   */\n  dup1\n    /* \"#utility.yul\":340:352   */\n  revert\n    /* \"#utility.yul\":302:354   */\ntag_32:\n    /* \"#utility.yul\":376:392   */\n  dup4\n  mload\n  sub(shl(0xa0, 0x01), 0x01)\n    /* \"#utility.yul\":421:452   */\n  dup2\n  and\n    /* \"#utility.yul\":411:453   */\n  dup2\n  eq\n    /* \"#utility.yul\":401:471   */\n  tag_33\n  jumpi\n    /* \"#utility.yul\":467:468   */\n  0x00\n    /* \"#utility.yul\":464:465   */\n  dup1\n    /* \"#utility.yul\":457:469   */\n  revert\n    /* \"#utility.yul\":401:471   */\ntag_33:\n    /* \"#utility.yul\":490:495   */\n  swap3\n  pop\n    /* \"#utility.yul\":514:560   */\n  tag_34\n    /* \"#utility.yul\":556:558   */\n  0x20\n    /* \"#utility.yul\":541:559   */\n  dup6\n  add\n    /* \"#utility.yul\":514:560   */\n  tag_22\n  jump\t// in\ntag_34:\n    /* \"#utility.yul\":504:560   */\n  swap2\n  pop\n    /* \"#utility.yul\":579:625   */\n  tag_35\n    /* \"#utility.yul\":621:623   */\n  0x40\n    /* \"#utility.yul\":610:619   */\n  dup6\n    /* \"#utility.yul\":606:624   */\n  add\n    /* \"#utility.yul\":579:625   */\n  tag_22\n  jump\t// in\ntag_35:\n    /* \"#utility.yul\":569:625   */\n  swap1\n  pop\n    /* \"#utility.yul\":183:631   */\n  swap3\n  pop\n  swap3\n  pop\n  swap3\n  jump\t// out\n    /* \"#utility.yul\":636:763   */\ntag_23:\n    /* \"#utility.yul\":697:707   */\n  0x4e487b71\n    /* \"#utility.yul\":692:695   */\n  0xe0\n    /* \"#utility.yul\":688:708   */\n  shl\n    /* \"#utility.yul\":685:686   */\n  0x00\n    /* \"#utility.yul\":678:709   */\n  mstore\n    /* \"#utility.yul\":728:732   */\n  0x41\n    /* \"#utility.yul\":725:726   */\n  0x04\n    /* \"#utility.yul\":718:733   */\n  mstore\n    /* \"#utility.yul\":752:756   */\n  0x24\n    /* \"#utility.yul\":749:750   */\n  0x00\n    /* \"#utility.yul\":742:757   */\n  revert\n    /* \"#utility.yul\":768:1148   */\ntag_24:\n    /* \"#utility.yul\":847:848   */\n  0x01\n    /* \"#utility.yul\":843:855   */\n  dup2\n  dup2\n  shr\n  swap1\n    /* \"#utility.yul\":890:902   */\n  dup3\n  and\n  dup1\n    /* \"#utility.yul\":911:972   */\n  tag_38\n  jumpi\n    /* \"#utility.yul\":965:969   */\n  0x7f\n    /* \"#utility.yul\":957:963   */\n  dup3\n    /* \"#utility.yul\":953:970   */\n  and\n    /* \"#utility.yul\":943:970   */\n  swap2\n  pop\n    /* \"#utility.yul\":911:972   */\ntag_38:\n    /* \"#utility.yul\":1018:1020   */\n  0x20\n    /* \"#utility.yul\":1010:1016   */\n  dup3\n    /* \"#utility.yul\":1007:1021   */\n  lt\n    /* \"#utility.yul\":987:1005   */\n  dup2\n    /* \"#utility.yul\":984:1022   */\n  sub\n    /* \"#utility.yul\":981:1142   */\n  tag_39\n  jumpi\n    /* \"#utility.yul\":1064:1074   */\n  0x4e487b71\n    /* \"#utility.yul\":1059:1062   */\n  0xe0\n    /* \"#utility.yul\":1055:1075   */\n  shl\n    /* \"#utility.yul\":1052:1053   */\n  0x00\n    /* \"#utility.yul\":1045:1076   */\n  mstore\n    /* \"#utility.yul\":1099:1103   */\n  0x22\n    /* \"#utility.yul\":1096:1097   */\n  0x04\n    /* \"#utility.yul\":1089:1104   */\n  mstore\n    /* \"#utility.yul\":1127:1131   */\n  0x24\n    /* \"#utility.yul\":1124:1125   */\n  0x00\n    /* \"#utility.yul\":1117:1132   */\n  revert\n    /* \"#utility.yul\":981:1142   */\ntag_39:\n  pop\n    /* \"#utility.yul\":768:1148   */\n  swap2\n  swap1\n  pop\n  jump\t// out\n    /* \"#utility.yul\":1279:1797   */\ntag_26:\n    /* \"#utility.yul\":1381:1383   */\n  0x1f\n    /* \"#utility.yul\":1376:1379   */\n  dup3\n    /* \"#utility.yul\":1373:1384   */\n  gt\n    /* \"#utility.yul\":1370:1791   */\n  iszero\n  tag_42\n  jumpi\n    /* \"#utility.yul\":1417:1422   */\n  dup1\n    /* \"#utility.yul\":1414:1415   */\n  0x00\n    /* \"#utility.yul\":1407:1423   */\n  mstore\n    /* \"#utility.yul\":1461:1465   */\n  0x20\n    /* \"#utility.yul\":1458:1459   */\n  0x00\n    /* \"#utility.yul\":1448:1466   */\n  keccak256\n    /* \"#utility.yul\":1531:1533   */\n  0x1f\n    /* \"#utility.yul\":1519:1529   */\n  dup5\n    /* \"#utility.yul\":1515:1534   */\n  add\n    /* \"#utility.yul\":1512:1513   */\n  0x05\n    /* \"#utility.yul\":1508:1535   */\n  shr\n    /* \"#utility.yul\":1502:1506   */\n  dup2\n    /* \"#utility.yul\":1498:1536   */\n  add\n    /* \"#utility.yul\":1567:1571   */\n  0x20\n    /* \"#utility.yul\":1555:1565   */\n  dup6\n    /* \"#utility.yul\":1552:1572   */\n  lt\n    /* \"#utility.yul\":1549:1596   */\n  iszero\n  tag_43\n  jumpi\n  pop\n    /* \"#utility.yul\":1590:1594   */\n  dup1\n    /* \"#utility.yul\":1549:1596   */\ntag_43:\n    /* \"#utility.yul\":1645:1647   */\n  0x1f\n    /* \"#utility.yul\":1640:1643   */\n  dup5\n    /* \"#utility.yul\":1636:1648   */\n  add\n    /* \"#utility.yul\":1633:1634   */\n  0x05\n    /* \"#utility.yul\":1629:1649   */\n  shr\n    /* \"#utility.yul\":1623:1627   */\n  dup3\n    /* \"#utility.yul\":1619:1650   */\n  add\n    /* \"#utility.yul\":1609:1650   */\n  swap2\n  pop\n    /* \"#utility.yul\":1700:1781   */\ntag_44:\n    /* \"#utility.yul\":1718:1720   */\n  dup2\n    /* \"#utility.yul\":1711:1716   */\n  dup2\n    /* \"#utility.yul\":1708:1721   */\n  lt\n    /* \"#utility.yul\":1700:1781   */\n  iszero\n  tag_46\n  jumpi\n    /* \"#utility.yul\":1777:1778   */\n  0x00\n    /* \"#utility.yul\":1763:1779   */\n  dup2\n  sstore\n    /* \"#utility.yul\":1744:1745   */\n  0x01\n    /* \"#utility.yul\":1733:1746   */\n  add\n    /* \"#utility.yul\":1700:1781   */\n  jump(tag_44)\ntag_46:\n    /* \"#utility.yul\":1704:1707   */\n  pop\n  pop\n    /* \"#utility.yul\":1370:1791   */\ntag_42:\n    /* \"#utility.yul\":1279:1797   */\n  pop\n  pop\n  pop\n  jump\t// out\n    /* \"#utility.yul\":1973:3318   */\ntag_10:\n    /* \"#utility.yul\":2093:2103   */\n  dup2\n  mload\n  sub(shl(0x40, 0x01), 0x01)\n    /* \"#utility.yul\":2115:2145   */\n  dup2\n  gt\n    /* \"#utility.yul\":2112:2168   */\n  iszero\n  tag_50\n  jumpi\n    /* \"#utility.yul\":2148:2166   */\n  tag_50\n  tag_23\n  jump\t// in\ntag_50:\n    /* \"#utility.yul\":2177:2274   */\n  tag_51\n    /* \"#utility.yul\":2267:2273   */\n  dup2\n    /* \"#utility.yul\":2227:2265   */\n  tag_52\n    /* \"#utility.yul\":2259:2263   */\n  dup5\n    /* \"#utility.yul\":2253:2264   */\n  sload\n    /* \"#utility.yul\":2227:2265   */\n  tag_24\n  jump\t// in\ntag_52:\n    /* \"#utility.yul\":2221:2225   */\n  dup5\n    /* \"#utility.yul\":2177:2274   */\n  tag_26\n  jump\t// in\ntag_51:\n    /* \"#utility.yul\":2329:2333   */\n  0x20\n  dup1\n    /* \"#utility.yul\":2386:2388   */\n  0x1f\n    /* \"#utility.yul\":2375:2389   */\n  dup4\n  gt\n    /* \"#utility.yul\":2403:2404   */\n  0x01\n    /* \"#utility.yul\":2398:3061   */\n  dup2\n  eq\n  tag_54\n  jumpi\n    /* \"#utility.yul\":3105:3106   */\n  0x00\n    /* \"#utility.yul\":3122:3128   */\n  dup5\n    /* \"#utility.yul\":3119:3208   */\n  iszero\n  tag_55\n  jumpi\n  pop\n    /* \"#utility.yul\":3174:3193   */\n  dup6\n  dup4\n  add\n    /* \"#utility.yul\":3168:3194   */\n  mload\n    /* \"#utility.yul\":3119:3208   */\ntag_55:\n  not(0x00)\n    /* \"#utility.yul\":1930:1931   */\n  0x03\n    /* \"#utility.yul\":1926:1937   */\n  dup7\n  swap1\n  shl\n    /* \"#utility.yul\":1922:1946   */\n  shr\n    /* \"#utility.yul\":1918:1947   */\n  not\n    /* \"#utility.yul\":1908:1948   */\n  and\n    /* \"#utility.yul\":1954:1955   */\n  0x01\n    /* \"#utility.yul\":1950:1961   */\n  dup6\n  swap1\n  shl\n    /* \"#utility.yul\":1905:1962   */\n  or\n    /* \"#utility.yul\":3221:3302   */\n  dup6\n  sstore\n    /* \"#utility.yul\":2368:3312   */\n  jump(tag_53)\n    /* \"#utility.yul\":2398:3061   */\ntag_54:\n    /* \"#utility.yul\":1226:1227   */\n  0x00\n    /* \"#utility.yul\":1219:1233   */\n  dup6\n  dup2\n  mstore\n    /* \"#utility.yul\":1263:1267   */\n  0x20\n    /* \"#utility.yul\":1250:1268   */\n  dup2\n  keccak256\n  not(0x1f)\n    /* \"#utility.yul\":2434:2454   */\n  dup7\n  and\n  swap2\n    /* \"#utility.yul\":2552:2788   */\ntag_58:\n    /* \"#utility.yul\":2566:2573   */\n  dup3\n    /* \"#utility.yul\":2563:2564   */\n  dup2\n    /* \"#utility.yul\":2560:2574   */\n  lt\n    /* \"#utility.yul\":2552:2788   */\n  iszero\n  tag_60\n  jumpi\n    /* \"#utility.yul\":2655:2674   */\n  dup9\n  dup7\n  add\n    /* \"#utility.yul\":2649:2675   */\n  mload\n    /* \"#utility.yul\":2634:2676   */\n  dup3\n  sstore\n    /* \"#utility.yul\":2747:2774   */\n  swap5\n  dup5\n  add\n  swap5\n    /* \"#utility.yul\":2715:2716   */\n  0x01\n    /* \"#utility.yul\":2703:2717   */\n  swap1\n  swap2\n  add\n  swap1\n    /* \"#utility.yul\":2582:2601   */\n  dup5\n  add\n    /* \"#utility.yul\":2552:2788   */\n  jump(tag_58)\ntag_60:\n    /* \"#utility.yul\":2556:2559   */\n  pop\n    /* \"#utility.yul\":2816:2822   */\n  dup6\n    /* \"#utility.yul\":2807:2814   */\n  dup3\n    /* \"#utility.yul\":2804:2823   */\n  lt\n    /* \"#utility.yul\":2801:3002   */\n  iszero\n  tag_61\n  jumpi\n    /* \"#utility.yul\":2877:2896   */\n  dup8\n  dup6\n  add\n    /* \"#utility.yul\":2871:2897   */\n  mload\n  not(0x00)\n    /* \"#utility.yul\":2960:2961   */\n  0x03\n    /* \"#utility.yul\":2956:2970   */\n  dup9\n  swap1\n  shl\n    /* \"#utility.yul\":2972:2975   */\n  0xf8\n    /* \"#utility.yul\":2952:2976   */\n  and\n    /* \"#utility.yul\":2948:2985   */\n  shr\n    /* \"#utility.yul\":2944:2986   */\n  not\n    /* \"#utility.yul\":2929:2987   */\n  and\n    /* \"#utility.yul\":2914:2988   */\n  dup2\n  sstore\n    /* \"#utility.yul\":2801:3002   */\ntag_61:\n  pop\n  pop\n    /* \"#utility.yul\":3048:3049   */\n  0x01\n    /* \"#utility.yul\":3039:3045   */\n  dup5\n    /* \"#utility.yul\":3036:3037   */\n  0x01\n    /* \"#utility.yul\":3032:3046   */\n  shl\n    /* \"#utility.yul\":3028:3050   */\n  add\n    /* \"#utility.yul\":3022:3026   */\n  dup6\n    /* \"#utility.yul\":3015:3051   */\n  sstore\n    /* \"#utility.yul\":2368:3312   */\ntag_53:\n  pop\n  pop\n  pop\n  pop\n    /* \"#utility.yul\":1973:3318   */\n  pop\n  pop\n  jump\t// out\n    /* \"#utility.yul\":3323:3526   */\ntag_28:\n    /* \"contracts/taskControl/TaskControlWithToken.sol\":597:4310  contract TaskControlWithToken is ITaskControlWithToken,ERC20,ReentrancyGuard, ERC20Burnable, Ownable {... */\n  dataSize(sub_0)\n  dup1\n  dataOffset(sub_0)\n  0x00\n  codecopy\n  0x00\n  return\nstop\n\nsub_0: assembly {\n        /* \"contracts/taskControl/TaskControlWithToken.sol\":597:4310  contract TaskControlWithToken is ITaskControlWithToken,ERC20,ReentrancyGuard, ERC20Burnable, Ownable {... */\n      mstore(0x40, 0x80)\n      callvalue\n      dup1\n      iszero\n      tag_1\n      jumpi\n      0x00\n      dup1\n      revert\n    tag_1:\n      pop\n      jumpi(tag_2, lt(calldatasize, 0x04))\n      shr(0xe0, calldataload(0x00))\n      dup1\n      0x715018a6\n      gt\n      tag_27\n      jumpi\n      dup1\n      0xc7ff23bb\n      gt\n      tag_28\n      jumpi\n      dup1\n      0xc7ff23bb\n      eq\n      tag_21\n      jumpi\n      dup1\n      0xd896fc10\n      eq\n      tag_22\n      jumpi\n      dup1\n      0xd9caed12\n      eq\n      tag_23\n      jumpi\n      dup1\n      0xdd62ed3e\n      eq\n      tag_24\n      jumpi\n      dup1\n      0xe405663f\n      eq\n      tag_25\n      jumpi\n      dup1\n      0xf2fde38b\n      eq\n      tag_26\n      jumpi\n      0x00\n      dup1\n      revert\n    tag_28:\n      dup1\n      0x715018a6\n      eq\n      tag_15\n      jumpi\n      dup1\n      0x79cc6790\n      eq\n      tag_16\n      jumpi\n      dup1\n      0x8da5cb5b\n      eq\n      tag_17\n      jumpi\n      dup1\n      0x95d89b41\n      eq\n      tag_18\n      jumpi\n      dup1\n      0xa9059cbb\n      eq\n      tag_19\n      jumpi\n      dup1\n      0xb4309a9c\n      eq\n      tag_20\n      jumpi\n      0x00\n      dup1\n      revert\n    tag_27:\n      dup1\n      0x18160ddd\n      gt\n      tag_29\n      jumpi\n      dup1\n      0x18160ddd\n      eq\n      tag_9\n      jumpi\n      dup1\n      0x23b872dd\n      eq\n      tag_10\n      jumpi\n      dup1\n      0x313ce567\n      eq\n      tag_11\n      jumpi\n      dup1\n      0x42966c68\n      eq\n      tag_12\n      jumpi\n      dup1\n      0x6ebd327b\n      eq\n      tag_13\n      jumpi\n      dup1\n      0x70a08231\n      eq\n      tag_14\n      jumpi\n      0x00\n      dup1\n      revert\n    tag_29:\n      dup1\n      0x012c911e\n      eq\n      tag_3\n      jumpi\n      dup1\n      0x019f232a\n      eq\n      tag_4\n      jumpi\n      dup1\n      0x06e2a29a\n      eq\n      tag_5\n      jumpi\n      dup1\n      0x06fdde03\n      eq\n      tag_6\n      jumpi\n      dup1\n      0x082921a5\n      eq\n      tag_7\n      jumpi\n      dup1\n      0x095ea7b3\n      eq\n      tag_8\n      jumpi\n    tag_2:\n      0x00\n      dup1\n      revert\n        /* \"contracts/taskControl/TaskControlWithToken.sol\":3328:3700  function getTicket(uint256 _id,address _receiveAddress,uint256 _ticketNumbers)external virtual override {... */\n    tag_3:\n      tag_30\n      tag_31\n      calldatasize\n      0x04\n      tag_32\n      jump\t// in\n    tag_31:\n      tag_33\n      jump\t// in\n    tag_30:\n      stop\n        /* \"contracts/taskControl/TaskControlWithToken.sol\":1774:1890  function getTask(address _taskAddr)external view  returns(uint256) {... */\n    tag_4:\n      tag_34\n      tag_35\n      calldatasize\n      0x04\n      tag_36\n      jump\t// in\n    tag_35:\n      sub(shl(0xa0, 0x01), 0x01)\n        /* \"contracts/taskControl/TaskControlWithToken.sol\":1862:1879  _tasks[_taskAddr] */\n      and\n        /* \"contracts/taskControl/TaskControlWithToken.sol\":1832:1839  uint256 */\n      0x00\n        /* \"contracts/taskControl/TaskControlWithToken.sol\":1862:1879  _tasks[_taskAddr] */\n      swap1\n      dup2\n      mstore\n        /* \"contracts/taskControl/TaskControlWithToken.sol\":1862:1868  _tasks */\n      0x08\n        /* \"contracts/taskControl/TaskControlWithToken.sol\":1862:1879  _tasks[_taskAddr] */\n      0x20\n      mstore\n      0x40\n      swap1\n      keccak256\n      sload\n      swap1\n        /* \"contracts/taskControl/TaskControlWithToken.sol\":1774:1890  function getTask(address _taskAddr)external view  returns(uint256) {... */\n      jump\n    tag_34:\n      mload(0x40)\n        /* \"#utility.yul\":936:961   */\n      swap1\n      dup2\n      mstore\n        /* \"#utility.yul\":924:926   */\n      0x20\n        /* \"#utility.yul\":909:927   */\n      add\n        /* \"contracts/taskControl/TaskControlWithToken.sol\":1774:1890  function getTask(address _taskAddr)external view  returns(uint256) {... */\n    tag_38:\n      mload(0x40)\n      dup1\n      swap2\n      sub\n      swap1\n      return\n        /* \"contracts/taskControl/TaskControlWithToken.sol\":820:847  bool public allowSendTicket */\n    tag_5:\n      sload(0x07)\n      tag_40\n      swap1\n      shl(0xa8, 0x01)\n      swap1\n      div\n      0xff\n      and\n      dup2\n      jump\n    tag_40:\n      mload(0x40)\n        /* \"#utility.yul\":1137:1151   */\n      swap1\n      iszero\n        /* \"#utility.yul\":1130:1152   */\n      iszero\n        /* \"#utility.yul\":1112:1153   */\n      dup2\n      mstore\n        /* \"#utility.yul\":1100:1102   */\n      0x20\n        /* \"#utility.yul\":1085:1103   */\n      add\n        /* \"contracts/taskControl/TaskControlWithToken.sol\":820:847  bool public allowSendTicket */\n      tag_38\n        /* \"#utility.yul\":972:1159   */\n      jump\n        /* \"@openzeppelin/contracts/token/ERC20/ERC20.sol\":2074:2163  function name() public view virtual returns (string memory) {... */\n    tag_6:\n      tag_44\n      tag_45\n      jump\t// in\n    tag_44:\n      mload(0x40)\n      tag_38\n      swap2\n      swap1\n      tag_47\n      jump\t// in\n        /* \"contracts/taskControl/TaskControlWithToken.sol\":1598:1765  function setTask(address _taskAddr,uint256 _weight)external onlyOwner{... */\n    tag_7:\n      tag_30\n      tag_49\n      calldatasize\n      0x04\n      tag_50\n      jump\t// in\n    tag_49:\n      tag_51\n      jump\t// in\n        /* \"@openzeppelin/contracts/token/ERC20/ERC20.sol\":4293:4479  function approve(address spender, uint256 value) public virtual returns (bool) {... */\n    tag_8:\n      tag_40\n      tag_53\n      calldatasize\n      0x04\n      tag_50\n      jump\t// in\n    tag_53:\n      tag_54\n      jump\t// in\n        /* \"@openzeppelin/contracts/token/ERC20/ERC20.sol\":3144:3241  function totalSupply() public view virtual returns (uint256) {... */\n    tag_9:\n        /* \"@openzeppelin/contracts/token/ERC20/ERC20.sol\":3222:3234  _totalSupply */\n      sload(0x02)\n        /* \"@openzeppelin/contracts/token/ERC20/ERC20.sol\":3144:3241  function totalSupply() public view virtual returns (uint256) {... */\n      jump(tag_34)\n        /* \"@openzeppelin/contracts/token/ERC20/ERC20.sol\":5039:5283  function transferFrom(address from, address to, uint256 value) public virtual returns (bool) {... */\n    tag_10:\n      tag_40\n      tag_60\n      calldatasize\n      0x04\n      tag_61\n      jump\t// in\n    tag_60:\n      tag_62\n      jump\t// in\n        /* \"@openzeppelin/contracts/token/ERC20/ERC20.sol\":3002:3084  function decimals() public view virtual returns (uint8) {... */\n    tag_11:\n      mload(0x40)\n        /* \"@openzeppelin/contracts/token/ERC20/ERC20.sol\":3075:3077  18 */\n      0x12\n        /* \"#utility.yul\":2510:2546   */\n      dup2\n      mstore\n        /* \"#utility.yul\":2498:2500   */\n      0x20\n        /* \"#utility.yul\":2483:2501   */\n      add\n        /* \"@openzeppelin/contracts/token/ERC20/ERC20.sol\":3002:3084  function decimals() public view virtual returns (uint8) {... */\n      tag_38\n        /* \"#utility.yul\":2368:2552   */\n      jump\n        /* \"@openzeppelin/contracts/token/ERC20/extensions/ERC20Burnable.sol\":618:705  function burn(uint256 value) public virtual {... */\n    tag_12:\n      tag_30\n      tag_69\n      calldatasize\n      0x04\n      tag_70\n      jump\t// in\n    tag_69:\n      tag_71\n      jump\t// in\n        /* \"contracts/taskControl/TaskControlWithToken.sol\":3709:4116  function getTicketFrom(uint256 _id,address _fromAddress,address _receiveAddress,uint256 _ticketNumbers)external virtual override {... */\n    tag_13:\n      tag_30\n      tag_73\n      calldatasize\n      0x04\n      tag_74\n      jump\t// in\n    tag_73:\n      tag_75\n      jump\t// in\n        /* \"@openzeppelin/contracts/token/ERC20/ERC20.sol\":3299:3415  function balanceOf(address account) public view virtual returns (uint256) {... */\n    tag_14:\n      tag_34\n      tag_77\n      calldatasize\n      0x04\n      tag_36\n      jump\t// in\n    tag_77:\n      sub(shl(0xa0, 0x01), 0x01)\n        /* \"@openzeppelin/contracts/token/ERC20/ERC20.sol\":3390:3408  _balances[account] */\n      and\n        /* \"@openzeppelin/contracts/token/ERC20/ERC20.sol\":3364:3371  uint256 */\n      0x00\n        /* \"@openzeppelin/contracts/token/ERC20/ERC20.sol\":3390:3408  _balances[account] */\n      swap1\n      dup2\n      mstore\n      0x20\n      dup2\n      swap1\n      mstore\n      0x40\n      swap1\n      keccak256\n      sload\n      swap1\n        /* \"@openzeppelin/contracts/token/ERC20/ERC20.sol\":3299:3415  function balanceOf(address account) public view virtual returns (uint256) {... */\n      jump\n        /* \"@openzeppelin/contracts/access/Ownable.sol\":2293:2394  function renounceOwnership() public virtual onlyOwner {... */\n    tag_15:\n      tag_30\n      tag_81\n      jump\t// in\n        /* \"@openzeppelin/contracts/token/ERC20/extensions/ERC20Burnable.sol\":1021:1179  function burnFrom(address account, uint256 value) public virtual {... */\n    tag_16:\n      tag_30\n      tag_83\n      calldatasize\n      0x04\n      tag_50\n      jump\t// in\n    tag_83:\n      tag_84\n      jump\t// in\n        /* \"@openzeppelin/contracts/access/Ownable.sol\":1638:1723  function owner() public view virtual returns (address) {... */\n    tag_17:\n        /* \"@openzeppelin/contracts/access/Ownable.sol\":1710:1716  _owner */\n      and(sub(shl(0xa0, 0x01), 0x01), sload(0x06))\n        /* \"@openzeppelin/contracts/access/Ownable.sol\":1638:1723  function owner() public view virtual returns (address) {... */\n    tag_85:\n      mload(0x40)\n      sub(shl(0xa0, 0x01), 0x01)\n        /* \"#utility.yul\":3436:3468   */\n      swap1\n      swap2\n      and\n        /* \"#utility.yul\":3418:3469   */\n      dup2\n      mstore\n        /* \"#utility.yul\":3406:3408   */\n      0x20\n        /* \"#utility.yul\":3391:3409   */\n      add\n        /* \"@openzeppelin/contracts/access/Ownable.sol\":1638:1723  function owner() public view virtual returns (address) {... */\n      tag_38\n        /* \"#utility.yul\":3272:3475   */\n      jump\n        /* \"@openzeppelin/contracts/token/ERC20/ERC20.sol\":2276:2369  function symbol() public view virtual returns (string memory) {... */\n    tag_18:\n      tag_44\n      tag_90\n      jump\t// in\n        /* \"@openzeppelin/contracts/token/ERC20/ERC20.sol\":3610:3788  function transfer(address to, uint256 value) public virtual returns (bool) {... */\n    tag_19:\n      tag_40\n      tag_93\n      calldatasize\n      0x04\n      tag_50\n      jump\t// in\n    tag_93:\n      tag_94\n      jump\t// in\n        /* \"contracts/taskControl/TaskControlWithToken.sol\":784:810  bool public allowBuyTicket */\n    tag_20:\n      sload(0x07)\n      tag_40\n      swap1\n      shl(0xa0, 0x01)\n      swap1\n      div\n      0xff\n      and\n      dup2\n      jump\n        /* \"contracts/taskControl/TaskControlWithToken.sol\":744:774  address public redEnvelopeAddr */\n    tag_21:\n      sload(0x07)\n      tag_85\n      swap1\n      sub(shl(0xa0, 0x01), 0x01)\n      and\n      dup2\n      jump\n        /* \"contracts/taskControl/TaskControlWithToken.sol\":1901:2392  function mintToken(address _taskAddr,address _receiveAddress,bytes calldata _data) external virtual override nonReentrant{... */\n    tag_22:\n      tag_30\n      tag_103\n      calldatasize\n      0x04\n      tag_104\n      jump\t// in\n    tag_103:\n      tag_105\n      jump\t// in\n        /* \"contracts/taskControl/TaskControlWithToken.sol\":4158:4304  function withdraw(address _token,address _to,uint256 _value)external virtual onlyOwner{... */\n    tag_23:\n      tag_30\n      tag_107\n      calldatasize\n      0x04\n      tag_61\n      jump\t// in\n    tag_107:\n      tag_108\n      jump\t// in\n        /* \"@openzeppelin/contracts/token/ERC20/ERC20.sol\":3846:3986  function allowance(address owner, address spender) public view virtual returns (uint256) {... */\n    tag_24:\n      tag_34\n      tag_110\n      calldatasize\n      0x04\n      tag_111\n      jump\t// in\n    tag_110:\n      sub(shl(0xa0, 0x01), 0x01)\n        /* \"@openzeppelin/contracts/token/ERC20/ERC20.sol\":3952:3970  _allowances[owner] */\n      swap2\n      dup3\n      and\n        /* \"@openzeppelin/contracts/token/ERC20/ERC20.sol\":3926:3933  uint256 */\n      0x00\n        /* \"@openzeppelin/contracts/token/ERC20/ERC20.sol\":3952:3970  _allowances[owner] */\n      swap1\n      dup2\n      mstore\n        /* \"@openzeppelin/contracts/token/ERC20/ERC20.sol\":3952:3963  _allowances */\n      0x01\n        /* \"@openzeppelin/contracts/token/ERC20/ERC20.sol\":3952:3970  _allowances[owner] */\n      0x20\n      swap1\n      dup2\n      mstore\n      0x40\n      dup1\n      dup4\n      keccak256\n        /* \"@openzeppelin/contracts/token/ERC20/ERC20.sol\":3952:3979  _allowances[owner][spender] */\n      swap4\n      swap1\n      swap5\n      and\n      dup3\n      mstore\n      swap2\n      swap1\n      swap2\n      mstore\n      keccak256\n      sload\n      swap1\n        /* \"@openzeppelin/contracts/token/ERC20/ERC20.sol\":3846:3986  function allowance(address owner, address spender) public view virtual returns (uint256) {... */\n      jump\n        /* \"contracts/taskControl/TaskControlWithToken.sol\":858:899  mapping(address => uint256) public _tasks */\n    tag_25:\n      tag_34\n      tag_115\n      calldatasize\n      0x04\n      tag_36\n      jump\t// in\n    tag_115:\n      mstore(0x20, 0x08)\n      0x00\n      swap1\n      dup2\n      mstore\n      0x40\n      swap1\n      keccak256\n      sload\n      dup2\n      jump\n        /* \"@openzeppelin/contracts/access/Ownable.sol\":2543:2758  function transferOwnership(address newOwner) public virtual onlyOwner {... */\n    tag_26:\n      tag_30\n      tag_119\n      calldatasize\n      0x04\n      tag_36\n      jump\t// in\n    tag_119:\n      tag_120\n      jump\t// in\n        /* \"contracts/taskControl/TaskControlWithToken.sol\":3328:3700  function getTicket(uint256 _id,address _receiveAddress,uint256 _ticketNumbers)external virtual override {... */\n    tag_33:\n        /* \"contracts/taskControl/TaskControlWithToken.sol\":3446:3460  uint256 amount */\n      0x00\n        /* \"contracts/taskControl/TaskControlWithToken.sol\":3480:3496  10 ** decimals() */\n      tag_123\n        /* \"@openzeppelin/contracts/token/ERC20/ERC20.sol\":3075:3077  18 */\n      0x12\n        /* \"contracts/taskControl/TaskControlWithToken.sol\":3480:3482  10 */\n      0x0a\n        /* \"contracts/taskControl/TaskControlWithToken.sol\":3480:3496  10 ** decimals() */\n      tag_124\n      jump\t// in\n    tag_123:\n        /* \"contracts/taskControl/TaskControlWithToken.sol\":3463:3496  _ticketNumbers * 10 ** decimals() */\n      tag_125\n      swap1\n        /* \"contracts/taskControl/TaskControlWithToken.sol\":3463:3477  _ticketNumbers */\n      dup4\n        /* \"contracts/taskControl/TaskControlWithToken.sol\":3463:3496  _ticketNumbers * 10 ** decimals() */\n      tag_126\n      jump\t// in\n    tag_125:\n        /* \"contracts/taskControl/TaskControlWithToken.sol\":3446:3496  uint256 amount = _ticketNumbers * 10 ** decimals() */\n      swap1\n      pop\n        /* \"contracts/taskControl/TaskControlWithToken.sol\":3510:3522  burn(amount) */\n      tag_127\n        /* \"contracts/taskControl/TaskControlWithToken.sol\":3515:3521  amount */\n      dup2\n        /* \"contracts/taskControl/TaskControlWithToken.sol\":3510:3514  burn */\n      tag_71\n        /* \"contracts/taskControl/TaskControlWithToken.sol\":3510:3522  burn(amount) */\n      jump\t// in\n    tag_127:\n        /* \"contracts/taskControl/TaskControlWithToken.sol\":3536:3544  bool buy */\n      0x00\n        /* \"contracts/taskControl/TaskControlWithToken.sol\":3547:3593  _getTicket(_id,_receiveAddress,_ticketNumbers) */\n      tag_128\n        /* \"contracts/taskControl/TaskControlWithToken.sol\":3558:3561  _id */\n      dup6\n        /* \"contracts/taskControl/TaskControlWithToken.sol\":3562:3577  _receiveAddress */\n      dup6\n        /* \"contracts/taskControl/TaskControlWithToken.sol\":3578:3592  _ticketNumbers */\n      dup6\n        /* \"contracts/taskControl/TaskControlWithToken.sol\":3547:3557  _getTicket */\n      tag_129\n        /* \"contracts/taskControl/TaskControlWithToken.sol\":3547:3593  _getTicket(_id,_receiveAddress,_ticketNumbers) */\n      jump\t// in\n    tag_128:\n        /* \"contracts/taskControl/TaskControlWithToken.sol\":3613:3689  TicketGet(_id,address(msg.sender),_receiveAddress,amount,_ticketNumbers,buy) */\n      0x40\n      dup1\n      mload\n        /* \"#utility.yul\":6708:6733   */\n      dup8\n      dup2\n      mstore\n        /* \"contracts/taskControl/TaskControlWithToken.sol\":3635:3645  msg.sender */\n      caller\n        /* \"#utility.yul\":6802:6804   */\n      0x20\n        /* \"#utility.yul\":6787:6805   */\n      dup3\n      add\n        /* \"#utility.yul\":6780:6823   */\n      mstore\n      sub(shl(0xa0, 0x01), 0x01)\n        /* \"#utility.yul\":6859:6874   */\n      dup8\n      and\n        /* \"#utility.yul\":6839:6857   */\n      dup2\n      dup4\n      add\n        /* \"#utility.yul\":6832:6875   */\n      mstore\n        /* \"#utility.yul\":6906:6908   */\n      0x60\n        /* \"#utility.yul\":6891:6909   */\n      dup2\n      add\n        /* \"#utility.yul\":6884:6918   */\n      dup6\n      swap1\n      mstore\n        /* \"#utility.yul\":6949:6952   */\n      0x80\n        /* \"#utility.yul\":6934:6953   */\n      dup2\n      add\n        /* \"#utility.yul\":6927:6962   */\n      dup7\n      swap1\n      mstore\n        /* \"#utility.yul\":7006:7020   */\n      dup3\n      iszero\n        /* \"#utility.yul\":6999:7021   */\n      iszero\n        /* \"#utility.yul\":6760:6763   */\n      0xa0\n        /* \"#utility.yul\":6978:6997   */\n      dup3\n      add\n        /* \"#utility.yul\":6971:7022   */\n      mstore\n        /* \"contracts/taskControl/TaskControlWithToken.sol\":3613:3689  TicketGet(_id,address(msg.sender),_receiveAddress,amount,_ticketNumbers,buy) */\n      swap1\n      mload\n        /* \"#utility.yul\":7006:7020   */\n      swap2\n      swap3\n      pop\n        /* \"contracts/taskControl/TaskControlWithToken.sol\":3613:3689  TicketGet(_id,address(msg.sender),_receiveAddress,amount,_ticketNumbers,buy) */\n      0xebc14ddbdd1e1ebc5a287d8957bd1ca84faef18f192f27829b8459fd15f5195d\n      swap2\n      swap1\n      dup2\n      swap1\n      sub\n        /* \"#utility.yul\":6695:6698   */\n      0xc0\n        /* \"contracts/taskControl/TaskControlWithToken.sol\":3613:3689  TicketGet(_id,address(msg.sender),_receiveAddress,amount,_ticketNumbers,buy) */\n      add\n      swap1\n      log1\n        /* \"contracts/taskControl/TaskControlWithToken.sol\":3432:3700  {... */\n      pop\n      pop\n        /* \"contracts/taskControl/TaskControlWithToken.sol\":3328:3700  function getTicket(uint256 _id,address _receiveAddress,uint256 _ticketNumbers)external virtual override {... */\n      pop\n      pop\n      pop\n      jump\t// out\n        /* \"@openzeppelin/contracts/token/ERC20/ERC20.sol\":2074:2163  function name() public view virtual returns (string memory) {... */\n    tag_45:\n        /* \"@openzeppelin/contracts/token/ERC20/ERC20.sol\":2119:2132  string memory */\n      0x60\n        /* \"@openzeppelin/contracts/token/ERC20/ERC20.sol\":2151:2156  _name */\n      0x03\n        /* \"@openzeppelin/contracts/token/ERC20/ERC20.sol\":2144:2156  return _name */\n      dup1\n      sload\n      tag_134\n      swap1\n      tag_135\n      jump\t// in\n    tag_134:\n      dup1\n      0x1f\n      add\n      0x20\n      dup1\n      swap2\n      div\n      mul\n      0x20\n      add\n      mload(0x40)\n      swap1\n      dup2\n      add\n      0x40\n      mstore\n      dup1\n      swap3\n      swap2\n      swap1\n      dup2\n      dup2\n      mstore\n      0x20\n      add\n      dup3\n      dup1\n      sload\n      tag_136\n      swap1\n      tag_135\n      jump\t// in\n    tag_136:\n      dup1\n      iszero\n      tag_137\n      jumpi\n      dup1\n      0x1f\n      lt\n      tag_138\n      jumpi\n      0x0100\n      dup1\n      dup4\n      sload\n      div\n      mul\n      dup4\n      mstore\n      swap2\n      0x20\n      add\n      swap2\n      jump(tag_137)\n    tag_138:\n      dup3\n      add\n      swap2\n      swap1\n      0x00\n      mstore\n      keccak256(0x00, 0x20)\n      swap1\n    tag_139:\n      dup2\n      sload\n      dup2\n      mstore\n      swap1\n      0x01\n      add\n      swap1\n      0x20\n      add\n      dup1\n      dup4\n      gt\n      tag_139\n      jumpi\n      dup3\n      swap1\n      sub\n      0x1f\n      and\n      dup3\n      add\n      swap2\n    tag_137:\n      pop\n      pop\n      pop\n      pop\n      pop\n      swap1\n      pop\n        /* \"@openzeppelin/contracts/token/ERC20/ERC20.sol\":2074:2163  function name() public view virtual returns (string memory) {... */\n      swap1\n      jump\t// out\n        /* \"contracts/taskControl/TaskControlWithToken.sol\":1598:1765  function setTask(address _taskAddr,uint256 _weight)external onlyOwner{... */\n    tag_51:\n        /* \"@openzeppelin/contracts/access/Ownable.sol\":1531:1544  _checkOwner() */\n      tag_141\n        /* \"@openzeppelin/contracts/access/Ownable.sol\":1531:1542  _checkOwner */\n      tag_142\n        /* \"@openzeppelin/contracts/access/Ownable.sol\":1531:1544  _checkOwner() */\n      jump\t// in\n    tag_141:\n      sub(shl(0xa0, 0x01), 0x01)\n        /* \"contracts/taskControl/TaskControlWithToken.sol\":1681:1698  _tasks[_taskAddr] */\n      dup3\n      and\n      0x00\n      dup2\n      dup2\n      mstore\n        /* \"contracts/taskControl/TaskControlWithToken.sol\":1681:1687  _tasks */\n      0x08\n        /* \"contracts/taskControl/TaskControlWithToken.sol\":1681:1698  _tasks[_taskAddr] */\n      0x20\n      swap1\n      dup2\n      mstore\n      0x40\n      swap2\n      dup3\n      swap1\n      keccak256\n        /* \"contracts/taskControl/TaskControlWithToken.sol\":1681:1708  _tasks[_taskAddr] = _weight */\n      dup5\n      swap1\n      sstore\n        /* \"contracts/taskControl/TaskControlWithToken.sol\":1727:1754  TaskAdd(_taskAddr, _weight) */\n      dup2\n      mload\n        /* \"#utility.yul\":7592:7643   */\n      swap3\n      dup4\n      mstore\n        /* \"#utility.yul\":7659:7677   */\n      dup3\n      add\n        /* \"#utility.yul\":7652:7686   */\n      dup4\n      swap1\n      mstore\n        /* \"contracts/taskControl/TaskControlWithToken.sol\":1727:1754  TaskAdd(_taskAddr, _weight) */\n      0xd7d0cdf0b13669cab92566615f9093d52f6d2c34cc92561e500dddd3ae918de8\n      swap2\n        /* \"#utility.yul\":7565:7583   */\n      add\n        /* \"contracts/taskControl/TaskControlWithToken.sol\":1727:1754  TaskAdd(_taskAddr, _weight) */\n      mload(0x40)\n      dup1\n      swap2\n      sub\n      swap1\n      log1\n        /* \"contracts/taskControl/TaskControlWithToken.sol\":1598:1765  function setTask(address _taskAddr,uint256 _weight)external onlyOwner{... */\n      pop\n      pop\n      jump\t// out\n        /* \"@openzeppelin/contracts/token/ERC20/ERC20.sol\":4293:4479  function approve(address spender, uint256 value) public virtual returns (bool) {... */\n    tag_54:\n        /* \"@openzeppelin/contracts/token/ERC20/ERC20.sol\":4366:4370  bool */\n      0x00\n        /* \"@openzeppelin/contracts/utils/Context.sol\":735:745  msg.sender */\n      caller\n        /* \"@openzeppelin/contracts/token/ERC20/ERC20.sol\":4420:4451  _approve(owner, spender, value) */\n      tag_149\n        /* \"@openzeppelin/contracts/utils/Context.sol\":735:745  msg.sender */\n      dup2\n        /* \"@openzeppelin/contracts/token/ERC20/ERC20.sol\":4436:4443  spender */\n      dup6\n        /* \"@openzeppelin/contracts/token/ERC20/ERC20.sol\":4445:4450  value */\n      dup6\n        /* \"@openzeppelin/contracts/token/ERC20/ERC20.sol\":4420:4428  _approve */\n      tag_150\n        /* \"@openzeppelin/contracts/token/ERC20/ERC20.sol\":4420:4451  _approve(owner, spender, value) */\n      jump\t// in\n    tag_149:\n        /* \"@openzeppelin/contracts/token/ERC20/ERC20.sol\":4468:4472  true */\n      0x01\n        /* \"@openzeppelin/contracts/token/ERC20/ERC20.sol\":4461:4472  return true */\n      swap2\n      pop\n      pop\n        /* \"@openzeppelin/contracts/token/ERC20/ERC20.sol\":4293:4479  function approve(address spender, uint256 value) public virtual returns (bool) {... */\n    tag_146:\n      swap3\n      swap2\n      pop\n      pop\n      jump\t// out\n        /* \"@openzeppelin/contracts/token/ERC20/ERC20.sol\":5039:5283  function transferFrom(address from, address to, uint256 value) public virtual returns (bool) {... */\n    tag_62:\n        /* \"@openzeppelin/contracts/token/ERC20/ERC20.sol\":5126:5130  bool */\n      0x00\n        /* \"@openzeppelin/contracts/utils/Context.sol\":735:745  msg.sender */\n      caller\n        /* \"@openzeppelin/contracts/token/ERC20/ERC20.sol\":5182:5219  _spendAllowance(from, spender, value) */\n      tag_154\n        /* \"@openzeppelin/contracts/token/ERC20/ERC20.sol\":5198:5202  from */\n      dup6\n        /* \"@openzeppelin/contracts/utils/Context.sol\":735:745  msg.sender */\n      dup3\n        /* \"@openzeppelin/contracts/token/ERC20/ERC20.sol\":5213:5218  value */\n      dup6\n        /* \"@openzeppelin/contracts/token/ERC20/ERC20.sol\":5182:5197  _spendAllowance */\n      tag_155\n        /* \"@openzeppelin/contracts/token/ERC20/ERC20.sol\":5182:5219  _spendAllowance(from, spender, value) */\n      jump\t// in\n    tag_154:\n        /* \"@openzeppelin/contracts/token/ERC20/ERC20.sol\":5229:5255  _transfer(from, to, value) */\n      tag_156\n        /* \"@openzeppelin/contracts/token/ERC20/ERC20.sol\":5239:5243  from */\n      dup6\n        /* \"@openzeppelin/contracts/token/ERC20/ERC20.sol\":5245:5247  to */\n      dup6\n        /* \"@openzeppelin/contracts/token/ERC20/ERC20.sol\":5249:5254  value */\n      dup6\n        /* \"@openzeppelin/contracts/token/ERC20/ERC20.sol\":5229:5238  _transfer */\n      tag_157\n        /* \"@openzeppelin/contracts/token/ERC20/ERC20.sol\":5229:5255  _transfer(from, to, value) */\n      jump\t// in\n    tag_156:\n      pop\n        /* \"@openzeppelin/contracts/token/ERC20/ERC20.sol\":5272:5276  true */\n      0x01\n      swap5\n        /* \"@openzeppelin/contracts/token/ERC20/ERC20.sol\":5039:5283  function transferFrom(address from, address to, uint256 value) public virtual returns (bool) {... */\n      swap4\n      pop\n      pop\n      pop\n      pop\n      jump\t// out\n        /* \"@openzeppelin/contracts/token/ERC20/extensions/ERC20Burnable.sol\":618:705  function burn(uint256 value) public virtual {... */\n    tag_71:\n        /* \"@openzeppelin/contracts/token/ERC20/extensions/ERC20Burnable.sol\":672:698  _burn(_msgSender(), value) */\n      tag_160\n        /* \"@openzeppelin/contracts/utils/Context.sol\":735:745  msg.sender */\n      caller\n        /* \"@openzeppelin/contracts/token/ERC20/extensions/ERC20Burnable.sol\":692:697  value */\n      dup3\n        /* \"@openzeppelin/contracts/token/ERC20/extensions/ERC20Burnable.sol\":672:677  _burn */\n      tag_162\n        /* \"@openzeppelin/contracts/token/ERC20/extensions/ERC20Burnable.sol\":672:698  _burn(_msgSender(), value) */\n      jump\t// in\n    tag_160:\n        /* \"@openzeppelin/contracts/token/ERC20/extensions/ERC20Burnable.sol\":618:705  function burn(uint256 value) public virtual {... */\n      pop\n      jump\t// out\n        /* \"contracts/taskControl/TaskControlWithToken.sol\":3709:4116  function getTicketFrom(uint256 _id,address _fromAddress,address _receiveAddress,uint256 _ticketNumbers)external virtual override {... */\n    tag_75:\n        /* \"contracts/taskControl/TaskControlWithToken.sol\":3852:3866  uint256 amount */\n      0x00\n        /* \"contracts/taskControl/TaskControlWithToken.sol\":3886:3902  10 ** decimals() */\n      tag_165\n        /* \"@openzeppelin/contracts/token/ERC20/ERC20.sol\":3075:3077  18 */\n      0x12\n        /* \"contracts/taskControl/TaskControlWithToken.sol\":3886:3888  10 */\n      0x0a\n        /* \"contracts/taskControl/TaskControlWithToken.sol\":3886:3902  10 ** decimals() */\n      tag_124\n      jump\t// in\n    tag_165:\n        /* \"contracts/taskControl/TaskControlWithToken.sol\":3869:3902  _ticketNumbers * 10 ** decimals() */\n      tag_166\n      swap1\n        /* \"contracts/taskControl/TaskControlWithToken.sol\":3869:3883  _ticketNumbers */\n      dup4\n        /* \"contracts/taskControl/TaskControlWithToken.sol\":3869:3902  _ticketNumbers * 10 ** decimals() */\n      tag_126\n      jump\t// in\n    tag_166:\n        /* \"contracts/taskControl/TaskControlWithToken.sol\":3852:3902  uint256 amount = _ticketNumbers * 10 ** decimals() */\n      swap1\n      pop\n        /* \"contracts/taskControl/TaskControlWithToken.sol\":3916:3945  burnFrom(_fromAddress,amount) */\n      tag_167\n        /* \"contracts/taskControl/TaskControlWithToken.sol\":3925:3937  _fromAddress */\n      dup5\n        /* \"contracts/taskControl/TaskControlWithToken.sol\":3938:3944  amount */\n      dup3\n        /* \"contracts/taskControl/TaskControlWithToken.sol\":3916:3924  burnFrom */\n      tag_84\n        /* \"contracts/taskControl/TaskControlWithToken.sol\":3916:3945  burnFrom(_fromAddress,amount) */\n      jump\t// in\n    tag_167:\n        /* \"contracts/taskControl/TaskControlWithToken.sol\":3959:3967  bool buy */\n      0x00\n        /* \"contracts/taskControl/TaskControlWithToken.sol\":3970:4016  _getTicket(_id,_receiveAddress,_ticketNumbers) */\n      tag_168\n        /* \"contracts/taskControl/TaskControlWithToken.sol\":3981:3984  _id */\n      dup7\n        /* \"contracts/taskControl/TaskControlWithToken.sol\":3985:4000  _receiveAddress */\n      dup6\n        /* \"contracts/taskControl/TaskControlWithToken.sol\":4001:4015  _ticketNumbers */\n      dup6\n        /* \"contracts/taskControl/TaskControlWithToken.sol\":3970:3980  _getTicket */\n      tag_129\n        /* \"contracts/taskControl/TaskControlWithToken.sol\":3970:4016  _getTicket(_id,_receiveAddress,_ticketNumbers) */\n      jump\t// in\n    tag_168:\n        /* \"contracts/taskControl/TaskControlWithToken.sol\":4036:4105  TicketGet(_id,_fromAddress,_receiveAddress,amount,_ticketNumbers,buy) */\n      0x40\n      dup1\n      mload\n        /* \"#utility.yul\":6708:6733   */\n      dup9\n      dup2\n      mstore\n      sub(shl(0xa0, 0x01), 0x01)\n        /* \"#utility.yul\":6807:6822   */\n      dup9\n      dup2\n      and\n        /* \"#utility.yul\":6802:6804   */\n      0x20\n        /* \"#utility.yul\":6787:6805   */\n      dup4\n      add\n        /* \"#utility.yul\":6780:6823   */\n      mstore\n        /* \"#utility.yul\":6859:6874   */\n      dup8\n      and\n        /* \"#utility.yul\":6839:6857   */\n      dup2\n      dup4\n      add\n        /* \"#utility.yul\":6832:6875   */\n      mstore\n        /* \"#utility.yul\":6906:6908   */\n      0x60\n        /* \"#utility.yul\":6891:6909   */\n      dup2\n      add\n        /* \"#utility.yul\":6884:6918   */\n      dup6\n      swap1\n      mstore\n        /* \"#utility.yul\":6949:6952   */\n      0x80\n        /* \"#utility.yul\":6934:6953   */\n      dup2\n      add\n        /* \"#utility.yul\":6927:6962   */\n      dup7\n      swap1\n      mstore\n        /* \"#utility.yul\":7006:7020   */\n      dup3\n      iszero\n        /* \"#utility.yul\":6999:7021   */\n      iszero\n        /* \"#utility.yul\":6760:6763   */\n      0xa0\n        /* \"#utility.yul\":6978:6997   */\n      dup3\n      add\n        /* \"#utility.yul\":6971:7022   */\n      mstore\n        /* \"contracts/taskControl/TaskControlWithToken.sol\":4036:4105  TicketGet(_id,_fromAddress,_receiveAddress,amount,_ticketNumbers,buy) */\n      swap1\n      mload\n        /* \"#utility.yul\":7006:7020   */\n      swap2\n      swap3\n      pop\n        /* \"contracts/taskControl/TaskControlWithToken.sol\":4036:4105  TicketGet(_id,_fromAddress,_receiveAddress,amount,_ticketNumbers,buy) */\n      0xebc14ddbdd1e1ebc5a287d8957bd1ca84faef18f192f27829b8459fd15f5195d\n      swap2\n      swap1\n      dup2\n      swap1\n      sub\n        /* \"#utility.yul\":6695:6698   */\n      0xc0\n        /* \"contracts/taskControl/TaskControlWithToken.sol\":4036:4105  TicketGet(_id,_fromAddress,_receiveAddress,amount,_ticketNumbers,buy) */\n      add\n      swap1\n      log1\n        /* \"contracts/taskControl/TaskControlWithToken.sol\":3838:4116  {... */\n      pop\n      pop\n        /* \"contracts/taskControl/TaskControlWithToken.sol\":3709:4116  function getTicketFrom(uint256 _id,address _fromAddress,address _receiveAddress,uint256 _ticketNumbers)external virtual override {... */\n      pop\n      pop\n      pop\n      pop\n      jump\t// out\n        /* \"@openzeppelin/contracts/access/Ownable.sol\":2293:2394  function renounceOwnership() public virtual onlyOwner {... */\n    tag_81:\n        /* \"@openzeppelin/contracts/access/Ownable.sol\":1531:1544  _checkOwner() */\n      tag_172\n        /* \"@openzeppelin/contracts/access/Ownable.sol\":1531:1542  _checkOwner */\n      tag_142\n        /* \"@openzeppelin/contracts/access/Ownable.sol\":1531:1544  _checkOwner() */\n      jump\t// in\n    tag_172:\n        /* \"@openzeppelin/contracts/access/Ownable.sol\":2357:2387  _transferOwnership(address(0)) */\n      tag_174\n        /* \"@openzeppelin/contracts/access/Ownable.sol\":2384:2385  0 */\n      0x00\n        /* \"@openzeppelin/contracts/access/Ownable.sol\":2357:2375  _transferOwnership */\n      tag_175\n        /* \"@openzeppelin/contracts/access/Ownable.sol\":2357:2387  _transferOwnership(address(0)) */\n      jump\t// in\n    tag_174:\n        /* \"@openzeppelin/contracts/access/Ownable.sol\":2293:2394  function renounceOwnership() public virtual onlyOwner {... */\n      jump\t// out\n        /* \"@openzeppelin/contracts/token/ERC20/extensions/ERC20Burnable.sol\":1021:1179  function burnFrom(address account, uint256 value) public virtual {... */\n    tag_84:\n        /* \"@openzeppelin/contracts/token/ERC20/extensions/ERC20Burnable.sol\":1096:1141  _spendAllowance(account, _msgSender(), value) */\n      tag_177\n        /* \"@openzeppelin/contracts/token/ERC20/extensions/ERC20Burnable.sol\":1112:1119  account */\n      dup3\n        /* \"@openzeppelin/contracts/utils/Context.sol\":735:745  msg.sender */\n      caller\n        /* \"@openzeppelin/contracts/token/ERC20/extensions/ERC20Burnable.sol\":1135:1140  value */\n      dup4\n        /* \"@openzeppelin/contracts/token/ERC20/extensions/ERC20Burnable.sol\":1096:1111  _spendAllowance */\n      tag_155\n        /* \"@openzeppelin/contracts/token/ERC20/extensions/ERC20Burnable.sol\":1096:1141  _spendAllowance(account, _msgSender(), value) */\n      jump\t// in\n    tag_177:\n        /* \"@openzeppelin/contracts/token/ERC20/extensions/ERC20Burnable.sol\":1151:1172  _burn(account, value) */\n      tag_179\n        /* \"@openzeppelin/contracts/token/ERC20/extensions/ERC20Burnable.sol\":1157:1164  account */\n      dup3\n        /* \"@openzeppelin/contracts/token/ERC20/extensions/ERC20Burnable.sol\":1166:1171  value */\n      dup3\n        /* \"@openzeppelin/contracts/token/ERC20/extensions/ERC20Burnable.sol\":1151:1156  _burn */\n      tag_162\n        /* \"@openzeppelin/contracts/token/ERC20/extensions/ERC20Burnable.sol\":1151:1172  _burn(account, value) */\n      jump\t// in\n    tag_179:\n        /* \"@openzeppelin/contracts/token/ERC20/extensions/ERC20Burnable.sol\":1021:1179  function burnFrom(address account, uint256 value) public virtual {... */\n      pop\n      pop\n      jump\t// out\n        /* \"@openzeppelin/contracts/token/ERC20/ERC20.sol\":2276:2369  function symbol() public view virtual returns (string memory) {... */\n    tag_90:\n        /* \"@openzeppelin/contracts/token/ERC20/ERC20.sol\":2323:2336  string memory */\n      0x60\n        /* \"@openzeppelin/contracts/token/ERC20/ERC20.sol\":2355:2362  _symbol */\n      0x04\n        /* \"@openzeppelin/contracts/token/ERC20/ERC20.sol\":2348:2362  return _symbol */\n      dup1\n      sload\n      tag_134\n      swap1\n      tag_135\n      jump\t// in\n        /* \"@openzeppelin/contracts/token/ERC20/ERC20.sol\":3610:3788  function transfer(address to, uint256 value) public virtual returns (bool) {... */\n    tag_94:\n        /* \"@openzeppelin/contracts/token/ERC20/ERC20.sol\":3679:3683  bool */\n      0x00\n        /* \"@openzeppelin/contracts/utils/Context.sol\":735:745  msg.sender */\n      caller\n        /* \"@openzeppelin/contracts/token/ERC20/ERC20.sol\":3733:3760  _transfer(owner, to, value) */\n      tag_149\n        /* \"@openzeppelin/contracts/utils/Context.sol\":735:745  msg.sender */\n      dup2\n        /* \"@openzeppelin/contracts/token/ERC20/ERC20.sol\":3750:3752  to */\n      dup6\n        /* \"@openzeppelin/contracts/token/ERC20/ERC20.sol\":3754:3759  value */\n      dup6\n        /* \"@openzeppelin/contracts/token/ERC20/ERC20.sol\":3733:3742  _transfer */\n      tag_157\n        /* \"@openzeppelin/contracts/token/ERC20/ERC20.sol\":3733:3760  _transfer(owner, to, value) */\n      jump\t// in\n        /* \"contracts/taskControl/TaskControlWithToken.sol\":1901:2392  function mintToken(address _taskAddr,address _receiveAddress,bytes calldata _data) external virtual override nonReentrant{... */\n    tag_105:\n        /* \"@openzeppelin/contracts/utils/ReentrancyGuard.sol\":2356:2377  _nonReentrantBefore() */\n      tag_191\n        /* \"@openzeppelin/contracts/utils/ReentrancyGuard.sol\":2356:2375  _nonReentrantBefore */\n      tag_192\n        /* \"@openzeppelin/contracts/utils/ReentrancyGuard.sol\":2356:2377  _nonReentrantBefore() */\n      jump\t// in\n    tag_191:\n      sub(shl(0xa0, 0x01), 0x01)\n        /* \"contracts/taskControl/TaskControlWithToken.sol\":2044:2061  _tasks[_taskAddr] */\n      dup5\n      and\n      0x00\n      swap1\n      dup2\n      mstore\n        /* \"contracts/taskControl/TaskControlWithToken.sol\":2044:2050  _tasks */\n      0x08\n        /* \"contracts/taskControl/TaskControlWithToken.sol\":2044:2061  _tasks[_taskAddr] */\n      0x20\n      mstore\n      0x40\n      dup2\n      keccak256\n      sload\n        /* \"contracts/taskControl/TaskControlWithToken.sol\":2044:2066  _tasks[_taskAddr] != 0 */\n      swap1\n      sub\n        /* \"contracts/taskControl/TaskControlWithToken.sol\":2036:2084  require(_tasks[_taskAddr] != 0,\"no set as task\") */\n      tag_194\n      jumpi\n      mload(0x40)\n      shl(0xe5, 0x461bcd)\n      dup2\n      mstore\n        /* \"#utility.yul\":7899:7901   */\n      0x20\n        /* \"contracts/taskControl/TaskControlWithToken.sol\":2036:2084  require(_tasks[_taskAddr] != 0,\"no set as task\") */\n      0x04\n      dup3\n      add\n        /* \"#utility.yul\":7881:7902   */\n      mstore\n        /* \"#utility.yul\":7938:7940   */\n      0x0e\n        /* \"#utility.yul\":7918:7936   */\n      0x24\n      dup3\n      add\n        /* \"#utility.yul\":7911:7941   */\n      mstore\n      shl(0x90, 0x6e6f20736574206173207461736b)\n        /* \"#utility.yul\":7957:7975   */\n      0x44\n      dup3\n      add\n        /* \"#utility.yul\":7950:7994   */\n      mstore\n        /* \"#utility.yul\":8011:8029   */\n      0x64\n      add\n        /* \"contracts/taskControl/TaskControlWithToken.sol\":2036:2084  require(_tasks[_taskAddr] != 0,\"no set as task\") */\n    tag_195:\n      mload(0x40)\n      dup1\n      swap2\n      sub\n      swap1\n      revert\n    tag_194:\n      sub(shl(0xa0, 0x01), 0x01)\n        /* \"contracts/taskControl/TaskControlWithToken.sol\":2238:2255  _tasks[_taskAddr] */\n      dup5\n      and\n        /* \"contracts/taskControl/TaskControlWithToken.sol\":2160:2174  uint256 amount */\n      0x00\n        /* \"contracts/taskControl/TaskControlWithToken.sol\":2238:2255  _tasks[_taskAddr] */\n      dup2\n      dup2\n      mstore\n        /* \"contracts/taskControl/TaskControlWithToken.sol\":2238:2244  _tasks */\n      0x08\n        /* \"contracts/taskControl/TaskControlWithToken.sol\":2238:2255  _tasks[_taskAddr] */\n      0x20\n      mstore\n      0x40\n      dup1\n      dup3\n      keccak256\n      sload\n        /* \"contracts/taskControl/TaskControlWithToken.sol\":2177:2235  ItaskCallee(_taskAddr).taskCall(address(msg.sender),_data) */\n      swap1\n      mload\n      shl(0xe1, 0x70d64693)\n      dup2\n      mstore\n        /* \"contracts/taskControl/TaskControlWithToken.sol\":2160:2174  uint256 amount */\n      swap2\n      swap3\n        /* \"contracts/taskControl/TaskControlWithToken.sol\":2238:2255  _tasks[_taskAddr] */\n      swap1\n      swap2\n        /* \"contracts/taskControl/TaskControlWithToken.sol\":2177:2208  ItaskCallee(_taskAddr).taskCall */\n      0xe1ac8d26\n      swap1\n        /* \"contracts/taskControl/TaskControlWithToken.sol\":2177:2235  ItaskCallee(_taskAddr).taskCall(address(msg.sender),_data) */\n      tag_197\n      swap1\n        /* \"contracts/taskControl/TaskControlWithToken.sol\":2217:2227  msg.sender */\n      caller\n      swap1\n        /* \"contracts/taskControl/TaskControlWithToken.sol\":2229:2234  _data */\n      dup9\n      swap1\n      dup9\n      swap1\n        /* \"contracts/taskControl/TaskControlWithToken.sol\":2177:2235  ItaskCallee(_taskAddr).taskCall(address(msg.sender),_data) */\n      0x04\n      add\n      tag_198\n      jump\t// in\n    tag_197:\n      0x20\n      mload(0x40)\n      dup1\n      dup4\n      sub\n      dup2\n      0x00\n      dup8\n      gas\n      call\n      iszero\n      dup1\n      iszero\n      tag_200\n      jumpi\n      returndatasize\n      0x00\n      dup1\n      returndatacopy\n      revert(0x00, returndatasize)\n    tag_200:\n      pop\n      pop\n      pop\n      pop\n      mload(0x40)\n      returndatasize\n      not(0x1f)\n      0x1f\n      dup3\n      add\n      and\n      dup3\n      add\n      dup1\n      0x40\n      mstore\n      pop\n      dup2\n      add\n      swap1\n      tag_201\n      swap2\n      swap1\n      tag_202\n      jump\t// in\n    tag_201:\n        /* \"contracts/taskControl/TaskControlWithToken.sol\":2177:2255  ItaskCallee(_taskAddr).taskCall(address(msg.sender),_data) * _tasks[_taskAddr] */\n      tag_203\n      swap2\n      swap1\n      tag_126\n      jump\t// in\n    tag_203:\n        /* \"contracts/taskControl/TaskControlWithToken.sol\":2160:2255  uint256 amount = ItaskCallee(_taskAddr).taskCall(address(msg.sender),_data) * _tasks[_taskAddr] */\n      swap1\n      pop\n        /* \"contracts/taskControl/TaskControlWithToken.sol\":2269:2299  _mint(_receiveAddress, amount) */\n      tag_204\n        /* \"contracts/taskControl/TaskControlWithToken.sol\":2275:2290  _receiveAddress */\n      dup5\n        /* \"contracts/taskControl/TaskControlWithToken.sol\":2292:2298  amount */\n      dup3\n        /* \"contracts/taskControl/TaskControlWithToken.sol\":2269:2274  _mint */\n      tag_205\n        /* \"contracts/taskControl/TaskControlWithToken.sol\":2269:2299  _mint(_receiveAddress, amount) */\n      jump\t// in\n    tag_204:\n        /* \"contracts/taskControl/TaskControlWithToken.sol\":2318:2381  TokenMint(address(msg.sender),_taskAddr,_receiveAddress,amount) */\n      0x40\n      dup1\n      mload\n        /* \"contracts/taskControl/TaskControlWithToken.sol\":2336:2346  msg.sender */\n      caller\n        /* \"#utility.yul\":8988:9022   */\n      dup2\n      mstore\n      sub(shl(0xa0, 0x01), 0x01)\n        /* \"#utility.yul\":9058:9073   */\n      dup8\n      dup2\n      and\n        /* \"#utility.yul\":9053:9055   */\n      0x20\n        /* \"#utility.yul\":9038:9056   */\n      dup4\n      add\n        /* \"#utility.yul\":9031:9074   */\n      mstore\n        /* \"#utility.yul\":9110:9125   */\n      dup7\n      and\n        /* \"#utility.yul\":9090:9108   */\n      dup2\n      dup4\n      add\n        /* \"#utility.yul\":9083:9126   */\n      mstore\n        /* \"#utility.yul\":9157:9159   */\n      0x60\n        /* \"#utility.yul\":9142:9160   */\n      dup2\n      add\n        /* \"#utility.yul\":9135:9169   */\n      dup4\n      swap1\n      mstore\n        /* \"contracts/taskControl/TaskControlWithToken.sol\":2318:2381  TokenMint(address(msg.sender),_taskAddr,_receiveAddress,amount) */\n      swap1\n      mload\n      0x4d914fbdb28a885441bb0f6e06bb01dfdfe8a8b6902391853b46eb747ae136ef\n      swap2\n      dup2\n      swap1\n      sub\n        /* \"#utility.yul\":8937:8940   */\n      0x80\n        /* \"contracts/taskControl/TaskControlWithToken.sol\":2318:2381  TokenMint(address(msg.sender),_taskAddr,_receiveAddress,amount) */\n      add\n      swap1\n      log1\n        /* \"contracts/taskControl/TaskControlWithToken.sol\":2022:2392  {... */\n      pop\n        /* \"@openzeppelin/contracts/utils/ReentrancyGuard.sol\":2398:2418  _nonReentrantAfter() */\n      tag_208\n        /* \"@openzeppelin/contracts/utils/ReentrancyGuard.sol\":1713:1714  1 */\n      0x01\n        /* \"@openzeppelin/contracts/utils/ReentrancyGuard.sol\":2924:2931  _status */\n      0x05\n        /* \"@openzeppelin/contracts/utils/ReentrancyGuard.sol\":2924:2945  _status = NOT_ENTERED */\n      sstore\n        /* \"@openzeppelin/contracts/utils/ReentrancyGuard.sol\":2744:2952  function _nonReentrantAfter() private {... */\n      jump\n        /* \"@openzeppelin/contracts/utils/ReentrancyGuard.sol\":2398:2418  _nonReentrantAfter() */\n    tag_208:\n        /* \"contracts/taskControl/TaskControlWithToken.sol\":1901:2392  function mintToken(address _taskAddr,address _receiveAddress,bytes calldata _data) external virtual override nonReentrant{... */\n      pop\n      pop\n      pop\n      pop\n      jump\t// out\n        /* \"contracts/taskControl/TaskControlWithToken.sol\":4158:4304  function withdraw(address _token,address _to,uint256 _value)external virtual onlyOwner{... */\n    tag_108:\n        /* \"@openzeppelin/contracts/access/Ownable.sol\":1531:1544  _checkOwner() */\n      tag_211\n        /* \"@openzeppelin/contracts/access/Ownable.sol\":1531:1542  _checkOwner */\n      tag_142\n        /* \"@openzeppelin/contracts/access/Ownable.sol\":1531:1544  _checkOwner() */\n      jump\t// in\n    tag_211:\n        /* \"contracts/taskControl/TaskControlWithToken.sol\":4258:4293  IERC20(_token).transfer(_to,_value) */\n      mload(0x40)\n      shl(0xe0, 0xa9059cbb)\n      dup2\n      mstore\n      sub(shl(0xa0, 0x01), 0x01)\n        /* \"#utility.yul\":7610:7642   */\n      dup4\n      dup2\n      and\n        /* \"contracts/taskControl/TaskControlWithToken.sol\":4258:4293  IERC20(_token).transfer(_to,_value) */\n      0x04\n      dup4\n      add\n        /* \"#utility.yul\":7592:7643   */\n      mstore\n        /* \"#utility.yul\":7659:7677   */\n      0x24\n      dup3\n      add\n        /* \"#utility.yul\":7652:7686   */\n      dup4\n      swap1\n      mstore\n        /* \"contracts/taskControl/TaskControlWithToken.sol\":4258:4281  IERC20(_token).transfer */\n      dup5\n      and\n      swap1\n      0xa9059cbb\n      swap1\n        /* \"#utility.yul\":7565:7583   */\n      0x44\n      add\n        /* \"contracts/taskControl/TaskControlWithToken.sol\":4258:4293  IERC20(_token).transfer(_to,_value) */\n      0x20\n      mload(0x40)\n      dup1\n      dup4\n      sub\n      dup2\n      0x00\n      dup8\n      gas\n      call\n      iszero\n      dup1\n      iszero\n      tag_215\n      jumpi\n      returndatasize\n      0x00\n      dup1\n      returndatacopy\n      revert(0x00, returndatasize)\n    tag_215:\n      pop\n      pop\n      pop\n      pop\n      mload(0x40)\n      returndatasize\n      not(0x1f)\n      0x1f\n      dup3\n      add\n      and\n      dup3\n      add\n      dup1\n      0x40\n      mstore\n      pop\n      dup2\n      add\n      swap1\n      tag_208\n      swap2\n      swap1\n      tag_217\n      jump\t// in\n        /* \"@openzeppelin/contracts/access/Ownable.sol\":2543:2758  function transferOwnership(address newOwner) public virtual onlyOwner {... */\n    tag_120:\n        /* \"@openzeppelin/contracts/access/Ownable.sol\":1531:1544  _checkOwner() */\n      tag_220\n        /* \"@openzeppelin/contracts/access/Ownable.sol\":1531:1542  _checkOwner */\n      tag_142\n        /* \"@openzeppelin/contracts/access/Ownable.sol\":1531:1544  _checkOwner() */\n      jump\t// in\n    tag_220:\n      sub(shl(0xa0, 0x01), 0x01)\n        /* \"@openzeppelin/contracts/access/Ownable.sol\":2627:2649  newOwner == address(0) */\n      dup2\n      and\n        /* \"@openzeppelin/contracts/access/Ownable.sol\":2623:2714  if (newOwner == address(0)) {... */\n      tag_222\n      jumpi\n        /* \"@openzeppelin/contracts/access/Ownable.sol\":2672:2703  OwnableInvalidOwner(address(0)) */\n      mload(0x40)\n      shl(0xe0, 0x1e4fbdf7)\n      dup2\n      mstore\n        /* \"@openzeppelin/contracts/access/Ownable.sol\":2700:2701  0 */\n      0x00\n        /* \"@openzeppelin/contracts/access/Ownable.sol\":2672:2703  OwnableInvalidOwner(address(0)) */\n      0x04\n      dup3\n      add\n        /* \"#utility.yul\":3418:3469   */\n      mstore\n        /* \"#utility.yul\":3391:3409   */\n      0x24\n      add\n        /* \"@openzeppelin/contracts/access/Ownable.sol\":2672:2703  OwnableInvalidOwner(address(0)) */\n      tag_195\n        /* \"#utility.yul\":3272:3475   */\n      jump\n        /* \"@openzeppelin/contracts/access/Ownable.sol\":2623:2714  if (newOwner == address(0)) {... */\n    tag_222:\n        /* \"@openzeppelin/contracts/access/Ownable.sol\":2723:2751  _transferOwnership(newOwner) */\n      tag_160\n        /* \"@openzeppelin/contracts/access/Ownable.sol\":2742:2750  newOwner */\n      dup2\n        /* \"@openzeppelin/contracts/access/Ownable.sol\":2723:2741  _transferOwnership */\n      tag_175\n        /* \"@openzeppelin/contracts/access/Ownable.sol\":2723:2751  _transferOwnership(newOwner) */\n      jump\t// in\n        /* \"contracts/taskControl/TaskControlWithToken.sol\":2402:3318  function _getTicket(uint256 _id,address _receiveAddress,uint256 _ticketNumbers)internal returns(bool){... */\n    tag_129:\n        /* \"contracts/taskControl/TaskControlWithToken.sol\":2592:2607  redEnvelopeAddr */\n      sload(0x07)\n        /* \"contracts/taskControl/TaskControlWithToken.sol\":2579:2629  IRedEnvelope(redEnvelopeAddr).viewRedEnvelope(_id) */\n      mload(0x40)\n      shl(0xe0, 0x8f91cd17)\n      dup2\n      mstore\n      0x04\n      dup2\n      add\n        /* \"#utility.yul\":936:961   */\n      dup6\n      swap1\n      mstore\n        /* \"contracts/taskControl/TaskControlWithToken.sol\":2498:2502  bool */\n      0x00\n      swap2\n        /* \"contracts/taskControl/TaskControlWithToken.sol\":2528:2532  true */\n      0x01\n      swap2\n        /* \"contracts/taskControl/TaskControlWithToken.sol\":2498:2502  bool */\n      dup4\n      swap2\n      sub(shl(0xa0, 0x01), 0x01)\n        /* \"contracts/taskControl/TaskControlWithToken.sol\":2592:2607  redEnvelopeAddr */\n      and\n      swap1\n        /* \"contracts/taskControl/TaskControlWithToken.sol\":2579:2624  IRedEnvelope(redEnvelopeAddr).viewRedEnvelope */\n      0x8f91cd17\n      swap1\n        /* \"#utility.yul\":909:927   */\n      0x24\n      add\n        /* \"contracts/taskControl/TaskControlWithToken.sol\":2579:2629  IRedEnvelope(redEnvelopeAddr).viewRedEnvelope(_id) */\n      0x01e0\n      mload(0x40)\n      dup1\n      dup4\n      sub\n      dup2\n      dup7\n      gas\n      staticcall\n      iszero\n      dup1\n      iszero\n      tag_228\n      jumpi\n      returndatasize\n      0x00\n      dup1\n      returndatacopy\n      revert(0x00, returndatasize)\n    tag_228:\n      pop\n      pop\n      pop\n      pop\n      mload(0x40)\n      returndatasize\n      not(0x1f)\n      0x1f\n      dup3\n      add\n      and\n      dup3\n      add\n      dup1\n      0x40\n      mstore\n      pop\n      dup2\n      add\n      swap1\n      tag_229\n      swap2\n      swap1\n      tag_230\n      jump\t// in\n    tag_229:\n        /* \"contracts/taskControl/TaskControlWithToken.sol\":2647:2672  redEnvelope.sendAllowAddr */\n      0x0180\n      dup2\n      add\n      mload\n        /* \"contracts/taskControl/TaskControlWithToken.sol\":2546:2629  RedEnvelope memory redEnvelope = IRedEnvelope(redEnvelopeAddr).viewRedEnvelope(_id) */\n      swap1\n      swap2\n      pop\n      sub(shl(0xa0, 0x01), 0x01)\n        /* \"contracts/taskControl/TaskControlWithToken.sol\":2647:2686  redEnvelope.sendAllowAddr == address(0) */\n      and\n        /* \"contracts/taskControl/TaskControlWithToken.sol\":2643:3284  if (redEnvelope.sendAllowAddr == address(0)){      ... */\n      tag_231\n      jumpi\n        /* \"contracts/taskControl/TaskControlWithToken.sol\":2719:2733  allowBuyTicket */\n      sload(0x07)\n      shl(0xa0, 0x01)\n      swap1\n      div\n      0xff\n      and\n        /* \"contracts/taskControl/TaskControlWithToken.sol\":2719:2741  allowBuyTicket == true */\n      iszero\n      iszero\n        /* \"contracts/taskControl/TaskControlWithToken.sol\":2737:2741  true */\n      0x01\n        /* \"contracts/taskControl/TaskControlWithToken.sol\":2719:2741  allowBuyTicket == true */\n      eq\n        /* \"contracts/taskControl/TaskControlWithToken.sol\":2711:2765  require(allowBuyTicket == true, \"buy ticket no allow\") */\n      tag_232\n      jumpi\n      mload(0x40)\n      shl(0xe5, 0x461bcd)\n      dup2\n      mstore\n        /* \"#utility.yul\":11764:11766   */\n      0x20\n        /* \"contracts/taskControl/TaskControlWithToken.sol\":2711:2765  require(allowBuyTicket == true, \"buy ticket no allow\") */\n      0x04\n      dup3\n      add\n        /* \"#utility.yul\":11746:11767   */\n      mstore\n        /* \"#utility.yul\":11803:11805   */\n      0x13\n        /* \"#utility.yul\":11783:11801   */\n      0x24\n      dup3\n      add\n        /* \"#utility.yul\":11776:11806   */\n      mstore\n      shl(0x68, 0x627579207469636b6574206e6f20616c6c6f77)\n        /* \"#utility.yul\":11822:11840   */\n      0x44\n      dup3\n      add\n        /* \"#utility.yul\":11815:11864   */\n      mstore\n        /* \"#utility.yul\":11881:11899   */\n      0x64\n      add\n        /* \"contracts/taskControl/TaskControlWithToken.sol\":2711:2765  require(allowBuyTicket == true, \"buy ticket no allow\") */\n      tag_195\n        /* \"#utility.yul\":11562:11905   */\n      jump\n        /* \"contracts/taskControl/TaskControlWithToken.sol\":2711:2765  require(allowBuyTicket == true, \"buy ticket no allow\") */\n    tag_232:\n        /* \"contracts/taskControl/TaskControlWithToken.sol\":2783:2804  uint256 approveAmount */\n      0x00\n        /* \"contracts/taskControl/TaskControlWithToken.sol\":2833:2847  _ticketNumbers */\n      dup5\n        /* \"contracts/taskControl/TaskControlWithToken.sol\":2807:2818  redEnvelope */\n      dup3\n        /* \"contracts/taskControl/TaskControlWithToken.sol\":2807:2830  redEnvelope.ticketPirce */\n      0x0160\n      add\n      mload\n        /* \"contracts/taskControl/TaskControlWithToken.sol\":2807:2847  redEnvelope.ticketPirce * _ticketNumbers */\n      tag_235\n      swap2\n      swap1\n      tag_126\n      jump\t// in\n    tag_235:\n        /* \"contracts/taskControl/TaskControlWithToken.sol\":2872:2895  redEnvelope.ticketToken */\n      dup3\n      mload\n        /* \"contracts/taskControl/TaskControlWithToken.sol\":2905:2920  redEnvelopeAddr */\n      sload(0x07)\n        /* \"contracts/taskControl/TaskControlWithToken.sol\":2865:2935  IERC20(redEnvelope.ticketToken).approve(redEnvelopeAddr,approveAmount) */\n      mload(0x40)\n      shl(0xe0, 0x095ea7b3)\n      dup2\n      mstore\n      sub(shl(0xa0, 0x01), 0x01)\n        /* \"contracts/taskControl/TaskControlWithToken.sol\":2905:2920  redEnvelopeAddr */\n      swap2\n      dup3\n      and\n        /* \"contracts/taskControl/TaskControlWithToken.sol\":2865:2935  IERC20(redEnvelope.ticketToken).approve(redEnvelopeAddr,approveAmount) */\n      0x04\n      dup3\n      add\n        /* \"#utility.yul\":7592:7643   */\n      mstore\n        /* \"#utility.yul\":7659:7677   */\n      0x24\n      dup2\n      add\n        /* \"#utility.yul\":7652:7686   */\n      dup5\n      swap1\n      mstore\n        /* \"contracts/taskControl/TaskControlWithToken.sol\":2783:2847  uint256 approveAmount = redEnvelope.ticketPirce * _ticketNumbers */\n      swap3\n      swap4\n      pop\n        /* \"contracts/taskControl/TaskControlWithToken.sol\":2865:2904  IERC20(redEnvelope.ticketToken).approve */\n      and\n      swap1\n      0x095ea7b3\n      swap1\n        /* \"#utility.yul\":7565:7583   */\n      0x44\n      add\n        /* \"contracts/taskControl/TaskControlWithToken.sol\":2865:2935  IERC20(redEnvelope.ticketToken).approve(redEnvelopeAddr,approveAmount) */\n      0x20\n      mload(0x40)\n      dup1\n      dup4\n      sub\n      dup2\n      0x00\n      dup8\n      gas\n      call\n      iszero\n      dup1\n      iszero\n      tag_238\n      jumpi\n      returndatasize\n      0x00\n      dup1\n      returndatacopy\n      revert(0x00, returndatasize)\n    tag_238:\n      pop\n      pop\n      pop\n      pop\n      mload(0x40)\n      returndatasize\n      not(0x1f)\n      0x1f\n      dup3\n      add\n      and\n      dup3\n      add\n      dup1\n      0x40\n      mstore\n      pop\n      dup2\n      add\n      swap1\n      tag_239\n      swap2\n      swap1\n      tag_217\n      jump\t// in\n    tag_239:\n      pop\n        /* \"contracts/taskControl/TaskControlWithToken.sol\":2973:2988  redEnvelopeAddr */\n      sload(0x07)\n        /* \"contracts/taskControl/TaskControlWithToken.sol\":2960:3036  IRedEnvelope(redEnvelopeAddr).buyTickets(_id,_receiveAddress,_ticketNumbers) */\n      mload(0x40)\n      shl(0xe0, 0xc5e7bb33)\n      dup2\n      mstore\n      0x04\n      dup2\n      add\n        /* \"#utility.yul\":12112:12137   */\n      dup10\n      swap1\n      mstore\n      sub(shl(0xa0, 0x01), 0x01)\n        /* \"#utility.yul\":12173:12205   */\n      dup9\n      dup2\n      and\n        /* \"#utility.yul\":12153:12171   */\n      0x24\n      dup4\n      add\n        /* \"#utility.yul\":12146:12206   */\n      mstore\n        /* \"#utility.yul\":12222:12240   */\n      0x44\n      dup3\n      add\n        /* \"#utility.yul\":12215:12249   */\n      dup9\n      swap1\n      mstore\n        /* \"contracts/taskControl/TaskControlWithToken.sol\":2973:2988  redEnvelopeAddr */\n      swap1\n      swap2\n      and\n      swap1\n        /* \"contracts/taskControl/TaskControlWithToken.sol\":2960:3000  IRedEnvelope(redEnvelopeAddr).buyTickets */\n      0xc5e7bb33\n      swap1\n        /* \"#utility.yul\":12085:12103   */\n      0x64\n      add\n        /* \"contracts/taskControl/TaskControlWithToken.sol\":2960:3036  IRedEnvelope(redEnvelopeAddr).buyTickets(_id,_receiveAddress,_ticketNumbers) */\n      0x00\n      mload(0x40)\n      dup1\n      dup4\n      sub\n      dup2\n      0x00\n      dup8\n      dup1\n      extcodesize\n      iszero\n      dup1\n      iszero\n      tag_242\n      jumpi\n      0x00\n      dup1\n      revert\n    tag_242:\n      pop\n      gas\n      call\n      iszero\n      dup1\n      iszero\n      tag_244\n      jumpi\n      returndatasize\n      0x00\n      dup1\n      returndatacopy\n      revert(0x00, returndatasize)\n    tag_244:\n      pop\n      pop\n      pop\n      pop\n        /* \"contracts/taskControl/TaskControlWithToken.sol\":2687:3051  {      ... */\n      pop\n        /* \"contracts/taskControl/TaskControlWithToken.sol\":2643:3284  if (redEnvelope.sendAllowAddr == address(0)){      ... */\n      jump(tag_245)\n    tag_231:\n        /* \"contracts/taskControl/TaskControlWithToken.sol\":3081:3096  allowSendTicket */\n      sload(0x07)\n      shl(0xa8, 0x01)\n      swap1\n      div\n      0xff\n      and\n        /* \"contracts/taskControl/TaskControlWithToken.sol\":3081:3104  allowSendTicket == true */\n      iszero\n      iszero\n        /* \"contracts/taskControl/TaskControlWithToken.sol\":3100:3104  true */\n      0x01\n        /* \"contracts/taskControl/TaskControlWithToken.sol\":3081:3104  allowSendTicket == true */\n      eq\n        /* \"contracts/taskControl/TaskControlWithToken.sol\":3073:3129  require(allowSendTicket == true, \"send ticket no allow\") */\n      tag_246\n      jumpi\n      mload(0x40)\n      shl(0xe5, 0x461bcd)\n      dup2\n      mstore\n        /* \"#utility.yul\":12462:12464   */\n      0x20\n        /* \"contracts/taskControl/TaskControlWithToken.sol\":3073:3129  require(allowSendTicket == true, \"send ticket no allow\") */\n      0x04\n      dup3\n      add\n        /* \"#utility.yul\":12444:12465   */\n      mstore\n        /* \"#utility.yul\":12501:12503   */\n      0x14\n        /* \"#utility.yul\":12481:12499   */\n      0x24\n      dup3\n      add\n        /* \"#utility.yul\":12474:12504   */\n      mstore\n      shl(0x60, 0x73656e64207469636b6574206e6f20616c6c6f77)\n        /* \"#utility.yul\":12520:12538   */\n      0x44\n      dup3\n      add\n        /* \"#utility.yul\":12513:12563   */\n      mstore\n        /* \"#utility.yul\":12580:12598   */\n      0x64\n      add\n        /* \"contracts/taskControl/TaskControlWithToken.sol\":3073:3129  require(allowSendTicket == true, \"send ticket no allow\") */\n      tag_195\n        /* \"#utility.yul\":12260:12604   */\n      jump\n        /* \"contracts/taskControl/TaskControlWithToken.sol\":3073:3129  require(allowSendTicket == true, \"send ticket no allow\") */\n    tag_246:\n        /* \"contracts/taskControl/TaskControlWithToken.sol\":3176:3191  redEnvelopeAddr */\n      sload(0x07)\n        /* \"contracts/taskControl/TaskControlWithToken.sol\":3163:3240  IRedEnvelope(redEnvelopeAddr).sendTickets(_id,_receiveAddress,_ticketNumbers) */\n      mload(0x40)\n      shl(0xe0, 0x5c42e0c5)\n      dup2\n      mstore\n      0x04\n      dup2\n      add\n        /* \"#utility.yul\":12112:12137   */\n      dup9\n      swap1\n      mstore\n      sub(shl(0xa0, 0x01), 0x01)\n        /* \"#utility.yul\":12173:12205   */\n      dup8\n      dup2\n      and\n        /* \"#utility.yul\":12153:12171   */\n      0x24\n      dup4\n      add\n        /* \"#utility.yul\":12146:12206   */\n      mstore\n        /* \"#utility.yul\":12222:12240   */\n      0x44\n      dup3\n      add\n        /* \"#utility.yul\":12215:12249   */\n      dup8\n      swap1\n      mstore\n        /* \"contracts/taskControl/TaskControlWithToken.sol\":3176:3191  redEnvelopeAddr */\n      swap1\n      swap2\n      and\n      swap1\n        /* \"contracts/taskControl/TaskControlWithToken.sol\":3163:3204  IRedEnvelope(redEnvelopeAddr).sendTickets */\n      0x5c42e0c5\n      swap1\n        /* \"#utility.yul\":12085:12103   */\n      0x64\n      add\n        /* \"contracts/taskControl/TaskControlWithToken.sol\":3163:3240  IRedEnvelope(redEnvelopeAddr).sendTickets(_id,_receiveAddress,_ticketNumbers) */\n      0x00\n      mload(0x40)\n      dup1\n      dup4\n      sub\n      dup2\n      0x00\n      dup8\n      dup1\n      extcodesize\n      iszero\n      dup1\n      iszero\n      tag_250\n      jumpi\n      0x00\n      dup1\n      revert\n    tag_250:\n      pop\n      gas\n      call\n      iszero\n      dup1\n      iszero\n      tag_252\n      jumpi\n      returndatasize\n      0x00\n      dup1\n      returndatacopy\n      revert(0x00, returndatasize)\n    tag_252:\n      pop\n      pop\n      pop\n      pop\n        /* \"contracts/taskControl/TaskControlWithToken.sol\":3264:3269  false */\n      0x00\n        /* \"contracts/taskControl/TaskControlWithToken.sol\":3258:3269  buy = false */\n      swap2\n      pop\n        /* \"contracts/taskControl/TaskControlWithToken.sol\":2643:3284  if (redEnvelope.sendAllowAddr == address(0)){      ... */\n    tag_245:\n      pop\n        /* \"contracts/taskControl/TaskControlWithToken.sol\":3304:3307  buy */\n      swap5\n        /* \"contracts/taskControl/TaskControlWithToken.sol\":2402:3318  function _getTicket(uint256 _id,address _receiveAddress,uint256 _ticketNumbers)internal returns(bool){... */\n      swap4\n      pop\n      pop\n      pop\n      pop\n      jump\t// out\n        /* \"@openzeppelin/contracts/access/Ownable.sol\":1796:1958  function _checkOwner() internal view virtual {... */\n    tag_142:\n        /* \"@openzeppelin/contracts/access/Ownable.sol\":1710:1716  _owner */\n      and(sub(shl(0xa0, 0x01), 0x01), sload(0x06))\n        /* \"@openzeppelin/contracts/utils/Context.sol\":735:745  msg.sender */\n      caller\n        /* \"@openzeppelin/contracts/access/Ownable.sol\":1855:1878  owner() != _msgSender() */\n      eq\n        /* \"@openzeppelin/contracts/access/Ownable.sol\":1851:1952  if (owner() != _msgSender()) {... */\n      tag_174\n      jumpi\n        /* \"@openzeppelin/contracts/access/Ownable.sol\":1901:1941  OwnableUnauthorizedAccount(_msgSender()) */\n      mload(0x40)\n      shl(0xe0, 0x118cdaa7)\n      dup2\n      mstore\n        /* \"@openzeppelin/contracts/utils/Context.sol\":735:745  msg.sender */\n      caller\n        /* \"@openzeppelin/contracts/access/Ownable.sol\":1901:1941  OwnableUnauthorizedAccount(_msgSender()) */\n      0x04\n      dup3\n      add\n        /* \"#utility.yul\":3418:3469   */\n      mstore\n        /* \"#utility.yul\":3391:3409   */\n      0x24\n      add\n        /* \"@openzeppelin/contracts/access/Ownable.sol\":1901:1941  OwnableUnauthorizedAccount(_msgSender()) */\n      tag_195\n        /* \"#utility.yul\":3272:3475   */\n      jump\n        /* \"@openzeppelin/contracts/token/ERC20/ERC20.sol\":8989:9117  function _approve(address owner, address spender, uint256 value) internal {... */\n    tag_150:\n        /* \"@openzeppelin/contracts/token/ERC20/ERC20.sol\":9073:9110  _approve(owner, spender, value, true) */\n      tag_261\n        /* \"@openzeppelin/contracts/token/ERC20/ERC20.sol\":9082:9087  owner */\n      dup4\n        /* \"@openzeppelin/contracts/token/ERC20/ERC20.sol\":9089:9096  spender */\n      dup4\n        /* \"@openzeppelin/contracts/token/ERC20/ERC20.sol\":9098:9103  value */\n      dup4\n        /* \"@openzeppelin/contracts/token/ERC20/ERC20.sol\":9105:9109  true */\n      0x01\n        /* \"@openzeppelin/contracts/token/ERC20/ERC20.sol\":9073:9081  _approve */\n      tag_262\n        /* \"@openzeppelin/contracts/token/ERC20/ERC20.sol\":9073:9110  _approve(owner, spender, value, true) */\n      jump\t// in\n    tag_261:\n        /* \"@openzeppelin/contracts/token/ERC20/ERC20.sol\":8989:9117  function _approve(address owner, address spender, uint256 value) internal {... */\n      pop\n      pop\n      pop\n      jump\t// out\n        /* \"@openzeppelin/contracts/token/ERC20/ERC20.sol\":10663:11140  function _spendAllowance(address owner, address spender, uint256 value) internal virtual {... */\n    tag_155:\n      sub(shl(0xa0, 0x01), 0x01)\n        /* \"@openzeppelin/contracts/token/ERC20/ERC20.sol\":3952:3970  _allowances[owner] */\n      dup4\n      dup2\n      and\n        /* \"@openzeppelin/contracts/token/ERC20/ERC20.sol\":10762:10786  uint256 currentAllowance */\n      0x00\n        /* \"@openzeppelin/contracts/token/ERC20/ERC20.sol\":3952:3970  _allowances[owner] */\n      swap1\n      dup2\n      mstore\n        /* \"@openzeppelin/contracts/token/ERC20/ERC20.sol\":3952:3963  _allowances */\n      0x01\n        /* \"@openzeppelin/contracts/token/ERC20/ERC20.sol\":3952:3970  _allowances[owner] */\n      0x20\n      swap1\n      dup2\n      mstore\n      0x40\n      dup1\n      dup4\n      keccak256\n        /* \"@openzeppelin/contracts/token/ERC20/ERC20.sol\":3952:3979  _allowances[owner][spender] */\n      swap4\n      dup7\n      and\n      dup4\n      mstore\n      swap3\n      swap1\n      mstore\n      keccak256\n      sload\n      not(0x00)\n        /* \"@openzeppelin/contracts/token/ERC20/ERC20.sol\":10828:10865  currentAllowance != type(uint256).max */\n      dup2\n      eq\n        /* \"@openzeppelin/contracts/token/ERC20/ERC20.sol\":10824:11134  if (currentAllowance != type(uint256).max) {... */\n      tag_208\n      jumpi\n        /* \"@openzeppelin/contracts/token/ERC20/ERC20.sol\":10904:10909  value */\n      dup2\n        /* \"@openzeppelin/contracts/token/ERC20/ERC20.sol\":10885:10901  currentAllowance */\n      dup2\n        /* \"@openzeppelin/contracts/token/ERC20/ERC20.sol\":10885:10909  currentAllowance < value */\n      lt\n        /* \"@openzeppelin/contracts/token/ERC20/ERC20.sol\":10881:11011  if (currentAllowance < value) {... */\n      iszero\n      tag_266\n      jumpi\n        /* \"@openzeppelin/contracts/token/ERC20/ERC20.sol\":10936:10996  ERC20InsufficientAllowance(spender, currentAllowance, value) */\n      mload(0x40)\n      shl(0xe1, 0x7dc7a0d9)\n      dup2\n      mstore\n      sub(shl(0xa0, 0x01), 0x01)\n        /* \"#utility.yul\":12829:12861   */\n      dup5\n      and\n        /* \"@openzeppelin/contracts/token/ERC20/ERC20.sol\":10936:10996  ERC20InsufficientAllowance(spender, currentAllowance, value) */\n      0x04\n      dup3\n      add\n        /* \"#utility.yul\":12811:12862   */\n      mstore\n        /* \"#utility.yul\":12878:12896   */\n      0x24\n      dup2\n      add\n        /* \"#utility.yul\":12871:12905   */\n      dup3\n      swap1\n      mstore\n        /* \"#utility.yul\":12921:12939   */\n      0x44\n      dup2\n      add\n        /* \"#utility.yul\":12914:12948   */\n      dup4\n      swap1\n      mstore\n        /* \"#utility.yul\":12784:12802   */\n      0x64\n      add\n        /* \"@openzeppelin/contracts/token/ERC20/ERC20.sol\":10936:10996  ERC20InsufficientAllowance(spender, currentAllowance, value) */\n      tag_195\n        /* \"#utility.yul\":12609:12954   */\n      jump\n        /* \"@openzeppelin/contracts/token/ERC20/ERC20.sol\":10881:11011  if (currentAllowance < value) {... */\n    tag_266:\n        /* \"@openzeppelin/contracts/token/ERC20/ERC20.sol\":11052:11109  _approve(owner, spender, currentAllowance - value, false) */\n      tag_208\n        /* \"@openzeppelin/contracts/token/ERC20/ERC20.sol\":11061:11066  owner */\n      dup5\n        /* \"@openzeppelin/contracts/token/ERC20/ERC20.sol\":11068:11075  spender */\n      dup5\n        /* \"@openzeppelin/contracts/token/ERC20/ERC20.sol\":11096:11101  value */\n      dup5\n        /* \"@openzeppelin/contracts/token/ERC20/ERC20.sol\":11077:11093  currentAllowance */\n      dup5\n        /* \"@openzeppelin/contracts/token/ERC20/ERC20.sol\":11077:11101  currentAllowance - value */\n      sub\n        /* \"@openzeppelin/contracts/token/ERC20/ERC20.sol\":11103:11108  false */\n      0x00\n        /* \"@openzeppelin/contracts/token/ERC20/ERC20.sol\":11052:11060  _approve */\n      tag_262\n        /* \"@openzeppelin/contracts/token/ERC20/ERC20.sol\":11052:11109  _approve(owner, spender, currentAllowance - value, false) */\n      jump\t// in\n        /* \"@openzeppelin/contracts/token/ERC20/ERC20.sol\":5656:5956  function _transfer(address from, address to, uint256 value) internal {... */\n    tag_157:\n      sub(shl(0xa0, 0x01), 0x01)\n        /* \"@openzeppelin/contracts/token/ERC20/ERC20.sol\":5739:5757  from == address(0) */\n      dup4\n      and\n        /* \"@openzeppelin/contracts/token/ERC20/ERC20.sol\":5735:5821  if (from == address(0)) {... */\n      tag_271\n      jumpi\n        /* \"@openzeppelin/contracts/token/ERC20/ERC20.sol\":5780:5810  ERC20InvalidSender(address(0)) */\n      mload(0x40)\n      shl(0xe1, 0x4b637e8f)\n      dup2\n      mstore\n        /* \"@openzeppelin/contracts/token/ERC20/ERC20.sol\":5807:5808  0 */\n      0x00\n        /* \"@openzeppelin/contracts/token/ERC20/ERC20.sol\":5780:5810  ERC20InvalidSender(address(0)) */\n      0x04\n      dup3\n      add\n        /* \"#utility.yul\":3418:3469   */\n      mstore\n        /* \"#utility.yul\":3391:3409   */\n      0x24\n      add\n        /* \"@openzeppelin/contracts/token/ERC20/ERC20.sol\":5780:5810  ERC20InvalidSender(address(0)) */\n      tag_195\n        /* \"#utility.yul\":3272:3475   */\n      jump\n        /* \"@openzeppelin/contracts/token/ERC20/ERC20.sol\":5735:5821  if (from == address(0)) {... */\n    tag_271:\n      sub(shl(0xa0, 0x01), 0x01)\n        /* \"@openzeppelin/contracts/token/ERC20/ERC20.sol\":5834:5850  to == address(0) */\n      dup3\n      and\n        /* \"@openzeppelin/contracts/token/ERC20/ERC20.sol\":5830:5916  if (to == address(0)) {... */\n      tag_273\n      jumpi\n        /* \"@openzeppelin/contracts/token/ERC20/ERC20.sol\":5873:5905  ERC20InvalidReceiver(address(0)) */\n      mload(0x40)\n      shl(0xe0, 0xec442f05)\n      dup2\n      mstore\n        /* \"@openzeppelin/contracts/token/ERC20/ERC20.sol\":5902:5903  0 */\n      0x00\n        /* \"@openzeppelin/contracts/token/ERC20/ERC20.sol\":5873:5905  ERC20InvalidReceiver(address(0)) */\n      0x04\n      dup3\n      add\n        /* \"#utility.yul\":3418:3469   */\n      mstore\n        /* \"#utility.yul\":3391:3409   */\n      0x24\n      add\n        /* \"@openzeppelin/contracts/token/ERC20/ERC20.sol\":5873:5905  ERC20InvalidReceiver(address(0)) */\n      tag_195\n        /* \"#utility.yul\":3272:3475   */\n      jump\n        /* \"@openzeppelin/contracts/token/ERC20/ERC20.sol\":5830:5916  if (to == address(0)) {... */\n    tag_273:\n        /* \"@openzeppelin/contracts/token/ERC20/ERC20.sol\":5925:5949  _update(from, to, value) */\n      tag_261\n        /* \"@openzeppelin/contracts/token/ERC20/ERC20.sol\":5933:5937  from */\n      dup4\n        /* \"@openzeppelin/contracts/token/ERC20/ERC20.sol\":5939:5941  to */\n      dup4\n        /* \"@openzeppelin/contracts/token/ERC20/ERC20.sol\":5943:5948  value */\n      dup4\n        /* \"@openzeppelin/contracts/token/ERC20/ERC20.sol\":5925:5932  _update */\n      tag_276\n        /* \"@openzeppelin/contracts/token/ERC20/ERC20.sol\":5925:5949  _update(from, to, value) */\n      jump\t// in\n        /* \"@openzeppelin/contracts/token/ERC20/ERC20.sol\":8247:8453  function _burn(address account, uint256 value) internal {... */\n    tag_162:\n      sub(shl(0xa0, 0x01), 0x01)\n        /* \"@openzeppelin/contracts/token/ERC20/ERC20.sol\":8317:8338  account == address(0) */\n      dup3\n      and\n        /* \"@openzeppelin/contracts/token/ERC20/ERC20.sol\":8313:8402  if (account == address(0)) {... */\n      tag_278\n      jumpi\n        /* \"@openzeppelin/contracts/token/ERC20/ERC20.sol\":8361:8391  ERC20InvalidSender(address(0)) */\n      mload(0x40)\n      shl(0xe1, 0x4b637e8f)\n      dup2\n      mstore\n        /* \"@openzeppelin/contracts/token/ERC20/ERC20.sol\":8388:8389  0 */\n      0x00\n        /* \"@openzeppelin/contracts/token/ERC20/ERC20.sol\":8361:8391  ERC20InvalidSender(address(0)) */\n      0x04\n      dup3\n      add\n        /* \"#utility.yul\":3418:3469   */\n      mstore\n        /* \"#utility.yul\":3391:3409   */\n      0x24\n      add\n        /* \"@openzeppelin/contracts/token/ERC20/ERC20.sol\":8361:8391  ERC20InvalidSender(address(0)) */\n      tag_195\n        /* \"#utility.yul\":3272:3475   */\n      jump\n        /* \"@openzeppelin/contracts/token/ERC20/ERC20.sol\":8313:8402  if (account == address(0)) {... */\n    tag_278:\n        /* \"@openzeppelin/contracts/token/ERC20/ERC20.sol\":8411:8446  _update(account, address(0), value) */\n      tag_179\n        /* \"@openzeppelin/contracts/token/ERC20/ERC20.sol\":8419:8426  account */\n      dup3\n        /* \"@openzeppelin/contracts/token/ERC20/ERC20.sol\":8436:8437  0 */\n      0x00\n        /* \"@openzeppelin/contracts/token/ERC20/ERC20.sol\":8440:8445  value */\n      dup4\n        /* \"@openzeppelin/contracts/token/ERC20/ERC20.sol\":8411:8418  _update */\n      tag_276\n        /* \"@openzeppelin/contracts/token/ERC20/ERC20.sol\":8411:8446  _update(account, address(0), value) */\n      jump\t// in\n        /* \"@openzeppelin/contracts/access/Ownable.sol\":2912:3099  function _transferOwnership(address newOwner) internal virtual {... */\n    tag_175:\n        /* \"@openzeppelin/contracts/access/Ownable.sol\":3004:3010  _owner */\n      0x06\n      dup1\n      sload\n      sub(shl(0xa0, 0x01), 0x01)\n        /* \"@openzeppelin/contracts/access/Ownable.sol\":3020:3037  _owner = newOwner */\n      dup4\n      dup2\n      and\n      not(sub(shl(0xa0, 0x01), 0x01))\n      dup4\n      and\n      dup2\n      or\n      swap1\n      swap4\n      sstore\n        /* \"@openzeppelin/contracts/access/Ownable.sol\":3052:3092  OwnershipTransferred(oldOwner, newOwner) */\n      mload(0x40)\n        /* \"@openzeppelin/contracts/access/Ownable.sol\":3004:3010  _owner */\n      swap2\n      and\n      swap2\n        /* \"@openzeppelin/contracts/access/Ownable.sol\":3020:3037  _owner = newOwner */\n      swap1\n        /* \"@openzeppelin/contracts/access/Ownable.sol\":3004:3010  _owner */\n      dup3\n      swap1\n        /* \"@openzeppelin/contracts/access/Ownable.sol\":3052:3092  OwnershipTransferred(oldOwner, newOwner) */\n      0x8be0079c531659141344cd1fd0a4f28419497f9722a3daafe3b4186f6b6457e0\n      swap1\n        /* \"@openzeppelin/contracts/access/Ownable.sol\":2985:3001  address oldOwner */\n      0x00\n      swap1\n        /* \"@openzeppelin/contracts/access/Ownable.sol\":3052:3092  OwnershipTransferred(oldOwner, newOwner) */\n      log3\n        /* \"@openzeppelin/contracts/access/Ownable.sol\":2975:3099  {... */\n      pop\n        /* \"@openzeppelin/contracts/access/Ownable.sol\":2912:3099  function _transferOwnership(address newOwner) internal virtual {... */\n      pop\n      jump\t// out\n        /* \"@openzeppelin/contracts/utils/ReentrancyGuard.sol\":2431:2738  function _nonReentrantBefore() private {... */\n    tag_192:\n        /* \"@openzeppelin/contracts/utils/ReentrancyGuard.sol\":1755:1756  2 */\n      0x02\n        /* \"@openzeppelin/contracts/utils/ReentrancyGuard.sol\":2558:2565  _status */\n      sload(0x05)\n        /* \"@openzeppelin/contracts/utils/ReentrancyGuard.sol\":2558:2576  _status == ENTERED */\n      sub\n        /* \"@openzeppelin/contracts/utils/ReentrancyGuard.sol\":2554:2640  if (_status == ENTERED) {... */\n      tag_283\n      jumpi\n        /* \"@openzeppelin/contracts/utils/ReentrancyGuard.sol\":2599:2629  ReentrancyGuardReentrantCall() */\n      mload(0x40)\n      shl(0xe0, 0x3ee5aeb5)\n      dup2\n      mstore\n      0x04\n      add\n      mload(0x40)\n      dup1\n      swap2\n      sub\n      swap1\n      revert\n        /* \"@openzeppelin/contracts/utils/ReentrancyGuard.sol\":2554:2640  if (_status == ENTERED) {... */\n    tag_283:\n        /* \"@openzeppelin/contracts/utils/ReentrancyGuard.sol\":1755:1756  2 */\n      0x02\n        /* \"@openzeppelin/contracts/utils/ReentrancyGuard.sol\":2714:2721  _status */\n      0x05\n        /* \"@openzeppelin/contracts/utils/ReentrancyGuard.sol\":2714:2731  _status = ENTERED */\n      sstore\n        /* \"@openzeppelin/contracts/utils/ReentrancyGuard.sol\":2431:2738  function _nonReentrantBefore() private {... */\n      jump\t// out\n        /* \"@openzeppelin/contracts/token/ERC20/ERC20.sol\":7721:7929  function _mint(address account, uint256 value) internal {... */\n    tag_205:\n      sub(shl(0xa0, 0x01), 0x01)\n        /* \"@openzeppelin/contracts/token/ERC20/ERC20.sol\":7791:7812  account == address(0) */\n      dup3\n      and\n        /* \"@openzeppelin/contracts/token/ERC20/ERC20.sol\":7787:7878  if (account == address(0)) {... */\n      tag_285\n      jumpi\n        /* \"@openzeppelin/contracts/token/ERC20/ERC20.sol\":7835:7867  ERC20InvalidReceiver(address(0)) */\n      mload(0x40)\n      shl(0xe0, 0xec442f05)\n      dup2\n      mstore\n        /* \"@openzeppelin/contracts/token/ERC20/ERC20.sol\":7864:7865  0 */\n      0x00\n        /* \"@openzeppelin/contracts/token/ERC20/ERC20.sol\":7835:7867  ERC20InvalidReceiver(address(0)) */\n      0x04\n      dup3\n      add\n        /* \"#utility.yul\":3418:3469   */\n      mstore\n        /* \"#utility.yul\":3391:3409   */\n      0x24\n      add\n        /* \"@openzeppelin/contracts/token/ERC20/ERC20.sol\":7835:7867  ERC20InvalidReceiver(address(0)) */\n      tag_195\n        /* \"#utility.yul\":3272:3475   */\n      jump\n        /* \"@openzeppelin/contracts/token/ERC20/ERC20.sol\":7787:7878  if (account == address(0)) {... */\n    tag_285:\n        /* \"@openzeppelin/contracts/token/ERC20/ERC20.sol\":7887:7922  _update(address(0), account, value) */\n      tag_179\n        /* \"@openzeppelin/contracts/token/ERC20/ERC20.sol\":7903:7904  0 */\n      0x00\n        /* \"@openzeppelin/contracts/token/ERC20/ERC20.sol\":7907:7914  account */\n      dup4\n        /* \"@openzeppelin/contracts/token/ERC20/ERC20.sol\":7916:7921  value */\n      dup4\n        /* \"@openzeppelin/contracts/token/ERC20/ERC20.sol\":7887:7894  _update */\n      tag_276\n        /* \"@openzeppelin/contracts/token/ERC20/ERC20.sol\":7887:7922  _update(address(0), account, value) */\n      jump\t// in\n        /* \"@openzeppelin/contracts/token/ERC20/ERC20.sol\":9949:10381  function _approve(address owner, address spender, uint256 value, bool emitEvent) internal virtual {... */\n    tag_262:\n      sub(shl(0xa0, 0x01), 0x01)\n        /* \"@openzeppelin/contracts/token/ERC20/ERC20.sol\":10061:10080  owner == address(0) */\n      dup5\n      and\n        /* \"@openzeppelin/contracts/token/ERC20/ERC20.sol\":10057:10146  if (owner == address(0)) {... */\n      tag_290\n      jumpi\n        /* \"@openzeppelin/contracts/token/ERC20/ERC20.sol\":10103:10135  ERC20InvalidApprover(address(0)) */\n      mload(0x40)\n      shl(0xe0, 0xe602df05)\n      dup2\n      mstore\n        /* \"@openzeppelin/contracts/token/ERC20/ERC20.sol\":10132:10133  0 */\n      0x00\n        /* \"@openzeppelin/contracts/token/ERC20/ERC20.sol\":10103:10135  ERC20InvalidApprover(address(0)) */\n      0x04\n      dup3\n      add\n        /* \"#utility.yul\":3418:3469   */\n      mstore\n        /* \"#utility.yul\":3391:3409   */\n      0x24\n      add\n        /* \"@openzeppelin/contracts/token/ERC20/ERC20.sol\":10103:10135  ERC20InvalidApprover(address(0)) */\n      tag_195\n        /* \"#utility.yul\":3272:3475   */\n      jump\n        /* \"@openzeppelin/contracts/token/ERC20/ERC20.sol\":10057:10146  if (owner == address(0)) {... */\n    tag_290:\n      sub(shl(0xa0, 0x01), 0x01)\n        /* \"@openzeppelin/contracts/token/ERC20/ERC20.sol\":10159:10180  spender == address(0) */\n      dup4\n      and\n        /* \"@openzeppelin/contracts/token/ERC20/ERC20.sol\":10155:10245  if (spender == address(0)) {... */\n      tag_292\n      jumpi\n        /* \"@openzeppelin/contracts/token/ERC20/ERC20.sol\":10203:10234  ERC20InvalidSpender(address(0)) */\n      mload(0x40)\n      shl(0xe1, 0x4a1406b1)\n      dup2\n      mstore\n        /* \"@openzeppelin/contracts/token/ERC20/ERC20.sol\":10231:10232  0 */\n      0x00\n        /* \"@openzeppelin/contracts/token/ERC20/ERC20.sol\":10203:10234  ERC20InvalidSpender(address(0)) */\n      0x04\n      dup3\n      add\n        /* \"#utility.yul\":3418:3469   */\n      mstore\n        /* \"#utility.yul\":3391:3409   */\n      0x24\n      add\n        /* \"@openzeppelin/contracts/token/ERC20/ERC20.sol\":10203:10234  ERC20InvalidSpender(address(0)) */\n      tag_195\n        /* \"#utility.yul\":3272:3475   */\n      jump\n        /* \"@openzeppelin/contracts/token/ERC20/ERC20.sol\":10155:10245  if (spender == address(0)) {... */\n    tag_292:\n      sub(shl(0xa0, 0x01), 0x01)\n        /* \"@openzeppelin/contracts/token/ERC20/ERC20.sol\":10254:10272  _allowances[owner] */\n      dup1\n      dup6\n      and\n      0x00\n      swap1\n      dup2\n      mstore\n        /* \"@openzeppelin/contracts/token/ERC20/ERC20.sol\":10254:10265  _allowances */\n      0x01\n        /* \"@openzeppelin/contracts/token/ERC20/ERC20.sol\":10254:10272  _allowances[owner] */\n      0x20\n      swap1\n      dup2\n      mstore\n      0x40\n      dup1\n      dup4\n      keccak256\n        /* \"@openzeppelin/contracts/token/ERC20/ERC20.sol\":10254:10281  _allowances[owner][spender] */\n      swap4\n      dup8\n      and\n      dup4\n      mstore\n      swap3\n      swap1\n      mstore\n      keccak256\n        /* \"@openzeppelin/contracts/token/ERC20/ERC20.sol\":10254:10289  _allowances[owner][spender] = value */\n      dup3\n      swap1\n      sstore\n        /* \"@openzeppelin/contracts/token/ERC20/ERC20.sol\":10299:10375  if (emitEvent) {... */\n      dup1\n      iszero\n      tag_208\n      jumpi\n        /* \"@openzeppelin/contracts/token/ERC20/ERC20.sol\":10349:10356  spender */\n      dup3\n      sub(shl(0xa0, 0x01), 0x01)\n        /* \"@openzeppelin/contracts/token/ERC20/ERC20.sol\":10333:10364  Approval(owner, spender, value) */\n      and\n        /* \"@openzeppelin/contracts/token/ERC20/ERC20.sol\":10342:10347  owner */\n      dup5\n      sub(shl(0xa0, 0x01), 0x01)\n        /* \"@openzeppelin/contracts/token/ERC20/ERC20.sol\":10333:10364  Approval(owner, spender, value) */\n      and\n      0x8c5be1e5ebec7d5bd14f71427d1e84f3dd0314c0f7b2291e5b200ac8c7c3b925\n        /* \"@openzeppelin/contracts/token/ERC20/ERC20.sol\":10358:10363  value */\n      dup5\n        /* \"@openzeppelin/contracts/token/ERC20/ERC20.sol\":10333:10364  Approval(owner, spender, value) */\n      mload(0x40)\n      tag_295\n      swap2\n        /* \"#utility.yul\":936:961   */\n      dup2\n      mstore\n        /* \"#utility.yul\":924:926   */\n      0x20\n        /* \"#utility.yul\":909:927   */\n      add\n      swap1\n        /* \"#utility.yul\":790:967   */\n      jump\n        /* \"@openzeppelin/contracts/token/ERC20/ERC20.sol\":10333:10364  Approval(owner, spender, value) */\n    tag_295:\n      mload(0x40)\n      dup1\n      swap2\n      sub\n      swap1\n      log3\n        /* \"@openzeppelin/contracts/token/ERC20/ERC20.sol\":9949:10381  function _approve(address owner, address spender, uint256 value, bool emitEvent) internal virtual {... */\n      pop\n      pop\n      pop\n      pop\n      jump\t// out\n        /* \"@openzeppelin/contracts/token/ERC20/ERC20.sol\":6271:7378  function _update(address from, address to, uint256 value) internal virtual {... */\n    tag_276:\n      sub(shl(0xa0, 0x01), 0x01)\n        /* \"@openzeppelin/contracts/token/ERC20/ERC20.sol\":6360:6378  from == address(0) */\n      dup4\n      and\n        /* \"@openzeppelin/contracts/token/ERC20/ERC20.sol\":6356:6896  if (from == address(0)) {... */\n      tag_297\n      jumpi\n        /* \"@openzeppelin/contracts/token/ERC20/ERC20.sol\":6512:6517  value */\n      dup1\n        /* \"@openzeppelin/contracts/token/ERC20/ERC20.sol\":6496:6508  _totalSupply */\n      0x02\n      0x00\n        /* \"@openzeppelin/contracts/token/ERC20/ERC20.sol\":6496:6517  _totalSupply += value */\n      dup3\n      dup3\n      sload\n      tag_298\n      swap2\n      swap1\n      tag_299\n      jump\t// in\n    tag_298:\n      swap1\n      swap2\n      sstore\n      pop\n        /* \"@openzeppelin/contracts/token/ERC20/ERC20.sol\":6356:6896  if (from == address(0)) {... */\n      tag_300\n      swap1\n      pop\n      jump\n    tag_297:\n      sub(shl(0xa0, 0x01), 0x01)\n        /* \"@openzeppelin/contracts/token/ERC20/ERC20.sol\":6570:6585  _balances[from] */\n      dup4\n      and\n        /* \"@openzeppelin/contracts/token/ERC20/ERC20.sol\":6548:6567  uint256 fromBalance */\n      0x00\n        /* \"@openzeppelin/contracts/token/ERC20/ERC20.sol\":6570:6585  _balances[from] */\n      swap1\n      dup2\n      mstore\n      0x20\n      dup2\n      swap1\n      mstore\n      0x40\n      swap1\n      keccak256\n      sload\n        /* \"@openzeppelin/contracts/token/ERC20/ERC20.sol\":6603:6622  fromBalance < value */\n      dup2\n      dup2\n      lt\n        /* \"@openzeppelin/contracts/token/ERC20/ERC20.sol\":6599:6714  if (fromBalance < value) {... */\n      iszero\n      tag_301\n      jumpi\n        /* \"@openzeppelin/contracts/token/ERC20/ERC20.sol\":6649:6699  ERC20InsufficientBalance(from, fromBalance, value) */\n      mload(0x40)\n      shl(0xe2, 0x391434e3)\n      dup2\n      mstore\n      sub(shl(0xa0, 0x01), 0x01)\n        /* \"#utility.yul\":12829:12861   */\n      dup6\n      and\n        /* \"@openzeppelin/contracts/token/ERC20/ERC20.sol\":6649:6699  ERC20InsufficientBalance(from, fromBalance, value) */\n      0x04\n      dup3\n      add\n        /* \"#utility.yul\":12811:12862   */\n      mstore\n        /* \"#utility.yul\":12878:12896   */\n      0x24\n      dup2\n      add\n        /* \"#utility.yul\":12871:12905   */\n      dup3\n      swap1\n      mstore\n        /* \"#utility.yul\":12921:12939   */\n      0x44\n      dup2\n      add\n        /* \"#utility.yul\":12914:12948   */\n      dup4\n      swap1\n      mstore\n        /* \"#utility.yul\":12784:12802   */\n      0x64\n      add\n        /* \"@openzeppelin/contracts/token/ERC20/ERC20.sol\":6649:6699  ERC20InsufficientBalance(from, fromBalance, value) */\n      tag_195\n        /* \"#utility.yul\":12609:12954   */\n      jump\n        /* \"@openzeppelin/contracts/token/ERC20/ERC20.sol\":6599:6714  if (fromBalance < value) {... */\n    tag_301:\n      sub(shl(0xa0, 0x01), 0x01)\n        /* \"@openzeppelin/contracts/token/ERC20/ERC20.sol\":6834:6849  _balances[from] */\n      dup5\n      and\n        /* \"@openzeppelin/contracts/token/ERC20/ERC20.sol\":6834:6843  _balances */\n      0x00\n        /* \"@openzeppelin/contracts/token/ERC20/ERC20.sol\":6834:6849  _balances[from] */\n      swap1\n      dup2\n      mstore\n      0x20\n      dup2\n      swap1\n      mstore\n      0x40\n      swap1\n      keccak256\n        /* \"@openzeppelin/contracts/token/ERC20/ERC20.sol\":6852:6871  fromBalance - value */\n      swap1\n      dup3\n      swap1\n      sub\n        /* \"@openzeppelin/contracts/token/ERC20/ERC20.sol\":6834:6871  _balances[from] = fromBalance - value */\n      swap1\n      sstore\n        /* \"@openzeppelin/contracts/token/ERC20/ERC20.sol\":6356:6896  if (from == address(0)) {... */\n    tag_300:\n      sub(shl(0xa0, 0x01), 0x01)\n        /* \"@openzeppelin/contracts/token/ERC20/ERC20.sol\":6910:6926  to == address(0) */\n      dup3\n      and\n        /* \"@openzeppelin/contracts/token/ERC20/ERC20.sol\":6906:7331  if (to == address(0)) {... */\n      tag_303\n      jumpi\n        /* \"@openzeppelin/contracts/token/ERC20/ERC20.sol\":7073:7085  _totalSupply */\n      0x02\n        /* \"@openzeppelin/contracts/token/ERC20/ERC20.sol\":7073:7094  _totalSupply -= value */\n      dup1\n      sload\n      dup3\n      swap1\n      sub\n      swap1\n      sstore\n        /* \"@openzeppelin/contracts/token/ERC20/ERC20.sol\":6906:7331  if (to == address(0)) {... */\n      jump(tag_304)\n    tag_303:\n      sub(shl(0xa0, 0x01), 0x01)\n        /* \"@openzeppelin/contracts/token/ERC20/ERC20.sol\":7284:7297  _balances[to] */\n      dup3\n      and\n        /* \"@openzeppelin/contracts/token/ERC20/ERC20.sol\":7284:7293  _balances */\n      0x00\n        /* \"@openzeppelin/contracts/token/ERC20/ERC20.sol\":7284:7297  _balances[to] */\n      swap1\n      dup2\n      mstore\n      0x20\n      dup2\n      swap1\n      mstore\n      0x40\n      swap1\n      keccak256\n        /* \"@openzeppelin/contracts/token/ERC20/ERC20.sol\":7284:7306  _balances[to] += value */\n      dup1\n      sload\n      dup3\n      add\n      swap1\n      sstore\n        /* \"@openzeppelin/contracts/token/ERC20/ERC20.sol\":6906:7331  if (to == address(0)) {... */\n    tag_304:\n        /* \"@openzeppelin/contracts/token/ERC20/ERC20.sol\":7361:7363  to */\n      dup2\n      sub(shl(0xa0, 0x01), 0x01)\n        /* \"@openzeppelin/contracts/token/ERC20/ERC20.sol\":7346:7371  Transfer(from, to, value) */\n      and\n        /* \"@openzeppelin/contracts/token/ERC20/ERC20.sol\":7355:7359  from */\n      dup4\n      sub(shl(0xa0, 0x01), 0x01)\n        /* \"@openzeppelin/contracts/token/ERC20/ERC20.sol\":7346:7371  Transfer(from, to, value) */\n      and\n      0xddf252ad1be2c89b69c2b068fc378daa952ba7f163c4a11628f55a4df523b3ef\n        /* \"@openzeppelin/contracts/token/ERC20/ERC20.sol\":7365:7370  value */\n      dup4\n        /* \"@openzeppelin/contracts/token/ERC20/ERC20.sol\":7346:7371  Transfer(from, to, value) */\n      mload(0x40)\n      tag_305\n      swap2\n        /* \"#utility.yul\":936:961   */\n      dup2\n      mstore\n        /* \"#utility.yul\":924:926   */\n      0x20\n        /* \"#utility.yul\":909:927   */\n      add\n      swap1\n        /* \"#utility.yul\":790:967   */\n      jump\n        /* \"@openzeppelin/contracts/token/ERC20/ERC20.sol\":7346:7371  Transfer(from, to, value) */\n    tag_305:\n      mload(0x40)\n      dup1\n      swap2\n      sub\n      swap1\n      log3\n        /* \"@openzeppelin/contracts/token/ERC20/ERC20.sol\":6271:7378  function _update(address from, address to, uint256 value) internal virtual {... */\n      pop\n      pop\n      pop\n      jump\t// out\n        /* \"#utility.yul\":14:145   */\n    tag_306:\n      sub(shl(0xa0, 0x01), 0x01)\n        /* \"#utility.yul\":89:120   */\n      dup2\n      and\n        /* \"#utility.yul\":79:121   */\n      dup2\n      eq\n        /* \"#utility.yul\":69:139   */\n      tag_160\n      jumpi\n        /* \"#utility.yul\":135:136   */\n      0x00\n        /* \"#utility.yul\":132:133   */\n      dup1\n        /* \"#utility.yul\":125:137   */\n      revert\n        /* \"#utility.yul\":150:533   */\n    tag_32:\n        /* \"#utility.yul\":227:233   */\n      0x00\n        /* \"#utility.yul\":235:241   */\n      dup1\n        /* \"#utility.yul\":243:249   */\n      0x00\n        /* \"#utility.yul\":296:298   */\n      0x60\n        /* \"#utility.yul\":284:293   */\n      dup5\n        /* \"#utility.yul\":275:282   */\n      dup7\n        /* \"#utility.yul\":271:294   */\n      sub\n        /* \"#utility.yul\":267:299   */\n      slt\n        /* \"#utility.yul\":264:316   */\n      iszero\n      tag_318\n      jumpi\n        /* \"#utility.yul\":312:313   */\n      0x00\n        /* \"#utility.yul\":309:310   */\n      dup1\n        /* \"#utility.yul\":302:314   */\n      revert\n        /* \"#utility.yul\":264:316   */\n    tag_318:\n        /* \"#utility.yul\":348:357   */\n      dup4\n        /* \"#utility.yul\":335:358   */\n      calldataload\n        /* \"#utility.yul\":325:358   */\n      swap3\n      pop\n        /* \"#utility.yul\":408:410   */\n      0x20\n        /* \"#utility.yul\":397:406   */\n      dup5\n        /* \"#utility.yul\":393:411   */\n      add\n        /* \"#utility.yul\":380:412   */\n      calldataload\n        /* \"#utility.yul\":421:452   */\n      tag_319\n        /* \"#utility.yul\":446:451   */\n      dup2\n        /* \"#utility.yul\":421:452   */\n      tag_306\n      jump\t// in\n    tag_319:\n        /* \"#utility.yul\":150:533   */\n      swap3\n      swap6\n        /* \"#utility.yul\":471:476   */\n      swap3\n      swap5\n      pop\n      pop\n      pop\n        /* \"#utility.yul\":523:525   */\n      0x40\n        /* \"#utility.yul\":508:526   */\n      swap2\n      swap1\n      swap2\n      add\n        /* \"#utility.yul\":495:527   */\n      calldataload\n      swap1\n        /* \"#utility.yul\":150:533   */\n      jump\t// out\n        /* \"#utility.yul\":538:785   */\n    tag_36:\n        /* \"#utility.yul\":597:603   */\n      0x00\n        /* \"#utility.yul\":650:652   */\n      0x20\n        /* \"#utility.yul\":638:647   */\n      dup3\n        /* \"#utility.yul\":629:636   */\n      dup5\n        /* \"#utility.yul\":625:648   */\n      sub\n        /* \"#utility.yul\":621:653   */\n      slt\n        /* \"#utility.yul\":618:670   */\n      iszero\n      tag_321\n      jumpi\n        /* \"#utility.yul\":666:667   */\n      0x00\n        /* \"#utility.yul\":663:664   */\n      dup1\n        /* \"#utility.yul\":656:668   */\n      revert\n        /* \"#utility.yul\":618:670   */\n    tag_321:\n        /* \"#utility.yul\":705:714   */\n      dup2\n        /* \"#utility.yul\":692:715   */\n      calldataload\n        /* \"#utility.yul\":724:755   */\n      tag_322\n        /* \"#utility.yul\":749:754   */\n      dup2\n        /* \"#utility.yul\":724:755   */\n      tag_306\n      jump\t// in\n    tag_322:\n        /* \"#utility.yul\":774:779   */\n      swap4\n        /* \"#utility.yul\":538:785   */\n      swap3\n      pop\n      pop\n      pop\n      jump\t// out\n        /* \"#utility.yul\":1164:1582   */\n    tag_47:\n        /* \"#utility.yul\":1313:1315   */\n      0x20\n        /* \"#utility.yul\":1302:1311   */\n      dup2\n        /* \"#utility.yul\":1295:1316   */\n      mstore\n        /* \"#utility.yul\":1276:1280   */\n      0x00\n        /* \"#utility.yul\":1345:1351   */\n      dup3\n        /* \"#utility.yul\":1339:1352   */\n      mload\n        /* \"#utility.yul\":1388:1394   */\n      dup1\n        /* \"#utility.yul\":1383:1385   */\n      0x20\n        /* \"#utility.yul\":1372:1381   */\n      dup5\n        /* \"#utility.yul\":1368:1386   */\n      add\n        /* \"#utility.yul\":1361:1395   */\n      mstore\n        /* \"#utility.yul\":1447:1453   */\n      dup1\n        /* \"#utility.yul\":1442:1444   */\n      0x20\n        /* \"#utility.yul\":1434:1440   */\n      dup6\n        /* \"#utility.yul\":1430:1445   */\n      add\n        /* \"#utility.yul\":1425:1427   */\n      0x40\n        /* \"#utility.yul\":1414:1423   */\n      dup6\n        /* \"#utility.yul\":1410:1428   */\n      add\n        /* \"#utility.yul\":1404:1454   */\n      mcopy\n        /* \"#utility.yul\":1503:1504   */\n      0x00\n        /* \"#utility.yul\":1498:1500   */\n      0x40\n        /* \"#utility.yul\":1489:1495   */\n      dup3\n        /* \"#utility.yul\":1478:1487   */\n      dup6\n        /* \"#utility.yul\":1474:1496   */\n      add\n        /* \"#utility.yul\":1470:1501   */\n      add\n        /* \"#utility.yul\":1463:1505   */\n      mstore\n        /* \"#utility.yul\":1573:1575   */\n      0x40\n        /* \"#utility.yul\":1566:1568   */\n      0x1f\n        /* \"#utility.yul\":1562:1569   */\n      not\n        /* \"#utility.yul\":1557:1559   */\n      0x1f\n        /* \"#utility.yul\":1549:1555   */\n      dup4\n        /* \"#utility.yul\":1545:1560   */\n      add\n        /* \"#utility.yul\":1541:1570   */\n      and\n        /* \"#utility.yul\":1530:1539   */\n      dup5\n        /* \"#utility.yul\":1526:1571   */\n      add\n        /* \"#utility.yul\":1522:1576   */\n      add\n        /* \"#utility.yul\":1514:1576   */\n      swap2\n      pop\n      pop\n        /* \"#utility.yul\":1164:1582   */\n      swap3\n      swap2\n      pop\n      pop\n      jump\t// out\n        /* \"#utility.yul\":1587:1902   */\n    tag_50:\n        /* \"#utility.yul\":1655:1661   */\n      0x00\n        /* \"#utility.yul\":1663:1669   */\n      dup1\n        /* \"#utility.yul\":1716:1718   */\n      0x40\n        /* \"#utility.yul\":1704:1713   */\n      dup4\n        /* \"#utility.yul\":1695:1702   */\n      dup6\n        /* \"#utility.yul\":1691:1714   */\n      sub\n        /* \"#utility.yul\":1687:1719   */\n      slt\n        /* \"#utility.yul\":1684:1736   */\n      iszero\n      tag_327\n      jumpi\n        /* \"#utility.yul\":1732:1733   */\n      0x00\n        /* \"#utility.yul\":1729:1730   */\n      dup1\n        /* \"#utility.yul\":1722:1734   */\n      revert\n        /* \"#utility.yul\":1684:1736   */\n    tag_327:\n        /* \"#utility.yul\":1771:1780   */\n      dup3\n        /* \"#utility.yul\":1758:1781   */\n      calldataload\n        /* \"#utility.yul\":1790:1821   */\n      tag_328\n        /* \"#utility.yul\":1815:1820   */\n      dup2\n        /* \"#utility.yul\":1790:1821   */\n      tag_306\n      jump\t// in\n    tag_328:\n        /* \"#utility.yul\":1840:1845   */\n      swap5\n        /* \"#utility.yul\":1892:1894   */\n      0x20\n        /* \"#utility.yul\":1877:1895   */\n      swap4\n      swap1\n      swap4\n      add\n        /* \"#utility.yul\":1864:1896   */\n      calldataload\n      swap4\n      pop\n      pop\n      pop\n        /* \"#utility.yul\":1587:1902   */\n      jump\t// out\n        /* \"#utility.yul\":1907:2363   */\n    tag_61:\n        /* \"#utility.yul\":1984:1990   */\n      0x00\n        /* \"#utility.yul\":1992:1998   */\n      dup1\n        /* \"#utility.yul\":2000:2006   */\n      0x00\n        /* \"#utility.yul\":2053:2055   */\n      0x60\n        /* \"#utility.yul\":2041:2050   */\n      dup5\n        /* \"#utility.yul\":2032:2039   */\n      dup7\n        /* \"#utility.yul\":2028:2051   */\n      sub\n        /* \"#utility.yul\":2024:2056   */\n      slt\n        /* \"#utility.yul\":2021:2073   */\n      iszero\n      tag_330\n      jumpi\n        /* \"#utility.yul\":2069:2070   */\n      0x00\n        /* \"#utility.yul\":2066:2067   */\n      dup1\n        /* \"#utility.yul\":2059:2071   */\n      revert\n        /* \"#utility.yul\":2021:2073   */\n    tag_330:\n        /* \"#utility.yul\":2108:2117   */\n      dup4\n        /* \"#utility.yul\":2095:2118   */\n      calldataload\n        /* \"#utility.yul\":2127:2158   */\n      tag_331\n        /* \"#utility.yul\":2152:2157   */\n      dup2\n        /* \"#utility.yul\":2127:2158   */\n      tag_306\n      jump\t// in\n    tag_331:\n        /* \"#utility.yul\":2177:2182   */\n      swap3\n      pop\n        /* \"#utility.yul\":2234:2236   */\n      0x20\n        /* \"#utility.yul\":2219:2237   */\n      dup5\n      add\n        /* \"#utility.yul\":2206:2238   */\n      calldataload\n        /* \"#utility.yul\":2247:2280   */\n      tag_319\n        /* \"#utility.yul\":2206:2238   */\n      dup2\n        /* \"#utility.yul\":2247:2280   */\n      tag_306\n      jump\t// in\n        /* \"#utility.yul\":2557:2737   */\n    tag_70:\n        /* \"#utility.yul\":2616:2622   */\n      0x00\n        /* \"#utility.yul\":2669:2671   */\n      0x20\n        /* \"#utility.yul\":2657:2666   */\n      dup3\n        /* \"#utility.yul\":2648:2655   */\n      dup5\n        /* \"#utility.yul\":2644:2667   */\n      sub\n        /* \"#utility.yul\":2640:2672   */\n      slt\n        /* \"#utility.yul\":2637:2689   */\n      iszero\n      tag_335\n      jumpi\n        /* \"#utility.yul\":2685:2686   */\n      0x00\n        /* \"#utility.yul\":2682:2683   */\n      dup1\n        /* \"#utility.yul\":2675:2687   */\n      revert\n        /* \"#utility.yul\":2637:2689   */\n    tag_335:\n      pop\n        /* \"#utility.yul\":2708:2731   */\n      calldataload\n      swap2\n        /* \"#utility.yul\":2557:2737   */\n      swap1\n      pop\n      jump\t// out\n        /* \"#utility.yul\":2742:3267   */\n    tag_74:\n        /* \"#utility.yul\":2828:2834   */\n      0x00\n        /* \"#utility.yul\":2836:2842   */\n      dup1\n        /* \"#utility.yul\":2844:2850   */\n      0x00\n        /* \"#utility.yul\":2852:2858   */\n      dup1\n        /* \"#utility.yul\":2905:2908   */\n      0x80\n        /* \"#utility.yul\":2893:2902   */\n      dup6\n        /* \"#utility.yul\":2884:2891   */\n      dup8\n        /* \"#utility.yul\":2880:2903   */\n      sub\n        /* \"#utility.yul\":2876:2909   */\n      slt\n        /* \"#utility.yul\":2873:2926   */\n      iszero\n      tag_337\n      jumpi\n        /* \"#utility.yul\":2922:2923   */\n      0x00\n        /* \"#utility.yul\":2919:2920   */\n      dup1\n        /* \"#utility.yul\":2912:2924   */\n      revert\n        /* \"#utility.yul\":2873:2926   */\n    tag_337:\n        /* \"#utility.yul\":2958:2967   */\n      dup5\n        /* \"#utility.yul\":2945:2968   */\n      calldataload\n        /* \"#utility.yul\":2935:2968   */\n      swap4\n      pop\n        /* \"#utility.yul\":3018:3020   */\n      0x20\n        /* \"#utility.yul\":3007:3016   */\n      dup6\n        /* \"#utility.yul\":3003:3021   */\n      add\n        /* \"#utility.yul\":2990:3022   */\n      calldataload\n        /* \"#utility.yul\":3031:3062   */\n      tag_338\n        /* \"#utility.yul\":3056:3061   */\n      dup2\n        /* \"#utility.yul\":3031:3062   */\n      tag_306\n      jump\t// in\n    tag_338:\n        /* \"#utility.yul\":3081:3086   */\n      swap3\n      pop\n        /* \"#utility.yul\":3138:3140   */\n      0x40\n        /* \"#utility.yul\":3123:3141   */\n      dup6\n      add\n        /* \"#utility.yul\":3110:3142   */\n      calldataload\n        /* \"#utility.yul\":3151:3184   */\n      tag_339\n        /* \"#utility.yul\":3110:3142   */\n      dup2\n        /* \"#utility.yul\":3151:3184   */\n      tag_306\n      jump\t// in\n    tag_339:\n        /* \"#utility.yul\":2742:3267   */\n      swap4\n      swap7\n      swap3\n      swap6\n      pop\n        /* \"#utility.yul\":3203:3210   */\n      swap3\n      swap4\n        /* \"#utility.yul\":3257:3259   */\n      0x60\n        /* \"#utility.yul\":3242:3260   */\n      add\n        /* \"#utility.yul\":3229:3261   */\n      calldataload\n      swap3\n      pop\n      pop\n        /* \"#utility.yul\":2742:3267   */\n      jump\t// out\n        /* \"#utility.yul\":3480:4347   */\n    tag_104:\n        /* \"#utility.yul\":3568:3574   */\n      0x00\n        /* \"#utility.yul\":3576:3582   */\n      dup1\n        /* \"#utility.yul\":3584:3590   */\n      0x00\n        /* \"#utility.yul\":3592:3598   */\n      dup1\n        /* \"#utility.yul\":3645:3647   */\n      0x60\n        /* \"#utility.yul\":3633:3642   */\n      dup6\n        /* \"#utility.yul\":3624:3631   */\n      dup8\n        /* \"#utility.yul\":3620:3643   */\n      sub\n        /* \"#utility.yul\":3616:3648   */\n      slt\n        /* \"#utility.yul\":3613:3665   */\n      iszero\n      tag_342\n      jumpi\n        /* \"#utility.yul\":3661:3662   */\n      0x00\n        /* \"#utility.yul\":3658:3659   */\n      dup1\n        /* \"#utility.yul\":3651:3663   */\n      revert\n        /* \"#utility.yul\":3613:3665   */\n    tag_342:\n        /* \"#utility.yul\":3700:3709   */\n      dup5\n        /* \"#utility.yul\":3687:3710   */\n      calldataload\n        /* \"#utility.yul\":3719:3750   */\n      tag_343\n        /* \"#utility.yul\":3744:3749   */\n      dup2\n        /* \"#utility.yul\":3719:3750   */\n      tag_306\n      jump\t// in\n    tag_343:\n        /* \"#utility.yul\":3769:3774   */\n      swap4\n      pop\n        /* \"#utility.yul\":3826:3828   */\n      0x20\n        /* \"#utility.yul\":3811:3829   */\n      dup6\n      add\n        /* \"#utility.yul\":3798:3830   */\n      calldataload\n        /* \"#utility.yul\":3839:3872   */\n      tag_344\n        /* \"#utility.yul\":3798:3830   */\n      dup2\n        /* \"#utility.yul\":3839:3872   */\n      tag_306\n      jump\t// in\n    tag_344:\n        /* \"#utility.yul\":3891:3898   */\n      swap3\n      pop\n        /* \"#utility.yul\":3949:3951   */\n      0x40\n        /* \"#utility.yul\":3934:3952   */\n      dup6\n      add\n        /* \"#utility.yul\":3921:3953   */\n      calldataload\n        /* \"#utility.yul\":3972:3990   */\n      0xffffffffffffffff\n        /* \"#utility.yul\":4002:4016   */\n      dup1\n      dup3\n      gt\n        /* \"#utility.yul\":3999:4033   */\n      iszero\n      tag_345\n      jumpi\n        /* \"#utility.yul\":4029:4030   */\n      0x00\n        /* \"#utility.yul\":4026:4027   */\n      dup1\n        /* \"#utility.yul\":4019:4031   */\n      revert\n        /* \"#utility.yul\":3999:4033   */\n    tag_345:\n        /* \"#utility.yul\":4067:4073   */\n      dup2\n        /* \"#utility.yul\":4056:4065   */\n      dup8\n        /* \"#utility.yul\":4052:4074   */\n      add\n        /* \"#utility.yul\":4042:4074   */\n      swap2\n      pop\n        /* \"#utility.yul\":4112:4119   */\n      dup8\n        /* \"#utility.yul\":4105:4109   */\n      0x1f\n        /* \"#utility.yul\":4101:4103   */\n      dup4\n        /* \"#utility.yul\":4097:4110   */\n      add\n        /* \"#utility.yul\":4093:4120   */\n      slt\n        /* \"#utility.yul\":4083:4138   */\n      tag_346\n      jumpi\n        /* \"#utility.yul\":4134:4135   */\n      0x00\n        /* \"#utility.yul\":4131:4132   */\n      dup1\n        /* \"#utility.yul\":4124:4136   */\n      revert\n        /* \"#utility.yul\":4083:4138   */\n    tag_346:\n        /* \"#utility.yul\":4174:4176   */\n      dup2\n        /* \"#utility.yul\":4161:4177   */\n      calldataload\n        /* \"#utility.yul\":4200:4202   */\n      dup2\n        /* \"#utility.yul\":4192:4198   */\n      dup2\n        /* \"#utility.yul\":4189:4203   */\n      gt\n        /* \"#utility.yul\":4186:4220   */\n      iszero\n      tag_347\n      jumpi\n        /* \"#utility.yul\":4216:4217   */\n      0x00\n        /* \"#utility.yul\":4213:4214   */\n      dup1\n        /* \"#utility.yul\":4206:4218   */\n      revert\n        /* \"#utility.yul\":4186:4220   */\n    tag_347:\n        /* \"#utility.yul\":4261:4268   */\n      dup9\n        /* \"#utility.yul\":4256:4258   */\n      0x20\n        /* \"#utility.yul\":4247:4253   */\n      dup3\n        /* \"#utility.yul\":4243:4245   */\n      dup6\n        /* \"#utility.yul\":4239:4254   */\n      add\n        /* \"#utility.yul\":4235:4259   */\n      add\n        /* \"#utility.yul\":4232:4269   */\n      gt\n        /* \"#utility.yul\":4229:4286   */\n      iszero\n      tag_348\n      jumpi\n        /* \"#utility.yul\":4282:4283   */\n      0x00\n        /* \"#utility.yul\":4279:4280   */\n      dup1\n        /* \"#utility.yul\":4272:4284   */\n      revert\n        /* \"#utility.yul\":4229:4286   */\n    tag_348:\n        /* \"#utility.yul\":3480:4347   */\n      swap6\n      swap9\n      swap5\n      swap8\n      pop\n      pop\n        /* \"#utility.yul\":4313:4315   */\n      0x20\n        /* \"#utility.yul\":4305:4316   */\n      add\n      swap5\n      pop\n      pop\n      pop\n        /* \"#utility.yul\":3480:4347   */\n      jump\t// out\n        /* \"#utility.yul\":4352:4740   */\n    tag_111:\n        /* \"#utility.yul\":4420:4426   */\n      0x00\n        /* \"#utility.yul\":4428:4434   */\n      dup1\n        /* \"#utility.yul\":4481:4483   */\n      0x40\n        /* \"#utility.yul\":4469:4478   */\n      dup4\n        /* \"#utility.yul\":4460:4467   */\n      dup6\n        /* \"#utility.yul\":4456:4479   */\n      sub\n        /* \"#utility.yul\":4452:4484   */\n      slt\n        /* \"#utility.yul\":4449:4501   */\n      iszero\n      tag_350\n      jumpi\n        /* \"#utility.yul\":4497:4498   */\n      0x00\n        /* \"#utility.yul\":4494:4495   */\n      dup1\n        /* \"#utility.yul\":4487:4499   */\n      revert\n        /* \"#utility.yul\":4449:4501   */\n    tag_350:\n        /* \"#utility.yul\":4536:4545   */\n      dup3\n        /* \"#utility.yul\":4523:4546   */\n      calldataload\n        /* \"#utility.yul\":4555:4586   */\n      tag_351\n        /* \"#utility.yul\":4580:4585   */\n      dup2\n        /* \"#utility.yul\":4555:4586   */\n      tag_306\n      jump\t// in\n    tag_351:\n        /* \"#utility.yul\":4605:4610   */\n      swap2\n      pop\n        /* \"#utility.yul\":4662:4664   */\n      0x20\n        /* \"#utility.yul\":4647:4665   */\n      dup4\n      add\n        /* \"#utility.yul\":4634:4666   */\n      calldataload\n        /* \"#utility.yul\":4675:4708   */\n      tag_352\n        /* \"#utility.yul\":4634:4666   */\n      dup2\n        /* \"#utility.yul\":4675:4708   */\n      tag_306\n      jump\t// in\n    tag_352:\n        /* \"#utility.yul\":4727:4734   */\n      dup1\n        /* \"#utility.yul\":4717:4734   */\n      swap2\n      pop\n      pop\n        /* \"#utility.yul\":4352:4740   */\n      swap3\n      pop\n      swap3\n      swap1\n      pop\n      jump\t// out\n        /* \"#utility.yul\":4745:4872   */\n    tag_307:\n        /* \"#utility.yul\":4806:4816   */\n      0x4e487b71\n        /* \"#utility.yul\":4801:4804   */\n      0xe0\n        /* \"#utility.yul\":4797:4817   */\n      shl\n        /* \"#utility.yul\":4794:4795   */\n      0x00\n        /* \"#utility.yul\":4787:4818   */\n      mstore\n        /* \"#utility.yul\":4837:4841   */\n      0x11\n        /* \"#utility.yul\":4834:4835   */\n      0x04\n        /* \"#utility.yul\":4827:4842   */\n      mstore\n        /* \"#utility.yul\":4861:4865   */\n      0x24\n        /* \"#utility.yul\":4858:4859   */\n      0x00\n        /* \"#utility.yul\":4851:4866   */\n      revert\n        /* \"#utility.yul\":4877:5293   */\n    tag_308:\n        /* \"#utility.yul\":4966:4967   */\n      0x01\n        /* \"#utility.yul\":5003:5008   */\n      dup2\n        /* \"#utility.yul\":4966:4967   */\n      dup2\n        /* \"#utility.yul\":5017:5287   */\n    tag_355:\n        /* \"#utility.yul\":5038:5045   */\n      dup1\n        /* \"#utility.yul\":5028:5036   */\n      dup6\n        /* \"#utility.yul\":5025:5046   */\n      gt\n        /* \"#utility.yul\":5017:5287   */\n      iszero\n      tag_357\n      jumpi\n        /* \"#utility.yul\":5097:5101   */\n      dup2\n        /* \"#utility.yul\":5093:5094   */\n      0x00\n        /* \"#utility.yul\":5089:5095   */\n      not\n        /* \"#utility.yul\":5085:5102   */\n      div\n        /* \"#utility.yul\":5079:5083   */\n      dup3\n        /* \"#utility.yul\":5076:5103   */\n      gt\n        /* \"#utility.yul\":5073:5126   */\n      iszero\n      tag_359\n      jumpi\n        /* \"#utility.yul\":5106:5124   */\n      tag_359\n      tag_307\n      jump\t// in\n    tag_359:\n        /* \"#utility.yul\":5156:5163   */\n      dup1\n        /* \"#utility.yul\":5146:5154   */\n      dup6\n        /* \"#utility.yul\":5142:5164   */\n      and\n        /* \"#utility.yul\":5139:5194   */\n      iszero\n      tag_360\n      jumpi\n        /* \"#utility.yul\":5176:5192   */\n      swap2\n      dup2\n      mul\n      swap2\n        /* \"#utility.yul\":5139:5194   */\n    tag_360:\n        /* \"#utility.yul\":5255:5277   */\n      swap4\n      dup5\n      shr\n      swap4\n        /* \"#utility.yul\":5215:5230   */\n      swap1\n      dup1\n      mul\n      swap1\n        /* \"#utility.yul\":5017:5287   */\n      jump(tag_355)\n    tag_357:\n        /* \"#utility.yul\":5021:5024   */\n      pop\n        /* \"#utility.yul\":4877:5293   */\n      swap3\n      pop\n      swap3\n      swap1\n      pop\n      jump\t// out\n        /* \"#utility.yul\":5298:6104   */\n    tag_309:\n        /* \"#utility.yul\":5347:5352   */\n      0x00\n        /* \"#utility.yul\":5377:5385   */\n      dup3\n        /* \"#utility.yul\":5367:5447   */\n      tag_362\n      jumpi\n      pop\n        /* \"#utility.yul\":5418:5419   */\n      0x01\n        /* \"#utility.yul\":5432:5437   */\n      jump(tag_146)\n        /* \"#utility.yul\":5367:5447   */\n    tag_362:\n        /* \"#utility.yul\":5466:5470   */\n      dup2\n        /* \"#utility.yul\":5456:5532   */\n      tag_363\n      jumpi\n      pop\n        /* \"#utility.yul\":5503:5504   */\n      0x00\n        /* \"#utility.yul\":5517:5522   */\n      jump(tag_146)\n        /* \"#utility.yul\":5456:5532   */\n    tag_363:\n        /* \"#utility.yul\":5548:5552   */\n      dup2\n        /* \"#utility.yul\":5566:5567   */\n      0x01\n        /* \"#utility.yul\":5561:5620   */\n      dup2\n      eq\n      tag_365\n      jumpi\n        /* \"#utility.yul\":5634:5635   */\n      0x02\n        /* \"#utility.yul\":5629:5759   */\n      dup2\n      eq\n      tag_366\n      jumpi\n        /* \"#utility.yul\":5541:5759   */\n      jump(tag_364)\n        /* \"#utility.yul\":5561:5620   */\n    tag_365:\n        /* \"#utility.yul\":5591:5592   */\n      0x01\n        /* \"#utility.yul\":5582:5592   */\n      swap2\n      pop\n        /* \"#utility.yul\":5605:5610   */\n      pop\n      jump(tag_146)\n        /* \"#utility.yul\":5629:5759   */\n    tag_366:\n        /* \"#utility.yul\":5666:5669   */\n      0xff\n        /* \"#utility.yul\":5656:5664   */\n      dup5\n        /* \"#utility.yul\":5653:5670   */\n      gt\n        /* \"#utility.yul\":5650:5693   */\n      iszero\n      tag_368\n      jumpi\n        /* \"#utility.yul\":5673:5691   */\n      tag_368\n      tag_307\n      jump\t// in\n    tag_368:\n      pop\n      pop\n        /* \"#utility.yul\":5729:5730   */\n      0x01\n        /* \"#utility.yul\":5715:5731   */\n      dup3\n      shl\n        /* \"#utility.yul\":5744:5749   */\n      jump(tag_146)\n        /* \"#utility.yul\":5541:5759   */\n    tag_364:\n      pop\n        /* \"#utility.yul\":5843:5845   */\n      0x20\n        /* \"#utility.yul\":5833:5841   */\n      dup4\n        /* \"#utility.yul\":5830:5846   */\n      lt\n        /* \"#utility.yul\":5824:5827   */\n      0x0133\n        /* \"#utility.yul\":5818:5822   */\n      dup4\n        /* \"#utility.yul\":5815:5828   */\n      lt\n        /* \"#utility.yul\":5811:5847   */\n      and\n        /* \"#utility.yul\":5805:5807   */\n      0x4e\n        /* \"#utility.yul\":5795:5803   */\n      dup5\n        /* \"#utility.yul\":5792:5808   */\n      lt\n        /* \"#utility.yul\":5787:5789   */\n      0x0b\n        /* \"#utility.yul\":5781:5785   */\n      dup5\n        /* \"#utility.yul\":5778:5790   */\n      lt\n        /* \"#utility.yul\":5774:5809   */\n      and\n        /* \"#utility.yul\":5771:5848   */\n      or\n        /* \"#utility.yul\":5768:5927   */\n      iszero\n      tag_369\n      jumpi\n      pop\n        /* \"#utility.yul\":5880:5899   */\n      dup2\n      dup2\n      exp\n        /* \"#utility.yul\":5912:5917   */\n      jump(tag_146)\n        /* \"#utility.yul\":5768:5927   */\n    tag_369:\n        /* \"#utility.yul\":5959:5993   */\n      tag_370\n        /* \"#utility.yul\":5984:5992   */\n      dup4\n        /* \"#utility.yul\":5978:5982   */\n      dup4\n        /* \"#utility.yul\":5959:5993   */\n      tag_308\n      jump\t// in\n    tag_370:\n        /* \"#utility.yul\":6029:6035   */\n      dup1\n        /* \"#utility.yul\":6025:6026   */\n      0x00\n        /* \"#utility.yul\":6021:6027   */\n      not\n        /* \"#utility.yul\":6017:6036   */\n      div\n        /* \"#utility.yul\":6008:6015   */\n      dup3\n        /* \"#utility.yul\":6005:6037   */\n      gt\n        /* \"#utility.yul\":6002:6060   */\n      iszero\n      tag_372\n      jumpi\n        /* \"#utility.yul\":6040:6058   */\n      tag_372\n      tag_307\n      jump\t// in\n    tag_372:\n        /* \"#utility.yul\":6078:6098   */\n      mul\n      swap4\n        /* \"#utility.yul\":5298:6104   */\n      swap3\n      pop\n      pop\n      pop\n      jump\t// out\n        /* \"#utility.yul\":6109:6249   */\n    tag_124:\n        /* \"#utility.yul\":6167:6172   */\n      0x00\n        /* \"#utility.yul\":6196:6243   */\n      tag_322\n        /* \"#utility.yul\":6237:6241   */\n      0xff\n        /* \"#utility.yul\":6227:6235   */\n      dup5\n        /* \"#utility.yul\":6223:6242   */\n      and\n        /* \"#utility.yul\":6217:6221   */\n      dup4\n        /* \"#utility.yul\":6196:6243   */\n      tag_309\n      jump\t// in\n        /* \"#utility.yul\":6254:6422   */\n    tag_126:\n        /* \"#utility.yul\":6327:6336   */\n      dup1\n      dup3\n      mul\n        /* \"#utility.yul\":6358:6367   */\n      dup2\n      iszero\n        /* \"#utility.yul\":6375:6390   */\n      dup3\n      dup3\n      div\n        /* \"#utility.yul\":6369:6391   */\n      dup5\n      eq\n        /* \"#utility.yul\":6355:6392   */\n      or\n        /* \"#utility.yul\":6345:6416   */\n      tag_146\n      jumpi\n        /* \"#utility.yul\":6396:6414   */\n      tag_146\n      tag_307\n      jump\t// in\n        /* \"#utility.yul\":7033:7413   */\n    tag_135:\n        /* \"#utility.yul\":7112:7113   */\n      0x01\n        /* \"#utility.yul\":7108:7120   */\n      dup2\n      dup2\n      shr\n      swap1\n        /* \"#utility.yul\":7155:7167   */\n      dup3\n      and\n      dup1\n        /* \"#utility.yul\":7176:7237   */\n      tag_380\n      jumpi\n        /* \"#utility.yul\":7230:7234   */\n      0x7f\n        /* \"#utility.yul\":7222:7228   */\n      dup3\n        /* \"#utility.yul\":7218:7235   */\n      and\n        /* \"#utility.yul\":7208:7235   */\n      swap2\n      pop\n        /* \"#utility.yul\":7176:7237   */\n    tag_380:\n        /* \"#utility.yul\":7283:7285   */\n      0x20\n        /* \"#utility.yul\":7275:7281   */\n      dup3\n        /* \"#utility.yul\":7272:7286   */\n      lt\n        /* \"#utility.yul\":7252:7270   */\n      dup2\n        /* \"#utility.yul\":7249:7287   */\n      sub\n        /* \"#utility.yul\":7246:7407   */\n      tag_381\n      jumpi\n        /* \"#utility.yul\":7329:7339   */\n      0x4e487b71\n        /* \"#utility.yul\":7324:7327   */\n      0xe0\n        /* \"#utility.yul\":7320:7340   */\n      shl\n        /* \"#utility.yul\":7317:7318   */\n      0x00\n        /* \"#utility.yul\":7310:7341   */\n      mstore\n        /* \"#utility.yul\":7364:7368   */\n      0x22\n        /* \"#utility.yul\":7361:7362   */\n      0x04\n        /* \"#utility.yul\":7354:7369   */\n      mstore\n        /* \"#utility.yul\":7392:7396   */\n      0x24\n        /* \"#utility.yul\":7389:7390   */\n      0x00\n        /* \"#utility.yul\":7382:7397   */\n      revert\n        /* \"#utility.yul\":7246:7407   */\n    tag_381:\n      pop\n        /* \"#utility.yul\":7033:7413   */\n      swap2\n      swap1\n      pop\n      jump\t// out\n        /* \"#utility.yul\":8040:8525   */\n    tag_198:\n      sub(shl(0xa0, 0x01), 0x01)\n        /* \"#utility.yul\":8225:8257   */\n      dup5\n      and\n        /* \"#utility.yul\":8207:8258   */\n      dup2\n      mstore\n        /* \"#utility.yul\":8294:8296   */\n      0x40\n        /* \"#utility.yul\":8289:8291   */\n      0x20\n        /* \"#utility.yul\":8274:8292   */\n      dup3\n      add\n        /* \"#utility.yul\":8267:8297   */\n      dup2\n      swap1\n      mstore\n        /* \"#utility.yul\":8313:8331   */\n      dup2\n      add\n        /* \"#utility.yul\":8306:8340   */\n      dup3\n      swap1\n      mstore\n        /* \"#utility.yul\":8333:8339   */\n      dup2\n        /* \"#utility.yul\":8382:8388   */\n      dup4\n        /* \"#utility.yul\":8377:8379   */\n      0x60\n        /* \"#utility.yul\":8362:8380   */\n      dup4\n      add\n        /* \"#utility.yul\":8349:8397   */\n      calldatacopy\n        /* \"#utility.yul\":8446:8447   */\n      0x00\n        /* \"#utility.yul\":8417:8439   */\n      dup2\n      dup4\n      add\n        /* \"#utility.yul\":8441:8443   */\n      0x60\n        /* \"#utility.yul\":8413:8444   */\n      swap1\n      dup2\n      add\n        /* \"#utility.yul\":8406:8448   */\n      swap2\n      swap1\n      swap2\n      mstore\n        /* \"#utility.yul\":8509:8511   */\n      0x1f\n        /* \"#utility.yul\":8488:8503   */\n      swap1\n      swap3\n      add\n      not(0x1f)\n        /* \"#utility.yul\":8484:8513   */\n      and\n        /* \"#utility.yul\":8469:8514   */\n      add\n        /* \"#utility.yul\":8465:8519   */\n      add\n      swap3\n        /* \"#utility.yul\":8040:8525   */\n      swap2\n      pop\n      pop\n      jump\t// out\n        /* \"#utility.yul\":8530:8714   */\n    tag_202:\n        /* \"#utility.yul\":8600:8606   */\n      0x00\n        /* \"#utility.yul\":8653:8655   */\n      0x20\n        /* \"#utility.yul\":8641:8650   */\n      dup3\n        /* \"#utility.yul\":8632:8639   */\n      dup5\n        /* \"#utility.yul\":8628:8651   */\n      sub\n        /* \"#utility.yul\":8624:8656   */\n      slt\n        /* \"#utility.yul\":8621:8673   */\n      iszero\n      tag_386\n      jumpi\n        /* \"#utility.yul\":8669:8670   */\n      0x00\n        /* \"#utility.yul\":8666:8667   */\n      dup1\n        /* \"#utility.yul\":8659:8671   */\n      revert\n        /* \"#utility.yul\":8621:8673   */\n    tag_386:\n      pop\n        /* \"#utility.yul\":8692:8708   */\n      mload\n      swap2\n        /* \"#utility.yul\":8530:8714   */\n      swap1\n      pop\n      jump\t// out\n        /* \"#utility.yul\":9180:9344   */\n    tag_310:\n        /* \"#utility.yul\":9256:9269   */\n      dup1\n      mload\n        /* \"#utility.yul\":9305:9318   */\n      dup1\n      iszero\n        /* \"#utility.yul\":9298:9319   */\n      iszero\n        /* \"#utility.yul\":9288:9320   */\n      dup2\n      eq\n        /* \"#utility.yul\":9278:9338   */\n      tag_389\n      jumpi\n        /* \"#utility.yul\":9334:9335   */\n      0x00\n        /* \"#utility.yul\":9331:9332   */\n      dup1\n        /* \"#utility.yul\":9324:9336   */\n      revert\n        /* \"#utility.yul\":9278:9338   */\n    tag_389:\n        /* \"#utility.yul\":9180:9344   */\n      swap2\n      swap1\n      pop\n      jump\t// out\n        /* \"#utility.yul\":9349:9551   */\n    tag_217:\n        /* \"#utility.yul\":9416:9422   */\n      0x00\n        /* \"#utility.yul\":9469:9471   */\n      0x20\n        /* \"#utility.yul\":9457:9466   */\n      dup3\n        /* \"#utility.yul\":9448:9455   */\n      dup5\n        /* \"#utility.yul\":9444:9467   */\n      sub\n        /* \"#utility.yul\":9440:9472   */\n      slt\n        /* \"#utility.yul\":9437:9489   */\n      iszero\n      tag_391\n      jumpi\n        /* \"#utility.yul\":9485:9486   */\n      0x00\n        /* \"#utility.yul\":9482:9483   */\n      dup1\n        /* \"#utility.yul\":9475:9487   */\n      revert\n        /* \"#utility.yul\":9437:9489   */\n    tag_391:\n        /* \"#utility.yul\":9508:9545   */\n      tag_322\n        /* \"#utility.yul\":9535:9544   */\n      dup3\n        /* \"#utility.yul\":9508:9545   */\n      tag_310\n      jump\t// in\n        /* \"#utility.yul\":9556:9900   */\n    tag_311:\n        /* \"#utility.yul\":9623:9625   */\n      0x40\n        /* \"#utility.yul\":9617:9626   */\n      mload\n        /* \"#utility.yul\":9665:9668   */\n      0x01e0\n        /* \"#utility.yul\":9653:9669   */\n      dup2\n      add\n        /* \"#utility.yul\":9699:9717   */\n      0xffffffffffffffff\n        /* \"#utility.yul\":9684:9718   */\n      dup2\n      gt\n        /* \"#utility.yul\":9720:9742   */\n      dup3\n      dup3\n      lt\n        /* \"#utility.yul\":9681:9743   */\n      or\n        /* \"#utility.yul\":9678:9863   */\n      iszero\n      tag_394\n      jumpi\n        /* \"#utility.yul\":9785:9795   */\n      0x4e487b71\n        /* \"#utility.yul\":9780:9783   */\n      0xe0\n        /* \"#utility.yul\":9776:9796   */\n      shl\n        /* \"#utility.yul\":9773:9774   */\n      0x00\n        /* \"#utility.yul\":9766:9797   */\n      mstore\n        /* \"#utility.yul\":9820:9824   */\n      0x41\n        /* \"#utility.yul\":9817:9818   */\n      0x04\n        /* \"#utility.yul\":9810:9825   */\n      mstore\n        /* \"#utility.yul\":9848:9852   */\n      0x24\n        /* \"#utility.yul\":9845:9846   */\n      0x00\n        /* \"#utility.yul\":9838:9853   */\n      revert\n        /* \"#utility.yul\":9678:9863   */\n    tag_394:\n        /* \"#utility.yul\":9879:9881   */\n      0x40\n        /* \"#utility.yul\":9872:9894   */\n      mstore\n        /* \"#utility.yul\":9556:9900   */\n      swap1\n      jump\t// out\n        /* \"#utility.yul\":9905:10043   */\n    tag_312:\n        /* \"#utility.yul\":9984:9997   */\n      dup1\n      mload\n        /* \"#utility.yul\":10006:10037   */\n      tag_389\n        /* \"#utility.yul\":9984:9997   */\n      dup2\n        /* \"#utility.yul\":10006:10037   */\n      tag_306\n      jump\t// in\n        /* \"#utility.yul\":10048:10199   */\n    tag_313:\n        /* \"#utility.yul\":10131:10144   */\n      dup1\n      mload\n        /* \"#utility.yul\":10173:10174   */\n      0x04\n        /* \"#utility.yul\":10163:10175   */\n      dup2\n      lt\n        /* \"#utility.yul\":10153:10193   */\n      tag_389\n      jumpi\n        /* \"#utility.yul\":10189:10190   */\n      0x00\n        /* \"#utility.yul\":10186:10187   */\n      dup1\n        /* \"#utility.yul\":10179:10191   */\n      revert\n        /* \"#utility.yul\":10204:11557   */\n    tag_230:\n        /* \"#utility.yul\":10303:10309   */\n      0x00\n        /* \"#utility.yul\":10356:10359   */\n      0x01e0\n        /* \"#utility.yul\":10344:10353   */\n      dup3\n        /* \"#utility.yul\":10335:10342   */\n      dup5\n        /* \"#utility.yul\":10331:10354   */\n      sub\n        /* \"#utility.yul\":10327:10360   */\n      slt\n        /* \"#utility.yul\":10324:10377   */\n      iszero\n      tag_400\n      jumpi\n        /* \"#utility.yul\":10373:10374   */\n      0x00\n        /* \"#utility.yul\":10370:10371   */\n      dup1\n        /* \"#utility.yul\":10363:10375   */\n      revert\n        /* \"#utility.yul\":10324:10377   */\n    tag_400:\n        /* \"#utility.yul\":10399:10416   */\n      tag_401\n      tag_311\n      jump\t// in\n    tag_401:\n        /* \"#utility.yul\":10439:10479   */\n      tag_402\n        /* \"#utility.yul\":10469:10478   */\n      dup4\n        /* \"#utility.yul\":10439:10479   */\n      tag_312\n      jump\t// in\n    tag_402:\n        /* \"#utility.yul\":10432:10437   */\n      dup2\n        /* \"#utility.yul\":10425:10480   */\n      mstore\n        /* \"#utility.yul\":10512:10565   */\n      tag_403\n        /* \"#utility.yul\":10561:10563   */\n      0x20\n        /* \"#utility.yul\":10550:10559   */\n      dup5\n        /* \"#utility.yul\":10546:10564   */\n      add\n        /* \"#utility.yul\":10512:10565   */\n      tag_313\n      jump\t// in\n    tag_403:\n        /* \"#utility.yul\":10507:10509   */\n      0x20\n        /* \"#utility.yul\":10500:10505   */\n      dup3\n        /* \"#utility.yul\":10496:10510   */\n      add\n        /* \"#utility.yul\":10489:10566   */\n      mstore\n        /* \"#utility.yul\":10619:10621   */\n      0x40\n        /* \"#utility.yul\":10608:10617   */\n      dup4\n        /* \"#utility.yul\":10604:10622   */\n      add\n        /* \"#utility.yul\":10598:10623   */\n      mload\n        /* \"#utility.yul\":10593:10595   */\n      0x40\n        /* \"#utility.yul\":10586:10591   */\n      dup3\n        /* \"#utility.yul\":10582:10596   */\n      add\n        /* \"#utility.yul\":10575:10624   */\n      mstore\n        /* \"#utility.yul\":10677:10679   */\n      0x60\n        /* \"#utility.yul\":10666:10675   */\n      dup4\n        /* \"#utility.yul\":10662:10680   */\n      add\n        /* \"#utility.yul\":10656:10681   */\n      mload\n        /* \"#utility.yul\":10651:10653   */\n      0x60\n        /* \"#utility.yul\":10644:10649   */\n      dup3\n        /* \"#utility.yul\":10640:10654   */\n      add\n        /* \"#utility.yul\":10633:10682   */\n      mstore\n        /* \"#utility.yul\":10736:10739   */\n      0x80\n        /* \"#utility.yul\":10725:10734   */\n      dup4\n        /* \"#utility.yul\":10721:10740   */\n      add\n        /* \"#utility.yul\":10715:10741   */\n      mload\n        /* \"#utility.yul\":10709:10712   */\n      0x80\n        /* \"#utility.yul\":10702:10707   */\n      dup3\n        /* \"#utility.yul\":10698:10713   */\n      add\n        /* \"#utility.yul\":10691:10742   */\n      mstore\n        /* \"#utility.yul\":10796:10799   */\n      0xa0\n        /* \"#utility.yul\":10785:10794   */\n      dup4\n        /* \"#utility.yul\":10781:10800   */\n      add\n        /* \"#utility.yul\":10775:10801   */\n      mload\n        /* \"#utility.yul\":10769:10772   */\n      0xa0\n        /* \"#utility.yul\":10762:10767   */\n      dup3\n        /* \"#utility.yul\":10758:10773   */\n      add\n        /* \"#utility.yul\":10751:10802   */\n      mstore\n        /* \"#utility.yul\":10856:10859   */\n      0xc0\n        /* \"#utility.yul\":10845:10854   */\n      dup4\n        /* \"#utility.yul\":10841:10860   */\n      add\n        /* \"#utility.yul\":10835:10861   */\n      mload\n        /* \"#utility.yul\":10829:10832   */\n      0xc0\n        /* \"#utility.yul\":10822:10827   */\n      dup3\n        /* \"#utility.yul\":10818:10833   */\n      add\n        /* \"#utility.yul\":10811:10862   */\n      mstore\n        /* \"#utility.yul\":10916:10919   */\n      0xe0\n        /* \"#utility.yul\":10905:10914   */\n      dup4\n        /* \"#utility.yul\":10901:10920   */\n      add\n        /* \"#utility.yul\":10895:10921   */\n      mload\n        /* \"#utility.yul\":10889:10892   */\n      0xe0\n        /* \"#utility.yul\":10882:10887   */\n      dup3\n        /* \"#utility.yul\":10878:10893   */\n      add\n        /* \"#utility.yul\":10871:10922   */\n      mstore\n        /* \"#utility.yul\":10941:10944   */\n      0x0100\n        /* \"#utility.yul\":10997:10999   */\n      dup1\n        /* \"#utility.yul\":10986:10995   */\n      dup5\n        /* \"#utility.yul\":10982:11000   */\n      add\n        /* \"#utility.yul\":10976:11001   */\n      mload\n        /* \"#utility.yul\":10971:10973   */\n      dup2\n        /* \"#utility.yul\":10964:10969   */\n      dup4\n        /* \"#utility.yul\":10960:10974   */\n      add\n        /* \"#utility.yul\":10953:11002   */\n      mstore\n      pop\n        /* \"#utility.yul\":11021:11024   */\n      0x0120\n        /* \"#utility.yul\":11077:11079   */\n      dup1\n        /* \"#utility.yul\":11066:11075   */\n      dup5\n        /* \"#utility.yul\":11062:11080   */\n      add\n        /* \"#utility.yul\":11056:11081   */\n      mload\n        /* \"#utility.yul\":11051:11053   */\n      dup2\n        /* \"#utility.yul\":11044:11049   */\n      dup4\n        /* \"#utility.yul\":11040:11054   */\n      add\n        /* \"#utility.yul\":11033:11082   */\n      mstore\n      pop\n        /* \"#utility.yul\":11101:11104   */\n      0x0140\n        /* \"#utility.yul\":11157:11159   */\n      dup1\n        /* \"#utility.yul\":11146:11155   */\n      dup5\n        /* \"#utility.yul\":11142:11160   */\n      add\n        /* \"#utility.yul\":11136:11161   */\n      mload\n        /* \"#utility.yul\":11131:11133   */\n      dup2\n        /* \"#utility.yul\":11124:11129   */\n      dup4\n        /* \"#utility.yul\":11120:11134   */\n      add\n        /* \"#utility.yul\":11113:11162   */\n      mstore\n      pop\n        /* \"#utility.yul\":11181:11184   */\n      0x0160\n        /* \"#utility.yul\":11237:11239   */\n      dup1\n        /* \"#utility.yul\":11226:11235   */\n      dup5\n        /* \"#utility.yul\":11222:11240   */\n      add\n        /* \"#utility.yul\":11216:11241   */\n      mload\n        /* \"#utility.yul\":11211:11213   */\n      dup2\n        /* \"#utility.yul\":11204:11209   */\n      dup4\n        /* \"#utility.yul\":11200:11214   */\n      add\n        /* \"#utility.yul\":11193:11242   */\n      mstore\n      pop\n        /* \"#utility.yul\":11261:11264   */\n      0x0180\n        /* \"#utility.yul\":11296:11345   */\n      tag_404\n        /* \"#utility.yul\":11341:11343   */\n      dup2\n        /* \"#utility.yul\":11330:11339   */\n      dup6\n        /* \"#utility.yul\":11326:11344   */\n      add\n        /* \"#utility.yul\":11296:11345   */\n      tag_312\n      jump\t// in\n    tag_404:\n        /* \"#utility.yul\":11280:11294   */\n      swap1\n      dup3\n      add\n        /* \"#utility.yul\":11273:11346   */\n      mstore\n        /* \"#utility.yul\":11365:11368   */\n      0x01a0\n        /* \"#utility.yul\":11406:11424   */\n      dup4\n      dup2\n      add\n        /* \"#utility.yul\":11400:11425   */\n      mload\n        /* \"#utility.yul\":11384:11398   */\n      swap1\n      dup3\n      add\n        /* \"#utility.yul\":11377:11426   */\n      mstore\n        /* \"#utility.yul\":11445:11448   */\n      0x01c0\n        /* \"#utility.yul\":11480:11526   */\n      tag_405\n        /* \"#utility.yul\":11507:11525   */\n      dup2\n      dup6\n      add\n        /* \"#utility.yul\":11480:11526   */\n      tag_310\n      jump\t// in\n    tag_405:\n        /* \"#utility.yul\":11464:11478   */\n      swap1\n      dup3\n      add\n        /* \"#utility.yul\":11457:11527   */\n      mstore\n        /* \"#utility.yul\":11468:11473   */\n      swap4\n        /* \"#utility.yul\":10204:11557   */\n      swap3\n      pop\n      pop\n      pop\n      jump\t// out\n        /* \"#utility.yul\":12959:13084   */\n    tag_299:\n        /* \"#utility.yul\":13024:13033   */\n      dup1\n      dup3\n      add\n        /* \"#utility.yul\":13045:13055   */\n      dup1\n      dup3\n      gt\n        /* \"#utility.yul\":13042:13078   */\n      iszero\n      tag_146\n      jumpi\n        /* \"#utility.yul\":13058:13076   */\n      tag_146\n      tag_307\n      jump\t// in\n\n    auxdata: 0xa2646970667358221220311213009e8407a8bb6dfc97c9dd492d6570038efe8d466a3191efd8fbb86e2664736f6c63430008190033\n}\n",
				"bytecode": {
					"linkReferences": {},
					"object": "608060405234801561000f575f80fd5b5060405161175e38038061175e83398101604081905261002e9161017e565b336040518060400160405280600d81526020016c1b1bdd1d195c9e551a58dad95d609a1b81525060405180604001604052806006815260200165151a58dad95d60d21b81525081600390816100839190610263565b5060046100908282610263565b50506001600555506001600160a01b0381166100c557604051631e4fbdf760e01b81525f600482015260240160405180910390fd5b6100ce81610119565b5060078054911515600160a81b0260ff60a81b19931515600160a01b026001600160a81b03199093166001600160a01b03909516949094179190911791909116919091179055610322565b600680546001600160a01b038381166001600160a01b0319831681179093556040519116919082907f8be0079c531659141344cd1fd0a4f28419497f9722a3daafe3b4186f6b6457e0905f90a35050565b80518015158114610179575f80fd5b919050565b5f805f60608486031215610190575f80fd5b83516001600160a01b03811681146101a6575f80fd5b92506101b46020850161016a565b91506101c26040850161016a565b90509250925092565b634e487b7160e01b5f52604160045260245ffd5b600181811c908216806101f357607f821691505b60208210810361021157634e487b7160e01b5f52602260045260245ffd5b50919050565b601f82111561025e57805f5260205f20601f840160051c8101602085101561023c5750805b601f840160051c820191505b8181101561025b575f8155600101610248565b50505b505050565b81516001600160401b0381111561027c5761027c6101cb565b6102908161028a84546101df565b84610217565b602080601f8311600181146102c3575f84156102ac5750858301515b5f19600386901b1c1916600185901b17855561031a565b5f85815260208120601f198616915b828110156102f1578886015182559484019460019091019084016102d2565b508582101561030e57878501515f19600388901b60f8161c191681555b505060018460011b0185555b505050505050565b61142f8061032f5f395ff3fe608060405234801561000f575f80fd5b5060043610610153575f3560e01c8063715018a6116100bf578063c7ff23bb11610079578063c7ff23bb146102ed578063d896fc1014610300578063d9caed1214610313578063dd62ed3e14610326578063e405663f1461035e578063f2fde38b1461037d575f80fd5b8063715018a61461027e57806379cc6790146102865780638da5cb5b1461029957806395d89b41146102be578063a9059cbb146102c6578063b4309a9c146102d9575f80fd5b806318160ddd1161011057806318160ddd1461020657806323b872dd1461020e578063313ce5671461022157806342966c68146102305780636ebd327b1461024357806370a0823114610256575f80fd5b8063012c911e14610157578063019f232a1461016c57806306e2a29a146101a757806306fdde03146101cb578063082921a5146101e0578063095ea7b3146101f3575b5f80fd5b61016a610165366004610eeb565b610390565b005b61019461017a366004610f20565b6001600160a01b03165f9081526008602052604090205490565b6040519081526020015b60405180910390f35b6007546101bb90600160a81b900460ff1681565b604051901515815260200161019e565b6101d3610426565b60405161019e9190610f42565b61016a6101ee366004610f77565b6104b6565b6101bb610201366004610f77565b610515565b600254610194565b6101bb61021c366004610fa1565b61052e565b6040516012815260200161019e565b61016a61023e366004610fce565b610551565b61016a610251366004610fe5565b61055e565b610194610264366004610f20565b6001600160a01b03165f9081526020819052604090205490565b61016a6105f8565b61016a610294366004610f77565b61060b565b6006546001600160a01b03165b6040516001600160a01b03909116815260200161019e565b6101d3610624565b6101bb6102d4366004610f77565b610633565b6007546101bb90600160a01b900460ff1681565b6007546102a6906001600160a01b031681565b61016a61030e36600461102a565b610640565b61016a610321366004610fa1565b61079c565b6101946103343660046110b5565b6001600160a01b039182165f90815260016020908152604080832093909416825291909152205490565b61019461036c366004610f20565b60086020525f908152604090205481565b61016a61038b366004610f20565b610814565b5f61039d6012600a6111e0565b6103a790836111ee565b90506103b281610551565b5f6103be85858561084e565b604080518781523360208201526001600160a01b03871681830152606081018590526080810186905282151560a082015290519192507febc14ddbdd1e1ebc5a287d8957bd1ca84faef18f192f27829b8459fd15f5195d919081900360c00190a15050505050565b60606003805461043590611205565b80601f016020809104026020016040519081016040528092919081815260200182805461046190611205565b80156104ac5780601f10610483576101008083540402835291602001916104ac565b820191905f5260205f20905b81548152906001019060200180831161048f57829003601f168201915b5050505050905090565b6104be610aeb565b6001600160a01b0382165f81815260086020908152604091829020849055815192835282018390527fd7d0cdf0b13669cab92566615f9093d52f6d2c34cc92561e500dddd3ae918de8910160405180910390a15050565b5f33610522818585610b18565b60019150505b92915050565b5f3361053b858285610b2a565b610546858585610b9f565b506001949350505050565b61055b3382610bfc565b50565b5f61056b6012600a6111e0565b61057590836111ee565b9050610581848261060b565b5f61058d86858561084e565b604080518881526001600160a01b038881166020830152871681830152606081018590526080810186905282151560a082015290519192507febc14ddbdd1e1ebc5a287d8957bd1ca84faef18f192f27829b8459fd15f5195d919081900360c00190a1505050505050565b610600610aeb565b6106095f610c30565b565b610616823383610b2a565b6106208282610bfc565b5050565b60606004805461043590611205565b5f33610522818585610b9f565b610648610c81565b6001600160a01b0384165f9081526008602052604081205490036106a45760405162461bcd60e51b815260206004820152600e60248201526d6e6f20736574206173207461736b60901b60448201526064015b60405180910390fd5b6001600160a01b0384165f818152600860205260408082205490516370d6469360e11b81529192909163e1ac8d26906106e59033908890889060040161123d565b6020604051808303815f875af1158015610701573d5f803e3d5ffd5b505050506040513d601f19601f82011682018060405250810190610725919061127c565b61072f91906111ee565b905061073b8482610cab565b604080513381526001600160a01b0387811660208301528616818301526060810183905290517f4d914fbdb28a885441bb0f6e06bb01dfdfe8a8b6902391853b46eb747ae136ef9181900360800190a1506107966001600555565b50505050565b6107a4610aeb565b60405163a9059cbb60e01b81526001600160a01b0383811660048301526024820183905284169063a9059cbb906044016020604051808303815f875af11580156107f0573d5f803e3d5ffd5b505050506040513d601f19601f8201168201806040525081019061079691906112a7565b61081c610aeb565b6001600160a01b03811661084557604051631e4fbdf760e01b81525f600482015260240161069b565b61055b81610c30565b600754604051638f91cd1760e01b8152600481018590525f9160019183916001600160a01b031690638f91cd17906024016101e060405180830381865afa15801561089b573d5f803e3d5ffd5b505050506040513d601f19601f820116820180604052508101906108bf919061130f565b6101808101519091506001600160a01b0316610a2157600754600160a01b900460ff1615156001146109295760405162461bcd60e51b8152602060048201526013602482015272627579207469636b6574206e6f20616c6c6f7760681b604482015260640161069b565b5f8482610160015161093b91906111ee565b825160075460405163095ea7b360e01b81526001600160a01b03918216600482015260248101849052929350169063095ea7b3906044016020604051808303815f875af115801561098e573d5f803e3d5ffd5b505050506040513d601f19601f820116820180604052508101906109b291906112a7565b5060075460405163c5e7bb3360e01b8152600481018990526001600160a01b038881166024830152604482018890529091169063c5e7bb33906064015f604051808303815f87803b158015610a05575f80fd5b505af1158015610a17573d5f803e3d5ffd5b5050505050610ae2565b600754600160a81b900460ff161515600114610a765760405162461bcd60e51b815260206004820152601460248201527373656e64207469636b6574206e6f20616c6c6f7760601b604482015260640161069b565b600754604051635c42e0c560e01b8152600481018890526001600160a01b0387811660248301526044820187905290911690635c42e0c5906064015f604051808303815f87803b158015610ac8575f80fd5b505af1158015610ada573d5f803e3d5ffd5b505050505f91505b50949350505050565b6006546001600160a01b031633146106095760405163118cdaa760e01b815233600482015260240161069b565b610b258383836001610cdf565b505050565b6001600160a01b038381165f908152600160209081526040808320938616835292905220545f1981146107965781811015610b9157604051637dc7a0d960e11b81526001600160a01b0384166004820152602481018290526044810183905260640161069b565b61079684848484035f610cdf565b6001600160a01b038316610bc857604051634b637e8f60e11b81525f600482015260240161069b565b6001600160a01b038216610bf15760405163ec442f0560e01b81525f600482015260240161069b565b610b25838383610db1565b6001600160a01b038216610c2557604051634b637e8f60e11b81525f600482015260240161069b565b610620825f83610db1565b600680546001600160a01b038381166001600160a01b0319831681179093556040519116919082907f8be0079c531659141344cd1fd0a4f28419497f9722a3daafe3b4186f6b6457e0905f90a35050565b600260055403610ca457604051633ee5aeb560e01b815260040160405180910390fd5b6002600555565b6001600160a01b038216610cd45760405163ec442f0560e01b81525f600482015260240161069b565b6106205f8383610db1565b6001600160a01b038416610d085760405163e602df0560e01b81525f600482015260240161069b565b6001600160a01b038316610d3157604051634a1406b160e11b81525f600482015260240161069b565b6001600160a01b038085165f908152600160209081526040808320938716835292905220829055801561079657826001600160a01b0316846001600160a01b03167f8c5be1e5ebec7d5bd14f71427d1e84f3dd0314c0f7b2291e5b200ac8c7c3b92584604051610da391815260200190565b60405180910390a350505050565b6001600160a01b038316610ddb578060025f828254610dd091906113e6565b90915550610e4b9050565b6001600160a01b0383165f9081526020819052604090205481811015610e2d5760405163391434e360e21b81526001600160a01b0385166004820152602481018290526044810183905260640161069b565b6001600160a01b0384165f9081526020819052604090209082900390555b6001600160a01b038216610e6757600280548290039055610e85565b6001600160a01b0382165f9081526020819052604090208054820190555b816001600160a01b0316836001600160a01b03167fddf252ad1be2c89b69c2b068fc378daa952ba7f163c4a11628f55a4df523b3ef83604051610eca91815260200190565b60405180910390a3505050565b6001600160a01b038116811461055b575f80fd5b5f805f60608486031215610efd575f80fd5b833592506020840135610f0f81610ed7565b929592945050506040919091013590565b5f60208284031215610f30575f80fd5b8135610f3b81610ed7565b9392505050565b602081525f82518060208401528060208501604085015e5f604082850101526040601f19601f83011684010191505092915050565b5f8060408385031215610f88575f80fd5b8235610f9381610ed7565b946020939093013593505050565b5f805f60608486031215610fb3575f80fd5b8335610fbe81610ed7565b92506020840135610f0f81610ed7565b5f60208284031215610fde575f80fd5b5035919050565b5f805f8060808587031215610ff8575f80fd5b84359350602085013561100a81610ed7565b9250604085013561101a81610ed7565b9396929550929360600135925050565b5f805f806060858703121561103d575f80fd5b843561104881610ed7565b9350602085013561105881610ed7565b9250604085013567ffffffffffffffff80821115611074575f80fd5b818701915087601f830112611087575f80fd5b813581811115611095575f80fd5b8860208285010111156110a6575f80fd5b95989497505060200194505050565b5f80604083850312156110c6575f80fd5b82356110d181610ed7565b915060208301356110e181610ed7565b809150509250929050565b634e487b7160e01b5f52601160045260245ffd5b600181815b8085111561113a57815f1904821115611120576111206110ec565b8085161561112d57918102915b93841c9390800290611105565b509250929050565b5f8261115057506001610528565b8161115c57505f610528565b8160018114611172576002811461117c57611198565b6001915050610528565b60ff84111561118d5761118d6110ec565b50506001821b610528565b5060208310610133831016604e8410600b84101617156111bb575081810a610528565b6111c58383611100565b805f19048211156111d8576111d86110ec565b029392505050565b5f610f3b60ff841683611142565b8082028115828204841417610528576105286110ec565b600181811c9082168061121957607f821691505b60208210810361123757634e487b7160e01b5f52602260045260245ffd5b50919050565b6001600160a01b03841681526040602082018190528101829052818360608301375f818301606090810191909152601f909201601f1916010192915050565b5f6020828403121561128c575f80fd5b5051919050565b805180151581146112a2575f80fd5b919050565b5f602082840312156112b7575f80fd5b610f3b82611293565b6040516101e0810167ffffffffffffffff811182821017156112f057634e487b7160e01b5f52604160045260245ffd5b60405290565b80516112a281610ed7565b8051600481106112a2575f80fd5b5f6101e08284031215611320575f80fd5b6113286112c0565b611331836112f6565b815261133f60208401611301565b602082015260408301516040820152606083015160608201526080830151608082015260a083015160a082015260c083015160c082015260e083015160e08201526101008084015181830152506101208084015181830152506101408084015181830152506101608084015181830152506101806113be8185016112f6565b908201526101a083810151908201526101c06113db818501611293565b908201529392505050565b80820180821115610528576105286110ec56fea2646970667358221220311213009e8407a8bb6dfc97c9dd492d6570038efe8d466a3191efd8fbb86e2664736f6c63430008190033",
					"opcodes": "PUSH1 0x80 PUSH1 0x40 MSTORE CALLVALUE DUP1 ISZERO PUSH2 0xF JUMPI PUSH0 DUP1 REVERT JUMPDEST POP PUSH1 0x40 MLOAD PUSH2 0x175E CODESIZE SUB DUP1 PUSH2 0x175E DUP4 CODECOPY DUP2 ADD PUSH1 0x40 DUP2 SWAP1 MSTORE PUSH2 0x2E SWAP2 PUSH2 0x17E JUMP JUMPDEST CALLER PUSH1 0x40 MLOAD DUP1 PUSH1 0x40 ADD PUSH1 0x40 MSTORE DUP1 PUSH1 0xD DUP2 MSTORE PUSH1 0x20 ADD PUSH13 0x1B1BDD1D195C9E551A58DAD95D PUSH1 0x9A SHL DUP2 MSTORE POP PUSH1 0x40 MLOAD DUP1 PUSH1 0x40 ADD PUSH1 0x40 MSTORE DUP1 PUSH1 0x6 DUP2 MSTORE PUSH1 0x20 ADD PUSH6 0x151A58DAD95D PUSH1 0xD2 SHL DUP2 MSTORE POP DUP2 PUSH1 0x3 SWAP1 DUP2 PUSH2 0x83 SWAP2 SWAP1 PUSH2 0x263 JUMP JUMPDEST POP PUSH1 0x4 PUSH2 0x90 DUP3 DUP3 PUSH2 0x263 JUMP JUMPDEST POP POP PUSH1 0x1 PUSH1 0x5 SSTORE POP PUSH1 0x1 PUSH1 0x1 PUSH1 0xA0 SHL SUB DUP2 AND PUSH2 0xC5 JUMPI PUSH1 0x40 MLOAD PUSH4 0x1E4FBDF7 PUSH1 0xE0 SHL DUP2 MSTORE PUSH0 PUSH1 0x4 DUP3 ADD MSTORE PUSH1 0x24 ADD PUSH1 0x40 MLOAD DUP1 SWAP2 SUB SWAP1 REVERT JUMPDEST PUSH2 0xCE DUP2 PUSH2 0x119 JUMP JUMPDEST POP PUSH1 0x7 DUP1 SLOAD SWAP2 ISZERO ISZERO PUSH1 0x1 PUSH1 0xA8 SHL MUL PUSH1 0xFF PUSH1 0xA8 SHL NOT SWAP4 ISZERO ISZERO PUSH1 0x1 PUSH1 0xA0 SHL MUL PUSH1 0x1 PUSH1 0x1 PUSH1 0xA8 SHL SUB NOT SWAP1 SWAP4 AND PUSH1 0x1 PUSH1 0x1 PUSH1 0xA0 SHL SUB SWAP1 SWAP6 AND SWAP5 SWAP1 SWAP5 OR SWAP2 SWAP1 SWAP2 OR SWAP2 SWAP1 SWAP2 AND SWAP2 SWAP1 SWAP2 OR SWAP1 SSTORE PUSH2 0x322 JUMP JUMPDEST PUSH1 0x6 DUP1 SLOAD PUSH1 0x1 PUSH1 0x1 PUSH1 0xA0 SHL SUB DUP4 DUP2 AND PUSH1 0x1 PUSH1 0x1 PUSH1 0xA0 SHL SUB NOT DUP4 AND DUP2 OR SWAP1 SWAP4 SSTORE PUSH1 0x40 MLOAD SWAP2 AND SWAP2 SWAP1 DUP3 SWAP1 PUSH32 0x8BE0079C531659141344CD1FD0A4F28419497F9722A3DAAFE3B4186F6B6457E0 SWAP1 PUSH0 SWAP1 LOG3 POP POP JUMP JUMPDEST DUP1 MLOAD DUP1 ISZERO ISZERO DUP2 EQ PUSH2 0x179 JUMPI PUSH0 DUP1 REVERT JUMPDEST SWAP2 SWAP1 POP JUMP JUMPDEST PUSH0 DUP1 PUSH0 PUSH1 0x60 DUP5 DUP7 SUB SLT ISZERO PUSH2 0x190 JUMPI PUSH0 DUP1 REVERT JUMPDEST DUP4 MLOAD PUSH1 0x1 PUSH1 0x1 PUSH1 0xA0 SHL SUB DUP2 AND DUP2 EQ PUSH2 0x1A6 JUMPI PUSH0 DUP1 REVERT JUMPDEST SWAP3 POP PUSH2 0x1B4 PUSH1 0x20 DUP6 ADD PUSH2 0x16A JUMP JUMPDEST SWAP2 POP PUSH2 0x1C2 PUSH1 0x40 DUP6 ADD PUSH2 0x16A JUMP JUMPDEST SWAP1 POP SWAP3 POP SWAP3 POP SWAP3 JUMP JUMPDEST PUSH4 0x4E487B71 PUSH1 0xE0 SHL PUSH0 MSTORE PUSH1 0x41 PUSH1 0x4 MSTORE PUSH1 0x24 PUSH0 REVERT JUMPDEST PUSH1 0x1 DUP2 DUP2 SHR SWAP1 DUP3 AND DUP1 PUSH2 0x1F3 JUMPI PUSH1 0x7F DUP3 AND SWAP2 POP JUMPDEST PUSH1 0x20 DUP3 LT DUP2 SUB PUSH2 0x211 JUMPI PUSH4 0x4E487B71 PUSH1 0xE0 SHL PUSH0 MSTORE PUSH1 0x22 PUSH1 0x4 MSTORE PUSH1 0x24 PUSH0 REVERT JUMPDEST POP SWAP2 SWAP1 POP JUMP JUMPDEST PUSH1 0x1F DUP3 GT ISZERO PUSH2 0x25E JUMPI DUP1 PUSH0 MSTORE PUSH1 0x20 PUSH0 KECCAK256 PUSH1 0x1F DUP5 ADD PUSH1 0x5 SHR DUP2 ADD PUSH1 0x20 DUP6 LT ISZERO PUSH2 0x23C JUMPI POP DUP1 JUMPDEST PUSH1 0x1F DUP5 ADD PUSH1 0x5 SHR DUP3 ADD SWAP2 POP JUMPDEST DUP2 DUP2 LT ISZERO PUSH2 0x25B JUMPI PUSH0 DUP2 SSTORE PUSH1 0x1 ADD PUSH2 0x248 JUMP JUMPDEST POP POP JUMPDEST POP POP POP JUMP JUMPDEST DUP2 MLOAD PUSH1 0x1 PUSH1 0x1 PUSH1 0x40 SHL SUB DUP2 GT ISZERO PUSH2 0x27C JUMPI PUSH2 0x27C PUSH2 0x1CB JUMP JUMPDEST PUSH2 0x290 DUP2 PUSH2 0x28A DUP5 SLOAD PUSH2 0x1DF JUMP JUMPDEST DUP5 PUSH2 0x217 JUMP JUMPDEST PUSH1 0x20 DUP1 PUSH1 0x1F DUP4 GT PUSH1 0x1 DUP2 EQ PUSH2 0x2C3 JUMPI PUSH0 DUP5 ISZERO PUSH2 0x2AC JUMPI POP DUP6 DUP4 ADD MLOAD JUMPDEST PUSH0 NOT PUSH1 0x3 DUP7 SWAP1 SHL SHR NOT AND PUSH1 0x1 DUP6 SWAP1 SHL OR DUP6 SSTORE PUSH2 0x31A JUMP JUMPDEST PUSH0 DUP6 DUP2 MSTORE PUSH1 0x20 DUP2 KECCAK256 PUSH1 0x1F NOT DUP7 AND SWAP2 JUMPDEST DUP3 DUP2 LT ISZERO PUSH2 0x2F1 JUMPI DUP9 DUP7 ADD MLOAD DUP3 SSTORE SWAP5 DUP5 ADD SWAP5 PUSH1 0x1 SWAP1 SWAP2 ADD SWAP1 DUP5 ADD PUSH2 0x2D2 JUMP JUMPDEST POP DUP6 DUP3 LT ISZERO PUSH2 0x30E JUMPI DUP8 DUP6 ADD MLOAD PUSH0 NOT PUSH1 0x3 DUP9 SWAP1 SHL PUSH1 0xF8 AND SHR NOT AND DUP2 SSTORE JUMPDEST POP POP PUSH1 0x1 DUP5 PUSH1 0x1 SHL ADD DUP6 SSTORE JUMPDEST POP POP POP POP POP POP JUMP JUMPDEST PUSH2 0x142F DUP1 PUSH2 0x32F PUSH0 CODECOPY PUSH0 RETURN INVALID PUSH1 0x80 PUSH1 0x40 MSTORE CALLVALUE DUP1 ISZERO PUSH2 0xF JUMPI PUSH0 DUP1 REVERT JUMPDEST POP PUSH1 0x4 CALLDATASIZE LT PUSH2 0x153 JUMPI PUSH0 CALLDATALOAD PUSH1 0xE0 SHR DUP1 PUSH4 0x715018A6 GT PUSH2 0xBF JUMPI DUP1 PUSH4 0xC7FF23BB GT PUSH2 0x79 JUMPI DUP1 PUSH4 0xC7FF23BB EQ PUSH2 0x2ED JUMPI DUP1 PUSH4 0xD896FC10 EQ PUSH2 0x300 JUMPI DUP1 PUSH4 0xD9CAED12 EQ PUSH2 0x313 JUMPI DUP1 PUSH4 0xDD62ED3E EQ PUSH2 0x326 JUMPI DUP1 PUSH4 0xE405663F EQ PUSH2 0x35E JUMPI DUP1 PUSH4 0xF2FDE38B EQ PUSH2 0x37D JUMPI PUSH0 DUP1 REVERT JUMPDEST DUP1 PUSH4 0x715018A6 EQ PUSH2 0x27E JUMPI DUP1 PUSH4 0x79CC6790 EQ PUSH2 0x286 JUMPI DUP1 PUSH4 0x8DA5CB5B EQ PUSH2 0x299 JUMPI DUP1 PUSH4 0x95D89B41 EQ PUSH2 0x2BE JUMPI DUP1 PUSH4 0xA9059CBB EQ PUSH2 0x2C6 JUMPI DUP1 PUSH4 0xB4309A9C EQ PUSH2 0x2D9 JUMPI PUSH0 DUP1 REVERT JUMPDEST DUP1 PUSH4 0x18160DDD GT PUSH2 0x110 JUMPI DUP1 PUSH4 0x18160DDD EQ PUSH2 0x206 JUMPI DUP1 PUSH4 0x23B872DD EQ PUSH2 0x20E JUMPI DUP1 PUSH4 0x313CE567 EQ PUSH2 0x221 JUMPI DUP1 PUSH4 0x42966C68 EQ PUSH2 0x230 JUMPI DUP1 PUSH4 0x6EBD327B EQ PUSH2 0x243 JUMPI DUP1 PUSH4 0x70A08231 EQ PUSH2 0x256 JUMPI PUSH0 DUP1 REVERT JUMPDEST DUP1 PUSH4 0x12C911E EQ PUSH2 0x157 JUMPI DUP1 PUSH4 0x19F232A EQ PUSH2 0x16C JUMPI DUP1 PUSH4 0x6E2A29A EQ PUSH2 0x1A7 JUMPI DUP1 PUSH4 0x6FDDE03 EQ PUSH2 0x1CB JUMPI DUP1 PUSH4 0x82921A5 EQ PUSH2 0x1E0 JUMPI DUP1 PUSH4 0x95EA7B3 EQ PUSH2 0x1F3 JUMPI JUMPDEST PUSH0 DUP1 REVERT JUMPDEST PUSH2 0x16A PUSH2 0x165 CALLDATASIZE PUSH1 0x4 PUSH2 0xEEB JUMP JUMPDEST PUSH2 0x390 JUMP JUMPDEST STOP JUMPDEST PUSH2 0x194 PUSH2 0x17A CALLDATASIZE PUSH1 0x4 PUSH2 0xF20 JUMP JUMPDEST PUSH1 0x1 PUSH1 0x1 PUSH1 0xA0 SHL SUB AND PUSH0 SWAP1 DUP2 MSTORE PUSH1 0x8 PUSH1 0x20 MSTORE PUSH1 0x40 SWAP1 KECCAK256 SLOAD SWAP1 JUMP JUMPDEST PUSH1 0x40 MLOAD SWAP1 DUP2 MSTORE PUSH1 0x20 ADD JUMPDEST PUSH1 0x40 MLOAD DUP1 SWAP2 SUB SWAP1 RETURN JUMPDEST PUSH1 0x7 SLOAD PUSH2 0x1BB SWAP1 PUSH1 0x1 PUSH1 0xA8 SHL SWAP1 DIV PUSH1 0xFF AND DUP2 JUMP JUMPDEST PUSH1 0x40 MLOAD SWAP1 ISZERO ISZERO DUP2 MSTORE PUSH1 0x20 ADD PUSH2 0x19E JUMP JUMPDEST PUSH2 0x1D3 PUSH2 0x426 JUMP JUMPDEST PUSH1 0x40 MLOAD PUSH2 0x19E SWAP2 SWAP1 PUSH2 0xF42 JUMP JUMPDEST PUSH2 0x16A PUSH2 0x1EE CALLDATASIZE PUSH1 0x4 PUSH2 0xF77 JUMP JUMPDEST PUSH2 0x4B6 JUMP JUMPDEST PUSH2 0x1BB PUSH2 0x201 CALLDATASIZE PUSH1 0x4 PUSH2 0xF77 JUMP JUMPDEST PUSH2 0x515 JUMP JUMPDEST PUSH1 0x2 SLOAD PUSH2 0x194 JUMP JUMPDEST PUSH2 0x1BB PUSH2 0x21C CALLDATASIZE PUSH1 0x4 PUSH2 0xFA1 JUMP JUMPDEST PUSH2 0x52E JUMP JUMPDEST PUSH1 0x40 MLOAD PUSH1 0x12 DUP2 MSTORE PUSH1 0x20 ADD PUSH2 0x19E JUMP JUMPDEST PUSH2 0x16A PUSH2 0x23E CALLDATASIZE PUSH1 0x4 PUSH2 0xFCE JUMP JUMPDEST PUSH2 0x551 JUMP JUMPDEST PUSH2 0x16A PUSH2 0x251 CALLDATASIZE PUSH1 0x4 PUSH2 0xFE5 JUMP JUMPDEST PUSH2 0x55E JUMP JUMPDEST PUSH2 0x194 PUSH2 0x264 CALLDATASIZE PUSH1 0x4 PUSH2 0xF20 JUMP JUMPDEST PUSH1 0x1 PUSH1 0x1 PUSH1 0xA0 SHL SUB AND PUSH0 SWAP1 DUP2 MSTORE PUSH1 0x20 DUP2 SWAP1 MSTORE PUSH1 0x40 SWAP1 KECCAK256 SLOAD SWAP1 JUMP JUMPDEST PUSH2 0x16A PUSH2 0x5F8 JUMP JUMPDEST PUSH2 0x16A PUSH2 0x294 CALLDATASIZE PUSH1 0x4 PUSH2 0xF77 JUMP JUMPDEST PUSH2 0x60B JUMP JUMPDEST PUSH1 0x6 SLOAD PUSH1 0x1 PUSH1 0x1 PUSH1 0xA0 SHL SUB AND JUMPDEST PUSH1 0x40 MLOAD PUSH1 0x1 PUSH1 0x1 PUSH1 0xA0 SHL SUB SWAP1 SWAP2 AND DUP2 MSTORE PUSH1 0x20 ADD PUSH2 0x19E JUMP JUMPDEST PUSH2 0x1D3 PUSH2 0x624 JUMP JUMPDEST PUSH2 0x1BB PUSH2 0x2D4 CALLDATASIZE PUSH1 0x4 PUSH2 0xF77 JUMP JUMPDEST PUSH2 0x633 JUMP JUMPDEST PUSH1 0x7 SLOAD PUSH2 0x1BB SWAP1 PUSH1 0x1 PUSH1 0xA0 SHL SWAP1 DIV PUSH1 0xFF AND DUP2 JUMP JUMPDEST PUSH1 0x7 SLOAD PUSH2 0x2A6 SWAP1 PUSH1 0x1 PUSH1 0x1 PUSH1 0xA0 SHL SUB AND DUP2 JUMP JUMPDEST PUSH2 0x16A PUSH2 0x30E CALLDATASIZE PUSH1 0x4 PUSH2 0x102A JUMP JUMPDEST PUSH2 0x640 JUMP JUMPDEST PUSH2 0x16A PUSH2 0x321 CALLDATASIZE PUSH1 0x4 PUSH2 0xFA1 JUMP JUMPDEST PUSH2 0x79C JUMP JUMPDEST PUSH2 0x194 PUSH2 0x334 CALLDATASIZE PUSH1 0x4 PUSH2 0x10B5 JUMP JUMPDEST PUSH1 0x1 PUSH1 0x1 PUSH1 0xA0 SHL SUB SWAP2 DUP3 AND PUSH0 SWAP1 DUP2 MSTORE PUSH1 0x1 PUSH1 0x20 SWAP1 DUP2 MSTORE PUSH1 0x40 DUP1 DUP4 KECCAK256 SWAP4 SWAP1 SWAP5 AND DUP3 MSTORE SWAP2 SWAP1 SWAP2 MSTORE KECCAK256 SLOAD SWAP1 JUMP JUMPDEST PUSH2 0x194 PUSH2 0x36C CALLDATASIZE PUSH1 0x4 PUSH2 0xF20 JUMP JUMPDEST PUSH1 0x8 PUSH1 0x20 MSTORE PUSH0 SWAP1 DUP2 MSTORE PUSH1 0x40 SWAP1 KECCAK256 SLOAD DUP2 JUMP JUMPDEST PUSH2 0x16A PUSH2 0x38B CALLDATASIZE PUSH1 0x4 PUSH2 0xF20 JUMP JUMPDEST PUSH2 0x814 JUMP JUMPDEST PUSH0 PUSH2 0x39D PUSH1 0x12 PUSH1 0xA PUSH2 0x11E0 JUMP JUMPDEST PUSH2 0x3A7 SWAP1 DUP4 PUSH2 0x11EE JUMP JUMPDEST SWAP1 POP PUSH2 0x3B2 DUP2 PUSH2 0x551 JUMP JUMPDEST PUSH0 PUSH2 0x3BE DUP6 DUP6 DUP6 PUSH2 0x84E JUMP JUMPDEST PUSH1 0x40 DUP1 MLOAD DUP8 DUP2 MSTORE CALLER PUSH1 0x20 DUP3 ADD MSTORE PUSH1 0x1 PUSH1 0x1 PUSH1 0xA0 SHL SUB DUP8 AND DUP2 DUP4 ADD MSTORE PUSH1 0x60 DUP2 ADD DUP6 SWAP1 MSTORE PUSH1 0x80 DUP2 ADD DUP7 SWAP1 MSTORE DUP3 ISZERO ISZERO PUSH1 0xA0 DUP3 ADD MSTORE SWAP1 MLOAD SWAP2 SWAP3 POP PUSH32 0xEBC14DDBDD1E1EBC5A287D8957BD1CA84FAEF18F192F27829B8459FD15F5195D SWAP2 SWAP1 DUP2 SWAP1 SUB PUSH1 0xC0 ADD SWAP1 LOG1 POP POP POP POP POP JUMP JUMPDEST PUSH1 0x60 PUSH1 0x3 DUP1 SLOAD PUSH2 0x435 SWAP1 PUSH2 0x1205 JUMP JUMPDEST DUP1 PUSH1 0x1F ADD PUSH1 0x20 DUP1 SWAP2 DIV MUL PUSH1 0x20 ADD PUSH1 0x40 MLOAD SWAP1 DUP2 ADD PUSH1 0x40 MSTORE DUP1 SWAP3 SWAP2 SWAP1 DUP2 DUP2 MSTORE PUSH1 0x20 ADD DUP3 DUP1 SLOAD PUSH2 0x461 SWAP1 PUSH2 0x1205 JUMP JUMPDEST DUP1 ISZERO PUSH2 0x4AC JUMPI DUP1 PUSH1 0x1F LT PUSH2 0x483 JUMPI PUSH2 0x100 DUP1 DUP4 SLOAD DIV MUL DUP4 MSTORE SWAP2 PUSH1 0x20 ADD SWAP2 PUSH2 0x4AC JUMP JUMPDEST DUP3 ADD SWAP2 SWAP1 PUSH0 MSTORE PUSH1 0x20 PUSH0 KECCAK256 SWAP1 JUMPDEST DUP2 SLOAD DUP2 MSTORE SWAP1 PUSH1 0x1 ADD SWAP1 PUSH1 0x20 ADD DUP1 DUP4 GT PUSH2 0x48F JUMPI DUP3 SWAP1 SUB PUSH1 0x1F AND DUP3 ADD SWAP2 JUMPDEST POP POP POP POP POP SWAP1 POP SWAP1 JUMP JUMPDEST PUSH2 0x4BE PUSH2 0xAEB JUMP JUMPDEST PUSH1 0x1 PUSH1 0x1 PUSH1 0xA0 SHL SUB DUP3 AND PUSH0 DUP2 DUP2 MSTORE PUSH1 0x8 PUSH1 0x20 SWAP1 DUP2 MSTORE PUSH1 0x40 SWAP2 DUP3 SWAP1 KECCAK256 DUP5 SWAP1 SSTORE DUP2 MLOAD SWAP3 DUP4 MSTORE DUP3 ADD DUP4 SWAP1 MSTORE PUSH32 0xD7D0CDF0B13669CAB92566615F9093D52F6D2C34CC92561E500DDDD3AE918DE8 SWAP2 ADD PUSH1 0x40 MLOAD DUP1 SWAP2 SUB SWAP1 LOG1 POP POP JUMP JUMPDEST PUSH0 CALLER PUSH2 0x522 DUP2 DUP6 DUP6 PUSH2 0xB18 JUMP JUMPDEST PUSH1 0x1 SWAP2 POP POP JUMPDEST SWAP3 SWAP2 POP POP JUMP JUMPDEST PUSH0 CALLER PUSH2 0x53B DUP6 DUP3 DUP6 PUSH2 0xB2A JUMP JUMPDEST PUSH2 0x546 DUP6 DUP6 DUP6 PUSH2 0xB9F JUMP JUMPDEST POP PUSH1 0x1 SWAP5 SWAP4 POP POP POP POP JUMP JUMPDEST PUSH2 0x55B CALLER DUP3 PUSH2 0xBFC JUMP JUMPDEST POP JUMP JUMPDEST PUSH0 PUSH2 0x56B PUSH1 0x12 PUSH1 0xA PUSH2 0x11E0 JUMP JUMPDEST PUSH2 0x575 SWAP1 DUP4 PUSH2 0x11EE JUMP JUMPDEST SWAP1 POP PUSH2 0x581 DUP5 DUP3 PUSH2 0x60B JUMP JUMPDEST PUSH0 PUSH2 0x58D DUP7 DUP6 DUP6 PUSH2 0x84E JUMP JUMPDEST PUSH1 0x40 DUP1 MLOAD DUP9 DUP2 MSTORE PUSH1 0x1 PUSH1 0x1 PUSH1 0xA0 SHL SUB DUP9 DUP2 AND PUSH1 0x20 DUP4 ADD MSTORE DUP8 AND DUP2 DUP4 ADD MSTORE PUSH1 0x60 DUP2 ADD DUP6 SWAP1 MSTORE PUSH1 0x80 DUP2 ADD DUP7 SWAP1 MSTORE DUP3 ISZERO ISZERO PUSH1 0xA0 DUP3 ADD MSTORE SWAP1 MLOAD SWAP2 SWAP3 POP PUSH32 0xEBC14DDBDD1E1EBC5A287D8957BD1CA84FAEF18F192F27829B8459FD15F5195D SWAP2 SWAP1 DUP2 SWAP1 SUB PUSH1 0xC0 ADD SWAP1 LOG1 POP POP POP POP POP POP JUMP JUMPDEST PUSH2 0x600 PUSH2 0xAEB JUMP JUMPDEST PUSH2 0x609 PUSH0 PUSH2 0xC30 JUMP JUMPDEST JUMP JUMPDEST PUSH2 0x616 DUP3 CALLER DUP4 PUSH2 0xB2A JUMP JUMPDEST PUSH2 0x620 DUP3 DUP3 PUSH2 0xBFC JUMP JUMPDEST POP POP JUMP JUMPDEST PUSH1 0x60 PUSH1 0x4 DUP1 SLOAD PUSH2 0x435 SWAP1 PUSH2 0x1205 JUMP JUMPDEST PUSH0 CALLER PUSH2 0x522 DUP2 DUP6 DUP6 PUSH2 0xB9F JUMP JUMPDEST PUSH2 0x648 PUSH2 0xC81 JUMP JUMPDEST PUSH1 0x1 PUSH1 0x1 PUSH1 0xA0 SHL SUB DUP5 AND PUSH0 SWAP1 DUP2 MSTORE PUSH1 0x8 PUSH1 0x20 MSTORE PUSH1 0x40 DUP2 KECCAK256 SLOAD SWAP1 SUB PUSH2 0x6A4 JUMPI PUSH1 0x40 MLOAD PUSH3 0x461BCD PUSH1 0xE5 SHL DUP2 MSTORE PUSH1 0x20 PUSH1 0x4 DUP3 ADD MSTORE PUSH1 0xE PUSH1 0x24 DUP3 ADD MSTORE PUSH14 0x6E6F20736574206173207461736B PUSH1 0x90 SHL PUSH1 0x44 DUP3 ADD MSTORE PUSH1 0x64 ADD JUMPDEST PUSH1 0x40 MLOAD DUP1 SWAP2 SUB SWAP1 REVERT JUMPDEST PUSH1 0x1 PUSH1 0x1 PUSH1 0xA0 SHL SUB DUP5 AND PUSH0 DUP2 DUP2 MSTORE PUSH1 0x8 PUSH1 0x20 MSTORE PUSH1 0x40 DUP1 DUP3 KECCAK256 SLOAD SWAP1 MLOAD PUSH4 0x70D64693 PUSH1 0xE1 SHL DUP2 MSTORE SWAP2 SWAP3 SWAP1 SWAP2 PUSH4 0xE1AC8D26 SWAP1 PUSH2 0x6E5 SWAP1 CALLER SWAP1 DUP9 SWAP1 DUP9 SWAP1 PUSH1 0x4 ADD PUSH2 0x123D JUMP JUMPDEST PUSH1 0x20 PUSH1 0x40 MLOAD DUP1 DUP4 SUB DUP2 PUSH0 DUP8 GAS CALL ISZERO DUP1 ISZERO PUSH2 0x701 JUMPI RETURNDATASIZE PUSH0 DUP1 RETURNDATACOPY RETURNDATASIZE PUSH0 REVERT JUMPDEST POP POP POP POP PUSH1 0x40 MLOAD RETURNDATASIZE PUSH1 0x1F NOT PUSH1 0x1F DUP3 ADD AND DUP3 ADD DUP1 PUSH1 0x40 MSTORE POP DUP2 ADD SWAP1 PUSH2 0x725 SWAP2 SWAP1 PUSH2 0x127C JUMP JUMPDEST PUSH2 0x72F SWAP2 SWAP1 PUSH2 0x11EE JUMP JUMPDEST SWAP1 POP PUSH2 0x73B DUP5 DUP3 PUSH2 0xCAB JUMP JUMPDEST PUSH1 0x40 DUP1 MLOAD CALLER DUP2 MSTORE PUSH1 0x1 PUSH1 0x1 PUSH1 0xA0 SHL SUB DUP8 DUP2 AND PUSH1 0x20 DUP4 ADD MSTORE DUP7 AND DUP2 DUP4 ADD MSTORE PUSH1 0x60 DUP2 ADD DUP4 SWAP1 MSTORE SWAP1 MLOAD PUSH32 0x4D914FBDB28A885441BB0F6E06BB01DFDFE8A8B6902391853B46EB747AE136EF SWAP2 DUP2 SWAP1 SUB PUSH1 0x80 ADD SWAP1 LOG1 POP PUSH2 0x796 PUSH1 0x1 PUSH1 0x5 SSTORE JUMP JUMPDEST POP POP POP POP JUMP JUMPDEST PUSH2 0x7A4 PUSH2 0xAEB JUMP JUMPDEST PUSH1 0x40 MLOAD PUSH4 0xA9059CBB PUSH1 0xE0 SHL DUP2 MSTORE PUSH1 0x1 PUSH1 0x1 PUSH1 0xA0 SHL SUB DUP4 DUP2 AND PUSH1 0x4 DUP4 ADD MSTORE PUSH1 0x24 DUP3 ADD DUP4 SWAP1 MSTORE DUP5 AND SWAP1 PUSH4 0xA9059CBB SWAP1 PUSH1 0x44 ADD PUSH1 0x20 PUSH1 0x40 MLOAD DUP1 DUP4 SUB DUP2 PUSH0 DUP8 GAS CALL ISZERO DUP1 ISZERO PUSH2 0x7F0 JUMPI RETURNDATASIZE PUSH0 DUP1 RETURNDATACOPY RETURNDATASIZE PUSH0 REVERT JUMPDEST POP POP POP POP PUSH1 0x40 MLOAD RETURNDATASIZE PUSH1 0x1F NOT PUSH1 0x1F DUP3 ADD AND DUP3 ADD DUP1 PUSH1 0x40 MSTORE POP DUP2 ADD SWAP1 PUSH2 0x796 SWAP2 SWAP1 PUSH2 0x12A7 JUMP JUMPDEST PUSH2 0x81C PUSH2 0xAEB JUMP JUMPDEST PUSH1 0x1 PUSH1 0x1 PUSH1 0xA0 SHL SUB DUP2 AND PUSH2 0x845 JUMPI PUSH1 0x40 MLOAD PUSH4 0x1E4FBDF7 PUSH1 0xE0 SHL DUP2 MSTORE PUSH0 PUSH1 0x4 DUP3 ADD MSTORE PUSH1 0x24 ADD PUSH2 0x69B JUMP JUMPDEST PUSH2 0x55B DUP2 PUSH2 0xC30 JUMP JUMPDEST PUSH1 0x7 SLOAD PUSH1 0x40 MLOAD PUSH4 0x8F91CD17 PUSH1 0xE0 SHL DUP2 MSTORE PUSH1 0x4 DUP2 ADD DUP6 SWAP1 MSTORE PUSH0 SWAP2 PUSH1 0x1 SWAP2 DUP4 SWAP2 PUSH1 0x1 PUSH1 0x1 PUSH1 0xA0 SHL SUB AND SWAP1 PUSH4 0x8F91CD17 SWAP1 PUSH1 0x24 ADD PUSH2 0x1E0 PUSH1 0x40 MLOAD DUP1 DUP4 SUB DUP2 DUP7 GAS STATICCALL ISZERO DUP1 ISZERO PUSH2 0x89B JUMPI RETURNDATASIZE PUSH0 DUP1 RETURNDATACOPY RETURNDATASIZE PUSH0 REVERT JUMPDEST POP POP POP POP PUSH1 0x40 MLOAD RETURNDATASIZE PUSH1 0x1F NOT PUSH1 0x1F DUP3 ADD AND DUP3 ADD DUP1 PUSH1 0x40 MSTORE POP DUP2 ADD SWAP1 PUSH2 0x8BF SWAP2 SWAP1 PUSH2 0x130F JUMP JUMPDEST PUSH2 0x180 DUP2 ADD MLOAD SWAP1 SWAP2 POP PUSH1 0x1 PUSH1 0x1 PUSH1 0xA0 SHL SUB AND PUSH2 0xA21 JUMPI PUSH1 0x7 SLOAD PUSH1 0x1 PUSH1 0xA0 SHL SWAP1 DIV PUSH1 0xFF AND ISZERO ISZERO PUSH1 0x1 EQ PUSH2 0x929 JUMPI PUSH1 0x40 MLOAD PUSH3 0x461BCD PUSH1 0xE5 SHL DUP2 MSTORE PUSH1 0x20 PUSH1 0x4 DUP3 ADD MSTORE PUSH1 0x13 PUSH1 0x24 DUP3 ADD MSTORE PUSH19 0x627579207469636B6574206E6F20616C6C6F77 PUSH1 0x68 SHL PUSH1 0x44 DUP3 ADD MSTORE PUSH1 0x64 ADD PUSH2 0x69B JUMP JUMPDEST PUSH0 DUP5 DUP3 PUSH2 0x160 ADD MLOAD PUSH2 0x93B SWAP2 SWAP1 PUSH2 0x11EE JUMP JUMPDEST DUP3 MLOAD PUSH1 0x7 SLOAD PUSH1 0x40 MLOAD PUSH4 0x95EA7B3 PUSH1 0xE0 SHL DUP2 MSTORE PUSH1 0x1 PUSH1 0x1 PUSH1 0xA0 SHL SUB SWAP2 DUP3 AND PUSH1 0x4 DUP3 ADD MSTORE PUSH1 0x24 DUP2 ADD DUP5 SWAP1 MSTORE SWAP3 SWAP4 POP AND SWAP1 PUSH4 0x95EA7B3 SWAP1 PUSH1 0x44 ADD PUSH1 0x20 PUSH1 0x40 MLOAD DUP1 DUP4 SUB DUP2 PUSH0 DUP8 GAS CALL ISZERO DUP1 ISZERO PUSH2 0x98E JUMPI RETURNDATASIZE PUSH0 DUP1 RETURNDATACOPY RETURNDATASIZE PUSH0 REVERT JUMPDEST POP POP POP POP PUSH1 0x40 MLOAD RETURNDATASIZE PUSH1 0x1F NOT PUSH1 0x1F DUP3 ADD AND DUP3 ADD DUP1 PUSH1 0x40 MSTORE POP DUP2 ADD SWAP1 PUSH2 0x9B2 SWAP2 SWAP1 PUSH2 0x12A7 JUMP JUMPDEST POP PUSH1 0x7 SLOAD PUSH1 0x40 MLOAD PUSH4 0xC5E7BB33 PUSH1 0xE0 SHL DUP2 MSTORE PUSH1 0x4 DUP2 ADD DUP10 SWAP1 MSTORE PUSH1 0x1 PUSH1 0x1 PUSH1 0xA0 SHL SUB DUP9 DUP2 AND PUSH1 0x24 DUP4 ADD MSTORE PUSH1 0x44 DUP3 ADD DUP9 SWAP1 MSTORE SWAP1 SWAP2 AND SWAP1 PUSH4 0xC5E7BB33 SWAP1 PUSH1 0x64 ADD PUSH0 PUSH1 0x40 MLOAD DUP1 DUP4 SUB DUP2 PUSH0 DUP8 DUP1 EXTCODESIZE ISZERO DUP1 ISZERO PUSH2 0xA05 JUMPI PUSH0 DUP1 REVERT JUMPDEST POP GAS CALL ISZERO DUP1 ISZERO PUSH2 0xA17 JUMPI RETURNDATASIZE PUSH0 DUP1 RETURNDATACOPY RETURNDATASIZE PUSH0 REVERT JUMPDEST POP POP POP POP POP PUSH2 0xAE2 JUMP JUMPDEST PUSH1 0x7 SLOAD PUSH1 0x1 PUSH1 0xA8 SHL SWAP1 DIV PUSH1 0xFF AND ISZERO ISZERO PUSH1 0x1 EQ PUSH2 0xA76 JUMPI PUSH1 0x40 MLOAD PUSH3 0x461BCD PUSH1 0xE5 SHL DUP2 MSTORE PUSH1 0x20 PUSH1 0x4 DUP3 ADD MSTORE PUSH1 0x14 PUSH1 0x24 DUP3 ADD MSTORE PUSH20 0x73656E64207469636B6574206E6F20616C6C6F77 PUSH1 0x60 SHL PUSH1 0x44 DUP3 ADD MSTORE PUSH1 0x64 ADD PUSH2 0x69B JUMP JUMPDEST PUSH1 0x7 SLOAD PUSH1 0x40 MLOAD PUSH4 0x5C42E0C5 PUSH1 0xE0 SHL DUP2 MSTORE PUSH1 0x4 DUP2 ADD DUP9 SWAP1 MSTORE PUSH1 0x1 PUSH1 0x1 PUSH1 0xA0 SHL SUB DUP8 DUP2 AND PUSH1 0x24 DUP4 ADD MSTORE PUSH1 0x44 DUP3 ADD DUP8 SWAP1 MSTORE SWAP1 SWAP2 AND SWAP1 PUSH4 0x5C42E0C5 SWAP1 PUSH1 0x64 ADD PUSH0 PUSH1 0x40 MLOAD DUP1 DUP4 SUB DUP2 PUSH0 DUP8 DUP1 EXTCODESIZE ISZERO DUP1 ISZERO PUSH2 0xAC8 JUMPI PUSH0 DUP1 REVERT JUMPDEST POP GAS CALL ISZERO DUP1 ISZERO PUSH2 0xADA JUMPI RETURNDATASIZE PUSH0 DUP1 RETURNDATACOPY RETURNDATASIZE PUSH0 REVERT JUMPDEST POP POP POP POP PUSH0 SWAP2 POP JUMPDEST POP SWAP5 SWAP4 POP POP POP POP JUMP JUMPDEST PUSH1 0x6 SLOAD PUSH1 0x1 PUSH1 0x1 PUSH1 0xA0 SHL SUB AND CALLER EQ PUSH2 0x609 JUMPI PUSH1 0x40 MLOAD PUSH4 0x118CDAA7 PUSH1 0xE0 SHL DUP2 MSTORE CALLER PUSH1 0x4 DUP3 ADD MSTORE PUSH1 0x24 ADD PUSH2 0x69B JUMP JUMPDEST PUSH2 0xB25 DUP4 DUP4 DUP4 PUSH1 0x1 PUSH2 0xCDF JUMP JUMPDEST POP POP POP JUMP JUMPDEST PUSH1 0x1 PUSH1 0x1 PUSH1 0xA0 SHL SUB DUP4 DUP2 AND PUSH0 SWAP1 DUP2 MSTORE PUSH1 0x1 PUSH1 0x20 SWAP1 DUP2 MSTORE PUSH1 0x40 DUP1 DUP4 KECCAK256 SWAP4 DUP7 AND DUP4 MSTORE SWAP3 SWAP1 MSTORE KECCAK256 SLOAD PUSH0 NOT DUP2 EQ PUSH2 0x796 JUMPI DUP2 DUP2 LT ISZERO PUSH2 0xB91 JUMPI PUSH1 0x40 MLOAD PUSH4 0x7DC7A0D9 PUSH1 0xE1 SHL DUP2 MSTORE PUSH1 0x1 PUSH1 0x1 PUSH1 0xA0 SHL SUB DUP5 AND PUSH1 0x4 DUP3 ADD MSTORE PUSH1 0x24 DUP2 ADD DUP3 SWAP1 MSTORE PUSH1 0x44 DUP2 ADD DUP4 SWAP1 MSTORE PUSH1 0x64 ADD PUSH2 0x69B JUMP JUMPDEST PUSH2 0x796 DUP5 DUP5 DUP5 DUP5 SUB PUSH0 PUSH2 0xCDF JUMP JUMPDEST PUSH1 0x1 PUSH1 0x1 PUSH1 0xA0 SHL SUB DUP4 AND PUSH2 0xBC8 JUMPI PUSH1 0x40 MLOAD PUSH4 0x4B637E8F PUSH1 0xE1 SHL DUP2 MSTORE PUSH0 PUSH1 0x4 DUP3 ADD MSTORE PUSH1 0x24 ADD PUSH2 0x69B JUMP JUMPDEST PUSH1 0x1 PUSH1 0x1 PUSH1 0xA0 SHL SUB DUP3 AND PUSH2 0xBF1 JUMPI PUSH1 0x40 MLOAD PUSH4 0xEC442F05 PUSH1 0xE0 SHL DUP2 MSTORE PUSH0 PUSH1 0x4 DUP3 ADD MSTORE PUSH1 0x24 ADD PUSH2 0x69B JUMP JUMPDEST PUSH2 0xB25 DUP4 DUP4 DUP4 PUSH2 0xDB1 JUMP JUMPDEST PUSH1 0x1 PUSH1 0x1 PUSH1 0xA0 SHL SUB DUP3 AND PUSH2 0xC25 JUMPI PUSH1 0x40 MLOAD PUSH4 0x4B637E8F PUSH1 0xE1 SHL DUP2 MSTORE PUSH0 PUSH1 0x4 DUP3 ADD MSTORE PUSH1 0x24 ADD PUSH2 0x69B JUMP JUMPDEST PUSH2 0x620 DUP3 PUSH0 DUP4 PUSH2 0xDB1 JUMP JUMPDEST PUSH1 0x6 DUP1 SLOAD PUSH1 0x1 PUSH1 0x1 PUSH1 0xA0 SHL SUB DUP4 DUP2 AND PUSH1 0x1 PUSH1 0x1 PUSH1 0xA0 SHL SUB NOT DUP4 AND DUP2 OR SWAP1 SWAP4 SSTORE PUSH1 0x40 MLOAD SWAP2 AND SWAP2 SWAP1 DUP3 SWAP1 PUSH32 0x8BE0079C531659141344CD1FD0A4F28419497F9722A3DAAFE3B4186F6B6457E0 SWAP1 PUSH0 SWAP1 LOG3 POP POP JUMP JUMPDEST PUSH1 0x2 PUSH1 0x5 SLOAD SUB PUSH2 0xCA4 JUMPI PUSH1 0x40 MLOAD PUSH4 0x3EE5AEB5 PUSH1 0xE0 SHL DUP2 MSTORE PUSH1 0x4 ADD PUSH1 0x40 MLOAD DUP1 SWAP2 SUB SWAP1 REVERT JUMPDEST PUSH1 0x2 PUSH1 0x5 SSTORE JUMP JUMPDEST PUSH1 0x1 PUSH1 0x1 PUSH1 0xA0 SHL SUB DUP3 AND PUSH2 0xCD4 JUMPI PUSH1 0x40 MLOAD PUSH4 0xEC442F05 PUSH1 0xE0 SHL DUP2 MSTORE PUSH0 PUSH1 0x4 DUP3 ADD MSTORE PUSH1 0x24 ADD PUSH2 0x69B JUMP JUMPDEST PUSH2 0x620 PUSH0 DUP4 DUP4 PUSH2 0xDB1 JUMP JUMPDEST PUSH1 0x1 PUSH1 0x1 PUSH1 0xA0 SHL SUB DUP5 AND PUSH2 0xD08 JUMPI PUSH1 0x40 MLOAD PUSH4 0xE602DF05 PUSH1 0xE0 SHL DUP2 MSTORE PUSH0 PUSH1 0x4 DUP3 ADD MSTORE PUSH1 0x24 ADD PUSH2 0x69B JUMP JUMPDEST PUSH1 0x1 PUSH1 0x1 PUSH1 0xA0 SHL SUB DUP4 AND PUSH2 0xD31 JUMPI PUSH1 0x40 MLOAD PUSH4 0x4A1406B1 PUSH1 0xE1 SHL DUP2 MSTORE PUSH0 PUSH1 0x4 DUP3 ADD MSTORE PUSH1 0x24 ADD PUSH2 0x69B JUMP JUMPDEST PUSH1 0x1 PUSH1 0x1 PUSH1 0xA0 SHL SUB DUP1 DUP6 AND PUSH0 SWAP1 DUP2 MSTORE PUSH1 0x1 PUSH1 0x20 SWAP1 DUP2 MSTORE PUSH1 0x40 DUP1 DUP4 KECCAK256 SWAP4 DUP8 AND DUP4 MSTORE SWAP3 SWAP1 MSTORE KECCAK256 DUP3 SWAP1 SSTORE DUP1 ISZERO PUSH2 0x796 JUMPI DUP3 PUSH1 0x1 PUSH1 0x1 PUSH1 0xA0 SHL SUB AND DUP5 PUSH1 0x1 PUSH1 0x1 PUSH1 0xA0 SHL SUB AND PUSH32 0x8C5BE1E5EBEC7D5BD14F71427D1E84F3DD0314C0F7B2291E5B200AC8C7C3B925 DUP5 PUSH1 0x40 MLOAD PUSH2 0xDA3 SWAP2 DUP2 MSTORE PUSH1 0x20 ADD SWAP1 JUMP JUMPDEST PUSH1 0x40 MLOAD DUP1 SWAP2 SUB SWAP1 LOG3 POP POP POP POP JUMP JUMPDEST PUSH1 0x1 PUSH1 0x1 PUSH1 0xA0 SHL SUB DUP4 AND PUSH2 0xDDB JUMPI DUP1 PUSH1 0x2 PUSH0 DUP3 DUP3 SLOAD PUSH2 0xDD0 SWAP2 SWAP1 PUSH2 0x13E6 JUMP JUMPDEST SWAP1 SWAP2 SSTORE POP PUSH2 0xE4B SWAP1 POP JUMP JUMPDEST PUSH1 0x1 PUSH1 0x1 PUSH1 0xA0 SHL SUB DUP4 AND PUSH0 SWAP1 DUP2 MSTORE PUSH1 0x20 DUP2 SWAP1 MSTORE PUSH1 0x40 SWAP1 KECCAK256 SLOAD DUP2 DUP2 LT ISZERO PUSH2 0xE2D JUMPI PUSH1 0x40 MLOAD PUSH4 0x391434E3 PUSH1 0xE2 SHL DUP2 MSTORE PUSH1 0x1 PUSH1 0x1 PUSH1 0xA0 SHL SUB DUP6 AND PUSH1 0x4 DUP3 ADD MSTORE PUSH1 0x24 DUP2 ADD DUP3 SWAP1 MSTORE PUSH1 0x44 DUP2 ADD DUP4 SWAP1 MSTORE PUSH1 0x64 ADD PUSH2 0x69B JUMP JUMPDEST PUSH1 0x1 PUSH1 0x1 PUSH1 0xA0 SHL SUB DUP5 AND PUSH0 SWAP1 DUP2 MSTORE PUSH1 0x20 DUP2 SWAP1 MSTORE PUSH1 0x40 SWAP1 KECCAK256 SWAP1 DUP3 SWAP1 SUB SWAP1 SSTORE JUMPDEST PUSH1 0x1 PUSH1 0x1 PUSH1 0xA0 SHL SUB DUP3 AND PUSH2 0xE67 JUMPI PUSH1 0x2 DUP1 SLOAD DUP3 SWAP1 SUB SWAP1 SSTORE PUSH2 0xE85 JUMP JUMPDEST PUSH1 0x1 PUSH1 0x1 PUSH1 0xA0 SHL SUB DUP3 AND PUSH0 SWAP1 DUP2 MSTORE PUSH1 0x20 DUP2 SWAP1 MSTORE PUSH1 0x40 SWAP1 KECCAK256 DUP1 SLOAD DUP3 ADD SWAP1 SSTORE JUMPDEST DUP2 PUSH1 0x1 PUSH1 0x1 PUSH1 0xA0 SHL SUB AND DUP4 PUSH1 0x1 PUSH1 0x1 PUSH1 0xA0 SHL SUB AND PUSH32 0xDDF252AD1BE2C89B69C2B068FC378DAA952BA7F163C4A11628F55A4DF523B3EF DUP4 PUSH1 0x40 MLOAD PUSH2 0xECA SWAP2 DUP2 MSTORE PUSH1 0x20 ADD SWAP1 JUMP JUMPDEST PUSH1 0x40 MLOAD DUP1 SWAP2 SUB SWAP1 LOG3 POP POP POP JUMP JUMPDEST PUSH1 0x1 PUSH1 0x1 PUSH1 0xA0 SHL SUB DUP2 AND DUP2 EQ PUSH2 0x55B JUMPI PUSH0 DUP1 REVERT JUMPDEST PUSH0 DUP1 PUSH0 PUSH1 0x60 DUP5 DUP7 SUB SLT ISZERO PUSH2 0xEFD JUMPI PUSH0 DUP1 REVERT JUMPDEST DUP4 CALLDATALOAD SWAP3 POP PUSH1 0x20 DUP5 ADD CALLDATALOAD PUSH2 0xF0F DUP2 PUSH2 0xED7 JUMP JUMPDEST SWAP3 SWAP6 SWAP3 SWAP5 POP POP POP PUSH1 0x40 SWAP2 SWAP1 SWAP2 ADD CALLDATALOAD SWAP1 JUMP JUMPDEST PUSH0 PUSH1 0x20 DUP3 DUP5 SUB SLT ISZERO PUSH2 0xF30 JUMPI PUSH0 DUP1 REVERT JUMPDEST DUP2 CALLDATALOAD PUSH2 0xF3B DUP2 PUSH2 0xED7 JUMP JUMPDEST SWAP4 SWAP3 POP POP POP JUMP JUMPDEST PUSH1 0x20 DUP2 MSTORE PUSH0 DUP3 MLOAD DUP1 PUSH1 0x20 DUP5 ADD MSTORE DUP1 PUSH1 0x20 DUP6 ADD PUSH1 0x40 DUP6 ADD MCOPY PUSH0 PUSH1 0x40 DUP3 DUP6 ADD ADD MSTORE PUSH1 0x40 PUSH1 0x1F NOT PUSH1 0x1F DUP4 ADD AND DUP5 ADD ADD SWAP2 POP POP SWAP3 SWAP2 POP POP JUMP JUMPDEST PUSH0 DUP1 PUSH1 0x40 DUP4 DUP6 SUB SLT ISZERO PUSH2 0xF88 JUMPI PUSH0 DUP1 REVERT JUMPDEST DUP3 CALLDATALOAD PUSH2 0xF93 DUP2 PUSH2 0xED7 JUMP JUMPDEST SWAP5 PUSH1 0x20 SWAP4 SWAP1 SWAP4 ADD CALLDATALOAD SWAP4 POP POP POP JUMP JUMPDEST PUSH0 DUP1 PUSH0 PUSH1 0x60 DUP5 DUP7 SUB SLT ISZERO PUSH2 0xFB3 JUMPI PUSH0 DUP1 REVERT JUMPDEST DUP4 CALLDATALOAD PUSH2 0xFBE DUP2 PUSH2 0xED7 JUMP JUMPDEST SWAP3 POP PUSH1 0x20 DUP5 ADD CALLDATALOAD PUSH2 0xF0F DUP2 PUSH2 0xED7 JUMP JUMPDEST PUSH0 PUSH1 0x20 DUP3 DUP5 SUB SLT ISZERO PUSH2 0xFDE JUMPI PUSH0 DUP1 REVERT JUMPDEST POP CALLDATALOAD SWAP2 SWAP1 POP JUMP JUMPDEST PUSH0 DUP1 PUSH0 DUP1 PUSH1 0x80 DUP6 DUP8 SUB SLT ISZERO PUSH2 0xFF8 JUMPI PUSH0 DUP1 REVERT JUMPDEST DUP5 CALLDATALOAD SWAP4 POP PUSH1 0x20 DUP6 ADD CALLDATALOAD PUSH2 0x100A DUP2 PUSH2 0xED7 JUMP JUMPDEST SWAP3 POP PUSH1 0x40 DUP6 ADD CALLDATALOAD PUSH2 0x101A DUP2 PUSH2 0xED7 JUMP JUMPDEST SWAP4 SWAP7 SWAP3 SWAP6 POP SWAP3 SWAP4 PUSH1 0x60 ADD CALLDATALOAD SWAP3 POP POP JUMP JUMPDEST PUSH0 DUP1 PUSH0 DUP1 PUSH1 0x60 DUP6 DUP8 SUB SLT ISZERO PUSH2 0x103D JUMPI PUSH0 DUP1 REVERT JUMPDEST DUP5 CALLDATALOAD PUSH2 0x1048 DUP2 PUSH2 0xED7 JUMP JUMPDEST SWAP4 POP PUSH1 0x20 DUP6 ADD CALLDATALOAD PUSH2 0x1058 DUP2 PUSH2 0xED7 JUMP JUMPDEST SWAP3 POP PUSH1 0x40 DUP6 ADD CALLDATALOAD PUSH8 0xFFFFFFFFFFFFFFFF DUP1 DUP3 GT ISZERO PUSH2 0x1074 JUMPI PUSH0 DUP1 REVERT JUMPDEST DUP2 DUP8 ADD SWAP2 POP DUP8 PUSH1 0x1F DUP4 ADD SLT PUSH2 0x1087 JUMPI PUSH0 DUP1 REVERT JUMPDEST DUP2 CALLDATALOAD DUP2 DUP2 GT ISZERO PUSH2 0x1095 JUMPI PUSH0 DUP1 REVERT JUMPDEST DUP9 PUSH1 0x20 DUP3 DUP6 ADD ADD GT ISZERO PUSH2 0x10A6 JUMPI PUSH0 DUP1 REVERT JUMPDEST SWAP6 SWAP9 SWAP5 SWAP8 POP POP PUSH1 0x20 ADD SWAP5 POP POP POP JUMP JUMPDEST PUSH0 DUP1 PUSH1 0x40 DUP4 DUP6 SUB SLT ISZERO PUSH2 0x10C6 JUMPI PUSH0 DUP1 REVERT JUMPDEST DUP3 CALLDATALOAD PUSH2 0x10D1 DUP2 PUSH2 0xED7 JUMP JUMPDEST SWAP2 POP PUSH1 0x20 DUP4 ADD CALLDATALOAD PUSH2 0x10E1 DUP2 PUSH2 0xED7 JUMP JUMPDEST DUP1 SWAP2 POP POP SWAP3 POP SWAP3 SWAP1 POP JUMP JUMPDEST PUSH4 0x4E487B71 PUSH1 0xE0 SHL PUSH0 MSTORE PUSH1 0x11 PUSH1 0x4 MSTORE PUSH1 0x24 PUSH0 REVERT JUMPDEST PUSH1 0x1 DUP2 DUP2 JUMPDEST DUP1 DUP6 GT ISZERO PUSH2 0x113A JUMPI DUP2 PUSH0 NOT DIV DUP3 GT ISZERO PUSH2 0x1120 JUMPI PUSH2 0x1120 PUSH2 0x10EC JUMP JUMPDEST DUP1 DUP6 AND ISZERO PUSH2 0x112D JUMPI SWAP2 DUP2 MUL SWAP2 JUMPDEST SWAP4 DUP5 SHR SWAP4 SWAP1 DUP1 MUL SWAP1 PUSH2 0x1105 JUMP JUMPDEST POP SWAP3 POP SWAP3 SWAP1 POP JUMP JUMPDEST PUSH0 DUP3 PUSH2 0x1150 JUMPI POP PUSH1 0x1 PUSH2 0x528 JUMP JUMPDEST DUP2 PUSH2 0x115C JUMPI POP PUSH0 PUSH2 0x528 JUMP JUMPDEST DUP2 PUSH1 0x1 DUP2 EQ PUSH2 0x1172 JUMPI PUSH1 0x2 DUP2 EQ PUSH2 0x117C JUMPI PUSH2 0x1198 JUMP JUMPDEST PUSH1 0x1 SWAP2 POP POP PUSH2 0x528 JUMP JUMPDEST PUSH1 0xFF DUP5 GT ISZERO PUSH2 0x118D JUMPI PUSH2 0x118D PUSH2 0x10EC JUMP JUMPDEST POP POP PUSH1 0x1 DUP3 SHL PUSH2 0x528 JUMP JUMPDEST POP PUSH1 0x20 DUP4 LT PUSH2 0x133 DUP4 LT AND PUSH1 0x4E DUP5 LT PUSH1 0xB DUP5 LT AND OR ISZERO PUSH2 0x11BB JUMPI POP DUP2 DUP2 EXP PUSH2 0x528 JUMP JUMPDEST PUSH2 0x11C5 DUP4 DUP4 PUSH2 0x1100 JUMP JUMPDEST DUP1 PUSH0 NOT DIV DUP3 GT ISZERO PUSH2 0x11D8 JUMPI PUSH2 0x11D8 PUSH2 0x10EC JUMP JUMPDEST MUL SWAP4 SWAP3 POP POP POP JUMP JUMPDEST PUSH0 PUSH2 0xF3B PUSH1 0xFF DUP5 AND DUP4 PUSH2 0x1142 JUMP JUMPDEST DUP1 DUP3 MUL DUP2 ISZERO DUP3 DUP3 DIV DUP5 EQ OR PUSH2 0x528 JUMPI PUSH2 0x528 PUSH2 0x10EC JUMP JUMPDEST PUSH1 0x1 DUP2 DUP2 SHR SWAP1 DUP3 AND DUP1 PUSH2 0x1219 JUMPI PUSH1 0x7F DUP3 AND SWAP2 POP JUMPDEST PUSH1 0x20 DUP3 LT DUP2 SUB PUSH2 0x1237 JUMPI PUSH4 0x4E487B71 PUSH1 0xE0 SHL PUSH0 MSTORE PUSH1 0x22 PUSH1 0x4 MSTORE PUSH1 0x24 PUSH0 REVERT JUMPDEST POP SWAP2 SWAP1 POP JUMP JUMPDEST PUSH1 0x1 PUSH1 0x1 PUSH1 0xA0 SHL SUB DUP5 AND DUP2 MSTORE PUSH1 0x40 PUSH1 0x20 DUP3 ADD DUP2 SWAP1 MSTORE DUP2 ADD DUP3 SWAP1 MSTORE DUP2 DUP4 PUSH1 0x60 DUP4 ADD CALLDATACOPY PUSH0 DUP2 DUP4 ADD PUSH1 0x60 SWAP1 DUP2 ADD SWAP2 SWAP1 SWAP2 MSTORE PUSH1 0x1F SWAP1 SWAP3 ADD PUSH1 0x1F NOT AND ADD ADD SWAP3 SWAP2 POP POP JUMP JUMPDEST PUSH0 PUSH1 0x20 DUP3 DUP5 SUB SLT ISZERO PUSH2 0x128C JUMPI PUSH0 DUP1 REVERT JUMPDEST POP MLOAD SWAP2 SWAP1 POP JUMP JUMPDEST DUP1 MLOAD DUP1 ISZERO ISZERO DUP2 EQ PUSH2 0x12A2 JUMPI PUSH0 DUP1 REVERT JUMPDEST SWAP2 SWAP1 POP JUMP JUMPDEST PUSH0 PUSH1 0x20 DUP3 DUP5 SUB SLT ISZERO PUSH2 0x12B7 JUMPI PUSH0 DUP1 REVERT JUMPDEST PUSH2 0xF3B DUP3 PUSH2 0x1293 JUMP JUMPDEST PUSH1 0x40 MLOAD PUSH2 0x1E0 DUP2 ADD PUSH8 0xFFFFFFFFFFFFFFFF DUP2 GT DUP3 DUP3 LT OR ISZERO PUSH2 0x12F0 JUMPI PUSH4 0x4E487B71 PUSH1 0xE0 SHL PUSH0 MSTORE PUSH1 0x41 PUSH1 0x4 MSTORE PUSH1 0x24 PUSH0 REVERT JUMPDEST PUSH1 0x40 MSTORE SWAP1 JUMP JUMPDEST DUP1 MLOAD PUSH2 0x12A2 DUP2 PUSH2 0xED7 JUMP JUMPDEST DUP1 MLOAD PUSH1 0x4 DUP2 LT PUSH2 0x12A2 JUMPI PUSH0 DUP1 REVERT JUMPDEST PUSH0 PUSH2 0x1E0 DUP3 DUP5 SUB SLT ISZERO PUSH2 0x1320 JUMPI PUSH0 DUP1 REVERT JUMPDEST PUSH2 0x1328 PUSH2 0x12C0 JUMP JUMPDEST PUSH2 0x1331 DUP4 PUSH2 0x12F6 JUMP JUMPDEST DUP2 MSTORE PUSH2 0x133F PUSH1 0x20 DUP5 ADD PUSH2 0x1301 JUMP JUMPDEST PUSH1 0x20 DUP3 ADD MSTORE PUSH1 0x40 DUP4 ADD MLOAD PUSH1 0x40 DUP3 ADD MSTORE PUSH1 0x60 DUP4 ADD MLOAD PUSH1 0x60 DUP3 ADD MSTORE PUSH1 0x80 DUP4 ADD MLOAD PUSH1 0x80 DUP3 ADD MSTORE PUSH1 0xA0 DUP4 ADD MLOAD PUSH1 0xA0 DUP3 ADD MSTORE PUSH1 0xC0 DUP4 ADD MLOAD PUSH1 0xC0 DUP3 ADD MSTORE PUSH1 0xE0 DUP4 ADD MLOAD PUSH1 0xE0 DUP3 ADD MSTORE PUSH2 0x100 DUP1 DUP5 ADD MLOAD DUP2 DUP4 ADD MSTORE POP PUSH2 0x120 DUP1 DUP5 ADD MLOAD DUP2 DUP4 ADD MSTORE POP PUSH2 0x140 DUP1 DUP5 ADD MLOAD DUP2 DUP4 ADD MSTORE POP PUSH2 0x160 DUP1 DUP5 ADD MLOAD DUP2 DUP4 ADD MSTORE POP PUSH2 0x180 PUSH2 0x13BE DUP2 DUP6 ADD PUSH2 0x12F6 JUMP JUMPDEST SWAP1 DUP3 ADD MSTORE PUSH2 0x1A0 DUP4 DUP2 ADD MLOAD SWAP1 DUP3 ADD MSTORE PUSH2 0x1C0 PUSH2 0x13DB DUP2 DUP6 ADD PUSH2 0x1293 JUMP JUMPDEST SWAP1 DUP3 ADD MSTORE SWAP4 SWAP3 POP POP POP JUMP JUMPDEST DUP1 DUP3 ADD DUP1 DUP3 GT ISZERO PUSH2 0x528 JUMPI PUSH2 0x528 PUSH2 0x10EC JUMP INVALID LOG2 PUSH5 0x6970667358 0x22 SLT KECCAK256 BALANCE SLT SGT STOP SWAP15 DUP5 SMOD 0xA8 0xBB PUSH14 0xFC97C9DD492D6570038EFE8D466A BALANCE SWAP2 0xEF 0xD8 0xFB 0xB8 PUSH15 0x2664736F6C63430008190033000000 "
				},
				"gasEstimates": {
					"creation": {
						"codeDepositCost": "1033400",
						"executionCost": "infinite",
						"totalCost": "infinite"
					},
					"external": {
						"_tasks(address)": "2609",
						"allowBuyTicket()": "2459",
						"allowSendTicket()": "2394",
						"allowance(address,address)": "infinite",
						"approve(address,uint256)": "24840",
						"balanceOf(address)": "2653",
						"burn(uint256)": "51005",
						"burnFrom(address,uint256)": "infinite",
						"decimals()": "243",
						"getTask(address)": "2563",
						"getTicket(uint256,address,uint256)": "infinite",
						"getTicketFrom(uint256,address,address,uint256)": "infinite",
						"mintToken(address,address,bytes)": "infinite",
						"name()": "infinite",
						"owner()": "2386",
						"redEnvelopeAddr()": "2358",
						"renounceOwnership()": "infinite",
						"setTask(address,uint256)": "26130",
						"symbol()": "infinite",
						"totalSupply()": "2303",
						"transfer(address,uint256)": "51321",
						"transferFrom(address,address,uint256)": "infinite",
						"transferOwnership(address)": "infinite",
						"withdraw(address,address,uint256)": "infinite"
					},
					"internal": {
						"_getTicket(uint256,address,uint256)": "infinite"
					}
				},
				"methodIdentifiers": {
					"_tasks(address)": "e405663f",
					"allowBuyTicket()": "b4309a9c",
					"allowSendTicket()": "06e2a29a",
					"allowance(address,address)": "dd62ed3e",
					"approve(address,uint256)": "095ea7b3",
					"balanceOf(address)": "70a08231",
					"burn(uint256)": "42966c68",
					"burnFrom(address,uint256)": "79cc6790",
					"decimals()": "313ce567",
					"getTask(address)": "019f232a",
					"getTicket(uint256,address,uint256)": "012c911e",
					"getTicketFrom(uint256,address,address,uint256)": "6ebd327b",
					"mintToken(address,address,bytes)": "d896fc10",
					"name()": "06fdde03",
					"owner()": "8da5cb5b",
					"redEnvelopeAddr()": "c7ff23bb",
					"renounceOwnership()": "715018a6",
					"setTask(address,uint256)": "082921a5",
					"symbol()": "95d89b41",
					"totalSupply()": "18160ddd",
					"transfer(address,uint256)": "a9059cbb",
					"transferFrom(address,address,uint256)": "23b872dd",
					"transferOwnership(address)": "f2fde38b",
					"withdraw(address,address,uint256)": "d9caed12"
				}
			},
			"storageLayout": {
				"storage": [
					{
						"astId": 307,
						"contract": "contracts/taskControl/TaskControlWithToken.sol:TaskControlWithToken",
						"label": "_balances",
						"offset": 0,
						"slot": "0",
						"type": "t_mapping(t_address,t_uint256)"
					},
					{
						"astId": 313,
						"contract": "contracts/taskControl/TaskControlWithToken.sol:TaskControlWithToken",
						"label": "_allowances",
						"offset": 0,
						"slot": "1",
						"type": "t_mapping(t_address,t_mapping(t_address,t_uint256))"
					},
					{
						"astId": 315,
						"contract": "contracts/taskControl/TaskControlWithToken.sol:TaskControlWithToken",
						"label": "_totalSupply",
						"offset": 0,
						"slot": "2",
						"type": "t_uint256"
					},
					{
						"astId": 317,
						"contract": "contracts/taskControl/TaskControlWithToken.sol:TaskControlWithToken",
						"label": "_name",
						"offset": 0,
						"slot": "3",
						"type": "t_string_storage"
					},
					{
						"astId": 319,
						"contract": "contracts/taskControl/TaskControlWithToken.sol:TaskControlWithToken",
						"label": "_symbol",
						"offset": 0,
						"slot": "4",
						"type": "t_string_storage"
					},
					{
						"astId": 1569,
						"contract": "contracts/taskControl/TaskControlWithToken.sol:TaskControlWithToken",
						"label": "_status",
						"offset": 0,
						"slot": "5",
						"type": "t_uint256"
					},
					{
						"astId": 8,
						"contract": "contracts/taskControl/TaskControlWithToken.sol:TaskControlWithToken",
						"label": "_owner",
						"offset": 0,
						"slot": "6",
						"type": "t_address"
					},
					{
						"astId": 1964,
						"contract": "contracts/taskControl/TaskControlWithToken.sol:TaskControlWithToken",
						"label": "redEnvelopeAddr",
						"offset": 0,
						"slot": "7",
						"type": "t_address"
					},
					{
						"astId": 1966,
						"contract": "contracts/taskControl/TaskControlWithToken.sol:TaskControlWithToken",
						"label": "allowBuyTicket",
						"offset": 20,
						"slot": "7",
						"type": "t_bool"
					},
					{
						"astId": 1968,
						"contract": "contracts/taskControl/TaskControlWithToken.sol:TaskControlWithToken",
						"label": "allowSendTicket",
						"offset": 21,
						"slot": "7",
						"type": "t_bool"
					},
					{
						"astId": 1972,
						"contract": "contracts/taskControl/TaskControlWithToken.sol:TaskControlWithToken",
						"label": "_tasks",
						"offset": 0,
						"slot": "8",
						"type": "t_mapping(t_address,t_uint256)"
					}
				],
				"types": {
					"t_address": {
						"encoding": "inplace",
						"label": "address",
						"numberOfBytes": "20"
					},
					"t_bool": {
						"encoding": "inplace",
						"label": "bool",
						"numberOfBytes": "1"
					},
					"t_mapping(t_address,t_mapping(t_address,t_uint256))": {
						"encoding": "mapping",
						"key": "t_address",
						"label": "mapping(address => mapping(address => uint256))",
						"numberOfBytes": "32",
						"value": "t_mapping(t_address,t_uint256)"
					},
					"t_mapping(t_address,t_uint256)": {
						"encoding": "mapping",
						"key": "t_address",
						"label": "mapping(address => uint256)",
						"numberOfBytes": "32",
						"value": "t_uint256"
					},
					"t_string_storage": {
						"encoding": "bytes",
						"label": "string",
						"numberOfBytes": "32"
					},
					"t_uint256": {
						"encoding": "inplace",
						"label": "uint256",
						"numberOfBytes": "32"
					}
				}
			},
			"userdoc": {
				"kind": "user",
				"methods": {},
				"version": 1
			}
		}
	}
}