{
	"contracts/task/PayTask.sol": {
		"PayTask": {
			"abi": [
				{
					"inputs": [
						{
							"internalType": "address",
							"name": "_payToken",
							"type": "address"
						},
						{
							"internalType": "address",
							"name": "_targetAddress",
							"type": "address"
						},
						{
							"internalType": "address",
							"name": "_operatorAddress",
							"type": "address"
						}
					],
					"stateMutability": "nonpayable",
					"type": "constructor"
				},
				{
					"inputs": [
						{
							"internalType": "address",
							"name": "target",
							"type": "address"
						}
					],
					"name": "AddressEmptyCode",
					"type": "error"
				},
				{
					"inputs": [
						{
							"internalType": "address",
							"name": "account",
							"type": "address"
						}
					],
					"name": "AddressInsufficientBalance",
					"type": "error"
				},
				{
					"inputs": [],
					"name": "FailedInnerCall",
					"type": "error"
				},
				{
					"inputs": [
						{
							"internalType": "address",
							"name": "owner",
							"type": "address"
						}
					],
					"name": "OwnableInvalidOwner",
					"type": "error"
				},
				{
					"inputs": [
						{
							"internalType": "address",
							"name": "account",
							"type": "address"
						}
					],
					"name": "OwnableUnauthorizedAccount",
					"type": "error"
				},
				{
					"inputs": [
						{
							"internalType": "address",
							"name": "token",
							"type": "address"
						}
					],
					"name": "SafeERC20FailedOperation",
					"type": "error"
				},
				{
					"anonymous": false,
					"inputs": [
						{
							"indexed": true,
							"internalType": "address",
							"name": "previousOwner",
							"type": "address"
						},
						{
							"indexed": true,
							"internalType": "address",
							"name": "newOwner",
							"type": "address"
						}
					],
					"name": "OwnershipTransferred",
					"type": "event"
				},
				{
					"inputs": [],
					"name": "operatorAddress",
					"outputs": [
						{
							"internalType": "address",
							"name": "",
							"type": "address"
						}
					],
					"stateMutability": "view",
					"type": "function"
				},
				{
					"inputs": [],
					"name": "owner",
					"outputs": [
						{
							"internalType": "address",
							"name": "",
							"type": "address"
						}
					],
					"stateMutability": "view",
					"type": "function"
				},
				{
					"inputs": [],
					"name": "payToken",
					"outputs": [
						{
							"internalType": "address",
							"name": "",
							"type": "address"
						}
					],
					"stateMutability": "view",
					"type": "function"
				},
				{
					"inputs": [],
					"name": "renounceOwnership",
					"outputs": [],
					"stateMutability": "nonpayable",
					"type": "function"
				},
				{
					"inputs": [
						{
							"internalType": "address",
							"name": "_operatorAddress",
							"type": "address"
						}
					],
					"name": "setOperatorAddress",
					"outputs": [],
					"stateMutability": "nonpayable",
					"type": "function"
				},
				{
					"inputs": [],
					"name": "targetAddress",
					"outputs": [
						{
							"internalType": "address",
							"name": "",
							"type": "address"
						}
					],
					"stateMutability": "view",
					"type": "function"
				},
				{
					"inputs": [
						{
							"internalType": "address",
							"name": "_sender",
							"type": "address"
						},
						{
							"internalType": "bytes",
							"name": "_data",
							"type": "bytes"
						}
					],
					"name": "taskCall",
					"outputs": [
						{
							"internalType": "uint256",
							"name": "",
							"type": "uint256"
						}
					],
					"stateMutability": "nonpayable",
					"type": "function"
				},
				{
					"inputs": [
						{
							"internalType": "address",
							"name": "newOwner",
							"type": "address"
						}
					],
					"name": "transferOwnership",
					"outputs": [],
					"stateMutability": "nonpayable",
					"type": "function"
				}
			],
			"devdoc": {
				"errors": {
					"AddressEmptyCode(address)": [
						{
							"details": "There's no code at `target` (it is not a contract)."
						}
					],
					"AddressInsufficientBalance(address)": [
						{
							"details": "The ETH balance of the account is not enough to perform the operation."
						}
					],
					"FailedInnerCall()": [
						{
							"details": "A call to an address target failed. The target may have reverted."
						}
					],
					"OwnableInvalidOwner(address)": [
						{
							"details": "The owner is not a valid owner account. (eg. `address(0)`)"
						}
					],
					"OwnableUnauthorizedAccount(address)": [
						{
							"details": "The caller account is not authorized to perform an operation."
						}
					],
					"SafeERC20FailedOperation(address)": [
						{
							"details": "An operation with an ERC20 token failed."
						}
					]
				},
				"kind": "dev",
				"methods": {
					"owner()": {
						"details": "Returns the address of the current owner."
					},
					"renounceOwnership()": {
						"details": "Leaves the contract without owner. It will not be possible to call `onlyOwner` functions. Can only be called by the current owner. NOTE: Renouncing ownership will leave the contract without an owner, thereby disabling any functionality that is only available to the owner."
					},
					"transferOwnership(address)": {
						"details": "Transfers ownership of the contract to a new account (`newOwner`). Can only be called by the current owner."
					}
				},
				"version": 1
			},
			"evm": {
				"assembly": "    /* \"contracts/task/PayTask.sol\":420:1570  contract PayTask is ItaskCallee,Ownable{... */\n  mstore(0x40, 0x80)\n    /* \"contracts/task/PayTask.sol\":601:846  constructor(address _payToken,address _targetAddress,address _operatorAddress)... */\n  callvalue\n  dup1\n  iszero\n  tag_1\n  jumpi\n  0x00\n  dup1\n  revert\ntag_1:\n  pop\n  mload(0x40)\n  sub(codesize, bytecodeSize)\n  dup1\n  bytecodeSize\n  dup4\n  codecopy\n  dup2\n  add\n  0x40\n  dup2\n  swap1\n  mstore\n  tag_2\n  swap2\n  tag_3\n  jump\t// in\ntag_2:\n    /* \"contracts/task/PayTask.sol\":708:718  msg.sender */\n  caller\n  dup1\n    /* \"@openzeppelin/contracts/access/Ownable.sol\":1269:1364  if (initialOwner == address(0)) {... */\n  tag_7\n  jumpi\n    /* \"@openzeppelin/contracts/access/Ownable.sol\":1322:1353  OwnableInvalidOwner(address(0)) */\n  mload(0x40)\n  shl(0xe0, 0x1e4fbdf7)\n  dup2\n  mstore\n    /* \"@openzeppelin/contracts/access/Ownable.sol\":1350:1351  0 */\n  0x00\n    /* \"@openzeppelin/contracts/access/Ownable.sol\":1322:1353  OwnableInvalidOwner(address(0)) */\n  0x04\n  dup3\n  add\n    /* \"#utility.yul\":725:776   */\n  mstore\n    /* \"#utility.yul\":698:716   */\n  0x24\n  add\n    /* \"@openzeppelin/contracts/access/Ownable.sol\":1322:1353  OwnableInvalidOwner(address(0)) */\n  mload(0x40)\n  dup1\n  swap2\n  sub\n  swap1\n  revert\n    /* \"@openzeppelin/contracts/access/Ownable.sol\":1269:1364  if (initialOwner == address(0)) {... */\ntag_7:\n    /* \"@openzeppelin/contracts/access/Ownable.sol\":1373:1405  _transferOwnership(initialOwner) */\n  tag_10\n    /* \"@openzeppelin/contracts/access/Ownable.sol\":1392:1404  initialOwner */\n  dup2\n    /* \"@openzeppelin/contracts/access/Ownable.sol\":1373:1391  _transferOwnership */\n  tag_11\n    /* \"@openzeppelin/contracts/access/Ownable.sol\":1373:1405  _transferOwnership(initialOwner) */\n  jump\t// in\ntag_10:\n  pop\n    /* \"contracts/task/PayTask.sol\":735:743  payToken */\n  0x01\n    /* \"contracts/task/PayTask.sol\":735:755  payToken = _payToken */\n  dup1\n  sload\n  sub(shl(0xa0, 0x01), 0x01)\n  swap5\n  dup6\n  and\n  not(sub(shl(0xa0, 0x01), 0x01))\n  swap2\n  dup3\n  and\n  or\n  swap1\n  swap2\n  sstore\n    /* \"contracts/task/PayTask.sol\":765:778  targetAddress */\n  0x02\n    /* \"contracts/task/PayTask.sol\":765:795  targetAddress = _targetAddress */\n  dup1\n  sload\n  swap4\n  dup6\n  and\n  swap4\n  dup3\n  and\n  swap4\n  swap1\n  swap4\n  or\n  swap1\n  swap3\n  sstore\n    /* \"contracts/task/PayTask.sol\":805:820  operatorAddress */\n  0x03\n    /* \"contracts/task/PayTask.sol\":805:839  operatorAddress = _operatorAddress */\n  dup1\n  sload\n  swap2\n  swap1\n  swap4\n  and\n  swap2\n  and\n  or\n  swap1\n  sstore\n    /* \"contracts/task/PayTask.sol\":420:1570  contract PayTask is ItaskCallee,Ownable{... */\n  jump(tag_16)\n    /* \"@openzeppelin/contracts/access/Ownable.sol\":2912:3099  function _transferOwnership(address newOwner) internal virtual {... */\ntag_11:\n    /* \"@openzeppelin/contracts/access/Ownable.sol\":2985:3001  address oldOwner */\n  0x00\n    /* \"@openzeppelin/contracts/access/Ownable.sol\":3004:3010  _owner */\n  dup1\n  sload\n  sub(shl(0xa0, 0x01), 0x01)\n    /* \"@openzeppelin/contracts/access/Ownable.sol\":3020:3037  _owner = newOwner */\n  dup4\n  dup2\n  and\n  not(sub(shl(0xa0, 0x01), 0x01))\n  dup4\n  and\n  dup2\n  or\n  dup5\n  sstore\n    /* \"@openzeppelin/contracts/access/Ownable.sol\":3052:3092  OwnershipTransferred(oldOwner, newOwner) */\n  mload(0x40)\n    /* \"@openzeppelin/contracts/access/Ownable.sol\":3004:3010  _owner */\n  swap2\n  swap1\n  swap3\n  and\n  swap3\n  dup4\n  swap2\n    /* \"@openzeppelin/contracts/access/Ownable.sol\":3052:3092  OwnershipTransferred(oldOwner, newOwner) */\n  0x8be0079c531659141344cd1fd0a4f28419497f9722a3daafe3b4186f6b6457e0\n  swap2\n    /* \"@openzeppelin/contracts/access/Ownable.sol\":2985:3001  address oldOwner */\n  swap1\n    /* \"@openzeppelin/contracts/access/Ownable.sol\":3052:3092  OwnershipTransferred(oldOwner, newOwner) */\n  log3\n    /* \"@openzeppelin/contracts/access/Ownable.sol\":2975:3099  {... */\n  pop\n    /* \"@openzeppelin/contracts/access/Ownable.sol\":2912:3099  function _transferOwnership(address newOwner) internal virtual {... */\n  pop\n  jump\t// out\n    /* \"#utility.yul\":14:191   */\ntag_15:\n    /* \"#utility.yul\":93:106   */\n  dup1\n  mload\n  sub(shl(0xa0, 0x01), 0x01)\n    /* \"#utility.yul\":135:166   */\n  dup2\n  and\n    /* \"#utility.yul\":125:167   */\n  dup2\n  eq\n    /* \"#utility.yul\":115:185   */\n  tag_18\n  jumpi\n    /* \"#utility.yul\":181:182   */\n  0x00\n    /* \"#utility.yul\":178:179   */\n  dup1\n    /* \"#utility.yul\":171:183   */\n  revert\n    /* \"#utility.yul\":115:185   */\ntag_18:\n    /* \"#utility.yul\":14:191   */\n  swap2\n  swap1\n  pop\n  jump\t// out\n    /* \"#utility.yul\":196:574   */\ntag_3:\n    /* \"#utility.yul\":284:290   */\n  0x00\n    /* \"#utility.yul\":292:298   */\n  dup1\n    /* \"#utility.yul\":300:306   */\n  0x00\n    /* \"#utility.yul\":353:355   */\n  0x60\n    /* \"#utility.yul\":341:350   */\n  dup5\n    /* \"#utility.yul\":332:339   */\n  dup7\n    /* \"#utility.yul\":328:351   */\n  sub\n    /* \"#utility.yul\":324:356   */\n  slt\n    /* \"#utility.yul\":321:373   */\n  iszero\n  tag_20\n  jumpi\n    /* \"#utility.yul\":369:370   */\n  0x00\n    /* \"#utility.yul\":366:367   */\n  dup1\n    /* \"#utility.yul\":359:371   */\n  revert\n    /* \"#utility.yul\":321:373   */\ntag_20:\n    /* \"#utility.yul\":392:432   */\n  tag_21\n    /* \"#utility.yul\":422:431   */\n  dup5\n    /* \"#utility.yul\":392:432   */\n  tag_15\n  jump\t// in\ntag_21:\n    /* \"#utility.yul\":382:432   */\n  swap3\n  pop\n    /* \"#utility.yul\":451:500   */\n  tag_22\n    /* \"#utility.yul\":496:498   */\n  0x20\n    /* \"#utility.yul\":485:494   */\n  dup6\n    /* \"#utility.yul\":481:499   */\n  add\n    /* \"#utility.yul\":451:500   */\n  tag_15\n  jump\t// in\ntag_22:\n    /* \"#utility.yul\":441:500   */\n  swap2\n  pop\n    /* \"#utility.yul\":519:568   */\n  tag_23\n    /* \"#utility.yul\":564:566   */\n  0x40\n    /* \"#utility.yul\":553:562   */\n  dup6\n    /* \"#utility.yul\":549:567   */\n  add\n    /* \"#utility.yul\":519:568   */\n  tag_15\n  jump\t// in\ntag_23:\n    /* \"#utility.yul\":509:568   */\n  swap1\n  pop\n    /* \"#utility.yul\":196:574   */\n  swap3\n  pop\n  swap3\n  pop\n  swap3\n  jump\t// out\n    /* \"#utility.yul\":579:782   */\ntag_16:\n    /* \"contracts/task/PayTask.sol\":420:1570  contract PayTask is ItaskCallee,Ownable{... */\n  dataSize(sub_0)\n  dup1\n  dataOffset(sub_0)\n  0x00\n  codecopy\n  0x00\n  return\nstop\n\nsub_0: assembly {\n        /* \"contracts/task/PayTask.sol\":420:1570  contract PayTask is ItaskCallee,Ownable{... */\n      mstore(0x40, 0x80)\n      callvalue\n      dup1\n      iszero\n      tag_1\n      jumpi\n      0x00\n      dup1\n      revert\n    tag_1:\n      pop\n      jumpi(tag_2, lt(calldatasize, 0x04))\n      shr(0xe0, calldataload(0x00))\n      dup1\n      0x8da5cb5b\n      gt\n      tag_11\n      jumpi\n      dup1\n      0x8da5cb5b\n      eq\n      tag_7\n      jumpi\n      dup1\n      0x96336b30\n      eq\n      tag_8\n      jumpi\n      dup1\n      0xe1ac8d26\n      eq\n      tag_9\n      jumpi\n      dup1\n      0xf2fde38b\n      eq\n      tag_10\n      jumpi\n      0x00\n      dup1\n      revert\n    tag_11:\n      dup1\n      0x127effb2\n      eq\n      tag_3\n      jumpi\n      dup1\n      0x2f1d5a60\n      eq\n      tag_4\n      jumpi\n      dup1\n      0x5210eb56\n      eq\n      tag_5\n      jumpi\n      dup1\n      0x715018a6\n      eq\n      tag_6\n      jumpi\n    tag_2:\n      0x00\n      dup1\n      revert\n        /* \"contracts/task/PayTask.sol\":560:590  address public operatorAddress */\n    tag_3:\n      sload(0x03)\n      tag_12\n      swap1\n      sub(shl(0xa0, 0x01), 0x01)\n      and\n      dup2\n      jump\n    tag_12:\n      mload(0x40)\n      sub(shl(0xa0, 0x01), 0x01)\n        /* \"#utility.yul\":178:210   */\n      swap1\n      swap2\n      and\n        /* \"#utility.yul\":160:211   */\n      dup2\n      mstore\n        /* \"#utility.yul\":148:150   */\n      0x20\n        /* \"#utility.yul\":133:151   */\n      add\n        /* \"contracts/task/PayTask.sol\":560:590  address public operatorAddress */\n    tag_14:\n      mload(0x40)\n      dup1\n      swap2\n      sub\n      swap1\n      return\n        /* \"contracts/task/PayTask.sol\":963:1174  function setOperatorAddress(... */\n    tag_4:\n      tag_16\n      tag_17\n      calldatasize\n      0x04\n      tag_18\n      jump\t// in\n    tag_17:\n      tag_19\n      jump\t// in\n    tag_16:\n      stop\n        /* \"contracts/task/PayTask.sol\":526:554  address public targetAddress */\n    tag_5:\n      sload(0x02)\n      tag_12\n      swap1\n      sub(shl(0xa0, 0x01), 0x01)\n      and\n      dup2\n      jump\n        /* \"@openzeppelin/contracts/access/Ownable.sol\":2293:2394  function renounceOwnership() public virtual onlyOwner {... */\n    tag_6:\n      tag_16\n      tag_24\n      jump\t// in\n        /* \"@openzeppelin/contracts/access/Ownable.sol\":1638:1723  function owner() public view virtual returns (address) {... */\n    tag_7:\n        /* \"@openzeppelin/contracts/access/Ownable.sol\":1684:1691  address */\n      0x00\n        /* \"@openzeppelin/contracts/access/Ownable.sol\":1710:1716  _owner */\n      sload\n      sub(shl(0xa0, 0x01), 0x01)\n      and\n        /* \"@openzeppelin/contracts/access/Ownable.sol\":1638:1723  function owner() public view virtual returns (address) {... */\n      jump(tag_12)\n        /* \"contracts/task/PayTask.sol\":497:520  address public payToken */\n    tag_8:\n      sload(0x01)\n      tag_12\n      swap1\n      sub(shl(0xa0, 0x01), 0x01)\n      and\n      dup2\n      jump\n        /* \"contracts/task/PayTask.sol\":1370:1568  function taskCall(address _sender,bytes calldata _data) external  onlyOperator returns(uint256){... */\n    tag_9:\n      tag_31\n      tag_32\n      calldatasize\n      0x04\n      tag_33\n      jump\t// in\n    tag_32:\n      tag_34\n      jump\t// in\n    tag_31:\n      mload(0x40)\n        /* \"#utility.yul\":1407:1432   */\n      swap1\n      dup2\n      mstore\n        /* \"#utility.yul\":1395:1397   */\n      0x20\n        /* \"#utility.yul\":1380:1398   */\n      add\n        /* \"contracts/task/PayTask.sol\":1370:1568  function taskCall(address _sender,bytes calldata _data) external  onlyOperator returns(uint256){... */\n      tag_14\n        /* \"#utility.yul\":1261:1438   */\n      jump\n        /* \"@openzeppelin/contracts/access/Ownable.sol\":2543:2758  function transferOwnership(address newOwner) public virtual onlyOwner {... */\n    tag_10:\n      tag_16\n      tag_38\n      calldatasize\n      0x04\n      tag_18\n      jump\t// in\n    tag_38:\n      tag_39\n      jump\t// in\n        /* \"contracts/task/PayTask.sol\":963:1174  function setOperatorAddress(... */\n    tag_19:\n        /* \"@openzeppelin/contracts/access/Ownable.sol\":1531:1544  _checkOwner() */\n      tag_41\n        /* \"@openzeppelin/contracts/access/Ownable.sol\":1531:1542  _checkOwner */\n      tag_42\n        /* \"@openzeppelin/contracts/access/Ownable.sol\":1531:1544  _checkOwner() */\n      jump\t// in\n    tag_41:\n      sub(shl(0xa0, 0x01), 0x01)\n        /* \"contracts/task/PayTask.sol\":1066:1096  _operatorAddress != address(0) */\n      dup2\n      and\n        /* \"contracts/task/PayTask.sol\":1058:1123  require(_operatorAddress != address(0), \"Cannot be zero address\") */\n      tag_44\n      jumpi\n      mload(0x40)\n      shl(0xe5, 0x461bcd)\n      dup2\n      mstore\n        /* \"#utility.yul\":1645:1647   */\n      0x20\n        /* \"contracts/task/PayTask.sol\":1058:1123  require(_operatorAddress != address(0), \"Cannot be zero address\") */\n      0x04\n      dup3\n      add\n        /* \"#utility.yul\":1627:1648   */\n      mstore\n        /* \"#utility.yul\":1684:1686   */\n      0x16\n        /* \"#utility.yul\":1664:1682   */\n      0x24\n      dup3\n      add\n        /* \"#utility.yul\":1657:1687   */\n      mstore\n      shl(0x50, 0x43616e6e6f74206265207a65726f2061646472657373)\n        /* \"#utility.yul\":1703:1721   */\n      0x44\n      dup3\n      add\n        /* \"#utility.yul\":1696:1748   */\n      mstore\n        /* \"#utility.yul\":1765:1783   */\n      0x64\n      add\n        /* \"contracts/task/PayTask.sol\":1058:1123  require(_operatorAddress != address(0), \"Cannot be zero address\") */\n    tag_45:\n      mload(0x40)\n      dup1\n      swap2\n      sub\n      swap1\n      revert\n    tag_44:\n        /* \"contracts/task/PayTask.sol\":1133:1148  operatorAddress */\n      0x03\n        /* \"contracts/task/PayTask.sol\":1133:1167  operatorAddress = _operatorAddress */\n      dup1\n      sload\n      not(sub(shl(0xa0, 0x01), 0x01))\n      and\n      sub(shl(0xa0, 0x01), 0x01)\n      swap3\n      swap1\n      swap3\n      and\n      swap2\n      swap1\n      swap2\n      or\n      swap1\n      sstore\n        /* \"contracts/task/PayTask.sol\":963:1174  function setOperatorAddress(... */\n      jump\t// out\n        /* \"@openzeppelin/contracts/access/Ownable.sol\":2293:2394  function renounceOwnership() public virtual onlyOwner {... */\n    tag_24:\n        /* \"@openzeppelin/contracts/access/Ownable.sol\":1531:1544  _checkOwner() */\n      tag_48\n        /* \"@openzeppelin/contracts/access/Ownable.sol\":1531:1542  _checkOwner */\n      tag_42\n        /* \"@openzeppelin/contracts/access/Ownable.sol\":1531:1544  _checkOwner() */\n      jump\t// in\n    tag_48:\n        /* \"@openzeppelin/contracts/access/Ownable.sol\":2357:2387  _transferOwnership(address(0)) */\n      tag_50\n        /* \"@openzeppelin/contracts/access/Ownable.sol\":2384:2385  0 */\n      0x00\n        /* \"@openzeppelin/contracts/access/Ownable.sol\":2357:2375  _transferOwnership */\n      tag_51\n        /* \"@openzeppelin/contracts/access/Ownable.sol\":2357:2387  _transferOwnership(address(0)) */\n      jump\t// in\n    tag_50:\n        /* \"@openzeppelin/contracts/access/Ownable.sol\":2293:2394  function renounceOwnership() public virtual onlyOwner {... */\n      jump\t// out\n        /* \"contracts/task/PayTask.sol\":1370:1568  function taskCall(address _sender,bytes calldata _data) external  onlyOperator returns(uint256){... */\n    tag_34:\n        /* \"contracts/task/PayTask.sol\":893:908  operatorAddress */\n      sload(0x03)\n        /* \"contracts/task/PayTask.sol\":1457:1464  uint256 */\n      0x00\n      swap1\n      sub(shl(0xa0, 0x01), 0x01)\n        /* \"contracts/task/PayTask.sol\":893:908  operatorAddress */\n      and\n        /* \"contracts/task/PayTask.sol\":912:922  msg.sender */\n      caller\n        /* \"contracts/task/PayTask.sol\":893:922  operatorAddress == msg.sender */\n      eq\n        /* \"contracts/task/PayTask.sol\":885:939  require(operatorAddress == msg.sender, \"Not operator\") */\n      tag_54\n      jumpi\n      mload(0x40)\n      shl(0xe5, 0x461bcd)\n      dup2\n      mstore\n        /* \"#utility.yul\":1996:1998   */\n      0x20\n        /* \"contracts/task/PayTask.sol\":885:939  require(operatorAddress == msg.sender, \"Not operator\") */\n      0x04\n      dup3\n      add\n        /* \"#utility.yul\":1978:1999   */\n      mstore\n        /* \"#utility.yul\":2035:2037   */\n      0x0c\n        /* \"#utility.yul\":2015:2033   */\n      0x24\n      dup3\n      add\n        /* \"#utility.yul\":2008:2038   */\n      mstore\n      shl(0xa1, 0x2737ba1037b832b930ba37b9)\n        /* \"#utility.yul\":2054:2072   */\n      0x44\n      dup3\n      add\n        /* \"#utility.yul\":2047:2089   */\n      mstore\n        /* \"#utility.yul\":2106:2124   */\n      0x64\n      add\n        /* \"contracts/task/PayTask.sol\":885:939  require(operatorAddress == msg.sender, \"Not operator\") */\n      tag_45\n        /* \"#utility.yul\":1794:2130   */\n      jump\n        /* \"contracts/task/PayTask.sol\":885:939  require(operatorAddress == msg.sender, \"Not operator\") */\n    tag_54:\n        /* \"contracts/task/PayTask.sol\":1476:1489  uint256 value */\n      0x00\n        /* \"contracts/task/PayTask.sol\":1493:1520  abi.decode(_data,(uint256)) */\n      tag_58\n      dup4\n      dup6\n      add\n        /* \"contracts/task/PayTask.sol\":1504:1509  _data */\n      dup6\n        /* \"contracts/task/PayTask.sol\":1493:1520  abi.decode(_data,(uint256)) */\n      tag_59\n      jump\t// in\n    tag_58:\n        /* \"contracts/task/PayTask.sol\":1475:1520  (uint256 value) = abi.decode(_data,(uint256)) */\n      swap1\n      pop\n        /* \"contracts/task/PayTask.sol\":1537:1561  _taskCall(_sender,value) */\n      tag_60\n        /* \"contracts/task/PayTask.sol\":1547:1554  _sender */\n      dup6\n        /* \"contracts/task/PayTask.sol\":1555:1560  value */\n      dup3\n        /* \"contracts/task/PayTask.sol\":1537:1546  _taskCall */\n      tag_61\n        /* \"contracts/task/PayTask.sol\":1537:1561  _taskCall(_sender,value) */\n      jump\t// in\n    tag_60:\n        /* \"contracts/task/PayTask.sol\":1530:1561  return _taskCall(_sender,value) */\n      swap2\n      pop\n      pop\n        /* \"contracts/task/PayTask.sol\":949:950  _ */\n    tag_57:\n        /* \"contracts/task/PayTask.sol\":1370:1568  function taskCall(address _sender,bytes calldata _data) external  onlyOperator returns(uint256){... */\n      swap4\n      swap3\n      pop\n      pop\n      pop\n      jump\t// out\n        /* \"@openzeppelin/contracts/access/Ownable.sol\":2543:2758  function transferOwnership(address newOwner) public virtual onlyOwner {... */\n    tag_39:\n        /* \"@openzeppelin/contracts/access/Ownable.sol\":1531:1544  _checkOwner() */\n      tag_63\n        /* \"@openzeppelin/contracts/access/Ownable.sol\":1531:1542  _checkOwner */\n      tag_42\n        /* \"@openzeppelin/contracts/access/Ownable.sol\":1531:1544  _checkOwner() */\n      jump\t// in\n    tag_63:\n      sub(shl(0xa0, 0x01), 0x01)\n        /* \"@openzeppelin/contracts/access/Ownable.sol\":2627:2649  newOwner == address(0) */\n      dup2\n      and\n        /* \"@openzeppelin/contracts/access/Ownable.sol\":2623:2714  if (newOwner == address(0)) {... */\n      tag_65\n      jumpi\n        /* \"@openzeppelin/contracts/access/Ownable.sol\":2672:2703  OwnableInvalidOwner(address(0)) */\n      mload(0x40)\n      shl(0xe0, 0x1e4fbdf7)\n      dup2\n      mstore\n        /* \"@openzeppelin/contracts/access/Ownable.sol\":2700:2701  0 */\n      0x00\n        /* \"@openzeppelin/contracts/access/Ownable.sol\":2672:2703  OwnableInvalidOwner(address(0)) */\n      0x04\n      dup3\n      add\n        /* \"#utility.yul\":160:211   */\n      mstore\n        /* \"#utility.yul\":133:151   */\n      0x24\n      add\n        /* \"@openzeppelin/contracts/access/Ownable.sol\":2672:2703  OwnableInvalidOwner(address(0)) */\n      tag_45\n        /* \"#utility.yul\":14:217   */\n      jump\n        /* \"@openzeppelin/contracts/access/Ownable.sol\":2623:2714  if (newOwner == address(0)) {... */\n    tag_65:\n        /* \"@openzeppelin/contracts/access/Ownable.sol\":2723:2751  _transferOwnership(newOwner) */\n      tag_67\n        /* \"@openzeppelin/contracts/access/Ownable.sol\":2742:2750  newOwner */\n      dup2\n        /* \"@openzeppelin/contracts/access/Ownable.sol\":2723:2741  _transferOwnership */\n      tag_51\n        /* \"@openzeppelin/contracts/access/Ownable.sol\":2723:2751  _transferOwnership(newOwner) */\n      jump\t// in\n    tag_67:\n        /* \"@openzeppelin/contracts/access/Ownable.sol\":2543:2758  function transferOwnership(address newOwner) public virtual onlyOwner {... */\n      pop\n      jump\t// out\n        /* \"@openzeppelin/contracts/access/Ownable.sol\":1796:1958  function _checkOwner() internal view virtual {... */\n    tag_42:\n        /* \"@openzeppelin/contracts/access/Ownable.sol\":1684:1691  address */\n      0x00\n        /* \"@openzeppelin/contracts/access/Ownable.sol\":1710:1716  _owner */\n      sload\n      sub(shl(0xa0, 0x01), 0x01)\n      and\n        /* \"@openzeppelin/contracts/utils/Context.sol\":735:745  msg.sender */\n      caller\n        /* \"@openzeppelin/contracts/access/Ownable.sol\":1855:1878  owner() != _msgSender() */\n      eq\n        /* \"@openzeppelin/contracts/access/Ownable.sol\":1851:1952  if (owner() != _msgSender()) {... */\n      tag_50\n      jumpi\n        /* \"@openzeppelin/contracts/access/Ownable.sol\":1901:1941  OwnableUnauthorizedAccount(_msgSender()) */\n      mload(0x40)\n      shl(0xe0, 0x118cdaa7)\n      dup2\n      mstore\n        /* \"@openzeppelin/contracts/utils/Context.sol\":735:745  msg.sender */\n      caller\n        /* \"@openzeppelin/contracts/access/Ownable.sol\":1901:1941  OwnableUnauthorizedAccount(_msgSender()) */\n      0x04\n      dup3\n      add\n        /* \"#utility.yul\":160:211   */\n      mstore\n        /* \"#utility.yul\":133:151   */\n      0x24\n      add\n        /* \"@openzeppelin/contracts/access/Ownable.sol\":1901:1941  OwnableUnauthorizedAccount(_msgSender()) */\n      tag_45\n        /* \"#utility.yul\":14:217   */\n      jump\n        /* \"@openzeppelin/contracts/access/Ownable.sol\":2912:3099  function _transferOwnership(address newOwner) internal virtual {... */\n    tag_51:\n        /* \"@openzeppelin/contracts/access/Ownable.sol\":2985:3001  address oldOwner */\n      0x00\n        /* \"@openzeppelin/contracts/access/Ownable.sol\":3004:3010  _owner */\n      dup1\n      sload\n      sub(shl(0xa0, 0x01), 0x01)\n        /* \"@openzeppelin/contracts/access/Ownable.sol\":3020:3037  _owner = newOwner */\n      dup4\n      dup2\n      and\n      not(sub(shl(0xa0, 0x01), 0x01))\n      dup4\n      and\n      dup2\n      or\n      dup5\n      sstore\n        /* \"@openzeppelin/contracts/access/Ownable.sol\":3052:3092  OwnershipTransferred(oldOwner, newOwner) */\n      mload(0x40)\n        /* \"@openzeppelin/contracts/access/Ownable.sol\":3004:3010  _owner */\n      swap2\n      swap1\n      swap3\n      and\n      swap3\n      dup4\n      swap2\n        /* \"@openzeppelin/contracts/access/Ownable.sol\":3052:3092  OwnershipTransferred(oldOwner, newOwner) */\n      0x8be0079c531659141344cd1fd0a4f28419497f9722a3daafe3b4186f6b6457e0\n      swap2\n        /* \"@openzeppelin/contracts/access/Ownable.sol\":2985:3001  address oldOwner */\n      swap1\n        /* \"@openzeppelin/contracts/access/Ownable.sol\":3052:3092  OwnershipTransferred(oldOwner, newOwner) */\n      log3\n        /* \"@openzeppelin/contracts/access/Ownable.sol\":2975:3099  {... */\n      pop\n        /* \"@openzeppelin/contracts/access/Ownable.sol\":2912:3099  function _transferOwnership(address newOwner) internal virtual {... */\n      pop\n      jump\t// out\n        /* \"contracts/task/PayTask.sol\":1184:1365  function _taskCall(address _sender,uint256 _value) internal returns(uint256){... */\n    tag_61:\n        /* \"contracts/task/PayTask.sol\":1313:1326  targetAddress */\n      sload(0x02)\n      0x01\n        /* \"contracts/task/PayTask.sol\":1277:1285  payToken */\n      sload\n        /* \"contracts/task/PayTask.sol\":1252:1259  uint256 */\n      0x00\n      swap2\n        /* \"contracts/task/PayTask.sol\":1270:1335  IERC20(payToken).safeTransferFrom(_sender, targetAddress, _value) */\n      tag_77\n      swap2\n      sub(shl(0xa0, 0x01), 0x01)\n        /* \"contracts/task/PayTask.sol\":1277:1285  payToken */\n      swap1\n      dup2\n      and\n      swap2\n        /* \"contracts/task/PayTask.sol\":1304:1311  _sender */\n      dup7\n      swap2\n        /* \"contracts/task/PayTask.sol\":1313:1326  targetAddress */\n      and\n        /* \"contracts/task/PayTask.sol\":1328:1334  _value */\n      dup6\n        /* \"contracts/task/PayTask.sol\":1270:1303  IERC20(payToken).safeTransferFrom */\n      tag_78\n        /* \"contracts/task/PayTask.sol\":1270:1335  IERC20(payToken).safeTransferFrom(_sender, targetAddress, _value) */\n      jump\t// in\n    tag_77:\n      pop\n        /* \"contracts/task/PayTask.sol\":1352:1358  _value */\n      swap2\n        /* \"contracts/task/PayTask.sol\":1184:1365  function _taskCall(address _sender,uint256 _value) internal returns(uint256){... */\n      swap1\n      pop\n      jump\t// out\n        /* \"@openzeppelin/contracts/token/ERC20/utils/SafeERC20.sol\":1702:1890  function safeTransferFrom(IERC20 token, address from, address to, uint256 value) internal {... */\n    tag_78:\n        /* \"@openzeppelin/contracts/token/ERC20/utils/SafeERC20.sol\":1829:1882  abi.encodeCall(token.transferFrom, (from, to, value)) */\n      0x40\n      dup1\n      mload\n      sub(shl(0xa0, 0x01), 0x01)\n        /* \"#utility.yul\":2578:2593   */\n      dup6\n      dup2\n      and\n        /* \"@openzeppelin/contracts/token/ERC20/utils/SafeERC20.sol\":1829:1882  abi.encodeCall(token.transferFrom, (from, to, value)) */\n      0x24\n      dup4\n      add\n        /* \"#utility.yul\":2560:2594   */\n      mstore\n        /* \"#utility.yul\":2630:2645   */\n      dup5\n      and\n        /* \"#utility.yul\":2610:2628   */\n      0x44\n      dup3\n      add\n        /* \"#utility.yul\":2603:2646   */\n      mstore\n        /* \"#utility.yul\":2662:2680   */\n      0x64\n      dup1\n      dup3\n      add\n        /* \"#utility.yul\":2655:2689   */\n      dup5\n      swap1\n      mstore\n        /* \"@openzeppelin/contracts/token/ERC20/utils/SafeERC20.sol\":1829:1882  abi.encodeCall(token.transferFrom, (from, to, value)) */\n      dup3\n      mload\n      dup1\n      dup4\n      sub\n      swap1\n      swap2\n      add\n      dup2\n      mstore\n        /* \"#utility.yul\":2495:2513   */\n      0x84\n      swap1\n      swap2\n      add\n        /* \"@openzeppelin/contracts/token/ERC20/utils/SafeERC20.sol\":1829:1882  abi.encodeCall(token.transferFrom, (from, to, value)) */\n      swap1\n      swap2\n      mstore\n      0x20\n      dup2\n      add\n      dup1\n      mload\n      sub(shl(0xe0, 0x01), 0x01)\n      and\n      shl(0xe0, 0x23b872dd)\n      or\n      swap1\n      mstore\n        /* \"@openzeppelin/contracts/token/ERC20/utils/SafeERC20.sol\":1802:1883  _callOptionalReturn(token, abi.encodeCall(token.transferFrom, (from, to, value))) */\n      tag_81\n      swap1\n        /* \"@openzeppelin/contracts/token/ERC20/utils/SafeERC20.sol\":1822:1827  token */\n      dup6\n      swap1\n        /* \"@openzeppelin/contracts/token/ERC20/utils/SafeERC20.sol\":1802:1821  _callOptionalReturn */\n      tag_84\n        /* \"@openzeppelin/contracts/token/ERC20/utils/SafeERC20.sol\":1802:1883  _callOptionalReturn(token, abi.encodeCall(token.transferFrom, (from, to, value))) */\n      jump\t// in\n    tag_81:\n        /* \"@openzeppelin/contracts/token/ERC20/utils/SafeERC20.sol\":1702:1890  function safeTransferFrom(IERC20 token, address from, address to, uint256 value) internal {... */\n      pop\n      pop\n      pop\n      pop\n      jump\t// out\n        /* \"@openzeppelin/contracts/token/ERC20/utils/SafeERC20.sol\":4059:4688  function _callOptionalReturn(IERC20 token, bytes memory data) private {... */\n    tag_84:\n        /* \"@openzeppelin/contracts/token/ERC20/utils/SafeERC20.sol\":4478:4501  bytes memory returndata */\n      0x00\n        /* \"@openzeppelin/contracts/token/ERC20/utils/SafeERC20.sol\":4504:4537  address(token).functionCall(data) */\n      tag_86\n      sub(shl(0xa0, 0x01), 0x01)\n        /* \"@openzeppelin/contracts/token/ERC20/utils/SafeERC20.sol\":4504:4531  address(token).functionCall */\n      dup5\n      and\n        /* \"@openzeppelin/contracts/token/ERC20/utils/SafeERC20.sol\":4532:4536  data */\n      dup4\n        /* \"@openzeppelin/contracts/token/ERC20/utils/SafeERC20.sol\":4504:4531  address(token).functionCall */\n      tag_87\n        /* \"@openzeppelin/contracts/token/ERC20/utils/SafeERC20.sol\":4504:4537  address(token).functionCall(data) */\n      jump\t// in\n    tag_86:\n        /* \"@openzeppelin/contracts/token/ERC20/utils/SafeERC20.sol\":4478:4537  bytes memory returndata = address(token).functionCall(data) */\n      swap1\n      pop\n        /* \"@openzeppelin/contracts/token/ERC20/utils/SafeERC20.sol\":4551:4561  returndata */\n      dup1\n        /* \"@openzeppelin/contracts/token/ERC20/utils/SafeERC20.sol\":4551:4568  returndata.length */\n      mload\n        /* \"@openzeppelin/contracts/token/ERC20/utils/SafeERC20.sol\":4572:4573  0 */\n      0x00\n        /* \"@openzeppelin/contracts/token/ERC20/utils/SafeERC20.sol\":4551:4573  returndata.length != 0 */\n      eq\n      iszero\n        /* \"@openzeppelin/contracts/token/ERC20/utils/SafeERC20.sol\":4551:4608  returndata.length != 0 && !abi.decode(returndata, (bool)) */\n      dup1\n      iszero\n      tag_88\n      jumpi\n      pop\n        /* \"@openzeppelin/contracts/token/ERC20/utils/SafeERC20.sol\":4589:4599  returndata */\n      dup1\n        /* \"@openzeppelin/contracts/token/ERC20/utils/SafeERC20.sol\":4578:4608  abi.decode(returndata, (bool)) */\n      dup1\n      0x20\n      add\n      swap1\n      mload\n      dup2\n      add\n      swap1\n      tag_89\n      swap2\n      swap1\n      tag_90\n      jump\t// in\n    tag_89:\n        /* \"@openzeppelin/contracts/token/ERC20/utils/SafeERC20.sol\":4577:4608  !abi.decode(returndata, (bool)) */\n      iszero\n        /* \"@openzeppelin/contracts/token/ERC20/utils/SafeERC20.sol\":4551:4608  returndata.length != 0 && !abi.decode(returndata, (bool)) */\n    tag_88:\n        /* \"@openzeppelin/contracts/token/ERC20/utils/SafeERC20.sol\":4547:4682  if (returndata.length != 0 && !abi.decode(returndata, (bool))) {... */\n      iszero\n      tag_91\n      jumpi\n        /* \"@openzeppelin/contracts/token/ERC20/utils/SafeERC20.sol\":4631:4671  SafeERC20FailedOperation(address(token)) */\n      mload(0x40)\n      shl(0xe0, 0x5274afe7)\n      dup2\n      mstore\n      sub(shl(0xa0, 0x01), 0x01)\n        /* \"#utility.yul\":178:210   */\n      dup5\n      and\n        /* \"@openzeppelin/contracts/token/ERC20/utils/SafeERC20.sol\":4631:4671  SafeERC20FailedOperation(address(token)) */\n      0x04\n      dup3\n      add\n        /* \"#utility.yul\":160:211   */\n      mstore\n        /* \"#utility.yul\":133:151   */\n      0x24\n      add\n        /* \"@openzeppelin/contracts/token/ERC20/utils/SafeERC20.sol\":4631:4671  SafeERC20FailedOperation(address(token)) */\n      tag_45\n        /* \"#utility.yul\":14:217   */\n      jump\n        /* \"@openzeppelin/contracts/token/ERC20/utils/SafeERC20.sol\":4547:4682  if (returndata.length != 0 && !abi.decode(returndata, (bool))) {... */\n    tag_91:\n        /* \"@openzeppelin/contracts/token/ERC20/utils/SafeERC20.sol\":4129:4688  {... */\n      pop\n        /* \"@openzeppelin/contracts/token/ERC20/utils/SafeERC20.sol\":4059:4688  function _callOptionalReturn(IERC20 token, bytes memory data) private {... */\n      pop\n      pop\n      jump\t// out\n        /* \"@openzeppelin/contracts/utils/Address.sol\":2705:2856  function functionCall(address target, bytes memory data) internal returns (bytes memory) {... */\n    tag_87:\n        /* \"@openzeppelin/contracts/utils/Address.sol\":2780:2792  bytes memory */\n      0x60\n        /* \"@openzeppelin/contracts/utils/Address.sol\":2811:2849  functionCallWithValue(target, data, 0) */\n      tag_57\n        /* \"@openzeppelin/contracts/utils/Address.sol\":2833:2839  target */\n      dup4\n        /* \"@openzeppelin/contracts/utils/Address.sol\":2841:2845  data */\n      dup4\n        /* \"@openzeppelin/contracts/utils/Address.sol\":2847:2848  0 */\n      0x00\n        /* \"@openzeppelin/contracts/utils/Address.sol\":2780:2792  bytes memory */\n      dup5\n        /* \"@openzeppelin/contracts/utils/Address.sol\":3421:3433  bool success */\n      0x00\n        /* \"@openzeppelin/contracts/utils/Address.sol\":3435:3458  bytes memory returndata */\n      dup1\n        /* \"@openzeppelin/contracts/utils/Address.sol\":3462:3468  target */\n      dup6\n      sub(shl(0xa0, 0x01), 0x01)\n        /* \"@openzeppelin/contracts/utils/Address.sol\":3462:3473  target.call */\n      and\n        /* \"@openzeppelin/contracts/utils/Address.sol\":3481:3486  value */\n      dup5\n        /* \"@openzeppelin/contracts/utils/Address.sol\":3488:3492  data */\n      dup7\n        /* \"@openzeppelin/contracts/utils/Address.sol\":3462:3493  target.call{value: value}(data) */\n      mload(0x40)\n      tag_99\n      swap2\n      swap1\n      tag_100\n      jump\t// in\n    tag_99:\n      0x00\n      mload(0x40)\n      dup1\n      dup4\n      sub\n      dup2\n      dup6\n      dup8\n      gas\n      call\n      swap3\n      pop\n      pop\n      pop\n      returndatasize\n      dup1\n      0x00\n      dup2\n      eq\n      tag_103\n      jumpi\n      mload(0x40)\n      swap2\n      pop\n      and(add(returndatasize, 0x3f), not(0x1f))\n      dup3\n      add\n      0x40\n      mstore\n      returndatasize\n      dup3\n      mstore\n      returndatasize\n      0x00\n      0x20\n      dup5\n      add\n      returndatacopy\n      jump(tag_102)\n    tag_103:\n      0x60\n      swap2\n      pop\n    tag_102:\n      pop\n        /* \"@openzeppelin/contracts/utils/Address.sol\":3420:3493  (bool success, bytes memory returndata) = target.call{value: value}(data) */\n      swap2\n      pop\n      swap2\n      pop\n        /* \"@openzeppelin/contracts/utils/Address.sol\":3510:3565  verifyCallResultFromTarget(target, success, returndata) */\n      tag_104\n        /* \"@openzeppelin/contracts/utils/Address.sol\":3537:3543  target */\n      dup7\n        /* \"@openzeppelin/contracts/utils/Address.sol\":3545:3552  success */\n      dup4\n        /* \"@openzeppelin/contracts/utils/Address.sol\":3554:3564  returndata */\n      dup4\n        /* \"@openzeppelin/contracts/utils/Address.sol\":3510:3536  verifyCallResultFromTarget */\n      tag_105\n        /* \"@openzeppelin/contracts/utils/Address.sol\":3510:3565  verifyCallResultFromTarget(target, success, returndata) */\n      jump\t// in\n    tag_104:\n        /* \"@openzeppelin/contracts/utils/Address.sol\":3503:3565  return verifyCallResultFromTarget(target, success, returndata) */\n      swap7\n        /* \"@openzeppelin/contracts/utils/Address.sol\":3180:3572  function functionCallWithValue(address target, bytes memory data, uint256 value) internal returns (bytes memory) {... */\n      swap6\n      pop\n      pop\n      pop\n      pop\n      pop\n      pop\n      jump\t// out\n        /* \"@openzeppelin/contracts/utils/Address.sol\":4625:5207  function verifyCallResultFromTarget(... */\n    tag_105:\n        /* \"@openzeppelin/contracts/utils/Address.sol\":4769:4781  bytes memory */\n      0x60\n        /* \"@openzeppelin/contracts/utils/Address.sol\":4798:4805  success */\n      dup3\n        /* \"@openzeppelin/contracts/utils/Address.sol\":4793:5201  if (!success) {... */\n      tag_107\n      jumpi\n        /* \"@openzeppelin/contracts/utils/Address.sol\":4821:4840  _revert(returndata) */\n      tag_108\n        /* \"@openzeppelin/contracts/utils/Address.sol\":4829:4839  returndata */\n      dup3\n        /* \"@openzeppelin/contracts/utils/Address.sol\":4821:4828  _revert */\n      tag_109\n        /* \"@openzeppelin/contracts/utils/Address.sol\":4821:4840  _revert(returndata) */\n      jump\t// in\n    tag_108:\n        /* \"@openzeppelin/contracts/utils/Address.sol\":4793:5201  if (!success) {... */\n      jump(tag_57)\n    tag_107:\n        /* \"@openzeppelin/contracts/utils/Address.sol\":5045:5062  returndata.length */\n      dup2\n      mload\n        /* \"@openzeppelin/contracts/utils/Address.sol\":5045:5067  returndata.length == 0 */\n      iszero\n        /* \"@openzeppelin/contracts/utils/Address.sol\":5045:5094  returndata.length == 0 && target.code.length == 0 */\n      dup1\n      iszero\n      tag_111\n      jumpi\n      pop\n      sub(shl(0xa0, 0x01), 0x01)\n        /* \"@openzeppelin/contracts/utils/Address.sol\":5071:5089  target.code.length */\n      dup5\n      and\n      extcodesize\n        /* \"@openzeppelin/contracts/utils/Address.sol\":5071:5094  target.code.length == 0 */\n      iszero\n        /* \"@openzeppelin/contracts/utils/Address.sol\":5045:5094  returndata.length == 0 && target.code.length == 0 */\n    tag_111:\n        /* \"@openzeppelin/contracts/utils/Address.sol\":5041:5160  if (returndata.length == 0 && target.code.length == 0) {... */\n      iszero\n      tag_112\n      jumpi\n        /* \"@openzeppelin/contracts/utils/Address.sol\":5121:5145  AddressEmptyCode(target) */\n      mload(0x40)\n      shl(0xe0, 0x9996b315)\n      dup2\n      mstore\n      sub(shl(0xa0, 0x01), 0x01)\n        /* \"#utility.yul\":178:210   */\n      dup6\n      and\n        /* \"@openzeppelin/contracts/utils/Address.sol\":5121:5145  AddressEmptyCode(target) */\n      0x04\n      dup3\n      add\n        /* \"#utility.yul\":160:211   */\n      mstore\n        /* \"#utility.yul\":133:151   */\n      0x24\n      add\n        /* \"@openzeppelin/contracts/utils/Address.sol\":5121:5145  AddressEmptyCode(target) */\n      tag_45\n        /* \"#utility.yul\":14:217   */\n      jump\n        /* \"@openzeppelin/contracts/utils/Address.sol\":5041:5160  if (returndata.length == 0 && target.code.length == 0) {... */\n    tag_112:\n      pop\n        /* \"@openzeppelin/contracts/utils/Address.sol\":5180:5190  returndata */\n      dup1\n        /* \"@openzeppelin/contracts/utils/Address.sol\":5173:5190  return returndata */\n      jump(tag_57)\n        /* \"@openzeppelin/contracts/utils/Address.sol\":5743:6259  function _revert(bytes memory returndata) private pure {... */\n    tag_109:\n        /* \"@openzeppelin/contracts/utils/Address.sol\":5874:5891  returndata.length */\n      dup1\n      mload\n        /* \"@openzeppelin/contracts/utils/Address.sol\":5874:5895  returndata.length > 0 */\n      iszero\n        /* \"@openzeppelin/contracts/utils/Address.sol\":5870:6253  if (returndata.length > 0) {... */\n      tag_115\n      jumpi\n        /* \"@openzeppelin/contracts/utils/Address.sol\":6102:6112  returndata */\n      dup1\n        /* \"@openzeppelin/contracts/utils/Address.sol\":6096:6113  mload(returndata) */\n      mload\n        /* \"@openzeppelin/contracts/utils/Address.sol\":6158:6173  returndata_size */\n      dup1\n        /* \"@openzeppelin/contracts/utils/Address.sol\":6145:6155  returndata */\n      dup3\n        /* \"@openzeppelin/contracts/utils/Address.sol\":6141:6143  32 */\n      0x20\n        /* \"@openzeppelin/contracts/utils/Address.sol\":6137:6156  add(32, returndata) */\n      add\n        /* \"@openzeppelin/contracts/utils/Address.sol\":6130:6174  revert(add(32, returndata), returndata_size) */\n      revert\n        /* \"@openzeppelin/contracts/utils/Address.sol\":5870:6253  if (returndata.length > 0) {... */\n    tag_115:\n        /* \"@openzeppelin/contracts/utils/Address.sol\":6225:6242  FailedInnerCall() */\n      mload(0x40)\n      shl(0xe1, 0x0a12f521)\n      dup2\n      mstore\n      0x04\n      add\n      mload(0x40)\n      dup1\n      swap2\n      sub\n      swap1\n      revert\n        /* \"#utility.yul\":222:395   */\n    tag_117:\n        /* \"#utility.yul\":290:310   */\n      dup1\n      calldataload\n      sub(shl(0xa0, 0x01), 0x01)\n        /* \"#utility.yul\":339:370   */\n      dup2\n      and\n        /* \"#utility.yul\":329:371   */\n      dup2\n      eq\n        /* \"#utility.yul\":319:389   */\n      tag_121\n      jumpi\n        /* \"#utility.yul\":385:386   */\n      0x00\n        /* \"#utility.yul\":382:383   */\n      dup1\n        /* \"#utility.yul\":375:387   */\n      revert\n        /* \"#utility.yul\":319:389   */\n    tag_121:\n        /* \"#utility.yul\":222:395   */\n      swap2\n      swap1\n      pop\n      jump\t// out\n        /* \"#utility.yul\":400:586   */\n    tag_18:\n        /* \"#utility.yul\":459:465   */\n      0x00\n        /* \"#utility.yul\":512:514   */\n      0x20\n        /* \"#utility.yul\":500:509   */\n      dup3\n        /* \"#utility.yul\":491:498   */\n      dup5\n        /* \"#utility.yul\":487:510   */\n      sub\n        /* \"#utility.yul\":483:515   */\n      slt\n        /* \"#utility.yul\":480:532   */\n      iszero\n      tag_123\n      jumpi\n        /* \"#utility.yul\":528:529   */\n      0x00\n        /* \"#utility.yul\":525:526   */\n      dup1\n        /* \"#utility.yul\":518:530   */\n      revert\n        /* \"#utility.yul\":480:532   */\n    tag_123:\n        /* \"#utility.yul\":551:580   */\n      tag_57\n        /* \"#utility.yul\":570:579   */\n      dup3\n        /* \"#utility.yul\":551:580   */\n      tag_117\n      jump\t// in\n        /* \"#utility.yul\":591:1256   */\n    tag_33:\n        /* \"#utility.yul\":670:676   */\n      0x00\n        /* \"#utility.yul\":678:684   */\n      dup1\n        /* \"#utility.yul\":686:692   */\n      0x00\n        /* \"#utility.yul\":739:741   */\n      0x40\n        /* \"#utility.yul\":727:736   */\n      dup5\n        /* \"#utility.yul\":718:725   */\n      dup7\n        /* \"#utility.yul\":714:737   */\n      sub\n        /* \"#utility.yul\":710:742   */\n      slt\n        /* \"#utility.yul\":707:759   */\n      iszero\n      tag_126\n      jumpi\n        /* \"#utility.yul\":755:756   */\n      0x00\n        /* \"#utility.yul\":752:753   */\n      dup1\n        /* \"#utility.yul\":745:757   */\n      revert\n        /* \"#utility.yul\":707:759   */\n    tag_126:\n        /* \"#utility.yul\":778:807   */\n      tag_127\n        /* \"#utility.yul\":797:806   */\n      dup5\n        /* \"#utility.yul\":778:807   */\n      tag_117\n      jump\t// in\n    tag_127:\n        /* \"#utility.yul\":768:807   */\n      swap3\n      pop\n        /* \"#utility.yul\":858:860   */\n      0x20\n        /* \"#utility.yul\":847:856   */\n      dup5\n        /* \"#utility.yul\":843:861   */\n      add\n        /* \"#utility.yul\":830:862   */\n      calldataload\n        /* \"#utility.yul\":881:899   */\n      0xffffffffffffffff\n        /* \"#utility.yul\":922:924   */\n      dup1\n        /* \"#utility.yul\":914:920   */\n      dup3\n        /* \"#utility.yul\":911:925   */\n      gt\n        /* \"#utility.yul\":908:942   */\n      iszero\n      tag_128\n      jumpi\n        /* \"#utility.yul\":938:939   */\n      0x00\n        /* \"#utility.yul\":935:936   */\n      dup1\n        /* \"#utility.yul\":928:940   */\n      revert\n        /* \"#utility.yul\":908:942   */\n    tag_128:\n        /* \"#utility.yul\":976:982   */\n      dup2\n        /* \"#utility.yul\":965:974   */\n      dup7\n        /* \"#utility.yul\":961:983   */\n      add\n        /* \"#utility.yul\":951:983   */\n      swap2\n      pop\n        /* \"#utility.yul\":1021:1028   */\n      dup7\n        /* \"#utility.yul\":1014:1018   */\n      0x1f\n        /* \"#utility.yul\":1010:1012   */\n      dup4\n        /* \"#utility.yul\":1006:1019   */\n      add\n        /* \"#utility.yul\":1002:1029   */\n      slt\n        /* \"#utility.yul\":992:1047   */\n      tag_129\n      jumpi\n        /* \"#utility.yul\":1043:1044   */\n      0x00\n        /* \"#utility.yul\":1040:1041   */\n      dup1\n        /* \"#utility.yul\":1033:1045   */\n      revert\n        /* \"#utility.yul\":992:1047   */\n    tag_129:\n        /* \"#utility.yul\":1083:1085   */\n      dup2\n        /* \"#utility.yul\":1070:1086   */\n      calldataload\n        /* \"#utility.yul\":1109:1111   */\n      dup2\n        /* \"#utility.yul\":1101:1107   */\n      dup2\n        /* \"#utility.yul\":1098:1112   */\n      gt\n        /* \"#utility.yul\":1095:1129   */\n      iszero\n      tag_130\n      jumpi\n        /* \"#utility.yul\":1125:1126   */\n      0x00\n        /* \"#utility.yul\":1122:1123   */\n      dup1\n        /* \"#utility.yul\":1115:1127   */\n      revert\n        /* \"#utility.yul\":1095:1129   */\n    tag_130:\n        /* \"#utility.yul\":1170:1177   */\n      dup8\n        /* \"#utility.yul\":1165:1167   */\n      0x20\n        /* \"#utility.yul\":1156:1162   */\n      dup3\n        /* \"#utility.yul\":1152:1154   */\n      dup6\n        /* \"#utility.yul\":1148:1163   */\n      add\n        /* \"#utility.yul\":1144:1168   */\n      add\n        /* \"#utility.yul\":1141:1178   */\n      gt\n        /* \"#utility.yul\":1138:1195   */\n      iszero\n      tag_131\n      jumpi\n        /* \"#utility.yul\":1191:1192   */\n      0x00\n        /* \"#utility.yul\":1188:1189   */\n      dup1\n        /* \"#utility.yul\":1181:1193   */\n      revert\n        /* \"#utility.yul\":1138:1195   */\n    tag_131:\n        /* \"#utility.yul\":1222:1224   */\n      0x20\n        /* \"#utility.yul\":1218:1220   */\n      dup4\n        /* \"#utility.yul\":1214:1225   */\n      add\n        /* \"#utility.yul\":1204:1225   */\n      swap5\n      pop\n        /* \"#utility.yul\":1244:1250   */\n      dup1\n        /* \"#utility.yul\":1234:1250   */\n      swap4\n      pop\n      pop\n      pop\n      pop\n        /* \"#utility.yul\":591:1256   */\n      swap3\n      pop\n      swap3\n      pop\n      swap3\n      jump\t// out\n        /* \"#utility.yul\":2135:2315   */\n    tag_59:\n        /* \"#utility.yul\":2194:2200   */\n      0x00\n        /* \"#utility.yul\":2247:2249   */\n      0x20\n        /* \"#utility.yul\":2235:2244   */\n      dup3\n        /* \"#utility.yul\":2226:2233   */\n      dup5\n        /* \"#utility.yul\":2222:2245   */\n      sub\n        /* \"#utility.yul\":2218:2250   */\n      slt\n        /* \"#utility.yul\":2215:2267   */\n      iszero\n      tag_136\n      jumpi\n        /* \"#utility.yul\":2263:2264   */\n      0x00\n        /* \"#utility.yul\":2260:2261   */\n      dup1\n        /* \"#utility.yul\":2253:2265   */\n      revert\n        /* \"#utility.yul\":2215:2267   */\n    tag_136:\n      pop\n        /* \"#utility.yul\":2286:2309   */\n      calldataload\n      swap2\n        /* \"#utility.yul\":2135:2315   */\n      swap1\n      pop\n      jump\t// out\n        /* \"#utility.yul\":2700:2977   */\n    tag_90:\n        /* \"#utility.yul\":2767:2773   */\n      0x00\n        /* \"#utility.yul\":2820:2822   */\n      0x20\n        /* \"#utility.yul\":2808:2817   */\n      dup3\n        /* \"#utility.yul\":2799:2806   */\n      dup5\n        /* \"#utility.yul\":2795:2818   */\n      sub\n        /* \"#utility.yul\":2791:2823   */\n      slt\n        /* \"#utility.yul\":2788:2840   */\n      iszero\n      tag_139\n      jumpi\n        /* \"#utility.yul\":2836:2837   */\n      0x00\n        /* \"#utility.yul\":2833:2834   */\n      dup1\n        /* \"#utility.yul\":2826:2838   */\n      revert\n        /* \"#utility.yul\":2788:2840   */\n    tag_139:\n        /* \"#utility.yul\":2868:2877   */\n      dup2\n        /* \"#utility.yul\":2862:2878   */\n      mload\n        /* \"#utility.yul\":2921:2926   */\n      dup1\n        /* \"#utility.yul\":2914:2927   */\n      iszero\n        /* \"#utility.yul\":2907:2928   */\n      iszero\n        /* \"#utility.yul\":2900:2905   */\n      dup2\n        /* \"#utility.yul\":2897:2929   */\n      eq\n        /* \"#utility.yul\":2887:2947   */\n      tag_57\n      jumpi\n        /* \"#utility.yul\":2943:2944   */\n      0x00\n        /* \"#utility.yul\":2940:2941   */\n      dup1\n        /* \"#utility.yul\":2933:2945   */\n      revert\n        /* \"#utility.yul\":2982:3283   */\n    tag_100:\n        /* \"#utility.yul\":3111:3114   */\n      0x00\n        /* \"#utility.yul\":3149:3155   */\n      dup3\n        /* \"#utility.yul\":3143:3156   */\n      mload\n        /* \"#utility.yul\":3195:3201   */\n      dup1\n        /* \"#utility.yul\":3188:3192   */\n      0x20\n        /* \"#utility.yul\":3180:3186   */\n      dup6\n        /* \"#utility.yul\":3176:3193   */\n      add\n        /* \"#utility.yul\":3171:3174   */\n      dup5\n        /* \"#utility.yul\":3165:3202   */\n      mcopy\n        /* \"#utility.yul\":3257:3258   */\n      0x00\n        /* \"#utility.yul\":3221:3237   */\n      swap3\n      add\n        /* \"#utility.yul\":3246:3259   */\n      swap2\n      dup3\n      mstore\n      pop\n        /* \"#utility.yul\":3221:3237   */\n      swap2\n        /* \"#utility.yul\":2982:3283   */\n      swap1\n      pop\n      jump\t// out\n\n    auxdata: 0xa26469706673582212201569b01c128067c97ef8b68192cff7bea512ac4cdf5eb8d9a3f9fe084a8c3faa64736f6c63430008190033\n}\n",
				"bytecode": {
					"linkReferences": {},
					"object": "608060405234801561000f575f80fd5b5060405161076f38038061076f83398101604081905261002e91610109565b338061005357604051631e4fbdf760e01b81525f600482015260240160405180910390fd5b61005c8161009f565b50600180546001600160a01b039485166001600160a01b031991821617909155600280549385169382169390931790925560038054919093169116179055610149565b5f80546001600160a01b038381166001600160a01b0319831681178455604051919092169283917f8be0079c531659141344cd1fd0a4f28419497f9722a3daafe3b4186f6b6457e09190a35050565b80516001600160a01b0381168114610104575f80fd5b919050565b5f805f6060848603121561011b575f80fd5b610124846100ee565b9250610132602085016100ee565b9150610140604085016100ee565b90509250925092565b610619806101565f395ff3fe608060405234801561000f575f80fd5b5060043610610085575f3560e01c80638da5cb5b116100585780638da5cb5b146100e957806396336b30146100f9578063e1ac8d261461010c578063f2fde38b1461012d575f80fd5b8063127effb2146100895780632f1d5a60146100b95780635210eb56146100ce578063715018a6146100e1575b5f80fd5b60035461009c906001600160a01b031681565b6040516001600160a01b0390911681526020015b60405180910390f35b6100cc6100c7366004610502565b610140565b005b60025461009c906001600160a01b031681565b6100cc6101be565b5f546001600160a01b031661009c565b60015461009c906001600160a01b031681565b61011f61011a36600461051b565b6101d1565b6040519081526020016100b0565b6100cc61013b366004610502565b610240565b61014861027d565b6001600160a01b03811661019c5760405162461bcd60e51b815260206004820152601660248201527543616e6e6f74206265207a65726f206164647265737360501b60448201526064015b60405180910390fd5b600380546001600160a01b0319166001600160a01b0392909216919091179055565b6101c661027d565b6101cf5f6102a9565b565b6003545f906001600160a01b0316331461021c5760405162461bcd60e51b815260206004820152600c60248201526b2737ba1037b832b930ba37b960a11b6044820152606401610193565b5f61022983850185610597565b905061023585826102f8565b9150505b9392505050565b61024861027d565b6001600160a01b03811661027157604051631e4fbdf760e01b81525f6004820152602401610193565b61027a816102a9565b50565b5f546001600160a01b031633146101cf5760405163118cdaa760e01b8152336004820152602401610193565b5f80546001600160a01b038381166001600160a01b0319831681178455604051919092169283917f8be0079c531659141344cd1fd0a4f28419497f9722a3daafe3b4186f6b6457e09190a35050565b6002546001545f91610319916001600160a01b03908116918691168561031f565b50919050565b604080516001600160a01b0385811660248301528416604482015260648082018490528251808303909101815260849091019091526020810180516001600160e01b03166323b872dd60e01b17905261037990859061037f565b50505050565b5f6103936001600160a01b038416836103e5565b905080515f141580156103b75750808060200190518101906103b591906105ae565b155b156103e057604051635274afe760e01b81526001600160a01b0384166004820152602401610193565b505050565b606061023983835f845f80856001600160a01b0316848660405161040991906105cd565b5f6040518083038185875af1925050503d805f8114610443576040519150601f19603f3d011682016040523d82523d5f602084013e610448565b606091505b5091509150610458868383610462565b9695505050505050565b60608261047757610472826104be565b610239565b815115801561048e57506001600160a01b0384163b155b156104b757604051639996b31560e01b81526001600160a01b0385166004820152602401610193565b5080610239565b8051156104ce5780518082602001fd5b604051630a12f52160e11b815260040160405180910390fd5b80356001600160a01b03811681146104fd575f80fd5b919050565b5f60208284031215610512575f80fd5b610239826104e7565b5f805f6040848603121561052d575f80fd5b610536846104e7565b9250602084013567ffffffffffffffff80821115610552575f80fd5b818601915086601f830112610565575f80fd5b813581811115610573575f80fd5b876020828501011115610584575f80fd5b6020830194508093505050509250925092565b5f602082840312156105a7575f80fd5b5035919050565b5f602082840312156105be575f80fd5b81518015158114610239575f80fd5b5f82518060208501845e5f92019182525091905056fea26469706673582212201569b01c128067c97ef8b68192cff7bea512ac4cdf5eb8d9a3f9fe084a8c3faa64736f6c63430008190033",
					"opcodes": "PUSH1 0x80 PUSH1 0x40 MSTORE CALLVALUE DUP1 ISZERO PUSH2 0xF JUMPI PUSH0 DUP1 REVERT JUMPDEST POP PUSH1 0x40 MLOAD PUSH2 0x76F CODESIZE SUB DUP1 PUSH2 0x76F DUP4 CODECOPY DUP2 ADD PUSH1 0x40 DUP2 SWAP1 MSTORE PUSH2 0x2E SWAP2 PUSH2 0x109 JUMP JUMPDEST CALLER DUP1 PUSH2 0x53 JUMPI PUSH1 0x40 MLOAD PUSH4 0x1E4FBDF7 PUSH1 0xE0 SHL DUP2 MSTORE PUSH0 PUSH1 0x4 DUP3 ADD MSTORE PUSH1 0x24 ADD PUSH1 0x40 MLOAD DUP1 SWAP2 SUB SWAP1 REVERT JUMPDEST PUSH2 0x5C DUP2 PUSH2 0x9F JUMP JUMPDEST POP PUSH1 0x1 DUP1 SLOAD PUSH1 0x1 PUSH1 0x1 PUSH1 0xA0 SHL SUB SWAP5 DUP6 AND PUSH1 0x1 PUSH1 0x1 PUSH1 0xA0 SHL SUB NOT SWAP2 DUP3 AND OR SWAP1 SWAP2 SSTORE PUSH1 0x2 DUP1 SLOAD SWAP4 DUP6 AND SWAP4 DUP3 AND SWAP4 SWAP1 SWAP4 OR SWAP1 SWAP3 SSTORE PUSH1 0x3 DUP1 SLOAD SWAP2 SWAP1 SWAP4 AND SWAP2 AND OR SWAP1 SSTORE PUSH2 0x149 JUMP JUMPDEST PUSH0 DUP1 SLOAD PUSH1 0x1 PUSH1 0x1 PUSH1 0xA0 SHL SUB DUP4 DUP2 AND PUSH1 0x1 PUSH1 0x1 PUSH1 0xA0 SHL SUB NOT DUP4 AND DUP2 OR DUP5 SSTORE PUSH1 0x40 MLOAD SWAP2 SWAP1 SWAP3 AND SWAP3 DUP4 SWAP2 PUSH32 0x8BE0079C531659141344CD1FD0A4F28419497F9722A3DAAFE3B4186F6B6457E0 SWAP2 SWAP1 LOG3 POP POP JUMP JUMPDEST DUP1 MLOAD PUSH1 0x1 PUSH1 0x1 PUSH1 0xA0 SHL SUB DUP2 AND DUP2 EQ PUSH2 0x104 JUMPI PUSH0 DUP1 REVERT JUMPDEST SWAP2 SWAP1 POP JUMP JUMPDEST PUSH0 DUP1 PUSH0 PUSH1 0x60 DUP5 DUP7 SUB SLT ISZERO PUSH2 0x11B JUMPI PUSH0 DUP1 REVERT JUMPDEST PUSH2 0x124 DUP5 PUSH2 0xEE JUMP JUMPDEST SWAP3 POP PUSH2 0x132 PUSH1 0x20 DUP6 ADD PUSH2 0xEE JUMP JUMPDEST SWAP2 POP PUSH2 0x140 PUSH1 0x40 DUP6 ADD PUSH2 0xEE JUMP JUMPDEST SWAP1 POP SWAP3 POP SWAP3 POP SWAP3 JUMP JUMPDEST PUSH2 0x619 DUP1 PUSH2 0x156 PUSH0 CODECOPY PUSH0 RETURN INVALID PUSH1 0x80 PUSH1 0x40 MSTORE CALLVALUE DUP1 ISZERO PUSH2 0xF JUMPI PUSH0 DUP1 REVERT JUMPDEST POP PUSH1 0x4 CALLDATASIZE LT PUSH2 0x85 JUMPI PUSH0 CALLDATALOAD PUSH1 0xE0 SHR DUP1 PUSH4 0x8DA5CB5B GT PUSH2 0x58 JUMPI DUP1 PUSH4 0x8DA5CB5B EQ PUSH2 0xE9 JUMPI DUP1 PUSH4 0x96336B30 EQ PUSH2 0xF9 JUMPI DUP1 PUSH4 0xE1AC8D26 EQ PUSH2 0x10C JUMPI DUP1 PUSH4 0xF2FDE38B EQ PUSH2 0x12D JUMPI PUSH0 DUP1 REVERT JUMPDEST DUP1 PUSH4 0x127EFFB2 EQ PUSH2 0x89 JUMPI DUP1 PUSH4 0x2F1D5A60 EQ PUSH2 0xB9 JUMPI DUP1 PUSH4 0x5210EB56 EQ PUSH2 0xCE JUMPI DUP1 PUSH4 0x715018A6 EQ PUSH2 0xE1 JUMPI JUMPDEST PUSH0 DUP1 REVERT JUMPDEST PUSH1 0x3 SLOAD PUSH2 0x9C SWAP1 PUSH1 0x1 PUSH1 0x1 PUSH1 0xA0 SHL SUB AND DUP2 JUMP JUMPDEST PUSH1 0x40 MLOAD PUSH1 0x1 PUSH1 0x1 PUSH1 0xA0 SHL SUB SWAP1 SWAP2 AND DUP2 MSTORE PUSH1 0x20 ADD JUMPDEST PUSH1 0x40 MLOAD DUP1 SWAP2 SUB SWAP1 RETURN JUMPDEST PUSH2 0xCC PUSH2 0xC7 CALLDATASIZE PUSH1 0x4 PUSH2 0x502 JUMP JUMPDEST PUSH2 0x140 JUMP JUMPDEST STOP JUMPDEST PUSH1 0x2 SLOAD PUSH2 0x9C SWAP1 PUSH1 0x1 PUSH1 0x1 PUSH1 0xA0 SHL SUB AND DUP2 JUMP JUMPDEST PUSH2 0xCC PUSH2 0x1BE JUMP JUMPDEST PUSH0 SLOAD PUSH1 0x1 PUSH1 0x1 PUSH1 0xA0 SHL SUB AND PUSH2 0x9C JUMP JUMPDEST PUSH1 0x1 SLOAD PUSH2 0x9C SWAP1 PUSH1 0x1 PUSH1 0x1 PUSH1 0xA0 SHL SUB AND DUP2 JUMP JUMPDEST PUSH2 0x11F PUSH2 0x11A CALLDATASIZE PUSH1 0x4 PUSH2 0x51B JUMP JUMPDEST PUSH2 0x1D1 JUMP JUMPDEST PUSH1 0x40 MLOAD SWAP1 DUP2 MSTORE PUSH1 0x20 ADD PUSH2 0xB0 JUMP JUMPDEST PUSH2 0xCC PUSH2 0x13B CALLDATASIZE PUSH1 0x4 PUSH2 0x502 JUMP JUMPDEST PUSH2 0x240 JUMP JUMPDEST PUSH2 0x148 PUSH2 0x27D JUMP JUMPDEST PUSH1 0x1 PUSH1 0x1 PUSH1 0xA0 SHL SUB DUP2 AND PUSH2 0x19C JUMPI PUSH1 0x40 MLOAD PUSH3 0x461BCD PUSH1 0xE5 SHL DUP2 MSTORE PUSH1 0x20 PUSH1 0x4 DUP3 ADD MSTORE PUSH1 0x16 PUSH1 0x24 DUP3 ADD MSTORE PUSH22 0x43616E6E6F74206265207A65726F2061646472657373 PUSH1 0x50 SHL PUSH1 0x44 DUP3 ADD MSTORE PUSH1 0x64 ADD JUMPDEST PUSH1 0x40 MLOAD DUP1 SWAP2 SUB SWAP1 REVERT JUMPDEST PUSH1 0x3 DUP1 SLOAD PUSH1 0x1 PUSH1 0x1 PUSH1 0xA0 SHL SUB NOT AND PUSH1 0x1 PUSH1 0x1 PUSH1 0xA0 SHL SUB SWAP3 SWAP1 SWAP3 AND SWAP2 SWAP1 SWAP2 OR SWAP1 SSTORE JUMP JUMPDEST PUSH2 0x1C6 PUSH2 0x27D JUMP JUMPDEST PUSH2 0x1CF PUSH0 PUSH2 0x2A9 JUMP JUMPDEST JUMP JUMPDEST PUSH1 0x3 SLOAD PUSH0 SWAP1 PUSH1 0x1 PUSH1 0x1 PUSH1 0xA0 SHL SUB AND CALLER EQ PUSH2 0x21C JUMPI PUSH1 0x40 MLOAD PUSH3 0x461BCD PUSH1 0xE5 SHL DUP2 MSTORE PUSH1 0x20 PUSH1 0x4 DUP3 ADD MSTORE PUSH1 0xC PUSH1 0x24 DUP3 ADD MSTORE PUSH12 0x2737BA1037B832B930BA37B9 PUSH1 0xA1 SHL PUSH1 0x44 DUP3 ADD MSTORE PUSH1 0x64 ADD PUSH2 0x193 JUMP JUMPDEST PUSH0 PUSH2 0x229 DUP4 DUP6 ADD DUP6 PUSH2 0x597 JUMP JUMPDEST SWAP1 POP PUSH2 0x235 DUP6 DUP3 PUSH2 0x2F8 JUMP JUMPDEST SWAP2 POP POP JUMPDEST SWAP4 SWAP3 POP POP POP JUMP JUMPDEST PUSH2 0x248 PUSH2 0x27D JUMP JUMPDEST PUSH1 0x1 PUSH1 0x1 PUSH1 0xA0 SHL SUB DUP2 AND PUSH2 0x271 JUMPI PUSH1 0x40 MLOAD PUSH4 0x1E4FBDF7 PUSH1 0xE0 SHL DUP2 MSTORE PUSH0 PUSH1 0x4 DUP3 ADD MSTORE PUSH1 0x24 ADD PUSH2 0x193 JUMP JUMPDEST PUSH2 0x27A DUP2 PUSH2 0x2A9 JUMP JUMPDEST POP JUMP JUMPDEST PUSH0 SLOAD PUSH1 0x1 PUSH1 0x1 PUSH1 0xA0 SHL SUB AND CALLER EQ PUSH2 0x1CF JUMPI PUSH1 0x40 MLOAD PUSH4 0x118CDAA7 PUSH1 0xE0 SHL DUP2 MSTORE CALLER PUSH1 0x4 DUP3 ADD MSTORE PUSH1 0x24 ADD PUSH2 0x193 JUMP JUMPDEST PUSH0 DUP1 SLOAD PUSH1 0x1 PUSH1 0x1 PUSH1 0xA0 SHL SUB DUP4 DUP2 AND PUSH1 0x1 PUSH1 0x1 PUSH1 0xA0 SHL SUB NOT DUP4 AND DUP2 OR DUP5 SSTORE PUSH1 0x40 MLOAD SWAP2 SWAP1 SWAP3 AND SWAP3 DUP4 SWAP2 PUSH32 0x8BE0079C531659141344CD1FD0A4F28419497F9722A3DAAFE3B4186F6B6457E0 SWAP2 SWAP1 LOG3 POP POP JUMP JUMPDEST PUSH1 0x2 SLOAD PUSH1 0x1 SLOAD PUSH0 SWAP2 PUSH2 0x319 SWAP2 PUSH1 0x1 PUSH1 0x1 PUSH1 0xA0 SHL SUB SWAP1 DUP2 AND SWAP2 DUP7 SWAP2 AND DUP6 PUSH2 0x31F JUMP JUMPDEST POP SWAP2 SWAP1 POP JUMP JUMPDEST PUSH1 0x40 DUP1 MLOAD PUSH1 0x1 PUSH1 0x1 PUSH1 0xA0 SHL SUB DUP6 DUP2 AND PUSH1 0x24 DUP4 ADD MSTORE DUP5 AND PUSH1 0x44 DUP3 ADD MSTORE PUSH1 0x64 DUP1 DUP3 ADD DUP5 SWAP1 MSTORE DUP3 MLOAD DUP1 DUP4 SUB SWAP1 SWAP2 ADD DUP2 MSTORE PUSH1 0x84 SWAP1 SWAP2 ADD SWAP1 SWAP2 MSTORE PUSH1 0x20 DUP2 ADD DUP1 MLOAD PUSH1 0x1 PUSH1 0x1 PUSH1 0xE0 SHL SUB AND PUSH4 0x23B872DD PUSH1 0xE0 SHL OR SWAP1 MSTORE PUSH2 0x379 SWAP1 DUP6 SWAP1 PUSH2 0x37F JUMP JUMPDEST POP POP POP POP JUMP JUMPDEST PUSH0 PUSH2 0x393 PUSH1 0x1 PUSH1 0x1 PUSH1 0xA0 SHL SUB DUP5 AND DUP4 PUSH2 0x3E5 JUMP JUMPDEST SWAP1 POP DUP1 MLOAD PUSH0 EQ ISZERO DUP1 ISZERO PUSH2 0x3B7 JUMPI POP DUP1 DUP1 PUSH1 0x20 ADD SWAP1 MLOAD DUP2 ADD SWAP1 PUSH2 0x3B5 SWAP2 SWAP1 PUSH2 0x5AE JUMP JUMPDEST ISZERO JUMPDEST ISZERO PUSH2 0x3E0 JUMPI PUSH1 0x40 MLOAD PUSH4 0x5274AFE7 PUSH1 0xE0 SHL DUP2 MSTORE PUSH1 0x1 PUSH1 0x1 PUSH1 0xA0 SHL SUB DUP5 AND PUSH1 0x4 DUP3 ADD MSTORE PUSH1 0x24 ADD PUSH2 0x193 JUMP JUMPDEST POP POP POP JUMP JUMPDEST PUSH1 0x60 PUSH2 0x239 DUP4 DUP4 PUSH0 DUP5 PUSH0 DUP1 DUP6 PUSH1 0x1 PUSH1 0x1 PUSH1 0xA0 SHL SUB AND DUP5 DUP7 PUSH1 0x40 MLOAD PUSH2 0x409 SWAP2 SWAP1 PUSH2 0x5CD JUMP JUMPDEST PUSH0 PUSH1 0x40 MLOAD DUP1 DUP4 SUB DUP2 DUP6 DUP8 GAS CALL SWAP3 POP POP POP RETURNDATASIZE DUP1 PUSH0 DUP2 EQ PUSH2 0x443 JUMPI PUSH1 0x40 MLOAD SWAP2 POP PUSH1 0x1F NOT PUSH1 0x3F RETURNDATASIZE ADD AND DUP3 ADD PUSH1 0x40 MSTORE RETURNDATASIZE DUP3 MSTORE RETURNDATASIZE PUSH0 PUSH1 0x20 DUP5 ADD RETURNDATACOPY PUSH2 0x448 JUMP JUMPDEST PUSH1 0x60 SWAP2 POP JUMPDEST POP SWAP2 POP SWAP2 POP PUSH2 0x458 DUP7 DUP4 DUP4 PUSH2 0x462 JUMP JUMPDEST SWAP7 SWAP6 POP POP POP POP POP POP JUMP JUMPDEST PUSH1 0x60 DUP3 PUSH2 0x477 JUMPI PUSH2 0x472 DUP3 PUSH2 0x4BE JUMP JUMPDEST PUSH2 0x239 JUMP JUMPDEST DUP2 MLOAD ISZERO DUP1 ISZERO PUSH2 0x48E JUMPI POP PUSH1 0x1 PUSH1 0x1 PUSH1 0xA0 SHL SUB DUP5 AND EXTCODESIZE ISZERO JUMPDEST ISZERO PUSH2 0x4B7 JUMPI PUSH1 0x40 MLOAD PUSH4 0x9996B315 PUSH1 0xE0 SHL DUP2 MSTORE PUSH1 0x1 PUSH1 0x1 PUSH1 0xA0 SHL SUB DUP6 AND PUSH1 0x4 DUP3 ADD MSTORE PUSH1 0x24 ADD PUSH2 0x193 JUMP JUMPDEST POP DUP1 PUSH2 0x239 JUMP JUMPDEST DUP1 MLOAD ISZERO PUSH2 0x4CE JUMPI DUP1 MLOAD DUP1 DUP3 PUSH1 0x20 ADD REVERT JUMPDEST PUSH1 0x40 MLOAD PUSH4 0xA12F521 PUSH1 0xE1 SHL DUP2 MSTORE PUSH1 0x4 ADD PUSH1 0x40 MLOAD DUP1 SWAP2 SUB SWAP1 REVERT JUMPDEST DUP1 CALLDATALOAD PUSH1 0x1 PUSH1 0x1 PUSH1 0xA0 SHL SUB DUP2 AND DUP2 EQ PUSH2 0x4FD JUMPI PUSH0 DUP1 REVERT JUMPDEST SWAP2 SWAP1 POP JUMP JUMPDEST PUSH0 PUSH1 0x20 DUP3 DUP5 SUB SLT ISZERO PUSH2 0x512 JUMPI PUSH0 DUP1 REVERT JUMPDEST PUSH2 0x239 DUP3 PUSH2 0x4E7 JUMP JUMPDEST PUSH0 DUP1 PUSH0 PUSH1 0x40 DUP5 DUP7 SUB SLT ISZERO PUSH2 0x52D JUMPI PUSH0 DUP1 REVERT JUMPDEST PUSH2 0x536 DUP5 PUSH2 0x4E7 JUMP JUMPDEST SWAP3 POP PUSH1 0x20 DUP5 ADD CALLDATALOAD PUSH8 0xFFFFFFFFFFFFFFFF DUP1 DUP3 GT ISZERO PUSH2 0x552 JUMPI PUSH0 DUP1 REVERT JUMPDEST DUP2 DUP7 ADD SWAP2 POP DUP7 PUSH1 0x1F DUP4 ADD SLT PUSH2 0x565 JUMPI PUSH0 DUP1 REVERT JUMPDEST DUP2 CALLDATALOAD DUP2 DUP2 GT ISZERO PUSH2 0x573 JUMPI PUSH0 DUP1 REVERT JUMPDEST DUP8 PUSH1 0x20 DUP3 DUP6 ADD ADD GT ISZERO PUSH2 0x584 JUMPI PUSH0 DUP1 REVERT JUMPDEST PUSH1 0x20 DUP4 ADD SWAP5 POP DUP1 SWAP4 POP POP POP POP SWAP3 POP SWAP3 POP SWAP3 JUMP JUMPDEST PUSH0 PUSH1 0x20 DUP3 DUP5 SUB SLT ISZERO PUSH2 0x5A7 JUMPI PUSH0 DUP1 REVERT JUMPDEST POP CALLDATALOAD SWAP2 SWAP1 POP JUMP JUMPDEST PUSH0 PUSH1 0x20 DUP3 DUP5 SUB SLT ISZERO PUSH2 0x5BE JUMPI PUSH0 DUP1 REVERT JUMPDEST DUP2 MLOAD DUP1 ISZERO ISZERO DUP2 EQ PUSH2 0x239 JUMPI PUSH0 DUP1 REVERT JUMPDEST PUSH0 DUP3 MLOAD DUP1 PUSH1 0x20 DUP6 ADD DUP5 MCOPY PUSH0 SWAP3 ADD SWAP2 DUP3 MSTORE POP SWAP2 SWAP1 POP JUMP INVALID LOG2 PUSH5 0x6970667358 0x22 SLT KECCAK256 ISZERO PUSH10 0xB01C128067C97EF8B681 SWAP3 0xCF 0xF7 0xBE 0xA5 SLT 0xAC 0x4C 0xDF MCOPY 0xB8 0xD9 LOG3 0xF9 INVALID ADDMOD BLOBBASEFEE DUP13 EXTCODEHASH 0xAA PUSH5 0x736F6C6343 STOP ADDMOD NOT STOP CALLER "
				},
				"gasEstimates": {
					"creation": {
						"codeDepositCost": "312200",
						"executionCost": "infinite",
						"totalCost": "infinite"
					},
					"external": {
						"operatorAddress()": "2326",
						"owner()": "2318",
						"payToken()": "2347",
						"renounceOwnership()": "infinite",
						"setOperatorAddress(address)": "26790",
						"targetAddress()": "2370",
						"taskCall(address,bytes)": "infinite",
						"transferOwnership(address)": "28395"
					},
					"internal": {
						"_taskCall(address,uint256)": "infinite"
					}
				},
				"methodIdentifiers": {
					"operatorAddress()": "127effb2",
					"owner()": "8da5cb5b",
					"payToken()": "96336b30",
					"renounceOwnership()": "715018a6",
					"setOperatorAddress(address)": "2f1d5a60",
					"targetAddress()": "5210eb56",
					"taskCall(address,bytes)": "e1ac8d26",
					"transferOwnership(address)": "f2fde38b"
				}
			},
			"storageLayout": {
				"storage": [
					{
						"astId": 8,
						"contract": "contracts/task/PayTask.sol:PayTask",
						"label": "_owner",
						"offset": 0,
						"slot": "0",
						"type": "t_address"
					},
					{
						"astId": 862,
						"contract": "contracts/task/PayTask.sol:PayTask",
						"label": "payToken",
						"offset": 0,
						"slot": "1",
						"type": "t_address"
					},
					{
						"astId": 864,
						"contract": "contracts/task/PayTask.sol:PayTask",
						"label": "targetAddress",
						"offset": 0,
						"slot": "2",
						"type": "t_address"
					},
					{
						"astId": 866,
						"contract": "contracts/task/PayTask.sol:PayTask",
						"label": "operatorAddress",
						"offset": 0,
						"slot": "3",
						"type": "t_address"
					}
				],
				"types": {
					"t_address": {
						"encoding": "inplace",
						"label": "address",
						"numberOfBytes": "20"
					}
				}
			},
			"userdoc": {
				"kind": "user",
				"methods": {},
				"version": 1
			}
		}
	}
}