{
	"contracts/task/EmptyTask.sol": {
		"EmptyTask": {
			"abi": [
				{
					"inputs": [
						{
							"internalType": "address",
							"name": "_sender",
							"type": "address"
						},
						{
							"internalType": "bytes",
							"name": "_data",
							"type": "bytes"
						}
					],
					"name": "taskCall",
					"outputs": [
						{
							"internalType": "uint256",
							"name": "",
							"type": "uint256"
						}
					],
					"stateMutability": "pure",
					"type": "function"
				}
			],
			"devdoc": {
				"kind": "dev",
				"methods": {},
				"version": 1
			},
			"evm": {
				"assembly": "    /* \"contracts/task/EmptyTask.sol\":217:428  contract EmptyTask is ItaskCallee{... */\n  mstore(0x40, 0x80)\n  callvalue\n  dup1\n  iszero\n  tag_1\n  jumpi\n  0x00\n  dup1\n  revert\ntag_1:\n  pop\n  dataSize(sub_0)\n  dup1\n  dataOffset(sub_0)\n  0x00\n  codecopy\n  0x00\n  return\nstop\n\nsub_0: assembly {\n        /* \"contracts/task/EmptyTask.sol\":217:428  contract EmptyTask is ItaskCallee{... */\n      mstore(0x40, 0x80)\n      callvalue\n      dup1\n      iszero\n      tag_1\n      jumpi\n      0x00\n      dup1\n      revert\n    tag_1:\n      pop\n      jumpi(tag_2, lt(calldatasize, 0x04))\n      shr(0xe0, calldataload(0x00))\n      dup1\n      0xe1ac8d26\n      eq\n      tag_3\n      jumpi\n    tag_2:\n      0x00\n      dup1\n      revert\n        /* \"contracts/task/EmptyTask.sol\":256:426  function taskCall(address _sender,bytes calldata _data) external pure returns(uint256){... */\n    tag_3:\n      tag_4\n      tag_5\n      calldatasize\n      0x04\n      tag_6\n      jump\t// in\n    tag_5:\n      tag_7\n      jump\t// in\n    tag_4:\n      mload(0x40)\n        /* \"#utility.yul\":930:955   */\n      swap1\n      dup2\n      mstore\n        /* \"#utility.yul\":918:920   */\n      0x20\n        /* \"#utility.yul\":903:921   */\n      add\n        /* \"contracts/task/EmptyTask.sol\":256:426  function taskCall(address _sender,bytes calldata _data) external pure returns(uint256){... */\n      mload(0x40)\n      dup1\n      swap2\n      sub\n      swap1\n      return\n    tag_7:\n        /* \"contracts/task/EmptyTask.sol\":334:341  uint256 */\n      0x00\n      dup1\n        /* \"contracts/task/EmptyTask.sol\":370:397  abi.decode(_data,(uint256)) */\n      tag_11\n      dup4\n      dup6\n      add\n        /* \"contracts/task/EmptyTask.sol\":381:386  _data */\n      dup6\n        /* \"contracts/task/EmptyTask.sol\":370:397  abi.decode(_data,(uint256)) */\n      tag_12\n      jump\t// in\n    tag_11:\n        /* \"contracts/task/EmptyTask.sol\":352:397  (uint256 value) = abi.decode(_data,(uint256)) */\n      swap6\n        /* \"contracts/task/EmptyTask.sol\":256:426  function taskCall(address _sender,bytes calldata _data) external pure returns(uint256){... */\n      swap5\n      pop\n      pop\n      pop\n      pop\n      pop\n      jump\t// out\n        /* \"#utility.yul\":14:779   */\n    tag_6:\n        /* \"#utility.yul\":93:99   */\n      0x00\n        /* \"#utility.yul\":101:107   */\n      dup1\n        /* \"#utility.yul\":109:115   */\n      0x00\n        /* \"#utility.yul\":162:164   */\n      0x40\n        /* \"#utility.yul\":150:159   */\n      dup5\n        /* \"#utility.yul\":141:148   */\n      dup7\n        /* \"#utility.yul\":137:160   */\n      sub\n        /* \"#utility.yul\":133:165   */\n      slt\n        /* \"#utility.yul\":130:182   */\n      iszero\n      tag_15\n      jumpi\n        /* \"#utility.yul\":178:179   */\n      0x00\n        /* \"#utility.yul\":175:176   */\n      dup1\n        /* \"#utility.yul\":168:180   */\n      revert\n        /* \"#utility.yul\":130:182   */\n    tag_15:\n        /* \"#utility.yul\":204:227   */\n      dup4\n      calldataload\n      sub(shl(0xa0, 0x01), 0x01)\n        /* \"#utility.yul\":256:287   */\n      dup2\n      and\n        /* \"#utility.yul\":246:288   */\n      dup2\n      eq\n        /* \"#utility.yul\":236:306   */\n      tag_16\n      jumpi\n        /* \"#utility.yul\":302:303   */\n      0x00\n        /* \"#utility.yul\":299:300   */\n      dup1\n        /* \"#utility.yul\":292:304   */\n      revert\n        /* \"#utility.yul\":236:306   */\n    tag_16:\n        /* \"#utility.yul\":325:330   */\n      swap3\n      pop\n        /* \"#utility.yul\":381:383   */\n      0x20\n        /* \"#utility.yul\":366:384   */\n      dup5\n      add\n        /* \"#utility.yul\":353:385   */\n      calldataload\n        /* \"#utility.yul\":404:422   */\n      0xffffffffffffffff\n        /* \"#utility.yul\":434:448   */\n      dup1\n      dup3\n      gt\n        /* \"#utility.yul\":431:465   */\n      iszero\n      tag_17\n      jumpi\n        /* \"#utility.yul\":461:462   */\n      0x00\n        /* \"#utility.yul\":458:459   */\n      dup1\n        /* \"#utility.yul\":451:463   */\n      revert\n        /* \"#utility.yul\":431:465   */\n    tag_17:\n        /* \"#utility.yul\":499:505   */\n      dup2\n        /* \"#utility.yul\":488:497   */\n      dup7\n        /* \"#utility.yul\":484:506   */\n      add\n        /* \"#utility.yul\":474:506   */\n      swap2\n      pop\n        /* \"#utility.yul\":544:551   */\n      dup7\n        /* \"#utility.yul\":537:541   */\n      0x1f\n        /* \"#utility.yul\":533:535   */\n      dup4\n        /* \"#utility.yul\":529:542   */\n      add\n        /* \"#utility.yul\":525:552   */\n      slt\n        /* \"#utility.yul\":515:570   */\n      tag_18\n      jumpi\n        /* \"#utility.yul\":566:567   */\n      0x00\n        /* \"#utility.yul\":563:564   */\n      dup1\n        /* \"#utility.yul\":556:568   */\n      revert\n        /* \"#utility.yul\":515:570   */\n    tag_18:\n        /* \"#utility.yul\":606:608   */\n      dup2\n        /* \"#utility.yul\":593:609   */\n      calldataload\n        /* \"#utility.yul\":632:634   */\n      dup2\n        /* \"#utility.yul\":624:630   */\n      dup2\n        /* \"#utility.yul\":621:635   */\n      gt\n        /* \"#utility.yul\":618:652   */\n      iszero\n      tag_19\n      jumpi\n        /* \"#utility.yul\":648:649   */\n      0x00\n        /* \"#utility.yul\":645:646   */\n      dup1\n        /* \"#utility.yul\":638:650   */\n      revert\n        /* \"#utility.yul\":618:652   */\n    tag_19:\n        /* \"#utility.yul\":693:700   */\n      dup8\n        /* \"#utility.yul\":688:690   */\n      0x20\n        /* \"#utility.yul\":679:685   */\n      dup3\n        /* \"#utility.yul\":675:677   */\n      dup6\n        /* \"#utility.yul\":671:686   */\n      add\n        /* \"#utility.yul\":667:691   */\n      add\n        /* \"#utility.yul\":664:701   */\n      gt\n        /* \"#utility.yul\":661:718   */\n      iszero\n      tag_20\n      jumpi\n        /* \"#utility.yul\":714:715   */\n      0x00\n        /* \"#utility.yul\":711:712   */\n      dup1\n        /* \"#utility.yul\":704:716   */\n      revert\n        /* \"#utility.yul\":661:718   */\n    tag_20:\n        /* \"#utility.yul\":745:747   */\n      0x20\n        /* \"#utility.yul\":741:743   */\n      dup4\n        /* \"#utility.yul\":737:748   */\n      add\n        /* \"#utility.yul\":727:748   */\n      swap5\n      pop\n        /* \"#utility.yul\":767:773   */\n      dup1\n        /* \"#utility.yul\":757:773   */\n      swap4\n      pop\n      pop\n      pop\n      pop\n        /* \"#utility.yul\":14:779   */\n      swap3\n      pop\n      swap3\n      pop\n      swap3\n      jump\t// out\n        /* \"#utility.yul\":966:1146   */\n    tag_12:\n        /* \"#utility.yul\":1025:1031   */\n      0x00\n        /* \"#utility.yul\":1078:1080   */\n      0x20\n        /* \"#utility.yul\":1066:1075   */\n      dup3\n        /* \"#utility.yul\":1057:1064   */\n      dup5\n        /* \"#utility.yul\":1053:1076   */\n      sub\n        /* \"#utility.yul\":1049:1081   */\n      slt\n        /* \"#utility.yul\":1046:1098   */\n      iszero\n      tag_23\n      jumpi\n        /* \"#utility.yul\":1094:1095   */\n      0x00\n        /* \"#utility.yul\":1091:1092   */\n      dup1\n        /* \"#utility.yul\":1084:1096   */\n      revert\n        /* \"#utility.yul\":1046:1098   */\n    tag_23:\n      pop\n        /* \"#utility.yul\":1117:1140   */\n      calldataload\n      swap2\n        /* \"#utility.yul\":966:1146   */\n      swap1\n      pop\n      jump\t// out\n\n    auxdata: 0xa2646970667358221220254ee89290e3d2edffcd863414fdb640cbee77f0535fa334b9bd7a2785fca76964736f6c63430008190033\n}\n",
				"bytecode": {
					"linkReferences": {},
					"object": "6080604052348015600e575f80fd5b5061013f8061001c5f395ff3fe608060405234801561000f575f80fd5b5060043610610029575f3560e01c8063e1ac8d261461002d575b5f80fd5b61004061003b366004610069565b610052565b60405190815260200160405180910390f35b5f80610060838501856100f2565b95945050505050565b5f805f6040848603121561007b575f80fd5b83356001600160a01b0381168114610091575f80fd5b9250602084013567ffffffffffffffff808211156100ad575f80fd5b818601915086601f8301126100c0575f80fd5b8135818111156100ce575f80fd5b8760208285010111156100df575f80fd5b6020830194508093505050509250925092565b5f60208284031215610102575f80fd5b503591905056fea2646970667358221220254ee89290e3d2edffcd863414fdb640cbee77f0535fa334b9bd7a2785fca76964736f6c63430008190033",
					"opcodes": "PUSH1 0x80 PUSH1 0x40 MSTORE CALLVALUE DUP1 ISZERO PUSH1 0xE JUMPI PUSH0 DUP1 REVERT JUMPDEST POP PUSH2 0x13F DUP1 PUSH2 0x1C PUSH0 CODECOPY PUSH0 RETURN INVALID PUSH1 0x80 PUSH1 0x40 MSTORE CALLVALUE DUP1 ISZERO PUSH2 0xF JUMPI PUSH0 DUP1 REVERT JUMPDEST POP PUSH1 0x4 CALLDATASIZE LT PUSH2 0x29 JUMPI PUSH0 CALLDATALOAD PUSH1 0xE0 SHR DUP1 PUSH4 0xE1AC8D26 EQ PUSH2 0x2D JUMPI JUMPDEST PUSH0 DUP1 REVERT JUMPDEST PUSH2 0x40 PUSH2 0x3B CALLDATASIZE PUSH1 0x4 PUSH2 0x69 JUMP JUMPDEST PUSH2 0x52 JUMP JUMPDEST PUSH1 0x40 MLOAD SWAP1 DUP2 MSTORE PUSH1 0x20 ADD PUSH1 0x40 MLOAD DUP1 SWAP2 SUB SWAP1 RETURN JUMPDEST PUSH0 DUP1 PUSH2 0x60 DUP4 DUP6 ADD DUP6 PUSH2 0xF2 JUMP JUMPDEST SWAP6 SWAP5 POP POP POP POP POP JUMP JUMPDEST PUSH0 DUP1 PUSH0 PUSH1 0x40 DUP5 DUP7 SUB SLT ISZERO PUSH2 0x7B JUMPI PUSH0 DUP1 REVERT JUMPDEST DUP4 CALLDATALOAD PUSH1 0x1 PUSH1 0x1 PUSH1 0xA0 SHL SUB DUP2 AND DUP2 EQ PUSH2 0x91 JUMPI PUSH0 DUP1 REVERT JUMPDEST SWAP3 POP PUSH1 0x20 DUP5 ADD CALLDATALOAD PUSH8 0xFFFFFFFFFFFFFFFF DUP1 DUP3 GT ISZERO PUSH2 0xAD JUMPI PUSH0 DUP1 REVERT JUMPDEST DUP2 DUP7 ADD SWAP2 POP DUP7 PUSH1 0x1F DUP4 ADD SLT PUSH2 0xC0 JUMPI PUSH0 DUP1 REVERT JUMPDEST DUP2 CALLDATALOAD DUP2 DUP2 GT ISZERO PUSH2 0xCE JUMPI PUSH0 DUP1 REVERT JUMPDEST DUP8 PUSH1 0x20 DUP3 DUP6 ADD ADD GT ISZERO PUSH2 0xDF JUMPI PUSH0 DUP1 REVERT JUMPDEST PUSH1 0x20 DUP4 ADD SWAP5 POP DUP1 SWAP4 POP POP POP POP SWAP3 POP SWAP3 POP SWAP3 JUMP JUMPDEST PUSH0 PUSH1 0x20 DUP3 DUP5 SUB SLT ISZERO PUSH2 0x102 JUMPI PUSH0 DUP1 REVERT JUMPDEST POP CALLDATALOAD SWAP2 SWAP1 POP JUMP INVALID LOG2 PUSH5 0x6970667358 0x22 SLT KECCAK256 0x25 0x4E 0xE8 SWAP3 SWAP1 0xE3 0xD2 0xED SELFDESTRUCT 0xCD DUP7 CALLVALUE EQ REVERT 0xB6 BLOCKHASH 0xCB 0xEE PUSH24 0xF0535FA334B9BD7A2785FCA76964736F6C63430008190033 "
				},
				"gasEstimates": {
					"creation": {
						"codeDepositCost": "63800",
						"executionCost": "109",
						"totalCost": "63909"
					},
					"external": {
						"taskCall(address,bytes)": "585"
					}
				},
				"methodIdentifiers": {
					"taskCall(address,bytes)": "e1ac8d26"
				}
			},
			"storageLayout": {
				"storage": [],
				"types": null
			},
			"userdoc": {
				"kind": "user",
				"methods": {},
				"version": 1
			}
		}
	}
}