{
	"data": {
		"bytecode": {
			"linkReferences": {},
			"object": "608060405234801561000f575f80fd5b5060405161281f38038061281f83398101604081905261002e916101e4565b60015f55338061005757604051631e4fbdf760e01b81525f600482015260240160405180910390fd5b61006081610178565b506001600160a01b038381165f818152600660209081526040918290208054600160ff1991821681179092556005805490911682179055600280546001600160a01b03191695881695909517909455600485905581519283528201929092527fedae46487653623e513ea3b3341c9e6b457a2ef687d0342d2507ccb63458b19f910160405180910390a160055460405160ff909116151581527f6fe9a4ab2e95e24b2be44989dc36a685149dfde9354d486a8da5cb4bbd01b0109060200160405180910390a1600254600454604080516001600160a01b03909316835260208301919091527fdc907cb17a7da8e1dffad2b7205a6ca1111cbb38a0f1f4b2b60a31eb673ca4a2910160405180910390a150505061021d565b600180546001600160a01b038381166001600160a01b0319831681179093556040519116919082907f8be0079c531659141344cd1fd0a4f28419497f9722a3daafe3b4186f6b6457e0905f90a35050565b80516001600160a01b03811681146101df575f80fd5b919050565b5f805f606084860312156101f6575f80fd5b6101ff846101c9565b925061020d602085016101c9565b9150604084015190509250925092565b6125f58061022a5f395ff3fe608060405234801561000f575f80fd5b5060043610610148575f3560e01c8063959acdaf116100bf578063d982817411610079578063d9828174146102bc578063dc912a81146102cf578063e00dd161146102e2578063f2fde38b146102eb578063f41188ed146102fe578063fe5c597614610311575f80fd5b8063959acdaf14610231578063a210d5e014610244578063bc6bce9114610261578063bce3468d14610283578063c5e7bb3314610296578063d7098154146102a9575f80fd5b80635c42e0c5116101105780635c42e0c5146101b6578063715018a6146101c95780638da5cb5b146101d15780638f91cd17146101f6578063903606c51461021657806394456fa414610229575f80fd5b80630e9e12621461014c5780633834efe1146101615780634a42c8f6146101745780634bfec3aa14610187578063559f24bc146101a3575b5f80fd5b61015f61015a3660046120ae565b610324565b005b61015f61016f3660046120dd565b6103fa565b61015f61018236600461211c565b610502565b61019060045481565b6040519081526020015b60405180910390f35b61015f6101b13660046121aa565b6105f4565b61015f6101c43660046121ca565b6106e1565b61015f610978565b6001546001600160a01b03165b6040516001600160a01b03909116815260200161019a565b6102096102043660046120dd565b61098b565b60405161019a9190612230565b61015f6102243660046122fd565b610afc565b600354610190565b6002546101de906001600160a01b031681565b6005546102519060ff1681565b604051901515815260200161019a565b61025161026f366004612325565b60066020525f908152604090205460ff1681565b61015f6102913660046121aa565b610b90565b61015f6102a43660046121ca565b610e20565b61015f6102b73660046120dd565b611098565b61015f6102ca36600461233e565b611185565b6101906102dd366004612373565b611237565b61019060035481565b61015f6102f9366004612325565b611260565b61015f61030c36600461239d565b61129a565b61019061031f3660046120dd565b61131a565b335f9081526006602052604090205460ff1615156001146103605760405162461bcd60e51b8152600401610357906123b8565b60405180910390fd5b610368611343565b600254600454600554610390926001600160a01b03169190879087908790879060ff1661136b565b6003546004546002546005546040517fd1e3ee1889517a916aeecc9d0b214ca142fce1f8562cd5e9071876b998ec7eea936103e3938a938a938a93926001600160a01b0316915f9160ff909116906123de565b60405180910390a26103f460015f55565b50505050565b335f9081526006602052604090205460ff16151560011461042d5760405162461bcd60e51b8152600401610357906123b8565b610435611343565b60015f82815260076020526040902054600160a01b900460ff166003811115610460576104606121fc565b1461047d5760405162461bcd60e51b81526004016103579061241c565b5f81815260076020908152604091829020805460ff60a01b1916600160a11b17815560048101546005820154600690920154845142815293840191909152828401919091526060820152905182917f8e8517d306c35510333dea682099e81a1454bbf42be03c51d19d593ad811bb70919081900360800190a26104ff60015f55565b50565b335f9081526006602052604090205460ff1615156001146105355760405162461bcd60e51b8152600401610357906123b8565b61053d611343565b61054c8a8a8a8a8a878761136b565b8260075f60035481526020019081526020015f20600b015f6101000a8154816001600160a01b0302191690836001600160a01b031602179055506003547fd1e3ee1889517a916aeecc9d0b214ca142fce1f8562cd5e9071876b998ec7eea8989898d8f89886040516105c497969594939291906123de565b60405180910390a283156105df576105df60035486866113ed565b6105e860015f55565b50505050505050505050565b6105fc611343565b805f0361063c5760405162461bcd60e51b815260206004820152600e60248201526d696e6a656374206e6f207a65726f60901b6044820152606401610357565b60015f83815260076020526040902054600160a01b900460ff166003811115610667576106676121fc565b146106845760405162461bcd60e51b81526004016103579061241c565b5f82815260076020526040902060010154156106c9575f8281526007602052604090206001015442106106c95760405162461bcd60e51b815260040161035790612453565b6106d48233836113ed565b6106dd60015f55565b5050565b6106e9611343565b60015f84815260076020526040902054600160a01b900460ff166003811115610714576107146121fc565b146107315760405162461bcd60e51b81526004016103579061241c565b5f838152600760205260409020600b01546001600160a01b031661078d5760405162461bcd60e51b81526020600482015260136024820152721b9bc819d95d081d1a58dad95d081b5bd9195b606a1b6044820152606401610357565b5f838152600760205260409020600b01546001600160a01b031633146107ec5760405162461bcd60e51b81526020600482015260146024820152731b9bdd08185b1b1bddc819d95d081d1a58dad95d60621b6044820152606401610357565b805f036108335760405162461bcd60e51b81526020600482015260156024820152747469636b65744e756d62657273206e6f207a65726f60581b6044820152606401610357565b5f8381526007602052604090206001015415610878575f8381526007602052604090206001015442106108785760405162461bcd60e51b815260040161035790612453565b5f8381526007602052604090206002015415610911575f83815260076020526040902060028101546005820154600490920154909183916108b9919061249e565b6108c3919061249e565b11156109115760405162461bcd60e51b815260206004820152601a60248201527f526564456e76656c6f7065206973206f766572207469636b65740000000000006044820152606401610357565b5f61091e8484845f61156a565b60408051828152602081018590529192506001600160a01b03851691339187917f044a018626111fd20a3d6ed65f4bf175632a5877b08c4aa033d87b2c7b6318b5910160405180910390a45061097360015f55565b505050565b6109806117ab565b6109895f6117d8565b565b610a02604080516101e081019091525f808252602082019081526020015f81526020015f81526020015f81526020015f81526020015f81526020015f81526020015f81526020015f81526020015f81526020015f81526020015f6001600160a01b031681526020015f81526020015f151581525090565b5f8281526007602090815260409182902082516101e0810190935280546001600160a01b03811684529091830190600160a01b900460ff166003811115610a4b57610a4b6121fc565b6003811115610a5c57610a5c6121fc565b815260018201546020820152600282015460408201526003820154606082015260048201546080820152600582015460a0820152600682015460c0820152600782015460e082015260088201546101008201526009820154610120820152600a820154610140820152600b8201546001600160a01b0316610160820152600c820154610180820152600d9091015460ff1615156101a09091015292915050565b335f9081526006602052604090205460ff161515600114610b2f5760405162461bcd60e51b8152600401610357906123b8565b600280546001600160a01b0319166001600160a01b038416908117909155600482905560408051918252602082018390527fdc907cb17a7da8e1dffad2b7205a6ca1111cbb38a0f1f4b2b60a31eb673ca4a291015b60405180910390a15050565b335f9081526006602052604090205460ff161515600114610bc35760405162461bcd60e51b8152600401610357906123b8565b610bcb611343565b60025f83815260076020526040902054600160a01b900460ff166003811115610bf657610bf66121fc565b14610c3b5760405162461bcd60e51b8152602060048201526015602482015274526564456e76656c6f7065206e6f7420636c6f736560581b6044820152606401610357565b5f82815260076020908152604091829020805460ff60a01b1916600360a01b179055905142815283917f66f6b4cd34444af165fb78bce3996496528b37af161c26f737b7341cc37063bb910160405180910390a25f8281526007602052604081206005810154600490910154610cb1919061249e565b9050805f03610cc957610cc383611829565b506106d4565b5f838152600760205260409020600301548290829081118015610cfb57505f8581526007602052604090206003015415155b15610d1357505f848152600760205260409020600301545b5f8581526007602052604081206004810154600690910154610d35919061249e565b5f878152600760205260408120600a015491925090610d559083906124b1565b90505f610d638585846118d4565b9050610d70888583611a33565b5f888152600760205260409020600d015460ff1615610e11575f5b5f8981526007602081905260409091200154811015610e0f575f898152600c60209081526040808320600b83528184208585528352818420546001600160a01b0316845290915290205415610e07575f898152600b60209081526040808320848452909152902054610e07908a906001600160a01b0316611bf6565b600101610d8b565b505b5050505050506106dd60015f55565b610e28611343565b60015f84815260076020526040902054600160a01b900460ff166003811115610e5357610e536121fc565b14610e705760405162461bcd60e51b81526004016103579061241c565b5f838152600760205260409020600b01546001600160a01b031615610ecd5760405162461bcd60e51b81526020600482015260136024820152721b9bc8189d5e481d1a58dad95d081b5bd9195b606a1b6044820152606401610357565b805f03610f145760405162461bcd60e51b81526020600482015260156024820152747469636b65744e756d62657273206e6f207a65726f60581b6044820152606401610357565b5f8381526007602052604090206001015415610f59575f838152600760205260409020600101544210610f595760405162461bcd60e51b815260040161035790612453565b5f8381526007602052604090206002015415610ff2575f8381526007602052604090206002810154600582015460049092015490918391610f9a919061249e565b610fa4919061249e565b1115610ff25760405162461bcd60e51b815260206004820152601a60248201527f526564456e76656c6f7065206973206f766572207469636b65740000000000006044820152606401610357565b5f838152600760205260408120600a015461100e9083906124b1565b5f85815260076020526040902054909150611034906001600160a01b0316333084611d08565b5f611042858585600161156a565b60408051828152602081018690529192506001600160a01b03861691339188917f2f21f7ec4c4f5661e7ee11613bb65b35b597763197b0d487352af168e7689653910160405180910390a4505061097360015f55565b6110a0611343565b60035f82815260076020526040902054600160a01b900460ff1660038111156110cb576110cb6121fc565b146111185760405162461bcd60e51b815260206004820152601960248201527f526564456e76656c6f7065206e6f7420636c61696d61626c65000000000000006044820152606401610357565b5f818152600760205260409020600d015460ff16156111725760405162461bcd60e51b8152602060048201526016602482015275526564456e76656c6f7065206175746f20636c61696d60501b6044820152606401610357565b61117c8133611bf6565b6104ff60015f55565b61118d6117ab565b6001600160a01b0382166111dc5760405162461bcd60e51b815260206004820152601660248201527543616e6e6f74206265207a65726f206164647265737360501b6044820152606401610357565b6001600160a01b0382165f81815260066020908152604091829020805460ff19168515159081179091558251938452908301527fedae46487653623e513ea3b3341c9e6b457a2ef687d0342d2507ccb63458b19f9101610b84565b5f828152600c602090815260408083206001600160a01b03851684529091529020545b92915050565b6112686117ab565b6001600160a01b03811661129157604051631e4fbdf760e01b81525f6004820152602401610357565b6104ff816117d8565b335f9081526006602052604090205460ff1615156001146112cd5760405162461bcd60e51b8152600401610357906123b8565b6005805460ff191682151590811790915560405160ff909116151581527f6fe9a4ab2e95e24b2be44989dc36a685149dfde9354d486a8da5cb4bbd01b0109060200160405180910390a150565b5f81815260076020526040812054600160a01b900460ff16600381111561125a5761125a6121fc565b60025f540361136557604051633ee5aeb560e01b815260040160405180910390fd5b60025f55565b60038054905f61137a836124c8565b9091555050600380545f90815260076020526040902080546001600160a01b03999099166001600160a81b031990991698909817600160a01b1788556001880195909555600287019390935592850155600a840192909255600c830155600d909101805460ff1916911515919091179055565b5f838152600760205260408120600a01546114099083906124b1565b5f8581526007602052604090205490915061142f906001600160a01b0316843084611d08565b6003545f908152600760205260408120600601805484929061145290849061249e565b90915550506003545f908152600e602090815260408083206001600160a01b038716845290915281205490036114e957600380545f908152600d602090815260408083206007808452828520600990810154865291845282852080546001600160a01b0319166001600160a01b038b16179055945484529390915281209091018054600192906114e390849061249e565b90915550505b6003545f908152600e602090815260408083206001600160a01b03871684529091528120805484929061151d90849061249e565b90915550506003546040518381526001600160a01b03851691907fa95519638524dcea0d5d0102c719d77dc3d8b1ae68d2d1e37c79be21bc7b113b9060200160405180910390a350505050565b5f848152600760205260408120600801548190156115bf575f86815260086020818152604080842060079092528320909101549091906115ac906001906124e0565b81526020019081526020015f205f015490505b604051806060016040528085836115d6919061249e565b81526001600160a01b03808816602080840191909152861580156040948501525f8b8152600880845285822060078552868320909101548252835284902085518155918501516001909201805495909401511515600160a01b026001600160a81b0319909516919092161792909217905561167d575f8681526007602052604090206004015461166790859061249e565b5f878152600760205260409020600401556116ab565b5f8681526007602052604090206005015461169990859061249e565b5f878152600760205260409020600501555b5f868152600a602090815260408083206001600160a01b0389168452909152812054900361172c575f868152600b60209081526040808320600780845282852081018054865291845291842080546001600160a01b0319166001600160a01b038b16179055898452915280546001929061172690849061249e565b90915550505b5f86815260076020526040812060080180546001929061174d90849061249e565b90915550505f868152600a602090815260408083206001600160a01b038916845290915290205461177f90859061249e565b5f878152600a602090815260408083206001600160a01b038a1684529091529020559050949350505050565b6001546001600160a01b031633146109895760405163118cdaa760e01b8152336004820152602401610357565b600180546001600160a01b038381166001600160a01b0319831681179093556040519116919082907f8be0079c531659141344cd1fd0a4f28419497f9722a3daafe3b4186f6b6457e0905f90a35050565b5f5b5f828152600760205260409020600901548110156106dd575f828152600e60209081526040808320600d83528184208585528352818420546001600160a01b0316845282528083205485845260079092528220600a015461188c91906124b1565b5f848152600d602090815260408083208684528252808320548784526007909252909120549192506118cb916001600160a01b03908116911683611d6f565b5060010161182b565b60605f8367ffffffffffffffff8111156118f0576118f06124f3565b604051908082528060200260200182016040528015611919578160200160208202803683370190505b509050845f5b61192a6001876124e0565b8110156119ff5761193b8282611da0565b91505f611948868461251b565b9050815b6001811015801561197f5750846119646001836124e0565b815181106119745761197461252e565b602002602001015182105b156119d757846119906001836124e0565b815181106119a0576119a061252e565b60200260200101518582815181106119ba576119ba61252e565b6020908102919091010152806119cf81612542565b91505061194c565b818582815181106119ea576119ea61252e565b6020908102919091010152505060010161191f565b508382611a0d6001886124e0565b81518110611a1d57611a1d61252e565b60209081029190910101525090505b9392505050565b5f83815260076020526040812060058101546004909101548291611a569161249e565b90505f5b84811015611bee575f83858381518110611a7657611a7661252e565b6020026020010151611a8891906124e0565b905081868414611b005783611ab6878581518110611aa857611aa861252e565b602002602001015185611da0565b611ac0919061251b565b90505b5f88815260096020908152604080832084845290915290205460ff1615611b005780611aee816124c8565b915050838103611afb57505f5b611ac3565b5f8881526009602090815260408083208484529091528120805460ff19166001179055611b2d8983611ded565b60018101545f8b815260076020908152604091829020600d0154825188815260ff90911615159181019190915292935084926001600160a01b03909216918c917f927546e38b674f5e5dff7edce9c7afdcf21a35ac03ba70fe8e341f61f2c73ded910160405180910390a45f898152600c6020908152604080832060018501546001600160a01b0316845290915281208054859290611bcd90849061249e565b90915550611bdd9050838761249e565b95505060019092019150611a5a9050565b505050505050565b5f828152600c602090815260408083206001600160a01b03851684529091528120549003611c515760405162461bcd60e51b81526020600482015260086024820152676e6f207072697a6560c01b6044820152606401610357565b5f828152600c602090815260408083206001600160a01b0380861685529083528184205486855260079093529220549091611c8e91168383611d6f565b5f838152600c602090815260408083206001600160a01b0386168085529083528184208490558684526007835292819020600d0154815185815260ff90911615159281019290925285917f268ef67ed0490cc273925a4865e6fbdb4dcf7e0802aad957aa682a78c7618bef910160405180910390a3505050565b6040516001600160a01b0384811660248301528381166044830152606482018390526103f49186918216906323b872dd906084015b604051602081830303815290604052915060e01b6020820180516001600160e01b038381831617835250505050611f27565b6040516001600160a01b0383811660248301526044820183905261097391859182169063a9059cbb90606401611d3d565b5f80611dae6101008461251b565b905083611dbb8583611f88565b60408051602081019390935282015260600160408051601f198184030181529190528051602090910120949350505050565b5f82815260086020818152604080842060079092528320909101548391908390611e19906001906124e0565b81526020019081526020015f205f015411611e685760405162461bcd60e51b815260206004820152600f60248201526e696e646578206f75742072616e676560881b6044820152606401610357565b5f838152600760205260408120600801548190611e87906001906124e0565b90505b5f6002611e97838561249e565b611ea19190612557565b5f878152600860209081526040808320848452909152902054909150851015611ecc57809150611ef9565b5f8681526008602090815260408083208484529091529020548510611ef957611ef681600161249e565b92505b818310611f2157505f85815260086020908152604080832093835292905220915061125a9050565b50611e8a565b5f611f3b6001600160a01b03841683611fac565b905080515f14158015611f5f575080806020019051810190611f5d919061256a565b155b1561097357604051635274afe760e01b81526001600160a01b0384166004820152602401610357565b5f611f9582610100612585565b63ffffffff92831684901b92169290921c17919050565b6060611a2c83835f845f80856001600160a01b03168486604051611fd091906125a9565b5f6040518083038185875af1925050503d805f811461200a576040519150601f19603f3d011682016040523d82523d5f602084013e61200f565b606091505b509150915061201f868383612029565b9695505050505050565b60608261203e5761203982612085565b611a2c565b815115801561205557506001600160a01b0384163b155b1561207e57604051639996b31560e01b81526001600160a01b0385166004820152602401610357565b5080611a2c565b8051156120955780518082602001fd5b604051630a12f52160e11b815260040160405180910390fd5b5f805f80608085870312156120c1575f80fd5b5050823594602084013594506040840135936060013592509050565b5f602082840312156120ed575f80fd5b5035919050565b80356001600160a01b038116811461210a575f80fd5b919050565b80151581146104ff575f80fd5b5f805f805f805f805f806101408b8d031215612136575f80fd5b61213f8b6120f4565b995060208b0135985060408b0135975060608b0135965060808b0135955061216960a08c016120f4565b945060c08b0135935061217e60e08c016120f4565b92506101008b013591506101208b01356121978161210f565b809150509295989b9194979a5092959850565b5f80604083850312156121bb575f80fd5b50508035926020909101359150565b5f805f606084860312156121dc575f80fd5b833592506121ec602085016120f4565b9150604084013590509250925092565b634e487b7160e01b5f52602160045260245ffd5b6004811061222c57634e487b7160e01b5f52602160045260245ffd5b9052565b81516001600160a01b031681526101e0810160208301516122546020840182612210565b5060408301516040830152606083015160608301526080830151608083015260a083015160a083015260c083015160c083015260e083015160e0830152610100808401518184015250610120808401518184015250610140808401518184015250610160808401518184015250610180808401516122dc828501826001600160a01b03169052565b50506101a083810151908301526101c0928301511515929091019190915290565b5f806040838503121561230e575f80fd5b612317836120f4565b946020939093013593505050565b5f60208284031215612335575f80fd5b611a2c826120f4565b5f806040838503121561234f575f80fd5b612358836120f4565b915060208301356123688161210f565b809150509250929050565b5f8060408385031215612384575f80fd5b82359150612394602084016120f4565b90509250929050565b5f602082840312156123ad575f80fd5b8135611a2c8161210f565b6020808252600c908201526b2737ba1037b832b930ba37b960a11b604082015260600190565b9687526020870195909552604086019390935260608501919091526001600160a01b0390811660808501521660a0830152151560c082015260e00190565b60208082526017908201527f526564456e76656c6f7065206973206e6f74206f70656e000000000000000000604082015260600190565b60208082526018908201527f526564456e76656c6f7065206973206f7665722074696d650000000000000000604082015260600190565b634e487b7160e01b5f52601160045260245ffd5b8082018082111561125a5761125a61248a565b808202811582820484141761125a5761125a61248a565b5f600182016124d9576124d961248a565b5060010190565b8181038181111561125a5761125a61248a565b634e487b7160e01b5f52604160045260245ffd5b634e487b7160e01b5f52601260045260245ffd5b5f8261252957612529612507565b500690565b634e487b7160e01b5f52603260045260245ffd5b5f816125505761255061248a565b505f190190565b5f8261256557612565612507565b500490565b5f6020828403121561257a575f80fd5b8151611a2c8161210f565b63ffffffff8281168282160390808211156125a2576125a261248a565b5092915050565b5f82518060208501845e5f92019182525091905056fea264697066735822122080a87c28513ccc9df02b93fe5ea97ff3dd4fbe1a2835dfa747d4258bdf24789a64736f6c63430008190033",
			"opcodes": "PUSH1 0x80 PUSH1 0x40 MSTORE CALLVALUE DUP1 ISZERO PUSH2 0xF JUMPI PUSH0 DUP1 REVERT JUMPDEST POP PUSH1 0x40 MLOAD PUSH2 0x281F CODESIZE SUB DUP1 PUSH2 0x281F DUP4 CODECOPY DUP2 ADD PUSH1 0x40 DUP2 SWAP1 MSTORE PUSH2 0x2E SWAP2 PUSH2 0x1E4 JUMP JUMPDEST PUSH1 0x1 PUSH0 SSTORE CALLER DUP1 PUSH2 0x57 JUMPI PUSH1 0x40 MLOAD PUSH4 0x1E4FBDF7 PUSH1 0xE0 SHL DUP2 MSTORE PUSH0 PUSH1 0x4 DUP3 ADD MSTORE PUSH1 0x24 ADD PUSH1 0x40 MLOAD DUP1 SWAP2 SUB SWAP1 REVERT JUMPDEST PUSH2 0x60 DUP2 PUSH2 0x178 JUMP JUMPDEST POP PUSH1 0x1 PUSH1 0x1 PUSH1 0xA0 SHL SUB DUP4 DUP2 AND PUSH0 DUP2 DUP2 MSTORE PUSH1 0x6 PUSH1 0x20 SWAP1 DUP2 MSTORE PUSH1 0x40 SWAP2 DUP3 SWAP1 KECCAK256 DUP1 SLOAD PUSH1 0x1 PUSH1 0xFF NOT SWAP2 DUP3 AND DUP2 OR SWAP1 SWAP3 SSTORE PUSH1 0x5 DUP1 SLOAD SWAP1 SWAP2 AND DUP3 OR SWAP1 SSTORE PUSH1 0x2 DUP1 SLOAD PUSH1 0x1 PUSH1 0x1 PUSH1 0xA0 SHL SUB NOT AND SWAP6 DUP9 AND SWAP6 SWAP1 SWAP6 OR SWAP1 SWAP5 SSTORE PUSH1 0x4 DUP6 SWAP1 SSTORE DUP2 MLOAD SWAP3 DUP4 MSTORE DUP3 ADD SWAP3 SWAP1 SWAP3 MSTORE PUSH32 0xEDAE46487653623E513EA3B3341C9E6B457A2EF687D0342D2507CCB63458B19F SWAP2 ADD PUSH1 0x40 MLOAD DUP1 SWAP2 SUB SWAP1 LOG1 PUSH1 0x5 SLOAD PUSH1 0x40 MLOAD PUSH1 0xFF SWAP1 SWAP2 AND ISZERO ISZERO DUP2 MSTORE PUSH32 0x6FE9A4AB2E95E24B2BE44989DC36A685149DFDE9354D486A8DA5CB4BBD01B010 SWAP1 PUSH1 0x20 ADD PUSH1 0x40 MLOAD DUP1 SWAP2 SUB SWAP1 LOG1 PUSH1 0x2 SLOAD PUSH1 0x4 SLOAD PUSH1 0x40 DUP1 MLOAD PUSH1 0x1 PUSH1 0x1 PUSH1 0xA0 SHL SUB SWAP1 SWAP4 AND DUP4 MSTORE PUSH1 0x20 DUP4 ADD SWAP2 SWAP1 SWAP2 MSTORE PUSH32 0xDC907CB17A7DA8E1DFFAD2B7205A6CA1111CBB38A0F1F4B2B60A31EB673CA4A2 SWAP2 ADD PUSH1 0x40 MLOAD DUP1 SWAP2 SUB SWAP1 LOG1 POP POP POP PUSH2 0x21D JUMP JUMPDEST PUSH1 0x1 DUP1 SLOAD PUSH1 0x1 PUSH1 0x1 PUSH1 0xA0 SHL SUB DUP4 DUP2 AND PUSH1 0x1 PUSH1 0x1 PUSH1 0xA0 SHL SUB NOT DUP4 AND DUP2 OR SWAP1 SWAP4 SSTORE PUSH1 0x40 MLOAD SWAP2 AND SWAP2 SWAP1 DUP3 SWAP1 PUSH32 0x8BE0079C531659141344CD1FD0A4F28419497F9722A3DAAFE3B4186F6B6457E0 SWAP1 PUSH0 SWAP1 LOG3 POP POP JUMP JUMPDEST DUP1 MLOAD PUSH1 0x1 PUSH1 0x1 PUSH1 0xA0 SHL SUB DUP2 AND DUP2 EQ PUSH2 0x1DF JUMPI PUSH0 DUP1 REVERT JUMPDEST SWAP2 SWAP1 POP JUMP JUMPDEST PUSH0 DUP1 PUSH0 PUSH1 0x60 DUP5 DUP7 SUB SLT ISZERO PUSH2 0x1F6 JUMPI PUSH0 DUP1 REVERT JUMPDEST PUSH2 0x1FF DUP5 PUSH2 0x1C9 JUMP JUMPDEST SWAP3 POP PUSH2 0x20D PUSH1 0x20 DUP6 ADD PUSH2 0x1C9 JUMP JUMPDEST SWAP2 POP PUSH1 0x40 DUP5 ADD MLOAD SWAP1 POP SWAP3 POP SWAP3 POP SWAP3 JUMP JUMPDEST PUSH2 0x25F5 DUP1 PUSH2 0x22A PUSH0 CODECOPY PUSH0 RETURN INVALID PUSH1 0x80 PUSH1 0x40 MSTORE CALLVALUE DUP1 ISZERO PUSH2 0xF JUMPI PUSH0 DUP1 REVERT JUMPDEST POP PUSH1 0x4 CALLDATASIZE LT PUSH2 0x148 JUMPI PUSH0 CALLDATALOAD PUSH1 0xE0 SHR DUP1 PUSH4 0x959ACDAF GT PUSH2 0xBF JUMPI DUP1 PUSH4 0xD9828174 GT PUSH2 0x79 JUMPI DUP1 PUSH4 0xD9828174 EQ PUSH2 0x2BC JUMPI DUP1 PUSH4 0xDC912A81 EQ PUSH2 0x2CF JUMPI DUP1 PUSH4 0xE00DD161 EQ PUSH2 0x2E2 JUMPI DUP1 PUSH4 0xF2FDE38B EQ PUSH2 0x2EB JUMPI DUP1 PUSH4 0xF41188ED EQ PUSH2 0x2FE JUMPI DUP1 PUSH4 0xFE5C5976 EQ PUSH2 0x311 JUMPI PUSH0 DUP1 REVERT JUMPDEST DUP1 PUSH4 0x959ACDAF EQ PUSH2 0x231 JUMPI DUP1 PUSH4 0xA210D5E0 EQ PUSH2 0x244 JUMPI DUP1 PUSH4 0xBC6BCE91 EQ PUSH2 0x261 JUMPI DUP1 PUSH4 0xBCE3468D EQ PUSH2 0x283 JUMPI DUP1 PUSH4 0xC5E7BB33 EQ PUSH2 0x296 JUMPI DUP1 PUSH4 0xD7098154 EQ PUSH2 0x2A9 JUMPI PUSH0 DUP1 REVERT JUMPDEST DUP1 PUSH4 0x5C42E0C5 GT PUSH2 0x110 JUMPI DUP1 PUSH4 0x5C42E0C5 EQ PUSH2 0x1B6 JUMPI DUP1 PUSH4 0x715018A6 EQ PUSH2 0x1C9 JUMPI DUP1 PUSH4 0x8DA5CB5B EQ PUSH2 0x1D1 JUMPI DUP1 PUSH4 0x8F91CD17 EQ PUSH2 0x1F6 JUMPI DUP1 PUSH4 0x903606C5 EQ PUSH2 0x216 JUMPI DUP1 PUSH4 0x94456FA4 EQ PUSH2 0x229 JUMPI PUSH0 DUP1 REVERT JUMPDEST DUP1 PUSH4 0xE9E1262 EQ PUSH2 0x14C JUMPI DUP1 PUSH4 0x3834EFE1 EQ PUSH2 0x161 JUMPI DUP1 PUSH4 0x4A42C8F6 EQ PUSH2 0x174 JUMPI DUP1 PUSH4 0x4BFEC3AA EQ PUSH2 0x187 JUMPI DUP1 PUSH4 0x559F24BC EQ PUSH2 0x1A3 JUMPI JUMPDEST PUSH0 DUP1 REVERT JUMPDEST PUSH2 0x15F PUSH2 0x15A CALLDATASIZE PUSH1 0x4 PUSH2 0x20AE JUMP JUMPDEST PUSH2 0x324 JUMP JUMPDEST STOP JUMPDEST PUSH2 0x15F PUSH2 0x16F CALLDATASIZE PUSH1 0x4 PUSH2 0x20DD JUMP JUMPDEST PUSH2 0x3FA JUMP JUMPDEST PUSH2 0x15F PUSH2 0x182 CALLDATASIZE PUSH1 0x4 PUSH2 0x211C JUMP JUMPDEST PUSH2 0x502 JUMP JUMPDEST PUSH2 0x190 PUSH1 0x4 SLOAD DUP2 JUMP JUMPDEST PUSH1 0x40 MLOAD SWAP1 DUP2 MSTORE PUSH1 0x20 ADD JUMPDEST PUSH1 0x40 MLOAD DUP1 SWAP2 SUB SWAP1 RETURN JUMPDEST PUSH2 0x15F PUSH2 0x1B1 CALLDATASIZE PUSH1 0x4 PUSH2 0x21AA JUMP JUMPDEST PUSH2 0x5F4 JUMP JUMPDEST PUSH2 0x15F PUSH2 0x1C4 CALLDATASIZE PUSH1 0x4 PUSH2 0x21CA JUMP JUMPDEST PUSH2 0x6E1 JUMP JUMPDEST PUSH2 0x15F PUSH2 0x978 JUMP JUMPDEST PUSH1 0x1 SLOAD PUSH1 0x1 PUSH1 0x1 PUSH1 0xA0 SHL SUB AND JUMPDEST PUSH1 0x40 MLOAD PUSH1 0x1 PUSH1 0x1 PUSH1 0xA0 SHL SUB SWAP1 SWAP2 AND DUP2 MSTORE PUSH1 0x20 ADD PUSH2 0x19A JUMP JUMPDEST PUSH2 0x209 PUSH2 0x204 CALLDATASIZE PUSH1 0x4 PUSH2 0x20DD JUMP JUMPDEST PUSH2 0x98B JUMP JUMPDEST PUSH1 0x40 MLOAD PUSH2 0x19A SWAP2 SWAP1 PUSH2 0x2230 JUMP JUMPDEST PUSH2 0x15F PUSH2 0x224 CALLDATASIZE PUSH1 0x4 PUSH2 0x22FD JUMP JUMPDEST PUSH2 0xAFC JUMP JUMPDEST PUSH1 0x3 SLOAD PUSH2 0x190 JUMP JUMPDEST PUSH1 0x2 SLOAD PUSH2 0x1DE SWAP1 PUSH1 0x1 PUSH1 0x1 PUSH1 0xA0 SHL SUB AND DUP2 JUMP JUMPDEST PUSH1 0x5 SLOAD PUSH2 0x251 SWAP1 PUSH1 0xFF AND DUP2 JUMP JUMPDEST PUSH1 0x40 MLOAD SWAP1 ISZERO ISZERO DUP2 MSTORE PUSH1 0x20 ADD PUSH2 0x19A JUMP JUMPDEST PUSH2 0x251 PUSH2 0x26F CALLDATASIZE PUSH1 0x4 PUSH2 0x2325 JUMP JUMPDEST PUSH1 0x6 PUSH1 0x20 MSTORE PUSH0 SWAP1 DUP2 MSTORE PUSH1 0x40 SWAP1 KECCAK256 SLOAD PUSH1 0xFF AND DUP2 JUMP JUMPDEST PUSH2 0x15F PUSH2 0x291 CALLDATASIZE PUSH1 0x4 PUSH2 0x21AA JUMP JUMPDEST PUSH2 0xB90 JUMP JUMPDEST PUSH2 0x15F PUSH2 0x2A4 CALLDATASIZE PUSH1 0x4 PUSH2 0x21CA JUMP JUMPDEST PUSH2 0xE20 JUMP JUMPDEST PUSH2 0x15F PUSH2 0x2B7 CALLDATASIZE PUSH1 0x4 PUSH2 0x20DD JUMP JUMPDEST PUSH2 0x1098 JUMP JUMPDEST PUSH2 0x15F PUSH2 0x2CA CALLDATASIZE PUSH1 0x4 PUSH2 0x233E JUMP JUMPDEST PUSH2 0x1185 JUMP JUMPDEST PUSH2 0x190 PUSH2 0x2DD CALLDATASIZE PUSH1 0x4 PUSH2 0x2373 JUMP JUMPDEST PUSH2 0x1237 JUMP JUMPDEST PUSH2 0x190 PUSH1 0x3 SLOAD DUP2 JUMP JUMPDEST PUSH2 0x15F PUSH2 0x2F9 CALLDATASIZE PUSH1 0x4 PUSH2 0x2325 JUMP JUMPDEST PUSH2 0x1260 JUMP JUMPDEST PUSH2 0x15F PUSH2 0x30C CALLDATASIZE PUSH1 0x4 PUSH2 0x239D JUMP JUMPDEST PUSH2 0x129A JUMP JUMPDEST PUSH2 0x190 PUSH2 0x31F CALLDATASIZE PUSH1 0x4 PUSH2 0x20DD JUMP JUMPDEST PUSH2 0x131A JUMP JUMPDEST CALLER PUSH0 SWAP1 DUP2 MSTORE PUSH1 0x6 PUSH1 0x20 MSTORE PUSH1 0x40 SWAP1 KECCAK256 SLOAD PUSH1 0xFF AND ISZERO ISZERO PUSH1 0x1 EQ PUSH2 0x360 JUMPI PUSH1 0x40 MLOAD PUSH3 0x461BCD PUSH1 0xE5 SHL DUP2 MSTORE PUSH1 0x4 ADD PUSH2 0x357 SWAP1 PUSH2 0x23B8 JUMP JUMPDEST PUSH1 0x40 MLOAD DUP1 SWAP2 SUB SWAP1 REVERT JUMPDEST PUSH2 0x368 PUSH2 0x1343 JUMP JUMPDEST PUSH1 0x2 SLOAD PUSH1 0x4 SLOAD PUSH1 0x5 SLOAD PUSH2 0x390 SWAP3 PUSH1 0x1 PUSH1 0x1 PUSH1 0xA0 SHL SUB AND SWAP2 SWAP1 DUP8 SWAP1 DUP8 SWAP1 DUP8 SWAP1 DUP8 SWAP1 PUSH1 0xFF AND PUSH2 0x136B JUMP JUMPDEST PUSH1 0x3 SLOAD PUSH1 0x4 SLOAD PUSH1 0x2 SLOAD PUSH1 0x5 SLOAD PUSH1 0x40 MLOAD PUSH32 0xD1E3EE1889517A916AEECC9D0B214CA142FCE1F8562CD5E9071876B998EC7EEA SWAP4 PUSH2 0x3E3 SWAP4 DUP11 SWAP4 DUP11 SWAP4 DUP11 SWAP4 SWAP3 PUSH1 0x1 PUSH1 0x1 PUSH1 0xA0 SHL SUB AND SWAP2 PUSH0 SWAP2 PUSH1 0xFF SWAP1 SWAP2 AND SWAP1 PUSH2 0x23DE JUMP JUMPDEST PUSH1 0x40 MLOAD DUP1 SWAP2 SUB SWAP1 LOG2 PUSH2 0x3F4 PUSH1 0x1 PUSH0 SSTORE JUMP JUMPDEST POP POP POP POP JUMP JUMPDEST CALLER PUSH0 SWAP1 DUP2 MSTORE PUSH1 0x6 PUSH1 0x20 MSTORE PUSH1 0x40 SWAP1 KECCAK256 SLOAD PUSH1 0xFF AND ISZERO ISZERO PUSH1 0x1 EQ PUSH2 0x42D JUMPI PUSH1 0x40 MLOAD PUSH3 0x461BCD PUSH1 0xE5 SHL DUP2 MSTORE PUSH1 0x4 ADD PUSH2 0x357 SWAP1 PUSH2 0x23B8 JUMP JUMPDEST PUSH2 0x435 PUSH2 0x1343 JUMP JUMPDEST PUSH1 0x1 PUSH0 DUP3 DUP2 MSTORE PUSH1 0x7 PUSH1 0x20 MSTORE PUSH1 0x40 SWAP1 KECCAK256 SLOAD PUSH1 0x1 PUSH1 0xA0 SHL SWAP1 DIV PUSH1 0xFF AND PUSH1 0x3 DUP2 GT ISZERO PUSH2 0x460 JUMPI PUSH2 0x460 PUSH2 0x21FC JUMP JUMPDEST EQ PUSH2 0x47D JUMPI PUSH1 0x40 MLOAD PUSH3 0x461BCD PUSH1 0xE5 SHL DUP2 MSTORE PUSH1 0x4 ADD PUSH2 0x357 SWAP1 PUSH2 0x241C JUMP JUMPDEST PUSH0 DUP2 DUP2 MSTORE PUSH1 0x7 PUSH1 0x20 SWAP1 DUP2 MSTORE PUSH1 0x40 SWAP2 DUP3 SWAP1 KECCAK256 DUP1 SLOAD PUSH1 0xFF PUSH1 0xA0 SHL NOT AND PUSH1 0x1 PUSH1 0xA1 SHL OR DUP2 SSTORE PUSH1 0x4 DUP2 ADD SLOAD PUSH1 0x5 DUP3 ADD SLOAD PUSH1 0x6 SWAP1 SWAP3 ADD SLOAD DUP5 MLOAD TIMESTAMP DUP2 MSTORE SWAP4 DUP5 ADD SWAP2 SWAP1 SWAP2 MSTORE DUP3 DUP5 ADD SWAP2 SWAP1 SWAP2 MSTORE PUSH1 0x60 DUP3 ADD MSTORE SWAP1 MLOAD DUP3 SWAP2 PUSH32 0x8E8517D306C35510333DEA682099E81A1454BBF42BE03C51D19D593AD811BB70 SWAP2 SWAP1 DUP2 SWAP1 SUB PUSH1 0x80 ADD SWAP1 LOG2 PUSH2 0x4FF PUSH1 0x1 PUSH0 SSTORE JUMP JUMPDEST POP JUMP JUMPDEST CALLER PUSH0 SWAP1 DUP2 MSTORE PUSH1 0x6 PUSH1 0x20 MSTORE PUSH1 0x40 SWAP1 KECCAK256 SLOAD PUSH1 0xFF AND ISZERO ISZERO PUSH1 0x1 EQ PUSH2 0x535 JUMPI PUSH1 0x40 MLOAD PUSH3 0x461BCD PUSH1 0xE5 SHL DUP2 MSTORE PUSH1 0x4 ADD PUSH2 0x357 SWAP1 PUSH2 0x23B8 JUMP JUMPDEST PUSH2 0x53D PUSH2 0x1343 JUMP JUMPDEST PUSH2 0x54C DUP11 DUP11 DUP11 DUP11 DUP11 DUP8 DUP8 PUSH2 0x136B JUMP JUMPDEST DUP3 PUSH1 0x7 PUSH0 PUSH1 0x3 SLOAD DUP2 MSTORE PUSH1 0x20 ADD SWAP1 DUP2 MSTORE PUSH1 0x20 ADD PUSH0 KECCAK256 PUSH1 0xB ADD PUSH0 PUSH2 0x100 EXP DUP2 SLOAD DUP2 PUSH1 0x1 PUSH1 0x1 PUSH1 0xA0 SHL SUB MUL NOT AND SWAP1 DUP4 PUSH1 0x1 PUSH1 0x1 PUSH1 0xA0 SHL SUB AND MUL OR SWAP1 SSTORE POP PUSH1 0x3 SLOAD PUSH32 0xD1E3EE1889517A916AEECC9D0B214CA142FCE1F8562CD5E9071876B998EC7EEA DUP10 DUP10 DUP10 DUP14 DUP16 DUP10 DUP9 PUSH1 0x40 MLOAD PUSH2 0x5C4 SWAP8 SWAP7 SWAP6 SWAP5 SWAP4 SWAP3 SWAP2 SWAP1 PUSH2 0x23DE JUMP JUMPDEST PUSH1 0x40 MLOAD DUP1 SWAP2 SUB SWAP1 LOG2 DUP4 ISZERO PUSH2 0x5DF JUMPI PUSH2 0x5DF PUSH1 0x3 SLOAD DUP7 DUP7 PUSH2 0x13ED JUMP JUMPDEST PUSH2 0x5E8 PUSH1 0x1 PUSH0 SSTORE JUMP JUMPDEST POP POP POP POP POP POP POP POP POP POP JUMP JUMPDEST PUSH2 0x5FC PUSH2 0x1343 JUMP JUMPDEST DUP1 PUSH0 SUB PUSH2 0x63C JUMPI PUSH1 0x40 MLOAD PUSH3 0x461BCD PUSH1 0xE5 SHL DUP2 MSTORE PUSH1 0x20 PUSH1 0x4 DUP3 ADD MSTORE PUSH1 0xE PUSH1 0x24 DUP3 ADD MSTORE PUSH14 0x696E6A656374206E6F207A65726F PUSH1 0x90 SHL PUSH1 0x44 DUP3 ADD MSTORE PUSH1 0x64 ADD PUSH2 0x357 JUMP JUMPDEST PUSH1 0x1 PUSH0 DUP4 DUP2 MSTORE PUSH1 0x7 PUSH1 0x20 MSTORE PUSH1 0x40 SWAP1 KECCAK256 SLOAD PUSH1 0x1 PUSH1 0xA0 SHL SWAP1 DIV PUSH1 0xFF AND PUSH1 0x3 DUP2 GT ISZERO PUSH2 0x667 JUMPI PUSH2 0x667 PUSH2 0x21FC JUMP JUMPDEST EQ PUSH2 0x684 JUMPI PUSH1 0x40 MLOAD PUSH3 0x461BCD PUSH1 0xE5 SHL DUP2 MSTORE PUSH1 0x4 ADD PUSH2 0x357 SWAP1 PUSH2 0x241C JUMP JUMPDEST PUSH0 DUP3 DUP2 MSTORE PUSH1 0x7 PUSH1 0x20 MSTORE PUSH1 0x40 SWAP1 KECCAK256 PUSH1 0x1 ADD SLOAD ISZERO PUSH2 0x6C9 JUMPI PUSH0 DUP3 DUP2 MSTORE PUSH1 0x7 PUSH1 0x20 MSTORE PUSH1 0x40 SWAP1 KECCAK256 PUSH1 0x1 ADD SLOAD TIMESTAMP LT PUSH2 0x6C9 JUMPI PUSH1 0x40 MLOAD PUSH3 0x461BCD PUSH1 0xE5 SHL DUP2 MSTORE PUSH1 0x4 ADD PUSH2 0x357 SWAP1 PUSH2 0x2453 JUMP JUMPDEST PUSH2 0x6D4 DUP3 CALLER DUP4 PUSH2 0x13ED JUMP JUMPDEST PUSH2 0x6DD PUSH1 0x1 PUSH0 SSTORE JUMP JUMPDEST POP POP JUMP JUMPDEST PUSH2 0x6E9 PUSH2 0x1343 JUMP JUMPDEST PUSH1 0x1 PUSH0 DUP5 DUP2 MSTORE PUSH1 0x7 PUSH1 0x20 MSTORE PUSH1 0x40 SWAP1 KECCAK256 SLOAD PUSH1 0x1 PUSH1 0xA0 SHL SWAP1 DIV PUSH1 0xFF AND PUSH1 0x3 DUP2 GT ISZERO PUSH2 0x714 JUMPI PUSH2 0x714 PUSH2 0x21FC JUMP JUMPDEST EQ PUSH2 0x731 JUMPI PUSH1 0x40 MLOAD PUSH3 0x461BCD PUSH1 0xE5 SHL DUP2 MSTORE PUSH1 0x4 ADD PUSH2 0x357 SWAP1 PUSH2 0x241C JUMP JUMPDEST PUSH0 DUP4 DUP2 MSTORE PUSH1 0x7 PUSH1 0x20 MSTORE PUSH1 0x40 SWAP1 KECCAK256 PUSH1 0xB ADD SLOAD PUSH1 0x1 PUSH1 0x1 PUSH1 0xA0 SHL SUB AND PUSH2 0x78D JUMPI PUSH1 0x40 MLOAD PUSH3 0x461BCD PUSH1 0xE5 SHL DUP2 MSTORE PUSH1 0x20 PUSH1 0x4 DUP3 ADD MSTORE PUSH1 0x13 PUSH1 0x24 DUP3 ADD MSTORE PUSH19 0x1B9BC819D95D081D1A58DAD95D081B5BD9195B PUSH1 0x6A SHL PUSH1 0x44 DUP3 ADD MSTORE PUSH1 0x64 ADD PUSH2 0x357 JUMP JUMPDEST PUSH0 DUP4 DUP2 MSTORE PUSH1 0x7 PUSH1 0x20 MSTORE PUSH1 0x40 SWAP1 KECCAK256 PUSH1 0xB ADD SLOAD PUSH1 0x1 PUSH1 0x1 PUSH1 0xA0 SHL SUB AND CALLER EQ PUSH2 0x7EC JUMPI PUSH1 0x40 MLOAD PUSH3 0x461BCD PUSH1 0xE5 SHL DUP2 MSTORE PUSH1 0x20 PUSH1 0x4 DUP3 ADD MSTORE PUSH1 0x14 PUSH1 0x24 DUP3 ADD MSTORE PUSH20 0x1B9BDD08185B1B1BDDC819D95D081D1A58DAD95D PUSH1 0x62 SHL PUSH1 0x44 DUP3 ADD MSTORE PUSH1 0x64 ADD PUSH2 0x357 JUMP JUMPDEST DUP1 PUSH0 SUB PUSH2 0x833 JUMPI PUSH1 0x40 MLOAD PUSH3 0x461BCD PUSH1 0xE5 SHL DUP2 MSTORE PUSH1 0x20 PUSH1 0x4 DUP3 ADD MSTORE PUSH1 0x15 PUSH1 0x24 DUP3 ADD MSTORE PUSH21 0x7469636B65744E756D62657273206E6F207A65726F PUSH1 0x58 SHL PUSH1 0x44 DUP3 ADD MSTORE PUSH1 0x64 ADD PUSH2 0x357 JUMP JUMPDEST PUSH0 DUP4 DUP2 MSTORE PUSH1 0x7 PUSH1 0x20 MSTORE PUSH1 0x40 SWAP1 KECCAK256 PUSH1 0x1 ADD SLOAD ISZERO PUSH2 0x878 JUMPI PUSH0 DUP4 DUP2 MSTORE PUSH1 0x7 PUSH1 0x20 MSTORE PUSH1 0x40 SWAP1 KECCAK256 PUSH1 0x1 ADD SLOAD TIMESTAMP LT PUSH2 0x878 JUMPI PUSH1 0x40 MLOAD PUSH3 0x461BCD PUSH1 0xE5 SHL DUP2 MSTORE PUSH1 0x4 ADD PUSH2 0x357 SWAP1 PUSH2 0x2453 JUMP JUMPDEST PUSH0 DUP4 DUP2 MSTORE PUSH1 0x7 PUSH1 0x20 MSTORE PUSH1 0x40 SWAP1 KECCAK256 PUSH1 0x2 ADD SLOAD ISZERO PUSH2 0x911 JUMPI PUSH0 DUP4 DUP2 MSTORE PUSH1 0x7 PUSH1 0x20 MSTORE PUSH1 0x40 SWAP1 KECCAK256 PUSH1 0x2 DUP2 ADD SLOAD PUSH1 0x5 DUP3 ADD SLOAD PUSH1 0x4 SWAP1 SWAP3 ADD SLOAD SWAP1 SWAP2 DUP4 SWAP2 PUSH2 0x8B9 SWAP2 SWAP1 PUSH2 0x249E JUMP JUMPDEST PUSH2 0x8C3 SWAP2 SWAP1 PUSH2 0x249E JUMP JUMPDEST GT ISZERO PUSH2 0x911 JUMPI PUSH1 0x40 MLOAD PUSH3 0x461BCD PUSH1 0xE5 SHL DUP2 MSTORE PUSH1 0x20 PUSH1 0x4 DUP3 ADD MSTORE PUSH1 0x1A PUSH1 0x24 DUP3 ADD MSTORE PUSH32 0x526564456E76656C6F7065206973206F766572207469636B6574000000000000 PUSH1 0x44 DUP3 ADD MSTORE PUSH1 0x64 ADD PUSH2 0x357 JUMP JUMPDEST PUSH0 PUSH2 0x91E DUP5 DUP5 DUP5 PUSH0 PUSH2 0x156A JUMP JUMPDEST PUSH1 0x40 DUP1 MLOAD DUP3 DUP2 MSTORE PUSH1 0x20 DUP2 ADD DUP6 SWAP1 MSTORE SWAP2 SWAP3 POP PUSH1 0x1 PUSH1 0x1 PUSH1 0xA0 SHL SUB DUP6 AND SWAP2 CALLER SWAP2 DUP8 SWAP2 PUSH32 0x44A018626111FD20A3D6ED65F4BF175632A5877B08C4AA033D87B2C7B6318B5 SWAP2 ADD PUSH1 0x40 MLOAD DUP1 SWAP2 SUB SWAP1 LOG4 POP PUSH2 0x973 PUSH1 0x1 PUSH0 SSTORE JUMP JUMPDEST POP POP POP JUMP JUMPDEST PUSH2 0x980 PUSH2 0x17AB JUMP JUMPDEST PUSH2 0x989 PUSH0 PUSH2 0x17D8 JUMP JUMPDEST JUMP JUMPDEST PUSH2 0xA02 PUSH1 0x40 DUP1 MLOAD PUSH2 0x1E0 DUP2 ADD SWAP1 SWAP2 MSTORE PUSH0 DUP1 DUP3 MSTORE PUSH1 0x20 DUP3 ADD SWAP1 DUP2 MSTORE PUSH1 0x20 ADD PUSH0 DUP2 MSTORE PUSH1 0x20 ADD PUSH0 DUP2 MSTORE PUSH1 0x20 ADD PUSH0 DUP2 MSTORE PUSH1 0x20 ADD PUSH0 DUP2 MSTORE PUSH1 0x20 ADD PUSH0 DUP2 MSTORE PUSH1 0x20 ADD PUSH0 DUP2 MSTORE PUSH1 0x20 ADD PUSH0 DUP2 MSTORE PUSH1 0x20 ADD PUSH0 DUP2 MSTORE PUSH1 0x20 ADD PUSH0 DUP2 MSTORE PUSH1 0x20 ADD PUSH0 DUP2 MSTORE PUSH1 0x20 ADD PUSH0 PUSH1 0x1 PUSH1 0x1 PUSH1 0xA0 SHL SUB AND DUP2 MSTORE PUSH1 0x20 ADD PUSH0 DUP2 MSTORE PUSH1 0x20 ADD PUSH0 ISZERO ISZERO DUP2 MSTORE POP SWAP1 JUMP JUMPDEST PUSH0 DUP3 DUP2 MSTORE PUSH1 0x7 PUSH1 0x20 SWAP1 DUP2 MSTORE PUSH1 0x40 SWAP2 DUP3 SWAP1 KECCAK256 DUP3 MLOAD PUSH2 0x1E0 DUP2 ADD SWAP1 SWAP4 MSTORE DUP1 SLOAD PUSH1 0x1 PUSH1 0x1 PUSH1 0xA0 SHL SUB DUP2 AND DUP5 MSTORE SWAP1 SWAP2 DUP4 ADD SWAP1 PUSH1 0x1 PUSH1 0xA0 SHL SWAP1 DIV PUSH1 0xFF AND PUSH1 0x3 DUP2 GT ISZERO PUSH2 0xA4B JUMPI PUSH2 0xA4B PUSH2 0x21FC JUMP JUMPDEST PUSH1 0x3 DUP2 GT ISZERO PUSH2 0xA5C JUMPI PUSH2 0xA5C PUSH2 0x21FC JUMP JUMPDEST DUP2 MSTORE PUSH1 0x1 DUP3 ADD SLOAD PUSH1 0x20 DUP3 ADD MSTORE PUSH1 0x2 DUP3 ADD SLOAD PUSH1 0x40 DUP3 ADD MSTORE PUSH1 0x3 DUP3 ADD SLOAD PUSH1 0x60 DUP3 ADD MSTORE PUSH1 0x4 DUP3 ADD SLOAD PUSH1 0x80 DUP3 ADD MSTORE PUSH1 0x5 DUP3 ADD SLOAD PUSH1 0xA0 DUP3 ADD MSTORE PUSH1 0x6 DUP3 ADD SLOAD PUSH1 0xC0 DUP3 ADD MSTORE PUSH1 0x7 DUP3 ADD SLOAD PUSH1 0xE0 DUP3 ADD MSTORE PUSH1 0x8 DUP3 ADD SLOAD PUSH2 0x100 DUP3 ADD MSTORE PUSH1 0x9 DUP3 ADD SLOAD PUSH2 0x120 DUP3 ADD MSTORE PUSH1 0xA DUP3 ADD SLOAD PUSH2 0x140 DUP3 ADD MSTORE PUSH1 0xB DUP3 ADD SLOAD PUSH1 0x1 PUSH1 0x1 PUSH1 0xA0 SHL SUB AND PUSH2 0x160 DUP3 ADD MSTORE PUSH1 0xC DUP3 ADD SLOAD PUSH2 0x180 DUP3 ADD MSTORE PUSH1 0xD SWAP1 SWAP2 ADD SLOAD PUSH1 0xFF AND ISZERO ISZERO PUSH2 0x1A0 SWAP1 SWAP2 ADD MSTORE SWAP3 SWAP2 POP POP JUMP JUMPDEST CALLER PUSH0 SWAP1 DUP2 MSTORE PUSH1 0x6 PUSH1 0x20 MSTORE PUSH1 0x40 SWAP1 KECCAK256 SLOAD PUSH1 0xFF AND ISZERO ISZERO PUSH1 0x1 EQ PUSH2 0xB2F JUMPI PUSH1 0x40 MLOAD PUSH3 0x461BCD PUSH1 0xE5 SHL DUP2 MSTORE PUSH1 0x4 ADD PUSH2 0x357 SWAP1 PUSH2 0x23B8 JUMP JUMPDEST PUSH1 0x2 DUP1 SLOAD PUSH1 0x1 PUSH1 0x1 PUSH1 0xA0 SHL SUB NOT AND PUSH1 0x1 PUSH1 0x1 PUSH1 0xA0 SHL SUB DUP5 AND SWAP1 DUP2 OR SWAP1 SWAP2 SSTORE PUSH1 0x4 DUP3 SWAP1 SSTORE PUSH1 0x40 DUP1 MLOAD SWAP2 DUP3 MSTORE PUSH1 0x20 DUP3 ADD DUP4 SWAP1 MSTORE PUSH32 0xDC907CB17A7DA8E1DFFAD2B7205A6CA1111CBB38A0F1F4B2B60A31EB673CA4A2 SWAP2 ADD JUMPDEST PUSH1 0x40 MLOAD DUP1 SWAP2 SUB SWAP1 LOG1 POP POP JUMP JUMPDEST CALLER PUSH0 SWAP1 DUP2 MSTORE PUSH1 0x6 PUSH1 0x20 MSTORE PUSH1 0x40 SWAP1 KECCAK256 SLOAD PUSH1 0xFF AND ISZERO ISZERO PUSH1 0x1 EQ PUSH2 0xBC3 JUMPI PUSH1 0x40 MLOAD PUSH3 0x461BCD PUSH1 0xE5 SHL DUP2 MSTORE PUSH1 0x4 ADD PUSH2 0x357 SWAP1 PUSH2 0x23B8 JUMP JUMPDEST PUSH2 0xBCB PUSH2 0x1343 JUMP JUMPDEST PUSH1 0x2 PUSH0 DUP4 DUP2 MSTORE PUSH1 0x7 PUSH1 0x20 MSTORE PUSH1 0x40 SWAP1 KECCAK256 SLOAD PUSH1 0x1 PUSH1 0xA0 SHL SWAP1 DIV PUSH1 0xFF AND PUSH1 0x3 DUP2 GT ISZERO PUSH2 0xBF6 JUMPI PUSH2 0xBF6 PUSH2 0x21FC JUMP JUMPDEST EQ PUSH2 0xC3B JUMPI PUSH1 0x40 MLOAD PUSH3 0x461BCD PUSH1 0xE5 SHL DUP2 MSTORE PUSH1 0x20 PUSH1 0x4 DUP3 ADD MSTORE PUSH1 0x15 PUSH1 0x24 DUP3 ADD MSTORE PUSH21 0x526564456E76656C6F7065206E6F7420636C6F7365 PUSH1 0x58 SHL PUSH1 0x44 DUP3 ADD MSTORE PUSH1 0x64 ADD PUSH2 0x357 JUMP JUMPDEST PUSH0 DUP3 DUP2 MSTORE PUSH1 0x7 PUSH1 0x20 SWAP1 DUP2 MSTORE PUSH1 0x40 SWAP2 DUP3 SWAP1 KECCAK256 DUP1 SLOAD PUSH1 0xFF PUSH1 0xA0 SHL NOT AND PUSH1 0x3 PUSH1 0xA0 SHL OR SWAP1 SSTORE SWAP1 MLOAD TIMESTAMP DUP2 MSTORE DUP4 SWAP2 PUSH32 0x66F6B4CD34444AF165FB78BCE3996496528B37AF161C26F737B7341CC37063BB SWAP2 ADD PUSH1 0x40 MLOAD DUP1 SWAP2 SUB SWAP1 LOG2 PUSH0 DUP3 DUP2 MSTORE PUSH1 0x7 PUSH1 0x20 MSTORE PUSH1 0x40 DUP2 KECCAK256 PUSH1 0x5 DUP2 ADD SLOAD PUSH1 0x4 SWAP1 SWAP2 ADD SLOAD PUSH2 0xCB1 SWAP2 SWAP1 PUSH2 0x249E JUMP JUMPDEST SWAP1 POP DUP1 PUSH0 SUB PUSH2 0xCC9 JUMPI PUSH2 0xCC3 DUP4 PUSH2 0x1829 JUMP JUMPDEST POP PUSH2 0x6D4 JUMP JUMPDEST PUSH0 DUP4 DUP2 MSTORE PUSH1 0x7 PUSH1 0x20 MSTORE PUSH1 0x40 SWAP1 KECCAK256 PUSH1 0x3 ADD SLOAD DUP3 SWAP1 DUP3 SWAP1 DUP2 GT DUP1 ISZERO PUSH2 0xCFB JUMPI POP PUSH0 DUP6 DUP2 MSTORE PUSH1 0x7 PUSH1 0x20 MSTORE PUSH1 0x40 SWAP1 KECCAK256 PUSH1 0x3 ADD SLOAD ISZERO ISZERO JUMPDEST ISZERO PUSH2 0xD13 JUMPI POP PUSH0 DUP5 DUP2 MSTORE PUSH1 0x7 PUSH1 0x20 MSTORE PUSH1 0x40 SWAP1 KECCAK256 PUSH1 0x3 ADD SLOAD JUMPDEST PUSH0 DUP6 DUP2 MSTORE PUSH1 0x7 PUSH1 0x20 MSTORE PUSH1 0x40 DUP2 KECCAK256 PUSH1 0x4 DUP2 ADD SLOAD PUSH1 0x6 SWAP1 SWAP2 ADD SLOAD PUSH2 0xD35 SWAP2 SWAP1 PUSH2 0x249E JUMP JUMPDEST PUSH0 DUP8 DUP2 MSTORE PUSH1 0x7 PUSH1 0x20 MSTORE PUSH1 0x40 DUP2 KECCAK256 PUSH1 0xA ADD SLOAD SWAP2 SWAP3 POP SWAP1 PUSH2 0xD55 SWAP1 DUP4 SWAP1 PUSH2 0x24B1 JUMP JUMPDEST SWAP1 POP PUSH0 PUSH2 0xD63 DUP6 DUP6 DUP5 PUSH2 0x18D4 JUMP JUMPDEST SWAP1 POP PUSH2 0xD70 DUP9 DUP6 DUP4 PUSH2 0x1A33 JUMP JUMPDEST PUSH0 DUP9 DUP2 MSTORE PUSH1 0x7 PUSH1 0x20 MSTORE PUSH1 0x40 SWAP1 KECCAK256 PUSH1 0xD ADD SLOAD PUSH1 0xFF AND ISZERO PUSH2 0xE11 JUMPI PUSH0 JUMPDEST PUSH0 DUP10 DUP2 MSTORE PUSH1 0x7 PUSH1 0x20 DUP2 SWAP1 MSTORE PUSH1 0x40 SWAP1 SWAP2 KECCAK256 ADD SLOAD DUP2 LT ISZERO PUSH2 0xE0F JUMPI PUSH0 DUP10 DUP2 MSTORE PUSH1 0xC PUSH1 0x20 SWAP1 DUP2 MSTORE PUSH1 0x40 DUP1 DUP4 KECCAK256 PUSH1 0xB DUP4 MSTORE DUP2 DUP5 KECCAK256 DUP6 DUP6 MSTORE DUP4 MSTORE DUP2 DUP5 KECCAK256 SLOAD PUSH1 0x1 PUSH1 0x1 PUSH1 0xA0 SHL SUB AND DUP5 MSTORE SWAP1 SWAP2 MSTORE SWAP1 KECCAK256 SLOAD ISZERO PUSH2 0xE07 JUMPI PUSH0 DUP10 DUP2 MSTORE PUSH1 0xB PUSH1 0x20 SWAP1 DUP2 MSTORE PUSH1 0x40 DUP1 DUP4 KECCAK256 DUP5 DUP5 MSTORE SWAP1 SWAP2 MSTORE SWAP1 KECCAK256 SLOAD PUSH2 0xE07 SWAP1 DUP11 SWAP1 PUSH1 0x1 PUSH1 0x1 PUSH1 0xA0 SHL SUB AND PUSH2 0x1BF6 JUMP JUMPDEST PUSH1 0x1 ADD PUSH2 0xD8B JUMP JUMPDEST POP JUMPDEST POP POP POP POP POP POP PUSH2 0x6DD PUSH1 0x1 PUSH0 SSTORE JUMP JUMPDEST PUSH2 0xE28 PUSH2 0x1343 JUMP JUMPDEST PUSH1 0x1 PUSH0 DUP5 DUP2 MSTORE PUSH1 0x7 PUSH1 0x20 MSTORE PUSH1 0x40 SWAP1 KECCAK256 SLOAD PUSH1 0x1 PUSH1 0xA0 SHL SWAP1 DIV PUSH1 0xFF AND PUSH1 0x3 DUP2 GT ISZERO PUSH2 0xE53 JUMPI PUSH2 0xE53 PUSH2 0x21FC JUMP JUMPDEST EQ PUSH2 0xE70 JUMPI PUSH1 0x40 MLOAD PUSH3 0x461BCD PUSH1 0xE5 SHL DUP2 MSTORE PUSH1 0x4 ADD PUSH2 0x357 SWAP1 PUSH2 0x241C JUMP JUMPDEST PUSH0 DUP4 DUP2 MSTORE PUSH1 0x7 PUSH1 0x20 MSTORE PUSH1 0x40 SWAP1 KECCAK256 PUSH1 0xB ADD SLOAD PUSH1 0x1 PUSH1 0x1 PUSH1 0xA0 SHL SUB AND ISZERO PUSH2 0xECD JUMPI PUSH1 0x40 MLOAD PUSH3 0x461BCD PUSH1 0xE5 SHL DUP2 MSTORE PUSH1 0x20 PUSH1 0x4 DUP3 ADD MSTORE PUSH1 0x13 PUSH1 0x24 DUP3 ADD MSTORE PUSH19 0x1B9BC8189D5E481D1A58DAD95D081B5BD9195B PUSH1 0x6A SHL PUSH1 0x44 DUP3 ADD MSTORE PUSH1 0x64 ADD PUSH2 0x357 JUMP JUMPDEST DUP1 PUSH0 SUB PUSH2 0xF14 JUMPI PUSH1 0x40 MLOAD PUSH3 0x461BCD PUSH1 0xE5 SHL DUP2 MSTORE PUSH1 0x20 PUSH1 0x4 DUP3 ADD MSTORE PUSH1 0x15 PUSH1 0x24 DUP3 ADD MSTORE PUSH21 0x7469636B65744E756D62657273206E6F207A65726F PUSH1 0x58 SHL PUSH1 0x44 DUP3 ADD MSTORE PUSH1 0x64 ADD PUSH2 0x357 JUMP JUMPDEST PUSH0 DUP4 DUP2 MSTORE PUSH1 0x7 PUSH1 0x20 MSTORE PUSH1 0x40 SWAP1 KECCAK256 PUSH1 0x1 ADD SLOAD ISZERO PUSH2 0xF59 JUMPI PUSH0 DUP4 DUP2 MSTORE PUSH1 0x7 PUSH1 0x20 MSTORE PUSH1 0x40 SWAP1 KECCAK256 PUSH1 0x1 ADD SLOAD TIMESTAMP LT PUSH2 0xF59 JUMPI PUSH1 0x40 MLOAD PUSH3 0x461BCD PUSH1 0xE5 SHL DUP2 MSTORE PUSH1 0x4 ADD PUSH2 0x357 SWAP1 PUSH2 0x2453 JUMP JUMPDEST PUSH0 DUP4 DUP2 MSTORE PUSH1 0x7 PUSH1 0x20 MSTORE PUSH1 0x40 SWAP1 KECCAK256 PUSH1 0x2 ADD SLOAD ISZERO PUSH2 0xFF2 JUMPI PUSH0 DUP4 DUP2 MSTORE PUSH1 0x7 PUSH1 0x20 MSTORE PUSH1 0x40 SWAP1 KECCAK256 PUSH1 0x2 DUP2 ADD SLOAD PUSH1 0x5 DUP3 ADD SLOAD PUSH1 0x4 SWAP1 SWAP3 ADD SLOAD SWAP1 SWAP2 DUP4 SWAP2 PUSH2 0xF9A SWAP2 SWAP1 PUSH2 0x249E JUMP JUMPDEST PUSH2 0xFA4 SWAP2 SWAP1 PUSH2 0x249E JUMP JUMPDEST GT ISZERO PUSH2 0xFF2 JUMPI PUSH1 0x40 MLOAD PUSH3 0x461BCD PUSH1 0xE5 SHL DUP2 MSTORE PUSH1 0x20 PUSH1 0x4 DUP3 ADD MSTORE PUSH1 0x1A PUSH1 0x24 DUP3 ADD MSTORE PUSH32 0x526564456E76656C6F7065206973206F766572207469636B6574000000000000 PUSH1 0x44 DUP3 ADD MSTORE PUSH1 0x64 ADD PUSH2 0x357 JUMP JUMPDEST PUSH0 DUP4 DUP2 MSTORE PUSH1 0x7 PUSH1 0x20 MSTORE PUSH1 0x40 DUP2 KECCAK256 PUSH1 0xA ADD SLOAD PUSH2 0x100E SWAP1 DUP4 SWAP1 PUSH2 0x24B1 JUMP JUMPDEST PUSH0 DUP6 DUP2 MSTORE PUSH1 0x7 PUSH1 0x20 MSTORE PUSH1 0x40 SWAP1 KECCAK256 SLOAD SWAP1 SWAP2 POP PUSH2 0x1034 SWAP1 PUSH1 0x1 PUSH1 0x1 PUSH1 0xA0 SHL SUB AND CALLER ADDRESS DUP5 PUSH2 0x1D08 JUMP JUMPDEST PUSH0 PUSH2 0x1042 DUP6 DUP6 DUP6 PUSH1 0x1 PUSH2 0x156A JUMP JUMPDEST PUSH1 0x40 DUP1 MLOAD DUP3 DUP2 MSTORE PUSH1 0x20 DUP2 ADD DUP7 SWAP1 MSTORE SWAP2 SWAP3 POP PUSH1 0x1 PUSH1 0x1 PUSH1 0xA0 SHL SUB DUP7 AND SWAP2 CALLER SWAP2 DUP9 SWAP2 PUSH32 0x2F21F7EC4C4F5661E7EE11613BB65B35B597763197B0D487352AF168E7689653 SWAP2 ADD PUSH1 0x40 MLOAD DUP1 SWAP2 SUB SWAP1 LOG4 POP POP PUSH2 0x973 PUSH1 0x1 PUSH0 SSTORE JUMP JUMPDEST PUSH2 0x10A0 PUSH2 0x1343 JUMP JUMPDEST PUSH1 0x3 PUSH0 DUP3 DUP2 MSTORE PUSH1 0x7 PUSH1 0x20 MSTORE PUSH1 0x40 SWAP1 KECCAK256 SLOAD PUSH1 0x1 PUSH1 0xA0 SHL SWAP1 DIV PUSH1 0xFF AND PUSH1 0x3 DUP2 GT ISZERO PUSH2 0x10CB JUMPI PUSH2 0x10CB PUSH2 0x21FC JUMP JUMPDEST EQ PUSH2 0x1118 JUMPI PUSH1 0x40 MLOAD PUSH3 0x461BCD PUSH1 0xE5 SHL DUP2 MSTORE PUSH1 0x20 PUSH1 0x4 DUP3 ADD MSTORE PUSH1 0x19 PUSH1 0x24 DUP3 ADD MSTORE PUSH32 0x526564456E76656C6F7065206E6F7420636C61696D61626C6500000000000000 PUSH1 0x44 DUP3 ADD MSTORE PUSH1 0x64 ADD PUSH2 0x357 JUMP JUMPDEST PUSH0 DUP2 DUP2 MSTORE PUSH1 0x7 PUSH1 0x20 MSTORE PUSH1 0x40 SWAP1 KECCAK256 PUSH1 0xD ADD SLOAD PUSH1 0xFF AND ISZERO PUSH2 0x1172 JUMPI PUSH1 0x40 MLOAD PUSH3 0x461BCD PUSH1 0xE5 SHL DUP2 MSTORE PUSH1 0x20 PUSH1 0x4 DUP3 ADD MSTORE PUSH1 0x16 PUSH1 0x24 DUP3 ADD MSTORE PUSH22 0x526564456E76656C6F7065206175746F20636C61696D PUSH1 0x50 SHL PUSH1 0x44 DUP3 ADD MSTORE PUSH1 0x64 ADD PUSH2 0x357 JUMP JUMPDEST PUSH2 0x117C DUP2 CALLER PUSH2 0x1BF6 JUMP JUMPDEST PUSH2 0x4FF PUSH1 0x1 PUSH0 SSTORE JUMP JUMPDEST PUSH2 0x118D PUSH2 0x17AB JUMP JUMPDEST PUSH1 0x1 PUSH1 0x1 PUSH1 0xA0 SHL SUB DUP3 AND PUSH2 0x11DC JUMPI PUSH1 0x40 MLOAD PUSH3 0x461BCD PUSH1 0xE5 SHL DUP2 MSTORE PUSH1 0x20 PUSH1 0x4 DUP3 ADD MSTORE PUSH1 0x16 PUSH1 0x24 DUP3 ADD MSTORE PUSH22 0x43616E6E6F74206265207A65726F2061646472657373 PUSH1 0x50 SHL PUSH1 0x44 DUP3 ADD MSTORE PUSH1 0x64 ADD PUSH2 0x357 JUMP JUMPDEST PUSH1 0x1 PUSH1 0x1 PUSH1 0xA0 SHL SUB DUP3 AND PUSH0 DUP2 DUP2 MSTORE PUSH1 0x6 PUSH1 0x20 SWAP1 DUP2 MSTORE PUSH1 0x40 SWAP2 DUP3 SWAP1 KECCAK256 DUP1 SLOAD PUSH1 0xFF NOT AND DUP6 ISZERO ISZERO SWAP1 DUP2 OR SWAP1 SWAP2 SSTORE DUP3 MLOAD SWAP4 DUP5 MSTORE SWAP1 DUP4 ADD MSTORE PUSH32 0xEDAE46487653623E513EA3B3341C9E6B457A2EF687D0342D2507CCB63458B19F SWAP2 ADD PUSH2 0xB84 JUMP JUMPDEST PUSH0 DUP3 DUP2 MSTORE PUSH1 0xC PUSH1 0x20 SWAP1 DUP2 MSTORE PUSH1 0x40 DUP1 DUP4 KECCAK256 PUSH1 0x1 PUSH1 0x1 PUSH1 0xA0 SHL SUB DUP6 AND DUP5 MSTORE SWAP1 SWAP2 MSTORE SWAP1 KECCAK256 SLOAD JUMPDEST SWAP3 SWAP2 POP POP JUMP JUMPDEST PUSH2 0x1268 PUSH2 0x17AB JUMP JUMPDEST PUSH1 0x1 PUSH1 0x1 PUSH1 0xA0 SHL SUB DUP2 AND PUSH2 0x1291 JUMPI PUSH1 0x40 MLOAD PUSH4 0x1E4FBDF7 PUSH1 0xE0 SHL DUP2 MSTORE PUSH0 PUSH1 0x4 DUP3 ADD MSTORE PUSH1 0x24 ADD PUSH2 0x357 JUMP JUMPDEST PUSH2 0x4FF DUP2 PUSH2 0x17D8 JUMP JUMPDEST CALLER PUSH0 SWAP1 DUP2 MSTORE PUSH1 0x6 PUSH1 0x20 MSTORE PUSH1 0x40 SWAP1 KECCAK256 SLOAD PUSH1 0xFF AND ISZERO ISZERO PUSH1 0x1 EQ PUSH2 0x12CD JUMPI PUSH1 0x40 MLOAD PUSH3 0x461BCD PUSH1 0xE5 SHL DUP2 MSTORE PUSH1 0x4 ADD PUSH2 0x357 SWAP1 PUSH2 0x23B8 JUMP JUMPDEST PUSH1 0x5 DUP1 SLOAD PUSH1 0xFF NOT AND DUP3 ISZERO ISZERO SWAP1 DUP2 OR SWAP1 SWAP2 SSTORE PUSH1 0x40 MLOAD PUSH1 0xFF SWAP1 SWAP2 AND ISZERO ISZERO DUP2 MSTORE PUSH32 0x6FE9A4AB2E95E24B2BE44989DC36A685149DFDE9354D486A8DA5CB4BBD01B010 SWAP1 PUSH1 0x20 ADD PUSH1 0x40 MLOAD DUP1 SWAP2 SUB SWAP1 LOG1 POP JUMP JUMPDEST PUSH0 DUP2 DUP2 MSTORE PUSH1 0x7 PUSH1 0x20 MSTORE PUSH1 0x40 DUP2 KECCAK256 SLOAD PUSH1 0x1 PUSH1 0xA0 SHL SWAP1 DIV PUSH1 0xFF AND PUSH1 0x3 DUP2 GT ISZERO PUSH2 0x125A JUMPI PUSH2 0x125A PUSH2 0x21FC JUMP JUMPDEST PUSH1 0x2 PUSH0 SLOAD SUB PUSH2 0x1365 JUMPI PUSH1 0x40 MLOAD PUSH4 0x3EE5AEB5 PUSH1 0xE0 SHL DUP2 MSTORE PUSH1 0x4 ADD PUSH1 0x40 MLOAD DUP1 SWAP2 SUB SWAP1 REVERT JUMPDEST PUSH1 0x2 PUSH0 SSTORE JUMP JUMPDEST PUSH1 0x3 DUP1 SLOAD SWAP1 PUSH0 PUSH2 0x137A DUP4 PUSH2 0x24C8 JUMP JUMPDEST SWAP1 SWAP2 SSTORE POP POP PUSH1 0x3 DUP1 SLOAD PUSH0 SWAP1 DUP2 MSTORE PUSH1 0x7 PUSH1 0x20 MSTORE PUSH1 0x40 SWAP1 KECCAK256 DUP1 SLOAD PUSH1 0x1 PUSH1 0x1 PUSH1 0xA0 SHL SUB SWAP10 SWAP1 SWAP10 AND PUSH1 0x1 PUSH1 0x1 PUSH1 0xA8 SHL SUB NOT SWAP1 SWAP10 AND SWAP9 SWAP1 SWAP9 OR PUSH1 0x1 PUSH1 0xA0 SHL OR DUP9 SSTORE PUSH1 0x1 DUP9 ADD SWAP6 SWAP1 SWAP6 SSTORE PUSH1 0x2 DUP8 ADD SWAP4 SWAP1 SWAP4 SSTORE SWAP3 DUP6 ADD SSTORE PUSH1 0xA DUP5 ADD SWAP3 SWAP1 SWAP3 SSTORE PUSH1 0xC DUP4 ADD SSTORE PUSH1 0xD SWAP1 SWAP2 ADD DUP1 SLOAD PUSH1 0xFF NOT AND SWAP2 ISZERO ISZERO SWAP2 SWAP1 SWAP2 OR SWAP1 SSTORE JUMP JUMPDEST PUSH0 DUP4 DUP2 MSTORE PUSH1 0x7 PUSH1 0x20 MSTORE PUSH1 0x40 DUP2 KECCAK256 PUSH1 0xA ADD SLOAD PUSH2 0x1409 SWAP1 DUP4 SWAP1 PUSH2 0x24B1 JUMP JUMPDEST PUSH0 DUP6 DUP2 MSTORE PUSH1 0x7 PUSH1 0x20 MSTORE PUSH1 0x40 SWAP1 KECCAK256 SLOAD SWAP1 SWAP2 POP PUSH2 0x142F SWAP1 PUSH1 0x1 PUSH1 0x1 PUSH1 0xA0 SHL SUB AND DUP5 ADDRESS DUP5 PUSH2 0x1D08 JUMP JUMPDEST PUSH1 0x3 SLOAD PUSH0 SWAP1 DUP2 MSTORE PUSH1 0x7 PUSH1 0x20 MSTORE PUSH1 0x40 DUP2 KECCAK256 PUSH1 0x6 ADD DUP1 SLOAD DUP5 SWAP3 SWAP1 PUSH2 0x1452 SWAP1 DUP5 SWAP1 PUSH2 0x249E JUMP JUMPDEST SWAP1 SWAP2 SSTORE POP POP PUSH1 0x3 SLOAD PUSH0 SWAP1 DUP2 MSTORE PUSH1 0xE PUSH1 0x20 SWAP1 DUP2 MSTORE PUSH1 0x40 DUP1 DUP4 KECCAK256 PUSH1 0x1 PUSH1 0x1 PUSH1 0xA0 SHL SUB DUP8 AND DUP5 MSTORE SWAP1 SWAP2 MSTORE DUP2 KECCAK256 SLOAD SWAP1 SUB PUSH2 0x14E9 JUMPI PUSH1 0x3 DUP1 SLOAD PUSH0 SWAP1 DUP2 MSTORE PUSH1 0xD PUSH1 0x20 SWAP1 DUP2 MSTORE PUSH1 0x40 DUP1 DUP4 KECCAK256 PUSH1 0x7 DUP1 DUP5 MSTORE DUP3 DUP6 KECCAK256 PUSH1 0x9 SWAP1 DUP2 ADD SLOAD DUP7 MSTORE SWAP2 DUP5 MSTORE DUP3 DUP6 KECCAK256 DUP1 SLOAD PUSH1 0x1 PUSH1 0x1 PUSH1 0xA0 SHL SUB NOT AND PUSH1 0x1 PUSH1 0x1 PUSH1 0xA0 SHL SUB DUP12 AND OR SWAP1 SSTORE SWAP5 SLOAD DUP5 MSTORE SWAP4 SWAP1 SWAP2 MSTORE DUP2 KECCAK256 SWAP1 SWAP2 ADD DUP1 SLOAD PUSH1 0x1 SWAP3 SWAP1 PUSH2 0x14E3 SWAP1 DUP5 SWAP1 PUSH2 0x249E JUMP JUMPDEST SWAP1 SWAP2 SSTORE POP POP JUMPDEST PUSH1 0x3 SLOAD PUSH0 SWAP1 DUP2 MSTORE PUSH1 0xE PUSH1 0x20 SWAP1 DUP2 MSTORE PUSH1 0x40 DUP1 DUP4 KECCAK256 PUSH1 0x1 PUSH1 0x1 PUSH1 0xA0 SHL SUB DUP8 AND DUP5 MSTORE SWAP1 SWAP2 MSTORE DUP2 KECCAK256 DUP1 SLOAD DUP5 SWAP3 SWAP1 PUSH2 0x151D SWAP1 DUP5 SWAP1 PUSH2 0x249E JUMP JUMPDEST SWAP1 SWAP2 SSTORE POP POP PUSH1 0x3 SLOAD PUSH1 0x40 MLOAD DUP4 DUP2 MSTORE PUSH1 0x1 PUSH1 0x1 PUSH1 0xA0 SHL SUB DUP6 AND SWAP2 SWAP1 PUSH32 0xA95519638524DCEA0D5D0102C719D77DC3D8B1AE68D2D1E37C79BE21BC7B113B SWAP1 PUSH1 0x20 ADD PUSH1 0x40 MLOAD DUP1 SWAP2 SUB SWAP1 LOG3 POP POP POP POP JUMP JUMPDEST PUSH0 DUP5 DUP2 MSTORE PUSH1 0x7 PUSH1 0x20 MSTORE PUSH1 0x40 DUP2 KECCAK256 PUSH1 0x8 ADD SLOAD DUP2 SWAP1 ISZERO PUSH2 0x15BF JUMPI PUSH0 DUP7 DUP2 MSTORE PUSH1 0x8 PUSH1 0x20 DUP2 DUP2 MSTORE PUSH1 0x40 DUP1 DUP5 KECCAK256 PUSH1 0x7 SWAP1 SWAP3 MSTORE DUP4 KECCAK256 SWAP1 SWAP2 ADD SLOAD SWAP1 SWAP2 SWAP1 PUSH2 0x15AC SWAP1 PUSH1 0x1 SWAP1 PUSH2 0x24E0 JUMP JUMPDEST DUP2 MSTORE PUSH1 0x20 ADD SWAP1 DUP2 MSTORE PUSH1 0x20 ADD PUSH0 KECCAK256 PUSH0 ADD SLOAD SWAP1 POP JUMPDEST PUSH1 0x40 MLOAD DUP1 PUSH1 0x60 ADD PUSH1 0x40 MSTORE DUP1 DUP6 DUP4 PUSH2 0x15D6 SWAP2 SWAP1 PUSH2 0x249E JUMP JUMPDEST DUP2 MSTORE PUSH1 0x1 PUSH1 0x1 PUSH1 0xA0 SHL SUB DUP1 DUP9 AND PUSH1 0x20 DUP1 DUP5 ADD SWAP2 SWAP1 SWAP2 MSTORE DUP7 ISZERO DUP1 ISZERO PUSH1 0x40 SWAP5 DUP6 ADD MSTORE PUSH0 DUP12 DUP2 MSTORE PUSH1 0x8 DUP1 DUP5 MSTORE DUP6 DUP3 KECCAK256 PUSH1 0x7 DUP6 MSTORE DUP7 DUP4 KECCAK256 SWAP1 SWAP2 ADD SLOAD DUP3 MSTORE DUP4 MSTORE DUP5 SWAP1 KECCAK256 DUP6 MLOAD DUP2 SSTORE SWAP2 DUP6 ADD MLOAD PUSH1 0x1 SWAP1 SWAP3 ADD DUP1 SLOAD SWAP6 SWAP1 SWAP5 ADD MLOAD ISZERO ISZERO PUSH1 0x1 PUSH1 0xA0 SHL MUL PUSH1 0x1 PUSH1 0x1 PUSH1 0xA8 SHL SUB NOT SWAP1 SWAP6 AND SWAP2 SWAP1 SWAP3 AND OR SWAP3 SWAP1 SWAP3 OR SWAP1 SSTORE PUSH2 0x167D JUMPI PUSH0 DUP7 DUP2 MSTORE PUSH1 0x7 PUSH1 0x20 MSTORE PUSH1 0x40 SWAP1 KECCAK256 PUSH1 0x4 ADD SLOAD PUSH2 0x1667 SWAP1 DUP6 SWAP1 PUSH2 0x249E JUMP JUMPDEST PUSH0 DUP8 DUP2 MSTORE PUSH1 0x7 PUSH1 0x20 MSTORE PUSH1 0x40 SWAP1 KECCAK256 PUSH1 0x4 ADD SSTORE PUSH2 0x16AB JUMP JUMPDEST PUSH0 DUP7 DUP2 MSTORE PUSH1 0x7 PUSH1 0x20 MSTORE PUSH1 0x40 SWAP1 KECCAK256 PUSH1 0x5 ADD SLOAD PUSH2 0x1699 SWAP1 DUP6 SWAP1 PUSH2 0x249E JUMP JUMPDEST PUSH0 DUP8 DUP2 MSTORE PUSH1 0x7 PUSH1 0x20 MSTORE PUSH1 0x40 SWAP1 KECCAK256 PUSH1 0x5 ADD SSTORE JUMPDEST PUSH0 DUP7 DUP2 MSTORE PUSH1 0xA PUSH1 0x20 SWAP1 DUP2 MSTORE PUSH1 0x40 DUP1 DUP4 KECCAK256 PUSH1 0x1 PUSH1 0x1 PUSH1 0xA0 SHL SUB DUP10 AND DUP5 MSTORE SWAP1 SWAP2 MSTORE DUP2 KECCAK256 SLOAD SWAP1 SUB PUSH2 0x172C JUMPI PUSH0 DUP7 DUP2 MSTORE PUSH1 0xB PUSH1 0x20 SWAP1 DUP2 MSTORE PUSH1 0x40 DUP1 DUP4 KECCAK256 PUSH1 0x7 DUP1 DUP5 MSTORE DUP3 DUP6 KECCAK256 DUP2 ADD DUP1 SLOAD DUP7 MSTORE SWAP2 DUP5 MSTORE SWAP2 DUP5 KECCAK256 DUP1 SLOAD PUSH1 0x1 PUSH1 0x1 PUSH1 0xA0 SHL SUB NOT AND PUSH1 0x1 PUSH1 0x1 PUSH1 0xA0 SHL SUB DUP12 AND OR SWAP1 SSTORE DUP10 DUP5 MSTORE SWAP2 MSTORE DUP1 SLOAD PUSH1 0x1 SWAP3 SWAP1 PUSH2 0x1726 SWAP1 DUP5 SWAP1 PUSH2 0x249E JUMP JUMPDEST SWAP1 SWAP2 SSTORE POP POP JUMPDEST PUSH0 DUP7 DUP2 MSTORE PUSH1 0x7 PUSH1 0x20 MSTORE PUSH1 0x40 DUP2 KECCAK256 PUSH1 0x8 ADD DUP1 SLOAD PUSH1 0x1 SWAP3 SWAP1 PUSH2 0x174D SWAP1 DUP5 SWAP1 PUSH2 0x249E JUMP JUMPDEST SWAP1 SWAP2 SSTORE POP POP PUSH0 DUP7 DUP2 MSTORE PUSH1 0xA PUSH1 0x20 SWAP1 DUP2 MSTORE PUSH1 0x40 DUP1 DUP4 KECCAK256 PUSH1 0x1 PUSH1 0x1 PUSH1 0xA0 SHL SUB DUP10 AND DUP5 MSTORE SWAP1 SWAP2 MSTORE SWAP1 KECCAK256 SLOAD PUSH2 0x177F SWAP1 DUP6 SWAP1 PUSH2 0x249E JUMP JUMPDEST PUSH0 DUP8 DUP2 MSTORE PUSH1 0xA PUSH1 0x20 SWAP1 DUP2 MSTORE PUSH1 0x40 DUP1 DUP4 KECCAK256 PUSH1 0x1 PUSH1 0x1 PUSH1 0xA0 SHL SUB DUP11 AND DUP5 MSTORE SWAP1 SWAP2 MSTORE SWAP1 KECCAK256 SSTORE SWAP1 POP SWAP5 SWAP4 POP POP POP POP JUMP JUMPDEST PUSH1 0x1 SLOAD PUSH1 0x1 PUSH1 0x1 PUSH1 0xA0 SHL SUB AND CALLER EQ PUSH2 0x989 JUMPI PUSH1 0x40 MLOAD PUSH4 0x118CDAA7 PUSH1 0xE0 SHL DUP2 MSTORE CALLER PUSH1 0x4 DUP3 ADD MSTORE PUSH1 0x24 ADD PUSH2 0x357 JUMP JUMPDEST PUSH1 0x1 DUP1 SLOAD PUSH1 0x1 PUSH1 0x1 PUSH1 0xA0 SHL SUB DUP4 DUP2 AND PUSH1 0x1 PUSH1 0x1 PUSH1 0xA0 SHL SUB NOT DUP4 AND DUP2 OR SWAP1 SWAP4 SSTORE PUSH1 0x40 MLOAD SWAP2 AND SWAP2 SWAP1 DUP3 SWAP1 PUSH32 0x8BE0079C531659141344CD1FD0A4F28419497F9722A3DAAFE3B4186F6B6457E0 SWAP1 PUSH0 SWAP1 LOG3 POP POP JUMP JUMPDEST PUSH0 JUMPDEST PUSH0 DUP3 DUP2 MSTORE PUSH1 0x7 PUSH1 0x20 MSTORE PUSH1 0x40 SWAP1 KECCAK256 PUSH1 0x9 ADD SLOAD DUP2 LT ISZERO PUSH2 0x6DD JUMPI PUSH0 DUP3 DUP2 MSTORE PUSH1 0xE PUSH1 0x20 SWAP1 DUP2 MSTORE PUSH1 0x40 DUP1 DUP4 KECCAK256 PUSH1 0xD DUP4 MSTORE DUP2 DUP5 KECCAK256 DUP6 DUP6 MSTORE DUP4 MSTORE DUP2 DUP5 KECCAK256 SLOAD PUSH1 0x1 PUSH1 0x1 PUSH1 0xA0 SHL SUB AND DUP5 MSTORE DUP3 MSTORE DUP1 DUP4 KECCAK256 SLOAD DUP6 DUP5 MSTORE PUSH1 0x7 SWAP1 SWAP3 MSTORE DUP3 KECCAK256 PUSH1 0xA ADD SLOAD PUSH2 0x188C SWAP2 SWAP1 PUSH2 0x24B1 JUMP JUMPDEST PUSH0 DUP5 DUP2 MSTORE PUSH1 0xD PUSH1 0x20 SWAP1 DUP2 MSTORE PUSH1 0x40 DUP1 DUP4 KECCAK256 DUP7 DUP5 MSTORE DUP3 MSTORE DUP1 DUP4 KECCAK256 SLOAD DUP8 DUP5 MSTORE PUSH1 0x7 SWAP1 SWAP3 MSTORE SWAP1 SWAP2 KECCAK256 SLOAD SWAP2 SWAP3 POP PUSH2 0x18CB SWAP2 PUSH1 0x1 PUSH1 0x1 PUSH1 0xA0 SHL SUB SWAP1 DUP2 AND SWAP2 AND DUP4 PUSH2 0x1D6F JUMP JUMPDEST POP PUSH1 0x1 ADD PUSH2 0x182B JUMP JUMPDEST PUSH1 0x60 PUSH0 DUP4 PUSH8 0xFFFFFFFFFFFFFFFF DUP2 GT ISZERO PUSH2 0x18F0 JUMPI PUSH2 0x18F0 PUSH2 0x24F3 JUMP JUMPDEST PUSH1 0x40 MLOAD SWAP1 DUP1 DUP3 MSTORE DUP1 PUSH1 0x20 MUL PUSH1 0x20 ADD DUP3 ADD PUSH1 0x40 MSTORE DUP1 ISZERO PUSH2 0x1919 JUMPI DUP2 PUSH1 0x20 ADD PUSH1 0x20 DUP3 MUL DUP1 CALLDATASIZE DUP4 CALLDATACOPY ADD SWAP1 POP JUMPDEST POP SWAP1 POP DUP5 PUSH0 JUMPDEST PUSH2 0x192A PUSH1 0x1 DUP8 PUSH2 0x24E0 JUMP JUMPDEST DUP2 LT ISZERO PUSH2 0x19FF JUMPI PUSH2 0x193B DUP3 DUP3 PUSH2 0x1DA0 JUMP JUMPDEST SWAP2 POP PUSH0 PUSH2 0x1948 DUP7 DUP5 PUSH2 0x251B JUMP JUMPDEST SWAP1 POP DUP2 JUMPDEST PUSH1 0x1 DUP2 LT ISZERO DUP1 ISZERO PUSH2 0x197F JUMPI POP DUP5 PUSH2 0x1964 PUSH1 0x1 DUP4 PUSH2 0x24E0 JUMP JUMPDEST DUP2 MLOAD DUP2 LT PUSH2 0x1974 JUMPI PUSH2 0x1974 PUSH2 0x252E JUMP JUMPDEST PUSH1 0x20 MUL PUSH1 0x20 ADD ADD MLOAD DUP3 LT JUMPDEST ISZERO PUSH2 0x19D7 JUMPI DUP5 PUSH2 0x1990 PUSH1 0x1 DUP4 PUSH2 0x24E0 JUMP JUMPDEST DUP2 MLOAD DUP2 LT PUSH2 0x19A0 JUMPI PUSH2 0x19A0 PUSH2 0x252E JUMP JUMPDEST PUSH1 0x20 MUL PUSH1 0x20 ADD ADD MLOAD DUP6 DUP3 DUP2 MLOAD DUP2 LT PUSH2 0x19BA JUMPI PUSH2 0x19BA PUSH2 0x252E JUMP JUMPDEST PUSH1 0x20 SWAP1 DUP2 MUL SWAP2 SWAP1 SWAP2 ADD ADD MSTORE DUP1 PUSH2 0x19CF DUP2 PUSH2 0x2542 JUMP JUMPDEST SWAP2 POP POP PUSH2 0x194C JUMP JUMPDEST DUP2 DUP6 DUP3 DUP2 MLOAD DUP2 LT PUSH2 0x19EA JUMPI PUSH2 0x19EA PUSH2 0x252E JUMP JUMPDEST PUSH1 0x20 SWAP1 DUP2 MUL SWAP2 SWAP1 SWAP2 ADD ADD MSTORE POP POP PUSH1 0x1 ADD PUSH2 0x191F JUMP JUMPDEST POP DUP4 DUP3 PUSH2 0x1A0D PUSH1 0x1 DUP9 PUSH2 0x24E0 JUMP JUMPDEST DUP2 MLOAD DUP2 LT PUSH2 0x1A1D JUMPI PUSH2 0x1A1D PUSH2 0x252E JUMP JUMPDEST PUSH1 0x20 SWAP1 DUP2 MUL SWAP2 SWAP1 SWAP2 ADD ADD MSTORE POP SWAP1 POP JUMPDEST SWAP4 SWAP3 POP POP POP JUMP JUMPDEST PUSH0 DUP4 DUP2 MSTORE PUSH1 0x7 PUSH1 0x20 MSTORE PUSH1 0x40 DUP2 KECCAK256 PUSH1 0x5 DUP2 ADD SLOAD PUSH1 0x4 SWAP1 SWAP2 ADD SLOAD DUP3 SWAP2 PUSH2 0x1A56 SWAP2 PUSH2 0x249E JUMP JUMPDEST SWAP1 POP PUSH0 JUMPDEST DUP5 DUP2 LT ISZERO PUSH2 0x1BEE JUMPI PUSH0 DUP4 DUP6 DUP4 DUP2 MLOAD DUP2 LT PUSH2 0x1A76 JUMPI PUSH2 0x1A76 PUSH2 0x252E JUMP JUMPDEST PUSH1 0x20 MUL PUSH1 0x20 ADD ADD MLOAD PUSH2 0x1A88 SWAP2 SWAP1 PUSH2 0x24E0 JUMP JUMPDEST SWAP1 POP DUP2 DUP7 DUP5 EQ PUSH2 0x1B00 JUMPI DUP4 PUSH2 0x1AB6 DUP8 DUP6 DUP2 MLOAD DUP2 LT PUSH2 0x1AA8 JUMPI PUSH2 0x1AA8 PUSH2 0x252E JUMP JUMPDEST PUSH1 0x20 MUL PUSH1 0x20 ADD ADD MLOAD DUP6 PUSH2 0x1DA0 JUMP JUMPDEST PUSH2 0x1AC0 SWAP2 SWAP1 PUSH2 0x251B JUMP JUMPDEST SWAP1 POP JUMPDEST PUSH0 DUP9 DUP2 MSTORE PUSH1 0x9 PUSH1 0x20 SWAP1 DUP2 MSTORE PUSH1 0x40 DUP1 DUP4 KECCAK256 DUP5 DUP5 MSTORE SWAP1 SWAP2 MSTORE SWAP1 KECCAK256 SLOAD PUSH1 0xFF AND ISZERO PUSH2 0x1B00 JUMPI DUP1 PUSH2 0x1AEE DUP2 PUSH2 0x24C8 JUMP JUMPDEST SWAP2 POP POP DUP4 DUP2 SUB PUSH2 0x1AFB JUMPI POP PUSH0 JUMPDEST PUSH2 0x1AC3 JUMP JUMPDEST PUSH0 DUP9 DUP2 MSTORE PUSH1 0x9 PUSH1 0x20 SWAP1 DUP2 MSTORE PUSH1 0x40 DUP1 DUP4 KECCAK256 DUP5 DUP5 MSTORE SWAP1 SWAP2 MSTORE DUP2 KECCAK256 DUP1 SLOAD PUSH1 0xFF NOT AND PUSH1 0x1 OR SWAP1 SSTORE PUSH2 0x1B2D DUP10 DUP4 PUSH2 0x1DED JUMP JUMPDEST PUSH1 0x1 DUP2 ADD SLOAD PUSH0 DUP12 DUP2 MSTORE PUSH1 0x7 PUSH1 0x20 SWAP1 DUP2 MSTORE PUSH1 0x40 SWAP2 DUP3 SWAP1 KECCAK256 PUSH1 0xD ADD SLOAD DUP3 MLOAD DUP9 DUP2 MSTORE PUSH1 0xFF SWAP1 SWAP2 AND ISZERO ISZERO SWAP2 DUP2 ADD SWAP2 SWAP1 SWAP2 MSTORE SWAP3 SWAP4 POP DUP5 SWAP3 PUSH1 0x1 PUSH1 0x1 PUSH1 0xA0 SHL SUB SWAP1 SWAP3 AND SWAP2 DUP13 SWAP2 PUSH32 0x927546E38B674F5E5DFF7EDCE9C7AFDCF21A35AC03BA70FE8E341F61F2C73DED SWAP2 ADD PUSH1 0x40 MLOAD DUP1 SWAP2 SUB SWAP1 LOG4 PUSH0 DUP10 DUP2 MSTORE PUSH1 0xC PUSH1 0x20 SWAP1 DUP2 MSTORE PUSH1 0x40 DUP1 DUP4 KECCAK256 PUSH1 0x1 DUP6 ADD SLOAD PUSH1 0x1 PUSH1 0x1 PUSH1 0xA0 SHL SUB AND DUP5 MSTORE SWAP1 SWAP2 MSTORE DUP2 KECCAK256 DUP1 SLOAD DUP6 SWAP3 SWAP1 PUSH2 0x1BCD SWAP1 DUP5 SWAP1 PUSH2 0x249E JUMP JUMPDEST SWAP1 SWAP2 SSTORE POP PUSH2 0x1BDD SWAP1 POP DUP4 DUP8 PUSH2 0x249E JUMP JUMPDEST SWAP6 POP POP PUSH1 0x1 SWAP1 SWAP3 ADD SWAP2 POP PUSH2 0x1A5A SWAP1 POP JUMP JUMPDEST POP POP POP POP POP POP JUMP JUMPDEST PUSH0 DUP3 DUP2 MSTORE PUSH1 0xC PUSH1 0x20 SWAP1 DUP2 MSTORE PUSH1 0x40 DUP1 DUP4 KECCAK256 PUSH1 0x1 PUSH1 0x1 PUSH1 0xA0 SHL SUB DUP6 AND DUP5 MSTORE SWAP1 SWAP2 MSTORE DUP2 KECCAK256 SLOAD SWAP1 SUB PUSH2 0x1C51 JUMPI PUSH1 0x40 MLOAD PUSH3 0x461BCD PUSH1 0xE5 SHL DUP2 MSTORE PUSH1 0x20 PUSH1 0x4 DUP3 ADD MSTORE PUSH1 0x8 PUSH1 0x24 DUP3 ADD MSTORE PUSH8 0x6E6F207072697A65 PUSH1 0xC0 SHL PUSH1 0x44 DUP3 ADD MSTORE PUSH1 0x64 ADD PUSH2 0x357 JUMP JUMPDEST PUSH0 DUP3 DUP2 MSTORE PUSH1 0xC PUSH1 0x20 SWAP1 DUP2 MSTORE PUSH1 0x40 DUP1 DUP4 KECCAK256 PUSH1 0x1 PUSH1 0x1 PUSH1 0xA0 SHL SUB DUP1 DUP7 AND DUP6 MSTORE SWAP1 DUP4 MSTORE DUP2 DUP5 KECCAK256 SLOAD DUP7 DUP6 MSTORE PUSH1 0x7 SWAP1 SWAP4 MSTORE SWAP3 KECCAK256 SLOAD SWAP1 SWAP2 PUSH2 0x1C8E SWAP2 AND DUP4 DUP4 PUSH2 0x1D6F JUMP JUMPDEST PUSH0 DUP4 DUP2 MSTORE PUSH1 0xC PUSH1 0x20 SWAP1 DUP2 MSTORE PUSH1 0x40 DUP1 DUP4 KECCAK256 PUSH1 0x1 PUSH1 0x1 PUSH1 0xA0 SHL SUB DUP7 AND DUP1 DUP6 MSTORE SWAP1 DUP4 MSTORE DUP2 DUP5 KECCAK256 DUP5 SWAP1 SSTORE DUP7 DUP5 MSTORE PUSH1 0x7 DUP4 MSTORE SWAP3 DUP2 SWAP1 KECCAK256 PUSH1 0xD ADD SLOAD DUP2 MLOAD DUP6 DUP2 MSTORE PUSH1 0xFF SWAP1 SWAP2 AND ISZERO ISZERO SWAP3 DUP2 ADD SWAP3 SWAP1 SWAP3 MSTORE DUP6 SWAP2 PUSH32 0x268EF67ED0490CC273925A4865E6FBDB4DCF7E0802AAD957AA682A78C7618BEF SWAP2 ADD PUSH1 0x40 MLOAD DUP1 SWAP2 SUB SWAP1 LOG3 POP POP POP JUMP JUMPDEST PUSH1 0x40 MLOAD PUSH1 0x1 PUSH1 0x1 PUSH1 0xA0 SHL SUB DUP5 DUP2 AND PUSH1 0x24 DUP4 ADD MSTORE DUP4 DUP2 AND PUSH1 0x44 DUP4 ADD MSTORE PUSH1 0x64 DUP3 ADD DUP4 SWAP1 MSTORE PUSH2 0x3F4 SWAP2 DUP7 SWAP2 DUP3 AND SWAP1 PUSH4 0x23B872DD SWAP1 PUSH1 0x84 ADD JUMPDEST PUSH1 0x40 MLOAD PUSH1 0x20 DUP2 DUP4 SUB SUB DUP2 MSTORE SWAP1 PUSH1 0x40 MSTORE SWAP2 POP PUSH1 0xE0 SHL PUSH1 0x20 DUP3 ADD DUP1 MLOAD PUSH1 0x1 PUSH1 0x1 PUSH1 0xE0 SHL SUB DUP4 DUP2 DUP4 AND OR DUP4 MSTORE POP POP POP POP PUSH2 0x1F27 JUMP JUMPDEST PUSH1 0x40 MLOAD PUSH1 0x1 PUSH1 0x1 PUSH1 0xA0 SHL SUB DUP4 DUP2 AND PUSH1 0x24 DUP4 ADD MSTORE PUSH1 0x44 DUP3 ADD DUP4 SWAP1 MSTORE PUSH2 0x973 SWAP2 DUP6 SWAP2 DUP3 AND SWAP1 PUSH4 0xA9059CBB SWAP1 PUSH1 0x64 ADD PUSH2 0x1D3D JUMP JUMPDEST PUSH0 DUP1 PUSH2 0x1DAE PUSH2 0x100 DUP5 PUSH2 0x251B JUMP JUMPDEST SWAP1 POP DUP4 PUSH2 0x1DBB DUP6 DUP4 PUSH2 0x1F88 JUMP JUMPDEST PUSH1 0x40 DUP1 MLOAD PUSH1 0x20 DUP2 ADD SWAP4 SWAP1 SWAP4 MSTORE DUP3 ADD MSTORE PUSH1 0x60 ADD PUSH1 0x40 DUP1 MLOAD PUSH1 0x1F NOT DUP2 DUP5 SUB ADD DUP2 MSTORE SWAP2 SWAP1 MSTORE DUP1 MLOAD PUSH1 0x20 SWAP1 SWAP2 ADD KECCAK256 SWAP5 SWAP4 POP POP POP POP JUMP JUMPDEST PUSH0 DUP3 DUP2 MSTORE PUSH1 0x8 PUSH1 0x20 DUP2 DUP2 MSTORE PUSH1 0x40 DUP1 DUP5 KECCAK256 PUSH1 0x7 SWAP1 SWAP3 MSTORE DUP4 KECCAK256 SWAP1 SWAP2 ADD SLOAD DUP4 SWAP2 SWAP1 DUP4 SWAP1 PUSH2 0x1E19 SWAP1 PUSH1 0x1 SWAP1 PUSH2 0x24E0 JUMP JUMPDEST DUP2 MSTORE PUSH1 0x20 ADD SWAP1 DUP2 MSTORE PUSH1 0x20 ADD PUSH0 KECCAK256 PUSH0 ADD SLOAD GT PUSH2 0x1E68 JUMPI PUSH1 0x40 MLOAD PUSH3 0x461BCD PUSH1 0xE5 SHL DUP2 MSTORE PUSH1 0x20 PUSH1 0x4 DUP3 ADD MSTORE PUSH1 0xF PUSH1 0x24 DUP3 ADD MSTORE PUSH15 0x696E646578206F75742072616E6765 PUSH1 0x88 SHL PUSH1 0x44 DUP3 ADD MSTORE PUSH1 0x64 ADD PUSH2 0x357 JUMP JUMPDEST PUSH0 DUP4 DUP2 MSTORE PUSH1 0x7 PUSH1 0x20 MSTORE PUSH1 0x40 DUP2 KECCAK256 PUSH1 0x8 ADD SLOAD DUP2 SWAP1 PUSH2 0x1E87 SWAP1 PUSH1 0x1 SWAP1 PUSH2 0x24E0 JUMP JUMPDEST SWAP1 POP JUMPDEST PUSH0 PUSH1 0x2 PUSH2 0x1E97 DUP4 DUP6 PUSH2 0x249E JUMP JUMPDEST PUSH2 0x1EA1 SWAP2 SWAP1 PUSH2 0x2557 JUMP JUMPDEST PUSH0 DUP8 DUP2 MSTORE PUSH1 0x8 PUSH1 0x20 SWAP1 DUP2 MSTORE PUSH1 0x40 DUP1 DUP4 KECCAK256 DUP5 DUP5 MSTORE SWAP1 SWAP2 MSTORE SWAP1 KECCAK256 SLOAD SWAP1 SWAP2 POP DUP6 LT ISZERO PUSH2 0x1ECC JUMPI DUP1 SWAP2 POP PUSH2 0x1EF9 JUMP JUMPDEST PUSH0 DUP7 DUP2 MSTORE PUSH1 0x8 PUSH1 0x20 SWAP1 DUP2 MSTORE PUSH1 0x40 DUP1 DUP4 KECCAK256 DUP5 DUP5 MSTORE SWAP1 SWAP2 MSTORE SWAP1 KECCAK256 SLOAD DUP6 LT PUSH2 0x1EF9 JUMPI PUSH2 0x1EF6 DUP2 PUSH1 0x1 PUSH2 0x249E JUMP JUMPDEST SWAP3 POP JUMPDEST DUP2 DUP4 LT PUSH2 0x1F21 JUMPI POP PUSH0 DUP6 DUP2 MSTORE PUSH1 0x8 PUSH1 0x20 SWAP1 DUP2 MSTORE PUSH1 0x40 DUP1 DUP4 KECCAK256 SWAP4 DUP4 MSTORE SWAP3 SWAP1 MSTORE KECCAK256 SWAP2 POP PUSH2 0x125A SWAP1 POP JUMP JUMPDEST POP PUSH2 0x1E8A JUMP JUMPDEST PUSH0 PUSH2 0x1F3B PUSH1 0x1 PUSH1 0x1 PUSH1 0xA0 SHL SUB DUP5 AND DUP4 PUSH2 0x1FAC JUMP JUMPDEST SWAP1 POP DUP1 MLOAD PUSH0 EQ ISZERO DUP1 ISZERO PUSH2 0x1F5F JUMPI POP DUP1 DUP1 PUSH1 0x20 ADD SWAP1 MLOAD DUP2 ADD SWAP1 PUSH2 0x1F5D SWAP2 SWAP1 PUSH2 0x256A JUMP JUMPDEST ISZERO JUMPDEST ISZERO PUSH2 0x973 JUMPI PUSH1 0x40 MLOAD PUSH4 0x5274AFE7 PUSH1 0xE0 SHL DUP2 MSTORE PUSH1 0x1 PUSH1 0x1 PUSH1 0xA0 SHL SUB DUP5 AND PUSH1 0x4 DUP3 ADD MSTORE PUSH1 0x24 ADD PUSH2 0x357 JUMP JUMPDEST PUSH0 PUSH2 0x1F95 DUP3 PUSH2 0x100 PUSH2 0x2585 JUMP JUMPDEST PUSH4 0xFFFFFFFF SWAP3 DUP4 AND DUP5 SWAP1 SHL SWAP3 AND SWAP3 SWAP1 SWAP3 SHR OR SWAP2 SWAP1 POP JUMP JUMPDEST PUSH1 0x60 PUSH2 0x1A2C DUP4 DUP4 PUSH0 DUP5 PUSH0 DUP1 DUP6 PUSH1 0x1 PUSH1 0x1 PUSH1 0xA0 SHL SUB AND DUP5 DUP7 PUSH1 0x40 MLOAD PUSH2 0x1FD0 SWAP2 SWAP1 PUSH2 0x25A9 JUMP JUMPDEST PUSH0 PUSH1 0x40 MLOAD DUP1 DUP4 SUB DUP2 DUP6 DUP8 GAS CALL SWAP3 POP POP POP RETURNDATASIZE DUP1 PUSH0 DUP2 EQ PUSH2 0x200A JUMPI PUSH1 0x40 MLOAD SWAP2 POP PUSH1 0x1F NOT PUSH1 0x3F RETURNDATASIZE ADD AND DUP3 ADD PUSH1 0x40 MSTORE RETURNDATASIZE DUP3 MSTORE RETURNDATASIZE PUSH0 PUSH1 0x20 DUP5 ADD RETURNDATACOPY PUSH2 0x200F JUMP JUMPDEST PUSH1 0x60 SWAP2 POP JUMPDEST POP SWAP2 POP SWAP2 POP PUSH2 0x201F DUP7 DUP4 DUP4 PUSH2 0x2029 JUMP JUMPDEST SWAP7 SWAP6 POP POP POP POP POP POP JUMP JUMPDEST PUSH1 0x60 DUP3 PUSH2 0x203E JUMPI PUSH2 0x2039 DUP3 PUSH2 0x2085 JUMP JUMPDEST PUSH2 0x1A2C JUMP JUMPDEST DUP2 MLOAD ISZERO DUP1 ISZERO PUSH2 0x2055 JUMPI POP PUSH1 0x1 PUSH1 0x1 PUSH1 0xA0 SHL SUB DUP5 AND EXTCODESIZE ISZERO JUMPDEST ISZERO PUSH2 0x207E JUMPI PUSH1 0x40 MLOAD PUSH4 0x9996B315 PUSH1 0xE0 SHL DUP2 MSTORE PUSH1 0x1 PUSH1 0x1 PUSH1 0xA0 SHL SUB DUP6 AND PUSH1 0x4 DUP3 ADD MSTORE PUSH1 0x24 ADD PUSH2 0x357 JUMP JUMPDEST POP DUP1 PUSH2 0x1A2C JUMP JUMPDEST DUP1 MLOAD ISZERO PUSH2 0x2095 JUMPI DUP1 MLOAD DUP1 DUP3 PUSH1 0x20 ADD REVERT JUMPDEST PUSH1 0x40 MLOAD PUSH4 0xA12F521 PUSH1 0xE1 SHL DUP2 MSTORE PUSH1 0x4 ADD PUSH1 0x40 MLOAD DUP1 SWAP2 SUB SWAP1 REVERT JUMPDEST PUSH0 DUP1 PUSH0 DUP1 PUSH1 0x80 DUP6 DUP8 SUB SLT ISZERO PUSH2 0x20C1 JUMPI PUSH0 DUP1 REVERT JUMPDEST POP POP DUP3 CALLDATALOAD SWAP5 PUSH1 0x20 DUP5 ADD CALLDATALOAD SWAP5 POP PUSH1 0x40 DUP5 ADD CALLDATALOAD SWAP4 PUSH1 0x60 ADD CALLDATALOAD SWAP3 POP SWAP1 POP JUMP JUMPDEST PUSH0 PUSH1 0x20 DUP3 DUP5 SUB SLT ISZERO PUSH2 0x20ED JUMPI PUSH0 DUP1 REVERT JUMPDEST POP CALLDATALOAD SWAP2 SWAP1 POP JUMP JUMPDEST DUP1 CALLDATALOAD PUSH1 0x1 PUSH1 0x1 PUSH1 0xA0 SHL SUB DUP2 AND DUP2 EQ PUSH2 0x210A JUMPI PUSH0 DUP1 REVERT JUMPDEST SWAP2 SWAP1 POP JUMP JUMPDEST DUP1 ISZERO ISZERO DUP2 EQ PUSH2 0x4FF JUMPI PUSH0 DUP1 REVERT JUMPDEST PUSH0 DUP1 PUSH0 DUP1 PUSH0 DUP1 PUSH0 DUP1 PUSH0 DUP1 PUSH2 0x140 DUP12 DUP14 SUB SLT ISZERO PUSH2 0x2136 JUMPI PUSH0 DUP1 REVERT JUMPDEST PUSH2 0x213F DUP12 PUSH2 0x20F4 JUMP JUMPDEST SWAP10 POP PUSH1 0x20 DUP12 ADD CALLDATALOAD SWAP9 POP PUSH1 0x40 DUP12 ADD CALLDATALOAD SWAP8 POP PUSH1 0x60 DUP12 ADD CALLDATALOAD SWAP7 POP PUSH1 0x80 DUP12 ADD CALLDATALOAD SWAP6 POP PUSH2 0x2169 PUSH1 0xA0 DUP13 ADD PUSH2 0x20F4 JUMP JUMPDEST SWAP5 POP PUSH1 0xC0 DUP12 ADD CALLDATALOAD SWAP4 POP PUSH2 0x217E PUSH1 0xE0 DUP13 ADD PUSH2 0x20F4 JUMP JUMPDEST SWAP3 POP PUSH2 0x100 DUP12 ADD CALLDATALOAD SWAP2 POP PUSH2 0x120 DUP12 ADD CALLDATALOAD PUSH2 0x2197 DUP2 PUSH2 0x210F JUMP JUMPDEST DUP1 SWAP2 POP POP SWAP3 SWAP6 SWAP9 SWAP12 SWAP2 SWAP5 SWAP8 SWAP11 POP SWAP3 SWAP6 SWAP9 POP JUMP JUMPDEST PUSH0 DUP1 PUSH1 0x40 DUP4 DUP6 SUB SLT ISZERO PUSH2 0x21BB JUMPI PUSH0 DUP1 REVERT JUMPDEST POP POP DUP1 CALLDATALOAD SWAP3 PUSH1 0x20 SWAP1 SWAP2 ADD CALLDATALOAD SWAP2 POP JUMP JUMPDEST PUSH0 DUP1 PUSH0 PUSH1 0x60 DUP5 DUP7 SUB SLT ISZERO PUSH2 0x21DC JUMPI PUSH0 DUP1 REVERT JUMPDEST DUP4 CALLDATALOAD SWAP3 POP PUSH2 0x21EC PUSH1 0x20 DUP6 ADD PUSH2 0x20F4 JUMP JUMPDEST SWAP2 POP PUSH1 0x40 DUP5 ADD CALLDATALOAD SWAP1 POP SWAP3 POP SWAP3 POP SWAP3 JUMP JUMPDEST PUSH4 0x4E487B71 PUSH1 0xE0 SHL PUSH0 MSTORE PUSH1 0x21 PUSH1 0x4 MSTORE PUSH1 0x24 PUSH0 REVERT JUMPDEST PUSH1 0x4 DUP2 LT PUSH2 0x222C JUMPI PUSH4 0x4E487B71 PUSH1 0xE0 SHL PUSH0 MSTORE PUSH1 0x21 PUSH1 0x4 MSTORE PUSH1 0x24 PUSH0 REVERT JUMPDEST SWAP1 MSTORE JUMP JUMPDEST DUP2 MLOAD PUSH1 0x1 PUSH1 0x1 PUSH1 0xA0 SHL SUB AND DUP2 MSTORE PUSH2 0x1E0 DUP2 ADD PUSH1 0x20 DUP4 ADD MLOAD PUSH2 0x2254 PUSH1 0x20 DUP5 ADD DUP3 PUSH2 0x2210 JUMP JUMPDEST POP PUSH1 0x40 DUP4 ADD MLOAD PUSH1 0x40 DUP4 ADD MSTORE PUSH1 0x60 DUP4 ADD MLOAD PUSH1 0x60 DUP4 ADD MSTORE PUSH1 0x80 DUP4 ADD MLOAD PUSH1 0x80 DUP4 ADD MSTORE PUSH1 0xA0 DUP4 ADD MLOAD PUSH1 0xA0 DUP4 ADD MSTORE PUSH1 0xC0 DUP4 ADD MLOAD PUSH1 0xC0 DUP4 ADD MSTORE PUSH1 0xE0 DUP4 ADD MLOAD PUSH1 0xE0 DUP4 ADD MSTORE PUSH2 0x100 DUP1 DUP5 ADD MLOAD DUP2 DUP5 ADD MSTORE POP PUSH2 0x120 DUP1 DUP5 ADD MLOAD DUP2 DUP5 ADD MSTORE POP PUSH2 0x140 DUP1 DUP5 ADD MLOAD DUP2 DUP5 ADD MSTORE POP PUSH2 0x160 DUP1 DUP5 ADD MLOAD DUP2 DUP5 ADD MSTORE POP PUSH2 0x180 DUP1 DUP5 ADD MLOAD PUSH2 0x22DC DUP3 DUP6 ADD DUP3 PUSH1 0x1 PUSH1 0x1 PUSH1 0xA0 SHL SUB AND SWAP1 MSTORE JUMP JUMPDEST POP POP PUSH2 0x1A0 DUP4 DUP2 ADD MLOAD SWAP1 DUP4 ADD MSTORE PUSH2 0x1C0 SWAP3 DUP4 ADD MLOAD ISZERO ISZERO SWAP3 SWAP1 SWAP2 ADD SWAP2 SWAP1 SWAP2 MSTORE SWAP1 JUMP JUMPDEST PUSH0 DUP1 PUSH1 0x40 DUP4 DUP6 SUB SLT ISZERO PUSH2 0x230E JUMPI PUSH0 DUP1 REVERT JUMPDEST PUSH2 0x2317 DUP4 PUSH2 0x20F4 JUMP JUMPDEST SWAP5 PUSH1 0x20 SWAP4 SWAP1 SWAP4 ADD CALLDATALOAD SWAP4 POP POP POP JUMP JUMPDEST PUSH0 PUSH1 0x20 DUP3 DUP5 SUB SLT ISZERO PUSH2 0x2335 JUMPI PUSH0 DUP1 REVERT JUMPDEST PUSH2 0x1A2C DUP3 PUSH2 0x20F4 JUMP JUMPDEST PUSH0 DUP1 PUSH1 0x40 DUP4 DUP6 SUB SLT ISZERO PUSH2 0x234F JUMPI PUSH0 DUP1 REVERT JUMPDEST PUSH2 0x2358 DUP4 PUSH2 0x20F4 JUMP JUMPDEST SWAP2 POP PUSH1 0x20 DUP4 ADD CALLDATALOAD PUSH2 0x2368 DUP2 PUSH2 0x210F JUMP JUMPDEST DUP1 SWAP2 POP POP SWAP3 POP SWAP3 SWAP1 POP JUMP JUMPDEST PUSH0 DUP1 PUSH1 0x40 DUP4 DUP6 SUB SLT ISZERO PUSH2 0x2384 JUMPI PUSH0 DUP1 REVERT JUMPDEST DUP3 CALLDATALOAD SWAP2 POP PUSH2 0x2394 PUSH1 0x20 DUP5 ADD PUSH2 0x20F4 JUMP JUMPDEST SWAP1 POP SWAP3 POP SWAP3 SWAP1 POP JUMP JUMPDEST PUSH0 PUSH1 0x20 DUP3 DUP5 SUB SLT ISZERO PUSH2 0x23AD JUMPI PUSH0 DUP1 REVERT JUMPDEST DUP2 CALLDATALOAD PUSH2 0x1A2C DUP2 PUSH2 0x210F JUMP JUMPDEST PUSH1 0x20 DUP1 DUP3 MSTORE PUSH1 0xC SWAP1 DUP3 ADD MSTORE PUSH12 0x2737BA1037B832B930BA37B9 PUSH1 0xA1 SHL PUSH1 0x40 DUP3 ADD MSTORE PUSH1 0x60 ADD SWAP1 JUMP JUMPDEST SWAP7 DUP8 MSTORE PUSH1 0x20 DUP8 ADD SWAP6 SWAP1 SWAP6 MSTORE PUSH1 0x40 DUP7 ADD SWAP4 SWAP1 SWAP4 MSTORE PUSH1 0x60 DUP6 ADD SWAP2 SWAP1 SWAP2 MSTORE PUSH1 0x1 PUSH1 0x1 PUSH1 0xA0 SHL SUB SWAP1 DUP2 AND PUSH1 0x80 DUP6 ADD MSTORE AND PUSH1 0xA0 DUP4 ADD MSTORE ISZERO ISZERO PUSH1 0xC0 DUP3 ADD MSTORE PUSH1 0xE0 ADD SWAP1 JUMP JUMPDEST PUSH1 0x20 DUP1 DUP3 MSTORE PUSH1 0x17 SWAP1 DUP3 ADD MSTORE PUSH32 0x526564456E76656C6F7065206973206E6F74206F70656E000000000000000000 PUSH1 0x40 DUP3 ADD MSTORE PUSH1 0x60 ADD SWAP1 JUMP JUMPDEST PUSH1 0x20 DUP1 DUP3 MSTORE PUSH1 0x18 SWAP1 DUP3 ADD MSTORE PUSH32 0x526564456E76656C6F7065206973206F7665722074696D650000000000000000 PUSH1 0x40 DUP3 ADD MSTORE PUSH1 0x60 ADD SWAP1 JUMP JUMPDEST PUSH4 0x4E487B71 PUSH1 0xE0 SHL PUSH0 MSTORE PUSH1 0x11 PUSH1 0x4 MSTORE PUSH1 0x24 PUSH0 REVERT JUMPDEST DUP1 DUP3 ADD DUP1 DUP3 GT ISZERO PUSH2 0x125A JUMPI PUSH2 0x125A PUSH2 0x248A JUMP JUMPDEST DUP1 DUP3 MUL DUP2 ISZERO DUP3 DUP3 DIV DUP5 EQ OR PUSH2 0x125A JUMPI PUSH2 0x125A PUSH2 0x248A JUMP JUMPDEST PUSH0 PUSH1 0x1 DUP3 ADD PUSH2 0x24D9 JUMPI PUSH2 0x24D9 PUSH2 0x248A JUMP JUMPDEST POP PUSH1 0x1 ADD SWAP1 JUMP JUMPDEST DUP2 DUP2 SUB DUP2 DUP2 GT ISZERO PUSH2 0x125A JUMPI PUSH2 0x125A PUSH2 0x248A JUMP JUMPDEST PUSH4 0x4E487B71 PUSH1 0xE0 SHL PUSH0 MSTORE PUSH1 0x41 PUSH1 0x4 MSTORE PUSH1 0x24 PUSH0 REVERT JUMPDEST PUSH4 0x4E487B71 PUSH1 0xE0 SHL PUSH0 MSTORE PUSH1 0x12 PUSH1 0x4 MSTORE PUSH1 0x24 PUSH0 REVERT JUMPDEST PUSH0 DUP3 PUSH2 0x2529 JUMPI PUSH2 0x2529 PUSH2 0x2507 JUMP JUMPDEST POP MOD SWAP1 JUMP JUMPDEST PUSH4 0x4E487B71 PUSH1 0xE0 SHL PUSH0 MSTORE PUSH1 0x32 PUSH1 0x4 MSTORE PUSH1 0x24 PUSH0 REVERT JUMPDEST PUSH0 DUP2 PUSH2 0x2550 JUMPI PUSH2 0x2550 PUSH2 0x248A JUMP JUMPDEST POP PUSH0 NOT ADD SWAP1 JUMP JUMPDEST PUSH0 DUP3 PUSH2 0x2565 JUMPI PUSH2 0x2565 PUSH2 0x2507 JUMP JUMPDEST POP DIV SWAP1 JUMP JUMPDEST PUSH0 PUSH1 0x20 DUP3 DUP5 SUB SLT ISZERO PUSH2 0x257A JUMPI PUSH0 DUP1 REVERT JUMPDEST DUP2 MLOAD PUSH2 0x1A2C DUP2 PUSH2 0x210F JUMP JUMPDEST PUSH4 0xFFFFFFFF DUP3 DUP2 AND DUP3 DUP3 AND SUB SWAP1 DUP1 DUP3 GT ISZERO PUSH2 0x25A2 JUMPI PUSH2 0x25A2 PUSH2 0x248A JUMP JUMPDEST POP SWAP3 SWAP2 POP POP JUMP JUMPDEST PUSH0 DUP3 MLOAD DUP1 PUSH1 0x20 DUP6 ADD DUP5 MCOPY PUSH0 SWAP3 ADD SWAP2 DUP3 MSTORE POP SWAP2 SWAP1 POP JUMP INVALID LOG2 PUSH5 0x6970667358 0x22 SLT KECCAK256 DUP1 0xA8 PUSH29 0x28513CCC9DF02B93FE5EA97FF3DD4FBE1A2835DFA747D4258BDF24789A PUSH5 0x736F6C6343 STOP ADDMOD NOT STOP CALLER "
		},
		"gasEstimates": {
			"creation": {
				"codeDepositCost": "1943400",
				"executionCost": "infinite",
				"totalCost": "infinite"
			},
			"external": {
				"buyTickets(uint256,address,uint256)": "infinite",
				"claimPrize(uint256)": "infinite",
				"createRedEnvelope(uint256,uint256,uint256,uint256)": "252454",
				"createRedEnvelopeDetail(address,uint256,uint256,uint256,uint256,address,uint256,address,uint256,bool)": "infinite",
				"currentId()": "2349",
				"defaultAutoClaim()": "2354",
				"defaultTicketPirce()": "2373",
				"defaultTicketToken()": "2359",
				"drawPrize(uint256,uint256)": "infinite",
				"endRedEnvelope(uint256)": "83988",
				"injectTickets(uint256,uint256)": "infinite",
				"operatorAddressList(address)": "2595",
				"owner()": "2386",
				"renounceOwnership()": "infinite",
				"sendTickets(uint256,address,uint256)": "infinite",
				"setDefaultAutoClaim(bool)": "27907",
				"setOperatorAddress(address,bool)": "28288",
				"setTicketToken(address,uint256)": "50345",
				"transferOwnership(address)": "28421",
				"viewCurrentRedEnvelopeId()": "2413",
				"viewRedEnvelope(uint256)": "31252",
				"viewRedEnvelopeClaimPrize(uint256,address)": "2685",
				"viewRedEnvelopeStatus(uint256)": "2624"
			},
			"internal": {
				"_calculatePrize(uint256,uint256,uint256[] memory)": "infinite",
				"_claimPrize(uint256,address)": "infinite",
				"_createRedEnvelope(address,uint256,uint256,uint256,uint256,uint256,bool)": "185577",
				"_deriveRandom(uint256,uint256)": "infinite",
				"_fillTicket(uint256,address,uint256,bool)": "infinite",
				"_getSortRandoms(uint256,uint256,uint256)": "infinite",
				"_getTicketbyIndex(uint256,uint256)": "infinite",
				"_injectTickets(uint256,address,uint256)": "infinite",
				"_leftRotate(uint256,uint32)": "156",
				"_returnInject(uint256)": "infinite"
			}
		},
		"methodIdentifiers": {
			"buyTickets(uint256,address,uint256)": "c5e7bb33",
			"claimPrize(uint256)": "d7098154",
			"createRedEnvelope(uint256,uint256,uint256,uint256)": "0e9e1262",
			"createRedEnvelopeDetail(address,uint256,uint256,uint256,uint256,address,uint256,address,uint256,bool)": "4a42c8f6",
			"currentId()": "e00dd161",
			"defaultAutoClaim()": "a210d5e0",
			"defaultTicketPirce()": "4bfec3aa",
			"defaultTicketToken()": "959acdaf",
			"drawPrize(uint256,uint256)": "bce3468d",
			"endRedEnvelope(uint256)": "3834efe1",
			"injectTickets(uint256,uint256)": "559f24bc",
			"operatorAddressList(address)": "bc6bce91",
			"owner()": "8da5cb5b",
			"renounceOwnership()": "715018a6",
			"sendTickets(uint256,address,uint256)": "5c42e0c5",
			"setDefaultAutoClaim(bool)": "f41188ed",
			"setOperatorAddress(address,bool)": "d9828174",
			"setTicketToken(address,uint256)": "903606c5",
			"transferOwnership(address)": "f2fde38b",
			"viewCurrentRedEnvelopeId()": "94456fa4",
			"viewRedEnvelope(uint256)": "8f91cd17",
			"viewRedEnvelopeClaimPrize(uint256,address)": "dc912a81",
			"viewRedEnvelopeStatus(uint256)": "fe5c5976"
		}
	},
	"abi": [
		{
			"inputs": [
				{
					"internalType": "address",
					"name": "_operatorAddress",
					"type": "address"
				},
				{
					"internalType": "address",
					"name": "_defaultTicketToken",
					"type": "address"
				},
				{
					"internalType": "uint256",
					"name": "_defaultTicketPirce",
					"type": "uint256"
				}
			],
			"stateMutability": "nonpayable",
			"type": "constructor"
		},
		{
			"inputs": [
				{
					"internalType": "address",
					"name": "target",
					"type": "address"
				}
			],
			"name": "AddressEmptyCode",
			"type": "error"
		},
		{
			"inputs": [
				{
					"internalType": "address",
					"name": "account",
					"type": "address"
				}
			],
			"name": "AddressInsufficientBalance",
			"type": "error"
		},
		{
			"inputs": [],
			"name": "FailedInnerCall",
			"type": "error"
		},
		{
			"inputs": [
				{
					"internalType": "address",
					"name": "owner",
					"type": "address"
				}
			],
			"name": "OwnableInvalidOwner",
			"type": "error"
		},
		{
			"inputs": [
				{
					"internalType": "address",
					"name": "account",
					"type": "address"
				}
			],
			"name": "OwnableUnauthorizedAccount",
			"type": "error"
		},
		{
			"inputs": [],
			"name": "ReentrancyGuardReentrantCall",
			"type": "error"
		},
		{
			"inputs": [
				{
					"internalType": "address",
					"name": "token",
					"type": "address"
				}
			],
			"name": "SafeERC20FailedOperation",
			"type": "error"
		},
		{
			"anonymous": false,
			"inputs": [
				{
					"indexed": true,
					"internalType": "uint256",
					"name": "id",
					"type": "uint256"
				},
				{
					"indexed": true,
					"internalType": "address",
					"name": "winner",
					"type": "address"
				},
				{
					"indexed": false,
					"internalType": "uint256",
					"name": "totalAmount",
					"type": "uint256"
				},
				{
					"indexed": false,
					"internalType": "bool",
					"name": "autoClaim",
					"type": "bool"
				}
			],
			"name": "ClaimPrize",
			"type": "event"
		},
		{
			"anonymous": false,
			"inputs": [
				{
					"indexed": false,
					"internalType": "bool",
					"name": "defaultAutoClaim",
					"type": "bool"
				}
			],
			"name": "DefaultAutoClaimChange",
			"type": "event"
		},
		{
			"anonymous": false,
			"inputs": [
				{
					"indexed": false,
					"internalType": "address",
					"name": "defaultTicketToken",
					"type": "address"
				},
				{
					"indexed": false,
					"internalType": "uint256",
					"name": "defaultTicketPirce",
					"type": "uint256"
				}
			],
			"name": "DefaultTokenChange",
			"type": "event"
		},
		{
			"anonymous": false,
			"inputs": [
				{
					"indexed": false,
					"internalType": "address",
					"name": "operatorAddress",
					"type": "address"
				},
				{
					"indexed": false,
					"internalType": "bool",
					"name": "opt",
					"type": "bool"
				}
			],
			"name": "OperatorAddress",
			"type": "event"
		},
		{
			"anonymous": false,
			"inputs": [
				{
					"indexed": true,
					"internalType": "address",
					"name": "previousOwner",
					"type": "address"
				},
				{
					"indexed": true,
					"internalType": "address",
					"name": "newOwner",
					"type": "address"
				}
			],
			"name": "OwnershipTransferred",
			"type": "event"
		},
		{
			"anonymous": false,
			"inputs": [
				{
					"indexed": true,
					"internalType": "uint256",
					"name": "id",
					"type": "uint256"
				},
				{
					"indexed": true,
					"internalType": "address",
					"name": "winner",
					"type": "address"
				},
				{
					"indexed": true,
					"internalType": "uint256",
					"name": "index",
					"type": "uint256"
				},
				{
					"indexed": false,
					"internalType": "uint256",
					"name": "amount",
					"type": "uint256"
				},
				{
					"indexed": false,
					"internalType": "bool",
					"name": "autoClaim",
					"type": "bool"
				}
			],
			"name": "PrizeDrawn",
			"type": "event"
		},
		{
			"anonymous": false,
			"inputs": [
				{
					"indexed": true,
					"internalType": "uint256",
					"name": "id",
					"type": "uint256"
				},
				{
					"indexed": false,
					"internalType": "uint256",
					"name": "endTime",
					"type": "uint256"
				}
			],
			"name": "RedEnvelopeClaimable",
			"type": "event"
		},
		{
			"anonymous": false,
			"inputs": [
				{
					"indexed": true,
					"internalType": "uint256",
					"name": "id",
					"type": "uint256"
				},
				{
					"indexed": false,
					"internalType": "uint256",
					"name": "endTime",
					"type": "uint256"
				},
				{
					"indexed": false,
					"internalType": "uint256",
					"name": "buyTickets",
					"type": "uint256"
				},
				{
					"indexed": false,
					"internalType": "uint256",
					"name": "sendTickets",
					"type": "uint256"
				},
				{
					"indexed": false,
					"internalType": "uint256",
					"name": "injectTickets",
					"type": "uint256"
				}
			],
			"name": "RedEnvelopeClosed",
			"type": "event"
		},
		{
			"anonymous": false,
			"inputs": [
				{
					"indexed": true,
					"internalType": "uint256",
					"name": "id",
					"type": "uint256"
				},
				{
					"indexed": false,
					"internalType": "uint256",
					"name": "endTime",
					"type": "uint256"
				},
				{
					"indexed": false,
					"internalType": "uint256",
					"name": "maxTickets",
					"type": "uint256"
				},
				{
					"indexed": false,
					"internalType": "uint256",
					"name": "maxPrizeNum",
					"type": "uint256"
				},
				{
					"indexed": false,
					"internalType": "uint256",
					"name": "ticketPirce",
					"type": "uint256"
				},
				{
					"indexed": false,
					"internalType": "address",
					"name": "ticketToken",
					"type": "address"
				},
				{
					"indexed": false,
					"internalType": "address",
					"name": "sendAllowAddr",
					"type": "address"
				},
				{
					"indexed": false,
					"internalType": "bool",
					"name": "autoClaim",
					"type": "bool"
				}
			],
			"name": "RedEnvelopeCreated",
			"type": "event"
		},
		{
			"anonymous": false,
			"inputs": [
				{
					"indexed": true,
					"internalType": "uint256",
					"name": "id",
					"type": "uint256"
				},
				{
					"indexed": true,
					"internalType": "address",
					"name": "sender",
					"type": "address"
				},
				{
					"indexed": true,
					"internalType": "address",
					"name": "receiveAddress",
					"type": "address"
				},
				{
					"indexed": false,
					"internalType": "uint256",
					"name": "ticketIndex",
					"type": "uint256"
				},
				{
					"indexed": false,
					"internalType": "uint256",
					"name": "ticketNumbers",
					"type": "uint256"
				}
			],
			"name": "TicketsGet",
			"type": "event"
		},
		{
			"anonymous": false,
			"inputs": [
				{
					"indexed": true,
					"internalType": "uint256",
					"name": "id",
					"type": "uint256"
				},
				{
					"indexed": true,
					"internalType": "address",
					"name": "sender",
					"type": "address"
				},
				{
					"indexed": false,
					"internalType": "uint256",
					"name": "ticketNumbers",
					"type": "uint256"
				}
			],
			"name": "TicketsInject",
			"type": "event"
		},
		{
			"anonymous": false,
			"inputs": [
				{
					"indexed": true,
					"internalType": "uint256",
					"name": "id",
					"type": "uint256"
				},
				{
					"indexed": true,
					"internalType": "address",
					"name": "sender",
					"type": "address"
				},
				{
					"indexed": true,
					"internalType": "address",
					"name": "receiveAddress",
					"type": "address"
				},
				{
					"indexed": false,
					"internalType": "uint256",
					"name": "ticketIndex",
					"type": "uint256"
				},
				{
					"indexed": false,
					"internalType": "uint256",
					"name": "ticketNumbers",
					"type": "uint256"
				}
			],
			"name": "TicketsPurchase",
			"type": "event"
		},
		{
			"inputs": [
				{
					"internalType": "uint256",
					"name": "_id",
					"type": "uint256"
				},
				{
					"internalType": "address",
					"name": "_receiveAddress",
					"type": "address"
				},
				{
					"internalType": "uint256",
					"name": "_ticketNumbers",
					"type": "uint256"
				}
			],
			"name": "buyTickets",
			"outputs": [],
			"stateMutability": "nonpayable",
			"type": "function"
		},
		{
			"inputs": [
				{
					"internalType": "uint256",
					"name": "_id",
					"type": "uint256"
				}
			],
			"name": "claimPrize",
			"outputs": [],
			"stateMutability": "nonpayable",
			"type": "function"
		},
		{
			"inputs": [
				{
					"internalType": "uint256",
					"name": "_endTime",
					"type": "uint256"
				},
				{
					"internalType": "uint256",
					"name": "_maxTickets",
					"type": "uint256"
				},
				{
					"internalType": "uint256",
					"name": "_maxPrizeNum",
					"type": "uint256"
				},
				{
					"internalType": "uint256",
					"name": "_secret",
					"type": "uint256"
				}
			],
			"name": "createRedEnvelope",
			"outputs": [],
			"stateMutability": "nonpayable",
			"type": "function"
		},
		{
			"inputs": [
				{
					"internalType": "address",
					"name": "_tokenAddress",
					"type": "address"
				},
				{
					"internalType": "uint256",
					"name": "_ticketPirce",
					"type": "uint256"
				},
				{
					"internalType": "uint256",
					"name": "_endTime",
					"type": "uint256"
				},
				{
					"internalType": "uint256",
					"name": "_maxTickets",
					"type": "uint256"
				},
				{
					"internalType": "uint256",
					"name": "_maxPrizeNum",
					"type": "uint256"
				},
				{
					"internalType": "address",
					"name": "_injectAddress",
					"type": "address"
				},
				{
					"internalType": "uint256",
					"name": "_injectTicketNum",
					"type": "uint256"
				},
				{
					"internalType": "address",
					"name": "_sendAllowAddr",
					"type": "address"
				},
				{
					"internalType": "uint256",
					"name": "_secret",
					"type": "uint256"
				},
				{
					"internalType": "bool",
					"name": "_autoClaim",
					"type": "bool"
				}
			],
			"name": "createRedEnvelopeDetail",
			"outputs": [],
			"stateMutability": "nonpayable",
			"type": "function"
		},
		{
			"inputs": [],
			"name": "currentId",
			"outputs": [
				{
					"internalType": "uint256",
					"name": "",
					"type": "uint256"
				}
			],
			"stateMutability": "view",
			"type": "function"
		},
		{
			"inputs": [],
			"name": "defaultAutoClaim",
			"outputs": [
				{
					"internalType": "bool",
					"name": "",
					"type": "bool"
				}
			],
			"stateMutability": "view",
			"type": "function"
		},
		{
			"inputs": [],
			"name": "defaultTicketPirce",
			"outputs": [
				{
					"internalType": "uint256",
					"name": "",
					"type": "uint256"
				}
			],
			"stateMutability": "view",
			"type": "function"
		},
		{
			"inputs": [],
			"name": "defaultTicketToken",
			"outputs": [
				{
					"internalType": "address",
					"name": "",
					"type": "address"
				}
			],
			"stateMutability": "view",
			"type": "function"
		},
		{
			"inputs": [
				{
					"internalType": "uint256",
					"name": "_id",
					"type": "uint256"
				},
				{
					"internalType": "uint256",
					"name": "_nonce",
					"type": "uint256"
				}
			],
			"name": "drawPrize",
			"outputs": [],
			"stateMutability": "nonpayable",
			"type": "function"
		},
		{
			"inputs": [
				{
					"internalType": "uint256",
					"name": "_id",
					"type": "uint256"
				}
			],
			"name": "endRedEnvelope",
			"outputs": [],
			"stateMutability": "nonpayable",
			"type": "function"
		},
		{
			"inputs": [
				{
					"internalType": "uint256",
					"name": "_id",
					"type": "uint256"
				},
				{
					"internalType": "uint256",
					"name": "_ticketNumbers",
					"type": "uint256"
				}
			],
			"name": "injectTickets",
			"outputs": [],
			"stateMutability": "nonpayable",
			"type": "function"
		},
		{
			"inputs": [
				{
					"internalType": "address",
					"name": "",
					"type": "address"
				}
			],
			"name": "operatorAddressList",
			"outputs": [
				{
					"internalType": "bool",
					"name": "",
					"type": "bool"
				}
			],
			"stateMutability": "view",
			"type": "function"
		},
		{
			"inputs": [],
			"name": "owner",
			"outputs": [
				{
					"internalType": "address",
					"name": "",
					"type": "address"
				}
			],
			"stateMutability": "view",
			"type": "function"
		},
		{
			"inputs": [],
			"name": "renounceOwnership",
			"outputs": [],
			"stateMutability": "nonpayable",
			"type": "function"
		},
		{
			"inputs": [
				{
					"internalType": "uint256",
					"name": "_id",
					"type": "uint256"
				},
				{
					"internalType": "address",
					"name": "_receiveAddress",
					"type": "address"
				},
				{
					"internalType": "uint256",
					"name": "_ticketNumbers",
					"type": "uint256"
				}
			],
			"name": "sendTickets",
			"outputs": [],
			"stateMutability": "nonpayable",
			"type": "function"
		},
		{
			"inputs": [
				{
					"internalType": "bool",
					"name": "_defaultAutoClaim",
					"type": "bool"
				}
			],
			"name": "setDefaultAutoClaim",
			"outputs": [],
			"stateMutability": "nonpayable",
			"type": "function"
		},
		{
			"inputs": [
				{
					"internalType": "address",
					"name": "_operatorAddress",
					"type": "address"
				},
				{
					"internalType": "bool",
					"name": "_opt",
					"type": "bool"
				}
			],
			"name": "setOperatorAddress",
			"outputs": [],
			"stateMutability": "nonpayable",
			"type": "function"
		},
		{
			"inputs": [
				{
					"internalType": "address",
					"name": "_defaultTicketToken",
					"type": "address"
				},
				{
					"internalType": "uint256",
					"name": "_defaultTicketPirce",
					"type": "uint256"
				}
			],
			"name": "setTicketToken",
			"outputs": [],
			"stateMutability": "nonpayable",
			"type": "function"
		},
		{
			"inputs": [
				{
					"internalType": "address",
					"name": "newOwner",
					"type": "address"
				}
			],
			"name": "transferOwnership",
			"outputs": [],
			"stateMutability": "nonpayable",
			"type": "function"
		},
		{
			"inputs": [],
			"name": "viewCurrentRedEnvelopeId",
			"outputs": [
				{
					"internalType": "uint256",
					"name": "",
					"type": "uint256"
				}
			],
			"stateMutability": "view",
			"type": "function"
		},
		{
			"inputs": [
				{
					"internalType": "uint256",
					"name": "_id",
					"type": "uint256"
				}
			],
			"name": "viewRedEnvelope",
			"outputs": [
				{
					"components": [
						{
							"internalType": "address",
							"name": "ticketToken",
							"type": "address"
						},
						{
							"internalType": "enum Status",
							"name": "status",
							"type": "uint8"
						},
						{
							"internalType": "uint256",
							"name": "endTime",
							"type": "uint256"
						},
						{
							"internalType": "uint256",
							"name": "maxTickets",
							"type": "uint256"
						},
						{
							"internalType": "uint256",
							"name": "maxPrizeNum",
							"type": "uint256"
						},
						{
							"internalType": "uint256",
							"name": "buyTickets",
							"type": "uint256"
						},
						{
							"internalType": "uint256",
							"name": "sendTickets",
							"type": "uint256"
						},
						{
							"internalType": "uint256",
							"name": "injectTickets",
							"type": "uint256"
						},
						{
							"internalType": "uint256",
							"name": "userAddrNum",
							"type": "uint256"
						},
						{
							"internalType": "uint256",
							"name": "userTxNum",
							"type": "uint256"
						},
						{
							"internalType": "uint256",
							"name": "injectAddrNum",
							"type": "uint256"
						},
						{
							"internalType": "uint256",
							"name": "ticketPirce",
							"type": "uint256"
						},
						{
							"internalType": "address",
							"name": "sendAllowAddr",
							"type": "address"
						},
						{
							"internalType": "uint256",
							"name": "secret",
							"type": "uint256"
						},
						{
							"internalType": "bool",
							"name": "autoClaim",
							"type": "bool"
						}
					],
					"internalType": "struct RedEnvelope",
					"name": "",
					"type": "tuple"
				}
			],
			"stateMutability": "view",
			"type": "function"
		},
		{
			"inputs": [
				{
					"internalType": "uint256",
					"name": "_id",
					"type": "uint256"
				},
				{
					"internalType": "address",
					"name": "_user",
					"type": "address"
				}
			],
			"name": "viewRedEnvelopeClaimPrize",
			"outputs": [
				{
					"internalType": "uint256",
					"name": "",
					"type": "uint256"
				}
			],
			"stateMutability": "view",
			"type": "function"
		},
		{
			"inputs": [
				{
					"internalType": "uint256",
					"name": "_id",
					"type": "uint256"
				}
			],
			"name": "viewRedEnvelopeStatus",
			"outputs": [
				{
					"internalType": "uint256",
					"name": "",
					"type": "uint256"
				}
			],
			"stateMutability": "view",
			"type": "function"
		}
	]
}