{
	"data": {
		"bytecode": {
			"linkReferences": {},
			"object": "608060405234801561000f575f80fd5b506040516142e23803806142e2833981810160405281019061003191906103a6565b3360015f819055505f73ffffffffffffffffffffffffffffffffffffffff168173ffffffffffffffffffffffffffffffffffffffff16036100a9575f6040517f1e4fbdf70000000000000000000000000000000000000000000000000000000081526004016100a09190610405565b60405180910390fd5b6100b88161025260201b60201c565b50600160065f8573ffffffffffffffffffffffffffffffffffffffff1673ffffffffffffffffffffffffffffffffffffffff1681526020019081526020015f205f6101000a81548160ff021916908315150217905550600160055f6101000a81548160ff0219169083151502179055508160025f6101000a81548173ffffffffffffffffffffffffffffffffffffffff021916908373ffffffffffffffffffffffffffffffffffffffff160217905550806004819055507fedae46487653623e513ea3b3341c9e6b457a2ef687d0342d2507ccb63458b19f8360016040516101a1929190610438565b60405180910390a17f6fe9a4ab2e95e24b2be44989dc36a685149dfde9354d486a8da5cb4bbd01b01060055f9054906101000a900460ff166040516101e6919061045f565b60405180910390a17fdc907cb17a7da8e1dffad2b7205a6ca1111cbb38a0f1f4b2b60a31eb673ca4a260025f9054906101000a900473ffffffffffffffffffffffffffffffffffffffff16600454604051610242929190610487565b60405180910390a15050506104ae565b5f60015f9054906101000a900473ffffffffffffffffffffffffffffffffffffffff1690508160015f6101000a81548173ffffffffffffffffffffffffffffffffffffffff021916908373ffffffffffffffffffffffffffffffffffffffff1602179055508173ffffffffffffffffffffffffffffffffffffffff168173ffffffffffffffffffffffffffffffffffffffff167f8be0079c531659141344cd1fd0a4f28419497f9722a3daafe3b4186f6b6457e060405160405180910390a35050565b5f80fd5b5f73ffffffffffffffffffffffffffffffffffffffff82169050919050565b5f61034282610319565b9050919050565b61035281610338565b811461035c575f80fd5b50565b5f8151905061036d81610349565b92915050565b5f819050919050565b61038581610373565b811461038f575f80fd5b50565b5f815190506103a08161037c565b92915050565b5f805f606084860312156103bd576103bc610315565b5b5f6103ca8682870161035f565b93505060206103db8682870161035f565b92505060406103ec86828701610392565b9150509250925092565b6103ff81610338565b82525050565b5f6020820190506104185f8301846103f6565b92915050565b5f8115159050919050565b6104328161041e565b82525050565b5f60408201905061044b5f8301856103f6565b6104586020830184610429565b9392505050565b5f6020820190506104725f830184610429565b92915050565b61048181610373565b82525050565b5f60408201905061049a5f8301856103f6565b6104a76020830184610478565b9392505050565b613e27806104bb5f395ff3fe608060405234801561000f575f80fd5b5060043610610135575f3560e01c8063a210d5e0116100b6578063d70981541161007a578063d7098154146102e9578063d982817414610305578063e00dd16114610321578063f2fde38b1461033f578063f41188ed1461035b578063fe5c59761461037757610135565b8063a210d5e014610247578063b4d9741914610265578063bc6bce9114610281578063bce3468d146102b1578063c5e7bb33146102cd57610135565b8063715018a6116100fd578063715018a6146101c75780638da5cb5b146101d1578063903606c5146101ef57806394456fa41461020b578063959acdaf1461022957610135565b80630e9e1262146101395780633834efe1146101555780633ddb7f19146101715780634bfec3aa1461018d578063559f24bc146101ab575b5f80fd5b610153600480360381019061014e9190612f43565b6103a7565b005b61016f600480360381019061016a9190612fa7565b610481565b005b61018b6004803603810190610186919061302c565b61064b565b005b6101956109e1565b6040516101a2919061308b565b60405180910390f35b6101c560048036038101906101c091906130a4565b6109e7565b005b6101cf610b41565b005b6101d9610b54565b6040516101e691906130f1565b60405180910390f35b6102096004803603810190610204919061310a565b610b7c565b005b610213610cb3565b604051610220919061308b565b60405180910390f35b610231610cbc565b60405161023e91906130f1565b60405180910390f35b61024f610ce1565b60405161025c9190613162565b60405180910390f35b61027f600480360381019061027a919061317b565b610cf3565b005b61029b6004803603810190610296919061323f565b610daf565b6040516102a89190613162565b60405180910390f35b6102cb60048036038101906102c691906130a4565b610dcc565b005b6102e760048036038101906102e2919061302c565b6111bd565b005b61030360048036038101906102fe9190612fa7565b611536565b005b61031f600480360381019061031a9190613294565b61163f565b005b610329611746565b604051610336919061308b565b60405180910390f35b6103596004803603810190610354919061323f565b61174c565b005b610375600480360381019061037091906132d2565b6117d0565b005b610391600480360381019061038c9190612fa7565b6118c1565b60405161039e919061308b565b60405180910390f35b6001151560065f3373ffffffffffffffffffffffffffffffffffffffff1673ffffffffffffffffffffffffffffffffffffffff1681526020019081526020015f205f9054906101000a900460ff16151514610437576040517f08c379a000000000000000000000000000000000000000000000000000000000815260040161042e90613357565b60405180910390fd5b61043f6118fc565b61047360025f9054906101000a900473ffffffffffffffffffffffffffffffffffffffff166004548686865f805f89611940565b61047b611aef565b50505050565b6001151560065f3373ffffffffffffffffffffffffffffffffffffffff1673ffffffffffffffffffffffffffffffffffffffff1681526020019081526020015f205f9054906101000a900460ff16151514610511576040517f08c379a000000000000000000000000000000000000000000000000000000000815260040161050890613357565b60405180910390fd5b6105196118fc565b6001600381111561052d5761052c613375565b5b60075f8381526020019081526020015f205f0160149054906101000a900460ff1660038111156105605761055f613375565b5b146105a0576040517f08c379a0000000000000000000000000000000000000000000000000000000008152600401610597906133ec565b60405180910390fd5b600260075f8381526020019081526020015f205f0160146101000a81548160ff021916908360038111156105d7576105d6613375565b5b0217905550807f4e7abaf6039e145cbdc465859479a7f979153a7c1a4e5662c425afe2a794c7854260075f8581526020019081526020015f206005015460075f8681526020019081526020015f20600701546040516106389392919061340a565b60405180910390a2610648611aef565b50565b6106536118fc565b6001600381111561066757610666613375565b5b60075f8581526020019081526020015f205f0160149054906101000a900460ff16600381111561069a57610699613375565b5b146106da576040517f08c379a00000000000000000000000000000000000000000000000000000000081526004016106d1906133ec565b60405180910390fd5b5f73ffffffffffffffffffffffffffffffffffffffff1660075f8581526020019081526020015f20600c015f9054906101000a900473ffffffffffffffffffffffffffffffffffffffff1673ffffffffffffffffffffffffffffffffffffffff160361077b576040517f08c379a000000000000000000000000000000000000000000000000000000000815260040161077290613489565b60405180910390fd5b3373ffffffffffffffffffffffffffffffffffffffff1660075f8581526020019081526020015f20600c015f9054906101000a900473ffffffffffffffffffffffffffffffffffffffff1673ffffffffffffffffffffffffffffffffffffffff161461081c576040517f08c379a0000000000000000000000000000000000000000000000000000000008152600401610813906134f1565b60405180910390fd5b5f810361085e576040517f08c379a000000000000000000000000000000000000000000000000000000000815260040161085590613559565b60405180910390fd5b5f60075f8581526020019081526020015f2060020154146108d05760075f8481526020019081526020015f206002015442106108cf576040517f08c379a00000000000000000000000000000000000000000000000000000000081526004016108c6906135c1565b60405180910390fd5b5b5f60075f8581526020019081526020015f2060030154146109625760075f8481526020019081526020015f20600301548160075f8681526020019081526020015f2060050154610920919061360c565b1115610961576040517f08c379a000000000000000000000000000000000000000000000000000000000815260040161095890613689565b60405180910390fd5b5b61096e8383835f611af8565b8173ffffffffffffffffffffffffffffffffffffffff163373ffffffffffffffffffffffffffffffffffffffff16847f0cdb228e331696a3755ff9db076df661228408ca1178178951e48ae952567c1f846040516109cc919061308b565b60405180910390a46109dc611aef565b505050565b60045481565b6109ef6118fc565b5f8103610a31576040517f08c379a0000000000000000000000000000000000000000000000000000000008152600401610a28906136f1565b60405180910390fd5b60016003811115610a4557610a44613375565b5b60075f8481526020019081526020015f205f0160149054906101000a900460ff166003811115610a7857610a77613375565b5b14610ab8576040517f08c379a0000000000000000000000000000000000000000000000000000000008152600401610aaf906133ec565b60405180910390fd5b5f60075f8481526020019081526020015f206002015414610b2a5760075f8381526020019081526020015f20600201544210610b29576040517f08c379a0000000000000000000000000000000000000000000000000000000008152600401610b20906135c1565b60405180910390fd5b5b610b35823383611e84565b610b3d611aef565b5050565b610b496120e6565b610b525f61216d565b565b5f60015f9054906101000a900473ffffffffffffffffffffffffffffffffffffffff16905090565b6001151560065f3373ffffffffffffffffffffffffffffffffffffffff1673ffffffffffffffffffffffffffffffffffffffff1681526020019081526020015f205f9054906101000a900460ff16151514610c0c576040517f08c379a0000000000000000000000000000000000000000000000000000000008152600401610c0390613357565b60405180910390fd5b8160025f6101000a81548173ffffffffffffffffffffffffffffffffffffffff021916908373ffffffffffffffffffffffffffffffffffffffff160217905550806004819055507fdc907cb17a7da8e1dffad2b7205a6ca1111cbb38a0f1f4b2b60a31eb673ca4a260025f9054906101000a900473ffffffffffffffffffffffffffffffffffffffff16600454604051610ca792919061370f565b60405180910390a15050565b5f600354905090565b60025f9054906101000a900473ffffffffffffffffffffffffffffffffffffffff1681565b60055f9054906101000a900460ff1681565b6001151560065f3373ffffffffffffffffffffffffffffffffffffffff1673ffffffffffffffffffffffffffffffffffffffff1681526020019081526020015f205f9054906101000a900460ff16151514610d83576040517f08c379a0000000000000000000000000000000000000000000000000000000008152600401610d7a90613357565b60405180910390fd5b610d8b6118fc565b610d9c898989898989898989611940565b610da4611aef565b505050505050505050565b6006602052805f5260405f205f915054906101000a900460ff1681565b6001151560065f3373ffffffffffffffffffffffffffffffffffffffff1673ffffffffffffffffffffffffffffffffffffffff1681526020019081526020015f205f9054906101000a900460ff16151514610e5c576040517f08c379a0000000000000000000000000000000000000000000000000000000008152600401610e5390613357565b60405180910390fd5b610e646118fc565b60026003811115610e7857610e77613375565b5b60075f8481526020019081526020015f205f0160149054906101000a900460ff166003811115610eab57610eaa613375565b5b14610eeb576040517f08c379a0000000000000000000000000000000000000000000000000000000008152600401610ee290613780565b60405180910390fd5b600360075f8481526020019081526020015f205f0160146101000a81548160ff02191690836003811115610f2257610f21613375565b5b0217905550817f66f6b4cd34444af165fb78bce3996496528b37af161c26f737b7341cc37063bb42604051610f57919061308b565b60405180910390a25f60075f8481526020019081526020015f206006015460075f8581526020019081526020015f2060050154610f94919061360c565b90505f8103610fac57610fa683612230565b506111b1565b5f8290505f82905060075f8681526020019081526020015f206004015481118015610feb57505f60075f8781526020019081526020015f206004015414155b156110085760075f8681526020019081526020015f206004015490505b5f60075f8781526020019081526020015f206005015460075f8881526020019081526020015f206007015461103d919061360c565b90505f8160075f8981526020019081526020015f20600b0154611060919061379e565b90505f61106e8585846123aa565b905061107b88858361252e565b60075f8981526020019081526020015f20600e015f9054906101000a900460ff16156111aa575f5b60075f8a81526020019081526020015f20600801548110156111a8575f600c5f8b81526020019081526020015f205f600b5f8d81526020019081526020015f205f8581526020019081526020015f205f9054906101000a900473ffffffffffffffffffffffffffffffffffffffff1673ffffffffffffffffffffffffffffffffffffffff1673ffffffffffffffffffffffffffffffffffffffff1681526020019081526020015f20541461119b5761119a89600b5f8c81526020019081526020015f205f8481526020019081526020015f205f9054906101000a900473ffffffffffffffffffffffffffffffffffffffff166127b1565b5b80806001019150506110a3565b505b5050505050505b6111b9611aef565b5050565b6111c56118fc565b600160038111156111d9576111d8613375565b5b60075f8581526020019081526020015f205f0160149054906101000a900460ff16600381111561120c5761120b613375565b5b1461124c576040517f08c379a0000000000000000000000000000000000000000000000000000000008152600401611243906133ec565b60405180910390fd5b5f73ffffffffffffffffffffffffffffffffffffffff1660075f8581526020019081526020015f20600c015f9054906101000a900473ffffffffffffffffffffffffffffffffffffffff1673ffffffffffffffffffffffffffffffffffffffff16146112ed576040517f08c379a00000000000000000000000000000000000000000000000000000000081526004016112e490613829565b60405180910390fd5b5f810361132f576040517f08c379a000000000000000000000000000000000000000000000000000000000815260040161132690613559565b60405180910390fd5b5f60075f8581526020019081526020015f2060020154146113a15760075f8481526020019081526020015f206002015442106113a0576040517f08c379a0000000000000000000000000000000000000000000000000000000008152600401611397906135c1565b60405180910390fd5b5b5f60075f8581526020019081526020015f2060030154146114335760075f8481526020019081526020015f20600301548160075f8681526020019081526020015f20600501546113f1919061360c565b1115611432576040517f08c379a000000000000000000000000000000000000000000000000000000000815260040161142990613689565b60405180910390fd5b5b5f8160075f8681526020019081526020015f20600b0154611454919061379e565b90506114b533308360075f8981526020019081526020015f205f015f9054906101000a900473ffffffffffffffffffffffffffffffffffffffff1673ffffffffffffffffffffffffffffffffffffffff166129b1909392919063ffffffff16565b6114c28484846001611af8565b8273ffffffffffffffffffffffffffffffffffffffff163373ffffffffffffffffffffffffffffffffffffffff16857fc711bfbe9284c7d96adbb9ebad39767e13c00b6b5cd4ca300fec0d969309a40785604051611520919061308b565b60405180910390a450611531611aef565b505050565b61153e6118fc565b60038081111561155157611550613375565b5b60075f8381526020019081526020015f205f0160149054906101000a900460ff16600381111561158457611583613375565b5b146115c4576040517f08c379a00000000000000000000000000000000000000000000000000000000081526004016115bb90613891565b60405180910390fd5b5f151560075f8381526020019081526020015f20600e015f9054906101000a900460ff1615151461162a576040517f08c379a0000000000000000000000000000000000000000000000000000000008152600401611621906138f9565b60405180910390fd5b61163481336127b1565b61163c611aef565b50565b6116476120e6565b5f73ffffffffffffffffffffffffffffffffffffffff168273ffffffffffffffffffffffffffffffffffffffff16036116b5576040517f08c379a00000000000000000000000000000000000000000000000000000000081526004016116ac90613961565b60405180910390fd5b8060065f8473ffffffffffffffffffffffffffffffffffffffff1673ffffffffffffffffffffffffffffffffffffffff1681526020019081526020015f205f6101000a81548160ff0219169083151502179055507fedae46487653623e513ea3b3341c9e6b457a2ef687d0342d2507ccb63458b19f828260405161173a92919061397f565b60405180910390a15050565b60035481565b6117546120e6565b5f73ffffffffffffffffffffffffffffffffffffffff168173ffffffffffffffffffffffffffffffffffffffff16036117c4575f6040517f1e4fbdf70000000000000000000000000000000000000000000000000000000081526004016117bb91906130f1565b60405180910390fd5b6117cd8161216d565b50565b6001151560065f3373ffffffffffffffffffffffffffffffffffffffff1673ffffffffffffffffffffffffffffffffffffffff1681526020019081526020015f205f9054906101000a900460ff16151514611860576040517f08c379a000000000000000000000000000000000000000000000000000000000815260040161185790613357565b60405180910390fd5b8060055f6101000a81548160ff0219169083151502179055507f6fe9a4ab2e95e24b2be44989dc36a685149dfde9354d486a8da5cb4bbd01b01060055f9054906101000a900460ff166040516118b69190613162565b60405180910390a150565b5f60075f8381526020019081526020015f205f0160149054906101000a900460ff1660038111156118f5576118f4613375565b5b9050919050565b60025f5403611937576040517f3ee5aeb500000000000000000000000000000000000000000000000000000000815260040160405180910390fd5b60025f81905550565b60035f815480929190611952906139a6565b91905055505f60075f60035481526020019081526020015f20905089815f015f6101000a81548173ffffffffffffffffffffffffffffffffffffffff021916908373ffffffffffffffffffffffffffffffffffffffff1602179055506001815f0160146101000a81548160ff021916908360038111156119d5576119d4613375565b5b02179055504281600101819055508781600201819055508681600301819055508581600401819055508881600b01819055508181600d018190555060055f9054906101000a900460ff1681600e015f6101000a81548160ff0219169083151502179055508281600c015f6101000a81548173ffffffffffffffffffffffffffffffffffffffff021916908373ffffffffffffffffffffffffffffffffffffffff1602179055506003547f4c987e6c9f6aad2cfe1d70875b12f8b9af9a28ca87e789bfef279084bf0354cd428a8a8d8860055f9054906101000a900460ff16604051611ac5969594939291906139ed565b60405180910390a25f841115611ae357611ae26003548686611e84565b5b50505050505050505050565b60015f81905550565b5f8060075f8781526020019081526020015f206009015414611b5a5760085f8681526020019081526020015f205f600160075f8981526020019081526020015f2060090154611b479190613a4c565b81526020019081526020015f205f015490505b60405180606001604052808483611b71919061360c565b81526020018573ffffffffffffffffffffffffffffffffffffffff16815260200183151581525060085f8781526020019081526020015f205f60075f8981526020019081526020015f206009015481526020019081526020015f205f820151815f01556020820151816001015f6101000a81548173ffffffffffffffffffffffffffffffffffffffff021916908373ffffffffffffffffffffffffffffffffffffffff16021790555060408201518160010160146101000a81548160ff0219169083151502179055509050508115611c80578260075f8781526020019081526020015f2060050154611c63919061360c565b60075f8781526020019081526020015f2060050181905550611cb9565b8260075f8781526020019081526020015f2060060154611ca0919061360c565b60075f8781526020019081526020015f20600601819055505b5f600a5f8781526020019081526020015f205f8673ffffffffffffffffffffffffffffffffffffffff1673ffffffffffffffffffffffffffffffffffffffff1681526020019081526020015f205403611daa5783600b5f8781526020019081526020015f205f60075f8981526020019081526020015f206008015481526020019081526020015f205f6101000a81548173ffffffffffffffffffffffffffffffffffffffff021916908373ffffffffffffffffffffffffffffffffffffffff160217905550600160075f8781526020019081526020015f206008015f828254611da2919061360c565b925050819055505b600160075f8781526020019081526020015f206009015f828254611dce919061360c565b9250508190555082600a5f8781526020019081526020015f205f8673ffffffffffffffffffffffffffffffffffffffff1673ffffffffffffffffffffffffffffffffffffffff1681526020019081526020015f2054611e2d919061360c565b600a5f8781526020019081526020015f205f8673ffffffffffffffffffffffffffffffffffffffff1673ffffffffffffffffffffffffffffffffffffffff1681526020019081526020015f20819055505050505050565b5f8160075f8681526020019081526020015f20600b0154611ea5919061379e565b9050611f0683308360075f8981526020019081526020015f205f015f9054906101000a900473ffffffffffffffffffffffffffffffffffffffff1673ffffffffffffffffffffffffffffffffffffffff166129b1909392919063ffffffff16565b8160075f60035481526020019081526020015f206007015f828254611f2b919061360c565b925050819055505f600e5f60035481526020019081526020015f205f8573ffffffffffffffffffffffffffffffffffffffff1673ffffffffffffffffffffffffffffffffffffffff1681526020019081526020015f20540361202b5782600d5f60035481526020019081526020015f205f60075f60035481526020019081526020015f20600a015481526020019081526020015f205f6101000a81548173ffffffffffffffffffffffffffffffffffffffff021916908373ffffffffffffffffffffffffffffffffffffffff160217905550600160075f60035481526020019081526020015f20600a015f828254612023919061360c565b925050819055505b81600e5f60035481526020019081526020015f205f8573ffffffffffffffffffffffffffffffffffffffff1673ffffffffffffffffffffffffffffffffffffffff1681526020019081526020015f205f828254612088919061360c565b925050819055508273ffffffffffffffffffffffffffffffffffffffff166003547fa95519638524dcea0d5d0102c719d77dc3d8b1ae68d2d1e37c79be21bc7b113b846040516120d8919061308b565b60405180910390a350505050565b6120ee612a33565b73ffffffffffffffffffffffffffffffffffffffff1661210c610b54565b73ffffffffffffffffffffffffffffffffffffffff161461216b5761212f612a33565b6040517f118cdaa700000000000000000000000000000000000000000000000000000000815260040161216291906130f1565b60405180910390fd5b565b5f60015f9054906101000a900473ffffffffffffffffffffffffffffffffffffffff1690508160015f6101000a81548173ffffffffffffffffffffffffffffffffffffffff021916908373ffffffffffffffffffffffffffffffffffffffff1602179055508173ffffffffffffffffffffffffffffffffffffffff168173ffffffffffffffffffffffffffffffffffffffff167f8be0079c531659141344cd1fd0a4f28419497f9722a3daafe3b4186f6b6457e060405160405180910390a35050565b5f5b60075f8381526020019081526020015f20600a01548110156123a6575f600e5f8481526020019081526020015f205f600d5f8681526020019081526020015f205f8581526020019081526020015f205f9054906101000a900473ffffffffffffffffffffffffffffffffffffffff1673ffffffffffffffffffffffffffffffffffffffff1673ffffffffffffffffffffffffffffffffffffffff1681526020019081526020015f205460075f8581526020019081526020015f20600b01546122fa919061379e565b9050612398600d5f8581526020019081526020015f205f8481526020019081526020015f205f9054906101000a900473ffffffffffffffffffffffffffffffffffffffff168260075f8781526020019081526020015f205f015f9054906101000a900473ffffffffffffffffffffffffffffffffffffffff1673ffffffffffffffffffffffffffffffffffffffff16612a3a9092919063ffffffff16565b508080600101915050612232565b5050565b60605f8367ffffffffffffffff8111156123c7576123c6613a7f565b5b6040519080825280602002602001820160405280156123f55781602001602082028036833780820191505090505b5090505f8590505f5b60018661240b9190613a4c565b8110156124f55761241c8282612ab9565b91505f858361242b9190613ad9565b90505f8290505b6001811015801561246857508460018261244c9190613a4c565b8151811061245d5761245c613b09565b5b602002602001015182105b156124c6578460018261247b9190613a4c565b8151811061248c5761248b613b09565b5b60200260200101518582815181106124a7576124a6613b09565b5b60200260200101818152505080806124be90613b36565b915050612432565b818582815181106124da576124d9613b09565b5b602002602001018181525050505080806001019150506123fe565b5083826001876125059190613a4c565b8151811061251657612515613b09565b5b60200260200101818152505081925050509392505050565b5f8060075f8681526020019081526020015f206006015460075f8781526020019081526020015f2060050154612564919061360c565b90505f5b848110156127a9575f8385838151811061258557612584613b09565b5b60200260200101516125979190613a4c565b90505f82905083871461262c57836125c98785815181106125bb576125ba613b09565b5b602002602001015185612ab9565b6125d39190613ad9565b90505b5f151560095f8a81526020019081526020015f205f8381526020019081526020015f205f9054906101000a900460ff1615151461262b578080612618906139a6565b915050838103612626575f90505b6125d6565b5b600160095f8a81526020019081526020015f205f8381526020019081526020015f205f6101000a81548160ff0219169083151502179055505f61266f8983612b08565b905081816001015f9054906101000a900473ffffffffffffffffffffffffffffffffffffffff1673ffffffffffffffffffffffffffffffffffffffff168a7f927546e38b674f5e5dff7edce9c7afdcf21a35ac03ba70fe8e341f61f2c73ded8660075f8f81526020019081526020015f20600e015f9054906101000a900460ff166040516126fe929190613b5d565b60405180910390a482600c5f8b81526020019081526020015f205f836001015f9054906101000a900473ffffffffffffffffffffffffffffffffffffffff1673ffffffffffffffffffffffffffffffffffffffff1673ffffffffffffffffffffffffffffffffffffffff1681526020019081526020015f205f828254612784919061360c565b925050819055508286612797919061360c565b95505050508080600101915050612568565b505050505050565b5f600c5f8481526020019081526020015f205f8373ffffffffffffffffffffffffffffffffffffffff1673ffffffffffffffffffffffffffffffffffffffff1681526020019081526020015f20540361283f576040517f08c379a000000000000000000000000000000000000000000000000000000000815260040161283690613bce565b60405180910390fd5b5f600c5f8481526020019081526020015f205f8373ffffffffffffffffffffffffffffffffffffffff1673ffffffffffffffffffffffffffffffffffffffff1681526020019081526020015f205490506128ec828260075f8781526020019081526020015f205f015f9054906101000a900473ffffffffffffffffffffffffffffffffffffffff1673ffffffffffffffffffffffffffffffffffffffff16612a3a9092919063ffffffff16565b600c5f8481526020019081526020015f205f8373ffffffffffffffffffffffffffffffffffffffff1673ffffffffffffffffffffffffffffffffffffffff1681526020019081526020015f205f90558173ffffffffffffffffffffffffffffffffffffffff16837f268ef67ed0490cc273925a4865e6fbdb4dcf7e0802aad957aa682a78c7618bef8360075f8881526020019081526020015f20600e015f9054906101000a900460ff166040516129a4929190613b5d565b60405180910390a3505050565b612a2d848573ffffffffffffffffffffffffffffffffffffffff166323b872dd8686866040516024016129e693929190613bec565b604051602081830303815290604052915060e01b6020820180517bffffffffffffffffffffffffffffffffffffffffffffffffffffffff8381831617835250505050612c9d565b50505050565b5f33905090565b612ab4838473ffffffffffffffffffffffffffffffffffffffff1663a9059cbb8585604051602401612a6d92919061370f565b604051602081830303815290604052915060e01b6020820180517bffffffffffffffffffffffffffffffffffffffffffffffffffffffff8381831617835250505050612c9d565b505050565b5f8061010083612ac99190613ad9565b905083612ad68583612d32565b604051602001612ae7929190613c41565b604051602081830303815290604052805190602001205f1c91505092915050565b5f8160085f8581526020019081526020015f205f600160075f8881526020019081526020015f2060090154612b3d9190613a4c565b81526020019081526020015f205f015411612b8d576040517f08c379a0000000000000000000000000000000000000000000000000000000008152600401612b8490613cb6565b60405180910390fd5b5f80600160075f8781526020019081526020015f2060090154612bb09190613a4c565b90505b5f60028284612bc2919061360c565b612bcc9190613cd4565b90508460085f8881526020019081526020015f205f8381526020019081526020015f205f01541115612c0057809150612c3a565b8460085f8881526020019081526020015f205f8381526020019081526020015f205f015411612c3957600181612c36919061360c565b92505b5b818310612c6b5760085f8781526020019081526020015f205f8381526020019081526020015f209350505050612c97565b506001612bb35760085f8681526020019081526020015f205f8081526020019081526020015f20925050505b92915050565b5f612cc7828473ffffffffffffffffffffffffffffffffffffffff16612d5d90919063ffffffff16565b90505f815114158015612ceb575080806020019051810190612ce99190613d18565b155b15612d2d57826040517f5274afe7000000000000000000000000000000000000000000000000000000008152600401612d2491906130f1565b60405180910390fd5b505050565b5f81610100612d419190613d52565b63ffffffff1683901c8263ffffffff1684901b17905092915050565b6060612d6a83835f612d72565b905092915050565b606081471015612db957306040517fcd786059000000000000000000000000000000000000000000000000000000008152600401612db091906130f1565b60405180910390fd5b5f808573ffffffffffffffffffffffffffffffffffffffff168486604051612de19190613ddb565b5f6040518083038185875af1925050503d805f8114612e1b576040519150601f19603f3d011682016040523d82523d5f602084013e612e20565b606091505b5091509150612e30868383612e3b565b925050509392505050565b606082612e5057612e4b82612ec8565b612ec0565b5f8251148015612e7657505f8473ffffffffffffffffffffffffffffffffffffffff163b145b15612eb857836040517f9996b315000000000000000000000000000000000000000000000000000000008152600401612eaf91906130f1565b60405180910390fd5b819050612ec1565b5b9392505050565b5f81511115612eda5780518082602001fd5b6040517f1425ea4200000000000000000000000000000000000000000000000000000000815260040160405180910390fd5b5f80fd5b5f819050919050565b612f2281612f10565b8114612f2c575f80fd5b50565b5f81359050612f3d81612f19565b92915050565b5f805f8060808587031215612f5b57612f5a612f0c565b5b5f612f6887828801612f2f565b9450506020612f7987828801612f2f565b9350506040612f8a87828801612f2f565b9250506060612f9b87828801612f2f565b91505092959194509250565b5f60208284031215612fbc57612fbb612f0c565b5b5f612fc984828501612f2f565b91505092915050565b5f73ffffffffffffffffffffffffffffffffffffffff82169050919050565b5f612ffb82612fd2565b9050919050565b61300b81612ff1565b8114613015575f80fd5b50565b5f8135905061302681613002565b92915050565b5f805f6060848603121561304357613042612f0c565b5b5f61305086828701612f2f565b935050602061306186828701613018565b925050604061307286828701612f2f565b9150509250925092565b61308581612f10565b82525050565b5f60208201905061309e5f83018461307c565b92915050565b5f80604083850312156130ba576130b9612f0c565b5b5f6130c785828601612f2f565b92505060206130d885828601612f2f565b9150509250929050565b6130eb81612ff1565b82525050565b5f6020820190506131045f8301846130e2565b92915050565b5f80604083850312156131205761311f612f0c565b5b5f61312d85828601613018565b925050602061313e85828601612f2f565b9150509250929050565b5f8115159050919050565b61315c81613148565b82525050565b5f6020820190506131755f830184613153565b92915050565b5f805f805f805f805f6101208a8c03121561319957613198612f0c565b5b5f6131a68c828d01613018565b99505060206131b78c828d01612f2f565b98505060406131c88c828d01612f2f565b97505060606131d98c828d01612f2f565b96505060806131ea8c828d01612f2f565b95505060a06131fb8c828d01613018565b94505060c061320c8c828d01612f2f565b93505060e061321d8c828d01613018565b92505061010061322f8c828d01612f2f565b9150509295985092959850929598565b5f6020828403121561325457613253612f0c565b5b5f61326184828501613018565b91505092915050565b61327381613148565b811461327d575f80fd5b50565b5f8135905061328e8161326a565b92915050565b5f80604083850312156132aa576132a9612f0c565b5b5f6132b785828601613018565b92505060206132c885828601613280565b9150509250929050565b5f602082840312156132e7576132e6612f0c565b5b5f6132f484828501613280565b91505092915050565b5f82825260208201905092915050565b7f4e6f74206f70657261746f7200000000000000000000000000000000000000005f82015250565b5f613341600c836132fd565b915061334c8261330d565b602082019050919050565b5f6020820190508181035f83015261336e81613335565b9050919050565b7f4e487b71000000000000000000000000000000000000000000000000000000005f52602160045260245ffd5b7f526564456e76656c6f7065206973206e6f74206f70656e0000000000000000005f82015250565b5f6133d66017836132fd565b91506133e1826133a2565b602082019050919050565b5f6020820190508181035f830152613403816133ca565b9050919050565b5f60608201905061341d5f83018661307c565b61342a602083018561307c565b613437604083018461307c565b949350505050565b7f6e6f20676574207469636b6574206d6f64656c000000000000000000000000005f82015250565b5f6134736013836132fd565b915061347e8261343f565b602082019050919050565b5f6020820190508181035f8301526134a081613467565b9050919050565b7f6e6f7420616c6c6f7720676574207469636b65740000000000000000000000005f82015250565b5f6134db6014836132fd565b91506134e6826134a7565b602082019050919050565b5f6020820190508181035f830152613508816134cf565b9050919050565b7f7469636b65744e756d62657273206e6f207a65726f00000000000000000000005f82015250565b5f6135436015836132fd565b915061354e8261350f565b602082019050919050565b5f6020820190508181035f83015261357081613537565b9050919050565b7f526564456e76656c6f7065206973206f7665722074696d6500000000000000005f82015250565b5f6135ab6018836132fd565b91506135b682613577565b602082019050919050565b5f6020820190508181035f8301526135d88161359f565b9050919050565b7f4e487b71000000000000000000000000000000000000000000000000000000005f52601160045260245ffd5b5f61361682612f10565b915061362183612f10565b9250828201905080821115613639576136386135df565b5b92915050565b7f526564456e76656c6f7065206973206f766572207469636b65740000000000005f82015250565b5f613673601a836132fd565b915061367e8261363f565b602082019050919050565b5f6020820190508181035f8301526136a081613667565b9050919050565b7f696e6a656374206e6f207a65726f0000000000000000000000000000000000005f82015250565b5f6136db600e836132fd565b91506136e6826136a7565b602082019050919050565b5f6020820190508181035f830152613708816136cf565b9050919050565b5f6040820190506137225f8301856130e2565b61372f602083018461307c565b9392505050565b7f526564456e76656c6f7065206e6f7420636c6f736500000000000000000000005f82015250565b5f61376a6015836132fd565b915061377582613736565b602082019050919050565b5f6020820190508181035f8301526137978161375e565b9050919050565b5f6137a882612f10565b91506137b383612f10565b92508282026137c181612f10565b915082820484148315176137d8576137d76135df565b5b5092915050565b7f6e6f20627579207469636b6574206d6f64656c000000000000000000000000005f82015250565b5f6138136013836132fd565b915061381e826137df565b602082019050919050565b5f6020820190508181035f83015261384081613807565b9050919050565b7f526564456e76656c6f7065206e6f7420636c61696d61626c65000000000000005f82015250565b5f61387b6019836132fd565b915061388682613847565b602082019050919050565b5f6020820190508181035f8301526138a88161386f565b9050919050565b7f526564456e76656c6f7065206175746f20636c61696d000000000000000000005f82015250565b5f6138e36016836132fd565b91506138ee826138af565b602082019050919050565b5f6020820190508181035f830152613910816138d7565b9050919050565b7f43616e6e6f74206265207a65726f2061646472657373000000000000000000005f82015250565b5f61394b6016836132fd565b915061395682613917565b602082019050919050565b5f6020820190508181035f8301526139788161393f565b9050919050565b5f6040820190506139925f8301856130e2565b61399f6020830184613153565b9392505050565b5f6139b082612f10565b91507fffffffffffffffffffffffffffffffffffffffffffffffffffffffffffffffff82036139e2576139e16135df565b5b600182019050919050565b5f60c082019050613a005f83018961307c565b613a0d602083018861307c565b613a1a604083018761307c565b613a27606083018661307c565b613a3460808301856130e2565b613a4160a0830184613153565b979650505050505050565b5f613a5682612f10565b9150613a6183612f10565b9250828203905081811115613a7957613a786135df565b5b92915050565b7f4e487b71000000000000000000000000000000000000000000000000000000005f52604160045260245ffd5b7f4e487b71000000000000000000000000000000000000000000000000000000005f52601260045260245ffd5b5f613ae382612f10565b9150613aee83612f10565b925082613afe57613afd613aac565b5b828206905092915050565b7f4e487b71000000000000000000000000000000000000000000000000000000005f52603260045260245ffd5b5f613b4082612f10565b91505f8203613b5257613b516135df565b5b600182039050919050565b5f604082019050613b705f83018561307c565b613b7d6020830184613153565b9392505050565b7f6e6f207072697a650000000000000000000000000000000000000000000000005f82015250565b5f613bb86008836132fd565b9150613bc382613b84565b602082019050919050565b5f6020820190508181035f830152613be581613bac565b9050919050565b5f606082019050613bff5f8301866130e2565b613c0c60208301856130e2565b613c19604083018461307c565b949350505050565b5f819050919050565b613c3b613c3682612f10565b613c21565b82525050565b5f613c4c8285613c2a565b602082019150613c5c8284613c2a565b6020820191508190509392505050565b7f696e646578206f75742072616e676500000000000000000000000000000000005f82015250565b5f613ca0600f836132fd565b9150613cab82613c6c565b602082019050919050565b5f6020820190508181035f830152613ccd81613c94565b9050919050565b5f613cde82612f10565b9150613ce983612f10565b925082613cf957613cf8613aac565b5b828204905092915050565b5f81519050613d128161326a565b92915050565b5f60208284031215613d2d57613d2c612f0c565b5b5f613d3a84828501613d04565b91505092915050565b5f63ffffffff82169050919050565b5f613d5c82613d43565b9150613d6783613d43565b9250828203905063ffffffff811115613d8357613d826135df565b5b92915050565b5f81519050919050565b5f81905092915050565b8281835e5f83830152505050565b5f613db582613d89565b613dbf8185613d93565b9350613dcf818560208601613d9d565b80840191505092915050565b5f613de68284613dab565b91508190509291505056fea26469706673582212206d84bd066a9c6ee713bd27915faac4091fd4a1247ff740c75bd3bd17cebaf50e64736f6c63430008190033",
			"opcodes": "PUSH1 0x80 PUSH1 0x40 MSTORE CALLVALUE DUP1 ISZERO PUSH2 0xF JUMPI PUSH0 DUP1 REVERT JUMPDEST POP PUSH1 0x40 MLOAD PUSH2 0x42E2 CODESIZE SUB DUP1 PUSH2 0x42E2 DUP4 CODECOPY DUP2 DUP2 ADD PUSH1 0x40 MSTORE DUP2 ADD SWAP1 PUSH2 0x31 SWAP2 SWAP1 PUSH2 0x3A6 JUMP JUMPDEST CALLER PUSH1 0x1 PUSH0 DUP2 SWAP1 SSTORE POP PUSH0 PUSH20 0xFFFFFFFFFFFFFFFFFFFFFFFFFFFFFFFFFFFFFFFF AND DUP2 PUSH20 0xFFFFFFFFFFFFFFFFFFFFFFFFFFFFFFFFFFFFFFFF AND SUB PUSH2 0xA9 JUMPI PUSH0 PUSH1 0x40 MLOAD PUSH32 0x1E4FBDF700000000000000000000000000000000000000000000000000000000 DUP2 MSTORE PUSH1 0x4 ADD PUSH2 0xA0 SWAP2 SWAP1 PUSH2 0x405 JUMP JUMPDEST PUSH1 0x40 MLOAD DUP1 SWAP2 SUB SWAP1 REVERT JUMPDEST PUSH2 0xB8 DUP2 PUSH2 0x252 PUSH1 0x20 SHL PUSH1 0x20 SHR JUMP JUMPDEST POP PUSH1 0x1 PUSH1 0x6 PUSH0 DUP6 PUSH20 0xFFFFFFFFFFFFFFFFFFFFFFFFFFFFFFFFFFFFFFFF AND PUSH20 0xFFFFFFFFFFFFFFFFFFFFFFFFFFFFFFFFFFFFFFFF AND DUP2 MSTORE PUSH1 0x20 ADD SWAP1 DUP2 MSTORE PUSH1 0x20 ADD PUSH0 KECCAK256 PUSH0 PUSH2 0x100 EXP DUP2 SLOAD DUP2 PUSH1 0xFF MUL NOT AND SWAP1 DUP4 ISZERO ISZERO MUL OR SWAP1 SSTORE POP PUSH1 0x1 PUSH1 0x5 PUSH0 PUSH2 0x100 EXP DUP2 SLOAD DUP2 PUSH1 0xFF MUL NOT AND SWAP1 DUP4 ISZERO ISZERO MUL OR SWAP1 SSTORE POP DUP2 PUSH1 0x2 PUSH0 PUSH2 0x100 EXP DUP2 SLOAD DUP2 PUSH20 0xFFFFFFFFFFFFFFFFFFFFFFFFFFFFFFFFFFFFFFFF MUL NOT AND SWAP1 DUP4 PUSH20 0xFFFFFFFFFFFFFFFFFFFFFFFFFFFFFFFFFFFFFFFF AND MUL OR SWAP1 SSTORE POP DUP1 PUSH1 0x4 DUP2 SWAP1 SSTORE POP PUSH32 0xEDAE46487653623E513EA3B3341C9E6B457A2EF687D0342D2507CCB63458B19F DUP4 PUSH1 0x1 PUSH1 0x40 MLOAD PUSH2 0x1A1 SWAP3 SWAP2 SWAP1 PUSH2 0x438 JUMP JUMPDEST PUSH1 0x40 MLOAD DUP1 SWAP2 SUB SWAP1 LOG1 PUSH32 0x6FE9A4AB2E95E24B2BE44989DC36A685149DFDE9354D486A8DA5CB4BBD01B010 PUSH1 0x5 PUSH0 SWAP1 SLOAD SWAP1 PUSH2 0x100 EXP SWAP1 DIV PUSH1 0xFF AND PUSH1 0x40 MLOAD PUSH2 0x1E6 SWAP2 SWAP1 PUSH2 0x45F JUMP JUMPDEST PUSH1 0x40 MLOAD DUP1 SWAP2 SUB SWAP1 LOG1 PUSH32 0xDC907CB17A7DA8E1DFFAD2B7205A6CA1111CBB38A0F1F4B2B60A31EB673CA4A2 PUSH1 0x2 PUSH0 SWAP1 SLOAD SWAP1 PUSH2 0x100 EXP SWAP1 DIV PUSH20 0xFFFFFFFFFFFFFFFFFFFFFFFFFFFFFFFFFFFFFFFF AND PUSH1 0x4 SLOAD PUSH1 0x40 MLOAD PUSH2 0x242 SWAP3 SWAP2 SWAP1 PUSH2 0x487 JUMP JUMPDEST PUSH1 0x40 MLOAD DUP1 SWAP2 SUB SWAP1 LOG1 POP POP POP PUSH2 0x4AE JUMP JUMPDEST PUSH0 PUSH1 0x1 PUSH0 SWAP1 SLOAD SWAP1 PUSH2 0x100 EXP SWAP1 DIV PUSH20 0xFFFFFFFFFFFFFFFFFFFFFFFFFFFFFFFFFFFFFFFF AND SWAP1 POP DUP2 PUSH1 0x1 PUSH0 PUSH2 0x100 EXP DUP2 SLOAD DUP2 PUSH20 0xFFFFFFFFFFFFFFFFFFFFFFFFFFFFFFFFFFFFFFFF MUL NOT AND SWAP1 DUP4 PUSH20 0xFFFFFFFFFFFFFFFFFFFFFFFFFFFFFFFFFFFFFFFF AND MUL OR SWAP1 SSTORE POP DUP2 PUSH20 0xFFFFFFFFFFFFFFFFFFFFFFFFFFFFFFFFFFFFFFFF AND DUP2 PUSH20 0xFFFFFFFFFFFFFFFFFFFFFFFFFFFFFFFFFFFFFFFF AND PUSH32 0x8BE0079C531659141344CD1FD0A4F28419497F9722A3DAAFE3B4186F6B6457E0 PUSH1 0x40 MLOAD PUSH1 0x40 MLOAD DUP1 SWAP2 SUB SWAP1 LOG3 POP POP JUMP JUMPDEST PUSH0 DUP1 REVERT JUMPDEST PUSH0 PUSH20 0xFFFFFFFFFFFFFFFFFFFFFFFFFFFFFFFFFFFFFFFF DUP3 AND SWAP1 POP SWAP2 SWAP1 POP JUMP JUMPDEST PUSH0 PUSH2 0x342 DUP3 PUSH2 0x319 JUMP JUMPDEST SWAP1 POP SWAP2 SWAP1 POP JUMP JUMPDEST PUSH2 0x352 DUP2 PUSH2 0x338 JUMP JUMPDEST DUP2 EQ PUSH2 0x35C JUMPI PUSH0 DUP1 REVERT JUMPDEST POP JUMP JUMPDEST PUSH0 DUP2 MLOAD SWAP1 POP PUSH2 0x36D DUP2 PUSH2 0x349 JUMP JUMPDEST SWAP3 SWAP2 POP POP JUMP JUMPDEST PUSH0 DUP2 SWAP1 POP SWAP2 SWAP1 POP JUMP JUMPDEST PUSH2 0x385 DUP2 PUSH2 0x373 JUMP JUMPDEST DUP2 EQ PUSH2 0x38F JUMPI PUSH0 DUP1 REVERT JUMPDEST POP JUMP JUMPDEST PUSH0 DUP2 MLOAD SWAP1 POP PUSH2 0x3A0 DUP2 PUSH2 0x37C JUMP JUMPDEST SWAP3 SWAP2 POP POP JUMP JUMPDEST PUSH0 DUP1 PUSH0 PUSH1 0x60 DUP5 DUP7 SUB SLT ISZERO PUSH2 0x3BD JUMPI PUSH2 0x3BC PUSH2 0x315 JUMP JUMPDEST JUMPDEST PUSH0 PUSH2 0x3CA DUP7 DUP3 DUP8 ADD PUSH2 0x35F JUMP JUMPDEST SWAP4 POP POP PUSH1 0x20 PUSH2 0x3DB DUP7 DUP3 DUP8 ADD PUSH2 0x35F JUMP JUMPDEST SWAP3 POP POP PUSH1 0x40 PUSH2 0x3EC DUP7 DUP3 DUP8 ADD PUSH2 0x392 JUMP JUMPDEST SWAP2 POP POP SWAP3 POP SWAP3 POP SWAP3 JUMP JUMPDEST PUSH2 0x3FF DUP2 PUSH2 0x338 JUMP JUMPDEST DUP3 MSTORE POP POP JUMP JUMPDEST PUSH0 PUSH1 0x20 DUP3 ADD SWAP1 POP PUSH2 0x418 PUSH0 DUP4 ADD DUP5 PUSH2 0x3F6 JUMP JUMPDEST SWAP3 SWAP2 POP POP JUMP JUMPDEST PUSH0 DUP2 ISZERO ISZERO SWAP1 POP SWAP2 SWAP1 POP JUMP JUMPDEST PUSH2 0x432 DUP2 PUSH2 0x41E JUMP JUMPDEST DUP3 MSTORE POP POP JUMP JUMPDEST PUSH0 PUSH1 0x40 DUP3 ADD SWAP1 POP PUSH2 0x44B PUSH0 DUP4 ADD DUP6 PUSH2 0x3F6 JUMP JUMPDEST PUSH2 0x458 PUSH1 0x20 DUP4 ADD DUP5 PUSH2 0x429 JUMP JUMPDEST SWAP4 SWAP3 POP POP POP JUMP JUMPDEST PUSH0 PUSH1 0x20 DUP3 ADD SWAP1 POP PUSH2 0x472 PUSH0 DUP4 ADD DUP5 PUSH2 0x429 JUMP JUMPDEST SWAP3 SWAP2 POP POP JUMP JUMPDEST PUSH2 0x481 DUP2 PUSH2 0x373 JUMP JUMPDEST DUP3 MSTORE POP POP JUMP JUMPDEST PUSH0 PUSH1 0x40 DUP3 ADD SWAP1 POP PUSH2 0x49A PUSH0 DUP4 ADD DUP6 PUSH2 0x3F6 JUMP JUMPDEST PUSH2 0x4A7 PUSH1 0x20 DUP4 ADD DUP5 PUSH2 0x478 JUMP JUMPDEST SWAP4 SWAP3 POP POP POP JUMP JUMPDEST PUSH2 0x3E27 DUP1 PUSH2 0x4BB PUSH0 CODECOPY PUSH0 RETURN INVALID PUSH1 0x80 PUSH1 0x40 MSTORE CALLVALUE DUP1 ISZERO PUSH2 0xF JUMPI PUSH0 DUP1 REVERT JUMPDEST POP PUSH1 0x4 CALLDATASIZE LT PUSH2 0x135 JUMPI PUSH0 CALLDATALOAD PUSH1 0xE0 SHR DUP1 PUSH4 0xA210D5E0 GT PUSH2 0xB6 JUMPI DUP1 PUSH4 0xD7098154 GT PUSH2 0x7A JUMPI DUP1 PUSH4 0xD7098154 EQ PUSH2 0x2E9 JUMPI DUP1 PUSH4 0xD9828174 EQ PUSH2 0x305 JUMPI DUP1 PUSH4 0xE00DD161 EQ PUSH2 0x321 JUMPI DUP1 PUSH4 0xF2FDE38B EQ PUSH2 0x33F JUMPI DUP1 PUSH4 0xF41188ED EQ PUSH2 0x35B JUMPI DUP1 PUSH4 0xFE5C5976 EQ PUSH2 0x377 JUMPI PUSH2 0x135 JUMP JUMPDEST DUP1 PUSH4 0xA210D5E0 EQ PUSH2 0x247 JUMPI DUP1 PUSH4 0xB4D97419 EQ PUSH2 0x265 JUMPI DUP1 PUSH4 0xBC6BCE91 EQ PUSH2 0x281 JUMPI DUP1 PUSH4 0xBCE3468D EQ PUSH2 0x2B1 JUMPI DUP1 PUSH4 0xC5E7BB33 EQ PUSH2 0x2CD JUMPI PUSH2 0x135 JUMP JUMPDEST DUP1 PUSH4 0x715018A6 GT PUSH2 0xFD JUMPI DUP1 PUSH4 0x715018A6 EQ PUSH2 0x1C7 JUMPI DUP1 PUSH4 0x8DA5CB5B EQ PUSH2 0x1D1 JUMPI DUP1 PUSH4 0x903606C5 EQ PUSH2 0x1EF JUMPI DUP1 PUSH4 0x94456FA4 EQ PUSH2 0x20B JUMPI DUP1 PUSH4 0x959ACDAF EQ PUSH2 0x229 JUMPI PUSH2 0x135 JUMP JUMPDEST DUP1 PUSH4 0xE9E1262 EQ PUSH2 0x139 JUMPI DUP1 PUSH4 0x3834EFE1 EQ PUSH2 0x155 JUMPI DUP1 PUSH4 0x3DDB7F19 EQ PUSH2 0x171 JUMPI DUP1 PUSH4 0x4BFEC3AA EQ PUSH2 0x18D JUMPI DUP1 PUSH4 0x559F24BC EQ PUSH2 0x1AB JUMPI JUMPDEST PUSH0 DUP1 REVERT JUMPDEST PUSH2 0x153 PUSH1 0x4 DUP1 CALLDATASIZE SUB DUP2 ADD SWAP1 PUSH2 0x14E SWAP2 SWAP1 PUSH2 0x2F43 JUMP JUMPDEST PUSH2 0x3A7 JUMP JUMPDEST STOP JUMPDEST PUSH2 0x16F PUSH1 0x4 DUP1 CALLDATASIZE SUB DUP2 ADD SWAP1 PUSH2 0x16A SWAP2 SWAP1 PUSH2 0x2FA7 JUMP JUMPDEST PUSH2 0x481 JUMP JUMPDEST STOP JUMPDEST PUSH2 0x18B PUSH1 0x4 DUP1 CALLDATASIZE SUB DUP2 ADD SWAP1 PUSH2 0x186 SWAP2 SWAP1 PUSH2 0x302C JUMP JUMPDEST PUSH2 0x64B JUMP JUMPDEST STOP JUMPDEST PUSH2 0x195 PUSH2 0x9E1 JUMP JUMPDEST PUSH1 0x40 MLOAD PUSH2 0x1A2 SWAP2 SWAP1 PUSH2 0x308B JUMP JUMPDEST PUSH1 0x40 MLOAD DUP1 SWAP2 SUB SWAP1 RETURN JUMPDEST PUSH2 0x1C5 PUSH1 0x4 DUP1 CALLDATASIZE SUB DUP2 ADD SWAP1 PUSH2 0x1C0 SWAP2 SWAP1 PUSH2 0x30A4 JUMP JUMPDEST PUSH2 0x9E7 JUMP JUMPDEST STOP JUMPDEST PUSH2 0x1CF PUSH2 0xB41 JUMP JUMPDEST STOP JUMPDEST PUSH2 0x1D9 PUSH2 0xB54 JUMP JUMPDEST PUSH1 0x40 MLOAD PUSH2 0x1E6 SWAP2 SWAP1 PUSH2 0x30F1 JUMP JUMPDEST PUSH1 0x40 MLOAD DUP1 SWAP2 SUB SWAP1 RETURN JUMPDEST PUSH2 0x209 PUSH1 0x4 DUP1 CALLDATASIZE SUB DUP2 ADD SWAP1 PUSH2 0x204 SWAP2 SWAP1 PUSH2 0x310A JUMP JUMPDEST PUSH2 0xB7C JUMP JUMPDEST STOP JUMPDEST PUSH2 0x213 PUSH2 0xCB3 JUMP JUMPDEST PUSH1 0x40 MLOAD PUSH2 0x220 SWAP2 SWAP1 PUSH2 0x308B JUMP JUMPDEST PUSH1 0x40 MLOAD DUP1 SWAP2 SUB SWAP1 RETURN JUMPDEST PUSH2 0x231 PUSH2 0xCBC JUMP JUMPDEST PUSH1 0x40 MLOAD PUSH2 0x23E SWAP2 SWAP1 PUSH2 0x30F1 JUMP JUMPDEST PUSH1 0x40 MLOAD DUP1 SWAP2 SUB SWAP1 RETURN JUMPDEST PUSH2 0x24F PUSH2 0xCE1 JUMP JUMPDEST PUSH1 0x40 MLOAD PUSH2 0x25C SWAP2 SWAP1 PUSH2 0x3162 JUMP JUMPDEST PUSH1 0x40 MLOAD DUP1 SWAP2 SUB SWAP1 RETURN JUMPDEST PUSH2 0x27F PUSH1 0x4 DUP1 CALLDATASIZE SUB DUP2 ADD SWAP1 PUSH2 0x27A SWAP2 SWAP1 PUSH2 0x317B JUMP JUMPDEST PUSH2 0xCF3 JUMP JUMPDEST STOP JUMPDEST PUSH2 0x29B PUSH1 0x4 DUP1 CALLDATASIZE SUB DUP2 ADD SWAP1 PUSH2 0x296 SWAP2 SWAP1 PUSH2 0x323F JUMP JUMPDEST PUSH2 0xDAF JUMP JUMPDEST PUSH1 0x40 MLOAD PUSH2 0x2A8 SWAP2 SWAP1 PUSH2 0x3162 JUMP JUMPDEST PUSH1 0x40 MLOAD DUP1 SWAP2 SUB SWAP1 RETURN JUMPDEST PUSH2 0x2CB PUSH1 0x4 DUP1 CALLDATASIZE SUB DUP2 ADD SWAP1 PUSH2 0x2C6 SWAP2 SWAP1 PUSH2 0x30A4 JUMP JUMPDEST PUSH2 0xDCC JUMP JUMPDEST STOP JUMPDEST PUSH2 0x2E7 PUSH1 0x4 DUP1 CALLDATASIZE SUB DUP2 ADD SWAP1 PUSH2 0x2E2 SWAP2 SWAP1 PUSH2 0x302C JUMP JUMPDEST PUSH2 0x11BD JUMP JUMPDEST STOP JUMPDEST PUSH2 0x303 PUSH1 0x4 DUP1 CALLDATASIZE SUB DUP2 ADD SWAP1 PUSH2 0x2FE SWAP2 SWAP1 PUSH2 0x2FA7 JUMP JUMPDEST PUSH2 0x1536 JUMP JUMPDEST STOP JUMPDEST PUSH2 0x31F PUSH1 0x4 DUP1 CALLDATASIZE SUB DUP2 ADD SWAP1 PUSH2 0x31A SWAP2 SWAP1 PUSH2 0x3294 JUMP JUMPDEST PUSH2 0x163F JUMP JUMPDEST STOP JUMPDEST PUSH2 0x329 PUSH2 0x1746 JUMP JUMPDEST PUSH1 0x40 MLOAD PUSH2 0x336 SWAP2 SWAP1 PUSH2 0x308B JUMP JUMPDEST PUSH1 0x40 MLOAD DUP1 SWAP2 SUB SWAP1 RETURN JUMPDEST PUSH2 0x359 PUSH1 0x4 DUP1 CALLDATASIZE SUB DUP2 ADD SWAP1 PUSH2 0x354 SWAP2 SWAP1 PUSH2 0x323F JUMP JUMPDEST PUSH2 0x174C JUMP JUMPDEST STOP JUMPDEST PUSH2 0x375 PUSH1 0x4 DUP1 CALLDATASIZE SUB DUP2 ADD SWAP1 PUSH2 0x370 SWAP2 SWAP1 PUSH2 0x32D2 JUMP JUMPDEST PUSH2 0x17D0 JUMP JUMPDEST STOP JUMPDEST PUSH2 0x391 PUSH1 0x4 DUP1 CALLDATASIZE SUB DUP2 ADD SWAP1 PUSH2 0x38C SWAP2 SWAP1 PUSH2 0x2FA7 JUMP JUMPDEST PUSH2 0x18C1 JUMP JUMPDEST PUSH1 0x40 MLOAD PUSH2 0x39E SWAP2 SWAP1 PUSH2 0x308B JUMP JUMPDEST PUSH1 0x40 MLOAD DUP1 SWAP2 SUB SWAP1 RETURN JUMPDEST PUSH1 0x1 ISZERO ISZERO PUSH1 0x6 PUSH0 CALLER PUSH20 0xFFFFFFFFFFFFFFFFFFFFFFFFFFFFFFFFFFFFFFFF AND PUSH20 0xFFFFFFFFFFFFFFFFFFFFFFFFFFFFFFFFFFFFFFFF AND DUP2 MSTORE PUSH1 0x20 ADD SWAP1 DUP2 MSTORE PUSH1 0x20 ADD PUSH0 KECCAK256 PUSH0 SWAP1 SLOAD SWAP1 PUSH2 0x100 EXP SWAP1 DIV PUSH1 0xFF AND ISZERO ISZERO EQ PUSH2 0x437 JUMPI PUSH1 0x40 MLOAD PUSH32 0x8C379A000000000000000000000000000000000000000000000000000000000 DUP2 MSTORE PUSH1 0x4 ADD PUSH2 0x42E SWAP1 PUSH2 0x3357 JUMP JUMPDEST PUSH1 0x40 MLOAD DUP1 SWAP2 SUB SWAP1 REVERT JUMPDEST PUSH2 0x43F PUSH2 0x18FC JUMP JUMPDEST PUSH2 0x473 PUSH1 0x2 PUSH0 SWAP1 SLOAD SWAP1 PUSH2 0x100 EXP SWAP1 DIV PUSH20 0xFFFFFFFFFFFFFFFFFFFFFFFFFFFFFFFFFFFFFFFF AND PUSH1 0x4 SLOAD DUP7 DUP7 DUP7 PUSH0 DUP1 PUSH0 DUP10 PUSH2 0x1940 JUMP JUMPDEST PUSH2 0x47B PUSH2 0x1AEF JUMP JUMPDEST POP POP POP POP JUMP JUMPDEST PUSH1 0x1 ISZERO ISZERO PUSH1 0x6 PUSH0 CALLER PUSH20 0xFFFFFFFFFFFFFFFFFFFFFFFFFFFFFFFFFFFFFFFF AND PUSH20 0xFFFFFFFFFFFFFFFFFFFFFFFFFFFFFFFFFFFFFFFF AND DUP2 MSTORE PUSH1 0x20 ADD SWAP1 DUP2 MSTORE PUSH1 0x20 ADD PUSH0 KECCAK256 PUSH0 SWAP1 SLOAD SWAP1 PUSH2 0x100 EXP SWAP1 DIV PUSH1 0xFF AND ISZERO ISZERO EQ PUSH2 0x511 JUMPI PUSH1 0x40 MLOAD PUSH32 0x8C379A000000000000000000000000000000000000000000000000000000000 DUP2 MSTORE PUSH1 0x4 ADD PUSH2 0x508 SWAP1 PUSH2 0x3357 JUMP JUMPDEST PUSH1 0x40 MLOAD DUP1 SWAP2 SUB SWAP1 REVERT JUMPDEST PUSH2 0x519 PUSH2 0x18FC JUMP JUMPDEST PUSH1 0x1 PUSH1 0x3 DUP2 GT ISZERO PUSH2 0x52D JUMPI PUSH2 0x52C PUSH2 0x3375 JUMP JUMPDEST JUMPDEST PUSH1 0x7 PUSH0 DUP4 DUP2 MSTORE PUSH1 0x20 ADD SWAP1 DUP2 MSTORE PUSH1 0x20 ADD PUSH0 KECCAK256 PUSH0 ADD PUSH1 0x14 SWAP1 SLOAD SWAP1 PUSH2 0x100 EXP SWAP1 DIV PUSH1 0xFF AND PUSH1 0x3 DUP2 GT ISZERO PUSH2 0x560 JUMPI PUSH2 0x55F PUSH2 0x3375 JUMP JUMPDEST JUMPDEST EQ PUSH2 0x5A0 JUMPI PUSH1 0x40 MLOAD PUSH32 0x8C379A000000000000000000000000000000000000000000000000000000000 DUP2 MSTORE PUSH1 0x4 ADD PUSH2 0x597 SWAP1 PUSH2 0x33EC JUMP JUMPDEST PUSH1 0x40 MLOAD DUP1 SWAP2 SUB SWAP1 REVERT JUMPDEST PUSH1 0x2 PUSH1 0x7 PUSH0 DUP4 DUP2 MSTORE PUSH1 0x20 ADD SWAP1 DUP2 MSTORE PUSH1 0x20 ADD PUSH0 KECCAK256 PUSH0 ADD PUSH1 0x14 PUSH2 0x100 EXP DUP2 SLOAD DUP2 PUSH1 0xFF MUL NOT AND SWAP1 DUP4 PUSH1 0x3 DUP2 GT ISZERO PUSH2 0x5D7 JUMPI PUSH2 0x5D6 PUSH2 0x3375 JUMP JUMPDEST JUMPDEST MUL OR SWAP1 SSTORE POP DUP1 PUSH32 0x4E7ABAF6039E145CBDC465859479A7F979153A7C1A4E5662C425AFE2A794C785 TIMESTAMP PUSH1 0x7 PUSH0 DUP6 DUP2 MSTORE PUSH1 0x20 ADD SWAP1 DUP2 MSTORE PUSH1 0x20 ADD PUSH0 KECCAK256 PUSH1 0x5 ADD SLOAD PUSH1 0x7 PUSH0 DUP7 DUP2 MSTORE PUSH1 0x20 ADD SWAP1 DUP2 MSTORE PUSH1 0x20 ADD PUSH0 KECCAK256 PUSH1 0x7 ADD SLOAD PUSH1 0x40 MLOAD PUSH2 0x638 SWAP4 SWAP3 SWAP2 SWAP1 PUSH2 0x340A JUMP JUMPDEST PUSH1 0x40 MLOAD DUP1 SWAP2 SUB SWAP1 LOG2 PUSH2 0x648 PUSH2 0x1AEF JUMP JUMPDEST POP JUMP JUMPDEST PUSH2 0x653 PUSH2 0x18FC JUMP JUMPDEST PUSH1 0x1 PUSH1 0x3 DUP2 GT ISZERO PUSH2 0x667 JUMPI PUSH2 0x666 PUSH2 0x3375 JUMP JUMPDEST JUMPDEST PUSH1 0x7 PUSH0 DUP6 DUP2 MSTORE PUSH1 0x20 ADD SWAP1 DUP2 MSTORE PUSH1 0x20 ADD PUSH0 KECCAK256 PUSH0 ADD PUSH1 0x14 SWAP1 SLOAD SWAP1 PUSH2 0x100 EXP SWAP1 DIV PUSH1 0xFF AND PUSH1 0x3 DUP2 GT ISZERO PUSH2 0x69A JUMPI PUSH2 0x699 PUSH2 0x3375 JUMP JUMPDEST JUMPDEST EQ PUSH2 0x6DA JUMPI PUSH1 0x40 MLOAD PUSH32 0x8C379A000000000000000000000000000000000000000000000000000000000 DUP2 MSTORE PUSH1 0x4 ADD PUSH2 0x6D1 SWAP1 PUSH2 0x33EC JUMP JUMPDEST PUSH1 0x40 MLOAD DUP1 SWAP2 SUB SWAP1 REVERT JUMPDEST PUSH0 PUSH20 0xFFFFFFFFFFFFFFFFFFFFFFFFFFFFFFFFFFFFFFFF AND PUSH1 0x7 PUSH0 DUP6 DUP2 MSTORE PUSH1 0x20 ADD SWAP1 DUP2 MSTORE PUSH1 0x20 ADD PUSH0 KECCAK256 PUSH1 0xC ADD PUSH0 SWAP1 SLOAD SWAP1 PUSH2 0x100 EXP SWAP1 DIV PUSH20 0xFFFFFFFFFFFFFFFFFFFFFFFFFFFFFFFFFFFFFFFF AND PUSH20 0xFFFFFFFFFFFFFFFFFFFFFFFFFFFFFFFFFFFFFFFF AND SUB PUSH2 0x77B JUMPI PUSH1 0x40 MLOAD PUSH32 0x8C379A000000000000000000000000000000000000000000000000000000000 DUP2 MSTORE PUSH1 0x4 ADD PUSH2 0x772 SWAP1 PUSH2 0x3489 JUMP JUMPDEST PUSH1 0x40 MLOAD DUP1 SWAP2 SUB SWAP1 REVERT JUMPDEST CALLER PUSH20 0xFFFFFFFFFFFFFFFFFFFFFFFFFFFFFFFFFFFFFFFF AND PUSH1 0x7 PUSH0 DUP6 DUP2 MSTORE PUSH1 0x20 ADD SWAP1 DUP2 MSTORE PUSH1 0x20 ADD PUSH0 KECCAK256 PUSH1 0xC ADD PUSH0 SWAP1 SLOAD SWAP1 PUSH2 0x100 EXP SWAP1 DIV PUSH20 0xFFFFFFFFFFFFFFFFFFFFFFFFFFFFFFFFFFFFFFFF AND PUSH20 0xFFFFFFFFFFFFFFFFFFFFFFFFFFFFFFFFFFFFFFFF AND EQ PUSH2 0x81C JUMPI PUSH1 0x40 MLOAD PUSH32 0x8C379A000000000000000000000000000000000000000000000000000000000 DUP2 MSTORE PUSH1 0x4 ADD PUSH2 0x813 SWAP1 PUSH2 0x34F1 JUMP JUMPDEST PUSH1 0x40 MLOAD DUP1 SWAP2 SUB SWAP1 REVERT JUMPDEST PUSH0 DUP2 SUB PUSH2 0x85E JUMPI PUSH1 0x40 MLOAD PUSH32 0x8C379A000000000000000000000000000000000000000000000000000000000 DUP2 MSTORE PUSH1 0x4 ADD PUSH2 0x855 SWAP1 PUSH2 0x3559 JUMP JUMPDEST PUSH1 0x40 MLOAD DUP1 SWAP2 SUB SWAP1 REVERT JUMPDEST PUSH0 PUSH1 0x7 PUSH0 DUP6 DUP2 MSTORE PUSH1 0x20 ADD SWAP1 DUP2 MSTORE PUSH1 0x20 ADD PUSH0 KECCAK256 PUSH1 0x2 ADD SLOAD EQ PUSH2 0x8D0 JUMPI PUSH1 0x7 PUSH0 DUP5 DUP2 MSTORE PUSH1 0x20 ADD SWAP1 DUP2 MSTORE PUSH1 0x20 ADD PUSH0 KECCAK256 PUSH1 0x2 ADD SLOAD TIMESTAMP LT PUSH2 0x8CF JUMPI PUSH1 0x40 MLOAD PUSH32 0x8C379A000000000000000000000000000000000000000000000000000000000 DUP2 MSTORE PUSH1 0x4 ADD PUSH2 0x8C6 SWAP1 PUSH2 0x35C1 JUMP JUMPDEST PUSH1 0x40 MLOAD DUP1 SWAP2 SUB SWAP1 REVERT JUMPDEST JUMPDEST PUSH0 PUSH1 0x7 PUSH0 DUP6 DUP2 MSTORE PUSH1 0x20 ADD SWAP1 DUP2 MSTORE PUSH1 0x20 ADD PUSH0 KECCAK256 PUSH1 0x3 ADD SLOAD EQ PUSH2 0x962 JUMPI PUSH1 0x7 PUSH0 DUP5 DUP2 MSTORE PUSH1 0x20 ADD SWAP1 DUP2 MSTORE PUSH1 0x20 ADD PUSH0 KECCAK256 PUSH1 0x3 ADD SLOAD DUP2 PUSH1 0x7 PUSH0 DUP7 DUP2 MSTORE PUSH1 0x20 ADD SWAP1 DUP2 MSTORE PUSH1 0x20 ADD PUSH0 KECCAK256 PUSH1 0x5 ADD SLOAD PUSH2 0x920 SWAP2 SWAP1 PUSH2 0x360C JUMP JUMPDEST GT ISZERO PUSH2 0x961 JUMPI PUSH1 0x40 MLOAD PUSH32 0x8C379A000000000000000000000000000000000000000000000000000000000 DUP2 MSTORE PUSH1 0x4 ADD PUSH2 0x958 SWAP1 PUSH2 0x3689 JUMP JUMPDEST PUSH1 0x40 MLOAD DUP1 SWAP2 SUB SWAP1 REVERT JUMPDEST JUMPDEST PUSH2 0x96E DUP4 DUP4 DUP4 PUSH0 PUSH2 0x1AF8 JUMP JUMPDEST DUP2 PUSH20 0xFFFFFFFFFFFFFFFFFFFFFFFFFFFFFFFFFFFFFFFF AND CALLER PUSH20 0xFFFFFFFFFFFFFFFFFFFFFFFFFFFFFFFFFFFFFFFF AND DUP5 PUSH32 0xCDB228E331696A3755FF9DB076DF661228408CA1178178951E48AE952567C1F DUP5 PUSH1 0x40 MLOAD PUSH2 0x9CC SWAP2 SWAP1 PUSH2 0x308B JUMP JUMPDEST PUSH1 0x40 MLOAD DUP1 SWAP2 SUB SWAP1 LOG4 PUSH2 0x9DC PUSH2 0x1AEF JUMP JUMPDEST POP POP POP JUMP JUMPDEST PUSH1 0x4 SLOAD DUP2 JUMP JUMPDEST PUSH2 0x9EF PUSH2 0x18FC JUMP JUMPDEST PUSH0 DUP2 SUB PUSH2 0xA31 JUMPI PUSH1 0x40 MLOAD PUSH32 0x8C379A000000000000000000000000000000000000000000000000000000000 DUP2 MSTORE PUSH1 0x4 ADD PUSH2 0xA28 SWAP1 PUSH2 0x36F1 JUMP JUMPDEST PUSH1 0x40 MLOAD DUP1 SWAP2 SUB SWAP1 REVERT JUMPDEST PUSH1 0x1 PUSH1 0x3 DUP2 GT ISZERO PUSH2 0xA45 JUMPI PUSH2 0xA44 PUSH2 0x3375 JUMP JUMPDEST JUMPDEST PUSH1 0x7 PUSH0 DUP5 DUP2 MSTORE PUSH1 0x20 ADD SWAP1 DUP2 MSTORE PUSH1 0x20 ADD PUSH0 KECCAK256 PUSH0 ADD PUSH1 0x14 SWAP1 SLOAD SWAP1 PUSH2 0x100 EXP SWAP1 DIV PUSH1 0xFF AND PUSH1 0x3 DUP2 GT ISZERO PUSH2 0xA78 JUMPI PUSH2 0xA77 PUSH2 0x3375 JUMP JUMPDEST JUMPDEST EQ PUSH2 0xAB8 JUMPI PUSH1 0x40 MLOAD PUSH32 0x8C379A000000000000000000000000000000000000000000000000000000000 DUP2 MSTORE PUSH1 0x4 ADD PUSH2 0xAAF SWAP1 PUSH2 0x33EC JUMP JUMPDEST PUSH1 0x40 MLOAD DUP1 SWAP2 SUB SWAP1 REVERT JUMPDEST PUSH0 PUSH1 0x7 PUSH0 DUP5 DUP2 MSTORE PUSH1 0x20 ADD SWAP1 DUP2 MSTORE PUSH1 0x20 ADD PUSH0 KECCAK256 PUSH1 0x2 ADD SLOAD EQ PUSH2 0xB2A JUMPI PUSH1 0x7 PUSH0 DUP4 DUP2 MSTORE PUSH1 0x20 ADD SWAP1 DUP2 MSTORE PUSH1 0x20 ADD PUSH0 KECCAK256 PUSH1 0x2 ADD SLOAD TIMESTAMP LT PUSH2 0xB29 JUMPI PUSH1 0x40 MLOAD PUSH32 0x8C379A000000000000000000000000000000000000000000000000000000000 DUP2 MSTORE PUSH1 0x4 ADD PUSH2 0xB20 SWAP1 PUSH2 0x35C1 JUMP JUMPDEST PUSH1 0x40 MLOAD DUP1 SWAP2 SUB SWAP1 REVERT JUMPDEST JUMPDEST PUSH2 0xB35 DUP3 CALLER DUP4 PUSH2 0x1E84 JUMP JUMPDEST PUSH2 0xB3D PUSH2 0x1AEF JUMP JUMPDEST POP POP JUMP JUMPDEST PUSH2 0xB49 PUSH2 0x20E6 JUMP JUMPDEST PUSH2 0xB52 PUSH0 PUSH2 0x216D JUMP JUMPDEST JUMP JUMPDEST PUSH0 PUSH1 0x1 PUSH0 SWAP1 SLOAD SWAP1 PUSH2 0x100 EXP SWAP1 DIV PUSH20 0xFFFFFFFFFFFFFFFFFFFFFFFFFFFFFFFFFFFFFFFF AND SWAP1 POP SWAP1 JUMP JUMPDEST PUSH1 0x1 ISZERO ISZERO PUSH1 0x6 PUSH0 CALLER PUSH20 0xFFFFFFFFFFFFFFFFFFFFFFFFFFFFFFFFFFFFFFFF AND PUSH20 0xFFFFFFFFFFFFFFFFFFFFFFFFFFFFFFFFFFFFFFFF AND DUP2 MSTORE PUSH1 0x20 ADD SWAP1 DUP2 MSTORE PUSH1 0x20 ADD PUSH0 KECCAK256 PUSH0 SWAP1 SLOAD SWAP1 PUSH2 0x100 EXP SWAP1 DIV PUSH1 0xFF AND ISZERO ISZERO EQ PUSH2 0xC0C JUMPI PUSH1 0x40 MLOAD PUSH32 0x8C379A000000000000000000000000000000000000000000000000000000000 DUP2 MSTORE PUSH1 0x4 ADD PUSH2 0xC03 SWAP1 PUSH2 0x3357 JUMP JUMPDEST PUSH1 0x40 MLOAD DUP1 SWAP2 SUB SWAP1 REVERT JUMPDEST DUP2 PUSH1 0x2 PUSH0 PUSH2 0x100 EXP DUP2 SLOAD DUP2 PUSH20 0xFFFFFFFFFFFFFFFFFFFFFFFFFFFFFFFFFFFFFFFF MUL NOT AND SWAP1 DUP4 PUSH20 0xFFFFFFFFFFFFFFFFFFFFFFFFFFFFFFFFFFFFFFFF AND MUL OR SWAP1 SSTORE POP DUP1 PUSH1 0x4 DUP2 SWAP1 SSTORE POP PUSH32 0xDC907CB17A7DA8E1DFFAD2B7205A6CA1111CBB38A0F1F4B2B60A31EB673CA4A2 PUSH1 0x2 PUSH0 SWAP1 SLOAD SWAP1 PUSH2 0x100 EXP SWAP1 DIV PUSH20 0xFFFFFFFFFFFFFFFFFFFFFFFFFFFFFFFFFFFFFFFF AND PUSH1 0x4 SLOAD PUSH1 0x40 MLOAD PUSH2 0xCA7 SWAP3 SWAP2 SWAP1 PUSH2 0x370F JUMP JUMPDEST PUSH1 0x40 MLOAD DUP1 SWAP2 SUB SWAP1 LOG1 POP POP JUMP JUMPDEST PUSH0 PUSH1 0x3 SLOAD SWAP1 POP SWAP1 JUMP JUMPDEST PUSH1 0x2 PUSH0 SWAP1 SLOAD SWAP1 PUSH2 0x100 EXP SWAP1 DIV PUSH20 0xFFFFFFFFFFFFFFFFFFFFFFFFFFFFFFFFFFFFFFFF AND DUP2 JUMP JUMPDEST PUSH1 0x5 PUSH0 SWAP1 SLOAD SWAP1 PUSH2 0x100 EXP SWAP1 DIV PUSH1 0xFF AND DUP2 JUMP JUMPDEST PUSH1 0x1 ISZERO ISZERO PUSH1 0x6 PUSH0 CALLER PUSH20 0xFFFFFFFFFFFFFFFFFFFFFFFFFFFFFFFFFFFFFFFF AND PUSH20 0xFFFFFFFFFFFFFFFFFFFFFFFFFFFFFFFFFFFFFFFF AND DUP2 MSTORE PUSH1 0x20 ADD SWAP1 DUP2 MSTORE PUSH1 0x20 ADD PUSH0 KECCAK256 PUSH0 SWAP1 SLOAD SWAP1 PUSH2 0x100 EXP SWAP1 DIV PUSH1 0xFF AND ISZERO ISZERO EQ PUSH2 0xD83 JUMPI PUSH1 0x40 MLOAD PUSH32 0x8C379A000000000000000000000000000000000000000000000000000000000 DUP2 MSTORE PUSH1 0x4 ADD PUSH2 0xD7A SWAP1 PUSH2 0x3357 JUMP JUMPDEST PUSH1 0x40 MLOAD DUP1 SWAP2 SUB SWAP1 REVERT JUMPDEST PUSH2 0xD8B PUSH2 0x18FC JUMP JUMPDEST PUSH2 0xD9C DUP10 DUP10 DUP10 DUP10 DUP10 DUP10 DUP10 DUP10 DUP10 PUSH2 0x1940 JUMP JUMPDEST PUSH2 0xDA4 PUSH2 0x1AEF JUMP JUMPDEST POP POP POP POP POP POP POP POP POP JUMP JUMPDEST PUSH1 0x6 PUSH1 0x20 MSTORE DUP1 PUSH0 MSTORE PUSH1 0x40 PUSH0 KECCAK256 PUSH0 SWAP2 POP SLOAD SWAP1 PUSH2 0x100 EXP SWAP1 DIV PUSH1 0xFF AND DUP2 JUMP JUMPDEST PUSH1 0x1 ISZERO ISZERO PUSH1 0x6 PUSH0 CALLER PUSH20 0xFFFFFFFFFFFFFFFFFFFFFFFFFFFFFFFFFFFFFFFF AND PUSH20 0xFFFFFFFFFFFFFFFFFFFFFFFFFFFFFFFFFFFFFFFF AND DUP2 MSTORE PUSH1 0x20 ADD SWAP1 DUP2 MSTORE PUSH1 0x20 ADD PUSH0 KECCAK256 PUSH0 SWAP1 SLOAD SWAP1 PUSH2 0x100 EXP SWAP1 DIV PUSH1 0xFF AND ISZERO ISZERO EQ PUSH2 0xE5C JUMPI PUSH1 0x40 MLOAD PUSH32 0x8C379A000000000000000000000000000000000000000000000000000000000 DUP2 MSTORE PUSH1 0x4 ADD PUSH2 0xE53 SWAP1 PUSH2 0x3357 JUMP JUMPDEST PUSH1 0x40 MLOAD DUP1 SWAP2 SUB SWAP1 REVERT JUMPDEST PUSH2 0xE64 PUSH2 0x18FC JUMP JUMPDEST PUSH1 0x2 PUSH1 0x3 DUP2 GT ISZERO PUSH2 0xE78 JUMPI PUSH2 0xE77 PUSH2 0x3375 JUMP JUMPDEST JUMPDEST PUSH1 0x7 PUSH0 DUP5 DUP2 MSTORE PUSH1 0x20 ADD SWAP1 DUP2 MSTORE PUSH1 0x20 ADD PUSH0 KECCAK256 PUSH0 ADD PUSH1 0x14 SWAP1 SLOAD SWAP1 PUSH2 0x100 EXP SWAP1 DIV PUSH1 0xFF AND PUSH1 0x3 DUP2 GT ISZERO PUSH2 0xEAB JUMPI PUSH2 0xEAA PUSH2 0x3375 JUMP JUMPDEST JUMPDEST EQ PUSH2 0xEEB JUMPI PUSH1 0x40 MLOAD PUSH32 0x8C379A000000000000000000000000000000000000000000000000000000000 DUP2 MSTORE PUSH1 0x4 ADD PUSH2 0xEE2 SWAP1 PUSH2 0x3780 JUMP JUMPDEST PUSH1 0x40 MLOAD DUP1 SWAP2 SUB SWAP1 REVERT JUMPDEST PUSH1 0x3 PUSH1 0x7 PUSH0 DUP5 DUP2 MSTORE PUSH1 0x20 ADD SWAP1 DUP2 MSTORE PUSH1 0x20 ADD PUSH0 KECCAK256 PUSH0 ADD PUSH1 0x14 PUSH2 0x100 EXP DUP2 SLOAD DUP2 PUSH1 0xFF MUL NOT AND SWAP1 DUP4 PUSH1 0x3 DUP2 GT ISZERO PUSH2 0xF22 JUMPI PUSH2 0xF21 PUSH2 0x3375 JUMP JUMPDEST JUMPDEST MUL OR SWAP1 SSTORE POP DUP2 PUSH32 0x66F6B4CD34444AF165FB78BCE3996496528B37AF161C26F737B7341CC37063BB TIMESTAMP PUSH1 0x40 MLOAD PUSH2 0xF57 SWAP2 SWAP1 PUSH2 0x308B JUMP JUMPDEST PUSH1 0x40 MLOAD DUP1 SWAP2 SUB SWAP1 LOG2 PUSH0 PUSH1 0x7 PUSH0 DUP5 DUP2 MSTORE PUSH1 0x20 ADD SWAP1 DUP2 MSTORE PUSH1 0x20 ADD PUSH0 KECCAK256 PUSH1 0x6 ADD SLOAD PUSH1 0x7 PUSH0 DUP6 DUP2 MSTORE PUSH1 0x20 ADD SWAP1 DUP2 MSTORE PUSH1 0x20 ADD PUSH0 KECCAK256 PUSH1 0x5 ADD SLOAD PUSH2 0xF94 SWAP2 SWAP1 PUSH2 0x360C JUMP JUMPDEST SWAP1 POP PUSH0 DUP2 SUB PUSH2 0xFAC JUMPI PUSH2 0xFA6 DUP4 PUSH2 0x2230 JUMP JUMPDEST POP PUSH2 0x11B1 JUMP JUMPDEST PUSH0 DUP3 SWAP1 POP PUSH0 DUP3 SWAP1 POP PUSH1 0x7 PUSH0 DUP7 DUP2 MSTORE PUSH1 0x20 ADD SWAP1 DUP2 MSTORE PUSH1 0x20 ADD PUSH0 KECCAK256 PUSH1 0x4 ADD SLOAD DUP2 GT DUP1 ISZERO PUSH2 0xFEB JUMPI POP PUSH0 PUSH1 0x7 PUSH0 DUP8 DUP2 MSTORE PUSH1 0x20 ADD SWAP1 DUP2 MSTORE PUSH1 0x20 ADD PUSH0 KECCAK256 PUSH1 0x4 ADD SLOAD EQ ISZERO JUMPDEST ISZERO PUSH2 0x1008 JUMPI PUSH1 0x7 PUSH0 DUP7 DUP2 MSTORE PUSH1 0x20 ADD SWAP1 DUP2 MSTORE PUSH1 0x20 ADD PUSH0 KECCAK256 PUSH1 0x4 ADD SLOAD SWAP1 POP JUMPDEST PUSH0 PUSH1 0x7 PUSH0 DUP8 DUP2 MSTORE PUSH1 0x20 ADD SWAP1 DUP2 MSTORE PUSH1 0x20 ADD PUSH0 KECCAK256 PUSH1 0x5 ADD SLOAD PUSH1 0x7 PUSH0 DUP9 DUP2 MSTORE PUSH1 0x20 ADD SWAP1 DUP2 MSTORE PUSH1 0x20 ADD PUSH0 KECCAK256 PUSH1 0x7 ADD SLOAD PUSH2 0x103D SWAP2 SWAP1 PUSH2 0x360C JUMP JUMPDEST SWAP1 POP PUSH0 DUP2 PUSH1 0x7 PUSH0 DUP10 DUP2 MSTORE PUSH1 0x20 ADD SWAP1 DUP2 MSTORE PUSH1 0x20 ADD PUSH0 KECCAK256 PUSH1 0xB ADD SLOAD PUSH2 0x1060 SWAP2 SWAP1 PUSH2 0x379E JUMP JUMPDEST SWAP1 POP PUSH0 PUSH2 0x106E DUP6 DUP6 DUP5 PUSH2 0x23AA JUMP JUMPDEST SWAP1 POP PUSH2 0x107B DUP9 DUP6 DUP4 PUSH2 0x252E JUMP JUMPDEST PUSH1 0x7 PUSH0 DUP10 DUP2 MSTORE PUSH1 0x20 ADD SWAP1 DUP2 MSTORE PUSH1 0x20 ADD PUSH0 KECCAK256 PUSH1 0xE ADD PUSH0 SWAP1 SLOAD SWAP1 PUSH2 0x100 EXP SWAP1 DIV PUSH1 0xFF AND ISZERO PUSH2 0x11AA JUMPI PUSH0 JUMPDEST PUSH1 0x7 PUSH0 DUP11 DUP2 MSTORE PUSH1 0x20 ADD SWAP1 DUP2 MSTORE PUSH1 0x20 ADD PUSH0 KECCAK256 PUSH1 0x8 ADD SLOAD DUP2 LT ISZERO PUSH2 0x11A8 JUMPI PUSH0 PUSH1 0xC PUSH0 DUP12 DUP2 MSTORE PUSH1 0x20 ADD SWAP1 DUP2 MSTORE PUSH1 0x20 ADD PUSH0 KECCAK256 PUSH0 PUSH1 0xB PUSH0 DUP14 DUP2 MSTORE PUSH1 0x20 ADD SWAP1 DUP2 MSTORE PUSH1 0x20 ADD PUSH0 KECCAK256 PUSH0 DUP6 DUP2 MSTORE PUSH1 0x20 ADD SWAP1 DUP2 MSTORE PUSH1 0x20 ADD PUSH0 KECCAK256 PUSH0 SWAP1 SLOAD SWAP1 PUSH2 0x100 EXP SWAP1 DIV PUSH20 0xFFFFFFFFFFFFFFFFFFFFFFFFFFFFFFFFFFFFFFFF AND PUSH20 0xFFFFFFFFFFFFFFFFFFFFFFFFFFFFFFFFFFFFFFFF AND PUSH20 0xFFFFFFFFFFFFFFFFFFFFFFFFFFFFFFFFFFFFFFFF AND DUP2 MSTORE PUSH1 0x20 ADD SWAP1 DUP2 MSTORE PUSH1 0x20 ADD PUSH0 KECCAK256 SLOAD EQ PUSH2 0x119B JUMPI PUSH2 0x119A DUP10 PUSH1 0xB PUSH0 DUP13 DUP2 MSTORE PUSH1 0x20 ADD SWAP1 DUP2 MSTORE PUSH1 0x20 ADD PUSH0 KECCAK256 PUSH0 DUP5 DUP2 MSTORE PUSH1 0x20 ADD SWAP1 DUP2 MSTORE PUSH1 0x20 ADD PUSH0 KECCAK256 PUSH0 SWAP1 SLOAD SWAP1 PUSH2 0x100 EXP SWAP1 DIV PUSH20 0xFFFFFFFFFFFFFFFFFFFFFFFFFFFFFFFFFFFFFFFF AND PUSH2 0x27B1 JUMP JUMPDEST JUMPDEST DUP1 DUP1 PUSH1 0x1 ADD SWAP2 POP POP PUSH2 0x10A3 JUMP JUMPDEST POP JUMPDEST POP POP POP POP POP POP JUMPDEST PUSH2 0x11B9 PUSH2 0x1AEF JUMP JUMPDEST POP POP JUMP JUMPDEST PUSH2 0x11C5 PUSH2 0x18FC JUMP JUMPDEST PUSH1 0x1 PUSH1 0x3 DUP2 GT ISZERO PUSH2 0x11D9 JUMPI PUSH2 0x11D8 PUSH2 0x3375 JUMP JUMPDEST JUMPDEST PUSH1 0x7 PUSH0 DUP6 DUP2 MSTORE PUSH1 0x20 ADD SWAP1 DUP2 MSTORE PUSH1 0x20 ADD PUSH0 KECCAK256 PUSH0 ADD PUSH1 0x14 SWAP1 SLOAD SWAP1 PUSH2 0x100 EXP SWAP1 DIV PUSH1 0xFF AND PUSH1 0x3 DUP2 GT ISZERO PUSH2 0x120C JUMPI PUSH2 0x120B PUSH2 0x3375 JUMP JUMPDEST JUMPDEST EQ PUSH2 0x124C JUMPI PUSH1 0x40 MLOAD PUSH32 0x8C379A000000000000000000000000000000000000000000000000000000000 DUP2 MSTORE PUSH1 0x4 ADD PUSH2 0x1243 SWAP1 PUSH2 0x33EC JUMP JUMPDEST PUSH1 0x40 MLOAD DUP1 SWAP2 SUB SWAP1 REVERT JUMPDEST PUSH0 PUSH20 0xFFFFFFFFFFFFFFFFFFFFFFFFFFFFFFFFFFFFFFFF AND PUSH1 0x7 PUSH0 DUP6 DUP2 MSTORE PUSH1 0x20 ADD SWAP1 DUP2 MSTORE PUSH1 0x20 ADD PUSH0 KECCAK256 PUSH1 0xC ADD PUSH0 SWAP1 SLOAD SWAP1 PUSH2 0x100 EXP SWAP1 DIV PUSH20 0xFFFFFFFFFFFFFFFFFFFFFFFFFFFFFFFFFFFFFFFF AND PUSH20 0xFFFFFFFFFFFFFFFFFFFFFFFFFFFFFFFFFFFFFFFF AND EQ PUSH2 0x12ED JUMPI PUSH1 0x40 MLOAD PUSH32 0x8C379A000000000000000000000000000000000000000000000000000000000 DUP2 MSTORE PUSH1 0x4 ADD PUSH2 0x12E4 SWAP1 PUSH2 0x3829 JUMP JUMPDEST PUSH1 0x40 MLOAD DUP1 SWAP2 SUB SWAP1 REVERT JUMPDEST PUSH0 DUP2 SUB PUSH2 0x132F JUMPI PUSH1 0x40 MLOAD PUSH32 0x8C379A000000000000000000000000000000000000000000000000000000000 DUP2 MSTORE PUSH1 0x4 ADD PUSH2 0x1326 SWAP1 PUSH2 0x3559 JUMP JUMPDEST PUSH1 0x40 MLOAD DUP1 SWAP2 SUB SWAP1 REVERT JUMPDEST PUSH0 PUSH1 0x7 PUSH0 DUP6 DUP2 MSTORE PUSH1 0x20 ADD SWAP1 DUP2 MSTORE PUSH1 0x20 ADD PUSH0 KECCAK256 PUSH1 0x2 ADD SLOAD EQ PUSH2 0x13A1 JUMPI PUSH1 0x7 PUSH0 DUP5 DUP2 MSTORE PUSH1 0x20 ADD SWAP1 DUP2 MSTORE PUSH1 0x20 ADD PUSH0 KECCAK256 PUSH1 0x2 ADD SLOAD TIMESTAMP LT PUSH2 0x13A0 JUMPI PUSH1 0x40 MLOAD PUSH32 0x8C379A000000000000000000000000000000000000000000000000000000000 DUP2 MSTORE PUSH1 0x4 ADD PUSH2 0x1397 SWAP1 PUSH2 0x35C1 JUMP JUMPDEST PUSH1 0x40 MLOAD DUP1 SWAP2 SUB SWAP1 REVERT JUMPDEST JUMPDEST PUSH0 PUSH1 0x7 PUSH0 DUP6 DUP2 MSTORE PUSH1 0x20 ADD SWAP1 DUP2 MSTORE PUSH1 0x20 ADD PUSH0 KECCAK256 PUSH1 0x3 ADD SLOAD EQ PUSH2 0x1433 JUMPI PUSH1 0x7 PUSH0 DUP5 DUP2 MSTORE PUSH1 0x20 ADD SWAP1 DUP2 MSTORE PUSH1 0x20 ADD PUSH0 KECCAK256 PUSH1 0x3 ADD SLOAD DUP2 PUSH1 0x7 PUSH0 DUP7 DUP2 MSTORE PUSH1 0x20 ADD SWAP1 DUP2 MSTORE PUSH1 0x20 ADD PUSH0 KECCAK256 PUSH1 0x5 ADD SLOAD PUSH2 0x13F1 SWAP2 SWAP1 PUSH2 0x360C JUMP JUMPDEST GT ISZERO PUSH2 0x1432 JUMPI PUSH1 0x40 MLOAD PUSH32 0x8C379A000000000000000000000000000000000000000000000000000000000 DUP2 MSTORE PUSH1 0x4 ADD PUSH2 0x1429 SWAP1 PUSH2 0x3689 JUMP JUMPDEST PUSH1 0x40 MLOAD DUP1 SWAP2 SUB SWAP1 REVERT JUMPDEST JUMPDEST PUSH0 DUP2 PUSH1 0x7 PUSH0 DUP7 DUP2 MSTORE PUSH1 0x20 ADD SWAP1 DUP2 MSTORE PUSH1 0x20 ADD PUSH0 KECCAK256 PUSH1 0xB ADD SLOAD PUSH2 0x1454 SWAP2 SWAP1 PUSH2 0x379E JUMP JUMPDEST SWAP1 POP PUSH2 0x14B5 CALLER ADDRESS DUP4 PUSH1 0x7 PUSH0 DUP10 DUP2 MSTORE PUSH1 0x20 ADD SWAP1 DUP2 MSTORE PUSH1 0x20 ADD PUSH0 KECCAK256 PUSH0 ADD PUSH0 SWAP1 SLOAD SWAP1 PUSH2 0x100 EXP SWAP1 DIV PUSH20 0xFFFFFFFFFFFFFFFFFFFFFFFFFFFFFFFFFFFFFFFF AND PUSH20 0xFFFFFFFFFFFFFFFFFFFFFFFFFFFFFFFFFFFFFFFF AND PUSH2 0x29B1 SWAP1 SWAP4 SWAP3 SWAP2 SWAP1 PUSH4 0xFFFFFFFF AND JUMP JUMPDEST PUSH2 0x14C2 DUP5 DUP5 DUP5 PUSH1 0x1 PUSH2 0x1AF8 JUMP JUMPDEST DUP3 PUSH20 0xFFFFFFFFFFFFFFFFFFFFFFFFFFFFFFFFFFFFFFFF AND CALLER PUSH20 0xFFFFFFFFFFFFFFFFFFFFFFFFFFFFFFFFFFFFFFFF AND DUP6 PUSH32 0xC711BFBE9284C7D96ADBB9EBAD39767E13C00B6B5CD4CA300FEC0D969309A407 DUP6 PUSH1 0x40 MLOAD PUSH2 0x1520 SWAP2 SWAP1 PUSH2 0x308B JUMP JUMPDEST PUSH1 0x40 MLOAD DUP1 SWAP2 SUB SWAP1 LOG4 POP PUSH2 0x1531 PUSH2 0x1AEF JUMP JUMPDEST POP POP POP JUMP JUMPDEST PUSH2 0x153E PUSH2 0x18FC JUMP JUMPDEST PUSH1 0x3 DUP1 DUP2 GT ISZERO PUSH2 0x1551 JUMPI PUSH2 0x1550 PUSH2 0x3375 JUMP JUMPDEST JUMPDEST PUSH1 0x7 PUSH0 DUP4 DUP2 MSTORE PUSH1 0x20 ADD SWAP1 DUP2 MSTORE PUSH1 0x20 ADD PUSH0 KECCAK256 PUSH0 ADD PUSH1 0x14 SWAP1 SLOAD SWAP1 PUSH2 0x100 EXP SWAP1 DIV PUSH1 0xFF AND PUSH1 0x3 DUP2 GT ISZERO PUSH2 0x1584 JUMPI PUSH2 0x1583 PUSH2 0x3375 JUMP JUMPDEST JUMPDEST EQ PUSH2 0x15C4 JUMPI PUSH1 0x40 MLOAD PUSH32 0x8C379A000000000000000000000000000000000000000000000000000000000 DUP2 MSTORE PUSH1 0x4 ADD PUSH2 0x15BB SWAP1 PUSH2 0x3891 JUMP JUMPDEST PUSH1 0x40 MLOAD DUP1 SWAP2 SUB SWAP1 REVERT JUMPDEST PUSH0 ISZERO ISZERO PUSH1 0x7 PUSH0 DUP4 DUP2 MSTORE PUSH1 0x20 ADD SWAP1 DUP2 MSTORE PUSH1 0x20 ADD PUSH0 KECCAK256 PUSH1 0xE ADD PUSH0 SWAP1 SLOAD SWAP1 PUSH2 0x100 EXP SWAP1 DIV PUSH1 0xFF AND ISZERO ISZERO EQ PUSH2 0x162A JUMPI PUSH1 0x40 MLOAD PUSH32 0x8C379A000000000000000000000000000000000000000000000000000000000 DUP2 MSTORE PUSH1 0x4 ADD PUSH2 0x1621 SWAP1 PUSH2 0x38F9 JUMP JUMPDEST PUSH1 0x40 MLOAD DUP1 SWAP2 SUB SWAP1 REVERT JUMPDEST PUSH2 0x1634 DUP2 CALLER PUSH2 0x27B1 JUMP JUMPDEST PUSH2 0x163C PUSH2 0x1AEF JUMP JUMPDEST POP JUMP JUMPDEST PUSH2 0x1647 PUSH2 0x20E6 JUMP JUMPDEST PUSH0 PUSH20 0xFFFFFFFFFFFFFFFFFFFFFFFFFFFFFFFFFFFFFFFF AND DUP3 PUSH20 0xFFFFFFFFFFFFFFFFFFFFFFFFFFFFFFFFFFFFFFFF AND SUB PUSH2 0x16B5 JUMPI PUSH1 0x40 MLOAD PUSH32 0x8C379A000000000000000000000000000000000000000000000000000000000 DUP2 MSTORE PUSH1 0x4 ADD PUSH2 0x16AC SWAP1 PUSH2 0x3961 JUMP JUMPDEST PUSH1 0x40 MLOAD DUP1 SWAP2 SUB SWAP1 REVERT JUMPDEST DUP1 PUSH1 0x6 PUSH0 DUP5 PUSH20 0xFFFFFFFFFFFFFFFFFFFFFFFFFFFFFFFFFFFFFFFF AND PUSH20 0xFFFFFFFFFFFFFFFFFFFFFFFFFFFFFFFFFFFFFFFF AND DUP2 MSTORE PUSH1 0x20 ADD SWAP1 DUP2 MSTORE PUSH1 0x20 ADD PUSH0 KECCAK256 PUSH0 PUSH2 0x100 EXP DUP2 SLOAD DUP2 PUSH1 0xFF MUL NOT AND SWAP1 DUP4 ISZERO ISZERO MUL OR SWAP1 SSTORE POP PUSH32 0xEDAE46487653623E513EA3B3341C9E6B457A2EF687D0342D2507CCB63458B19F DUP3 DUP3 PUSH1 0x40 MLOAD PUSH2 0x173A SWAP3 SWAP2 SWAP1 PUSH2 0x397F JUMP JUMPDEST PUSH1 0x40 MLOAD DUP1 SWAP2 SUB SWAP1 LOG1 POP POP JUMP JUMPDEST PUSH1 0x3 SLOAD DUP2 JUMP JUMPDEST PUSH2 0x1754 PUSH2 0x20E6 JUMP JUMPDEST PUSH0 PUSH20 0xFFFFFFFFFFFFFFFFFFFFFFFFFFFFFFFFFFFFFFFF AND DUP2 PUSH20 0xFFFFFFFFFFFFFFFFFFFFFFFFFFFFFFFFFFFFFFFF AND SUB PUSH2 0x17C4 JUMPI PUSH0 PUSH1 0x40 MLOAD PUSH32 0x1E4FBDF700000000000000000000000000000000000000000000000000000000 DUP2 MSTORE PUSH1 0x4 ADD PUSH2 0x17BB SWAP2 SWAP1 PUSH2 0x30F1 JUMP JUMPDEST PUSH1 0x40 MLOAD DUP1 SWAP2 SUB SWAP1 REVERT JUMPDEST PUSH2 0x17CD DUP2 PUSH2 0x216D JUMP JUMPDEST POP JUMP JUMPDEST PUSH1 0x1 ISZERO ISZERO PUSH1 0x6 PUSH0 CALLER PUSH20 0xFFFFFFFFFFFFFFFFFFFFFFFFFFFFFFFFFFFFFFFF AND PUSH20 0xFFFFFFFFFFFFFFFFFFFFFFFFFFFFFFFFFFFFFFFF AND DUP2 MSTORE PUSH1 0x20 ADD SWAP1 DUP2 MSTORE PUSH1 0x20 ADD PUSH0 KECCAK256 PUSH0 SWAP1 SLOAD SWAP1 PUSH2 0x100 EXP SWAP1 DIV PUSH1 0xFF AND ISZERO ISZERO EQ PUSH2 0x1860 JUMPI PUSH1 0x40 MLOAD PUSH32 0x8C379A000000000000000000000000000000000000000000000000000000000 DUP2 MSTORE PUSH1 0x4 ADD PUSH2 0x1857 SWAP1 PUSH2 0x3357 JUMP JUMPDEST PUSH1 0x40 MLOAD DUP1 SWAP2 SUB SWAP1 REVERT JUMPDEST DUP1 PUSH1 0x5 PUSH0 PUSH2 0x100 EXP DUP2 SLOAD DUP2 PUSH1 0xFF MUL NOT AND SWAP1 DUP4 ISZERO ISZERO MUL OR SWAP1 SSTORE POP PUSH32 0x6FE9A4AB2E95E24B2BE44989DC36A685149DFDE9354D486A8DA5CB4BBD01B010 PUSH1 0x5 PUSH0 SWAP1 SLOAD SWAP1 PUSH2 0x100 EXP SWAP1 DIV PUSH1 0xFF AND PUSH1 0x40 MLOAD PUSH2 0x18B6 SWAP2 SWAP1 PUSH2 0x3162 JUMP JUMPDEST PUSH1 0x40 MLOAD DUP1 SWAP2 SUB SWAP1 LOG1 POP JUMP JUMPDEST PUSH0 PUSH1 0x7 PUSH0 DUP4 DUP2 MSTORE PUSH1 0x20 ADD SWAP1 DUP2 MSTORE PUSH1 0x20 ADD PUSH0 KECCAK256 PUSH0 ADD PUSH1 0x14 SWAP1 SLOAD SWAP1 PUSH2 0x100 EXP SWAP1 DIV PUSH1 0xFF AND PUSH1 0x3 DUP2 GT ISZERO PUSH2 0x18F5 JUMPI PUSH2 0x18F4 PUSH2 0x3375 JUMP JUMPDEST JUMPDEST SWAP1 POP SWAP2 SWAP1 POP JUMP JUMPDEST PUSH1 0x2 PUSH0 SLOAD SUB PUSH2 0x1937 JUMPI PUSH1 0x40 MLOAD PUSH32 0x3EE5AEB500000000000000000000000000000000000000000000000000000000 DUP2 MSTORE PUSH1 0x4 ADD PUSH1 0x40 MLOAD DUP1 SWAP2 SUB SWAP1 REVERT JUMPDEST PUSH1 0x2 PUSH0 DUP2 SWAP1 SSTORE POP JUMP JUMPDEST PUSH1 0x3 PUSH0 DUP2 SLOAD DUP1 SWAP3 SWAP2 SWAP1 PUSH2 0x1952 SWAP1 PUSH2 0x39A6 JUMP JUMPDEST SWAP2 SWAP1 POP SSTORE POP PUSH0 PUSH1 0x7 PUSH0 PUSH1 0x3 SLOAD DUP2 MSTORE PUSH1 0x20 ADD SWAP1 DUP2 MSTORE PUSH1 0x20 ADD PUSH0 KECCAK256 SWAP1 POP DUP10 DUP2 PUSH0 ADD PUSH0 PUSH2 0x100 EXP DUP2 SLOAD DUP2 PUSH20 0xFFFFFFFFFFFFFFFFFFFFFFFFFFFFFFFFFFFFFFFF MUL NOT AND SWAP1 DUP4 PUSH20 0xFFFFFFFFFFFFFFFFFFFFFFFFFFFFFFFFFFFFFFFF AND MUL OR SWAP1 SSTORE POP PUSH1 0x1 DUP2 PUSH0 ADD PUSH1 0x14 PUSH2 0x100 EXP DUP2 SLOAD DUP2 PUSH1 0xFF MUL NOT AND SWAP1 DUP4 PUSH1 0x3 DUP2 GT ISZERO PUSH2 0x19D5 JUMPI PUSH2 0x19D4 PUSH2 0x3375 JUMP JUMPDEST JUMPDEST MUL OR SWAP1 SSTORE POP TIMESTAMP DUP2 PUSH1 0x1 ADD DUP2 SWAP1 SSTORE POP DUP8 DUP2 PUSH1 0x2 ADD DUP2 SWAP1 SSTORE POP DUP7 DUP2 PUSH1 0x3 ADD DUP2 SWAP1 SSTORE POP DUP6 DUP2 PUSH1 0x4 ADD DUP2 SWAP1 SSTORE POP DUP9 DUP2 PUSH1 0xB ADD DUP2 SWAP1 SSTORE POP DUP2 DUP2 PUSH1 0xD ADD DUP2 SWAP1 SSTORE POP PUSH1 0x5 PUSH0 SWAP1 SLOAD SWAP1 PUSH2 0x100 EXP SWAP1 DIV PUSH1 0xFF AND DUP2 PUSH1 0xE ADD PUSH0 PUSH2 0x100 EXP DUP2 SLOAD DUP2 PUSH1 0xFF MUL NOT AND SWAP1 DUP4 ISZERO ISZERO MUL OR SWAP1 SSTORE POP DUP3 DUP2 PUSH1 0xC ADD PUSH0 PUSH2 0x100 EXP DUP2 SLOAD DUP2 PUSH20 0xFFFFFFFFFFFFFFFFFFFFFFFFFFFFFFFFFFFFFFFF MUL NOT AND SWAP1 DUP4 PUSH20 0xFFFFFFFFFFFFFFFFFFFFFFFFFFFFFFFFFFFFFFFF AND MUL OR SWAP1 SSTORE POP PUSH1 0x3 SLOAD PUSH32 0x4C987E6C9F6AAD2CFE1D70875B12F8B9AF9A28CA87E789BFEF279084BF0354CD TIMESTAMP DUP11 DUP11 DUP14 DUP9 PUSH1 0x5 PUSH0 SWAP1 SLOAD SWAP1 PUSH2 0x100 EXP SWAP1 DIV PUSH1 0xFF AND PUSH1 0x40 MLOAD PUSH2 0x1AC5 SWAP7 SWAP6 SWAP5 SWAP4 SWAP3 SWAP2 SWAP1 PUSH2 0x39ED JUMP JUMPDEST PUSH1 0x40 MLOAD DUP1 SWAP2 SUB SWAP1 LOG2 PUSH0 DUP5 GT ISZERO PUSH2 0x1AE3 JUMPI PUSH2 0x1AE2 PUSH1 0x3 SLOAD DUP7 DUP7 PUSH2 0x1E84 JUMP JUMPDEST JUMPDEST POP POP POP POP POP POP POP POP POP POP JUMP JUMPDEST PUSH1 0x1 PUSH0 DUP2 SWAP1 SSTORE POP JUMP JUMPDEST PUSH0 DUP1 PUSH1 0x7 PUSH0 DUP8 DUP2 MSTORE PUSH1 0x20 ADD SWAP1 DUP2 MSTORE PUSH1 0x20 ADD PUSH0 KECCAK256 PUSH1 0x9 ADD SLOAD EQ PUSH2 0x1B5A JUMPI PUSH1 0x8 PUSH0 DUP7 DUP2 MSTORE PUSH1 0x20 ADD SWAP1 DUP2 MSTORE PUSH1 0x20 ADD PUSH0 KECCAK256 PUSH0 PUSH1 0x1 PUSH1 0x7 PUSH0 DUP10 DUP2 MSTORE PUSH1 0x20 ADD SWAP1 DUP2 MSTORE PUSH1 0x20 ADD PUSH0 KECCAK256 PUSH1 0x9 ADD SLOAD PUSH2 0x1B47 SWAP2 SWAP1 PUSH2 0x3A4C JUMP JUMPDEST DUP2 MSTORE PUSH1 0x20 ADD SWAP1 DUP2 MSTORE PUSH1 0x20 ADD PUSH0 KECCAK256 PUSH0 ADD SLOAD SWAP1 POP JUMPDEST PUSH1 0x40 MLOAD DUP1 PUSH1 0x60 ADD PUSH1 0x40 MSTORE DUP1 DUP5 DUP4 PUSH2 0x1B71 SWAP2 SWAP1 PUSH2 0x360C JUMP JUMPDEST DUP2 MSTORE PUSH1 0x20 ADD DUP6 PUSH20 0xFFFFFFFFFFFFFFFFFFFFFFFFFFFFFFFFFFFFFFFF AND DUP2 MSTORE PUSH1 0x20 ADD DUP4 ISZERO ISZERO DUP2 MSTORE POP PUSH1 0x8 PUSH0 DUP8 DUP2 MSTORE PUSH1 0x20 ADD SWAP1 DUP2 MSTORE PUSH1 0x20 ADD PUSH0 KECCAK256 PUSH0 PUSH1 0x7 PUSH0 DUP10 DUP2 MSTORE PUSH1 0x20 ADD SWAP1 DUP2 MSTORE PUSH1 0x20 ADD PUSH0 KECCAK256 PUSH1 0x9 ADD SLOAD DUP2 MSTORE PUSH1 0x20 ADD SWAP1 DUP2 MSTORE PUSH1 0x20 ADD PUSH0 KECCAK256 PUSH0 DUP3 ADD MLOAD DUP2 PUSH0 ADD SSTORE PUSH1 0x20 DUP3 ADD MLOAD DUP2 PUSH1 0x1 ADD PUSH0 PUSH2 0x100 EXP DUP2 SLOAD DUP2 PUSH20 0xFFFFFFFFFFFFFFFFFFFFFFFFFFFFFFFFFFFFFFFF MUL NOT AND SWAP1 DUP4 PUSH20 0xFFFFFFFFFFFFFFFFFFFFFFFFFFFFFFFFFFFFFFFF AND MUL OR SWAP1 SSTORE POP PUSH1 0x40 DUP3 ADD MLOAD DUP2 PUSH1 0x1 ADD PUSH1 0x14 PUSH2 0x100 EXP DUP2 SLOAD DUP2 PUSH1 0xFF MUL NOT AND SWAP1 DUP4 ISZERO ISZERO MUL OR SWAP1 SSTORE POP SWAP1 POP POP DUP2 ISZERO PUSH2 0x1C80 JUMPI DUP3 PUSH1 0x7 PUSH0 DUP8 DUP2 MSTORE PUSH1 0x20 ADD SWAP1 DUP2 MSTORE PUSH1 0x20 ADD PUSH0 KECCAK256 PUSH1 0x5 ADD SLOAD PUSH2 0x1C63 SWAP2 SWAP1 PUSH2 0x360C JUMP JUMPDEST PUSH1 0x7 PUSH0 DUP8 DUP2 MSTORE PUSH1 0x20 ADD SWAP1 DUP2 MSTORE PUSH1 0x20 ADD PUSH0 KECCAK256 PUSH1 0x5 ADD DUP2 SWAP1 SSTORE POP PUSH2 0x1CB9 JUMP JUMPDEST DUP3 PUSH1 0x7 PUSH0 DUP8 DUP2 MSTORE PUSH1 0x20 ADD SWAP1 DUP2 MSTORE PUSH1 0x20 ADD PUSH0 KECCAK256 PUSH1 0x6 ADD SLOAD PUSH2 0x1CA0 SWAP2 SWAP1 PUSH2 0x360C JUMP JUMPDEST PUSH1 0x7 PUSH0 DUP8 DUP2 MSTORE PUSH1 0x20 ADD SWAP1 DUP2 MSTORE PUSH1 0x20 ADD PUSH0 KECCAK256 PUSH1 0x6 ADD DUP2 SWAP1 SSTORE POP JUMPDEST PUSH0 PUSH1 0xA PUSH0 DUP8 DUP2 MSTORE PUSH1 0x20 ADD SWAP1 DUP2 MSTORE PUSH1 0x20 ADD PUSH0 KECCAK256 PUSH0 DUP7 PUSH20 0xFFFFFFFFFFFFFFFFFFFFFFFFFFFFFFFFFFFFFFFF AND PUSH20 0xFFFFFFFFFFFFFFFFFFFFFFFFFFFFFFFFFFFFFFFF AND DUP2 MSTORE PUSH1 0x20 ADD SWAP1 DUP2 MSTORE PUSH1 0x20 ADD PUSH0 KECCAK256 SLOAD SUB PUSH2 0x1DAA JUMPI DUP4 PUSH1 0xB PUSH0 DUP8 DUP2 MSTORE PUSH1 0x20 ADD SWAP1 DUP2 MSTORE PUSH1 0x20 ADD PUSH0 KECCAK256 PUSH0 PUSH1 0x7 PUSH0 DUP10 DUP2 MSTORE PUSH1 0x20 ADD SWAP1 DUP2 MSTORE PUSH1 0x20 ADD PUSH0 KECCAK256 PUSH1 0x8 ADD SLOAD DUP2 MSTORE PUSH1 0x20 ADD SWAP1 DUP2 MSTORE PUSH1 0x20 ADD PUSH0 KECCAK256 PUSH0 PUSH2 0x100 EXP DUP2 SLOAD DUP2 PUSH20 0xFFFFFFFFFFFFFFFFFFFFFFFFFFFFFFFFFFFFFFFF MUL NOT AND SWAP1 DUP4 PUSH20 0xFFFFFFFFFFFFFFFFFFFFFFFFFFFFFFFFFFFFFFFF AND MUL OR SWAP1 SSTORE POP PUSH1 0x1 PUSH1 0x7 PUSH0 DUP8 DUP2 MSTORE PUSH1 0x20 ADD SWAP1 DUP2 MSTORE PUSH1 0x20 ADD PUSH0 KECCAK256 PUSH1 0x8 ADD PUSH0 DUP3 DUP3 SLOAD PUSH2 0x1DA2 SWAP2 SWAP1 PUSH2 0x360C JUMP JUMPDEST SWAP3 POP POP DUP2 SWAP1 SSTORE POP JUMPDEST PUSH1 0x1 PUSH1 0x7 PUSH0 DUP8 DUP2 MSTORE PUSH1 0x20 ADD SWAP1 DUP2 MSTORE PUSH1 0x20 ADD PUSH0 KECCAK256 PUSH1 0x9 ADD PUSH0 DUP3 DUP3 SLOAD PUSH2 0x1DCE SWAP2 SWAP1 PUSH2 0x360C JUMP JUMPDEST SWAP3 POP POP DUP2 SWAP1 SSTORE POP DUP3 PUSH1 0xA PUSH0 DUP8 DUP2 MSTORE PUSH1 0x20 ADD SWAP1 DUP2 MSTORE PUSH1 0x20 ADD PUSH0 KECCAK256 PUSH0 DUP7 PUSH20 0xFFFFFFFFFFFFFFFFFFFFFFFFFFFFFFFFFFFFFFFF AND PUSH20 0xFFFFFFFFFFFFFFFFFFFFFFFFFFFFFFFFFFFFFFFF AND DUP2 MSTORE PUSH1 0x20 ADD SWAP1 DUP2 MSTORE PUSH1 0x20 ADD PUSH0 KECCAK256 SLOAD PUSH2 0x1E2D SWAP2 SWAP1 PUSH2 0x360C JUMP JUMPDEST PUSH1 0xA PUSH0 DUP8 DUP2 MSTORE PUSH1 0x20 ADD SWAP1 DUP2 MSTORE PUSH1 0x20 ADD PUSH0 KECCAK256 PUSH0 DUP7 PUSH20 0xFFFFFFFFFFFFFFFFFFFFFFFFFFFFFFFFFFFFFFFF AND PUSH20 0xFFFFFFFFFFFFFFFFFFFFFFFFFFFFFFFFFFFFFFFF AND DUP2 MSTORE PUSH1 0x20 ADD SWAP1 DUP2 MSTORE PUSH1 0x20 ADD PUSH0 KECCAK256 DUP2 SWAP1 SSTORE POP POP POP POP POP POP JUMP JUMPDEST PUSH0 DUP2 PUSH1 0x7 PUSH0 DUP7 DUP2 MSTORE PUSH1 0x20 ADD SWAP1 DUP2 MSTORE PUSH1 0x20 ADD PUSH0 KECCAK256 PUSH1 0xB ADD SLOAD PUSH2 0x1EA5 SWAP2 SWAP1 PUSH2 0x379E JUMP JUMPDEST SWAP1 POP PUSH2 0x1F06 DUP4 ADDRESS DUP4 PUSH1 0x7 PUSH0 DUP10 DUP2 MSTORE PUSH1 0x20 ADD SWAP1 DUP2 MSTORE PUSH1 0x20 ADD PUSH0 KECCAK256 PUSH0 ADD PUSH0 SWAP1 SLOAD SWAP1 PUSH2 0x100 EXP SWAP1 DIV PUSH20 0xFFFFFFFFFFFFFFFFFFFFFFFFFFFFFFFFFFFFFFFF AND PUSH20 0xFFFFFFFFFFFFFFFFFFFFFFFFFFFFFFFFFFFFFFFF AND PUSH2 0x29B1 SWAP1 SWAP4 SWAP3 SWAP2 SWAP1 PUSH4 0xFFFFFFFF AND JUMP JUMPDEST DUP2 PUSH1 0x7 PUSH0 PUSH1 0x3 SLOAD DUP2 MSTORE PUSH1 0x20 ADD SWAP1 DUP2 MSTORE PUSH1 0x20 ADD PUSH0 KECCAK256 PUSH1 0x7 ADD PUSH0 DUP3 DUP3 SLOAD PUSH2 0x1F2B SWAP2 SWAP1 PUSH2 0x360C JUMP JUMPDEST SWAP3 POP POP DUP2 SWAP1 SSTORE POP PUSH0 PUSH1 0xE PUSH0 PUSH1 0x3 SLOAD DUP2 MSTORE PUSH1 0x20 ADD SWAP1 DUP2 MSTORE PUSH1 0x20 ADD PUSH0 KECCAK256 PUSH0 DUP6 PUSH20 0xFFFFFFFFFFFFFFFFFFFFFFFFFFFFFFFFFFFFFFFF AND PUSH20 0xFFFFFFFFFFFFFFFFFFFFFFFFFFFFFFFFFFFFFFFF AND DUP2 MSTORE PUSH1 0x20 ADD SWAP1 DUP2 MSTORE PUSH1 0x20 ADD PUSH0 KECCAK256 SLOAD SUB PUSH2 0x202B JUMPI DUP3 PUSH1 0xD PUSH0 PUSH1 0x3 SLOAD DUP2 MSTORE PUSH1 0x20 ADD SWAP1 DUP2 MSTORE PUSH1 0x20 ADD PUSH0 KECCAK256 PUSH0 PUSH1 0x7 PUSH0 PUSH1 0x3 SLOAD DUP2 MSTORE PUSH1 0x20 ADD SWAP1 DUP2 MSTORE PUSH1 0x20 ADD PUSH0 KECCAK256 PUSH1 0xA ADD SLOAD DUP2 MSTORE PUSH1 0x20 ADD SWAP1 DUP2 MSTORE PUSH1 0x20 ADD PUSH0 KECCAK256 PUSH0 PUSH2 0x100 EXP DUP2 SLOAD DUP2 PUSH20 0xFFFFFFFFFFFFFFFFFFFFFFFFFFFFFFFFFFFFFFFF MUL NOT AND SWAP1 DUP4 PUSH20 0xFFFFFFFFFFFFFFFFFFFFFFFFFFFFFFFFFFFFFFFF AND MUL OR SWAP1 SSTORE POP PUSH1 0x1 PUSH1 0x7 PUSH0 PUSH1 0x3 SLOAD DUP2 MSTORE PUSH1 0x20 ADD SWAP1 DUP2 MSTORE PUSH1 0x20 ADD PUSH0 KECCAK256 PUSH1 0xA ADD PUSH0 DUP3 DUP3 SLOAD PUSH2 0x2023 SWAP2 SWAP1 PUSH2 0x360C JUMP JUMPDEST SWAP3 POP POP DUP2 SWAP1 SSTORE POP JUMPDEST DUP2 PUSH1 0xE PUSH0 PUSH1 0x3 SLOAD DUP2 MSTORE PUSH1 0x20 ADD SWAP1 DUP2 MSTORE PUSH1 0x20 ADD PUSH0 KECCAK256 PUSH0 DUP6 PUSH20 0xFFFFFFFFFFFFFFFFFFFFFFFFFFFFFFFFFFFFFFFF AND PUSH20 0xFFFFFFFFFFFFFFFFFFFFFFFFFFFFFFFFFFFFFFFF AND DUP2 MSTORE PUSH1 0x20 ADD SWAP1 DUP2 MSTORE PUSH1 0x20 ADD PUSH0 KECCAK256 PUSH0 DUP3 DUP3 SLOAD PUSH2 0x2088 SWAP2 SWAP1 PUSH2 0x360C JUMP JUMPDEST SWAP3 POP POP DUP2 SWAP1 SSTORE POP DUP3 PUSH20 0xFFFFFFFFFFFFFFFFFFFFFFFFFFFFFFFFFFFFFFFF AND PUSH1 0x3 SLOAD PUSH32 0xA95519638524DCEA0D5D0102C719D77DC3D8B1AE68D2D1E37C79BE21BC7B113B DUP5 PUSH1 0x40 MLOAD PUSH2 0x20D8 SWAP2 SWAP1 PUSH2 0x308B JUMP JUMPDEST PUSH1 0x40 MLOAD DUP1 SWAP2 SUB SWAP1 LOG3 POP POP POP POP JUMP JUMPDEST PUSH2 0x20EE PUSH2 0x2A33 JUMP JUMPDEST PUSH20 0xFFFFFFFFFFFFFFFFFFFFFFFFFFFFFFFFFFFFFFFF AND PUSH2 0x210C PUSH2 0xB54 JUMP JUMPDEST PUSH20 0xFFFFFFFFFFFFFFFFFFFFFFFFFFFFFFFFFFFFFFFF AND EQ PUSH2 0x216B JUMPI PUSH2 0x212F PUSH2 0x2A33 JUMP JUMPDEST PUSH1 0x40 MLOAD PUSH32 0x118CDAA700000000000000000000000000000000000000000000000000000000 DUP2 MSTORE PUSH1 0x4 ADD PUSH2 0x2162 SWAP2 SWAP1 PUSH2 0x30F1 JUMP JUMPDEST PUSH1 0x40 MLOAD DUP1 SWAP2 SUB SWAP1 REVERT JUMPDEST JUMP JUMPDEST PUSH0 PUSH1 0x1 PUSH0 SWAP1 SLOAD SWAP1 PUSH2 0x100 EXP SWAP1 DIV PUSH20 0xFFFFFFFFFFFFFFFFFFFFFFFFFFFFFFFFFFFFFFFF AND SWAP1 POP DUP2 PUSH1 0x1 PUSH0 PUSH2 0x100 EXP DUP2 SLOAD DUP2 PUSH20 0xFFFFFFFFFFFFFFFFFFFFFFFFFFFFFFFFFFFFFFFF MUL NOT AND SWAP1 DUP4 PUSH20 0xFFFFFFFFFFFFFFFFFFFFFFFFFFFFFFFFFFFFFFFF AND MUL OR SWAP1 SSTORE POP DUP2 PUSH20 0xFFFFFFFFFFFFFFFFFFFFFFFFFFFFFFFFFFFFFFFF AND DUP2 PUSH20 0xFFFFFFFFFFFFFFFFFFFFFFFFFFFFFFFFFFFFFFFF AND PUSH32 0x8BE0079C531659141344CD1FD0A4F28419497F9722A3DAAFE3B4186F6B6457E0 PUSH1 0x40 MLOAD PUSH1 0x40 MLOAD DUP1 SWAP2 SUB SWAP1 LOG3 POP POP JUMP JUMPDEST PUSH0 JUMPDEST PUSH1 0x7 PUSH0 DUP4 DUP2 MSTORE PUSH1 0x20 ADD SWAP1 DUP2 MSTORE PUSH1 0x20 ADD PUSH0 KECCAK256 PUSH1 0xA ADD SLOAD DUP2 LT ISZERO PUSH2 0x23A6 JUMPI PUSH0 PUSH1 0xE PUSH0 DUP5 DUP2 MSTORE PUSH1 0x20 ADD SWAP1 DUP2 MSTORE PUSH1 0x20 ADD PUSH0 KECCAK256 PUSH0 PUSH1 0xD PUSH0 DUP7 DUP2 MSTORE PUSH1 0x20 ADD SWAP1 DUP2 MSTORE PUSH1 0x20 ADD PUSH0 KECCAK256 PUSH0 DUP6 DUP2 MSTORE PUSH1 0x20 ADD SWAP1 DUP2 MSTORE PUSH1 0x20 ADD PUSH0 KECCAK256 PUSH0 SWAP1 SLOAD SWAP1 PUSH2 0x100 EXP SWAP1 DIV PUSH20 0xFFFFFFFFFFFFFFFFFFFFFFFFFFFFFFFFFFFFFFFF AND PUSH20 0xFFFFFFFFFFFFFFFFFFFFFFFFFFFFFFFFFFFFFFFF AND PUSH20 0xFFFFFFFFFFFFFFFFFFFFFFFFFFFFFFFFFFFFFFFF AND DUP2 MSTORE PUSH1 0x20 ADD SWAP1 DUP2 MSTORE PUSH1 0x20 ADD PUSH0 KECCAK256 SLOAD PUSH1 0x7 PUSH0 DUP6 DUP2 MSTORE PUSH1 0x20 ADD SWAP1 DUP2 MSTORE PUSH1 0x20 ADD PUSH0 KECCAK256 PUSH1 0xB ADD SLOAD PUSH2 0x22FA SWAP2 SWAP1 PUSH2 0x379E JUMP JUMPDEST SWAP1 POP PUSH2 0x2398 PUSH1 0xD PUSH0 DUP6 DUP2 MSTORE PUSH1 0x20 ADD SWAP1 DUP2 MSTORE PUSH1 0x20 ADD PUSH0 KECCAK256 PUSH0 DUP5 DUP2 MSTORE PUSH1 0x20 ADD SWAP1 DUP2 MSTORE PUSH1 0x20 ADD PUSH0 KECCAK256 PUSH0 SWAP1 SLOAD SWAP1 PUSH2 0x100 EXP SWAP1 DIV PUSH20 0xFFFFFFFFFFFFFFFFFFFFFFFFFFFFFFFFFFFFFFFF AND DUP3 PUSH1 0x7 PUSH0 DUP8 DUP2 MSTORE PUSH1 0x20 ADD SWAP1 DUP2 MSTORE PUSH1 0x20 ADD PUSH0 KECCAK256 PUSH0 ADD PUSH0 SWAP1 SLOAD SWAP1 PUSH2 0x100 EXP SWAP1 DIV PUSH20 0xFFFFFFFFFFFFFFFFFFFFFFFFFFFFFFFFFFFFFFFF AND PUSH20 0xFFFFFFFFFFFFFFFFFFFFFFFFFFFFFFFFFFFFFFFF AND PUSH2 0x2A3A SWAP1 SWAP3 SWAP2 SWAP1 PUSH4 0xFFFFFFFF AND JUMP JUMPDEST POP DUP1 DUP1 PUSH1 0x1 ADD SWAP2 POP POP PUSH2 0x2232 JUMP JUMPDEST POP POP JUMP JUMPDEST PUSH1 0x60 PUSH0 DUP4 PUSH8 0xFFFFFFFFFFFFFFFF DUP2 GT ISZERO PUSH2 0x23C7 JUMPI PUSH2 0x23C6 PUSH2 0x3A7F JUMP JUMPDEST JUMPDEST PUSH1 0x40 MLOAD SWAP1 DUP1 DUP3 MSTORE DUP1 PUSH1 0x20 MUL PUSH1 0x20 ADD DUP3 ADD PUSH1 0x40 MSTORE DUP1 ISZERO PUSH2 0x23F5 JUMPI DUP2 PUSH1 0x20 ADD PUSH1 0x20 DUP3 MUL DUP1 CALLDATASIZE DUP4 CALLDATACOPY DUP1 DUP3 ADD SWAP2 POP POP SWAP1 POP JUMPDEST POP SWAP1 POP PUSH0 DUP6 SWAP1 POP PUSH0 JUMPDEST PUSH1 0x1 DUP7 PUSH2 0x240B SWAP2 SWAP1 PUSH2 0x3A4C JUMP JUMPDEST DUP2 LT ISZERO PUSH2 0x24F5 JUMPI PUSH2 0x241C DUP3 DUP3 PUSH2 0x2AB9 JUMP JUMPDEST SWAP2 POP PUSH0 DUP6 DUP4 PUSH2 0x242B SWAP2 SWAP1 PUSH2 0x3AD9 JUMP JUMPDEST SWAP1 POP PUSH0 DUP3 SWAP1 POP JUMPDEST PUSH1 0x1 DUP2 LT ISZERO DUP1 ISZERO PUSH2 0x2468 JUMPI POP DUP5 PUSH1 0x1 DUP3 PUSH2 0x244C SWAP2 SWAP1 PUSH2 0x3A4C JUMP JUMPDEST DUP2 MLOAD DUP2 LT PUSH2 0x245D JUMPI PUSH2 0x245C PUSH2 0x3B09 JUMP JUMPDEST JUMPDEST PUSH1 0x20 MUL PUSH1 0x20 ADD ADD MLOAD DUP3 LT JUMPDEST ISZERO PUSH2 0x24C6 JUMPI DUP5 PUSH1 0x1 DUP3 PUSH2 0x247B SWAP2 SWAP1 PUSH2 0x3A4C JUMP JUMPDEST DUP2 MLOAD DUP2 LT PUSH2 0x248C JUMPI PUSH2 0x248B PUSH2 0x3B09 JUMP JUMPDEST JUMPDEST PUSH1 0x20 MUL PUSH1 0x20 ADD ADD MLOAD DUP6 DUP3 DUP2 MLOAD DUP2 LT PUSH2 0x24A7 JUMPI PUSH2 0x24A6 PUSH2 0x3B09 JUMP JUMPDEST JUMPDEST PUSH1 0x20 MUL PUSH1 0x20 ADD ADD DUP2 DUP2 MSTORE POP POP DUP1 DUP1 PUSH2 0x24BE SWAP1 PUSH2 0x3B36 JUMP JUMPDEST SWAP2 POP POP PUSH2 0x2432 JUMP JUMPDEST DUP2 DUP6 DUP3 DUP2 MLOAD DUP2 LT PUSH2 0x24DA JUMPI PUSH2 0x24D9 PUSH2 0x3B09 JUMP JUMPDEST JUMPDEST PUSH1 0x20 MUL PUSH1 0x20 ADD ADD DUP2 DUP2 MSTORE POP POP POP POP DUP1 DUP1 PUSH1 0x1 ADD SWAP2 POP POP PUSH2 0x23FE JUMP JUMPDEST POP DUP4 DUP3 PUSH1 0x1 DUP8 PUSH2 0x2505 SWAP2 SWAP1 PUSH2 0x3A4C JUMP JUMPDEST DUP2 MLOAD DUP2 LT PUSH2 0x2516 JUMPI PUSH2 0x2515 PUSH2 0x3B09 JUMP JUMPDEST JUMPDEST PUSH1 0x20 MUL PUSH1 0x20 ADD ADD DUP2 DUP2 MSTORE POP POP DUP2 SWAP3 POP POP POP SWAP4 SWAP3 POP POP POP JUMP JUMPDEST PUSH0 DUP1 PUSH1 0x7 PUSH0 DUP7 DUP2 MSTORE PUSH1 0x20 ADD SWAP1 DUP2 MSTORE PUSH1 0x20 ADD PUSH0 KECCAK256 PUSH1 0x6 ADD SLOAD PUSH1 0x7 PUSH0 DUP8 DUP2 MSTORE PUSH1 0x20 ADD SWAP1 DUP2 MSTORE PUSH1 0x20 ADD PUSH0 KECCAK256 PUSH1 0x5 ADD SLOAD PUSH2 0x2564 SWAP2 SWAP1 PUSH2 0x360C JUMP JUMPDEST SWAP1 POP PUSH0 JUMPDEST DUP5 DUP2 LT ISZERO PUSH2 0x27A9 JUMPI PUSH0 DUP4 DUP6 DUP4 DUP2 MLOAD DUP2 LT PUSH2 0x2585 JUMPI PUSH2 0x2584 PUSH2 0x3B09 JUMP JUMPDEST JUMPDEST PUSH1 0x20 MUL PUSH1 0x20 ADD ADD MLOAD PUSH2 0x2597 SWAP2 SWAP1 PUSH2 0x3A4C JUMP JUMPDEST SWAP1 POP PUSH0 DUP3 SWAP1 POP DUP4 DUP8 EQ PUSH2 0x262C JUMPI DUP4 PUSH2 0x25C9 DUP8 DUP6 DUP2 MLOAD DUP2 LT PUSH2 0x25BB JUMPI PUSH2 0x25BA PUSH2 0x3B09 JUMP JUMPDEST JUMPDEST PUSH1 0x20 MUL PUSH1 0x20 ADD ADD MLOAD DUP6 PUSH2 0x2AB9 JUMP JUMPDEST PUSH2 0x25D3 SWAP2 SWAP1 PUSH2 0x3AD9 JUMP JUMPDEST SWAP1 POP JUMPDEST PUSH0 ISZERO ISZERO PUSH1 0x9 PUSH0 DUP11 DUP2 MSTORE PUSH1 0x20 ADD SWAP1 DUP2 MSTORE PUSH1 0x20 ADD PUSH0 KECCAK256 PUSH0 DUP4 DUP2 MSTORE PUSH1 0x20 ADD SWAP1 DUP2 MSTORE PUSH1 0x20 ADD PUSH0 KECCAK256 PUSH0 SWAP1 SLOAD SWAP1 PUSH2 0x100 EXP SWAP1 DIV PUSH1 0xFF AND ISZERO ISZERO EQ PUSH2 0x262B JUMPI DUP1 DUP1 PUSH2 0x2618 SWAP1 PUSH2 0x39A6 JUMP JUMPDEST SWAP2 POP POP DUP4 DUP2 SUB PUSH2 0x2626 JUMPI PUSH0 SWAP1 POP JUMPDEST PUSH2 0x25D6 JUMP JUMPDEST JUMPDEST PUSH1 0x1 PUSH1 0x9 PUSH0 DUP11 DUP2 MSTORE PUSH1 0x20 ADD SWAP1 DUP2 MSTORE PUSH1 0x20 ADD PUSH0 KECCAK256 PUSH0 DUP4 DUP2 MSTORE PUSH1 0x20 ADD SWAP1 DUP2 MSTORE PUSH1 0x20 ADD PUSH0 KECCAK256 PUSH0 PUSH2 0x100 EXP DUP2 SLOAD DUP2 PUSH1 0xFF MUL NOT AND SWAP1 DUP4 ISZERO ISZERO MUL OR SWAP1 SSTORE POP PUSH0 PUSH2 0x266F DUP10 DUP4 PUSH2 0x2B08 JUMP JUMPDEST SWAP1 POP DUP2 DUP2 PUSH1 0x1 ADD PUSH0 SWAP1 SLOAD SWAP1 PUSH2 0x100 EXP SWAP1 DIV PUSH20 0xFFFFFFFFFFFFFFFFFFFFFFFFFFFFFFFFFFFFFFFF AND PUSH20 0xFFFFFFFFFFFFFFFFFFFFFFFFFFFFFFFFFFFFFFFF AND DUP11 PUSH32 0x927546E38B674F5E5DFF7EDCE9C7AFDCF21A35AC03BA70FE8E341F61F2C73DED DUP7 PUSH1 0x7 PUSH0 DUP16 DUP2 MSTORE PUSH1 0x20 ADD SWAP1 DUP2 MSTORE PUSH1 0x20 ADD PUSH0 KECCAK256 PUSH1 0xE ADD PUSH0 SWAP1 SLOAD SWAP1 PUSH2 0x100 EXP SWAP1 DIV PUSH1 0xFF AND PUSH1 0x40 MLOAD PUSH2 0x26FE SWAP3 SWAP2 SWAP1 PUSH2 0x3B5D JUMP JUMPDEST PUSH1 0x40 MLOAD DUP1 SWAP2 SUB SWAP1 LOG4 DUP3 PUSH1 0xC PUSH0 DUP12 DUP2 MSTORE PUSH1 0x20 ADD SWAP1 DUP2 MSTORE PUSH1 0x20 ADD PUSH0 KECCAK256 PUSH0 DUP4 PUSH1 0x1 ADD PUSH0 SWAP1 SLOAD SWAP1 PUSH2 0x100 EXP SWAP1 DIV PUSH20 0xFFFFFFFFFFFFFFFFFFFFFFFFFFFFFFFFFFFFFFFF AND PUSH20 0xFFFFFFFFFFFFFFFFFFFFFFFFFFFFFFFFFFFFFFFF AND PUSH20 0xFFFFFFFFFFFFFFFFFFFFFFFFFFFFFFFFFFFFFFFF AND DUP2 MSTORE PUSH1 0x20 ADD SWAP1 DUP2 MSTORE PUSH1 0x20 ADD PUSH0 KECCAK256 PUSH0 DUP3 DUP3 SLOAD PUSH2 0x2784 SWAP2 SWAP1 PUSH2 0x360C JUMP JUMPDEST SWAP3 POP POP DUP2 SWAP1 SSTORE POP DUP3 DUP7 PUSH2 0x2797 SWAP2 SWAP1 PUSH2 0x360C JUMP JUMPDEST SWAP6 POP POP POP POP DUP1 DUP1 PUSH1 0x1 ADD SWAP2 POP POP PUSH2 0x2568 JUMP JUMPDEST POP POP POP POP POP POP JUMP JUMPDEST PUSH0 PUSH1 0xC PUSH0 DUP5 DUP2 MSTORE PUSH1 0x20 ADD SWAP1 DUP2 MSTORE PUSH1 0x20 ADD PUSH0 KECCAK256 PUSH0 DUP4 PUSH20 0xFFFFFFFFFFFFFFFFFFFFFFFFFFFFFFFFFFFFFFFF AND PUSH20 0xFFFFFFFFFFFFFFFFFFFFFFFFFFFFFFFFFFFFFFFF AND DUP2 MSTORE PUSH1 0x20 ADD SWAP1 DUP2 MSTORE PUSH1 0x20 ADD PUSH0 KECCAK256 SLOAD SUB PUSH2 0x283F JUMPI PUSH1 0x40 MLOAD PUSH32 0x8C379A000000000000000000000000000000000000000000000000000000000 DUP2 MSTORE PUSH1 0x4 ADD PUSH2 0x2836 SWAP1 PUSH2 0x3BCE JUMP JUMPDEST PUSH1 0x40 MLOAD DUP1 SWAP2 SUB SWAP1 REVERT JUMPDEST PUSH0 PUSH1 0xC PUSH0 DUP5 DUP2 MSTORE PUSH1 0x20 ADD SWAP1 DUP2 MSTORE PUSH1 0x20 ADD PUSH0 KECCAK256 PUSH0 DUP4 PUSH20 0xFFFFFFFFFFFFFFFFFFFFFFFFFFFFFFFFFFFFFFFF AND PUSH20 0xFFFFFFFFFFFFFFFFFFFFFFFFFFFFFFFFFFFFFFFF AND DUP2 MSTORE PUSH1 0x20 ADD SWAP1 DUP2 MSTORE PUSH1 0x20 ADD PUSH0 KECCAK256 SLOAD SWAP1 POP PUSH2 0x28EC DUP3 DUP3 PUSH1 0x7 PUSH0 DUP8 DUP2 MSTORE PUSH1 0x20 ADD SWAP1 DUP2 MSTORE PUSH1 0x20 ADD PUSH0 KECCAK256 PUSH0 ADD PUSH0 SWAP1 SLOAD SWAP1 PUSH2 0x100 EXP SWAP1 DIV PUSH20 0xFFFFFFFFFFFFFFFFFFFFFFFFFFFFFFFFFFFFFFFF AND PUSH20 0xFFFFFFFFFFFFFFFFFFFFFFFFFFFFFFFFFFFFFFFF AND PUSH2 0x2A3A SWAP1 SWAP3 SWAP2 SWAP1 PUSH4 0xFFFFFFFF AND JUMP JUMPDEST PUSH1 0xC PUSH0 DUP5 DUP2 MSTORE PUSH1 0x20 ADD SWAP1 DUP2 MSTORE PUSH1 0x20 ADD PUSH0 KECCAK256 PUSH0 DUP4 PUSH20 0xFFFFFFFFFFFFFFFFFFFFFFFFFFFFFFFFFFFFFFFF AND PUSH20 0xFFFFFFFFFFFFFFFFFFFFFFFFFFFFFFFFFFFFFFFF AND DUP2 MSTORE PUSH1 0x20 ADD SWAP1 DUP2 MSTORE PUSH1 0x20 ADD PUSH0 KECCAK256 PUSH0 SWAP1 SSTORE DUP2 PUSH20 0xFFFFFFFFFFFFFFFFFFFFFFFFFFFFFFFFFFFFFFFF AND DUP4 PUSH32 0x268EF67ED0490CC273925A4865E6FBDB4DCF7E0802AAD957AA682A78C7618BEF DUP4 PUSH1 0x7 PUSH0 DUP9 DUP2 MSTORE PUSH1 0x20 ADD SWAP1 DUP2 MSTORE PUSH1 0x20 ADD PUSH0 KECCAK256 PUSH1 0xE ADD PUSH0 SWAP1 SLOAD SWAP1 PUSH2 0x100 EXP SWAP1 DIV PUSH1 0xFF AND PUSH1 0x40 MLOAD PUSH2 0x29A4 SWAP3 SWAP2 SWAP1 PUSH2 0x3B5D JUMP JUMPDEST PUSH1 0x40 MLOAD DUP1 SWAP2 SUB SWAP1 LOG3 POP POP POP JUMP JUMPDEST PUSH2 0x2A2D DUP5 DUP6 PUSH20 0xFFFFFFFFFFFFFFFFFFFFFFFFFFFFFFFFFFFFFFFF AND PUSH4 0x23B872DD DUP7 DUP7 DUP7 PUSH1 0x40 MLOAD PUSH1 0x24 ADD PUSH2 0x29E6 SWAP4 SWAP3 SWAP2 SWAP1 PUSH2 0x3BEC JUMP JUMPDEST PUSH1 0x40 MLOAD PUSH1 0x20 DUP2 DUP4 SUB SUB DUP2 MSTORE SWAP1 PUSH1 0x40 MSTORE SWAP2 POP PUSH1 0xE0 SHL PUSH1 0x20 DUP3 ADD DUP1 MLOAD PUSH28 0xFFFFFFFFFFFFFFFFFFFFFFFFFFFFFFFFFFFFFFFFFFFFFFFFFFFFFFFF DUP4 DUP2 DUP4 AND OR DUP4 MSTORE POP POP POP POP PUSH2 0x2C9D JUMP JUMPDEST POP POP POP POP JUMP JUMPDEST PUSH0 CALLER SWAP1 POP SWAP1 JUMP JUMPDEST PUSH2 0x2AB4 DUP4 DUP5 PUSH20 0xFFFFFFFFFFFFFFFFFFFFFFFFFFFFFFFFFFFFFFFF AND PUSH4 0xA9059CBB DUP6 DUP6 PUSH1 0x40 MLOAD PUSH1 0x24 ADD PUSH2 0x2A6D SWAP3 SWAP2 SWAP1 PUSH2 0x370F JUMP JUMPDEST PUSH1 0x40 MLOAD PUSH1 0x20 DUP2 DUP4 SUB SUB DUP2 MSTORE SWAP1 PUSH1 0x40 MSTORE SWAP2 POP PUSH1 0xE0 SHL PUSH1 0x20 DUP3 ADD DUP1 MLOAD PUSH28 0xFFFFFFFFFFFFFFFFFFFFFFFFFFFFFFFFFFFFFFFFFFFFFFFFFFFFFFFF DUP4 DUP2 DUP4 AND OR DUP4 MSTORE POP POP POP POP PUSH2 0x2C9D JUMP JUMPDEST POP POP POP JUMP JUMPDEST PUSH0 DUP1 PUSH2 0x100 DUP4 PUSH2 0x2AC9 SWAP2 SWAP1 PUSH2 0x3AD9 JUMP JUMPDEST SWAP1 POP DUP4 PUSH2 0x2AD6 DUP6 DUP4 PUSH2 0x2D32 JUMP JUMPDEST PUSH1 0x40 MLOAD PUSH1 0x20 ADD PUSH2 0x2AE7 SWAP3 SWAP2 SWAP1 PUSH2 0x3C41 JUMP JUMPDEST PUSH1 0x40 MLOAD PUSH1 0x20 DUP2 DUP4 SUB SUB DUP2 MSTORE SWAP1 PUSH1 0x40 MSTORE DUP1 MLOAD SWAP1 PUSH1 0x20 ADD KECCAK256 PUSH0 SHR SWAP2 POP POP SWAP3 SWAP2 POP POP JUMP JUMPDEST PUSH0 DUP2 PUSH1 0x8 PUSH0 DUP6 DUP2 MSTORE PUSH1 0x20 ADD SWAP1 DUP2 MSTORE PUSH1 0x20 ADD PUSH0 KECCAK256 PUSH0 PUSH1 0x1 PUSH1 0x7 PUSH0 DUP9 DUP2 MSTORE PUSH1 0x20 ADD SWAP1 DUP2 MSTORE PUSH1 0x20 ADD PUSH0 KECCAK256 PUSH1 0x9 ADD SLOAD PUSH2 0x2B3D SWAP2 SWAP1 PUSH2 0x3A4C JUMP JUMPDEST DUP2 MSTORE PUSH1 0x20 ADD SWAP1 DUP2 MSTORE PUSH1 0x20 ADD PUSH0 KECCAK256 PUSH0 ADD SLOAD GT PUSH2 0x2B8D JUMPI PUSH1 0x40 MLOAD PUSH32 0x8C379A000000000000000000000000000000000000000000000000000000000 DUP2 MSTORE PUSH1 0x4 ADD PUSH2 0x2B84 SWAP1 PUSH2 0x3CB6 JUMP JUMPDEST PUSH1 0x40 MLOAD DUP1 SWAP2 SUB SWAP1 REVERT JUMPDEST PUSH0 DUP1 PUSH1 0x1 PUSH1 0x7 PUSH0 DUP8 DUP2 MSTORE PUSH1 0x20 ADD SWAP1 DUP2 MSTORE PUSH1 0x20 ADD PUSH0 KECCAK256 PUSH1 0x9 ADD SLOAD PUSH2 0x2BB0 SWAP2 SWAP1 PUSH2 0x3A4C JUMP JUMPDEST SWAP1 POP JUMPDEST PUSH0 PUSH1 0x2 DUP3 DUP5 PUSH2 0x2BC2 SWAP2 SWAP1 PUSH2 0x360C JUMP JUMPDEST PUSH2 0x2BCC SWAP2 SWAP1 PUSH2 0x3CD4 JUMP JUMPDEST SWAP1 POP DUP5 PUSH1 0x8 PUSH0 DUP9 DUP2 MSTORE PUSH1 0x20 ADD SWAP1 DUP2 MSTORE PUSH1 0x20 ADD PUSH0 KECCAK256 PUSH0 DUP4 DUP2 MSTORE PUSH1 0x20 ADD SWAP1 DUP2 MSTORE PUSH1 0x20 ADD PUSH0 KECCAK256 PUSH0 ADD SLOAD GT ISZERO PUSH2 0x2C00 JUMPI DUP1 SWAP2 POP PUSH2 0x2C3A JUMP JUMPDEST DUP5 PUSH1 0x8 PUSH0 DUP9 DUP2 MSTORE PUSH1 0x20 ADD SWAP1 DUP2 MSTORE PUSH1 0x20 ADD PUSH0 KECCAK256 PUSH0 DUP4 DUP2 MSTORE PUSH1 0x20 ADD SWAP1 DUP2 MSTORE PUSH1 0x20 ADD PUSH0 KECCAK256 PUSH0 ADD SLOAD GT PUSH2 0x2C39 JUMPI PUSH1 0x1 DUP2 PUSH2 0x2C36 SWAP2 SWAP1 PUSH2 0x360C JUMP JUMPDEST SWAP3 POP JUMPDEST JUMPDEST DUP2 DUP4 LT PUSH2 0x2C6B JUMPI PUSH1 0x8 PUSH0 DUP8 DUP2 MSTORE PUSH1 0x20 ADD SWAP1 DUP2 MSTORE PUSH1 0x20 ADD PUSH0 KECCAK256 PUSH0 DUP4 DUP2 MSTORE PUSH1 0x20 ADD SWAP1 DUP2 MSTORE PUSH1 0x20 ADD PUSH0 KECCAK256 SWAP4 POP POP POP POP PUSH2 0x2C97 JUMP JUMPDEST POP PUSH1 0x1 PUSH2 0x2BB3 JUMPI PUSH1 0x8 PUSH0 DUP7 DUP2 MSTORE PUSH1 0x20 ADD SWAP1 DUP2 MSTORE PUSH1 0x20 ADD PUSH0 KECCAK256 PUSH0 DUP1 DUP2 MSTORE PUSH1 0x20 ADD SWAP1 DUP2 MSTORE PUSH1 0x20 ADD PUSH0 KECCAK256 SWAP3 POP POP POP JUMPDEST SWAP3 SWAP2 POP POP JUMP JUMPDEST PUSH0 PUSH2 0x2CC7 DUP3 DUP5 PUSH20 0xFFFFFFFFFFFFFFFFFFFFFFFFFFFFFFFFFFFFFFFF AND PUSH2 0x2D5D SWAP1 SWAP2 SWAP1 PUSH4 0xFFFFFFFF AND JUMP JUMPDEST SWAP1 POP PUSH0 DUP2 MLOAD EQ ISZERO DUP1 ISZERO PUSH2 0x2CEB JUMPI POP DUP1 DUP1 PUSH1 0x20 ADD SWAP1 MLOAD DUP2 ADD SWAP1 PUSH2 0x2CE9 SWAP2 SWAP1 PUSH2 0x3D18 JUMP JUMPDEST ISZERO JUMPDEST ISZERO PUSH2 0x2D2D JUMPI DUP3 PUSH1 0x40 MLOAD PUSH32 0x5274AFE700000000000000000000000000000000000000000000000000000000 DUP2 MSTORE PUSH1 0x4 ADD PUSH2 0x2D24 SWAP2 SWAP1 PUSH2 0x30F1 JUMP JUMPDEST PUSH1 0x40 MLOAD DUP1 SWAP2 SUB SWAP1 REVERT JUMPDEST POP POP POP JUMP JUMPDEST PUSH0 DUP2 PUSH2 0x100 PUSH2 0x2D41 SWAP2 SWAP1 PUSH2 0x3D52 JUMP JUMPDEST PUSH4 0xFFFFFFFF AND DUP4 SWAP1 SHR DUP3 PUSH4 0xFFFFFFFF AND DUP5 SWAP1 SHL OR SWAP1 POP SWAP3 SWAP2 POP POP JUMP JUMPDEST PUSH1 0x60 PUSH2 0x2D6A DUP4 DUP4 PUSH0 PUSH2 0x2D72 JUMP JUMPDEST SWAP1 POP SWAP3 SWAP2 POP POP JUMP JUMPDEST PUSH1 0x60 DUP2 SELFBALANCE LT ISZERO PUSH2 0x2DB9 JUMPI ADDRESS PUSH1 0x40 MLOAD PUSH32 0xCD78605900000000000000000000000000000000000000000000000000000000 DUP2 MSTORE PUSH1 0x4 ADD PUSH2 0x2DB0 SWAP2 SWAP1 PUSH2 0x30F1 JUMP JUMPDEST PUSH1 0x40 MLOAD DUP1 SWAP2 SUB SWAP1 REVERT JUMPDEST PUSH0 DUP1 DUP6 PUSH20 0xFFFFFFFFFFFFFFFFFFFFFFFFFFFFFFFFFFFFFFFF AND DUP5 DUP7 PUSH1 0x40 MLOAD PUSH2 0x2DE1 SWAP2 SWAP1 PUSH2 0x3DDB JUMP JUMPDEST PUSH0 PUSH1 0x40 MLOAD DUP1 DUP4 SUB DUP2 DUP6 DUP8 GAS CALL SWAP3 POP POP POP RETURNDATASIZE DUP1 PUSH0 DUP2 EQ PUSH2 0x2E1B JUMPI PUSH1 0x40 MLOAD SWAP2 POP PUSH1 0x1F NOT PUSH1 0x3F RETURNDATASIZE ADD AND DUP3 ADD PUSH1 0x40 MSTORE RETURNDATASIZE DUP3 MSTORE RETURNDATASIZE PUSH0 PUSH1 0x20 DUP5 ADD RETURNDATACOPY PUSH2 0x2E20 JUMP JUMPDEST PUSH1 0x60 SWAP2 POP JUMPDEST POP SWAP2 POP SWAP2 POP PUSH2 0x2E30 DUP7 DUP4 DUP4 PUSH2 0x2E3B JUMP JUMPDEST SWAP3 POP POP POP SWAP4 SWAP3 POP POP POP JUMP JUMPDEST PUSH1 0x60 DUP3 PUSH2 0x2E50 JUMPI PUSH2 0x2E4B DUP3 PUSH2 0x2EC8 JUMP JUMPDEST PUSH2 0x2EC0 JUMP JUMPDEST PUSH0 DUP3 MLOAD EQ DUP1 ISZERO PUSH2 0x2E76 JUMPI POP PUSH0 DUP5 PUSH20 0xFFFFFFFFFFFFFFFFFFFFFFFFFFFFFFFFFFFFFFFF AND EXTCODESIZE EQ JUMPDEST ISZERO PUSH2 0x2EB8 JUMPI DUP4 PUSH1 0x40 MLOAD PUSH32 0x9996B31500000000000000000000000000000000000000000000000000000000 DUP2 MSTORE PUSH1 0x4 ADD PUSH2 0x2EAF SWAP2 SWAP1 PUSH2 0x30F1 JUMP JUMPDEST PUSH1 0x40 MLOAD DUP1 SWAP2 SUB SWAP1 REVERT JUMPDEST DUP2 SWAP1 POP PUSH2 0x2EC1 JUMP JUMPDEST JUMPDEST SWAP4 SWAP3 POP POP POP JUMP JUMPDEST PUSH0 DUP2 MLOAD GT ISZERO PUSH2 0x2EDA JUMPI DUP1 MLOAD DUP1 DUP3 PUSH1 0x20 ADD REVERT JUMPDEST PUSH1 0x40 MLOAD PUSH32 0x1425EA4200000000000000000000000000000000000000000000000000000000 DUP2 MSTORE PUSH1 0x4 ADD PUSH1 0x40 MLOAD DUP1 SWAP2 SUB SWAP1 REVERT JUMPDEST PUSH0 DUP1 REVERT JUMPDEST PUSH0 DUP2 SWAP1 POP SWAP2 SWAP1 POP JUMP JUMPDEST PUSH2 0x2F22 DUP2 PUSH2 0x2F10 JUMP JUMPDEST DUP2 EQ PUSH2 0x2F2C JUMPI PUSH0 DUP1 REVERT JUMPDEST POP JUMP JUMPDEST PUSH0 DUP2 CALLDATALOAD SWAP1 POP PUSH2 0x2F3D DUP2 PUSH2 0x2F19 JUMP JUMPDEST SWAP3 SWAP2 POP POP JUMP JUMPDEST PUSH0 DUP1 PUSH0 DUP1 PUSH1 0x80 DUP6 DUP8 SUB SLT ISZERO PUSH2 0x2F5B JUMPI PUSH2 0x2F5A PUSH2 0x2F0C JUMP JUMPDEST JUMPDEST PUSH0 PUSH2 0x2F68 DUP8 DUP3 DUP9 ADD PUSH2 0x2F2F JUMP JUMPDEST SWAP5 POP POP PUSH1 0x20 PUSH2 0x2F79 DUP8 DUP3 DUP9 ADD PUSH2 0x2F2F JUMP JUMPDEST SWAP4 POP POP PUSH1 0x40 PUSH2 0x2F8A DUP8 DUP3 DUP9 ADD PUSH2 0x2F2F JUMP JUMPDEST SWAP3 POP POP PUSH1 0x60 PUSH2 0x2F9B DUP8 DUP3 DUP9 ADD PUSH2 0x2F2F JUMP JUMPDEST SWAP2 POP POP SWAP3 SWAP6 SWAP2 SWAP5 POP SWAP3 POP JUMP JUMPDEST PUSH0 PUSH1 0x20 DUP3 DUP5 SUB SLT ISZERO PUSH2 0x2FBC JUMPI PUSH2 0x2FBB PUSH2 0x2F0C JUMP JUMPDEST JUMPDEST PUSH0 PUSH2 0x2FC9 DUP5 DUP3 DUP6 ADD PUSH2 0x2F2F JUMP JUMPDEST SWAP2 POP POP SWAP3 SWAP2 POP POP JUMP JUMPDEST PUSH0 PUSH20 0xFFFFFFFFFFFFFFFFFFFFFFFFFFFFFFFFFFFFFFFF DUP3 AND SWAP1 POP SWAP2 SWAP1 POP JUMP JUMPDEST PUSH0 PUSH2 0x2FFB DUP3 PUSH2 0x2FD2 JUMP JUMPDEST SWAP1 POP SWAP2 SWAP1 POP JUMP JUMPDEST PUSH2 0x300B DUP2 PUSH2 0x2FF1 JUMP JUMPDEST DUP2 EQ PUSH2 0x3015 JUMPI PUSH0 DUP1 REVERT JUMPDEST POP JUMP JUMPDEST PUSH0 DUP2 CALLDATALOAD SWAP1 POP PUSH2 0x3026 DUP2 PUSH2 0x3002 JUMP JUMPDEST SWAP3 SWAP2 POP POP JUMP JUMPDEST PUSH0 DUP1 PUSH0 PUSH1 0x60 DUP5 DUP7 SUB SLT ISZERO PUSH2 0x3043 JUMPI PUSH2 0x3042 PUSH2 0x2F0C JUMP JUMPDEST JUMPDEST PUSH0 PUSH2 0x3050 DUP7 DUP3 DUP8 ADD PUSH2 0x2F2F JUMP JUMPDEST SWAP4 POP POP PUSH1 0x20 PUSH2 0x3061 DUP7 DUP3 DUP8 ADD PUSH2 0x3018 JUMP JUMPDEST SWAP3 POP POP PUSH1 0x40 PUSH2 0x3072 DUP7 DUP3 DUP8 ADD PUSH2 0x2F2F JUMP JUMPDEST SWAP2 POP POP SWAP3 POP SWAP3 POP SWAP3 JUMP JUMPDEST PUSH2 0x3085 DUP2 PUSH2 0x2F10 JUMP JUMPDEST DUP3 MSTORE POP POP JUMP JUMPDEST PUSH0 PUSH1 0x20 DUP3 ADD SWAP1 POP PUSH2 0x309E PUSH0 DUP4 ADD DUP5 PUSH2 0x307C JUMP JUMPDEST SWAP3 SWAP2 POP POP JUMP JUMPDEST PUSH0 DUP1 PUSH1 0x40 DUP4 DUP6 SUB SLT ISZERO PUSH2 0x30BA JUMPI PUSH2 0x30B9 PUSH2 0x2F0C JUMP JUMPDEST JUMPDEST PUSH0 PUSH2 0x30C7 DUP6 DUP3 DUP7 ADD PUSH2 0x2F2F JUMP JUMPDEST SWAP3 POP POP PUSH1 0x20 PUSH2 0x30D8 DUP6 DUP3 DUP7 ADD PUSH2 0x2F2F JUMP JUMPDEST SWAP2 POP POP SWAP3 POP SWAP3 SWAP1 POP JUMP JUMPDEST PUSH2 0x30EB DUP2 PUSH2 0x2FF1 JUMP JUMPDEST DUP3 MSTORE POP POP JUMP JUMPDEST PUSH0 PUSH1 0x20 DUP3 ADD SWAP1 POP PUSH2 0x3104 PUSH0 DUP4 ADD DUP5 PUSH2 0x30E2 JUMP JUMPDEST SWAP3 SWAP2 POP POP JUMP JUMPDEST PUSH0 DUP1 PUSH1 0x40 DUP4 DUP6 SUB SLT ISZERO PUSH2 0x3120 JUMPI PUSH2 0x311F PUSH2 0x2F0C JUMP JUMPDEST JUMPDEST PUSH0 PUSH2 0x312D DUP6 DUP3 DUP7 ADD PUSH2 0x3018 JUMP JUMPDEST SWAP3 POP POP PUSH1 0x20 PUSH2 0x313E DUP6 DUP3 DUP7 ADD PUSH2 0x2F2F JUMP JUMPDEST SWAP2 POP POP SWAP3 POP SWAP3 SWAP1 POP JUMP JUMPDEST PUSH0 DUP2 ISZERO ISZERO SWAP1 POP SWAP2 SWAP1 POP JUMP JUMPDEST PUSH2 0x315C DUP2 PUSH2 0x3148 JUMP JUMPDEST DUP3 MSTORE POP POP JUMP JUMPDEST PUSH0 PUSH1 0x20 DUP3 ADD SWAP1 POP PUSH2 0x3175 PUSH0 DUP4 ADD DUP5 PUSH2 0x3153 JUMP JUMPDEST SWAP3 SWAP2 POP POP JUMP JUMPDEST PUSH0 DUP1 PUSH0 DUP1 PUSH0 DUP1 PUSH0 DUP1 PUSH0 PUSH2 0x120 DUP11 DUP13 SUB SLT ISZERO PUSH2 0x3199 JUMPI PUSH2 0x3198 PUSH2 0x2F0C JUMP JUMPDEST JUMPDEST PUSH0 PUSH2 0x31A6 DUP13 DUP3 DUP14 ADD PUSH2 0x3018 JUMP JUMPDEST SWAP10 POP POP PUSH1 0x20 PUSH2 0x31B7 DUP13 DUP3 DUP14 ADD PUSH2 0x2F2F JUMP JUMPDEST SWAP9 POP POP PUSH1 0x40 PUSH2 0x31C8 DUP13 DUP3 DUP14 ADD PUSH2 0x2F2F JUMP JUMPDEST SWAP8 POP POP PUSH1 0x60 PUSH2 0x31D9 DUP13 DUP3 DUP14 ADD PUSH2 0x2F2F JUMP JUMPDEST SWAP7 POP POP PUSH1 0x80 PUSH2 0x31EA DUP13 DUP3 DUP14 ADD PUSH2 0x2F2F JUMP JUMPDEST SWAP6 POP POP PUSH1 0xA0 PUSH2 0x31FB DUP13 DUP3 DUP14 ADD PUSH2 0x3018 JUMP JUMPDEST SWAP5 POP POP PUSH1 0xC0 PUSH2 0x320C DUP13 DUP3 DUP14 ADD PUSH2 0x2F2F JUMP JUMPDEST SWAP4 POP POP PUSH1 0xE0 PUSH2 0x321D DUP13 DUP3 DUP14 ADD PUSH2 0x3018 JUMP JUMPDEST SWAP3 POP POP PUSH2 0x100 PUSH2 0x322F DUP13 DUP3 DUP14 ADD PUSH2 0x2F2F JUMP JUMPDEST SWAP2 POP POP SWAP3 SWAP6 SWAP9 POP SWAP3 SWAP6 SWAP9 POP SWAP3 SWAP6 SWAP9 JUMP JUMPDEST PUSH0 PUSH1 0x20 DUP3 DUP5 SUB SLT ISZERO PUSH2 0x3254 JUMPI PUSH2 0x3253 PUSH2 0x2F0C JUMP JUMPDEST JUMPDEST PUSH0 PUSH2 0x3261 DUP5 DUP3 DUP6 ADD PUSH2 0x3018 JUMP JUMPDEST SWAP2 POP POP SWAP3 SWAP2 POP POP JUMP JUMPDEST PUSH2 0x3273 DUP2 PUSH2 0x3148 JUMP JUMPDEST DUP2 EQ PUSH2 0x327D JUMPI PUSH0 DUP1 REVERT JUMPDEST POP JUMP JUMPDEST PUSH0 DUP2 CALLDATALOAD SWAP1 POP PUSH2 0x328E DUP2 PUSH2 0x326A JUMP JUMPDEST SWAP3 SWAP2 POP POP JUMP JUMPDEST PUSH0 DUP1 PUSH1 0x40 DUP4 DUP6 SUB SLT ISZERO PUSH2 0x32AA JUMPI PUSH2 0x32A9 PUSH2 0x2F0C JUMP JUMPDEST JUMPDEST PUSH0 PUSH2 0x32B7 DUP6 DUP3 DUP7 ADD PUSH2 0x3018 JUMP JUMPDEST SWAP3 POP POP PUSH1 0x20 PUSH2 0x32C8 DUP6 DUP3 DUP7 ADD PUSH2 0x3280 JUMP JUMPDEST SWAP2 POP POP SWAP3 POP SWAP3 SWAP1 POP JUMP JUMPDEST PUSH0 PUSH1 0x20 DUP3 DUP5 SUB SLT ISZERO PUSH2 0x32E7 JUMPI PUSH2 0x32E6 PUSH2 0x2F0C JUMP JUMPDEST JUMPDEST PUSH0 PUSH2 0x32F4 DUP5 DUP3 DUP6 ADD PUSH2 0x3280 JUMP JUMPDEST SWAP2 POP POP SWAP3 SWAP2 POP POP JUMP JUMPDEST PUSH0 DUP3 DUP3 MSTORE PUSH1 0x20 DUP3 ADD SWAP1 POP SWAP3 SWAP2 POP POP JUMP JUMPDEST PUSH32 0x4E6F74206F70657261746F720000000000000000000000000000000000000000 PUSH0 DUP3 ADD MSTORE POP JUMP JUMPDEST PUSH0 PUSH2 0x3341 PUSH1 0xC DUP4 PUSH2 0x32FD JUMP JUMPDEST SWAP2 POP PUSH2 0x334C DUP3 PUSH2 0x330D JUMP JUMPDEST PUSH1 0x20 DUP3 ADD SWAP1 POP SWAP2 SWAP1 POP JUMP JUMPDEST PUSH0 PUSH1 0x20 DUP3 ADD SWAP1 POP DUP2 DUP2 SUB PUSH0 DUP4 ADD MSTORE PUSH2 0x336E DUP2 PUSH2 0x3335 JUMP JUMPDEST SWAP1 POP SWAP2 SWAP1 POP JUMP JUMPDEST PUSH32 0x4E487B7100000000000000000000000000000000000000000000000000000000 PUSH0 MSTORE PUSH1 0x21 PUSH1 0x4 MSTORE PUSH1 0x24 PUSH0 REVERT JUMPDEST PUSH32 0x526564456E76656C6F7065206973206E6F74206F70656E000000000000000000 PUSH0 DUP3 ADD MSTORE POP JUMP JUMPDEST PUSH0 PUSH2 0x33D6 PUSH1 0x17 DUP4 PUSH2 0x32FD JUMP JUMPDEST SWAP2 POP PUSH2 0x33E1 DUP3 PUSH2 0x33A2 JUMP JUMPDEST PUSH1 0x20 DUP3 ADD SWAP1 POP SWAP2 SWAP1 POP JUMP JUMPDEST PUSH0 PUSH1 0x20 DUP3 ADD SWAP1 POP DUP2 DUP2 SUB PUSH0 DUP4 ADD MSTORE PUSH2 0x3403 DUP2 PUSH2 0x33CA JUMP JUMPDEST SWAP1 POP SWAP2 SWAP1 POP JUMP JUMPDEST PUSH0 PUSH1 0x60 DUP3 ADD SWAP1 POP PUSH2 0x341D PUSH0 DUP4 ADD DUP7 PUSH2 0x307C JUMP JUMPDEST PUSH2 0x342A PUSH1 0x20 DUP4 ADD DUP6 PUSH2 0x307C JUMP JUMPDEST PUSH2 0x3437 PUSH1 0x40 DUP4 ADD DUP5 PUSH2 0x307C JUMP JUMPDEST SWAP5 SWAP4 POP POP POP POP JUMP JUMPDEST PUSH32 0x6E6F20676574207469636B6574206D6F64656C00000000000000000000000000 PUSH0 DUP3 ADD MSTORE POP JUMP JUMPDEST PUSH0 PUSH2 0x3473 PUSH1 0x13 DUP4 PUSH2 0x32FD JUMP JUMPDEST SWAP2 POP PUSH2 0x347E DUP3 PUSH2 0x343F JUMP JUMPDEST PUSH1 0x20 DUP3 ADD SWAP1 POP SWAP2 SWAP1 POP JUMP JUMPDEST PUSH0 PUSH1 0x20 DUP3 ADD SWAP1 POP DUP2 DUP2 SUB PUSH0 DUP4 ADD MSTORE PUSH2 0x34A0 DUP2 PUSH2 0x3467 JUMP JUMPDEST SWAP1 POP SWAP2 SWAP1 POP JUMP JUMPDEST PUSH32 0x6E6F7420616C6C6F7720676574207469636B6574000000000000000000000000 PUSH0 DUP3 ADD MSTORE POP JUMP JUMPDEST PUSH0 PUSH2 0x34DB PUSH1 0x14 DUP4 PUSH2 0x32FD JUMP JUMPDEST SWAP2 POP PUSH2 0x34E6 DUP3 PUSH2 0x34A7 JUMP JUMPDEST PUSH1 0x20 DUP3 ADD SWAP1 POP SWAP2 SWAP1 POP JUMP JUMPDEST PUSH0 PUSH1 0x20 DUP3 ADD SWAP1 POP DUP2 DUP2 SUB PUSH0 DUP4 ADD MSTORE PUSH2 0x3508 DUP2 PUSH2 0x34CF JUMP JUMPDEST SWAP1 POP SWAP2 SWAP1 POP JUMP JUMPDEST PUSH32 0x7469636B65744E756D62657273206E6F207A65726F0000000000000000000000 PUSH0 DUP3 ADD MSTORE POP JUMP JUMPDEST PUSH0 PUSH2 0x3543 PUSH1 0x15 DUP4 PUSH2 0x32FD JUMP JUMPDEST SWAP2 POP PUSH2 0x354E DUP3 PUSH2 0x350F JUMP JUMPDEST PUSH1 0x20 DUP3 ADD SWAP1 POP SWAP2 SWAP1 POP JUMP JUMPDEST PUSH0 PUSH1 0x20 DUP3 ADD SWAP1 POP DUP2 DUP2 SUB PUSH0 DUP4 ADD MSTORE PUSH2 0x3570 DUP2 PUSH2 0x3537 JUMP JUMPDEST SWAP1 POP SWAP2 SWAP1 POP JUMP JUMPDEST PUSH32 0x526564456E76656C6F7065206973206F7665722074696D650000000000000000 PUSH0 DUP3 ADD MSTORE POP JUMP JUMPDEST PUSH0 PUSH2 0x35AB PUSH1 0x18 DUP4 PUSH2 0x32FD JUMP JUMPDEST SWAP2 POP PUSH2 0x35B6 DUP3 PUSH2 0x3577 JUMP JUMPDEST PUSH1 0x20 DUP3 ADD SWAP1 POP SWAP2 SWAP1 POP JUMP JUMPDEST PUSH0 PUSH1 0x20 DUP3 ADD SWAP1 POP DUP2 DUP2 SUB PUSH0 DUP4 ADD MSTORE PUSH2 0x35D8 DUP2 PUSH2 0x359F JUMP JUMPDEST SWAP1 POP SWAP2 SWAP1 POP JUMP JUMPDEST PUSH32 0x4E487B7100000000000000000000000000000000000000000000000000000000 PUSH0 MSTORE PUSH1 0x11 PUSH1 0x4 MSTORE PUSH1 0x24 PUSH0 REVERT JUMPDEST PUSH0 PUSH2 0x3616 DUP3 PUSH2 0x2F10 JUMP JUMPDEST SWAP2 POP PUSH2 0x3621 DUP4 PUSH2 0x2F10 JUMP JUMPDEST SWAP3 POP DUP3 DUP3 ADD SWAP1 POP DUP1 DUP3 GT ISZERO PUSH2 0x3639 JUMPI PUSH2 0x3638 PUSH2 0x35DF JUMP JUMPDEST JUMPDEST SWAP3 SWAP2 POP POP JUMP JUMPDEST PUSH32 0x526564456E76656C6F7065206973206F766572207469636B6574000000000000 PUSH0 DUP3 ADD MSTORE POP JUMP JUMPDEST PUSH0 PUSH2 0x3673 PUSH1 0x1A DUP4 PUSH2 0x32FD JUMP JUMPDEST SWAP2 POP PUSH2 0x367E DUP3 PUSH2 0x363F JUMP JUMPDEST PUSH1 0x20 DUP3 ADD SWAP1 POP SWAP2 SWAP1 POP JUMP JUMPDEST PUSH0 PUSH1 0x20 DUP3 ADD SWAP1 POP DUP2 DUP2 SUB PUSH0 DUP4 ADD MSTORE PUSH2 0x36A0 DUP2 PUSH2 0x3667 JUMP JUMPDEST SWAP1 POP SWAP2 SWAP1 POP JUMP JUMPDEST PUSH32 0x696E6A656374206E6F207A65726F000000000000000000000000000000000000 PUSH0 DUP3 ADD MSTORE POP JUMP JUMPDEST PUSH0 PUSH2 0x36DB PUSH1 0xE DUP4 PUSH2 0x32FD JUMP JUMPDEST SWAP2 POP PUSH2 0x36E6 DUP3 PUSH2 0x36A7 JUMP JUMPDEST PUSH1 0x20 DUP3 ADD SWAP1 POP SWAP2 SWAP1 POP JUMP JUMPDEST PUSH0 PUSH1 0x20 DUP3 ADD SWAP1 POP DUP2 DUP2 SUB PUSH0 DUP4 ADD MSTORE PUSH2 0x3708 DUP2 PUSH2 0x36CF JUMP JUMPDEST SWAP1 POP SWAP2 SWAP1 POP JUMP JUMPDEST PUSH0 PUSH1 0x40 DUP3 ADD SWAP1 POP PUSH2 0x3722 PUSH0 DUP4 ADD DUP6 PUSH2 0x30E2 JUMP JUMPDEST PUSH2 0x372F PUSH1 0x20 DUP4 ADD DUP5 PUSH2 0x307C JUMP JUMPDEST SWAP4 SWAP3 POP POP POP JUMP JUMPDEST PUSH32 0x526564456E76656C6F7065206E6F7420636C6F73650000000000000000000000 PUSH0 DUP3 ADD MSTORE POP JUMP JUMPDEST PUSH0 PUSH2 0x376A PUSH1 0x15 DUP4 PUSH2 0x32FD JUMP JUMPDEST SWAP2 POP PUSH2 0x3775 DUP3 PUSH2 0x3736 JUMP JUMPDEST PUSH1 0x20 DUP3 ADD SWAP1 POP SWAP2 SWAP1 POP JUMP JUMPDEST PUSH0 PUSH1 0x20 DUP3 ADD SWAP1 POP DUP2 DUP2 SUB PUSH0 DUP4 ADD MSTORE PUSH2 0x3797 DUP2 PUSH2 0x375E JUMP JUMPDEST SWAP1 POP SWAP2 SWAP1 POP JUMP JUMPDEST PUSH0 PUSH2 0x37A8 DUP3 PUSH2 0x2F10 JUMP JUMPDEST SWAP2 POP PUSH2 0x37B3 DUP4 PUSH2 0x2F10 JUMP JUMPDEST SWAP3 POP DUP3 DUP3 MUL PUSH2 0x37C1 DUP2 PUSH2 0x2F10 JUMP JUMPDEST SWAP2 POP DUP3 DUP3 DIV DUP5 EQ DUP4 ISZERO OR PUSH2 0x37D8 JUMPI PUSH2 0x37D7 PUSH2 0x35DF JUMP JUMPDEST JUMPDEST POP SWAP3 SWAP2 POP POP JUMP JUMPDEST PUSH32 0x6E6F20627579207469636B6574206D6F64656C00000000000000000000000000 PUSH0 DUP3 ADD MSTORE POP JUMP JUMPDEST PUSH0 PUSH2 0x3813 PUSH1 0x13 DUP4 PUSH2 0x32FD JUMP JUMPDEST SWAP2 POP PUSH2 0x381E DUP3 PUSH2 0x37DF JUMP JUMPDEST PUSH1 0x20 DUP3 ADD SWAP1 POP SWAP2 SWAP1 POP JUMP JUMPDEST PUSH0 PUSH1 0x20 DUP3 ADD SWAP1 POP DUP2 DUP2 SUB PUSH0 DUP4 ADD MSTORE PUSH2 0x3840 DUP2 PUSH2 0x3807 JUMP JUMPDEST SWAP1 POP SWAP2 SWAP1 POP JUMP JUMPDEST PUSH32 0x526564456E76656C6F7065206E6F7420636C61696D61626C6500000000000000 PUSH0 DUP3 ADD MSTORE POP JUMP JUMPDEST PUSH0 PUSH2 0x387B PUSH1 0x19 DUP4 PUSH2 0x32FD JUMP JUMPDEST SWAP2 POP PUSH2 0x3886 DUP3 PUSH2 0x3847 JUMP JUMPDEST PUSH1 0x20 DUP3 ADD SWAP1 POP SWAP2 SWAP1 POP JUMP JUMPDEST PUSH0 PUSH1 0x20 DUP3 ADD SWAP1 POP DUP2 DUP2 SUB PUSH0 DUP4 ADD MSTORE PUSH2 0x38A8 DUP2 PUSH2 0x386F JUMP JUMPDEST SWAP1 POP SWAP2 SWAP1 POP JUMP JUMPDEST PUSH32 0x526564456E76656C6F7065206175746F20636C61696D00000000000000000000 PUSH0 DUP3 ADD MSTORE POP JUMP JUMPDEST PUSH0 PUSH2 0x38E3 PUSH1 0x16 DUP4 PUSH2 0x32FD JUMP JUMPDEST SWAP2 POP PUSH2 0x38EE DUP3 PUSH2 0x38AF JUMP JUMPDEST PUSH1 0x20 DUP3 ADD SWAP1 POP SWAP2 SWAP1 POP JUMP JUMPDEST PUSH0 PUSH1 0x20 DUP3 ADD SWAP1 POP DUP2 DUP2 SUB PUSH0 DUP4 ADD MSTORE PUSH2 0x3910 DUP2 PUSH2 0x38D7 JUMP JUMPDEST SWAP1 POP SWAP2 SWAP1 POP JUMP JUMPDEST PUSH32 0x43616E6E6F74206265207A65726F206164647265737300000000000000000000 PUSH0 DUP3 ADD MSTORE POP JUMP JUMPDEST PUSH0 PUSH2 0x394B PUSH1 0x16 DUP4 PUSH2 0x32FD JUMP JUMPDEST SWAP2 POP PUSH2 0x3956 DUP3 PUSH2 0x3917 JUMP JUMPDEST PUSH1 0x20 DUP3 ADD SWAP1 POP SWAP2 SWAP1 POP JUMP JUMPDEST PUSH0 PUSH1 0x20 DUP3 ADD SWAP1 POP DUP2 DUP2 SUB PUSH0 DUP4 ADD MSTORE PUSH2 0x3978 DUP2 PUSH2 0x393F JUMP JUMPDEST SWAP1 POP SWAP2 SWAP1 POP JUMP JUMPDEST PUSH0 PUSH1 0x40 DUP3 ADD SWAP1 POP PUSH2 0x3992 PUSH0 DUP4 ADD DUP6 PUSH2 0x30E2 JUMP JUMPDEST PUSH2 0x399F PUSH1 0x20 DUP4 ADD DUP5 PUSH2 0x3153 JUMP JUMPDEST SWAP4 SWAP3 POP POP POP JUMP JUMPDEST PUSH0 PUSH2 0x39B0 DUP3 PUSH2 0x2F10 JUMP JUMPDEST SWAP2 POP PUSH32 0xFFFFFFFFFFFFFFFFFFFFFFFFFFFFFFFFFFFFFFFFFFFFFFFFFFFFFFFFFFFFFFFF DUP3 SUB PUSH2 0x39E2 JUMPI PUSH2 0x39E1 PUSH2 0x35DF JUMP JUMPDEST JUMPDEST PUSH1 0x1 DUP3 ADD SWAP1 POP SWAP2 SWAP1 POP JUMP JUMPDEST PUSH0 PUSH1 0xC0 DUP3 ADD SWAP1 POP PUSH2 0x3A00 PUSH0 DUP4 ADD DUP10 PUSH2 0x307C JUMP JUMPDEST PUSH2 0x3A0D PUSH1 0x20 DUP4 ADD DUP9 PUSH2 0x307C JUMP JUMPDEST PUSH2 0x3A1A PUSH1 0x40 DUP4 ADD DUP8 PUSH2 0x307C JUMP JUMPDEST PUSH2 0x3A27 PUSH1 0x60 DUP4 ADD DUP7 PUSH2 0x307C JUMP JUMPDEST PUSH2 0x3A34 PUSH1 0x80 DUP4 ADD DUP6 PUSH2 0x30E2 JUMP JUMPDEST PUSH2 0x3A41 PUSH1 0xA0 DUP4 ADD DUP5 PUSH2 0x3153 JUMP JUMPDEST SWAP8 SWAP7 POP POP POP POP POP POP POP JUMP JUMPDEST PUSH0 PUSH2 0x3A56 DUP3 PUSH2 0x2F10 JUMP JUMPDEST SWAP2 POP PUSH2 0x3A61 DUP4 PUSH2 0x2F10 JUMP JUMPDEST SWAP3 POP DUP3 DUP3 SUB SWAP1 POP DUP2 DUP2 GT ISZERO PUSH2 0x3A79 JUMPI PUSH2 0x3A78 PUSH2 0x35DF JUMP JUMPDEST JUMPDEST SWAP3 SWAP2 POP POP JUMP JUMPDEST PUSH32 0x4E487B7100000000000000000000000000000000000000000000000000000000 PUSH0 MSTORE PUSH1 0x41 PUSH1 0x4 MSTORE PUSH1 0x24 PUSH0 REVERT JUMPDEST PUSH32 0x4E487B7100000000000000000000000000000000000000000000000000000000 PUSH0 MSTORE PUSH1 0x12 PUSH1 0x4 MSTORE PUSH1 0x24 PUSH0 REVERT JUMPDEST PUSH0 PUSH2 0x3AE3 DUP3 PUSH2 0x2F10 JUMP JUMPDEST SWAP2 POP PUSH2 0x3AEE DUP4 PUSH2 0x2F10 JUMP JUMPDEST SWAP3 POP DUP3 PUSH2 0x3AFE JUMPI PUSH2 0x3AFD PUSH2 0x3AAC JUMP JUMPDEST JUMPDEST DUP3 DUP3 MOD SWAP1 POP SWAP3 SWAP2 POP POP JUMP JUMPDEST PUSH32 0x4E487B7100000000000000000000000000000000000000000000000000000000 PUSH0 MSTORE PUSH1 0x32 PUSH1 0x4 MSTORE PUSH1 0x24 PUSH0 REVERT JUMPDEST PUSH0 PUSH2 0x3B40 DUP3 PUSH2 0x2F10 JUMP JUMPDEST SWAP2 POP PUSH0 DUP3 SUB PUSH2 0x3B52 JUMPI PUSH2 0x3B51 PUSH2 0x35DF JUMP JUMPDEST JUMPDEST PUSH1 0x1 DUP3 SUB SWAP1 POP SWAP2 SWAP1 POP JUMP JUMPDEST PUSH0 PUSH1 0x40 DUP3 ADD SWAP1 POP PUSH2 0x3B70 PUSH0 DUP4 ADD DUP6 PUSH2 0x307C JUMP JUMPDEST PUSH2 0x3B7D PUSH1 0x20 DUP4 ADD DUP5 PUSH2 0x3153 JUMP JUMPDEST SWAP4 SWAP3 POP POP POP JUMP JUMPDEST PUSH32 0x6E6F207072697A65000000000000000000000000000000000000000000000000 PUSH0 DUP3 ADD MSTORE POP JUMP JUMPDEST PUSH0 PUSH2 0x3BB8 PUSH1 0x8 DUP4 PUSH2 0x32FD JUMP JUMPDEST SWAP2 POP PUSH2 0x3BC3 DUP3 PUSH2 0x3B84 JUMP JUMPDEST PUSH1 0x20 DUP3 ADD SWAP1 POP SWAP2 SWAP1 POP JUMP JUMPDEST PUSH0 PUSH1 0x20 DUP3 ADD SWAP1 POP DUP2 DUP2 SUB PUSH0 DUP4 ADD MSTORE PUSH2 0x3BE5 DUP2 PUSH2 0x3BAC JUMP JUMPDEST SWAP1 POP SWAP2 SWAP1 POP JUMP JUMPDEST PUSH0 PUSH1 0x60 DUP3 ADD SWAP1 POP PUSH2 0x3BFF PUSH0 DUP4 ADD DUP7 PUSH2 0x30E2 JUMP JUMPDEST PUSH2 0x3C0C PUSH1 0x20 DUP4 ADD DUP6 PUSH2 0x30E2 JUMP JUMPDEST PUSH2 0x3C19 PUSH1 0x40 DUP4 ADD DUP5 PUSH2 0x307C JUMP JUMPDEST SWAP5 SWAP4 POP POP POP POP JUMP JUMPDEST PUSH0 DUP2 SWAP1 POP SWAP2 SWAP1 POP JUMP JUMPDEST PUSH2 0x3C3B PUSH2 0x3C36 DUP3 PUSH2 0x2F10 JUMP JUMPDEST PUSH2 0x3C21 JUMP JUMPDEST DUP3 MSTORE POP POP JUMP JUMPDEST PUSH0 PUSH2 0x3C4C DUP3 DUP6 PUSH2 0x3C2A JUMP JUMPDEST PUSH1 0x20 DUP3 ADD SWAP2 POP PUSH2 0x3C5C DUP3 DUP5 PUSH2 0x3C2A JUMP JUMPDEST PUSH1 0x20 DUP3 ADD SWAP2 POP DUP2 SWAP1 POP SWAP4 SWAP3 POP POP POP JUMP JUMPDEST PUSH32 0x696E646578206F75742072616E67650000000000000000000000000000000000 PUSH0 DUP3 ADD MSTORE POP JUMP JUMPDEST PUSH0 PUSH2 0x3CA0 PUSH1 0xF DUP4 PUSH2 0x32FD JUMP JUMPDEST SWAP2 POP PUSH2 0x3CAB DUP3 PUSH2 0x3C6C JUMP JUMPDEST PUSH1 0x20 DUP3 ADD SWAP1 POP SWAP2 SWAP1 POP JUMP JUMPDEST PUSH0 PUSH1 0x20 DUP3 ADD SWAP1 POP DUP2 DUP2 SUB PUSH0 DUP4 ADD MSTORE PUSH2 0x3CCD DUP2 PUSH2 0x3C94 JUMP JUMPDEST SWAP1 POP SWAP2 SWAP1 POP JUMP JUMPDEST PUSH0 PUSH2 0x3CDE DUP3 PUSH2 0x2F10 JUMP JUMPDEST SWAP2 POP PUSH2 0x3CE9 DUP4 PUSH2 0x2F10 JUMP JUMPDEST SWAP3 POP DUP3 PUSH2 0x3CF9 JUMPI PUSH2 0x3CF8 PUSH2 0x3AAC JUMP JUMPDEST JUMPDEST DUP3 DUP3 DIV SWAP1 POP SWAP3 SWAP2 POP POP JUMP JUMPDEST PUSH0 DUP2 MLOAD SWAP1 POP PUSH2 0x3D12 DUP2 PUSH2 0x326A JUMP JUMPDEST SWAP3 SWAP2 POP POP JUMP JUMPDEST PUSH0 PUSH1 0x20 DUP3 DUP5 SUB SLT ISZERO PUSH2 0x3D2D JUMPI PUSH2 0x3D2C PUSH2 0x2F0C JUMP JUMPDEST JUMPDEST PUSH0 PUSH2 0x3D3A DUP5 DUP3 DUP6 ADD PUSH2 0x3D04 JUMP JUMPDEST SWAP2 POP POP SWAP3 SWAP2 POP POP JUMP JUMPDEST PUSH0 PUSH4 0xFFFFFFFF DUP3 AND SWAP1 POP SWAP2 SWAP1 POP JUMP JUMPDEST PUSH0 PUSH2 0x3D5C DUP3 PUSH2 0x3D43 JUMP JUMPDEST SWAP2 POP PUSH2 0x3D67 DUP4 PUSH2 0x3D43 JUMP JUMPDEST SWAP3 POP DUP3 DUP3 SUB SWAP1 POP PUSH4 0xFFFFFFFF DUP2 GT ISZERO PUSH2 0x3D83 JUMPI PUSH2 0x3D82 PUSH2 0x35DF JUMP JUMPDEST JUMPDEST SWAP3 SWAP2 POP POP JUMP JUMPDEST PUSH0 DUP2 MLOAD SWAP1 POP SWAP2 SWAP1 POP JUMP JUMPDEST PUSH0 DUP2 SWAP1 POP SWAP3 SWAP2 POP POP JUMP JUMPDEST DUP3 DUP2 DUP4 MCOPY PUSH0 DUP4 DUP4 ADD MSTORE POP POP POP JUMP JUMPDEST PUSH0 PUSH2 0x3DB5 DUP3 PUSH2 0x3D89 JUMP JUMPDEST PUSH2 0x3DBF DUP2 DUP6 PUSH2 0x3D93 JUMP JUMPDEST SWAP4 POP PUSH2 0x3DCF DUP2 DUP6 PUSH1 0x20 DUP7 ADD PUSH2 0x3D9D JUMP JUMPDEST DUP1 DUP5 ADD SWAP2 POP POP SWAP3 SWAP2 POP POP JUMP JUMPDEST PUSH0 PUSH2 0x3DE6 DUP3 DUP5 PUSH2 0x3DAB JUMP JUMPDEST SWAP2 POP DUP2 SWAP1 POP SWAP3 SWAP2 POP POP JUMP INVALID LOG2 PUSH5 0x6970667358 0x22 SLT KECCAK256 PUSH14 0x84BD066A9C6EE713BD27915FAAC4 MULMOD 0x1F 0xD4 LOG1 0x24 PUSH32 0xF740C75BD3BD17CEBAF50E64736F6C6343000819003300000000000000000000 "
		},
		"gasEstimates": {
			"creation": {
				"codeDepositCost": "3182200",
				"executionCost": "infinite",
				"totalCost": "infinite"
			},
			"external": {
				"buyTickets(uint256,address,uint256)": "infinite",
				"claimPrize(uint256)": "infinite",
				"createRedEnvelope(uint256,uint256,uint256,uint256)": "infinite",
				"createRedEnvelopeDetail(address,uint256,uint256,uint256,uint256,address,uint256,address,uint256)": "infinite",
				"currentId()": "2491",
				"defaultAutoClaim()": "2489",
				"defaultTicketPirce()": "2515",
				"defaultTicketToken()": "2619",
				"drawPrize(uint256,uint256)": "infinite",
				"endRedEnvelope(uint256)": "infinite",
				"getTickets(uint256,address,uint256)": "infinite",
				"injectTickets(uint256,uint256)": "infinite",
				"operatorAddressList(address)": "2900",
				"owner()": "2560",
				"renounceOwnership()": "infinite",
				"setDefaultAutoClaim(bool)": "infinite",
				"setOperatorAddress(address,bool)": "infinite",
				"setTicketToken(address,uint256)": "infinite",
				"transferOwnership(address)": "infinite",
				"viewCurrentRedEnvelopeId()": "2521",
				"viewRedEnvelopeStatus(uint256)": "infinite"
			},
			"internal": {
				"_calculatePrize(uint256,uint256,uint256[] memory)": "infinite",
				"_claimPrize(uint256,address)": "infinite",
				"_createRedEnvelope(address,uint256,uint256,uint256,uint256,address,uint256,address,uint256)": "infinite",
				"_deriveRandom(uint256,uint256)": "infinite",
				"_fillTicket(uint256,address,uint256,bool)": "infinite",
				"_getSortRandoms(uint256,uint256,uint256)": "infinite",
				"_getTicketbyIndex(uint256,uint256)": "infinite",
				"_injectTickets(uint256,address,uint256)": "infinite",
				"_leftRotate(uint256,uint32)": "infinite",
				"_returnInject(uint256)": "infinite"
			}
		},
		"methodIdentifiers": {
			"buyTickets(uint256,address,uint256)": "c5e7bb33",
			"claimPrize(uint256)": "d7098154",
			"createRedEnvelope(uint256,uint256,uint256,uint256)": "0e9e1262",
			"createRedEnvelopeDetail(address,uint256,uint256,uint256,uint256,address,uint256,address,uint256)": "b4d97419",
			"currentId()": "e00dd161",
			"defaultAutoClaim()": "a210d5e0",
			"defaultTicketPirce()": "4bfec3aa",
			"defaultTicketToken()": "959acdaf",
			"drawPrize(uint256,uint256)": "bce3468d",
			"endRedEnvelope(uint256)": "3834efe1",
			"getTickets(uint256,address,uint256)": "3ddb7f19",
			"injectTickets(uint256,uint256)": "559f24bc",
			"operatorAddressList(address)": "bc6bce91",
			"owner()": "8da5cb5b",
			"renounceOwnership()": "715018a6",
			"setDefaultAutoClaim(bool)": "f41188ed",
			"setOperatorAddress(address,bool)": "d9828174",
			"setTicketToken(address,uint256)": "903606c5",
			"transferOwnership(address)": "f2fde38b",
			"viewCurrentRedEnvelopeId()": "94456fa4",
			"viewRedEnvelopeStatus(uint256)": "fe5c5976"
		}
	},
	"abi": [
		{
			"inputs": [
				{
					"internalType": "address",
					"name": "_operatorAddress",
					"type": "address"
				},
				{
					"internalType": "address",
					"name": "_defaultTicketToken",
					"type": "address"
				},
				{
					"internalType": "uint256",
					"name": "_defaultTicketPirce",
					"type": "uint256"
				}
			],
			"stateMutability": "nonpayable",
			"type": "constructor"
		},
		{
			"inputs": [
				{
					"internalType": "address",
					"name": "target",
					"type": "address"
				}
			],
			"name": "AddressEmptyCode",
			"type": "error"
		},
		{
			"inputs": [
				{
					"internalType": "address",
					"name": "account",
					"type": "address"
				}
			],
			"name": "AddressInsufficientBalance",
			"type": "error"
		},
		{
			"inputs": [],
			"name": "FailedInnerCall",
			"type": "error"
		},
		{
			"inputs": [
				{
					"internalType": "address",
					"name": "owner",
					"type": "address"
				}
			],
			"name": "OwnableInvalidOwner",
			"type": "error"
		},
		{
			"inputs": [
				{
					"internalType": "address",
					"name": "account",
					"type": "address"
				}
			],
			"name": "OwnableUnauthorizedAccount",
			"type": "error"
		},
		{
			"inputs": [],
			"name": "ReentrancyGuardReentrantCall",
			"type": "error"
		},
		{
			"inputs": [
				{
					"internalType": "address",
					"name": "token",
					"type": "address"
				}
			],
			"name": "SafeERC20FailedOperation",
			"type": "error"
		},
		{
			"anonymous": false,
			"inputs": [
				{
					"indexed": true,
					"internalType": "uint256",
					"name": "id",
					"type": "uint256"
				},
				{
					"indexed": true,
					"internalType": "address",
					"name": "winner",
					"type": "address"
				},
				{
					"indexed": false,
					"internalType": "uint256",
					"name": "totalAmount",
					"type": "uint256"
				},
				{
					"indexed": false,
					"internalType": "bool",
					"name": "autoClaim",
					"type": "bool"
				}
			],
			"name": "ClaimPrize",
			"type": "event"
		},
		{
			"anonymous": false,
			"inputs": [
				{
					"indexed": false,
					"internalType": "bool",
					"name": "defaultAutoClaim",
					"type": "bool"
				}
			],
			"name": "DefaultAutoClaimChange",
			"type": "event"
		},
		{
			"anonymous": false,
			"inputs": [
				{
					"indexed": false,
					"internalType": "address",
					"name": "defaultTicketToken",
					"type": "address"
				},
				{
					"indexed": false,
					"internalType": "uint256",
					"name": "defaultTicketPirce",
					"type": "uint256"
				}
			],
			"name": "DefaultTokenChange",
			"type": "event"
		},
		{
			"anonymous": false,
			"inputs": [
				{
					"indexed": false,
					"internalType": "address",
					"name": "operatorAddress",
					"type": "address"
				},
				{
					"indexed": false,
					"internalType": "bool",
					"name": "opt",
					"type": "bool"
				}
			],
			"name": "OperatorAddress",
			"type": "event"
		},
		{
			"anonymous": false,
			"inputs": [
				{
					"indexed": true,
					"internalType": "address",
					"name": "previousOwner",
					"type": "address"
				},
				{
					"indexed": true,
					"internalType": "address",
					"name": "newOwner",
					"type": "address"
				}
			],
			"name": "OwnershipTransferred",
			"type": "event"
		},
		{
			"anonymous": false,
			"inputs": [
				{
					"indexed": true,
					"internalType": "uint256",
					"name": "id",
					"type": "uint256"
				},
				{
					"indexed": true,
					"internalType": "address",
					"name": "winner",
					"type": "address"
				},
				{
					"indexed": true,
					"internalType": "uint256",
					"name": "index",
					"type": "uint256"
				},
				{
					"indexed": false,
					"internalType": "uint256",
					"name": "amount",
					"type": "uint256"
				},
				{
					"indexed": false,
					"internalType": "bool",
					"name": "autoClaim",
					"type": "bool"
				}
			],
			"name": "PrizeDrawn",
			"type": "event"
		},
		{
			"anonymous": false,
			"inputs": [
				{
					"indexed": true,
					"internalType": "uint256",
					"name": "id",
					"type": "uint256"
				},
				{
					"indexed": false,
					"internalType": "uint256",
					"name": "endTime",
					"type": "uint256"
				}
			],
			"name": "RedEnvelopeClaimable",
			"type": "event"
		},
		{
			"anonymous": false,
			"inputs": [
				{
					"indexed": true,
					"internalType": "uint256",
					"name": "id",
					"type": "uint256"
				},
				{
					"indexed": false,
					"internalType": "uint256",
					"name": "endTime",
					"type": "uint256"
				},
				{
					"indexed": false,
					"internalType": "uint256",
					"name": "buyTickets",
					"type": "uint256"
				},
				{
					"indexed": false,
					"internalType": "uint256",
					"name": "injectTickets",
					"type": "uint256"
				}
			],
			"name": "RedEnvelopeClosed",
			"type": "event"
		},
		{
			"anonymous": false,
			"inputs": [
				{
					"indexed": true,
					"internalType": "uint256",
					"name": "id",
					"type": "uint256"
				},
				{
					"indexed": false,
					"internalType": "uint256",
					"name": "startTime",
					"type": "uint256"
				},
				{
					"indexed": false,
					"internalType": "uint256",
					"name": "endTime",
					"type": "uint256"
				},
				{
					"indexed": false,
					"internalType": "uint256",
					"name": "maxTickets",
					"type": "uint256"
				},
				{
					"indexed": false,
					"internalType": "uint256",
					"name": "ticketPirce",
					"type": "uint256"
				},
				{
					"indexed": false,
					"internalType": "address",
					"name": "getTicketAddr",
					"type": "address"
				},
				{
					"indexed": false,
					"internalType": "bool",
					"name": "autoClaim",
					"type": "bool"
				}
			],
			"name": "RedEnvelopeCreated",
			"type": "event"
		},
		{
			"anonymous": false,
			"inputs": [
				{
					"indexed": true,
					"internalType": "uint256",
					"name": "id",
					"type": "uint256"
				},
				{
					"indexed": true,
					"internalType": "address",
					"name": "sender",
					"type": "address"
				},
				{
					"indexed": true,
					"internalType": "address",
					"name": "receiveAddress",
					"type": "address"
				},
				{
					"indexed": false,
					"internalType": "uint256",
					"name": "ticketNumbers",
					"type": "uint256"
				}
			],
			"name": "TicketsGet",
			"type": "event"
		},
		{
			"anonymous": false,
			"inputs": [
				{
					"indexed": true,
					"internalType": "uint256",
					"name": "id",
					"type": "uint256"
				},
				{
					"indexed": true,
					"internalType": "address",
					"name": "sender",
					"type": "address"
				},
				{
					"indexed": false,
					"internalType": "uint256",
					"name": "ticketNumbers",
					"type": "uint256"
				}
			],
			"name": "TicketsInject",
			"type": "event"
		},
		{
			"anonymous": false,
			"inputs": [
				{
					"indexed": true,
					"internalType": "uint256",
					"name": "id",
					"type": "uint256"
				},
				{
					"indexed": true,
					"internalType": "address",
					"name": "sender",
					"type": "address"
				},
				{
					"indexed": true,
					"internalType": "address",
					"name": "receiveAddress",
					"type": "address"
				},
				{
					"indexed": false,
					"internalType": "uint256",
					"name": "ticketNumbers",
					"type": "uint256"
				}
			],
			"name": "TicketsPurchase",
			"type": "event"
		},
		{
			"inputs": [
				{
					"internalType": "uint256",
					"name": "_id",
					"type": "uint256"
				},
				{
					"internalType": "address",
					"name": "_receiveAddress",
					"type": "address"
				},
				{
					"internalType": "uint256",
					"name": "_ticketNumbers",
					"type": "uint256"
				}
			],
			"name": "buyTickets",
			"outputs": [],
			"stateMutability": "nonpayable",
			"type": "function"
		},
		{
			"inputs": [
				{
					"internalType": "uint256",
					"name": "_id",
					"type": "uint256"
				}
			],
			"name": "claimPrize",
			"outputs": [],
			"stateMutability": "nonpayable",
			"type": "function"
		},
		{
			"inputs": [
				{
					"internalType": "uint256",
					"name": "_endTime",
					"type": "uint256"
				},
				{
					"internalType": "uint256",
					"name": "_maxTickets",
					"type": "uint256"
				},
				{
					"internalType": "uint256",
					"name": "_maxPrizeNum",
					"type": "uint256"
				},
				{
					"internalType": "uint256",
					"name": "_secret",
					"type": "uint256"
				}
			],
			"name": "createRedEnvelope",
			"outputs": [],
			"stateMutability": "nonpayable",
			"type": "function"
		},
		{
			"inputs": [
				{
					"internalType": "address",
					"name": "_tokenAddress",
					"type": "address"
				},
				{
					"internalType": "uint256",
					"name": "_ticketPirce",
					"type": "uint256"
				},
				{
					"internalType": "uint256",
					"name": "_endTime",
					"type": "uint256"
				},
				{
					"internalType": "uint256",
					"name": "_maxTickets",
					"type": "uint256"
				},
				{
					"internalType": "uint256",
					"name": "_maxPrizeNum",
					"type": "uint256"
				},
				{
					"internalType": "address",
					"name": "_injectAddress",
					"type": "address"
				},
				{
					"internalType": "uint256",
					"name": "_injectTicketNum",
					"type": "uint256"
				},
				{
					"internalType": "address",
					"name": "_getTicketAddr",
					"type": "address"
				},
				{
					"internalType": "uint256",
					"name": "_secret",
					"type": "uint256"
				}
			],
			"name": "createRedEnvelopeDetail",
			"outputs": [],
			"stateMutability": "nonpayable",
			"type": "function"
		},
		{
			"inputs": [],
			"name": "currentId",
			"outputs": [
				{
					"internalType": "uint256",
					"name": "",
					"type": "uint256"
				}
			],
			"stateMutability": "view",
			"type": "function"
		},
		{
			"inputs": [],
			"name": "defaultAutoClaim",
			"outputs": [
				{
					"internalType": "bool",
					"name": "",
					"type": "bool"
				}
			],
			"stateMutability": "view",
			"type": "function"
		},
		{
			"inputs": [],
			"name": "defaultTicketPirce",
			"outputs": [
				{
					"internalType": "uint256",
					"name": "",
					"type": "uint256"
				}
			],
			"stateMutability": "view",
			"type": "function"
		},
		{
			"inputs": [],
			"name": "defaultTicketToken",
			"outputs": [
				{
					"internalType": "address",
					"name": "",
					"type": "address"
				}
			],
			"stateMutability": "view",
			"type": "function"
		},
		{
			"inputs": [
				{
					"internalType": "uint256",
					"name": "_id",
					"type": "uint256"
				},
				{
					"internalType": "uint256",
					"name": "_nonce",
					"type": "uint256"
				}
			],
			"name": "drawPrize",
			"outputs": [],
			"stateMutability": "nonpayable",
			"type": "function"
		},
		{
			"inputs": [
				{
					"internalType": "uint256",
					"name": "_id",
					"type": "uint256"
				}
			],
			"name": "endRedEnvelope",
			"outputs": [],
			"stateMutability": "nonpayable",
			"type": "function"
		},
		{
			"inputs": [
				{
					"internalType": "uint256",
					"name": "_id",
					"type": "uint256"
				},
				{
					"internalType": "address",
					"name": "_receiveAddress",
					"type": "address"
				},
				{
					"internalType": "uint256",
					"name": "_ticketNumbers",
					"type": "uint256"
				}
			],
			"name": "getTickets",
			"outputs": [],
			"stateMutability": "nonpayable",
			"type": "function"
		},
		{
			"inputs": [
				{
					"internalType": "uint256",
					"name": "_id",
					"type": "uint256"
				},
				{
					"internalType": "uint256",
					"name": "_ticketNumbers",
					"type": "uint256"
				}
			],
			"name": "injectTickets",
			"outputs": [],
			"stateMutability": "nonpayable",
			"type": "function"
		},
		{
			"inputs": [
				{
					"internalType": "address",
					"name": "",
					"type": "address"
				}
			],
			"name": "operatorAddressList",
			"outputs": [
				{
					"internalType": "bool",
					"name": "",
					"type": "bool"
				}
			],
			"stateMutability": "view",
			"type": "function"
		},
		{
			"inputs": [],
			"name": "owner",
			"outputs": [
				{
					"internalType": "address",
					"name": "",
					"type": "address"
				}
			],
			"stateMutability": "view",
			"type": "function"
		},
		{
			"inputs": [],
			"name": "renounceOwnership",
			"outputs": [],
			"stateMutability": "nonpayable",
			"type": "function"
		},
		{
			"inputs": [
				{
					"internalType": "bool",
					"name": "_defaultAutoClaim",
					"type": "bool"
				}
			],
			"name": "setDefaultAutoClaim",
			"outputs": [],
			"stateMutability": "nonpayable",
			"type": "function"
		},
		{
			"inputs": [
				{
					"internalType": "address",
					"name": "_operatorAddress",
					"type": "address"
				},
				{
					"internalType": "bool",
					"name": "_opt",
					"type": "bool"
				}
			],
			"name": "setOperatorAddress",
			"outputs": [],
			"stateMutability": "nonpayable",
			"type": "function"
		},
		{
			"inputs": [
				{
					"internalType": "address",
					"name": "_defaultTicketToken",
					"type": "address"
				},
				{
					"internalType": "uint256",
					"name": "_defaultTicketPirce",
					"type": "uint256"
				}
			],
			"name": "setTicketToken",
			"outputs": [],
			"stateMutability": "nonpayable",
			"type": "function"
		},
		{
			"inputs": [
				{
					"internalType": "address",
					"name": "newOwner",
					"type": "address"
				}
			],
			"name": "transferOwnership",
			"outputs": [],
			"stateMutability": "nonpayable",
			"type": "function"
		},
		{
			"inputs": [],
			"name": "viewCurrentRedEnvelopeId",
			"outputs": [
				{
					"internalType": "uint256",
					"name": "",
					"type": "uint256"
				}
			],
			"stateMutability": "view",
			"type": "function"
		},
		{
			"inputs": [
				{
					"internalType": "uint256",
					"name": "_id",
					"type": "uint256"
				}
			],
			"name": "viewRedEnvelopeStatus",
			"outputs": [
				{
					"internalType": "uint256",
					"name": "",
					"type": "uint256"
				}
			],
			"stateMutability": "view",
			"type": "function"
		}
	]
}