{
	"LuckyRedEnvelopeV2.sol": {
		"LuckyRedEnvelopeV2": {
			"abi": [
				{
					"inputs": [
						{
							"internalType": "address",
							"name": "_operatorAddress",
							"type": "address"
						}
					],
					"stateMutability": "nonpayable",
					"type": "constructor"
				},
				{
					"inputs": [
						{
							"internalType": "address",
							"name": "target",
							"type": "address"
						}
					],
					"name": "AddressEmptyCode",
					"type": "error"
				},
				{
					"inputs": [
						{
							"internalType": "address",
							"name": "account",
							"type": "address"
						}
					],
					"name": "AddressInsufficientBalance",
					"type": "error"
				},
				{
					"inputs": [],
					"name": "FailedInnerCall",
					"type": "error"
				},
				{
					"inputs": [
						{
							"internalType": "address",
							"name": "owner",
							"type": "address"
						}
					],
					"name": "OwnableInvalidOwner",
					"type": "error"
				},
				{
					"inputs": [
						{
							"internalType": "address",
							"name": "account",
							"type": "address"
						}
					],
					"name": "OwnableUnauthorizedAccount",
					"type": "error"
				},
				{
					"inputs": [
						{
							"internalType": "address",
							"name": "token",
							"type": "address"
						}
					],
					"name": "SafeERC20FailedOperation",
					"type": "error"
				},
				{
					"anonymous": false,
					"inputs": [
						{
							"indexed": true,
							"internalType": "uint256",
							"name": "id",
							"type": "uint256"
						},
						{
							"indexed": true,
							"internalType": "address",
							"name": "winner",
							"type": "address"
						},
						{
							"indexed": false,
							"internalType": "uint256",
							"name": "totalAmount",
							"type": "uint256"
						},
						{
							"indexed": false,
							"internalType": "bool",
							"name": "autoClaim",
							"type": "bool"
						}
					],
					"name": "ClaimPrize",
					"type": "event"
				},
				{
					"anonymous": false,
					"inputs": [
						{
							"indexed": false,
							"internalType": "bool",
							"name": "defaultAutoClaim",
							"type": "bool"
						}
					],
					"name": "DefaultAutoClaimChange",
					"type": "event"
				},
				{
					"anonymous": false,
					"inputs": [
						{
							"indexed": false,
							"internalType": "address",
							"name": "operatorAddress",
							"type": "address"
						},
						{
							"indexed": false,
							"internalType": "bool",
							"name": "opt",
							"type": "bool"
						}
					],
					"name": "OperatorAddress",
					"type": "event"
				},
				{
					"anonymous": false,
					"inputs": [
						{
							"indexed": true,
							"internalType": "address",
							"name": "previousOwner",
							"type": "address"
						},
						{
							"indexed": true,
							"internalType": "address",
							"name": "newOwner",
							"type": "address"
						}
					],
					"name": "OwnershipTransferred",
					"type": "event"
				},
				{
					"anonymous": false,
					"inputs": [
						{
							"indexed": true,
							"internalType": "uint256",
							"name": "id",
							"type": "uint256"
						},
						{
							"indexed": true,
							"internalType": "address",
							"name": "winner",
							"type": "address"
						},
						{
							"indexed": true,
							"internalType": "uint256",
							"name": "index",
							"type": "uint256"
						},
						{
							"indexed": false,
							"internalType": "uint256",
							"name": "amount",
							"type": "uint256"
						},
						{
							"indexed": false,
							"internalType": "bool",
							"name": "autoClaim",
							"type": "bool"
						}
					],
					"name": "PrizeDrawn",
					"type": "event"
				},
				{
					"anonymous": false,
					"inputs": [
						{
							"indexed": true,
							"internalType": "uint256",
							"name": "id",
							"type": "uint256"
						},
						{
							"indexed": false,
							"internalType": "uint256",
							"name": "endTime",
							"type": "uint256"
						}
					],
					"name": "RedEnvelopeClaimable",
					"type": "event"
				},
				{
					"anonymous": false,
					"inputs": [
						{
							"indexed": true,
							"internalType": "uint256",
							"name": "id",
							"type": "uint256"
						},
						{
							"indexed": false,
							"internalType": "uint256",
							"name": "endTime",
							"type": "uint256"
						},
						{
							"indexed": false,
							"internalType": "uint256",
							"name": "buyTickets",
							"type": "uint256"
						},
						{
							"indexed": false,
							"internalType": "uint256",
							"name": "injectTickets",
							"type": "uint256"
						}
					],
					"name": "RedEnvelopeClosed",
					"type": "event"
				},
				{
					"anonymous": false,
					"inputs": [
						{
							"indexed": true,
							"internalType": "uint256",
							"name": "id",
							"type": "uint256"
						},
						{
							"indexed": false,
							"internalType": "uint256",
							"name": "startTime",
							"type": "uint256"
						},
						{
							"indexed": false,
							"internalType": "uint256",
							"name": "endTime",
							"type": "uint256"
						},
						{
							"indexed": false,
							"internalType": "uint256",
							"name": "maxTickets",
							"type": "uint256"
						},
						{
							"indexed": false,
							"internalType": "uint256",
							"name": "ticketPirce",
							"type": "uint256"
						},
						{
							"indexed": false,
							"internalType": "bool",
							"name": "autoClaim",
							"type": "bool"
						}
					],
					"name": "RedEnvelopeCreated",
					"type": "event"
				},
				{
					"anonymous": false,
					"inputs": [
						{
							"indexed": true,
							"internalType": "uint256",
							"name": "id",
							"type": "uint256"
						},
						{
							"indexed": true,
							"internalType": "address",
							"name": "sender",
							"type": "address"
						},
						{
							"indexed": true,
							"internalType": "address",
							"name": "receiveAddress",
							"type": "address"
						},
						{
							"indexed": false,
							"internalType": "uint256",
							"name": "ticketNumbers",
							"type": "uint256"
						}
					],
					"name": "TicketsGet",
					"type": "event"
				},
				{
					"anonymous": false,
					"inputs": [
						{
							"indexed": true,
							"internalType": "uint256",
							"name": "id",
							"type": "uint256"
						},
						{
							"indexed": true,
							"internalType": "address",
							"name": "sender",
							"type": "address"
						},
						{
							"indexed": false,
							"internalType": "uint256",
							"name": "ticketNumbers",
							"type": "uint256"
						}
					],
					"name": "TicketsInject",
					"type": "event"
				},
				{
					"anonymous": false,
					"inputs": [
						{
							"indexed": true,
							"internalType": "uint256",
							"name": "id",
							"type": "uint256"
						},
						{
							"indexed": true,
							"internalType": "address",
							"name": "sender",
							"type": "address"
						},
						{
							"indexed": true,
							"internalType": "address",
							"name": "receiveAddress",
							"type": "address"
						},
						{
							"indexed": false,
							"internalType": "uint256",
							"name": "ticketNumbers",
							"type": "uint256"
						}
					],
					"name": "TicketsPurchase",
					"type": "event"
				},
				{
					"inputs": [
						{
							"internalType": "uint256",
							"name": "_id",
							"type": "uint256"
						},
						{
							"internalType": "address",
							"name": "_receiveAddress",
							"type": "address"
						},
						{
							"internalType": "uint256",
							"name": "_ticketNumbers",
							"type": "uint256"
						}
					],
					"name": "buyTickets",
					"outputs": [],
					"stateMutability": "nonpayable",
					"type": "function"
				},
				{
					"inputs": [
						{
							"internalType": "uint256",
							"name": "_id",
							"type": "uint256"
						}
					],
					"name": "claimPrize",
					"outputs": [],
					"stateMutability": "nonpayable",
					"type": "function"
				},
				{
					"inputs": [
						{
							"internalType": "address",
							"name": "_tokenAddress",
							"type": "address"
						},
						{
							"internalType": "uint256",
							"name": "_ticketPirce",
							"type": "uint256"
						},
						{
							"internalType": "uint256",
							"name": "_endTime",
							"type": "uint256"
						},
						{
							"internalType": "uint256",
							"name": "_maxTickets",
							"type": "uint256"
						},
						{
							"internalType": "uint256",
							"name": "_maxPrizeNum",
							"type": "uint256"
						},
						{
							"internalType": "address",
							"name": "_injectAddress",
							"type": "address"
						},
						{
							"internalType": "uint256",
							"name": "_injectTicketNum",
							"type": "uint256"
						},
						{
							"internalType": "uint256",
							"name": "_secret",
							"type": "uint256"
						}
					],
					"name": "createRedEnvelope",
					"outputs": [],
					"stateMutability": "nonpayable",
					"type": "function"
				},
				{
					"inputs": [],
					"name": "currentId",
					"outputs": [
						{
							"internalType": "uint256",
							"name": "",
							"type": "uint256"
						}
					],
					"stateMutability": "view",
					"type": "function"
				},
				{
					"inputs": [],
					"name": "defaultAutoClaim",
					"outputs": [
						{
							"internalType": "bool",
							"name": "",
							"type": "bool"
						}
					],
					"stateMutability": "view",
					"type": "function"
				},
				{
					"inputs": [
						{
							"internalType": "uint256",
							"name": "_id",
							"type": "uint256"
						},
						{
							"internalType": "uint256",
							"name": "_nonce",
							"type": "uint256"
						}
					],
					"name": "drawPrize",
					"outputs": [],
					"stateMutability": "nonpayable",
					"type": "function"
				},
				{
					"inputs": [
						{
							"internalType": "uint256",
							"name": "_id",
							"type": "uint256"
						}
					],
					"name": "endRedEnvelope",
					"outputs": [],
					"stateMutability": "nonpayable",
					"type": "function"
				},
				{
					"inputs": [
						{
							"internalType": "uint256",
							"name": "_id",
							"type": "uint256"
						},
						{
							"internalType": "address",
							"name": "_receiveAddress",
							"type": "address"
						},
						{
							"internalType": "uint256",
							"name": "_ticketNumbers",
							"type": "uint256"
						}
					],
					"name": "getTickets",
					"outputs": [],
					"stateMutability": "nonpayable",
					"type": "function"
				},
				{
					"inputs": [
						{
							"internalType": "uint256",
							"name": "_id",
							"type": "uint256"
						},
						{
							"internalType": "uint256",
							"name": "_ticketNumbers",
							"type": "uint256"
						}
					],
					"name": "injectTickets",
					"outputs": [],
					"stateMutability": "nonpayable",
					"type": "function"
				},
				{
					"inputs": [
						{
							"internalType": "address",
							"name": "",
							"type": "address"
						}
					],
					"name": "operatorAddressList",
					"outputs": [
						{
							"internalType": "bool",
							"name": "",
							"type": "bool"
						}
					],
					"stateMutability": "view",
					"type": "function"
				},
				{
					"inputs": [],
					"name": "owner",
					"outputs": [
						{
							"internalType": "address",
							"name": "",
							"type": "address"
						}
					],
					"stateMutability": "view",
					"type": "function"
				},
				{
					"inputs": [
						{
							"internalType": "uint256",
							"name": "_id",
							"type": "uint256"
						}
					],
					"name": "redEnvelopeStatus",
					"outputs": [
						{
							"internalType": "enum LuckyRedEnvelopeV2.Status",
							"name": "",
							"type": "uint8"
						}
					],
					"stateMutability": "view",
					"type": "function"
				},
				{
					"inputs": [],
					"name": "renounceOwnership",
					"outputs": [],
					"stateMutability": "nonpayable",
					"type": "function"
				},
				{
					"inputs": [
						{
							"internalType": "bool",
							"name": "_defaultAutoClaim",
							"type": "bool"
						}
					],
					"name": "setDefaultAutoClaim",
					"outputs": [],
					"stateMutability": "nonpayable",
					"type": "function"
				},
				{
					"inputs": [
						{
							"internalType": "address",
							"name": "_operatorAddress",
							"type": "address"
						},
						{
							"internalType": "bool",
							"name": "_opt",
							"type": "bool"
						}
					],
					"name": "setOperatorAddress",
					"outputs": [],
					"stateMutability": "nonpayable",
					"type": "function"
				},
				{
					"inputs": [
						{
							"internalType": "address",
							"name": "newOwner",
							"type": "address"
						}
					],
					"name": "transferOwnership",
					"outputs": [],
					"stateMutability": "nonpayable",
					"type": "function"
				}
			],
			"devdoc": {
				"errors": {
					"AddressEmptyCode(address)": [
						{
							"details": "There's no code at `target` (it is not a contract)."
						}
					],
					"AddressInsufficientBalance(address)": [
						{
							"details": "The ETH balance of the account is not enough to perform the operation."
						}
					],
					"FailedInnerCall()": [
						{
							"details": "A call to an address target failed. The target may have reverted."
						}
					],
					"OwnableInvalidOwner(address)": [
						{
							"details": "The owner is not a valid owner account. (eg. `address(0)`)"
						}
					],
					"OwnableUnauthorizedAccount(address)": [
						{
							"details": "The caller account is not authorized to perform an operation."
						}
					],
					"SafeERC20FailedOperation(address)": [
						{
							"details": "An operation with an ERC20 token failed."
						}
					]
				},
				"kind": "dev",
				"methods": {
					"createRedEnvelope(address,uint256,uint256,uint256,uint256,address,uint256,uint256)": {
						"details": "Callable by operator",
						"params": {
							"_endTime": ": endTime of the RedEnvelope",
							"_maxTickets": ": max ticket of the RedEnvelope",
							"_secret": ": "
						}
					},
					"owner()": {
						"details": "Returns the address of the current owner."
					},
					"renounceOwnership()": {
						"details": "Leaves the contract without owner. It will not be possible to call `onlyOwner` functions. Can only be called by the current owner. NOTE: Renouncing ownership will leave the contract without an owner, thereby disabling any functionality that is only available to the owner."
					},
					"transferOwnership(address)": {
						"details": "Transfers ownership of the contract to a new account (`newOwner`). Can only be called by the current owner."
					}
				},
				"version": 1
			},
			"evm": {
				"assembly": "    /* \"LuckyRedEnvelopeV2.sol\":311:16980  contract LuckyRedEnvelopeV2 is ReentrancyGuard, Ownable{... */\n  mstore(0x40, 0x80)\n    /* \"LuckyRedEnvelopeV2.sol\":3427:3589  constructor(address _operatorAddress)Ownable(address(msg.sender)){... */\n  callvalue\n  dup1\n  iszero\n  tag_1\n  jumpi\n  0x00\n  dup1\n  revert\ntag_1:\n  pop\n  mload(0x40)\n  sub(codesize, bytecodeSize)\n  dup1\n  bytecodeSize\n  dup4\n  codecopy\n  dup2\n  dup2\n  add\n  0x40\n  mstore\n  dup2\n  add\n  swap1\n  tag_2\n  swap2\n  swap1\n  tag_3\n  jump\t// in\ntag_2:\n    /* \"LuckyRedEnvelopeV2.sol\":3480:3490  msg.sender */\n  caller\n    /* \"@openzeppelin/contracts/security/ReentrancyGuard.sol\":1716:1717  1 */\n  0x01\n    /* \"@openzeppelin/contracts/security/ReentrancyGuard.sol\":1821:1828  _status */\n  0x00\n    /* \"@openzeppelin/contracts/security/ReentrancyGuard.sol\":1821:1843  _status = _NOT_ENTERED */\n  dup2\n  swap1\n  sstore\n  pop\n    /* \"@openzeppelin/contracts/access/Ownable.sol\":1297:1298  0 */\n  0x00\n    /* \"@openzeppelin/contracts/access/Ownable.sol\":1273:1299  initialOwner == address(0) */\n  0xffffffffffffffffffffffffffffffffffffffff\n  and\n    /* \"@openzeppelin/contracts/access/Ownable.sol\":1273:1285  initialOwner */\n  dup2\n    /* \"@openzeppelin/contracts/access/Ownable.sol\":1273:1299  initialOwner == address(0) */\n  0xffffffffffffffffffffffffffffffffffffffff\n  and\n  sub\n    /* \"@openzeppelin/contracts/access/Ownable.sol\":1269:1364  if (initialOwner == address(0)) {... */\n  tag_9\n  jumpi\n    /* \"@openzeppelin/contracts/access/Ownable.sol\":1350:1351  0 */\n  0x00\n    /* \"@openzeppelin/contracts/access/Ownable.sol\":1322:1353  OwnableInvalidOwner(address(0)) */\n  mload(0x40)\n  0x1e4fbdf700000000000000000000000000000000000000000000000000000000\n  dup2\n  mstore\n  0x04\n  add\n  tag_10\n  swap2\n  swap1\n  tag_11\n  jump\t// in\ntag_10:\n  mload(0x40)\n  dup1\n  swap2\n  sub\n  swap1\n  revert\n    /* \"@openzeppelin/contracts/access/Ownable.sol\":1269:1364  if (initialOwner == address(0)) {... */\ntag_9:\n    /* \"@openzeppelin/contracts/access/Ownable.sol\":1373:1405  _transferOwnership(initialOwner) */\n  tag_12\n    /* \"@openzeppelin/contracts/access/Ownable.sol\":1392:1404  initialOwner */\n  dup2\n    /* \"@openzeppelin/contracts/access/Ownable.sol\":1373:1391  _transferOwnership */\n  shl(0x20, tag_13)\n    /* \"@openzeppelin/contracts/access/Ownable.sol\":1373:1405  _transferOwnership(initialOwner) */\n  0x20\n  shr\n  jump\t// in\ntag_12:\n    /* \"@openzeppelin/contracts/access/Ownable.sol\":1225:1412  constructor(address initialOwner) {... */\n  pop\n    /* \"LuckyRedEnvelopeV2.sol\":3543:3547  true */\n  0x01\n    /* \"LuckyRedEnvelopeV2.sol\":3503:3522  operatorAddressList */\n  0x02\n    /* \"LuckyRedEnvelopeV2.sol\":3503:3540  operatorAddressList[_operatorAddress] */\n  0x00\n    /* \"LuckyRedEnvelopeV2.sol\":3523:3539  _operatorAddress */\n  dup4\n    /* \"LuckyRedEnvelopeV2.sol\":3503:3540  operatorAddressList[_operatorAddress] */\n  0xffffffffffffffffffffffffffffffffffffffff\n  and\n  0xffffffffffffffffffffffffffffffffffffffff\n  and\n  dup2\n  mstore\n  0x20\n  add\n  swap1\n  dup2\n  mstore\n  0x20\n  add\n  0x00\n  keccak256\n  0x00\n    /* \"LuckyRedEnvelopeV2.sol\":3503:3547  operatorAddressList[_operatorAddress] = true */\n  0x0100\n  exp\n  dup2\n  sload\n  dup2\n  0xff\n  mul\n  not\n  and\n  swap1\n  dup4\n  iszero\n  iszero\n  mul\n  or\n  swap1\n  sstore\n  pop\n    /* \"LuckyRedEnvelopeV2.sol\":3577:3581  true */\n  0x01\n    /* \"LuckyRedEnvelopeV2.sol\":3558:3574  defaultAutoClaim */\n  0x04\n  0x00\n    /* \"LuckyRedEnvelopeV2.sol\":3558:3581  defaultAutoClaim = true */\n  0x0100\n  exp\n  dup2\n  sload\n  dup2\n  0xff\n  mul\n  not\n  and\n  swap1\n  dup4\n  iszero\n  iszero\n  mul\n  or\n  swap1\n  sstore\n  pop\n    /* \"LuckyRedEnvelopeV2.sol\":3427:3589  constructor(address _operatorAddress)Ownable(address(msg.sender)){... */\n  pop\n    /* \"LuckyRedEnvelopeV2.sol\":311:16980  contract LuckyRedEnvelopeV2 is ReentrancyGuard, Ownable{... */\n  jump(tag_15)\n    /* \"@openzeppelin/contracts/access/Ownable.sol\":2912:3099  function _transferOwnership(address newOwner) internal virtual {... */\ntag_13:\n    /* \"@openzeppelin/contracts/access/Ownable.sol\":2985:3001  address oldOwner */\n  0x00\n    /* \"@openzeppelin/contracts/access/Ownable.sol\":3004:3010  _owner */\n  0x01\n  0x00\n  swap1\n  sload\n  swap1\n  0x0100\n  exp\n  swap1\n  div\n  0xffffffffffffffffffffffffffffffffffffffff\n  and\n    /* \"@openzeppelin/contracts/access/Ownable.sol\":2985:3010  address oldOwner = _owner */\n  swap1\n  pop\n    /* \"@openzeppelin/contracts/access/Ownable.sol\":3029:3037  newOwner */\n  dup2\n    /* \"@openzeppelin/contracts/access/Ownable.sol\":3020:3026  _owner */\n  0x01\n  0x00\n    /* \"@openzeppelin/contracts/access/Ownable.sol\":3020:3037  _owner = newOwner */\n  0x0100\n  exp\n  dup2\n  sload\n  dup2\n  0xffffffffffffffffffffffffffffffffffffffff\n  mul\n  not\n  and\n  swap1\n  dup4\n  0xffffffffffffffffffffffffffffffffffffffff\n  and\n  mul\n  or\n  swap1\n  sstore\n  pop\n    /* \"@openzeppelin/contracts/access/Ownable.sol\":3083:3091  newOwner */\n  dup2\n    /* \"@openzeppelin/contracts/access/Ownable.sol\":3052:3092  OwnershipTransferred(oldOwner, newOwner) */\n  0xffffffffffffffffffffffffffffffffffffffff\n  and\n    /* \"@openzeppelin/contracts/access/Ownable.sol\":3073:3081  oldOwner */\n  dup2\n    /* \"@openzeppelin/contracts/access/Ownable.sol\":3052:3092  OwnershipTransferred(oldOwner, newOwner) */\n  0xffffffffffffffffffffffffffffffffffffffff\n  and\n  0x8be0079c531659141344cd1fd0a4f28419497f9722a3daafe3b4186f6b6457e0\n  mload(0x40)\n  mload(0x40)\n  dup1\n  swap2\n  sub\n  swap1\n  log3\n    /* \"@openzeppelin/contracts/access/Ownable.sol\":2975:3099  {... */\n  pop\n    /* \"@openzeppelin/contracts/access/Ownable.sol\":2912:3099  function _transferOwnership(address newOwner) internal virtual {... */\n  pop\n  jump\t// out\n    /* \"#utility.yul\":88:205   */\ntag_18:\n    /* \"#utility.yul\":197:198   */\n  0x00\n    /* \"#utility.yul\":194:195   */\n  dup1\n    /* \"#utility.yul\":187:199   */\n  revert\n    /* \"#utility.yul\":334:460   */\ntag_20:\n    /* \"#utility.yul\":371:378   */\n  0x00\n    /* \"#utility.yul\":411:453   */\n  0xffffffffffffffffffffffffffffffffffffffff\n    /* \"#utility.yul\":404:409   */\n  dup3\n    /* \"#utility.yul\":400:454   */\n  and\n    /* \"#utility.yul\":389:454   */\n  swap1\n  pop\n    /* \"#utility.yul\":334:460   */\n  swap2\n  swap1\n  pop\n  jump\t// out\n    /* \"#utility.yul\":466:562   */\ntag_21:\n    /* \"#utility.yul\":503:510   */\n  0x00\n    /* \"#utility.yul\":532:556   */\n  tag_31\n    /* \"#utility.yul\":550:555   */\n  dup3\n    /* \"#utility.yul\":532:556   */\n  tag_20\n  jump\t// in\ntag_31:\n    /* \"#utility.yul\":521:556   */\n  swap1\n  pop\n    /* \"#utility.yul\":466:562   */\n  swap2\n  swap1\n  pop\n  jump\t// out\n    /* \"#utility.yul\":568:690   */\ntag_22:\n    /* \"#utility.yul\":641:665   */\n  tag_33\n    /* \"#utility.yul\":659:664   */\n  dup2\n    /* \"#utility.yul\":641:665   */\n  tag_21\n  jump\t// in\ntag_33:\n    /* \"#utility.yul\":634:639   */\n  dup2\n    /* \"#utility.yul\":631:666   */\n  eq\n    /* \"#utility.yul\":621:684   */\n  tag_34\n  jumpi\n    /* \"#utility.yul\":680:681   */\n  0x00\n    /* \"#utility.yul\":677:678   */\n  dup1\n    /* \"#utility.yul\":670:682   */\n  revert\n    /* \"#utility.yul\":621:684   */\ntag_34:\n    /* \"#utility.yul\":568:690   */\n  pop\n  jump\t// out\n    /* \"#utility.yul\":696:839   */\ntag_23:\n    /* \"#utility.yul\":753:758   */\n  0x00\n    /* \"#utility.yul\":784:790   */\n  dup2\n    /* \"#utility.yul\":778:791   */\n  mload\n    /* \"#utility.yul\":769:791   */\n  swap1\n  pop\n    /* \"#utility.yul\":800:833   */\n  tag_36\n    /* \"#utility.yul\":827:832   */\n  dup2\n    /* \"#utility.yul\":800:833   */\n  tag_22\n  jump\t// in\ntag_36:\n    /* \"#utility.yul\":696:839   */\n  swap3\n  swap2\n  pop\n  pop\n  jump\t// out\n    /* \"#utility.yul\":845:1196   */\ntag_3:\n    /* \"#utility.yul\":915:921   */\n  0x00\n    /* \"#utility.yul\":964:966   */\n  0x20\n    /* \"#utility.yul\":952:961   */\n  dup3\n    /* \"#utility.yul\":943:950   */\n  dup5\n    /* \"#utility.yul\":939:962   */\n  sub\n    /* \"#utility.yul\":935:967   */\n  slt\n    /* \"#utility.yul\":932:1051   */\n  iszero\n  tag_38\n  jumpi\n    /* \"#utility.yul\":970:1049   */\n  tag_39\n  tag_18\n  jump\t// in\ntag_39:\n    /* \"#utility.yul\":932:1051   */\ntag_38:\n    /* \"#utility.yul\":1090:1091   */\n  0x00\n    /* \"#utility.yul\":1115:1179   */\n  tag_40\n    /* \"#utility.yul\":1171:1178   */\n  dup5\n    /* \"#utility.yul\":1162:1168   */\n  dup3\n    /* \"#utility.yul\":1151:1160   */\n  dup6\n    /* \"#utility.yul\":1147:1169   */\n  add\n    /* \"#utility.yul\":1115:1179   */\n  tag_23\n  jump\t// in\ntag_40:\n    /* \"#utility.yul\":1105:1179   */\n  swap2\n  pop\n    /* \"#utility.yul\":1061:1189   */\n  pop\n    /* \"#utility.yul\":845:1196   */\n  swap3\n  swap2\n  pop\n  pop\n  jump\t// out\n    /* \"#utility.yul\":1202:1320   */\ntag_24:\n    /* \"#utility.yul\":1289:1313   */\n  tag_42\n    /* \"#utility.yul\":1307:1312   */\n  dup2\n    /* \"#utility.yul\":1289:1313   */\n  tag_21\n  jump\t// in\ntag_42:\n    /* \"#utility.yul\":1284:1287   */\n  dup3\n    /* \"#utility.yul\":1277:1314   */\n  mstore\n    /* \"#utility.yul\":1202:1320   */\n  pop\n  pop\n  jump\t// out\n    /* \"#utility.yul\":1326:1548   */\ntag_11:\n    /* \"#utility.yul\":1419:1423   */\n  0x00\n    /* \"#utility.yul\":1457:1459   */\n  0x20\n    /* \"#utility.yul\":1446:1455   */\n  dup3\n    /* \"#utility.yul\":1442:1460   */\n  add\n    /* \"#utility.yul\":1434:1460   */\n  swap1\n  pop\n    /* \"#utility.yul\":1470:1541   */\n  tag_44\n    /* \"#utility.yul\":1538:1539   */\n  0x00\n    /* \"#utility.yul\":1527:1536   */\n  dup4\n    /* \"#utility.yul\":1523:1540   */\n  add\n    /* \"#utility.yul\":1514:1520   */\n  dup5\n    /* \"#utility.yul\":1470:1541   */\n  tag_24\n  jump\t// in\ntag_44:\n    /* \"#utility.yul\":1326:1548   */\n  swap3\n  swap2\n  pop\n  pop\n  jump\t// out\n    /* \"LuckyRedEnvelopeV2.sol\":311:16980  contract LuckyRedEnvelopeV2 is ReentrancyGuard, Ownable{... */\ntag_15:\n  dataSize(sub_0)\n  dup1\n  dataOffset(sub_0)\n  0x00\n  codecopy\n  0x00\n  return\nstop\n\nsub_0: assembly {\n        /* \"LuckyRedEnvelopeV2.sol\":311:16980  contract LuckyRedEnvelopeV2 is ReentrancyGuard, Ownable{... */\n      mstore(0x40, 0x80)\n      callvalue\n      dup1\n      iszero\n      tag_1\n      jumpi\n      0x00\n      dup1\n      revert\n    tag_1:\n      pop\n      jumpi(tag_2, lt(calldatasize, 0x04))\n      shr(0xe0, calldataload(0x00))\n      dup1\n      0xbc6bce91\n      gt\n      tag_19\n      jumpi\n      dup1\n      0xd9828174\n      gt\n      tag_20\n      jumpi\n      dup1\n      0xd9828174\n      eq\n      tag_15\n      jumpi\n      dup1\n      0xe00dd161\n      eq\n      tag_16\n      jumpi\n      dup1\n      0xf2fde38b\n      eq\n      tag_17\n      jumpi\n      dup1\n      0xf41188ed\n      eq\n      tag_18\n      jumpi\n      jump(tag_2)\n    tag_20:\n      dup1\n      0xbc6bce91\n      eq\n      tag_11\n      jumpi\n      dup1\n      0xbce3468d\n      eq\n      tag_12\n      jumpi\n      dup1\n      0xc5e7bb33\n      eq\n      tag_13\n      jumpi\n      dup1\n      0xd7098154\n      eq\n      tag_14\n      jumpi\n      jump(tag_2)\n    tag_19:\n      dup1\n      0x715018a6\n      gt\n      tag_21\n      jumpi\n      dup1\n      0x715018a6\n      eq\n      tag_7\n      jumpi\n      dup1\n      0x8da5cb5b\n      eq\n      tag_8\n      jumpi\n      dup1\n      0x9be8a306\n      eq\n      tag_9\n      jumpi\n      dup1\n      0xa210d5e0\n      eq\n      tag_10\n      jumpi\n      jump(tag_2)\n    tag_21:\n      dup1\n      0x3834efe1\n      eq\n      tag_3\n      jumpi\n      dup1\n      0x3ddb7f19\n      eq\n      tag_4\n      jumpi\n      dup1\n      0x4f2fccb0\n      eq\n      tag_5\n      jumpi\n      dup1\n      0x559f24bc\n      eq\n      tag_6\n      jumpi\n    tag_2:\n      0x00\n      dup1\n      revert\n        /* \"LuckyRedEnvelopeV2.sol\":10137:10643  function endRedEnvelope(... */\n    tag_3:\n      tag_22\n      0x04\n      dup1\n      calldatasize\n      sub\n      dup2\n      add\n      swap1\n      tag_23\n      swap2\n      swap1\n      tag_24\n      jump\t// in\n    tag_23:\n      tag_25\n      jump\t// in\n    tag_22:\n      stop\n        /* \"LuckyRedEnvelopeV2.sol\":8252:8999  function getTickets(... */\n    tag_4:\n      tag_26\n      0x04\n      dup1\n      calldatasize\n      sub\n      dup2\n      add\n      swap1\n      tag_27\n      swap2\n      swap1\n      tag_28\n      jump\t// in\n    tag_27:\n      tag_29\n      jump\t// in\n    tag_26:\n      stop\n        /* \"LuckyRedEnvelopeV2.sol\":16442:16562  function redEnvelopeStatus(uint256 _id) public view  returns (Status){... */\n    tag_5:\n      tag_30\n      0x04\n      dup1\n      calldatasize\n      sub\n      dup2\n      add\n      swap1\n      tag_31\n      swap2\n      swap1\n      tag_24\n      jump\t// in\n    tag_31:\n      tag_32\n      jump\t// in\n    tag_30:\n      mload(0x40)\n      tag_33\n      swap2\n      swap1\n      tag_34\n      jump\t// in\n    tag_33:\n      mload(0x40)\n      dup1\n      swap2\n      sub\n      swap1\n      return\n        /* \"LuckyRedEnvelopeV2.sol\":5560:6009  function injectTickets(uint256 _id,uint256 _ticketNumbers)external nonReentrant{... */\n    tag_6:\n      tag_35\n      0x04\n      dup1\n      calldatasize\n      sub\n      dup2\n      add\n      swap1\n      tag_36\n      swap2\n      swap1\n      tag_37\n      jump\t// in\n    tag_36:\n      tag_38\n      jump\t// in\n    tag_35:\n      stop\n        /* \"@openzeppelin/contracts/access/Ownable.sol\":2293:2394  function renounceOwnership() public virtual onlyOwner {... */\n    tag_7:\n      tag_39\n      tag_40\n      jump\t// in\n    tag_39:\n      stop\n        /* \"@openzeppelin/contracts/access/Ownable.sol\":1638:1723  function owner() public view virtual returns (address) {... */\n    tag_8:\n      tag_41\n      tag_42\n      jump\t// in\n    tag_41:\n      mload(0x40)\n      tag_43\n      swap2\n      swap1\n      tag_44\n      jump\t// in\n    tag_43:\n      mload(0x40)\n      dup1\n      swap2\n      sub\n      swap1\n      return\n        /* \"LuckyRedEnvelopeV2.sol\":4328:5554  function createRedEnvelope(... */\n    tag_9:\n      tag_45\n      0x04\n      dup1\n      calldatasize\n      sub\n      dup2\n      add\n      swap1\n      tag_46\n      swap2\n      swap1\n      tag_47\n      jump\t// in\n    tag_46:\n      tag_48\n      jump\t// in\n    tag_45:\n      stop\n        /* \"LuckyRedEnvelopeV2.sol\":499:527  bool public defaultAutoClaim */\n    tag_10:\n      tag_49\n      tag_50\n      jump\t// in\n    tag_49:\n      mload(0x40)\n      tag_51\n      swap2\n      swap1\n      tag_52\n      jump\t// in\n    tag_51:\n      mload(0x40)\n      dup1\n      swap2\n      sub\n      swap1\n      return\n        /* \"LuckyRedEnvelopeV2.sol\":406:457  mapping(address => bool) public operatorAddressList */\n    tag_11:\n      tag_53\n      0x04\n      dup1\n      calldatasize\n      sub\n      dup2\n      add\n      swap1\n      tag_54\n      swap2\n      swap1\n      tag_55\n      jump\t// in\n    tag_54:\n      tag_56\n      jump\t// in\n    tag_53:\n      mload(0x40)\n      tag_57\n      swap2\n      swap1\n      tag_52\n      jump\t// in\n    tag_57:\n      mload(0x40)\n      dup1\n      swap2\n      sub\n      swap1\n      return\n        /* \"LuckyRedEnvelopeV2.sol\":11476:13184  function drawPrize(... */\n    tag_12:\n      tag_58\n      0x04\n      dup1\n      calldatasize\n      sub\n      dup2\n      add\n      swap1\n      tag_59\n      swap2\n      swap1\n      tag_37\n      jump\t// in\n    tag_59:\n      tag_60\n      jump\t// in\n    tag_58:\n      stop\n        /* \"LuckyRedEnvelopeV2.sol\":9007:10127  function buyTickets(... */\n    tag_13:\n      tag_61\n      0x04\n      dup1\n      calldatasize\n      sub\n      dup2\n      add\n      swap1\n      tag_62\n      swap2\n      swap1\n      tag_28\n      jump\t// in\n    tag_62:\n      tag_63\n      jump\t// in\n    tag_61:\n      stop\n        /* \"LuckyRedEnvelopeV2.sol\":15647:15932  function claimPrize(uint256 _id)external nonReentrant{... */\n    tag_14:\n      tag_64\n      0x04\n      dup1\n      calldatasize\n      sub\n      dup2\n      add\n      swap1\n      tag_65\n      swap2\n      swap1\n      tag_24\n      jump\t// in\n    tag_65:\n      tag_66\n      jump\t// in\n    tag_64:\n      stop\n        /* \"LuckyRedEnvelopeV2.sol\":3597:3899  function setOperatorAddress(... */\n    tag_15:\n      tag_67\n      0x04\n      dup1\n      calldatasize\n      sub\n      dup2\n      add\n      swap1\n      tag_68\n      swap2\n      swap1\n      tag_69\n      jump\t// in\n    tag_68:\n      tag_70\n      jump\t// in\n    tag_67:\n      stop\n        /* \"LuckyRedEnvelopeV2.sol\":466:490  uint256 public currentId */\n    tag_16:\n      tag_71\n      tag_72\n      jump\t// in\n    tag_71:\n      mload(0x40)\n      tag_73\n      swap2\n      swap1\n      tag_74\n      jump\t// in\n    tag_73:\n      mload(0x40)\n      dup1\n      swap2\n      sub\n      swap1\n      return\n        /* \"@openzeppelin/contracts/access/Ownable.sol\":2543:2758  function transferOwnership(address newOwner) public virtual onlyOwner {... */\n    tag_17:\n      tag_75\n      0x04\n      dup1\n      calldatasize\n      sub\n      dup2\n      add\n      swap1\n      tag_76\n      swap2\n      swap1\n      tag_55\n      jump\t// in\n    tag_76:\n      tag_77\n      jump\t// in\n    tag_75:\n      stop\n        /* \"LuckyRedEnvelopeV2.sol\":3907:4092  function setDefaultAutoClaim(bool _defaultAutoClaim) external onlyOperator{... */\n    tag_18:\n      tag_78\n      0x04\n      dup1\n      calldatasize\n      sub\n      dup2\n      add\n      swap1\n      tag_79\n      swap2\n      swap1\n      tag_80\n      jump\t// in\n    tag_79:\n      tag_81\n      jump\t// in\n    tag_78:\n      stop\n        /* \"LuckyRedEnvelopeV2.sol\":10137:10643  function endRedEnvelope(... */\n    tag_25:\n        /* \"LuckyRedEnvelopeV2.sol\":2002:2006  true */\n      0x01\n        /* \"LuckyRedEnvelopeV2.sol\":1967:2006  operatorAddressList[msg.sender] == true */\n      iszero\n      iszero\n        /* \"LuckyRedEnvelopeV2.sol\":1967:1986  operatorAddressList */\n      0x02\n        /* \"LuckyRedEnvelopeV2.sol\":1967:1998  operatorAddressList[msg.sender] */\n      0x00\n        /* \"LuckyRedEnvelopeV2.sol\":1987:1997  msg.sender */\n      caller\n        /* \"LuckyRedEnvelopeV2.sol\":1967:1998  operatorAddressList[msg.sender] */\n      0xffffffffffffffffffffffffffffffffffffffff\n      and\n      0xffffffffffffffffffffffffffffffffffffffff\n      and\n      dup2\n      mstore\n      0x20\n      add\n      swap1\n      dup2\n      mstore\n      0x20\n      add\n      0x00\n      keccak256\n      0x00\n      swap1\n      sload\n      swap1\n      0x0100\n      exp\n      swap1\n      div\n      0xff\n      and\n        /* \"LuckyRedEnvelopeV2.sol\":1967:2006  operatorAddressList[msg.sender] == true */\n      iszero\n      iszero\n      eq\n        /* \"LuckyRedEnvelopeV2.sol\":1959:2023  require(operatorAddressList[msg.sender] == true, \"Not operator\") */\n      tag_83\n      jumpi\n      mload(0x40)\n      0x08c379a000000000000000000000000000000000000000000000000000000000\n      dup2\n      mstore\n      0x04\n      add\n      tag_84\n      swap1\n      tag_85\n      jump\t// in\n    tag_84:\n      mload(0x40)\n      dup1\n      swap2\n      sub\n      swap1\n      revert\n    tag_83:\n        /* \"@openzeppelin/contracts/security/ReentrancyGuard.sol\":2261:2282  _nonReentrantBefore() */\n      tag_87\n        /* \"@openzeppelin/contracts/security/ReentrancyGuard.sol\":2261:2280  _nonReentrantBefore */\n      tag_88\n        /* \"@openzeppelin/contracts/security/ReentrancyGuard.sol\":2261:2282  _nonReentrantBefore() */\n      jump\t// in\n    tag_87:\n        /* \"LuckyRedEnvelopeV2.sol\":10271:10282  Status.Open */\n      0x01\n        /* \"LuckyRedEnvelopeV2.sol\":10242:10282  _redEnvelopes[_id].status == Status.Open */\n      0x03\n      dup2\n      gt\n      iszero\n      tag_90\n      jumpi\n      tag_91\n      tag_92\n      jump\t// in\n    tag_91:\n    tag_90:\n        /* \"LuckyRedEnvelopeV2.sol\":10242:10255  _redEnvelopes */\n      0x05\n        /* \"LuckyRedEnvelopeV2.sol\":10242:10260  _redEnvelopes[_id] */\n      0x00\n        /* \"LuckyRedEnvelopeV2.sol\":10256:10259  _id */\n      dup4\n        /* \"LuckyRedEnvelopeV2.sol\":10242:10260  _redEnvelopes[_id] */\n      dup2\n      mstore\n      0x20\n      add\n      swap1\n      dup2\n      mstore\n      0x20\n      add\n      0x00\n      keccak256\n        /* \"LuckyRedEnvelopeV2.sol\":10242:10267  _redEnvelopes[_id].status */\n      0x00\n      add\n      0x14\n      swap1\n      sload\n      swap1\n      0x0100\n      exp\n      swap1\n      div\n      0xff\n      and\n        /* \"LuckyRedEnvelopeV2.sol\":10242:10282  _redEnvelopes[_id].status == Status.Open */\n      0x03\n      dup2\n      gt\n      iszero\n      tag_93\n      jumpi\n      tag_94\n      tag_92\n      jump\t// in\n    tag_94:\n    tag_93:\n      eq\n        /* \"LuckyRedEnvelopeV2.sol\":10234:10310  require(_redEnvelopes[_id].status == Status.Open, \"RedEnvelope is not open\") */\n      tag_95\n      jumpi\n      mload(0x40)\n      0x08c379a000000000000000000000000000000000000000000000000000000000\n      dup2\n      mstore\n      0x04\n      add\n      tag_96\n      swap1\n      tag_97\n      jump\t// in\n    tag_96:\n      mload(0x40)\n      dup1\n      swap2\n      sub\n      swap1\n      revert\n    tag_95:\n        /* \"LuckyRedEnvelopeV2.sol\":10504:10516  Status.Close */\n      0x02\n        /* \"LuckyRedEnvelopeV2.sol\":10476:10489  _redEnvelopes */\n      0x05\n        /* \"LuckyRedEnvelopeV2.sol\":10476:10494  _redEnvelopes[_id] */\n      0x00\n        /* \"LuckyRedEnvelopeV2.sol\":10490:10493  _id */\n      dup4\n        /* \"LuckyRedEnvelopeV2.sol\":10476:10494  _redEnvelopes[_id] */\n      dup2\n      mstore\n      0x20\n      add\n      swap1\n      dup2\n      mstore\n      0x20\n      add\n      0x00\n      keccak256\n        /* \"LuckyRedEnvelopeV2.sol\":10476:10501  _redEnvelopes[_id].status */\n      0x00\n      add\n      0x14\n        /* \"LuckyRedEnvelopeV2.sol\":10476:10516  _redEnvelopes[_id].status = Status.Close */\n      0x0100\n      exp\n      dup2\n      sload\n      dup2\n      0xff\n      mul\n      not\n      and\n      swap1\n      dup4\n      0x03\n      dup2\n      gt\n      iszero\n      tag_98\n      jumpi\n      tag_99\n      tag_92\n      jump\t// in\n    tag_99:\n    tag_98:\n      mul\n      or\n      swap1\n      sstore\n      pop\n        /* \"LuckyRedEnvelopeV2.sol\":10552:10555  _id */\n      dup1\n        /* \"LuckyRedEnvelopeV2.sol\":10534:10635  RedEnvelopeClosed(_id,block.timestamp,_redEnvelopes[_id].buyTickets,_redEnvelopes[_id].injectTickets) */\n      0x4e7abaf6039e145cbdc465859479a7f979153a7c1a4e5662c425afe2a794c785\n        /* \"LuckyRedEnvelopeV2.sol\":10556:10571  block.timestamp */\n      timestamp\n        /* \"LuckyRedEnvelopeV2.sol\":10572:10585  _redEnvelopes */\n      0x05\n        /* \"LuckyRedEnvelopeV2.sol\":10572:10590  _redEnvelopes[_id] */\n      0x00\n        /* \"LuckyRedEnvelopeV2.sol\":10586:10589  _id */\n      dup6\n        /* \"LuckyRedEnvelopeV2.sol\":10572:10590  _redEnvelopes[_id] */\n      dup2\n      mstore\n      0x20\n      add\n      swap1\n      dup2\n      mstore\n      0x20\n      add\n      0x00\n      keccak256\n        /* \"LuckyRedEnvelopeV2.sol\":10572:10601  _redEnvelopes[_id].buyTickets */\n      0x05\n      add\n      sload\n        /* \"LuckyRedEnvelopeV2.sol\":10602:10615  _redEnvelopes */\n      0x05\n        /* \"LuckyRedEnvelopeV2.sol\":10602:10620  _redEnvelopes[_id] */\n      0x00\n        /* \"LuckyRedEnvelopeV2.sol\":10616:10619  _id */\n      dup7\n        /* \"LuckyRedEnvelopeV2.sol\":10602:10620  _redEnvelopes[_id] */\n      dup2\n      mstore\n      0x20\n      add\n      swap1\n      dup2\n      mstore\n      0x20\n      add\n      0x00\n      keccak256\n        /* \"LuckyRedEnvelopeV2.sol\":10602:10634  _redEnvelopes[_id].injectTickets */\n      0x07\n      add\n      sload\n        /* \"LuckyRedEnvelopeV2.sol\":10534:10635  RedEnvelopeClosed(_id,block.timestamp,_redEnvelopes[_id].buyTickets,_redEnvelopes[_id].injectTickets) */\n      mload(0x40)\n      tag_100\n      swap4\n      swap3\n      swap2\n      swap1\n      tag_101\n      jump\t// in\n    tag_100:\n      mload(0x40)\n      dup1\n      swap2\n      sub\n      swap1\n      log2\n        /* \"@openzeppelin/contracts/security/ReentrancyGuard.sol\":2303:2323  _nonReentrantAfter() */\n      tag_102\n        /* \"@openzeppelin/contracts/security/ReentrancyGuard.sol\":2303:2321  _nonReentrantAfter */\n      tag_103\n        /* \"@openzeppelin/contracts/security/ReentrancyGuard.sol\":2303:2323  _nonReentrantAfter() */\n      jump\t// in\n    tag_102:\n        /* \"LuckyRedEnvelopeV2.sol\":10137:10643  function endRedEnvelope(... */\n      pop\n      jump\t// out\n        /* \"LuckyRedEnvelopeV2.sol\":8252:8999  function getTickets(... */\n    tag_29:\n        /* \"LuckyRedEnvelopeV2.sol\":2002:2006  true */\n      0x01\n        /* \"LuckyRedEnvelopeV2.sol\":1967:2006  operatorAddressList[msg.sender] == true */\n      iszero\n      iszero\n        /* \"LuckyRedEnvelopeV2.sol\":1967:1986  operatorAddressList */\n      0x02\n        /* \"LuckyRedEnvelopeV2.sol\":1967:1998  operatorAddressList[msg.sender] */\n      0x00\n        /* \"LuckyRedEnvelopeV2.sol\":1987:1997  msg.sender */\n      caller\n        /* \"LuckyRedEnvelopeV2.sol\":1967:1998  operatorAddressList[msg.sender] */\n      0xffffffffffffffffffffffffffffffffffffffff\n      and\n      0xffffffffffffffffffffffffffffffffffffffff\n      and\n      dup2\n      mstore\n      0x20\n      add\n      swap1\n      dup2\n      mstore\n      0x20\n      add\n      0x00\n      keccak256\n      0x00\n      swap1\n      sload\n      swap1\n      0x0100\n      exp\n      swap1\n      div\n      0xff\n      and\n        /* \"LuckyRedEnvelopeV2.sol\":1967:2006  operatorAddressList[msg.sender] == true */\n      iszero\n      iszero\n      eq\n        /* \"LuckyRedEnvelopeV2.sol\":1959:2023  require(operatorAddressList[msg.sender] == true, \"Not operator\") */\n      tag_105\n      jumpi\n      mload(0x40)\n      0x08c379a000000000000000000000000000000000000000000000000000000000\n      dup2\n      mstore\n      0x04\n      add\n      tag_106\n      swap1\n      tag_85\n      jump\t// in\n    tag_106:\n      mload(0x40)\n      dup1\n      swap2\n      sub\n      swap1\n      revert\n    tag_105:\n        /* \"@openzeppelin/contracts/security/ReentrancyGuard.sol\":2261:2282  _nonReentrantBefore() */\n      tag_108\n        /* \"@openzeppelin/contracts/security/ReentrancyGuard.sol\":2261:2280  _nonReentrantBefore */\n      tag_88\n        /* \"@openzeppelin/contracts/security/ReentrancyGuard.sol\":2261:2282  _nonReentrantBefore() */\n      jump\t// in\n    tag_108:\n        /* \"LuckyRedEnvelopeV2.sol\":8449:8460  Status.Open */\n      0x01\n        /* \"LuckyRedEnvelopeV2.sol\":8420:8460  _redEnvelopes[_id].status == Status.Open */\n      0x03\n      dup2\n      gt\n      iszero\n      tag_110\n      jumpi\n      tag_111\n      tag_92\n      jump\t// in\n    tag_111:\n    tag_110:\n        /* \"LuckyRedEnvelopeV2.sol\":8420:8433  _redEnvelopes */\n      0x05\n        /* \"LuckyRedEnvelopeV2.sol\":8420:8438  _redEnvelopes[_id] */\n      0x00\n        /* \"LuckyRedEnvelopeV2.sol\":8434:8437  _id */\n      dup6\n        /* \"LuckyRedEnvelopeV2.sol\":8420:8438  _redEnvelopes[_id] */\n      dup2\n      mstore\n      0x20\n      add\n      swap1\n      dup2\n      mstore\n      0x20\n      add\n      0x00\n      keccak256\n        /* \"LuckyRedEnvelopeV2.sol\":8420:8445  _redEnvelopes[_id].status */\n      0x00\n      add\n      0x14\n      swap1\n      sload\n      swap1\n      0x0100\n      exp\n      swap1\n      div\n      0xff\n      and\n        /* \"LuckyRedEnvelopeV2.sol\":8420:8460  _redEnvelopes[_id].status == Status.Open */\n      0x03\n      dup2\n      gt\n      iszero\n      tag_112\n      jumpi\n      tag_113\n      tag_92\n      jump\t// in\n    tag_113:\n    tag_112:\n      eq\n        /* \"LuckyRedEnvelopeV2.sol\":8412:8488  require(_redEnvelopes[_id].status == Status.Open, \"RedEnvelope is not open\") */\n      tag_114\n      jumpi\n      mload(0x40)\n      0x08c379a000000000000000000000000000000000000000000000000000000000\n      dup2\n      mstore\n      0x04\n      add\n      tag_115\n      swap1\n      tag_97\n      jump\t// in\n    tag_115:\n      mload(0x40)\n      dup1\n      swap2\n      sub\n      swap1\n      revert\n    tag_114:\n        /* \"LuckyRedEnvelopeV2.sol\":8533:8534  0 */\n      0x00\n        /* \"LuckyRedEnvelopeV2.sol\":8503:8516  _redEnvelopes */\n      0x05\n        /* \"LuckyRedEnvelopeV2.sol\":8503:8521  _redEnvelopes[_id] */\n      0x00\n        /* \"LuckyRedEnvelopeV2.sol\":8517:8520  _id */\n      dup6\n        /* \"LuckyRedEnvelopeV2.sol\":8503:8521  _redEnvelopes[_id] */\n      dup2\n      mstore\n      0x20\n      add\n      swap1\n      dup2\n      mstore\n      0x20\n      add\n      0x00\n      keccak256\n        /* \"LuckyRedEnvelopeV2.sol\":8503:8529  _redEnvelopes[_id].endTime */\n      0x02\n      add\n      sload\n        /* \"LuckyRedEnvelopeV2.sol\":8503:8534  _redEnvelopes[_id].endTime != 0 */\n      eq\n        /* \"LuckyRedEnvelopeV2.sol\":8499:8643  if (_redEnvelopes[_id].endTime != 0){... */\n      tag_116\n      jumpi\n        /* \"LuckyRedEnvelopeV2.sol\":8576:8589  _redEnvelopes */\n      0x05\n        /* \"LuckyRedEnvelopeV2.sol\":8576:8594  _redEnvelopes[_id] */\n      0x00\n        /* \"LuckyRedEnvelopeV2.sol\":8590:8593  _id */\n      dup5\n        /* \"LuckyRedEnvelopeV2.sol\":8576:8594  _redEnvelopes[_id] */\n      dup2\n      mstore\n      0x20\n      add\n      swap1\n      dup2\n      mstore\n      0x20\n      add\n      0x00\n      keccak256\n        /* \"LuckyRedEnvelopeV2.sol\":8576:8602  _redEnvelopes[_id].endTime */\n      0x02\n      add\n      sload\n        /* \"LuckyRedEnvelopeV2.sol\":8558:8573  block.timestamp */\n      timestamp\n        /* \"LuckyRedEnvelopeV2.sol\":8558:8602  block.timestamp < _redEnvelopes[_id].endTime */\n      lt\n        /* \"LuckyRedEnvelopeV2.sol\":8550:8631  require(block.timestamp < _redEnvelopes[_id].endTime, \"RedEnvelope is over time\") */\n      tag_117\n      jumpi\n      mload(0x40)\n      0x08c379a000000000000000000000000000000000000000000000000000000000\n      dup2\n      mstore\n      0x04\n      add\n      tag_118\n      swap1\n      tag_119\n      jump\t// in\n    tag_118:\n      mload(0x40)\n      dup1\n      swap2\n      sub\n      swap1\n      revert\n    tag_117:\n        /* \"LuckyRedEnvelopeV2.sol\":8499:8643  if (_redEnvelopes[_id].endTime != 0){... */\n    tag_116:\n        /* \"LuckyRedEnvelopeV2.sol\":8690:8691  0 */\n      0x00\n        /* \"LuckyRedEnvelopeV2.sol\":8657:8670  _redEnvelopes */\n      0x05\n        /* \"LuckyRedEnvelopeV2.sol\":8657:8675  _redEnvelopes[_id] */\n      0x00\n        /* \"LuckyRedEnvelopeV2.sol\":8671:8674  _id */\n      dup6\n        /* \"LuckyRedEnvelopeV2.sol\":8657:8675  _redEnvelopes[_id] */\n      dup2\n      mstore\n      0x20\n      add\n      swap1\n      dup2\n      mstore\n      0x20\n      add\n      0x00\n      keccak256\n        /* \"LuckyRedEnvelopeV2.sol\":8657:8686  _redEnvelopes[_id].maxTickets */\n      0x03\n      add\n      sload\n        /* \"LuckyRedEnvelopeV2.sol\":8657:8691  _redEnvelopes[_id].maxTickets != 0 */\n      eq\n        /* \"LuckyRedEnvelopeV2.sol\":8653:8837  if (_redEnvelopes[_id].maxTickets != 0){... */\n      tag_120\n      jumpi\n        /* \"LuckyRedEnvelopeV2.sol\":8765:8778  _redEnvelopes */\n      0x05\n        /* \"LuckyRedEnvelopeV2.sol\":8765:8783  _redEnvelopes[_id] */\n      0x00\n        /* \"LuckyRedEnvelopeV2.sol\":8779:8782  _id */\n      dup5\n        /* \"LuckyRedEnvelopeV2.sol\":8765:8783  _redEnvelopes[_id] */\n      dup2\n      mstore\n      0x20\n      add\n      swap1\n      dup2\n      mstore\n      0x20\n      add\n      0x00\n      keccak256\n        /* \"LuckyRedEnvelopeV2.sol\":8765:8794  _redEnvelopes[_id].maxTickets */\n      0x03\n      add\n      sload\n        /* \"LuckyRedEnvelopeV2.sol\":8747:8761  _ticketNumbers */\n      dup2\n        /* \"LuckyRedEnvelopeV2.sol\":8715:8728  _redEnvelopes */\n      0x05\n        /* \"LuckyRedEnvelopeV2.sol\":8715:8733  _redEnvelopes[_id] */\n      0x00\n        /* \"LuckyRedEnvelopeV2.sol\":8729:8732  _id */\n      dup7\n        /* \"LuckyRedEnvelopeV2.sol\":8715:8733  _redEnvelopes[_id] */\n      dup2\n      mstore\n      0x20\n      add\n      swap1\n      dup2\n      mstore\n      0x20\n      add\n      0x00\n      keccak256\n        /* \"LuckyRedEnvelopeV2.sol\":8715:8744  _redEnvelopes[_id].buyTickets */\n      0x05\n      add\n      sload\n        /* \"LuckyRedEnvelopeV2.sol\":8715:8761  _redEnvelopes[_id].buyTickets + _ticketNumbers */\n      tag_121\n      swap2\n      swap1\n      tag_122\n      jump\t// in\n    tag_121:\n        /* \"LuckyRedEnvelopeV2.sol\":8715:8794  _redEnvelopes[_id].buyTickets + _ticketNumbers <= _redEnvelopes[_id].maxTickets */\n      gt\n      iszero\n        /* \"LuckyRedEnvelopeV2.sol\":8707:8825  require(_redEnvelopes[_id].buyTickets + _ticketNumbers <= _redEnvelopes[_id].maxTickets, \"RedEnvelope is over ticket\") */\n      tag_123\n      jumpi\n      mload(0x40)\n      0x08c379a000000000000000000000000000000000000000000000000000000000\n      dup2\n      mstore\n      0x04\n      add\n      tag_124\n      swap1\n      tag_125\n      jump\t// in\n    tag_124:\n      mload(0x40)\n      dup1\n      swap2\n      sub\n      swap1\n      revert\n    tag_123:\n        /* \"LuckyRedEnvelopeV2.sol\":8653:8837  if (_redEnvelopes[_id].maxTickets != 0){... */\n    tag_120:\n        /* \"LuckyRedEnvelopeV2.sol\":8847:8899  _getTicket(_id,_receiveAddress,_ticketNumbers,false) */\n      tag_126\n        /* \"LuckyRedEnvelopeV2.sol\":8858:8861  _id */\n      dup4\n        /* \"LuckyRedEnvelopeV2.sol\":8862:8877  _receiveAddress */\n      dup4\n        /* \"LuckyRedEnvelopeV2.sol\":8878:8892  _ticketNumbers */\n      dup4\n        /* \"LuckyRedEnvelopeV2.sol\":8893:8898  false */\n      0x00\n        /* \"LuckyRedEnvelopeV2.sol\":8847:8857  _getTicket */\n      tag_127\n        /* \"LuckyRedEnvelopeV2.sol\":8847:8899  _getTicket(_id,_receiveAddress,_ticketNumbers,false) */\n      jump\t// in\n    tag_126:\n        /* \"LuckyRedEnvelopeV2.sol\":8960:8975  _receiveAddress */\n      dup2\n        /* \"LuckyRedEnvelopeV2.sol\":8925:8991  TicketsGet(_id,address(msg.sender),_receiveAddress,_ticketNumbers) */\n      0xffffffffffffffffffffffffffffffffffffffff\n      and\n        /* \"LuckyRedEnvelopeV2.sol\":8948:8958  msg.sender */\n      caller\n        /* \"LuckyRedEnvelopeV2.sol\":8925:8991  TicketsGet(_id,address(msg.sender),_receiveAddress,_ticketNumbers) */\n      0xffffffffffffffffffffffffffffffffffffffff\n      and\n        /* \"LuckyRedEnvelopeV2.sol\":8936:8939  _id */\n      dup5\n        /* \"LuckyRedEnvelopeV2.sol\":8925:8991  TicketsGet(_id,address(msg.sender),_receiveAddress,_ticketNumbers) */\n      0x0cdb228e331696a3755ff9db076df661228408ca1178178951e48ae952567c1f\n        /* \"LuckyRedEnvelopeV2.sol\":8976:8990  _ticketNumbers */\n      dup5\n        /* \"LuckyRedEnvelopeV2.sol\":8925:8991  TicketsGet(_id,address(msg.sender),_receiveAddress,_ticketNumbers) */\n      mload(0x40)\n      tag_128\n      swap2\n      swap1\n      tag_74\n      jump\t// in\n    tag_128:\n      mload(0x40)\n      dup1\n      swap2\n      sub\n      swap1\n      log4\n        /* \"@openzeppelin/contracts/security/ReentrancyGuard.sol\":2303:2323  _nonReentrantAfter() */\n      tag_129\n        /* \"@openzeppelin/contracts/security/ReentrancyGuard.sol\":2303:2321  _nonReentrantAfter */\n      tag_103\n        /* \"@openzeppelin/contracts/security/ReentrancyGuard.sol\":2303:2323  _nonReentrantAfter() */\n      jump\t// in\n    tag_129:\n        /* \"LuckyRedEnvelopeV2.sol\":8252:8999  function getTickets(... */\n      pop\n      pop\n      pop\n      jump\t// out\n        /* \"LuckyRedEnvelopeV2.sol\":16442:16562  function redEnvelopeStatus(uint256 _id) public view  returns (Status){... */\n    tag_32:\n        /* \"LuckyRedEnvelopeV2.sol\":16504:16510  Status */\n      0x00\n        /* \"LuckyRedEnvelopeV2.sol\":16529:16542  _redEnvelopes */\n      0x05\n        /* \"LuckyRedEnvelopeV2.sol\":16529:16547  _redEnvelopes[_id] */\n      0x00\n        /* \"LuckyRedEnvelopeV2.sol\":16543:16546  _id */\n      dup4\n        /* \"LuckyRedEnvelopeV2.sol\":16529:16547  _redEnvelopes[_id] */\n      dup2\n      mstore\n      0x20\n      add\n      swap1\n      dup2\n      mstore\n      0x20\n      add\n      0x00\n      keccak256\n        /* \"LuckyRedEnvelopeV2.sol\":16529:16554  _redEnvelopes[_id].status */\n      0x00\n      add\n      0x14\n      swap1\n      sload\n      swap1\n      0x0100\n      exp\n      swap1\n      div\n      0xff\n      and\n        /* \"LuckyRedEnvelopeV2.sol\":16522:16554  return _redEnvelopes[_id].status */\n      swap1\n      pop\n        /* \"LuckyRedEnvelopeV2.sol\":16442:16562  function redEnvelopeStatus(uint256 _id) public view  returns (Status){... */\n      swap2\n      swap1\n      pop\n      jump\t// out\n        /* \"LuckyRedEnvelopeV2.sol\":5560:6009  function injectTickets(uint256 _id,uint256 _ticketNumbers)external nonReentrant{... */\n    tag_38:\n        /* \"@openzeppelin/contracts/security/ReentrancyGuard.sol\":2261:2282  _nonReentrantBefore() */\n      tag_132\n        /* \"@openzeppelin/contracts/security/ReentrancyGuard.sol\":2261:2280  _nonReentrantBefore */\n      tag_88\n        /* \"@openzeppelin/contracts/security/ReentrancyGuard.sol\":2261:2282  _nonReentrantBefore() */\n      jump\t// in\n    tag_132:\n        /* \"LuckyRedEnvelopeV2.sol\":5676:5677  0 */\n      0x00\n        /* \"LuckyRedEnvelopeV2.sol\":5658:5672  _ticketNumbers */\n      dup2\n        /* \"LuckyRedEnvelopeV2.sol\":5658:5677  _ticketNumbers != 0 */\n      sub\n        /* \"LuckyRedEnvelopeV2.sol\":5650:5695  require(_ticketNumbers != 0,\"inject no zero\") */\n      tag_134\n      jumpi\n      mload(0x40)\n      0x08c379a000000000000000000000000000000000000000000000000000000000\n      dup2\n      mstore\n      0x04\n      add\n      tag_135\n      swap1\n      tag_136\n      jump\t// in\n    tag_135:\n      mload(0x40)\n      dup1\n      swap2\n      sub\n      swap1\n      revert\n    tag_134:\n        /* \"LuckyRedEnvelopeV2.sol\":5743:5754  Status.Open */\n      0x01\n        /* \"LuckyRedEnvelopeV2.sol\":5714:5754  _redEnvelopes[_id].status == Status.Open */\n      0x03\n      dup2\n      gt\n      iszero\n      tag_137\n      jumpi\n      tag_138\n      tag_92\n      jump\t// in\n    tag_138:\n    tag_137:\n        /* \"LuckyRedEnvelopeV2.sol\":5714:5727  _redEnvelopes */\n      0x05\n        /* \"LuckyRedEnvelopeV2.sol\":5714:5732  _redEnvelopes[_id] */\n      0x00\n        /* \"LuckyRedEnvelopeV2.sol\":5728:5731  _id */\n      dup5\n        /* \"LuckyRedEnvelopeV2.sol\":5714:5732  _redEnvelopes[_id] */\n      dup2\n      mstore\n      0x20\n      add\n      swap1\n      dup2\n      mstore\n      0x20\n      add\n      0x00\n      keccak256\n        /* \"LuckyRedEnvelopeV2.sol\":5714:5739  _redEnvelopes[_id].status */\n      0x00\n      add\n      0x14\n      swap1\n      sload\n      swap1\n      0x0100\n      exp\n      swap1\n      div\n      0xff\n      and\n        /* \"LuckyRedEnvelopeV2.sol\":5714:5754  _redEnvelopes[_id].status == Status.Open */\n      0x03\n      dup2\n      gt\n      iszero\n      tag_139\n      jumpi\n      tag_140\n      tag_92\n      jump\t// in\n    tag_140:\n    tag_139:\n      eq\n        /* \"LuckyRedEnvelopeV2.sol\":5706:5782  require(_redEnvelopes[_id].status == Status.Open, \"RedEnvelope is not open\") */\n      tag_141\n      jumpi\n      mload(0x40)\n      0x08c379a000000000000000000000000000000000000000000000000000000000\n      dup2\n      mstore\n      0x04\n      add\n      tag_142\n      swap1\n      tag_97\n      jump\t// in\n    tag_142:\n      mload(0x40)\n      dup1\n      swap2\n      sub\n      swap1\n      revert\n    tag_141:\n        /* \"LuckyRedEnvelopeV2.sol\":5827:5828  0 */\n      0x00\n        /* \"LuckyRedEnvelopeV2.sol\":5797:5810  _redEnvelopes */\n      0x05\n        /* \"LuckyRedEnvelopeV2.sol\":5797:5815  _redEnvelopes[_id] */\n      0x00\n        /* \"LuckyRedEnvelopeV2.sol\":5811:5814  _id */\n      dup5\n        /* \"LuckyRedEnvelopeV2.sol\":5797:5815  _redEnvelopes[_id] */\n      dup2\n      mstore\n      0x20\n      add\n      swap1\n      dup2\n      mstore\n      0x20\n      add\n      0x00\n      keccak256\n        /* \"LuckyRedEnvelopeV2.sol\":5797:5823  _redEnvelopes[_id].endTime */\n      0x02\n      add\n      sload\n        /* \"LuckyRedEnvelopeV2.sol\":5797:5828  _redEnvelopes[_id].endTime != 0 */\n      eq\n        /* \"LuckyRedEnvelopeV2.sol\":5793:5937  if (_redEnvelopes[_id].endTime != 0){... */\n      tag_143\n      jumpi\n        /* \"LuckyRedEnvelopeV2.sol\":5870:5883  _redEnvelopes */\n      0x05\n        /* \"LuckyRedEnvelopeV2.sol\":5870:5888  _redEnvelopes[_id] */\n      0x00\n        /* \"LuckyRedEnvelopeV2.sol\":5884:5887  _id */\n      dup4\n        /* \"LuckyRedEnvelopeV2.sol\":5870:5888  _redEnvelopes[_id] */\n      dup2\n      mstore\n      0x20\n      add\n      swap1\n      dup2\n      mstore\n      0x20\n      add\n      0x00\n      keccak256\n        /* \"LuckyRedEnvelopeV2.sol\":5870:5896  _redEnvelopes[_id].endTime */\n      0x02\n      add\n      sload\n        /* \"LuckyRedEnvelopeV2.sol\":5852:5867  block.timestamp */\n      timestamp\n        /* \"LuckyRedEnvelopeV2.sol\":5852:5896  block.timestamp < _redEnvelopes[_id].endTime */\n      lt\n        /* \"LuckyRedEnvelopeV2.sol\":5844:5925  require(block.timestamp < _redEnvelopes[_id].endTime, \"RedEnvelope is over time\") */\n      tag_144\n      jumpi\n      mload(0x40)\n      0x08c379a000000000000000000000000000000000000000000000000000000000\n      dup2\n      mstore\n      0x04\n      add\n      tag_145\n      swap1\n      tag_119\n      jump\t// in\n    tag_145:\n      mload(0x40)\n      dup1\n      swap2\n      sub\n      swap1\n      revert\n    tag_144:\n        /* \"LuckyRedEnvelopeV2.sol\":5793:5937  if (_redEnvelopes[_id].endTime != 0){... */\n    tag_143:\n        /* \"LuckyRedEnvelopeV2.sol\":5947:6001  _injectTickets(_id,address(msg.sender),_ticketNumbers) */\n      tag_146\n        /* \"LuckyRedEnvelopeV2.sol\":5962:5965  _id */\n      dup3\n        /* \"LuckyRedEnvelopeV2.sol\":5974:5984  msg.sender */\n      caller\n        /* \"LuckyRedEnvelopeV2.sol\":5986:6000  _ticketNumbers */\n      dup4\n        /* \"LuckyRedEnvelopeV2.sol\":5947:5961  _injectTickets */\n      tag_147\n        /* \"LuckyRedEnvelopeV2.sol\":5947:6001  _injectTickets(_id,address(msg.sender),_ticketNumbers) */\n      jump\t// in\n    tag_146:\n        /* \"@openzeppelin/contracts/security/ReentrancyGuard.sol\":2303:2323  _nonReentrantAfter() */\n      tag_148\n        /* \"@openzeppelin/contracts/security/ReentrancyGuard.sol\":2303:2321  _nonReentrantAfter */\n      tag_103\n        /* \"@openzeppelin/contracts/security/ReentrancyGuard.sol\":2303:2323  _nonReentrantAfter() */\n      jump\t// in\n    tag_148:\n        /* \"LuckyRedEnvelopeV2.sol\":5560:6009  function injectTickets(uint256 _id,uint256 _ticketNumbers)external nonReentrant{... */\n      pop\n      pop\n      jump\t// out\n        /* \"@openzeppelin/contracts/access/Ownable.sol\":2293:2394  function renounceOwnership() public virtual onlyOwner {... */\n    tag_40:\n        /* \"@openzeppelin/contracts/access/Ownable.sol\":1531:1544  _checkOwner() */\n      tag_150\n        /* \"@openzeppelin/contracts/access/Ownable.sol\":1531:1542  _checkOwner */\n      tag_151\n        /* \"@openzeppelin/contracts/access/Ownable.sol\":1531:1544  _checkOwner() */\n      jump\t// in\n    tag_150:\n        /* \"@openzeppelin/contracts/access/Ownable.sol\":2357:2387  _transferOwnership(address(0)) */\n      tag_153\n        /* \"@openzeppelin/contracts/access/Ownable.sol\":2384:2385  0 */\n      0x00\n        /* \"@openzeppelin/contracts/access/Ownable.sol\":2357:2375  _transferOwnership */\n      tag_154\n        /* \"@openzeppelin/contracts/access/Ownable.sol\":2357:2387  _transferOwnership(address(0)) */\n      jump\t// in\n    tag_153:\n        /* \"@openzeppelin/contracts/access/Ownable.sol\":2293:2394  function renounceOwnership() public virtual onlyOwner {... */\n      jump\t// out\n        /* \"@openzeppelin/contracts/access/Ownable.sol\":1638:1723  function owner() public view virtual returns (address) {... */\n    tag_42:\n        /* \"@openzeppelin/contracts/access/Ownable.sol\":1684:1691  address */\n      0x00\n        /* \"@openzeppelin/contracts/access/Ownable.sol\":1710:1716  _owner */\n      0x01\n      0x00\n      swap1\n      sload\n      swap1\n      0x0100\n      exp\n      swap1\n      div\n      0xffffffffffffffffffffffffffffffffffffffff\n      and\n        /* \"@openzeppelin/contracts/access/Ownable.sol\":1703:1716  return _owner */\n      swap1\n      pop\n        /* \"@openzeppelin/contracts/access/Ownable.sol\":1638:1723  function owner() public view virtual returns (address) {... */\n      swap1\n      jump\t// out\n        /* \"LuckyRedEnvelopeV2.sol\":4328:5554  function createRedEnvelope(... */\n    tag_48:\n        /* \"LuckyRedEnvelopeV2.sol\":2002:2006  true */\n      0x01\n        /* \"LuckyRedEnvelopeV2.sol\":1967:2006  operatorAddressList[msg.sender] == true */\n      iszero\n      iszero\n        /* \"LuckyRedEnvelopeV2.sol\":1967:1986  operatorAddressList */\n      0x02\n        /* \"LuckyRedEnvelopeV2.sol\":1967:1998  operatorAddressList[msg.sender] */\n      0x00\n        /* \"LuckyRedEnvelopeV2.sol\":1987:1997  msg.sender */\n      caller\n        /* \"LuckyRedEnvelopeV2.sol\":1967:1998  operatorAddressList[msg.sender] */\n      0xffffffffffffffffffffffffffffffffffffffff\n      and\n      0xffffffffffffffffffffffffffffffffffffffff\n      and\n      dup2\n      mstore\n      0x20\n      add\n      swap1\n      dup2\n      mstore\n      0x20\n      add\n      0x00\n      keccak256\n      0x00\n      swap1\n      sload\n      swap1\n      0x0100\n      exp\n      swap1\n      div\n      0xff\n      and\n        /* \"LuckyRedEnvelopeV2.sol\":1967:2006  operatorAddressList[msg.sender] == true */\n      iszero\n      iszero\n      eq\n        /* \"LuckyRedEnvelopeV2.sol\":1959:2023  require(operatorAddressList[msg.sender] == true, \"Not operator\") */\n      tag_157\n      jumpi\n      mload(0x40)\n      0x08c379a000000000000000000000000000000000000000000000000000000000\n      dup2\n      mstore\n      0x04\n      add\n      tag_158\n      swap1\n      tag_85\n      jump\t// in\n    tag_158:\n      mload(0x40)\n      dup1\n      swap2\n      sub\n      swap1\n      revert\n    tag_157:\n        /* \"@openzeppelin/contracts/security/ReentrancyGuard.sol\":2261:2282  _nonReentrantBefore() */\n      tag_160\n        /* \"@openzeppelin/contracts/security/ReentrancyGuard.sol\":2261:2280  _nonReentrantBefore */\n      tag_88\n        /* \"@openzeppelin/contracts/security/ReentrancyGuard.sol\":2261:2282  _nonReentrantBefore() */\n      jump\t// in\n    tag_160:\n        /* \"LuckyRedEnvelopeV2.sol\":4675:4684  currentId */\n      0x03\n      0x00\n        /* \"LuckyRedEnvelopeV2.sol\":4675:4686  currentId++ */\n      dup2\n      sload\n      dup1\n      swap3\n      swap2\n      swap1\n      tag_162\n      swap1\n      tag_163\n      jump\t// in\n    tag_162:\n      swap2\n      swap1\n      pop\n      sstore\n      pop\n        /* \"LuckyRedEnvelopeV2.sol\":4724:5253  RedEnvelope({... */\n      mload(0x40)\n      dup1\n      0x01e0\n      add\n      0x40\n      mstore\n      dup1\n        /* \"LuckyRedEnvelopeV2.sol\":4764:4777  _tokenAddress */\n      dup10\n        /* \"LuckyRedEnvelopeV2.sol\":4724:5253  RedEnvelope({... */\n      0xffffffffffffffffffffffffffffffffffffffff\n      and\n      dup2\n      mstore\n      0x20\n      add\n        /* \"LuckyRedEnvelopeV2.sol\":4800:4811  Status.Open */\n      0x01\n        /* \"LuckyRedEnvelopeV2.sol\":4724:5253  RedEnvelope({... */\n      0x03\n      dup2\n      gt\n      iszero\n      tag_164\n      jumpi\n      tag_165\n      tag_92\n      jump\t// in\n    tag_165:\n    tag_164:\n      dup2\n      mstore\n      0x20\n      add\n        /* \"LuckyRedEnvelopeV2.sol\":4837:4852  block.timestamp */\n      timestamp\n        /* \"LuckyRedEnvelopeV2.sol\":4724:5253  RedEnvelope({... */\n      dup2\n      mstore\n      0x20\n      add\n        /* \"LuckyRedEnvelopeV2.sol\":4876:4884  _endTime */\n      dup8\n        /* \"LuckyRedEnvelopeV2.sol\":4724:5253  RedEnvelope({... */\n      dup2\n      mstore\n      0x20\n      add\n        /* \"LuckyRedEnvelopeV2.sol\":4910:4921  _maxTickets */\n      dup7\n        /* \"LuckyRedEnvelopeV2.sol\":4724:5253  RedEnvelope({... */\n      dup2\n      mstore\n      0x20\n      add\n        /* \"LuckyRedEnvelopeV2.sol\":4948:4960  _maxPrizeNum */\n      dup6\n        /* \"LuckyRedEnvelopeV2.sol\":4724:5253  RedEnvelope({... */\n      dup2\n      mstore\n      0x20\n      add\n        /* \"LuckyRedEnvelopeV2.sol\":4986:4987  0 */\n      0x00\n        /* \"LuckyRedEnvelopeV2.sol\":4724:5253  RedEnvelope({... */\n      dup2\n      mstore\n      0x20\n      add\n        /* \"LuckyRedEnvelopeV2.sol\":5013:5014  0 */\n      0x00\n        /* \"LuckyRedEnvelopeV2.sol\":4724:5253  RedEnvelope({... */\n      dup2\n      mstore\n      0x20\n      add\n        /* \"LuckyRedEnvelopeV2.sol\":5043:5044  0 */\n      0x00\n        /* \"LuckyRedEnvelopeV2.sol\":4724:5253  RedEnvelope({... */\n      dup2\n      mstore\n      0x20\n      add\n        /* \"LuckyRedEnvelopeV2.sol\":5071:5072  0 */\n      0x00\n        /* \"LuckyRedEnvelopeV2.sol\":4724:5253  RedEnvelope({... */\n      dup2\n      mstore\n      0x20\n      add\n        /* \"LuckyRedEnvelopeV2.sol\":5097:5098  0 */\n      0x00\n        /* \"LuckyRedEnvelopeV2.sol\":4724:5253  RedEnvelope({... */\n      dup2\n      mstore\n      0x20\n      add\n        /* \"LuckyRedEnvelopeV2.sol\":5127:5128  0 */\n      0x00\n        /* \"LuckyRedEnvelopeV2.sol\":4724:5253  RedEnvelope({... */\n      dup2\n      mstore\n      0x20\n      add\n        /* \"LuckyRedEnvelopeV2.sol\":5159:5171  _ticketPirce */\n      dup9\n        /* \"LuckyRedEnvelopeV2.sol\":4724:5253  RedEnvelope({... */\n      dup2\n      mstore\n      0x20\n      add\n        /* \"LuckyRedEnvelopeV2.sol\":5193:5200  _secret */\n      dup3\n        /* \"LuckyRedEnvelopeV2.sol\":4724:5253  RedEnvelope({... */\n      dup2\n      mstore\n      0x20\n      add\n        /* \"LuckyRedEnvelopeV2.sol\":5225:5241  defaultAutoClaim */\n      0x04\n      0x00\n      swap1\n      sload\n      swap1\n      0x0100\n      exp\n      swap1\n      div\n      0xff\n      and\n        /* \"LuckyRedEnvelopeV2.sol\":4724:5253  RedEnvelope({... */\n      iszero\n      iszero\n      dup2\n      mstore\n      pop\n        /* \"LuckyRedEnvelopeV2.sol\":4697:4710  _redEnvelopes */\n      0x05\n        /* \"LuckyRedEnvelopeV2.sol\":4697:4721  _redEnvelopes[currentId] */\n      0x00\n        /* \"LuckyRedEnvelopeV2.sol\":4711:4720  currentId */\n      sload(0x03)\n        /* \"LuckyRedEnvelopeV2.sol\":4697:4721  _redEnvelopes[currentId] */\n      dup2\n      mstore\n      0x20\n      add\n      swap1\n      dup2\n      mstore\n      0x20\n      add\n      0x00\n      keccak256\n        /* \"LuckyRedEnvelopeV2.sol\":4697:5253  _redEnvelopes[currentId] = RedEnvelope({... */\n      0x00\n      dup3\n      add\n      mload\n      dup2\n      0x00\n      add\n      exp(0x0100, 0x00)\n      dup2\n      sload\n      dup2\n      0xffffffffffffffffffffffffffffffffffffffff\n      mul\n      not\n      and\n      swap1\n      dup4\n      0xffffffffffffffffffffffffffffffffffffffff\n      and\n      mul\n      or\n      swap1\n      sstore\n      pop\n      0x20\n      dup3\n      add\n      mload\n      dup2\n      0x00\n      add\n      exp(0x0100, 0x14)\n      dup2\n      sload\n      dup2\n      0xff\n      mul\n      not\n      and\n      swap1\n      dup4\n      0x03\n      dup2\n      gt\n      iszero\n      tag_166\n      jumpi\n      tag_167\n      tag_92\n      jump\t// in\n    tag_167:\n    tag_166:\n      mul\n      or\n      swap1\n      sstore\n      pop\n      0x40\n      dup3\n      add\n      mload\n      dup2\n      0x01\n      add\n      sstore\n      0x60\n      dup3\n      add\n      mload\n      dup2\n      0x02\n      add\n      sstore\n      0x80\n      dup3\n      add\n      mload\n      dup2\n      0x03\n      add\n      sstore\n      0xa0\n      dup3\n      add\n      mload\n      dup2\n      0x04\n      add\n      sstore\n      0xc0\n      dup3\n      add\n      mload\n      dup2\n      0x05\n      add\n      sstore\n      0xe0\n      dup3\n      add\n      mload\n      dup2\n      0x06\n      add\n      sstore\n      0x0100\n      dup3\n      add\n      mload\n      dup2\n      0x07\n      add\n      sstore\n      0x0120\n      dup3\n      add\n      mload\n      dup2\n      0x08\n      add\n      sstore\n      0x0140\n      dup3\n      add\n      mload\n      dup2\n      0x09\n      add\n      sstore\n      0x0160\n      dup3\n      add\n      mload\n      dup2\n      0x0a\n      add\n      sstore\n      0x0180\n      dup3\n      add\n      mload\n      dup2\n      0x0b\n      add\n      sstore\n      0x01a0\n      dup3\n      add\n      mload\n      dup2\n      0x0c\n      add\n      sstore\n      0x01c0\n      dup3\n      add\n      mload\n      dup2\n      0x0d\n      add\n      exp(0x0100, 0x00)\n      dup2\n      sload\n      dup2\n      0xff\n      mul\n      not\n      and\n      swap1\n      dup4\n      iszero\n      iszero\n      mul\n      or\n      swap1\n      sstore\n      pop\n      swap1\n      pop\n      pop\n        /* \"LuckyRedEnvelopeV2.sol\":5288:5297  currentId */\n      sload(0x03)\n        /* \"LuckyRedEnvelopeV2.sol\":5269:5365  RedEnvelopeCreated(currentId,block.timestamp,_endTime,_maxTickets,_ticketPirce,defaultAutoClaim) */\n      0xc048fb84fda80e25f0fefc7a7d2ecc12b63298aa81ba993895368d62553478ed\n        /* \"LuckyRedEnvelopeV2.sol\":5298:5313  block.timestamp */\n      timestamp\n        /* \"LuckyRedEnvelopeV2.sol\":5314:5322  _endTime */\n      dup9\n        /* \"LuckyRedEnvelopeV2.sol\":5323:5334  _maxTickets */\n      dup9\n        /* \"LuckyRedEnvelopeV2.sol\":5335:5347  _ticketPirce */\n      dup12\n        /* \"LuckyRedEnvelopeV2.sol\":5348:5364  defaultAutoClaim */\n      0x04\n      0x00\n      swap1\n      sload\n      swap1\n      0x0100\n      exp\n      swap1\n      div\n      0xff\n      and\n        /* \"LuckyRedEnvelopeV2.sol\":5269:5365  RedEnvelopeCreated(currentId,block.timestamp,_endTime,_maxTickets,_ticketPirce,defaultAutoClaim) */\n      mload(0x40)\n      tag_168\n      swap6\n      swap5\n      swap4\n      swap3\n      swap2\n      swap1\n      tag_169\n      jump\t// in\n    tag_168:\n      mload(0x40)\n      dup1\n      swap2\n      sub\n      swap1\n      log2\n        /* \"LuckyRedEnvelopeV2.sol\":5401:5402  0 */\n      0x00\n        /* \"LuckyRedEnvelopeV2.sol\":5382:5398  _injectTicketNum */\n      dup3\n        /* \"LuckyRedEnvelopeV2.sol\":5382:5402  _injectTicketNum > 0 */\n      gt\n        /* \"LuckyRedEnvelopeV2.sol\":5378:5545  if (_injectTicketNum > 0){... */\n      iszero\n      tag_170\n      jumpi\n        /* \"LuckyRedEnvelopeV2.sol\":5477:5534  _injectTickets(currentId,_injectAddress,_injectTicketNum) */\n      tag_171\n        /* \"LuckyRedEnvelopeV2.sol\":5492:5501  currentId */\n      sload(0x03)\n        /* \"LuckyRedEnvelopeV2.sol\":5502:5516  _injectAddress */\n      dup5\n        /* \"LuckyRedEnvelopeV2.sol\":5517:5533  _injectTicketNum */\n      dup5\n        /* \"LuckyRedEnvelopeV2.sol\":5477:5491  _injectTickets */\n      tag_147\n        /* \"LuckyRedEnvelopeV2.sol\":5477:5534  _injectTickets(currentId,_injectAddress,_injectTicketNum) */\n      jump\t// in\n    tag_171:\n        /* \"LuckyRedEnvelopeV2.sol\":5378:5545  if (_injectTicketNum > 0){... */\n    tag_170:\n        /* \"@openzeppelin/contracts/security/ReentrancyGuard.sol\":2303:2323  _nonReentrantAfter() */\n      tag_172\n        /* \"@openzeppelin/contracts/security/ReentrancyGuard.sol\":2303:2321  _nonReentrantAfter */\n      tag_103\n        /* \"@openzeppelin/contracts/security/ReentrancyGuard.sol\":2303:2323  _nonReentrantAfter() */\n      jump\t// in\n    tag_172:\n        /* \"LuckyRedEnvelopeV2.sol\":4328:5554  function createRedEnvelope(... */\n      pop\n      pop\n      pop\n      pop\n      pop\n      pop\n      pop\n      pop\n      jump\t// out\n        /* \"LuckyRedEnvelopeV2.sol\":499:527  bool public defaultAutoClaim */\n    tag_50:\n      0x04\n      0x00\n      swap1\n      sload\n      swap1\n      0x0100\n      exp\n      swap1\n      div\n      0xff\n      and\n      dup2\n      jump\t// out\n        /* \"LuckyRedEnvelopeV2.sol\":406:457  mapping(address => bool) public operatorAddressList */\n    tag_56:\n      mstore(0x20, 0x02)\n      dup1\n      0x00\n      mstore\n      keccak256(0x00, 0x40)\n      0x00\n      swap2\n      pop\n      sload\n      swap1\n      0x0100\n      exp\n      swap1\n      div\n      0xff\n      and\n      dup2\n      jump\t// out\n        /* \"LuckyRedEnvelopeV2.sol\":11476:13184  function drawPrize(... */\n    tag_60:\n        /* \"LuckyRedEnvelopeV2.sol\":2002:2006  true */\n      0x01\n        /* \"LuckyRedEnvelopeV2.sol\":1967:2006  operatorAddressList[msg.sender] == true */\n      iszero\n      iszero\n        /* \"LuckyRedEnvelopeV2.sol\":1967:1986  operatorAddressList */\n      0x02\n        /* \"LuckyRedEnvelopeV2.sol\":1967:1998  operatorAddressList[msg.sender] */\n      0x00\n        /* \"LuckyRedEnvelopeV2.sol\":1987:1997  msg.sender */\n      caller\n        /* \"LuckyRedEnvelopeV2.sol\":1967:1998  operatorAddressList[msg.sender] */\n      0xffffffffffffffffffffffffffffffffffffffff\n      and\n      0xffffffffffffffffffffffffffffffffffffffff\n      and\n      dup2\n      mstore\n      0x20\n      add\n      swap1\n      dup2\n      mstore\n      0x20\n      add\n      0x00\n      keccak256\n      0x00\n      swap1\n      sload\n      swap1\n      0x0100\n      exp\n      swap1\n      div\n      0xff\n      and\n        /* \"LuckyRedEnvelopeV2.sol\":1967:2006  operatorAddressList[msg.sender] == true */\n      iszero\n      iszero\n      eq\n        /* \"LuckyRedEnvelopeV2.sol\":1959:2023  require(operatorAddressList[msg.sender] == true, \"Not operator\") */\n      tag_174\n      jumpi\n      mload(0x40)\n      0x08c379a000000000000000000000000000000000000000000000000000000000\n      dup2\n      mstore\n      0x04\n      add\n      tag_175\n      swap1\n      tag_85\n      jump\t// in\n    tag_175:\n      mload(0x40)\n      dup1\n      swap2\n      sub\n      swap1\n      revert\n    tag_174:\n        /* \"@openzeppelin/contracts/security/ReentrancyGuard.sol\":2261:2282  _nonReentrantBefore() */\n      tag_177\n        /* \"@openzeppelin/contracts/security/ReentrancyGuard.sol\":2261:2280  _nonReentrantBefore */\n      tag_88\n        /* \"@openzeppelin/contracts/security/ReentrancyGuard.sol\":2261:2282  _nonReentrantBefore() */\n      jump\t// in\n    tag_177:\n        /* \"LuckyRedEnvelopeV2.sol\":11630:11642  Status.Close */\n      0x02\n        /* \"LuckyRedEnvelopeV2.sol\":11601:11642  _redEnvelopes[_id].status == Status.Close */\n      0x03\n      dup2\n      gt\n      iszero\n      tag_179\n      jumpi\n      tag_180\n      tag_92\n      jump\t// in\n    tag_180:\n    tag_179:\n        /* \"LuckyRedEnvelopeV2.sol\":11601:11614  _redEnvelopes */\n      0x05\n        /* \"LuckyRedEnvelopeV2.sol\":11601:11619  _redEnvelopes[_id] */\n      0x00\n        /* \"LuckyRedEnvelopeV2.sol\":11615:11618  _id */\n      dup5\n        /* \"LuckyRedEnvelopeV2.sol\":11601:11619  _redEnvelopes[_id] */\n      dup2\n      mstore\n      0x20\n      add\n      swap1\n      dup2\n      mstore\n      0x20\n      add\n      0x00\n      keccak256\n        /* \"LuckyRedEnvelopeV2.sol\":11601:11626  _redEnvelopes[_id].status */\n      0x00\n      add\n      0x14\n      swap1\n      sload\n      swap1\n      0x0100\n      exp\n      swap1\n      div\n      0xff\n      and\n        /* \"LuckyRedEnvelopeV2.sol\":11601:11642  _redEnvelopes[_id].status == Status.Close */\n      0x03\n      dup2\n      gt\n      iszero\n      tag_181\n      jumpi\n      tag_182\n      tag_92\n      jump\t// in\n    tag_182:\n    tag_181:\n      eq\n        /* \"LuckyRedEnvelopeV2.sol\":11593:11668  require(_redEnvelopes[_id].status == Status.Close, \"RedEnvelope not close\") */\n      tag_183\n      jumpi\n      mload(0x40)\n      0x08c379a000000000000000000000000000000000000000000000000000000000\n      dup2\n      mstore\n      0x04\n      add\n      tag_184\n      swap1\n      tag_185\n      jump\t// in\n    tag_184:\n      mload(0x40)\n      dup1\n      swap2\n      sub\n      swap1\n      revert\n    tag_183:\n        /* \"LuckyRedEnvelopeV2.sol\":11707:11723  Status.Claimable */\n      0x03\n        /* \"LuckyRedEnvelopeV2.sol\":11679:11692  _redEnvelopes */\n      0x05\n        /* \"LuckyRedEnvelopeV2.sol\":11679:11697  _redEnvelopes[_id] */\n      0x00\n        /* \"LuckyRedEnvelopeV2.sol\":11693:11696  _id */\n      dup5\n        /* \"LuckyRedEnvelopeV2.sol\":11679:11697  _redEnvelopes[_id] */\n      dup2\n      mstore\n      0x20\n      add\n      swap1\n      dup2\n      mstore\n      0x20\n      add\n      0x00\n      keccak256\n        /* \"LuckyRedEnvelopeV2.sol\":11679:11704  _redEnvelopes[_id].status */\n      0x00\n      add\n      0x14\n        /* \"LuckyRedEnvelopeV2.sol\":11679:11723  _redEnvelopes[_id].status = Status.Claimable */\n      0x0100\n      exp\n      dup2\n      sload\n      dup2\n      0xff\n      mul\n      not\n      and\n      swap1\n      dup4\n      0x03\n      dup2\n      gt\n      iszero\n      tag_186\n      jumpi\n      tag_187\n      tag_92\n      jump\t// in\n    tag_187:\n    tag_186:\n      mul\n      or\n      swap1\n      sstore\n      pop\n        /* \"LuckyRedEnvelopeV2.sol\":11760:11763  _id */\n      dup2\n        /* \"LuckyRedEnvelopeV2.sol\":11739:11780  RedEnvelopeClaimable(_id,block.timestamp) */\n      0x66f6b4cd34444af165fb78bce3996496528b37af161c26f737b7341cc37063bb\n        /* \"LuckyRedEnvelopeV2.sol\":11764:11779  block.timestamp */\n      timestamp\n        /* \"LuckyRedEnvelopeV2.sol\":11739:11780  RedEnvelopeClaimable(_id,block.timestamp) */\n      mload(0x40)\n      tag_188\n      swap2\n      swap1\n      tag_74\n      jump\t// in\n    tag_188:\n      mload(0x40)\n      dup1\n      swap2\n      sub\n      swap1\n      log2\n        /* \"LuckyRedEnvelopeV2.sol\":11791:11810  uint256 userTickets */\n      0x00\n        /* \"LuckyRedEnvelopeV2.sol\":11845:11858  _redEnvelopes */\n      0x05\n        /* \"LuckyRedEnvelopeV2.sol\":11845:11863  _redEnvelopes[_id] */\n      0x00\n        /* \"LuckyRedEnvelopeV2.sol\":11859:11862  _id */\n      dup5\n        /* \"LuckyRedEnvelopeV2.sol\":11845:11863  _redEnvelopes[_id] */\n      dup2\n      mstore\n      0x20\n      add\n      swap1\n      dup2\n      mstore\n      0x20\n      add\n      0x00\n      keccak256\n        /* \"LuckyRedEnvelopeV2.sol\":11845:11874  _redEnvelopes[_id].getTickets */\n      0x06\n      add\n      sload\n        /* \"LuckyRedEnvelopeV2.sol\":11813:11826  _redEnvelopes */\n      0x05\n        /* \"LuckyRedEnvelopeV2.sol\":11813:11831  _redEnvelopes[_id] */\n      0x00\n        /* \"LuckyRedEnvelopeV2.sol\":11827:11830  _id */\n      dup6\n        /* \"LuckyRedEnvelopeV2.sol\":11813:11831  _redEnvelopes[_id] */\n      dup2\n      mstore\n      0x20\n      add\n      swap1\n      dup2\n      mstore\n      0x20\n      add\n      0x00\n      keccak256\n        /* \"LuckyRedEnvelopeV2.sol\":11813:11842  _redEnvelopes[_id].buyTickets */\n      0x05\n      add\n      sload\n        /* \"LuckyRedEnvelopeV2.sol\":11813:11874  _redEnvelopes[_id].buyTickets + _redEnvelopes[_id].getTickets */\n      tag_189\n      swap2\n      swap1\n      tag_122\n      jump\t// in\n    tag_189:\n        /* \"LuckyRedEnvelopeV2.sol\":11791:11874  uint256 userTickets = _redEnvelopes[_id].buyTickets + _redEnvelopes[_id].getTickets */\n      swap1\n      pop\n        /* \"LuckyRedEnvelopeV2.sol\":11905:11906  0 */\n      0x00\n        /* \"LuckyRedEnvelopeV2.sol\":11890:11901  userTickets */\n      dup2\n        /* \"LuckyRedEnvelopeV2.sol\":11890:11906  userTickets == 0 */\n      sub\n        /* \"LuckyRedEnvelopeV2.sol\":11885:12043  if ( userTickets == 0){... */\n      tag_190\n      jumpi\n        /* \"LuckyRedEnvelopeV2.sol\":11956:11974  _returnInject(_id) */\n      tag_191\n        /* \"LuckyRedEnvelopeV2.sol\":11970:11973  _id */\n      dup4\n        /* \"LuckyRedEnvelopeV2.sol\":11956:11969  _returnInject */\n      tag_192\n        /* \"LuckyRedEnvelopeV2.sol\":11956:11974  _returnInject(_id) */\n      jump\t// in\n    tag_191:\n        /* \"LuckyRedEnvelopeV2.sol\":11989:12009  _removeEnvelope(_id) */\n      tag_193\n        /* \"LuckyRedEnvelopeV2.sol\":12005:12008  _id */\n      dup4\n        /* \"LuckyRedEnvelopeV2.sol\":11989:12004  _removeEnvelope */\n      tag_194\n        /* \"LuckyRedEnvelopeV2.sol\":11989:12009  _removeEnvelope(_id) */\n      jump\t// in\n    tag_193:\n        /* \"LuckyRedEnvelopeV2.sol\":12024:12032  return ; */\n      pop\n      jump(tag_178)\n        /* \"LuckyRedEnvelopeV2.sol\":11885:12043  if ( userTickets == 0){... */\n    tag_190:\n        /* \"LuckyRedEnvelopeV2.sol\":12087:12105  uint256 randomWord */\n      0x00\n        /* \"LuckyRedEnvelopeV2.sol\":12108:12114  _nonce */\n      dup3\n        /* \"LuckyRedEnvelopeV2.sol\":12087:12114  uint256 randomWord = _nonce */\n      swap1\n      pop\n        /* \"LuckyRedEnvelopeV2.sol\":12135:12150  uint256 drawNum */\n      0x00\n        /* \"LuckyRedEnvelopeV2.sol\":12153:12164  userTickets */\n      dup3\n        /* \"LuckyRedEnvelopeV2.sol\":12135:12164  uint256 drawNum = userTickets */\n      swap1\n      pop\n        /* \"LuckyRedEnvelopeV2.sol\":12189:12202  _redEnvelopes */\n      0x05\n        /* \"LuckyRedEnvelopeV2.sol\":12189:12207  _redEnvelopes[_id] */\n      0x00\n        /* \"LuckyRedEnvelopeV2.sol\":12203:12206  _id */\n      dup7\n        /* \"LuckyRedEnvelopeV2.sol\":12189:12207  _redEnvelopes[_id] */\n      dup2\n      mstore\n      0x20\n      add\n      swap1\n      dup2\n      mstore\n      0x20\n      add\n      0x00\n      keccak256\n        /* \"LuckyRedEnvelopeV2.sol\":12189:12219  _redEnvelopes[_id].maxPrizeNum */\n      0x04\n      add\n      sload\n        /* \"LuckyRedEnvelopeV2.sol\":12179:12186  drawNum */\n      dup2\n        /* \"LuckyRedEnvelopeV2.sol\":12179:12219  drawNum > _redEnvelopes[_id].maxPrizeNum */\n      gt\n        /* \"LuckyRedEnvelopeV2.sol\":12175:12288  if (drawNum > _redEnvelopes[_id].maxPrizeNum ){... */\n      iszero\n      tag_195\n      jumpi\n        /* \"LuckyRedEnvelopeV2.sol\":12246:12259  _redEnvelopes */\n      0x05\n        /* \"LuckyRedEnvelopeV2.sol\":12246:12264  _redEnvelopes[_id] */\n      0x00\n        /* \"LuckyRedEnvelopeV2.sol\":12260:12263  _id */\n      dup7\n        /* \"LuckyRedEnvelopeV2.sol\":12246:12264  _redEnvelopes[_id] */\n      dup2\n      mstore\n      0x20\n      add\n      swap1\n      dup2\n      mstore\n      0x20\n      add\n      0x00\n      keccak256\n        /* \"LuckyRedEnvelopeV2.sol\":12246:12276  _redEnvelopes[_id].maxPrizeNum */\n      0x04\n      add\n      sload\n        /* \"LuckyRedEnvelopeV2.sol\":12236:12276  drawNum = _redEnvelopes[_id].maxPrizeNum */\n      swap1\n      pop\n        /* \"LuckyRedEnvelopeV2.sol\":12175:12288  if (drawNum > _redEnvelopes[_id].maxPrizeNum ){... */\n    tag_195:\n        /* \"LuckyRedEnvelopeV2.sol\":12327:12347  uint256 totalTickets */\n      0x00\n        /* \"LuckyRedEnvelopeV2.sol\":12385:12398  _redEnvelopes */\n      0x05\n        /* \"LuckyRedEnvelopeV2.sol\":12385:12403  _redEnvelopes[_id] */\n      0x00\n        /* \"LuckyRedEnvelopeV2.sol\":12399:12402  _id */\n      dup8\n        /* \"LuckyRedEnvelopeV2.sol\":12385:12403  _redEnvelopes[_id] */\n      dup2\n      mstore\n      0x20\n      add\n      swap1\n      dup2\n      mstore\n      0x20\n      add\n      0x00\n      keccak256\n        /* \"LuckyRedEnvelopeV2.sol\":12385:12414  _redEnvelopes[_id].buyTickets */\n      0x05\n      add\n      sload\n        /* \"LuckyRedEnvelopeV2.sol\":12350:12363  _redEnvelopes */\n      0x05\n        /* \"LuckyRedEnvelopeV2.sol\":12350:12368  _redEnvelopes[_id] */\n      0x00\n        /* \"LuckyRedEnvelopeV2.sol\":12364:12367  _id */\n      dup9\n        /* \"LuckyRedEnvelopeV2.sol\":12350:12368  _redEnvelopes[_id] */\n      dup2\n      mstore\n      0x20\n      add\n      swap1\n      dup2\n      mstore\n      0x20\n      add\n      0x00\n      keccak256\n        /* \"LuckyRedEnvelopeV2.sol\":12350:12382  _redEnvelopes[_id].injectTickets */\n      0x07\n      add\n      sload\n        /* \"LuckyRedEnvelopeV2.sol\":12350:12414  _redEnvelopes[_id].injectTickets + _redEnvelopes[_id].buyTickets */\n      tag_196\n      swap2\n      swap1\n      tag_122\n      jump\t// in\n    tag_196:\n        /* \"LuckyRedEnvelopeV2.sol\":12327:12414  uint256 totalTickets = _redEnvelopes[_id].injectTickets + _redEnvelopes[_id].buyTickets */\n      swap1\n      pop\n        /* \"LuckyRedEnvelopeV2.sol\":12425:12444  uint256 amountToken */\n      0x00\n        /* \"LuckyRedEnvelopeV2.sol\":12481:12493  totalTickets */\n      dup2\n        /* \"LuckyRedEnvelopeV2.sol\":12448:12461  _redEnvelopes */\n      0x05\n        /* \"LuckyRedEnvelopeV2.sol\":12448:12466  _redEnvelopes[_id] */\n      0x00\n        /* \"LuckyRedEnvelopeV2.sol\":12462:12465  _id */\n      dup10\n        /* \"LuckyRedEnvelopeV2.sol\":12448:12466  _redEnvelopes[_id] */\n      dup2\n      mstore\n      0x20\n      add\n      swap1\n      dup2\n      mstore\n      0x20\n      add\n      0x00\n      keccak256\n        /* \"LuckyRedEnvelopeV2.sol\":12448:12478  _redEnvelopes[_id].ticketPirce */\n      0x0b\n      add\n      sload\n        /* \"LuckyRedEnvelopeV2.sol\":12448:12493  _redEnvelopes[_id].ticketPirce * totalTickets */\n      tag_197\n      swap2\n      swap1\n      tag_198\n      jump\t// in\n    tag_197:\n        /* \"LuckyRedEnvelopeV2.sol\":12425:12493  uint256 amountToken =  _redEnvelopes[_id].ticketPirce * totalTickets */\n      swap1\n      pop\n        /* \"LuckyRedEnvelopeV2.sol\":12505:12535  uint256[] memory randomsAmount */\n      0x00\n        /* \"LuckyRedEnvelopeV2.sol\":12538:12585  _getSortRandoms(randomWord,drawNum,amountToken) */\n      tag_199\n        /* \"LuckyRedEnvelopeV2.sol\":12554:12564  randomWord */\n      dup6\n        /* \"LuckyRedEnvelopeV2.sol\":12565:12572  drawNum */\n      dup6\n        /* \"LuckyRedEnvelopeV2.sol\":12573:12584  amountToken */\n      dup5\n        /* \"LuckyRedEnvelopeV2.sol\":12538:12553  _getSortRandoms */\n      tag_200\n        /* \"LuckyRedEnvelopeV2.sol\":12538:12585  _getSortRandoms(randomWord,drawNum,amountToken) */\n      jump\t// in\n    tag_199:\n        /* \"LuckyRedEnvelopeV2.sol\":12505:12585  uint256[] memory randomsAmount = _getSortRandoms(randomWord,drawNum,amountToken) */\n      swap1\n      pop\n        /* \"LuckyRedEnvelopeV2.sol\":12598:12640  _calculatePrize(_id,drawNum,randomsAmount) */\n      tag_201\n        /* \"LuckyRedEnvelopeV2.sol\":12614:12617  _id */\n      dup9\n        /* \"LuckyRedEnvelopeV2.sol\":12618:12625  drawNum */\n      dup6\n        /* \"LuckyRedEnvelopeV2.sol\":12626:12639  randomsAmount */\n      dup4\n        /* \"LuckyRedEnvelopeV2.sol\":12598:12613  _calculatePrize */\n      tag_202\n        /* \"LuckyRedEnvelopeV2.sol\":12598:12640  _calculatePrize(_id,drawNum,randomsAmount) */\n      jump\t// in\n    tag_201:\n        /* \"LuckyRedEnvelopeV2.sol\":12703:12716  _redEnvelopes */\n      0x05\n        /* \"LuckyRedEnvelopeV2.sol\":12703:12721  _redEnvelopes[_id] */\n      0x00\n        /* \"LuckyRedEnvelopeV2.sol\":12717:12720  _id */\n      dup10\n        /* \"LuckyRedEnvelopeV2.sol\":12703:12721  _redEnvelopes[_id] */\n      dup2\n      mstore\n      0x20\n      add\n      swap1\n      dup2\n      mstore\n      0x20\n      add\n      0x00\n      keccak256\n        /* \"LuckyRedEnvelopeV2.sol\":12703:12731  _redEnvelopes[_id].autoClaim */\n      0x0d\n      add\n      0x00\n      swap1\n      sload\n      swap1\n      0x0100\n      exp\n      swap1\n      div\n      0xff\n      and\n        /* \"LuckyRedEnvelopeV2.sol\":12700:13144  if(_redEnvelopes[_id].autoClaim){... */\n      iszero\n      tag_203\n      jumpi\n        /* \"LuckyRedEnvelopeV2.sol\":12751:12760  uint256 i */\n      0x00\n        /* \"LuckyRedEnvelopeV2.sol\":12747:13133  for(uint256 i = 0;i < _redEnvelopes[_id].userAddrNum;i++){... */\n    tag_204:\n        /* \"LuckyRedEnvelopeV2.sol\":12769:12782  _redEnvelopes */\n      0x05\n        /* \"LuckyRedEnvelopeV2.sol\":12769:12787  _redEnvelopes[_id] */\n      0x00\n        /* \"LuckyRedEnvelopeV2.sol\":12783:12786  _id */\n      dup11\n        /* \"LuckyRedEnvelopeV2.sol\":12769:12787  _redEnvelopes[_id] */\n      dup2\n      mstore\n      0x20\n      add\n      swap1\n      dup2\n      mstore\n      0x20\n      add\n      0x00\n      keccak256\n        /* \"LuckyRedEnvelopeV2.sol\":12769:12799  _redEnvelopes[_id].userAddrNum */\n      0x08\n      add\n      sload\n        /* \"LuckyRedEnvelopeV2.sol\":12765:12766  i */\n      dup2\n        /* \"LuckyRedEnvelopeV2.sol\":12765:12799  i < _redEnvelopes[_id].userAddrNum */\n      lt\n        /* \"LuckyRedEnvelopeV2.sol\":12747:13133  for(uint256 i = 0;i < _redEnvelopes[_id].userAddrNum;i++){... */\n      iszero\n      tag_205\n      jumpi\n        /* \"LuckyRedEnvelopeV2.sol\":12874:12875  0 */\n      0x00\n        /* \"LuckyRedEnvelopeV2.sol\":12826:12841  _amount2claimed */\n      0x0a\n        /* \"LuckyRedEnvelopeV2.sol\":12826:12846  _amount2claimed[_id] */\n      0x00\n        /* \"LuckyRedEnvelopeV2.sol\":12842:12845  _id */\n      dup12\n        /* \"LuckyRedEnvelopeV2.sol\":12826:12846  _amount2claimed[_id] */\n      dup2\n      mstore\n      0x20\n      add\n      swap1\n      dup2\n      mstore\n      0x20\n      add\n      0x00\n      keccak256\n        /* \"LuckyRedEnvelopeV2.sol\":12826:12870  _amount2claimed[_id][_userAddrIndex[_id][i]] */\n      0x00\n        /* \"LuckyRedEnvelopeV2.sol\":12847:12861  _userAddrIndex */\n      0x09\n        /* \"LuckyRedEnvelopeV2.sol\":12847:12866  _userAddrIndex[_id] */\n      0x00\n        /* \"LuckyRedEnvelopeV2.sol\":12862:12865  _id */\n      dup14\n        /* \"LuckyRedEnvelopeV2.sol\":12847:12866  _userAddrIndex[_id] */\n      dup2\n      mstore\n      0x20\n      add\n      swap1\n      dup2\n      mstore\n      0x20\n      add\n      0x00\n      keccak256\n        /* \"LuckyRedEnvelopeV2.sol\":12847:12869  _userAddrIndex[_id][i] */\n      0x00\n        /* \"LuckyRedEnvelopeV2.sol\":12867:12868  i */\n      dup6\n        /* \"LuckyRedEnvelopeV2.sol\":12847:12869  _userAddrIndex[_id][i] */\n      dup2\n      mstore\n      0x20\n      add\n      swap1\n      dup2\n      mstore\n      0x20\n      add\n      0x00\n      keccak256\n      0x00\n      swap1\n      sload\n      swap1\n      0x0100\n      exp\n      swap1\n      div\n      0xffffffffffffffffffffffffffffffffffffffff\n      and\n        /* \"LuckyRedEnvelopeV2.sol\":12826:12870  _amount2claimed[_id][_userAddrIndex[_id][i]] */\n      0xffffffffffffffffffffffffffffffffffffffff\n      and\n      0xffffffffffffffffffffffffffffffffffffffff\n      and\n      dup2\n      mstore\n      0x20\n      add\n      swap1\n      dup2\n      mstore\n      0x20\n      add\n      0x00\n      keccak256\n      sload\n        /* \"LuckyRedEnvelopeV2.sol\":12826:12875  _amount2claimed[_id][_userAddrIndex[_id][i]] != 0 */\n      eq\n        /* \"LuckyRedEnvelopeV2.sol\":12823:12958  if(_amount2claimed[_id][_userAddrIndex[_id][i]] != 0){... */\n      tag_207\n      jumpi\n        /* \"LuckyRedEnvelopeV2.sol\":12899:12938  _claimPrize(_id,_userAddrIndex[_id][i]) */\n      tag_208\n        /* \"LuckyRedEnvelopeV2.sol\":12911:12914  _id */\n      dup10\n        /* \"LuckyRedEnvelopeV2.sol\":12915:12929  _userAddrIndex */\n      0x09\n        /* \"LuckyRedEnvelopeV2.sol\":12915:12934  _userAddrIndex[_id] */\n      0x00\n        /* \"LuckyRedEnvelopeV2.sol\":12930:12933  _id */\n      dup13\n        /* \"LuckyRedEnvelopeV2.sol\":12915:12934  _userAddrIndex[_id] */\n      dup2\n      mstore\n      0x20\n      add\n      swap1\n      dup2\n      mstore\n      0x20\n      add\n      0x00\n      keccak256\n        /* \"LuckyRedEnvelopeV2.sol\":12915:12937  _userAddrIndex[_id][i] */\n      0x00\n        /* \"LuckyRedEnvelopeV2.sol\":12935:12936  i */\n      dup5\n        /* \"LuckyRedEnvelopeV2.sol\":12915:12937  _userAddrIndex[_id][i] */\n      dup2\n      mstore\n      0x20\n      add\n      swap1\n      dup2\n      mstore\n      0x20\n      add\n      0x00\n      keccak256\n      0x00\n      swap1\n      sload\n      swap1\n      0x0100\n      exp\n      swap1\n      div\n      0xffffffffffffffffffffffffffffffffffffffff\n      and\n        /* \"LuckyRedEnvelopeV2.sol\":12899:12910  _claimPrize */\n      tag_209\n        /* \"LuckyRedEnvelopeV2.sol\":12899:12938  _claimPrize(_id,_userAddrIndex[_id][i]) */\n      jump\t// in\n    tag_208:\n        /* \"LuckyRedEnvelopeV2.sol\":12823:12958  if(_amount2claimed[_id][_userAddrIndex[_id][i]] != 0){... */\n    tag_207:\n        /* \"LuckyRedEnvelopeV2.sol\":12983:13001  _userAddrTicketNum */\n      0x08\n        /* \"LuckyRedEnvelopeV2.sol\":12983:13006  _userAddrTicketNum[_id] */\n      0x00\n        /* \"LuckyRedEnvelopeV2.sol\":13002:13005  _id */\n      dup11\n        /* \"LuckyRedEnvelopeV2.sol\":12983:13006  _userAddrTicketNum[_id] */\n      dup2\n      mstore\n      0x20\n      add\n      swap1\n      dup2\n      mstore\n      0x20\n      add\n      0x00\n      keccak256\n        /* \"LuckyRedEnvelopeV2.sol\":12983:13030  _userAddrTicketNum[_id][_userAddrIndex[_id][i]] */\n      0x00\n        /* \"LuckyRedEnvelopeV2.sol\":13007:13021  _userAddrIndex */\n      0x09\n        /* \"LuckyRedEnvelopeV2.sol\":13007:13026  _userAddrIndex[_id] */\n      0x00\n        /* \"LuckyRedEnvelopeV2.sol\":13022:13025  _id */\n      dup13\n        /* \"LuckyRedEnvelopeV2.sol\":13007:13026  _userAddrIndex[_id] */\n      dup2\n      mstore\n      0x20\n      add\n      swap1\n      dup2\n      mstore\n      0x20\n      add\n      0x00\n      keccak256\n        /* \"LuckyRedEnvelopeV2.sol\":13007:13029  _userAddrIndex[_id][i] */\n      0x00\n        /* \"LuckyRedEnvelopeV2.sol\":13027:13028  i */\n      dup5\n        /* \"LuckyRedEnvelopeV2.sol\":13007:13029  _userAddrIndex[_id][i] */\n      dup2\n      mstore\n      0x20\n      add\n      swap1\n      dup2\n      mstore\n      0x20\n      add\n      0x00\n      keccak256\n      0x00\n      swap1\n      sload\n      swap1\n      0x0100\n      exp\n      swap1\n      div\n      0xffffffffffffffffffffffffffffffffffffffff\n      and\n        /* \"LuckyRedEnvelopeV2.sol\":12983:13030  _userAddrTicketNum[_id][_userAddrIndex[_id][i]] */\n      0xffffffffffffffffffffffffffffffffffffffff\n      and\n      0xffffffffffffffffffffffffffffffffffffffff\n      and\n      dup2\n      mstore\n      0x20\n      add\n      swap1\n      dup2\n      mstore\n      0x20\n      add\n      0x00\n      keccak256\n        /* \"LuckyRedEnvelopeV2.sol\":12976:13030  delete _userAddrTicketNum[_id][_userAddrIndex[_id][i]] */\n      0x00\n      swap1\n      sstore\n        /* \"LuckyRedEnvelopeV2.sol\":13056:13070  _userAddrIndex */\n      0x09\n        /* \"LuckyRedEnvelopeV2.sol\":13056:13075  _userAddrIndex[_id] */\n      0x00\n        /* \"LuckyRedEnvelopeV2.sol\":13071:13074  _id */\n      dup11\n        /* \"LuckyRedEnvelopeV2.sol\":13056:13075  _userAddrIndex[_id] */\n      dup2\n      mstore\n      0x20\n      add\n      swap1\n      dup2\n      mstore\n      0x20\n      add\n      0x00\n      keccak256\n        /* \"LuckyRedEnvelopeV2.sol\":13056:13078  _userAddrIndex[_id][i] */\n      0x00\n        /* \"LuckyRedEnvelopeV2.sol\":13076:13077  i */\n      dup3\n        /* \"LuckyRedEnvelopeV2.sol\":13056:13078  _userAddrIndex[_id][i] */\n      dup2\n      mstore\n      0x20\n      add\n      swap1\n      dup2\n      mstore\n      0x20\n      add\n      0x00\n      keccak256\n      0x00\n        /* \"LuckyRedEnvelopeV2.sol\":13049:13078  delete _userAddrIndex[_id][i] */\n      0x0100\n      exp\n      dup2\n      sload\n      swap1\n      0xffffffffffffffffffffffffffffffffffffffff\n      mul\n      not\n      and\n      swap1\n      sstore\n        /* \"LuckyRedEnvelopeV2.sol\":13097:13117  _removeEnvelope(_id) */\n      tag_210\n        /* \"LuckyRedEnvelopeV2.sol\":13113:13116  _id */\n      dup10\n        /* \"LuckyRedEnvelopeV2.sol\":13097:13112  _removeEnvelope */\n      tag_194\n        /* \"LuckyRedEnvelopeV2.sol\":13097:13117  _removeEnvelope(_id) */\n      jump\t// in\n    tag_210:\n        /* \"LuckyRedEnvelopeV2.sol\":12800:12803  i++ */\n      dup1\n      dup1\n      tag_211\n      swap1\n      tag_163\n      jump\t// in\n    tag_211:\n      swap2\n      pop\n      pop\n        /* \"LuckyRedEnvelopeV2.sol\":12747:13133  for(uint256 i = 0;i < _redEnvelopes[_id].userAddrNum;i++){... */\n      jump(tag_204)\n    tag_205:\n      pop\n        /* \"LuckyRedEnvelopeV2.sol\":12700:13144  if(_redEnvelopes[_id].autoClaim){... */\n    tag_203:\n        /* \"LuckyRedEnvelopeV2.sol\":11582:13184  {... */\n      pop\n      pop\n      pop\n      pop\n      pop\n      pop\n        /* \"@openzeppelin/contracts/security/ReentrancyGuard.sol\":2292:2293  _ */\n    tag_178:\n        /* \"@openzeppelin/contracts/security/ReentrancyGuard.sol\":2303:2323  _nonReentrantAfter() */\n      tag_212\n        /* \"@openzeppelin/contracts/security/ReentrancyGuard.sol\":2303:2321  _nonReentrantAfter */\n      tag_103\n        /* \"@openzeppelin/contracts/security/ReentrancyGuard.sol\":2303:2323  _nonReentrantAfter() */\n      jump\t// in\n    tag_212:\n        /* \"LuckyRedEnvelopeV2.sol\":11476:13184  function drawPrize(... */\n      pop\n      pop\n      jump\t// out\n        /* \"LuckyRedEnvelopeV2.sol\":9007:10127  function buyTickets(... */\n    tag_63:\n        /* \"@openzeppelin/contracts/security/ReentrancyGuard.sol\":2261:2282  _nonReentrantBefore() */\n      tag_214\n        /* \"@openzeppelin/contracts/security/ReentrancyGuard.sol\":2261:2280  _nonReentrantBefore */\n      tag_88\n        /* \"@openzeppelin/contracts/security/ReentrancyGuard.sol\":2261:2282  _nonReentrantBefore() */\n      jump\t// in\n    tag_214:\n        /* \"LuckyRedEnvelopeV2.sol\":9191:9202  Status.Open */\n      0x01\n        /* \"LuckyRedEnvelopeV2.sol\":9162:9202  _redEnvelopes[_id].status == Status.Open */\n      0x03\n      dup2\n      gt\n      iszero\n      tag_216\n      jumpi\n      tag_217\n      tag_92\n      jump\t// in\n    tag_217:\n    tag_216:\n        /* \"LuckyRedEnvelopeV2.sol\":9162:9175  _redEnvelopes */\n      0x05\n        /* \"LuckyRedEnvelopeV2.sol\":9162:9180  _redEnvelopes[_id] */\n      0x00\n        /* \"LuckyRedEnvelopeV2.sol\":9176:9179  _id */\n      dup6\n        /* \"LuckyRedEnvelopeV2.sol\":9162:9180  _redEnvelopes[_id] */\n      dup2\n      mstore\n      0x20\n      add\n      swap1\n      dup2\n      mstore\n      0x20\n      add\n      0x00\n      keccak256\n        /* \"LuckyRedEnvelopeV2.sol\":9162:9187  _redEnvelopes[_id].status */\n      0x00\n      add\n      0x14\n      swap1\n      sload\n      swap1\n      0x0100\n      exp\n      swap1\n      div\n      0xff\n      and\n        /* \"LuckyRedEnvelopeV2.sol\":9162:9202  _redEnvelopes[_id].status == Status.Open */\n      0x03\n      dup2\n      gt\n      iszero\n      tag_218\n      jumpi\n      tag_219\n      tag_92\n      jump\t// in\n    tag_219:\n    tag_218:\n      eq\n        /* \"LuckyRedEnvelopeV2.sol\":9154:9230  require(_redEnvelopes[_id].status == Status.Open, \"RedEnvelope is not open\") */\n      tag_220\n      jumpi\n      mload(0x40)\n      0x08c379a000000000000000000000000000000000000000000000000000000000\n      dup2\n      mstore\n      0x04\n      add\n      tag_221\n      swap1\n      tag_97\n      jump\t// in\n    tag_221:\n      mload(0x40)\n      dup1\n      swap2\n      sub\n      swap1\n      revert\n    tag_220:\n        /* \"LuckyRedEnvelopeV2.sol\":9267:9268  0 */\n      0x00\n        /* \"LuckyRedEnvelopeV2.sol\":9249:9263  _ticketNumbers */\n      dup2\n        /* \"LuckyRedEnvelopeV2.sol\":9249:9268  _ticketNumbers != 0 */\n      sub\n        /* \"LuckyRedEnvelopeV2.sol\":9241:9294  require(_ticketNumbers != 0 ,\"ticketNumbers no zero\") */\n      tag_222\n      jumpi\n      mload(0x40)\n      0x08c379a000000000000000000000000000000000000000000000000000000000\n      dup2\n      mstore\n      0x04\n      add\n      tag_223\n      swap1\n      tag_224\n      jump\t// in\n    tag_223:\n      mload(0x40)\n      dup1\n      swap2\n      sub\n      swap1\n      revert\n    tag_222:\n        /* \"LuckyRedEnvelopeV2.sol\":9339:9340  0 */\n      0x00\n        /* \"LuckyRedEnvelopeV2.sol\":9309:9322  _redEnvelopes */\n      0x05\n        /* \"LuckyRedEnvelopeV2.sol\":9309:9327  _redEnvelopes[_id] */\n      0x00\n        /* \"LuckyRedEnvelopeV2.sol\":9323:9326  _id */\n      dup6\n        /* \"LuckyRedEnvelopeV2.sol\":9309:9327  _redEnvelopes[_id] */\n      dup2\n      mstore\n      0x20\n      add\n      swap1\n      dup2\n      mstore\n      0x20\n      add\n      0x00\n      keccak256\n        /* \"LuckyRedEnvelopeV2.sol\":9309:9335  _redEnvelopes[_id].endTime */\n      0x02\n      add\n      sload\n        /* \"LuckyRedEnvelopeV2.sol\":9309:9340  _redEnvelopes[_id].endTime != 0 */\n      eq\n        /* \"LuckyRedEnvelopeV2.sol\":9305:9449  if (_redEnvelopes[_id].endTime != 0){... */\n      tag_225\n      jumpi\n        /* \"LuckyRedEnvelopeV2.sol\":9382:9395  _redEnvelopes */\n      0x05\n        /* \"LuckyRedEnvelopeV2.sol\":9382:9400  _redEnvelopes[_id] */\n      0x00\n        /* \"LuckyRedEnvelopeV2.sol\":9396:9399  _id */\n      dup5\n        /* \"LuckyRedEnvelopeV2.sol\":9382:9400  _redEnvelopes[_id] */\n      dup2\n      mstore\n      0x20\n      add\n      swap1\n      dup2\n      mstore\n      0x20\n      add\n      0x00\n      keccak256\n        /* \"LuckyRedEnvelopeV2.sol\":9382:9408  _redEnvelopes[_id].endTime */\n      0x02\n      add\n      sload\n        /* \"LuckyRedEnvelopeV2.sol\":9364:9379  block.timestamp */\n      timestamp\n        /* \"LuckyRedEnvelopeV2.sol\":9364:9408  block.timestamp < _redEnvelopes[_id].endTime */\n      lt\n        /* \"LuckyRedEnvelopeV2.sol\":9356:9437  require(block.timestamp < _redEnvelopes[_id].endTime, \"RedEnvelope is over time\") */\n      tag_226\n      jumpi\n      mload(0x40)\n      0x08c379a000000000000000000000000000000000000000000000000000000000\n      dup2\n      mstore\n      0x04\n      add\n      tag_227\n      swap1\n      tag_119\n      jump\t// in\n    tag_227:\n      mload(0x40)\n      dup1\n      swap2\n      sub\n      swap1\n      revert\n    tag_226:\n        /* \"LuckyRedEnvelopeV2.sol\":9305:9449  if (_redEnvelopes[_id].endTime != 0){... */\n    tag_225:\n        /* \"LuckyRedEnvelopeV2.sol\":9496:9497  0 */\n      0x00\n        /* \"LuckyRedEnvelopeV2.sol\":9463:9476  _redEnvelopes */\n      0x05\n        /* \"LuckyRedEnvelopeV2.sol\":9463:9481  _redEnvelopes[_id] */\n      0x00\n        /* \"LuckyRedEnvelopeV2.sol\":9477:9480  _id */\n      dup6\n        /* \"LuckyRedEnvelopeV2.sol\":9463:9481  _redEnvelopes[_id] */\n      dup2\n      mstore\n      0x20\n      add\n      swap1\n      dup2\n      mstore\n      0x20\n      add\n      0x00\n      keccak256\n        /* \"LuckyRedEnvelopeV2.sol\":9463:9492  _redEnvelopes[_id].maxTickets */\n      0x03\n      add\n      sload\n        /* \"LuckyRedEnvelopeV2.sol\":9463:9497  _redEnvelopes[_id].maxTickets != 0 */\n      eq\n        /* \"LuckyRedEnvelopeV2.sol\":9459:9643  if (_redEnvelopes[_id].maxTickets != 0){... */\n      tag_228\n      jumpi\n        /* \"LuckyRedEnvelopeV2.sol\":9571:9584  _redEnvelopes */\n      0x05\n        /* \"LuckyRedEnvelopeV2.sol\":9571:9589  _redEnvelopes[_id] */\n      0x00\n        /* \"LuckyRedEnvelopeV2.sol\":9585:9588  _id */\n      dup5\n        /* \"LuckyRedEnvelopeV2.sol\":9571:9589  _redEnvelopes[_id] */\n      dup2\n      mstore\n      0x20\n      add\n      swap1\n      dup2\n      mstore\n      0x20\n      add\n      0x00\n      keccak256\n        /* \"LuckyRedEnvelopeV2.sol\":9571:9600  _redEnvelopes[_id].maxTickets */\n      0x03\n      add\n      sload\n        /* \"LuckyRedEnvelopeV2.sol\":9553:9567  _ticketNumbers */\n      dup2\n        /* \"LuckyRedEnvelopeV2.sol\":9521:9534  _redEnvelopes */\n      0x05\n        /* \"LuckyRedEnvelopeV2.sol\":9521:9539  _redEnvelopes[_id] */\n      0x00\n        /* \"LuckyRedEnvelopeV2.sol\":9535:9538  _id */\n      dup7\n        /* \"LuckyRedEnvelopeV2.sol\":9521:9539  _redEnvelopes[_id] */\n      dup2\n      mstore\n      0x20\n      add\n      swap1\n      dup2\n      mstore\n      0x20\n      add\n      0x00\n      keccak256\n        /* \"LuckyRedEnvelopeV2.sol\":9521:9550  _redEnvelopes[_id].buyTickets */\n      0x05\n      add\n      sload\n        /* \"LuckyRedEnvelopeV2.sol\":9521:9567  _redEnvelopes[_id].buyTickets + _ticketNumbers */\n      tag_229\n      swap2\n      swap1\n      tag_122\n      jump\t// in\n    tag_229:\n        /* \"LuckyRedEnvelopeV2.sol\":9521:9600  _redEnvelopes[_id].buyTickets + _ticketNumbers <= _redEnvelopes[_id].maxTickets */\n      gt\n      iszero\n        /* \"LuckyRedEnvelopeV2.sol\":9513:9631  require(_redEnvelopes[_id].buyTickets + _ticketNumbers <= _redEnvelopes[_id].maxTickets, \"RedEnvelope is over ticket\") */\n      tag_230\n      jumpi\n      mload(0x40)\n      0x08c379a000000000000000000000000000000000000000000000000000000000\n      dup2\n      mstore\n      0x04\n      add\n      tag_231\n      swap1\n      tag_125\n      jump\t// in\n    tag_231:\n      mload(0x40)\n      dup1\n      swap2\n      sub\n      swap1\n      revert\n    tag_230:\n        /* \"LuckyRedEnvelopeV2.sol\":9459:9643  if (_redEnvelopes[_id].maxTickets != 0){... */\n    tag_228:\n        /* \"LuckyRedEnvelopeV2.sol\":9710:9739  uint256 amountTokenToTransfer */\n      0x00\n        /* \"LuckyRedEnvelopeV2.sol\":9775:9789  _ticketNumbers */\n      dup2\n        /* \"LuckyRedEnvelopeV2.sol\":9742:9755  _redEnvelopes */\n      0x05\n        /* \"LuckyRedEnvelopeV2.sol\":9742:9760  _redEnvelopes[_id] */\n      0x00\n        /* \"LuckyRedEnvelopeV2.sol\":9756:9759  _id */\n      dup7\n        /* \"LuckyRedEnvelopeV2.sol\":9742:9760  _redEnvelopes[_id] */\n      dup2\n      mstore\n      0x20\n      add\n      swap1\n      dup2\n      mstore\n      0x20\n      add\n      0x00\n      keccak256\n        /* \"LuckyRedEnvelopeV2.sol\":9742:9772  _redEnvelopes[_id].ticketPirce */\n      0x0b\n      add\n      sload\n        /* \"LuckyRedEnvelopeV2.sol\":9742:9789  _redEnvelopes[_id].ticketPirce * _ticketNumbers */\n      tag_232\n      swap2\n      swap1\n      tag_198\n      jump\t// in\n    tag_232:\n        /* \"LuckyRedEnvelopeV2.sol\":9710:9789  uint256 amountTokenToTransfer = _redEnvelopes[_id].ticketPirce * _ticketNumbers */\n      swap1\n      pop\n        /* \"LuckyRedEnvelopeV2.sol\":9852:9966  IERC20(_redEnvelopes[_id].ticketToken).safeTransferFrom(address(msg.sender), address(this), amountTokenToTransfer) */\n      tag_233\n        /* \"LuckyRedEnvelopeV2.sol\":9916:9926  msg.sender */\n      caller\n        /* \"LuckyRedEnvelopeV2.sol\":9937:9941  this */\n      address\n        /* \"LuckyRedEnvelopeV2.sol\":9944:9965  amountTokenToTransfer */\n      dup4\n        /* \"LuckyRedEnvelopeV2.sol\":9859:9872  _redEnvelopes */\n      0x05\n        /* \"LuckyRedEnvelopeV2.sol\":9859:9877  _redEnvelopes[_id] */\n      0x00\n        /* \"LuckyRedEnvelopeV2.sol\":9873:9876  _id */\n      dup10\n        /* \"LuckyRedEnvelopeV2.sol\":9859:9877  _redEnvelopes[_id] */\n      dup2\n      mstore\n      0x20\n      add\n      swap1\n      dup2\n      mstore\n      0x20\n      add\n      0x00\n      keccak256\n        /* \"LuckyRedEnvelopeV2.sol\":9859:9889  _redEnvelopes[_id].ticketToken */\n      0x00\n      add\n      0x00\n      swap1\n      sload\n      swap1\n      0x0100\n      exp\n      swap1\n      div\n      0xffffffffffffffffffffffffffffffffffffffff\n      and\n        /* \"LuckyRedEnvelopeV2.sol\":9852:9907  IERC20(_redEnvelopes[_id].ticketToken).safeTransferFrom */\n      0xffffffffffffffffffffffffffffffffffffffff\n      and\n      tag_234\n      swap1\n        /* \"LuckyRedEnvelopeV2.sol\":9852:9966  IERC20(_redEnvelopes[_id].ticketToken).safeTransferFrom(address(msg.sender), address(this), amountTokenToTransfer) */\n      swap4\n      swap3\n      swap2\n      swap1\n      0xffffffff\n      and\n      jump\t// in\n    tag_233:\n        /* \"LuckyRedEnvelopeV2.sol\":9979:10030  _getTicket(_id,_receiveAddress,_ticketNumbers,true) */\n      tag_235\n        /* \"LuckyRedEnvelopeV2.sol\":9990:9993  _id */\n      dup5\n        /* \"LuckyRedEnvelopeV2.sol\":9994:10009  _receiveAddress */\n      dup5\n        /* \"LuckyRedEnvelopeV2.sol\":10010:10024  _ticketNumbers */\n      dup5\n        /* \"LuckyRedEnvelopeV2.sol\":10025:10029  true */\n      0x01\n        /* \"LuckyRedEnvelopeV2.sol\":9979:9989  _getTicket */\n      tag_127\n        /* \"LuckyRedEnvelopeV2.sol\":9979:10030  _getTicket(_id,_receiveAddress,_ticketNumbers,true) */\n      jump\t// in\n    tag_235:\n        /* \"LuckyRedEnvelopeV2.sol\":10088:10103  _receiveAddress */\n      dup3\n        /* \"LuckyRedEnvelopeV2.sol\":10048:10119  TicketsPurchase(_id,address(msg.sender),_receiveAddress,_ticketNumbers) */\n      0xffffffffffffffffffffffffffffffffffffffff\n      and\n        /* \"LuckyRedEnvelopeV2.sol\":10076:10086  msg.sender */\n      caller\n        /* \"LuckyRedEnvelopeV2.sol\":10048:10119  TicketsPurchase(_id,address(msg.sender),_receiveAddress,_ticketNumbers) */\n      0xffffffffffffffffffffffffffffffffffffffff\n      and\n        /* \"LuckyRedEnvelopeV2.sol\":10064:10067  _id */\n      dup6\n        /* \"LuckyRedEnvelopeV2.sol\":10048:10119  TicketsPurchase(_id,address(msg.sender),_receiveAddress,_ticketNumbers) */\n      0xc711bfbe9284c7d96adbb9ebad39767e13c00b6b5cd4ca300fec0d969309a407\n        /* \"LuckyRedEnvelopeV2.sol\":10104:10118  _ticketNumbers */\n      dup6\n        /* \"LuckyRedEnvelopeV2.sol\":10048:10119  TicketsPurchase(_id,address(msg.sender),_receiveAddress,_ticketNumbers) */\n      mload(0x40)\n      tag_236\n      swap2\n      swap1\n      tag_74\n      jump\t// in\n    tag_236:\n      mload(0x40)\n      dup1\n      swap2\n      sub\n      swap1\n      log4\n        /* \"LuckyRedEnvelopeV2.sol\":9143:10127  {... */\n      pop\n        /* \"@openzeppelin/contracts/security/ReentrancyGuard.sol\":2303:2323  _nonReentrantAfter() */\n      tag_237\n        /* \"@openzeppelin/contracts/security/ReentrancyGuard.sol\":2303:2321  _nonReentrantAfter */\n      tag_103\n        /* \"@openzeppelin/contracts/security/ReentrancyGuard.sol\":2303:2323  _nonReentrantAfter() */\n      jump\t// in\n    tag_237:\n        /* \"LuckyRedEnvelopeV2.sol\":9007:10127  function buyTickets(... */\n      pop\n      pop\n      pop\n      jump\t// out\n        /* \"LuckyRedEnvelopeV2.sol\":15647:15932  function claimPrize(uint256 _id)external nonReentrant{... */\n    tag_66:\n        /* \"@openzeppelin/contracts/security/ReentrancyGuard.sol\":2261:2282  _nonReentrantBefore() */\n      tag_239\n        /* \"@openzeppelin/contracts/security/ReentrancyGuard.sol\":2261:2280  _nonReentrantBefore */\n      tag_88\n        /* \"@openzeppelin/contracts/security/ReentrancyGuard.sol\":2261:2282  _nonReentrantBefore() */\n      jump\t// in\n    tag_239:\n        /* \"LuckyRedEnvelopeV2.sol\":15748:15764  Status.Claimable */\n      0x03\n        /* \"LuckyRedEnvelopeV2.sol\":15719:15764  _redEnvelopes[_id].status == Status.Claimable */\n      dup1\n      dup2\n      gt\n      iszero\n      tag_241\n      jumpi\n      tag_242\n      tag_92\n      jump\t// in\n    tag_242:\n    tag_241:\n        /* \"LuckyRedEnvelopeV2.sol\":15719:15732  _redEnvelopes */\n      0x05\n        /* \"LuckyRedEnvelopeV2.sol\":15719:15737  _redEnvelopes[_id] */\n      0x00\n        /* \"LuckyRedEnvelopeV2.sol\":15733:15736  _id */\n      dup4\n        /* \"LuckyRedEnvelopeV2.sol\":15719:15737  _redEnvelopes[_id] */\n      dup2\n      mstore\n      0x20\n      add\n      swap1\n      dup2\n      mstore\n      0x20\n      add\n      0x00\n      keccak256\n        /* \"LuckyRedEnvelopeV2.sol\":15719:15744  _redEnvelopes[_id].status */\n      0x00\n      add\n      0x14\n      swap1\n      sload\n      swap1\n      0x0100\n      exp\n      swap1\n      div\n      0xff\n      and\n        /* \"LuckyRedEnvelopeV2.sol\":15719:15764  _redEnvelopes[_id].status == Status.Claimable */\n      0x03\n      dup2\n      gt\n      iszero\n      tag_243\n      jumpi\n      tag_244\n      tag_92\n      jump\t// in\n    tag_244:\n    tag_243:\n      eq\n        /* \"LuckyRedEnvelopeV2.sol\":15711:15794  require(_redEnvelopes[_id].status == Status.Claimable, \"RedEnvelope not claimable\") */\n      tag_245\n      jumpi\n      mload(0x40)\n      0x08c379a000000000000000000000000000000000000000000000000000000000\n      dup2\n      mstore\n      0x04\n      add\n      tag_246\n      swap1\n      tag_247\n      jump\t// in\n    tag_246:\n      mload(0x40)\n      dup1\n      swap2\n      sub\n      swap1\n      revert\n    tag_245:\n        /* \"LuckyRedEnvelopeV2.sol\":15845:15850  false */\n      0x00\n        /* \"LuckyRedEnvelopeV2.sol\":15813:15850  _redEnvelopes[_id].autoClaim == false */\n      iszero\n      iszero\n        /* \"LuckyRedEnvelopeV2.sol\":15813:15826  _redEnvelopes */\n      0x05\n        /* \"LuckyRedEnvelopeV2.sol\":15813:15831  _redEnvelopes[_id] */\n      0x00\n        /* \"LuckyRedEnvelopeV2.sol\":15827:15830  _id */\n      dup4\n        /* \"LuckyRedEnvelopeV2.sol\":15813:15831  _redEnvelopes[_id] */\n      dup2\n      mstore\n      0x20\n      add\n      swap1\n      dup2\n      mstore\n      0x20\n      add\n      0x00\n      keccak256\n        /* \"LuckyRedEnvelopeV2.sol\":15813:15841  _redEnvelopes[_id].autoClaim */\n      0x0d\n      add\n      0x00\n      swap1\n      sload\n      swap1\n      0x0100\n      exp\n      swap1\n      div\n      0xff\n      and\n        /* \"LuckyRedEnvelopeV2.sol\":15813:15850  _redEnvelopes[_id].autoClaim == false */\n      iszero\n      iszero\n      eq\n        /* \"LuckyRedEnvelopeV2.sol\":15805:15877  require(_redEnvelopes[_id].autoClaim == false, \"RedEnvelope auto claim\") */\n      tag_248\n      jumpi\n      mload(0x40)\n      0x08c379a000000000000000000000000000000000000000000000000000000000\n      dup2\n      mstore\n      0x04\n      add\n      tag_249\n      swap1\n      tag_250\n      jump\t// in\n    tag_249:\n      mload(0x40)\n      dup1\n      swap2\n      sub\n      swap1\n      revert\n    tag_248:\n        /* \"LuckyRedEnvelopeV2.sol\":15888:15924  _claimPrize(_id,address(msg.sender)) */\n      tag_251\n        /* \"LuckyRedEnvelopeV2.sol\":15900:15903  _id */\n      dup2\n        /* \"LuckyRedEnvelopeV2.sol\":15912:15922  msg.sender */\n      caller\n        /* \"LuckyRedEnvelopeV2.sol\":15888:15899  _claimPrize */\n      tag_209\n        /* \"LuckyRedEnvelopeV2.sol\":15888:15924  _claimPrize(_id,address(msg.sender)) */\n      jump\t// in\n    tag_251:\n        /* \"@openzeppelin/contracts/security/ReentrancyGuard.sol\":2303:2323  _nonReentrantAfter() */\n      tag_252\n        /* \"@openzeppelin/contracts/security/ReentrancyGuard.sol\":2303:2321  _nonReentrantAfter */\n      tag_103\n        /* \"@openzeppelin/contracts/security/ReentrancyGuard.sol\":2303:2323  _nonReentrantAfter() */\n      jump\t// in\n    tag_252:\n        /* \"LuckyRedEnvelopeV2.sol\":15647:15932  function claimPrize(uint256 _id)external nonReentrant{... */\n      pop\n      jump\t// out\n        /* \"LuckyRedEnvelopeV2.sol\":3597:3899  function setOperatorAddress(... */\n    tag_70:\n        /* \"@openzeppelin/contracts/access/Ownable.sol\":1531:1544  _checkOwner() */\n      tag_254\n        /* \"@openzeppelin/contracts/access/Ownable.sol\":1531:1542  _checkOwner */\n      tag_151\n        /* \"@openzeppelin/contracts/access/Ownable.sol\":1531:1544  _checkOwner() */\n      jump\t// in\n    tag_254:\n        /* \"LuckyRedEnvelopeV2.sol\":3751:3752  0 */\n      0x00\n        /* \"LuckyRedEnvelopeV2.sol\":3723:3753  _operatorAddress != address(0) */\n      0xffffffffffffffffffffffffffffffffffffffff\n      and\n        /* \"LuckyRedEnvelopeV2.sol\":3723:3739  _operatorAddress */\n      dup3\n        /* \"LuckyRedEnvelopeV2.sol\":3723:3753  _operatorAddress != address(0) */\n      0xffffffffffffffffffffffffffffffffffffffff\n      and\n      sub\n        /* \"LuckyRedEnvelopeV2.sol\":3715:3780  require(_operatorAddress != address(0), \"Cannot be zero address\") */\n      tag_256\n      jumpi\n      mload(0x40)\n      0x08c379a000000000000000000000000000000000000000000000000000000000\n      dup2\n      mstore\n      0x04\n      add\n      tag_257\n      swap1\n      tag_258\n      jump\t// in\n    tag_257:\n      mload(0x40)\n      dup1\n      swap2\n      sub\n      swap1\n      revert\n    tag_256:\n        /* \"LuckyRedEnvelopeV2.sol\":3831:3835  _opt */\n      dup1\n        /* \"LuckyRedEnvelopeV2.sol\":3791:3810  operatorAddressList */\n      0x02\n        /* \"LuckyRedEnvelopeV2.sol\":3791:3828  operatorAddressList[_operatorAddress] */\n      0x00\n        /* \"LuckyRedEnvelopeV2.sol\":3811:3827  _operatorAddress */\n      dup5\n        /* \"LuckyRedEnvelopeV2.sol\":3791:3828  operatorAddressList[_operatorAddress] */\n      0xffffffffffffffffffffffffffffffffffffffff\n      and\n      0xffffffffffffffffffffffffffffffffffffffff\n      and\n      dup2\n      mstore\n      0x20\n      add\n      swap1\n      dup2\n      mstore\n      0x20\n      add\n      0x00\n      keccak256\n      0x00\n        /* \"LuckyRedEnvelopeV2.sol\":3791:3835  operatorAddressList[_operatorAddress] = _opt */\n      0x0100\n      exp\n      dup2\n      sload\n      dup2\n      0xff\n      mul\n      not\n      and\n      swap1\n      dup4\n      iszero\n      iszero\n      mul\n      or\n      swap1\n      sstore\n      pop\n        /* \"LuckyRedEnvelopeV2.sol\":3853:3891  OperatorAddress(_operatorAddress,_opt) */\n      0xedae46487653623e513ea3b3341c9e6b457a2ef687d0342d2507ccb63458b19f\n        /* \"LuckyRedEnvelopeV2.sol\":3869:3885  _operatorAddress */\n      dup3\n        /* \"LuckyRedEnvelopeV2.sol\":3886:3890  _opt */\n      dup3\n        /* \"LuckyRedEnvelopeV2.sol\":3853:3891  OperatorAddress(_operatorAddress,_opt) */\n      mload(0x40)\n      tag_259\n      swap3\n      swap2\n      swap1\n      tag_260\n      jump\t// in\n    tag_259:\n      mload(0x40)\n      dup1\n      swap2\n      sub\n      swap1\n      log1\n        /* \"LuckyRedEnvelopeV2.sol\":3597:3899  function setOperatorAddress(... */\n      pop\n      pop\n      jump\t// out\n        /* \"LuckyRedEnvelopeV2.sol\":466:490  uint256 public currentId */\n    tag_72:\n      sload(0x03)\n      dup2\n      jump\t// out\n        /* \"@openzeppelin/contracts/access/Ownable.sol\":2543:2758  function transferOwnership(address newOwner) public virtual onlyOwner {... */\n    tag_77:\n        /* \"@openzeppelin/contracts/access/Ownable.sol\":1531:1544  _checkOwner() */\n      tag_262\n        /* \"@openzeppelin/contracts/access/Ownable.sol\":1531:1542  _checkOwner */\n      tag_151\n        /* \"@openzeppelin/contracts/access/Ownable.sol\":1531:1544  _checkOwner() */\n      jump\t// in\n    tag_262:\n        /* \"@openzeppelin/contracts/access/Ownable.sol\":2647:2648  0 */\n      0x00\n        /* \"@openzeppelin/contracts/access/Ownable.sol\":2627:2649  newOwner == address(0) */\n      0xffffffffffffffffffffffffffffffffffffffff\n      and\n        /* \"@openzeppelin/contracts/access/Ownable.sol\":2627:2635  newOwner */\n      dup2\n        /* \"@openzeppelin/contracts/access/Ownable.sol\":2627:2649  newOwner == address(0) */\n      0xffffffffffffffffffffffffffffffffffffffff\n      and\n      sub\n        /* \"@openzeppelin/contracts/access/Ownable.sol\":2623:2714  if (newOwner == address(0)) {... */\n      tag_264\n      jumpi\n        /* \"@openzeppelin/contracts/access/Ownable.sol\":2700:2701  0 */\n      0x00\n        /* \"@openzeppelin/contracts/access/Ownable.sol\":2672:2703  OwnableInvalidOwner(address(0)) */\n      mload(0x40)\n      0x1e4fbdf700000000000000000000000000000000000000000000000000000000\n      dup2\n      mstore\n      0x04\n      add\n      tag_265\n      swap2\n      swap1\n      tag_44\n      jump\t// in\n    tag_265:\n      mload(0x40)\n      dup1\n      swap2\n      sub\n      swap1\n      revert\n        /* \"@openzeppelin/contracts/access/Ownable.sol\":2623:2714  if (newOwner == address(0)) {... */\n    tag_264:\n        /* \"@openzeppelin/contracts/access/Ownable.sol\":2723:2751  _transferOwnership(newOwner) */\n      tag_266\n        /* \"@openzeppelin/contracts/access/Ownable.sol\":2742:2750  newOwner */\n      dup2\n        /* \"@openzeppelin/contracts/access/Ownable.sol\":2723:2741  _transferOwnership */\n      tag_154\n        /* \"@openzeppelin/contracts/access/Ownable.sol\":2723:2751  _transferOwnership(newOwner) */\n      jump\t// in\n    tag_266:\n        /* \"@openzeppelin/contracts/access/Ownable.sol\":2543:2758  function transferOwnership(address newOwner) public virtual onlyOwner {... */\n      pop\n      jump\t// out\n        /* \"LuckyRedEnvelopeV2.sol\":3907:4092  function setDefaultAutoClaim(bool _defaultAutoClaim) external onlyOperator{... */\n    tag_81:\n        /* \"LuckyRedEnvelopeV2.sol\":2002:2006  true */\n      0x01\n        /* \"LuckyRedEnvelopeV2.sol\":1967:2006  operatorAddressList[msg.sender] == true */\n      iszero\n      iszero\n        /* \"LuckyRedEnvelopeV2.sol\":1967:1986  operatorAddressList */\n      0x02\n        /* \"LuckyRedEnvelopeV2.sol\":1967:1998  operatorAddressList[msg.sender] */\n      0x00\n        /* \"LuckyRedEnvelopeV2.sol\":1987:1997  msg.sender */\n      caller\n        /* \"LuckyRedEnvelopeV2.sol\":1967:1998  operatorAddressList[msg.sender] */\n      0xffffffffffffffffffffffffffffffffffffffff\n      and\n      0xffffffffffffffffffffffffffffffffffffffff\n      and\n      dup2\n      mstore\n      0x20\n      add\n      swap1\n      dup2\n      mstore\n      0x20\n      add\n      0x00\n      keccak256\n      0x00\n      swap1\n      sload\n      swap1\n      0x0100\n      exp\n      swap1\n      div\n      0xff\n      and\n        /* \"LuckyRedEnvelopeV2.sol\":1967:2006  operatorAddressList[msg.sender] == true */\n      iszero\n      iszero\n      eq\n        /* \"LuckyRedEnvelopeV2.sol\":1959:2023  require(operatorAddressList[msg.sender] == true, \"Not operator\") */\n      tag_268\n      jumpi\n      mload(0x40)\n      0x08c379a000000000000000000000000000000000000000000000000000000000\n      dup2\n      mstore\n      0x04\n      add\n      tag_269\n      swap1\n      tag_85\n      jump\t// in\n    tag_269:\n      mload(0x40)\n      dup1\n      swap2\n      sub\n      swap1\n      revert\n    tag_268:\n        /* \"LuckyRedEnvelopeV2.sol\":4011:4028  _defaultAutoClaim */\n      dup1\n        /* \"LuckyRedEnvelopeV2.sol\":3992:4008  defaultAutoClaim */\n      0x04\n      0x00\n        /* \"LuckyRedEnvelopeV2.sol\":3992:4028  defaultAutoClaim = _defaultAutoClaim */\n      0x0100\n      exp\n      dup2\n      sload\n      dup2\n      0xff\n      mul\n      not\n      and\n      swap1\n      dup4\n      iszero\n      iszero\n      mul\n      or\n      swap1\n      sstore\n      pop\n        /* \"LuckyRedEnvelopeV2.sol\":4044:4084  DefaultAutoClaimChange(defaultAutoClaim) */\n      0x6fe9a4ab2e95e24b2be44989dc36a685149dfde9354d486a8da5cb4bbd01b010\n        /* \"LuckyRedEnvelopeV2.sol\":4067:4083  defaultAutoClaim */\n      0x04\n      0x00\n      swap1\n      sload\n      swap1\n      0x0100\n      exp\n      swap1\n      div\n      0xff\n      and\n        /* \"LuckyRedEnvelopeV2.sol\":4044:4084  DefaultAutoClaimChange(defaultAutoClaim) */\n      mload(0x40)\n      tag_271\n      swap2\n      swap1\n      tag_52\n      jump\t// in\n    tag_271:\n      mload(0x40)\n      dup1\n      swap2\n      sub\n      swap1\n      log1\n        /* \"LuckyRedEnvelopeV2.sol\":3907:4092  function setDefaultAutoClaim(bool _defaultAutoClaim) external onlyOperator{... */\n      pop\n      jump\t// out\n        /* \"@openzeppelin/contracts/security/ReentrancyGuard.sol\":2336:2623  function _nonReentrantBefore() private {... */\n    tag_88:\n        /* \"@openzeppelin/contracts/security/ReentrancyGuard.sol\":1759:1760  2 */\n      0x02\n        /* \"@openzeppelin/contracts/security/ReentrancyGuard.sol\":2468:2475  _status */\n      sload(0x00)\n        /* \"@openzeppelin/contracts/security/ReentrancyGuard.sol\":2468:2487  _status != _ENTERED */\n      sub\n        /* \"@openzeppelin/contracts/security/ReentrancyGuard.sol\":2460:2523  require(_status != _ENTERED, \"ReentrancyGuard: reentrant call\") */\n      tag_273\n      jumpi\n      mload(0x40)\n      0x08c379a000000000000000000000000000000000000000000000000000000000\n      dup2\n      mstore\n      0x04\n      add\n      tag_274\n      swap1\n      tag_275\n      jump\t// in\n    tag_274:\n      mload(0x40)\n      dup1\n      swap2\n      sub\n      swap1\n      revert\n    tag_273:\n        /* \"@openzeppelin/contracts/security/ReentrancyGuard.sol\":1759:1760  2 */\n      0x02\n        /* \"@openzeppelin/contracts/security/ReentrancyGuard.sol\":2598:2605  _status */\n      0x00\n        /* \"@openzeppelin/contracts/security/ReentrancyGuard.sol\":2598:2616  _status = _ENTERED */\n      dup2\n      swap1\n      sstore\n      pop\n        /* \"@openzeppelin/contracts/security/ReentrancyGuard.sol\":2336:2623  function _nonReentrantBefore() private {... */\n      jump\t// out\n        /* \"@openzeppelin/contracts/security/ReentrancyGuard.sol\":2629:2838  function _nonReentrantAfter() private {... */\n    tag_103:\n        /* \"@openzeppelin/contracts/security/ReentrancyGuard.sol\":1716:1717  1 */\n      0x01\n        /* \"@openzeppelin/contracts/security/ReentrancyGuard.sol\":2809:2816  _status */\n      0x00\n        /* \"@openzeppelin/contracts/security/ReentrancyGuard.sol\":2809:2831  _status = _NOT_ENTERED */\n      dup2\n      swap1\n      sstore\n      pop\n        /* \"@openzeppelin/contracts/security/ReentrancyGuard.sol\":2629:2838  function _nonReentrantAfter() private {... */\n      jump\t// out\n        /* \"LuckyRedEnvelopeV2.sol\":6849:8244  function _getTicket(uint256 _id,address _receiveAddress,uint256 _ticketNumbers,bool _buy)internal{... */\n    tag_127:\n        /* \"LuckyRedEnvelopeV2.sol\":7418:7582  Ticket({... */\n      mload(0x40)\n      dup1\n      0x60\n      add\n      0x40\n      mstore\n      dup1\n        /* \"LuckyRedEnvelopeV2.sol\":7463:7477  _ticketNumbers */\n      dup4\n        /* \"LuckyRedEnvelopeV2.sol\":7418:7582  Ticket({... */\n      dup2\n      mstore\n      0x20\n      add\n        /* \"LuckyRedEnvelopeV2.sol\":7516:7531  _receiveAddress */\n      dup5\n        /* \"LuckyRedEnvelopeV2.sol\":7418:7582  Ticket({... */\n      0xffffffffffffffffffffffffffffffffffffffff\n      and\n      dup2\n      mstore\n      0x20\n      add\n        /* \"LuckyRedEnvelopeV2.sol\":7558:7562  _buy */\n      dup3\n        /* \"LuckyRedEnvelopeV2.sol\":7418:7582  Ticket({... */\n      iszero\n      iszero\n      dup2\n      mstore\n      pop\n        /* \"LuckyRedEnvelopeV2.sol\":7372:7380  _tickets */\n      0x06\n        /* \"LuckyRedEnvelopeV2.sol\":7372:7385  _tickets[_id] */\n      0x00\n        /* \"LuckyRedEnvelopeV2.sol\":7381:7384  _id */\n      dup7\n        /* \"LuckyRedEnvelopeV2.sol\":7372:7385  _tickets[_id] */\n      dup2\n      mstore\n      0x20\n      add\n      swap1\n      dup2\n      mstore\n      0x20\n      add\n      0x00\n      keccak256\n        /* \"LuckyRedEnvelopeV2.sol\":7372:7415  _tickets[_id][_redEnvelopes[_id].userTxNum] */\n      0x00\n        /* \"LuckyRedEnvelopeV2.sol\":7386:7399  _redEnvelopes */\n      0x05\n        /* \"LuckyRedEnvelopeV2.sol\":7386:7404  _redEnvelopes[_id] */\n      0x00\n        /* \"LuckyRedEnvelopeV2.sol\":7400:7403  _id */\n      dup9\n        /* \"LuckyRedEnvelopeV2.sol\":7386:7404  _redEnvelopes[_id] */\n      dup2\n      mstore\n      0x20\n      add\n      swap1\n      dup2\n      mstore\n      0x20\n      add\n      0x00\n      keccak256\n        /* \"LuckyRedEnvelopeV2.sol\":7386:7414  _redEnvelopes[_id].userTxNum */\n      0x09\n      add\n      sload\n        /* \"LuckyRedEnvelopeV2.sol\":7372:7415  _tickets[_id][_redEnvelopes[_id].userTxNum] */\n      dup2\n      mstore\n      0x20\n      add\n      swap1\n      dup2\n      mstore\n      0x20\n      add\n      0x00\n      keccak256\n        /* \"LuckyRedEnvelopeV2.sol\":7372:7582  _tickets[_id][_redEnvelopes[_id].userTxNum] = Ticket({... */\n      0x00\n      dup3\n      add\n      mload\n      dup2\n      0x00\n      add\n      sstore\n      0x20\n      dup3\n      add\n      mload\n      dup2\n      0x01\n      add\n      exp(0x0100, 0x00)\n      dup2\n      sload\n      dup2\n      0xffffffffffffffffffffffffffffffffffffffff\n      mul\n      not\n      and\n      swap1\n      dup4\n      0xffffffffffffffffffffffffffffffffffffffff\n      and\n      mul\n      or\n      swap1\n      sstore\n      pop\n      0x40\n      dup3\n      add\n      mload\n      dup2\n      0x01\n      add\n      exp(0x0100, 0x14)\n      dup2\n      sload\n      dup2\n      0xff\n      mul\n      not\n      and\n      swap1\n      dup4\n      iszero\n      iszero\n      mul\n      or\n      swap1\n      sstore\n      pop\n      swap1\n      pop\n      pop\n        /* \"LuckyRedEnvelopeV2.sol\":7603:7607  _buy */\n      dup1\n        /* \"LuckyRedEnvelopeV2.sol\":7599:7838  if (_buy){... */\n      iszero\n      tag_278\n      jumpi\n        /* \"LuckyRedEnvelopeV2.sol\":7691:7705  _ticketNumbers */\n      dup2\n        /* \"LuckyRedEnvelopeV2.sol\":7659:7672  _redEnvelopes */\n      0x05\n        /* \"LuckyRedEnvelopeV2.sol\":7659:7677  _redEnvelopes[_id] */\n      0x00\n        /* \"LuckyRedEnvelopeV2.sol\":7673:7676  _id */\n      dup7\n        /* \"LuckyRedEnvelopeV2.sol\":7659:7677  _redEnvelopes[_id] */\n      dup2\n      mstore\n      0x20\n      add\n      swap1\n      dup2\n      mstore\n      0x20\n      add\n      0x00\n      keccak256\n        /* \"LuckyRedEnvelopeV2.sol\":7659:7688  _redEnvelopes[_id].buyTickets */\n      0x05\n      add\n      sload\n        /* \"LuckyRedEnvelopeV2.sol\":7659:7705  _redEnvelopes[_id].buyTickets + _ticketNumbers */\n      tag_279\n      swap2\n      swap1\n      tag_122\n      jump\t// in\n    tag_279:\n        /* \"LuckyRedEnvelopeV2.sol\":7627:7640  _redEnvelopes */\n      0x05\n        /* \"LuckyRedEnvelopeV2.sol\":7627:7645  _redEnvelopes[_id] */\n      0x00\n        /* \"LuckyRedEnvelopeV2.sol\":7641:7644  _id */\n      dup7\n        /* \"LuckyRedEnvelopeV2.sol\":7627:7645  _redEnvelopes[_id] */\n      dup2\n      mstore\n      0x20\n      add\n      swap1\n      dup2\n      mstore\n      0x20\n      add\n      0x00\n      keccak256\n        /* \"LuckyRedEnvelopeV2.sol\":7627:7656  _redEnvelopes[_id].buyTickets */\n      0x05\n      add\n        /* \"LuckyRedEnvelopeV2.sol\":7627:7705  _redEnvelopes[_id].buyTickets = _redEnvelopes[_id].buyTickets + _ticketNumbers */\n      dup2\n      swap1\n      sstore\n      pop\n        /* \"LuckyRedEnvelopeV2.sol\":7599:7838  if (_buy){... */\n      jump(tag_280)\n    tag_278:\n        /* \"LuckyRedEnvelopeV2.sol\":7808:7822  _ticketNumbers */\n      dup2\n        /* \"LuckyRedEnvelopeV2.sol\":7776:7789  _redEnvelopes */\n      0x05\n        /* \"LuckyRedEnvelopeV2.sol\":7776:7794  _redEnvelopes[_id] */\n      0x00\n        /* \"LuckyRedEnvelopeV2.sol\":7790:7793  _id */\n      dup7\n        /* \"LuckyRedEnvelopeV2.sol\":7776:7794  _redEnvelopes[_id] */\n      dup2\n      mstore\n      0x20\n      add\n      swap1\n      dup2\n      mstore\n      0x20\n      add\n      0x00\n      keccak256\n        /* \"LuckyRedEnvelopeV2.sol\":7776:7805  _redEnvelopes[_id].getTickets */\n      0x06\n      add\n      sload\n        /* \"LuckyRedEnvelopeV2.sol\":7776:7822  _redEnvelopes[_id].getTickets + _ticketNumbers */\n      tag_281\n      swap2\n      swap1\n      tag_122\n      jump\t// in\n    tag_281:\n        /* \"LuckyRedEnvelopeV2.sol\":7744:7757  _redEnvelopes */\n      0x05\n        /* \"LuckyRedEnvelopeV2.sol\":7744:7762  _redEnvelopes[_id] */\n      0x00\n        /* \"LuckyRedEnvelopeV2.sol\":7758:7761  _id */\n      dup7\n        /* \"LuckyRedEnvelopeV2.sol\":7744:7762  _redEnvelopes[_id] */\n      dup2\n      mstore\n      0x20\n      add\n      swap1\n      dup2\n      mstore\n      0x20\n      add\n      0x00\n      keccak256\n        /* \"LuckyRedEnvelopeV2.sol\":7744:7773  _redEnvelopes[_id].getTickets */\n      0x06\n      add\n        /* \"LuckyRedEnvelopeV2.sol\":7744:7822  _redEnvelopes[_id].getTickets = _redEnvelopes[_id].getTickets + _ticketNumbers */\n      dup2\n      swap1\n      sstore\n      pop\n        /* \"LuckyRedEnvelopeV2.sol\":7599:7838  if (_buy){... */\n    tag_280:\n        /* \"LuckyRedEnvelopeV2.sol\":7914:7915  0 */\n      0x00\n        /* \"LuckyRedEnvelopeV2.sol\":7870:7888  _userAddrTicketNum */\n      0x08\n        /* \"LuckyRedEnvelopeV2.sol\":7870:7893  _userAddrTicketNum[_id] */\n      0x00\n        /* \"LuckyRedEnvelopeV2.sol\":7889:7892  _id */\n      dup7\n        /* \"LuckyRedEnvelopeV2.sol\":7870:7893  _userAddrTicketNum[_id] */\n      dup2\n      mstore\n      0x20\n      add\n      swap1\n      dup2\n      mstore\n      0x20\n      add\n      0x00\n      keccak256\n        /* \"LuckyRedEnvelopeV2.sol\":7870:7910  _userAddrTicketNum[_id][_receiveAddress] */\n      0x00\n        /* \"LuckyRedEnvelopeV2.sol\":7894:7909  _receiveAddress */\n      dup6\n        /* \"LuckyRedEnvelopeV2.sol\":7870:7910  _userAddrTicketNum[_id][_receiveAddress] */\n      0xffffffffffffffffffffffffffffffffffffffff\n      and\n      0xffffffffffffffffffffffffffffffffffffffff\n      and\n      dup2\n      mstore\n      0x20\n      add\n      swap1\n      dup2\n      mstore\n      0x20\n      add\n      0x00\n      keccak256\n      sload\n        /* \"LuckyRedEnvelopeV2.sol\":7870:7915  _userAddrTicketNum[_id][_receiveAddress] == 0 */\n      sub\n        /* \"LuckyRedEnvelopeV2.sol\":7866:8074  if (_userAddrTicketNum[_id][_receiveAddress] == 0){... */\n      tag_282\n      jumpi\n        /* \"LuckyRedEnvelopeV2.sol\":7989:8004  _receiveAddress */\n      dup3\n        /* \"LuckyRedEnvelopeV2.sol\":7935:7949  _userAddrIndex */\n      0x09\n        /* \"LuckyRedEnvelopeV2.sol\":7935:7954  _userAddrIndex[_id] */\n      0x00\n        /* \"LuckyRedEnvelopeV2.sol\":7950:7953  _id */\n      dup7\n        /* \"LuckyRedEnvelopeV2.sol\":7935:7954  _userAddrIndex[_id] */\n      dup2\n      mstore\n      0x20\n      add\n      swap1\n      dup2\n      mstore\n      0x20\n      add\n      0x00\n      keccak256\n        /* \"LuckyRedEnvelopeV2.sol\":7935:7986  _userAddrIndex[_id][_redEnvelopes[_id].userAddrNum] */\n      0x00\n        /* \"LuckyRedEnvelopeV2.sol\":7955:7968  _redEnvelopes */\n      0x05\n        /* \"LuckyRedEnvelopeV2.sol\":7955:7973  _redEnvelopes[_id] */\n      0x00\n        /* \"LuckyRedEnvelopeV2.sol\":7969:7972  _id */\n      dup9\n        /* \"LuckyRedEnvelopeV2.sol\":7955:7973  _redEnvelopes[_id] */\n      dup2\n      mstore\n      0x20\n      add\n      swap1\n      dup2\n      mstore\n      0x20\n      add\n      0x00\n      keccak256\n        /* \"LuckyRedEnvelopeV2.sol\":7955:7985  _redEnvelopes[_id].userAddrNum */\n      0x08\n      add\n      sload\n        /* \"LuckyRedEnvelopeV2.sol\":7935:7986  _userAddrIndex[_id][_redEnvelopes[_id].userAddrNum] */\n      dup2\n      mstore\n      0x20\n      add\n      swap1\n      dup2\n      mstore\n      0x20\n      add\n      0x00\n      keccak256\n      0x00\n        /* \"LuckyRedEnvelopeV2.sol\":7935:8004  _userAddrIndex[_id][_redEnvelopes[_id].userAddrNum] = _receiveAddress */\n      0x0100\n      exp\n      dup2\n      sload\n      dup2\n      0xffffffffffffffffffffffffffffffffffffffff\n      mul\n      not\n      and\n      swap1\n      dup4\n      0xffffffffffffffffffffffffffffffffffffffff\n      and\n      mul\n      or\n      swap1\n      sstore\n      pop\n        /* \"LuckyRedEnvelopeV2.sol\":8057:8058  1 */\n      0x01\n        /* \"LuckyRedEnvelopeV2.sol\":8023:8036  _redEnvelopes */\n      0x05\n        /* \"LuckyRedEnvelopeV2.sol\":8023:8041  _redEnvelopes[_id] */\n      0x00\n        /* \"LuckyRedEnvelopeV2.sol\":8037:8040  _id */\n      dup7\n        /* \"LuckyRedEnvelopeV2.sol\":8023:8041  _redEnvelopes[_id] */\n      dup2\n      mstore\n      0x20\n      add\n      swap1\n      dup2\n      mstore\n      0x20\n      add\n      0x00\n      keccak256\n        /* \"LuckyRedEnvelopeV2.sol\":8023:8053  _redEnvelopes[_id].userAddrNum */\n      0x08\n      add\n      0x00\n        /* \"LuckyRedEnvelopeV2.sol\":8023:8058  _redEnvelopes[_id].userAddrNum += 1 */\n      dup3\n      dup3\n      sload\n      tag_283\n      swap2\n      swap1\n      tag_122\n      jump\t// in\n    tag_283:\n      swap3\n      pop\n      pop\n      dup2\n      swap1\n      sstore\n      pop\n        /* \"LuckyRedEnvelopeV2.sol\":7866:8074  if (_userAddrTicketNum[_id][_receiveAddress] == 0){... */\n    tag_282:\n        /* \"LuckyRedEnvelopeV2.sol\":8120:8121  1 */\n      0x01\n        /* \"LuckyRedEnvelopeV2.sol\":8088:8101  _redEnvelopes */\n      0x05\n        /* \"LuckyRedEnvelopeV2.sol\":8088:8106  _redEnvelopes[_id] */\n      0x00\n        /* \"LuckyRedEnvelopeV2.sol\":8102:8105  _id */\n      dup7\n        /* \"LuckyRedEnvelopeV2.sol\":8088:8106  _redEnvelopes[_id] */\n      dup2\n      mstore\n      0x20\n      add\n      swap1\n      dup2\n      mstore\n      0x20\n      add\n      0x00\n      keccak256\n        /* \"LuckyRedEnvelopeV2.sol\":8088:8116  _redEnvelopes[_id].userTxNum */\n      0x09\n      add\n      0x00\n        /* \"LuckyRedEnvelopeV2.sol\":8088:8121  _redEnvelopes[_id].userTxNum += 1 */\n      dup3\n      dup3\n      sload\n      tag_284\n      swap2\n      swap1\n      tag_122\n      jump\t// in\n    tag_284:\n      swap3\n      pop\n      pop\n      dup2\n      swap1\n      sstore\n      pop\n        /* \"LuckyRedEnvelopeV2.sol\":8222:8236  _ticketNumbers */\n      dup2\n        /* \"LuckyRedEnvelopeV2.sol\":8179:8197  _userAddrTicketNum */\n      0x08\n        /* \"LuckyRedEnvelopeV2.sol\":8179:8202  _userAddrTicketNum[_id] */\n      0x00\n        /* \"LuckyRedEnvelopeV2.sol\":8198:8201  _id */\n      dup7\n        /* \"LuckyRedEnvelopeV2.sol\":8179:8202  _userAddrTicketNum[_id] */\n      dup2\n      mstore\n      0x20\n      add\n      swap1\n      dup2\n      mstore\n      0x20\n      add\n      0x00\n      keccak256\n        /* \"LuckyRedEnvelopeV2.sol\":8179:8219  _userAddrTicketNum[_id][_receiveAddress] */\n      0x00\n        /* \"LuckyRedEnvelopeV2.sol\":8203:8218  _receiveAddress */\n      dup6\n        /* \"LuckyRedEnvelopeV2.sol\":8179:8219  _userAddrTicketNum[_id][_receiveAddress] */\n      0xffffffffffffffffffffffffffffffffffffffff\n      and\n      0xffffffffffffffffffffffffffffffffffffffff\n      and\n      dup2\n      mstore\n      0x20\n      add\n      swap1\n      dup2\n      mstore\n      0x20\n      add\n      0x00\n      keccak256\n      sload\n        /* \"LuckyRedEnvelopeV2.sol\":8179:8236  _userAddrTicketNum[_id][_receiveAddress] + _ticketNumbers */\n      tag_285\n      swap2\n      swap1\n      tag_122\n      jump\t// in\n    tag_285:\n        /* \"LuckyRedEnvelopeV2.sol\":8136:8154  _userAddrTicketNum */\n      0x08\n        /* \"LuckyRedEnvelopeV2.sol\":8136:8159  _userAddrTicketNum[_id] */\n      0x00\n        /* \"LuckyRedEnvelopeV2.sol\":8155:8158  _id */\n      dup7\n        /* \"LuckyRedEnvelopeV2.sol\":8136:8159  _userAddrTicketNum[_id] */\n      dup2\n      mstore\n      0x20\n      add\n      swap1\n      dup2\n      mstore\n      0x20\n      add\n      0x00\n      keccak256\n        /* \"LuckyRedEnvelopeV2.sol\":8136:8176  _userAddrTicketNum[_id][_receiveAddress] */\n      0x00\n        /* \"LuckyRedEnvelopeV2.sol\":8160:8175  _receiveAddress */\n      dup6\n        /* \"LuckyRedEnvelopeV2.sol\":8136:8176  _userAddrTicketNum[_id][_receiveAddress] */\n      0xffffffffffffffffffffffffffffffffffffffff\n      and\n      0xffffffffffffffffffffffffffffffffffffffff\n      and\n      dup2\n      mstore\n      0x20\n      add\n      swap1\n      dup2\n      mstore\n      0x20\n      add\n      0x00\n      keccak256\n        /* \"LuckyRedEnvelopeV2.sol\":8136:8236  _userAddrTicketNum[_id][_receiveAddress] = _userAddrTicketNum[_id][_receiveAddress] + _ticketNumbers */\n      dup2\n      swap1\n      sstore\n      pop\n        /* \"LuckyRedEnvelopeV2.sol\":6849:8244  function _getTicket(uint256 _id,address _receiveAddress,uint256 _ticketNumbers,bool _buy)internal{... */\n      pop\n      pop\n      pop\n      pop\n      jump\t// out\n        /* \"LuckyRedEnvelopeV2.sol\":6017:6841  function _injectTickets(uint256 _id,address _injectAddress,uint256 _ticketNumbers)internal{... */\n    tag_147:\n        /* \"LuckyRedEnvelopeV2.sol\":6118:6147  uint256 amountTokenToTransfer */\n      0x00\n        /* \"LuckyRedEnvelopeV2.sol\":6183:6197  _ticketNumbers */\n      dup2\n        /* \"LuckyRedEnvelopeV2.sol\":6150:6163  _redEnvelopes */\n      0x05\n        /* \"LuckyRedEnvelopeV2.sol\":6150:6168  _redEnvelopes[_id] */\n      0x00\n        /* \"LuckyRedEnvelopeV2.sol\":6164:6167  _id */\n      dup7\n        /* \"LuckyRedEnvelopeV2.sol\":6150:6168  _redEnvelopes[_id] */\n      dup2\n      mstore\n      0x20\n      add\n      swap1\n      dup2\n      mstore\n      0x20\n      add\n      0x00\n      keccak256\n        /* \"LuckyRedEnvelopeV2.sol\":6150:6180  _redEnvelopes[_id].ticketPirce */\n      0x0b\n      add\n      sload\n        /* \"LuckyRedEnvelopeV2.sol\":6150:6197  _redEnvelopes[_id].ticketPirce * _ticketNumbers */\n      tag_287\n      swap2\n      swap1\n      tag_198\n      jump\t// in\n    tag_287:\n        /* \"LuckyRedEnvelopeV2.sol\":6118:6197  uint256 amountTokenToTransfer = _redEnvelopes[_id].ticketPirce * _ticketNumbers */\n      swap1\n      pop\n        /* \"LuckyRedEnvelopeV2.sol\":6260:6378  IERC20(_redEnvelopes[_id].ticketToken).safeTransferFrom(address(_injectAddress), address(this), amountTokenToTransfer) */\n      tag_288\n        /* \"LuckyRedEnvelopeV2.sol\":6324:6338  _injectAddress */\n      dup4\n        /* \"LuckyRedEnvelopeV2.sol\":6349:6353  this */\n      address\n        /* \"LuckyRedEnvelopeV2.sol\":6356:6377  amountTokenToTransfer */\n      dup4\n        /* \"LuckyRedEnvelopeV2.sol\":6267:6280  _redEnvelopes */\n      0x05\n        /* \"LuckyRedEnvelopeV2.sol\":6267:6285  _redEnvelopes[_id] */\n      0x00\n        /* \"LuckyRedEnvelopeV2.sol\":6281:6284  _id */\n      dup10\n        /* \"LuckyRedEnvelopeV2.sol\":6267:6285  _redEnvelopes[_id] */\n      dup2\n      mstore\n      0x20\n      add\n      swap1\n      dup2\n      mstore\n      0x20\n      add\n      0x00\n      keccak256\n        /* \"LuckyRedEnvelopeV2.sol\":6267:6297  _redEnvelopes[_id].ticketToken */\n      0x00\n      add\n      0x00\n      swap1\n      sload\n      swap1\n      0x0100\n      exp\n      swap1\n      div\n      0xffffffffffffffffffffffffffffffffffffffff\n      and\n        /* \"LuckyRedEnvelopeV2.sol\":6260:6315  IERC20(_redEnvelopes[_id].ticketToken).safeTransferFrom */\n      0xffffffffffffffffffffffffffffffffffffffff\n      and\n      tag_234\n      swap1\n        /* \"LuckyRedEnvelopeV2.sol\":6260:6378  IERC20(_redEnvelopes[_id].ticketToken).safeTransferFrom(address(_injectAddress), address(this), amountTokenToTransfer) */\n      swap4\n      swap3\n      swap2\n      swap1\n      0xffffffff\n      and\n      jump\t// in\n    tag_288:\n        /* \"LuckyRedEnvelopeV2.sol\":6431:6445  _ticketNumbers */\n      dup2\n        /* \"LuckyRedEnvelopeV2.sol\":6389:6402  _redEnvelopes */\n      0x05\n        /* \"LuckyRedEnvelopeV2.sol\":6389:6413  _redEnvelopes[currentId] */\n      0x00\n        /* \"LuckyRedEnvelopeV2.sol\":6403:6412  currentId */\n      sload(0x03)\n        /* \"LuckyRedEnvelopeV2.sol\":6389:6413  _redEnvelopes[currentId] */\n      dup2\n      mstore\n      0x20\n      add\n      swap1\n      dup2\n      mstore\n      0x20\n      add\n      0x00\n      keccak256\n        /* \"LuckyRedEnvelopeV2.sol\":6389:6427  _redEnvelopes[currentId].injectTickets */\n      0x07\n      add\n      0x00\n        /* \"LuckyRedEnvelopeV2.sol\":6389:6445  _redEnvelopes[currentId].injectTickets += _ticketNumbers */\n      dup3\n      dup3\n      sload\n      tag_289\n      swap2\n      swap1\n      tag_122\n      jump\t// in\n    tag_289:\n      swap3\n      pop\n      pop\n      dup2\n      swap1\n      sstore\n      pop\n        /* \"LuckyRedEnvelopeV2.sol\":6510:6511  0 */\n      0x00\n        /* \"LuckyRedEnvelopeV2.sol\":6463:6479  _injectTicketMap */\n      0x0c\n        /* \"LuckyRedEnvelopeV2.sol\":6463:6490  _injectTicketMap[currentId] */\n      0x00\n        /* \"LuckyRedEnvelopeV2.sol\":6480:6489  currentId */\n      sload(0x03)\n        /* \"LuckyRedEnvelopeV2.sol\":6463:6490  _injectTicketMap[currentId] */\n      dup2\n      mstore\n      0x20\n      add\n      swap1\n      dup2\n      mstore\n      0x20\n      add\n      0x00\n      keccak256\n        /* \"LuckyRedEnvelopeV2.sol\":6463:6506  _injectTicketMap[currentId][_injectAddress] */\n      0x00\n        /* \"LuckyRedEnvelopeV2.sol\":6491:6505  _injectAddress */\n      dup6\n        /* \"LuckyRedEnvelopeV2.sol\":6463:6506  _injectTicketMap[currentId][_injectAddress] */\n      0xffffffffffffffffffffffffffffffffffffffff\n      and\n      0xffffffffffffffffffffffffffffffffffffffff\n      and\n      dup2\n      mstore\n      0x20\n      add\n      swap1\n      dup2\n      mstore\n      0x20\n      add\n      0x00\n      keccak256\n      sload\n        /* \"LuckyRedEnvelopeV2.sol\":6463:6511  _injectTicketMap[currentId][_injectAddress] == 0 */\n      sub\n        /* \"LuckyRedEnvelopeV2.sol\":6458:6681  if ( _injectTicketMap[currentId][_injectAddress] == 0){... */\n      tag_290\n      jumpi\n        /* \"LuckyRedEnvelopeV2.sol\":6597:6611  _injectAddress */\n      dup3\n        /* \"LuckyRedEnvelopeV2.sol\":6527:6543  _injectAddrIndex */\n      0x0b\n        /* \"LuckyRedEnvelopeV2.sol\":6527:6554  _injectAddrIndex[currentId] */\n      0x00\n        /* \"LuckyRedEnvelopeV2.sol\":6544:6553  currentId */\n      sload(0x03)\n        /* \"LuckyRedEnvelopeV2.sol\":6527:6554  _injectAddrIndex[currentId] */\n      dup2\n      mstore\n      0x20\n      add\n      swap1\n      dup2\n      mstore\n      0x20\n      add\n      0x00\n      keccak256\n        /* \"LuckyRedEnvelopeV2.sol\":6527:6594  _injectAddrIndex[currentId][_redEnvelopes[currentId].injectAddrNum] */\n      0x00\n        /* \"LuckyRedEnvelopeV2.sol\":6555:6568  _redEnvelopes */\n      0x05\n        /* \"LuckyRedEnvelopeV2.sol\":6555:6579  _redEnvelopes[currentId] */\n      0x00\n        /* \"LuckyRedEnvelopeV2.sol\":6569:6578  currentId */\n      sload(0x03)\n        /* \"LuckyRedEnvelopeV2.sol\":6555:6579  _redEnvelopes[currentId] */\n      dup2\n      mstore\n      0x20\n      add\n      swap1\n      dup2\n      mstore\n      0x20\n      add\n      0x00\n      keccak256\n        /* \"LuckyRedEnvelopeV2.sol\":6555:6593  _redEnvelopes[currentId].injectAddrNum */\n      0x0a\n      add\n      sload\n        /* \"LuckyRedEnvelopeV2.sol\":6527:6594  _injectAddrIndex[currentId][_redEnvelopes[currentId].injectAddrNum] */\n      dup2\n      mstore\n      0x20\n      add\n      swap1\n      dup2\n      mstore\n      0x20\n      add\n      0x00\n      keccak256\n      0x00\n        /* \"LuckyRedEnvelopeV2.sol\":6527:6611  _injectAddrIndex[currentId][_redEnvelopes[currentId].injectAddrNum] = _injectAddress */\n      0x0100\n      exp\n      dup2\n      sload\n      dup2\n      0xffffffffffffffffffffffffffffffffffffffff\n      mul\n      not\n      and\n      swap1\n      dup4\n      0xffffffffffffffffffffffffffffffffffffffff\n      and\n      mul\n      or\n      swap1\n      sstore\n      pop\n        /* \"LuckyRedEnvelopeV2.sol\":6668:6669  1 */\n      0x01\n        /* \"LuckyRedEnvelopeV2.sol\":6626:6639  _redEnvelopes */\n      0x05\n        /* \"LuckyRedEnvelopeV2.sol\":6626:6650  _redEnvelopes[currentId] */\n      0x00\n        /* \"LuckyRedEnvelopeV2.sol\":6640:6649  currentId */\n      sload(0x03)\n        /* \"LuckyRedEnvelopeV2.sol\":6626:6650  _redEnvelopes[currentId] */\n      dup2\n      mstore\n      0x20\n      add\n      swap1\n      dup2\n      mstore\n      0x20\n      add\n      0x00\n      keccak256\n        /* \"LuckyRedEnvelopeV2.sol\":6626:6664  _redEnvelopes[currentId].injectAddrNum */\n      0x0a\n      add\n      0x00\n        /* \"LuckyRedEnvelopeV2.sol\":6626:6669  _redEnvelopes[currentId].injectAddrNum += 1 */\n      dup3\n      dup3\n      sload\n      tag_291\n      swap2\n      swap1\n      tag_122\n      jump\t// in\n    tag_291:\n      swap3\n      pop\n      pop\n      dup2\n      swap1\n      sstore\n      pop\n        /* \"LuckyRedEnvelopeV2.sol\":6458:6681  if ( _injectTicketMap[currentId][_injectAddress] == 0){... */\n    tag_290:\n        /* \"LuckyRedEnvelopeV2.sol\":6738:6752  _ticketNumbers */\n      dup2\n        /* \"LuckyRedEnvelopeV2.sol\":6691:6707  _injectTicketMap */\n      0x0c\n        /* \"LuckyRedEnvelopeV2.sol\":6691:6718  _injectTicketMap[currentId] */\n      0x00\n        /* \"LuckyRedEnvelopeV2.sol\":6708:6717  currentId */\n      sload(0x03)\n        /* \"LuckyRedEnvelopeV2.sol\":6691:6718  _injectTicketMap[currentId] */\n      dup2\n      mstore\n      0x20\n      add\n      swap1\n      dup2\n      mstore\n      0x20\n      add\n      0x00\n      keccak256\n        /* \"LuckyRedEnvelopeV2.sol\":6691:6734  _injectTicketMap[currentId][_injectAddress] */\n      0x00\n        /* \"LuckyRedEnvelopeV2.sol\":6719:6733  _injectAddress */\n      dup6\n        /* \"LuckyRedEnvelopeV2.sol\":6691:6734  _injectTicketMap[currentId][_injectAddress] */\n      0xffffffffffffffffffffffffffffffffffffffff\n      and\n      0xffffffffffffffffffffffffffffffffffffffff\n      and\n      dup2\n      mstore\n      0x20\n      add\n      swap1\n      dup2\n      mstore\n      0x20\n      add\n      0x00\n      keccak256\n      0x00\n        /* \"LuckyRedEnvelopeV2.sol\":6691:6752  _injectTicketMap[currentId][_injectAddress] += _ticketNumbers */\n      dup3\n      dup3\n      sload\n      tag_292\n      swap2\n      swap1\n      tag_122\n      jump\t// in\n    tag_292:\n      swap3\n      pop\n      pop\n      dup2\n      swap1\n      sstore\n      pop\n        /* \"LuckyRedEnvelopeV2.sol\":6802:6816  _injectAddress */\n      dup3\n        /* \"LuckyRedEnvelopeV2.sol\":6770:6833  TicketsInject(currentId,address(_injectAddress),_ticketNumbers) */\n      0xffffffffffffffffffffffffffffffffffffffff\n      and\n        /* \"LuckyRedEnvelopeV2.sol\":6784:6793  currentId */\n      sload(0x03)\n        /* \"LuckyRedEnvelopeV2.sol\":6770:6833  TicketsInject(currentId,address(_injectAddress),_ticketNumbers) */\n      0xa95519638524dcea0d5d0102c719d77dc3d8b1ae68d2d1e37c79be21bc7b113b\n        /* \"LuckyRedEnvelopeV2.sol\":6818:6832  _ticketNumbers */\n      dup5\n        /* \"LuckyRedEnvelopeV2.sol\":6770:6833  TicketsInject(currentId,address(_injectAddress),_ticketNumbers) */\n      mload(0x40)\n      tag_293\n      swap2\n      swap1\n      tag_74\n      jump\t// in\n    tag_293:\n      mload(0x40)\n      dup1\n      swap2\n      sub\n      swap1\n      log3\n        /* \"LuckyRedEnvelopeV2.sol\":6107:6841  {... */\n      pop\n        /* \"LuckyRedEnvelopeV2.sol\":6017:6841  function _injectTickets(uint256 _id,address _injectAddress,uint256 _ticketNumbers)internal{... */\n      pop\n      pop\n      pop\n      jump\t// out\n        /* \"@openzeppelin/contracts/access/Ownable.sol\":1796:1958  function _checkOwner() internal view virtual {... */\n    tag_151:\n        /* \"@openzeppelin/contracts/access/Ownable.sol\":1866:1878  _msgSender() */\n      tag_295\n        /* \"@openzeppelin/contracts/access/Ownable.sol\":1866:1876  _msgSender */\n      tag_296\n        /* \"@openzeppelin/contracts/access/Ownable.sol\":1866:1878  _msgSender() */\n      jump\t// in\n    tag_295:\n        /* \"@openzeppelin/contracts/access/Ownable.sol\":1855:1878  owner() != _msgSender() */\n      0xffffffffffffffffffffffffffffffffffffffff\n      and\n        /* \"@openzeppelin/contracts/access/Ownable.sol\":1855:1862  owner() */\n      tag_297\n        /* \"@openzeppelin/contracts/access/Ownable.sol\":1855:1860  owner */\n      tag_42\n        /* \"@openzeppelin/contracts/access/Ownable.sol\":1855:1862  owner() */\n      jump\t// in\n    tag_297:\n        /* \"@openzeppelin/contracts/access/Ownable.sol\":1855:1878  owner() != _msgSender() */\n      0xffffffffffffffffffffffffffffffffffffffff\n      and\n      eq\n        /* \"@openzeppelin/contracts/access/Ownable.sol\":1851:1952  if (owner() != _msgSender()) {... */\n      tag_298\n      jumpi\n        /* \"@openzeppelin/contracts/access/Ownable.sol\":1928:1940  _msgSender() */\n      tag_299\n        /* \"@openzeppelin/contracts/access/Ownable.sol\":1928:1938  _msgSender */\n      tag_296\n        /* \"@openzeppelin/contracts/access/Ownable.sol\":1928:1940  _msgSender() */\n      jump\t// in\n    tag_299:\n        /* \"@openzeppelin/contracts/access/Ownable.sol\":1901:1941  OwnableUnauthorizedAccount(_msgSender()) */\n      mload(0x40)\n      0x118cdaa700000000000000000000000000000000000000000000000000000000\n      dup2\n      mstore\n      0x04\n      add\n      tag_300\n      swap2\n      swap1\n      tag_44\n      jump\t// in\n    tag_300:\n      mload(0x40)\n      dup1\n      swap2\n      sub\n      swap1\n      revert\n        /* \"@openzeppelin/contracts/access/Ownable.sol\":1851:1952  if (owner() != _msgSender()) {... */\n    tag_298:\n        /* \"@openzeppelin/contracts/access/Ownable.sol\":1796:1958  function _checkOwner() internal view virtual {... */\n      jump\t// out\n        /* \"@openzeppelin/contracts/access/Ownable.sol\":2912:3099  function _transferOwnership(address newOwner) internal virtual {... */\n    tag_154:\n        /* \"@openzeppelin/contracts/access/Ownable.sol\":2985:3001  address oldOwner */\n      0x00\n        /* \"@openzeppelin/contracts/access/Ownable.sol\":3004:3010  _owner */\n      0x01\n      0x00\n      swap1\n      sload\n      swap1\n      0x0100\n      exp\n      swap1\n      div\n      0xffffffffffffffffffffffffffffffffffffffff\n      and\n        /* \"@openzeppelin/contracts/access/Ownable.sol\":2985:3010  address oldOwner = _owner */\n      swap1\n      pop\n        /* \"@openzeppelin/contracts/access/Ownable.sol\":3029:3037  newOwner */\n      dup2\n        /* \"@openzeppelin/contracts/access/Ownable.sol\":3020:3026  _owner */\n      0x01\n      0x00\n        /* \"@openzeppelin/contracts/access/Ownable.sol\":3020:3037  _owner = newOwner */\n      0x0100\n      exp\n      dup2\n      sload\n      dup2\n      0xffffffffffffffffffffffffffffffffffffffff\n      mul\n      not\n      and\n      swap1\n      dup4\n      0xffffffffffffffffffffffffffffffffffffffff\n      and\n      mul\n      or\n      swap1\n      sstore\n      pop\n        /* \"@openzeppelin/contracts/access/Ownable.sol\":3083:3091  newOwner */\n      dup2\n        /* \"@openzeppelin/contracts/access/Ownable.sol\":3052:3092  OwnershipTransferred(oldOwner, newOwner) */\n      0xffffffffffffffffffffffffffffffffffffffff\n      and\n        /* \"@openzeppelin/contracts/access/Ownable.sol\":3073:3081  oldOwner */\n      dup2\n        /* \"@openzeppelin/contracts/access/Ownable.sol\":3052:3092  OwnershipTransferred(oldOwner, newOwner) */\n      0xffffffffffffffffffffffffffffffffffffffff\n      and\n      0x8be0079c531659141344cd1fd0a4f28419497f9722a3daafe3b4186f6b6457e0\n      mload(0x40)\n      mload(0x40)\n      dup1\n      swap2\n      sub\n      swap1\n      log3\n        /* \"@openzeppelin/contracts/access/Ownable.sol\":2975:3099  {... */\n      pop\n        /* \"@openzeppelin/contracts/access/Ownable.sol\":2912:3099  function _transferOwnership(address newOwner) internal virtual {... */\n      pop\n      jump\t// out\n        /* \"LuckyRedEnvelopeV2.sol\":10651:11028  function _returnInject(uint256 _id)internal{... */\n    tag_192:\n        /* \"LuckyRedEnvelopeV2.sol\":10710:10719  uint256 i */\n      0x00\n        /* \"LuckyRedEnvelopeV2.sol\":10705:11021  for (uint256 i = 0;i <  _redEnvelopes[_id].injectAddrNum;i ++){... */\n    tag_303:\n        /* \"LuckyRedEnvelopeV2.sol\":10729:10742  _redEnvelopes */\n      0x05\n        /* \"LuckyRedEnvelopeV2.sol\":10729:10747  _redEnvelopes[_id] */\n      0x00\n        /* \"LuckyRedEnvelopeV2.sol\":10743:10746  _id */\n      dup4\n        /* \"LuckyRedEnvelopeV2.sol\":10729:10747  _redEnvelopes[_id] */\n      dup2\n      mstore\n      0x20\n      add\n      swap1\n      dup2\n      mstore\n      0x20\n      add\n      0x00\n      keccak256\n        /* \"LuckyRedEnvelopeV2.sol\":10729:10761  _redEnvelopes[_id].injectAddrNum */\n      0x0a\n      add\n      sload\n        /* \"LuckyRedEnvelopeV2.sol\":10724:10725  i */\n      dup2\n        /* \"LuckyRedEnvelopeV2.sol\":10724:10761  i <  _redEnvelopes[_id].injectAddrNum */\n      lt\n        /* \"LuckyRedEnvelopeV2.sol\":10705:11021  for (uint256 i = 0;i <  _redEnvelopes[_id].injectAddrNum;i ++){... */\n      iszero\n      tag_304\n      jumpi\n        /* \"LuckyRedEnvelopeV2.sol\":10782:10811  uint256 amountTokenToTransfer */\n      0x00\n        /* \"LuckyRedEnvelopeV2.sol\":10847:10863  _injectTicketMap */\n      0x0c\n        /* \"LuckyRedEnvelopeV2.sol\":10847:10868  _injectTicketMap[_id] */\n      0x00\n        /* \"LuckyRedEnvelopeV2.sol\":10864:10867  _id */\n      dup5\n        /* \"LuckyRedEnvelopeV2.sol\":10847:10868  _injectTicketMap[_id] */\n      dup2\n      mstore\n      0x20\n      add\n      swap1\n      dup2\n      mstore\n      0x20\n      add\n      0x00\n      keccak256\n        /* \"LuckyRedEnvelopeV2.sol\":10847:10894  _injectTicketMap[_id][_injectAddrIndex[_id][i]] */\n      0x00\n        /* \"LuckyRedEnvelopeV2.sol\":10869:10885  _injectAddrIndex */\n      0x0b\n        /* \"LuckyRedEnvelopeV2.sol\":10869:10890  _injectAddrIndex[_id] */\n      0x00\n        /* \"LuckyRedEnvelopeV2.sol\":10886:10889  _id */\n      dup7\n        /* \"LuckyRedEnvelopeV2.sol\":10869:10890  _injectAddrIndex[_id] */\n      dup2\n      mstore\n      0x20\n      add\n      swap1\n      dup2\n      mstore\n      0x20\n      add\n      0x00\n      keccak256\n        /* \"LuckyRedEnvelopeV2.sol\":10869:10893  _injectAddrIndex[_id][i] */\n      0x00\n        /* \"LuckyRedEnvelopeV2.sol\":10891:10892  i */\n      dup6\n        /* \"LuckyRedEnvelopeV2.sol\":10869:10893  _injectAddrIndex[_id][i] */\n      dup2\n      mstore\n      0x20\n      add\n      swap1\n      dup2\n      mstore\n      0x20\n      add\n      0x00\n      keccak256\n      0x00\n      swap1\n      sload\n      swap1\n      0x0100\n      exp\n      swap1\n      div\n      0xffffffffffffffffffffffffffffffffffffffff\n      and\n        /* \"LuckyRedEnvelopeV2.sol\":10847:10894  _injectTicketMap[_id][_injectAddrIndex[_id][i]] */\n      0xffffffffffffffffffffffffffffffffffffffff\n      and\n      0xffffffffffffffffffffffffffffffffffffffff\n      and\n      dup2\n      mstore\n      0x20\n      add\n      swap1\n      dup2\n      mstore\n      0x20\n      add\n      0x00\n      keccak256\n      sload\n        /* \"LuckyRedEnvelopeV2.sol\":10814:10827  _redEnvelopes */\n      0x05\n        /* \"LuckyRedEnvelopeV2.sol\":10814:10832  _redEnvelopes[_id] */\n      0x00\n        /* \"LuckyRedEnvelopeV2.sol\":10828:10831  _id */\n      dup6\n        /* \"LuckyRedEnvelopeV2.sol\":10814:10832  _redEnvelopes[_id] */\n      dup2\n      mstore\n      0x20\n      add\n      swap1\n      dup2\n      mstore\n      0x20\n      add\n      0x00\n      keccak256\n        /* \"LuckyRedEnvelopeV2.sol\":10814:10844  _redEnvelopes[_id].ticketPirce */\n      0x0b\n      add\n      sload\n        /* \"LuckyRedEnvelopeV2.sol\":10814:10894  _redEnvelopes[_id].ticketPirce * _injectTicketMap[_id][_injectAddrIndex[_id][i]] */\n      tag_306\n      swap2\n      swap1\n      tag_198\n      jump\t// in\n    tag_306:\n        /* \"LuckyRedEnvelopeV2.sol\":10782:10894  uint256 amountTokenToTransfer = _redEnvelopes[_id].ticketPirce * _injectTicketMap[_id][_injectAddrIndex[_id][i]] */\n      swap1\n      pop\n        /* \"LuckyRedEnvelopeV2.sol\":10909:11009  IERC20(_redEnvelopes[_id].ticketToken).safeTransfer(_injectAddrIndex[_id][i], amountTokenToTransfer) */\n      tag_307\n        /* \"LuckyRedEnvelopeV2.sol\":10961:10977  _injectAddrIndex */\n      0x0b\n        /* \"LuckyRedEnvelopeV2.sol\":10961:10982  _injectAddrIndex[_id] */\n      0x00\n        /* \"LuckyRedEnvelopeV2.sol\":10978:10981  _id */\n      dup6\n        /* \"LuckyRedEnvelopeV2.sol\":10961:10982  _injectAddrIndex[_id] */\n      dup2\n      mstore\n      0x20\n      add\n      swap1\n      dup2\n      mstore\n      0x20\n      add\n      0x00\n      keccak256\n        /* \"LuckyRedEnvelopeV2.sol\":10961:10985  _injectAddrIndex[_id][i] */\n      0x00\n        /* \"LuckyRedEnvelopeV2.sol\":10983:10984  i */\n      dup5\n        /* \"LuckyRedEnvelopeV2.sol\":10961:10985  _injectAddrIndex[_id][i] */\n      dup2\n      mstore\n      0x20\n      add\n      swap1\n      dup2\n      mstore\n      0x20\n      add\n      0x00\n      keccak256\n      0x00\n      swap1\n      sload\n      swap1\n      0x0100\n      exp\n      swap1\n      div\n      0xffffffffffffffffffffffffffffffffffffffff\n      and\n        /* \"LuckyRedEnvelopeV2.sol\":10987:11008  amountTokenToTransfer */\n      dup3\n        /* \"LuckyRedEnvelopeV2.sol\":10916:10929  _redEnvelopes */\n      0x05\n        /* \"LuckyRedEnvelopeV2.sol\":10916:10934  _redEnvelopes[_id] */\n      0x00\n        /* \"LuckyRedEnvelopeV2.sol\":10930:10933  _id */\n      dup8\n        /* \"LuckyRedEnvelopeV2.sol\":10916:10934  _redEnvelopes[_id] */\n      dup2\n      mstore\n      0x20\n      add\n      swap1\n      dup2\n      mstore\n      0x20\n      add\n      0x00\n      keccak256\n        /* \"LuckyRedEnvelopeV2.sol\":10916:10946  _redEnvelopes[_id].ticketToken */\n      0x00\n      add\n      0x00\n      swap1\n      sload\n      swap1\n      0x0100\n      exp\n      swap1\n      div\n      0xffffffffffffffffffffffffffffffffffffffff\n      and\n        /* \"LuckyRedEnvelopeV2.sol\":10909:10960  IERC20(_redEnvelopes[_id].ticketToken).safeTransfer */\n      0xffffffffffffffffffffffffffffffffffffffff\n      and\n      tag_308\n      swap1\n        /* \"LuckyRedEnvelopeV2.sol\":10909:11009  IERC20(_redEnvelopes[_id].ticketToken).safeTransfer(_injectAddrIndex[_id][i], amountTokenToTransfer) */\n      swap3\n      swap2\n      swap1\n      0xffffffff\n      and\n      jump\t// in\n    tag_307:\n        /* \"LuckyRedEnvelopeV2.sol\":10767:11021  {... */\n      pop\n        /* \"LuckyRedEnvelopeV2.sol\":10762:10766  i ++ */\n      dup1\n      dup1\n      tag_309\n      swap1\n      tag_163\n      jump\t// in\n    tag_309:\n      swap2\n      pop\n      pop\n        /* \"LuckyRedEnvelopeV2.sol\":10705:11021  for (uint256 i = 0;i <  _redEnvelopes[_id].injectAddrNum;i ++){... */\n      jump(tag_303)\n    tag_304:\n      pop\n        /* \"LuckyRedEnvelopeV2.sol\":10651:11028  function _returnInject(uint256 _id)internal{... */\n      pop\n      jump\t// out\n        /* \"LuckyRedEnvelopeV2.sol\":16570:16977  function _removeEnvelope(uint256 _id)internal{... */\n    tag_194:\n        /* \"LuckyRedEnvelopeV2.sol\":16631:16640  uint256 i */\n      0x00\n        /* \"LuckyRedEnvelopeV2.sol\":16626:16815  for (uint256 i = 0; i < _redEnvelopes[_id].injectAddrNum; i++){... */\n    tag_311:\n        /* \"LuckyRedEnvelopeV2.sol\":16650:16663  _redEnvelopes */\n      0x05\n        /* \"LuckyRedEnvelopeV2.sol\":16650:16668  _redEnvelopes[_id] */\n      0x00\n        /* \"LuckyRedEnvelopeV2.sol\":16664:16667  _id */\n      dup4\n        /* \"LuckyRedEnvelopeV2.sol\":16650:16668  _redEnvelopes[_id] */\n      dup2\n      mstore\n      0x20\n      add\n      swap1\n      dup2\n      mstore\n      0x20\n      add\n      0x00\n      keccak256\n        /* \"LuckyRedEnvelopeV2.sol\":16650:16682  _redEnvelopes[_id].injectAddrNum */\n      0x0a\n      add\n      sload\n        /* \"LuckyRedEnvelopeV2.sol\":16646:16647  i */\n      dup2\n        /* \"LuckyRedEnvelopeV2.sol\":16646:16682  i < _redEnvelopes[_id].injectAddrNum */\n      lt\n        /* \"LuckyRedEnvelopeV2.sol\":16626:16815  for (uint256 i = 0; i < _redEnvelopes[_id].injectAddrNum; i++){... */\n      iszero\n      tag_312\n      jumpi\n        /* \"LuckyRedEnvelopeV2.sol\":16710:16726  _injectTicketMap */\n      0x0c\n        /* \"LuckyRedEnvelopeV2.sol\":16710:16731  _injectTicketMap[_id] */\n      0x00\n        /* \"LuckyRedEnvelopeV2.sol\":16727:16730  _id */\n      dup4\n        /* \"LuckyRedEnvelopeV2.sol\":16710:16731  _injectTicketMap[_id] */\n      dup2\n      mstore\n      0x20\n      add\n      swap1\n      dup2\n      mstore\n      0x20\n      add\n      0x00\n      keccak256\n        /* \"LuckyRedEnvelopeV2.sol\":16710:16757  _injectTicketMap[_id][_injectAddrIndex[_id][i]] */\n      0x00\n        /* \"LuckyRedEnvelopeV2.sol\":16732:16748  _injectAddrIndex */\n      0x0b\n        /* \"LuckyRedEnvelopeV2.sol\":16732:16753  _injectAddrIndex[_id] */\n      0x00\n        /* \"LuckyRedEnvelopeV2.sol\":16749:16752  _id */\n      dup6\n        /* \"LuckyRedEnvelopeV2.sol\":16732:16753  _injectAddrIndex[_id] */\n      dup2\n      mstore\n      0x20\n      add\n      swap1\n      dup2\n      mstore\n      0x20\n      add\n      0x00\n      keccak256\n        /* \"LuckyRedEnvelopeV2.sol\":16732:16756  _injectAddrIndex[_id][i] */\n      0x00\n        /* \"LuckyRedEnvelopeV2.sol\":16754:16755  i */\n      dup5\n        /* \"LuckyRedEnvelopeV2.sol\":16732:16756  _injectAddrIndex[_id][i] */\n      dup2\n      mstore\n      0x20\n      add\n      swap1\n      dup2\n      mstore\n      0x20\n      add\n      0x00\n      keccak256\n      0x00\n      swap1\n      sload\n      swap1\n      0x0100\n      exp\n      swap1\n      div\n      0xffffffffffffffffffffffffffffffffffffffff\n      and\n        /* \"LuckyRedEnvelopeV2.sol\":16710:16757  _injectTicketMap[_id][_injectAddrIndex[_id][i]] */\n      0xffffffffffffffffffffffffffffffffffffffff\n      and\n      0xffffffffffffffffffffffffffffffffffffffff\n      and\n      dup2\n      mstore\n      0x20\n      add\n      swap1\n      dup2\n      mstore\n      0x20\n      add\n      0x00\n      keccak256\n        /* \"LuckyRedEnvelopeV2.sol\":16703:16757  delete _injectTicketMap[_id][_injectAddrIndex[_id][i]] */\n      0x00\n      swap1\n      sstore\n        /* \"LuckyRedEnvelopeV2.sol\":16779:16795  _injectAddrIndex */\n      0x0b\n        /* \"LuckyRedEnvelopeV2.sol\":16779:16800  _injectAddrIndex[_id] */\n      0x00\n        /* \"LuckyRedEnvelopeV2.sol\":16796:16799  _id */\n      dup4\n        /* \"LuckyRedEnvelopeV2.sol\":16779:16800  _injectAddrIndex[_id] */\n      dup2\n      mstore\n      0x20\n      add\n      swap1\n      dup2\n      mstore\n      0x20\n      add\n      0x00\n      keccak256\n        /* \"LuckyRedEnvelopeV2.sol\":16779:16803  _injectAddrIndex[_id][i] */\n      0x00\n        /* \"LuckyRedEnvelopeV2.sol\":16801:16802  i */\n      dup3\n        /* \"LuckyRedEnvelopeV2.sol\":16779:16803  _injectAddrIndex[_id][i] */\n      dup2\n      mstore\n      0x20\n      add\n      swap1\n      dup2\n      mstore\n      0x20\n      add\n      0x00\n      keccak256\n      0x00\n        /* \"LuckyRedEnvelopeV2.sol\":16772:16803  delete _injectAddrIndex[_id][i] */\n      0x0100\n      exp\n      dup2\n      sload\n      swap1\n      0xffffffffffffffffffffffffffffffffffffffff\n      mul\n      not\n      and\n      swap1\n      sstore\n        /* \"LuckyRedEnvelopeV2.sol\":16684:16687  i++ */\n      dup1\n      dup1\n      tag_314\n      swap1\n      tag_163\n      jump\t// in\n    tag_314:\n      swap2\n      pop\n      pop\n        /* \"LuckyRedEnvelopeV2.sol\":16626:16815  for (uint256 i = 0; i < _redEnvelopes[_id].injectAddrNum; i++){... */\n      jump(tag_311)\n    tag_312:\n      pop\n        /* \"LuckyRedEnvelopeV2.sol\":16830:16839  uint256 i */\n      0x00\n        /* \"LuckyRedEnvelopeV2.sol\":16825:16934  for (uint256 i = 0; i < _redEnvelopes[_id].userTxNum; i++) {... */\n    tag_315:\n        /* \"LuckyRedEnvelopeV2.sol\":16849:16862  _redEnvelopes */\n      0x05\n        /* \"LuckyRedEnvelopeV2.sol\":16849:16867  _redEnvelopes[_id] */\n      0x00\n        /* \"LuckyRedEnvelopeV2.sol\":16863:16866  _id */\n      dup4\n        /* \"LuckyRedEnvelopeV2.sol\":16849:16867  _redEnvelopes[_id] */\n      dup2\n      mstore\n      0x20\n      add\n      swap1\n      dup2\n      mstore\n      0x20\n      add\n      0x00\n      keccak256\n        /* \"LuckyRedEnvelopeV2.sol\":16849:16877  _redEnvelopes[_id].userTxNum */\n      0x09\n      add\n      sload\n        /* \"LuckyRedEnvelopeV2.sol\":16845:16846  i */\n      dup2\n        /* \"LuckyRedEnvelopeV2.sol\":16845:16877  i < _redEnvelopes[_id].userTxNum */\n      lt\n        /* \"LuckyRedEnvelopeV2.sol\":16825:16934  for (uint256 i = 0; i < _redEnvelopes[_id].userTxNum; i++) {... */\n      iszero\n      tag_316\n      jumpi\n        /* \"LuckyRedEnvelopeV2.sol\":16906:16914  _tickets */\n      0x06\n        /* \"LuckyRedEnvelopeV2.sol\":16906:16919  _tickets[_id] */\n      0x00\n        /* \"LuckyRedEnvelopeV2.sol\":16915:16918  _id */\n      dup4\n        /* \"LuckyRedEnvelopeV2.sol\":16906:16919  _tickets[_id] */\n      dup2\n      mstore\n      0x20\n      add\n      swap1\n      dup2\n      mstore\n      0x20\n      add\n      0x00\n      keccak256\n        /* \"LuckyRedEnvelopeV2.sol\":16906:16922  _tickets[_id][i] */\n      0x00\n        /* \"LuckyRedEnvelopeV2.sol\":16920:16921  i */\n      dup3\n        /* \"LuckyRedEnvelopeV2.sol\":16906:16922  _tickets[_id][i] */\n      dup2\n      mstore\n      0x20\n      add\n      swap1\n      dup2\n      mstore\n      0x20\n      add\n      0x00\n      keccak256\n      0x00\n        /* \"LuckyRedEnvelopeV2.sol\":16899:16922  delete _tickets[_id][i] */\n      dup1\n      dup3\n      add\n      0x00\n      swap1\n      sstore\n      0x01\n      dup3\n      add\n      exp(0x0100, 0x00)\n      dup2\n      sload\n      swap1\n      0xffffffffffffffffffffffffffffffffffffffff\n      mul\n      not\n      and\n      swap1\n      sstore\n      0x01\n      dup3\n      add\n      exp(0x0100, 0x14)\n      dup2\n      sload\n      swap1\n      0xff\n      mul\n      not\n      and\n      swap1\n      sstore\n      pop\n      pop\n        /* \"LuckyRedEnvelopeV2.sol\":16879:16882  i++ */\n      dup1\n      dup1\n      tag_318\n      swap1\n      tag_163\n      jump\t// in\n    tag_318:\n      swap2\n      pop\n      pop\n        /* \"LuckyRedEnvelopeV2.sol\":16825:16934  for (uint256 i = 0; i < _redEnvelopes[_id].userTxNum; i++) {... */\n      jump(tag_315)\n    tag_316:\n      pop\n        /* \"LuckyRedEnvelopeV2.sol\":16951:16964  _redEnvelopes */\n      0x05\n        /* \"LuckyRedEnvelopeV2.sol\":16951:16969  _redEnvelopes[_id] */\n      0x00\n        /* \"LuckyRedEnvelopeV2.sol\":16965:16968  _id */\n      dup3\n        /* \"LuckyRedEnvelopeV2.sol\":16951:16969  _redEnvelopes[_id] */\n      dup2\n      mstore\n      0x20\n      add\n      swap1\n      dup2\n      mstore\n      0x20\n      add\n      0x00\n      keccak256\n      0x00\n        /* \"LuckyRedEnvelopeV2.sol\":16944:16969  delete _redEnvelopes[_id] */\n      dup1\n      dup3\n      add\n      exp(0x0100, 0x00)\n      dup2\n      sload\n      swap1\n      0xffffffffffffffffffffffffffffffffffffffff\n      mul\n      not\n      and\n      swap1\n      sstore\n      0x00\n      dup3\n      add\n      exp(0x0100, 0x14)\n      dup2\n      sload\n      swap1\n      0xff\n      mul\n      not\n      and\n      swap1\n      sstore\n      0x01\n      dup3\n      add\n      0x00\n      swap1\n      sstore\n      0x02\n      dup3\n      add\n      0x00\n      swap1\n      sstore\n      0x03\n      dup3\n      add\n      0x00\n      swap1\n      sstore\n      0x04\n      dup3\n      add\n      0x00\n      swap1\n      sstore\n      0x05\n      dup3\n      add\n      0x00\n      swap1\n      sstore\n      0x06\n      dup3\n      add\n      0x00\n      swap1\n      sstore\n      0x07\n      dup3\n      add\n      0x00\n      swap1\n      sstore\n      0x08\n      dup3\n      add\n      0x00\n      swap1\n      sstore\n      0x09\n      dup3\n      add\n      0x00\n      swap1\n      sstore\n      0x0a\n      dup3\n      add\n      0x00\n      swap1\n      sstore\n      0x0b\n      dup3\n      add\n      0x00\n      swap1\n      sstore\n      0x0c\n      dup3\n      add\n      0x00\n      swap1\n      sstore\n      0x0d\n      dup3\n      add\n      exp(0x0100, 0x00)\n      dup2\n      sload\n      swap1\n      0xff\n      mul\n      not\n      and\n      swap1\n      sstore\n      pop\n      pop\n        /* \"LuckyRedEnvelopeV2.sol\":16570:16977  function _removeEnvelope(uint256 _id)internal{... */\n      pop\n      jump\t// out\n        /* \"LuckyRedEnvelopeV2.sol\":15029:15637  function _getSortRandoms(uint256 _seed,uint256 _num,uint256 _range) internal pure returns(uint256[] memory){... */\n    tag_200:\n        /* \"LuckyRedEnvelopeV2.sol\":15119:15135  uint256[] memory */\n      0x60\n        /* \"LuckyRedEnvelopeV2.sol\":15147:15171  uint256[] memory randons */\n      0x00\n        /* \"LuckyRedEnvelopeV2.sol\":15188:15192  _num */\n      dup4\n        /* \"LuckyRedEnvelopeV2.sol\":15174:15193  new uint256[](_num) */\n      0xffffffffffffffff\n      dup2\n      gt\n      iszero\n      tag_320\n      jumpi\n      tag_321\n      tag_322\n      jump\t// in\n    tag_321:\n    tag_320:\n      mload(0x40)\n      swap1\n      dup1\n      dup3\n      mstore\n      dup1\n      0x20\n      mul\n      0x20\n      add\n      dup3\n      add\n      0x40\n      mstore\n      dup1\n      iszero\n      tag_323\n      jumpi\n      dup2\n      0x20\n      add\n      0x20\n      dup3\n      mul\n      dup1\n      calldatasize\n      dup4\n      calldatacopy\n      dup1\n      dup3\n      add\n      swap2\n      pop\n      pop\n      swap1\n      pop\n    tag_323:\n      pop\n        /* \"LuckyRedEnvelopeV2.sol\":15147:15193  uint256[] memory randons = new uint256[](_num) */\n      swap1\n      pop\n        /* \"LuckyRedEnvelopeV2.sol\":15204:15216  uint256 seed */\n      0x00\n        /* \"LuckyRedEnvelopeV2.sol\":15219:15224  _seed */\n      dup6\n        /* \"LuckyRedEnvelopeV2.sol\":15204:15224  uint256 seed = _seed */\n      swap1\n      pop\n        /* \"LuckyRedEnvelopeV2.sol\":15240:15249  uint256 i */\n      0x00\n        /* \"LuckyRedEnvelopeV2.sol\":15235:15570  for (uint256 i = 0; i < _num - 1; i++){... */\n    tag_324:\n        /* \"LuckyRedEnvelopeV2.sol\":15266:15267  1 */\n      0x01\n        /* \"LuckyRedEnvelopeV2.sol\":15259:15263  _num */\n      dup7\n        /* \"LuckyRedEnvelopeV2.sol\":15259:15267  _num - 1 */\n      tag_327\n      swap2\n      swap1\n      tag_328\n      jump\t// in\n    tag_327:\n        /* \"LuckyRedEnvelopeV2.sol\":15255:15256  i */\n      dup2\n        /* \"LuckyRedEnvelopeV2.sol\":15255:15267  i < _num - 1 */\n      lt\n        /* \"LuckyRedEnvelopeV2.sol\":15235:15570  for (uint256 i = 0; i < _num - 1; i++){... */\n      iszero\n      tag_325\n      jumpi\n        /* \"LuckyRedEnvelopeV2.sol\":15295:15316  _deriveRandom(seed,i) */\n      tag_329\n        /* \"LuckyRedEnvelopeV2.sol\":15309:15313  seed */\n      dup3\n        /* \"LuckyRedEnvelopeV2.sol\":15314:15315  i */\n      dup3\n        /* \"LuckyRedEnvelopeV2.sol\":15295:15308  _deriveRandom */\n      tag_330\n        /* \"LuckyRedEnvelopeV2.sol\":15295:15316  _deriveRandom(seed,i) */\n      jump\t// in\n    tag_329:\n        /* \"LuckyRedEnvelopeV2.sol\":15288:15316  seed = _deriveRandom(seed,i) */\n      swap2\n      pop\n        /* \"LuckyRedEnvelopeV2.sol\":15331:15344  uint256 value */\n      0x00\n        /* \"LuckyRedEnvelopeV2.sol\":15354:15360  _range */\n      dup6\n        /* \"LuckyRedEnvelopeV2.sol\":15347:15351  seed */\n      dup4\n        /* \"LuckyRedEnvelopeV2.sol\":15347:15360  seed % _range */\n      tag_331\n      swap2\n      swap1\n      tag_332\n      jump\t// in\n    tag_331:\n        /* \"LuckyRedEnvelopeV2.sol\":15331:15360  uint256 value = seed % _range */\n      swap1\n      pop\n        /* \"LuckyRedEnvelopeV2.sol\":15375:15384  uint256 j */\n      0x00\n        /* \"LuckyRedEnvelopeV2.sol\":15387:15388  i */\n      dup3\n        /* \"LuckyRedEnvelopeV2.sol\":15375:15388  uint256 j = i */\n      swap1\n      pop\n        /* \"LuckyRedEnvelopeV2.sol\":15403:15526  while((j >= 1) && value < randons[j - 1]){... */\n    tag_333:\n        /* \"LuckyRedEnvelopeV2.sol\":15415:15416  1 */\n      0x01\n        /* \"LuckyRedEnvelopeV2.sol\":15410:15411  j */\n      dup2\n        /* \"LuckyRedEnvelopeV2.sol\":15410:15416  j >= 1 */\n      lt\n      iszero\n        /* \"LuckyRedEnvelopeV2.sol\":15409:15443  (j >= 1) && value < randons[j - 1] */\n      dup1\n      iszero\n      tag_335\n      jumpi\n      pop\n        /* \"LuckyRedEnvelopeV2.sol\":15429:15436  randons */\n      dup5\n        /* \"LuckyRedEnvelopeV2.sol\":15441:15442  1 */\n      0x01\n        /* \"LuckyRedEnvelopeV2.sol\":15437:15438  j */\n      dup3\n        /* \"LuckyRedEnvelopeV2.sol\":15437:15442  j - 1 */\n      tag_336\n      swap2\n      swap1\n      tag_328\n      jump\t// in\n    tag_336:\n        /* \"LuckyRedEnvelopeV2.sol\":15429:15443  randons[j - 1] */\n      dup2\n      mload\n      dup2\n      lt\n      tag_337\n      jumpi\n      tag_338\n      tag_339\n      jump\t// in\n    tag_338:\n    tag_337:\n      0x20\n      mul\n      0x20\n      add\n      add\n      mload\n        /* \"LuckyRedEnvelopeV2.sol\":15421:15426  value */\n      dup3\n        /* \"LuckyRedEnvelopeV2.sol\":15421:15443  value < randons[j - 1] */\n      lt\n        /* \"LuckyRedEnvelopeV2.sol\":15409:15443  (j >= 1) && value < randons[j - 1] */\n    tag_335:\n        /* \"LuckyRedEnvelopeV2.sol\":15403:15526  while((j >= 1) && value < randons[j - 1]){... */\n      iszero\n      tag_334\n      jumpi\n        /* \"LuckyRedEnvelopeV2.sol\":15476:15483  randons */\n      dup5\n        /* \"LuckyRedEnvelopeV2.sol\":15486:15487  1 */\n      0x01\n        /* \"LuckyRedEnvelopeV2.sol\":15484:15485  j */\n      dup3\n        /* \"LuckyRedEnvelopeV2.sol\":15484:15487  j-1 */\n      tag_340\n      swap2\n      swap1\n      tag_328\n      jump\t// in\n    tag_340:\n        /* \"LuckyRedEnvelopeV2.sol\":15476:15488  randons[j-1] */\n      dup2\n      mload\n      dup2\n      lt\n      tag_341\n      jumpi\n      tag_342\n      tag_339\n      jump\t// in\n    tag_342:\n    tag_341:\n      0x20\n      mul\n      0x20\n      add\n      add\n      mload\n        /* \"LuckyRedEnvelopeV2.sol\":15463:15470  randons */\n      dup6\n        /* \"LuckyRedEnvelopeV2.sol\":15471:15472  j */\n      dup3\n        /* \"LuckyRedEnvelopeV2.sol\":15463:15473  randons[j] */\n      dup2\n      mload\n      dup2\n      lt\n      tag_343\n      jumpi\n      tag_344\n      tag_339\n      jump\t// in\n    tag_344:\n    tag_343:\n      0x20\n      mul\n      0x20\n      add\n      add\n        /* \"LuckyRedEnvelopeV2.sol\":15463:15488  randons[j] = randons[j-1] */\n      dup2\n      dup2\n      mstore\n      pop\n      pop\n        /* \"LuckyRedEnvelopeV2.sol\":15507:15510  j-- */\n      dup1\n      dup1\n      tag_345\n      swap1\n      tag_346\n      jump\t// in\n    tag_345:\n      swap2\n      pop\n      pop\n        /* \"LuckyRedEnvelopeV2.sol\":15403:15526  while((j >= 1) && value < randons[j - 1]){... */\n      jump(tag_333)\n    tag_334:\n        /* \"LuckyRedEnvelopeV2.sol\":15553:15558  value */\n      dup2\n        /* \"LuckyRedEnvelopeV2.sol\":15540:15547  randons */\n      dup6\n        /* \"LuckyRedEnvelopeV2.sol\":15548:15549  j */\n      dup3\n        /* \"LuckyRedEnvelopeV2.sol\":15540:15550  randons[j] */\n      dup2\n      mload\n      dup2\n      lt\n      tag_347\n      jumpi\n      tag_348\n      tag_339\n      jump\t// in\n    tag_348:\n    tag_347:\n      0x20\n      mul\n      0x20\n      add\n      add\n        /* \"LuckyRedEnvelopeV2.sol\":15540:15558  randons[j] = value */\n      dup2\n      dup2\n      mstore\n      pop\n      pop\n        /* \"LuckyRedEnvelopeV2.sol\":15273:15570  {... */\n      pop\n      pop\n        /* \"LuckyRedEnvelopeV2.sol\":15269:15272  i++ */\n      dup1\n      dup1\n      tag_349\n      swap1\n      tag_163\n      jump\t// in\n    tag_349:\n      swap2\n      pop\n      pop\n        /* \"LuckyRedEnvelopeV2.sol\":15235:15570  for (uint256 i = 0; i < _num - 1; i++){... */\n      jump(tag_324)\n    tag_325:\n      pop\n        /* \"LuckyRedEnvelopeV2.sol\":15598:15604  _range */\n      dup4\n        /* \"LuckyRedEnvelopeV2.sol\":15580:15587  randons */\n      dup3\n        /* \"LuckyRedEnvelopeV2.sol\":15593:15594  1 */\n      0x01\n        /* \"LuckyRedEnvelopeV2.sol\":15588:15592  _num */\n      dup8\n        /* \"LuckyRedEnvelopeV2.sol\":15588:15594  _num-1 */\n      tag_350\n      swap2\n      swap1\n      tag_328\n      jump\t// in\n    tag_350:\n        /* \"LuckyRedEnvelopeV2.sol\":15580:15595  randons[_num-1] */\n      dup2\n      mload\n      dup2\n      lt\n      tag_351\n      jumpi\n      tag_352\n      tag_339\n      jump\t// in\n    tag_352:\n    tag_351:\n      0x20\n      mul\n      0x20\n      add\n      add\n        /* \"LuckyRedEnvelopeV2.sol\":15580:15604  randons[_num-1] = _range */\n      dup2\n      dup2\n      mstore\n      pop\n      pop\n        /* \"LuckyRedEnvelopeV2.sol\":15622:15629  randons */\n      dup2\n        /* \"LuckyRedEnvelopeV2.sol\":15615:15629  return randons */\n      swap3\n      pop\n      pop\n      pop\n        /* \"LuckyRedEnvelopeV2.sol\":15029:15637  function _getSortRandoms(uint256 _seed,uint256 _num,uint256 _range) internal pure returns(uint256[] memory){... */\n      swap4\n      swap3\n      pop\n      pop\n      pop\n      jump\t// out\n        /* \"LuckyRedEnvelopeV2.sol\":13192:14395  function _calculatePrize(uint256 _id,uint256 _drawNum,uint256[] memory _randomsAmount)internal{... */\n    tag_202:\n        /* \"LuckyRedEnvelopeV2.sol\":13297:13320  uint256 totalSendAmount */\n      0x00\n        /* \"LuckyRedEnvelopeV2.sol\":13335:13354  uint256 userTickets */\n      dup1\n        /* \"LuckyRedEnvelopeV2.sol\":13389:13402  _redEnvelopes */\n      0x05\n        /* \"LuckyRedEnvelopeV2.sol\":13389:13407  _redEnvelopes[_id] */\n      0x00\n        /* \"LuckyRedEnvelopeV2.sol\":13403:13406  _id */\n      dup7\n        /* \"LuckyRedEnvelopeV2.sol\":13389:13407  _redEnvelopes[_id] */\n      dup2\n      mstore\n      0x20\n      add\n      swap1\n      dup2\n      mstore\n      0x20\n      add\n      0x00\n      keccak256\n        /* \"LuckyRedEnvelopeV2.sol\":13389:13418  _redEnvelopes[_id].getTickets */\n      0x06\n      add\n      sload\n        /* \"LuckyRedEnvelopeV2.sol\":13357:13370  _redEnvelopes */\n      0x05\n        /* \"LuckyRedEnvelopeV2.sol\":13357:13375  _redEnvelopes[_id] */\n      0x00\n        /* \"LuckyRedEnvelopeV2.sol\":13371:13374  _id */\n      dup8\n        /* \"LuckyRedEnvelopeV2.sol\":13357:13375  _redEnvelopes[_id] */\n      dup2\n      mstore\n      0x20\n      add\n      swap1\n      dup2\n      mstore\n      0x20\n      add\n      0x00\n      keccak256\n        /* \"LuckyRedEnvelopeV2.sol\":13357:13386  _redEnvelopes[_id].buyTickets */\n      0x05\n      add\n      sload\n        /* \"LuckyRedEnvelopeV2.sol\":13357:13418  _redEnvelopes[_id].buyTickets + _redEnvelopes[_id].getTickets */\n      tag_354\n      swap2\n      swap1\n      tag_122\n      jump\t// in\n    tag_354:\n        /* \"LuckyRedEnvelopeV2.sol\":13335:13418  uint256 userTickets = _redEnvelopes[_id].buyTickets + _redEnvelopes[_id].getTickets */\n      swap1\n      pop\n        /* \"LuckyRedEnvelopeV2.sol\":13500:13509  uint256 i */\n      0x00\n        /* \"LuckyRedEnvelopeV2.sol\":13495:14380  for (uint256 i = 0; i < _drawNum; i++){... */\n    tag_355:\n        /* \"LuckyRedEnvelopeV2.sol\":13519:13527  _drawNum */\n      dup5\n        /* \"LuckyRedEnvelopeV2.sol\":13515:13516  i */\n      dup2\n        /* \"LuckyRedEnvelopeV2.sol\":13515:13527  i < _drawNum */\n      lt\n        /* \"LuckyRedEnvelopeV2.sol\":13495:14380  for (uint256 i = 0; i < _drawNum; i++){... */\n      iszero\n      tag_356\n      jumpi\n        /* \"LuckyRedEnvelopeV2.sol\":13548:13565  uint256 sendValue */\n      0x00\n        /* \"LuckyRedEnvelopeV2.sol\":13588:13603  totalSendAmount */\n      dup4\n        /* \"LuckyRedEnvelopeV2.sol\":13568:13582  _randomsAmount */\n      dup6\n        /* \"LuckyRedEnvelopeV2.sol\":13583:13584  i */\n      dup4\n        /* \"LuckyRedEnvelopeV2.sol\":13568:13585  _randomsAmount[i] */\n      dup2\n      mload\n      dup2\n      lt\n      tag_358\n      jumpi\n      tag_359\n      tag_339\n      jump\t// in\n    tag_359:\n    tag_358:\n      0x20\n      mul\n      0x20\n      add\n      add\n      mload\n        /* \"LuckyRedEnvelopeV2.sol\":13568:13603  _randomsAmount[i] - totalSendAmount */\n      tag_360\n      swap2\n      swap1\n      tag_328\n      jump\t// in\n    tag_360:\n        /* \"LuckyRedEnvelopeV2.sol\":13548:13603  uint256 sendValue = _randomsAmount[i] - totalSendAmount */\n      swap1\n      pop\n        /* \"LuckyRedEnvelopeV2.sol\":13618:13631  uint256 index */\n      0x00\n        /* \"LuckyRedEnvelopeV2.sol\":13634:13635  i */\n      dup3\n        /* \"LuckyRedEnvelopeV2.sol\":13618:13635  uint256 index = i */\n      swap1\n      pop\n        /* \"LuckyRedEnvelopeV2.sol\":13666:13677  userTickets */\n      dup4\n        /* \"LuckyRedEnvelopeV2.sol\":13654:13662  _drawNum */\n      dup8\n        /* \"LuckyRedEnvelopeV2.sol\":13654:13677  _drawNum != userTickets */\n      eq\n        /* \"LuckyRedEnvelopeV2.sol\":13650:14041  if (_drawNum != userTickets){... */\n      tag_361\n      jumpi\n        /* \"LuckyRedEnvelopeV2.sol\":13792:13803  userTickets */\n      dup4\n        /* \"LuckyRedEnvelopeV2.sol\":13755:13789  _deriveRandom(_randomsAmount[i],i) */\n      tag_362\n        /* \"LuckyRedEnvelopeV2.sol\":13769:13783  _randomsAmount */\n      dup8\n        /* \"LuckyRedEnvelopeV2.sol\":13784:13785  i */\n      dup6\n        /* \"LuckyRedEnvelopeV2.sol\":13769:13786  _randomsAmount[i] */\n      dup2\n      mload\n      dup2\n      lt\n      tag_363\n      jumpi\n      tag_364\n      tag_339\n      jump\t// in\n    tag_364:\n    tag_363:\n      0x20\n      mul\n      0x20\n      add\n      add\n      mload\n        /* \"LuckyRedEnvelopeV2.sol\":13787:13788  i */\n      dup6\n        /* \"LuckyRedEnvelopeV2.sol\":13755:13768  _deriveRandom */\n      tag_330\n        /* \"LuckyRedEnvelopeV2.sol\":13755:13789  _deriveRandom(_randomsAmount[i],i) */\n      jump\t// in\n    tag_362:\n        /* \"LuckyRedEnvelopeV2.sol\":13755:13803  _deriveRandom(_randomsAmount[i],i) % userTickets */\n      tag_365\n      swap2\n      swap1\n      tag_332\n      jump\t// in\n    tag_365:\n        /* \"LuckyRedEnvelopeV2.sol\":13747:13803  index = _deriveRandom(_randomsAmount[i],i) % userTickets */\n      swap1\n      pop\n        /* \"LuckyRedEnvelopeV2.sol\":13822:14026  for (;_prizedticketIndex[_id][index] != false;){... */\n    tag_366:\n        /* \"LuckyRedEnvelopeV2.sol\":13862:13867  false */\n      0x00\n        /* \"LuckyRedEnvelopeV2.sol\":13828:13867  _prizedticketIndex[_id][index] != false */\n      iszero\n      iszero\n        /* \"LuckyRedEnvelopeV2.sol\":13828:13846  _prizedticketIndex */\n      0x07\n        /* \"LuckyRedEnvelopeV2.sol\":13828:13851  _prizedticketIndex[_id] */\n      0x00\n        /* \"LuckyRedEnvelopeV2.sol\":13847:13850  _id */\n      dup11\n        /* \"LuckyRedEnvelopeV2.sol\":13828:13851  _prizedticketIndex[_id] */\n      dup2\n      mstore\n      0x20\n      add\n      swap1\n      dup2\n      mstore\n      0x20\n      add\n      0x00\n      keccak256\n        /* \"LuckyRedEnvelopeV2.sol\":13828:13858  _prizedticketIndex[_id][index] */\n      0x00\n        /* \"LuckyRedEnvelopeV2.sol\":13852:13857  index */\n      dup4\n        /* \"LuckyRedEnvelopeV2.sol\":13828:13858  _prizedticketIndex[_id][index] */\n      dup2\n      mstore\n      0x20\n      add\n      swap1\n      dup2\n      mstore\n      0x20\n      add\n      0x00\n      keccak256\n      0x00\n      swap1\n      sload\n      swap1\n      0x0100\n      exp\n      swap1\n      div\n      0xff\n      and\n        /* \"LuckyRedEnvelopeV2.sol\":13828:13867  _prizedticketIndex[_id][index] != false */\n      iszero\n      iszero\n      eq\n        /* \"LuckyRedEnvelopeV2.sol\":13822:14026  for (;_prizedticketIndex[_id][index] != false;){... */\n      tag_367\n      jumpi\n        /* \"LuckyRedEnvelopeV2.sol\":13892:13899  index++ */\n      dup1\n      dup1\n      tag_369\n      swap1\n      tag_163\n      jump\t// in\n    tag_369:\n      swap2\n      pop\n      pop\n        /* \"LuckyRedEnvelopeV2.sol\":13935:13946  userTickets */\n      dup4\n        /* \"LuckyRedEnvelopeV2.sol\":13926:13931  index */\n      dup2\n        /* \"LuckyRedEnvelopeV2.sol\":13926:13946  index == userTickets */\n      sub\n        /* \"LuckyRedEnvelopeV2.sol\":13922:14007  if (index == userTickets){... */\n      tag_370\n      jumpi\n        /* \"LuckyRedEnvelopeV2.sol\":13982:13983  0 */\n      0x00\n        /* \"LuckyRedEnvelopeV2.sol\":13974:13983  index = 0 */\n      swap1\n      pop\n        /* \"LuckyRedEnvelopeV2.sol\":13922:14007  if (index == userTickets){... */\n    tag_370:\n        /* \"LuckyRedEnvelopeV2.sol\":13822:14026  for (;_prizedticketIndex[_id][index] != false;){... */\n      jump(tag_366)\n    tag_367:\n        /* \"LuckyRedEnvelopeV2.sol\":13650:14041  if (_drawNum != userTickets){... */\n    tag_361:\n        /* \"LuckyRedEnvelopeV2.sol\":14088:14092  true */\n      0x01\n        /* \"LuckyRedEnvelopeV2.sol\":14055:14073  _prizedticketIndex */\n      0x07\n        /* \"LuckyRedEnvelopeV2.sol\":14055:14078  _prizedticketIndex[_id] */\n      0x00\n        /* \"LuckyRedEnvelopeV2.sol\":14074:14077  _id */\n      dup11\n        /* \"LuckyRedEnvelopeV2.sol\":14055:14078  _prizedticketIndex[_id] */\n      dup2\n      mstore\n      0x20\n      add\n      swap1\n      dup2\n      mstore\n      0x20\n      add\n      0x00\n      keccak256\n        /* \"LuckyRedEnvelopeV2.sol\":14055:14085  _prizedticketIndex[_id][index] */\n      0x00\n        /* \"LuckyRedEnvelopeV2.sol\":14079:14084  index */\n      dup4\n        /* \"LuckyRedEnvelopeV2.sol\":14055:14085  _prizedticketIndex[_id][index] */\n      dup2\n      mstore\n      0x20\n      add\n      swap1\n      dup2\n      mstore\n      0x20\n      add\n      0x00\n      keccak256\n      0x00\n        /* \"LuckyRedEnvelopeV2.sol\":14055:14092  _prizedticketIndex[_id][index] = true */\n      0x0100\n      exp\n      dup2\n      sload\n      dup2\n      0xff\n      mul\n      not\n      and\n      swap1\n      dup4\n      iszero\n      iszero\n      mul\n      or\n      swap1\n      sstore\n      pop\n        /* \"LuckyRedEnvelopeV2.sol\":14107:14128  Ticket storage ticket */\n      0x00\n        /* \"LuckyRedEnvelopeV2.sol\":14131:14152  _getTicket(_id,index) */\n      tag_371\n        /* \"LuckyRedEnvelopeV2.sol\":14142:14145  _id */\n      dup10\n        /* \"LuckyRedEnvelopeV2.sol\":14146:14151  index */\n      dup4\n        /* \"LuckyRedEnvelopeV2.sol\":14131:14141  _getTicket */\n      tag_372\n        /* \"LuckyRedEnvelopeV2.sol\":14131:14152  _getTicket(_id,index) */\n      jump\t// in\n    tag_371:\n        /* \"LuckyRedEnvelopeV2.sol\":14107:14152  Ticket storage ticket = _getTicket(_id,index) */\n      swap1\n      pop\n        /* \"LuckyRedEnvelopeV2.sol\":14209:14214  index */\n      dup2\n        /* \"LuckyRedEnvelopeV2.sol\":14187:14193  ticket */\n      dup2\n        /* \"LuckyRedEnvelopeV2.sol\":14187:14208  ticket.receiveAddress */\n      0x01\n      add\n      0x00\n      swap1\n      sload\n      swap1\n      0x0100\n      exp\n      swap1\n      div\n      0xffffffffffffffffffffffffffffffffffffffff\n      and\n        /* \"LuckyRedEnvelopeV2.sol\":14172:14254  PrizeDrawn(_id,ticket.receiveAddress,index,sendValue,_redEnvelopes[_id].autoClaim) */\n      0xffffffffffffffffffffffffffffffffffffffff\n      and\n        /* \"LuckyRedEnvelopeV2.sol\":14183:14186  _id */\n      dup11\n        /* \"LuckyRedEnvelopeV2.sol\":14172:14254  PrizeDrawn(_id,ticket.receiveAddress,index,sendValue,_redEnvelopes[_id].autoClaim) */\n      0x927546e38b674f5e5dff7edce9c7afdcf21a35ac03ba70fe8e341f61f2c73ded\n        /* \"LuckyRedEnvelopeV2.sol\":14215:14224  sendValue */\n      dup7\n        /* \"LuckyRedEnvelopeV2.sol\":14225:14238  _redEnvelopes */\n      0x05\n        /* \"LuckyRedEnvelopeV2.sol\":14225:14243  _redEnvelopes[_id] */\n      0x00\n        /* \"LuckyRedEnvelopeV2.sol\":14239:14242  _id */\n      dup16\n        /* \"LuckyRedEnvelopeV2.sol\":14225:14243  _redEnvelopes[_id] */\n      dup2\n      mstore\n      0x20\n      add\n      swap1\n      dup2\n      mstore\n      0x20\n      add\n      0x00\n      keccak256\n        /* \"LuckyRedEnvelopeV2.sol\":14225:14253  _redEnvelopes[_id].autoClaim */\n      0x0d\n      add\n      0x00\n      swap1\n      sload\n      swap1\n      0x0100\n      exp\n      swap1\n      div\n      0xff\n      and\n        /* \"LuckyRedEnvelopeV2.sol\":14172:14254  PrizeDrawn(_id,ticket.receiveAddress,index,sendValue,_redEnvelopes[_id].autoClaim) */\n      mload(0x40)\n      tag_373\n      swap3\n      swap2\n      swap1\n      tag_374\n      jump\t// in\n    tag_373:\n      mload(0x40)\n      dup1\n      swap2\n      sub\n      swap1\n      log4\n        /* \"LuckyRedEnvelopeV2.sol\":14316:14325  sendValue */\n      dup3\n        /* \"LuckyRedEnvelopeV2.sol\":14269:14284  _amount2claimed */\n      0x0a\n        /* \"LuckyRedEnvelopeV2.sol\":14269:14289  _amount2claimed[_id] */\n      0x00\n        /* \"LuckyRedEnvelopeV2.sol\":14285:14288  _id */\n      dup12\n        /* \"LuckyRedEnvelopeV2.sol\":14269:14289  _amount2claimed[_id] */\n      dup2\n      mstore\n      0x20\n      add\n      swap1\n      dup2\n      mstore\n      0x20\n      add\n      0x00\n      keccak256\n        /* \"LuckyRedEnvelopeV2.sol\":14269:14312  _amount2claimed[_id][ticket.receiveAddress] */\n      0x00\n        /* \"LuckyRedEnvelopeV2.sol\":14290:14296  ticket */\n      dup4\n        /* \"LuckyRedEnvelopeV2.sol\":14290:14311  ticket.receiveAddress */\n      0x01\n      add\n      0x00\n      swap1\n      sload\n      swap1\n      0x0100\n      exp\n      swap1\n      div\n      0xffffffffffffffffffffffffffffffffffffffff\n      and\n        /* \"LuckyRedEnvelopeV2.sol\":14269:14312  _amount2claimed[_id][ticket.receiveAddress] */\n      0xffffffffffffffffffffffffffffffffffffffff\n      and\n      0xffffffffffffffffffffffffffffffffffffffff\n      and\n      dup2\n      mstore\n      0x20\n      add\n      swap1\n      dup2\n      mstore\n      0x20\n      add\n      0x00\n      keccak256\n      0x00\n        /* \"LuckyRedEnvelopeV2.sol\":14269:14325  _amount2claimed[_id][ticket.receiveAddress] += sendValue */\n      dup3\n      dup3\n      sload\n      tag_375\n      swap2\n      swap1\n      tag_122\n      jump\t// in\n    tag_375:\n      swap3\n      pop\n      pop\n      dup2\n      swap1\n      sstore\n      pop\n        /* \"LuckyRedEnvelopeV2.sol\":14359:14368  sendValue */\n      dup3\n        /* \"LuckyRedEnvelopeV2.sol\":14340:14368  totalSendAmount += sendValue */\n      dup7\n      tag_376\n      swap2\n      swap1\n      tag_122\n      jump\t// in\n    tag_376:\n      swap6\n      pop\n        /* \"LuckyRedEnvelopeV2.sol\":13533:14380  {... */\n      pop\n      pop\n      pop\n        /* \"LuckyRedEnvelopeV2.sol\":13529:13532  i++ */\n      dup1\n      dup1\n      tag_377\n      swap1\n      tag_163\n      jump\t// in\n    tag_377:\n      swap2\n      pop\n      pop\n        /* \"LuckyRedEnvelopeV2.sol\":13495:14380  for (uint256 i = 0; i < _drawNum; i++){... */\n      jump(tag_355)\n    tag_356:\n      pop\n        /* \"LuckyRedEnvelopeV2.sol\":13286:14395  {... */\n      pop\n      pop\n        /* \"LuckyRedEnvelopeV2.sol\":13192:14395  function _calculatePrize(uint256 _id,uint256 _drawNum,uint256[] memory _randomsAmount)internal{... */\n      pop\n      pop\n      pop\n      jump\t// out\n        /* \"LuckyRedEnvelopeV2.sol\":15940:16434  function _claimPrize(uint256 _id,address _winner)internal {... */\n    tag_209:\n        /* \"LuckyRedEnvelopeV2.sol\":16050:16051  0 */\n      0x00\n        /* \"LuckyRedEnvelopeV2.sol\":16017:16032  _amount2claimed */\n      0x0a\n        /* \"LuckyRedEnvelopeV2.sol\":16017:16037  _amount2claimed[_id] */\n      0x00\n        /* \"LuckyRedEnvelopeV2.sol\":16033:16036  _id */\n      dup5\n        /* \"LuckyRedEnvelopeV2.sol\":16017:16037  _amount2claimed[_id] */\n      dup2\n      mstore\n      0x20\n      add\n      swap1\n      dup2\n      mstore\n      0x20\n      add\n      0x00\n      keccak256\n        /* \"LuckyRedEnvelopeV2.sol\":16017:16046  _amount2claimed[_id][_winner] */\n      0x00\n        /* \"LuckyRedEnvelopeV2.sol\":16038:16045  _winner */\n      dup4\n        /* \"LuckyRedEnvelopeV2.sol\":16017:16046  _amount2claimed[_id][_winner] */\n      0xffffffffffffffffffffffffffffffffffffffff\n      and\n      0xffffffffffffffffffffffffffffffffffffffff\n      and\n      dup2\n      mstore\n      0x20\n      add\n      swap1\n      dup2\n      mstore\n      0x20\n      add\n      0x00\n      keccak256\n      sload\n        /* \"LuckyRedEnvelopeV2.sol\":16017:16051  _amount2claimed[_id][_winner] != 0 */\n      sub\n        /* \"LuckyRedEnvelopeV2.sol\":16009:16064  require(_amount2claimed[_id][_winner] != 0, \"no prize\") */\n      tag_379\n      jumpi\n      mload(0x40)\n      0x08c379a000000000000000000000000000000000000000000000000000000000\n      dup2\n      mstore\n      0x04\n      add\n      tag_380\n      swap1\n      tag_381\n      jump\t// in\n    tag_380:\n      mload(0x40)\n      dup1\n      swap2\n      sub\n      swap1\n      revert\n    tag_379:\n        /* \"LuckyRedEnvelopeV2.sol\":16132:16161  uint256 amountTokenToTransfer */\n      0x00\n        /* \"LuckyRedEnvelopeV2.sol\":16164:16179  _amount2claimed */\n      0x0a\n        /* \"LuckyRedEnvelopeV2.sol\":16164:16184  _amount2claimed[_id] */\n      0x00\n        /* \"LuckyRedEnvelopeV2.sol\":16180:16183  _id */\n      dup5\n        /* \"LuckyRedEnvelopeV2.sol\":16164:16184  _amount2claimed[_id] */\n      dup2\n      mstore\n      0x20\n      add\n      swap1\n      dup2\n      mstore\n      0x20\n      add\n      0x00\n      keccak256\n        /* \"LuckyRedEnvelopeV2.sol\":16164:16193  _amount2claimed[_id][_winner] */\n      0x00\n        /* \"LuckyRedEnvelopeV2.sol\":16185:16192  _winner */\n      dup4\n        /* \"LuckyRedEnvelopeV2.sol\":16164:16193  _amount2claimed[_id][_winner] */\n      0xffffffffffffffffffffffffffffffffffffffff\n      and\n      0xffffffffffffffffffffffffffffffffffffffff\n      and\n      dup2\n      mstore\n      0x20\n      add\n      swap1\n      dup2\n      mstore\n      0x20\n      add\n      0x00\n      keccak256\n      sload\n        /* \"LuckyRedEnvelopeV2.sol\":16132:16193  uint256 amountTokenToTransfer = _amount2claimed[_id][_winner] */\n      swap1\n      pop\n        /* \"LuckyRedEnvelopeV2.sol\":16206:16289  IERC20(_redEnvelopes[_id].ticketToken).safeTransfer(_winner, amountTokenToTransfer) */\n      tag_382\n        /* \"LuckyRedEnvelopeV2.sol\":16258:16265  _winner */\n      dup3\n        /* \"LuckyRedEnvelopeV2.sol\":16267:16288  amountTokenToTransfer */\n      dup3\n        /* \"LuckyRedEnvelopeV2.sol\":16213:16226  _redEnvelopes */\n      0x05\n        /* \"LuckyRedEnvelopeV2.sol\":16213:16231  _redEnvelopes[_id] */\n      0x00\n        /* \"LuckyRedEnvelopeV2.sol\":16227:16230  _id */\n      dup8\n        /* \"LuckyRedEnvelopeV2.sol\":16213:16231  _redEnvelopes[_id] */\n      dup2\n      mstore\n      0x20\n      add\n      swap1\n      dup2\n      mstore\n      0x20\n      add\n      0x00\n      keccak256\n        /* \"LuckyRedEnvelopeV2.sol\":16213:16243  _redEnvelopes[_id].ticketToken */\n      0x00\n      add\n      0x00\n      swap1\n      sload\n      swap1\n      0x0100\n      exp\n      swap1\n      div\n      0xffffffffffffffffffffffffffffffffffffffff\n      and\n        /* \"LuckyRedEnvelopeV2.sol\":16206:16257  IERC20(_redEnvelopes[_id].ticketToken).safeTransfer */\n      0xffffffffffffffffffffffffffffffffffffffff\n      and\n      tag_308\n      swap1\n        /* \"LuckyRedEnvelopeV2.sol\":16206:16289  IERC20(_redEnvelopes[_id].ticketToken).safeTransfer(_winner, amountTokenToTransfer) */\n      swap3\n      swap2\n      swap1\n      0xffffffff\n      and\n      jump\t// in\n    tag_382:\n        /* \"LuckyRedEnvelopeV2.sol\":16307:16322  _amount2claimed */\n      0x0a\n        /* \"LuckyRedEnvelopeV2.sol\":16307:16327  _amount2claimed[_id] */\n      0x00\n        /* \"LuckyRedEnvelopeV2.sol\":16323:16326  _id */\n      dup5\n        /* \"LuckyRedEnvelopeV2.sol\":16307:16327  _amount2claimed[_id] */\n      dup2\n      mstore\n      0x20\n      add\n      swap1\n      dup2\n      mstore\n      0x20\n      add\n      0x00\n      keccak256\n        /* \"LuckyRedEnvelopeV2.sol\":16307:16336  _amount2claimed[_id][_winner] */\n      0x00\n        /* \"LuckyRedEnvelopeV2.sol\":16328:16335  _winner */\n      dup4\n        /* \"LuckyRedEnvelopeV2.sol\":16307:16336  _amount2claimed[_id][_winner] */\n      0xffffffffffffffffffffffffffffffffffffffff\n      and\n      0xffffffffffffffffffffffffffffffffffffffff\n      and\n      dup2\n      mstore\n      0x20\n      add\n      swap1\n      dup2\n      mstore\n      0x20\n      add\n      0x00\n      keccak256\n        /* \"LuckyRedEnvelopeV2.sol\":16300:16336  delete _amount2claimed[_id][_winner] */\n      0x00\n      swap1\n      sstore\n        /* \"LuckyRedEnvelopeV2.sol\":16367:16374  _winner */\n      dup2\n        /* \"LuckyRedEnvelopeV2.sol\":16352:16426  ClaimPrize(_id,_winner,amountTokenToTransfer,_redEnvelopes[_id].autoClaim) */\n      0xffffffffffffffffffffffffffffffffffffffff\n      and\n        /* \"LuckyRedEnvelopeV2.sol\":16363:16366  _id */\n      dup4\n        /* \"LuckyRedEnvelopeV2.sol\":16352:16426  ClaimPrize(_id,_winner,amountTokenToTransfer,_redEnvelopes[_id].autoClaim) */\n      0x268ef67ed0490cc273925a4865e6fbdb4dcf7e0802aad957aa682a78c7618bef\n        /* \"LuckyRedEnvelopeV2.sol\":16375:16396  amountTokenToTransfer */\n      dup4\n        /* \"LuckyRedEnvelopeV2.sol\":16397:16410  _redEnvelopes */\n      0x05\n        /* \"LuckyRedEnvelopeV2.sol\":16397:16415  _redEnvelopes[_id] */\n      0x00\n        /* \"LuckyRedEnvelopeV2.sol\":16411:16414  _id */\n      dup9\n        /* \"LuckyRedEnvelopeV2.sol\":16397:16415  _redEnvelopes[_id] */\n      dup2\n      mstore\n      0x20\n      add\n      swap1\n      dup2\n      mstore\n      0x20\n      add\n      0x00\n      keccak256\n        /* \"LuckyRedEnvelopeV2.sol\":16397:16425  _redEnvelopes[_id].autoClaim */\n      0x0d\n      add\n      0x00\n      swap1\n      sload\n      swap1\n      0x0100\n      exp\n      swap1\n      div\n      0xff\n      and\n        /* \"LuckyRedEnvelopeV2.sol\":16352:16426  ClaimPrize(_id,_winner,amountTokenToTransfer,_redEnvelopes[_id].autoClaim) */\n      mload(0x40)\n      tag_383\n      swap3\n      swap2\n      swap1\n      tag_374\n      jump\t// in\n    tag_383:\n      mload(0x40)\n      dup1\n      swap2\n      sub\n      swap1\n      log3\n        /* \"LuckyRedEnvelopeV2.sol\":15998:16434  {... */\n      pop\n        /* \"LuckyRedEnvelopeV2.sol\":15940:16434  function _claimPrize(uint256 _id,address _winner)internal {... */\n      pop\n      pop\n      jump\t// out\n        /* \"@openzeppelin/contracts/token/ERC20/utils/SafeERC20.sol\":1702:1890  function safeTransferFrom(IERC20 token, address from, address to, uint256 value) internal {... */\n    tag_234:\n        /* \"@openzeppelin/contracts/token/ERC20/utils/SafeERC20.sol\":1802:1883  _callOptionalReturn(token, abi.encodeCall(token.transferFrom, (from, to, value))) */\n      tag_385\n        /* \"@openzeppelin/contracts/token/ERC20/utils/SafeERC20.sol\":1822:1827  token */\n      dup5\n        /* \"@openzeppelin/contracts/token/ERC20/utils/SafeERC20.sol\":1844:1849  token */\n      dup6\n        /* \"@openzeppelin/contracts/token/ERC20/utils/SafeERC20.sol\":1844:1862  token.transferFrom */\n      0xffffffffffffffffffffffffffffffffffffffff\n      and\n      0x23b872dd\n        /* \"@openzeppelin/contracts/token/ERC20/utils/SafeERC20.sol\":1865:1869  from */\n      dup7\n        /* \"@openzeppelin/contracts/token/ERC20/utils/SafeERC20.sol\":1871:1873  to */\n      dup7\n        /* \"@openzeppelin/contracts/token/ERC20/utils/SafeERC20.sol\":1875:1880  value */\n      dup7\n        /* \"@openzeppelin/contracts/token/ERC20/utils/SafeERC20.sol\":1829:1882  abi.encodeCall(token.transferFrom, (from, to, value)) */\n      add(0x24, mload(0x40))\n      tag_386\n      swap4\n      swap3\n      swap2\n      swap1\n      tag_387\n      jump\t// in\n    tag_386:\n      mload(0x40)\n      0x20\n      dup2\n      dup4\n      sub\n      sub\n      dup2\n      mstore\n      swap1\n      0x40\n      mstore\n      swap2\n      pop\n      0xe0\n      shl\n      0x20\n      dup3\n      add\n      dup1\n      mload\n      0xffffffffffffffffffffffffffffffffffffffffffffffffffffffff\n      dup4\n      dup2\n      dup4\n      and\n      or\n      dup4\n      mstore\n      pop\n      pop\n      pop\n      pop\n        /* \"@openzeppelin/contracts/token/ERC20/utils/SafeERC20.sol\":1802:1821  _callOptionalReturn */\n      tag_388\n        /* \"@openzeppelin/contracts/token/ERC20/utils/SafeERC20.sol\":1802:1883  _callOptionalReturn(token, abi.encodeCall(token.transferFrom, (from, to, value))) */\n      jump\t// in\n    tag_385:\n        /* \"@openzeppelin/contracts/token/ERC20/utils/SafeERC20.sol\":1702:1890  function safeTransferFrom(IERC20 token, address from, address to, uint256 value) internal {... */\n      pop\n      pop\n      pop\n      pop\n      jump\t// out\n        /* \"@openzeppelin/contracts/utils/Context.sol\":656:752  function _msgSender() internal view virtual returns (address) {... */\n    tag_296:\n        /* \"@openzeppelin/contracts/utils/Context.sol\":709:716  address */\n      0x00\n        /* \"@openzeppelin/contracts/utils/Context.sol\":735:745  msg.sender */\n      caller\n        /* \"@openzeppelin/contracts/utils/Context.sol\":728:745  return msg.sender */\n      swap1\n      pop\n        /* \"@openzeppelin/contracts/utils/Context.sol\":656:752  function _msgSender() internal view virtual returns (address) {... */\n      swap1\n      jump\t// out\n        /* \"@openzeppelin/contracts/token/ERC20/utils/SafeERC20.sol\":1303:1463  function safeTransfer(IERC20 token, address to, uint256 value) internal {... */\n    tag_308:\n        /* \"@openzeppelin/contracts/token/ERC20/utils/SafeERC20.sol\":1385:1456  _callOptionalReturn(token, abi.encodeCall(token.transfer, (to, value))) */\n      tag_391\n        /* \"@openzeppelin/contracts/token/ERC20/utils/SafeERC20.sol\":1405:1410  token */\n      dup4\n        /* \"@openzeppelin/contracts/token/ERC20/utils/SafeERC20.sol\":1427:1432  token */\n      dup5\n        /* \"@openzeppelin/contracts/token/ERC20/utils/SafeERC20.sol\":1427:1441  token.transfer */\n      0xffffffffffffffffffffffffffffffffffffffff\n      and\n      0xa9059cbb\n        /* \"@openzeppelin/contracts/token/ERC20/utils/SafeERC20.sol\":1444:1446  to */\n      dup6\n        /* \"@openzeppelin/contracts/token/ERC20/utils/SafeERC20.sol\":1448:1453  value */\n      dup6\n        /* \"@openzeppelin/contracts/token/ERC20/utils/SafeERC20.sol\":1412:1455  abi.encodeCall(token.transfer, (to, value)) */\n      add(0x24, mload(0x40))\n      tag_392\n      swap3\n      swap2\n      swap1\n      tag_393\n      jump\t// in\n    tag_392:\n      mload(0x40)\n      0x20\n      dup2\n      dup4\n      sub\n      sub\n      dup2\n      mstore\n      swap1\n      0x40\n      mstore\n      swap2\n      pop\n      0xe0\n      shl\n      0x20\n      dup3\n      add\n      dup1\n      mload\n      0xffffffffffffffffffffffffffffffffffffffffffffffffffffffff\n      dup4\n      dup2\n      dup4\n      and\n      or\n      dup4\n      mstore\n      pop\n      pop\n      pop\n      pop\n        /* \"@openzeppelin/contracts/token/ERC20/utils/SafeERC20.sol\":1385:1404  _callOptionalReturn */\n      tag_388\n        /* \"@openzeppelin/contracts/token/ERC20/utils/SafeERC20.sol\":1385:1456  _callOptionalReturn(token, abi.encodeCall(token.transfer, (to, value))) */\n      jump\t// in\n    tag_391:\n        /* \"@openzeppelin/contracts/token/ERC20/utils/SafeERC20.sol\":1303:1463  function safeTransfer(IERC20 token, address to, uint256 value) internal {... */\n      pop\n      pop\n      pop\n      jump\t// out\n        /* \"LuckyRedEnvelopeV2.sol\":14566:14795  function _deriveRandom(uint256 _seed,uint256 i)internal pure returns(uint256){... */\n    tag_330:\n        /* \"LuckyRedEnvelopeV2.sol\":14635:14642  uint256 */\n      0x00\n        /* \"LuckyRedEnvelopeV2.sol\":14671:14683  uint32 shift */\n      dup1\n        /* \"LuckyRedEnvelopeV2.sol\":14697:14700  256 */\n      0x0100\n        /* \"LuckyRedEnvelopeV2.sol\":14693:14694  i */\n      dup4\n        /* \"LuckyRedEnvelopeV2.sol\":14693:14700  i % 256 */\n      tag_395\n      swap2\n      swap1\n      tag_332\n      jump\t// in\n    tag_395:\n        /* \"LuckyRedEnvelopeV2.sol\":14671:14701  uint32 shift = uint32(i % 256) */\n      swap1\n      pop\n        /* \"LuckyRedEnvelopeV2.sol\":14754:14759  _seed */\n      dup4\n        /* \"LuckyRedEnvelopeV2.sol\":14760:14784  _leftRotate(_seed,shift) */\n      tag_396\n        /* \"LuckyRedEnvelopeV2.sol\":14772:14777  _seed */\n      dup6\n        /* \"LuckyRedEnvelopeV2.sol\":14778:14783  shift */\n      dup4\n        /* \"LuckyRedEnvelopeV2.sol\":14760:14771  _leftRotate */\n      tag_397\n        /* \"LuckyRedEnvelopeV2.sol\":14760:14784  _leftRotate(_seed,shift) */\n      jump\t// in\n    tag_396:\n        /* \"LuckyRedEnvelopeV2.sol\":14737:14785  abi.encodePacked(_seed,_leftRotate(_seed,shift)) */\n      add(0x20, mload(0x40))\n      tag_398\n      swap3\n      swap2\n      swap1\n      tag_399\n      jump\t// in\n    tag_398:\n      mload(0x40)\n      0x20\n      dup2\n      dup4\n      sub\n      sub\n      dup2\n      mstore\n      swap1\n      0x40\n      mstore\n        /* \"LuckyRedEnvelopeV2.sol\":14727:14786  keccak256(abi.encodePacked(_seed,_leftRotate(_seed,shift))) */\n      dup1\n      mload\n      swap1\n      0x20\n      add\n      keccak256\n        /* \"LuckyRedEnvelopeV2.sol\":14719:14787  uint256(keccak256(abi.encodePacked(_seed,_leftRotate(_seed,shift)))) */\n      0x00\n      shr\n        /* \"LuckyRedEnvelopeV2.sol\":14712:14787  return uint256(keccak256(abi.encodePacked(_seed,_leftRotate(_seed,shift)))) */\n      swap2\n      pop\n      pop\n        /* \"LuckyRedEnvelopeV2.sol\":14566:14795  function _deriveRandom(uint256 _seed,uint256 i)internal pure returns(uint256){... */\n      swap3\n      swap2\n      pop\n      pop\n      jump\t// out\n        /* \"LuckyRedEnvelopeV2.sol\":11036:11468  function _getTicket(uint256 _id,uint256 _index) internal view returns (Ticket storage){... */\n    tag_372:\n        /* \"LuckyRedEnvelopeV2.sol\":11107:11121  Ticket storage */\n      0x00\n        /* \"LuckyRedEnvelopeV2.sol\":11133:11150  uint256 ticketNum */\n      dup1\n        /* \"LuckyRedEnvelopeV2.sol\":11153:11154  0 */\n      0x00\n        /* \"LuckyRedEnvelopeV2.sol\":11133:11154  uint256 ticketNum = 0 */\n      swap1\n      pop\n        /* \"LuckyRedEnvelopeV2.sol\":11169:11178  uint256 i */\n      0x00\n        /* \"LuckyRedEnvelopeV2.sol\":11165:11384  for(uint256 i = 0;i < _redEnvelopes[_id].userTxNum;i++){... */\n    tag_401:\n        /* \"LuckyRedEnvelopeV2.sol\":11187:11200  _redEnvelopes */\n      0x05\n        /* \"LuckyRedEnvelopeV2.sol\":11187:11205  _redEnvelopes[_id] */\n      0x00\n        /* \"LuckyRedEnvelopeV2.sol\":11201:11204  _id */\n      dup7\n        /* \"LuckyRedEnvelopeV2.sol\":11187:11205  _redEnvelopes[_id] */\n      dup2\n      mstore\n      0x20\n      add\n      swap1\n      dup2\n      mstore\n      0x20\n      add\n      0x00\n      keccak256\n        /* \"LuckyRedEnvelopeV2.sol\":11187:11215  _redEnvelopes[_id].userTxNum */\n      0x09\n      add\n      sload\n        /* \"LuckyRedEnvelopeV2.sol\":11183:11184  i */\n      dup2\n        /* \"LuckyRedEnvelopeV2.sol\":11183:11215  i < _redEnvelopes[_id].userTxNum */\n      lt\n        /* \"LuckyRedEnvelopeV2.sol\":11165:11384  for(uint256 i = 0;i < _redEnvelopes[_id].userTxNum;i++){... */\n      iszero\n      tag_402\n      jumpi\n        /* \"LuckyRedEnvelopeV2.sol\":11247:11255  _tickets */\n      0x06\n        /* \"LuckyRedEnvelopeV2.sol\":11247:11260  _tickets[_id] */\n      0x00\n        /* \"LuckyRedEnvelopeV2.sol\":11256:11259  _id */\n      dup7\n        /* \"LuckyRedEnvelopeV2.sol\":11247:11260  _tickets[_id] */\n      dup2\n      mstore\n      0x20\n      add\n      swap1\n      dup2\n      mstore\n      0x20\n      add\n      0x00\n      keccak256\n        /* \"LuckyRedEnvelopeV2.sol\":11247:11263  _tickets[_id][i] */\n      0x00\n        /* \"LuckyRedEnvelopeV2.sol\":11261:11262  i */\n      dup3\n        /* \"LuckyRedEnvelopeV2.sol\":11247:11263  _tickets[_id][i] */\n      dup2\n      mstore\n      0x20\n      add\n      swap1\n      dup2\n      mstore\n      0x20\n      add\n      0x00\n      keccak256\n        /* \"LuckyRedEnvelopeV2.sol\":11247:11277  _tickets[_id][i].ticketNumbers */\n      0x00\n      add\n      sload\n        /* \"LuckyRedEnvelopeV2.sol\":11235:11277  ticketNum +=_tickets[_id][i].ticketNumbers */\n      dup3\n      tag_404\n      swap2\n      swap1\n      tag_122\n      jump\t// in\n    tag_404:\n      swap2\n      pop\n        /* \"LuckyRedEnvelopeV2.sol\":11309:11315  _index */\n      dup4\n        /* \"LuckyRedEnvelopeV2.sol\":11296:11305  ticketNum */\n      dup3\n        /* \"LuckyRedEnvelopeV2.sol\":11296:11315  ticketNum >= _index */\n      lt\n        /* \"LuckyRedEnvelopeV2.sol\":11292:11373  if (ticketNum >= _index){... */\n      tag_405\n      jumpi\n        /* \"LuckyRedEnvelopeV2.sol\":11341:11349  _tickets */\n      0x06\n        /* \"LuckyRedEnvelopeV2.sol\":11341:11354  _tickets[_id] */\n      0x00\n        /* \"LuckyRedEnvelopeV2.sol\":11350:11353  _id */\n      dup7\n        /* \"LuckyRedEnvelopeV2.sol\":11341:11354  _tickets[_id] */\n      dup2\n      mstore\n      0x20\n      add\n      swap1\n      dup2\n      mstore\n      0x20\n      add\n      0x00\n      keccak256\n        /* \"LuckyRedEnvelopeV2.sol\":11341:11357  _tickets[_id][i] */\n      0x00\n        /* \"LuckyRedEnvelopeV2.sol\":11355:11356  i */\n      dup3\n        /* \"LuckyRedEnvelopeV2.sol\":11341:11357  _tickets[_id][i] */\n      dup2\n      mstore\n      0x20\n      add\n      swap1\n      dup2\n      mstore\n      0x20\n      add\n      0x00\n      keccak256\n        /* \"LuckyRedEnvelopeV2.sol\":11334:11357  return _tickets[_id][i] */\n      swap3\n      pop\n      pop\n      pop\n      jump(tag_400)\n        /* \"LuckyRedEnvelopeV2.sol\":11292:11373  if (ticketNum >= _index){... */\n    tag_405:\n        /* \"LuckyRedEnvelopeV2.sol\":11216:11219  i++ */\n      dup1\n      dup1\n      tag_406\n      swap1\n      tag_163\n      jump\t// in\n    tag_406:\n      swap2\n      pop\n      pop\n        /* \"LuckyRedEnvelopeV2.sol\":11165:11384  for(uint256 i = 0;i < _redEnvelopes[_id].userTxNum;i++){... */\n      jump(tag_401)\n    tag_402:\n      pop\n        /* \"LuckyRedEnvelopeV2.sol\":11402:11407  false */\n      0x00\n        /* \"LuckyRedEnvelopeV2.sol\":11394:11426  require(false,\"index out range\") */\n      tag_407\n      jumpi\n      mload(0x40)\n      0x08c379a000000000000000000000000000000000000000000000000000000000\n      dup2\n      mstore\n      0x04\n      add\n      tag_408\n      swap1\n      tag_409\n      jump\t// in\n    tag_408:\n      mload(0x40)\n      dup1\n      swap2\n      sub\n      swap1\n      revert\n    tag_407:\n        /* \"LuckyRedEnvelopeV2.sol\":11444:11452  _tickets */\n      0x06\n        /* \"LuckyRedEnvelopeV2.sol\":11444:11457  _tickets[_id] */\n      0x00\n        /* \"LuckyRedEnvelopeV2.sol\":11453:11456  _id */\n      dup6\n        /* \"LuckyRedEnvelopeV2.sol\":11444:11457  _tickets[_id] */\n      dup2\n      mstore\n      0x20\n      add\n      swap1\n      dup2\n      mstore\n      0x20\n      add\n      0x00\n      keccak256\n        /* \"LuckyRedEnvelopeV2.sol\":11444:11460  _tickets[_id][0] */\n      0x00\n        /* \"LuckyRedEnvelopeV2.sol\":11458:11459  0 */\n      dup1\n        /* \"LuckyRedEnvelopeV2.sol\":11444:11460  _tickets[_id][0] */\n      dup2\n      mstore\n      0x20\n      add\n      swap1\n      dup2\n      mstore\n      0x20\n      add\n      0x00\n      keccak256\n        /* \"LuckyRedEnvelopeV2.sol\":11437:11460  return _tickets[_id][0] */\n      swap2\n      pop\n      pop\n        /* \"LuckyRedEnvelopeV2.sol\":11036:11468  function _getTicket(uint256 _id,uint256 _index) internal view returns (Ticket storage){... */\n    tag_400:\n      swap3\n      swap2\n      pop\n      pop\n      jump\t// out\n        /* \"@openzeppelin/contracts/token/ERC20/utils/SafeERC20.sol\":4059:4688  function _callOptionalReturn(IERC20 token, bytes memory data) private {... */\n    tag_388:\n        /* \"@openzeppelin/contracts/token/ERC20/utils/SafeERC20.sol\":4478:4501  bytes memory returndata */\n      0x00\n        /* \"@openzeppelin/contracts/token/ERC20/utils/SafeERC20.sol\":4504:4537  address(token).functionCall(data) */\n      tag_411\n        /* \"@openzeppelin/contracts/token/ERC20/utils/SafeERC20.sol\":4532:4536  data */\n      dup3\n        /* \"@openzeppelin/contracts/token/ERC20/utils/SafeERC20.sol\":4512:4517  token */\n      dup5\n        /* \"@openzeppelin/contracts/token/ERC20/utils/SafeERC20.sol\":4504:4531  address(token).functionCall */\n      0xffffffffffffffffffffffffffffffffffffffff\n      and\n      tag_412\n      swap1\n        /* \"@openzeppelin/contracts/token/ERC20/utils/SafeERC20.sol\":4504:4537  address(token).functionCall(data) */\n      swap2\n      swap1\n      0xffffffff\n      and\n      jump\t// in\n    tag_411:\n        /* \"@openzeppelin/contracts/token/ERC20/utils/SafeERC20.sol\":4478:4537  bytes memory returndata = address(token).functionCall(data) */\n      swap1\n      pop\n        /* \"@openzeppelin/contracts/token/ERC20/utils/SafeERC20.sol\":4572:4573  0 */\n      0x00\n        /* \"@openzeppelin/contracts/token/ERC20/utils/SafeERC20.sol\":4551:4561  returndata */\n      dup2\n        /* \"@openzeppelin/contracts/token/ERC20/utils/SafeERC20.sol\":4551:4568  returndata.length */\n      mload\n        /* \"@openzeppelin/contracts/token/ERC20/utils/SafeERC20.sol\":4551:4573  returndata.length != 0 */\n      eq\n      iszero\n        /* \"@openzeppelin/contracts/token/ERC20/utils/SafeERC20.sol\":4551:4608  returndata.length != 0 && !abi.decode(returndata, (bool)) */\n      dup1\n      iszero\n      tag_413\n      jumpi\n      pop\n        /* \"@openzeppelin/contracts/token/ERC20/utils/SafeERC20.sol\":4589:4599  returndata */\n      dup1\n        /* \"@openzeppelin/contracts/token/ERC20/utils/SafeERC20.sol\":4578:4608  abi.decode(returndata, (bool)) */\n      dup1\n      0x20\n      add\n      swap1\n      mload\n      dup2\n      add\n      swap1\n      tag_414\n      swap2\n      swap1\n      tag_415\n      jump\t// in\n    tag_414:\n        /* \"@openzeppelin/contracts/token/ERC20/utils/SafeERC20.sol\":4577:4608  !abi.decode(returndata, (bool)) */\n      iszero\n        /* \"@openzeppelin/contracts/token/ERC20/utils/SafeERC20.sol\":4551:4608  returndata.length != 0 && !abi.decode(returndata, (bool)) */\n    tag_413:\n        /* \"@openzeppelin/contracts/token/ERC20/utils/SafeERC20.sol\":4547:4682  if (returndata.length != 0 && !abi.decode(returndata, (bool))) {... */\n      iszero\n      tag_416\n      jumpi\n        /* \"@openzeppelin/contracts/token/ERC20/utils/SafeERC20.sol\":4664:4669  token */\n      dup3\n        /* \"@openzeppelin/contracts/token/ERC20/utils/SafeERC20.sol\":4631:4671  SafeERC20FailedOperation(address(token)) */\n      mload(0x40)\n      0x5274afe700000000000000000000000000000000000000000000000000000000\n      dup2\n      mstore\n      0x04\n      add\n      tag_417\n      swap2\n      swap1\n      tag_44\n      jump\t// in\n    tag_417:\n      mload(0x40)\n      dup1\n      swap2\n      sub\n      swap1\n      revert\n        /* \"@openzeppelin/contracts/token/ERC20/utils/SafeERC20.sol\":4547:4682  if (returndata.length != 0 && !abi.decode(returndata, (bool))) {... */\n    tag_416:\n        /* \"@openzeppelin/contracts/token/ERC20/utils/SafeERC20.sol\":4129:4688  {... */\n      pop\n        /* \"@openzeppelin/contracts/token/ERC20/utils/SafeERC20.sol\":4059:4688  function _callOptionalReturn(IERC20 token, bytes memory data) private {... */\n      pop\n      pop\n      jump\t// out\n        /* \"LuckyRedEnvelopeV2.sol\":14405:14558  function _leftRotate(uint256 _value,uint32 _shift)internal pure returns(uint256){... */\n    tag_397:\n        /* \"LuckyRedEnvelopeV2.sol\":14477:14484  uint256 */\n      0x00\n        /* \"LuckyRedEnvelopeV2.sol\":14542:14548  _shift */\n      dup2\n        /* \"LuckyRedEnvelopeV2.sol\":14536:14539  256 */\n      0x0100\n        /* \"LuckyRedEnvelopeV2.sol\":14536:14548  256 - _shift */\n      tag_419\n      swap2\n      swap1\n      tag_420\n      jump\t// in\n    tag_419:\n        /* \"LuckyRedEnvelopeV2.sol\":14525:14549  _value >> (256 - _shift) */\n      0xffffffff\n      and\n        /* \"LuckyRedEnvelopeV2.sol\":14525:14531  _value */\n      dup4\n        /* \"LuckyRedEnvelopeV2.sol\":14525:14549  _value >> (256 - _shift) */\n      swap1\n      shr\n        /* \"LuckyRedEnvelopeV2.sol\":14514:14520  _shift */\n      dup3\n        /* \"LuckyRedEnvelopeV2.sol\":14504:14520  _value << _shift */\n      0xffffffff\n      and\n        /* \"LuckyRedEnvelopeV2.sol\":14504:14510  _value */\n      dup5\n        /* \"LuckyRedEnvelopeV2.sol\":14504:14520  _value << _shift */\n      swap1\n      shl\n        /* \"LuckyRedEnvelopeV2.sol\":14503:14550  (_value << _shift) | (_value >> (256 - _shift)) */\n      or\n        /* \"LuckyRedEnvelopeV2.sol\":14496:14550  return (_value << _shift) | (_value >> (256 - _shift)) */\n      swap1\n      pop\n        /* \"LuckyRedEnvelopeV2.sol\":14405:14558  function _leftRotate(uint256 _value,uint32 _shift)internal pure returns(uint256){... */\n      swap3\n      swap2\n      pop\n      pop\n      jump\t// out\n        /* \"@openzeppelin/contracts/utils/Address.sol\":2705:2856  function functionCall(address target, bytes memory data) internal returns (bytes memory) {... */\n    tag_412:\n        /* \"@openzeppelin/contracts/utils/Address.sol\":2780:2792  bytes memory */\n      0x60\n        /* \"@openzeppelin/contracts/utils/Address.sol\":2811:2849  functionCallWithValue(target, data, 0) */\n      tag_422\n        /* \"@openzeppelin/contracts/utils/Address.sol\":2833:2839  target */\n      dup4\n        /* \"@openzeppelin/contracts/utils/Address.sol\":2841:2845  data */\n      dup4\n        /* \"@openzeppelin/contracts/utils/Address.sol\":2847:2848  0 */\n      0x00\n        /* \"@openzeppelin/contracts/utils/Address.sol\":2811:2832  functionCallWithValue */\n      tag_423\n        /* \"@openzeppelin/contracts/utils/Address.sol\":2811:2849  functionCallWithValue(target, data, 0) */\n      jump\t// in\n    tag_422:\n        /* \"@openzeppelin/contracts/utils/Address.sol\":2804:2849  return functionCallWithValue(target, data, 0) */\n      swap1\n      pop\n        /* \"@openzeppelin/contracts/utils/Address.sol\":2705:2856  function functionCall(address target, bytes memory data) internal returns (bytes memory) {... */\n      swap3\n      swap2\n      pop\n      pop\n      jump\t// out\n        /* \"@openzeppelin/contracts/utils/Address.sol\":3180:3572  function functionCallWithValue(address target, bytes memory data, uint256 value) internal returns (bytes memory) {... */\n    tag_423:\n        /* \"@openzeppelin/contracts/utils/Address.sol\":3279:3291  bytes memory */\n      0x60\n        /* \"@openzeppelin/contracts/utils/Address.sol\":3331:3336  value */\n      dup2\n        /* \"@openzeppelin/contracts/utils/Address.sol\":3307:3328  address(this).balance */\n      selfbalance\n        /* \"@openzeppelin/contracts/utils/Address.sol\":3307:3336  address(this).balance < value */\n      lt\n        /* \"@openzeppelin/contracts/utils/Address.sol\":3303:3411  if (address(this).balance < value) {... */\n      iszero\n      tag_425\n      jumpi\n        /* \"@openzeppelin/contracts/utils/Address.sol\":3394:3398  this */\n      address\n        /* \"@openzeppelin/contracts/utils/Address.sol\":3359:3400  AddressInsufficientBalance(address(this)) */\n      mload(0x40)\n      0xcd78605900000000000000000000000000000000000000000000000000000000\n      dup2\n      mstore\n      0x04\n      add\n      tag_426\n      swap2\n      swap1\n      tag_44\n      jump\t// in\n    tag_426:\n      mload(0x40)\n      dup1\n      swap2\n      sub\n      swap1\n      revert\n        /* \"@openzeppelin/contracts/utils/Address.sol\":3303:3411  if (address(this).balance < value) {... */\n    tag_425:\n        /* \"@openzeppelin/contracts/utils/Address.sol\":3421:3433  bool success */\n      0x00\n        /* \"@openzeppelin/contracts/utils/Address.sol\":3435:3458  bytes memory returndata */\n      dup1\n        /* \"@openzeppelin/contracts/utils/Address.sol\":3462:3468  target */\n      dup6\n        /* \"@openzeppelin/contracts/utils/Address.sol\":3462:3473  target.call */\n      0xffffffffffffffffffffffffffffffffffffffff\n      and\n        /* \"@openzeppelin/contracts/utils/Address.sol\":3481:3486  value */\n      dup5\n        /* \"@openzeppelin/contracts/utils/Address.sol\":3488:3492  data */\n      dup7\n        /* \"@openzeppelin/contracts/utils/Address.sol\":3462:3493  target.call{value: value}(data) */\n      mload(0x40)\n      tag_427\n      swap2\n      swap1\n      tag_428\n      jump\t// in\n    tag_427:\n      0x00\n      mload(0x40)\n      dup1\n      dup4\n      sub\n      dup2\n      dup6\n      dup8\n      gas\n      call\n      swap3\n      pop\n      pop\n      pop\n      returndatasize\n      dup1\n      0x00\n      dup2\n      eq\n      tag_431\n      jumpi\n      mload(0x40)\n      swap2\n      pop\n      and(add(returndatasize, 0x3f), not(0x1f))\n      dup3\n      add\n      0x40\n      mstore\n      returndatasize\n      dup3\n      mstore\n      returndatasize\n      0x00\n      0x20\n      dup5\n      add\n      returndatacopy\n      jump(tag_430)\n    tag_431:\n      0x60\n      swap2\n      pop\n    tag_430:\n      pop\n        /* \"@openzeppelin/contracts/utils/Address.sol\":3420:3493  (bool success, bytes memory returndata) = target.call{value: value}(data) */\n      swap2\n      pop\n      swap2\n      pop\n        /* \"@openzeppelin/contracts/utils/Address.sol\":3510:3565  verifyCallResultFromTarget(target, success, returndata) */\n      tag_432\n        /* \"@openzeppelin/contracts/utils/Address.sol\":3537:3543  target */\n      dup7\n        /* \"@openzeppelin/contracts/utils/Address.sol\":3545:3552  success */\n      dup4\n        /* \"@openzeppelin/contracts/utils/Address.sol\":3554:3564  returndata */\n      dup4\n        /* \"@openzeppelin/contracts/utils/Address.sol\":3510:3536  verifyCallResultFromTarget */\n      tag_433\n        /* \"@openzeppelin/contracts/utils/Address.sol\":3510:3565  verifyCallResultFromTarget(target, success, returndata) */\n      jump\t// in\n    tag_432:\n        /* \"@openzeppelin/contracts/utils/Address.sol\":3503:3565  return verifyCallResultFromTarget(target, success, returndata) */\n      swap3\n      pop\n      pop\n      pop\n        /* \"@openzeppelin/contracts/utils/Address.sol\":3180:3572  function functionCallWithValue(address target, bytes memory data, uint256 value) internal returns (bytes memory) {... */\n      swap4\n      swap3\n      pop\n      pop\n      pop\n      jump\t// out\n        /* \"@openzeppelin/contracts/utils/Address.sol\":4625:5207  function verifyCallResultFromTarget(... */\n    tag_433:\n        /* \"@openzeppelin/contracts/utils/Address.sol\":4769:4781  bytes memory */\n      0x60\n        /* \"@openzeppelin/contracts/utils/Address.sol\":4798:4805  success */\n      dup3\n        /* \"@openzeppelin/contracts/utils/Address.sol\":4793:5201  if (!success) {... */\n      tag_435\n      jumpi\n        /* \"@openzeppelin/contracts/utils/Address.sol\":4821:4840  _revert(returndata) */\n      tag_436\n        /* \"@openzeppelin/contracts/utils/Address.sol\":4829:4839  returndata */\n      dup3\n        /* \"@openzeppelin/contracts/utils/Address.sol\":4821:4828  _revert */\n      tag_437\n        /* \"@openzeppelin/contracts/utils/Address.sol\":4821:4840  _revert(returndata) */\n      jump\t// in\n    tag_436:\n        /* \"@openzeppelin/contracts/utils/Address.sol\":4793:5201  if (!success) {... */\n      jump(tag_438)\n    tag_435:\n        /* \"@openzeppelin/contracts/utils/Address.sol\":5066:5067  0 */\n      0x00\n        /* \"@openzeppelin/contracts/utils/Address.sol\":5045:5055  returndata */\n      dup3\n        /* \"@openzeppelin/contracts/utils/Address.sol\":5045:5062  returndata.length */\n      mload\n        /* \"@openzeppelin/contracts/utils/Address.sol\":5045:5067  returndata.length == 0 */\n      eq\n        /* \"@openzeppelin/contracts/utils/Address.sol\":5045:5094  returndata.length == 0 && target.code.length == 0 */\n      dup1\n      iszero\n      tag_439\n      jumpi\n      pop\n        /* \"@openzeppelin/contracts/utils/Address.sol\":5093:5094  0 */\n      0x00\n        /* \"@openzeppelin/contracts/utils/Address.sol\":5071:5077  target */\n      dup5\n        /* \"@openzeppelin/contracts/utils/Address.sol\":5071:5089  target.code.length */\n      0xffffffffffffffffffffffffffffffffffffffff\n      and\n      extcodesize\n        /* \"@openzeppelin/contracts/utils/Address.sol\":5071:5094  target.code.length == 0 */\n      eq\n        /* \"@openzeppelin/contracts/utils/Address.sol\":5045:5094  returndata.length == 0 && target.code.length == 0 */\n    tag_439:\n        /* \"@openzeppelin/contracts/utils/Address.sol\":5041:5160  if (returndata.length == 0 && target.code.length == 0) {... */\n      iszero\n      tag_440\n      jumpi\n        /* \"@openzeppelin/contracts/utils/Address.sol\":5138:5144  target */\n      dup4\n        /* \"@openzeppelin/contracts/utils/Address.sol\":5121:5145  AddressEmptyCode(target) */\n      mload(0x40)\n      0x9996b31500000000000000000000000000000000000000000000000000000000\n      dup2\n      mstore\n      0x04\n      add\n      tag_441\n      swap2\n      swap1\n      tag_44\n      jump\t// in\n    tag_441:\n      mload(0x40)\n      dup1\n      swap2\n      sub\n      swap1\n      revert\n        /* \"@openzeppelin/contracts/utils/Address.sol\":5041:5160  if (returndata.length == 0 && target.code.length == 0) {... */\n    tag_440:\n        /* \"@openzeppelin/contracts/utils/Address.sol\":5180:5190  returndata */\n      dup2\n        /* \"@openzeppelin/contracts/utils/Address.sol\":5173:5190  return returndata */\n      swap1\n      pop\n      jump(tag_434)\n        /* \"@openzeppelin/contracts/utils/Address.sol\":4793:5201  if (!success) {... */\n    tag_438:\n        /* \"@openzeppelin/contracts/utils/Address.sol\":4625:5207  function verifyCallResultFromTarget(... */\n    tag_434:\n      swap4\n      swap3\n      pop\n      pop\n      pop\n      jump\t// out\n        /* \"@openzeppelin/contracts/utils/Address.sol\":5743:6259  function _revert(bytes memory returndata) private pure {... */\n    tag_437:\n        /* \"@openzeppelin/contracts/utils/Address.sol\":5894:5895  0 */\n      0x00\n        /* \"@openzeppelin/contracts/utils/Address.sol\":5874:5884  returndata */\n      dup2\n        /* \"@openzeppelin/contracts/utils/Address.sol\":5874:5891  returndata.length */\n      mload\n        /* \"@openzeppelin/contracts/utils/Address.sol\":5874:5895  returndata.length > 0 */\n      gt\n        /* \"@openzeppelin/contracts/utils/Address.sol\":5870:6253  if (returndata.length > 0) {... */\n      iszero\n      tag_443\n      jumpi\n        /* \"@openzeppelin/contracts/utils/Address.sol\":6102:6112  returndata */\n      dup1\n        /* \"@openzeppelin/contracts/utils/Address.sol\":6096:6113  mload(returndata) */\n      mload\n        /* \"@openzeppelin/contracts/utils/Address.sol\":6158:6173  returndata_size */\n      dup1\n        /* \"@openzeppelin/contracts/utils/Address.sol\":6145:6155  returndata */\n      dup3\n        /* \"@openzeppelin/contracts/utils/Address.sol\":6141:6143  32 */\n      0x20\n        /* \"@openzeppelin/contracts/utils/Address.sol\":6137:6156  add(32, returndata) */\n      add\n        /* \"@openzeppelin/contracts/utils/Address.sol\":6130:6174  revert(add(32, returndata), returndata_size) */\n      revert\n        /* \"@openzeppelin/contracts/utils/Address.sol\":5870:6253  if (returndata.length > 0) {... */\n    tag_443:\n        /* \"@openzeppelin/contracts/utils/Address.sol\":6225:6242  FailedInnerCall() */\n      mload(0x40)\n      0x1425ea4200000000000000000000000000000000000000000000000000000000\n      dup2\n      mstore\n      0x04\n      add\n      mload(0x40)\n      dup1\n      swap2\n      sub\n      swap1\n      revert\n        /* \"#utility.yul\":88:205   */\n    tag_446:\n        /* \"#utility.yul\":197:198   */\n      0x00\n        /* \"#utility.yul\":194:195   */\n      dup1\n        /* \"#utility.yul\":187:199   */\n      revert\n        /* \"#utility.yul\":334:411   */\n    tag_448:\n        /* \"#utility.yul\":371:378   */\n      0x00\n        /* \"#utility.yul\":400:405   */\n      dup2\n        /* \"#utility.yul\":389:405   */\n      swap1\n      pop\n        /* \"#utility.yul\":334:411   */\n      swap2\n      swap1\n      pop\n      jump\t// out\n        /* \"#utility.yul\":417:539   */\n    tag_449:\n        /* \"#utility.yul\":490:514   */\n      tag_508\n        /* \"#utility.yul\":508:513   */\n      dup2\n        /* \"#utility.yul\":490:514   */\n      tag_448\n      jump\t// in\n    tag_508:\n        /* \"#utility.yul\":483:488   */\n      dup2\n        /* \"#utility.yul\":480:515   */\n      eq\n        /* \"#utility.yul\":470:533   */\n      tag_509\n      jumpi\n        /* \"#utility.yul\":529:530   */\n      0x00\n        /* \"#utility.yul\":526:527   */\n      dup1\n        /* \"#utility.yul\":519:531   */\n      revert\n        /* \"#utility.yul\":470:533   */\n    tag_509:\n        /* \"#utility.yul\":417:539   */\n      pop\n      jump\t// out\n        /* \"#utility.yul\":545:684   */\n    tag_450:\n        /* \"#utility.yul\":591:596   */\n      0x00\n        /* \"#utility.yul\":629:635   */\n      dup2\n        /* \"#utility.yul\":616:636   */\n      calldataload\n        /* \"#utility.yul\":607:636   */\n      swap1\n      pop\n        /* \"#utility.yul\":645:678   */\n      tag_511\n        /* \"#utility.yul\":672:677   */\n      dup2\n        /* \"#utility.yul\":645:678   */\n      tag_449\n      jump\t// in\n    tag_511:\n        /* \"#utility.yul\":545:684   */\n      swap3\n      swap2\n      pop\n      pop\n      jump\t// out\n        /* \"#utility.yul\":690:1019   */\n    tag_24:\n        /* \"#utility.yul\":749:755   */\n      0x00\n        /* \"#utility.yul\":798:800   */\n      0x20\n        /* \"#utility.yul\":786:795   */\n      dup3\n        /* \"#utility.yul\":777:784   */\n      dup5\n        /* \"#utility.yul\":773:796   */\n      sub\n        /* \"#utility.yul\":769:801   */\n      slt\n        /* \"#utility.yul\":766:885   */\n      iszero\n      tag_513\n      jumpi\n        /* \"#utility.yul\":804:883   */\n      tag_514\n      tag_446\n      jump\t// in\n    tag_514:\n        /* \"#utility.yul\":766:885   */\n    tag_513:\n        /* \"#utility.yul\":924:925   */\n      0x00\n        /* \"#utility.yul\":949:1002   */\n      tag_515\n        /* \"#utility.yul\":994:1001   */\n      dup5\n        /* \"#utility.yul\":985:991   */\n      dup3\n        /* \"#utility.yul\":974:983   */\n      dup6\n        /* \"#utility.yul\":970:992   */\n      add\n        /* \"#utility.yul\":949:1002   */\n      tag_450\n      jump\t// in\n    tag_515:\n        /* \"#utility.yul\":939:1002   */\n      swap2\n      pop\n        /* \"#utility.yul\":895:1012   */\n      pop\n        /* \"#utility.yul\":690:1019   */\n      swap3\n      swap2\n      pop\n      pop\n      jump\t// out\n        /* \"#utility.yul\":1025:1151   */\n    tag_451:\n        /* \"#utility.yul\":1062:1069   */\n      0x00\n        /* \"#utility.yul\":1102:1144   */\n      0xffffffffffffffffffffffffffffffffffffffff\n        /* \"#utility.yul\":1095:1100   */\n      dup3\n        /* \"#utility.yul\":1091:1145   */\n      and\n        /* \"#utility.yul\":1080:1145   */\n      swap1\n      pop\n        /* \"#utility.yul\":1025:1151   */\n      swap2\n      swap1\n      pop\n      jump\t// out\n        /* \"#utility.yul\":1157:1253   */\n    tag_452:\n        /* \"#utility.yul\":1194:1201   */\n      0x00\n        /* \"#utility.yul\":1223:1247   */\n      tag_518\n        /* \"#utility.yul\":1241:1246   */\n      dup3\n        /* \"#utility.yul\":1223:1247   */\n      tag_451\n      jump\t// in\n    tag_518:\n        /* \"#utility.yul\":1212:1247   */\n      swap1\n      pop\n        /* \"#utility.yul\":1157:1253   */\n      swap2\n      swap1\n      pop\n      jump\t// out\n        /* \"#utility.yul\":1259:1381   */\n    tag_453:\n        /* \"#utility.yul\":1332:1356   */\n      tag_520\n        /* \"#utility.yul\":1350:1355   */\n      dup2\n        /* \"#utility.yul\":1332:1356   */\n      tag_452\n      jump\t// in\n    tag_520:\n        /* \"#utility.yul\":1325:1330   */\n      dup2\n        /* \"#utility.yul\":1322:1357   */\n      eq\n        /* \"#utility.yul\":1312:1375   */\n      tag_521\n      jumpi\n        /* \"#utility.yul\":1371:1372   */\n      0x00\n        /* \"#utility.yul\":1368:1369   */\n      dup1\n        /* \"#utility.yul\":1361:1373   */\n      revert\n        /* \"#utility.yul\":1312:1375   */\n    tag_521:\n        /* \"#utility.yul\":1259:1381   */\n      pop\n      jump\t// out\n        /* \"#utility.yul\":1387:1526   */\n    tag_454:\n        /* \"#utility.yul\":1433:1438   */\n      0x00\n        /* \"#utility.yul\":1471:1477   */\n      dup2\n        /* \"#utility.yul\":1458:1478   */\n      calldataload\n        /* \"#utility.yul\":1449:1478   */\n      swap1\n      pop\n        /* \"#utility.yul\":1487:1520   */\n      tag_523\n        /* \"#utility.yul\":1514:1519   */\n      dup2\n        /* \"#utility.yul\":1487:1520   */\n      tag_453\n      jump\t// in\n    tag_523:\n        /* \"#utility.yul\":1387:1526   */\n      swap3\n      swap2\n      pop\n      pop\n      jump\t// out\n        /* \"#utility.yul\":1532:2151   */\n    tag_28:\n        /* \"#utility.yul\":1609:1615   */\n      0x00\n        /* \"#utility.yul\":1617:1623   */\n      dup1\n        /* \"#utility.yul\":1625:1631   */\n      0x00\n        /* \"#utility.yul\":1674:1676   */\n      0x60\n        /* \"#utility.yul\":1662:1671   */\n      dup5\n        /* \"#utility.yul\":1653:1660   */\n      dup7\n        /* \"#utility.yul\":1649:1672   */\n      sub\n        /* \"#utility.yul\":1645:1677   */\n      slt\n        /* \"#utility.yul\":1642:1761   */\n      iszero\n      tag_525\n      jumpi\n        /* \"#utility.yul\":1680:1759   */\n      tag_526\n      tag_446\n      jump\t// in\n    tag_526:\n        /* \"#utility.yul\":1642:1761   */\n    tag_525:\n        /* \"#utility.yul\":1800:1801   */\n      0x00\n        /* \"#utility.yul\":1825:1878   */\n      tag_527\n        /* \"#utility.yul\":1870:1877   */\n      dup7\n        /* \"#utility.yul\":1861:1867   */\n      dup3\n        /* \"#utility.yul\":1850:1859   */\n      dup8\n        /* \"#utility.yul\":1846:1868   */\n      add\n        /* \"#utility.yul\":1825:1878   */\n      tag_450\n      jump\t// in\n    tag_527:\n        /* \"#utility.yul\":1815:1878   */\n      swap4\n      pop\n        /* \"#utility.yul\":1771:1888   */\n      pop\n        /* \"#utility.yul\":1927:1929   */\n      0x20\n        /* \"#utility.yul\":1953:2006   */\n      tag_528\n        /* \"#utility.yul\":1998:2005   */\n      dup7\n        /* \"#utility.yul\":1989:1995   */\n      dup3\n        /* \"#utility.yul\":1978:1987   */\n      dup8\n        /* \"#utility.yul\":1974:1996   */\n      add\n        /* \"#utility.yul\":1953:2006   */\n      tag_454\n      jump\t// in\n    tag_528:\n        /* \"#utility.yul\":1943:2006   */\n      swap3\n      pop\n        /* \"#utility.yul\":1898:2016   */\n      pop\n        /* \"#utility.yul\":2055:2057   */\n      0x40\n        /* \"#utility.yul\":2081:2134   */\n      tag_529\n        /* \"#utility.yul\":2126:2133   */\n      dup7\n        /* \"#utility.yul\":2117:2123   */\n      dup3\n        /* \"#utility.yul\":2106:2115   */\n      dup8\n        /* \"#utility.yul\":2102:2124   */\n      add\n        /* \"#utility.yul\":2081:2134   */\n      tag_450\n      jump\t// in\n    tag_529:\n        /* \"#utility.yul\":2071:2134   */\n      swap2\n      pop\n        /* \"#utility.yul\":2026:2144   */\n      pop\n        /* \"#utility.yul\":1532:2151   */\n      swap3\n      pop\n      swap3\n      pop\n      swap3\n      jump\t// out\n        /* \"#utility.yul\":2157:2337   */\n    tag_92:\n        /* \"#utility.yul\":2205:2282   */\n      0x4e487b7100000000000000000000000000000000000000000000000000000000\n        /* \"#utility.yul\":2202:2203   */\n      0x00\n        /* \"#utility.yul\":2195:2283   */\n      mstore\n        /* \"#utility.yul\":2302:2306   */\n      0x21\n        /* \"#utility.yul\":2299:2300   */\n      0x04\n        /* \"#utility.yul\":2292:2307   */\n      mstore\n        /* \"#utility.yul\":2326:2330   */\n      0x24\n        /* \"#utility.yul\":2323:2324   */\n      0x00\n        /* \"#utility.yul\":2316:2331   */\n      revert\n        /* \"#utility.yul\":2343:2458   */\n    tag_455:\n        /* \"#utility.yul\":2426:2427   */\n      0x04\n        /* \"#utility.yul\":2419:2424   */\n      dup2\n        /* \"#utility.yul\":2416:2428   */\n      lt\n        /* \"#utility.yul\":2406:2452   */\n      tag_532\n      jumpi\n        /* \"#utility.yul\":2432:2450   */\n      tag_533\n      tag_92\n      jump\t// in\n    tag_533:\n        /* \"#utility.yul\":2406:2452   */\n    tag_532:\n        /* \"#utility.yul\":2343:2458   */\n      pop\n      jump\t// out\n        /* \"#utility.yul\":2464:2595   */\n    tag_456:\n        /* \"#utility.yul\":2511:2518   */\n      0x00\n        /* \"#utility.yul\":2540:2545   */\n      dup2\n        /* \"#utility.yul\":2529:2545   */\n      swap1\n      pop\n        /* \"#utility.yul\":2546:2589   */\n      tag_535\n        /* \"#utility.yul\":2583:2588   */\n      dup3\n        /* \"#utility.yul\":2546:2589   */\n      tag_455\n      jump\t// in\n    tag_535:\n        /* \"#utility.yul\":2464:2595   */\n      swap2\n      swap1\n      pop\n      jump\t// out\n        /* \"#utility.yul\":2601:2732   */\n    tag_457:\n        /* \"#utility.yul\":2659:2668   */\n      0x00\n        /* \"#utility.yul\":2692:2726   */\n      tag_537\n        /* \"#utility.yul\":2720:2725   */\n      dup3\n        /* \"#utility.yul\":2692:2726   */\n      tag_456\n      jump\t// in\n    tag_537:\n        /* \"#utility.yul\":2679:2726   */\n      swap1\n      pop\n        /* \"#utility.yul\":2601:2732   */\n      swap2\n      swap1\n      pop\n      jump\t// out\n        /* \"#utility.yul\":2738:2885   */\n    tag_458:\n        /* \"#utility.yul\":2833:2878   */\n      tag_539\n        /* \"#utility.yul\":2872:2877   */\n      dup2\n        /* \"#utility.yul\":2833:2878   */\n      tag_457\n      jump\t// in\n    tag_539:\n        /* \"#utility.yul\":2828:2831   */\n      dup3\n        /* \"#utility.yul\":2821:2879   */\n      mstore\n        /* \"#utility.yul\":2738:2885   */\n      pop\n      pop\n      jump\t// out\n        /* \"#utility.yul\":2891:3129   */\n    tag_34:\n        /* \"#utility.yul\":2992:2996   */\n      0x00\n        /* \"#utility.yul\":3030:3032   */\n      0x20\n        /* \"#utility.yul\":3019:3028   */\n      dup3\n        /* \"#utility.yul\":3015:3033   */\n      add\n        /* \"#utility.yul\":3007:3033   */\n      swap1\n      pop\n        /* \"#utility.yul\":3043:3122   */\n      tag_541\n        /* \"#utility.yul\":3119:3120   */\n      0x00\n        /* \"#utility.yul\":3108:3117   */\n      dup4\n        /* \"#utility.yul\":3104:3121   */\n      add\n        /* \"#utility.yul\":3095:3101   */\n      dup5\n        /* \"#utility.yul\":3043:3122   */\n      tag_458\n      jump\t// in\n    tag_541:\n        /* \"#utility.yul\":2891:3129   */\n      swap3\n      swap2\n      pop\n      pop\n      jump\t// out\n        /* \"#utility.yul\":3135:3609   */\n    tag_37:\n        /* \"#utility.yul\":3203:3209   */\n      0x00\n        /* \"#utility.yul\":3211:3217   */\n      dup1\n        /* \"#utility.yul\":3260:3262   */\n      0x40\n        /* \"#utility.yul\":3248:3257   */\n      dup4\n        /* \"#utility.yul\":3239:3246   */\n      dup6\n        /* \"#utility.yul\":3235:3258   */\n      sub\n        /* \"#utility.yul\":3231:3263   */\n      slt\n        /* \"#utility.yul\":3228:3347   */\n      iszero\n      tag_543\n      jumpi\n        /* \"#utility.yul\":3266:3345   */\n      tag_544\n      tag_446\n      jump\t// in\n    tag_544:\n        /* \"#utility.yul\":3228:3347   */\n    tag_543:\n        /* \"#utility.yul\":3386:3387   */\n      0x00\n        /* \"#utility.yul\":3411:3464   */\n      tag_545\n        /* \"#utility.yul\":3456:3463   */\n      dup6\n        /* \"#utility.yul\":3447:3453   */\n      dup3\n        /* \"#utility.yul\":3436:3445   */\n      dup7\n        /* \"#utility.yul\":3432:3454   */\n      add\n        /* \"#utility.yul\":3411:3464   */\n      tag_450\n      jump\t// in\n    tag_545:\n        /* \"#utility.yul\":3401:3464   */\n      swap3\n      pop\n        /* \"#utility.yul\":3357:3474   */\n      pop\n        /* \"#utility.yul\":3513:3515   */\n      0x20\n        /* \"#utility.yul\":3539:3592   */\n      tag_546\n        /* \"#utility.yul\":3584:3591   */\n      dup6\n        /* \"#utility.yul\":3575:3581   */\n      dup3\n        /* \"#utility.yul\":3564:3573   */\n      dup7\n        /* \"#utility.yul\":3560:3582   */\n      add\n        /* \"#utility.yul\":3539:3592   */\n      tag_450\n      jump\t// in\n    tag_546:\n        /* \"#utility.yul\":3529:3592   */\n      swap2\n      pop\n        /* \"#utility.yul\":3484:3602   */\n      pop\n        /* \"#utility.yul\":3135:3609   */\n      swap3\n      pop\n      swap3\n      swap1\n      pop\n      jump\t// out\n        /* \"#utility.yul\":3615:3733   */\n    tag_459:\n        /* \"#utility.yul\":3702:3726   */\n      tag_548\n        /* \"#utility.yul\":3720:3725   */\n      dup2\n        /* \"#utility.yul\":3702:3726   */\n      tag_452\n      jump\t// in\n    tag_548:\n        /* \"#utility.yul\":3697:3700   */\n      dup3\n        /* \"#utility.yul\":3690:3727   */\n      mstore\n        /* \"#utility.yul\":3615:3733   */\n      pop\n      pop\n      jump\t// out\n        /* \"#utility.yul\":3739:3961   */\n    tag_44:\n        /* \"#utility.yul\":3832:3836   */\n      0x00\n        /* \"#utility.yul\":3870:3872   */\n      0x20\n        /* \"#utility.yul\":3859:3868   */\n      dup3\n        /* \"#utility.yul\":3855:3873   */\n      add\n        /* \"#utility.yul\":3847:3873   */\n      swap1\n      pop\n        /* \"#utility.yul\":3883:3954   */\n      tag_550\n        /* \"#utility.yul\":3951:3952   */\n      0x00\n        /* \"#utility.yul\":3940:3949   */\n      dup4\n        /* \"#utility.yul\":3936:3953   */\n      add\n        /* \"#utility.yul\":3927:3933   */\n      dup5\n        /* \"#utility.yul\":3883:3954   */\n      tag_459\n      jump\t// in\n    tag_550:\n        /* \"#utility.yul\":3739:3961   */\n      swap3\n      swap2\n      pop\n      pop\n      jump\t// out\n        /* \"#utility.yul\":3967:5316   */\n    tag_47:\n        /* \"#utility.yul\":4089:4095   */\n      0x00\n        /* \"#utility.yul\":4097:4103   */\n      dup1\n        /* \"#utility.yul\":4105:4111   */\n      0x00\n        /* \"#utility.yul\":4113:4119   */\n      dup1\n        /* \"#utility.yul\":4121:4127   */\n      0x00\n        /* \"#utility.yul\":4129:4135   */\n      dup1\n        /* \"#utility.yul\":4137:4143   */\n      0x00\n        /* \"#utility.yul\":4145:4151   */\n      dup1\n        /* \"#utility.yul\":4194:4197   */\n      0x0100\n        /* \"#utility.yul\":4182:4191   */\n      dup10\n        /* \"#utility.yul\":4173:4180   */\n      dup12\n        /* \"#utility.yul\":4169:4192   */\n      sub\n        /* \"#utility.yul\":4165:4198   */\n      slt\n        /* \"#utility.yul\":4162:4282   */\n      iszero\n      tag_552\n      jumpi\n        /* \"#utility.yul\":4201:4280   */\n      tag_553\n      tag_446\n      jump\t// in\n    tag_553:\n        /* \"#utility.yul\":4162:4282   */\n    tag_552:\n        /* \"#utility.yul\":4321:4322   */\n      0x00\n        /* \"#utility.yul\":4346:4399   */\n      tag_554\n        /* \"#utility.yul\":4391:4398   */\n      dup12\n        /* \"#utility.yul\":4382:4388   */\n      dup3\n        /* \"#utility.yul\":4371:4380   */\n      dup13\n        /* \"#utility.yul\":4367:4389   */\n      add\n        /* \"#utility.yul\":4346:4399   */\n      tag_454\n      jump\t// in\n    tag_554:\n        /* \"#utility.yul\":4336:4399   */\n      swap9\n      pop\n        /* \"#utility.yul\":4292:4409   */\n      pop\n        /* \"#utility.yul\":4448:4450   */\n      0x20\n        /* \"#utility.yul\":4474:4527   */\n      tag_555\n        /* \"#utility.yul\":4519:4526   */\n      dup12\n        /* \"#utility.yul\":4510:4516   */\n      dup3\n        /* \"#utility.yul\":4499:4508   */\n      dup13\n        /* \"#utility.yul\":4495:4517   */\n      add\n        /* \"#utility.yul\":4474:4527   */\n      tag_450\n      jump\t// in\n    tag_555:\n        /* \"#utility.yul\":4464:4527   */\n      swap8\n      pop\n        /* \"#utility.yul\":4419:4537   */\n      pop\n        /* \"#utility.yul\":4576:4578   */\n      0x40\n        /* \"#utility.yul\":4602:4655   */\n      tag_556\n        /* \"#utility.yul\":4647:4654   */\n      dup12\n        /* \"#utility.yul\":4638:4644   */\n      dup3\n        /* \"#utility.yul\":4627:4636   */\n      dup13\n        /* \"#utility.yul\":4623:4645   */\n      add\n        /* \"#utility.yul\":4602:4655   */\n      tag_450\n      jump\t// in\n    tag_556:\n        /* \"#utility.yul\":4592:4655   */\n      swap7\n      pop\n        /* \"#utility.yul\":4547:4665   */\n      pop\n        /* \"#utility.yul\":4704:4706   */\n      0x60\n        /* \"#utility.yul\":4730:4783   */\n      tag_557\n        /* \"#utility.yul\":4775:4782   */\n      dup12\n        /* \"#utility.yul\":4766:4772   */\n      dup3\n        /* \"#utility.yul\":4755:4764   */\n      dup13\n        /* \"#utility.yul\":4751:4773   */\n      add\n        /* \"#utility.yul\":4730:4783   */\n      tag_450\n      jump\t// in\n    tag_557:\n        /* \"#utility.yul\":4720:4783   */\n      swap6\n      pop\n        /* \"#utility.yul\":4675:4793   */\n      pop\n        /* \"#utility.yul\":4832:4835   */\n      0x80\n        /* \"#utility.yul\":4859:4912   */\n      tag_558\n        /* \"#utility.yul\":4904:4911   */\n      dup12\n        /* \"#utility.yul\":4895:4901   */\n      dup3\n        /* \"#utility.yul\":4884:4893   */\n      dup13\n        /* \"#utility.yul\":4880:4902   */\n      add\n        /* \"#utility.yul\":4859:4912   */\n      tag_450\n      jump\t// in\n    tag_558:\n        /* \"#utility.yul\":4849:4912   */\n      swap5\n      pop\n        /* \"#utility.yul\":4803:4922   */\n      pop\n        /* \"#utility.yul\":4961:4964   */\n      0xa0\n        /* \"#utility.yul\":4988:5041   */\n      tag_559\n        /* \"#utility.yul\":5033:5040   */\n      dup12\n        /* \"#utility.yul\":5024:5030   */\n      dup3\n        /* \"#utility.yul\":5013:5022   */\n      dup13\n        /* \"#utility.yul\":5009:5031   */\n      add\n        /* \"#utility.yul\":4988:5041   */\n      tag_454\n      jump\t// in\n    tag_559:\n        /* \"#utility.yul\":4978:5041   */\n      swap4\n      pop\n        /* \"#utility.yul\":4932:5051   */\n      pop\n        /* \"#utility.yul\":5090:5093   */\n      0xc0\n        /* \"#utility.yul\":5117:5170   */\n      tag_560\n        /* \"#utility.yul\":5162:5169   */\n      dup12\n        /* \"#utility.yul\":5153:5159   */\n      dup3\n        /* \"#utility.yul\":5142:5151   */\n      dup13\n        /* \"#utility.yul\":5138:5160   */\n      add\n        /* \"#utility.yul\":5117:5170   */\n      tag_450\n      jump\t// in\n    tag_560:\n        /* \"#utility.yul\":5107:5170   */\n      swap3\n      pop\n        /* \"#utility.yul\":5061:5180   */\n      pop\n        /* \"#utility.yul\":5219:5222   */\n      0xe0\n        /* \"#utility.yul\":5246:5299   */\n      tag_561\n        /* \"#utility.yul\":5291:5298   */\n      dup12\n        /* \"#utility.yul\":5282:5288   */\n      dup3\n        /* \"#utility.yul\":5271:5280   */\n      dup13\n        /* \"#utility.yul\":5267:5289   */\n      add\n        /* \"#utility.yul\":5246:5299   */\n      tag_450\n      jump\t// in\n    tag_561:\n        /* \"#utility.yul\":5236:5299   */\n      swap2\n      pop\n        /* \"#utility.yul\":5190:5309   */\n      pop\n        /* \"#utility.yul\":3967:5316   */\n      swap3\n      swap6\n      swap9\n      pop\n      swap3\n      swap6\n      swap9\n      swap1\n      swap4\n      swap7\n      pop\n      jump\t// out\n        /* \"#utility.yul\":5322:5412   */\n    tag_460:\n        /* \"#utility.yul\":5356:5363   */\n      0x00\n        /* \"#utility.yul\":5399:5404   */\n      dup2\n        /* \"#utility.yul\":5392:5405   */\n      iszero\n        /* \"#utility.yul\":5385:5406   */\n      iszero\n        /* \"#utility.yul\":5374:5406   */\n      swap1\n      pop\n        /* \"#utility.yul\":5322:5412   */\n      swap2\n      swap1\n      pop\n      jump\t// out\n        /* \"#utility.yul\":5418:5527   */\n    tag_461:\n        /* \"#utility.yul\":5499:5520   */\n      tag_564\n        /* \"#utility.yul\":5514:5519   */\n      dup2\n        /* \"#utility.yul\":5499:5520   */\n      tag_460\n      jump\t// in\n    tag_564:\n        /* \"#utility.yul\":5494:5497   */\n      dup3\n        /* \"#utility.yul\":5487:5521   */\n      mstore\n        /* \"#utility.yul\":5418:5527   */\n      pop\n      pop\n      jump\t// out\n        /* \"#utility.yul\":5533:5743   */\n    tag_52:\n        /* \"#utility.yul\":5620:5624   */\n      0x00\n        /* \"#utility.yul\":5658:5660   */\n      0x20\n        /* \"#utility.yul\":5647:5656   */\n      dup3\n        /* \"#utility.yul\":5643:5661   */\n      add\n        /* \"#utility.yul\":5635:5661   */\n      swap1\n      pop\n        /* \"#utility.yul\":5671:5736   */\n      tag_566\n        /* \"#utility.yul\":5733:5734   */\n      0x00\n        /* \"#utility.yul\":5722:5731   */\n      dup4\n        /* \"#utility.yul\":5718:5735   */\n      add\n        /* \"#utility.yul\":5709:5715   */\n      dup5\n        /* \"#utility.yul\":5671:5736   */\n      tag_461\n      jump\t// in\n    tag_566:\n        /* \"#utility.yul\":5533:5743   */\n      swap3\n      swap2\n      pop\n      pop\n      jump\t// out\n        /* \"#utility.yul\":5749:6078   */\n    tag_55:\n        /* \"#utility.yul\":5808:5814   */\n      0x00\n        /* \"#utility.yul\":5857:5859   */\n      0x20\n        /* \"#utility.yul\":5845:5854   */\n      dup3\n        /* \"#utility.yul\":5836:5843   */\n      dup5\n        /* \"#utility.yul\":5832:5855   */\n      sub\n        /* \"#utility.yul\":5828:5860   */\n      slt\n        /* \"#utility.yul\":5825:5944   */\n      iszero\n      tag_568\n      jumpi\n        /* \"#utility.yul\":5863:5942   */\n      tag_569\n      tag_446\n      jump\t// in\n    tag_569:\n        /* \"#utility.yul\":5825:5944   */\n    tag_568:\n        /* \"#utility.yul\":5983:5984   */\n      0x00\n        /* \"#utility.yul\":6008:6061   */\n      tag_570\n        /* \"#utility.yul\":6053:6060   */\n      dup5\n        /* \"#utility.yul\":6044:6050   */\n      dup3\n        /* \"#utility.yul\":6033:6042   */\n      dup6\n        /* \"#utility.yul\":6029:6051   */\n      add\n        /* \"#utility.yul\":6008:6061   */\n      tag_454\n      jump\t// in\n    tag_570:\n        /* \"#utility.yul\":5998:6061   */\n      swap2\n      pop\n        /* \"#utility.yul\":5954:6071   */\n      pop\n        /* \"#utility.yul\":5749:6078   */\n      swap3\n      swap2\n      pop\n      pop\n      jump\t// out\n        /* \"#utility.yul\":6084:6200   */\n    tag_462:\n        /* \"#utility.yul\":6154:6175   */\n      tag_572\n        /* \"#utility.yul\":6169:6174   */\n      dup2\n        /* \"#utility.yul\":6154:6175   */\n      tag_460\n      jump\t// in\n    tag_572:\n        /* \"#utility.yul\":6147:6152   */\n      dup2\n        /* \"#utility.yul\":6144:6176   */\n      eq\n        /* \"#utility.yul\":6134:6194   */\n      tag_573\n      jumpi\n        /* \"#utility.yul\":6190:6191   */\n      0x00\n        /* \"#utility.yul\":6187:6188   */\n      dup1\n        /* \"#utility.yul\":6180:6192   */\n      revert\n        /* \"#utility.yul\":6134:6194   */\n    tag_573:\n        /* \"#utility.yul\":6084:6200   */\n      pop\n      jump\t// out\n        /* \"#utility.yul\":6206:6339   */\n    tag_463:\n        /* \"#utility.yul\":6249:6254   */\n      0x00\n        /* \"#utility.yul\":6287:6293   */\n      dup2\n        /* \"#utility.yul\":6274:6294   */\n      calldataload\n        /* \"#utility.yul\":6265:6294   */\n      swap1\n      pop\n        /* \"#utility.yul\":6303:6333   */\n      tag_575\n        /* \"#utility.yul\":6327:6332   */\n      dup2\n        /* \"#utility.yul\":6303:6333   */\n      tag_462\n      jump\t// in\n    tag_575:\n        /* \"#utility.yul\":6206:6339   */\n      swap3\n      swap2\n      pop\n      pop\n      jump\t// out\n        /* \"#utility.yul\":6345:6813   */\n    tag_69:\n        /* \"#utility.yul\":6410:6416   */\n      0x00\n        /* \"#utility.yul\":6418:6424   */\n      dup1\n        /* \"#utility.yul\":6467:6469   */\n      0x40\n        /* \"#utility.yul\":6455:6464   */\n      dup4\n        /* \"#utility.yul\":6446:6453   */\n      dup6\n        /* \"#utility.yul\":6442:6465   */\n      sub\n        /* \"#utility.yul\":6438:6470   */\n      slt\n        /* \"#utility.yul\":6435:6554   */\n      iszero\n      tag_577\n      jumpi\n        /* \"#utility.yul\":6473:6552   */\n      tag_578\n      tag_446\n      jump\t// in\n    tag_578:\n        /* \"#utility.yul\":6435:6554   */\n    tag_577:\n        /* \"#utility.yul\":6593:6594   */\n      0x00\n        /* \"#utility.yul\":6618:6671   */\n      tag_579\n        /* \"#utility.yul\":6663:6670   */\n      dup6\n        /* \"#utility.yul\":6654:6660   */\n      dup3\n        /* \"#utility.yul\":6643:6652   */\n      dup7\n        /* \"#utility.yul\":6639:6661   */\n      add\n        /* \"#utility.yul\":6618:6671   */\n      tag_454\n      jump\t// in\n    tag_579:\n        /* \"#utility.yul\":6608:6671   */\n      swap3\n      pop\n        /* \"#utility.yul\":6564:6681   */\n      pop\n        /* \"#utility.yul\":6720:6722   */\n      0x20\n        /* \"#utility.yul\":6746:6796   */\n      tag_580\n        /* \"#utility.yul\":6788:6795   */\n      dup6\n        /* \"#utility.yul\":6779:6785   */\n      dup3\n        /* \"#utility.yul\":6768:6777   */\n      dup7\n        /* \"#utility.yul\":6764:6786   */\n      add\n        /* \"#utility.yul\":6746:6796   */\n      tag_463\n      jump\t// in\n    tag_580:\n        /* \"#utility.yul\":6736:6796   */\n      swap2\n      pop\n        /* \"#utility.yul\":6691:6806   */\n      pop\n        /* \"#utility.yul\":6345:6813   */\n      swap3\n      pop\n      swap3\n      swap1\n      pop\n      jump\t// out\n        /* \"#utility.yul\":6819:6937   */\n    tag_464:\n        /* \"#utility.yul\":6906:6930   */\n      tag_582\n        /* \"#utility.yul\":6924:6929   */\n      dup2\n        /* \"#utility.yul\":6906:6930   */\n      tag_448\n      jump\t// in\n    tag_582:\n        /* \"#utility.yul\":6901:6904   */\n      dup3\n        /* \"#utility.yul\":6894:6931   */\n      mstore\n        /* \"#utility.yul\":6819:6937   */\n      pop\n      pop\n      jump\t// out\n        /* \"#utility.yul\":6943:7165   */\n    tag_74:\n        /* \"#utility.yul\":7036:7040   */\n      0x00\n        /* \"#utility.yul\":7074:7076   */\n      0x20\n        /* \"#utility.yul\":7063:7072   */\n      dup3\n        /* \"#utility.yul\":7059:7077   */\n      add\n        /* \"#utility.yul\":7051:7077   */\n      swap1\n      pop\n        /* \"#utility.yul\":7087:7158   */\n      tag_584\n        /* \"#utility.yul\":7155:7156   */\n      0x00\n        /* \"#utility.yul\":7144:7153   */\n      dup4\n        /* \"#utility.yul\":7140:7157   */\n      add\n        /* \"#utility.yul\":7131:7137   */\n      dup5\n        /* \"#utility.yul\":7087:7158   */\n      tag_464\n      jump\t// in\n    tag_584:\n        /* \"#utility.yul\":6943:7165   */\n      swap3\n      swap2\n      pop\n      pop\n      jump\t// out\n        /* \"#utility.yul\":7171:7494   */\n    tag_80:\n        /* \"#utility.yul\":7227:7233   */\n      0x00\n        /* \"#utility.yul\":7276:7278   */\n      0x20\n        /* \"#utility.yul\":7264:7273   */\n      dup3\n        /* \"#utility.yul\":7255:7262   */\n      dup5\n        /* \"#utility.yul\":7251:7274   */\n      sub\n        /* \"#utility.yul\":7247:7279   */\n      slt\n        /* \"#utility.yul\":7244:7363   */\n      iszero\n      tag_586\n      jumpi\n        /* \"#utility.yul\":7282:7361   */\n      tag_587\n      tag_446\n      jump\t// in\n    tag_587:\n        /* \"#utility.yul\":7244:7363   */\n    tag_586:\n        /* \"#utility.yul\":7402:7403   */\n      0x00\n        /* \"#utility.yul\":7427:7477   */\n      tag_588\n        /* \"#utility.yul\":7469:7476   */\n      dup5\n        /* \"#utility.yul\":7460:7466   */\n      dup3\n        /* \"#utility.yul\":7449:7458   */\n      dup6\n        /* \"#utility.yul\":7445:7467   */\n      add\n        /* \"#utility.yul\":7427:7477   */\n      tag_463\n      jump\t// in\n    tag_588:\n        /* \"#utility.yul\":7417:7477   */\n      swap2\n      pop\n        /* \"#utility.yul\":7373:7487   */\n      pop\n        /* \"#utility.yul\":7171:7494   */\n      swap3\n      swap2\n      pop\n      pop\n      jump\t// out\n        /* \"#utility.yul\":7500:7669   */\n    tag_465:\n        /* \"#utility.yul\":7584:7595   */\n      0x00\n        /* \"#utility.yul\":7618:7624   */\n      dup3\n        /* \"#utility.yul\":7613:7616   */\n      dup3\n        /* \"#utility.yul\":7606:7625   */\n      mstore\n        /* \"#utility.yul\":7658:7662   */\n      0x20\n        /* \"#utility.yul\":7653:7656   */\n      dup3\n        /* \"#utility.yul\":7649:7663   */\n      add\n        /* \"#utility.yul\":7634:7663   */\n      swap1\n      pop\n        /* \"#utility.yul\":7500:7669   */\n      swap3\n      swap2\n      pop\n      pop\n      jump\t// out\n        /* \"#utility.yul\":7675:7837   */\n    tag_466:\n        /* \"#utility.yul\":7815:7829   */\n      0x4e6f74206f70657261746f720000000000000000000000000000000000000000\n        /* \"#utility.yul\":7811:7812   */\n      0x00\n        /* \"#utility.yul\":7803:7809   */\n      dup3\n        /* \"#utility.yul\":7799:7813   */\n      add\n        /* \"#utility.yul\":7792:7830   */\n      mstore\n        /* \"#utility.yul\":7675:7837   */\n      pop\n      jump\t// out\n        /* \"#utility.yul\":7843:8209   */\n    tag_467:\n        /* \"#utility.yul\":7985:7988   */\n      0x00\n        /* \"#utility.yul\":8006:8073   */\n      tag_592\n        /* \"#utility.yul\":8070:8072   */\n      0x0c\n        /* \"#utility.yul\":8065:8068   */\n      dup4\n        /* \"#utility.yul\":8006:8073   */\n      tag_465\n      jump\t// in\n    tag_592:\n        /* \"#utility.yul\":7999:8073   */\n      swap2\n      pop\n        /* \"#utility.yul\":8082:8175   */\n      tag_593\n        /* \"#utility.yul\":8171:8174   */\n      dup3\n        /* \"#utility.yul\":8082:8175   */\n      tag_466\n      jump\t// in\n    tag_593:\n        /* \"#utility.yul\":8200:8202   */\n      0x20\n        /* \"#utility.yul\":8195:8198   */\n      dup3\n        /* \"#utility.yul\":8191:8203   */\n      add\n        /* \"#utility.yul\":8184:8203   */\n      swap1\n      pop\n        /* \"#utility.yul\":7843:8209   */\n      swap2\n      swap1\n      pop\n      jump\t// out\n        /* \"#utility.yul\":8215:8634   */\n    tag_85:\n        /* \"#utility.yul\":8381:8385   */\n      0x00\n        /* \"#utility.yul\":8419:8421   */\n      0x20\n        /* \"#utility.yul\":8408:8417   */\n      dup3\n        /* \"#utility.yul\":8404:8422   */\n      add\n        /* \"#utility.yul\":8396:8422   */\n      swap1\n      pop\n        /* \"#utility.yul\":8468:8477   */\n      dup2\n        /* \"#utility.yul\":8462:8466   */\n      dup2\n        /* \"#utility.yul\":8458:8478   */\n      sub\n        /* \"#utility.yul\":8454:8455   */\n      0x00\n        /* \"#utility.yul\":8443:8452   */\n      dup4\n        /* \"#utility.yul\":8439:8456   */\n      add\n        /* \"#utility.yul\":8432:8479   */\n      mstore\n        /* \"#utility.yul\":8496:8627   */\n      tag_595\n        /* \"#utility.yul\":8622:8626   */\n      dup2\n        /* \"#utility.yul\":8496:8627   */\n      tag_467\n      jump\t// in\n    tag_595:\n        /* \"#utility.yul\":8488:8627   */\n      swap1\n      pop\n        /* \"#utility.yul\":8215:8634   */\n      swap2\n      swap1\n      pop\n      jump\t// out\n        /* \"#utility.yul\":8640:8813   */\n    tag_468:\n        /* \"#utility.yul\":8780:8805   */\n      0x526564456e76656c6f7065206973206e6f74206f70656e000000000000000000\n        /* \"#utility.yul\":8776:8777   */\n      0x00\n        /* \"#utility.yul\":8768:8774   */\n      dup3\n        /* \"#utility.yul\":8764:8778   */\n      add\n        /* \"#utility.yul\":8757:8806   */\n      mstore\n        /* \"#utility.yul\":8640:8813   */\n      pop\n      jump\t// out\n        /* \"#utility.yul\":8819:9185   */\n    tag_469:\n        /* \"#utility.yul\":8961:8964   */\n      0x00\n        /* \"#utility.yul\":8982:9049   */\n      tag_598\n        /* \"#utility.yul\":9046:9048   */\n      0x17\n        /* \"#utility.yul\":9041:9044   */\n      dup4\n        /* \"#utility.yul\":8982:9049   */\n      tag_465\n      jump\t// in\n    tag_598:\n        /* \"#utility.yul\":8975:9049   */\n      swap2\n      pop\n        /* \"#utility.yul\":9058:9151   */\n      tag_599\n        /* \"#utility.yul\":9147:9150   */\n      dup3\n        /* \"#utility.yul\":9058:9151   */\n      tag_468\n      jump\t// in\n    tag_599:\n        /* \"#utility.yul\":9176:9178   */\n      0x20\n        /* \"#utility.yul\":9171:9174   */\n      dup3\n        /* \"#utility.yul\":9167:9179   */\n      add\n        /* \"#utility.yul\":9160:9179   */\n      swap1\n      pop\n        /* \"#utility.yul\":8819:9185   */\n      swap2\n      swap1\n      pop\n      jump\t// out\n        /* \"#utility.yul\":9191:9610   */\n    tag_97:\n        /* \"#utility.yul\":9357:9361   */\n      0x00\n        /* \"#utility.yul\":9395:9397   */\n      0x20\n        /* \"#utility.yul\":9384:9393   */\n      dup3\n        /* \"#utility.yul\":9380:9398   */\n      add\n        /* \"#utility.yul\":9372:9398   */\n      swap1\n      pop\n        /* \"#utility.yul\":9444:9453   */\n      dup2\n        /* \"#utility.yul\":9438:9442   */\n      dup2\n        /* \"#utility.yul\":9434:9454   */\n      sub\n        /* \"#utility.yul\":9430:9431   */\n      0x00\n        /* \"#utility.yul\":9419:9428   */\n      dup4\n        /* \"#utility.yul\":9415:9432   */\n      add\n        /* \"#utility.yul\":9408:9455   */\n      mstore\n        /* \"#utility.yul\":9472:9603   */\n      tag_601\n        /* \"#utility.yul\":9598:9602   */\n      dup2\n        /* \"#utility.yul\":9472:9603   */\n      tag_469\n      jump\t// in\n    tag_601:\n        /* \"#utility.yul\":9464:9603   */\n      swap1\n      pop\n        /* \"#utility.yul\":9191:9610   */\n      swap2\n      swap1\n      pop\n      jump\t// out\n        /* \"#utility.yul\":9616:10058   */\n    tag_101:\n        /* \"#utility.yul\":9765:9769   */\n      0x00\n        /* \"#utility.yul\":9803:9805   */\n      0x60\n        /* \"#utility.yul\":9792:9801   */\n      dup3\n        /* \"#utility.yul\":9788:9806   */\n      add\n        /* \"#utility.yul\":9780:9806   */\n      swap1\n      pop\n        /* \"#utility.yul\":9816:9887   */\n      tag_603\n        /* \"#utility.yul\":9884:9885   */\n      0x00\n        /* \"#utility.yul\":9873:9882   */\n      dup4\n        /* \"#utility.yul\":9869:9886   */\n      add\n        /* \"#utility.yul\":9860:9866   */\n      dup7\n        /* \"#utility.yul\":9816:9887   */\n      tag_464\n      jump\t// in\n    tag_603:\n        /* \"#utility.yul\":9897:9969   */\n      tag_604\n        /* \"#utility.yul\":9965:9967   */\n      0x20\n        /* \"#utility.yul\":9954:9963   */\n      dup4\n        /* \"#utility.yul\":9950:9968   */\n      add\n        /* \"#utility.yul\":9941:9947   */\n      dup6\n        /* \"#utility.yul\":9897:9969   */\n      tag_464\n      jump\t// in\n    tag_604:\n        /* \"#utility.yul\":9979:10051   */\n      tag_605\n        /* \"#utility.yul\":10047:10049   */\n      0x40\n        /* \"#utility.yul\":10036:10045   */\n      dup4\n        /* \"#utility.yul\":10032:10050   */\n      add\n        /* \"#utility.yul\":10023:10029   */\n      dup5\n        /* \"#utility.yul\":9979:10051   */\n      tag_464\n      jump\t// in\n    tag_605:\n        /* \"#utility.yul\":9616:10058   */\n      swap5\n      swap4\n      pop\n      pop\n      pop\n      pop\n      jump\t// out\n        /* \"#utility.yul\":10064:10238   */\n    tag_470:\n        /* \"#utility.yul\":10204:10230   */\n      0x526564456e76656c6f7065206973206f7665722074696d650000000000000000\n        /* \"#utility.yul\":10200:10201   */\n      0x00\n        /* \"#utility.yul\":10192:10198   */\n      dup3\n        /* \"#utility.yul\":10188:10202   */\n      add\n        /* \"#utility.yul\":10181:10231   */\n      mstore\n        /* \"#utility.yul\":10064:10238   */\n      pop\n      jump\t// out\n        /* \"#utility.yul\":10244:10610   */\n    tag_471:\n        /* \"#utility.yul\":10386:10389   */\n      0x00\n        /* \"#utility.yul\":10407:10474   */\n      tag_608\n        /* \"#utility.yul\":10471:10473   */\n      0x18\n        /* \"#utility.yul\":10466:10469   */\n      dup4\n        /* \"#utility.yul\":10407:10474   */\n      tag_465\n      jump\t// in\n    tag_608:\n        /* \"#utility.yul\":10400:10474   */\n      swap2\n      pop\n        /* \"#utility.yul\":10483:10576   */\n      tag_609\n        /* \"#utility.yul\":10572:10575   */\n      dup3\n        /* \"#utility.yul\":10483:10576   */\n      tag_470\n      jump\t// in\n    tag_609:\n        /* \"#utility.yul\":10601:10603   */\n      0x20\n        /* \"#utility.yul\":10596:10599   */\n      dup3\n        /* \"#utility.yul\":10592:10604   */\n      add\n        /* \"#utility.yul\":10585:10604   */\n      swap1\n      pop\n        /* \"#utility.yul\":10244:10610   */\n      swap2\n      swap1\n      pop\n      jump\t// out\n        /* \"#utility.yul\":10616:11035   */\n    tag_119:\n        /* \"#utility.yul\":10782:10786   */\n      0x00\n        /* \"#utility.yul\":10820:10822   */\n      0x20\n        /* \"#utility.yul\":10809:10818   */\n      dup3\n        /* \"#utility.yul\":10805:10823   */\n      add\n        /* \"#utility.yul\":10797:10823   */\n      swap1\n      pop\n        /* \"#utility.yul\":10869:10878   */\n      dup2\n        /* \"#utility.yul\":10863:10867   */\n      dup2\n        /* \"#utility.yul\":10859:10879   */\n      sub\n        /* \"#utility.yul\":10855:10856   */\n      0x00\n        /* \"#utility.yul\":10844:10853   */\n      dup4\n        /* \"#utility.yul\":10840:10857   */\n      add\n        /* \"#utility.yul\":10833:10880   */\n      mstore\n        /* \"#utility.yul\":10897:11028   */\n      tag_611\n        /* \"#utility.yul\":11023:11027   */\n      dup2\n        /* \"#utility.yul\":10897:11028   */\n      tag_471\n      jump\t// in\n    tag_611:\n        /* \"#utility.yul\":10889:11028   */\n      swap1\n      pop\n        /* \"#utility.yul\":10616:11035   */\n      swap2\n      swap1\n      pop\n      jump\t// out\n        /* \"#utility.yul\":11041:11221   */\n    tag_472:\n        /* \"#utility.yul\":11089:11166   */\n      0x4e487b7100000000000000000000000000000000000000000000000000000000\n        /* \"#utility.yul\":11086:11087   */\n      0x00\n        /* \"#utility.yul\":11079:11167   */\n      mstore\n        /* \"#utility.yul\":11186:11190   */\n      0x11\n        /* \"#utility.yul\":11183:11184   */\n      0x04\n        /* \"#utility.yul\":11176:11191   */\n      mstore\n        /* \"#utility.yul\":11210:11214   */\n      0x24\n        /* \"#utility.yul\":11207:11208   */\n      0x00\n        /* \"#utility.yul\":11200:11215   */\n      revert\n        /* \"#utility.yul\":11227:11418   */\n    tag_122:\n        /* \"#utility.yul\":11267:11270   */\n      0x00\n        /* \"#utility.yul\":11286:11306   */\n      tag_614\n        /* \"#utility.yul\":11304:11305   */\n      dup3\n        /* \"#utility.yul\":11286:11306   */\n      tag_448\n      jump\t// in\n    tag_614:\n        /* \"#utility.yul\":11281:11306   */\n      swap2\n      pop\n        /* \"#utility.yul\":11320:11340   */\n      tag_615\n        /* \"#utility.yul\":11338:11339   */\n      dup4\n        /* \"#utility.yul\":11320:11340   */\n      tag_448\n      jump\t// in\n    tag_615:\n        /* \"#utility.yul\":11315:11340   */\n      swap3\n      pop\n        /* \"#utility.yul\":11363:11364   */\n      dup3\n        /* \"#utility.yul\":11360:11361   */\n      dup3\n        /* \"#utility.yul\":11356:11365   */\n      add\n        /* \"#utility.yul\":11349:11365   */\n      swap1\n      pop\n        /* \"#utility.yul\":11384:11387   */\n      dup1\n        /* \"#utility.yul\":11381:11382   */\n      dup3\n        /* \"#utility.yul\":11378:11388   */\n      gt\n        /* \"#utility.yul\":11375:11411   */\n      iszero\n      tag_616\n      jumpi\n        /* \"#utility.yul\":11391:11409   */\n      tag_617\n      tag_472\n      jump\t// in\n    tag_617:\n        /* \"#utility.yul\":11375:11411   */\n    tag_616:\n        /* \"#utility.yul\":11227:11418   */\n      swap3\n      swap2\n      pop\n      pop\n      jump\t// out\n        /* \"#utility.yul\":11424:11600   */\n    tag_473:\n        /* \"#utility.yul\":11564:11592   */\n      0x526564456e76656c6f7065206973206f766572207469636b6574000000000000\n        /* \"#utility.yul\":11560:11561   */\n      0x00\n        /* \"#utility.yul\":11552:11558   */\n      dup3\n        /* \"#utility.yul\":11548:11562   */\n      add\n        /* \"#utility.yul\":11541:11593   */\n      mstore\n        /* \"#utility.yul\":11424:11600   */\n      pop\n      jump\t// out\n        /* \"#utility.yul\":11606:11972   */\n    tag_474:\n        /* \"#utility.yul\":11748:11751   */\n      0x00\n        /* \"#utility.yul\":11769:11836   */\n      tag_620\n        /* \"#utility.yul\":11833:11835   */\n      0x1a\n        /* \"#utility.yul\":11828:11831   */\n      dup4\n        /* \"#utility.yul\":11769:11836   */\n      tag_465\n      jump\t// in\n    tag_620:\n        /* \"#utility.yul\":11762:11836   */\n      swap2\n      pop\n        /* \"#utility.yul\":11845:11938   */\n      tag_621\n        /* \"#utility.yul\":11934:11937   */\n      dup3\n        /* \"#utility.yul\":11845:11938   */\n      tag_473\n      jump\t// in\n    tag_621:\n        /* \"#utility.yul\":11963:11965   */\n      0x20\n        /* \"#utility.yul\":11958:11961   */\n      dup3\n        /* \"#utility.yul\":11954:11966   */\n      add\n        /* \"#utility.yul\":11947:11966   */\n      swap1\n      pop\n        /* \"#utility.yul\":11606:11972   */\n      swap2\n      swap1\n      pop\n      jump\t// out\n        /* \"#utility.yul\":11978:12397   */\n    tag_125:\n        /* \"#utility.yul\":12144:12148   */\n      0x00\n        /* \"#utility.yul\":12182:12184   */\n      0x20\n        /* \"#utility.yul\":12171:12180   */\n      dup3\n        /* \"#utility.yul\":12167:12185   */\n      add\n        /* \"#utility.yul\":12159:12185   */\n      swap1\n      pop\n        /* \"#utility.yul\":12231:12240   */\n      dup2\n        /* \"#utility.yul\":12225:12229   */\n      dup2\n        /* \"#utility.yul\":12221:12241   */\n      sub\n        /* \"#utility.yul\":12217:12218   */\n      0x00\n        /* \"#utility.yul\":12206:12215   */\n      dup4\n        /* \"#utility.yul\":12202:12219   */\n      add\n        /* \"#utility.yul\":12195:12242   */\n      mstore\n        /* \"#utility.yul\":12259:12390   */\n      tag_623\n        /* \"#utility.yul\":12385:12389   */\n      dup2\n        /* \"#utility.yul\":12259:12390   */\n      tag_474\n      jump\t// in\n    tag_623:\n        /* \"#utility.yul\":12251:12390   */\n      swap1\n      pop\n        /* \"#utility.yul\":11978:12397   */\n      swap2\n      swap1\n      pop\n      jump\t// out\n        /* \"#utility.yul\":12403:12567   */\n    tag_475:\n        /* \"#utility.yul\":12543:12559   */\n      0x696e6a656374206e6f207a65726f000000000000000000000000000000000000\n        /* \"#utility.yul\":12539:12540   */\n      0x00\n        /* \"#utility.yul\":12531:12537   */\n      dup3\n        /* \"#utility.yul\":12527:12541   */\n      add\n        /* \"#utility.yul\":12520:12560   */\n      mstore\n        /* \"#utility.yul\":12403:12567   */\n      pop\n      jump\t// out\n        /* \"#utility.yul\":12573:12939   */\n    tag_476:\n        /* \"#utility.yul\":12715:12718   */\n      0x00\n        /* \"#utility.yul\":12736:12803   */\n      tag_626\n        /* \"#utility.yul\":12800:12802   */\n      0x0e\n        /* \"#utility.yul\":12795:12798   */\n      dup4\n        /* \"#utility.yul\":12736:12803   */\n      tag_465\n      jump\t// in\n    tag_626:\n        /* \"#utility.yul\":12729:12803   */\n      swap2\n      pop\n        /* \"#utility.yul\":12812:12905   */\n      tag_627\n        /* \"#utility.yul\":12901:12904   */\n      dup3\n        /* \"#utility.yul\":12812:12905   */\n      tag_475\n      jump\t// in\n    tag_627:\n        /* \"#utility.yul\":12930:12932   */\n      0x20\n        /* \"#utility.yul\":12925:12928   */\n      dup3\n        /* \"#utility.yul\":12921:12933   */\n      add\n        /* \"#utility.yul\":12914:12933   */\n      swap1\n      pop\n        /* \"#utility.yul\":12573:12939   */\n      swap2\n      swap1\n      pop\n      jump\t// out\n        /* \"#utility.yul\":12945:13364   */\n    tag_136:\n        /* \"#utility.yul\":13111:13115   */\n      0x00\n        /* \"#utility.yul\":13149:13151   */\n      0x20\n        /* \"#utility.yul\":13138:13147   */\n      dup3\n        /* \"#utility.yul\":13134:13152   */\n      add\n        /* \"#utility.yul\":13126:13152   */\n      swap1\n      pop\n        /* \"#utility.yul\":13198:13207   */\n      dup2\n        /* \"#utility.yul\":13192:13196   */\n      dup2\n        /* \"#utility.yul\":13188:13208   */\n      sub\n        /* \"#utility.yul\":13184:13185   */\n      0x00\n        /* \"#utility.yul\":13173:13182   */\n      dup4\n        /* \"#utility.yul\":13169:13186   */\n      add\n        /* \"#utility.yul\":13162:13209   */\n      mstore\n        /* \"#utility.yul\":13226:13357   */\n      tag_629\n        /* \"#utility.yul\":13352:13356   */\n      dup2\n        /* \"#utility.yul\":13226:13357   */\n      tag_476\n      jump\t// in\n    tag_629:\n        /* \"#utility.yul\":13218:13357   */\n      swap1\n      pop\n        /* \"#utility.yul\":12945:13364   */\n      swap2\n      swap1\n      pop\n      jump\t// out\n        /* \"#utility.yul\":13370:13603   */\n    tag_163:\n        /* \"#utility.yul\":13409:13412   */\n      0x00\n        /* \"#utility.yul\":13432:13456   */\n      tag_631\n        /* \"#utility.yul\":13450:13455   */\n      dup3\n        /* \"#utility.yul\":13432:13456   */\n      tag_448\n      jump\t// in\n    tag_631:\n        /* \"#utility.yul\":13423:13456   */\n      swap2\n      pop\n        /* \"#utility.yul\":13478:13544   */\n      0xffffffffffffffffffffffffffffffffffffffffffffffffffffffffffffffff\n        /* \"#utility.yul\":13471:13476   */\n      dup3\n        /* \"#utility.yul\":13468:13545   */\n      sub\n        /* \"#utility.yul\":13465:13568   */\n      tag_632\n      jumpi\n        /* \"#utility.yul\":13548:13566   */\n      tag_633\n      tag_472\n      jump\t// in\n    tag_633:\n        /* \"#utility.yul\":13465:13568   */\n    tag_632:\n        /* \"#utility.yul\":13595:13596   */\n      0x01\n        /* \"#utility.yul\":13588:13593   */\n      dup3\n        /* \"#utility.yul\":13584:13597   */\n      add\n        /* \"#utility.yul\":13577:13597   */\n      swap1\n      pop\n        /* \"#utility.yul\":13370:13603   */\n      swap2\n      swap1\n      pop\n      jump\t// out\n        /* \"#utility.yul\":13609:14261   */\n    tag_169:\n        /* \"#utility.yul\":13808:13812   */\n      0x00\n        /* \"#utility.yul\":13846:13849   */\n      0xa0\n        /* \"#utility.yul\":13835:13844   */\n      dup3\n        /* \"#utility.yul\":13831:13850   */\n      add\n        /* \"#utility.yul\":13823:13850   */\n      swap1\n      pop\n        /* \"#utility.yul\":13860:13931   */\n      tag_635\n        /* \"#utility.yul\":13928:13929   */\n      0x00\n        /* \"#utility.yul\":13917:13926   */\n      dup4\n        /* \"#utility.yul\":13913:13930   */\n      add\n        /* \"#utility.yul\":13904:13910   */\n      dup9\n        /* \"#utility.yul\":13860:13931   */\n      tag_464\n      jump\t// in\n    tag_635:\n        /* \"#utility.yul\":13941:14013   */\n      tag_636\n        /* \"#utility.yul\":14009:14011   */\n      0x20\n        /* \"#utility.yul\":13998:14007   */\n      dup4\n        /* \"#utility.yul\":13994:14012   */\n      add\n        /* \"#utility.yul\":13985:13991   */\n      dup8\n        /* \"#utility.yul\":13941:14013   */\n      tag_464\n      jump\t// in\n    tag_636:\n        /* \"#utility.yul\":14023:14095   */\n      tag_637\n        /* \"#utility.yul\":14091:14093   */\n      0x40\n        /* \"#utility.yul\":14080:14089   */\n      dup4\n        /* \"#utility.yul\":14076:14094   */\n      add\n        /* \"#utility.yul\":14067:14073   */\n      dup7\n        /* \"#utility.yul\":14023:14095   */\n      tag_464\n      jump\t// in\n    tag_637:\n        /* \"#utility.yul\":14105:14177   */\n      tag_638\n        /* \"#utility.yul\":14173:14175   */\n      0x60\n        /* \"#utility.yul\":14162:14171   */\n      dup4\n        /* \"#utility.yul\":14158:14176   */\n      add\n        /* \"#utility.yul\":14149:14155   */\n      dup6\n        /* \"#utility.yul\":14105:14177   */\n      tag_464\n      jump\t// in\n    tag_638:\n        /* \"#utility.yul\":14187:14254   */\n      tag_639\n        /* \"#utility.yul\":14249:14252   */\n      0x80\n        /* \"#utility.yul\":14238:14247   */\n      dup4\n        /* \"#utility.yul\":14234:14253   */\n      add\n        /* \"#utility.yul\":14225:14231   */\n      dup5\n        /* \"#utility.yul\":14187:14254   */\n      tag_461\n      jump\t// in\n    tag_639:\n        /* \"#utility.yul\":13609:14261   */\n      swap7\n      swap6\n      pop\n      pop\n      pop\n      pop\n      pop\n      pop\n      jump\t// out\n        /* \"#utility.yul\":14267:14438   */\n    tag_477:\n        /* \"#utility.yul\":14407:14430   */\n      0x526564456e76656c6f7065206e6f7420636c6f73650000000000000000000000\n        /* \"#utility.yul\":14403:14404   */\n      0x00\n        /* \"#utility.yul\":14395:14401   */\n      dup3\n        /* \"#utility.yul\":14391:14405   */\n      add\n        /* \"#utility.yul\":14384:14431   */\n      mstore\n        /* \"#utility.yul\":14267:14438   */\n      pop\n      jump\t// out\n        /* \"#utility.yul\":14444:14810   */\n    tag_478:\n        /* \"#utility.yul\":14586:14589   */\n      0x00\n        /* \"#utility.yul\":14607:14674   */\n      tag_642\n        /* \"#utility.yul\":14671:14673   */\n      0x15\n        /* \"#utility.yul\":14666:14669   */\n      dup4\n        /* \"#utility.yul\":14607:14674   */\n      tag_465\n      jump\t// in\n    tag_642:\n        /* \"#utility.yul\":14600:14674   */\n      swap2\n      pop\n        /* \"#utility.yul\":14683:14776   */\n      tag_643\n        /* \"#utility.yul\":14772:14775   */\n      dup3\n        /* \"#utility.yul\":14683:14776   */\n      tag_477\n      jump\t// in\n    tag_643:\n        /* \"#utility.yul\":14801:14803   */\n      0x20\n        /* \"#utility.yul\":14796:14799   */\n      dup3\n        /* \"#utility.yul\":14792:14804   */\n      add\n        /* \"#utility.yul\":14785:14804   */\n      swap1\n      pop\n        /* \"#utility.yul\":14444:14810   */\n      swap2\n      swap1\n      pop\n      jump\t// out\n        /* \"#utility.yul\":14816:15235   */\n    tag_185:\n        /* \"#utility.yul\":14982:14986   */\n      0x00\n        /* \"#utility.yul\":15020:15022   */\n      0x20\n        /* \"#utility.yul\":15009:15018   */\n      dup3\n        /* \"#utility.yul\":15005:15023   */\n      add\n        /* \"#utility.yul\":14997:15023   */\n      swap1\n      pop\n        /* \"#utility.yul\":15069:15078   */\n      dup2\n        /* \"#utility.yul\":15063:15067   */\n      dup2\n        /* \"#utility.yul\":15059:15079   */\n      sub\n        /* \"#utility.yul\":15055:15056   */\n      0x00\n        /* \"#utility.yul\":15044:15053   */\n      dup4\n        /* \"#utility.yul\":15040:15057   */\n      add\n        /* \"#utility.yul\":15033:15080   */\n      mstore\n        /* \"#utility.yul\":15097:15228   */\n      tag_645\n        /* \"#utility.yul\":15223:15227   */\n      dup2\n        /* \"#utility.yul\":15097:15228   */\n      tag_478\n      jump\t// in\n    tag_645:\n        /* \"#utility.yul\":15089:15228   */\n      swap1\n      pop\n        /* \"#utility.yul\":14816:15235   */\n      swap2\n      swap1\n      pop\n      jump\t// out\n        /* \"#utility.yul\":15241:15651   */\n    tag_198:\n        /* \"#utility.yul\":15281:15288   */\n      0x00\n        /* \"#utility.yul\":15304:15324   */\n      tag_647\n        /* \"#utility.yul\":15322:15323   */\n      dup3\n        /* \"#utility.yul\":15304:15324   */\n      tag_448\n      jump\t// in\n    tag_647:\n        /* \"#utility.yul\":15299:15324   */\n      swap2\n      pop\n        /* \"#utility.yul\":15338:15358   */\n      tag_648\n        /* \"#utility.yul\":15356:15357   */\n      dup4\n        /* \"#utility.yul\":15338:15358   */\n      tag_448\n      jump\t// in\n    tag_648:\n        /* \"#utility.yul\":15333:15358   */\n      swap3\n      pop\n        /* \"#utility.yul\":15393:15394   */\n      dup3\n        /* \"#utility.yul\":15390:15391   */\n      dup3\n        /* \"#utility.yul\":15386:15395   */\n      mul\n        /* \"#utility.yul\":15415:15445   */\n      tag_649\n        /* \"#utility.yul\":15433:15444   */\n      dup2\n        /* \"#utility.yul\":15415:15445   */\n      tag_448\n      jump\t// in\n    tag_649:\n        /* \"#utility.yul\":15404:15445   */\n      swap2\n      pop\n        /* \"#utility.yul\":15594:15595   */\n      dup3\n        /* \"#utility.yul\":15585:15592   */\n      dup3\n        /* \"#utility.yul\":15581:15596   */\n      div\n        /* \"#utility.yul\":15578:15579   */\n      dup5\n        /* \"#utility.yul\":15575:15597   */\n      eq\n        /* \"#utility.yul\":15555:15556   */\n      dup4\n        /* \"#utility.yul\":15548:15557   */\n      iszero\n        /* \"#utility.yul\":15528:15611   */\n      or\n        /* \"#utility.yul\":15505:15644   */\n      tag_650\n      jumpi\n        /* \"#utility.yul\":15624:15642   */\n      tag_651\n      tag_472\n      jump\t// in\n    tag_651:\n        /* \"#utility.yul\":15505:15644   */\n    tag_650:\n        /* \"#utility.yul\":15289:15651   */\n      pop\n        /* \"#utility.yul\":15241:15651   */\n      swap3\n      swap2\n      pop\n      pop\n      jump\t// out\n        /* \"#utility.yul\":15657:15828   */\n    tag_479:\n        /* \"#utility.yul\":15797:15820   */\n      0x7469636b65744e756d62657273206e6f207a65726f0000000000000000000000\n        /* \"#utility.yul\":15793:15794   */\n      0x00\n        /* \"#utility.yul\":15785:15791   */\n      dup3\n        /* \"#utility.yul\":15781:15795   */\n      add\n        /* \"#utility.yul\":15774:15821   */\n      mstore\n        /* \"#utility.yul\":15657:15828   */\n      pop\n      jump\t// out\n        /* \"#utility.yul\":15834:16200   */\n    tag_480:\n        /* \"#utility.yul\":15976:15979   */\n      0x00\n        /* \"#utility.yul\":15997:16064   */\n      tag_654\n        /* \"#utility.yul\":16061:16063   */\n      0x15\n        /* \"#utility.yul\":16056:16059   */\n      dup4\n        /* \"#utility.yul\":15997:16064   */\n      tag_465\n      jump\t// in\n    tag_654:\n        /* \"#utility.yul\":15990:16064   */\n      swap2\n      pop\n        /* \"#utility.yul\":16073:16166   */\n      tag_655\n        /* \"#utility.yul\":16162:16165   */\n      dup3\n        /* \"#utility.yul\":16073:16166   */\n      tag_479\n      jump\t// in\n    tag_655:\n        /* \"#utility.yul\":16191:16193   */\n      0x20\n        /* \"#utility.yul\":16186:16189   */\n      dup3\n        /* \"#utility.yul\":16182:16194   */\n      add\n        /* \"#utility.yul\":16175:16194   */\n      swap1\n      pop\n        /* \"#utility.yul\":15834:16200   */\n      swap2\n      swap1\n      pop\n      jump\t// out\n        /* \"#utility.yul\":16206:16625   */\n    tag_224:\n        /* \"#utility.yul\":16372:16376   */\n      0x00\n        /* \"#utility.yul\":16410:16412   */\n      0x20\n        /* \"#utility.yul\":16399:16408   */\n      dup3\n        /* \"#utility.yul\":16395:16413   */\n      add\n        /* \"#utility.yul\":16387:16413   */\n      swap1\n      pop\n        /* \"#utility.yul\":16459:16468   */\n      dup2\n        /* \"#utility.yul\":16453:16457   */\n      dup2\n        /* \"#utility.yul\":16449:16469   */\n      sub\n        /* \"#utility.yul\":16445:16446   */\n      0x00\n        /* \"#utility.yul\":16434:16443   */\n      dup4\n        /* \"#utility.yul\":16430:16447   */\n      add\n        /* \"#utility.yul\":16423:16470   */\n      mstore\n        /* \"#utility.yul\":16487:16618   */\n      tag_657\n        /* \"#utility.yul\":16613:16617   */\n      dup2\n        /* \"#utility.yul\":16487:16618   */\n      tag_480\n      jump\t// in\n    tag_657:\n        /* \"#utility.yul\":16479:16618   */\n      swap1\n      pop\n        /* \"#utility.yul\":16206:16625   */\n      swap2\n      swap1\n      pop\n      jump\t// out\n        /* \"#utility.yul\":16631:16806   */\n    tag_481:\n        /* \"#utility.yul\":16771:16798   */\n      0x526564456e76656c6f7065206e6f7420636c61696d61626c6500000000000000\n        /* \"#utility.yul\":16767:16768   */\n      0x00\n        /* \"#utility.yul\":16759:16765   */\n      dup3\n        /* \"#utility.yul\":16755:16769   */\n      add\n        /* \"#utility.yul\":16748:16799   */\n      mstore\n        /* \"#utility.yul\":16631:16806   */\n      pop\n      jump\t// out\n        /* \"#utility.yul\":16812:17178   */\n    tag_482:\n        /* \"#utility.yul\":16954:16957   */\n      0x00\n        /* \"#utility.yul\":16975:17042   */\n      tag_660\n        /* \"#utility.yul\":17039:17041   */\n      0x19\n        /* \"#utility.yul\":17034:17037   */\n      dup4\n        /* \"#utility.yul\":16975:17042   */\n      tag_465\n      jump\t// in\n    tag_660:\n        /* \"#utility.yul\":16968:17042   */\n      swap2\n      pop\n        /* \"#utility.yul\":17051:17144   */\n      tag_661\n        /* \"#utility.yul\":17140:17143   */\n      dup3\n        /* \"#utility.yul\":17051:17144   */\n      tag_481\n      jump\t// in\n    tag_661:\n        /* \"#utility.yul\":17169:17171   */\n      0x20\n        /* \"#utility.yul\":17164:17167   */\n      dup3\n        /* \"#utility.yul\":17160:17172   */\n      add\n        /* \"#utility.yul\":17153:17172   */\n      swap1\n      pop\n        /* \"#utility.yul\":16812:17178   */\n      swap2\n      swap1\n      pop\n      jump\t// out\n        /* \"#utility.yul\":17184:17603   */\n    tag_247:\n        /* \"#utility.yul\":17350:17354   */\n      0x00\n        /* \"#utility.yul\":17388:17390   */\n      0x20\n        /* \"#utility.yul\":17377:17386   */\n      dup3\n        /* \"#utility.yul\":17373:17391   */\n      add\n        /* \"#utility.yul\":17365:17391   */\n      swap1\n      pop\n        /* \"#utility.yul\":17437:17446   */\n      dup2\n        /* \"#utility.yul\":17431:17435   */\n      dup2\n        /* \"#utility.yul\":17427:17447   */\n      sub\n        /* \"#utility.yul\":17423:17424   */\n      0x00\n        /* \"#utility.yul\":17412:17421   */\n      dup4\n        /* \"#utility.yul\":17408:17425   */\n      add\n        /* \"#utility.yul\":17401:17448   */\n      mstore\n        /* \"#utility.yul\":17465:17596   */\n      tag_663\n        /* \"#utility.yul\":17591:17595   */\n      dup2\n        /* \"#utility.yul\":17465:17596   */\n      tag_482\n      jump\t// in\n    tag_663:\n        /* \"#utility.yul\":17457:17596   */\n      swap1\n      pop\n        /* \"#utility.yul\":17184:17603   */\n      swap2\n      swap1\n      pop\n      jump\t// out\n        /* \"#utility.yul\":17609:17781   */\n    tag_483:\n        /* \"#utility.yul\":17749:17773   */\n      0x526564456e76656c6f7065206175746f20636c61696d00000000000000000000\n        /* \"#utility.yul\":17745:17746   */\n      0x00\n        /* \"#utility.yul\":17737:17743   */\n      dup3\n        /* \"#utility.yul\":17733:17747   */\n      add\n        /* \"#utility.yul\":17726:17774   */\n      mstore\n        /* \"#utility.yul\":17609:17781   */\n      pop\n      jump\t// out\n        /* \"#utility.yul\":17787:18153   */\n    tag_484:\n        /* \"#utility.yul\":17929:17932   */\n      0x00\n        /* \"#utility.yul\":17950:18017   */\n      tag_666\n        /* \"#utility.yul\":18014:18016   */\n      0x16\n        /* \"#utility.yul\":18009:18012   */\n      dup4\n        /* \"#utility.yul\":17950:18017   */\n      tag_465\n      jump\t// in\n    tag_666:\n        /* \"#utility.yul\":17943:18017   */\n      swap2\n      pop\n        /* \"#utility.yul\":18026:18119   */\n      tag_667\n        /* \"#utility.yul\":18115:18118   */\n      dup3\n        /* \"#utility.yul\":18026:18119   */\n      tag_483\n      jump\t// in\n    tag_667:\n        /* \"#utility.yul\":18144:18146   */\n      0x20\n        /* \"#utility.yul\":18139:18142   */\n      dup3\n        /* \"#utility.yul\":18135:18147   */\n      add\n        /* \"#utility.yul\":18128:18147   */\n      swap1\n      pop\n        /* \"#utility.yul\":17787:18153   */\n      swap2\n      swap1\n      pop\n      jump\t// out\n        /* \"#utility.yul\":18159:18578   */\n    tag_250:\n        /* \"#utility.yul\":18325:18329   */\n      0x00\n        /* \"#utility.yul\":18363:18365   */\n      0x20\n        /* \"#utility.yul\":18352:18361   */\n      dup3\n        /* \"#utility.yul\":18348:18366   */\n      add\n        /* \"#utility.yul\":18340:18366   */\n      swap1\n      pop\n        /* \"#utility.yul\":18412:18421   */\n      dup2\n        /* \"#utility.yul\":18406:18410   */\n      dup2\n        /* \"#utility.yul\":18402:18422   */\n      sub\n        /* \"#utility.yul\":18398:18399   */\n      0x00\n        /* \"#utility.yul\":18387:18396   */\n      dup4\n        /* \"#utility.yul\":18383:18400   */\n      add\n        /* \"#utility.yul\":18376:18423   */\n      mstore\n        /* \"#utility.yul\":18440:18571   */\n      tag_669\n        /* \"#utility.yul\":18566:18570   */\n      dup2\n        /* \"#utility.yul\":18440:18571   */\n      tag_484\n      jump\t// in\n    tag_669:\n        /* \"#utility.yul\":18432:18571   */\n      swap1\n      pop\n        /* \"#utility.yul\":18159:18578   */\n      swap2\n      swap1\n      pop\n      jump\t// out\n        /* \"#utility.yul\":18584:18756   */\n    tag_485:\n        /* \"#utility.yul\":18724:18748   */\n      0x43616e6e6f74206265207a65726f206164647265737300000000000000000000\n        /* \"#utility.yul\":18720:18721   */\n      0x00\n        /* \"#utility.yul\":18712:18718   */\n      dup3\n        /* \"#utility.yul\":18708:18722   */\n      add\n        /* \"#utility.yul\":18701:18749   */\n      mstore\n        /* \"#utility.yul\":18584:18756   */\n      pop\n      jump\t// out\n        /* \"#utility.yul\":18762:19128   */\n    tag_486:\n        /* \"#utility.yul\":18904:18907   */\n      0x00\n        /* \"#utility.yul\":18925:18992   */\n      tag_672\n        /* \"#utility.yul\":18989:18991   */\n      0x16\n        /* \"#utility.yul\":18984:18987   */\n      dup4\n        /* \"#utility.yul\":18925:18992   */\n      tag_465\n      jump\t// in\n    tag_672:\n        /* \"#utility.yul\":18918:18992   */\n      swap2\n      pop\n        /* \"#utility.yul\":19001:19094   */\n      tag_673\n        /* \"#utility.yul\":19090:19093   */\n      dup3\n        /* \"#utility.yul\":19001:19094   */\n      tag_485\n      jump\t// in\n    tag_673:\n        /* \"#utility.yul\":19119:19121   */\n      0x20\n        /* \"#utility.yul\":19114:19117   */\n      dup3\n        /* \"#utility.yul\":19110:19122   */\n      add\n        /* \"#utility.yul\":19103:19122   */\n      swap1\n      pop\n        /* \"#utility.yul\":18762:19128   */\n      swap2\n      swap1\n      pop\n      jump\t// out\n        /* \"#utility.yul\":19134:19553   */\n    tag_258:\n        /* \"#utility.yul\":19300:19304   */\n      0x00\n        /* \"#utility.yul\":19338:19340   */\n      0x20\n        /* \"#utility.yul\":19327:19336   */\n      dup3\n        /* \"#utility.yul\":19323:19341   */\n      add\n        /* \"#utility.yul\":19315:19341   */\n      swap1\n      pop\n        /* \"#utility.yul\":19387:19396   */\n      dup2\n        /* \"#utility.yul\":19381:19385   */\n      dup2\n        /* \"#utility.yul\":19377:19397   */\n      sub\n        /* \"#utility.yul\":19373:19374   */\n      0x00\n        /* \"#utility.yul\":19362:19371   */\n      dup4\n        /* \"#utility.yul\":19358:19375   */\n      add\n        /* \"#utility.yul\":19351:19398   */\n      mstore\n        /* \"#utility.yul\":19415:19546   */\n      tag_675\n        /* \"#utility.yul\":19541:19545   */\n      dup2\n        /* \"#utility.yul\":19415:19546   */\n      tag_486\n      jump\t// in\n    tag_675:\n        /* \"#utility.yul\":19407:19546   */\n      swap1\n      pop\n        /* \"#utility.yul\":19134:19553   */\n      swap2\n      swap1\n      pop\n      jump\t// out\n        /* \"#utility.yul\":19559:19879   */\n    tag_260:\n        /* \"#utility.yul\":19674:19678   */\n      0x00\n        /* \"#utility.yul\":19712:19714   */\n      0x40\n        /* \"#utility.yul\":19701:19710   */\n      dup3\n        /* \"#utility.yul\":19697:19715   */\n      add\n        /* \"#utility.yul\":19689:19715   */\n      swap1\n      pop\n        /* \"#utility.yul\":19725:19796   */\n      tag_677\n        /* \"#utility.yul\":19793:19794   */\n      0x00\n        /* \"#utility.yul\":19782:19791   */\n      dup4\n        /* \"#utility.yul\":19778:19795   */\n      add\n        /* \"#utility.yul\":19769:19775   */\n      dup6\n        /* \"#utility.yul\":19725:19796   */\n      tag_459\n      jump\t// in\n    tag_677:\n        /* \"#utility.yul\":19806:19872   */\n      tag_678\n        /* \"#utility.yul\":19868:19870   */\n      0x20\n        /* \"#utility.yul\":19857:19866   */\n      dup4\n        /* \"#utility.yul\":19853:19871   */\n      add\n        /* \"#utility.yul\":19844:19850   */\n      dup5\n        /* \"#utility.yul\":19806:19872   */\n      tag_461\n      jump\t// in\n    tag_678:\n        /* \"#utility.yul\":19559:19879   */\n      swap4\n      swap3\n      pop\n      pop\n      pop\n      jump\t// out\n        /* \"#utility.yul\":19885:20066   */\n    tag_487:\n        /* \"#utility.yul\":20025:20058   */\n      0x5265656e7472616e637947756172643a207265656e7472616e742063616c6c00\n        /* \"#utility.yul\":20021:20022   */\n      0x00\n        /* \"#utility.yul\":20013:20019   */\n      dup3\n        /* \"#utility.yul\":20009:20023   */\n      add\n        /* \"#utility.yul\":20002:20059   */\n      mstore\n        /* \"#utility.yul\":19885:20066   */\n      pop\n      jump\t// out\n        /* \"#utility.yul\":20072:20438   */\n    tag_488:\n        /* \"#utility.yul\":20214:20217   */\n      0x00\n        /* \"#utility.yul\":20235:20302   */\n      tag_681\n        /* \"#utility.yul\":20299:20301   */\n      0x1f\n        /* \"#utility.yul\":20294:20297   */\n      dup4\n        /* \"#utility.yul\":20235:20302   */\n      tag_465\n      jump\t// in\n    tag_681:\n        /* \"#utility.yul\":20228:20302   */\n      swap2\n      pop\n        /* \"#utility.yul\":20311:20404   */\n      tag_682\n        /* \"#utility.yul\":20400:20403   */\n      dup3\n        /* \"#utility.yul\":20311:20404   */\n      tag_487\n      jump\t// in\n    tag_682:\n        /* \"#utility.yul\":20429:20431   */\n      0x20\n        /* \"#utility.yul\":20424:20427   */\n      dup3\n        /* \"#utility.yul\":20420:20432   */\n      add\n        /* \"#utility.yul\":20413:20432   */\n      swap1\n      pop\n        /* \"#utility.yul\":20072:20438   */\n      swap2\n      swap1\n      pop\n      jump\t// out\n        /* \"#utility.yul\":20444:20863   */\n    tag_275:\n        /* \"#utility.yul\":20610:20614   */\n      0x00\n        /* \"#utility.yul\":20648:20650   */\n      0x20\n        /* \"#utility.yul\":20637:20646   */\n      dup3\n        /* \"#utility.yul\":20633:20651   */\n      add\n        /* \"#utility.yul\":20625:20651   */\n      swap1\n      pop\n        /* \"#utility.yul\":20697:20706   */\n      dup2\n        /* \"#utility.yul\":20691:20695   */\n      dup2\n        /* \"#utility.yul\":20687:20707   */\n      sub\n        /* \"#utility.yul\":20683:20684   */\n      0x00\n        /* \"#utility.yul\":20672:20681   */\n      dup4\n        /* \"#utility.yul\":20668:20685   */\n      add\n        /* \"#utility.yul\":20661:20708   */\n      mstore\n        /* \"#utility.yul\":20725:20856   */\n      tag_684\n        /* \"#utility.yul\":20851:20855   */\n      dup2\n        /* \"#utility.yul\":20725:20856   */\n      tag_488\n      jump\t// in\n    tag_684:\n        /* \"#utility.yul\":20717:20856   */\n      swap1\n      pop\n        /* \"#utility.yul\":20444:20863   */\n      swap2\n      swap1\n      pop\n      jump\t// out\n        /* \"#utility.yul\":20869:21049   */\n    tag_322:\n        /* \"#utility.yul\":20917:20994   */\n      0x4e487b7100000000000000000000000000000000000000000000000000000000\n        /* \"#utility.yul\":20914:20915   */\n      0x00\n        /* \"#utility.yul\":20907:20995   */\n      mstore\n        /* \"#utility.yul\":21014:21018   */\n      0x41\n        /* \"#utility.yul\":21011:21012   */\n      0x04\n        /* \"#utility.yul\":21004:21019   */\n      mstore\n        /* \"#utility.yul\":21038:21042   */\n      0x24\n        /* \"#utility.yul\":21035:21036   */\n      0x00\n        /* \"#utility.yul\":21028:21043   */\n      revert\n        /* \"#utility.yul\":21055:21249   */\n    tag_328:\n        /* \"#utility.yul\":21095:21099   */\n      0x00\n        /* \"#utility.yul\":21115:21135   */\n      tag_687\n        /* \"#utility.yul\":21133:21134   */\n      dup3\n        /* \"#utility.yul\":21115:21135   */\n      tag_448\n      jump\t// in\n    tag_687:\n        /* \"#utility.yul\":21110:21135   */\n      swap2\n      pop\n        /* \"#utility.yul\":21149:21169   */\n      tag_688\n        /* \"#utility.yul\":21167:21168   */\n      dup4\n        /* \"#utility.yul\":21149:21169   */\n      tag_448\n      jump\t// in\n    tag_688:\n        /* \"#utility.yul\":21144:21169   */\n      swap3\n      pop\n        /* \"#utility.yul\":21193:21194   */\n      dup3\n        /* \"#utility.yul\":21190:21191   */\n      dup3\n        /* \"#utility.yul\":21186:21195   */\n      sub\n        /* \"#utility.yul\":21178:21195   */\n      swap1\n      pop\n        /* \"#utility.yul\":21217:21218   */\n      dup2\n        /* \"#utility.yul\":21211:21215   */\n      dup2\n        /* \"#utility.yul\":21208:21219   */\n      gt\n        /* \"#utility.yul\":21205:21242   */\n      iszero\n      tag_689\n      jumpi\n        /* \"#utility.yul\":21222:21240   */\n      tag_690\n      tag_472\n      jump\t// in\n    tag_690:\n        /* \"#utility.yul\":21205:21242   */\n    tag_689:\n        /* \"#utility.yul\":21055:21249   */\n      swap3\n      swap2\n      pop\n      pop\n      jump\t// out\n        /* \"#utility.yul\":21255:21435   */\n    tag_489:\n        /* \"#utility.yul\":21303:21380   */\n      0x4e487b7100000000000000000000000000000000000000000000000000000000\n        /* \"#utility.yul\":21300:21301   */\n      0x00\n        /* \"#utility.yul\":21293:21381   */\n      mstore\n        /* \"#utility.yul\":21400:21404   */\n      0x12\n        /* \"#utility.yul\":21397:21398   */\n      0x04\n        /* \"#utility.yul\":21390:21405   */\n      mstore\n        /* \"#utility.yul\":21424:21428   */\n      0x24\n        /* \"#utility.yul\":21421:21422   */\n      0x00\n        /* \"#utility.yul\":21414:21429   */\n      revert\n        /* \"#utility.yul\":21441:21617   */\n    tag_332:\n        /* \"#utility.yul\":21473:21474   */\n      0x00\n        /* \"#utility.yul\":21490:21510   */\n      tag_693\n        /* \"#utility.yul\":21508:21509   */\n      dup3\n        /* \"#utility.yul\":21490:21510   */\n      tag_448\n      jump\t// in\n    tag_693:\n        /* \"#utility.yul\":21485:21510   */\n      swap2\n      pop\n        /* \"#utility.yul\":21524:21544   */\n      tag_694\n        /* \"#utility.yul\":21542:21543   */\n      dup4\n        /* \"#utility.yul\":21524:21544   */\n      tag_448\n      jump\t// in\n    tag_694:\n        /* \"#utility.yul\":21519:21544   */\n      swap3\n      pop\n        /* \"#utility.yul\":21563:21564   */\n      dup3\n        /* \"#utility.yul\":21553:21588   */\n      tag_695\n      jumpi\n        /* \"#utility.yul\":21568:21586   */\n      tag_696\n      tag_489\n      jump\t// in\n    tag_696:\n        /* \"#utility.yul\":21553:21588   */\n    tag_695:\n        /* \"#utility.yul\":21609:21610   */\n      dup3\n        /* \"#utility.yul\":21606:21607   */\n      dup3\n        /* \"#utility.yul\":21602:21611   */\n      mod\n        /* \"#utility.yul\":21597:21611   */\n      swap1\n      pop\n        /* \"#utility.yul\":21441:21617   */\n      swap3\n      swap2\n      pop\n      pop\n      jump\t// out\n        /* \"#utility.yul\":21623:21803   */\n    tag_339:\n        /* \"#utility.yul\":21671:21748   */\n      0x4e487b7100000000000000000000000000000000000000000000000000000000\n        /* \"#utility.yul\":21668:21669   */\n      0x00\n        /* \"#utility.yul\":21661:21749   */\n      mstore\n        /* \"#utility.yul\":21768:21772   */\n      0x32\n        /* \"#utility.yul\":21765:21766   */\n      0x04\n        /* \"#utility.yul\":21758:21773   */\n      mstore\n        /* \"#utility.yul\":21792:21796   */\n      0x24\n        /* \"#utility.yul\":21789:21790   */\n      0x00\n        /* \"#utility.yul\":21782:21797   */\n      revert\n        /* \"#utility.yul\":21809:21980   */\n    tag_346:\n        /* \"#utility.yul\":21848:21851   */\n      0x00\n        /* \"#utility.yul\":21871:21895   */\n      tag_699\n        /* \"#utility.yul\":21889:21894   */\n      dup3\n        /* \"#utility.yul\":21871:21895   */\n      tag_448\n      jump\t// in\n    tag_699:\n        /* \"#utility.yul\":21862:21895   */\n      swap2\n      pop\n        /* \"#utility.yul\":21917:21921   */\n      0x00\n        /* \"#utility.yul\":21910:21915   */\n      dup3\n        /* \"#utility.yul\":21907:21922   */\n      sub\n        /* \"#utility.yul\":21904:21945   */\n      tag_700\n      jumpi\n        /* \"#utility.yul\":21925:21943   */\n      tag_701\n      tag_472\n      jump\t// in\n    tag_701:\n        /* \"#utility.yul\":21904:21945   */\n    tag_700:\n        /* \"#utility.yul\":21972:21973   */\n      0x01\n        /* \"#utility.yul\":21965:21970   */\n      dup3\n        /* \"#utility.yul\":21961:21974   */\n      sub\n        /* \"#utility.yul\":21954:21974   */\n      swap1\n      pop\n        /* \"#utility.yul\":21809:21980   */\n      swap2\n      swap1\n      pop\n      jump\t// out\n        /* \"#utility.yul\":21986:22306   */\n    tag_374:\n        /* \"#utility.yul\":22101:22105   */\n      0x00\n        /* \"#utility.yul\":22139:22141   */\n      0x40\n        /* \"#utility.yul\":22128:22137   */\n      dup3\n        /* \"#utility.yul\":22124:22142   */\n      add\n        /* \"#utility.yul\":22116:22142   */\n      swap1\n      pop\n        /* \"#utility.yul\":22152:22223   */\n      tag_703\n        /* \"#utility.yul\":22220:22221   */\n      0x00\n        /* \"#utility.yul\":22209:22218   */\n      dup4\n        /* \"#utility.yul\":22205:22222   */\n      add\n        /* \"#utility.yul\":22196:22202   */\n      dup6\n        /* \"#utility.yul\":22152:22223   */\n      tag_464\n      jump\t// in\n    tag_703:\n        /* \"#utility.yul\":22233:22299   */\n      tag_704\n        /* \"#utility.yul\":22295:22297   */\n      0x20\n        /* \"#utility.yul\":22284:22293   */\n      dup4\n        /* \"#utility.yul\":22280:22298   */\n      add\n        /* \"#utility.yul\":22271:22277   */\n      dup5\n        /* \"#utility.yul\":22233:22299   */\n      tag_461\n      jump\t// in\n    tag_704:\n        /* \"#utility.yul\":21986:22306   */\n      swap4\n      swap3\n      pop\n      pop\n      pop\n      jump\t// out\n        /* \"#utility.yul\":22312:22470   */\n    tag_490:\n        /* \"#utility.yul\":22452:22462   */\n      0x6e6f207072697a65000000000000000000000000000000000000000000000000\n        /* \"#utility.yul\":22448:22449   */\n      0x00\n        /* \"#utility.yul\":22440:22446   */\n      dup3\n        /* \"#utility.yul\":22436:22450   */\n      add\n        /* \"#utility.yul\":22429:22463   */\n      mstore\n        /* \"#utility.yul\":22312:22470   */\n      pop\n      jump\t// out\n        /* \"#utility.yul\":22476:22841   */\n    tag_491:\n        /* \"#utility.yul\":22618:22621   */\n      0x00\n        /* \"#utility.yul\":22639:22705   */\n      tag_707\n        /* \"#utility.yul\":22703:22704   */\n      0x08\n        /* \"#utility.yul\":22698:22701   */\n      dup4\n        /* \"#utility.yul\":22639:22705   */\n      tag_465\n      jump\t// in\n    tag_707:\n        /* \"#utility.yul\":22632:22705   */\n      swap2\n      pop\n        /* \"#utility.yul\":22714:22807   */\n      tag_708\n        /* \"#utility.yul\":22803:22806   */\n      dup3\n        /* \"#utility.yul\":22714:22807   */\n      tag_490\n      jump\t// in\n    tag_708:\n        /* \"#utility.yul\":22832:22834   */\n      0x20\n        /* \"#utility.yul\":22827:22830   */\n      dup3\n        /* \"#utility.yul\":22823:22835   */\n      add\n        /* \"#utility.yul\":22816:22835   */\n      swap1\n      pop\n        /* \"#utility.yul\":22476:22841   */\n      swap2\n      swap1\n      pop\n      jump\t// out\n        /* \"#utility.yul\":22847:23266   */\n    tag_381:\n        /* \"#utility.yul\":23013:23017   */\n      0x00\n        /* \"#utility.yul\":23051:23053   */\n      0x20\n        /* \"#utility.yul\":23040:23049   */\n      dup3\n        /* \"#utility.yul\":23036:23054   */\n      add\n        /* \"#utility.yul\":23028:23054   */\n      swap1\n      pop\n        /* \"#utility.yul\":23100:23109   */\n      dup2\n        /* \"#utility.yul\":23094:23098   */\n      dup2\n        /* \"#utility.yul\":23090:23110   */\n      sub\n        /* \"#utility.yul\":23086:23087   */\n      0x00\n        /* \"#utility.yul\":23075:23084   */\n      dup4\n        /* \"#utility.yul\":23071:23088   */\n      add\n        /* \"#utility.yul\":23064:23111   */\n      mstore\n        /* \"#utility.yul\":23128:23259   */\n      tag_710\n        /* \"#utility.yul\":23254:23258   */\n      dup2\n        /* \"#utility.yul\":23128:23259   */\n      tag_491\n      jump\t// in\n    tag_710:\n        /* \"#utility.yul\":23120:23259   */\n      swap1\n      pop\n        /* \"#utility.yul\":22847:23266   */\n      swap2\n      swap1\n      pop\n      jump\t// out\n        /* \"#utility.yul\":23272:23714   */\n    tag_387:\n        /* \"#utility.yul\":23421:23425   */\n      0x00\n        /* \"#utility.yul\":23459:23461   */\n      0x60\n        /* \"#utility.yul\":23448:23457   */\n      dup3\n        /* \"#utility.yul\":23444:23462   */\n      add\n        /* \"#utility.yul\":23436:23462   */\n      swap1\n      pop\n        /* \"#utility.yul\":23472:23543   */\n      tag_712\n        /* \"#utility.yul\":23540:23541   */\n      0x00\n        /* \"#utility.yul\":23529:23538   */\n      dup4\n        /* \"#utility.yul\":23525:23542   */\n      add\n        /* \"#utility.yul\":23516:23522   */\n      dup7\n        /* \"#utility.yul\":23472:23543   */\n      tag_459\n      jump\t// in\n    tag_712:\n        /* \"#utility.yul\":23553:23625   */\n      tag_713\n        /* \"#utility.yul\":23621:23623   */\n      0x20\n        /* \"#utility.yul\":23610:23619   */\n      dup4\n        /* \"#utility.yul\":23606:23624   */\n      add\n        /* \"#utility.yul\":23597:23603   */\n      dup6\n        /* \"#utility.yul\":23553:23625   */\n      tag_459\n      jump\t// in\n    tag_713:\n        /* \"#utility.yul\":23635:23707   */\n      tag_714\n        /* \"#utility.yul\":23703:23705   */\n      0x40\n        /* \"#utility.yul\":23692:23701   */\n      dup4\n        /* \"#utility.yul\":23688:23706   */\n      add\n        /* \"#utility.yul\":23679:23685   */\n      dup5\n        /* \"#utility.yul\":23635:23707   */\n      tag_464\n      jump\t// in\n    tag_714:\n        /* \"#utility.yul\":23272:23714   */\n      swap5\n      swap4\n      pop\n      pop\n      pop\n      pop\n      jump\t// out\n        /* \"#utility.yul\":23720:24052   */\n    tag_393:\n        /* \"#utility.yul\":23841:23845   */\n      0x00\n        /* \"#utility.yul\":23879:23881   */\n      0x40\n        /* \"#utility.yul\":23868:23877   */\n      dup3\n        /* \"#utility.yul\":23864:23882   */\n      add\n        /* \"#utility.yul\":23856:23882   */\n      swap1\n      pop\n        /* \"#utility.yul\":23892:23963   */\n      tag_716\n        /* \"#utility.yul\":23960:23961   */\n      0x00\n        /* \"#utility.yul\":23949:23958   */\n      dup4\n        /* \"#utility.yul\":23945:23962   */\n      add\n        /* \"#utility.yul\":23936:23942   */\n      dup6\n        /* \"#utility.yul\":23892:23963   */\n      tag_459\n      jump\t// in\n    tag_716:\n        /* \"#utility.yul\":23973:24045   */\n      tag_717\n        /* \"#utility.yul\":24041:24043   */\n      0x20\n        /* \"#utility.yul\":24030:24039   */\n      dup4\n        /* \"#utility.yul\":24026:24044   */\n      add\n        /* \"#utility.yul\":24017:24023   */\n      dup5\n        /* \"#utility.yul\":23973:24045   */\n      tag_464\n      jump\t// in\n    tag_717:\n        /* \"#utility.yul\":23720:24052   */\n      swap4\n      swap3\n      pop\n      pop\n      pop\n      jump\t// out\n        /* \"#utility.yul\":24058:24137   */\n    tag_492:\n        /* \"#utility.yul\":24097:24104   */\n      0x00\n        /* \"#utility.yul\":24126:24131   */\n      dup2\n        /* \"#utility.yul\":24115:24131   */\n      swap1\n      pop\n        /* \"#utility.yul\":24058:24137   */\n      swap2\n      swap1\n      pop\n      jump\t// out\n        /* \"#utility.yul\":24143:24300   */\n    tag_493:\n        /* \"#utility.yul\":24248:24293   */\n      tag_720\n        /* \"#utility.yul\":24268:24292   */\n      tag_721\n        /* \"#utility.yul\":24286:24291   */\n      dup3\n        /* \"#utility.yul\":24268:24292   */\n      tag_448\n      jump\t// in\n    tag_721:\n        /* \"#utility.yul\":24248:24293   */\n      tag_492\n      jump\t// in\n    tag_720:\n        /* \"#utility.yul\":24243:24246   */\n      dup3\n        /* \"#utility.yul\":24236:24294   */\n      mstore\n        /* \"#utility.yul\":24143:24300   */\n      pop\n      pop\n      jump\t// out\n        /* \"#utility.yul\":24306:24703   */\n    tag_399:\n        /* \"#utility.yul\":24446:24449   */\n      0x00\n        /* \"#utility.yul\":24461:24536   */\n      tag_723\n        /* \"#utility.yul\":24532:24535   */\n      dup3\n        /* \"#utility.yul\":24523:24529   */\n      dup6\n        /* \"#utility.yul\":24461:24536   */\n      tag_493\n      jump\t// in\n    tag_723:\n        /* \"#utility.yul\":24561:24563   */\n      0x20\n        /* \"#utility.yul\":24556:24559   */\n      dup3\n        /* \"#utility.yul\":24552:24564   */\n      add\n        /* \"#utility.yul\":24545:24564   */\n      swap2\n      pop\n        /* \"#utility.yul\":24574:24649   */\n      tag_724\n        /* \"#utility.yul\":24645:24648   */\n      dup3\n        /* \"#utility.yul\":24636:24642   */\n      dup5\n        /* \"#utility.yul\":24574:24649   */\n      tag_493\n      jump\t// in\n    tag_724:\n        /* \"#utility.yul\":24674:24676   */\n      0x20\n        /* \"#utility.yul\":24669:24672   */\n      dup3\n        /* \"#utility.yul\":24665:24677   */\n      add\n        /* \"#utility.yul\":24658:24677   */\n      swap2\n      pop\n        /* \"#utility.yul\":24694:24697   */\n      dup2\n        /* \"#utility.yul\":24687:24697   */\n      swap1\n      pop\n        /* \"#utility.yul\":24306:24703   */\n      swap4\n      swap3\n      pop\n      pop\n      pop\n      jump\t// out\n        /* \"#utility.yul\":24709:24874   */\n    tag_494:\n        /* \"#utility.yul\":24849:24866   */\n      0x696e646578206f75742072616e67650000000000000000000000000000000000\n        /* \"#utility.yul\":24845:24846   */\n      0x00\n        /* \"#utility.yul\":24837:24843   */\n      dup3\n        /* \"#utility.yul\":24833:24847   */\n      add\n        /* \"#utility.yul\":24826:24867   */\n      mstore\n        /* \"#utility.yul\":24709:24874   */\n      pop\n      jump\t// out\n        /* \"#utility.yul\":24880:25246   */\n    tag_495:\n        /* \"#utility.yul\":25022:25025   */\n      0x00\n        /* \"#utility.yul\":25043:25110   */\n      tag_727\n        /* \"#utility.yul\":25107:25109   */\n      0x0f\n        /* \"#utility.yul\":25102:25105   */\n      dup4\n        /* \"#utility.yul\":25043:25110   */\n      tag_465\n      jump\t// in\n    tag_727:\n        /* \"#utility.yul\":25036:25110   */\n      swap2\n      pop\n        /* \"#utility.yul\":25119:25212   */\n      tag_728\n        /* \"#utility.yul\":25208:25211   */\n      dup3\n        /* \"#utility.yul\":25119:25212   */\n      tag_494\n      jump\t// in\n    tag_728:\n        /* \"#utility.yul\":25237:25239   */\n      0x20\n        /* \"#utility.yul\":25232:25235   */\n      dup3\n        /* \"#utility.yul\":25228:25240   */\n      add\n        /* \"#utility.yul\":25221:25240   */\n      swap1\n      pop\n        /* \"#utility.yul\":24880:25246   */\n      swap2\n      swap1\n      pop\n      jump\t// out\n        /* \"#utility.yul\":25252:25671   */\n    tag_409:\n        /* \"#utility.yul\":25418:25422   */\n      0x00\n        /* \"#utility.yul\":25456:25458   */\n      0x20\n        /* \"#utility.yul\":25445:25454   */\n      dup3\n        /* \"#utility.yul\":25441:25459   */\n      add\n        /* \"#utility.yul\":25433:25459   */\n      swap1\n      pop\n        /* \"#utility.yul\":25505:25514   */\n      dup2\n        /* \"#utility.yul\":25499:25503   */\n      dup2\n        /* \"#utility.yul\":25495:25515   */\n      sub\n        /* \"#utility.yul\":25491:25492   */\n      0x00\n        /* \"#utility.yul\":25480:25489   */\n      dup4\n        /* \"#utility.yul\":25476:25493   */\n      add\n        /* \"#utility.yul\":25469:25516   */\n      mstore\n        /* \"#utility.yul\":25533:25664   */\n      tag_730\n        /* \"#utility.yul\":25659:25663   */\n      dup2\n        /* \"#utility.yul\":25533:25664   */\n      tag_495\n      jump\t// in\n    tag_730:\n        /* \"#utility.yul\":25525:25664   */\n      swap1\n      pop\n        /* \"#utility.yul\":25252:25671   */\n      swap2\n      swap1\n      pop\n      jump\t// out\n        /* \"#utility.yul\":25677:25814   */\n    tag_496:\n        /* \"#utility.yul\":25731:25736   */\n      0x00\n        /* \"#utility.yul\":25762:25768   */\n      dup2\n        /* \"#utility.yul\":25756:25769   */\n      mload\n        /* \"#utility.yul\":25747:25769   */\n      swap1\n      pop\n        /* \"#utility.yul\":25778:25808   */\n      tag_732\n        /* \"#utility.yul\":25802:25807   */\n      dup2\n        /* \"#utility.yul\":25778:25808   */\n      tag_462\n      jump\t// in\n    tag_732:\n        /* \"#utility.yul\":25677:25814   */\n      swap3\n      swap2\n      pop\n      pop\n      jump\t// out\n        /* \"#utility.yul\":25820:26165   */\n    tag_415:\n        /* \"#utility.yul\":25887:25893   */\n      0x00\n        /* \"#utility.yul\":25936:25938   */\n      0x20\n        /* \"#utility.yul\":25924:25933   */\n      dup3\n        /* \"#utility.yul\":25915:25922   */\n      dup5\n        /* \"#utility.yul\":25911:25934   */\n      sub\n        /* \"#utility.yul\":25907:25939   */\n      slt\n        /* \"#utility.yul\":25904:26023   */\n      iszero\n      tag_734\n      jumpi\n        /* \"#utility.yul\":25942:26021   */\n      tag_735\n      tag_446\n      jump\t// in\n    tag_735:\n        /* \"#utility.yul\":25904:26023   */\n    tag_734:\n        /* \"#utility.yul\":26062:26063   */\n      0x00\n        /* \"#utility.yul\":26087:26148   */\n      tag_736\n        /* \"#utility.yul\":26140:26147   */\n      dup5\n        /* \"#utility.yul\":26131:26137   */\n      dup3\n        /* \"#utility.yul\":26120:26129   */\n      dup6\n        /* \"#utility.yul\":26116:26138   */\n      add\n        /* \"#utility.yul\":26087:26148   */\n      tag_496\n      jump\t// in\n    tag_736:\n        /* \"#utility.yul\":26077:26148   */\n      swap2\n      pop\n        /* \"#utility.yul\":26033:26158   */\n      pop\n        /* \"#utility.yul\":25820:26165   */\n      swap3\n      swap2\n      pop\n      pop\n      jump\t// out\n        /* \"#utility.yul\":26171:26264   */\n    tag_497:\n        /* \"#utility.yul\":26207:26214   */\n      0x00\n        /* \"#utility.yul\":26247:26257   */\n      0xffffffff\n        /* \"#utility.yul\":26240:26245   */\n      dup3\n        /* \"#utility.yul\":26236:26258   */\n      and\n        /* \"#utility.yul\":26225:26258   */\n      swap1\n      pop\n        /* \"#utility.yul\":26171:26264   */\n      swap2\n      swap1\n      pop\n      jump\t// out\n        /* \"#utility.yul\":26270:26470   */\n    tag_420:\n        /* \"#utility.yul\":26309:26313   */\n      0x00\n        /* \"#utility.yul\":26329:26348   */\n      tag_739\n        /* \"#utility.yul\":26346:26347   */\n      dup3\n        /* \"#utility.yul\":26329:26348   */\n      tag_497\n      jump\t// in\n    tag_739:\n        /* \"#utility.yul\":26324:26348   */\n      swap2\n      pop\n        /* \"#utility.yul\":26362:26381   */\n      tag_740\n        /* \"#utility.yul\":26379:26380   */\n      dup4\n        /* \"#utility.yul\":26362:26381   */\n      tag_497\n      jump\t// in\n    tag_740:\n        /* \"#utility.yul\":26357:26381   */\n      swap3\n      pop\n        /* \"#utility.yul\":26405:26406   */\n      dup3\n        /* \"#utility.yul\":26402:26403   */\n      dup3\n        /* \"#utility.yul\":26398:26407   */\n      sub\n        /* \"#utility.yul\":26390:26407   */\n      swap1\n      pop\n        /* \"#utility.yul\":26429:26439   */\n      0xffffffff\n        /* \"#utility.yul\":26423:26427   */\n      dup2\n        /* \"#utility.yul\":26420:26440   */\n      gt\n        /* \"#utility.yul\":26417:26463   */\n      iszero\n      tag_741\n      jumpi\n        /* \"#utility.yul\":26443:26461   */\n      tag_742\n      tag_472\n      jump\t// in\n    tag_742:\n        /* \"#utility.yul\":26417:26463   */\n    tag_741:\n        /* \"#utility.yul\":26270:26470   */\n      swap3\n      swap2\n      pop\n      pop\n      jump\t// out\n        /* \"#utility.yul\":26476:26574   */\n    tag_498:\n        /* \"#utility.yul\":26527:26533   */\n      0x00\n        /* \"#utility.yul\":26561:26566   */\n      dup2\n        /* \"#utility.yul\":26555:26567   */\n      mload\n        /* \"#utility.yul\":26545:26567   */\n      swap1\n      pop\n        /* \"#utility.yul\":26476:26574   */\n      swap2\n      swap1\n      pop\n      jump\t// out\n        /* \"#utility.yul\":26580:26727   */\n    tag_499:\n        /* \"#utility.yul\":26681:26692   */\n      0x00\n        /* \"#utility.yul\":26718:26721   */\n      dup2\n        /* \"#utility.yul\":26703:26721   */\n      swap1\n      pop\n        /* \"#utility.yul\":26580:26727   */\n      swap3\n      swap2\n      pop\n      pop\n      jump\t// out\n        /* \"#utility.yul\":26733:26979   */\n    tag_500:\n        /* \"#utility.yul\":26814:26815   */\n      0x00\n        /* \"#utility.yul\":26824:26937   */\n    tag_746:\n        /* \"#utility.yul\":26838:26844   */\n      dup4\n        /* \"#utility.yul\":26835:26836   */\n      dup2\n        /* \"#utility.yul\":26832:26845   */\n      lt\n        /* \"#utility.yul\":26824:26937   */\n      iszero\n      tag_748\n      jumpi\n        /* \"#utility.yul\":26923:26924   */\n      dup1\n        /* \"#utility.yul\":26918:26921   */\n      dup3\n        /* \"#utility.yul\":26914:26925   */\n      add\n        /* \"#utility.yul\":26908:26926   */\n      mload\n        /* \"#utility.yul\":26904:26905   */\n      dup2\n        /* \"#utility.yul\":26899:26902   */\n      dup5\n        /* \"#utility.yul\":26895:26906   */\n      add\n        /* \"#utility.yul\":26888:26927   */\n      mstore\n        /* \"#utility.yul\":26860:26862   */\n      0x20\n        /* \"#utility.yul\":26857:26858   */\n      dup2\n        /* \"#utility.yul\":26853:26863   */\n      add\n        /* \"#utility.yul\":26848:26863   */\n      swap1\n      pop\n        /* \"#utility.yul\":26824:26937   */\n      jump(tag_746)\n    tag_748:\n        /* \"#utility.yul\":26971:26972   */\n      0x00\n        /* \"#utility.yul\":26962:26968   */\n      dup5\n        /* \"#utility.yul\":26957:26960   */\n      dup5\n        /* \"#utility.yul\":26953:26969   */\n      add\n        /* \"#utility.yul\":26946:26973   */\n      mstore\n        /* \"#utility.yul\":26795:26979   */\n      pop\n        /* \"#utility.yul\":26733:26979   */\n      pop\n      pop\n      pop\n      jump\t// out\n        /* \"#utility.yul\":26985:27371   */\n    tag_501:\n        /* \"#utility.yul\":27089:27092   */\n      0x00\n        /* \"#utility.yul\":27117:27155   */\n      tag_750\n        /* \"#utility.yul\":27149:27154   */\n      dup3\n        /* \"#utility.yul\":27117:27155   */\n      tag_498\n      jump\t// in\n    tag_750:\n        /* \"#utility.yul\":27171:27259   */\n      tag_751\n        /* \"#utility.yul\":27252:27258   */\n      dup2\n        /* \"#utility.yul\":27247:27250   */\n      dup6\n        /* \"#utility.yul\":27171:27259   */\n      tag_499\n      jump\t// in\n    tag_751:\n        /* \"#utility.yul\":27164:27259   */\n      swap4\n      pop\n        /* \"#utility.yul\":27268:27333   */\n      tag_752\n        /* \"#utility.yul\":27326:27332   */\n      dup2\n        /* \"#utility.yul\":27321:27324   */\n      dup6\n        /* \"#utility.yul\":27314:27318   */\n      0x20\n        /* \"#utility.yul\":27307:27312   */\n      dup7\n        /* \"#utility.yul\":27303:27319   */\n      add\n        /* \"#utility.yul\":27268:27333   */\n      tag_500\n      jump\t// in\n    tag_752:\n        /* \"#utility.yul\":27358:27364   */\n      dup1\n        /* \"#utility.yul\":27353:27356   */\n      dup5\n        /* \"#utility.yul\":27349:27365   */\n      add\n        /* \"#utility.yul\":27342:27365   */\n      swap2\n      pop\n        /* \"#utility.yul\":27093:27371   */\n      pop\n        /* \"#utility.yul\":26985:27371   */\n      swap3\n      swap2\n      pop\n      pop\n      jump\t// out\n        /* \"#utility.yul\":27377:27648   */\n    tag_428:\n        /* \"#utility.yul\":27507:27510   */\n      0x00\n        /* \"#utility.yul\":27529:27622   */\n      tag_754\n        /* \"#utility.yul\":27618:27621   */\n      dup3\n        /* \"#utility.yul\":27609:27615   */\n      dup5\n        /* \"#utility.yul\":27529:27622   */\n      tag_501\n      jump\t// in\n    tag_754:\n        /* \"#utility.yul\":27522:27622   */\n      swap2\n      pop\n        /* \"#utility.yul\":27639:27642   */\n      dup2\n        /* \"#utility.yul\":27632:27642   */\n      swap1\n      pop\n        /* \"#utility.yul\":27377:27648   */\n      swap3\n      swap2\n      pop\n      pop\n      jump\t// out\n\n    auxdata: 0xa264697066735822122071a1aeda410bc56d25b5d05f9d0bf84f7f38d3f6257077d6905712540ede0e3164736f6c63430008140033\n}\n",
				"bytecode": {
					"linkReferences": {},
					"object": "608060405234801562000010575f80fd5b5060405162003da138038062003da1833981810160405281019062000036919062000261565b3360015f819055505f73ffffffffffffffffffffffffffffffffffffffff168173ffffffffffffffffffffffffffffffffffffffff1603620000b1575f6040517f1e4fbdf7000000000000000000000000000000000000000000000000000000008152600401620000a89190620002a2565b60405180910390fd5b620000c2816200013960201b60201c565b50600160025f8373ffffffffffffffffffffffffffffffffffffffff1673ffffffffffffffffffffffffffffffffffffffff1681526020019081526020015f205f6101000a81548160ff021916908315150217905550600160045f6101000a81548160ff02191690831515021790555050620002bd565b5f60015f9054906101000a900473ffffffffffffffffffffffffffffffffffffffff1690508160015f6101000a81548173ffffffffffffffffffffffffffffffffffffffff021916908373ffffffffffffffffffffffffffffffffffffffff1602179055508173ffffffffffffffffffffffffffffffffffffffff168173ffffffffffffffffffffffffffffffffffffffff167f8be0079c531659141344cd1fd0a4f28419497f9722a3daafe3b4186f6b6457e060405160405180910390a35050565b5f80fd5b5f73ffffffffffffffffffffffffffffffffffffffff82169050919050565b5f6200022b8262000200565b9050919050565b6200023d816200021f565b811462000248575f80fd5b50565b5f815190506200025b8162000232565b92915050565b5f60208284031215620002795762000278620001fc565b5b5f62000288848285016200024b565b91505092915050565b6200029c816200021f565b82525050565b5f602082019050620002b75f83018462000291565b92915050565b613ad680620002cb5f395ff3fe608060405234801561000f575f80fd5b50600436106100fe575f3560e01c8063bc6bce9111610095578063d982817411610064578063d98281741461026c578063e00dd16114610288578063f2fde38b146102a6578063f41188ed146102c2576100fe565b8063bc6bce91146101e8578063bce3468d14610218578063c5e7bb3314610234578063d709815414610250576100fe565b8063715018a6116100d1578063715018a6146101865780638da5cb5b146101905780639be8a306146101ae578063a210d5e0146101ca576100fe565b80633834efe1146101025780633ddb7f191461011e5780634f2fccb01461013a578063559f24bc1461016a575b5f80fd5b61011c60048036038101906101179190612d3c565b6102de565b005b61013860048036038101906101339190612dc1565b6104a8565b005b610154600480360381019061014f9190612d3c565b61074a565b6040516101619190612e84565b60405180910390f35b610184600480360381019061017f9190612e9d565b610773565b005b61018e6108cd565b005b6101986108e0565b6040516101a59190612eea565b60405180910390f35b6101c860048036038101906101c39190612f03565b610908565b005b6101d2610bf3565b6040516101df9190612fce565b60405180910390f35b61020260048036038101906101fd9190612fe7565b610c05565b60405161020f9190612fce565b60405180910390f35b610232600480360381019061022d9190612e9d565b610c22565b005b61024e60048036038101906102499190612dc1565b6110db565b005b61026a60048036038101906102659190612d3c565b6113b3565b005b6102866004803603810190610281919061303c565b6114bc565b005b6102906115c3565b60405161029d9190613089565b60405180910390f35b6102c060048036038101906102bb9190612fe7565b6115c9565b005b6102dc60048036038101906102d791906130a2565b61164d565b005b6001151560025f3373ffffffffffffffffffffffffffffffffffffffff1673ffffffffffffffffffffffffffffffffffffffff1681526020019081526020015f205f9054906101000a900460ff1615151461036e576040517f08c379a000000000000000000000000000000000000000000000000000000000815260040161036590613127565b60405180910390fd5b61037661173e565b6001600381111561038a57610389612e11565b5b60055f8381526020019081526020015f205f0160149054906101000a900460ff1660038111156103bd576103bc612e11565b5b146103fd576040517f08c379a00000000000000000000000000000000000000000000000000000000081526004016103f49061318f565b60405180910390fd5b600260055f8381526020019081526020015f205f0160146101000a81548160ff0219169083600381111561043457610433612e11565b5b0217905550807f4e7abaf6039e145cbdc465859479a7f979153a7c1a4e5662c425afe2a794c7854260055f8581526020019081526020015f206005015460055f8681526020019081526020015f2060070154604051610495939291906131ad565b60405180910390a26104a561178b565b50565b6001151560025f3373ffffffffffffffffffffffffffffffffffffffff1673ffffffffffffffffffffffffffffffffffffffff1681526020019081526020015f205f9054906101000a900460ff16151514610538576040517f08c379a000000000000000000000000000000000000000000000000000000000815260040161052f90613127565b60405180910390fd5b61054061173e565b6001600381111561055457610553612e11565b5b60055f8581526020019081526020015f205f0160149054906101000a900460ff16600381111561058757610586612e11565b5b146105c7576040517f08c379a00000000000000000000000000000000000000000000000000000000081526004016105be9061318f565b60405180910390fd5b5f60055f8581526020019081526020015f2060020154146106395760055f8481526020019081526020015f20600201544210610638576040517f08c379a000000000000000000000000000000000000000000000000000000000815260040161062f9061322c565b60405180910390fd5b5b5f60055f8581526020019081526020015f2060030154146106cb5760055f8481526020019081526020015f20600301548160055f8681526020019081526020015f20600501546106899190613277565b11156106ca576040517f08c379a00000000000000000000000000000000000000000000000000000000081526004016106c1906132f4565b60405180910390fd5b5b6106d78383835f611794565b8173ffffffffffffffffffffffffffffffffffffffff163373ffffffffffffffffffffffffffffffffffffffff16847f0cdb228e331696a3755ff9db076df661228408ca1178178951e48ae952567c1f846040516107359190613089565b60405180910390a461074561178b565b505050565b5f60055f8381526020019081526020015f205f0160149054906101000a900460ff169050919050565b61077b61173e565b5f81036107bd576040517f08c379a00000000000000000000000000000000000000000000000000000000081526004016107b49061335c565b60405180910390fd5b600160038111156107d1576107d0612e11565b5b60055f8481526020019081526020015f205f0160149054906101000a900460ff16600381111561080457610803612e11565b5b14610844576040517f08c379a000000000000000000000000000000000000000000000000000000000815260040161083b9061318f565b60405180910390fd5b5f60055f8481526020019081526020015f2060020154146108b65760055f8381526020019081526020015f206002015442106108b5576040517f08c379a00000000000000000000000000000000000000000000000000000000081526004016108ac9061322c565b60405180910390fd5b5b6108c1823383611ab2565b6108c961178b565b5050565b6108d5611d14565b6108de5f611d9b565b565b5f60015f9054906101000a900473ffffffffffffffffffffffffffffffffffffffff16905090565b6001151560025f3373ffffffffffffffffffffffffffffffffffffffff1673ffffffffffffffffffffffffffffffffffffffff1681526020019081526020015f205f9054906101000a900460ff16151514610998576040517f08c379a000000000000000000000000000000000000000000000000000000000815260040161098f90613127565b60405180910390fd5b6109a061173e565b60035f8154809291906109b29061337a565b9190505550604051806101e001604052808973ffffffffffffffffffffffffffffffffffffffff168152602001600160038111156109f3576109f2612e11565b5b81526020014281526020018781526020018681526020018581526020015f81526020015f81526020015f81526020015f81526020015f81526020015f815260200188815260200182815260200160045f9054906101000a900460ff16151581525060055f60035481526020019081526020015f205f820151815f015f6101000a81548173ffffffffffffffffffffffffffffffffffffffff021916908373ffffffffffffffffffffffffffffffffffffffff1602179055506020820151815f0160146101000a81548160ff02191690836003811115610ad557610ad4612e11565b5b021790555060408201518160010155606082015181600201556080820151816003015560a0820151816004015560c0820151816005015560e0820151816006015561010082015181600701556101208201518160080155610140820151816009015561016082015181600a015561018082015181600b01556101a082015181600c01556101c082015181600d015f6101000a81548160ff0219169083151502179055509050506003547fc048fb84fda80e25f0fefc7a7d2ecc12b63298aa81ba993895368d62553478ed4288888b60045f9054906101000a900460ff16604051610bc39594939291906133c1565b60405180910390a25f821115610be157610be06003548484611ab2565b5b610be961178b565b5050505050505050565b60045f9054906101000a900460ff1681565b6002602052805f5260405f205f915054906101000a900460ff1681565b6001151560025f3373ffffffffffffffffffffffffffffffffffffffff1673ffffffffffffffffffffffffffffffffffffffff1681526020019081526020015f205f9054906101000a900460ff16151514610cb2576040517f08c379a0000000000000000000000000000000000000000000000000000000008152600401610ca990613127565b60405180910390fd5b610cba61173e565b60026003811115610cce57610ccd612e11565b5b60055f8481526020019081526020015f205f0160149054906101000a900460ff166003811115610d0157610d00612e11565b5b14610d41576040517f08c379a0000000000000000000000000000000000000000000000000000000008152600401610d389061345c565b60405180910390fd5b600360055f8481526020019081526020015f205f0160146101000a81548160ff02191690836003811115610d7857610d77612e11565b5b0217905550817f66f6b4cd34444af165fb78bce3996496528b37af161c26f737b7341cc37063bb42604051610dad9190613089565b60405180910390a25f60055f8481526020019081526020015f206006015460055f8581526020019081526020015f2060050154610dea9190613277565b90505f8103610e0b57610dfc83611e5e565b610e0583611fde565b506110cf565b5f8290505f82905060055f8681526020019081526020015f2060040154811115610e475760055f8681526020019081526020015f206004015490505b5f60055f8781526020019081526020015f206005015460055f8881526020019081526020015f2060070154610e7c9190613277565b90505f8160055f8981526020019081526020015f20600b0154610e9f919061347a565b90505f610ead85858461222b565b9050610eba8885836123b5565b60055f8981526020019081526020015f20600d015f9054906101000a900460ff16156110c8575f5b60055f8a81526020019081526020015f20600801548110156110c6575f600a5f8b81526020019081526020015f205f60095f8d81526020019081526020015f205f8581526020019081526020015f205f9054906101000a900473ffffffffffffffffffffffffffffffffffffffff1673ffffffffffffffffffffffffffffffffffffffff1673ffffffffffffffffffffffffffffffffffffffff1681526020019081526020015f205414610fda57610fd98960095f8c81526020019081526020015f205f8481526020019081526020015f205f9054906101000a900473ffffffffffffffffffffffffffffffffffffffff1661263e565b5b60085f8a81526020019081526020015f205f60095f8c81526020019081526020015f205f8481526020019081526020015f205f9054906101000a900473ffffffffffffffffffffffffffffffffffffffff1673ffffffffffffffffffffffffffffffffffffffff1673ffffffffffffffffffffffffffffffffffffffff1681526020019081526020015f205f905560095f8a81526020019081526020015f205f8281526020019081526020015f205f6101000a81549073ffffffffffffffffffffffffffffffffffffffff02191690556110b389611fde565b80806110be9061337a565b915050610ee2565b505b5050505050505b6110d761178b565b5050565b6110e361173e565b600160038111156110f7576110f6612e11565b5b60055f8581526020019081526020015f205f0160149054906101000a900460ff16600381111561112a57611129612e11565b5b1461116a576040517f08c379a00000000000000000000000000000000000000000000000000000000081526004016111619061318f565b60405180910390fd5b5f81036111ac576040517f08c379a00000000000000000000000000000000000000000000000000000000081526004016111a390613505565b60405180910390fd5b5f60055f8581526020019081526020015f20600201541461121e5760055f8481526020019081526020015f2060020154421061121d576040517f08c379a00000000000000000000000000000000000000000000000000000000081526004016112149061322c565b60405180910390fd5b5b5f60055f8581526020019081526020015f2060030154146112b05760055f8481526020019081526020015f20600301548160055f8681526020019081526020015f206005015461126e9190613277565b11156112af576040517f08c379a00000000000000000000000000000000000000000000000000000000081526004016112a6906132f4565b60405180910390fd5b5b5f8160055f8681526020019081526020015f20600b01546112d1919061347a565b905061133233308360055f8981526020019081526020015f205f015f9054906101000a900473ffffffffffffffffffffffffffffffffffffffff1673ffffffffffffffffffffffffffffffffffffffff1661283e909392919063ffffffff16565b61133f8484846001611794565b8273ffffffffffffffffffffffffffffffffffffffff163373ffffffffffffffffffffffffffffffffffffffff16857fc711bfbe9284c7d96adbb9ebad39767e13c00b6b5cd4ca300fec0d969309a4078560405161139d9190613089565b60405180910390a4506113ae61178b565b505050565b6113bb61173e565b6003808111156113ce576113cd612e11565b5b60055f8381526020019081526020015f205f0160149054906101000a900460ff16600381111561140157611400612e11565b5b14611441576040517f08c379a00000000000000000000000000000000000000000000000000000000081526004016114389061356d565b60405180910390fd5b5f151560055f8381526020019081526020015f20600d015f9054906101000a900460ff161515146114a7576040517f08c379a000000000000000000000000000000000000000000000000000000000815260040161149e906135d5565b60405180910390fd5b6114b1813361263e565b6114b961178b565b50565b6114c4611d14565b5f73ffffffffffffffffffffffffffffffffffffffff168273ffffffffffffffffffffffffffffffffffffffff1603611532576040517f08c379a00000000000000000000000000000000000000000000000000000000081526004016115299061363d565b60405180910390fd5b8060025f8473ffffffffffffffffffffffffffffffffffffffff1673ffffffffffffffffffffffffffffffffffffffff1681526020019081526020015f205f6101000a81548160ff0219169083151502179055507fedae46487653623e513ea3b3341c9e6b457a2ef687d0342d2507ccb63458b19f82826040516115b792919061365b565b60405180910390a15050565b60035481565b6115d1611d14565b5f73ffffffffffffffffffffffffffffffffffffffff168173ffffffffffffffffffffffffffffffffffffffff1603611641575f6040517f1e4fbdf70000000000000000000000000000000000000000000000000000000081526004016116389190612eea565b60405180910390fd5b61164a81611d9b565b50565b6001151560025f3373ffffffffffffffffffffffffffffffffffffffff1673ffffffffffffffffffffffffffffffffffffffff1681526020019081526020015f205f9054906101000a900460ff161515146116dd576040517f08c379a00000000000000000000000000000000000000000000000000000000081526004016116d490613127565b60405180910390fd5b8060045f6101000a81548160ff0219169083151502179055507f6fe9a4ab2e95e24b2be44989dc36a685149dfde9354d486a8da5cb4bbd01b01060045f9054906101000a900460ff166040516117339190612fce565b60405180910390a150565b60025f5403611782576040517f08c379a0000000000000000000000000000000000000000000000000000000008152600401611779906136cc565b60405180910390fd5b60025f81905550565b60015f81905550565b60405180606001604052808381526020018473ffffffffffffffffffffffffffffffffffffffff16815260200182151581525060065f8681526020019081526020015f205f60055f8881526020019081526020015f206009015481526020019081526020015f205f820151815f01556020820151816001015f6101000a81548173ffffffffffffffffffffffffffffffffffffffff021916908373ffffffffffffffffffffffffffffffffffffffff16021790555060408201518160010160146101000a81548160ff02191690831515021790555090505080156118af578160055f8681526020019081526020015f20600501546118929190613277565b60055f8681526020019081526020015f20600501819055506118e8565b8160055f8681526020019081526020015f20600601546118cf9190613277565b60055f8681526020019081526020015f20600601819055505b5f60085f8681526020019081526020015f205f8573ffffffffffffffffffffffffffffffffffffffff1673ffffffffffffffffffffffffffffffffffffffff1681526020019081526020015f2054036119d9578260095f8681526020019081526020015f205f60055f8881526020019081526020015f206008015481526020019081526020015f205f6101000a81548173ffffffffffffffffffffffffffffffffffffffff021916908373ffffffffffffffffffffffffffffffffffffffff160217905550600160055f8681526020019081526020015f206008015f8282546119d19190613277565b925050819055505b600160055f8681526020019081526020015f206009015f8282546119fd9190613277565b925050819055508160085f8681526020019081526020015f205f8573ffffffffffffffffffffffffffffffffffffffff1673ffffffffffffffffffffffffffffffffffffffff1681526020019081526020015f2054611a5c9190613277565b60085f8681526020019081526020015f205f8573ffffffffffffffffffffffffffffffffffffffff1673ffffffffffffffffffffffffffffffffffffffff1681526020019081526020015f208190555050505050565b5f8160055f8681526020019081526020015f20600b0154611ad3919061347a565b9050611b3483308360055f8981526020019081526020015f205f015f9054906101000a900473ffffffffffffffffffffffffffffffffffffffff1673ffffffffffffffffffffffffffffffffffffffff1661283e909392919063ffffffff16565b8160055f60035481526020019081526020015f206007015f828254611b599190613277565b925050819055505f600c5f60035481526020019081526020015f205f8573ffffffffffffffffffffffffffffffffffffffff1673ffffffffffffffffffffffffffffffffffffffff1681526020019081526020015f205403611c595782600b5f60035481526020019081526020015f205f60055f60035481526020019081526020015f20600a015481526020019081526020015f205f6101000a81548173ffffffffffffffffffffffffffffffffffffffff021916908373ffffffffffffffffffffffffffffffffffffffff160217905550600160055f60035481526020019081526020015f20600a015f828254611c519190613277565b925050819055505b81600c5f60035481526020019081526020015f205f8573ffffffffffffffffffffffffffffffffffffffff1673ffffffffffffffffffffffffffffffffffffffff1681526020019081526020015f205f828254611cb69190613277565b925050819055508273ffffffffffffffffffffffffffffffffffffffff166003547fa95519638524dcea0d5d0102c719d77dc3d8b1ae68d2d1e37c79be21bc7b113b84604051611d069190613089565b60405180910390a350505050565b611d1c6128c0565b73ffffffffffffffffffffffffffffffffffffffff16611d3a6108e0565b73ffffffffffffffffffffffffffffffffffffffff1614611d9957611d5d6128c0565b6040517f118cdaa7000000000000000000000000000000000000000000000000000000008152600401611d909190612eea565b60405180910390fd5b565b5f60015f9054906101000a900473ffffffffffffffffffffffffffffffffffffffff1690508160015f6101000a81548173ffffffffffffffffffffffffffffffffffffffff021916908373ffffffffffffffffffffffffffffffffffffffff1602179055508173ffffffffffffffffffffffffffffffffffffffff168173ffffffffffffffffffffffffffffffffffffffff167f8be0079c531659141344cd1fd0a4f28419497f9722a3daafe3b4186f6b6457e060405160405180910390a35050565b5f5b60055f8381526020019081526020015f20600a0154811015611fda575f600c5f8481526020019081526020015f205f600b5f8681526020019081526020015f205f8581526020019081526020015f205f9054906101000a900473ffffffffffffffffffffffffffffffffffffffff1673ffffffffffffffffffffffffffffffffffffffff1673ffffffffffffffffffffffffffffffffffffffff1681526020019081526020015f205460055f8581526020019081526020015f20600b0154611f28919061347a565b9050611fc6600b5f8581526020019081526020015f205f8481526020019081526020015f205f9054906101000a900473ffffffffffffffffffffffffffffffffffffffff168260055f8781526020019081526020015f205f015f9054906101000a900473ffffffffffffffffffffffffffffffffffffffff1673ffffffffffffffffffffffffffffffffffffffff166128c79092919063ffffffff16565b508080611fd29061337a565b915050611e60565b5050565b5f5b60055f8381526020019081526020015f20600a01548110156120df57600c5f8381526020019081526020015f205f600b5f8581526020019081526020015f205f8481526020019081526020015f205f9054906101000a900473ffffffffffffffffffffffffffffffffffffffff1673ffffffffffffffffffffffffffffffffffffffff1673ffffffffffffffffffffffffffffffffffffffff1681526020019081526020015f205f9055600b5f8381526020019081526020015f205f8281526020019081526020015f205f6101000a81549073ffffffffffffffffffffffffffffffffffffffff021916905580806120d79061337a565b915050611fe0565b505f5b60055f8381526020019081526020015f20600901548110156121745760065f8381526020019081526020015f205f8281526020019081526020015f205f8082015f9055600182015f6101000a81549073ffffffffffffffffffffffffffffffffffffffff02191690556001820160146101000a81549060ff02191690555050808061216c9061337a565b9150506120e2565b5060055f8281526020019081526020015f205f8082015f6101000a81549073ffffffffffffffffffffffffffffffffffffffff02191690555f820160146101000a81549060ff0219169055600182015f9055600282015f9055600382015f9055600482015f9055600582015f9055600682015f9055600782015f9055600882015f9055600982015f9055600a82015f9055600b82015f9055600c82015f9055600d82015f6101000a81549060ff0219169055505050565b60605f8367ffffffffffffffff811115612248576122476136ea565b5b6040519080825280602002602001820160405280156122765781602001602082028036833780820191505090505b5090505f8590505f5b60018661228c9190613717565b81101561237c5761229d8282612946565b91505f85836122ac9190613777565b90505f8290505b600181101580156122e95750846001826122cd9190613717565b815181106122de576122dd6137a7565b5b602002602001015182105b1561234757846001826122fc9190613717565b8151811061230d5761230c6137a7565b5b6020026020010151858281518110612328576123276137a7565b5b602002602001018181525050808061233f906137d4565b9150506122b3565b8185828151811061235b5761235a6137a7565b5b602002602001018181525050505080806123749061337a565b91505061227f565b50838260018761238c9190613717565b8151811061239d5761239c6137a7565b5b60200260200101818152505081925050509392505050565b5f8060055f8681526020019081526020015f206006015460055f8781526020019081526020015f20600501546123eb9190613277565b90505f5b84811015612636575f8385838151811061240c5761240b6137a7565b5b602002602001015161241e9190613717565b90505f8290508387146124b35783612450878581518110612442576124416137a7565b5b602002602001015185612946565b61245a9190613777565b90505b5f151560075f8a81526020019081526020015f205f8381526020019081526020015f205f9054906101000a900460ff161515146124b257808061249f9061337a565b9150508381036124ad575f90505b61245d565b5b600160075f8a81526020019081526020015f205f8381526020019081526020015f205f6101000a81548160ff0219169083151502179055505f6124f68983612995565b905081816001015f9054906101000a900473ffffffffffffffffffffffffffffffffffffffff1673ffffffffffffffffffffffffffffffffffffffff168a7f927546e38b674f5e5dff7edce9c7afdcf21a35ac03ba70fe8e341f61f2c73ded8660055f8f81526020019081526020015f20600d015f9054906101000a900460ff166040516125859291906137fb565b60405180910390a482600a5f8b81526020019081526020015f205f836001015f9054906101000a900473ffffffffffffffffffffffffffffffffffffffff1673ffffffffffffffffffffffffffffffffffffffff1673ffffffffffffffffffffffffffffffffffffffff1681526020019081526020015f205f82825461260b9190613277565b92505081905550828661261e9190613277565b9550505050808061262e9061337a565b9150506123ef565b505050505050565b5f600a5f8481526020019081526020015f205f8373ffffffffffffffffffffffffffffffffffffffff1673ffffffffffffffffffffffffffffffffffffffff1681526020019081526020015f2054036126cc576040517f08c379a00000000000000000000000000000000000000000000000000000000081526004016126c39061386c565b60405180910390fd5b5f600a5f8481526020019081526020015f205f8373ffffffffffffffffffffffffffffffffffffffff1673ffffffffffffffffffffffffffffffffffffffff1681526020019081526020015f20549050612779828260055f8781526020019081526020015f205f015f9054906101000a900473ffffffffffffffffffffffffffffffffffffffff1673ffffffffffffffffffffffffffffffffffffffff166128c79092919063ffffffff16565b600a5f8481526020019081526020015f205f8373ffffffffffffffffffffffffffffffffffffffff1673ffffffffffffffffffffffffffffffffffffffff1681526020019081526020015f205f90558173ffffffffffffffffffffffffffffffffffffffff16837f268ef67ed0490cc273925a4865e6fbdb4dcf7e0802aad957aa682a78c7618bef8360055f8881526020019081526020015f20600d015f9054906101000a900460ff166040516128319291906137fb565b60405180910390a3505050565b6128ba848573ffffffffffffffffffffffffffffffffffffffff166323b872dd8686866040516024016128739392919061388a565b604051602081830303815290604052915060e01b6020820180517bffffffffffffffffffffffffffffffffffffffffffffffffffffffff8381831617835250505050612a96565b50505050565b5f33905090565b612941838473ffffffffffffffffffffffffffffffffffffffff1663a9059cbb85856040516024016128fa9291906138bf565b604051602081830303815290604052915060e01b6020820180517bffffffffffffffffffffffffffffffffffffffffffffffffffffffff8381831617835250505050612a96565b505050565b5f80610100836129569190613777565b9050836129638583612b2b565b604051602001612974929190613906565b604051602081830303815290604052805190602001205f1c91505092915050565b5f805f90505f5b60055f8681526020019081526020015f2060090154811015612a2b5760065f8681526020019081526020015f205f8281526020019081526020015f205f0154826129e69190613277565b9150838210612a185760065f8681526020019081526020015f205f8281526020019081526020015f2092505050612a90565b8080612a239061337a565b91505061299c565b505f612a6c576040517f08c379a0000000000000000000000000000000000000000000000000000000008152600401612a639061397b565b60405180910390fd5b60065f8581526020019081526020015f205f8081526020019081526020015f209150505b92915050565b5f612ac0828473ffffffffffffffffffffffffffffffffffffffff16612b5690919063ffffffff16565b90505f815114158015612ae4575080806020019051810190612ae291906139ad565b155b15612b2657826040517f5274afe7000000000000000000000000000000000000000000000000000000008152600401612b1d9190612eea565b60405180910390fd5b505050565b5f81610100612b3a91906139e7565b63ffffffff1683901c8263ffffffff1684901b17905092915050565b6060612b6383835f612b6b565b905092915050565b606081471015612bb257306040517fcd786059000000000000000000000000000000000000000000000000000000008152600401612ba99190612eea565b60405180910390fd5b5f808573ffffffffffffffffffffffffffffffffffffffff168486604051612bda9190613a8a565b5f6040518083038185875af1925050503d805f8114612c14576040519150601f19603f3d011682016040523d82523d5f602084013e612c19565b606091505b5091509150612c29868383612c34565b925050509392505050565b606082612c4957612c4482612cc1565b612cb9565b5f8251148015612c6f57505f8473ffffffffffffffffffffffffffffffffffffffff163b145b15612cb157836040517f9996b315000000000000000000000000000000000000000000000000000000008152600401612ca89190612eea565b60405180910390fd5b819050612cba565b5b9392505050565b5f81511115612cd35780518082602001fd5b6040517f1425ea4200000000000000000000000000000000000000000000000000000000815260040160405180910390fd5b5f80fd5b5f819050919050565b612d1b81612d09565b8114612d25575f80fd5b50565b5f81359050612d3681612d12565b92915050565b5f60208284031215612d5157612d50612d05565b5b5f612d5e84828501612d28565b91505092915050565b5f73ffffffffffffffffffffffffffffffffffffffff82169050919050565b5f612d9082612d67565b9050919050565b612da081612d86565b8114612daa575f80fd5b50565b5f81359050612dbb81612d97565b92915050565b5f805f60608486031215612dd857612dd7612d05565b5b5f612de586828701612d28565b9350506020612df686828701612dad565b9250506040612e0786828701612d28565b9150509250925092565b7f4e487b71000000000000000000000000000000000000000000000000000000005f52602160045260245ffd5b60048110612e4f57612e4e612e11565b5b50565b5f819050612e5f82612e3e565b919050565b5f612e6e82612e52565b9050919050565b612e7e81612e64565b82525050565b5f602082019050612e975f830184612e75565b92915050565b5f8060408385031215612eb357612eb2612d05565b5b5f612ec085828601612d28565b9250506020612ed185828601612d28565b9150509250929050565b612ee481612d86565b82525050565b5f602082019050612efd5f830184612edb565b92915050565b5f805f805f805f80610100898b031215612f2057612f1f612d05565b5b5f612f2d8b828c01612dad565b9850506020612f3e8b828c01612d28565b9750506040612f4f8b828c01612d28565b9650506060612f608b828c01612d28565b9550506080612f718b828c01612d28565b94505060a0612f828b828c01612dad565b93505060c0612f938b828c01612d28565b92505060e0612fa48b828c01612d28565b9150509295985092959890939650565b5f8115159050919050565b612fc881612fb4565b82525050565b5f602082019050612fe15f830184612fbf565b92915050565b5f60208284031215612ffc57612ffb612d05565b5b5f61300984828501612dad565b91505092915050565b61301b81612fb4565b8114613025575f80fd5b50565b5f8135905061303681613012565b92915050565b5f806040838503121561305257613051612d05565b5b5f61305f85828601612dad565b925050602061307085828601613028565b9150509250929050565b61308381612d09565b82525050565b5f60208201905061309c5f83018461307a565b92915050565b5f602082840312156130b7576130b6612d05565b5b5f6130c484828501613028565b91505092915050565b5f82825260208201905092915050565b7f4e6f74206f70657261746f7200000000000000000000000000000000000000005f82015250565b5f613111600c836130cd565b915061311c826130dd565b602082019050919050565b5f6020820190508181035f83015261313e81613105565b9050919050565b7f526564456e76656c6f7065206973206e6f74206f70656e0000000000000000005f82015250565b5f6131796017836130cd565b915061318482613145565b602082019050919050565b5f6020820190508181035f8301526131a68161316d565b9050919050565b5f6060820190506131c05f83018661307a565b6131cd602083018561307a565b6131da604083018461307a565b949350505050565b7f526564456e76656c6f7065206973206f7665722074696d6500000000000000005f82015250565b5f6132166018836130cd565b9150613221826131e2565b602082019050919050565b5f6020820190508181035f8301526132438161320a565b9050919050565b7f4e487b71000000000000000000000000000000000000000000000000000000005f52601160045260245ffd5b5f61328182612d09565b915061328c83612d09565b92508282019050808211156132a4576132a361324a565b5b92915050565b7f526564456e76656c6f7065206973206f766572207469636b65740000000000005f82015250565b5f6132de601a836130cd565b91506132e9826132aa565b602082019050919050565b5f6020820190508181035f83015261330b816132d2565b9050919050565b7f696e6a656374206e6f207a65726f0000000000000000000000000000000000005f82015250565b5f613346600e836130cd565b915061335182613312565b602082019050919050565b5f6020820190508181035f8301526133738161333a565b9050919050565b5f61338482612d09565b91507fffffffffffffffffffffffffffffffffffffffffffffffffffffffffffffffff82036133b6576133b561324a565b5b600182019050919050565b5f60a0820190506133d45f83018861307a565b6133e1602083018761307a565b6133ee604083018661307a565b6133fb606083018561307a565b6134086080830184612fbf565b9695505050505050565b7f526564456e76656c6f7065206e6f7420636c6f736500000000000000000000005f82015250565b5f6134466015836130cd565b915061345182613412565b602082019050919050565b5f6020820190508181035f8301526134738161343a565b9050919050565b5f61348482612d09565b915061348f83612d09565b925082820261349d81612d09565b915082820484148315176134b4576134b361324a565b5b5092915050565b7f7469636b65744e756d62657273206e6f207a65726f00000000000000000000005f82015250565b5f6134ef6015836130cd565b91506134fa826134bb565b602082019050919050565b5f6020820190508181035f83015261351c816134e3565b9050919050565b7f526564456e76656c6f7065206e6f7420636c61696d61626c65000000000000005f82015250565b5f6135576019836130cd565b915061356282613523565b602082019050919050565b5f6020820190508181035f8301526135848161354b565b9050919050565b7f526564456e76656c6f7065206175746f20636c61696d000000000000000000005f82015250565b5f6135bf6016836130cd565b91506135ca8261358b565b602082019050919050565b5f6020820190508181035f8301526135ec816135b3565b9050919050565b7f43616e6e6f74206265207a65726f2061646472657373000000000000000000005f82015250565b5f6136276016836130cd565b9150613632826135f3565b602082019050919050565b5f6020820190508181035f8301526136548161361b565b9050919050565b5f60408201905061366e5f830185612edb565b61367b6020830184612fbf565b9392505050565b7f5265656e7472616e637947756172643a207265656e7472616e742063616c6c005f82015250565b5f6136b6601f836130cd565b91506136c182613682565b602082019050919050565b5f6020820190508181035f8301526136e3816136aa565b9050919050565b7f4e487b71000000000000000000000000000000000000000000000000000000005f52604160045260245ffd5b5f61372182612d09565b915061372c83612d09565b92508282039050818111156137445761374361324a565b5b92915050565b7f4e487b71000000000000000000000000000000000000000000000000000000005f52601260045260245ffd5b5f61378182612d09565b915061378c83612d09565b92508261379c5761379b61374a565b5b828206905092915050565b7f4e487b71000000000000000000000000000000000000000000000000000000005f52603260045260245ffd5b5f6137de82612d09565b91505f82036137f0576137ef61324a565b5b600182039050919050565b5f60408201905061380e5f83018561307a565b61381b6020830184612fbf565b9392505050565b7f6e6f207072697a650000000000000000000000000000000000000000000000005f82015250565b5f6138566008836130cd565b915061386182613822565b602082019050919050565b5f6020820190508181035f8301526138838161384a565b9050919050565b5f60608201905061389d5f830186612edb565b6138aa6020830185612edb565b6138b7604083018461307a565b949350505050565b5f6040820190506138d25f830185612edb565b6138df602083018461307a565b9392505050565b5f819050919050565b6139006138fb82612d09565b6138e6565b82525050565b5f61391182856138ef565b60208201915061392182846138ef565b6020820191508190509392505050565b7f696e646578206f75742072616e676500000000000000000000000000000000005f82015250565b5f613965600f836130cd565b915061397082613931565b602082019050919050565b5f6020820190508181035f83015261399281613959565b9050919050565b5f815190506139a781613012565b92915050565b5f602082840312156139c2576139c1612d05565b5b5f6139cf84828501613999565b91505092915050565b5f63ffffffff82169050919050565b5f6139f1826139d8565b91506139fc836139d8565b9250828203905063ffffffff811115613a1857613a1761324a565b5b92915050565b5f81519050919050565b5f81905092915050565b5f5b83811015613a4f578082015181840152602081019050613a34565b5f8484015250505050565b5f613a6482613a1e565b613a6e8185613a28565b9350613a7e818560208601613a32565b80840191505092915050565b5f613a958284613a5a565b91508190509291505056fea264697066735822122071a1aeda410bc56d25b5d05f9d0bf84f7f38d3f6257077d6905712540ede0e3164736f6c63430008140033",
					"opcodes": "PUSH1 0x80 PUSH1 0x40 MSTORE CALLVALUE DUP1 ISZERO PUSH3 0x10 JUMPI PUSH0 DUP1 REVERT JUMPDEST POP PUSH1 0x40 MLOAD PUSH3 0x3DA1 CODESIZE SUB DUP1 PUSH3 0x3DA1 DUP4 CODECOPY DUP2 DUP2 ADD PUSH1 0x40 MSTORE DUP2 ADD SWAP1 PUSH3 0x36 SWAP2 SWAP1 PUSH3 0x261 JUMP JUMPDEST CALLER PUSH1 0x1 PUSH0 DUP2 SWAP1 SSTORE POP PUSH0 PUSH20 0xFFFFFFFFFFFFFFFFFFFFFFFFFFFFFFFFFFFFFFFF AND DUP2 PUSH20 0xFFFFFFFFFFFFFFFFFFFFFFFFFFFFFFFFFFFFFFFF AND SUB PUSH3 0xB1 JUMPI PUSH0 PUSH1 0x40 MLOAD PUSH32 0x1E4FBDF700000000000000000000000000000000000000000000000000000000 DUP2 MSTORE PUSH1 0x4 ADD PUSH3 0xA8 SWAP2 SWAP1 PUSH3 0x2A2 JUMP JUMPDEST PUSH1 0x40 MLOAD DUP1 SWAP2 SUB SWAP1 REVERT JUMPDEST PUSH3 0xC2 DUP2 PUSH3 0x139 PUSH1 0x20 SHL PUSH1 0x20 SHR JUMP JUMPDEST POP PUSH1 0x1 PUSH1 0x2 PUSH0 DUP4 PUSH20 0xFFFFFFFFFFFFFFFFFFFFFFFFFFFFFFFFFFFFFFFF AND PUSH20 0xFFFFFFFFFFFFFFFFFFFFFFFFFFFFFFFFFFFFFFFF AND DUP2 MSTORE PUSH1 0x20 ADD SWAP1 DUP2 MSTORE PUSH1 0x20 ADD PUSH0 KECCAK256 PUSH0 PUSH2 0x100 EXP DUP2 SLOAD DUP2 PUSH1 0xFF MUL NOT AND SWAP1 DUP4 ISZERO ISZERO MUL OR SWAP1 SSTORE POP PUSH1 0x1 PUSH1 0x4 PUSH0 PUSH2 0x100 EXP DUP2 SLOAD DUP2 PUSH1 0xFF MUL NOT AND SWAP1 DUP4 ISZERO ISZERO MUL OR SWAP1 SSTORE POP POP PUSH3 0x2BD JUMP JUMPDEST PUSH0 PUSH1 0x1 PUSH0 SWAP1 SLOAD SWAP1 PUSH2 0x100 EXP SWAP1 DIV PUSH20 0xFFFFFFFFFFFFFFFFFFFFFFFFFFFFFFFFFFFFFFFF AND SWAP1 POP DUP2 PUSH1 0x1 PUSH0 PUSH2 0x100 EXP DUP2 SLOAD DUP2 PUSH20 0xFFFFFFFFFFFFFFFFFFFFFFFFFFFFFFFFFFFFFFFF MUL NOT AND SWAP1 DUP4 PUSH20 0xFFFFFFFFFFFFFFFFFFFFFFFFFFFFFFFFFFFFFFFF AND MUL OR SWAP1 SSTORE POP DUP2 PUSH20 0xFFFFFFFFFFFFFFFFFFFFFFFFFFFFFFFFFFFFFFFF AND DUP2 PUSH20 0xFFFFFFFFFFFFFFFFFFFFFFFFFFFFFFFFFFFFFFFF AND PUSH32 0x8BE0079C531659141344CD1FD0A4F28419497F9722A3DAAFE3B4186F6B6457E0 PUSH1 0x40 MLOAD PUSH1 0x40 MLOAD DUP1 SWAP2 SUB SWAP1 LOG3 POP POP JUMP JUMPDEST PUSH0 DUP1 REVERT JUMPDEST PUSH0 PUSH20 0xFFFFFFFFFFFFFFFFFFFFFFFFFFFFFFFFFFFFFFFF DUP3 AND SWAP1 POP SWAP2 SWAP1 POP JUMP JUMPDEST PUSH0 PUSH3 0x22B DUP3 PUSH3 0x200 JUMP JUMPDEST SWAP1 POP SWAP2 SWAP1 POP JUMP JUMPDEST PUSH3 0x23D DUP2 PUSH3 0x21F JUMP JUMPDEST DUP2 EQ PUSH3 0x248 JUMPI PUSH0 DUP1 REVERT JUMPDEST POP JUMP JUMPDEST PUSH0 DUP2 MLOAD SWAP1 POP PUSH3 0x25B DUP2 PUSH3 0x232 JUMP JUMPDEST SWAP3 SWAP2 POP POP JUMP JUMPDEST PUSH0 PUSH1 0x20 DUP3 DUP5 SUB SLT ISZERO PUSH3 0x279 JUMPI PUSH3 0x278 PUSH3 0x1FC JUMP JUMPDEST JUMPDEST PUSH0 PUSH3 0x288 DUP5 DUP3 DUP6 ADD PUSH3 0x24B JUMP JUMPDEST SWAP2 POP POP SWAP3 SWAP2 POP POP JUMP JUMPDEST PUSH3 0x29C DUP2 PUSH3 0x21F JUMP JUMPDEST DUP3 MSTORE POP POP JUMP JUMPDEST PUSH0 PUSH1 0x20 DUP3 ADD SWAP1 POP PUSH3 0x2B7 PUSH0 DUP4 ADD DUP5 PUSH3 0x291 JUMP JUMPDEST SWAP3 SWAP2 POP POP JUMP JUMPDEST PUSH2 0x3AD6 DUP1 PUSH3 0x2CB PUSH0 CODECOPY PUSH0 RETURN INVALID PUSH1 0x80 PUSH1 0x40 MSTORE CALLVALUE DUP1 ISZERO PUSH2 0xF JUMPI PUSH0 DUP1 REVERT JUMPDEST POP PUSH1 0x4 CALLDATASIZE LT PUSH2 0xFE JUMPI PUSH0 CALLDATALOAD PUSH1 0xE0 SHR DUP1 PUSH4 0xBC6BCE91 GT PUSH2 0x95 JUMPI DUP1 PUSH4 0xD9828174 GT PUSH2 0x64 JUMPI DUP1 PUSH4 0xD9828174 EQ PUSH2 0x26C JUMPI DUP1 PUSH4 0xE00DD161 EQ PUSH2 0x288 JUMPI DUP1 PUSH4 0xF2FDE38B EQ PUSH2 0x2A6 JUMPI DUP1 PUSH4 0xF41188ED EQ PUSH2 0x2C2 JUMPI PUSH2 0xFE JUMP JUMPDEST DUP1 PUSH4 0xBC6BCE91 EQ PUSH2 0x1E8 JUMPI DUP1 PUSH4 0xBCE3468D EQ PUSH2 0x218 JUMPI DUP1 PUSH4 0xC5E7BB33 EQ PUSH2 0x234 JUMPI DUP1 PUSH4 0xD7098154 EQ PUSH2 0x250 JUMPI PUSH2 0xFE JUMP JUMPDEST DUP1 PUSH4 0x715018A6 GT PUSH2 0xD1 JUMPI DUP1 PUSH4 0x715018A6 EQ PUSH2 0x186 JUMPI DUP1 PUSH4 0x8DA5CB5B EQ PUSH2 0x190 JUMPI DUP1 PUSH4 0x9BE8A306 EQ PUSH2 0x1AE JUMPI DUP1 PUSH4 0xA210D5E0 EQ PUSH2 0x1CA JUMPI PUSH2 0xFE JUMP JUMPDEST DUP1 PUSH4 0x3834EFE1 EQ PUSH2 0x102 JUMPI DUP1 PUSH4 0x3DDB7F19 EQ PUSH2 0x11E JUMPI DUP1 PUSH4 0x4F2FCCB0 EQ PUSH2 0x13A JUMPI DUP1 PUSH4 0x559F24BC EQ PUSH2 0x16A JUMPI JUMPDEST PUSH0 DUP1 REVERT JUMPDEST PUSH2 0x11C PUSH1 0x4 DUP1 CALLDATASIZE SUB DUP2 ADD SWAP1 PUSH2 0x117 SWAP2 SWAP1 PUSH2 0x2D3C JUMP JUMPDEST PUSH2 0x2DE JUMP JUMPDEST STOP JUMPDEST PUSH2 0x138 PUSH1 0x4 DUP1 CALLDATASIZE SUB DUP2 ADD SWAP1 PUSH2 0x133 SWAP2 SWAP1 PUSH2 0x2DC1 JUMP JUMPDEST PUSH2 0x4A8 JUMP JUMPDEST STOP JUMPDEST PUSH2 0x154 PUSH1 0x4 DUP1 CALLDATASIZE SUB DUP2 ADD SWAP1 PUSH2 0x14F SWAP2 SWAP1 PUSH2 0x2D3C JUMP JUMPDEST PUSH2 0x74A JUMP JUMPDEST PUSH1 0x40 MLOAD PUSH2 0x161 SWAP2 SWAP1 PUSH2 0x2E84 JUMP JUMPDEST PUSH1 0x40 MLOAD DUP1 SWAP2 SUB SWAP1 RETURN JUMPDEST PUSH2 0x184 PUSH1 0x4 DUP1 CALLDATASIZE SUB DUP2 ADD SWAP1 PUSH2 0x17F SWAP2 SWAP1 PUSH2 0x2E9D JUMP JUMPDEST PUSH2 0x773 JUMP JUMPDEST STOP JUMPDEST PUSH2 0x18E PUSH2 0x8CD JUMP JUMPDEST STOP JUMPDEST PUSH2 0x198 PUSH2 0x8E0 JUMP JUMPDEST PUSH1 0x40 MLOAD PUSH2 0x1A5 SWAP2 SWAP1 PUSH2 0x2EEA JUMP JUMPDEST PUSH1 0x40 MLOAD DUP1 SWAP2 SUB SWAP1 RETURN JUMPDEST PUSH2 0x1C8 PUSH1 0x4 DUP1 CALLDATASIZE SUB DUP2 ADD SWAP1 PUSH2 0x1C3 SWAP2 SWAP1 PUSH2 0x2F03 JUMP JUMPDEST PUSH2 0x908 JUMP JUMPDEST STOP JUMPDEST PUSH2 0x1D2 PUSH2 0xBF3 JUMP JUMPDEST PUSH1 0x40 MLOAD PUSH2 0x1DF SWAP2 SWAP1 PUSH2 0x2FCE JUMP JUMPDEST PUSH1 0x40 MLOAD DUP1 SWAP2 SUB SWAP1 RETURN JUMPDEST PUSH2 0x202 PUSH1 0x4 DUP1 CALLDATASIZE SUB DUP2 ADD SWAP1 PUSH2 0x1FD SWAP2 SWAP1 PUSH2 0x2FE7 JUMP JUMPDEST PUSH2 0xC05 JUMP JUMPDEST PUSH1 0x40 MLOAD PUSH2 0x20F SWAP2 SWAP1 PUSH2 0x2FCE JUMP JUMPDEST PUSH1 0x40 MLOAD DUP1 SWAP2 SUB SWAP1 RETURN JUMPDEST PUSH2 0x232 PUSH1 0x4 DUP1 CALLDATASIZE SUB DUP2 ADD SWAP1 PUSH2 0x22D SWAP2 SWAP1 PUSH2 0x2E9D JUMP JUMPDEST PUSH2 0xC22 JUMP JUMPDEST STOP JUMPDEST PUSH2 0x24E PUSH1 0x4 DUP1 CALLDATASIZE SUB DUP2 ADD SWAP1 PUSH2 0x249 SWAP2 SWAP1 PUSH2 0x2DC1 JUMP JUMPDEST PUSH2 0x10DB JUMP JUMPDEST STOP JUMPDEST PUSH2 0x26A PUSH1 0x4 DUP1 CALLDATASIZE SUB DUP2 ADD SWAP1 PUSH2 0x265 SWAP2 SWAP1 PUSH2 0x2D3C JUMP JUMPDEST PUSH2 0x13B3 JUMP JUMPDEST STOP JUMPDEST PUSH2 0x286 PUSH1 0x4 DUP1 CALLDATASIZE SUB DUP2 ADD SWAP1 PUSH2 0x281 SWAP2 SWAP1 PUSH2 0x303C JUMP JUMPDEST PUSH2 0x14BC JUMP JUMPDEST STOP JUMPDEST PUSH2 0x290 PUSH2 0x15C3 JUMP JUMPDEST PUSH1 0x40 MLOAD PUSH2 0x29D SWAP2 SWAP1 PUSH2 0x3089 JUMP JUMPDEST PUSH1 0x40 MLOAD DUP1 SWAP2 SUB SWAP1 RETURN JUMPDEST PUSH2 0x2C0 PUSH1 0x4 DUP1 CALLDATASIZE SUB DUP2 ADD SWAP1 PUSH2 0x2BB SWAP2 SWAP1 PUSH2 0x2FE7 JUMP JUMPDEST PUSH2 0x15C9 JUMP JUMPDEST STOP JUMPDEST PUSH2 0x2DC PUSH1 0x4 DUP1 CALLDATASIZE SUB DUP2 ADD SWAP1 PUSH2 0x2D7 SWAP2 SWAP1 PUSH2 0x30A2 JUMP JUMPDEST PUSH2 0x164D JUMP JUMPDEST STOP JUMPDEST PUSH1 0x1 ISZERO ISZERO PUSH1 0x2 PUSH0 CALLER PUSH20 0xFFFFFFFFFFFFFFFFFFFFFFFFFFFFFFFFFFFFFFFF AND PUSH20 0xFFFFFFFFFFFFFFFFFFFFFFFFFFFFFFFFFFFFFFFF AND DUP2 MSTORE PUSH1 0x20 ADD SWAP1 DUP2 MSTORE PUSH1 0x20 ADD PUSH0 KECCAK256 PUSH0 SWAP1 SLOAD SWAP1 PUSH2 0x100 EXP SWAP1 DIV PUSH1 0xFF AND ISZERO ISZERO EQ PUSH2 0x36E JUMPI PUSH1 0x40 MLOAD PUSH32 0x8C379A000000000000000000000000000000000000000000000000000000000 DUP2 MSTORE PUSH1 0x4 ADD PUSH2 0x365 SWAP1 PUSH2 0x3127 JUMP JUMPDEST PUSH1 0x40 MLOAD DUP1 SWAP2 SUB SWAP1 REVERT JUMPDEST PUSH2 0x376 PUSH2 0x173E JUMP JUMPDEST PUSH1 0x1 PUSH1 0x3 DUP2 GT ISZERO PUSH2 0x38A JUMPI PUSH2 0x389 PUSH2 0x2E11 JUMP JUMPDEST JUMPDEST PUSH1 0x5 PUSH0 DUP4 DUP2 MSTORE PUSH1 0x20 ADD SWAP1 DUP2 MSTORE PUSH1 0x20 ADD PUSH0 KECCAK256 PUSH0 ADD PUSH1 0x14 SWAP1 SLOAD SWAP1 PUSH2 0x100 EXP SWAP1 DIV PUSH1 0xFF AND PUSH1 0x3 DUP2 GT ISZERO PUSH2 0x3BD JUMPI PUSH2 0x3BC PUSH2 0x2E11 JUMP JUMPDEST JUMPDEST EQ PUSH2 0x3FD JUMPI PUSH1 0x40 MLOAD PUSH32 0x8C379A000000000000000000000000000000000000000000000000000000000 DUP2 MSTORE PUSH1 0x4 ADD PUSH2 0x3F4 SWAP1 PUSH2 0x318F JUMP JUMPDEST PUSH1 0x40 MLOAD DUP1 SWAP2 SUB SWAP1 REVERT JUMPDEST PUSH1 0x2 PUSH1 0x5 PUSH0 DUP4 DUP2 MSTORE PUSH1 0x20 ADD SWAP1 DUP2 MSTORE PUSH1 0x20 ADD PUSH0 KECCAK256 PUSH0 ADD PUSH1 0x14 PUSH2 0x100 EXP DUP2 SLOAD DUP2 PUSH1 0xFF MUL NOT AND SWAP1 DUP4 PUSH1 0x3 DUP2 GT ISZERO PUSH2 0x434 JUMPI PUSH2 0x433 PUSH2 0x2E11 JUMP JUMPDEST JUMPDEST MUL OR SWAP1 SSTORE POP DUP1 PUSH32 0x4E7ABAF6039E145CBDC465859479A7F979153A7C1A4E5662C425AFE2A794C785 TIMESTAMP PUSH1 0x5 PUSH0 DUP6 DUP2 MSTORE PUSH1 0x20 ADD SWAP1 DUP2 MSTORE PUSH1 0x20 ADD PUSH0 KECCAK256 PUSH1 0x5 ADD SLOAD PUSH1 0x5 PUSH0 DUP7 DUP2 MSTORE PUSH1 0x20 ADD SWAP1 DUP2 MSTORE PUSH1 0x20 ADD PUSH0 KECCAK256 PUSH1 0x7 ADD SLOAD PUSH1 0x40 MLOAD PUSH2 0x495 SWAP4 SWAP3 SWAP2 SWAP1 PUSH2 0x31AD JUMP JUMPDEST PUSH1 0x40 MLOAD DUP1 SWAP2 SUB SWAP1 LOG2 PUSH2 0x4A5 PUSH2 0x178B JUMP JUMPDEST POP JUMP JUMPDEST PUSH1 0x1 ISZERO ISZERO PUSH1 0x2 PUSH0 CALLER PUSH20 0xFFFFFFFFFFFFFFFFFFFFFFFFFFFFFFFFFFFFFFFF AND PUSH20 0xFFFFFFFFFFFFFFFFFFFFFFFFFFFFFFFFFFFFFFFF AND DUP2 MSTORE PUSH1 0x20 ADD SWAP1 DUP2 MSTORE PUSH1 0x20 ADD PUSH0 KECCAK256 PUSH0 SWAP1 SLOAD SWAP1 PUSH2 0x100 EXP SWAP1 DIV PUSH1 0xFF AND ISZERO ISZERO EQ PUSH2 0x538 JUMPI PUSH1 0x40 MLOAD PUSH32 0x8C379A000000000000000000000000000000000000000000000000000000000 DUP2 MSTORE PUSH1 0x4 ADD PUSH2 0x52F SWAP1 PUSH2 0x3127 JUMP JUMPDEST PUSH1 0x40 MLOAD DUP1 SWAP2 SUB SWAP1 REVERT JUMPDEST PUSH2 0x540 PUSH2 0x173E JUMP JUMPDEST PUSH1 0x1 PUSH1 0x3 DUP2 GT ISZERO PUSH2 0x554 JUMPI PUSH2 0x553 PUSH2 0x2E11 JUMP JUMPDEST JUMPDEST PUSH1 0x5 PUSH0 DUP6 DUP2 MSTORE PUSH1 0x20 ADD SWAP1 DUP2 MSTORE PUSH1 0x20 ADD PUSH0 KECCAK256 PUSH0 ADD PUSH1 0x14 SWAP1 SLOAD SWAP1 PUSH2 0x100 EXP SWAP1 DIV PUSH1 0xFF AND PUSH1 0x3 DUP2 GT ISZERO PUSH2 0x587 JUMPI PUSH2 0x586 PUSH2 0x2E11 JUMP JUMPDEST JUMPDEST EQ PUSH2 0x5C7 JUMPI PUSH1 0x40 MLOAD PUSH32 0x8C379A000000000000000000000000000000000000000000000000000000000 DUP2 MSTORE PUSH1 0x4 ADD PUSH2 0x5BE SWAP1 PUSH2 0x318F JUMP JUMPDEST PUSH1 0x40 MLOAD DUP1 SWAP2 SUB SWAP1 REVERT JUMPDEST PUSH0 PUSH1 0x5 PUSH0 DUP6 DUP2 MSTORE PUSH1 0x20 ADD SWAP1 DUP2 MSTORE PUSH1 0x20 ADD PUSH0 KECCAK256 PUSH1 0x2 ADD SLOAD EQ PUSH2 0x639 JUMPI PUSH1 0x5 PUSH0 DUP5 DUP2 MSTORE PUSH1 0x20 ADD SWAP1 DUP2 MSTORE PUSH1 0x20 ADD PUSH0 KECCAK256 PUSH1 0x2 ADD SLOAD TIMESTAMP LT PUSH2 0x638 JUMPI PUSH1 0x40 MLOAD PUSH32 0x8C379A000000000000000000000000000000000000000000000000000000000 DUP2 MSTORE PUSH1 0x4 ADD PUSH2 0x62F SWAP1 PUSH2 0x322C JUMP JUMPDEST PUSH1 0x40 MLOAD DUP1 SWAP2 SUB SWAP1 REVERT JUMPDEST JUMPDEST PUSH0 PUSH1 0x5 PUSH0 DUP6 DUP2 MSTORE PUSH1 0x20 ADD SWAP1 DUP2 MSTORE PUSH1 0x20 ADD PUSH0 KECCAK256 PUSH1 0x3 ADD SLOAD EQ PUSH2 0x6CB JUMPI PUSH1 0x5 PUSH0 DUP5 DUP2 MSTORE PUSH1 0x20 ADD SWAP1 DUP2 MSTORE PUSH1 0x20 ADD PUSH0 KECCAK256 PUSH1 0x3 ADD SLOAD DUP2 PUSH1 0x5 PUSH0 DUP7 DUP2 MSTORE PUSH1 0x20 ADD SWAP1 DUP2 MSTORE PUSH1 0x20 ADD PUSH0 KECCAK256 PUSH1 0x5 ADD SLOAD PUSH2 0x689 SWAP2 SWAP1 PUSH2 0x3277 JUMP JUMPDEST GT ISZERO PUSH2 0x6CA JUMPI PUSH1 0x40 MLOAD PUSH32 0x8C379A000000000000000000000000000000000000000000000000000000000 DUP2 MSTORE PUSH1 0x4 ADD PUSH2 0x6C1 SWAP1 PUSH2 0x32F4 JUMP JUMPDEST PUSH1 0x40 MLOAD DUP1 SWAP2 SUB SWAP1 REVERT JUMPDEST JUMPDEST PUSH2 0x6D7 DUP4 DUP4 DUP4 PUSH0 PUSH2 0x1794 JUMP JUMPDEST DUP2 PUSH20 0xFFFFFFFFFFFFFFFFFFFFFFFFFFFFFFFFFFFFFFFF AND CALLER PUSH20 0xFFFFFFFFFFFFFFFFFFFFFFFFFFFFFFFFFFFFFFFF AND DUP5 PUSH32 0xCDB228E331696A3755FF9DB076DF661228408CA1178178951E48AE952567C1F DUP5 PUSH1 0x40 MLOAD PUSH2 0x735 SWAP2 SWAP1 PUSH2 0x3089 JUMP JUMPDEST PUSH1 0x40 MLOAD DUP1 SWAP2 SUB SWAP1 LOG4 PUSH2 0x745 PUSH2 0x178B JUMP JUMPDEST POP POP POP JUMP JUMPDEST PUSH0 PUSH1 0x5 PUSH0 DUP4 DUP2 MSTORE PUSH1 0x20 ADD SWAP1 DUP2 MSTORE PUSH1 0x20 ADD PUSH0 KECCAK256 PUSH0 ADD PUSH1 0x14 SWAP1 SLOAD SWAP1 PUSH2 0x100 EXP SWAP1 DIV PUSH1 0xFF AND SWAP1 POP SWAP2 SWAP1 POP JUMP JUMPDEST PUSH2 0x77B PUSH2 0x173E JUMP JUMPDEST PUSH0 DUP2 SUB PUSH2 0x7BD JUMPI PUSH1 0x40 MLOAD PUSH32 0x8C379A000000000000000000000000000000000000000000000000000000000 DUP2 MSTORE PUSH1 0x4 ADD PUSH2 0x7B4 SWAP1 PUSH2 0x335C JUMP JUMPDEST PUSH1 0x40 MLOAD DUP1 SWAP2 SUB SWAP1 REVERT JUMPDEST PUSH1 0x1 PUSH1 0x3 DUP2 GT ISZERO PUSH2 0x7D1 JUMPI PUSH2 0x7D0 PUSH2 0x2E11 JUMP JUMPDEST JUMPDEST PUSH1 0x5 PUSH0 DUP5 DUP2 MSTORE PUSH1 0x20 ADD SWAP1 DUP2 MSTORE PUSH1 0x20 ADD PUSH0 KECCAK256 PUSH0 ADD PUSH1 0x14 SWAP1 SLOAD SWAP1 PUSH2 0x100 EXP SWAP1 DIV PUSH1 0xFF AND PUSH1 0x3 DUP2 GT ISZERO PUSH2 0x804 JUMPI PUSH2 0x803 PUSH2 0x2E11 JUMP JUMPDEST JUMPDEST EQ PUSH2 0x844 JUMPI PUSH1 0x40 MLOAD PUSH32 0x8C379A000000000000000000000000000000000000000000000000000000000 DUP2 MSTORE PUSH1 0x4 ADD PUSH2 0x83B SWAP1 PUSH2 0x318F JUMP JUMPDEST PUSH1 0x40 MLOAD DUP1 SWAP2 SUB SWAP1 REVERT JUMPDEST PUSH0 PUSH1 0x5 PUSH0 DUP5 DUP2 MSTORE PUSH1 0x20 ADD SWAP1 DUP2 MSTORE PUSH1 0x20 ADD PUSH0 KECCAK256 PUSH1 0x2 ADD SLOAD EQ PUSH2 0x8B6 JUMPI PUSH1 0x5 PUSH0 DUP4 DUP2 MSTORE PUSH1 0x20 ADD SWAP1 DUP2 MSTORE PUSH1 0x20 ADD PUSH0 KECCAK256 PUSH1 0x2 ADD SLOAD TIMESTAMP LT PUSH2 0x8B5 JUMPI PUSH1 0x40 MLOAD PUSH32 0x8C379A000000000000000000000000000000000000000000000000000000000 DUP2 MSTORE PUSH1 0x4 ADD PUSH2 0x8AC SWAP1 PUSH2 0x322C JUMP JUMPDEST PUSH1 0x40 MLOAD DUP1 SWAP2 SUB SWAP1 REVERT JUMPDEST JUMPDEST PUSH2 0x8C1 DUP3 CALLER DUP4 PUSH2 0x1AB2 JUMP JUMPDEST PUSH2 0x8C9 PUSH2 0x178B JUMP JUMPDEST POP POP JUMP JUMPDEST PUSH2 0x8D5 PUSH2 0x1D14 JUMP JUMPDEST PUSH2 0x8DE PUSH0 PUSH2 0x1D9B JUMP JUMPDEST JUMP JUMPDEST PUSH0 PUSH1 0x1 PUSH0 SWAP1 SLOAD SWAP1 PUSH2 0x100 EXP SWAP1 DIV PUSH20 0xFFFFFFFFFFFFFFFFFFFFFFFFFFFFFFFFFFFFFFFF AND SWAP1 POP SWAP1 JUMP JUMPDEST PUSH1 0x1 ISZERO ISZERO PUSH1 0x2 PUSH0 CALLER PUSH20 0xFFFFFFFFFFFFFFFFFFFFFFFFFFFFFFFFFFFFFFFF AND PUSH20 0xFFFFFFFFFFFFFFFFFFFFFFFFFFFFFFFFFFFFFFFF AND DUP2 MSTORE PUSH1 0x20 ADD SWAP1 DUP2 MSTORE PUSH1 0x20 ADD PUSH0 KECCAK256 PUSH0 SWAP1 SLOAD SWAP1 PUSH2 0x100 EXP SWAP1 DIV PUSH1 0xFF AND ISZERO ISZERO EQ PUSH2 0x998 JUMPI PUSH1 0x40 MLOAD PUSH32 0x8C379A000000000000000000000000000000000000000000000000000000000 DUP2 MSTORE PUSH1 0x4 ADD PUSH2 0x98F SWAP1 PUSH2 0x3127 JUMP JUMPDEST PUSH1 0x40 MLOAD DUP1 SWAP2 SUB SWAP1 REVERT JUMPDEST PUSH2 0x9A0 PUSH2 0x173E JUMP JUMPDEST PUSH1 0x3 PUSH0 DUP2 SLOAD DUP1 SWAP3 SWAP2 SWAP1 PUSH2 0x9B2 SWAP1 PUSH2 0x337A JUMP JUMPDEST SWAP2 SWAP1 POP SSTORE POP PUSH1 0x40 MLOAD DUP1 PUSH2 0x1E0 ADD PUSH1 0x40 MSTORE DUP1 DUP10 PUSH20 0xFFFFFFFFFFFFFFFFFFFFFFFFFFFFFFFFFFFFFFFF AND DUP2 MSTORE PUSH1 0x20 ADD PUSH1 0x1 PUSH1 0x3 DUP2 GT ISZERO PUSH2 0x9F3 JUMPI PUSH2 0x9F2 PUSH2 0x2E11 JUMP JUMPDEST JUMPDEST DUP2 MSTORE PUSH1 0x20 ADD TIMESTAMP DUP2 MSTORE PUSH1 0x20 ADD DUP8 DUP2 MSTORE PUSH1 0x20 ADD DUP7 DUP2 MSTORE PUSH1 0x20 ADD DUP6 DUP2 MSTORE PUSH1 0x20 ADD PUSH0 DUP2 MSTORE PUSH1 0x20 ADD PUSH0 DUP2 MSTORE PUSH1 0x20 ADD PUSH0 DUP2 MSTORE PUSH1 0x20 ADD PUSH0 DUP2 MSTORE PUSH1 0x20 ADD PUSH0 DUP2 MSTORE PUSH1 0x20 ADD PUSH0 DUP2 MSTORE PUSH1 0x20 ADD DUP9 DUP2 MSTORE PUSH1 0x20 ADD DUP3 DUP2 MSTORE PUSH1 0x20 ADD PUSH1 0x4 PUSH0 SWAP1 SLOAD SWAP1 PUSH2 0x100 EXP SWAP1 DIV PUSH1 0xFF AND ISZERO ISZERO DUP2 MSTORE POP PUSH1 0x5 PUSH0 PUSH1 0x3 SLOAD DUP2 MSTORE PUSH1 0x20 ADD SWAP1 DUP2 MSTORE PUSH1 0x20 ADD PUSH0 KECCAK256 PUSH0 DUP3 ADD MLOAD DUP2 PUSH0 ADD PUSH0 PUSH2 0x100 EXP DUP2 SLOAD DUP2 PUSH20 0xFFFFFFFFFFFFFFFFFFFFFFFFFFFFFFFFFFFFFFFF MUL NOT AND SWAP1 DUP4 PUSH20 0xFFFFFFFFFFFFFFFFFFFFFFFFFFFFFFFFFFFFFFFF AND MUL OR SWAP1 SSTORE POP PUSH1 0x20 DUP3 ADD MLOAD DUP2 PUSH0 ADD PUSH1 0x14 PUSH2 0x100 EXP DUP2 SLOAD DUP2 PUSH1 0xFF MUL NOT AND SWAP1 DUP4 PUSH1 0x3 DUP2 GT ISZERO PUSH2 0xAD5 JUMPI PUSH2 0xAD4 PUSH2 0x2E11 JUMP JUMPDEST JUMPDEST MUL OR SWAP1 SSTORE POP PUSH1 0x40 DUP3 ADD MLOAD DUP2 PUSH1 0x1 ADD SSTORE PUSH1 0x60 DUP3 ADD MLOAD DUP2 PUSH1 0x2 ADD SSTORE PUSH1 0x80 DUP3 ADD MLOAD DUP2 PUSH1 0x3 ADD SSTORE PUSH1 0xA0 DUP3 ADD MLOAD DUP2 PUSH1 0x4 ADD SSTORE PUSH1 0xC0 DUP3 ADD MLOAD DUP2 PUSH1 0x5 ADD SSTORE PUSH1 0xE0 DUP3 ADD MLOAD DUP2 PUSH1 0x6 ADD SSTORE PUSH2 0x100 DUP3 ADD MLOAD DUP2 PUSH1 0x7 ADD SSTORE PUSH2 0x120 DUP3 ADD MLOAD DUP2 PUSH1 0x8 ADD SSTORE PUSH2 0x140 DUP3 ADD MLOAD DUP2 PUSH1 0x9 ADD SSTORE PUSH2 0x160 DUP3 ADD MLOAD DUP2 PUSH1 0xA ADD SSTORE PUSH2 0x180 DUP3 ADD MLOAD DUP2 PUSH1 0xB ADD SSTORE PUSH2 0x1A0 DUP3 ADD MLOAD DUP2 PUSH1 0xC ADD SSTORE PUSH2 0x1C0 DUP3 ADD MLOAD DUP2 PUSH1 0xD ADD PUSH0 PUSH2 0x100 EXP DUP2 SLOAD DUP2 PUSH1 0xFF MUL NOT AND SWAP1 DUP4 ISZERO ISZERO MUL OR SWAP1 SSTORE POP SWAP1 POP POP PUSH1 0x3 SLOAD PUSH32 0xC048FB84FDA80E25F0FEFC7A7D2ECC12B63298AA81BA993895368D62553478ED TIMESTAMP DUP9 DUP9 DUP12 PUSH1 0x4 PUSH0 SWAP1 SLOAD SWAP1 PUSH2 0x100 EXP SWAP1 DIV PUSH1 0xFF AND PUSH1 0x40 MLOAD PUSH2 0xBC3 SWAP6 SWAP5 SWAP4 SWAP3 SWAP2 SWAP1 PUSH2 0x33C1 JUMP JUMPDEST PUSH1 0x40 MLOAD DUP1 SWAP2 SUB SWAP1 LOG2 PUSH0 DUP3 GT ISZERO PUSH2 0xBE1 JUMPI PUSH2 0xBE0 PUSH1 0x3 SLOAD DUP5 DUP5 PUSH2 0x1AB2 JUMP JUMPDEST JUMPDEST PUSH2 0xBE9 PUSH2 0x178B JUMP JUMPDEST POP POP POP POP POP POP POP POP JUMP JUMPDEST PUSH1 0x4 PUSH0 SWAP1 SLOAD SWAP1 PUSH2 0x100 EXP SWAP1 DIV PUSH1 0xFF AND DUP2 JUMP JUMPDEST PUSH1 0x2 PUSH1 0x20 MSTORE DUP1 PUSH0 MSTORE PUSH1 0x40 PUSH0 KECCAK256 PUSH0 SWAP2 POP SLOAD SWAP1 PUSH2 0x100 EXP SWAP1 DIV PUSH1 0xFF AND DUP2 JUMP JUMPDEST PUSH1 0x1 ISZERO ISZERO PUSH1 0x2 PUSH0 CALLER PUSH20 0xFFFFFFFFFFFFFFFFFFFFFFFFFFFFFFFFFFFFFFFF AND PUSH20 0xFFFFFFFFFFFFFFFFFFFFFFFFFFFFFFFFFFFFFFFF AND DUP2 MSTORE PUSH1 0x20 ADD SWAP1 DUP2 MSTORE PUSH1 0x20 ADD PUSH0 KECCAK256 PUSH0 SWAP1 SLOAD SWAP1 PUSH2 0x100 EXP SWAP1 DIV PUSH1 0xFF AND ISZERO ISZERO EQ PUSH2 0xCB2 JUMPI PUSH1 0x40 MLOAD PUSH32 0x8C379A000000000000000000000000000000000000000000000000000000000 DUP2 MSTORE PUSH1 0x4 ADD PUSH2 0xCA9 SWAP1 PUSH2 0x3127 JUMP JUMPDEST PUSH1 0x40 MLOAD DUP1 SWAP2 SUB SWAP1 REVERT JUMPDEST PUSH2 0xCBA PUSH2 0x173E JUMP JUMPDEST PUSH1 0x2 PUSH1 0x3 DUP2 GT ISZERO PUSH2 0xCCE JUMPI PUSH2 0xCCD PUSH2 0x2E11 JUMP JUMPDEST JUMPDEST PUSH1 0x5 PUSH0 DUP5 DUP2 MSTORE PUSH1 0x20 ADD SWAP1 DUP2 MSTORE PUSH1 0x20 ADD PUSH0 KECCAK256 PUSH0 ADD PUSH1 0x14 SWAP1 SLOAD SWAP1 PUSH2 0x100 EXP SWAP1 DIV PUSH1 0xFF AND PUSH1 0x3 DUP2 GT ISZERO PUSH2 0xD01 JUMPI PUSH2 0xD00 PUSH2 0x2E11 JUMP JUMPDEST JUMPDEST EQ PUSH2 0xD41 JUMPI PUSH1 0x40 MLOAD PUSH32 0x8C379A000000000000000000000000000000000000000000000000000000000 DUP2 MSTORE PUSH1 0x4 ADD PUSH2 0xD38 SWAP1 PUSH2 0x345C JUMP JUMPDEST PUSH1 0x40 MLOAD DUP1 SWAP2 SUB SWAP1 REVERT JUMPDEST PUSH1 0x3 PUSH1 0x5 PUSH0 DUP5 DUP2 MSTORE PUSH1 0x20 ADD SWAP1 DUP2 MSTORE PUSH1 0x20 ADD PUSH0 KECCAK256 PUSH0 ADD PUSH1 0x14 PUSH2 0x100 EXP DUP2 SLOAD DUP2 PUSH1 0xFF MUL NOT AND SWAP1 DUP4 PUSH1 0x3 DUP2 GT ISZERO PUSH2 0xD78 JUMPI PUSH2 0xD77 PUSH2 0x2E11 JUMP JUMPDEST JUMPDEST MUL OR SWAP1 SSTORE POP DUP2 PUSH32 0x66F6B4CD34444AF165FB78BCE3996496528B37AF161C26F737B7341CC37063BB TIMESTAMP PUSH1 0x40 MLOAD PUSH2 0xDAD SWAP2 SWAP1 PUSH2 0x3089 JUMP JUMPDEST PUSH1 0x40 MLOAD DUP1 SWAP2 SUB SWAP1 LOG2 PUSH0 PUSH1 0x5 PUSH0 DUP5 DUP2 MSTORE PUSH1 0x20 ADD SWAP1 DUP2 MSTORE PUSH1 0x20 ADD PUSH0 KECCAK256 PUSH1 0x6 ADD SLOAD PUSH1 0x5 PUSH0 DUP6 DUP2 MSTORE PUSH1 0x20 ADD SWAP1 DUP2 MSTORE PUSH1 0x20 ADD PUSH0 KECCAK256 PUSH1 0x5 ADD SLOAD PUSH2 0xDEA SWAP2 SWAP1 PUSH2 0x3277 JUMP JUMPDEST SWAP1 POP PUSH0 DUP2 SUB PUSH2 0xE0B JUMPI PUSH2 0xDFC DUP4 PUSH2 0x1E5E JUMP JUMPDEST PUSH2 0xE05 DUP4 PUSH2 0x1FDE JUMP JUMPDEST POP PUSH2 0x10CF JUMP JUMPDEST PUSH0 DUP3 SWAP1 POP PUSH0 DUP3 SWAP1 POP PUSH1 0x5 PUSH0 DUP7 DUP2 MSTORE PUSH1 0x20 ADD SWAP1 DUP2 MSTORE PUSH1 0x20 ADD PUSH0 KECCAK256 PUSH1 0x4 ADD SLOAD DUP2 GT ISZERO PUSH2 0xE47 JUMPI PUSH1 0x5 PUSH0 DUP7 DUP2 MSTORE PUSH1 0x20 ADD SWAP1 DUP2 MSTORE PUSH1 0x20 ADD PUSH0 KECCAK256 PUSH1 0x4 ADD SLOAD SWAP1 POP JUMPDEST PUSH0 PUSH1 0x5 PUSH0 DUP8 DUP2 MSTORE PUSH1 0x20 ADD SWAP1 DUP2 MSTORE PUSH1 0x20 ADD PUSH0 KECCAK256 PUSH1 0x5 ADD SLOAD PUSH1 0x5 PUSH0 DUP9 DUP2 MSTORE PUSH1 0x20 ADD SWAP1 DUP2 MSTORE PUSH1 0x20 ADD PUSH0 KECCAK256 PUSH1 0x7 ADD SLOAD PUSH2 0xE7C SWAP2 SWAP1 PUSH2 0x3277 JUMP JUMPDEST SWAP1 POP PUSH0 DUP2 PUSH1 0x5 PUSH0 DUP10 DUP2 MSTORE PUSH1 0x20 ADD SWAP1 DUP2 MSTORE PUSH1 0x20 ADD PUSH0 KECCAK256 PUSH1 0xB ADD SLOAD PUSH2 0xE9F SWAP2 SWAP1 PUSH2 0x347A JUMP JUMPDEST SWAP1 POP PUSH0 PUSH2 0xEAD DUP6 DUP6 DUP5 PUSH2 0x222B JUMP JUMPDEST SWAP1 POP PUSH2 0xEBA DUP9 DUP6 DUP4 PUSH2 0x23B5 JUMP JUMPDEST PUSH1 0x5 PUSH0 DUP10 DUP2 MSTORE PUSH1 0x20 ADD SWAP1 DUP2 MSTORE PUSH1 0x20 ADD PUSH0 KECCAK256 PUSH1 0xD ADD PUSH0 SWAP1 SLOAD SWAP1 PUSH2 0x100 EXP SWAP1 DIV PUSH1 0xFF AND ISZERO PUSH2 0x10C8 JUMPI PUSH0 JUMPDEST PUSH1 0x5 PUSH0 DUP11 DUP2 MSTORE PUSH1 0x20 ADD SWAP1 DUP2 MSTORE PUSH1 0x20 ADD PUSH0 KECCAK256 PUSH1 0x8 ADD SLOAD DUP2 LT ISZERO PUSH2 0x10C6 JUMPI PUSH0 PUSH1 0xA PUSH0 DUP12 DUP2 MSTORE PUSH1 0x20 ADD SWAP1 DUP2 MSTORE PUSH1 0x20 ADD PUSH0 KECCAK256 PUSH0 PUSH1 0x9 PUSH0 DUP14 DUP2 MSTORE PUSH1 0x20 ADD SWAP1 DUP2 MSTORE PUSH1 0x20 ADD PUSH0 KECCAK256 PUSH0 DUP6 DUP2 MSTORE PUSH1 0x20 ADD SWAP1 DUP2 MSTORE PUSH1 0x20 ADD PUSH0 KECCAK256 PUSH0 SWAP1 SLOAD SWAP1 PUSH2 0x100 EXP SWAP1 DIV PUSH20 0xFFFFFFFFFFFFFFFFFFFFFFFFFFFFFFFFFFFFFFFF AND PUSH20 0xFFFFFFFFFFFFFFFFFFFFFFFFFFFFFFFFFFFFFFFF AND PUSH20 0xFFFFFFFFFFFFFFFFFFFFFFFFFFFFFFFFFFFFFFFF AND DUP2 MSTORE PUSH1 0x20 ADD SWAP1 DUP2 MSTORE PUSH1 0x20 ADD PUSH0 KECCAK256 SLOAD EQ PUSH2 0xFDA JUMPI PUSH2 0xFD9 DUP10 PUSH1 0x9 PUSH0 DUP13 DUP2 MSTORE PUSH1 0x20 ADD SWAP1 DUP2 MSTORE PUSH1 0x20 ADD PUSH0 KECCAK256 PUSH0 DUP5 DUP2 MSTORE PUSH1 0x20 ADD SWAP1 DUP2 MSTORE PUSH1 0x20 ADD PUSH0 KECCAK256 PUSH0 SWAP1 SLOAD SWAP1 PUSH2 0x100 EXP SWAP1 DIV PUSH20 0xFFFFFFFFFFFFFFFFFFFFFFFFFFFFFFFFFFFFFFFF AND PUSH2 0x263E JUMP JUMPDEST JUMPDEST PUSH1 0x8 PUSH0 DUP11 DUP2 MSTORE PUSH1 0x20 ADD SWAP1 DUP2 MSTORE PUSH1 0x20 ADD PUSH0 KECCAK256 PUSH0 PUSH1 0x9 PUSH0 DUP13 DUP2 MSTORE PUSH1 0x20 ADD SWAP1 DUP2 MSTORE PUSH1 0x20 ADD PUSH0 KECCAK256 PUSH0 DUP5 DUP2 MSTORE PUSH1 0x20 ADD SWAP1 DUP2 MSTORE PUSH1 0x20 ADD PUSH0 KECCAK256 PUSH0 SWAP1 SLOAD SWAP1 PUSH2 0x100 EXP SWAP1 DIV PUSH20 0xFFFFFFFFFFFFFFFFFFFFFFFFFFFFFFFFFFFFFFFF AND PUSH20 0xFFFFFFFFFFFFFFFFFFFFFFFFFFFFFFFFFFFFFFFF AND PUSH20 0xFFFFFFFFFFFFFFFFFFFFFFFFFFFFFFFFFFFFFFFF AND DUP2 MSTORE PUSH1 0x20 ADD SWAP1 DUP2 MSTORE PUSH1 0x20 ADD PUSH0 KECCAK256 PUSH0 SWAP1 SSTORE PUSH1 0x9 PUSH0 DUP11 DUP2 MSTORE PUSH1 0x20 ADD SWAP1 DUP2 MSTORE PUSH1 0x20 ADD PUSH0 KECCAK256 PUSH0 DUP3 DUP2 MSTORE PUSH1 0x20 ADD SWAP1 DUP2 MSTORE PUSH1 0x20 ADD PUSH0 KECCAK256 PUSH0 PUSH2 0x100 EXP DUP2 SLOAD SWAP1 PUSH20 0xFFFFFFFFFFFFFFFFFFFFFFFFFFFFFFFFFFFFFFFF MUL NOT AND SWAP1 SSTORE PUSH2 0x10B3 DUP10 PUSH2 0x1FDE JUMP JUMPDEST DUP1 DUP1 PUSH2 0x10BE SWAP1 PUSH2 0x337A JUMP JUMPDEST SWAP2 POP POP PUSH2 0xEE2 JUMP JUMPDEST POP JUMPDEST POP POP POP POP POP POP JUMPDEST PUSH2 0x10D7 PUSH2 0x178B JUMP JUMPDEST POP POP JUMP JUMPDEST PUSH2 0x10E3 PUSH2 0x173E JUMP JUMPDEST PUSH1 0x1 PUSH1 0x3 DUP2 GT ISZERO PUSH2 0x10F7 JUMPI PUSH2 0x10F6 PUSH2 0x2E11 JUMP JUMPDEST JUMPDEST PUSH1 0x5 PUSH0 DUP6 DUP2 MSTORE PUSH1 0x20 ADD SWAP1 DUP2 MSTORE PUSH1 0x20 ADD PUSH0 KECCAK256 PUSH0 ADD PUSH1 0x14 SWAP1 SLOAD SWAP1 PUSH2 0x100 EXP SWAP1 DIV PUSH1 0xFF AND PUSH1 0x3 DUP2 GT ISZERO PUSH2 0x112A JUMPI PUSH2 0x1129 PUSH2 0x2E11 JUMP JUMPDEST JUMPDEST EQ PUSH2 0x116A JUMPI PUSH1 0x40 MLOAD PUSH32 0x8C379A000000000000000000000000000000000000000000000000000000000 DUP2 MSTORE PUSH1 0x4 ADD PUSH2 0x1161 SWAP1 PUSH2 0x318F JUMP JUMPDEST PUSH1 0x40 MLOAD DUP1 SWAP2 SUB SWAP1 REVERT JUMPDEST PUSH0 DUP2 SUB PUSH2 0x11AC JUMPI PUSH1 0x40 MLOAD PUSH32 0x8C379A000000000000000000000000000000000000000000000000000000000 DUP2 MSTORE PUSH1 0x4 ADD PUSH2 0x11A3 SWAP1 PUSH2 0x3505 JUMP JUMPDEST PUSH1 0x40 MLOAD DUP1 SWAP2 SUB SWAP1 REVERT JUMPDEST PUSH0 PUSH1 0x5 PUSH0 DUP6 DUP2 MSTORE PUSH1 0x20 ADD SWAP1 DUP2 MSTORE PUSH1 0x20 ADD PUSH0 KECCAK256 PUSH1 0x2 ADD SLOAD EQ PUSH2 0x121E JUMPI PUSH1 0x5 PUSH0 DUP5 DUP2 MSTORE PUSH1 0x20 ADD SWAP1 DUP2 MSTORE PUSH1 0x20 ADD PUSH0 KECCAK256 PUSH1 0x2 ADD SLOAD TIMESTAMP LT PUSH2 0x121D JUMPI PUSH1 0x40 MLOAD PUSH32 0x8C379A000000000000000000000000000000000000000000000000000000000 DUP2 MSTORE PUSH1 0x4 ADD PUSH2 0x1214 SWAP1 PUSH2 0x322C JUMP JUMPDEST PUSH1 0x40 MLOAD DUP1 SWAP2 SUB SWAP1 REVERT JUMPDEST JUMPDEST PUSH0 PUSH1 0x5 PUSH0 DUP6 DUP2 MSTORE PUSH1 0x20 ADD SWAP1 DUP2 MSTORE PUSH1 0x20 ADD PUSH0 KECCAK256 PUSH1 0x3 ADD SLOAD EQ PUSH2 0x12B0 JUMPI PUSH1 0x5 PUSH0 DUP5 DUP2 MSTORE PUSH1 0x20 ADD SWAP1 DUP2 MSTORE PUSH1 0x20 ADD PUSH0 KECCAK256 PUSH1 0x3 ADD SLOAD DUP2 PUSH1 0x5 PUSH0 DUP7 DUP2 MSTORE PUSH1 0x20 ADD SWAP1 DUP2 MSTORE PUSH1 0x20 ADD PUSH0 KECCAK256 PUSH1 0x5 ADD SLOAD PUSH2 0x126E SWAP2 SWAP1 PUSH2 0x3277 JUMP JUMPDEST GT ISZERO PUSH2 0x12AF JUMPI PUSH1 0x40 MLOAD PUSH32 0x8C379A000000000000000000000000000000000000000000000000000000000 DUP2 MSTORE PUSH1 0x4 ADD PUSH2 0x12A6 SWAP1 PUSH2 0x32F4 JUMP JUMPDEST PUSH1 0x40 MLOAD DUP1 SWAP2 SUB SWAP1 REVERT JUMPDEST JUMPDEST PUSH0 DUP2 PUSH1 0x5 PUSH0 DUP7 DUP2 MSTORE PUSH1 0x20 ADD SWAP1 DUP2 MSTORE PUSH1 0x20 ADD PUSH0 KECCAK256 PUSH1 0xB ADD SLOAD PUSH2 0x12D1 SWAP2 SWAP1 PUSH2 0x347A JUMP JUMPDEST SWAP1 POP PUSH2 0x1332 CALLER ADDRESS DUP4 PUSH1 0x5 PUSH0 DUP10 DUP2 MSTORE PUSH1 0x20 ADD SWAP1 DUP2 MSTORE PUSH1 0x20 ADD PUSH0 KECCAK256 PUSH0 ADD PUSH0 SWAP1 SLOAD SWAP1 PUSH2 0x100 EXP SWAP1 DIV PUSH20 0xFFFFFFFFFFFFFFFFFFFFFFFFFFFFFFFFFFFFFFFF AND PUSH20 0xFFFFFFFFFFFFFFFFFFFFFFFFFFFFFFFFFFFFFFFF AND PUSH2 0x283E SWAP1 SWAP4 SWAP3 SWAP2 SWAP1 PUSH4 0xFFFFFFFF AND JUMP JUMPDEST PUSH2 0x133F DUP5 DUP5 DUP5 PUSH1 0x1 PUSH2 0x1794 JUMP JUMPDEST DUP3 PUSH20 0xFFFFFFFFFFFFFFFFFFFFFFFFFFFFFFFFFFFFFFFF AND CALLER PUSH20 0xFFFFFFFFFFFFFFFFFFFFFFFFFFFFFFFFFFFFFFFF AND DUP6 PUSH32 0xC711BFBE9284C7D96ADBB9EBAD39767E13C00B6B5CD4CA300FEC0D969309A407 DUP6 PUSH1 0x40 MLOAD PUSH2 0x139D SWAP2 SWAP1 PUSH2 0x3089 JUMP JUMPDEST PUSH1 0x40 MLOAD DUP1 SWAP2 SUB SWAP1 LOG4 POP PUSH2 0x13AE PUSH2 0x178B JUMP JUMPDEST POP POP POP JUMP JUMPDEST PUSH2 0x13BB PUSH2 0x173E JUMP JUMPDEST PUSH1 0x3 DUP1 DUP2 GT ISZERO PUSH2 0x13CE JUMPI PUSH2 0x13CD PUSH2 0x2E11 JUMP JUMPDEST JUMPDEST PUSH1 0x5 PUSH0 DUP4 DUP2 MSTORE PUSH1 0x20 ADD SWAP1 DUP2 MSTORE PUSH1 0x20 ADD PUSH0 KECCAK256 PUSH0 ADD PUSH1 0x14 SWAP1 SLOAD SWAP1 PUSH2 0x100 EXP SWAP1 DIV PUSH1 0xFF AND PUSH1 0x3 DUP2 GT ISZERO PUSH2 0x1401 JUMPI PUSH2 0x1400 PUSH2 0x2E11 JUMP JUMPDEST JUMPDEST EQ PUSH2 0x1441 JUMPI PUSH1 0x40 MLOAD PUSH32 0x8C379A000000000000000000000000000000000000000000000000000000000 DUP2 MSTORE PUSH1 0x4 ADD PUSH2 0x1438 SWAP1 PUSH2 0x356D JUMP JUMPDEST PUSH1 0x40 MLOAD DUP1 SWAP2 SUB SWAP1 REVERT JUMPDEST PUSH0 ISZERO ISZERO PUSH1 0x5 PUSH0 DUP4 DUP2 MSTORE PUSH1 0x20 ADD SWAP1 DUP2 MSTORE PUSH1 0x20 ADD PUSH0 KECCAK256 PUSH1 0xD ADD PUSH0 SWAP1 SLOAD SWAP1 PUSH2 0x100 EXP SWAP1 DIV PUSH1 0xFF AND ISZERO ISZERO EQ PUSH2 0x14A7 JUMPI PUSH1 0x40 MLOAD PUSH32 0x8C379A000000000000000000000000000000000000000000000000000000000 DUP2 MSTORE PUSH1 0x4 ADD PUSH2 0x149E SWAP1 PUSH2 0x35D5 JUMP JUMPDEST PUSH1 0x40 MLOAD DUP1 SWAP2 SUB SWAP1 REVERT JUMPDEST PUSH2 0x14B1 DUP2 CALLER PUSH2 0x263E JUMP JUMPDEST PUSH2 0x14B9 PUSH2 0x178B JUMP JUMPDEST POP JUMP JUMPDEST PUSH2 0x14C4 PUSH2 0x1D14 JUMP JUMPDEST PUSH0 PUSH20 0xFFFFFFFFFFFFFFFFFFFFFFFFFFFFFFFFFFFFFFFF AND DUP3 PUSH20 0xFFFFFFFFFFFFFFFFFFFFFFFFFFFFFFFFFFFFFFFF AND SUB PUSH2 0x1532 JUMPI PUSH1 0x40 MLOAD PUSH32 0x8C379A000000000000000000000000000000000000000000000000000000000 DUP2 MSTORE PUSH1 0x4 ADD PUSH2 0x1529 SWAP1 PUSH2 0x363D JUMP JUMPDEST PUSH1 0x40 MLOAD DUP1 SWAP2 SUB SWAP1 REVERT JUMPDEST DUP1 PUSH1 0x2 PUSH0 DUP5 PUSH20 0xFFFFFFFFFFFFFFFFFFFFFFFFFFFFFFFFFFFFFFFF AND PUSH20 0xFFFFFFFFFFFFFFFFFFFFFFFFFFFFFFFFFFFFFFFF AND DUP2 MSTORE PUSH1 0x20 ADD SWAP1 DUP2 MSTORE PUSH1 0x20 ADD PUSH0 KECCAK256 PUSH0 PUSH2 0x100 EXP DUP2 SLOAD DUP2 PUSH1 0xFF MUL NOT AND SWAP1 DUP4 ISZERO ISZERO MUL OR SWAP1 SSTORE POP PUSH32 0xEDAE46487653623E513EA3B3341C9E6B457A2EF687D0342D2507CCB63458B19F DUP3 DUP3 PUSH1 0x40 MLOAD PUSH2 0x15B7 SWAP3 SWAP2 SWAP1 PUSH2 0x365B JUMP JUMPDEST PUSH1 0x40 MLOAD DUP1 SWAP2 SUB SWAP1 LOG1 POP POP JUMP JUMPDEST PUSH1 0x3 SLOAD DUP2 JUMP JUMPDEST PUSH2 0x15D1 PUSH2 0x1D14 JUMP JUMPDEST PUSH0 PUSH20 0xFFFFFFFFFFFFFFFFFFFFFFFFFFFFFFFFFFFFFFFF AND DUP2 PUSH20 0xFFFFFFFFFFFFFFFFFFFFFFFFFFFFFFFFFFFFFFFF AND SUB PUSH2 0x1641 JUMPI PUSH0 PUSH1 0x40 MLOAD PUSH32 0x1E4FBDF700000000000000000000000000000000000000000000000000000000 DUP2 MSTORE PUSH1 0x4 ADD PUSH2 0x1638 SWAP2 SWAP1 PUSH2 0x2EEA JUMP JUMPDEST PUSH1 0x40 MLOAD DUP1 SWAP2 SUB SWAP1 REVERT JUMPDEST PUSH2 0x164A DUP2 PUSH2 0x1D9B JUMP JUMPDEST POP JUMP JUMPDEST PUSH1 0x1 ISZERO ISZERO PUSH1 0x2 PUSH0 CALLER PUSH20 0xFFFFFFFFFFFFFFFFFFFFFFFFFFFFFFFFFFFFFFFF AND PUSH20 0xFFFFFFFFFFFFFFFFFFFFFFFFFFFFFFFFFFFFFFFF AND DUP2 MSTORE PUSH1 0x20 ADD SWAP1 DUP2 MSTORE PUSH1 0x20 ADD PUSH0 KECCAK256 PUSH0 SWAP1 SLOAD SWAP1 PUSH2 0x100 EXP SWAP1 DIV PUSH1 0xFF AND ISZERO ISZERO EQ PUSH2 0x16DD JUMPI PUSH1 0x40 MLOAD PUSH32 0x8C379A000000000000000000000000000000000000000000000000000000000 DUP2 MSTORE PUSH1 0x4 ADD PUSH2 0x16D4 SWAP1 PUSH2 0x3127 JUMP JUMPDEST PUSH1 0x40 MLOAD DUP1 SWAP2 SUB SWAP1 REVERT JUMPDEST DUP1 PUSH1 0x4 PUSH0 PUSH2 0x100 EXP DUP2 SLOAD DUP2 PUSH1 0xFF MUL NOT AND SWAP1 DUP4 ISZERO ISZERO MUL OR SWAP1 SSTORE POP PUSH32 0x6FE9A4AB2E95E24B2BE44989DC36A685149DFDE9354D486A8DA5CB4BBD01B010 PUSH1 0x4 PUSH0 SWAP1 SLOAD SWAP1 PUSH2 0x100 EXP SWAP1 DIV PUSH1 0xFF AND PUSH1 0x40 MLOAD PUSH2 0x1733 SWAP2 SWAP1 PUSH2 0x2FCE JUMP JUMPDEST PUSH1 0x40 MLOAD DUP1 SWAP2 SUB SWAP1 LOG1 POP JUMP JUMPDEST PUSH1 0x2 PUSH0 SLOAD SUB PUSH2 0x1782 JUMPI PUSH1 0x40 MLOAD PUSH32 0x8C379A000000000000000000000000000000000000000000000000000000000 DUP2 MSTORE PUSH1 0x4 ADD PUSH2 0x1779 SWAP1 PUSH2 0x36CC JUMP JUMPDEST PUSH1 0x40 MLOAD DUP1 SWAP2 SUB SWAP1 REVERT JUMPDEST PUSH1 0x2 PUSH0 DUP2 SWAP1 SSTORE POP JUMP JUMPDEST PUSH1 0x1 PUSH0 DUP2 SWAP1 SSTORE POP JUMP JUMPDEST PUSH1 0x40 MLOAD DUP1 PUSH1 0x60 ADD PUSH1 0x40 MSTORE DUP1 DUP4 DUP2 MSTORE PUSH1 0x20 ADD DUP5 PUSH20 0xFFFFFFFFFFFFFFFFFFFFFFFFFFFFFFFFFFFFFFFF AND DUP2 MSTORE PUSH1 0x20 ADD DUP3 ISZERO ISZERO DUP2 MSTORE POP PUSH1 0x6 PUSH0 DUP7 DUP2 MSTORE PUSH1 0x20 ADD SWAP1 DUP2 MSTORE PUSH1 0x20 ADD PUSH0 KECCAK256 PUSH0 PUSH1 0x5 PUSH0 DUP9 DUP2 MSTORE PUSH1 0x20 ADD SWAP1 DUP2 MSTORE PUSH1 0x20 ADD PUSH0 KECCAK256 PUSH1 0x9 ADD SLOAD DUP2 MSTORE PUSH1 0x20 ADD SWAP1 DUP2 MSTORE PUSH1 0x20 ADD PUSH0 KECCAK256 PUSH0 DUP3 ADD MLOAD DUP2 PUSH0 ADD SSTORE PUSH1 0x20 DUP3 ADD MLOAD DUP2 PUSH1 0x1 ADD PUSH0 PUSH2 0x100 EXP DUP2 SLOAD DUP2 PUSH20 0xFFFFFFFFFFFFFFFFFFFFFFFFFFFFFFFFFFFFFFFF MUL NOT AND SWAP1 DUP4 PUSH20 0xFFFFFFFFFFFFFFFFFFFFFFFFFFFFFFFFFFFFFFFF AND MUL OR SWAP1 SSTORE POP PUSH1 0x40 DUP3 ADD MLOAD DUP2 PUSH1 0x1 ADD PUSH1 0x14 PUSH2 0x100 EXP DUP2 SLOAD DUP2 PUSH1 0xFF MUL NOT AND SWAP1 DUP4 ISZERO ISZERO MUL OR SWAP1 SSTORE POP SWAP1 POP POP DUP1 ISZERO PUSH2 0x18AF JUMPI DUP2 PUSH1 0x5 PUSH0 DUP7 DUP2 MSTORE PUSH1 0x20 ADD SWAP1 DUP2 MSTORE PUSH1 0x20 ADD PUSH0 KECCAK256 PUSH1 0x5 ADD SLOAD PUSH2 0x1892 SWAP2 SWAP1 PUSH2 0x3277 JUMP JUMPDEST PUSH1 0x5 PUSH0 DUP7 DUP2 MSTORE PUSH1 0x20 ADD SWAP1 DUP2 MSTORE PUSH1 0x20 ADD PUSH0 KECCAK256 PUSH1 0x5 ADD DUP2 SWAP1 SSTORE POP PUSH2 0x18E8 JUMP JUMPDEST DUP2 PUSH1 0x5 PUSH0 DUP7 DUP2 MSTORE PUSH1 0x20 ADD SWAP1 DUP2 MSTORE PUSH1 0x20 ADD PUSH0 KECCAK256 PUSH1 0x6 ADD SLOAD PUSH2 0x18CF SWAP2 SWAP1 PUSH2 0x3277 JUMP JUMPDEST PUSH1 0x5 PUSH0 DUP7 DUP2 MSTORE PUSH1 0x20 ADD SWAP1 DUP2 MSTORE PUSH1 0x20 ADD PUSH0 KECCAK256 PUSH1 0x6 ADD DUP2 SWAP1 SSTORE POP JUMPDEST PUSH0 PUSH1 0x8 PUSH0 DUP7 DUP2 MSTORE PUSH1 0x20 ADD SWAP1 DUP2 MSTORE PUSH1 0x20 ADD PUSH0 KECCAK256 PUSH0 DUP6 PUSH20 0xFFFFFFFFFFFFFFFFFFFFFFFFFFFFFFFFFFFFFFFF AND PUSH20 0xFFFFFFFFFFFFFFFFFFFFFFFFFFFFFFFFFFFFFFFF AND DUP2 MSTORE PUSH1 0x20 ADD SWAP1 DUP2 MSTORE PUSH1 0x20 ADD PUSH0 KECCAK256 SLOAD SUB PUSH2 0x19D9 JUMPI DUP3 PUSH1 0x9 PUSH0 DUP7 DUP2 MSTORE PUSH1 0x20 ADD SWAP1 DUP2 MSTORE PUSH1 0x20 ADD PUSH0 KECCAK256 PUSH0 PUSH1 0x5 PUSH0 DUP9 DUP2 MSTORE PUSH1 0x20 ADD SWAP1 DUP2 MSTORE PUSH1 0x20 ADD PUSH0 KECCAK256 PUSH1 0x8 ADD SLOAD DUP2 MSTORE PUSH1 0x20 ADD SWAP1 DUP2 MSTORE PUSH1 0x20 ADD PUSH0 KECCAK256 PUSH0 PUSH2 0x100 EXP DUP2 SLOAD DUP2 PUSH20 0xFFFFFFFFFFFFFFFFFFFFFFFFFFFFFFFFFFFFFFFF MUL NOT AND SWAP1 DUP4 PUSH20 0xFFFFFFFFFFFFFFFFFFFFFFFFFFFFFFFFFFFFFFFF AND MUL OR SWAP1 SSTORE POP PUSH1 0x1 PUSH1 0x5 PUSH0 DUP7 DUP2 MSTORE PUSH1 0x20 ADD SWAP1 DUP2 MSTORE PUSH1 0x20 ADD PUSH0 KECCAK256 PUSH1 0x8 ADD PUSH0 DUP3 DUP3 SLOAD PUSH2 0x19D1 SWAP2 SWAP1 PUSH2 0x3277 JUMP JUMPDEST SWAP3 POP POP DUP2 SWAP1 SSTORE POP JUMPDEST PUSH1 0x1 PUSH1 0x5 PUSH0 DUP7 DUP2 MSTORE PUSH1 0x20 ADD SWAP1 DUP2 MSTORE PUSH1 0x20 ADD PUSH0 KECCAK256 PUSH1 0x9 ADD PUSH0 DUP3 DUP3 SLOAD PUSH2 0x19FD SWAP2 SWAP1 PUSH2 0x3277 JUMP JUMPDEST SWAP3 POP POP DUP2 SWAP1 SSTORE POP DUP2 PUSH1 0x8 PUSH0 DUP7 DUP2 MSTORE PUSH1 0x20 ADD SWAP1 DUP2 MSTORE PUSH1 0x20 ADD PUSH0 KECCAK256 PUSH0 DUP6 PUSH20 0xFFFFFFFFFFFFFFFFFFFFFFFFFFFFFFFFFFFFFFFF AND PUSH20 0xFFFFFFFFFFFFFFFFFFFFFFFFFFFFFFFFFFFFFFFF AND DUP2 MSTORE PUSH1 0x20 ADD SWAP1 DUP2 MSTORE PUSH1 0x20 ADD PUSH0 KECCAK256 SLOAD PUSH2 0x1A5C SWAP2 SWAP1 PUSH2 0x3277 JUMP JUMPDEST PUSH1 0x8 PUSH0 DUP7 DUP2 MSTORE PUSH1 0x20 ADD SWAP1 DUP2 MSTORE PUSH1 0x20 ADD PUSH0 KECCAK256 PUSH0 DUP6 PUSH20 0xFFFFFFFFFFFFFFFFFFFFFFFFFFFFFFFFFFFFFFFF AND PUSH20 0xFFFFFFFFFFFFFFFFFFFFFFFFFFFFFFFFFFFFFFFF AND DUP2 MSTORE PUSH1 0x20 ADD SWAP1 DUP2 MSTORE PUSH1 0x20 ADD PUSH0 KECCAK256 DUP2 SWAP1 SSTORE POP POP POP POP POP JUMP JUMPDEST PUSH0 DUP2 PUSH1 0x5 PUSH0 DUP7 DUP2 MSTORE PUSH1 0x20 ADD SWAP1 DUP2 MSTORE PUSH1 0x20 ADD PUSH0 KECCAK256 PUSH1 0xB ADD SLOAD PUSH2 0x1AD3 SWAP2 SWAP1 PUSH2 0x347A JUMP JUMPDEST SWAP1 POP PUSH2 0x1B34 DUP4 ADDRESS DUP4 PUSH1 0x5 PUSH0 DUP10 DUP2 MSTORE PUSH1 0x20 ADD SWAP1 DUP2 MSTORE PUSH1 0x20 ADD PUSH0 KECCAK256 PUSH0 ADD PUSH0 SWAP1 SLOAD SWAP1 PUSH2 0x100 EXP SWAP1 DIV PUSH20 0xFFFFFFFFFFFFFFFFFFFFFFFFFFFFFFFFFFFFFFFF AND PUSH20 0xFFFFFFFFFFFFFFFFFFFFFFFFFFFFFFFFFFFFFFFF AND PUSH2 0x283E SWAP1 SWAP4 SWAP3 SWAP2 SWAP1 PUSH4 0xFFFFFFFF AND JUMP JUMPDEST DUP2 PUSH1 0x5 PUSH0 PUSH1 0x3 SLOAD DUP2 MSTORE PUSH1 0x20 ADD SWAP1 DUP2 MSTORE PUSH1 0x20 ADD PUSH0 KECCAK256 PUSH1 0x7 ADD PUSH0 DUP3 DUP3 SLOAD PUSH2 0x1B59 SWAP2 SWAP1 PUSH2 0x3277 JUMP JUMPDEST SWAP3 POP POP DUP2 SWAP1 SSTORE POP PUSH0 PUSH1 0xC PUSH0 PUSH1 0x3 SLOAD DUP2 MSTORE PUSH1 0x20 ADD SWAP1 DUP2 MSTORE PUSH1 0x20 ADD PUSH0 KECCAK256 PUSH0 DUP6 PUSH20 0xFFFFFFFFFFFFFFFFFFFFFFFFFFFFFFFFFFFFFFFF AND PUSH20 0xFFFFFFFFFFFFFFFFFFFFFFFFFFFFFFFFFFFFFFFF AND DUP2 MSTORE PUSH1 0x20 ADD SWAP1 DUP2 MSTORE PUSH1 0x20 ADD PUSH0 KECCAK256 SLOAD SUB PUSH2 0x1C59 JUMPI DUP3 PUSH1 0xB PUSH0 PUSH1 0x3 SLOAD DUP2 MSTORE PUSH1 0x20 ADD SWAP1 DUP2 MSTORE PUSH1 0x20 ADD PUSH0 KECCAK256 PUSH0 PUSH1 0x5 PUSH0 PUSH1 0x3 SLOAD DUP2 MSTORE PUSH1 0x20 ADD SWAP1 DUP2 MSTORE PUSH1 0x20 ADD PUSH0 KECCAK256 PUSH1 0xA ADD SLOAD DUP2 MSTORE PUSH1 0x20 ADD SWAP1 DUP2 MSTORE PUSH1 0x20 ADD PUSH0 KECCAK256 PUSH0 PUSH2 0x100 EXP DUP2 SLOAD DUP2 PUSH20 0xFFFFFFFFFFFFFFFFFFFFFFFFFFFFFFFFFFFFFFFF MUL NOT AND SWAP1 DUP4 PUSH20 0xFFFFFFFFFFFFFFFFFFFFFFFFFFFFFFFFFFFFFFFF AND MUL OR SWAP1 SSTORE POP PUSH1 0x1 PUSH1 0x5 PUSH0 PUSH1 0x3 SLOAD DUP2 MSTORE PUSH1 0x20 ADD SWAP1 DUP2 MSTORE PUSH1 0x20 ADD PUSH0 KECCAK256 PUSH1 0xA ADD PUSH0 DUP3 DUP3 SLOAD PUSH2 0x1C51 SWAP2 SWAP1 PUSH2 0x3277 JUMP JUMPDEST SWAP3 POP POP DUP2 SWAP1 SSTORE POP JUMPDEST DUP2 PUSH1 0xC PUSH0 PUSH1 0x3 SLOAD DUP2 MSTORE PUSH1 0x20 ADD SWAP1 DUP2 MSTORE PUSH1 0x20 ADD PUSH0 KECCAK256 PUSH0 DUP6 PUSH20 0xFFFFFFFFFFFFFFFFFFFFFFFFFFFFFFFFFFFFFFFF AND PUSH20 0xFFFFFFFFFFFFFFFFFFFFFFFFFFFFFFFFFFFFFFFF AND DUP2 MSTORE PUSH1 0x20 ADD SWAP1 DUP2 MSTORE PUSH1 0x20 ADD PUSH0 KECCAK256 PUSH0 DUP3 DUP3 SLOAD PUSH2 0x1CB6 SWAP2 SWAP1 PUSH2 0x3277 JUMP JUMPDEST SWAP3 POP POP DUP2 SWAP1 SSTORE POP DUP3 PUSH20 0xFFFFFFFFFFFFFFFFFFFFFFFFFFFFFFFFFFFFFFFF AND PUSH1 0x3 SLOAD PUSH32 0xA95519638524DCEA0D5D0102C719D77DC3D8B1AE68D2D1E37C79BE21BC7B113B DUP5 PUSH1 0x40 MLOAD PUSH2 0x1D06 SWAP2 SWAP1 PUSH2 0x3089 JUMP JUMPDEST PUSH1 0x40 MLOAD DUP1 SWAP2 SUB SWAP1 LOG3 POP POP POP POP JUMP JUMPDEST PUSH2 0x1D1C PUSH2 0x28C0 JUMP JUMPDEST PUSH20 0xFFFFFFFFFFFFFFFFFFFFFFFFFFFFFFFFFFFFFFFF AND PUSH2 0x1D3A PUSH2 0x8E0 JUMP JUMPDEST PUSH20 0xFFFFFFFFFFFFFFFFFFFFFFFFFFFFFFFFFFFFFFFF AND EQ PUSH2 0x1D99 JUMPI PUSH2 0x1D5D PUSH2 0x28C0 JUMP JUMPDEST PUSH1 0x40 MLOAD PUSH32 0x118CDAA700000000000000000000000000000000000000000000000000000000 DUP2 MSTORE PUSH1 0x4 ADD PUSH2 0x1D90 SWAP2 SWAP1 PUSH2 0x2EEA JUMP JUMPDEST PUSH1 0x40 MLOAD DUP1 SWAP2 SUB SWAP1 REVERT JUMPDEST JUMP JUMPDEST PUSH0 PUSH1 0x1 PUSH0 SWAP1 SLOAD SWAP1 PUSH2 0x100 EXP SWAP1 DIV PUSH20 0xFFFFFFFFFFFFFFFFFFFFFFFFFFFFFFFFFFFFFFFF AND SWAP1 POP DUP2 PUSH1 0x1 PUSH0 PUSH2 0x100 EXP DUP2 SLOAD DUP2 PUSH20 0xFFFFFFFFFFFFFFFFFFFFFFFFFFFFFFFFFFFFFFFF MUL NOT AND SWAP1 DUP4 PUSH20 0xFFFFFFFFFFFFFFFFFFFFFFFFFFFFFFFFFFFFFFFF AND MUL OR SWAP1 SSTORE POP DUP2 PUSH20 0xFFFFFFFFFFFFFFFFFFFFFFFFFFFFFFFFFFFFFFFF AND DUP2 PUSH20 0xFFFFFFFFFFFFFFFFFFFFFFFFFFFFFFFFFFFFFFFF AND PUSH32 0x8BE0079C531659141344CD1FD0A4F28419497F9722A3DAAFE3B4186F6B6457E0 PUSH1 0x40 MLOAD PUSH1 0x40 MLOAD DUP1 SWAP2 SUB SWAP1 LOG3 POP POP JUMP JUMPDEST PUSH0 JUMPDEST PUSH1 0x5 PUSH0 DUP4 DUP2 MSTORE PUSH1 0x20 ADD SWAP1 DUP2 MSTORE PUSH1 0x20 ADD PUSH0 KECCAK256 PUSH1 0xA ADD SLOAD DUP2 LT ISZERO PUSH2 0x1FDA JUMPI PUSH0 PUSH1 0xC PUSH0 DUP5 DUP2 MSTORE PUSH1 0x20 ADD SWAP1 DUP2 MSTORE PUSH1 0x20 ADD PUSH0 KECCAK256 PUSH0 PUSH1 0xB PUSH0 DUP7 DUP2 MSTORE PUSH1 0x20 ADD SWAP1 DUP2 MSTORE PUSH1 0x20 ADD PUSH0 KECCAK256 PUSH0 DUP6 DUP2 MSTORE PUSH1 0x20 ADD SWAP1 DUP2 MSTORE PUSH1 0x20 ADD PUSH0 KECCAK256 PUSH0 SWAP1 SLOAD SWAP1 PUSH2 0x100 EXP SWAP1 DIV PUSH20 0xFFFFFFFFFFFFFFFFFFFFFFFFFFFFFFFFFFFFFFFF AND PUSH20 0xFFFFFFFFFFFFFFFFFFFFFFFFFFFFFFFFFFFFFFFF AND PUSH20 0xFFFFFFFFFFFFFFFFFFFFFFFFFFFFFFFFFFFFFFFF AND DUP2 MSTORE PUSH1 0x20 ADD SWAP1 DUP2 MSTORE PUSH1 0x20 ADD PUSH0 KECCAK256 SLOAD PUSH1 0x5 PUSH0 DUP6 DUP2 MSTORE PUSH1 0x20 ADD SWAP1 DUP2 MSTORE PUSH1 0x20 ADD PUSH0 KECCAK256 PUSH1 0xB ADD SLOAD PUSH2 0x1F28 SWAP2 SWAP1 PUSH2 0x347A JUMP JUMPDEST SWAP1 POP PUSH2 0x1FC6 PUSH1 0xB PUSH0 DUP6 DUP2 MSTORE PUSH1 0x20 ADD SWAP1 DUP2 MSTORE PUSH1 0x20 ADD PUSH0 KECCAK256 PUSH0 DUP5 DUP2 MSTORE PUSH1 0x20 ADD SWAP1 DUP2 MSTORE PUSH1 0x20 ADD PUSH0 KECCAK256 PUSH0 SWAP1 SLOAD SWAP1 PUSH2 0x100 EXP SWAP1 DIV PUSH20 0xFFFFFFFFFFFFFFFFFFFFFFFFFFFFFFFFFFFFFFFF AND DUP3 PUSH1 0x5 PUSH0 DUP8 DUP2 MSTORE PUSH1 0x20 ADD SWAP1 DUP2 MSTORE PUSH1 0x20 ADD PUSH0 KECCAK256 PUSH0 ADD PUSH0 SWAP1 SLOAD SWAP1 PUSH2 0x100 EXP SWAP1 DIV PUSH20 0xFFFFFFFFFFFFFFFFFFFFFFFFFFFFFFFFFFFFFFFF AND PUSH20 0xFFFFFFFFFFFFFFFFFFFFFFFFFFFFFFFFFFFFFFFF AND PUSH2 0x28C7 SWAP1 SWAP3 SWAP2 SWAP1 PUSH4 0xFFFFFFFF AND JUMP JUMPDEST POP DUP1 DUP1 PUSH2 0x1FD2 SWAP1 PUSH2 0x337A JUMP JUMPDEST SWAP2 POP POP PUSH2 0x1E60 JUMP JUMPDEST POP POP JUMP JUMPDEST PUSH0 JUMPDEST PUSH1 0x5 PUSH0 DUP4 DUP2 MSTORE PUSH1 0x20 ADD SWAP1 DUP2 MSTORE PUSH1 0x20 ADD PUSH0 KECCAK256 PUSH1 0xA ADD SLOAD DUP2 LT ISZERO PUSH2 0x20DF JUMPI PUSH1 0xC PUSH0 DUP4 DUP2 MSTORE PUSH1 0x20 ADD SWAP1 DUP2 MSTORE PUSH1 0x20 ADD PUSH0 KECCAK256 PUSH0 PUSH1 0xB PUSH0 DUP6 DUP2 MSTORE PUSH1 0x20 ADD SWAP1 DUP2 MSTORE PUSH1 0x20 ADD PUSH0 KECCAK256 PUSH0 DUP5 DUP2 MSTORE PUSH1 0x20 ADD SWAP1 DUP2 MSTORE PUSH1 0x20 ADD PUSH0 KECCAK256 PUSH0 SWAP1 SLOAD SWAP1 PUSH2 0x100 EXP SWAP1 DIV PUSH20 0xFFFFFFFFFFFFFFFFFFFFFFFFFFFFFFFFFFFFFFFF AND PUSH20 0xFFFFFFFFFFFFFFFFFFFFFFFFFFFFFFFFFFFFFFFF AND PUSH20 0xFFFFFFFFFFFFFFFFFFFFFFFFFFFFFFFFFFFFFFFF AND DUP2 MSTORE PUSH1 0x20 ADD SWAP1 DUP2 MSTORE PUSH1 0x20 ADD PUSH0 KECCAK256 PUSH0 SWAP1 SSTORE PUSH1 0xB PUSH0 DUP4 DUP2 MSTORE PUSH1 0x20 ADD SWAP1 DUP2 MSTORE PUSH1 0x20 ADD PUSH0 KECCAK256 PUSH0 DUP3 DUP2 MSTORE PUSH1 0x20 ADD SWAP1 DUP2 MSTORE PUSH1 0x20 ADD PUSH0 KECCAK256 PUSH0 PUSH2 0x100 EXP DUP2 SLOAD SWAP1 PUSH20 0xFFFFFFFFFFFFFFFFFFFFFFFFFFFFFFFFFFFFFFFF MUL NOT AND SWAP1 SSTORE DUP1 DUP1 PUSH2 0x20D7 SWAP1 PUSH2 0x337A JUMP JUMPDEST SWAP2 POP POP PUSH2 0x1FE0 JUMP JUMPDEST POP PUSH0 JUMPDEST PUSH1 0x5 PUSH0 DUP4 DUP2 MSTORE PUSH1 0x20 ADD SWAP1 DUP2 MSTORE PUSH1 0x20 ADD PUSH0 KECCAK256 PUSH1 0x9 ADD SLOAD DUP2 LT ISZERO PUSH2 0x2174 JUMPI PUSH1 0x6 PUSH0 DUP4 DUP2 MSTORE PUSH1 0x20 ADD SWAP1 DUP2 MSTORE PUSH1 0x20 ADD PUSH0 KECCAK256 PUSH0 DUP3 DUP2 MSTORE PUSH1 0x20 ADD SWAP1 DUP2 MSTORE PUSH1 0x20 ADD PUSH0 KECCAK256 PUSH0 DUP1 DUP3 ADD PUSH0 SWAP1 SSTORE PUSH1 0x1 DUP3 ADD PUSH0 PUSH2 0x100 EXP DUP2 SLOAD SWAP1 PUSH20 0xFFFFFFFFFFFFFFFFFFFFFFFFFFFFFFFFFFFFFFFF MUL NOT AND SWAP1 SSTORE PUSH1 0x1 DUP3 ADD PUSH1 0x14 PUSH2 0x100 EXP DUP2 SLOAD SWAP1 PUSH1 0xFF MUL NOT AND SWAP1 SSTORE POP POP DUP1 DUP1 PUSH2 0x216C SWAP1 PUSH2 0x337A JUMP JUMPDEST SWAP2 POP POP PUSH2 0x20E2 JUMP JUMPDEST POP PUSH1 0x5 PUSH0 DUP3 DUP2 MSTORE PUSH1 0x20 ADD SWAP1 DUP2 MSTORE PUSH1 0x20 ADD PUSH0 KECCAK256 PUSH0 DUP1 DUP3 ADD PUSH0 PUSH2 0x100 EXP DUP2 SLOAD SWAP1 PUSH20 0xFFFFFFFFFFFFFFFFFFFFFFFFFFFFFFFFFFFFFFFF MUL NOT AND SWAP1 SSTORE PUSH0 DUP3 ADD PUSH1 0x14 PUSH2 0x100 EXP DUP2 SLOAD SWAP1 PUSH1 0xFF MUL NOT AND SWAP1 SSTORE PUSH1 0x1 DUP3 ADD PUSH0 SWAP1 SSTORE PUSH1 0x2 DUP3 ADD PUSH0 SWAP1 SSTORE PUSH1 0x3 DUP3 ADD PUSH0 SWAP1 SSTORE PUSH1 0x4 DUP3 ADD PUSH0 SWAP1 SSTORE PUSH1 0x5 DUP3 ADD PUSH0 SWAP1 SSTORE PUSH1 0x6 DUP3 ADD PUSH0 SWAP1 SSTORE PUSH1 0x7 DUP3 ADD PUSH0 SWAP1 SSTORE PUSH1 0x8 DUP3 ADD PUSH0 SWAP1 SSTORE PUSH1 0x9 DUP3 ADD PUSH0 SWAP1 SSTORE PUSH1 0xA DUP3 ADD PUSH0 SWAP1 SSTORE PUSH1 0xB DUP3 ADD PUSH0 SWAP1 SSTORE PUSH1 0xC DUP3 ADD PUSH0 SWAP1 SSTORE PUSH1 0xD DUP3 ADD PUSH0 PUSH2 0x100 EXP DUP2 SLOAD SWAP1 PUSH1 0xFF MUL NOT AND SWAP1 SSTORE POP POP POP JUMP JUMPDEST PUSH1 0x60 PUSH0 DUP4 PUSH8 0xFFFFFFFFFFFFFFFF DUP2 GT ISZERO PUSH2 0x2248 JUMPI PUSH2 0x2247 PUSH2 0x36EA JUMP JUMPDEST JUMPDEST PUSH1 0x40 MLOAD SWAP1 DUP1 DUP3 MSTORE DUP1 PUSH1 0x20 MUL PUSH1 0x20 ADD DUP3 ADD PUSH1 0x40 MSTORE DUP1 ISZERO PUSH2 0x2276 JUMPI DUP2 PUSH1 0x20 ADD PUSH1 0x20 DUP3 MUL DUP1 CALLDATASIZE DUP4 CALLDATACOPY DUP1 DUP3 ADD SWAP2 POP POP SWAP1 POP JUMPDEST POP SWAP1 POP PUSH0 DUP6 SWAP1 POP PUSH0 JUMPDEST PUSH1 0x1 DUP7 PUSH2 0x228C SWAP2 SWAP1 PUSH2 0x3717 JUMP JUMPDEST DUP2 LT ISZERO PUSH2 0x237C JUMPI PUSH2 0x229D DUP3 DUP3 PUSH2 0x2946 JUMP JUMPDEST SWAP2 POP PUSH0 DUP6 DUP4 PUSH2 0x22AC SWAP2 SWAP1 PUSH2 0x3777 JUMP JUMPDEST SWAP1 POP PUSH0 DUP3 SWAP1 POP JUMPDEST PUSH1 0x1 DUP2 LT ISZERO DUP1 ISZERO PUSH2 0x22E9 JUMPI POP DUP5 PUSH1 0x1 DUP3 PUSH2 0x22CD SWAP2 SWAP1 PUSH2 0x3717 JUMP JUMPDEST DUP2 MLOAD DUP2 LT PUSH2 0x22DE JUMPI PUSH2 0x22DD PUSH2 0x37A7 JUMP JUMPDEST JUMPDEST PUSH1 0x20 MUL PUSH1 0x20 ADD ADD MLOAD DUP3 LT JUMPDEST ISZERO PUSH2 0x2347 JUMPI DUP5 PUSH1 0x1 DUP3 PUSH2 0x22FC SWAP2 SWAP1 PUSH2 0x3717 JUMP JUMPDEST DUP2 MLOAD DUP2 LT PUSH2 0x230D JUMPI PUSH2 0x230C PUSH2 0x37A7 JUMP JUMPDEST JUMPDEST PUSH1 0x20 MUL PUSH1 0x20 ADD ADD MLOAD DUP6 DUP3 DUP2 MLOAD DUP2 LT PUSH2 0x2328 JUMPI PUSH2 0x2327 PUSH2 0x37A7 JUMP JUMPDEST JUMPDEST PUSH1 0x20 MUL PUSH1 0x20 ADD ADD DUP2 DUP2 MSTORE POP POP DUP1 DUP1 PUSH2 0x233F SWAP1 PUSH2 0x37D4 JUMP JUMPDEST SWAP2 POP POP PUSH2 0x22B3 JUMP JUMPDEST DUP2 DUP6 DUP3 DUP2 MLOAD DUP2 LT PUSH2 0x235B JUMPI PUSH2 0x235A PUSH2 0x37A7 JUMP JUMPDEST JUMPDEST PUSH1 0x20 MUL PUSH1 0x20 ADD ADD DUP2 DUP2 MSTORE POP POP POP POP DUP1 DUP1 PUSH2 0x2374 SWAP1 PUSH2 0x337A JUMP JUMPDEST SWAP2 POP POP PUSH2 0x227F JUMP JUMPDEST POP DUP4 DUP3 PUSH1 0x1 DUP8 PUSH2 0x238C SWAP2 SWAP1 PUSH2 0x3717 JUMP JUMPDEST DUP2 MLOAD DUP2 LT PUSH2 0x239D JUMPI PUSH2 0x239C PUSH2 0x37A7 JUMP JUMPDEST JUMPDEST PUSH1 0x20 MUL PUSH1 0x20 ADD ADD DUP2 DUP2 MSTORE POP POP DUP2 SWAP3 POP POP POP SWAP4 SWAP3 POP POP POP JUMP JUMPDEST PUSH0 DUP1 PUSH1 0x5 PUSH0 DUP7 DUP2 MSTORE PUSH1 0x20 ADD SWAP1 DUP2 MSTORE PUSH1 0x20 ADD PUSH0 KECCAK256 PUSH1 0x6 ADD SLOAD PUSH1 0x5 PUSH0 DUP8 DUP2 MSTORE PUSH1 0x20 ADD SWAP1 DUP2 MSTORE PUSH1 0x20 ADD PUSH0 KECCAK256 PUSH1 0x5 ADD SLOAD PUSH2 0x23EB SWAP2 SWAP1 PUSH2 0x3277 JUMP JUMPDEST SWAP1 POP PUSH0 JUMPDEST DUP5 DUP2 LT ISZERO PUSH2 0x2636 JUMPI PUSH0 DUP4 DUP6 DUP4 DUP2 MLOAD DUP2 LT PUSH2 0x240C JUMPI PUSH2 0x240B PUSH2 0x37A7 JUMP JUMPDEST JUMPDEST PUSH1 0x20 MUL PUSH1 0x20 ADD ADD MLOAD PUSH2 0x241E SWAP2 SWAP1 PUSH2 0x3717 JUMP JUMPDEST SWAP1 POP PUSH0 DUP3 SWAP1 POP DUP4 DUP8 EQ PUSH2 0x24B3 JUMPI DUP4 PUSH2 0x2450 DUP8 DUP6 DUP2 MLOAD DUP2 LT PUSH2 0x2442 JUMPI PUSH2 0x2441 PUSH2 0x37A7 JUMP JUMPDEST JUMPDEST PUSH1 0x20 MUL PUSH1 0x20 ADD ADD MLOAD DUP6 PUSH2 0x2946 JUMP JUMPDEST PUSH2 0x245A SWAP2 SWAP1 PUSH2 0x3777 JUMP JUMPDEST SWAP1 POP JUMPDEST PUSH0 ISZERO ISZERO PUSH1 0x7 PUSH0 DUP11 DUP2 MSTORE PUSH1 0x20 ADD SWAP1 DUP2 MSTORE PUSH1 0x20 ADD PUSH0 KECCAK256 PUSH0 DUP4 DUP2 MSTORE PUSH1 0x20 ADD SWAP1 DUP2 MSTORE PUSH1 0x20 ADD PUSH0 KECCAK256 PUSH0 SWAP1 SLOAD SWAP1 PUSH2 0x100 EXP SWAP1 DIV PUSH1 0xFF AND ISZERO ISZERO EQ PUSH2 0x24B2 JUMPI DUP1 DUP1 PUSH2 0x249F SWAP1 PUSH2 0x337A JUMP JUMPDEST SWAP2 POP POP DUP4 DUP2 SUB PUSH2 0x24AD JUMPI PUSH0 SWAP1 POP JUMPDEST PUSH2 0x245D JUMP JUMPDEST JUMPDEST PUSH1 0x1 PUSH1 0x7 PUSH0 DUP11 DUP2 MSTORE PUSH1 0x20 ADD SWAP1 DUP2 MSTORE PUSH1 0x20 ADD PUSH0 KECCAK256 PUSH0 DUP4 DUP2 MSTORE PUSH1 0x20 ADD SWAP1 DUP2 MSTORE PUSH1 0x20 ADD PUSH0 KECCAK256 PUSH0 PUSH2 0x100 EXP DUP2 SLOAD DUP2 PUSH1 0xFF MUL NOT AND SWAP1 DUP4 ISZERO ISZERO MUL OR SWAP1 SSTORE POP PUSH0 PUSH2 0x24F6 DUP10 DUP4 PUSH2 0x2995 JUMP JUMPDEST SWAP1 POP DUP2 DUP2 PUSH1 0x1 ADD PUSH0 SWAP1 SLOAD SWAP1 PUSH2 0x100 EXP SWAP1 DIV PUSH20 0xFFFFFFFFFFFFFFFFFFFFFFFFFFFFFFFFFFFFFFFF AND PUSH20 0xFFFFFFFFFFFFFFFFFFFFFFFFFFFFFFFFFFFFFFFF AND DUP11 PUSH32 0x927546E38B674F5E5DFF7EDCE9C7AFDCF21A35AC03BA70FE8E341F61F2C73DED DUP7 PUSH1 0x5 PUSH0 DUP16 DUP2 MSTORE PUSH1 0x20 ADD SWAP1 DUP2 MSTORE PUSH1 0x20 ADD PUSH0 KECCAK256 PUSH1 0xD ADD PUSH0 SWAP1 SLOAD SWAP1 PUSH2 0x100 EXP SWAP1 DIV PUSH1 0xFF AND PUSH1 0x40 MLOAD PUSH2 0x2585 SWAP3 SWAP2 SWAP1 PUSH2 0x37FB JUMP JUMPDEST PUSH1 0x40 MLOAD DUP1 SWAP2 SUB SWAP1 LOG4 DUP3 PUSH1 0xA PUSH0 DUP12 DUP2 MSTORE PUSH1 0x20 ADD SWAP1 DUP2 MSTORE PUSH1 0x20 ADD PUSH0 KECCAK256 PUSH0 DUP4 PUSH1 0x1 ADD PUSH0 SWAP1 SLOAD SWAP1 PUSH2 0x100 EXP SWAP1 DIV PUSH20 0xFFFFFFFFFFFFFFFFFFFFFFFFFFFFFFFFFFFFFFFF AND PUSH20 0xFFFFFFFFFFFFFFFFFFFFFFFFFFFFFFFFFFFFFFFF AND PUSH20 0xFFFFFFFFFFFFFFFFFFFFFFFFFFFFFFFFFFFFFFFF AND DUP2 MSTORE PUSH1 0x20 ADD SWAP1 DUP2 MSTORE PUSH1 0x20 ADD PUSH0 KECCAK256 PUSH0 DUP3 DUP3 SLOAD PUSH2 0x260B SWAP2 SWAP1 PUSH2 0x3277 JUMP JUMPDEST SWAP3 POP POP DUP2 SWAP1 SSTORE POP DUP3 DUP7 PUSH2 0x261E SWAP2 SWAP1 PUSH2 0x3277 JUMP JUMPDEST SWAP6 POP POP POP POP DUP1 DUP1 PUSH2 0x262E SWAP1 PUSH2 0x337A JUMP JUMPDEST SWAP2 POP POP PUSH2 0x23EF JUMP JUMPDEST POP POP POP POP POP POP JUMP JUMPDEST PUSH0 PUSH1 0xA PUSH0 DUP5 DUP2 MSTORE PUSH1 0x20 ADD SWAP1 DUP2 MSTORE PUSH1 0x20 ADD PUSH0 KECCAK256 PUSH0 DUP4 PUSH20 0xFFFFFFFFFFFFFFFFFFFFFFFFFFFFFFFFFFFFFFFF AND PUSH20 0xFFFFFFFFFFFFFFFFFFFFFFFFFFFFFFFFFFFFFFFF AND DUP2 MSTORE PUSH1 0x20 ADD SWAP1 DUP2 MSTORE PUSH1 0x20 ADD PUSH0 KECCAK256 SLOAD SUB PUSH2 0x26CC JUMPI PUSH1 0x40 MLOAD PUSH32 0x8C379A000000000000000000000000000000000000000000000000000000000 DUP2 MSTORE PUSH1 0x4 ADD PUSH2 0x26C3 SWAP1 PUSH2 0x386C JUMP JUMPDEST PUSH1 0x40 MLOAD DUP1 SWAP2 SUB SWAP1 REVERT JUMPDEST PUSH0 PUSH1 0xA PUSH0 DUP5 DUP2 MSTORE PUSH1 0x20 ADD SWAP1 DUP2 MSTORE PUSH1 0x20 ADD PUSH0 KECCAK256 PUSH0 DUP4 PUSH20 0xFFFFFFFFFFFFFFFFFFFFFFFFFFFFFFFFFFFFFFFF AND PUSH20 0xFFFFFFFFFFFFFFFFFFFFFFFFFFFFFFFFFFFFFFFF AND DUP2 MSTORE PUSH1 0x20 ADD SWAP1 DUP2 MSTORE PUSH1 0x20 ADD PUSH0 KECCAK256 SLOAD SWAP1 POP PUSH2 0x2779 DUP3 DUP3 PUSH1 0x5 PUSH0 DUP8 DUP2 MSTORE PUSH1 0x20 ADD SWAP1 DUP2 MSTORE PUSH1 0x20 ADD PUSH0 KECCAK256 PUSH0 ADD PUSH0 SWAP1 SLOAD SWAP1 PUSH2 0x100 EXP SWAP1 DIV PUSH20 0xFFFFFFFFFFFFFFFFFFFFFFFFFFFFFFFFFFFFFFFF AND PUSH20 0xFFFFFFFFFFFFFFFFFFFFFFFFFFFFFFFFFFFFFFFF AND PUSH2 0x28C7 SWAP1 SWAP3 SWAP2 SWAP1 PUSH4 0xFFFFFFFF AND JUMP JUMPDEST PUSH1 0xA PUSH0 DUP5 DUP2 MSTORE PUSH1 0x20 ADD SWAP1 DUP2 MSTORE PUSH1 0x20 ADD PUSH0 KECCAK256 PUSH0 DUP4 PUSH20 0xFFFFFFFFFFFFFFFFFFFFFFFFFFFFFFFFFFFFFFFF AND PUSH20 0xFFFFFFFFFFFFFFFFFFFFFFFFFFFFFFFFFFFFFFFF AND DUP2 MSTORE PUSH1 0x20 ADD SWAP1 DUP2 MSTORE PUSH1 0x20 ADD PUSH0 KECCAK256 PUSH0 SWAP1 SSTORE DUP2 PUSH20 0xFFFFFFFFFFFFFFFFFFFFFFFFFFFFFFFFFFFFFFFF AND DUP4 PUSH32 0x268EF67ED0490CC273925A4865E6FBDB4DCF7E0802AAD957AA682A78C7618BEF DUP4 PUSH1 0x5 PUSH0 DUP9 DUP2 MSTORE PUSH1 0x20 ADD SWAP1 DUP2 MSTORE PUSH1 0x20 ADD PUSH0 KECCAK256 PUSH1 0xD ADD PUSH0 SWAP1 SLOAD SWAP1 PUSH2 0x100 EXP SWAP1 DIV PUSH1 0xFF AND PUSH1 0x40 MLOAD PUSH2 0x2831 SWAP3 SWAP2 SWAP1 PUSH2 0x37FB JUMP JUMPDEST PUSH1 0x40 MLOAD DUP1 SWAP2 SUB SWAP1 LOG3 POP POP POP JUMP JUMPDEST PUSH2 0x28BA DUP5 DUP6 PUSH20 0xFFFFFFFFFFFFFFFFFFFFFFFFFFFFFFFFFFFFFFFF AND PUSH4 0x23B872DD DUP7 DUP7 DUP7 PUSH1 0x40 MLOAD PUSH1 0x24 ADD PUSH2 0x2873 SWAP4 SWAP3 SWAP2 SWAP1 PUSH2 0x388A JUMP JUMPDEST PUSH1 0x40 MLOAD PUSH1 0x20 DUP2 DUP4 SUB SUB DUP2 MSTORE SWAP1 PUSH1 0x40 MSTORE SWAP2 POP PUSH1 0xE0 SHL PUSH1 0x20 DUP3 ADD DUP1 MLOAD PUSH28 0xFFFFFFFFFFFFFFFFFFFFFFFFFFFFFFFFFFFFFFFFFFFFFFFFFFFFFFFF DUP4 DUP2 DUP4 AND OR DUP4 MSTORE POP POP POP POP PUSH2 0x2A96 JUMP JUMPDEST POP POP POP POP JUMP JUMPDEST PUSH0 CALLER SWAP1 POP SWAP1 JUMP JUMPDEST PUSH2 0x2941 DUP4 DUP5 PUSH20 0xFFFFFFFFFFFFFFFFFFFFFFFFFFFFFFFFFFFFFFFF AND PUSH4 0xA9059CBB DUP6 DUP6 PUSH1 0x40 MLOAD PUSH1 0x24 ADD PUSH2 0x28FA SWAP3 SWAP2 SWAP1 PUSH2 0x38BF JUMP JUMPDEST PUSH1 0x40 MLOAD PUSH1 0x20 DUP2 DUP4 SUB SUB DUP2 MSTORE SWAP1 PUSH1 0x40 MSTORE SWAP2 POP PUSH1 0xE0 SHL PUSH1 0x20 DUP3 ADD DUP1 MLOAD PUSH28 0xFFFFFFFFFFFFFFFFFFFFFFFFFFFFFFFFFFFFFFFFFFFFFFFFFFFFFFFF DUP4 DUP2 DUP4 AND OR DUP4 MSTORE POP POP POP POP PUSH2 0x2A96 JUMP JUMPDEST POP POP POP JUMP JUMPDEST PUSH0 DUP1 PUSH2 0x100 DUP4 PUSH2 0x2956 SWAP2 SWAP1 PUSH2 0x3777 JUMP JUMPDEST SWAP1 POP DUP4 PUSH2 0x2963 DUP6 DUP4 PUSH2 0x2B2B JUMP JUMPDEST PUSH1 0x40 MLOAD PUSH1 0x20 ADD PUSH2 0x2974 SWAP3 SWAP2 SWAP1 PUSH2 0x3906 JUMP JUMPDEST PUSH1 0x40 MLOAD PUSH1 0x20 DUP2 DUP4 SUB SUB DUP2 MSTORE SWAP1 PUSH1 0x40 MSTORE DUP1 MLOAD SWAP1 PUSH1 0x20 ADD KECCAK256 PUSH0 SHR SWAP2 POP POP SWAP3 SWAP2 POP POP JUMP JUMPDEST PUSH0 DUP1 PUSH0 SWAP1 POP PUSH0 JUMPDEST PUSH1 0x5 PUSH0 DUP7 DUP2 MSTORE PUSH1 0x20 ADD SWAP1 DUP2 MSTORE PUSH1 0x20 ADD PUSH0 KECCAK256 PUSH1 0x9 ADD SLOAD DUP2 LT ISZERO PUSH2 0x2A2B JUMPI PUSH1 0x6 PUSH0 DUP7 DUP2 MSTORE PUSH1 0x20 ADD SWAP1 DUP2 MSTORE PUSH1 0x20 ADD PUSH0 KECCAK256 PUSH0 DUP3 DUP2 MSTORE PUSH1 0x20 ADD SWAP1 DUP2 MSTORE PUSH1 0x20 ADD PUSH0 KECCAK256 PUSH0 ADD SLOAD DUP3 PUSH2 0x29E6 SWAP2 SWAP1 PUSH2 0x3277 JUMP JUMPDEST SWAP2 POP DUP4 DUP3 LT PUSH2 0x2A18 JUMPI PUSH1 0x6 PUSH0 DUP7 DUP2 MSTORE PUSH1 0x20 ADD SWAP1 DUP2 MSTORE PUSH1 0x20 ADD PUSH0 KECCAK256 PUSH0 DUP3 DUP2 MSTORE PUSH1 0x20 ADD SWAP1 DUP2 MSTORE PUSH1 0x20 ADD PUSH0 KECCAK256 SWAP3 POP POP POP PUSH2 0x2A90 JUMP JUMPDEST DUP1 DUP1 PUSH2 0x2A23 SWAP1 PUSH2 0x337A JUMP JUMPDEST SWAP2 POP POP PUSH2 0x299C JUMP JUMPDEST POP PUSH0 PUSH2 0x2A6C JUMPI PUSH1 0x40 MLOAD PUSH32 0x8C379A000000000000000000000000000000000000000000000000000000000 DUP2 MSTORE PUSH1 0x4 ADD PUSH2 0x2A63 SWAP1 PUSH2 0x397B JUMP JUMPDEST PUSH1 0x40 MLOAD DUP1 SWAP2 SUB SWAP1 REVERT JUMPDEST PUSH1 0x6 PUSH0 DUP6 DUP2 MSTORE PUSH1 0x20 ADD SWAP1 DUP2 MSTORE PUSH1 0x20 ADD PUSH0 KECCAK256 PUSH0 DUP1 DUP2 MSTORE PUSH1 0x20 ADD SWAP1 DUP2 MSTORE PUSH1 0x20 ADD PUSH0 KECCAK256 SWAP2 POP POP JUMPDEST SWAP3 SWAP2 POP POP JUMP JUMPDEST PUSH0 PUSH2 0x2AC0 DUP3 DUP5 PUSH20 0xFFFFFFFFFFFFFFFFFFFFFFFFFFFFFFFFFFFFFFFF AND PUSH2 0x2B56 SWAP1 SWAP2 SWAP1 PUSH4 0xFFFFFFFF AND JUMP JUMPDEST SWAP1 POP PUSH0 DUP2 MLOAD EQ ISZERO DUP1 ISZERO PUSH2 0x2AE4 JUMPI POP DUP1 DUP1 PUSH1 0x20 ADD SWAP1 MLOAD DUP2 ADD SWAP1 PUSH2 0x2AE2 SWAP2 SWAP1 PUSH2 0x39AD JUMP JUMPDEST ISZERO JUMPDEST ISZERO PUSH2 0x2B26 JUMPI DUP3 PUSH1 0x40 MLOAD PUSH32 0x5274AFE700000000000000000000000000000000000000000000000000000000 DUP2 MSTORE PUSH1 0x4 ADD PUSH2 0x2B1D SWAP2 SWAP1 PUSH2 0x2EEA JUMP JUMPDEST PUSH1 0x40 MLOAD DUP1 SWAP2 SUB SWAP1 REVERT JUMPDEST POP POP POP JUMP JUMPDEST PUSH0 DUP2 PUSH2 0x100 PUSH2 0x2B3A SWAP2 SWAP1 PUSH2 0x39E7 JUMP JUMPDEST PUSH4 0xFFFFFFFF AND DUP4 SWAP1 SHR DUP3 PUSH4 0xFFFFFFFF AND DUP5 SWAP1 SHL OR SWAP1 POP SWAP3 SWAP2 POP POP JUMP JUMPDEST PUSH1 0x60 PUSH2 0x2B63 DUP4 DUP4 PUSH0 PUSH2 0x2B6B JUMP JUMPDEST SWAP1 POP SWAP3 SWAP2 POP POP JUMP JUMPDEST PUSH1 0x60 DUP2 SELFBALANCE LT ISZERO PUSH2 0x2BB2 JUMPI ADDRESS PUSH1 0x40 MLOAD PUSH32 0xCD78605900000000000000000000000000000000000000000000000000000000 DUP2 MSTORE PUSH1 0x4 ADD PUSH2 0x2BA9 SWAP2 SWAP1 PUSH2 0x2EEA JUMP JUMPDEST PUSH1 0x40 MLOAD DUP1 SWAP2 SUB SWAP1 REVERT JUMPDEST PUSH0 DUP1 DUP6 PUSH20 0xFFFFFFFFFFFFFFFFFFFFFFFFFFFFFFFFFFFFFFFF AND DUP5 DUP7 PUSH1 0x40 MLOAD PUSH2 0x2BDA SWAP2 SWAP1 PUSH2 0x3A8A JUMP JUMPDEST PUSH0 PUSH1 0x40 MLOAD DUP1 DUP4 SUB DUP2 DUP6 DUP8 GAS CALL SWAP3 POP POP POP RETURNDATASIZE DUP1 PUSH0 DUP2 EQ PUSH2 0x2C14 JUMPI PUSH1 0x40 MLOAD SWAP2 POP PUSH1 0x1F NOT PUSH1 0x3F RETURNDATASIZE ADD AND DUP3 ADD PUSH1 0x40 MSTORE RETURNDATASIZE DUP3 MSTORE RETURNDATASIZE PUSH0 PUSH1 0x20 DUP5 ADD RETURNDATACOPY PUSH2 0x2C19 JUMP JUMPDEST PUSH1 0x60 SWAP2 POP JUMPDEST POP SWAP2 POP SWAP2 POP PUSH2 0x2C29 DUP7 DUP4 DUP4 PUSH2 0x2C34 JUMP JUMPDEST SWAP3 POP POP POP SWAP4 SWAP3 POP POP POP JUMP JUMPDEST PUSH1 0x60 DUP3 PUSH2 0x2C49 JUMPI PUSH2 0x2C44 DUP3 PUSH2 0x2CC1 JUMP JUMPDEST PUSH2 0x2CB9 JUMP JUMPDEST PUSH0 DUP3 MLOAD EQ DUP1 ISZERO PUSH2 0x2C6F JUMPI POP PUSH0 DUP5 PUSH20 0xFFFFFFFFFFFFFFFFFFFFFFFFFFFFFFFFFFFFFFFF AND EXTCODESIZE EQ JUMPDEST ISZERO PUSH2 0x2CB1 JUMPI DUP4 PUSH1 0x40 MLOAD PUSH32 0x9996B31500000000000000000000000000000000000000000000000000000000 DUP2 MSTORE PUSH1 0x4 ADD PUSH2 0x2CA8 SWAP2 SWAP1 PUSH2 0x2EEA JUMP JUMPDEST PUSH1 0x40 MLOAD DUP1 SWAP2 SUB SWAP1 REVERT JUMPDEST DUP2 SWAP1 POP PUSH2 0x2CBA JUMP JUMPDEST JUMPDEST SWAP4 SWAP3 POP POP POP JUMP JUMPDEST PUSH0 DUP2 MLOAD GT ISZERO PUSH2 0x2CD3 JUMPI DUP1 MLOAD DUP1 DUP3 PUSH1 0x20 ADD REVERT JUMPDEST PUSH1 0x40 MLOAD PUSH32 0x1425EA4200000000000000000000000000000000000000000000000000000000 DUP2 MSTORE PUSH1 0x4 ADD PUSH1 0x40 MLOAD DUP1 SWAP2 SUB SWAP1 REVERT JUMPDEST PUSH0 DUP1 REVERT JUMPDEST PUSH0 DUP2 SWAP1 POP SWAP2 SWAP1 POP JUMP JUMPDEST PUSH2 0x2D1B DUP2 PUSH2 0x2D09 JUMP JUMPDEST DUP2 EQ PUSH2 0x2D25 JUMPI PUSH0 DUP1 REVERT JUMPDEST POP JUMP JUMPDEST PUSH0 DUP2 CALLDATALOAD SWAP1 POP PUSH2 0x2D36 DUP2 PUSH2 0x2D12 JUMP JUMPDEST SWAP3 SWAP2 POP POP JUMP JUMPDEST PUSH0 PUSH1 0x20 DUP3 DUP5 SUB SLT ISZERO PUSH2 0x2D51 JUMPI PUSH2 0x2D50 PUSH2 0x2D05 JUMP JUMPDEST JUMPDEST PUSH0 PUSH2 0x2D5E DUP5 DUP3 DUP6 ADD PUSH2 0x2D28 JUMP JUMPDEST SWAP2 POP POP SWAP3 SWAP2 POP POP JUMP JUMPDEST PUSH0 PUSH20 0xFFFFFFFFFFFFFFFFFFFFFFFFFFFFFFFFFFFFFFFF DUP3 AND SWAP1 POP SWAP2 SWAP1 POP JUMP JUMPDEST PUSH0 PUSH2 0x2D90 DUP3 PUSH2 0x2D67 JUMP JUMPDEST SWAP1 POP SWAP2 SWAP1 POP JUMP JUMPDEST PUSH2 0x2DA0 DUP2 PUSH2 0x2D86 JUMP JUMPDEST DUP2 EQ PUSH2 0x2DAA JUMPI PUSH0 DUP1 REVERT JUMPDEST POP JUMP JUMPDEST PUSH0 DUP2 CALLDATALOAD SWAP1 POP PUSH2 0x2DBB DUP2 PUSH2 0x2D97 JUMP JUMPDEST SWAP3 SWAP2 POP POP JUMP JUMPDEST PUSH0 DUP1 PUSH0 PUSH1 0x60 DUP5 DUP7 SUB SLT ISZERO PUSH2 0x2DD8 JUMPI PUSH2 0x2DD7 PUSH2 0x2D05 JUMP JUMPDEST JUMPDEST PUSH0 PUSH2 0x2DE5 DUP7 DUP3 DUP8 ADD PUSH2 0x2D28 JUMP JUMPDEST SWAP4 POP POP PUSH1 0x20 PUSH2 0x2DF6 DUP7 DUP3 DUP8 ADD PUSH2 0x2DAD JUMP JUMPDEST SWAP3 POP POP PUSH1 0x40 PUSH2 0x2E07 DUP7 DUP3 DUP8 ADD PUSH2 0x2D28 JUMP JUMPDEST SWAP2 POP POP SWAP3 POP SWAP3 POP SWAP3 JUMP JUMPDEST PUSH32 0x4E487B7100000000000000000000000000000000000000000000000000000000 PUSH0 MSTORE PUSH1 0x21 PUSH1 0x4 MSTORE PUSH1 0x24 PUSH0 REVERT JUMPDEST PUSH1 0x4 DUP2 LT PUSH2 0x2E4F JUMPI PUSH2 0x2E4E PUSH2 0x2E11 JUMP JUMPDEST JUMPDEST POP JUMP JUMPDEST PUSH0 DUP2 SWAP1 POP PUSH2 0x2E5F DUP3 PUSH2 0x2E3E JUMP JUMPDEST SWAP2 SWAP1 POP JUMP JUMPDEST PUSH0 PUSH2 0x2E6E DUP3 PUSH2 0x2E52 JUMP JUMPDEST SWAP1 POP SWAP2 SWAP1 POP JUMP JUMPDEST PUSH2 0x2E7E DUP2 PUSH2 0x2E64 JUMP JUMPDEST DUP3 MSTORE POP POP JUMP JUMPDEST PUSH0 PUSH1 0x20 DUP3 ADD SWAP1 POP PUSH2 0x2E97 PUSH0 DUP4 ADD DUP5 PUSH2 0x2E75 JUMP JUMPDEST SWAP3 SWAP2 POP POP JUMP JUMPDEST PUSH0 DUP1 PUSH1 0x40 DUP4 DUP6 SUB SLT ISZERO PUSH2 0x2EB3 JUMPI PUSH2 0x2EB2 PUSH2 0x2D05 JUMP JUMPDEST JUMPDEST PUSH0 PUSH2 0x2EC0 DUP6 DUP3 DUP7 ADD PUSH2 0x2D28 JUMP JUMPDEST SWAP3 POP POP PUSH1 0x20 PUSH2 0x2ED1 DUP6 DUP3 DUP7 ADD PUSH2 0x2D28 JUMP JUMPDEST SWAP2 POP POP SWAP3 POP SWAP3 SWAP1 POP JUMP JUMPDEST PUSH2 0x2EE4 DUP2 PUSH2 0x2D86 JUMP JUMPDEST DUP3 MSTORE POP POP JUMP JUMPDEST PUSH0 PUSH1 0x20 DUP3 ADD SWAP1 POP PUSH2 0x2EFD PUSH0 DUP4 ADD DUP5 PUSH2 0x2EDB JUMP JUMPDEST SWAP3 SWAP2 POP POP JUMP JUMPDEST PUSH0 DUP1 PUSH0 DUP1 PUSH0 DUP1 PUSH0 DUP1 PUSH2 0x100 DUP10 DUP12 SUB SLT ISZERO PUSH2 0x2F20 JUMPI PUSH2 0x2F1F PUSH2 0x2D05 JUMP JUMPDEST JUMPDEST PUSH0 PUSH2 0x2F2D DUP12 DUP3 DUP13 ADD PUSH2 0x2DAD JUMP JUMPDEST SWAP9 POP POP PUSH1 0x20 PUSH2 0x2F3E DUP12 DUP3 DUP13 ADD PUSH2 0x2D28 JUMP JUMPDEST SWAP8 POP POP PUSH1 0x40 PUSH2 0x2F4F DUP12 DUP3 DUP13 ADD PUSH2 0x2D28 JUMP JUMPDEST SWAP7 POP POP PUSH1 0x60 PUSH2 0x2F60 DUP12 DUP3 DUP13 ADD PUSH2 0x2D28 JUMP JUMPDEST SWAP6 POP POP PUSH1 0x80 PUSH2 0x2F71 DUP12 DUP3 DUP13 ADD PUSH2 0x2D28 JUMP JUMPDEST SWAP5 POP POP PUSH1 0xA0 PUSH2 0x2F82 DUP12 DUP3 DUP13 ADD PUSH2 0x2DAD JUMP JUMPDEST SWAP4 POP POP PUSH1 0xC0 PUSH2 0x2F93 DUP12 DUP3 DUP13 ADD PUSH2 0x2D28 JUMP JUMPDEST SWAP3 POP POP PUSH1 0xE0 PUSH2 0x2FA4 DUP12 DUP3 DUP13 ADD PUSH2 0x2D28 JUMP JUMPDEST SWAP2 POP POP SWAP3 SWAP6 SWAP9 POP SWAP3 SWAP6 SWAP9 SWAP1 SWAP4 SWAP7 POP JUMP JUMPDEST PUSH0 DUP2 ISZERO ISZERO SWAP1 POP SWAP2 SWAP1 POP JUMP JUMPDEST PUSH2 0x2FC8 DUP2 PUSH2 0x2FB4 JUMP JUMPDEST DUP3 MSTORE POP POP JUMP JUMPDEST PUSH0 PUSH1 0x20 DUP3 ADD SWAP1 POP PUSH2 0x2FE1 PUSH0 DUP4 ADD DUP5 PUSH2 0x2FBF JUMP JUMPDEST SWAP3 SWAP2 POP POP JUMP JUMPDEST PUSH0 PUSH1 0x20 DUP3 DUP5 SUB SLT ISZERO PUSH2 0x2FFC JUMPI PUSH2 0x2FFB PUSH2 0x2D05 JUMP JUMPDEST JUMPDEST PUSH0 PUSH2 0x3009 DUP5 DUP3 DUP6 ADD PUSH2 0x2DAD JUMP JUMPDEST SWAP2 POP POP SWAP3 SWAP2 POP POP JUMP JUMPDEST PUSH2 0x301B DUP2 PUSH2 0x2FB4 JUMP JUMPDEST DUP2 EQ PUSH2 0x3025 JUMPI PUSH0 DUP1 REVERT JUMPDEST POP JUMP JUMPDEST PUSH0 DUP2 CALLDATALOAD SWAP1 POP PUSH2 0x3036 DUP2 PUSH2 0x3012 JUMP JUMPDEST SWAP3 SWAP2 POP POP JUMP JUMPDEST PUSH0 DUP1 PUSH1 0x40 DUP4 DUP6 SUB SLT ISZERO PUSH2 0x3052 JUMPI PUSH2 0x3051 PUSH2 0x2D05 JUMP JUMPDEST JUMPDEST PUSH0 PUSH2 0x305F DUP6 DUP3 DUP7 ADD PUSH2 0x2DAD JUMP JUMPDEST SWAP3 POP POP PUSH1 0x20 PUSH2 0x3070 DUP6 DUP3 DUP7 ADD PUSH2 0x3028 JUMP JUMPDEST SWAP2 POP POP SWAP3 POP SWAP3 SWAP1 POP JUMP JUMPDEST PUSH2 0x3083 DUP2 PUSH2 0x2D09 JUMP JUMPDEST DUP3 MSTORE POP POP JUMP JUMPDEST PUSH0 PUSH1 0x20 DUP3 ADD SWAP1 POP PUSH2 0x309C PUSH0 DUP4 ADD DUP5 PUSH2 0x307A JUMP JUMPDEST SWAP3 SWAP2 POP POP JUMP JUMPDEST PUSH0 PUSH1 0x20 DUP3 DUP5 SUB SLT ISZERO PUSH2 0x30B7 JUMPI PUSH2 0x30B6 PUSH2 0x2D05 JUMP JUMPDEST JUMPDEST PUSH0 PUSH2 0x30C4 DUP5 DUP3 DUP6 ADD PUSH2 0x3028 JUMP JUMPDEST SWAP2 POP POP SWAP3 SWAP2 POP POP JUMP JUMPDEST PUSH0 DUP3 DUP3 MSTORE PUSH1 0x20 DUP3 ADD SWAP1 POP SWAP3 SWAP2 POP POP JUMP JUMPDEST PUSH32 0x4E6F74206F70657261746F720000000000000000000000000000000000000000 PUSH0 DUP3 ADD MSTORE POP JUMP JUMPDEST PUSH0 PUSH2 0x3111 PUSH1 0xC DUP4 PUSH2 0x30CD JUMP JUMPDEST SWAP2 POP PUSH2 0x311C DUP3 PUSH2 0x30DD JUMP JUMPDEST PUSH1 0x20 DUP3 ADD SWAP1 POP SWAP2 SWAP1 POP JUMP JUMPDEST PUSH0 PUSH1 0x20 DUP3 ADD SWAP1 POP DUP2 DUP2 SUB PUSH0 DUP4 ADD MSTORE PUSH2 0x313E DUP2 PUSH2 0x3105 JUMP JUMPDEST SWAP1 POP SWAP2 SWAP1 POP JUMP JUMPDEST PUSH32 0x526564456E76656C6F7065206973206E6F74206F70656E000000000000000000 PUSH0 DUP3 ADD MSTORE POP JUMP JUMPDEST PUSH0 PUSH2 0x3179 PUSH1 0x17 DUP4 PUSH2 0x30CD JUMP JUMPDEST SWAP2 POP PUSH2 0x3184 DUP3 PUSH2 0x3145 JUMP JUMPDEST PUSH1 0x20 DUP3 ADD SWAP1 POP SWAP2 SWAP1 POP JUMP JUMPDEST PUSH0 PUSH1 0x20 DUP3 ADD SWAP1 POP DUP2 DUP2 SUB PUSH0 DUP4 ADD MSTORE PUSH2 0x31A6 DUP2 PUSH2 0x316D JUMP JUMPDEST SWAP1 POP SWAP2 SWAP1 POP JUMP JUMPDEST PUSH0 PUSH1 0x60 DUP3 ADD SWAP1 POP PUSH2 0x31C0 PUSH0 DUP4 ADD DUP7 PUSH2 0x307A JUMP JUMPDEST PUSH2 0x31CD PUSH1 0x20 DUP4 ADD DUP6 PUSH2 0x307A JUMP JUMPDEST PUSH2 0x31DA PUSH1 0x40 DUP4 ADD DUP5 PUSH2 0x307A JUMP JUMPDEST SWAP5 SWAP4 POP POP POP POP JUMP JUMPDEST PUSH32 0x526564456E76656C6F7065206973206F7665722074696D650000000000000000 PUSH0 DUP3 ADD MSTORE POP JUMP JUMPDEST PUSH0 PUSH2 0x3216 PUSH1 0x18 DUP4 PUSH2 0x30CD JUMP JUMPDEST SWAP2 POP PUSH2 0x3221 DUP3 PUSH2 0x31E2 JUMP JUMPDEST PUSH1 0x20 DUP3 ADD SWAP1 POP SWAP2 SWAP1 POP JUMP JUMPDEST PUSH0 PUSH1 0x20 DUP3 ADD SWAP1 POP DUP2 DUP2 SUB PUSH0 DUP4 ADD MSTORE PUSH2 0x3243 DUP2 PUSH2 0x320A JUMP JUMPDEST SWAP1 POP SWAP2 SWAP1 POP JUMP JUMPDEST PUSH32 0x4E487B7100000000000000000000000000000000000000000000000000000000 PUSH0 MSTORE PUSH1 0x11 PUSH1 0x4 MSTORE PUSH1 0x24 PUSH0 REVERT JUMPDEST PUSH0 PUSH2 0x3281 DUP3 PUSH2 0x2D09 JUMP JUMPDEST SWAP2 POP PUSH2 0x328C DUP4 PUSH2 0x2D09 JUMP JUMPDEST SWAP3 POP DUP3 DUP3 ADD SWAP1 POP DUP1 DUP3 GT ISZERO PUSH2 0x32A4 JUMPI PUSH2 0x32A3 PUSH2 0x324A JUMP JUMPDEST JUMPDEST SWAP3 SWAP2 POP POP JUMP JUMPDEST PUSH32 0x526564456E76656C6F7065206973206F766572207469636B6574000000000000 PUSH0 DUP3 ADD MSTORE POP JUMP JUMPDEST PUSH0 PUSH2 0x32DE PUSH1 0x1A DUP4 PUSH2 0x30CD JUMP JUMPDEST SWAP2 POP PUSH2 0x32E9 DUP3 PUSH2 0x32AA JUMP JUMPDEST PUSH1 0x20 DUP3 ADD SWAP1 POP SWAP2 SWAP1 POP JUMP JUMPDEST PUSH0 PUSH1 0x20 DUP3 ADD SWAP1 POP DUP2 DUP2 SUB PUSH0 DUP4 ADD MSTORE PUSH2 0x330B DUP2 PUSH2 0x32D2 JUMP JUMPDEST SWAP1 POP SWAP2 SWAP1 POP JUMP JUMPDEST PUSH32 0x696E6A656374206E6F207A65726F000000000000000000000000000000000000 PUSH0 DUP3 ADD MSTORE POP JUMP JUMPDEST PUSH0 PUSH2 0x3346 PUSH1 0xE DUP4 PUSH2 0x30CD JUMP JUMPDEST SWAP2 POP PUSH2 0x3351 DUP3 PUSH2 0x3312 JUMP JUMPDEST PUSH1 0x20 DUP3 ADD SWAP1 POP SWAP2 SWAP1 POP JUMP JUMPDEST PUSH0 PUSH1 0x20 DUP3 ADD SWAP1 POP DUP2 DUP2 SUB PUSH0 DUP4 ADD MSTORE PUSH2 0x3373 DUP2 PUSH2 0x333A JUMP JUMPDEST SWAP1 POP SWAP2 SWAP1 POP JUMP JUMPDEST PUSH0 PUSH2 0x3384 DUP3 PUSH2 0x2D09 JUMP JUMPDEST SWAP2 POP PUSH32 0xFFFFFFFFFFFFFFFFFFFFFFFFFFFFFFFFFFFFFFFFFFFFFFFFFFFFFFFFFFFFFFFF DUP3 SUB PUSH2 0x33B6 JUMPI PUSH2 0x33B5 PUSH2 0x324A JUMP JUMPDEST JUMPDEST PUSH1 0x1 DUP3 ADD SWAP1 POP SWAP2 SWAP1 POP JUMP JUMPDEST PUSH0 PUSH1 0xA0 DUP3 ADD SWAP1 POP PUSH2 0x33D4 PUSH0 DUP4 ADD DUP9 PUSH2 0x307A JUMP JUMPDEST PUSH2 0x33E1 PUSH1 0x20 DUP4 ADD DUP8 PUSH2 0x307A JUMP JUMPDEST PUSH2 0x33EE PUSH1 0x40 DUP4 ADD DUP7 PUSH2 0x307A JUMP JUMPDEST PUSH2 0x33FB PUSH1 0x60 DUP4 ADD DUP6 PUSH2 0x307A JUMP JUMPDEST PUSH2 0x3408 PUSH1 0x80 DUP4 ADD DUP5 PUSH2 0x2FBF JUMP JUMPDEST SWAP7 SWAP6 POP POP POP POP POP POP JUMP JUMPDEST PUSH32 0x526564456E76656C6F7065206E6F7420636C6F73650000000000000000000000 PUSH0 DUP3 ADD MSTORE POP JUMP JUMPDEST PUSH0 PUSH2 0x3446 PUSH1 0x15 DUP4 PUSH2 0x30CD JUMP JUMPDEST SWAP2 POP PUSH2 0x3451 DUP3 PUSH2 0x3412 JUMP JUMPDEST PUSH1 0x20 DUP3 ADD SWAP1 POP SWAP2 SWAP1 POP JUMP JUMPDEST PUSH0 PUSH1 0x20 DUP3 ADD SWAP1 POP DUP2 DUP2 SUB PUSH0 DUP4 ADD MSTORE PUSH2 0x3473 DUP2 PUSH2 0x343A JUMP JUMPDEST SWAP1 POP SWAP2 SWAP1 POP JUMP JUMPDEST PUSH0 PUSH2 0x3484 DUP3 PUSH2 0x2D09 JUMP JUMPDEST SWAP2 POP PUSH2 0x348F DUP4 PUSH2 0x2D09 JUMP JUMPDEST SWAP3 POP DUP3 DUP3 MUL PUSH2 0x349D DUP2 PUSH2 0x2D09 JUMP JUMPDEST SWAP2 POP DUP3 DUP3 DIV DUP5 EQ DUP4 ISZERO OR PUSH2 0x34B4 JUMPI PUSH2 0x34B3 PUSH2 0x324A JUMP JUMPDEST JUMPDEST POP SWAP3 SWAP2 POP POP JUMP JUMPDEST PUSH32 0x7469636B65744E756D62657273206E6F207A65726F0000000000000000000000 PUSH0 DUP3 ADD MSTORE POP JUMP JUMPDEST PUSH0 PUSH2 0x34EF PUSH1 0x15 DUP4 PUSH2 0x30CD JUMP JUMPDEST SWAP2 POP PUSH2 0x34FA DUP3 PUSH2 0x34BB JUMP JUMPDEST PUSH1 0x20 DUP3 ADD SWAP1 POP SWAP2 SWAP1 POP JUMP JUMPDEST PUSH0 PUSH1 0x20 DUP3 ADD SWAP1 POP DUP2 DUP2 SUB PUSH0 DUP4 ADD MSTORE PUSH2 0x351C DUP2 PUSH2 0x34E3 JUMP JUMPDEST SWAP1 POP SWAP2 SWAP1 POP JUMP JUMPDEST PUSH32 0x526564456E76656C6F7065206E6F7420636C61696D61626C6500000000000000 PUSH0 DUP3 ADD MSTORE POP JUMP JUMPDEST PUSH0 PUSH2 0x3557 PUSH1 0x19 DUP4 PUSH2 0x30CD JUMP JUMPDEST SWAP2 POP PUSH2 0x3562 DUP3 PUSH2 0x3523 JUMP JUMPDEST PUSH1 0x20 DUP3 ADD SWAP1 POP SWAP2 SWAP1 POP JUMP JUMPDEST PUSH0 PUSH1 0x20 DUP3 ADD SWAP1 POP DUP2 DUP2 SUB PUSH0 DUP4 ADD MSTORE PUSH2 0x3584 DUP2 PUSH2 0x354B JUMP JUMPDEST SWAP1 POP SWAP2 SWAP1 POP JUMP JUMPDEST PUSH32 0x526564456E76656C6F7065206175746F20636C61696D00000000000000000000 PUSH0 DUP3 ADD MSTORE POP JUMP JUMPDEST PUSH0 PUSH2 0x35BF PUSH1 0x16 DUP4 PUSH2 0x30CD JUMP JUMPDEST SWAP2 POP PUSH2 0x35CA DUP3 PUSH2 0x358B JUMP JUMPDEST PUSH1 0x20 DUP3 ADD SWAP1 POP SWAP2 SWAP1 POP JUMP JUMPDEST PUSH0 PUSH1 0x20 DUP3 ADD SWAP1 POP DUP2 DUP2 SUB PUSH0 DUP4 ADD MSTORE PUSH2 0x35EC DUP2 PUSH2 0x35B3 JUMP JUMPDEST SWAP1 POP SWAP2 SWAP1 POP JUMP JUMPDEST PUSH32 0x43616E6E6F74206265207A65726F206164647265737300000000000000000000 PUSH0 DUP3 ADD MSTORE POP JUMP JUMPDEST PUSH0 PUSH2 0x3627 PUSH1 0x16 DUP4 PUSH2 0x30CD JUMP JUMPDEST SWAP2 POP PUSH2 0x3632 DUP3 PUSH2 0x35F3 JUMP JUMPDEST PUSH1 0x20 DUP3 ADD SWAP1 POP SWAP2 SWAP1 POP JUMP JUMPDEST PUSH0 PUSH1 0x20 DUP3 ADD SWAP1 POP DUP2 DUP2 SUB PUSH0 DUP4 ADD MSTORE PUSH2 0x3654 DUP2 PUSH2 0x361B JUMP JUMPDEST SWAP1 POP SWAP2 SWAP1 POP JUMP JUMPDEST PUSH0 PUSH1 0x40 DUP3 ADD SWAP1 POP PUSH2 0x366E PUSH0 DUP4 ADD DUP6 PUSH2 0x2EDB JUMP JUMPDEST PUSH2 0x367B PUSH1 0x20 DUP4 ADD DUP5 PUSH2 0x2FBF JUMP JUMPDEST SWAP4 SWAP3 POP POP POP JUMP JUMPDEST PUSH32 0x5265656E7472616E637947756172643A207265656E7472616E742063616C6C00 PUSH0 DUP3 ADD MSTORE POP JUMP JUMPDEST PUSH0 PUSH2 0x36B6 PUSH1 0x1F DUP4 PUSH2 0x30CD JUMP JUMPDEST SWAP2 POP PUSH2 0x36C1 DUP3 PUSH2 0x3682 JUMP JUMPDEST PUSH1 0x20 DUP3 ADD SWAP1 POP SWAP2 SWAP1 POP JUMP JUMPDEST PUSH0 PUSH1 0x20 DUP3 ADD SWAP1 POP DUP2 DUP2 SUB PUSH0 DUP4 ADD MSTORE PUSH2 0x36E3 DUP2 PUSH2 0x36AA JUMP JUMPDEST SWAP1 POP SWAP2 SWAP1 POP JUMP JUMPDEST PUSH32 0x4E487B7100000000000000000000000000000000000000000000000000000000 PUSH0 MSTORE PUSH1 0x41 PUSH1 0x4 MSTORE PUSH1 0x24 PUSH0 REVERT JUMPDEST PUSH0 PUSH2 0x3721 DUP3 PUSH2 0x2D09 JUMP JUMPDEST SWAP2 POP PUSH2 0x372C DUP4 PUSH2 0x2D09 JUMP JUMPDEST SWAP3 POP DUP3 DUP3 SUB SWAP1 POP DUP2 DUP2 GT ISZERO PUSH2 0x3744 JUMPI PUSH2 0x3743 PUSH2 0x324A JUMP JUMPDEST JUMPDEST SWAP3 SWAP2 POP POP JUMP JUMPDEST PUSH32 0x4E487B7100000000000000000000000000000000000000000000000000000000 PUSH0 MSTORE PUSH1 0x12 PUSH1 0x4 MSTORE PUSH1 0x24 PUSH0 REVERT JUMPDEST PUSH0 PUSH2 0x3781 DUP3 PUSH2 0x2D09 JUMP JUMPDEST SWAP2 POP PUSH2 0x378C DUP4 PUSH2 0x2D09 JUMP JUMPDEST SWAP3 POP DUP3 PUSH2 0x379C JUMPI PUSH2 0x379B PUSH2 0x374A JUMP JUMPDEST JUMPDEST DUP3 DUP3 MOD SWAP1 POP SWAP3 SWAP2 POP POP JUMP JUMPDEST PUSH32 0x4E487B7100000000000000000000000000000000000000000000000000000000 PUSH0 MSTORE PUSH1 0x32 PUSH1 0x4 MSTORE PUSH1 0x24 PUSH0 REVERT JUMPDEST PUSH0 PUSH2 0x37DE DUP3 PUSH2 0x2D09 JUMP JUMPDEST SWAP2 POP PUSH0 DUP3 SUB PUSH2 0x37F0 JUMPI PUSH2 0x37EF PUSH2 0x324A JUMP JUMPDEST JUMPDEST PUSH1 0x1 DUP3 SUB SWAP1 POP SWAP2 SWAP1 POP JUMP JUMPDEST PUSH0 PUSH1 0x40 DUP3 ADD SWAP1 POP PUSH2 0x380E PUSH0 DUP4 ADD DUP6 PUSH2 0x307A JUMP JUMPDEST PUSH2 0x381B PUSH1 0x20 DUP4 ADD DUP5 PUSH2 0x2FBF JUMP JUMPDEST SWAP4 SWAP3 POP POP POP JUMP JUMPDEST PUSH32 0x6E6F207072697A65000000000000000000000000000000000000000000000000 PUSH0 DUP3 ADD MSTORE POP JUMP JUMPDEST PUSH0 PUSH2 0x3856 PUSH1 0x8 DUP4 PUSH2 0x30CD JUMP JUMPDEST SWAP2 POP PUSH2 0x3861 DUP3 PUSH2 0x3822 JUMP JUMPDEST PUSH1 0x20 DUP3 ADD SWAP1 POP SWAP2 SWAP1 POP JUMP JUMPDEST PUSH0 PUSH1 0x20 DUP3 ADD SWAP1 POP DUP2 DUP2 SUB PUSH0 DUP4 ADD MSTORE PUSH2 0x3883 DUP2 PUSH2 0x384A JUMP JUMPDEST SWAP1 POP SWAP2 SWAP1 POP JUMP JUMPDEST PUSH0 PUSH1 0x60 DUP3 ADD SWAP1 POP PUSH2 0x389D PUSH0 DUP4 ADD DUP7 PUSH2 0x2EDB JUMP JUMPDEST PUSH2 0x38AA PUSH1 0x20 DUP4 ADD DUP6 PUSH2 0x2EDB JUMP JUMPDEST PUSH2 0x38B7 PUSH1 0x40 DUP4 ADD DUP5 PUSH2 0x307A JUMP JUMPDEST SWAP5 SWAP4 POP POP POP POP JUMP JUMPDEST PUSH0 PUSH1 0x40 DUP3 ADD SWAP1 POP PUSH2 0x38D2 PUSH0 DUP4 ADD DUP6 PUSH2 0x2EDB JUMP JUMPDEST PUSH2 0x38DF PUSH1 0x20 DUP4 ADD DUP5 PUSH2 0x307A JUMP JUMPDEST SWAP4 SWAP3 POP POP POP JUMP JUMPDEST PUSH0 DUP2 SWAP1 POP SWAP2 SWAP1 POP JUMP JUMPDEST PUSH2 0x3900 PUSH2 0x38FB DUP3 PUSH2 0x2D09 JUMP JUMPDEST PUSH2 0x38E6 JUMP JUMPDEST DUP3 MSTORE POP POP JUMP JUMPDEST PUSH0 PUSH2 0x3911 DUP3 DUP6 PUSH2 0x38EF JUMP JUMPDEST PUSH1 0x20 DUP3 ADD SWAP2 POP PUSH2 0x3921 DUP3 DUP5 PUSH2 0x38EF JUMP JUMPDEST PUSH1 0x20 DUP3 ADD SWAP2 POP DUP2 SWAP1 POP SWAP4 SWAP3 POP POP POP JUMP JUMPDEST PUSH32 0x696E646578206F75742072616E67650000000000000000000000000000000000 PUSH0 DUP3 ADD MSTORE POP JUMP JUMPDEST PUSH0 PUSH2 0x3965 PUSH1 0xF DUP4 PUSH2 0x30CD JUMP JUMPDEST SWAP2 POP PUSH2 0x3970 DUP3 PUSH2 0x3931 JUMP JUMPDEST PUSH1 0x20 DUP3 ADD SWAP1 POP SWAP2 SWAP1 POP JUMP JUMPDEST PUSH0 PUSH1 0x20 DUP3 ADD SWAP1 POP DUP2 DUP2 SUB PUSH0 DUP4 ADD MSTORE PUSH2 0x3992 DUP2 PUSH2 0x3959 JUMP JUMPDEST SWAP1 POP SWAP2 SWAP1 POP JUMP JUMPDEST PUSH0 DUP2 MLOAD SWAP1 POP PUSH2 0x39A7 DUP2 PUSH2 0x3012 JUMP JUMPDEST SWAP3 SWAP2 POP POP JUMP JUMPDEST PUSH0 PUSH1 0x20 DUP3 DUP5 SUB SLT ISZERO PUSH2 0x39C2 JUMPI PUSH2 0x39C1 PUSH2 0x2D05 JUMP JUMPDEST JUMPDEST PUSH0 PUSH2 0x39CF DUP5 DUP3 DUP6 ADD PUSH2 0x3999 JUMP JUMPDEST SWAP2 POP POP SWAP3 SWAP2 POP POP JUMP JUMPDEST PUSH0 PUSH4 0xFFFFFFFF DUP3 AND SWAP1 POP SWAP2 SWAP1 POP JUMP JUMPDEST PUSH0 PUSH2 0x39F1 DUP3 PUSH2 0x39D8 JUMP JUMPDEST SWAP2 POP PUSH2 0x39FC DUP4 PUSH2 0x39D8 JUMP JUMPDEST SWAP3 POP DUP3 DUP3 SUB SWAP1 POP PUSH4 0xFFFFFFFF DUP2 GT ISZERO PUSH2 0x3A18 JUMPI PUSH2 0x3A17 PUSH2 0x324A JUMP JUMPDEST JUMPDEST SWAP3 SWAP2 POP POP JUMP JUMPDEST PUSH0 DUP2 MLOAD SWAP1 POP SWAP2 SWAP1 POP JUMP JUMPDEST PUSH0 DUP2 SWAP1 POP SWAP3 SWAP2 POP POP JUMP JUMPDEST PUSH0 JUMPDEST DUP4 DUP2 LT ISZERO PUSH2 0x3A4F JUMPI DUP1 DUP3 ADD MLOAD DUP2 DUP5 ADD MSTORE PUSH1 0x20 DUP2 ADD SWAP1 POP PUSH2 0x3A34 JUMP JUMPDEST PUSH0 DUP5 DUP5 ADD MSTORE POP POP POP POP JUMP JUMPDEST PUSH0 PUSH2 0x3A64 DUP3 PUSH2 0x3A1E JUMP JUMPDEST PUSH2 0x3A6E DUP2 DUP6 PUSH2 0x3A28 JUMP JUMPDEST SWAP4 POP PUSH2 0x3A7E DUP2 DUP6 PUSH1 0x20 DUP7 ADD PUSH2 0x3A32 JUMP JUMPDEST DUP1 DUP5 ADD SWAP2 POP POP SWAP3 SWAP2 POP POP JUMP JUMPDEST PUSH0 PUSH2 0x3A95 DUP3 DUP5 PUSH2 0x3A5A JUMP JUMPDEST SWAP2 POP DUP2 SWAP1 POP SWAP3 SWAP2 POP POP JUMP INVALID LOG2 PUSH5 0x6970667358 0x22 SLT KECCAK256 PUSH18 0xA1AEDA410BC56D25B5D05F9D0BF84F7F38D3 0xF6 0x25 PUSH17 0x77D6905712540EDE0E3164736F6C634300 ADDMOD EQ STOP CALLER "
				},
				"gasEstimates": {
					"creation": {
						"codeDepositCost": "3012400",
						"executionCost": "infinite",
						"totalCost": "infinite"
					},
					"external": {
						"buyTickets(uint256,address,uint256)": "infinite",
						"claimPrize(uint256)": "infinite",
						"createRedEnvelope(address,uint256,uint256,uint256,uint256,address,uint256,uint256)": "infinite",
						"currentId()": "2469",
						"defaultAutoClaim()": "2555",
						"drawPrize(uint256,uint256)": "infinite",
						"endRedEnvelope(uint256)": "infinite",
						"getTickets(uint256,address,uint256)": "infinite",
						"injectTickets(uint256,uint256)": "infinite",
						"operatorAddressList(address)": "2856",
						"owner()": "2560",
						"redEnvelopeStatus(uint256)": "3022",
						"renounceOwnership()": "infinite",
						"setDefaultAutoClaim(bool)": "infinite",
						"setOperatorAddress(address,bool)": "infinite",
						"transferOwnership(address)": "infinite"
					},
					"internal": {
						"_calculatePrize(uint256,uint256,uint256[] memory)": "infinite",
						"_claimPrize(uint256,address)": "infinite",
						"_deriveRandom(uint256,uint256)": "infinite",
						"_getSortRandoms(uint256,uint256,uint256)": "infinite",
						"_getTicket(uint256,address,uint256,bool)": "infinite",
						"_getTicket(uint256,uint256)": "infinite",
						"_injectTickets(uint256,address,uint256)": "infinite",
						"_leftRotate(uint256,uint32)": "infinite",
						"_removeEnvelope(uint256)": "infinite",
						"_returnInject(uint256)": "infinite"
					}
				},
				"methodIdentifiers": {
					"buyTickets(uint256,address,uint256)": "c5e7bb33",
					"claimPrize(uint256)": "d7098154",
					"createRedEnvelope(address,uint256,uint256,uint256,uint256,address,uint256,uint256)": "9be8a306",
					"currentId()": "e00dd161",
					"defaultAutoClaim()": "a210d5e0",
					"drawPrize(uint256,uint256)": "bce3468d",
					"endRedEnvelope(uint256)": "3834efe1",
					"getTickets(uint256,address,uint256)": "3ddb7f19",
					"injectTickets(uint256,uint256)": "559f24bc",
					"operatorAddressList(address)": "bc6bce91",
					"owner()": "8da5cb5b",
					"redEnvelopeStatus(uint256)": "4f2fccb0",
					"renounceOwnership()": "715018a6",
					"setDefaultAutoClaim(bool)": "f41188ed",
					"setOperatorAddress(address,bool)": "d9828174",
					"transferOwnership(address)": "f2fde38b"
				}
			},
			"storageLayout": {
				"storage": [
					{
						"astId": 158,
						"contract": "LuckyRedEnvelopeV2.sol:LuckyRedEnvelopeV2",
						"label": "_status",
						"offset": 0,
						"slot": "0",
						"type": "t_uint256"
					},
					{
						"astId": 8,
						"contract": "LuckyRedEnvelopeV2.sol:LuckyRedEnvelopeV2",
						"label": "_owner",
						"offset": 0,
						"slot": "1",
						"type": "t_address"
					},
					{
						"astId": 917,
						"contract": "LuckyRedEnvelopeV2.sol:LuckyRedEnvelopeV2",
						"label": "operatorAddressList",
						"offset": 0,
						"slot": "2",
						"type": "t_mapping(t_address,t_bool)"
					},
					{
						"astId": 919,
						"contract": "LuckyRedEnvelopeV2.sol:LuckyRedEnvelopeV2",
						"label": "currentId",
						"offset": 0,
						"slot": "3",
						"type": "t_uint256"
					},
					{
						"astId": 921,
						"contract": "LuckyRedEnvelopeV2.sol:LuckyRedEnvelopeV2",
						"label": "defaultAutoClaim",
						"offset": 0,
						"slot": "4",
						"type": "t_bool"
					},
					{
						"astId": 970,
						"contract": "LuckyRedEnvelopeV2.sol:LuckyRedEnvelopeV2",
						"label": "_redEnvelopes",
						"offset": 0,
						"slot": "5",
						"type": "t_mapping(t_uint256,t_struct(RedEnvelope)958_storage)"
					},
					{
						"astId": 977,
						"contract": "LuckyRedEnvelopeV2.sol:LuckyRedEnvelopeV2",
						"label": "_tickets",
						"offset": 0,
						"slot": "6",
						"type": "t_mapping(t_uint256,t_mapping(t_uint256,t_struct(Ticket)965_storage))"
					},
					{
						"astId": 983,
						"contract": "LuckyRedEnvelopeV2.sol:LuckyRedEnvelopeV2",
						"label": "_prizedticketIndex",
						"offset": 0,
						"slot": "7",
						"type": "t_mapping(t_uint256,t_mapping(t_uint256,t_bool))"
					},
					{
						"astId": 989,
						"contract": "LuckyRedEnvelopeV2.sol:LuckyRedEnvelopeV2",
						"label": "_userAddrTicketNum",
						"offset": 0,
						"slot": "8",
						"type": "t_mapping(t_uint256,t_mapping(t_address,t_uint256))"
					},
					{
						"astId": 995,
						"contract": "LuckyRedEnvelopeV2.sol:LuckyRedEnvelopeV2",
						"label": "_userAddrIndex",
						"offset": 0,
						"slot": "9",
						"type": "t_mapping(t_uint256,t_mapping(t_uint256,t_address))"
					},
					{
						"astId": 1001,
						"contract": "LuckyRedEnvelopeV2.sol:LuckyRedEnvelopeV2",
						"label": "_amount2claimed",
						"offset": 0,
						"slot": "10",
						"type": "t_mapping(t_uint256,t_mapping(t_address,t_uint256))"
					},
					{
						"astId": 1007,
						"contract": "LuckyRedEnvelopeV2.sol:LuckyRedEnvelopeV2",
						"label": "_injectAddrIndex",
						"offset": 0,
						"slot": "11",
						"type": "t_mapping(t_uint256,t_mapping(t_uint256,t_address))"
					},
					{
						"astId": 1013,
						"contract": "LuckyRedEnvelopeV2.sol:LuckyRedEnvelopeV2",
						"label": "_injectTicketMap",
						"offset": 0,
						"slot": "12",
						"type": "t_mapping(t_uint256,t_mapping(t_address,t_uint256))"
					}
				],
				"types": {
					"t_address": {
						"encoding": "inplace",
						"label": "address",
						"numberOfBytes": "20"
					},
					"t_bool": {
						"encoding": "inplace",
						"label": "bool",
						"numberOfBytes": "1"
					},
					"t_enum(Status)926": {
						"encoding": "inplace",
						"label": "enum LuckyRedEnvelopeV2.Status",
						"numberOfBytes": "1"
					},
					"t_mapping(t_address,t_bool)": {
						"encoding": "mapping",
						"key": "t_address",
						"label": "mapping(address => bool)",
						"numberOfBytes": "32",
						"value": "t_bool"
					},
					"t_mapping(t_address,t_uint256)": {
						"encoding": "mapping",
						"key": "t_address",
						"label": "mapping(address => uint256)",
						"numberOfBytes": "32",
						"value": "t_uint256"
					},
					"t_mapping(t_uint256,t_address)": {
						"encoding": "mapping",
						"key": "t_uint256",
						"label": "mapping(uint256 => address)",
						"numberOfBytes": "32",
						"value": "t_address"
					},
					"t_mapping(t_uint256,t_bool)": {
						"encoding": "mapping",
						"key": "t_uint256",
						"label": "mapping(uint256 => bool)",
						"numberOfBytes": "32",
						"value": "t_bool"
					},
					"t_mapping(t_uint256,t_mapping(t_address,t_uint256))": {
						"encoding": "mapping",
						"key": "t_uint256",
						"label": "mapping(uint256 => mapping(address => uint256))",
						"numberOfBytes": "32",
						"value": "t_mapping(t_address,t_uint256)"
					},
					"t_mapping(t_uint256,t_mapping(t_uint256,t_address))": {
						"encoding": "mapping",
						"key": "t_uint256",
						"label": "mapping(uint256 => mapping(uint256 => address))",
						"numberOfBytes": "32",
						"value": "t_mapping(t_uint256,t_address)"
					},
					"t_mapping(t_uint256,t_mapping(t_uint256,t_bool))": {
						"encoding": "mapping",
						"key": "t_uint256",
						"label": "mapping(uint256 => mapping(uint256 => bool))",
						"numberOfBytes": "32",
						"value": "t_mapping(t_uint256,t_bool)"
					},
					"t_mapping(t_uint256,t_mapping(t_uint256,t_struct(Ticket)965_storage))": {
						"encoding": "mapping",
						"key": "t_uint256",
						"label": "mapping(uint256 => mapping(uint256 => struct LuckyRedEnvelopeV2.Ticket))",
						"numberOfBytes": "32",
						"value": "t_mapping(t_uint256,t_struct(Ticket)965_storage)"
					},
					"t_mapping(t_uint256,t_struct(RedEnvelope)958_storage)": {
						"encoding": "mapping",
						"key": "t_uint256",
						"label": "mapping(uint256 => struct LuckyRedEnvelopeV2.RedEnvelope)",
						"numberOfBytes": "32",
						"value": "t_struct(RedEnvelope)958_storage"
					},
					"t_mapping(t_uint256,t_struct(Ticket)965_storage)": {
						"encoding": "mapping",
						"key": "t_uint256",
						"label": "mapping(uint256 => struct LuckyRedEnvelopeV2.Ticket)",
						"numberOfBytes": "32",
						"value": "t_struct(Ticket)965_storage"
					},
					"t_struct(RedEnvelope)958_storage": {
						"encoding": "inplace",
						"label": "struct LuckyRedEnvelopeV2.RedEnvelope",
						"members": [
							{
								"astId": 928,
								"contract": "LuckyRedEnvelopeV2.sol:LuckyRedEnvelopeV2",
								"label": "ticketToken",
								"offset": 0,
								"slot": "0",
								"type": "t_address"
							},
							{
								"astId": 931,
								"contract": "LuckyRedEnvelopeV2.sol:LuckyRedEnvelopeV2",
								"label": "status",
								"offset": 20,
								"slot": "0",
								"type": "t_enum(Status)926"
							},
							{
								"astId": 933,
								"contract": "LuckyRedEnvelopeV2.sol:LuckyRedEnvelopeV2",
								"label": "startTime",
								"offset": 0,
								"slot": "1",
								"type": "t_uint256"
							},
							{
								"astId": 935,
								"contract": "LuckyRedEnvelopeV2.sol:LuckyRedEnvelopeV2",
								"label": "endTime",
								"offset": 0,
								"slot": "2",
								"type": "t_uint256"
							},
							{
								"astId": 937,
								"contract": "LuckyRedEnvelopeV2.sol:LuckyRedEnvelopeV2",
								"label": "maxTickets",
								"offset": 0,
								"slot": "3",
								"type": "t_uint256"
							},
							{
								"astId": 939,
								"contract": "LuckyRedEnvelopeV2.sol:LuckyRedEnvelopeV2",
								"label": "maxPrizeNum",
								"offset": 0,
								"slot": "4",
								"type": "t_uint256"
							},
							{
								"astId": 941,
								"contract": "LuckyRedEnvelopeV2.sol:LuckyRedEnvelopeV2",
								"label": "buyTickets",
								"offset": 0,
								"slot": "5",
								"type": "t_uint256"
							},
							{
								"astId": 943,
								"contract": "LuckyRedEnvelopeV2.sol:LuckyRedEnvelopeV2",
								"label": "getTickets",
								"offset": 0,
								"slot": "6",
								"type": "t_uint256"
							},
							{
								"astId": 945,
								"contract": "LuckyRedEnvelopeV2.sol:LuckyRedEnvelopeV2",
								"label": "injectTickets",
								"offset": 0,
								"slot": "7",
								"type": "t_uint256"
							},
							{
								"astId": 947,
								"contract": "LuckyRedEnvelopeV2.sol:LuckyRedEnvelopeV2",
								"label": "userAddrNum",
								"offset": 0,
								"slot": "8",
								"type": "t_uint256"
							},
							{
								"astId": 949,
								"contract": "LuckyRedEnvelopeV2.sol:LuckyRedEnvelopeV2",
								"label": "userTxNum",
								"offset": 0,
								"slot": "9",
								"type": "t_uint256"
							},
							{
								"astId": 951,
								"contract": "LuckyRedEnvelopeV2.sol:LuckyRedEnvelopeV2",
								"label": "injectAddrNum",
								"offset": 0,
								"slot": "10",
								"type": "t_uint256"
							},
							{
								"astId": 953,
								"contract": "LuckyRedEnvelopeV2.sol:LuckyRedEnvelopeV2",
								"label": "ticketPirce",
								"offset": 0,
								"slot": "11",
								"type": "t_uint256"
							},
							{
								"astId": 955,
								"contract": "LuckyRedEnvelopeV2.sol:LuckyRedEnvelopeV2",
								"label": "secret",
								"offset": 0,
								"slot": "12",
								"type": "t_uint256"
							},
							{
								"astId": 957,
								"contract": "LuckyRedEnvelopeV2.sol:LuckyRedEnvelopeV2",
								"label": "autoClaim",
								"offset": 0,
								"slot": "13",
								"type": "t_bool"
							}
						],
						"numberOfBytes": "448"
					},
					"t_struct(Ticket)965_storage": {
						"encoding": "inplace",
						"label": "struct LuckyRedEnvelopeV2.Ticket",
						"members": [
							{
								"astId": 960,
								"contract": "LuckyRedEnvelopeV2.sol:LuckyRedEnvelopeV2",
								"label": "ticketNumbers",
								"offset": 0,
								"slot": "0",
								"type": "t_uint256"
							},
							{
								"astId": 962,
								"contract": "LuckyRedEnvelopeV2.sol:LuckyRedEnvelopeV2",
								"label": "receiveAddress",
								"offset": 0,
								"slot": "1",
								"type": "t_address"
							},
							{
								"astId": 964,
								"contract": "LuckyRedEnvelopeV2.sol:LuckyRedEnvelopeV2",
								"label": "buy",
								"offset": 20,
								"slot": "1",
								"type": "t_bool"
							}
						],
						"numberOfBytes": "64"
					},
					"t_uint256": {
						"encoding": "inplace",
						"label": "uint256",
						"numberOfBytes": "32"
					}
				}
			},
			"userdoc": {
				"kind": "user",
				"methods": {
					"createRedEnvelope(address,uint256,uint256,uint256,uint256,address,uint256,uint256)": {
						"notice": "create the RedEnvelope"
					}
				},
				"version": 1
			}
		}
	}
}